{
	"contracts/externelLibrary/libraryTypedStaticCall/MathsLibrary.sol": {
		"MathsLibrary": {
			"abi": [
				{
					"inputs": [
						{
							"internalType": "uint256",
							"name": "a",
							"type": "uint256"
						},
						{
							"internalType": "uint256",
							"name": "b",
							"type": "uint256"
						}
					],
					"name": "add",
					"outputs": [
						{
							"internalType": "uint256",
							"name": "",
							"type": "uint256"
						}
					],
					"stateMutability": "pure",
					"type": "function"
				},
				{
					"inputs": [
						{
							"internalType": "uint256",
							"name": "a",
							"type": "uint256"
						},
						{
							"internalType": "uint256",
							"name": "b",
							"type": "uint256"
						}
					],
					"name": "div",
					"outputs": [
						{
							"internalType": "uint256",
							"name": "",
							"type": "uint256"
						}
					],
					"stateMutability": "pure",
					"type": "function"
				},
				{
					"inputs": [
						{
							"internalType": "uint256",
							"name": "a",
							"type": "uint256"
						},
						{
							"internalType": "uint256",
							"name": "b",
							"type": "uint256"
						}
					],
					"name": "mul",
					"outputs": [
						{
							"internalType": "uint256",
							"name": "",
							"type": "uint256"
						}
					],
					"stateMutability": "pure",
					"type": "function"
				},
				{
					"inputs": [
						{
							"internalType": "uint256",
							"name": "a",
							"type": "uint256"
						},
						{
							"internalType": "uint256",
							"name": "b",
							"type": "uint256"
						}
					],
					"name": "sub",
					"outputs": [
						{
							"internalType": "uint256",
							"name": "",
							"type": "uint256"
						}
					],
					"stateMutability": "pure",
					"type": "function"
				}
			],
			"devdoc": {
				"kind": "dev",
				"methods": {},
				"version": 1
			},
			"evm": {
				"assembly": "    /* \"contracts/externelLibrary/libraryTypedStaticCall/MathsLibrary.sol\":60:471  library MathsLibrary {... */\n  dataSize(sub_0)\n  dataOffset(sub_0)\n  0x0b\n  dup3\n  dup3\n  dup3\n  codecopy\n  dup1\n  mload\n  0x00\n  byte\n  0x73\n  eq\n  tag_1\n  jumpi\n  mstore(0x00, 0x4e487b7100000000000000000000000000000000000000000000000000000000)\n  mstore(0x04, 0x00)\n  revert(0x00, 0x24)\ntag_1:\n  mstore(0x00, address)\n  0x73\n  dup2\n  mstore8\n  dup3\n  dup2\n  return\nstop\n\nsub_0: assembly {\n        /* \"contracts/externelLibrary/libraryTypedStaticCall/MathsLibrary.sol\":60:471  library MathsLibrary {... */\n      eq(address, deployTimeAddress())\n      mstore(0x40, 0x80)\n      jumpi(tag_1, lt(calldatasize, 0x04))\n      shr(0xe0, calldataload(0x00))\n      dup1\n      0x771602f7\n      eq\n      tag_2\n      jumpi\n      dup1\n      0xa391c15b\n      eq\n      tag_3\n      jumpi\n      dup1\n      0xb67d77c5\n      eq\n      tag_4\n      jumpi\n      dup1\n      0xc8a4ac9c\n      eq\n      tag_5\n      jumpi\n    tag_1:\n      revert(0x00, 0x00)\n        /* \"contracts/externelLibrary/libraryTypedStaticCall/MathsLibrary.sol\":88:177  function add(uint a, uint b) external pure returns (uint) {... */\n    tag_2:\n      tag_6\n      0x04\n      dup1\n      calldatasize\n      sub\n      dup2\n      add\n      swap1\n      tag_7\n      swap2\n      swap1\n      tag_8\n      jump\t// in\n    tag_7:\n      tag_9\n      jump\t// in\n    tag_6:\n      mload(0x40)\n      tag_10\n      swap2\n      swap1\n      tag_11\n      jump\t// in\n    tag_10:\n      mload(0x40)\n      dup1\n      swap2\n      sub\n      swap1\n      return\n        /* \"contracts/externelLibrary/libraryTypedStaticCall/MathsLibrary.sol\":379:468  function div(uint a, uint b) external pure returns (uint) {... */\n    tag_3:\n      tag_12\n      0x04\n      dup1\n      calldatasize\n      sub\n      dup2\n      add\n      swap1\n      tag_13\n      swap2\n      swap1\n      tag_8\n      jump\t// in\n    tag_13:\n      tag_14\n      jump\t// in\n    tag_12:\n      mload(0x40)\n      tag_15\n      swap2\n      swap1\n      tag_11\n      jump\t// in\n    tag_15:\n      mload(0x40)\n      dup1\n      swap2\n      sub\n      swap1\n      return\n        /* \"contracts/externelLibrary/libraryTypedStaticCall/MathsLibrary.sol\":282:371  function sub(uint a, uint b) external pure returns (uint) {... */\n    tag_4:\n      tag_16\n      0x04\n      dup1\n      calldatasize\n      sub\n      dup2\n      add\n      swap1\n      tag_17\n      swap2\n      swap1\n      tag_8\n      jump\t// in\n    tag_17:\n      tag_18\n      jump\t// in\n    tag_16:\n      mload(0x40)\n      tag_19\n      swap2\n      swap1\n      tag_11\n      jump\t// in\n    tag_19:\n      mload(0x40)\n      dup1\n      swap2\n      sub\n      swap1\n      return\n        /* \"contracts/externelLibrary/libraryTypedStaticCall/MathsLibrary.sol\":185:274  function mul(uint a, uint b) external pure returns (uint) {... */\n    tag_5:\n      tag_20\n      0x04\n      dup1\n      calldatasize\n      sub\n      dup2\n      add\n      swap1\n      tag_21\n      swap2\n      swap1\n      tag_8\n      jump\t// in\n    tag_21:\n      tag_22\n      jump\t// in\n    tag_20:\n      mload(0x40)\n      tag_23\n      swap2\n      swap1\n      tag_11\n      jump\t// in\n    tag_23:\n      mload(0x40)\n      dup1\n      swap2\n      sub\n      swap1\n      return\n        /* \"contracts/externelLibrary/libraryTypedStaticCall/MathsLibrary.sol\":88:177  function add(uint a, uint b) external pure returns (uint) {... */\n    tag_9:\n        /* \"contracts/externelLibrary/libraryTypedStaticCall/MathsLibrary.sol\":140:144  uint */\n      0x00\n        /* \"contracts/externelLibrary/libraryTypedStaticCall/MathsLibrary.sol\":168:169  b */\n      dup2\n        /* \"contracts/externelLibrary/libraryTypedStaticCall/MathsLibrary.sol\":164:165  a */\n      dup4\n        /* \"contracts/externelLibrary/libraryTypedStaticCall/MathsLibrary.sol\":164:169  a + b */\n      tag_25\n      swap2\n      swap1\n      tag_26\n      jump\t// in\n    tag_25:\n        /* \"contracts/externelLibrary/libraryTypedStaticCall/MathsLibrary.sol\":157:169  return a + b */\n      swap1\n      pop\n        /* \"contracts/externelLibrary/libraryTypedStaticCall/MathsLibrary.sol\":88:177  function add(uint a, uint b) external pure returns (uint) {... */\n      swap3\n      swap2\n      pop\n      pop\n      jump\t// out\n        /* \"contracts/externelLibrary/libraryTypedStaticCall/MathsLibrary.sol\":379:468  function div(uint a, uint b) external pure returns (uint) {... */\n    tag_14:\n        /* \"contracts/externelLibrary/libraryTypedStaticCall/MathsLibrary.sol\":431:435  uint */\n      0x00\n        /* \"contracts/externelLibrary/libraryTypedStaticCall/MathsLibrary.sol\":459:460  b */\n      dup2\n        /* \"contracts/externelLibrary/libraryTypedStaticCall/MathsLibrary.sol\":455:456  a */\n      dup4\n        /* \"contracts/externelLibrary/libraryTypedStaticCall/MathsLibrary.sol\":455:460  a / b */\n      tag_28\n      swap2\n      swap1\n      tag_29\n      jump\t// in\n    tag_28:\n        /* \"contracts/externelLibrary/libraryTypedStaticCall/MathsLibrary.sol\":448:460  return a / b */\n      swap1\n      pop\n        /* \"contracts/externelLibrary/libraryTypedStaticCall/MathsLibrary.sol\":379:468  function div(uint a, uint b) external pure returns (uint) {... */\n      swap3\n      swap2\n      pop\n      pop\n      jump\t// out\n        /* \"contracts/externelLibrary/libraryTypedStaticCall/MathsLibrary.sol\":282:371  function sub(uint a, uint b) external pure returns (uint) {... */\n    tag_18:\n        /* \"contracts/externelLibrary/libraryTypedStaticCall/MathsLibrary.sol\":334:338  uint */\n      0x00\n        /* \"contracts/externelLibrary/libraryTypedStaticCall/MathsLibrary.sol\":362:363  b */\n      dup2\n        /* \"contracts/externelLibrary/libraryTypedStaticCall/MathsLibrary.sol\":358:359  a */\n      dup4\n        /* \"contracts/externelLibrary/libraryTypedStaticCall/MathsLibrary.sol\":358:363  a - b */\n      tag_31\n      swap2\n      swap1\n      tag_32\n      jump\t// in\n    tag_31:\n        /* \"contracts/externelLibrary/libraryTypedStaticCall/MathsLibrary.sol\":351:363  return a - b */\n      swap1\n      pop\n        /* \"contracts/externelLibrary/libraryTypedStaticCall/MathsLibrary.sol\":282:371  function sub(uint a, uint b) external pure returns (uint) {... */\n      swap3\n      swap2\n      pop\n      pop\n      jump\t// out\n        /* \"contracts/externelLibrary/libraryTypedStaticCall/MathsLibrary.sol\":185:274  function mul(uint a, uint b) external pure returns (uint) {... */\n    tag_22:\n        /* \"contracts/externelLibrary/libraryTypedStaticCall/MathsLibrary.sol\":237:241  uint */\n      0x00\n        /* \"contracts/externelLibrary/libraryTypedStaticCall/MathsLibrary.sol\":265:266  b */\n      dup2\n        /* \"contracts/externelLibrary/libraryTypedStaticCall/MathsLibrary.sol\":261:262  a */\n      dup4\n        /* \"contracts/externelLibrary/libraryTypedStaticCall/MathsLibrary.sol\":261:266  a * b */\n      tag_34\n      swap2\n      swap1\n      tag_35\n      jump\t// in\n    tag_34:\n        /* \"contracts/externelLibrary/libraryTypedStaticCall/MathsLibrary.sol\":254:266  return a * b */\n      swap1\n      pop\n        /* \"contracts/externelLibrary/libraryTypedStaticCall/MathsLibrary.sol\":185:274  function mul(uint a, uint b) external pure returns (uint) {... */\n      swap3\n      swap2\n      pop\n      pop\n      jump\t// out\n        /* \"#utility.yul\":88:205   */\n    tag_37:\n        /* \"#utility.yul\":197:198   */\n      0x00\n        /* \"#utility.yul\":194:195   */\n      0x00\n        /* \"#utility.yul\":187:199   */\n      revert\n        /* \"#utility.yul\":334:411   */\n    tag_39:\n        /* \"#utility.yul\":371:378   */\n      0x00\n        /* \"#utility.yul\":400:405   */\n      dup2\n        /* \"#utility.yul\":389:405   */\n      swap1\n      pop\n        /* \"#utility.yul\":334:411   */\n      swap2\n      swap1\n      pop\n      jump\t// out\n        /* \"#utility.yul\":417:539   */\n    tag_40:\n        /* \"#utility.yul\":490:514   */\n      tag_51\n        /* \"#utility.yul\":508:513   */\n      dup2\n        /* \"#utility.yul\":490:514   */\n      tag_39\n      jump\t// in\n    tag_51:\n        /* \"#utility.yul\":483:488   */\n      dup2\n        /* \"#utility.yul\":480:515   */\n      eq\n        /* \"#utility.yul\":470:533   */\n      tag_52\n      jumpi\n        /* \"#utility.yul\":529:530   */\n      0x00\n        /* \"#utility.yul\":526:527   */\n      0x00\n        /* \"#utility.yul\":519:531   */\n      revert\n        /* \"#utility.yul\":470:533   */\n    tag_52:\n        /* \"#utility.yul\":417:539   */\n      pop\n      jump\t// out\n        /* \"#utility.yul\":545:684   */\n    tag_41:\n        /* \"#utility.yul\":591:596   */\n      0x00\n        /* \"#utility.yul\":629:635   */\n      dup2\n        /* \"#utility.yul\":616:636   */\n      calldataload\n        /* \"#utility.yul\":607:636   */\n      swap1\n      pop\n        /* \"#utility.yul\":645:678   */\n      tag_54\n        /* \"#utility.yul\":672:677   */\n      dup2\n        /* \"#utility.yul\":645:678   */\n      tag_40\n      jump\t// in\n    tag_54:\n        /* \"#utility.yul\":545:684   */\n      swap3\n      swap2\n      pop\n      pop\n      jump\t// out\n        /* \"#utility.yul\":690:1164   */\n    tag_8:\n        /* \"#utility.yul\":758:764   */\n      0x00\n        /* \"#utility.yul\":766:772   */\n      0x00\n        /* \"#utility.yul\":815:817   */\n      0x40\n        /* \"#utility.yul\":803:812   */\n      dup4\n        /* \"#utility.yul\":794:801   */\n      dup6\n        /* \"#utility.yul\":790:813   */\n      sub\n        /* \"#utility.yul\":786:818   */\n      slt\n        /* \"#utility.yul\":783:902   */\n      iszero\n      tag_56\n      jumpi\n        /* \"#utility.yul\":821:900   */\n      tag_57\n      tag_37\n      jump\t// in\n    tag_57:\n        /* \"#utility.yul\":783:902   */\n    tag_56:\n        /* \"#utility.yul\":941:942   */\n      0x00\n        /* \"#utility.yul\":966:1019   */\n      tag_58\n        /* \"#utility.yul\":1011:1018   */\n      dup6\n        /* \"#utility.yul\":1002:1008   */\n      dup3\n        /* \"#utility.yul\":991:1000   */\n      dup7\n        /* \"#utility.yul\":987:1009   */\n      add\n        /* \"#utility.yul\":966:1019   */\n      tag_41\n      jump\t// in\n    tag_58:\n        /* \"#utility.yul\":956:1019   */\n      swap3\n      pop\n        /* \"#utility.yul\":912:1029   */\n      pop\n        /* \"#utility.yul\":1068:1070   */\n      0x20\n        /* \"#utility.yul\":1094:1147   */\n      tag_59\n        /* \"#utility.yul\":1139:1146   */\n      dup6\n        /* \"#utility.yul\":1130:1136   */\n      dup3\n        /* \"#utility.yul\":1119:1128   */\n      dup7\n        /* \"#utility.yul\":1115:1137   */\n      add\n        /* \"#utility.yul\":1094:1147   */\n      tag_41\n      jump\t// in\n    tag_59:\n        /* \"#utility.yul\":1084:1147   */\n      swap2\n      pop\n        /* \"#utility.yul\":1039:1157   */\n      pop\n        /* \"#utility.yul\":690:1164   */\n      swap3\n      pop\n      swap3\n      swap1\n      pop\n      jump\t// out\n        /* \"#utility.yul\":1170:1296   */\n    tag_42:\n        /* \"#utility.yul\":1265:1289   */\n      tag_61\n        /* \"#utility.yul\":1283:1288   */\n      dup2\n        /* \"#utility.yul\":1265:1289   */\n      tag_39\n      jump\t// in\n    tag_61:\n        /* \"#utility.yul\":1260:1263   */\n      dup3\n        /* \"#utility.yul\":1253:1290   */\n      mstore\n        /* \"#utility.yul\":1170:1296   */\n      pop\n      pop\n      jump\t// out\n        /* \"#utility.yul\":1302:1540   */\n    tag_11:\n        /* \"#utility.yul\":1403:1407   */\n      0x00\n        /* \"#utility.yul\":1441:1443   */\n      0x20\n        /* \"#utility.yul\":1430:1439   */\n      dup3\n        /* \"#utility.yul\":1426:1444   */\n      add\n        /* \"#utility.yul\":1418:1444   */\n      swap1\n      pop\n        /* \"#utility.yul\":1454:1533   */\n      tag_63\n        /* \"#utility.yul\":1530:1531   */\n      0x00\n        /* \"#utility.yul\":1519:1528   */\n      dup4\n        /* \"#utility.yul\":1515:1532   */\n      add\n        /* \"#utility.yul\":1506:1512   */\n      dup5\n        /* \"#utility.yul\":1454:1533   */\n      tag_42\n      jump\t// in\n    tag_63:\n        /* \"#utility.yul\":1302:1540   */\n      swap3\n      swap2\n      pop\n      pop\n      jump\t// out\n        /* \"#utility.yul\":1546:1726   */\n    tag_43:\n        /* \"#utility.yul\":1594:1671   */\n      0x4e487b7100000000000000000000000000000000000000000000000000000000\n        /* \"#utility.yul\":1591:1592   */\n      0x00\n        /* \"#utility.yul\":1584:1672   */\n      mstore\n        /* \"#utility.yul\":1691:1695   */\n      0x11\n        /* \"#utility.yul\":1688:1689   */\n      0x04\n        /* \"#utility.yul\":1681:1696   */\n      mstore\n        /* \"#utility.yul\":1715:1719   */\n      0x24\n        /* \"#utility.yul\":1712:1713   */\n      0x00\n        /* \"#utility.yul\":1705:1720   */\n      revert\n        /* \"#utility.yul\":1732:1923   */\n    tag_26:\n        /* \"#utility.yul\":1772:1775   */\n      0x00\n        /* \"#utility.yul\":1791:1811   */\n      tag_66\n        /* \"#utility.yul\":1809:1810   */\n      dup3\n        /* \"#utility.yul\":1791:1811   */\n      tag_39\n      jump\t// in\n    tag_66:\n        /* \"#utility.yul\":1786:1811   */\n      swap2\n      pop\n        /* \"#utility.yul\":1825:1845   */\n      tag_67\n        /* \"#utility.yul\":1843:1844   */\n      dup4\n        /* \"#utility.yul\":1825:1845   */\n      tag_39\n      jump\t// in\n    tag_67:\n        /* \"#utility.yul\":1820:1845   */\n      swap3\n      pop\n        /* \"#utility.yul\":1868:1869   */\n      dup3\n        /* \"#utility.yul\":1865:1866   */\n      dup3\n        /* \"#utility.yul\":1861:1870   */\n      add\n        /* \"#utility.yul\":1854:1870   */\n      swap1\n      pop\n        /* \"#utility.yul\":1889:1892   */\n      dup1\n        /* \"#utility.yul\":1886:1887   */\n      dup3\n        /* \"#utility.yul\":1883:1893   */\n      gt\n        /* \"#utility.yul\":1880:1916   */\n      iszero\n      tag_68\n      jumpi\n        /* \"#utility.yul\":1896:1914   */\n      tag_69\n      tag_43\n      jump\t// in\n    tag_69:\n        /* \"#utility.yul\":1880:1916   */\n    tag_68:\n        /* \"#utility.yul\":1732:1923   */\n      swap3\n      swap2\n      pop\n      pop\n      jump\t// out\n        /* \"#utility.yul\":1929:2109   */\n    tag_44:\n        /* \"#utility.yul\":1977:2054   */\n      0x4e487b7100000000000000000000000000000000000000000000000000000000\n        /* \"#utility.yul\":1974:1975   */\n      0x00\n        /* \"#utility.yul\":1967:2055   */\n      mstore\n        /* \"#utility.yul\":2074:2078   */\n      0x12\n        /* \"#utility.yul\":2071:2072   */\n      0x04\n        /* \"#utility.yul\":2064:2079   */\n      mstore\n        /* \"#utility.yul\":2098:2102   */\n      0x24\n        /* \"#utility.yul\":2095:2096   */\n      0x00\n        /* \"#utility.yul\":2088:2103   */\n      revert\n        /* \"#utility.yul\":2115:2300   */\n    tag_29:\n        /* \"#utility.yul\":2155:2156   */\n      0x00\n        /* \"#utility.yul\":2172:2192   */\n      tag_72\n        /* \"#utility.yul\":2190:2191   */\n      dup3\n        /* \"#utility.yul\":2172:2192   */\n      tag_39\n      jump\t// in\n    tag_72:\n        /* \"#utility.yul\":2167:2192   */\n      swap2\n      pop\n        /* \"#utility.yul\":2206:2226   */\n      tag_73\n        /* \"#utility.yul\":2224:2225   */\n      dup4\n        /* \"#utility.yul\":2206:2226   */\n      tag_39\n      jump\t// in\n    tag_73:\n        /* \"#utility.yul\":2201:2226   */\n      swap3\n      pop\n        /* \"#utility.yul\":2245:2246   */\n      dup3\n        /* \"#utility.yul\":2235:2270   */\n      tag_74\n      jumpi\n        /* \"#utility.yul\":2250:2268   */\n      tag_75\n      tag_44\n      jump\t// in\n    tag_75:\n        /* \"#utility.yul\":2235:2270   */\n    tag_74:\n        /* \"#utility.yul\":2292:2293   */\n      dup3\n        /* \"#utility.yul\":2289:2290   */\n      dup3\n        /* \"#utility.yul\":2285:2294   */\n      div\n        /* \"#utility.yul\":2280:2294   */\n      swap1\n      pop\n        /* \"#utility.yul\":2115:2300   */\n      swap3\n      swap2\n      pop\n      pop\n      jump\t// out\n        /* \"#utility.yul\":2306:2500   */\n    tag_32:\n        /* \"#utility.yul\":2346:2350   */\n      0x00\n        /* \"#utility.yul\":2366:2386   */\n      tag_77\n        /* \"#utility.yul\":2384:2385   */\n      dup3\n        /* \"#utility.yul\":2366:2386   */\n      tag_39\n      jump\t// in\n    tag_77:\n        /* \"#utility.yul\":2361:2386   */\n      swap2\n      pop\n        /* \"#utility.yul\":2400:2420   */\n      tag_78\n        /* \"#utility.yul\":2418:2419   */\n      dup4\n        /* \"#utility.yul\":2400:2420   */\n      tag_39\n      jump\t// in\n    tag_78:\n        /* \"#utility.yul\":2395:2420   */\n      swap3\n      pop\n        /* \"#utility.yul\":2444:2445   */\n      dup3\n        /* \"#utility.yul\":2441:2442   */\n      dup3\n        /* \"#utility.yul\":2437:2446   */\n      sub\n        /* \"#utility.yul\":2429:2446   */\n      swap1\n      pop\n        /* \"#utility.yul\":2468:2469   */\n      dup2\n        /* \"#utility.yul\":2462:2466   */\n      dup2\n        /* \"#utility.yul\":2459:2470   */\n      gt\n        /* \"#utility.yul\":2456:2493   */\n      iszero\n      tag_79\n      jumpi\n        /* \"#utility.yul\":2473:2491   */\n      tag_80\n      tag_43\n      jump\t// in\n    tag_80:\n        /* \"#utility.yul\":2456:2493   */\n    tag_79:\n        /* \"#utility.yul\":2306:2500   */\n      swap3\n      swap2\n      pop\n      pop\n      jump\t// out\n        /* \"#utility.yul\":2506:2916   */\n    tag_35:\n        /* \"#utility.yul\":2546:2553   */\n      0x00\n        /* \"#utility.yul\":2569:2589   */\n      tag_82\n        /* \"#utility.yul\":2587:2588   */\n      dup3\n        /* \"#utility.yul\":2569:2589   */\n      tag_39\n      jump\t// in\n    tag_82:\n        /* \"#utility.yul\":2564:2589   */\n      swap2\n      pop\n        /* \"#utility.yul\":2603:2623   */\n      tag_83\n        /* \"#utility.yul\":2621:2622   */\n      dup4\n        /* \"#utility.yul\":2603:2623   */\n      tag_39\n      jump\t// in\n    tag_83:\n        /* \"#utility.yul\":2598:2623   */\n      swap3\n      pop\n        /* \"#utility.yul\":2658:2659   */\n      dup3\n        /* \"#utility.yul\":2655:2656   */\n      dup3\n        /* \"#utility.yul\":2651:2660   */\n      mul\n        /* \"#utility.yul\":2680:2710   */\n      tag_84\n        /* \"#utility.yul\":2698:2709   */\n      dup2\n        /* \"#utility.yul\":2680:2710   */\n      tag_39\n      jump\t// in\n    tag_84:\n        /* \"#utility.yul\":2669:2710   */\n      swap2\n      pop\n        /* \"#utility.yul\":2859:2860   */\n      dup3\n        /* \"#utility.yul\":2850:2857   */\n      dup3\n        /* \"#utility.yul\":2846:2861   */\n      div\n        /* \"#utility.yul\":2843:2844   */\n      dup5\n        /* \"#utility.yul\":2840:2862   */\n      eq\n        /* \"#utility.yul\":2820:2821   */\n      dup4\n        /* \"#utility.yul\":2813:2822   */\n      iszero\n        /* \"#utility.yul\":2793:2876   */\n      or\n        /* \"#utility.yul\":2770:2909   */\n      tag_85\n      jumpi\n        /* \"#utility.yul\":2889:2907   */\n      tag_86\n      tag_43\n      jump\t// in\n    tag_86:\n        /* \"#utility.yul\":2770:2909   */\n    tag_85:\n        /* \"#utility.yul\":2554:2916   */\n      pop\n        /* \"#utility.yul\":2506:2916   */\n      swap3\n      swap2\n      pop\n      pop\n      jump\t// out\n\n    auxdata: 0xa264697066735822122062348380c5c7652b3ecc11fb9e36dfb216ef3b540d566c8285e47618bf044b5a64736f6c634300081e0033\n}\n",
				"bytecode": {
					"linkReferences": {},
					"object": "61037161004d600b8282823980515f1a6073146041577f4e487b71000000000000000000000000000000000000000000000000000000005f525f60045260245ffd5b305f52607381538281f3fe7300000000000000000000000000000000000000003014608060405260043610610055575f3560e01c8063771602f714610059578063a391c15b14610089578063b67d77c5146100b9578063c8a4ac9c146100e9575b5f5ffd5b610073600480360381019061006e91906101a4565b610119565b60405161008091906101f1565b60405180910390f35b6100a3600480360381019061009e91906101a4565b61012e565b6040516100b091906101f1565b60405180910390f35b6100d360048036038101906100ce91906101a4565b610143565b6040516100e091906101f1565b60405180910390f35b61010360048036038101906100fe91906101a4565b610158565b60405161011091906101f1565b60405180910390f35b5f81836101269190610237565b905092915050565b5f818361013b9190610297565b905092915050565b5f818361015091906102c7565b905092915050565b5f818361016591906102fa565b905092915050565b5f5ffd5b5f819050919050565b61018381610171565b811461018d575f5ffd5b50565b5f8135905061019e8161017a565b92915050565b5f5f604083850312156101ba576101b961016d565b5b5f6101c785828601610190565b92505060206101d885828601610190565b9150509250929050565b6101eb81610171565b82525050565b5f6020820190506102045f8301846101e2565b92915050565b7f4e487b71000000000000000000000000000000000000000000000000000000005f52601160045260245ffd5b5f61024182610171565b915061024c83610171565b92508282019050808211156102645761026361020a565b5b92915050565b7f4e487b71000000000000000000000000000000000000000000000000000000005f52601260045260245ffd5b5f6102a182610171565b91506102ac83610171565b9250826102bc576102bb61026a565b5b828204905092915050565b5f6102d182610171565b91506102dc83610171565b92508282039050818111156102f4576102f361020a565b5b92915050565b5f61030482610171565b915061030f83610171565b925082820261031d81610171565b915082820484148315176103345761033361020a565b5b509291505056fea264697066735822122062348380c5c7652b3ecc11fb9e36dfb216ef3b540d566c8285e47618bf044b5a64736f6c634300081e0033",
					"opcodes": "PUSH2 0x371 PUSH2 0x4D PUSH1 0xB DUP3 DUP3 DUP3 CODECOPY DUP1 MLOAD PUSH0 BYTE PUSH1 0x73 EQ PUSH1 0x41 JUMPI PUSH32 0x4E487B7100000000000000000000000000000000000000000000000000000000 PUSH0 MSTORE PUSH0 PUSH1 0x4 MSTORE PUSH1 0x24 PUSH0 REVERT JUMPDEST ADDRESS PUSH0 MSTORE PUSH1 0x73 DUP2 MSTORE8 DUP3 DUP2 RETURN INVALID PUSH20 0x0 ADDRESS EQ PUSH1 0x80 PUSH1 0x40 MSTORE PUSH1 0x4 CALLDATASIZE LT PUSH2 0x55 JUMPI PUSH0 CALLDATALOAD PUSH1 0xE0 SHR DUP1 PUSH4 0x771602F7 EQ PUSH2 0x59 JUMPI DUP1 PUSH4 0xA391C15B EQ PUSH2 0x89 JUMPI DUP1 PUSH4 0xB67D77C5 EQ PUSH2 0xB9 JUMPI DUP1 PUSH4 0xC8A4AC9C EQ PUSH2 0xE9 JUMPI JUMPDEST PUSH0 PUSH0 REVERT JUMPDEST PUSH2 0x73 PUSH1 0x4 DUP1 CALLDATASIZE SUB DUP2 ADD SWAP1 PUSH2 0x6E SWAP2 SWAP1 PUSH2 0x1A4 JUMP JUMPDEST PUSH2 0x119 JUMP JUMPDEST PUSH1 0x40 MLOAD PUSH2 0x80 SWAP2 SWAP1 PUSH2 0x1F1 JUMP JUMPDEST PUSH1 0x40 MLOAD DUP1 SWAP2 SUB SWAP1 RETURN JUMPDEST PUSH2 0xA3 PUSH1 0x4 DUP1 CALLDATASIZE SUB DUP2 ADD SWAP1 PUSH2 0x9E SWAP2 SWAP1 PUSH2 0x1A4 JUMP JUMPDEST PUSH2 0x12E JUMP JUMPDEST PUSH1 0x40 MLOAD PUSH2 0xB0 SWAP2 SWAP1 PUSH2 0x1F1 JUMP JUMPDEST PUSH1 0x40 MLOAD DUP1 SWAP2 SUB SWAP1 RETURN JUMPDEST PUSH2 0xD3 PUSH1 0x4 DUP1 CALLDATASIZE SUB DUP2 ADD SWAP1 PUSH2 0xCE SWAP2 SWAP1 PUSH2 0x1A4 JUMP JUMPDEST PUSH2 0x143 JUMP JUMPDEST PUSH1 0x40 MLOAD PUSH2 0xE0 SWAP2 SWAP1 PUSH2 0x1F1 JUMP JUMPDEST PUSH1 0x40 MLOAD DUP1 SWAP2 SUB SWAP1 RETURN JUMPDEST PUSH2 0x103 PUSH1 0x4 DUP1 CALLDATASIZE SUB DUP2 ADD SWAP1 PUSH2 0xFE SWAP2 SWAP1 PUSH2 0x1A4 JUMP JUMPDEST PUSH2 0x158 JUMP JUMPDEST PUSH1 0x40 MLOAD PUSH2 0x110 SWAP2 SWAP1 PUSH2 0x1F1 JUMP JUMPDEST PUSH1 0x40 MLOAD DUP1 SWAP2 SUB SWAP1 RETURN JUMPDEST PUSH0 DUP2 DUP4 PUSH2 0x126 SWAP2 SWAP1 PUSH2 0x237 JUMP JUMPDEST SWAP1 POP SWAP3 SWAP2 POP POP JUMP JUMPDEST PUSH0 DUP2 DUP4 PUSH2 0x13B SWAP2 SWAP1 PUSH2 0x297 JUMP JUMPDEST SWAP1 POP SWAP3 SWAP2 POP POP JUMP JUMPDEST PUSH0 DUP2 DUP4 PUSH2 0x150 SWAP2 SWAP1 PUSH2 0x2C7 JUMP JUMPDEST SWAP1 POP SWAP3 SWAP2 POP POP JUMP JUMPDEST PUSH0 DUP2 DUP4 PUSH2 0x165 SWAP2 SWAP1 PUSH2 0x2FA JUMP JUMPDEST SWAP1 POP SWAP3 SWAP2 POP POP JUMP JUMPDEST PUSH0 PUSH0 REVERT JUMPDEST PUSH0 DUP2 SWAP1 POP SWAP2 SWAP1 POP JUMP JUMPDEST PUSH2 0x183 DUP2 PUSH2 0x171 JUMP JUMPDEST DUP2 EQ PUSH2 0x18D JUMPI PUSH0 PUSH0 REVERT JUMPDEST POP JUMP JUMPDEST PUSH0 DUP2 CALLDATALOAD SWAP1 POP PUSH2 0x19E DUP2 PUSH2 0x17A JUMP JUMPDEST SWAP3 SWAP2 POP POP JUMP JUMPDEST PUSH0 PUSH0 PUSH1 0x40 DUP4 DUP6 SUB SLT ISZERO PUSH2 0x1BA JUMPI PUSH2 0x1B9 PUSH2 0x16D JUMP JUMPDEST JUMPDEST PUSH0 PUSH2 0x1C7 DUP6 DUP3 DUP7 ADD PUSH2 0x190 JUMP JUMPDEST SWAP3 POP POP PUSH1 0x20 PUSH2 0x1D8 DUP6 DUP3 DUP7 ADD PUSH2 0x190 JUMP JUMPDEST SWAP2 POP POP SWAP3 POP SWAP3 SWAP1 POP JUMP JUMPDEST PUSH2 0x1EB DUP2 PUSH2 0x171 JUMP JUMPDEST DUP3 MSTORE POP POP JUMP JUMPDEST PUSH0 PUSH1 0x20 DUP3 ADD SWAP1 POP PUSH2 0x204 PUSH0 DUP4 ADD DUP5 PUSH2 0x1E2 JUMP JUMPDEST SWAP3 SWAP2 POP POP JUMP JUMPDEST PUSH32 0x4E487B7100000000000000000000000000000000000000000000000000000000 PUSH0 MSTORE PUSH1 0x11 PUSH1 0x4 MSTORE PUSH1 0x24 PUSH0 REVERT JUMPDEST PUSH0 PUSH2 0x241 DUP3 PUSH2 0x171 JUMP JUMPDEST SWAP2 POP PUSH2 0x24C DUP4 PUSH2 0x171 JUMP JUMPDEST SWAP3 POP DUP3 DUP3 ADD SWAP1 POP DUP1 DUP3 GT ISZERO PUSH2 0x264 JUMPI PUSH2 0x263 PUSH2 0x20A JUMP JUMPDEST JUMPDEST SWAP3 SWAP2 POP POP JUMP JUMPDEST PUSH32 0x4E487B7100000000000000000000000000000000000000000000000000000000 PUSH0 MSTORE PUSH1 0x12 PUSH1 0x4 MSTORE PUSH1 0x24 PUSH0 REVERT JUMPDEST PUSH0 PUSH2 0x2A1 DUP3 PUSH2 0x171 JUMP JUMPDEST SWAP2 POP PUSH2 0x2AC DUP4 PUSH2 0x171 JUMP JUMPDEST SWAP3 POP DUP3 PUSH2 0x2BC JUMPI PUSH2 0x2BB PUSH2 0x26A JUMP JUMPDEST JUMPDEST DUP3 DUP3 DIV SWAP1 POP SWAP3 SWAP2 POP POP JUMP JUMPDEST PUSH0 PUSH2 0x2D1 DUP3 PUSH2 0x171 JUMP JUMPDEST SWAP2 POP PUSH2 0x2DC DUP4 PUSH2 0x171 JUMP JUMPDEST SWAP3 POP DUP3 DUP3 SUB SWAP1 POP DUP2 DUP2 GT ISZERO PUSH2 0x2F4 JUMPI PUSH2 0x2F3 PUSH2 0x20A JUMP JUMPDEST JUMPDEST SWAP3 SWAP2 POP POP JUMP JUMPDEST PUSH0 PUSH2 0x304 DUP3 PUSH2 0x171 JUMP JUMPDEST SWAP2 POP PUSH2 0x30F DUP4 PUSH2 0x171 JUMP JUMPDEST SWAP3 POP DUP3 DUP3 MUL PUSH2 0x31D DUP2 PUSH2 0x171 JUMP JUMPDEST SWAP2 POP DUP3 DUP3 DIV DUP5 EQ DUP4 ISZERO OR PUSH2 0x334 JUMPI PUSH2 0x333 PUSH2 0x20A JUMP JUMPDEST JUMPDEST POP SWAP3 SWAP2 POP POP JUMP INVALID LOG2 PUSH5 0x6970667358 0x22 SLT KECCAK256 PUSH3 0x348380 0xC5 0xC7 PUSH6 0x2B3ECC11FB9E CALLDATASIZE 0xDF 0xB2 AND 0xEF EXTCODESIZE SLOAD 0xD JUMP PUSH13 0x8285E47618BF044B5A64736F6C PUSH4 0x4300081E STOP CALLER "
				},
				"gasEstimates": {
					"creation": {
						"codeDepositCost": "176200",
						"executionCost": "243",
						"totalCost": "176443"
					},
					"external": {
						"add(uint256,uint256)": "infinite",
						"div(uint256,uint256)": "infinite",
						"mul(uint256,uint256)": "infinite",
						"sub(uint256,uint256)": "infinite"
					}
				},
				"methodIdentifiers": {
					"add(uint256,uint256)": "771602f7",
					"div(uint256,uint256)": "a391c15b",
					"mul(uint256,uint256)": "c8a4ac9c",
					"sub(uint256,uint256)": "b67d77c5"
				}
			},
			"storageLayout": {
				"storage": [],
				"types": null
			},
			"userdoc": {
				"kind": "user",
				"methods": {},
				"version": 1
			}
		}
	}
}