{
	"contracts/10.24.enum.sol": {
		"OrderStatus": {
			"abi": [
				{
					"inputs": [],
					"name": "currentStatus",
					"outputs": [
						{
							"internalType": "enum OrderStatus.Status",
							"name": "",
							"type": "uint8"
						}
					],
					"stateMutability": "view",
					"type": "function"
				},
				{
					"inputs": [],
					"name": "getStatus",
					"outputs": [
						{
							"internalType": "string",
							"name": "",
							"type": "string"
						}
					],
					"stateMutability": "view",
					"type": "function"
				},
				{
					"inputs": [
						{
							"internalType": "enum OrderStatus.Status",
							"name": "_status",
							"type": "uint8"
						}
					],
					"name": "setStatus",
					"outputs": [],
					"stateMutability": "nonpayable",
					"type": "function"
				}
			],
			"devdoc": {
				"kind": "dev",
				"methods": {},
				"version": 1
			},
			"evm": {
				"assembly": "    /* \"contracts/10.24.enum.sol\":57:962  contract OrderStatus {... */\n  mstore(0x40, 0x80)\n  callvalue\n  dup1\n  iszero\n  tag_1\n  jumpi\n  0x00\n  dup1\n  revert\ntag_1:\n  pop\n  dataSize(sub_0)\n  dup1\n  dataOffset(sub_0)\n  0x00\n  codecopy\n  0x00\n  return\nstop\n\nsub_0: assembly {\n        /* \"contracts/10.24.enum.sol\":57:962  contract OrderStatus {... */\n      mstore(0x40, 0x80)\n      callvalue\n      dup1\n      iszero\n      tag_1\n      jumpi\n      0x00\n      dup1\n      revert\n    tag_1:\n      pop\n      jumpi(tag_2, lt(calldatasize, 0x04))\n      shr(0xe0, calldataload(0x00))\n      dup1\n      0x2e49d78b\n      eq\n      tag_3\n      jumpi\n      dup1\n      0x4e69d560\n      eq\n      tag_4\n      jumpi\n      dup1\n      0xef8a9235\n      eq\n      tag_5\n      jumpi\n    tag_2:\n      0x00\n      dup1\n      revert\n        /* \"contracts/10.24.enum.sol\":392:474  function setStatus(Status _status) public {... */\n    tag_3:\n      tag_6\n      0x04\n      dup1\n      calldatasize\n      sub\n      dup2\n      add\n      swap1\n      tag_7\n      swap2\n      swap1\n      tag_8\n      jump\t// in\n    tag_7:\n      tag_9\n      jump\t// in\n    tag_6:\n      stop\n        /* \"contracts/10.24.enum.sol\":547:960  function getStatus() public view returns (string memory) {... */\n    tag_4:\n      tag_10\n      tag_11\n      jump\t// in\n    tag_10:\n      mload(0x40)\n      tag_12\n      swap2\n      swap1\n      tag_13\n      jump\t// in\n    tag_12:\n      mload(0x40)\n      dup1\n      swap2\n      sub\n      swap1\n      return\n        /* \"contracts/10.24.enum.sol\":311:338  Status public currentStatus */\n    tag_5:\n      tag_14\n      tag_15\n      jump\t// in\n    tag_14:\n      mload(0x40)\n      tag_16\n      swap2\n      swap1\n      tag_17\n      jump\t// in\n    tag_16:\n      mload(0x40)\n      dup1\n      swap2\n      sub\n      swap1\n      return\n        /* \"contracts/10.24.enum.sol\":392:474  function setStatus(Status _status) public {... */\n    tag_9:\n        /* \"contracts/10.24.enum.sol\":460:467  _status */\n      dup1\n        /* \"contracts/10.24.enum.sol\":444:457  currentStatus */\n      0x00\n      dup1\n        /* \"contracts/10.24.enum.sol\":444:467  currentStatus = _status */\n      0x0100\n      exp\n      dup2\n      sload\n      dup2\n      0xff\n      mul\n      not\n      and\n      swap1\n      dup4\n      0x04\n      dup2\n      gt\n      iszero\n      tag_19\n      jumpi\n      tag_20\n      tag_21\n      jump\t// in\n    tag_20:\n    tag_19:\n      mul\n      or\n      swap1\n      sstore\n      pop\n        /* \"contracts/10.24.enum.sol\":392:474  function setStatus(Status _status) public {... */\n      pop\n      jump\t// out\n        /* \"contracts/10.24.enum.sol\":547:960  function getStatus() public view returns (string memory) {... */\n    tag_11:\n        /* \"contracts/10.24.enum.sol\":589:602  string memory */\n      0x60\n        /* \"contracts/10.24.enum.sol\":635:649  Status.Pending */\n      0x00\n        /* \"contracts/10.24.enum.sol\":618:649  currentStatus == Status.Pending */\n      0x04\n      dup2\n      gt\n      iszero\n      tag_23\n      jumpi\n      tag_24\n      tag_21\n      jump\t// in\n    tag_24:\n    tag_23:\n        /* \"contracts/10.24.enum.sol\":618:631  currentStatus */\n      0x00\n      dup1\n      sload\n      swap1\n      0x0100\n      exp\n      swap1\n      div\n      0xff\n      and\n        /* \"contracts/10.24.enum.sol\":618:649  currentStatus == Status.Pending */\n      0x04\n      dup2\n      gt\n      iszero\n      tag_25\n      jumpi\n      tag_26\n      tag_21\n      jump\t// in\n    tag_26:\n    tag_25:\n      sub\n        /* \"contracts/10.24.enum.sol\":614:667  if (currentStatus == Status.Pending) return \"Pending\" */\n      tag_27\n      jumpi\n        /* \"contracts/10.24.enum.sol\":651:667  return \"Pending\" */\n      mload(0x40)\n      dup1\n      0x40\n      add\n      0x40\n      mstore\n      dup1\n      0x07\n      dup2\n      mstore\n      0x20\n      add\n      0x50656e64696e6700000000000000000000000000000000000000000000000000\n      dup2\n      mstore\n      pop\n      swap1\n      pop\n      jump(tag_22)\n        /* \"contracts/10.24.enum.sol\":614:667  if (currentStatus == Status.Pending) return \"Pending\" */\n    tag_27:\n        /* \"contracts/10.24.enum.sol\":698:712  Status.Shipped */\n      0x01\n        /* \"contracts/10.24.enum.sol\":681:712  currentStatus == Status.Shipped */\n      0x04\n      dup2\n      gt\n      iszero\n      tag_28\n      jumpi\n      tag_29\n      tag_21\n      jump\t// in\n    tag_29:\n    tag_28:\n        /* \"contracts/10.24.enum.sol\":681:694  currentStatus */\n      0x00\n      dup1\n      sload\n      swap1\n      0x0100\n      exp\n      swap1\n      div\n      0xff\n      and\n        /* \"contracts/10.24.enum.sol\":681:712  currentStatus == Status.Shipped */\n      0x04\n      dup2\n      gt\n      iszero\n      tag_30\n      jumpi\n      tag_31\n      tag_21\n      jump\t// in\n    tag_31:\n    tag_30:\n      sub\n        /* \"contracts/10.24.enum.sol\":677:730  if (currentStatus == Status.Shipped) return \"Shipped\" */\n      tag_32\n      jumpi\n        /* \"contracts/10.24.enum.sol\":714:730  return \"Shipped\" */\n      mload(0x40)\n      dup1\n      0x40\n      add\n      0x40\n      mstore\n      dup1\n      0x07\n      dup2\n      mstore\n      0x20\n      add\n      0x5368697070656400000000000000000000000000000000000000000000000000\n      dup2\n      mstore\n      pop\n      swap1\n      pop\n      jump(tag_22)\n        /* \"contracts/10.24.enum.sol\":677:730  if (currentStatus == Status.Shipped) return \"Shipped\" */\n    tag_32:\n        /* \"contracts/10.24.enum.sol\":761:776  Status.Accepted */\n      0x02\n        /* \"contracts/10.24.enum.sol\":744:776  currentStatus == Status.Accepted */\n      0x04\n      dup2\n      gt\n      iszero\n      tag_33\n      jumpi\n      tag_34\n      tag_21\n      jump\t// in\n    tag_34:\n    tag_33:\n        /* \"contracts/10.24.enum.sol\":744:757  currentStatus */\n      0x00\n      dup1\n      sload\n      swap1\n      0x0100\n      exp\n      swap1\n      div\n      0xff\n      and\n        /* \"contracts/10.24.enum.sol\":744:776  currentStatus == Status.Accepted */\n      0x04\n      dup2\n      gt\n      iszero\n      tag_35\n      jumpi\n      tag_36\n      tag_21\n      jump\t// in\n    tag_36:\n    tag_35:\n      sub\n        /* \"contracts/10.24.enum.sol\":740:795  if (currentStatus == Status.Accepted) return \"Accepted\" */\n      tag_37\n      jumpi\n        /* \"contracts/10.24.enum.sol\":778:795  return \"Accepted\" */\n      mload(0x40)\n      dup1\n      0x40\n      add\n      0x40\n      mstore\n      dup1\n      0x08\n      dup2\n      mstore\n      0x20\n      add\n      0x4163636570746564000000000000000000000000000000000000000000000000\n      dup2\n      mstore\n      pop\n      swap1\n      pop\n      jump(tag_22)\n        /* \"contracts/10.24.enum.sol\":740:795  if (currentStatus == Status.Accepted) return \"Accepted\" */\n    tag_37:\n        /* \"contracts/10.24.enum.sol\":826:841  Status.Rejected */\n      0x03\n        /* \"contracts/10.24.enum.sol\":809:841  currentStatus == Status.Rejected */\n      0x04\n      dup2\n      gt\n      iszero\n      tag_38\n      jumpi\n      tag_39\n      tag_21\n      jump\t// in\n    tag_39:\n    tag_38:\n        /* \"contracts/10.24.enum.sol\":809:822  currentStatus */\n      0x00\n      dup1\n      sload\n      swap1\n      0x0100\n      exp\n      swap1\n      div\n      0xff\n      and\n        /* \"contracts/10.24.enum.sol\":809:841  currentStatus == Status.Rejected */\n      0x04\n      dup2\n      gt\n      iszero\n      tag_40\n      jumpi\n      tag_41\n      tag_21\n      jump\t// in\n    tag_41:\n    tag_40:\n      sub\n        /* \"contracts/10.24.enum.sol\":805:860  if (currentStatus == Status.Rejected) return \"Rejected\" */\n      tag_42\n      jumpi\n        /* \"contracts/10.24.enum.sol\":843:860  return \"Rejected\" */\n      mload(0x40)\n      dup1\n      0x40\n      add\n      0x40\n      mstore\n      dup1\n      0x08\n      dup2\n      mstore\n      0x20\n      add\n      0x52656a6563746564000000000000000000000000000000000000000000000000\n      dup2\n      mstore\n      pop\n      swap1\n      pop\n      jump(tag_22)\n        /* \"contracts/10.24.enum.sol\":805:860  if (currentStatus == Status.Rejected) return \"Rejected\" */\n    tag_42:\n        /* \"contracts/10.24.enum.sol\":891:907  Status.Cancelled */\n      0x04\n        /* \"contracts/10.24.enum.sol\":874:907  currentStatus == Status.Cancelled */\n      dup1\n      dup2\n      gt\n      iszero\n      tag_43\n      jumpi\n      tag_44\n      tag_21\n      jump\t// in\n    tag_44:\n    tag_43:\n        /* \"contracts/10.24.enum.sol\":874:887  currentStatus */\n      0x00\n      dup1\n      sload\n      swap1\n      0x0100\n      exp\n      swap1\n      div\n      0xff\n      and\n        /* \"contracts/10.24.enum.sol\":874:907  currentStatus == Status.Cancelled */\n      0x04\n      dup2\n      gt\n      iszero\n      tag_45\n      jumpi\n      tag_46\n      tag_21\n      jump\t// in\n    tag_46:\n    tag_45:\n      sub\n        /* \"contracts/10.24.enum.sol\":870:927  if (currentStatus == Status.Cancelled) return \"Cancelled\" */\n      tag_47\n      jumpi\n        /* \"contracts/10.24.enum.sol\":909:927  return \"Cancelled\" */\n      mload(0x40)\n      dup1\n      0x40\n      add\n      0x40\n      mstore\n      dup1\n      0x09\n      dup2\n      mstore\n      0x20\n      add\n      0x43616e63656c6c65640000000000000000000000000000000000000000000000\n      dup2\n      mstore\n      pop\n      swap1\n      pop\n      jump(tag_22)\n        /* \"contracts/10.24.enum.sol\":870:927  if (currentStatus == Status.Cancelled) return \"Cancelled\" */\n    tag_47:\n        /* \"contracts/10.24.enum.sol\":937:953  return \"Unknown\" */\n      mload(0x40)\n      dup1\n      0x40\n      add\n      0x40\n      mstore\n      dup1\n      0x07\n      dup2\n      mstore\n      0x20\n      add\n      0x556e6b6e6f776e00000000000000000000000000000000000000000000000000\n      dup2\n      mstore\n      pop\n      swap1\n      pop\n        /* \"contracts/10.24.enum.sol\":547:960  function getStatus() public view returns (string memory) {... */\n    tag_22:\n      swap1\n      jump\t// out\n        /* \"contracts/10.24.enum.sol\":311:338  Status public currentStatus */\n    tag_15:\n      0x00\n      dup1\n      sload\n      swap1\n      0x0100\n      exp\n      swap1\n      div\n      0xff\n      and\n      dup2\n      jump\t// out\n        /* \"#utility.yul\":88:205   */\n    tag_49:\n        /* \"#utility.yul\":197:198   */\n      0x00\n        /* \"#utility.yul\":194:195   */\n      dup1\n        /* \"#utility.yul\":187:199   */\n      revert\n        /* \"#utility.yul\":334:441   */\n    tag_51:\n        /* \"#utility.yul\":415:416   */\n      0x05\n        /* \"#utility.yul\":408:413   */\n      dup2\n        /* \"#utility.yul\":405:417   */\n      lt\n        /* \"#utility.yul\":395:435   */\n      tag_67\n      jumpi\n        /* \"#utility.yul\":431:432   */\n      0x00\n        /* \"#utility.yul\":428:429   */\n      dup1\n        /* \"#utility.yul\":421:433   */\n      revert\n        /* \"#utility.yul\":395:435   */\n    tag_67:\n        /* \"#utility.yul\":334:441   */\n      pop\n      jump\t// out\n        /* \"#utility.yul\":447:602   */\n    tag_52:\n        /* \"#utility.yul\":501:506   */\n      0x00\n        /* \"#utility.yul\":539:545   */\n      dup2\n        /* \"#utility.yul\":526:546   */\n      calldataload\n        /* \"#utility.yul\":517:546   */\n      swap1\n      pop\n        /* \"#utility.yul\":555:596   */\n      tag_69\n        /* \"#utility.yul\":590:595   */\n      dup2\n        /* \"#utility.yul\":555:596   */\n      tag_51\n      jump\t// in\n    tag_69:\n        /* \"#utility.yul\":447:602   */\n      swap3\n      swap2\n      pop\n      pop\n      jump\t// out\n        /* \"#utility.yul\":608:953   */\n    tag_8:\n        /* \"#utility.yul\":675:681   */\n      0x00\n        /* \"#utility.yul\":724:726   */\n      0x20\n        /* \"#utility.yul\":712:721   */\n      dup3\n        /* \"#utility.yul\":703:710   */\n      dup5\n        /* \"#utility.yul\":699:722   */\n      sub\n        /* \"#utility.yul\":695:727   */\n      slt\n        /* \"#utility.yul\":692:811   */\n      iszero\n      tag_71\n      jumpi\n        /* \"#utility.yul\":730:809   */\n      tag_72\n      tag_49\n      jump\t// in\n    tag_72:\n        /* \"#utility.yul\":692:811   */\n    tag_71:\n        /* \"#utility.yul\":850:851   */\n      0x00\n        /* \"#utility.yul\":875:936   */\n      tag_73\n        /* \"#utility.yul\":928:935   */\n      dup5\n        /* \"#utility.yul\":919:925   */\n      dup3\n        /* \"#utility.yul\":908:917   */\n      dup6\n        /* \"#utility.yul\":904:926   */\n      add\n        /* \"#utility.yul\":875:936   */\n      tag_52\n      jump\t// in\n    tag_73:\n        /* \"#utility.yul\":865:936   */\n      swap2\n      pop\n        /* \"#utility.yul\":821:946   */\n      pop\n        /* \"#utility.yul\":608:953   */\n      swap3\n      swap2\n      pop\n      pop\n      jump\t// out\n        /* \"#utility.yul\":959:1058   */\n    tag_53:\n        /* \"#utility.yul\":1011:1017   */\n      0x00\n        /* \"#utility.yul\":1045:1050   */\n      dup2\n        /* \"#utility.yul\":1039:1051   */\n      mload\n        /* \"#utility.yul\":1029:1051   */\n      swap1\n      pop\n        /* \"#utility.yul\":959:1058   */\n      swap2\n      swap1\n      pop\n      jump\t// out\n        /* \"#utility.yul\":1064:1233   */\n    tag_54:\n        /* \"#utility.yul\":1148:1159   */\n      0x00\n        /* \"#utility.yul\":1182:1188   */\n      dup3\n        /* \"#utility.yul\":1177:1180   */\n      dup3\n        /* \"#utility.yul\":1170:1189   */\n      mstore\n        /* \"#utility.yul\":1222:1226   */\n      0x20\n        /* \"#utility.yul\":1217:1220   */\n      dup3\n        /* \"#utility.yul\":1213:1227   */\n      add\n        /* \"#utility.yul\":1198:1227   */\n      swap1\n      pop\n        /* \"#utility.yul\":1064:1233   */\n      swap3\n      swap2\n      pop\n      pop\n      jump\t// out\n        /* \"#utility.yul\":1239:1485   */\n    tag_55:\n        /* \"#utility.yul\":1320:1321   */\n      0x00\n        /* \"#utility.yul\":1330:1443   */\n    tag_77:\n        /* \"#utility.yul\":1344:1350   */\n      dup4\n        /* \"#utility.yul\":1341:1342   */\n      dup2\n        /* \"#utility.yul\":1338:1351   */\n      lt\n        /* \"#utility.yul\":1330:1443   */\n      iszero\n      tag_79\n      jumpi\n        /* \"#utility.yul\":1429:1430   */\n      dup1\n        /* \"#utility.yul\":1424:1427   */\n      dup3\n        /* \"#utility.yul\":1420:1431   */\n      add\n        /* \"#utility.yul\":1414:1432   */\n      mload\n        /* \"#utility.yul\":1410:1411   */\n      dup2\n        /* \"#utility.yul\":1405:1408   */\n      dup5\n        /* \"#utility.yul\":1401:1412   */\n      add\n        /* \"#utility.yul\":1394:1433   */\n      mstore\n        /* \"#utility.yul\":1366:1368   */\n      0x20\n        /* \"#utility.yul\":1363:1364   */\n      dup2\n        /* \"#utility.yul\":1359:1369   */\n      add\n        /* \"#utility.yul\":1354:1369   */\n      swap1\n      pop\n        /* \"#utility.yul\":1330:1443   */\n      jump(tag_77)\n    tag_79:\n        /* \"#utility.yul\":1477:1478   */\n      0x00\n        /* \"#utility.yul\":1468:1474   */\n      dup5\n        /* \"#utility.yul\":1463:1466   */\n      dup5\n        /* \"#utility.yul\":1459:1475   */\n      add\n        /* \"#utility.yul\":1452:1479   */\n      mstore\n        /* \"#utility.yul\":1301:1485   */\n      pop\n        /* \"#utility.yul\":1239:1485   */\n      pop\n      pop\n      pop\n      jump\t// out\n        /* \"#utility.yul\":1491:1593   */\n    tag_56:\n        /* \"#utility.yul\":1532:1538   */\n      0x00\n        /* \"#utility.yul\":1583:1585   */\n      0x1f\n        /* \"#utility.yul\":1579:1586   */\n      not\n        /* \"#utility.yul\":1574:1576   */\n      0x1f\n        /* \"#utility.yul\":1567:1572   */\n      dup4\n        /* \"#utility.yul\":1563:1577   */\n      add\n        /* \"#utility.yul\":1559:1587   */\n      and\n        /* \"#utility.yul\":1549:1587   */\n      swap1\n      pop\n        /* \"#utility.yul\":1491:1593   */\n      swap2\n      swap1\n      pop\n      jump\t// out\n        /* \"#utility.yul\":1599:1976   */\n    tag_57:\n        /* \"#utility.yul\":1687:1690   */\n      0x00\n        /* \"#utility.yul\":1715:1754   */\n      tag_82\n        /* \"#utility.yul\":1748:1753   */\n      dup3\n        /* \"#utility.yul\":1715:1754   */\n      tag_53\n      jump\t// in\n    tag_82:\n        /* \"#utility.yul\":1770:1841   */\n      tag_83\n        /* \"#utility.yul\":1834:1840   */\n      dup2\n        /* \"#utility.yul\":1829:1832   */\n      dup6\n        /* \"#utility.yul\":1770:1841   */\n      tag_54\n      jump\t// in\n    tag_83:\n        /* \"#utility.yul\":1763:1841   */\n      swap4\n      pop\n        /* \"#utility.yul\":1850:1915   */\n      tag_84\n        /* \"#utility.yul\":1908:1914   */\n      dup2\n        /* \"#utility.yul\":1903:1906   */\n      dup6\n        /* \"#utility.yul\":1896:1900   */\n      0x20\n        /* \"#utility.yul\":1889:1894   */\n      dup7\n        /* \"#utility.yul\":1885:1901   */\n      add\n        /* \"#utility.yul\":1850:1915   */\n      tag_55\n      jump\t// in\n    tag_84:\n        /* \"#utility.yul\":1940:1969   */\n      tag_85\n        /* \"#utility.yul\":1962:1968   */\n      dup2\n        /* \"#utility.yul\":1940:1969   */\n      tag_56\n      jump\t// in\n    tag_85:\n        /* \"#utility.yul\":1935:1938   */\n      dup5\n        /* \"#utility.yul\":1931:1970   */\n      add\n        /* \"#utility.yul\":1924:1970   */\n      swap2\n      pop\n        /* \"#utility.yul\":1691:1976   */\n      pop\n        /* \"#utility.yul\":1599:1976   */\n      swap3\n      swap2\n      pop\n      pop\n      jump\t// out\n        /* \"#utility.yul\":1982:2295   */\n    tag_13:\n        /* \"#utility.yul\":2095:2099   */\n      0x00\n        /* \"#utility.yul\":2133:2135   */\n      0x20\n        /* \"#utility.yul\":2122:2131   */\n      dup3\n        /* \"#utility.yul\":2118:2136   */\n      add\n        /* \"#utility.yul\":2110:2136   */\n      swap1\n      pop\n        /* \"#utility.yul\":2182:2191   */\n      dup2\n        /* \"#utility.yul\":2176:2180   */\n      dup2\n        /* \"#utility.yul\":2172:2192   */\n      sub\n        /* \"#utility.yul\":2168:2169   */\n      0x00\n        /* \"#utility.yul\":2157:2166   */\n      dup4\n        /* \"#utility.yul\":2153:2170   */\n      add\n        /* \"#utility.yul\":2146:2193   */\n      mstore\n        /* \"#utility.yul\":2210:2288   */\n      tag_87\n        /* \"#utility.yul\":2283:2287   */\n      dup2\n        /* \"#utility.yul\":2274:2280   */\n      dup5\n        /* \"#utility.yul\":2210:2288   */\n      tag_57\n      jump\t// in\n    tag_87:\n        /* \"#utility.yul\":2202:2288   */\n      swap1\n      pop\n        /* \"#utility.yul\":1982:2295   */\n      swap3\n      swap2\n      pop\n      pop\n      jump\t// out\n        /* \"#utility.yul\":2301:2481   */\n    tag_21:\n        /* \"#utility.yul\":2349:2426   */\n      0x4e487b7100000000000000000000000000000000000000000000000000000000\n        /* \"#utility.yul\":2346:2347   */\n      0x00\n        /* \"#utility.yul\":2339:2427   */\n      mstore\n        /* \"#utility.yul\":2446:2450   */\n      0x21\n        /* \"#utility.yul\":2443:2444   */\n      0x04\n        /* \"#utility.yul\":2436:2451   */\n      mstore\n        /* \"#utility.yul\":2470:2474   */\n      0x24\n        /* \"#utility.yul\":2467:2468   */\n      0x00\n        /* \"#utility.yul\":2460:2475   */\n      revert\n        /* \"#utility.yul\":2487:2600   */\n    tag_58:\n        /* \"#utility.yul\":2568:2569   */\n      0x05\n        /* \"#utility.yul\":2561:2566   */\n      dup2\n        /* \"#utility.yul\":2558:2570   */\n      lt\n        /* \"#utility.yul\":2548:2594   */\n      tag_90\n      jumpi\n        /* \"#utility.yul\":2574:2592   */\n      tag_91\n      tag_21\n      jump\t// in\n    tag_91:\n        /* \"#utility.yul\":2548:2594   */\n    tag_90:\n        /* \"#utility.yul\":2487:2600   */\n      pop\n      jump\t// out\n        /* \"#utility.yul\":2606:2733   */\n    tag_59:\n        /* \"#utility.yul\":2651:2658   */\n      0x00\n        /* \"#utility.yul\":2680:2685   */\n      dup2\n        /* \"#utility.yul\":2669:2685   */\n      swap1\n      pop\n        /* \"#utility.yul\":2686:2727   */\n      tag_93\n        /* \"#utility.yul\":2721:2726   */\n      dup3\n        /* \"#utility.yul\":2686:2727   */\n      tag_58\n      jump\t// in\n    tag_93:\n        /* \"#utility.yul\":2606:2733   */\n      swap2\n      swap1\n      pop\n      jump\t// out\n        /* \"#utility.yul\":2739:2866   */\n    tag_60:\n        /* \"#utility.yul\":2795:2804   */\n      0x00\n        /* \"#utility.yul\":2828:2860   */\n      tag_95\n        /* \"#utility.yul\":2854:2859   */\n      dup3\n        /* \"#utility.yul\":2828:2860   */\n      tag_59\n      jump\t// in\n    tag_95:\n        /* \"#utility.yul\":2815:2860   */\n      swap1\n      pop\n        /* \"#utility.yul\":2739:2866   */\n      swap2\n      swap1\n      pop\n      jump\t// out\n        /* \"#utility.yul\":2872:3015   */\n    tag_61:\n        /* \"#utility.yul\":2965:3008   */\n      tag_97\n        /* \"#utility.yul\":3002:3007   */\n      dup2\n        /* \"#utility.yul\":2965:3008   */\n      tag_60\n      jump\t// in\n    tag_97:\n        /* \"#utility.yul\":2960:2963   */\n      dup3\n        /* \"#utility.yul\":2953:3009   */\n      mstore\n        /* \"#utility.yul\":2872:3015   */\n      pop\n      pop\n      jump\t// out\n        /* \"#utility.yul\":3021:3255   */\n    tag_17:\n        /* \"#utility.yul\":3120:3124   */\n      0x00\n        /* \"#utility.yul\":3158:3160   */\n      0x20\n        /* \"#utility.yul\":3147:3156   */\n      dup3\n        /* \"#utility.yul\":3143:3161   */\n      add\n        /* \"#utility.yul\":3135:3161   */\n      swap1\n      pop\n        /* \"#utility.yul\":3171:3248   */\n      tag_99\n        /* \"#utility.yul\":3245:3246   */\n      0x00\n        /* \"#utility.yul\":3234:3243   */\n      dup4\n        /* \"#utility.yul\":3230:3247   */\n      add\n        /* \"#utility.yul\":3221:3227   */\n      dup5\n        /* \"#utility.yul\":3171:3248   */\n      tag_61\n      jump\t// in\n    tag_99:\n        /* \"#utility.yul\":3021:3255   */\n      swap3\n      swap2\n      pop\n      pop\n      jump\t// out\n\n    auxdata: 0xa26469706673582212203331d2a66fa280fb1d4332de2e001c5d91563a5b43ce34d3f3b3c8376a45179064736f6c63430008180033\n}\n",
				"bytecode": {
					"linkReferences": {},
					"object": "608060405234801561000f575f80fd5b506105198061001d5f395ff3fe608060405234801561000f575f80fd5b506004361061003f575f3560e01c80632e49d78b146100435780634e69d5601461005f578063ef8a92351461007d575b5f80fd5b61005d60048036038101906100589190610382565b61009b565b005b6100676100c6565b6040516100749190610437565b60405180910390f35b61008561034b565b60405161009291906104ca565b60405180910390f35b805f806101000a81548160ff021916908360048111156100be576100bd610457565b5b021790555050565b60605f60048111156100db576100da610457565b5b5f8054906101000a900460ff1660048111156100fa576100f9610457565b5b0361013c576040518060400160405280600781526020017f50656e64696e67000000000000000000000000000000000000000000000000008152509050610348565b600160048111156101505761014f610457565b5b5f8054906101000a900460ff16600481111561016f5761016e610457565b5b036101b1576040518060400160405280600781526020017f53686970706564000000000000000000000000000000000000000000000000008152509050610348565b600260048111156101c5576101c4610457565b5b5f8054906101000a900460ff1660048111156101e4576101e3610457565b5b03610226576040518060400160405280600881526020017f41636365707465640000000000000000000000000000000000000000000000008152509050610348565b6003600481111561023a57610239610457565b5b5f8054906101000a900460ff16600481111561025957610258610457565b5b0361029b576040518060400160405280600881526020017f52656a65637465640000000000000000000000000000000000000000000000008152509050610348565b6004808111156102ae576102ad610457565b5b5f8054906101000a900460ff1660048111156102cd576102cc610457565b5b0361030f576040518060400160405280600981526020017f43616e63656c6c656400000000000000000000000000000000000000000000008152509050610348565b6040518060400160405280600781526020017f556e6b6e6f776e0000000000000000000000000000000000000000000000000081525090505b90565b5f8054906101000a900460ff1681565b5f80fd5b6005811061036b575f80fd5b50565b5f8135905061037c8161035f565b92915050565b5f602082840312156103975761039661035b565b5b5f6103a48482850161036e565b91505092915050565b5f81519050919050565b5f82825260208201905092915050565b5f5b838110156103e45780820151818401526020810190506103c9565b5f8484015250505050565b5f601f19601f8301169050919050565b5f610409826103ad565b61041381856103b7565b93506104238185602086016103c7565b61042c816103ef565b840191505092915050565b5f6020820190508181035f83015261044f81846103ff565b905092915050565b7f4e487b71000000000000000000000000000000000000000000000000000000005f52602160045260245ffd5b6005811061049557610494610457565b5b50565b5f8190506104a582610484565b919050565b5f6104b482610498565b9050919050565b6104c4816104aa565b82525050565b5f6020820190506104dd5f8301846104bb565b9291505056fea26469706673582212203331d2a66fa280fb1d4332de2e001c5d91563a5b43ce34d3f3b3c8376a45179064736f6c63430008180033",
					"opcodes": "PUSH1 0x80 PUSH1 0x40 MSTORE CALLVALUE DUP1 ISZERO PUSH2 0xF JUMPI PUSH0 DUP1 REVERT JUMPDEST POP PUSH2 0x519 DUP1 PUSH2 0x1D PUSH0 CODECOPY PUSH0 RETURN INVALID PUSH1 0x80 PUSH1 0x40 MSTORE CALLVALUE DUP1 ISZERO PUSH2 0xF JUMPI PUSH0 DUP1 REVERT JUMPDEST POP PUSH1 0x4 CALLDATASIZE LT PUSH2 0x3F JUMPI PUSH0 CALLDATALOAD PUSH1 0xE0 SHR DUP1 PUSH4 0x2E49D78B EQ PUSH2 0x43 JUMPI DUP1 PUSH4 0x4E69D560 EQ PUSH2 0x5F JUMPI DUP1 PUSH4 0xEF8A9235 EQ PUSH2 0x7D JUMPI JUMPDEST PUSH0 DUP1 REVERT JUMPDEST PUSH2 0x5D PUSH1 0x4 DUP1 CALLDATASIZE SUB DUP2 ADD SWAP1 PUSH2 0x58 SWAP2 SWAP1 PUSH2 0x382 JUMP JUMPDEST PUSH2 0x9B JUMP JUMPDEST STOP JUMPDEST PUSH2 0x67 PUSH2 0xC6 JUMP JUMPDEST PUSH1 0x40 MLOAD PUSH2 0x74 SWAP2 SWAP1 PUSH2 0x437 JUMP JUMPDEST PUSH1 0x40 MLOAD DUP1 SWAP2 SUB SWAP1 RETURN JUMPDEST PUSH2 0x85 PUSH2 0x34B JUMP JUMPDEST PUSH1 0x40 MLOAD PUSH2 0x92 SWAP2 SWAP1 PUSH2 0x4CA JUMP JUMPDEST PUSH1 0x40 MLOAD DUP1 SWAP2 SUB SWAP1 RETURN JUMPDEST DUP1 PUSH0 DUP1 PUSH2 0x100 EXP DUP2 SLOAD DUP2 PUSH1 0xFF MUL NOT AND SWAP1 DUP4 PUSH1 0x4 DUP2 GT ISZERO PUSH2 0xBE JUMPI PUSH2 0xBD PUSH2 0x457 JUMP JUMPDEST JUMPDEST MUL OR SWAP1 SSTORE POP POP JUMP JUMPDEST PUSH1 0x60 PUSH0 PUSH1 0x4 DUP2 GT ISZERO PUSH2 0xDB JUMPI PUSH2 0xDA PUSH2 0x457 JUMP JUMPDEST JUMPDEST PUSH0 DUP1 SLOAD SWAP1 PUSH2 0x100 EXP SWAP1 DIV PUSH1 0xFF AND PUSH1 0x4 DUP2 GT ISZERO PUSH2 0xFA JUMPI PUSH2 0xF9 PUSH2 0x457 JUMP JUMPDEST JUMPDEST SUB PUSH2 0x13C JUMPI PUSH1 0x40 MLOAD DUP1 PUSH1 0x40 ADD PUSH1 0x40 MSTORE DUP1 PUSH1 0x7 DUP2 MSTORE PUSH1 0x20 ADD PUSH32 0x50656E64696E6700000000000000000000000000000000000000000000000000 DUP2 MSTORE POP SWAP1 POP PUSH2 0x348 JUMP JUMPDEST PUSH1 0x1 PUSH1 0x4 DUP2 GT ISZERO PUSH2 0x150 JUMPI PUSH2 0x14F PUSH2 0x457 JUMP JUMPDEST JUMPDEST PUSH0 DUP1 SLOAD SWAP1 PUSH2 0x100 EXP SWAP1 DIV PUSH1 0xFF AND PUSH1 0x4 DUP2 GT ISZERO PUSH2 0x16F JUMPI PUSH2 0x16E PUSH2 0x457 JUMP JUMPDEST JUMPDEST SUB PUSH2 0x1B1 JUMPI PUSH1 0x40 MLOAD DUP1 PUSH1 0x40 ADD PUSH1 0x40 MSTORE DUP1 PUSH1 0x7 DUP2 MSTORE PUSH1 0x20 ADD PUSH32 0x5368697070656400000000000000000000000000000000000000000000000000 DUP2 MSTORE POP SWAP1 POP PUSH2 0x348 JUMP JUMPDEST PUSH1 0x2 PUSH1 0x4 DUP2 GT ISZERO PUSH2 0x1C5 JUMPI PUSH2 0x1C4 PUSH2 0x457 JUMP JUMPDEST JUMPDEST PUSH0 DUP1 SLOAD SWAP1 PUSH2 0x100 EXP SWAP1 DIV PUSH1 0xFF AND PUSH1 0x4 DUP2 GT ISZERO PUSH2 0x1E4 JUMPI PUSH2 0x1E3 PUSH2 0x457 JUMP JUMPDEST JUMPDEST SUB PUSH2 0x226 JUMPI PUSH1 0x40 MLOAD DUP1 PUSH1 0x40 ADD PUSH1 0x40 MSTORE DUP1 PUSH1 0x8 DUP2 MSTORE PUSH1 0x20 ADD PUSH32 0x4163636570746564000000000000000000000000000000000000000000000000 DUP2 MSTORE POP SWAP1 POP PUSH2 0x348 JUMP JUMPDEST PUSH1 0x3 PUSH1 0x4 DUP2 GT ISZERO PUSH2 0x23A JUMPI PUSH2 0x239 PUSH2 0x457 JUMP JUMPDEST JUMPDEST PUSH0 DUP1 SLOAD SWAP1 PUSH2 0x100 EXP SWAP1 DIV PUSH1 0xFF AND PUSH1 0x4 DUP2 GT ISZERO PUSH2 0x259 JUMPI PUSH2 0x258 PUSH2 0x457 JUMP JUMPDEST JUMPDEST SUB PUSH2 0x29B JUMPI PUSH1 0x40 MLOAD DUP1 PUSH1 0x40 ADD PUSH1 0x40 MSTORE DUP1 PUSH1 0x8 DUP2 MSTORE PUSH1 0x20 ADD PUSH32 0x52656A6563746564000000000000000000000000000000000000000000000000 DUP2 MSTORE POP SWAP1 POP PUSH2 0x348 JUMP JUMPDEST PUSH1 0x4 DUP1 DUP2 GT ISZERO PUSH2 0x2AE JUMPI PUSH2 0x2AD PUSH2 0x457 JUMP JUMPDEST JUMPDEST PUSH0 DUP1 SLOAD SWAP1 PUSH2 0x100 EXP SWAP1 DIV PUSH1 0xFF AND PUSH1 0x4 DUP2 GT ISZERO PUSH2 0x2CD JUMPI PUSH2 0x2CC PUSH2 0x457 JUMP JUMPDEST JUMPDEST SUB PUSH2 0x30F JUMPI PUSH1 0x40 MLOAD DUP1 PUSH1 0x40 ADD PUSH1 0x40 MSTORE DUP1 PUSH1 0x9 DUP2 MSTORE PUSH1 0x20 ADD PUSH32 0x43616E63656C6C65640000000000000000000000000000000000000000000000 DUP2 MSTORE POP SWAP1 POP PUSH2 0x348 JUMP JUMPDEST PUSH1 0x40 MLOAD DUP1 PUSH1 0x40 ADD PUSH1 0x40 MSTORE DUP1 PUSH1 0x7 DUP2 MSTORE PUSH1 0x20 ADD PUSH32 0x556E6B6E6F776E00000000000000000000000000000000000000000000000000 DUP2 MSTORE POP SWAP1 POP JUMPDEST SWAP1 JUMP JUMPDEST PUSH0 DUP1 SLOAD SWAP1 PUSH2 0x100 EXP SWAP1 DIV PUSH1 0xFF AND DUP2 JUMP JUMPDEST PUSH0 DUP1 REVERT JUMPDEST PUSH1 0x5 DUP2 LT PUSH2 0x36B JUMPI PUSH0 DUP1 REVERT JUMPDEST POP JUMP JUMPDEST PUSH0 DUP2 CALLDATALOAD SWAP1 POP PUSH2 0x37C DUP2 PUSH2 0x35F JUMP JUMPDEST SWAP3 SWAP2 POP POP JUMP JUMPDEST PUSH0 PUSH1 0x20 DUP3 DUP5 SUB SLT ISZERO PUSH2 0x397 JUMPI PUSH2 0x396 PUSH2 0x35B JUMP JUMPDEST JUMPDEST PUSH0 PUSH2 0x3A4 DUP5 DUP3 DUP6 ADD PUSH2 0x36E JUMP JUMPDEST SWAP2 POP POP SWAP3 SWAP2 POP POP JUMP JUMPDEST PUSH0 DUP2 MLOAD SWAP1 POP SWAP2 SWAP1 POP JUMP JUMPDEST PUSH0 DUP3 DUP3 MSTORE PUSH1 0x20 DUP3 ADD SWAP1 POP SWAP3 SWAP2 POP POP JUMP JUMPDEST PUSH0 JUMPDEST DUP4 DUP2 LT ISZERO PUSH2 0x3E4 JUMPI DUP1 DUP3 ADD MLOAD DUP2 DUP5 ADD MSTORE PUSH1 0x20 DUP2 ADD SWAP1 POP PUSH2 0x3C9 JUMP JUMPDEST PUSH0 DUP5 DUP5 ADD MSTORE POP POP POP POP JUMP JUMPDEST PUSH0 PUSH1 0x1F NOT PUSH1 0x1F DUP4 ADD AND SWAP1 POP SWAP2 SWAP1 POP JUMP JUMPDEST PUSH0 PUSH2 0x409 DUP3 PUSH2 0x3AD JUMP JUMPDEST PUSH2 0x413 DUP2 DUP6 PUSH2 0x3B7 JUMP JUMPDEST SWAP4 POP PUSH2 0x423 DUP2 DUP6 PUSH1 0x20 DUP7 ADD PUSH2 0x3C7 JUMP JUMPDEST PUSH2 0x42C DUP2 PUSH2 0x3EF JUMP JUMPDEST DUP5 ADD SWAP2 POP POP SWAP3 SWAP2 POP POP JUMP JUMPDEST PUSH0 PUSH1 0x20 DUP3 ADD SWAP1 POP DUP2 DUP2 SUB PUSH0 DUP4 ADD MSTORE PUSH2 0x44F DUP2 DUP5 PUSH2 0x3FF JUMP JUMPDEST SWAP1 POP SWAP3 SWAP2 POP POP JUMP JUMPDEST PUSH32 0x4E487B7100000000000000000000000000000000000000000000000000000000 PUSH0 MSTORE PUSH1 0x21 PUSH1 0x4 MSTORE PUSH1 0x24 PUSH0 REVERT JUMPDEST PUSH1 0x5 DUP2 LT PUSH2 0x495 JUMPI PUSH2 0x494 PUSH2 0x457 JUMP JUMPDEST JUMPDEST POP JUMP JUMPDEST PUSH0 DUP2 SWAP1 POP PUSH2 0x4A5 DUP3 PUSH2 0x484 JUMP JUMPDEST SWAP2 SWAP1 POP JUMP JUMPDEST PUSH0 PUSH2 0x4B4 DUP3 PUSH2 0x498 JUMP JUMPDEST SWAP1 POP SWAP2 SWAP1 POP JUMP JUMPDEST PUSH2 0x4C4 DUP2 PUSH2 0x4AA JUMP JUMPDEST DUP3 MSTORE POP POP JUMP JUMPDEST PUSH0 PUSH1 0x20 DUP3 ADD SWAP1 POP PUSH2 0x4DD PUSH0 DUP4 ADD DUP5 PUSH2 0x4BB JUMP JUMPDEST SWAP3 SWAP2 POP POP JUMP INVALID LOG2 PUSH5 0x6970667358 0x22 SLT KECCAK256 CALLER BALANCE 0xD2 0xA6 PUSH16 0xA280FB1D4332DE2E001C5D91563A5B43 0xCE CALLVALUE 0xD3 RETURN 0xB3 0xC8 CALLDATACOPY PUSH11 0x45179064736F6C63430008 XOR STOP CALLER "
				},
				"gasEstimates": {
					"creation": {
						"codeDepositCost": "261000",
						"executionCost": "298",
						"totalCost": "261298"
					},
					"external": {
						"currentStatus()": "2573",
						"getStatus()": "infinite",
						"setStatus(uint8)": "24623"
					}
				},
				"methodIdentifiers": {
					"currentStatus()": "ef8a9235",
					"getStatus()": "4e69d560",
					"setStatus(uint8)": "2e49d78b"
				}
			},
			"storageLayout": {
				"storage": [
					{
						"astId": 10,
						"contract": "contracts/10.24.enum.sol:OrderStatus",
						"label": "currentStatus",
						"offset": 0,
						"slot": "0",
						"type": "t_enum(Status)7"
					}
				],
				"types": {
					"t_enum(Status)7": {
						"encoding": "inplace",
						"label": "enum OrderStatus.Status",
						"numberOfBytes": "1"
					}
				}
			},
			"userdoc": {
				"kind": "user",
				"methods": {},
				"version": 1
			}
		}
	}
}