{
	"contracts/evm/memory/3.freememorypointer2.sol": {
		"MemoryDemo": {
			"abi": [
				{
					"inputs": [],
					"name": "getPointersBeforeAndAfter",
					"outputs": [
						{
							"internalType": "bytes32",
							"name": "pointerBefore",
							"type": "bytes32"
						},
						{
							"internalType": "bytes32",
							"name": "pointerAfter",
							"type": "bytes32"
						}
					],
					"stateMutability": "pure",
					"type": "function"
				}
			],
			"devdoc": {
				"details": "Demonstrates reading the free memory pointer before and after allocation in a single function call.",
				"kind": "dev",
				"methods": {
					"getPointersBeforeAndAfter()": {
						"returns": {
							"pointerAfter": "The free memory pointer after allocation (e.g., 0x100).",
							"pointerBefore": "The free memory pointer before allocation (e.g., 0x80)."
						}
					}
				},
				"title": "MemoryDemo",
				"version": 1
			},
			"evm": {
				"assembly": "    /* \"contracts/evm/memory/3.freememorypointer2.sol\":206:1221  contract MemoryDemo {... */\n  mstore(0x40, 0x80)\n  callvalue\n  dup1\n  iszero\n  tag_1\n  jumpi\n  revert(0x00, 0x00)\ntag_1:\n  pop\n  dataSize(sub_0)\n  dup1\n  dataOffset(sub_0)\n  0x00\n  codecopy\n  0x00\n  return\nstop\n\nsub_0: assembly {\n        /* \"contracts/evm/memory/3.freememorypointer2.sol\":206:1221  contract MemoryDemo {... */\n      mstore(0x40, 0x80)\n      callvalue\n      dup1\n      iszero\n      tag_1\n      jumpi\n      revert(0x00, 0x00)\n    tag_1:\n      pop\n      jumpi(tag_2, lt(calldatasize, 0x04))\n      shr(0xe0, calldataload(0x00))\n      dup1\n      0x2031ee68\n      eq\n      tag_3\n      jumpi\n    tag_2:\n      revert(0x00, 0x00)\n        /* \"contracts/evm/memory/3.freememorypointer2.sol\":566:1218  function getPointersBeforeAndAfter()... */\n    tag_3:\n      tag_4\n      tag_5\n      jump\t// in\n    tag_4:\n      mload(0x40)\n      tag_6\n      swap3\n      swap2\n      swap1\n      tag_7\n      jump\t// in\n    tag_6:\n      mload(0x40)\n      dup1\n      swap2\n      sub\n      swap1\n      return\n    tag_5:\n        /* \"contracts/evm/memory/3.freememorypointer2.sol\":651:672  bytes32 pointerBefore */\n      0x00\n        /* \"contracts/evm/memory/3.freememorypointer2.sol\":674:694  bytes32 pointerAfter */\n      0x00\n        /* \"contracts/evm/memory/3.freememorypointer2.sol\":830:834  0x40 */\n      0x40\n        /* \"contracts/evm/memory/3.freememorypointer2.sol\":824:835  mload(0x40) */\n      mload\n        /* \"contracts/evm/memory/3.freememorypointer2.sol\":807:835  pointerBefore := mload(0x40) */\n      swap2\n      pop\n        /* \"contracts/evm/memory/3.freememorypointer2.sol\":983:1005  uint8[3] memory items1 */\n      0x00\n        /* \"contracts/evm/memory/3.freememorypointer2.sol\":983:1017  uint8[3] memory items1 = [1, 2, 3] */\n      mload(0x40)\n      dup1\n      0x60\n      add\n      0x40\n      mstore\n      dup1\n        /* \"contracts/evm/memory/3.freememorypointer2.sol\":1009:1010  1 */\n      0x01\n        /* \"contracts/evm/memory/3.freememorypointer2.sol\":983:1017  uint8[3] memory items1 = [1, 2, 3] */\n      0xff\n      and\n      dup2\n      mstore\n      0x20\n      add\n        /* \"contracts/evm/memory/3.freememorypointer2.sol\":1012:1013  2 */\n      0x02\n        /* \"contracts/evm/memory/3.freememorypointer2.sol\":983:1017  uint8[3] memory items1 = [1, 2, 3] */\n      0xff\n      and\n      dup2\n      mstore\n      0x20\n      add\n        /* \"contracts/evm/memory/3.freememorypointer2.sol\":1015:1016  3 */\n      0x03\n        /* \"contracts/evm/memory/3.freememorypointer2.sol\":983:1017  uint8[3] memory items1 = [1, 2, 3] */\n      0xff\n      and\n      dup2\n      mstore\n      pop\n      swap1\n      pop\n        /* \"contracts/evm/memory/3.freememorypointer2.sol\":1028:1050  uint8[3] memory items2 */\n      0x00\n        /* \"contracts/evm/memory/3.freememorypointer2.sol\":1028:1062  uint8[3] memory items2 = [4, 5, 6] */\n      mload(0x40)\n      dup1\n      0x60\n      add\n      0x40\n      mstore\n      dup1\n        /* \"contracts/evm/memory/3.freememorypointer2.sol\":1054:1055  4 */\n      0x04\n        /* \"contracts/evm/memory/3.freememorypointer2.sol\":1028:1062  uint8[3] memory items2 = [4, 5, 6] */\n      0xff\n      and\n      dup2\n      mstore\n      0x20\n      add\n        /* \"contracts/evm/memory/3.freememorypointer2.sol\":1057:1058  5 */\n      0x05\n        /* \"contracts/evm/memory/3.freememorypointer2.sol\":1028:1062  uint8[3] memory items2 = [4, 5, 6] */\n      0xff\n      and\n      dup2\n      mstore\n      0x20\n      add\n        /* \"contracts/evm/memory/3.freememorypointer2.sol\":1060:1061  6 */\n      0x06\n        /* \"contracts/evm/memory/3.freememorypointer2.sol\":1028:1062  uint8[3] memory items2 = [4, 5, 6] */\n      0xff\n      and\n      dup2\n      mstore\n      pop\n      swap1\n      pop\n        /* \"contracts/evm/memory/3.freememorypointer2.sol\":1195:1199  0x40 */\n      0x40\n        /* \"contracts/evm/memory/3.freememorypointer2.sol\":1189:1200  mload(0x40) */\n      mload\n        /* \"contracts/evm/memory/3.freememorypointer2.sol\":1173:1200  pointerAfter := mload(0x40) */\n      swap3\n      pop\n        /* \"contracts/evm/memory/3.freememorypointer2.sol\":1158:1211  {... */\n      pop\n      pop\n        /* \"contracts/evm/memory/3.freememorypointer2.sol\":566:1218  function getPointersBeforeAndAfter()... */\n      swap1\n      swap2\n      jump\t// out\n        /* \"#utility.yul\":7:84   */\n    tag_9:\n        /* \"#utility.yul\":44:51   */\n      0x00\n        /* \"#utility.yul\":73:78   */\n      dup2\n        /* \"#utility.yul\":62:78   */\n      swap1\n      pop\n        /* \"#utility.yul\":7:84   */\n      swap2\n      swap1\n      pop\n      jump\t// out\n        /* \"#utility.yul\":90:208   */\n    tag_10:\n        /* \"#utility.yul\":177:201   */\n      tag_14\n        /* \"#utility.yul\":195:200   */\n      dup2\n        /* \"#utility.yul\":177:201   */\n      tag_9\n      jump\t// in\n    tag_14:\n        /* \"#utility.yul\":172:175   */\n      dup3\n        /* \"#utility.yul\":165:202   */\n      mstore\n        /* \"#utility.yul\":90:208   */\n      pop\n      pop\n      jump\t// out\n        /* \"#utility.yul\":214:546   */\n    tag_7:\n        /* \"#utility.yul\":335:339   */\n      0x00\n        /* \"#utility.yul\":373:375   */\n      0x40\n        /* \"#utility.yul\":362:371   */\n      dup3\n        /* \"#utility.yul\":358:376   */\n      add\n        /* \"#utility.yul\":350:376   */\n      swap1\n      pop\n        /* \"#utility.yul\":386:457   */\n      tag_16\n        /* \"#utility.yul\":454:455   */\n      0x00\n        /* \"#utility.yul\":443:452   */\n      dup4\n        /* \"#utility.yul\":439:456   */\n      add\n        /* \"#utility.yul\":430:436   */\n      dup6\n        /* \"#utility.yul\":386:457   */\n      tag_10\n      jump\t// in\n    tag_16:\n        /* \"#utility.yul\":467:539   */\n      tag_17\n        /* \"#utility.yul\":535:537   */\n      0x20\n        /* \"#utility.yul\":524:533   */\n      dup4\n        /* \"#utility.yul\":520:538   */\n      add\n        /* \"#utility.yul\":511:517   */\n      dup5\n        /* \"#utility.yul\":467:539   */\n      tag_10\n      jump\t// in\n    tag_17:\n        /* \"#utility.yul\":214:546   */\n      swap4\n      swap3\n      pop\n      pop\n      pop\n      jump\t// out\n\n    auxdata: 0xa2646970667358221220a64bbda9c0e7cefc18be83efe33d81aaa8c4fe9f9845ad63d1a23b626b2a917264736f6c634300081e0033\n}\n",
				"bytecode": {
					"linkReferences": {},
					"object": "6080604052348015600e575f5ffd5b5061011a8061001c5f395ff3fe6080604052348015600e575f5ffd5b50600436106026575f3560e01c80632031ee6814602a575b5f5ffd5b60306045565b604051603c92919060c1565b60405180910390f35b5f5f60405191505f6040518060600160405280600160ff168152602001600260ff168152602001600360ff1681525090505f6040518060600160405280600460ff168152602001600560ff168152602001600660ff168152509050604051925050509091565b5f819050919050565b60bb8160ab565b82525050565b5f60408201905060d25f83018560b4565b60dd602083018460b4565b939250505056fea2646970667358221220a64bbda9c0e7cefc18be83efe33d81aaa8c4fe9f9845ad63d1a23b626b2a917264736f6c634300081e0033",
					"opcodes": "PUSH1 0x80 PUSH1 0x40 MSTORE CALLVALUE DUP1 ISZERO PUSH1 0xE JUMPI PUSH0 PUSH0 REVERT JUMPDEST POP PUSH2 0x11A DUP1 PUSH2 0x1C PUSH0 CODECOPY PUSH0 RETURN INVALID PUSH1 0x80 PUSH1 0x40 MSTORE CALLVALUE DUP1 ISZERO PUSH1 0xE JUMPI PUSH0 PUSH0 REVERT JUMPDEST POP PUSH1 0x4 CALLDATASIZE LT PUSH1 0x26 JUMPI PUSH0 CALLDATALOAD PUSH1 0xE0 SHR DUP1 PUSH4 0x2031EE68 EQ PUSH1 0x2A JUMPI JUMPDEST PUSH0 PUSH0 REVERT JUMPDEST PUSH1 0x30 PUSH1 0x45 JUMP JUMPDEST PUSH1 0x40 MLOAD PUSH1 0x3C SWAP3 SWAP2 SWAP1 PUSH1 0xC1 JUMP JUMPDEST PUSH1 0x40 MLOAD DUP1 SWAP2 SUB SWAP1 RETURN JUMPDEST PUSH0 PUSH0 PUSH1 0x40 MLOAD SWAP2 POP PUSH0 PUSH1 0x40 MLOAD DUP1 PUSH1 0x60 ADD PUSH1 0x40 MSTORE DUP1 PUSH1 0x1 PUSH1 0xFF AND DUP2 MSTORE PUSH1 0x20 ADD PUSH1 0x2 PUSH1 0xFF AND DUP2 MSTORE PUSH1 0x20 ADD PUSH1 0x3 PUSH1 0xFF AND DUP2 MSTORE POP SWAP1 POP PUSH0 PUSH1 0x40 MLOAD DUP1 PUSH1 0x60 ADD PUSH1 0x40 MSTORE DUP1 PUSH1 0x4 PUSH1 0xFF AND DUP2 MSTORE PUSH1 0x20 ADD PUSH1 0x5 PUSH1 0xFF AND DUP2 MSTORE PUSH1 0x20 ADD PUSH1 0x6 PUSH1 0xFF AND DUP2 MSTORE POP SWAP1 POP PUSH1 0x40 MLOAD SWAP3 POP POP POP SWAP1 SWAP2 JUMP JUMPDEST PUSH0 DUP2 SWAP1 POP SWAP2 SWAP1 POP JUMP JUMPDEST PUSH1 0xBB DUP2 PUSH1 0xAB JUMP JUMPDEST DUP3 MSTORE POP POP JUMP JUMPDEST PUSH0 PUSH1 0x40 DUP3 ADD SWAP1 POP PUSH1 0xD2 PUSH0 DUP4 ADD DUP6 PUSH1 0xB4 JUMP JUMPDEST PUSH1 0xDD PUSH1 0x20 DUP4 ADD DUP5 PUSH1 0xB4 JUMP JUMPDEST SWAP4 SWAP3 POP POP POP JUMP INVALID LOG2 PUSH5 0x6970667358 0x22 SLT KECCAK256 0xA6 0x4B 0xBD 0xA9 0xC0 SWAPN 0xCE 0xFC XOR 0xBE DUP4 0xEF CALLF 0x3D81 0xAA 0xA8 0xC4 INVALID SWAP16 SWAP9 GASLIMIT 0xAD PUSH4 0xD1A23B62 PUSH12 0x2A917264736F6C634300081E STOP CALLER "
				},
				"gasEstimates": {
					"creation": {
						"codeDepositCost": "56400",
						"executionCost": "103",
						"totalCost": "56503"
					},
					"external": {
						"getPointersBeforeAndAfter()": "infinite"
					}
				},
				"methodIdentifiers": {
					"getPointersBeforeAndAfter()": "2031ee68"
				}
			},
			"storageLayout": {
				"storage": [],
				"types": null
			},
			"userdoc": {
				"kind": "user",
				"methods": {
					"getPointersBeforeAndAfter()": {
						"notice": "Captures the free memory pointer's value, then allocates memory for two arrays, and captures the pointer's new value."
					}
				},
				"version": 1
			}
		}
	}
}