{
	"contracts/10.17.simplestruct.sol": {
		"Classroom": {
			"abi": [
				{
					"inputs": [],
					"name": "insert",
					"outputs": [
						{
							"components": [
								{
									"internalType": "string",
									"name": "name",
									"type": "string"
								},
								{
									"internalType": "uint256",
									"name": "roll",
									"type": "uint256"
								},
								{
									"internalType": "bool",
									"name": "pass",
									"type": "bool"
								}
							],
							"internalType": "struct Classroom.Student",
							"name": "",
							"type": "tuple"
						}
					],
					"stateMutability": "nonpayable",
					"type": "function"
				},
				{
					"inputs": [],
					"name": "s1",
					"outputs": [
						{
							"internalType": "string",
							"name": "name",
							"type": "string"
						},
						{
							"internalType": "uint256",
							"name": "roll",
							"type": "uint256"
						},
						{
							"internalType": "bool",
							"name": "pass",
							"type": "bool"
						}
					],
					"stateMutability": "view",
					"type": "function"
				}
			],
			"devdoc": {
				"kind": "dev",
				"methods": {},
				"version": 1
			},
			"evm": {
				"assembly": "    /* \"contracts/10.17.simplestruct.sol\":70:360  contract Classroom {... */\n  mstore(0x40, 0x80)\n  callvalue\n  dup1\n  iszero\n  tag_1\n  jumpi\n  0x00\n  dup1\n  revert\ntag_1:\n  pop\n  dataSize(sub_0)\n  dup1\n  dataOffset(sub_0)\n  0x00\n  codecopy\n  0x00\n  return\nstop\n\nsub_0: assembly {\n        /* \"contracts/10.17.simplestruct.sol\":70:360  contract Classroom {... */\n      mstore(0x40, 0x80)\n      callvalue\n      dup1\n      iszero\n      tag_1\n      jumpi\n      0x00\n      dup1\n      revert\n    tag_1:\n      pop\n      jumpi(tag_2, lt(calldatasize, 0x04))\n      shr(0xe0, calldataload(0x00))\n      dup1\n      0x25f7b1de\n      eq\n      tag_3\n      jumpi\n      dup1\n      0x6cc014de\n      eq\n      tag_4\n      jumpi\n    tag_2:\n      0x00\n      dup1\n      revert\n        /* \"contracts/10.17.simplestruct.sol\":209:358  function insert() public returns (Student memory) {... */\n    tag_3:\n      tag_5\n      tag_6\n      jump\t// in\n    tag_5:\n      mload(0x40)\n      tag_7\n      swap2\n      swap1\n      tag_8\n      jump\t// in\n    tag_7:\n      mload(0x40)\n      dup1\n      swap2\n      sub\n      swap1\n      return\n        /* \"contracts/10.17.simplestruct.sol\":185:202  Student public s1 */\n    tag_4:\n      tag_9\n      tag_10\n      jump\t// in\n    tag_9:\n      mload(0x40)\n      tag_11\n      swap4\n      swap3\n      swap2\n      swap1\n      tag_12\n      jump\t// in\n    tag_11:\n      mload(0x40)\n      dup1\n      swap2\n      sub\n      swap1\n      return\n        /* \"contracts/10.17.simplestruct.sol\":209:358  function insert() public returns (Student memory) {... */\n    tag_6:\n        /* \"contracts/10.17.simplestruct.sol\":243:257  Student memory */\n      tag_13\n      tag_14\n      jump\t// in\n    tag_13:\n        /* \"contracts/10.17.simplestruct.sol\":269:286  s1.name = \"dhruv\" */\n      mload(0x40)\n      dup1\n      0x40\n      add\n      0x40\n      mstore\n      dup1\n      0x05\n      dup2\n      mstore\n      0x20\n      add\n      0x6468727576000000000000000000000000000000000000000000000000000000\n      dup2\n      mstore\n      pop\n        /* \"contracts/10.17.simplestruct.sol\":269:271  s1 */\n      0x00\n        /* \"contracts/10.17.simplestruct.sol\":269:276  s1.name */\n      dup1\n      add\n        /* \"contracts/10.17.simplestruct.sol\":269:286  s1.name = \"dhruv\" */\n      swap1\n      dup2\n      tag_16\n      swap2\n      swap1\n      tag_17\n      jump\t// in\n    tag_16:\n      pop\n        /* \"contracts/10.17.simplestruct.sol\":306:308  12 */\n      0x0c\n        /* \"contracts/10.17.simplestruct.sol\":296:298  s1 */\n      0x00\n        /* \"contracts/10.17.simplestruct.sol\":296:303  s1.roll */\n      0x01\n      add\n        /* \"contracts/10.17.simplestruct.sol\":296:308  s1.roll = 12 */\n      dup2\n      swap1\n      sstore\n      pop\n        /* \"contracts/10.17.simplestruct.sol\":328:332  true */\n      0x01\n        /* \"contracts/10.17.simplestruct.sol\":318:320  s1 */\n      0x00\n        /* \"contracts/10.17.simplestruct.sol\":318:325  s1.pass */\n      0x02\n      add\n      0x00\n        /* \"contracts/10.17.simplestruct.sol\":318:332  s1.pass = true */\n      0x0100\n      exp\n      dup2\n      sload\n      dup2\n      0xff\n      mul\n      not\n      and\n      swap1\n      dup4\n      iszero\n      iszero\n      mul\n      or\n      swap1\n      sstore\n      pop\n        /* \"contracts/10.17.simplestruct.sol\":349:351  s1 */\n      0x00\n        /* \"contracts/10.17.simplestruct.sol\":342:351  return s1 */\n      mload(0x40)\n      dup1\n      0x60\n      add\n      0x40\n      mstore\n      swap1\n      dup2\n      0x00\n      dup3\n      add\n      dup1\n      sload\n      tag_18\n      swap1\n      tag_19\n      jump\t// in\n    tag_18:\n      dup1\n      0x1f\n      add\n      0x20\n      dup1\n      swap2\n      div\n      mul\n      0x20\n      add\n      mload(0x40)\n      swap1\n      dup2\n      add\n      0x40\n      mstore\n      dup1\n      swap3\n      swap2\n      swap1\n      dup2\n      dup2\n      mstore\n      0x20\n      add\n      dup3\n      dup1\n      sload\n      tag_20\n      swap1\n      tag_19\n      jump\t// in\n    tag_20:\n      dup1\n      iszero\n      tag_21\n      jumpi\n      dup1\n      0x1f\n      lt\n      tag_22\n      jumpi\n      0x0100\n      dup1\n      dup4\n      sload\n      div\n      mul\n      dup4\n      mstore\n      swap2\n      0x20\n      add\n      swap2\n      jump(tag_21)\n    tag_22:\n      dup3\n      add\n      swap2\n      swap1\n      0x00\n      mstore\n      keccak256(0x00, 0x20)\n      swap1\n    tag_23:\n      dup2\n      sload\n      dup2\n      mstore\n      swap1\n      0x01\n      add\n      swap1\n      0x20\n      add\n      dup1\n      dup4\n      gt\n      tag_23\n      jumpi\n      dup3\n      swap1\n      sub\n      0x1f\n      and\n      dup3\n      add\n      swap2\n    tag_21:\n      pop\n      pop\n      pop\n      pop\n      pop\n      dup2\n      mstore\n      0x20\n      add\n      0x01\n      dup3\n      add\n      sload\n      dup2\n      mstore\n      0x20\n      add\n      0x02\n      dup3\n      add\n      0x00\n      swap1\n      sload\n      swap1\n      0x0100\n      exp\n      swap1\n      div\n      0xff\n      and\n      iszero\n      iszero\n      iszero\n      iszero\n      dup2\n      mstore\n      pop\n      pop\n      swap1\n      pop\n        /* \"contracts/10.17.simplestruct.sol\":209:358  function insert() public returns (Student memory) {... */\n      swap1\n      jump\t// out\n        /* \"contracts/10.17.simplestruct.sol\":185:202  Student public s1 */\n    tag_10:\n      0x00\n      dup1\n      0x00\n      add\n      dup1\n      sload\n      tag_24\n      swap1\n      tag_19\n      jump\t// in\n    tag_24:\n      dup1\n      0x1f\n      add\n      0x20\n      dup1\n      swap2\n      div\n      mul\n      0x20\n      add\n      mload(0x40)\n      swap1\n      dup2\n      add\n      0x40\n      mstore\n      dup1\n      swap3\n      swap2\n      swap1\n      dup2\n      dup2\n      mstore\n      0x20\n      add\n      dup3\n      dup1\n      sload\n      tag_25\n      swap1\n      tag_19\n      jump\t// in\n    tag_25:\n      dup1\n      iszero\n      tag_26\n      jumpi\n      dup1\n      0x1f\n      lt\n      tag_27\n      jumpi\n      0x0100\n      dup1\n      dup4\n      sload\n      div\n      mul\n      dup4\n      mstore\n      swap2\n      0x20\n      add\n      swap2\n      jump(tag_26)\n    tag_27:\n      dup3\n      add\n      swap2\n      swap1\n      0x00\n      mstore\n      keccak256(0x00, 0x20)\n      swap1\n    tag_28:\n      dup2\n      sload\n      dup2\n      mstore\n      swap1\n      0x01\n      add\n      swap1\n      0x20\n      add\n      dup1\n      dup4\n      gt\n      tag_28\n      jumpi\n      dup3\n      swap1\n      sub\n      0x1f\n      and\n      dup3\n      add\n      swap2\n    tag_26:\n      pop\n      pop\n      pop\n      pop\n      pop\n      swap1\n      dup1\n      0x01\n      add\n      sload\n      swap1\n      dup1\n      0x02\n      add\n      0x00\n      swap1\n      sload\n      swap1\n      0x0100\n      exp\n      swap1\n      div\n      0xff\n      and\n      swap1\n      pop\n      dup4\n      jump\t// out\n    tag_14:\n      mload(0x40)\n      dup1\n      0x60\n      add\n      0x40\n      mstore\n      dup1\n      0x60\n      dup2\n      mstore\n      0x20\n      add\n      0x00\n      dup2\n      mstore\n      0x20\n      add\n      iszero(iszero(0x00))\n      dup2\n      mstore\n      pop\n      swap1\n      jump\t// out\n        /* \"#utility.yul\":7:106   */\n    tag_29:\n        /* \"#utility.yul\":59:65   */\n      0x00\n        /* \"#utility.yul\":93:98   */\n      dup2\n        /* \"#utility.yul\":87:99   */\n      mload\n        /* \"#utility.yul\":77:99   */\n      swap1\n      pop\n        /* \"#utility.yul\":7:106   */\n      swap2\n      swap1\n      pop\n      jump\t// out\n        /* \"#utility.yul\":112:271   */\n    tag_30:\n        /* \"#utility.yul\":186:197   */\n      0x00\n        /* \"#utility.yul\":220:226   */\n      dup3\n        /* \"#utility.yul\":215:218   */\n      dup3\n        /* \"#utility.yul\":208:227   */\n      mstore\n        /* \"#utility.yul\":260:264   */\n      0x20\n        /* \"#utility.yul\":255:258   */\n      dup3\n        /* \"#utility.yul\":251:265   */\n      add\n        /* \"#utility.yul\":236:265   */\n      swap1\n      pop\n        /* \"#utility.yul\":112:271   */\n      swap3\n      swap2\n      pop\n      pop\n      jump\t// out\n        /* \"#utility.yul\":277:523   */\n    tag_31:\n        /* \"#utility.yul\":358:359   */\n      0x00\n        /* \"#utility.yul\":368:481   */\n    tag_64:\n        /* \"#utility.yul\":382:388   */\n      dup4\n        /* \"#utility.yul\":379:380   */\n      dup2\n        /* \"#utility.yul\":376:389   */\n      lt\n        /* \"#utility.yul\":368:481   */\n      iszero\n      tag_66\n      jumpi\n        /* \"#utility.yul\":467:468   */\n      dup1\n        /* \"#utility.yul\":462:465   */\n      dup3\n        /* \"#utility.yul\":458:469   */\n      add\n        /* \"#utility.yul\":452:470   */\n      mload\n        /* \"#utility.yul\":448:449   */\n      dup2\n        /* \"#utility.yul\":443:446   */\n      dup5\n        /* \"#utility.yul\":439:450   */\n      add\n        /* \"#utility.yul\":432:471   */\n      mstore\n        /* \"#utility.yul\":404:406   */\n      0x20\n        /* \"#utility.yul\":401:402   */\n      dup2\n        /* \"#utility.yul\":397:407   */\n      add\n        /* \"#utility.yul\":392:407   */\n      swap1\n      pop\n        /* \"#utility.yul\":368:481   */\n      jump(tag_64)\n    tag_66:\n        /* \"#utility.yul\":515:516   */\n      0x00\n        /* \"#utility.yul\":506:512   */\n      dup5\n        /* \"#utility.yul\":501:504   */\n      dup5\n        /* \"#utility.yul\":497:513   */\n      add\n        /* \"#utility.yul\":490:517   */\n      mstore\n        /* \"#utility.yul\":339:523   */\n      pop\n        /* \"#utility.yul\":277:523   */\n      pop\n      pop\n      pop\n      jump\t// out\n        /* \"#utility.yul\":529:631   */\n    tag_32:\n        /* \"#utility.yul\":570:576   */\n      0x00\n        /* \"#utility.yul\":621:623   */\n      0x1f\n        /* \"#utility.yul\":617:624   */\n      not\n        /* \"#utility.yul\":612:614   */\n      0x1f\n        /* \"#utility.yul\":605:610   */\n      dup4\n        /* \"#utility.yul\":601:615   */\n      add\n        /* \"#utility.yul\":597:625   */\n      and\n        /* \"#utility.yul\":587:625   */\n      swap1\n      pop\n        /* \"#utility.yul\":529:631   */\n      swap2\n      swap1\n      pop\n      jump\t// out\n        /* \"#utility.yul\":637:994   */\n    tag_33:\n        /* \"#utility.yul\":715:718   */\n      0x00\n        /* \"#utility.yul\":743:782   */\n      tag_69\n        /* \"#utility.yul\":776:781   */\n      dup3\n        /* \"#utility.yul\":743:782   */\n      tag_29\n      jump\t// in\n    tag_69:\n        /* \"#utility.yul\":798:859   */\n      tag_70\n        /* \"#utility.yul\":852:858   */\n      dup2\n        /* \"#utility.yul\":847:850   */\n      dup6\n        /* \"#utility.yul\":798:859   */\n      tag_30\n      jump\t// in\n    tag_70:\n        /* \"#utility.yul\":791:859   */\n      swap4\n      pop\n        /* \"#utility.yul\":868:933   */\n      tag_71\n        /* \"#utility.yul\":926:932   */\n      dup2\n        /* \"#utility.yul\":921:924   */\n      dup6\n        /* \"#utility.yul\":914:918   */\n      0x20\n        /* \"#utility.yul\":907:912   */\n      dup7\n        /* \"#utility.yul\":903:919   */\n      add\n        /* \"#utility.yul\":868:933   */\n      tag_31\n      jump\t// in\n    tag_71:\n        /* \"#utility.yul\":958:987   */\n      tag_72\n        /* \"#utility.yul\":980:986   */\n      dup2\n        /* \"#utility.yul\":958:987   */\n      tag_32\n      jump\t// in\n    tag_72:\n        /* \"#utility.yul\":953:956   */\n      dup5\n        /* \"#utility.yul\":949:988   */\n      add\n        /* \"#utility.yul\":942:988   */\n      swap2\n      pop\n        /* \"#utility.yul\":719:994   */\n      pop\n        /* \"#utility.yul\":637:994   */\n      swap3\n      swap2\n      pop\n      pop\n      jump\t// out\n        /* \"#utility.yul\":1000:1077   */\n    tag_34:\n        /* \"#utility.yul\":1037:1044   */\n      0x00\n        /* \"#utility.yul\":1066:1071   */\n      dup2\n        /* \"#utility.yul\":1055:1071   */\n      swap1\n      pop\n        /* \"#utility.yul\":1000:1077   */\n      swap2\n      swap1\n      pop\n      jump\t// out\n        /* \"#utility.yul\":1083:1191   */\n    tag_35:\n        /* \"#utility.yul\":1160:1184   */\n      tag_75\n        /* \"#utility.yul\":1178:1183   */\n      dup2\n        /* \"#utility.yul\":1160:1184   */\n      tag_34\n      jump\t// in\n    tag_75:\n        /* \"#utility.yul\":1155:1158   */\n      dup3\n        /* \"#utility.yul\":1148:1185   */\n      mstore\n        /* \"#utility.yul\":1083:1191   */\n      pop\n      pop\n      jump\t// out\n        /* \"#utility.yul\":1197:1287   */\n    tag_36:\n        /* \"#utility.yul\":1231:1238   */\n      0x00\n        /* \"#utility.yul\":1274:1279   */\n      dup2\n        /* \"#utility.yul\":1267:1280   */\n      iszero\n        /* \"#utility.yul\":1260:1281   */\n      iszero\n        /* \"#utility.yul\":1249:1281   */\n      swap1\n      pop\n        /* \"#utility.yul\":1197:1287   */\n      swap2\n      swap1\n      pop\n      jump\t// out\n        /* \"#utility.yul\":1293:1392   */\n    tag_37:\n        /* \"#utility.yul\":1364:1385   */\n      tag_78\n        /* \"#utility.yul\":1379:1384   */\n      dup2\n        /* \"#utility.yul\":1364:1385   */\n      tag_36\n      jump\t// in\n    tag_78:\n        /* \"#utility.yul\":1359:1362   */\n      dup3\n        /* \"#utility.yul\":1352:1386   */\n      mstore\n        /* \"#utility.yul\":1293:1392   */\n      pop\n      pop\n      jump\t// out\n        /* \"#utility.yul\":1458:2226   */\n    tag_38:\n        /* \"#utility.yul\":1571:1574   */\n      0x00\n        /* \"#utility.yul\":1607:1611   */\n      0x60\n        /* \"#utility.yul\":1602:1605   */\n      dup4\n        /* \"#utility.yul\":1598:1612   */\n      add\n        /* \"#utility.yul\":1694:1698   */\n      0x00\n        /* \"#utility.yul\":1687:1692   */\n      dup4\n        /* \"#utility.yul\":1683:1699   */\n      add\n        /* \"#utility.yul\":1677:1700   */\n      mload\n        /* \"#utility.yul\":1747:1750   */\n      dup5\n        /* \"#utility.yul\":1741:1745   */\n      dup3\n        /* \"#utility.yul\":1737:1751   */\n      sub\n        /* \"#utility.yul\":1730:1734   */\n      0x00\n        /* \"#utility.yul\":1725:1728   */\n      dup7\n        /* \"#utility.yul\":1721:1735   */\n      add\n        /* \"#utility.yul\":1714:1752   */\n      mstore\n        /* \"#utility.yul\":1773:1846   */\n      tag_80\n        /* \"#utility.yul\":1841:1845   */\n      dup3\n        /* \"#utility.yul\":1827:1839   */\n      dup3\n        /* \"#utility.yul\":1773:1846   */\n      tag_33\n      jump\t// in\n    tag_80:\n        /* \"#utility.yul\":1765:1846   */\n      swap2\n      pop\n        /* \"#utility.yul\":1622:1857   */\n      pop\n        /* \"#utility.yul\":1939:1943   */\n      0x20\n        /* \"#utility.yul\":1932:1937   */\n      dup4\n        /* \"#utility.yul\":1928:1944   */\n      add\n        /* \"#utility.yul\":1922:1945   */\n      mload\n        /* \"#utility.yul\":1958:2021   */\n      tag_81\n        /* \"#utility.yul\":2015:2019   */\n      0x20\n        /* \"#utility.yul\":2010:2013   */\n      dup7\n        /* \"#utility.yul\":2006:2020   */\n      add\n        /* \"#utility.yul\":1992:2004   */\n      dup3\n        /* \"#utility.yul\":1958:2021   */\n      tag_35\n      jump\t// in\n    tag_81:\n        /* \"#utility.yul\":1867:2031   */\n      pop\n        /* \"#utility.yul\":2113:2117   */\n      0x40\n        /* \"#utility.yul\":2106:2111   */\n      dup4\n        /* \"#utility.yul\":2102:2118   */\n      add\n        /* \"#utility.yul\":2096:2119   */\n      mload\n        /* \"#utility.yul\":2132:2189   */\n      tag_82\n        /* \"#utility.yul\":2183:2187   */\n      0x40\n        /* \"#utility.yul\":2178:2181   */\n      dup7\n        /* \"#utility.yul\":2174:2188   */\n      add\n        /* \"#utility.yul\":2160:2172   */\n      dup3\n        /* \"#utility.yul\":2132:2189   */\n      tag_37\n      jump\t// in\n    tag_82:\n        /* \"#utility.yul\":2041:2199   */\n      pop\n        /* \"#utility.yul\":2216:2220   */\n      dup1\n        /* \"#utility.yul\":2209:2220   */\n      swap2\n      pop\n        /* \"#utility.yul\":1576:2226   */\n      pop\n        /* \"#utility.yul\":1458:2226   */\n      swap3\n      swap2\n      pop\n      pop\n      jump\t// out\n        /* \"#utility.yul\":2232:2593   */\n    tag_8:\n        /* \"#utility.yul\":2369:2373   */\n      0x00\n        /* \"#utility.yul\":2407:2409   */\n      0x20\n        /* \"#utility.yul\":2396:2405   */\n      dup3\n        /* \"#utility.yul\":2392:2410   */\n      add\n        /* \"#utility.yul\":2384:2410   */\n      swap1\n      pop\n        /* \"#utility.yul\":2456:2465   */\n      dup2\n        /* \"#utility.yul\":2450:2454   */\n      dup2\n        /* \"#utility.yul\":2446:2466   */\n      sub\n        /* \"#utility.yul\":2442:2443   */\n      0x00\n        /* \"#utility.yul\":2431:2440   */\n      dup4\n        /* \"#utility.yul\":2427:2444   */\n      add\n        /* \"#utility.yul\":2420:2467   */\n      mstore\n        /* \"#utility.yul\":2484:2586   */\n      tag_84\n        /* \"#utility.yul\":2581:2585   */\n      dup2\n        /* \"#utility.yul\":2572:2578   */\n      dup5\n        /* \"#utility.yul\":2484:2586   */\n      tag_38\n      jump\t// in\n    tag_84:\n        /* \"#utility.yul\":2476:2586   */\n      swap1\n      pop\n        /* \"#utility.yul\":2232:2593   */\n      swap3\n      swap2\n      pop\n      pop\n      jump\t// out\n        /* \"#utility.yul\":2599:2768   */\n    tag_39:\n        /* \"#utility.yul\":2683:2694   */\n      0x00\n        /* \"#utility.yul\":2717:2723   */\n      dup3\n        /* \"#utility.yul\":2712:2715   */\n      dup3\n        /* \"#utility.yul\":2705:2724   */\n      mstore\n        /* \"#utility.yul\":2757:2761   */\n      0x20\n        /* \"#utility.yul\":2752:2755   */\n      dup3\n        /* \"#utility.yul\":2748:2762   */\n      add\n        /* \"#utility.yul\":2733:2762   */\n      swap1\n      pop\n        /* \"#utility.yul\":2599:2768   */\n      swap3\n      swap2\n      pop\n      pop\n      jump\t// out\n        /* \"#utility.yul\":2774:3151   */\n    tag_40:\n        /* \"#utility.yul\":2862:2865   */\n      0x00\n        /* \"#utility.yul\":2890:2929   */\n      tag_87\n        /* \"#utility.yul\":2923:2928   */\n      dup3\n        /* \"#utility.yul\":2890:2929   */\n      tag_29\n      jump\t// in\n    tag_87:\n        /* \"#utility.yul\":2945:3016   */\n      tag_88\n        /* \"#utility.yul\":3009:3015   */\n      dup2\n        /* \"#utility.yul\":3004:3007   */\n      dup6\n        /* \"#utility.yul\":2945:3016   */\n      tag_39\n      jump\t// in\n    tag_88:\n        /* \"#utility.yul\":2938:3016   */\n      swap4\n      pop\n        /* \"#utility.yul\":3025:3090   */\n      tag_89\n        /* \"#utility.yul\":3083:3089   */\n      dup2\n        /* \"#utility.yul\":3078:3081   */\n      dup6\n        /* \"#utility.yul\":3071:3075   */\n      0x20\n        /* \"#utility.yul\":3064:3069   */\n      dup7\n        /* \"#utility.yul\":3060:3076   */\n      add\n        /* \"#utility.yul\":3025:3090   */\n      tag_31\n      jump\t// in\n    tag_89:\n        /* \"#utility.yul\":3115:3144   */\n      tag_90\n        /* \"#utility.yul\":3137:3143   */\n      dup2\n        /* \"#utility.yul\":3115:3144   */\n      tag_32\n      jump\t// in\n    tag_90:\n        /* \"#utility.yul\":3110:3113   */\n      dup5\n        /* \"#utility.yul\":3106:3145   */\n      add\n        /* \"#utility.yul\":3099:3145   */\n      swap2\n      pop\n        /* \"#utility.yul\":2866:3151   */\n      pop\n        /* \"#utility.yul\":2774:3151   */\n      swap3\n      swap2\n      pop\n      pop\n      jump\t// out\n        /* \"#utility.yul\":3157:3275   */\n    tag_41:\n        /* \"#utility.yul\":3244:3268   */\n      tag_92\n        /* \"#utility.yul\":3262:3267   */\n      dup2\n        /* \"#utility.yul\":3244:3268   */\n      tag_34\n      jump\t// in\n    tag_92:\n        /* \"#utility.yul\":3239:3242   */\n      dup3\n        /* \"#utility.yul\":3232:3269   */\n      mstore\n        /* \"#utility.yul\":3157:3275   */\n      pop\n      pop\n      jump\t// out\n        /* \"#utility.yul\":3281:3390   */\n    tag_42:\n        /* \"#utility.yul\":3362:3383   */\n      tag_94\n        /* \"#utility.yul\":3377:3382   */\n      dup2\n        /* \"#utility.yul\":3362:3383   */\n      tag_36\n      jump\t// in\n    tag_94:\n        /* \"#utility.yul\":3357:3360   */\n      dup3\n        /* \"#utility.yul\":3350:3384   */\n      mstore\n        /* \"#utility.yul\":3281:3390   */\n      pop\n      pop\n      jump\t// out\n        /* \"#utility.yul\":3396:3917   */\n    tag_12:\n        /* \"#utility.yul\":3559:3563   */\n      0x00\n        /* \"#utility.yul\":3597:3599   */\n      0x60\n        /* \"#utility.yul\":3586:3595   */\n      dup3\n        /* \"#utility.yul\":3582:3600   */\n      add\n        /* \"#utility.yul\":3574:3600   */\n      swap1\n      pop\n        /* \"#utility.yul\":3646:3655   */\n      dup2\n        /* \"#utility.yul\":3640:3644   */\n      dup2\n        /* \"#utility.yul\":3636:3656   */\n      sub\n        /* \"#utility.yul\":3632:3633   */\n      0x00\n        /* \"#utility.yul\":3621:3630   */\n      dup4\n        /* \"#utility.yul\":3617:3634   */\n      add\n        /* \"#utility.yul\":3610:3657   */\n      mstore\n        /* \"#utility.yul\":3674:3752   */\n      tag_96\n        /* \"#utility.yul\":3747:3751   */\n      dup2\n        /* \"#utility.yul\":3738:3744   */\n      dup7\n        /* \"#utility.yul\":3674:3752   */\n      tag_40\n      jump\t// in\n    tag_96:\n        /* \"#utility.yul\":3666:3752   */\n      swap1\n      pop\n        /* \"#utility.yul\":3762:3834   */\n      tag_97\n        /* \"#utility.yul\":3830:3832   */\n      0x20\n        /* \"#utility.yul\":3819:3828   */\n      dup4\n        /* \"#utility.yul\":3815:3833   */\n      add\n        /* \"#utility.yul\":3806:3812   */\n      dup6\n        /* \"#utility.yul\":3762:3834   */\n      tag_41\n      jump\t// in\n    tag_97:\n        /* \"#utility.yul\":3844:3910   */\n      tag_98\n        /* \"#utility.yul\":3906:3908   */\n      0x40\n        /* \"#utility.yul\":3895:3904   */\n      dup4\n        /* \"#utility.yul\":3891:3909   */\n      add\n        /* \"#utility.yul\":3882:3888   */\n      dup5\n        /* \"#utility.yul\":3844:3910   */\n      tag_42\n      jump\t// in\n    tag_98:\n        /* \"#utility.yul\":3396:3917   */\n      swap5\n      swap4\n      pop\n      pop\n      pop\n      pop\n      jump\t// out\n        /* \"#utility.yul\":3923:4103   */\n    tag_43:\n        /* \"#utility.yul\":3971:4048   */\n      0x4e487b7100000000000000000000000000000000000000000000000000000000\n        /* \"#utility.yul\":3968:3969   */\n      0x00\n        /* \"#utility.yul\":3961:4049   */\n      mstore\n        /* \"#utility.yul\":4068:4072   */\n      0x41\n        /* \"#utility.yul\":4065:4066   */\n      0x04\n        /* \"#utility.yul\":4058:4073   */\n      mstore\n        /* \"#utility.yul\":4092:4096   */\n      0x24\n        /* \"#utility.yul\":4089:4090   */\n      0x00\n        /* \"#utility.yul\":4082:4097   */\n      revert\n        /* \"#utility.yul\":4109:4289   */\n    tag_44:\n        /* \"#utility.yul\":4157:4234   */\n      0x4e487b7100000000000000000000000000000000000000000000000000000000\n        /* \"#utility.yul\":4154:4155   */\n      0x00\n        /* \"#utility.yul\":4147:4235   */\n      mstore\n        /* \"#utility.yul\":4254:4258   */\n      0x22\n        /* \"#utility.yul\":4251:4252   */\n      0x04\n        /* \"#utility.yul\":4244:4259   */\n      mstore\n        /* \"#utility.yul\":4278:4282   */\n      0x24\n        /* \"#utility.yul\":4275:4276   */\n      0x00\n        /* \"#utility.yul\":4268:4283   */\n      revert\n        /* \"#utility.yul\":4295:4615   */\n    tag_19:\n        /* \"#utility.yul\":4339:4345   */\n      0x00\n        /* \"#utility.yul\":4376:4377   */\n      0x02\n        /* \"#utility.yul\":4370:4374   */\n      dup3\n        /* \"#utility.yul\":4366:4378   */\n      div\n        /* \"#utility.yul\":4356:4378   */\n      swap1\n      pop\n        /* \"#utility.yul\":4423:4424   */\n      0x01\n        /* \"#utility.yul\":4417:4421   */\n      dup3\n        /* \"#utility.yul\":4413:4425   */\n      and\n        /* \"#utility.yul\":4444:4462   */\n      dup1\n        /* \"#utility.yul\":4434:4515   */\n      tag_102\n      jumpi\n        /* \"#utility.yul\":4500:4504   */\n      0x7f\n        /* \"#utility.yul\":4492:4498   */\n      dup3\n        /* \"#utility.yul\":4488:4505   */\n      and\n        /* \"#utility.yul\":4478:4505   */\n      swap2\n      pop\n        /* \"#utility.yul\":4434:4515   */\n    tag_102:\n        /* \"#utility.yul\":4562:4564   */\n      0x20\n        /* \"#utility.yul\":4554:4560   */\n      dup3\n        /* \"#utility.yul\":4551:4565   */\n      lt\n        /* \"#utility.yul\":4531:4549   */\n      dup2\n        /* \"#utility.yul\":4528:4566   */\n      sub\n        /* \"#utility.yul\":4525:4609   */\n      tag_103\n      jumpi\n        /* \"#utility.yul\":4581:4599   */\n      tag_104\n      tag_44\n      jump\t// in\n    tag_104:\n        /* \"#utility.yul\":4525:4609   */\n    tag_103:\n        /* \"#utility.yul\":4346:4615   */\n      pop\n        /* \"#utility.yul\":4295:4615   */\n      swap2\n      swap1\n      pop\n      jump\t// out\n        /* \"#utility.yul\":4621:4762   */\n    tag_45:\n        /* \"#utility.yul\":4670:4674   */\n      0x00\n        /* \"#utility.yul\":4693:4696   */\n      dup2\n        /* \"#utility.yul\":4685:4696   */\n      swap1\n      pop\n        /* \"#utility.yul\":4716:4719   */\n      dup2\n        /* \"#utility.yul\":4713:4714   */\n      0x00\n        /* \"#utility.yul\":4706:4720   */\n      mstore\n        /* \"#utility.yul\":4750:4754   */\n      0x20\n        /* \"#utility.yul\":4747:4748   */\n      0x00\n        /* \"#utility.yul\":4737:4755   */\n      keccak256\n        /* \"#utility.yul\":4729:4755   */\n      swap1\n      pop\n        /* \"#utility.yul\":4621:4762   */\n      swap2\n      swap1\n      pop\n      jump\t// out\n        /* \"#utility.yul\":4768:4861   */\n    tag_46:\n        /* \"#utility.yul\":4805:4811   */\n      0x00\n        /* \"#utility.yul\":4852:4854   */\n      0x20\n        /* \"#utility.yul\":4847:4849   */\n      0x1f\n        /* \"#utility.yul\":4840:4845   */\n      dup4\n        /* \"#utility.yul\":4836:4850   */\n      add\n        /* \"#utility.yul\":4832:4855   */\n      div\n        /* \"#utility.yul\":4822:4855   */\n      swap1\n      pop\n        /* \"#utility.yul\":4768:4861   */\n      swap2\n      swap1\n      pop\n      jump\t// out\n        /* \"#utility.yul\":4867:4974   */\n    tag_47:\n        /* \"#utility.yul\":4911:4919   */\n      0x00\n        /* \"#utility.yul\":4961:4966   */\n      dup3\n        /* \"#utility.yul\":4955:4959   */\n      dup3\n        /* \"#utility.yul\":4951:4967   */\n      shl\n        /* \"#utility.yul\":4930:4967   */\n      swap1\n      pop\n        /* \"#utility.yul\":4867:4974   */\n      swap3\n      swap2\n      pop\n      pop\n      jump\t// out\n        /* \"#utility.yul\":4980:5373   */\n    tag_48:\n        /* \"#utility.yul\":5049:5055   */\n      0x00\n        /* \"#utility.yul\":5099:5100   */\n      0x08\n        /* \"#utility.yul\":5087:5097   */\n      dup4\n        /* \"#utility.yul\":5083:5101   */\n      mul\n        /* \"#utility.yul\":5122:5219   */\n      tag_109\n        /* \"#utility.yul\":5152:5218   */\n      0xffffffffffffffffffffffffffffffffffffffffffffffffffffffffffffffff\n        /* \"#utility.yul\":5141:5150   */\n      dup3\n        /* \"#utility.yul\":5122:5219   */\n      tag_47\n      jump\t// in\n    tag_109:\n        /* \"#utility.yul\":5240:5279   */\n      tag_110\n        /* \"#utility.yul\":5270:5278   */\n      dup7\n        /* \"#utility.yul\":5259:5268   */\n      dup4\n        /* \"#utility.yul\":5240:5279   */\n      tag_47\n      jump\t// in\n    tag_110:\n        /* \"#utility.yul\":5228:5279   */\n      swap6\n      pop\n        /* \"#utility.yul\":5312:5316   */\n      dup1\n        /* \"#utility.yul\":5308:5317   */\n      not\n        /* \"#utility.yul\":5301:5306   */\n      dup5\n        /* \"#utility.yul\":5297:5318   */\n      and\n        /* \"#utility.yul\":5288:5318   */\n      swap4\n      pop\n        /* \"#utility.yul\":5361:5365   */\n      dup1\n        /* \"#utility.yul\":5351:5359   */\n      dup7\n        /* \"#utility.yul\":5347:5366   */\n      and\n        /* \"#utility.yul\":5340:5345   */\n      dup5\n        /* \"#utility.yul\":5337:5367   */\n      or\n        /* \"#utility.yul\":5327:5367   */\n      swap3\n      pop\n        /* \"#utility.yul\":5056:5373   */\n      pop\n      pop\n        /* \"#utility.yul\":4980:5373   */\n      swap4\n      swap3\n      pop\n      pop\n      pop\n      jump\t// out\n        /* \"#utility.yul\":5379:5439   */\n    tag_49:\n        /* \"#utility.yul\":5407:5410   */\n      0x00\n        /* \"#utility.yul\":5428:5433   */\n      dup2\n        /* \"#utility.yul\":5421:5433   */\n      swap1\n      pop\n        /* \"#utility.yul\":5379:5439   */\n      swap2\n      swap1\n      pop\n      jump\t// out\n        /* \"#utility.yul\":5445:5587   */\n    tag_50:\n        /* \"#utility.yul\":5495:5504   */\n      0x00\n        /* \"#utility.yul\":5528:5581   */\n      tag_113\n        /* \"#utility.yul\":5546:5580   */\n      tag_114\n        /* \"#utility.yul\":5555:5579   */\n      tag_115\n        /* \"#utility.yul\":5573:5578   */\n      dup5\n        /* \"#utility.yul\":5555:5579   */\n      tag_34\n      jump\t// in\n    tag_115:\n        /* \"#utility.yul\":5546:5580   */\n      tag_49\n      jump\t// in\n    tag_114:\n        /* \"#utility.yul\":5528:5581   */\n      tag_34\n      jump\t// in\n    tag_113:\n        /* \"#utility.yul\":5515:5581   */\n      swap1\n      pop\n        /* \"#utility.yul\":5445:5587   */\n      swap2\n      swap1\n      pop\n      jump\t// out\n        /* \"#utility.yul\":5593:5668   */\n    tag_51:\n        /* \"#utility.yul\":5636:5639   */\n      0x00\n        /* \"#utility.yul\":5657:5662   */\n      dup2\n        /* \"#utility.yul\":5650:5662   */\n      swap1\n      pop\n        /* \"#utility.yul\":5593:5668   */\n      swap2\n      swap1\n      pop\n      jump\t// out\n        /* \"#utility.yul\":5674:5943   */\n    tag_52:\n        /* \"#utility.yul\":5784:5823   */\n      tag_118\n        /* \"#utility.yul\":5815:5822   */\n      dup4\n        /* \"#utility.yul\":5784:5823   */\n      tag_50\n      jump\t// in\n    tag_118:\n        /* \"#utility.yul\":5845:5936   */\n      tag_119\n        /* \"#utility.yul\":5894:5935   */\n      tag_120\n        /* \"#utility.yul\":5918:5934   */\n      dup3\n        /* \"#utility.yul\":5894:5935   */\n      tag_51\n      jump\t// in\n    tag_120:\n        /* \"#utility.yul\":5886:5892   */\n      dup5\n        /* \"#utility.yul\":5879:5883   */\n      dup5\n        /* \"#utility.yul\":5873:5884   */\n      sload\n        /* \"#utility.yul\":5845:5936   */\n      tag_48\n      jump\t// in\n    tag_119:\n        /* \"#utility.yul\":5839:5843   */\n      dup3\n        /* \"#utility.yul\":5832:5937   */\n      sstore\n        /* \"#utility.yul\":5750:5943   */\n      pop\n        /* \"#utility.yul\":5674:5943   */\n      pop\n      pop\n      pop\n      jump\t// out\n        /* \"#utility.yul\":5949:6022   */\n    tag_53:\n        /* \"#utility.yul\":5994:5997   */\n      0x00\n        /* \"#utility.yul\":5949:6022   */\n      swap1\n      jump\t// out\n        /* \"#utility.yul\":6028:6217   */\n    tag_54:\n        /* \"#utility.yul\":6105:6137   */\n      tag_123\n      tag_53\n      jump\t// in\n    tag_123:\n        /* \"#utility.yul\":6146:6211   */\n      tag_124\n        /* \"#utility.yul\":6204:6210   */\n      dup2\n        /* \"#utility.yul\":6196:6202   */\n      dup5\n        /* \"#utility.yul\":6190:6194   */\n      dup5\n        /* \"#utility.yul\":6146:6211   */\n      tag_52\n      jump\t// in\n    tag_124:\n        /* \"#utility.yul\":6081:6217   */\n      pop\n        /* \"#utility.yul\":6028:6217   */\n      pop\n      pop\n      jump\t// out\n        /* \"#utility.yul\":6223:6409   */\n    tag_55:\n        /* \"#utility.yul\":6283:6403   */\n    tag_126:\n        /* \"#utility.yul\":6300:6303   */\n      dup2\n        /* \"#utility.yul\":6293:6298   */\n      dup2\n        /* \"#utility.yul\":6290:6304   */\n      lt\n        /* \"#utility.yul\":6283:6403   */\n      iszero\n      tag_128\n      jumpi\n        /* \"#utility.yul\":6354:6393   */\n      tag_129\n        /* \"#utility.yul\":6391:6392   */\n      0x00\n        /* \"#utility.yul\":6384:6389   */\n      dup3\n        /* \"#utility.yul\":6354:6393   */\n      tag_54\n      jump\t// in\n    tag_129:\n        /* \"#utility.yul\":6327:6328   */\n      0x01\n        /* \"#utility.yul\":6320:6325   */\n      dup2\n        /* \"#utility.yul\":6316:6329   */\n      add\n        /* \"#utility.yul\":6307:6329   */\n      swap1\n      pop\n        /* \"#utility.yul\":6283:6403   */\n      jump(tag_126)\n    tag_128:\n        /* \"#utility.yul\":6223:6409   */\n      pop\n      pop\n      jump\t// out\n        /* \"#utility.yul\":6415:6958   */\n    tag_56:\n        /* \"#utility.yul\":6516:6518   */\n      0x1f\n        /* \"#utility.yul\":6511:6514   */\n      dup3\n        /* \"#utility.yul\":6508:6519   */\n      gt\n        /* \"#utility.yul\":6505:6951   */\n      iszero\n      tag_131\n      jumpi\n        /* \"#utility.yul\":6550:6588   */\n      tag_132\n        /* \"#utility.yul\":6582:6587   */\n      dup2\n        /* \"#utility.yul\":6550:6588   */\n      tag_45\n      jump\t// in\n    tag_132:\n        /* \"#utility.yul\":6634:6663   */\n      tag_133\n        /* \"#utility.yul\":6652:6662   */\n      dup5\n        /* \"#utility.yul\":6634:6663   */\n      tag_46\n      jump\t// in\n    tag_133:\n        /* \"#utility.yul\":6624:6632   */\n      dup2\n        /* \"#utility.yul\":6620:6664   */\n      add\n        /* \"#utility.yul\":6817:6819   */\n      0x20\n        /* \"#utility.yul\":6805:6815   */\n      dup6\n        /* \"#utility.yul\":6802:6820   */\n      lt\n        /* \"#utility.yul\":6799:6848   */\n      iszero\n      tag_134\n      jumpi\n        /* \"#utility.yul\":6838:6846   */\n      dup2\n        /* \"#utility.yul\":6823:6846   */\n      swap1\n      pop\n        /* \"#utility.yul\":6799:6848   */\n    tag_134:\n        /* \"#utility.yul\":6861:6941   */\n      tag_135\n        /* \"#utility.yul\":6917:6939   */\n      tag_136\n        /* \"#utility.yul\":6935:6938   */\n      dup6\n        /* \"#utility.yul\":6917:6939   */\n      tag_46\n      jump\t// in\n    tag_136:\n        /* \"#utility.yul\":6907:6915   */\n      dup4\n        /* \"#utility.yul\":6903:6940   */\n      add\n        /* \"#utility.yul\":6890:6901   */\n      dup3\n        /* \"#utility.yul\":6861:6941   */\n      tag_55\n      jump\t// in\n    tag_135:\n        /* \"#utility.yul\":6520:6951   */\n      pop\n      pop\n        /* \"#utility.yul\":6505:6951   */\n    tag_131:\n        /* \"#utility.yul\":6415:6958   */\n      pop\n      pop\n      pop\n      jump\t// out\n        /* \"#utility.yul\":6964:7081   */\n    tag_57:\n        /* \"#utility.yul\":7018:7026   */\n      0x00\n        /* \"#utility.yul\":7068:7073   */\n      dup3\n        /* \"#utility.yul\":7062:7066   */\n      dup3\n        /* \"#utility.yul\":7058:7074   */\n      shr\n        /* \"#utility.yul\":7037:7074   */\n      swap1\n      pop\n        /* \"#utility.yul\":6964:7081   */\n      swap3\n      swap2\n      pop\n      pop\n      jump\t// out\n        /* \"#utility.yul\":7087:7256   */\n    tag_58:\n        /* \"#utility.yul\":7131:7137   */\n      0x00\n        /* \"#utility.yul\":7164:7215   */\n      tag_139\n        /* \"#utility.yul\":7212:7213   */\n      0x00\n        /* \"#utility.yul\":7208:7214   */\n      not\n        /* \"#utility.yul\":7200:7205   */\n      dup5\n        /* \"#utility.yul\":7197:7198   */\n      0x08\n        /* \"#utility.yul\":7193:7206   */\n      mul\n        /* \"#utility.yul\":7164:7215   */\n      tag_57\n      jump\t// in\n    tag_139:\n        /* \"#utility.yul\":7160:7216   */\n      not\n        /* \"#utility.yul\":7245:7249   */\n      dup1\n        /* \"#utility.yul\":7239:7243   */\n      dup4\n        /* \"#utility.yul\":7235:7250   */\n      and\n        /* \"#utility.yul\":7225:7250   */\n      swap2\n      pop\n        /* \"#utility.yul\":7138:7256   */\n      pop\n        /* \"#utility.yul\":7087:7256   */\n      swap3\n      swap2\n      pop\n      pop\n      jump\t// out\n        /* \"#utility.yul\":7261:7556   */\n    tag_59:\n        /* \"#utility.yul\":7337:7341   */\n      0x00\n        /* \"#utility.yul\":7483:7512   */\n      tag_141\n        /* \"#utility.yul\":7508:7511   */\n      dup4\n        /* \"#utility.yul\":7502:7506   */\n      dup4\n        /* \"#utility.yul\":7483:7512   */\n      tag_58\n      jump\t// in\n    tag_141:\n        /* \"#utility.yul\":7475:7512   */\n      swap2\n      pop\n        /* \"#utility.yul\":7545:7548   */\n      dup3\n        /* \"#utility.yul\":7542:7543   */\n      0x02\n        /* \"#utility.yul\":7538:7549   */\n      mul\n        /* \"#utility.yul\":7532:7536   */\n      dup3\n        /* \"#utility.yul\":7529:7550   */\n      or\n        /* \"#utility.yul\":7521:7550   */\n      swap1\n      pop\n        /* \"#utility.yul\":7261:7556   */\n      swap3\n      swap2\n      pop\n      pop\n      jump\t// out\n        /* \"#utility.yul\":7561:8956   */\n    tag_17:\n        /* \"#utility.yul\":7678:7715   */\n      tag_143\n        /* \"#utility.yul\":7711:7714   */\n      dup3\n        /* \"#utility.yul\":7678:7715   */\n      tag_29\n      jump\t// in\n    tag_143:\n        /* \"#utility.yul\":7780:7798   */\n      0xffffffffffffffff\n        /* \"#utility.yul\":7772:7778   */\n      dup2\n        /* \"#utility.yul\":7769:7799   */\n      gt\n        /* \"#utility.yul\":7766:7822   */\n      iszero\n      tag_144\n      jumpi\n        /* \"#utility.yul\":7802:7820   */\n      tag_145\n      tag_43\n      jump\t// in\n    tag_145:\n        /* \"#utility.yul\":7766:7822   */\n    tag_144:\n        /* \"#utility.yul\":7846:7884   */\n      tag_146\n        /* \"#utility.yul\":7878:7882   */\n      dup3\n        /* \"#utility.yul\":7872:7883   */\n      sload\n        /* \"#utility.yul\":7846:7884   */\n      tag_19\n      jump\t// in\n    tag_146:\n        /* \"#utility.yul\":7931:7998   */\n      tag_147\n        /* \"#utility.yul\":7991:7997   */\n      dup3\n        /* \"#utility.yul\":7983:7989   */\n      dup3\n        /* \"#utility.yul\":7977:7981   */\n      dup6\n        /* \"#utility.yul\":7931:7998   */\n      tag_56\n      jump\t// in\n    tag_147:\n        /* \"#utility.yul\":8025:8026   */\n      0x00\n        /* \"#utility.yul\":8049:8053   */\n      0x20\n        /* \"#utility.yul\":8036:8053   */\n      swap1\n      pop\n        /* \"#utility.yul\":8081:8083   */\n      0x1f\n        /* \"#utility.yul\":8073:8079   */\n      dup4\n        /* \"#utility.yul\":8070:8084   */\n      gt\n        /* \"#utility.yul\":8098:8099   */\n      0x01\n        /* \"#utility.yul\":8093:8711   */\n      dup2\n      eq\n      tag_149\n      jumpi\n        /* \"#utility.yul\":8755:8756   */\n      0x00\n        /* \"#utility.yul\":8772:8778   */\n      dup5\n        /* \"#utility.yul\":8769:8846   */\n      iszero\n      tag_150\n      jumpi\n        /* \"#utility.yul\":8821:8830   */\n      dup3\n        /* \"#utility.yul\":8816:8819   */\n      dup8\n        /* \"#utility.yul\":8812:8831   */\n      add\n        /* \"#utility.yul\":8806:8832   */\n      mload\n        /* \"#utility.yul\":8797:8832   */\n      swap1\n      pop\n        /* \"#utility.yul\":8769:8846   */\n    tag_150:\n        /* \"#utility.yul\":8872:8939   */\n      tag_151\n        /* \"#utility.yul\":8932:8938   */\n      dup6\n        /* \"#utility.yul\":8925:8930   */\n      dup3\n        /* \"#utility.yul\":8872:8939   */\n      tag_59\n      jump\t// in\n    tag_151:\n        /* \"#utility.yul\":8866:8870   */\n      dup7\n        /* \"#utility.yul\":8859:8940   */\n      sstore\n        /* \"#utility.yul\":8728:8950   */\n      pop\n        /* \"#utility.yul\":8063:8950   */\n      jump(tag_148)\n        /* \"#utility.yul\":8093:8711   */\n    tag_149:\n        /* \"#utility.yul\":8145:8149   */\n      0x1f\n        /* \"#utility.yul\":8141:8150   */\n      not\n        /* \"#utility.yul\":8133:8139   */\n      dup5\n        /* \"#utility.yul\":8129:8151   */\n      and\n        /* \"#utility.yul\":8179:8216   */\n      tag_152\n        /* \"#utility.yul\":8211:8215   */\n      dup7\n        /* \"#utility.yul\":8179:8216   */\n      tag_45\n      jump\t// in\n    tag_152:\n        /* \"#utility.yul\":8238:8239   */\n      0x00\n        /* \"#utility.yul\":8252:8460   */\n    tag_153:\n        /* \"#utility.yul\":8266:8273   */\n      dup3\n        /* \"#utility.yul\":8263:8264   */\n      dup2\n        /* \"#utility.yul\":8260:8274   */\n      lt\n        /* \"#utility.yul\":8252:8460   */\n      iszero\n      tag_155\n      jumpi\n        /* \"#utility.yul\":8345:8354   */\n      dup5\n        /* \"#utility.yul\":8340:8343   */\n      dup10\n        /* \"#utility.yul\":8336:8355   */\n      add\n        /* \"#utility.yul\":8330:8356   */\n      mload\n        /* \"#utility.yul\":8322:8328   */\n      dup3\n        /* \"#utility.yul\":8315:8357   */\n      sstore\n        /* \"#utility.yul\":8396:8397   */\n      0x01\n        /* \"#utility.yul\":8388:8394   */\n      dup3\n        /* \"#utility.yul\":8384:8398   */\n      add\n        /* \"#utility.yul\":8374:8398   */\n      swap2\n      pop\n        /* \"#utility.yul\":8443:8445   */\n      0x20\n        /* \"#utility.yul\":8432:8441   */\n      dup6\n        /* \"#utility.yul\":8428:8446   */\n      add\n        /* \"#utility.yul\":8415:8446   */\n      swap5\n      pop\n        /* \"#utility.yul\":8289:8293   */\n      0x20\n        /* \"#utility.yul\":8286:8287   */\n      dup2\n        /* \"#utility.yul\":8282:8294   */\n      add\n        /* \"#utility.yul\":8277:8294   */\n      swap1\n      pop\n        /* \"#utility.yul\":8252:8460   */\n      jump(tag_153)\n    tag_155:\n        /* \"#utility.yul\":8488:8494   */\n      dup7\n        /* \"#utility.yul\":8479:8486   */\n      dup4\n        /* \"#utility.yul\":8476:8495   */\n      lt\n        /* \"#utility.yul\":8473:8652   */\n      iszero\n      tag_156\n      jumpi\n        /* \"#utility.yul\":8546:8555   */\n      dup5\n        /* \"#utility.yul\":8541:8544   */\n      dup10\n        /* \"#utility.yul\":8537:8556   */\n      add\n        /* \"#utility.yul\":8531:8557   */\n      mload\n        /* \"#utility.yul\":8589:8637   */\n      tag_157\n        /* \"#utility.yul\":8631:8635   */\n      0x1f\n        /* \"#utility.yul\":8623:8629   */\n      dup10\n        /* \"#utility.yul\":8619:8636   */\n      and\n        /* \"#utility.yul\":8608:8617   */\n      dup3\n        /* \"#utility.yul\":8589:8637   */\n      tag_58\n      jump\t// in\n    tag_157:\n        /* \"#utility.yul\":8581:8587   */\n      dup4\n        /* \"#utility.yul\":8574:8638   */\n      sstore\n        /* \"#utility.yul\":8496:8652   */\n      pop\n        /* \"#utility.yul\":8473:8652   */\n    tag_156:\n        /* \"#utility.yul\":8698:8699   */\n      0x01\n        /* \"#utility.yul\":8694:8695   */\n      0x02\n        /* \"#utility.yul\":8686:8692   */\n      dup9\n        /* \"#utility.yul\":8682:8696   */\n      mul\n        /* \"#utility.yul\":8678:8700   */\n      add\n        /* \"#utility.yul\":8672:8676   */\n      dup9\n        /* \"#utility.yul\":8665:8701   */\n      sstore\n        /* \"#utility.yul\":8100:8711   */\n      pop\n      pop\n      pop\n        /* \"#utility.yul\":8063:8950   */\n    tag_148:\n      pop\n        /* \"#utility.yul\":7653:8956   */\n      pop\n      pop\n      pop\n        /* \"#utility.yul\":7561:8956   */\n      pop\n      pop\n      jump\t// out\n\n    auxdata: 0xa2646970667358221220569ed73624d03ecf35d12c78821f3d528e21dcb0e3fb11138e41ddb7728e3b3e64736f6c63430008180033\n}\n",
				"bytecode": {
					"linkReferences": {},
					"object": "608060405234801561000f575f80fd5b5061076e8061001d5f395ff3fe608060405234801561000f575f80fd5b5060043610610034575f3560e01c806325f7b1de146100385780636cc014de14610056575b5f80fd5b610040610076565b60405161004d9190610380565b60405180910390f35b61005e6101ae565b60405161006d93929190610406565b60405180910390f35b61007e610256565b6040518060400160405280600581526020017f64687275760000000000000000000000000000000000000000000000000000008152505f800190816100c39190610669565b50600c5f6001018190555060015f6002015f6101000a81548160ff0219169083151502179055505f6040518060600160405290815f820180546101059061049c565b80601f01602080910402602001604051908101604052809291908181526020018280546101319061049c565b801561017c5780601f106101535761010080835404028352916020019161017c565b820191905f5260205f20905b81548152906001019060200180831161015f57829003601f168201915b5050505050815260200160018201548152602001600282015f9054906101000a900460ff161515151581525050905090565b5f805f0180546101bd9061049c565b80601f01602080910402602001604051908101604052809291908181526020018280546101e99061049c565b80156102345780601f1061020b57610100808354040283529160200191610234565b820191905f5260205f20905b81548152906001019060200180831161021757829003601f168201915b505050505090806001015490806002015f9054906101000a900460ff16905083565b6040518060600160405280606081526020015f81526020015f151581525090565b5f81519050919050565b5f82825260208201905092915050565b5f5b838110156102ae578082015181840152602081019050610293565b5f8484015250505050565b5f601f19601f8301169050919050565b5f6102d382610277565b6102dd8185610281565b93506102ed818560208601610291565b6102f6816102b9565b840191505092915050565b5f819050919050565b61031381610301565b82525050565b5f8115159050919050565b61032d81610319565b82525050565b5f606083015f8301518482035f86015261034d82826102c9565b9150506020830151610362602086018261030a565b5060408301516103756040860182610324565b508091505092915050565b5f6020820190508181035f8301526103988184610333565b905092915050565b5f82825260208201905092915050565b5f6103ba82610277565b6103c481856103a0565b93506103d4818560208601610291565b6103dd816102b9565b840191505092915050565b6103f181610301565b82525050565b61040081610319565b82525050565b5f6060820190508181035f83015261041e81866103b0565b905061042d60208301856103e8565b61043a60408301846103f7565b949350505050565b7f4e487b71000000000000000000000000000000000000000000000000000000005f52604160045260245ffd5b7f4e487b71000000000000000000000000000000000000000000000000000000005f52602260045260245ffd5b5f60028204905060018216806104b357607f821691505b6020821081036104c6576104c561046f565b5b50919050565b5f819050815f5260205f209050919050565b5f6020601f8301049050919050565b5f82821b905092915050565b5f600883026105287fffffffffffffffffffffffffffffffffffffffffffffffffffffffffffffffff826104ed565b61053286836104ed565b95508019841693508086168417925050509392505050565b5f819050919050565b5f61056d61056861056384610301565b61054a565b610301565b9050919050565b5f819050919050565b61058683610553565b61059a61059282610574565b8484546104f9565b825550505050565b5f90565b6105ae6105a2565b6105b981848461057d565b505050565b5b818110156105dc576105d15f826105a6565b6001810190506105bf565b5050565b601f821115610621576105f2816104cc565b6105fb846104de565b8101602085101561060a578190505b61061e610616856104de565b8301826105be565b50505b505050565b5f82821c905092915050565b5f6106415f1984600802610626565b1980831691505092915050565b5f6106598383610632565b9150826002028217905092915050565b61067282610277565b67ffffffffffffffff81111561068b5761068a610442565b5b610695825461049c565b6106a08282856105e0565b5f60209050601f8311600181146106d1575f84156106bf578287015190505b6106c9858261064e565b865550610730565b601f1984166106df866104cc565b5f5b82811015610706578489015182556001820191506020850194506020810190506106e1565b86831015610723578489015161071f601f891682610632565b8355505b6001600288020188555050505b50505050505056fea2646970667358221220569ed73624d03ecf35d12c78821f3d528e21dcb0e3fb11138e41ddb7728e3b3e64736f6c63430008180033",
					"opcodes": "PUSH1 0x80 PUSH1 0x40 MSTORE CALLVALUE DUP1 ISZERO PUSH2 0xF JUMPI PUSH0 DUP1 REVERT JUMPDEST POP PUSH2 0x76E DUP1 PUSH2 0x1D PUSH0 CODECOPY PUSH0 RETURN INVALID PUSH1 0x80 PUSH1 0x40 MSTORE CALLVALUE DUP1 ISZERO PUSH2 0xF JUMPI PUSH0 DUP1 REVERT JUMPDEST POP PUSH1 0x4 CALLDATASIZE LT PUSH2 0x34 JUMPI PUSH0 CALLDATALOAD PUSH1 0xE0 SHR DUP1 PUSH4 0x25F7B1DE EQ PUSH2 0x38 JUMPI DUP1 PUSH4 0x6CC014DE EQ PUSH2 0x56 JUMPI JUMPDEST PUSH0 DUP1 REVERT JUMPDEST PUSH2 0x40 PUSH2 0x76 JUMP JUMPDEST PUSH1 0x40 MLOAD PUSH2 0x4D SWAP2 SWAP1 PUSH2 0x380 JUMP JUMPDEST PUSH1 0x40 MLOAD DUP1 SWAP2 SUB SWAP1 RETURN JUMPDEST PUSH2 0x5E PUSH2 0x1AE JUMP JUMPDEST PUSH1 0x40 MLOAD PUSH2 0x6D SWAP4 SWAP3 SWAP2 SWAP1 PUSH2 0x406 JUMP JUMPDEST PUSH1 0x40 MLOAD DUP1 SWAP2 SUB SWAP1 RETURN JUMPDEST PUSH2 0x7E PUSH2 0x256 JUMP JUMPDEST PUSH1 0x40 MLOAD DUP1 PUSH1 0x40 ADD PUSH1 0x40 MSTORE DUP1 PUSH1 0x5 DUP2 MSTORE PUSH1 0x20 ADD PUSH32 0x6468727576000000000000000000000000000000000000000000000000000000 DUP2 MSTORE POP PUSH0 DUP1 ADD SWAP1 DUP2 PUSH2 0xC3 SWAP2 SWAP1 PUSH2 0x669 JUMP JUMPDEST POP PUSH1 0xC PUSH0 PUSH1 0x1 ADD DUP2 SWAP1 SSTORE POP PUSH1 0x1 PUSH0 PUSH1 0x2 ADD PUSH0 PUSH2 0x100 EXP DUP2 SLOAD DUP2 PUSH1 0xFF MUL NOT AND SWAP1 DUP4 ISZERO ISZERO MUL OR SWAP1 SSTORE POP PUSH0 PUSH1 0x40 MLOAD DUP1 PUSH1 0x60 ADD PUSH1 0x40 MSTORE SWAP1 DUP2 PUSH0 DUP3 ADD DUP1 SLOAD PUSH2 0x105 SWAP1 PUSH2 0x49C JUMP JUMPDEST DUP1 PUSH1 0x1F ADD PUSH1 0x20 DUP1 SWAP2 DIV MUL PUSH1 0x20 ADD PUSH1 0x40 MLOAD SWAP1 DUP2 ADD PUSH1 0x40 MSTORE DUP1 SWAP3 SWAP2 SWAP1 DUP2 DUP2 MSTORE PUSH1 0x20 ADD DUP3 DUP1 SLOAD PUSH2 0x131 SWAP1 PUSH2 0x49C JUMP JUMPDEST DUP1 ISZERO PUSH2 0x17C JUMPI DUP1 PUSH1 0x1F LT PUSH2 0x153 JUMPI PUSH2 0x100 DUP1 DUP4 SLOAD DIV MUL DUP4 MSTORE SWAP2 PUSH1 0x20 ADD SWAP2 PUSH2 0x17C JUMP JUMPDEST DUP3 ADD SWAP2 SWAP1 PUSH0 MSTORE PUSH1 0x20 PUSH0 KECCAK256 SWAP1 JUMPDEST DUP2 SLOAD DUP2 MSTORE SWAP1 PUSH1 0x1 ADD SWAP1 PUSH1 0x20 ADD DUP1 DUP4 GT PUSH2 0x15F JUMPI DUP3 SWAP1 SUB PUSH1 0x1F AND DUP3 ADD SWAP2 JUMPDEST POP POP POP POP POP DUP2 MSTORE PUSH1 0x20 ADD PUSH1 0x1 DUP3 ADD SLOAD DUP2 MSTORE PUSH1 0x20 ADD PUSH1 0x2 DUP3 ADD PUSH0 SWAP1 SLOAD SWAP1 PUSH2 0x100 EXP SWAP1 DIV PUSH1 0xFF AND ISZERO ISZERO ISZERO ISZERO DUP2 MSTORE POP POP SWAP1 POP SWAP1 JUMP JUMPDEST PUSH0 DUP1 PUSH0 ADD DUP1 SLOAD PUSH2 0x1BD SWAP1 PUSH2 0x49C JUMP JUMPDEST DUP1 PUSH1 0x1F ADD PUSH1 0x20 DUP1 SWAP2 DIV MUL PUSH1 0x20 ADD PUSH1 0x40 MLOAD SWAP1 DUP2 ADD PUSH1 0x40 MSTORE DUP1 SWAP3 SWAP2 SWAP1 DUP2 DUP2 MSTORE PUSH1 0x20 ADD DUP3 DUP1 SLOAD PUSH2 0x1E9 SWAP1 PUSH2 0x49C JUMP JUMPDEST DUP1 ISZERO PUSH2 0x234 JUMPI DUP1 PUSH1 0x1F LT PUSH2 0x20B JUMPI PUSH2 0x100 DUP1 DUP4 SLOAD DIV MUL DUP4 MSTORE SWAP2 PUSH1 0x20 ADD SWAP2 PUSH2 0x234 JUMP JUMPDEST DUP3 ADD SWAP2 SWAP1 PUSH0 MSTORE PUSH1 0x20 PUSH0 KECCAK256 SWAP1 JUMPDEST DUP2 SLOAD DUP2 MSTORE SWAP1 PUSH1 0x1 ADD SWAP1 PUSH1 0x20 ADD DUP1 DUP4 GT PUSH2 0x217 JUMPI DUP3 SWAP1 SUB PUSH1 0x1F AND DUP3 ADD SWAP2 JUMPDEST POP POP POP POP POP SWAP1 DUP1 PUSH1 0x1 ADD SLOAD SWAP1 DUP1 PUSH1 0x2 ADD PUSH0 SWAP1 SLOAD SWAP1 PUSH2 0x100 EXP SWAP1 DIV PUSH1 0xFF AND SWAP1 POP DUP4 JUMP JUMPDEST PUSH1 0x40 MLOAD DUP1 PUSH1 0x60 ADD PUSH1 0x40 MSTORE DUP1 PUSH1 0x60 DUP2 MSTORE PUSH1 0x20 ADD PUSH0 DUP2 MSTORE PUSH1 0x20 ADD PUSH0 ISZERO ISZERO DUP2 MSTORE POP SWAP1 JUMP JUMPDEST PUSH0 DUP2 MLOAD SWAP1 POP SWAP2 SWAP1 POP JUMP JUMPDEST PUSH0 DUP3 DUP3 MSTORE PUSH1 0x20 DUP3 ADD SWAP1 POP SWAP3 SWAP2 POP POP JUMP JUMPDEST PUSH0 JUMPDEST DUP4 DUP2 LT ISZERO PUSH2 0x2AE JUMPI DUP1 DUP3 ADD MLOAD DUP2 DUP5 ADD MSTORE PUSH1 0x20 DUP2 ADD SWAP1 POP PUSH2 0x293 JUMP JUMPDEST PUSH0 DUP5 DUP5 ADD MSTORE POP POP POP POP JUMP JUMPDEST PUSH0 PUSH1 0x1F NOT PUSH1 0x1F DUP4 ADD AND SWAP1 POP SWAP2 SWAP1 POP JUMP JUMPDEST PUSH0 PUSH2 0x2D3 DUP3 PUSH2 0x277 JUMP JUMPDEST PUSH2 0x2DD DUP2 DUP6 PUSH2 0x281 JUMP JUMPDEST SWAP4 POP PUSH2 0x2ED DUP2 DUP6 PUSH1 0x20 DUP7 ADD PUSH2 0x291 JUMP JUMPDEST PUSH2 0x2F6 DUP2 PUSH2 0x2B9 JUMP JUMPDEST DUP5 ADD SWAP2 POP POP SWAP3 SWAP2 POP POP JUMP JUMPDEST PUSH0 DUP2 SWAP1 POP SWAP2 SWAP1 POP JUMP JUMPDEST PUSH2 0x313 DUP2 PUSH2 0x301 JUMP JUMPDEST DUP3 MSTORE POP POP JUMP JUMPDEST PUSH0 DUP2 ISZERO ISZERO SWAP1 POP SWAP2 SWAP1 POP JUMP JUMPDEST PUSH2 0x32D DUP2 PUSH2 0x319 JUMP JUMPDEST DUP3 MSTORE POP POP JUMP JUMPDEST PUSH0 PUSH1 0x60 DUP4 ADD PUSH0 DUP4 ADD MLOAD DUP5 DUP3 SUB PUSH0 DUP7 ADD MSTORE PUSH2 0x34D DUP3 DUP3 PUSH2 0x2C9 JUMP JUMPDEST SWAP2 POP POP PUSH1 0x20 DUP4 ADD MLOAD PUSH2 0x362 PUSH1 0x20 DUP7 ADD DUP3 PUSH2 0x30A JUMP JUMPDEST POP PUSH1 0x40 DUP4 ADD MLOAD PUSH2 0x375 PUSH1 0x40 DUP7 ADD DUP3 PUSH2 0x324 JUMP JUMPDEST POP DUP1 SWAP2 POP POP SWAP3 SWAP2 POP POP JUMP JUMPDEST PUSH0 PUSH1 0x20 DUP3 ADD SWAP1 POP DUP2 DUP2 SUB PUSH0 DUP4 ADD MSTORE PUSH2 0x398 DUP2 DUP5 PUSH2 0x333 JUMP JUMPDEST SWAP1 POP SWAP3 SWAP2 POP POP JUMP JUMPDEST PUSH0 DUP3 DUP3 MSTORE PUSH1 0x20 DUP3 ADD SWAP1 POP SWAP3 SWAP2 POP POP JUMP JUMPDEST PUSH0 PUSH2 0x3BA DUP3 PUSH2 0x277 JUMP JUMPDEST PUSH2 0x3C4 DUP2 DUP6 PUSH2 0x3A0 JUMP JUMPDEST SWAP4 POP PUSH2 0x3D4 DUP2 DUP6 PUSH1 0x20 DUP7 ADD PUSH2 0x291 JUMP JUMPDEST PUSH2 0x3DD DUP2 PUSH2 0x2B9 JUMP JUMPDEST DUP5 ADD SWAP2 POP POP SWAP3 SWAP2 POP POP JUMP JUMPDEST PUSH2 0x3F1 DUP2 PUSH2 0x301 JUMP JUMPDEST DUP3 MSTORE POP POP JUMP JUMPDEST PUSH2 0x400 DUP2 PUSH2 0x319 JUMP JUMPDEST DUP3 MSTORE POP POP JUMP JUMPDEST PUSH0 PUSH1 0x60 DUP3 ADD SWAP1 POP DUP2 DUP2 SUB PUSH0 DUP4 ADD MSTORE PUSH2 0x41E DUP2 DUP7 PUSH2 0x3B0 JUMP JUMPDEST SWAP1 POP PUSH2 0x42D PUSH1 0x20 DUP4 ADD DUP6 PUSH2 0x3E8 JUMP JUMPDEST PUSH2 0x43A PUSH1 0x40 DUP4 ADD DUP5 PUSH2 0x3F7 JUMP JUMPDEST SWAP5 SWAP4 POP POP POP POP JUMP JUMPDEST PUSH32 0x4E487B7100000000000000000000000000000000000000000000000000000000 PUSH0 MSTORE PUSH1 0x41 PUSH1 0x4 MSTORE PUSH1 0x24 PUSH0 REVERT JUMPDEST PUSH32 0x4E487B7100000000000000000000000000000000000000000000000000000000 PUSH0 MSTORE PUSH1 0x22 PUSH1 0x4 MSTORE PUSH1 0x24 PUSH0 REVERT JUMPDEST PUSH0 PUSH1 0x2 DUP3 DIV SWAP1 POP PUSH1 0x1 DUP3 AND DUP1 PUSH2 0x4B3 JUMPI PUSH1 0x7F DUP3 AND SWAP2 POP JUMPDEST PUSH1 0x20 DUP3 LT DUP2 SUB PUSH2 0x4C6 JUMPI PUSH2 0x4C5 PUSH2 0x46F JUMP JUMPDEST JUMPDEST POP SWAP2 SWAP1 POP JUMP JUMPDEST PUSH0 DUP2 SWAP1 POP DUP2 PUSH0 MSTORE PUSH1 0x20 PUSH0 KECCAK256 SWAP1 POP SWAP2 SWAP1 POP JUMP JUMPDEST PUSH0 PUSH1 0x20 PUSH1 0x1F DUP4 ADD DIV SWAP1 POP SWAP2 SWAP1 POP JUMP JUMPDEST PUSH0 DUP3 DUP3 SHL SWAP1 POP SWAP3 SWAP2 POP POP JUMP JUMPDEST PUSH0 PUSH1 0x8 DUP4 MUL PUSH2 0x528 PUSH32 0xFFFFFFFFFFFFFFFFFFFFFFFFFFFFFFFFFFFFFFFFFFFFFFFFFFFFFFFFFFFFFFFF DUP3 PUSH2 0x4ED JUMP JUMPDEST PUSH2 0x532 DUP7 DUP4 PUSH2 0x4ED JUMP JUMPDEST SWAP6 POP DUP1 NOT DUP5 AND SWAP4 POP DUP1 DUP7 AND DUP5 OR SWAP3 POP POP POP SWAP4 SWAP3 POP POP POP JUMP JUMPDEST PUSH0 DUP2 SWAP1 POP SWAP2 SWAP1 POP JUMP JUMPDEST PUSH0 PUSH2 0x56D PUSH2 0x568 PUSH2 0x563 DUP5 PUSH2 0x301 JUMP JUMPDEST PUSH2 0x54A JUMP JUMPDEST PUSH2 0x301 JUMP JUMPDEST SWAP1 POP SWAP2 SWAP1 POP JUMP JUMPDEST PUSH0 DUP2 SWAP1 POP SWAP2 SWAP1 POP JUMP JUMPDEST PUSH2 0x586 DUP4 PUSH2 0x553 JUMP JUMPDEST PUSH2 0x59A PUSH2 0x592 DUP3 PUSH2 0x574 JUMP JUMPDEST DUP5 DUP5 SLOAD PUSH2 0x4F9 JUMP JUMPDEST DUP3 SSTORE POP POP POP POP JUMP JUMPDEST PUSH0 SWAP1 JUMP JUMPDEST PUSH2 0x5AE PUSH2 0x5A2 JUMP JUMPDEST PUSH2 0x5B9 DUP2 DUP5 DUP5 PUSH2 0x57D JUMP JUMPDEST POP POP POP JUMP JUMPDEST JUMPDEST DUP2 DUP2 LT ISZERO PUSH2 0x5DC JUMPI PUSH2 0x5D1 PUSH0 DUP3 PUSH2 0x5A6 JUMP JUMPDEST PUSH1 0x1 DUP2 ADD SWAP1 POP PUSH2 0x5BF JUMP JUMPDEST POP POP JUMP JUMPDEST PUSH1 0x1F DUP3 GT ISZERO PUSH2 0x621 JUMPI PUSH2 0x5F2 DUP2 PUSH2 0x4CC JUMP JUMPDEST PUSH2 0x5FB DUP5 PUSH2 0x4DE JUMP JUMPDEST DUP2 ADD PUSH1 0x20 DUP6 LT ISZERO PUSH2 0x60A JUMPI DUP2 SWAP1 POP JUMPDEST PUSH2 0x61E PUSH2 0x616 DUP6 PUSH2 0x4DE JUMP JUMPDEST DUP4 ADD DUP3 PUSH2 0x5BE JUMP JUMPDEST POP POP JUMPDEST POP POP POP JUMP JUMPDEST PUSH0 DUP3 DUP3 SHR SWAP1 POP SWAP3 SWAP2 POP POP JUMP JUMPDEST PUSH0 PUSH2 0x641 PUSH0 NOT DUP5 PUSH1 0x8 MUL PUSH2 0x626 JUMP JUMPDEST NOT DUP1 DUP4 AND SWAP2 POP POP SWAP3 SWAP2 POP POP JUMP JUMPDEST PUSH0 PUSH2 0x659 DUP4 DUP4 PUSH2 0x632 JUMP JUMPDEST SWAP2 POP DUP3 PUSH1 0x2 MUL DUP3 OR SWAP1 POP SWAP3 SWAP2 POP POP JUMP JUMPDEST PUSH2 0x672 DUP3 PUSH2 0x277 JUMP JUMPDEST PUSH8 0xFFFFFFFFFFFFFFFF DUP2 GT ISZERO PUSH2 0x68B JUMPI PUSH2 0x68A PUSH2 0x442 JUMP JUMPDEST JUMPDEST PUSH2 0x695 DUP3 SLOAD PUSH2 0x49C JUMP JUMPDEST PUSH2 0x6A0 DUP3 DUP3 DUP6 PUSH2 0x5E0 JUMP JUMPDEST PUSH0 PUSH1 0x20 SWAP1 POP PUSH1 0x1F DUP4 GT PUSH1 0x1 DUP2 EQ PUSH2 0x6D1 JUMPI PUSH0 DUP5 ISZERO PUSH2 0x6BF JUMPI DUP3 DUP8 ADD MLOAD SWAP1 POP JUMPDEST PUSH2 0x6C9 DUP6 DUP3 PUSH2 0x64E JUMP JUMPDEST DUP7 SSTORE POP PUSH2 0x730 JUMP JUMPDEST PUSH1 0x1F NOT DUP5 AND PUSH2 0x6DF DUP7 PUSH2 0x4CC JUMP JUMPDEST PUSH0 JUMPDEST DUP3 DUP2 LT ISZERO PUSH2 0x706 JUMPI DUP5 DUP10 ADD MLOAD DUP3 SSTORE PUSH1 0x1 DUP3 ADD SWAP2 POP PUSH1 0x20 DUP6 ADD SWAP5 POP PUSH1 0x20 DUP2 ADD SWAP1 POP PUSH2 0x6E1 JUMP JUMPDEST DUP7 DUP4 LT ISZERO PUSH2 0x723 JUMPI DUP5 DUP10 ADD MLOAD PUSH2 0x71F PUSH1 0x1F DUP10 AND DUP3 PUSH2 0x632 JUMP JUMPDEST DUP4 SSTORE POP JUMPDEST PUSH1 0x1 PUSH1 0x2 DUP9 MUL ADD DUP9 SSTORE POP POP POP JUMPDEST POP POP POP POP POP POP JUMP INVALID LOG2 PUSH5 0x6970667358 0x22 SLT KECCAK256 JUMP SWAP15 0xD7 CALLDATASIZE 0x24 0xD0 RETURNDATACOPY 0xCF CALLDATALOAD 0xD1 0x2C PUSH25 0x821F3D528E21DCB0E3FB11138E41DDB7728E3B3E64736F6C63 NUMBER STOP ADDMOD XOR STOP CALLER "
				},
				"gasEstimates": {
					"creation": {
						"codeDepositCost": "380400",
						"executionCost": "416",
						"totalCost": "380816"
					},
					"external": {
						"insert()": "infinite",
						"s1()": "infinite"
					}
				},
				"methodIdentifiers": {
					"insert()": "25f7b1de",
					"s1()": "6cc014de"
				}
			},
			"storageLayout": {
				"storage": [
					{
						"astId": 11,
						"contract": "contracts/10.17.simplestruct.sol:Classroom",
						"label": "s1",
						"offset": 0,
						"slot": "0",
						"type": "t_struct(Student)8_storage"
					}
				],
				"types": {
					"t_bool": {
						"encoding": "inplace",
						"label": "bool",
						"numberOfBytes": "1"
					},
					"t_string_storage": {
						"encoding": "bytes",
						"label": "string",
						"numberOfBytes": "32"
					},
					"t_struct(Student)8_storage": {
						"encoding": "inplace",
						"label": "struct Classroom.Student",
						"members": [
							{
								"astId": 3,
								"contract": "contracts/10.17.simplestruct.sol:Classroom",
								"label": "name",
								"offset": 0,
								"slot": "0",
								"type": "t_string_storage"
							},
							{
								"astId": 5,
								"contract": "contracts/10.17.simplestruct.sol:Classroom",
								"label": "roll",
								"offset": 0,
								"slot": "1",
								"type": "t_uint256"
							},
							{
								"astId": 7,
								"contract": "contracts/10.17.simplestruct.sol:Classroom",
								"label": "pass",
								"offset": 0,
								"slot": "2",
								"type": "t_bool"
							}
						],
						"numberOfBytes": "96"
					},
					"t_uint256": {
						"encoding": "inplace",
						"label": "uint256",
						"numberOfBytes": "32"
					}
				}
			},
			"userdoc": {
				"kind": "user",
				"methods": {},
				"version": 1
			}
		}
	}
}