{
	"contracts/10.6.bytesdatatype.sol": {
		"demo": {
			"abi": [
				{
					"inputs": [],
					"name": "arr1",
					"outputs": [
						{
							"internalType": "bytes3",
							"name": "",
							"type": "bytes3"
						}
					],
					"stateMutability": "view",
					"type": "function"
				},
				{
					"inputs": [],
					"name": "returnArray",
					"outputs": [
						{
							"internalType": "bytes1",
							"name": "",
							"type": "bytes1"
						}
					],
					"stateMutability": "view",
					"type": "function"
				},
				{
					"inputs": [],
					"name": "returnwholeArray",
					"outputs": [
						{
							"internalType": "bytes3",
							"name": "",
							"type": "bytes3"
						}
					],
					"stateMutability": "view",
					"type": "function"
				}
			],
			"devdoc": {
				"kind": "dev",
				"methods": {},
				"version": 1
			},
			"evm": {
				"assembly": "    /* \"contracts/10.6.bytesdatatype.sol\":70:390  contract demo {... */\n  mstore(0x40, 0x80)\n    /* \"contracts/10.6.bytesdatatype.sol\":90:116  bytes3 public arr1 = \"ab1\" */\n  0x6162310000000000000000000000000000000000000000000000000000000000\n  0x00\n  exp(0x0100, 0x00)\n  dup2\n  sload\n  dup2\n  0xffffff\n  mul\n  not\n  and\n  swap1\n  dup4\n  0xe8\n  shr\n  mul\n  or\n  swap1\n  sstore\n  pop\n    /* \"contracts/10.6.bytesdatatype.sol\":70:390  contract demo {... */\n  callvalue\n  dup1\n  iszero\n  tag_1\n  jumpi\n  revert(0x00, 0x00)\ntag_1:\n  pop\n  dataSize(sub_0)\n  dup1\n  dataOffset(sub_0)\n  0x00\n  codecopy\n  0x00\n  return\nstop\n\nsub_0: assembly {\n        /* \"contracts/10.6.bytesdatatype.sol\":70:390  contract demo {... */\n      mstore(0x40, 0x80)\n      callvalue\n      dup1\n      iszero\n      tag_1\n      jumpi\n      revert(0x00, 0x00)\n    tag_1:\n      pop\n      jumpi(tag_2, lt(calldatasize, 0x04))\n      shr(0xe0, calldataload(0x00))\n      dup1\n      0x2046ed76\n      eq\n      tag_3\n      jumpi\n      dup1\n      0x3cac14c8\n      eq\n      tag_4\n      jumpi\n      dup1\n      0xbc3dee8d\n      eq\n      tag_5\n      jumpi\n    tag_2:\n      revert(0x00, 0x00)\n        /* \"contracts/10.6.bytesdatatype.sol\":303:388  function returnwholeArray() public view returns (bytes3) {... */\n    tag_3:\n      tag_6\n      tag_7\n      jump\t// in\n    tag_6:\n      mload(0x40)\n      tag_8\n      swap2\n      swap1\n      tag_9\n      jump\t// in\n    tag_8:\n      mload(0x40)\n      dup1\n      swap2\n      sub\n      swap1\n      return\n        /* \"contracts/10.6.bytesdatatype.sol\":214:297  function returnArray() public view returns (bytes1) {... */\n    tag_4:\n      tag_10\n      tag_11\n      jump\t// in\n    tag_10:\n      mload(0x40)\n      tag_12\n      swap2\n      swap1\n      tag_13\n      jump\t// in\n    tag_12:\n      mload(0x40)\n      dup1\n      swap2\n      sub\n      swap1\n      return\n        /* \"contracts/10.6.bytesdatatype.sol\":90:116  bytes3 public arr1 = \"ab1\" */\n    tag_5:\n      tag_14\n      tag_15\n      jump\t// in\n    tag_14:\n      mload(0x40)\n      tag_16\n      swap2\n      swap1\n      tag_9\n      jump\t// in\n    tag_16:\n      mload(0x40)\n      dup1\n      swap2\n      sub\n      swap1\n      return\n        /* \"contracts/10.6.bytesdatatype.sol\":303:388  function returnwholeArray() public view returns (bytes3) {... */\n    tag_7:\n        /* \"contracts/10.6.bytesdatatype.sol\":352:358  bytes3 */\n      0x00\n        /* \"contracts/10.6.bytesdatatype.sol\":377:381  arr1 */\n      0x00\n      0x00\n      swap1\n      sload\n      swap1\n      0x0100\n      exp\n      swap1\n      div\n      0xe8\n      shl\n        /* \"contracts/10.6.bytesdatatype.sol\":370:381  return arr1 */\n      swap1\n      pop\n        /* \"contracts/10.6.bytesdatatype.sol\":303:388  function returnwholeArray() public view returns (bytes3) {... */\n      swap1\n      jump\t// out\n        /* \"contracts/10.6.bytesdatatype.sol\":214:297  function returnArray() public view returns (bytes1) {... */\n    tag_11:\n        /* \"contracts/10.6.bytesdatatype.sol\":258:264  bytes1 */\n      0x00\n        /* \"contracts/10.6.bytesdatatype.sol\":283:287  arr1 */\n      0x00\n      0x00\n      swap1\n      sload\n      swap1\n      0x0100\n      exp\n      swap1\n      div\n      0xe8\n      shl\n        /* \"contracts/10.6.bytesdatatype.sol\":288:289  0 */\n      0x00\n        /* \"contracts/10.6.bytesdatatype.sol\":283:290  arr1[0] */\n      0x03\n      dup2\n      lt\n      tag_19\n      jumpi\n      tag_20\n      tag_21\n      jump\t// in\n    tag_20:\n    tag_19:\n      byte\n      0xf8\n      shl\n        /* \"contracts/10.6.bytesdatatype.sol\":276:290  return arr1[0] */\n      swap1\n      pop\n        /* \"contracts/10.6.bytesdatatype.sol\":214:297  function returnArray() public view returns (bytes1) {... */\n      swap1\n      jump\t// out\n        /* \"contracts/10.6.bytesdatatype.sol\":90:116  bytes3 public arr1 = \"ab1\" */\n    tag_15:\n      0x00\n      0x00\n      swap1\n      sload\n      swap1\n      0x0100\n      exp\n      swap1\n      div\n      0xe8\n      shl\n      dup2\n      jump\t// out\n        /* \"#utility.yul\":7:156   */\n    tag_22:\n        /* \"#utility.yul\":43:50   */\n      0x00\n        /* \"#utility.yul\":83:149   */\n      0xffffff0000000000000000000000000000000000000000000000000000000000\n        /* \"#utility.yul\":76:81   */\n      dup3\n        /* \"#utility.yul\":72:150   */\n      and\n        /* \"#utility.yul\":61:150   */\n      swap1\n      pop\n        /* \"#utility.yul\":7:156   */\n      swap2\n      swap1\n      pop\n      jump\t// out\n        /* \"#utility.yul\":162:277   */\n    tag_23:\n        /* \"#utility.yul\":247:270   */\n      tag_29\n        /* \"#utility.yul\":264:269   */\n      dup2\n        /* \"#utility.yul\":247:270   */\n      tag_22\n      jump\t// in\n    tag_29:\n        /* \"#utility.yul\":242:245   */\n      dup3\n        /* \"#utility.yul\":235:271   */\n      mstore\n        /* \"#utility.yul\":162:277   */\n      pop\n      pop\n      jump\t// out\n        /* \"#utility.yul\":283:501   */\n    tag_9:\n        /* \"#utility.yul\":374:378   */\n      0x00\n        /* \"#utility.yul\":412:414   */\n      0x20\n        /* \"#utility.yul\":401:410   */\n      dup3\n        /* \"#utility.yul\":397:415   */\n      add\n        /* \"#utility.yul\":389:415   */\n      swap1\n      pop\n        /* \"#utility.yul\":425:494   */\n      tag_31\n        /* \"#utility.yul\":491:492   */\n      0x00\n        /* \"#utility.yul\":480:489   */\n      dup4\n        /* \"#utility.yul\":476:493   */\n      add\n        /* \"#utility.yul\":467:473   */\n      dup5\n        /* \"#utility.yul\":425:494   */\n      tag_23\n      jump\t// in\n    tag_31:\n        /* \"#utility.yul\":283:501   */\n      swap3\n      swap2\n      pop\n      pop\n      jump\t// out\n        /* \"#utility.yul\":507:656   */\n    tag_24:\n        /* \"#utility.yul\":543:550   */\n      0x00\n        /* \"#utility.yul\":583:649   */\n      0xff00000000000000000000000000000000000000000000000000000000000000\n        /* \"#utility.yul\":576:581   */\n      dup3\n        /* \"#utility.yul\":572:650   */\n      and\n        /* \"#utility.yul\":561:650   */\n      swap1\n      pop\n        /* \"#utility.yul\":507:656   */\n      swap2\n      swap1\n      pop\n      jump\t// out\n        /* \"#utility.yul\":662:777   */\n    tag_25:\n        /* \"#utility.yul\":747:770   */\n      tag_34\n        /* \"#utility.yul\":764:769   */\n      dup2\n        /* \"#utility.yul\":747:770   */\n      tag_24\n      jump\t// in\n    tag_34:\n        /* \"#utility.yul\":742:745   */\n      dup3\n        /* \"#utility.yul\":735:771   */\n      mstore\n        /* \"#utility.yul\":662:777   */\n      pop\n      pop\n      jump\t// out\n        /* \"#utility.yul\":783:1001   */\n    tag_13:\n        /* \"#utility.yul\":874:878   */\n      0x00\n        /* \"#utility.yul\":912:914   */\n      0x20\n        /* \"#utility.yul\":901:910   */\n      dup3\n        /* \"#utility.yul\":897:915   */\n      add\n        /* \"#utility.yul\":889:915   */\n      swap1\n      pop\n        /* \"#utility.yul\":925:994   */\n      tag_36\n        /* \"#utility.yul\":991:992   */\n      0x00\n        /* \"#utility.yul\":980:989   */\n      dup4\n        /* \"#utility.yul\":976:993   */\n      add\n        /* \"#utility.yul\":967:973   */\n      dup5\n        /* \"#utility.yul\":925:994   */\n      tag_25\n      jump\t// in\n    tag_36:\n        /* \"#utility.yul\":783:1001   */\n      swap3\n      swap2\n      pop\n      pop\n      jump\t// out\n        /* \"#utility.yul\":1007:1187   */\n    tag_21:\n        /* \"#utility.yul\":1055:1132   */\n      0x4e487b7100000000000000000000000000000000000000000000000000000000\n        /* \"#utility.yul\":1052:1053   */\n      0x00\n        /* \"#utility.yul\":1045:1133   */\n      mstore\n        /* \"#utility.yul\":1152:1156   */\n      0x32\n        /* \"#utility.yul\":1149:1150   */\n      0x04\n        /* \"#utility.yul\":1142:1157   */\n      mstore\n        /* \"#utility.yul\":1176:1180   */\n      0x24\n        /* \"#utility.yul\":1173:1174   */\n      0x00\n        /* \"#utility.yul\":1166:1181   */\n      revert\n\n    auxdata: 0xa26469706673582212200f51a49777127d39d4a6eedb0ad823159c852c43c9055329866cde4bec1f581364736f6c634300081e0033\n}\n",
				"bytecode": {
					"linkReferences": {},
					"object": "60806040527f61623100000000000000000000000000000000000000000000000000000000005f5f6101000a81548162ffffff021916908360e81c02179055503480156049575f5ffd5b506101f5806100575f395ff3fe608060405234801561000f575f5ffd5b506004361061003f575f3560e01c80632046ed76146100435780633cac14c814610061578063bc3dee8d1461007f575b5f5ffd5b61004b61009d565b6040516100589190610126565b60405180910390f35b6100696100b1565b6040516100769190610179565b60405180910390f35b6100876100db565b6040516100949190610126565b60405180910390f35b5f5f5f9054906101000a900460e81b905090565b5f5f5f9054906101000a900460e81b5f600381106100d2576100d1610192565b5b1a60f81b905090565b5f5f9054906101000a900460e81b81565b5f7fffffff000000000000000000000000000000000000000000000000000000000082169050919050565b610120816100ec565b82525050565b5f6020820190506101395f830184610117565b92915050565b5f7fff0000000000000000000000000000000000000000000000000000000000000082169050919050565b6101738161013f565b82525050565b5f60208201905061018c5f83018461016a565b92915050565b7f4e487b71000000000000000000000000000000000000000000000000000000005f52603260045260245ffdfea26469706673582212200f51a49777127d39d4a6eedb0ad823159c852c43c9055329866cde4bec1f581364736f6c634300081e0033",
					"opcodes": "PUSH1 0x80 PUSH1 0x40 MSTORE PUSH32 0x6162310000000000000000000000000000000000000000000000000000000000 PUSH0 PUSH0 PUSH2 0x100 EXP DUP2 SLOAD DUP2 PUSH3 0xFFFFFF MUL NOT AND SWAP1 DUP4 PUSH1 0xE8 SHR MUL OR SWAP1 SSTORE POP CALLVALUE DUP1 ISZERO PUSH1 0x49 JUMPI PUSH0 PUSH0 REVERT JUMPDEST POP PUSH2 0x1F5 DUP1 PUSH2 0x57 PUSH0 CODECOPY PUSH0 RETURN INVALID PUSH1 0x80 PUSH1 0x40 MSTORE CALLVALUE DUP1 ISZERO PUSH2 0xF JUMPI PUSH0 PUSH0 REVERT JUMPDEST POP PUSH1 0x4 CALLDATASIZE LT PUSH2 0x3F JUMPI PUSH0 CALLDATALOAD PUSH1 0xE0 SHR DUP1 PUSH4 0x2046ED76 EQ PUSH2 0x43 JUMPI DUP1 PUSH4 0x3CAC14C8 EQ PUSH2 0x61 JUMPI DUP1 PUSH4 0xBC3DEE8D EQ PUSH2 0x7F JUMPI JUMPDEST PUSH0 PUSH0 REVERT JUMPDEST PUSH2 0x4B PUSH2 0x9D JUMP JUMPDEST PUSH1 0x40 MLOAD PUSH2 0x58 SWAP2 SWAP1 PUSH2 0x126 JUMP JUMPDEST PUSH1 0x40 MLOAD DUP1 SWAP2 SUB SWAP1 RETURN JUMPDEST PUSH2 0x69 PUSH2 0xB1 JUMP JUMPDEST PUSH1 0x40 MLOAD PUSH2 0x76 SWAP2 SWAP1 PUSH2 0x179 JUMP JUMPDEST PUSH1 0x40 MLOAD DUP1 SWAP2 SUB SWAP1 RETURN JUMPDEST PUSH2 0x87 PUSH2 0xDB JUMP JUMPDEST PUSH1 0x40 MLOAD PUSH2 0x94 SWAP2 SWAP1 PUSH2 0x126 JUMP JUMPDEST PUSH1 0x40 MLOAD DUP1 SWAP2 SUB SWAP1 RETURN JUMPDEST PUSH0 PUSH0 PUSH0 SWAP1 SLOAD SWAP1 PUSH2 0x100 EXP SWAP1 DIV PUSH1 0xE8 SHL SWAP1 POP SWAP1 JUMP JUMPDEST PUSH0 PUSH0 PUSH0 SWAP1 SLOAD SWAP1 PUSH2 0x100 EXP SWAP1 DIV PUSH1 0xE8 SHL PUSH0 PUSH1 0x3 DUP2 LT PUSH2 0xD2 JUMPI PUSH2 0xD1 PUSH2 0x192 JUMP JUMPDEST JUMPDEST BYTE PUSH1 0xF8 SHL SWAP1 POP SWAP1 JUMP JUMPDEST PUSH0 PUSH0 SWAP1 SLOAD SWAP1 PUSH2 0x100 EXP SWAP1 DIV PUSH1 0xE8 SHL DUP2 JUMP JUMPDEST PUSH0 PUSH32 0xFFFFFF0000000000000000000000000000000000000000000000000000000000 DUP3 AND SWAP1 POP SWAP2 SWAP1 POP JUMP JUMPDEST PUSH2 0x120 DUP2 PUSH2 0xEC JUMP JUMPDEST DUP3 MSTORE POP POP JUMP JUMPDEST PUSH0 PUSH1 0x20 DUP3 ADD SWAP1 POP PUSH2 0x139 PUSH0 DUP4 ADD DUP5 PUSH2 0x117 JUMP JUMPDEST SWAP3 SWAP2 POP POP JUMP JUMPDEST PUSH0 PUSH32 0xFF00000000000000000000000000000000000000000000000000000000000000 DUP3 AND SWAP1 POP SWAP2 SWAP1 POP JUMP JUMPDEST PUSH2 0x173 DUP2 PUSH2 0x13F JUMP JUMPDEST DUP3 MSTORE POP POP JUMP JUMPDEST PUSH0 PUSH1 0x20 DUP3 ADD SWAP1 POP PUSH2 0x18C PUSH0 DUP4 ADD DUP5 PUSH2 0x16A JUMP JUMPDEST SWAP3 SWAP2 POP POP JUMP JUMPDEST PUSH32 0x4E487B7100000000000000000000000000000000000000000000000000000000 PUSH0 MSTORE PUSH1 0x32 PUSH1 0x4 MSTORE PUSH1 0x24 PUSH0 REVERT INVALID LOG2 PUSH5 0x6970667358 0x22 SLT KECCAK256 0xF MLOAD LOG4 SWAP8 PUSH24 0x127D39D4A6EEDB0AD823159C852C43C9055329866CDE4BEC 0x1F PC SGT PUSH5 0x736F6C6343 STOP ADDMOD 0x1E STOP CALLER "
				},
				"gasEstimates": {
					"creation": {
						"codeDepositCost": "100200",
						"executionCost": "24410",
						"totalCost": "124610"
					},
					"external": {
						"arr1()": "2487",
						"returnArray()": "2506",
						"returnwholeArray()": "2450"
					}
				},
				"methodIdentifiers": {
					"arr1()": "bc3dee8d",
					"returnArray()": "3cac14c8",
					"returnwholeArray()": "2046ed76"
				}
			},
			"storageLayout": {
				"storage": [
					{
						"astId": 4,
						"contract": "contracts/10.6.bytesdatatype.sol:demo",
						"label": "arr1",
						"offset": 0,
						"slot": "0",
						"type": "t_bytes3"
					}
				],
				"types": {
					"t_bytes3": {
						"encoding": "inplace",
						"label": "bytes3",
						"numberOfBytes": "3"
					}
				}
			},
			"userdoc": {
				"kind": "user",
				"methods": {},
				"version": 1
			}
		}
	}
}