{
	"contracts/evm/5.1.variablepacking.sol": {
		"Demo": {
			"abi": [
				{
					"inputs": [],
					"name": "a",
					"outputs": [
						{
							"internalType": "uint8",
							"name": "",
							"type": "uint8"
						}
					],
					"stateMutability": "view",
					"type": "function"
				},
				{
					"inputs": [],
					"name": "b",
					"outputs": [
						{
							"internalType": "uint8",
							"name": "",
							"type": "uint8"
						}
					],
					"stateMutability": "view",
					"type": "function"
				},
				{
					"inputs": [],
					"name": "c",
					"outputs": [
						{
							"internalType": "bool",
							"name": "",
							"type": "bool"
						}
					],
					"stateMutability": "view",
					"type": "function"
				},
				{
					"inputs": [
						{
							"internalType": "uint256",
							"name": "slot",
							"type": "uint256"
						}
					],
					"name": "getSlotValue",
					"outputs": [
						{
							"internalType": "bytes32",
							"name": "",
							"type": "bytes32"
						}
					],
					"stateMutability": "view",
					"type": "function"
				}
			],
			"devdoc": {
				"kind": "dev",
				"methods": {},
				"version": 1
			},
			"evm": {
				"assembly": "    /* \"contracts/evm/5.1.variablepacking.sol\":60:433  contract Demo {... */\n  mstore(0x40, 0x80)\n    /* \"contracts/evm/5.1.variablepacking.sol\":98:100  10 */\n  0x0a\n    /* \"contracts/evm/5.1.variablepacking.sol\":81:100  uint8 public a = 10 */\n  0x00\n  exp(0x0100, 0x00)\n  dup2\n  sload\n  dup2\n  0xff\n  mul\n  not\n  and\n  swap1\n  dup4\n  0xff\n  and\n  mul\n  or\n  swap1\n  sstore\n  pop\n    /* \"contracts/evm/5.1.variablepacking.sol\":133:137  0xff */\n  0xff\n    /* \"contracts/evm/5.1.variablepacking.sol\":116:137  uint8 public b = 0xff */\n  0x00\n  exp(0x0100, 0x01)\n  dup2\n  sload\n  dup2\n  0xff\n  mul\n  not\n  and\n  swap1\n  dup4\n  0xff\n  and\n  mul\n  or\n  swap1\n  sstore\n  pop\n    /* \"contracts/evm/5.1.variablepacking.sol\":169:173  true */\n  0x01\n    /* \"contracts/evm/5.1.variablepacking.sol\":153:173  bool public c = true */\n  0x00\n  exp(0x0100, 0x02)\n  dup2\n  sload\n  dup2\n  0xff\n  mul\n  not\n  and\n  swap1\n  dup4\n  iszero\n  iszero\n  mul\n  or\n  swap1\n  sstore\n  pop\n    /* \"contracts/evm/5.1.variablepacking.sol\":60:433  contract Demo {... */\n  callvalue\n  dup1\n  iszero\n  tag_1\n  jumpi\n  revert(0x00, 0x00)\ntag_1:\n  pop\n  dataSize(sub_0)\n  dup1\n  dataOffset(sub_0)\n  0x00\n  codecopy\n  0x00\n  return\nstop\n\nsub_0: assembly {\n        /* \"contracts/evm/5.1.variablepacking.sol\":60:433  contract Demo {... */\n      mstore(0x40, 0x80)\n      callvalue\n      dup1\n      iszero\n      tag_1\n      jumpi\n      revert(0x00, 0x00)\n    tag_1:\n      pop\n      jumpi(tag_2, lt(calldatasize, 0x04))\n      shr(0xe0, calldataload(0x00))\n      dup1\n      0x0dbe671f\n      eq\n      tag_3\n      jumpi\n      dup1\n      0x4df7e3d0\n      eq\n      tag_4\n      jumpi\n      dup1\n      0xc3da42b8\n      eq\n      tag_5\n      jumpi\n      dup1\n      0xe5745463\n      eq\n      tag_6\n      jumpi\n    tag_2:\n      revert(0x00, 0x00)\n        /* \"contracts/evm/5.1.variablepacking.sol\":81:100  uint8 public a = 10 */\n    tag_3:\n      tag_7\n      tag_8\n      jump\t// in\n    tag_7:\n      mload(0x40)\n      tag_9\n      swap2\n      swap1\n      tag_10\n      jump\t// in\n    tag_9:\n      mload(0x40)\n      dup1\n      swap2\n      sub\n      swap1\n      return\n        /* \"contracts/evm/5.1.variablepacking.sol\":116:137  uint8 public b = 0xff */\n    tag_4:\n      tag_11\n      tag_12\n      jump\t// in\n    tag_11:\n      mload(0x40)\n      tag_13\n      swap2\n      swap1\n      tag_10\n      jump\t// in\n    tag_13:\n      mload(0x40)\n      dup1\n      swap2\n      sub\n      swap1\n      return\n        /* \"contracts/evm/5.1.variablepacking.sol\":153:173  bool public c = true */\n    tag_5:\n      tag_14\n      tag_15\n      jump\t// in\n    tag_14:\n      mload(0x40)\n      tag_16\n      swap2\n      swap1\n      tag_17\n      jump\t// in\n    tag_16:\n      mload(0x40)\n      dup1\n      swap2\n      sub\n      swap1\n      return\n        /* \"contracts/evm/5.1.variablepacking.sol\":247:430  function getSlotValue(uint slot) public view returns (bytes32) {... */\n    tag_6:\n      tag_18\n      0x04\n      dup1\n      calldatasize\n      sub\n      dup2\n      add\n      swap1\n      tag_19\n      swap2\n      swap1\n      tag_20\n      jump\t// in\n    tag_19:\n      tag_21\n      jump\t// in\n    tag_18:\n      mload(0x40)\n      tag_22\n      swap2\n      swap1\n      tag_23\n      jump\t// in\n    tag_22:\n      mload(0x40)\n      dup1\n      swap2\n      sub\n      swap1\n      return\n        /* \"contracts/evm/5.1.variablepacking.sol\":81:100  uint8 public a = 10 */\n    tag_8:\n      0x00\n      0x00\n      swap1\n      sload\n      swap1\n      0x0100\n      exp\n      swap1\n      div\n      0xff\n      and\n      dup2\n      jump\t// out\n        /* \"contracts/evm/5.1.variablepacking.sol\":116:137  uint8 public b = 0xff */\n    tag_12:\n      0x00\n      0x01\n      swap1\n      sload\n      swap1\n      0x0100\n      exp\n      swap1\n      div\n      0xff\n      and\n      dup2\n      jump\t// out\n        /* \"contracts/evm/5.1.variablepacking.sol\":153:173  bool public c = true */\n    tag_15:\n      0x00\n      0x02\n      swap1\n      sload\n      swap1\n      0x0100\n      exp\n      swap1\n      div\n      0xff\n      and\n      dup2\n      jump\t// out\n        /* \"contracts/evm/5.1.variablepacking.sol\":247:430  function getSlotValue(uint slot) public view returns (bytes32) {... */\n    tag_21:\n        /* \"contracts/evm/5.1.variablepacking.sol\":301:308  bytes32 */\n      0x00\n        /* \"contracts/evm/5.1.variablepacking.sol\":321:334  bytes32 value */\n      0x00\n        /* \"contracts/evm/5.1.variablepacking.sol\":384:388  slot */\n      dup3\n        /* \"contracts/evm/5.1.variablepacking.sol\":378:389  sload(slot) */\n      sload\n        /* \"contracts/evm/5.1.variablepacking.sol\":369:389  value := sload(slot) */\n      swap1\n      pop\n        /* \"contracts/evm/5.1.variablepacking.sol\":417:422  value */\n      dup1\n        /* \"contracts/evm/5.1.variablepacking.sol\":410:422  return value */\n      swap2\n      pop\n      pop\n        /* \"contracts/evm/5.1.variablepacking.sol\":247:430  function getSlotValue(uint slot) public view returns (bytes32) {... */\n      swap2\n      swap1\n      pop\n      jump\t// out\n        /* \"#utility.yul\":7:93   */\n    tag_25:\n        /* \"#utility.yul\":42:49   */\n      0x00\n        /* \"#utility.yul\":82:86   */\n      0xff\n        /* \"#utility.yul\":75:80   */\n      dup3\n        /* \"#utility.yul\":71:87   */\n      and\n        /* \"#utility.yul\":60:87   */\n      swap1\n      pop\n        /* \"#utility.yul\":7:93   */\n      swap2\n      swap1\n      pop\n      jump\t// out\n        /* \"#utility.yul\":99:211   */\n    tag_26:\n        /* \"#utility.yul\":182:204   */\n      tag_40\n        /* \"#utility.yul\":198:203   */\n      dup2\n        /* \"#utility.yul\":182:204   */\n      tag_25\n      jump\t// in\n    tag_40:\n        /* \"#utility.yul\":177:180   */\n      dup3\n        /* \"#utility.yul\":170:205   */\n      mstore\n        /* \"#utility.yul\":99:211   */\n      pop\n      pop\n      jump\t// out\n        /* \"#utility.yul\":217:431   */\n    tag_10:\n        /* \"#utility.yul\":306:310   */\n      0x00\n        /* \"#utility.yul\":344:346   */\n      0x20\n        /* \"#utility.yul\":333:342   */\n      dup3\n        /* \"#utility.yul\":329:347   */\n      add\n        /* \"#utility.yul\":321:347   */\n      swap1\n      pop\n        /* \"#utility.yul\":357:424   */\n      tag_42\n        /* \"#utility.yul\":421:422   */\n      0x00\n        /* \"#utility.yul\":410:419   */\n      dup4\n        /* \"#utility.yul\":406:423   */\n      add\n        /* \"#utility.yul\":397:403   */\n      dup5\n        /* \"#utility.yul\":357:424   */\n      tag_26\n      jump\t// in\n    tag_42:\n        /* \"#utility.yul\":217:431   */\n      swap3\n      swap2\n      pop\n      pop\n      jump\t// out\n        /* \"#utility.yul\":437:527   */\n    tag_27:\n        /* \"#utility.yul\":471:478   */\n      0x00\n        /* \"#utility.yul\":514:519   */\n      dup2\n        /* \"#utility.yul\":507:520   */\n      iszero\n        /* \"#utility.yul\":500:521   */\n      iszero\n        /* \"#utility.yul\":489:521   */\n      swap1\n      pop\n        /* \"#utility.yul\":437:527   */\n      swap2\n      swap1\n      pop\n      jump\t// out\n        /* \"#utility.yul\":533:642   */\n    tag_28:\n        /* \"#utility.yul\":614:635   */\n      tag_45\n        /* \"#utility.yul\":629:634   */\n      dup2\n        /* \"#utility.yul\":614:635   */\n      tag_27\n      jump\t// in\n    tag_45:\n        /* \"#utility.yul\":609:612   */\n      dup3\n        /* \"#utility.yul\":602:636   */\n      mstore\n        /* \"#utility.yul\":533:642   */\n      pop\n      pop\n      jump\t// out\n        /* \"#utility.yul\":648:858   */\n    tag_17:\n        /* \"#utility.yul\":735:739   */\n      0x00\n        /* \"#utility.yul\":773:775   */\n      0x20\n        /* \"#utility.yul\":762:771   */\n      dup3\n        /* \"#utility.yul\":758:776   */\n      add\n        /* \"#utility.yul\":750:776   */\n      swap1\n      pop\n        /* \"#utility.yul\":786:851   */\n      tag_47\n        /* \"#utility.yul\":848:849   */\n      0x00\n        /* \"#utility.yul\":837:846   */\n      dup4\n        /* \"#utility.yul\":833:850   */\n      add\n        /* \"#utility.yul\":824:830   */\n      dup5\n        /* \"#utility.yul\":786:851   */\n      tag_28\n      jump\t// in\n    tag_47:\n        /* \"#utility.yul\":648:858   */\n      swap3\n      swap2\n      pop\n      pop\n      jump\t// out\n        /* \"#utility.yul\":945:1062   */\n    tag_30:\n        /* \"#utility.yul\":1054:1055   */\n      0x00\n        /* \"#utility.yul\":1051:1052   */\n      0x00\n        /* \"#utility.yul\":1044:1056   */\n      revert\n        /* \"#utility.yul\":1191:1268   */\n    tag_32:\n        /* \"#utility.yul\":1228:1235   */\n      0x00\n        /* \"#utility.yul\":1257:1262   */\n      dup2\n        /* \"#utility.yul\":1246:1262   */\n      swap1\n      pop\n        /* \"#utility.yul\":1191:1268   */\n      swap2\n      swap1\n      pop\n      jump\t// out\n        /* \"#utility.yul\":1274:1396   */\n    tag_33:\n        /* \"#utility.yul\":1347:1371   */\n      tag_53\n        /* \"#utility.yul\":1365:1370   */\n      dup2\n        /* \"#utility.yul\":1347:1371   */\n      tag_32\n      jump\t// in\n    tag_53:\n        /* \"#utility.yul\":1340:1345   */\n      dup2\n        /* \"#utility.yul\":1337:1372   */\n      eq\n        /* \"#utility.yul\":1327:1390   */\n      tag_54\n      jumpi\n        /* \"#utility.yul\":1386:1387   */\n      0x00\n        /* \"#utility.yul\":1383:1384   */\n      0x00\n        /* \"#utility.yul\":1376:1388   */\n      revert\n        /* \"#utility.yul\":1327:1390   */\n    tag_54:\n        /* \"#utility.yul\":1274:1396   */\n      pop\n      jump\t// out\n        /* \"#utility.yul\":1402:1541   */\n    tag_34:\n        /* \"#utility.yul\":1448:1453   */\n      0x00\n        /* \"#utility.yul\":1486:1492   */\n      dup2\n        /* \"#utility.yul\":1473:1493   */\n      calldataload\n        /* \"#utility.yul\":1464:1493   */\n      swap1\n      pop\n        /* \"#utility.yul\":1502:1535   */\n      tag_56\n        /* \"#utility.yul\":1529:1534   */\n      dup2\n        /* \"#utility.yul\":1502:1535   */\n      tag_33\n      jump\t// in\n    tag_56:\n        /* \"#utility.yul\":1402:1541   */\n      swap3\n      swap2\n      pop\n      pop\n      jump\t// out\n        /* \"#utility.yul\":1547:1876   */\n    tag_20:\n        /* \"#utility.yul\":1606:1612   */\n      0x00\n        /* \"#utility.yul\":1655:1657   */\n      0x20\n        /* \"#utility.yul\":1643:1652   */\n      dup3\n        /* \"#utility.yul\":1634:1641   */\n      dup5\n        /* \"#utility.yul\":1630:1653   */\n      sub\n        /* \"#utility.yul\":1626:1658   */\n      slt\n        /* \"#utility.yul\":1623:1742   */\n      iszero\n      tag_58\n      jumpi\n        /* \"#utility.yul\":1661:1740   */\n      tag_59\n      tag_30\n      jump\t// in\n    tag_59:\n        /* \"#utility.yul\":1623:1742   */\n    tag_58:\n        /* \"#utility.yul\":1781:1782   */\n      0x00\n        /* \"#utility.yul\":1806:1859   */\n      tag_60\n        /* \"#utility.yul\":1851:1858   */\n      dup5\n        /* \"#utility.yul\":1842:1848   */\n      dup3\n        /* \"#utility.yul\":1831:1840   */\n      dup6\n        /* \"#utility.yul\":1827:1849   */\n      add\n        /* \"#utility.yul\":1806:1859   */\n      tag_34\n      jump\t// in\n    tag_60:\n        /* \"#utility.yul\":1796:1859   */\n      swap2\n      pop\n        /* \"#utility.yul\":1752:1869   */\n      pop\n        /* \"#utility.yul\":1547:1876   */\n      swap3\n      swap2\n      pop\n      pop\n      jump\t// out\n        /* \"#utility.yul\":1882:1959   */\n    tag_35:\n        /* \"#utility.yul\":1919:1926   */\n      0x00\n        /* \"#utility.yul\":1948:1953   */\n      dup2\n        /* \"#utility.yul\":1937:1953   */\n      swap1\n      pop\n        /* \"#utility.yul\":1882:1959   */\n      swap2\n      swap1\n      pop\n      jump\t// out\n        /* \"#utility.yul\":1965:2083   */\n    tag_36:\n        /* \"#utility.yul\":2052:2076   */\n      tag_63\n        /* \"#utility.yul\":2070:2075   */\n      dup2\n        /* \"#utility.yul\":2052:2076   */\n      tag_35\n      jump\t// in\n    tag_63:\n        /* \"#utility.yul\":2047:2050   */\n      dup3\n        /* \"#utility.yul\":2040:2077   */\n      mstore\n        /* \"#utility.yul\":1965:2083   */\n      pop\n      pop\n      jump\t// out\n        /* \"#utility.yul\":2089:2311   */\n    tag_23:\n        /* \"#utility.yul\":2182:2186   */\n      0x00\n        /* \"#utility.yul\":2220:2222   */\n      0x20\n        /* \"#utility.yul\":2209:2218   */\n      dup3\n        /* \"#utility.yul\":2205:2223   */\n      add\n        /* \"#utility.yul\":2197:2223   */\n      swap1\n      pop\n        /* \"#utility.yul\":2233:2304   */\n      tag_65\n        /* \"#utility.yul\":2301:2302   */\n      0x00\n        /* \"#utility.yul\":2290:2299   */\n      dup4\n        /* \"#utility.yul\":2286:2303   */\n      add\n        /* \"#utility.yul\":2277:2283   */\n      dup5\n        /* \"#utility.yul\":2233:2304   */\n      tag_36\n      jump\t// in\n    tag_65:\n        /* \"#utility.yul\":2089:2311   */\n      swap3\n      swap2\n      pop\n      pop\n      jump\t// out\n\n    auxdata: 0xa264697066735822122012261d5acf58fddaa2da4b81fb626441794d0a58898ad53126d383439ad5638c64736f6c634300081e0033\n}\n",
				"bytecode": {
					"linkReferences": {},
					"object": "6080604052600a5f5f6101000a81548160ff021916908360ff16021790555060ff5f60016101000a81548160ff021916908360ff16021790555060015f60026101000a81548160ff021916908315150217905550348015605d575f5ffd5b5061024c8061006b5f395ff3fe608060405234801561000f575f5ffd5b506004361061004a575f3560e01c80630dbe671f1461004e5780634df7e3d01461006c578063c3da42b81461008a578063e5745463146100a8575b5f5ffd5b6100566100d8565b6040516100639190610137565b60405180910390f35b6100746100e9565b6040516100819190610137565b60405180910390f35b6100926100fb565b60405161009f919061016a565b60405180910390f35b6100c260048036038101906100bd91906101ba565b61010d565b6040516100cf91906101fd565b60405180910390f35b5f5f9054906101000a900460ff1681565b5f60019054906101000a900460ff1681565b5f60029054906101000a900460ff1681565b5f5f8254905080915050919050565b5f60ff82169050919050565b6101318161011c565b82525050565b5f60208201905061014a5f830184610128565b92915050565b5f8115159050919050565b61016481610150565b82525050565b5f60208201905061017d5f83018461015b565b92915050565b5f5ffd5b5f819050919050565b61019981610187565b81146101a3575f5ffd5b50565b5f813590506101b481610190565b92915050565b5f602082840312156101cf576101ce610183565b5b5f6101dc848285016101a6565b91505092915050565b5f819050919050565b6101f7816101e5565b82525050565b5f6020820190506102105f8301846101ee565b9291505056fea264697066735822122012261d5acf58fddaa2da4b81fb626441794d0a58898ad53126d383439ad5638c64736f6c634300081e0033",
					"opcodes": "PUSH1 0x80 PUSH1 0x40 MSTORE PUSH1 0xA PUSH0 PUSH0 PUSH2 0x100 EXP DUP2 SLOAD DUP2 PUSH1 0xFF MUL NOT AND SWAP1 DUP4 PUSH1 0xFF AND MUL OR SWAP1 SSTORE POP PUSH1 0xFF PUSH0 PUSH1 0x1 PUSH2 0x100 EXP DUP2 SLOAD DUP2 PUSH1 0xFF MUL NOT AND SWAP1 DUP4 PUSH1 0xFF AND MUL OR SWAP1 SSTORE POP PUSH1 0x1 PUSH0 PUSH1 0x2 PUSH2 0x100 EXP DUP2 SLOAD DUP2 PUSH1 0xFF MUL NOT AND SWAP1 DUP4 ISZERO ISZERO MUL OR SWAP1 SSTORE POP CALLVALUE DUP1 ISZERO PUSH1 0x5D JUMPI PUSH0 PUSH0 REVERT JUMPDEST POP PUSH2 0x24C DUP1 PUSH2 0x6B PUSH0 CODECOPY PUSH0 RETURN INVALID PUSH1 0x80 PUSH1 0x40 MSTORE CALLVALUE DUP1 ISZERO PUSH2 0xF JUMPI PUSH0 PUSH0 REVERT JUMPDEST POP PUSH1 0x4 CALLDATASIZE LT PUSH2 0x4A JUMPI PUSH0 CALLDATALOAD PUSH1 0xE0 SHR DUP1 PUSH4 0xDBE671F EQ PUSH2 0x4E JUMPI DUP1 PUSH4 0x4DF7E3D0 EQ PUSH2 0x6C JUMPI DUP1 PUSH4 0xC3DA42B8 EQ PUSH2 0x8A JUMPI DUP1 PUSH4 0xE5745463 EQ PUSH2 0xA8 JUMPI JUMPDEST PUSH0 PUSH0 REVERT JUMPDEST PUSH2 0x56 PUSH2 0xD8 JUMP JUMPDEST PUSH1 0x40 MLOAD PUSH2 0x63 SWAP2 SWAP1 PUSH2 0x137 JUMP JUMPDEST PUSH1 0x40 MLOAD DUP1 SWAP2 SUB SWAP1 RETURN JUMPDEST PUSH2 0x74 PUSH2 0xE9 JUMP JUMPDEST PUSH1 0x40 MLOAD PUSH2 0x81 SWAP2 SWAP1 PUSH2 0x137 JUMP JUMPDEST PUSH1 0x40 MLOAD DUP1 SWAP2 SUB SWAP1 RETURN JUMPDEST PUSH2 0x92 PUSH2 0xFB JUMP JUMPDEST PUSH1 0x40 MLOAD PUSH2 0x9F SWAP2 SWAP1 PUSH2 0x16A JUMP JUMPDEST PUSH1 0x40 MLOAD DUP1 SWAP2 SUB SWAP1 RETURN JUMPDEST PUSH2 0xC2 PUSH1 0x4 DUP1 CALLDATASIZE SUB DUP2 ADD SWAP1 PUSH2 0xBD SWAP2 SWAP1 PUSH2 0x1BA JUMP JUMPDEST PUSH2 0x10D JUMP JUMPDEST PUSH1 0x40 MLOAD PUSH2 0xCF SWAP2 SWAP1 PUSH2 0x1FD JUMP JUMPDEST PUSH1 0x40 MLOAD DUP1 SWAP2 SUB SWAP1 RETURN JUMPDEST PUSH0 PUSH0 SWAP1 SLOAD SWAP1 PUSH2 0x100 EXP SWAP1 DIV PUSH1 0xFF AND DUP2 JUMP JUMPDEST PUSH0 PUSH1 0x1 SWAP1 SLOAD SWAP1 PUSH2 0x100 EXP SWAP1 DIV PUSH1 0xFF AND DUP2 JUMP JUMPDEST PUSH0 PUSH1 0x2 SWAP1 SLOAD SWAP1 PUSH2 0x100 EXP SWAP1 DIV PUSH1 0xFF AND DUP2 JUMP JUMPDEST PUSH0 PUSH0 DUP3 SLOAD SWAP1 POP DUP1 SWAP2 POP POP SWAP2 SWAP1 POP JUMP JUMPDEST PUSH0 PUSH1 0xFF DUP3 AND SWAP1 POP SWAP2 SWAP1 POP JUMP JUMPDEST PUSH2 0x131 DUP2 PUSH2 0x11C JUMP JUMPDEST DUP3 MSTORE POP POP JUMP JUMPDEST PUSH0 PUSH1 0x20 DUP3 ADD SWAP1 POP PUSH2 0x14A PUSH0 DUP4 ADD DUP5 PUSH2 0x128 JUMP JUMPDEST SWAP3 SWAP2 POP POP JUMP JUMPDEST PUSH0 DUP2 ISZERO ISZERO SWAP1 POP SWAP2 SWAP1 POP JUMP JUMPDEST PUSH2 0x164 DUP2 PUSH2 0x150 JUMP JUMPDEST DUP3 MSTORE POP POP JUMP JUMPDEST PUSH0 PUSH1 0x20 DUP3 ADD SWAP1 POP PUSH2 0x17D PUSH0 DUP4 ADD DUP5 PUSH2 0x15B JUMP JUMPDEST SWAP3 SWAP2 POP POP JUMP JUMPDEST PUSH0 PUSH0 REVERT JUMPDEST PUSH0 DUP2 SWAP1 POP SWAP2 SWAP1 POP JUMP JUMPDEST PUSH2 0x199 DUP2 PUSH2 0x187 JUMP JUMPDEST DUP2 EQ PUSH2 0x1A3 JUMPI PUSH0 PUSH0 REVERT JUMPDEST POP JUMP JUMPDEST PUSH0 DUP2 CALLDATALOAD SWAP1 POP PUSH2 0x1B4 DUP2 PUSH2 0x190 JUMP JUMPDEST SWAP3 SWAP2 POP POP JUMP JUMPDEST PUSH0 PUSH1 0x20 DUP3 DUP5 SUB SLT ISZERO PUSH2 0x1CF JUMPI PUSH2 0x1CE PUSH2 0x183 JUMP JUMPDEST JUMPDEST PUSH0 PUSH2 0x1DC DUP5 DUP3 DUP6 ADD PUSH2 0x1A6 JUMP JUMPDEST SWAP2 POP POP SWAP3 SWAP2 POP POP JUMP JUMPDEST PUSH0 DUP2 SWAP1 POP SWAP2 SWAP1 POP JUMP JUMPDEST PUSH2 0x1F7 DUP2 PUSH2 0x1E5 JUMP JUMPDEST DUP3 MSTORE POP POP JUMP JUMPDEST PUSH0 PUSH1 0x20 DUP3 ADD SWAP1 POP PUSH2 0x210 PUSH0 DUP4 ADD DUP5 PUSH2 0x1EE JUMP JUMPDEST SWAP3 SWAP2 POP POP JUMP INVALID LOG2 PUSH5 0x6970667358 0x22 SLT KECCAK256 SLT 0x26 SAR GAS 0xCF PC REVERT 0xDA LOG2 0xDA 0x4B DUP2 EXTSTATICCALL PUSH3 0x644179 0x4D EXP PC DUP10 DUP11 0xD5 BALANCE 0x26 0xD3 DUP4 NUMBER SWAP11 0xD5 PUSH4 0x8C64736F PUSH13 0x634300081E0033000000000000 "
				},
				"gasEstimates": {
					"creation": {
						"codeDepositCost": "117600",
						"executionCost": "73060",
						"totalCost": "190660"
					},
					"external": {
						"a()": "2443",
						"b()": "2516",
						"c()": "2538",
						"getSlotValue(uint256)": "2749"
					}
				},
				"methodIdentifiers": {
					"a()": "0dbe671f",
					"b()": "4df7e3d0",
					"c()": "c3da42b8",
					"getSlotValue(uint256)": "e5745463"
				}
			},
			"storageLayout": {
				"storage": [
					{
						"astId": 4,
						"contract": "contracts/evm/5.1.variablepacking.sol:Demo",
						"label": "a",
						"offset": 0,
						"slot": "0",
						"type": "t_uint8"
					},
					{
						"astId": 7,
						"contract": "contracts/evm/5.1.variablepacking.sol:Demo",
						"label": "b",
						"offset": 1,
						"slot": "0",
						"type": "t_uint8"
					},
					{
						"astId": 10,
						"contract": "contracts/evm/5.1.variablepacking.sol:Demo",
						"label": "c",
						"offset": 2,
						"slot": "0",
						"type": "t_bool"
					}
				],
				"types": {
					"t_bool": {
						"encoding": "inplace",
						"label": "bool",
						"numberOfBytes": "1"
					},
					"t_uint8": {
						"encoding": "inplace",
						"label": "uint8",
						"numberOfBytes": "1"
					}
				}
			},
			"userdoc": {
				"kind": "user",
				"methods": {},
				"version": 1
			}
		}
	}
}