{
	"contracts/10.11.loops.sol": {
		"LoopExamples": {
			"abi": [
				{
					"inputs": [
						{
							"internalType": "uint256",
							"name": "n",
							"type": "uint256"
						}
					],
					"name": "doWhileLoopExample",
					"outputs": [
						{
							"internalType": "uint256",
							"name": "",
							"type": "uint256"
						}
					],
					"stateMutability": "pure",
					"type": "function"
				},
				{
					"inputs": [
						{
							"internalType": "uint256",
							"name": "n",
							"type": "uint256"
						}
					],
					"name": "forLoopExample",
					"outputs": [
						{
							"internalType": "uint256",
							"name": "",
							"type": "uint256"
						}
					],
					"stateMutability": "pure",
					"type": "function"
				},
				{
					"inputs": [
						{
							"internalType": "uint256",
							"name": "n",
							"type": "uint256"
						}
					],
					"name": "whileLoopExample",
					"outputs": [
						{
							"internalType": "uint256",
							"name": "",
							"type": "uint256"
						}
					],
					"stateMutability": "pure",
					"type": "function"
				}
			],
			"devdoc": {
				"kind": "dev",
				"methods": {},
				"version": 1
			},
			"evm": {
				"assembly": "    /* \"contracts/10.11.loops.sol\":57:955  contract LoopExamples {... */\n  mstore(0x40, 0x80)\n  callvalue\n  dup1\n  iszero\n  tag_1\n  jumpi\n  revert(0x00, 0x00)\ntag_1:\n  pop\n  dataSize(sub_0)\n  dup1\n  dataOffset(sub_0)\n  0x00\n  codecopy\n  0x00\n  return\nstop\n\nsub_0: assembly {\n        /* \"contracts/10.11.loops.sol\":57:955  contract LoopExamples {... */\n      mstore(0x40, 0x80)\n      callvalue\n      dup1\n      iszero\n      tag_1\n      jumpi\n      revert(0x00, 0x00)\n    tag_1:\n      pop\n      jumpi(tag_2, lt(calldatasize, 0x04))\n      shr(0xe0, calldataload(0x00))\n      dup1\n      0x361f67a4\n      eq\n      tag_3\n      jumpi\n      dup1\n      0x66199e38\n      eq\n      tag_4\n      jumpi\n      dup1\n      0x976ccb98\n      eq\n      tag_5\n      jumpi\n    tag_2:\n      revert(0x00, 0x00)\n        /* \"contracts/10.11.loops.sol\":338:554  function whileLoopExample(uint256 n) public pure returns (uint256) {... */\n    tag_3:\n      tag_6\n      0x04\n      dup1\n      calldatasize\n      sub\n      dup2\n      add\n      swap1\n      tag_7\n      swap2\n      swap1\n      tag_8\n      jump\t// in\n    tag_7:\n      tag_9\n      jump\t// in\n    tag_6:\n      mload(0x40)\n      tag_10\n      swap2\n      swap1\n      tag_11\n      jump\t// in\n    tag_10:\n      mload(0x40)\n      dup1\n      swap2\n      sub\n      swap1\n      return\n        /* \"contracts/10.11.loops.sol\":109:306  function forLoopExample(uint256 n) public pure returns (uint256) {... */\n    tag_4:\n      tag_12\n      0x04\n      dup1\n      calldatasize\n      sub\n      dup2\n      add\n      swap1\n      tag_13\n      swap2\n      swap1\n      tag_8\n      jump\t// in\n    tag_13:\n      tag_14\n      jump\t// in\n    tag_12:\n      mload(0x40)\n      tag_15\n      swap2\n      swap1\n      tag_11\n      jump\t// in\n    tag_15:\n      mload(0x40)\n      dup1\n      swap2\n      sub\n      swap1\n      return\n        /* \"contracts/10.11.loops.sol\":589:953  function doWhileLoopExample(uint256 n) public pure returns (uint256) {... */\n    tag_5:\n      tag_16\n      0x04\n      dup1\n      calldatasize\n      sub\n      dup2\n      add\n      swap1\n      tag_17\n      swap2\n      swap1\n      tag_8\n      jump\t// in\n    tag_17:\n      tag_18\n      jump\t// in\n    tag_16:\n      mload(0x40)\n      tag_19\n      swap2\n      swap1\n      tag_11\n      jump\t// in\n    tag_19:\n      mload(0x40)\n      dup1\n      swap2\n      sub\n      swap1\n      return\n        /* \"contracts/10.11.loops.sol\":338:554  function whileLoopExample(uint256 n) public pure returns (uint256) {... */\n    tag_9:\n        /* \"contracts/10.11.loops.sol\":396:403  uint256 */\n      0x00\n        /* \"contracts/10.11.loops.sol\":415:426  uint256 sum */\n      0x00\n        /* \"contracts/10.11.loops.sol\":429:430  0 */\n      0x00\n        /* \"contracts/10.11.loops.sol\":415:430  uint256 sum = 0 */\n      swap1\n      pop\n        /* \"contracts/10.11.loops.sol\":440:449  uint256 i */\n      0x00\n        /* \"contracts/10.11.loops.sol\":452:453  0 */\n      0x00\n        /* \"contracts/10.11.loops.sol\":440:453  uint256 i = 0 */\n      swap1\n      pop\n        /* \"contracts/10.11.loops.sol\":463:528  while (i <= n) {... */\n    tag_21:\n        /* \"contracts/10.11.loops.sol\":475:476  n */\n      dup4\n        /* \"contracts/10.11.loops.sol\":470:471  i */\n      dup2\n        /* \"contracts/10.11.loops.sol\":470:476  i <= n */\n      gt\n        /* \"contracts/10.11.loops.sol\":463:528  while (i <= n) {... */\n      tag_22\n      jumpi\n        /* \"contracts/10.11.loops.sol\":499:500  i */\n      dup1\n        /* \"contracts/10.11.loops.sol\":492:500  sum += i */\n      dup3\n      tag_23\n      swap2\n      swap1\n      tag_24\n      jump\t// in\n    tag_23:\n      swap2\n      pop\n        /* \"contracts/10.11.loops.sol\":514:517  i++ */\n      dup1\n      dup1\n      tag_25\n      swap1\n      tag_26\n      jump\t// in\n    tag_25:\n      swap2\n      pop\n      pop\n        /* \"contracts/10.11.loops.sol\":463:528  while (i <= n) {... */\n      jump(tag_21)\n    tag_22:\n        /* \"contracts/10.11.loops.sol\":544:547  sum */\n      dup2\n        /* \"contracts/10.11.loops.sol\":537:547  return sum */\n      swap3\n      pop\n      pop\n      pop\n        /* \"contracts/10.11.loops.sol\":338:554  function whileLoopExample(uint256 n) public pure returns (uint256) {... */\n      swap2\n      swap1\n      pop\n      jump\t// out\n        /* \"contracts/10.11.loops.sol\":109:306  function forLoopExample(uint256 n) public pure returns (uint256) {... */\n    tag_14:\n        /* \"contracts/10.11.loops.sol\":165:172  uint256 */\n      0x00\n        /* \"contracts/10.11.loops.sol\":184:195  uint256 sum */\n      0x00\n        /* \"contracts/10.11.loops.sol\":198:199  0 */\n      0x00\n        /* \"contracts/10.11.loops.sol\":184:199  uint256 sum = 0 */\n      swap1\n      pop\n        /* \"contracts/10.11.loops.sol\":214:223  uint256 i */\n      0x00\n        /* \"contracts/10.11.loops.sol\":226:227  0 */\n      0x00\n        /* \"contracts/10.11.loops.sol\":214:227  uint256 i = 0 */\n      swap1\n      pop\n        /* \"contracts/10.11.loops.sol\":209:280  for (uint256 i = 0; i <= n; i++) {... */\n    tag_28:\n        /* \"contracts/10.11.loops.sol\":234:235  n */\n      dup4\n        /* \"contracts/10.11.loops.sol\":229:230  i */\n      dup2\n        /* \"contracts/10.11.loops.sol\":229:235  i <= n */\n      gt\n        /* \"contracts/10.11.loops.sol\":209:280  for (uint256 i = 0; i <= n; i++) {... */\n      tag_29\n      jumpi\n        /* \"contracts/10.11.loops.sol\":268:269  i */\n      dup1\n        /* \"contracts/10.11.loops.sol\":262:265  sum */\n      dup3\n        /* \"contracts/10.11.loops.sol\":262:269  sum + i */\n      tag_31\n      swap2\n      swap1\n      tag_24\n      jump\t// in\n    tag_31:\n        /* \"contracts/10.11.loops.sol\":256:269  sum = sum + i */\n      swap2\n      pop\n        /* \"contracts/10.11.loops.sol\":237:240  i++ */\n      dup1\n      dup1\n      tag_32\n      swap1\n      tag_26\n      jump\t// in\n    tag_32:\n      swap2\n      pop\n      pop\n        /* \"contracts/10.11.loops.sol\":209:280  for (uint256 i = 0; i <= n; i++) {... */\n      jump(tag_28)\n    tag_29:\n      pop\n        /* \"contracts/10.11.loops.sol\":296:299  sum */\n      dup1\n        /* \"contracts/10.11.loops.sol\":289:299  return sum */\n      swap2\n      pop\n      pop\n        /* \"contracts/10.11.loops.sol\":109:306  function forLoopExample(uint256 n) public pure returns (uint256) {... */\n      swap2\n      swap1\n      pop\n      jump\t// out\n        /* \"contracts/10.11.loops.sol\":589:953  function doWhileLoopExample(uint256 n) public pure returns (uint256) {... */\n    tag_18:\n        /* \"contracts/10.11.loops.sol\":649:656  uint256 */\n      0x00\n        /* \"contracts/10.11.loops.sol\":668:679  uint256 sum */\n      0x00\n        /* \"contracts/10.11.loops.sol\":682:683  0 */\n      0x00\n        /* \"contracts/10.11.loops.sol\":668:683  uint256 sum = 0 */\n      swap1\n      pop\n        /* \"contracts/10.11.loops.sol\":693:702  uint256 i */\n      0x00\n        /* \"contracts/10.11.loops.sol\":705:706  0 */\n      0x00\n        /* \"contracts/10.11.loops.sol\":693:706  uint256 i = 0 */\n      swap1\n      pop\n        /* \"contracts/10.11.loops.sol\":724:725  0 */\n      0x00\n        /* \"contracts/10.11.loops.sol\":720:721  n */\n      dup5\n        /* \"contracts/10.11.loops.sol\":720:725  n > 0 */\n      gt\n        /* \"contracts/10.11.loops.sol\":716:927  if (n > 0) {... */\n      iszero\n      tag_34\n      jumpi\n        /* \"contracts/10.11.loops.sol\":825:917  do {... */\n    tag_35:\n        /* \"contracts/10.11.loops.sol\":858:859  i */\n      dup1\n        /* \"contracts/10.11.loops.sol\":852:855  sum */\n      dup3\n        /* \"contracts/10.11.loops.sol\":852:859  sum + i */\n      tag_38\n      swap2\n      swap1\n      tag_24\n      jump\t// in\n    tag_38:\n        /* \"contracts/10.11.loops.sol\":846:859  sum = sum + i */\n      swap2\n      pop\n        /* \"contracts/10.11.loops.sol\":885:886  1 */\n      0x01\n        /* \"contracts/10.11.loops.sol\":881:882  i */\n      dup2\n        /* \"contracts/10.11.loops.sol\":881:886  i + 1 */\n      tag_39\n      swap2\n      swap1\n      tag_24\n      jump\t// in\n    tag_39:\n        /* \"contracts/10.11.loops.sol\":877:886  i = i + 1 */\n      swap1\n      pop\n        /* \"contracts/10.11.loops.sol\":914:915  n */\n      dup4\n        /* \"contracts/10.11.loops.sol\":909:910  i */\n      dup2\n        /* \"contracts/10.11.loops.sol\":909:915  i <= n */\n      gt\n      iszero\n        /* \"contracts/10.11.loops.sol\":825:917  do {... */\n      tag_35\n      jumpi\n        /* \"contracts/10.11.loops.sol\":716:927  if (n > 0) {... */\n    tag_34:\n        /* \"contracts/10.11.loops.sol\":943:946  sum */\n      dup2\n        /* \"contracts/10.11.loops.sol\":936:946  return sum */\n      swap3\n      pop\n      pop\n      pop\n        /* \"contracts/10.11.loops.sol\":589:953  function doWhileLoopExample(uint256 n) public pure returns (uint256) {... */\n      swap2\n      swap1\n      pop\n      jump\t// out\n        /* \"#utility.yul\":88:205   */\n    tag_41:\n        /* \"#utility.yul\":197:198   */\n      0x00\n        /* \"#utility.yul\":194:195   */\n      0x00\n        /* \"#utility.yul\":187:199   */\n      revert\n        /* \"#utility.yul\":334:411   */\n    tag_43:\n        /* \"#utility.yul\":371:378   */\n      0x00\n        /* \"#utility.yul\":400:405   */\n      dup2\n        /* \"#utility.yul\":389:405   */\n      swap1\n      pop\n        /* \"#utility.yul\":334:411   */\n      swap2\n      swap1\n      pop\n      jump\t// out\n        /* \"#utility.yul\":417:539   */\n    tag_44:\n        /* \"#utility.yul\":490:514   */\n      tag_54\n        /* \"#utility.yul\":508:513   */\n      dup2\n        /* \"#utility.yul\":490:514   */\n      tag_43\n      jump\t// in\n    tag_54:\n        /* \"#utility.yul\":483:488   */\n      dup2\n        /* \"#utility.yul\":480:515   */\n      eq\n        /* \"#utility.yul\":470:533   */\n      tag_55\n      jumpi\n        /* \"#utility.yul\":529:530   */\n      0x00\n        /* \"#utility.yul\":526:527   */\n      0x00\n        /* \"#utility.yul\":519:531   */\n      revert\n        /* \"#utility.yul\":470:533   */\n    tag_55:\n        /* \"#utility.yul\":417:539   */\n      pop\n      jump\t// out\n        /* \"#utility.yul\":545:684   */\n    tag_45:\n        /* \"#utility.yul\":591:596   */\n      0x00\n        /* \"#utility.yul\":629:635   */\n      dup2\n        /* \"#utility.yul\":616:636   */\n      calldataload\n        /* \"#utility.yul\":607:636   */\n      swap1\n      pop\n        /* \"#utility.yul\":645:678   */\n      tag_57\n        /* \"#utility.yul\":672:677   */\n      dup2\n        /* \"#utility.yul\":645:678   */\n      tag_44\n      jump\t// in\n    tag_57:\n        /* \"#utility.yul\":545:684   */\n      swap3\n      swap2\n      pop\n      pop\n      jump\t// out\n        /* \"#utility.yul\":690:1019   */\n    tag_8:\n        /* \"#utility.yul\":749:755   */\n      0x00\n        /* \"#utility.yul\":798:800   */\n      0x20\n        /* \"#utility.yul\":786:795   */\n      dup3\n        /* \"#utility.yul\":777:784   */\n      dup5\n        /* \"#utility.yul\":773:796   */\n      sub\n        /* \"#utility.yul\":769:801   */\n      slt\n        /* \"#utility.yul\":766:885   */\n      iszero\n      tag_59\n      jumpi\n        /* \"#utility.yul\":804:883   */\n      tag_60\n      tag_41\n      jump\t// in\n    tag_60:\n        /* \"#utility.yul\":766:885   */\n    tag_59:\n        /* \"#utility.yul\":924:925   */\n      0x00\n        /* \"#utility.yul\":949:1002   */\n      tag_61\n        /* \"#utility.yul\":994:1001   */\n      dup5\n        /* \"#utility.yul\":985:991   */\n      dup3\n        /* \"#utility.yul\":974:983   */\n      dup6\n        /* \"#utility.yul\":970:992   */\n      add\n        /* \"#utility.yul\":949:1002   */\n      tag_45\n      jump\t// in\n    tag_61:\n        /* \"#utility.yul\":939:1002   */\n      swap2\n      pop\n        /* \"#utility.yul\":895:1012   */\n      pop\n        /* \"#utility.yul\":690:1019   */\n      swap3\n      swap2\n      pop\n      pop\n      jump\t// out\n        /* \"#utility.yul\":1025:1143   */\n    tag_46:\n        /* \"#utility.yul\":1112:1136   */\n      tag_63\n        /* \"#utility.yul\":1130:1135   */\n      dup2\n        /* \"#utility.yul\":1112:1136   */\n      tag_43\n      jump\t// in\n    tag_63:\n        /* \"#utility.yul\":1107:1110   */\n      dup3\n        /* \"#utility.yul\":1100:1137   */\n      mstore\n        /* \"#utility.yul\":1025:1143   */\n      pop\n      pop\n      jump\t// out\n        /* \"#utility.yul\":1149:1371   */\n    tag_11:\n        /* \"#utility.yul\":1242:1246   */\n      0x00\n        /* \"#utility.yul\":1280:1282   */\n      0x20\n        /* \"#utility.yul\":1269:1278   */\n      dup3\n        /* \"#utility.yul\":1265:1283   */\n      add\n        /* \"#utility.yul\":1257:1283   */\n      swap1\n      pop\n        /* \"#utility.yul\":1293:1364   */\n      tag_65\n        /* \"#utility.yul\":1361:1362   */\n      0x00\n        /* \"#utility.yul\":1350:1359   */\n      dup4\n        /* \"#utility.yul\":1346:1363   */\n      add\n        /* \"#utility.yul\":1337:1343   */\n      dup5\n        /* \"#utility.yul\":1293:1364   */\n      tag_46\n      jump\t// in\n    tag_65:\n        /* \"#utility.yul\":1149:1371   */\n      swap3\n      swap2\n      pop\n      pop\n      jump\t// out\n        /* \"#utility.yul\":1377:1557   */\n    tag_47:\n        /* \"#utility.yul\":1425:1502   */\n      0x4e487b7100000000000000000000000000000000000000000000000000000000\n        /* \"#utility.yul\":1422:1423   */\n      0x00\n        /* \"#utility.yul\":1415:1503   */\n      mstore\n        /* \"#utility.yul\":1522:1526   */\n      0x11\n        /* \"#utility.yul\":1519:1520   */\n      0x04\n        /* \"#utility.yul\":1512:1527   */\n      mstore\n        /* \"#utility.yul\":1546:1550   */\n      0x24\n        /* \"#utility.yul\":1543:1544   */\n      0x00\n        /* \"#utility.yul\":1536:1551   */\n      revert\n        /* \"#utility.yul\":1563:1754   */\n    tag_24:\n        /* \"#utility.yul\":1603:1606   */\n      0x00\n        /* \"#utility.yul\":1622:1642   */\n      tag_68\n        /* \"#utility.yul\":1640:1641   */\n      dup3\n        /* \"#utility.yul\":1622:1642   */\n      tag_43\n      jump\t// in\n    tag_68:\n        /* \"#utility.yul\":1617:1642   */\n      swap2\n      pop\n        /* \"#utility.yul\":1656:1676   */\n      tag_69\n        /* \"#utility.yul\":1674:1675   */\n      dup4\n        /* \"#utility.yul\":1656:1676   */\n      tag_43\n      jump\t// in\n    tag_69:\n        /* \"#utility.yul\":1651:1676   */\n      swap3\n      pop\n        /* \"#utility.yul\":1699:1700   */\n      dup3\n        /* \"#utility.yul\":1696:1697   */\n      dup3\n        /* \"#utility.yul\":1692:1701   */\n      add\n        /* \"#utility.yul\":1685:1701   */\n      swap1\n      pop\n        /* \"#utility.yul\":1720:1723   */\n      dup1\n        /* \"#utility.yul\":1717:1718   */\n      dup3\n        /* \"#utility.yul\":1714:1724   */\n      gt\n        /* \"#utility.yul\":1711:1747   */\n      iszero\n      tag_70\n      jumpi\n        /* \"#utility.yul\":1727:1745   */\n      tag_71\n      tag_47\n      jump\t// in\n    tag_71:\n        /* \"#utility.yul\":1711:1747   */\n    tag_70:\n        /* \"#utility.yul\":1563:1754   */\n      swap3\n      swap2\n      pop\n      pop\n      jump\t// out\n        /* \"#utility.yul\":1760:1993   */\n    tag_26:\n        /* \"#utility.yul\":1799:1802   */\n      0x00\n        /* \"#utility.yul\":1822:1846   */\n      tag_73\n        /* \"#utility.yul\":1840:1845   */\n      dup3\n        /* \"#utility.yul\":1822:1846   */\n      tag_43\n      jump\t// in\n    tag_73:\n        /* \"#utility.yul\":1813:1846   */\n      swap2\n      pop\n        /* \"#utility.yul\":1868:1934   */\n      0xffffffffffffffffffffffffffffffffffffffffffffffffffffffffffffffff\n        /* \"#utility.yul\":1861:1866   */\n      dup3\n        /* \"#utility.yul\":1858:1935   */\n      sub\n        /* \"#utility.yul\":1855:1958   */\n      tag_74\n      jumpi\n        /* \"#utility.yul\":1938:1956   */\n      tag_75\n      tag_47\n      jump\t// in\n    tag_75:\n        /* \"#utility.yul\":1855:1958   */\n    tag_74:\n        /* \"#utility.yul\":1985:1986   */\n      0x01\n        /* \"#utility.yul\":1978:1983   */\n      dup3\n        /* \"#utility.yul\":1974:1987   */\n      add\n        /* \"#utility.yul\":1967:1987   */\n      swap1\n      pop\n        /* \"#utility.yul\":1760:1993   */\n      swap2\n      swap1\n      pop\n      jump\t// out\n\n    auxdata: 0xa26469706673582212203062dcd8fb6bfa29c3ca315e20ec018095363a8c1964ee939a0e3c06dbe2084364736f6c634300081e0033\n}\n",
				"bytecode": {
					"linkReferences": {},
					"object": "6080604052348015600e575f5ffd5b506102f48061001c5f395ff3fe608060405234801561000f575f5ffd5b506004361061003f575f3560e01c8063361f67a41461004357806366199e3814610073578063976ccb98146100a3575b5f5ffd5b61005d600480360381019061005891906101c4565b6100d3565b60405161006a91906101fe565b60405180910390f35b61008d600480360381019061008891906101c4565b61010f565b60405161009a91906101fe565b60405180910390f35b6100bd60048036038101906100b891906101c4565b61014b565b6040516100ca91906101fe565b60405180910390f35b5f5f5f90505f5f90505b8381116101055780826100f09190610244565b915080806100fd90610277565b9150506100dd565b8192505050919050565b5f5f5f90505f5f90505b83811161014157808261012c9190610244565b9150808061013990610277565b915050610119565b5080915050919050565b5f5f5f90505f5f90505f841115610183575b80826101699190610244565b91506001816101789190610244565b90508381111561015d575b8192505050919050565b5f5ffd5b5f819050919050565b6101a381610191565b81146101ad575f5ffd5b50565b5f813590506101be8161019a565b92915050565b5f602082840312156101d9576101d861018d565b5b5f6101e6848285016101b0565b91505092915050565b6101f881610191565b82525050565b5f6020820190506102115f8301846101ef565b92915050565b7f4e487b71000000000000000000000000000000000000000000000000000000005f52601160045260245ffd5b5f61024e82610191565b915061025983610191565b925082820190508082111561027157610270610217565b5b92915050565b5f61028182610191565b91507fffffffffffffffffffffffffffffffffffffffffffffffffffffffffffffffff82036102b3576102b2610217565b5b60018201905091905056fea26469706673582212203062dcd8fb6bfa29c3ca315e20ec018095363a8c1964ee939a0e3c06dbe2084364736f6c634300081e0033",
					"opcodes": "PUSH1 0x80 PUSH1 0x40 MSTORE CALLVALUE DUP1 ISZERO PUSH1 0xE JUMPI PUSH0 PUSH0 REVERT JUMPDEST POP PUSH2 0x2F4 DUP1 PUSH2 0x1C PUSH0 CODECOPY PUSH0 RETURN INVALID PUSH1 0x80 PUSH1 0x40 MSTORE CALLVALUE DUP1 ISZERO PUSH2 0xF JUMPI PUSH0 PUSH0 REVERT JUMPDEST POP PUSH1 0x4 CALLDATASIZE LT PUSH2 0x3F JUMPI PUSH0 CALLDATALOAD PUSH1 0xE0 SHR DUP1 PUSH4 0x361F67A4 EQ PUSH2 0x43 JUMPI DUP1 PUSH4 0x66199E38 EQ PUSH2 0x73 JUMPI DUP1 PUSH4 0x976CCB98 EQ PUSH2 0xA3 JUMPI JUMPDEST PUSH0 PUSH0 REVERT JUMPDEST PUSH2 0x5D PUSH1 0x4 DUP1 CALLDATASIZE SUB DUP2 ADD SWAP1 PUSH2 0x58 SWAP2 SWAP1 PUSH2 0x1C4 JUMP JUMPDEST PUSH2 0xD3 JUMP JUMPDEST PUSH1 0x40 MLOAD PUSH2 0x6A SWAP2 SWAP1 PUSH2 0x1FE JUMP JUMPDEST PUSH1 0x40 MLOAD DUP1 SWAP2 SUB SWAP1 RETURN JUMPDEST PUSH2 0x8D PUSH1 0x4 DUP1 CALLDATASIZE SUB DUP2 ADD SWAP1 PUSH2 0x88 SWAP2 SWAP1 PUSH2 0x1C4 JUMP JUMPDEST PUSH2 0x10F JUMP JUMPDEST PUSH1 0x40 MLOAD PUSH2 0x9A SWAP2 SWAP1 PUSH2 0x1FE JUMP JUMPDEST PUSH1 0x40 MLOAD DUP1 SWAP2 SUB SWAP1 RETURN JUMPDEST PUSH2 0xBD PUSH1 0x4 DUP1 CALLDATASIZE SUB DUP2 ADD SWAP1 PUSH2 0xB8 SWAP2 SWAP1 PUSH2 0x1C4 JUMP JUMPDEST PUSH2 0x14B JUMP JUMPDEST PUSH1 0x40 MLOAD PUSH2 0xCA SWAP2 SWAP1 PUSH2 0x1FE JUMP JUMPDEST PUSH1 0x40 MLOAD DUP1 SWAP2 SUB SWAP1 RETURN JUMPDEST PUSH0 PUSH0 PUSH0 SWAP1 POP PUSH0 PUSH0 SWAP1 POP JUMPDEST DUP4 DUP2 GT PUSH2 0x105 JUMPI DUP1 DUP3 PUSH2 0xF0 SWAP2 SWAP1 PUSH2 0x244 JUMP JUMPDEST SWAP2 POP DUP1 DUP1 PUSH2 0xFD SWAP1 PUSH2 0x277 JUMP JUMPDEST SWAP2 POP POP PUSH2 0xDD JUMP JUMPDEST DUP2 SWAP3 POP POP POP SWAP2 SWAP1 POP JUMP JUMPDEST PUSH0 PUSH0 PUSH0 SWAP1 POP PUSH0 PUSH0 SWAP1 POP JUMPDEST DUP4 DUP2 GT PUSH2 0x141 JUMPI DUP1 DUP3 PUSH2 0x12C SWAP2 SWAP1 PUSH2 0x244 JUMP JUMPDEST SWAP2 POP DUP1 DUP1 PUSH2 0x139 SWAP1 PUSH2 0x277 JUMP JUMPDEST SWAP2 POP POP PUSH2 0x119 JUMP JUMPDEST POP DUP1 SWAP2 POP POP SWAP2 SWAP1 POP JUMP JUMPDEST PUSH0 PUSH0 PUSH0 SWAP1 POP PUSH0 PUSH0 SWAP1 POP PUSH0 DUP5 GT ISZERO PUSH2 0x183 JUMPI JUMPDEST DUP1 DUP3 PUSH2 0x169 SWAP2 SWAP1 PUSH2 0x244 JUMP JUMPDEST SWAP2 POP PUSH1 0x1 DUP2 PUSH2 0x178 SWAP2 SWAP1 PUSH2 0x244 JUMP JUMPDEST SWAP1 POP DUP4 DUP2 GT ISZERO PUSH2 0x15D JUMPI JUMPDEST DUP2 SWAP3 POP POP POP SWAP2 SWAP1 POP JUMP JUMPDEST PUSH0 PUSH0 REVERT JUMPDEST PUSH0 DUP2 SWAP1 POP SWAP2 SWAP1 POP JUMP JUMPDEST PUSH2 0x1A3 DUP2 PUSH2 0x191 JUMP JUMPDEST DUP2 EQ PUSH2 0x1AD JUMPI PUSH0 PUSH0 REVERT JUMPDEST POP JUMP JUMPDEST PUSH0 DUP2 CALLDATALOAD SWAP1 POP PUSH2 0x1BE DUP2 PUSH2 0x19A JUMP JUMPDEST SWAP3 SWAP2 POP POP JUMP JUMPDEST PUSH0 PUSH1 0x20 DUP3 DUP5 SUB SLT ISZERO PUSH2 0x1D9 JUMPI PUSH2 0x1D8 PUSH2 0x18D JUMP JUMPDEST JUMPDEST PUSH0 PUSH2 0x1E6 DUP5 DUP3 DUP6 ADD PUSH2 0x1B0 JUMP JUMPDEST SWAP2 POP POP SWAP3 SWAP2 POP POP JUMP JUMPDEST PUSH2 0x1F8 DUP2 PUSH2 0x191 JUMP JUMPDEST DUP3 MSTORE POP POP JUMP JUMPDEST PUSH0 PUSH1 0x20 DUP3 ADD SWAP1 POP PUSH2 0x211 PUSH0 DUP4 ADD DUP5 PUSH2 0x1EF JUMP JUMPDEST SWAP3 SWAP2 POP POP JUMP JUMPDEST PUSH32 0x4E487B7100000000000000000000000000000000000000000000000000000000 PUSH0 MSTORE PUSH1 0x11 PUSH1 0x4 MSTORE PUSH1 0x24 PUSH0 REVERT JUMPDEST PUSH0 PUSH2 0x24E DUP3 PUSH2 0x191 JUMP JUMPDEST SWAP2 POP PUSH2 0x259 DUP4 PUSH2 0x191 JUMP JUMPDEST SWAP3 POP DUP3 DUP3 ADD SWAP1 POP DUP1 DUP3 GT ISZERO PUSH2 0x271 JUMPI PUSH2 0x270 PUSH2 0x217 JUMP JUMPDEST JUMPDEST SWAP3 SWAP2 POP POP JUMP JUMPDEST PUSH0 PUSH2 0x281 DUP3 PUSH2 0x191 JUMP JUMPDEST SWAP2 POP PUSH32 0xFFFFFFFFFFFFFFFFFFFFFFFFFFFFFFFFFFFFFFFFFFFFFFFFFFFFFFFFFFFFFFFF DUP3 SUB PUSH2 0x2B3 JUMPI PUSH2 0x2B2 PUSH2 0x217 JUMP JUMPDEST JUMPDEST PUSH1 0x1 DUP3 ADD SWAP1 POP SWAP2 SWAP1 POP JUMP INVALID LOG2 PUSH5 0x6970667358 0x22 SLT KECCAK256 ADDRESS PUSH3 0xDCD8FB PUSH12 0xFA29C3CA315E20EC01809536 GASPRICE DUP13 NOT PUSH5 0xEE939A0E3C MOD 0xDB 0xE2 ADDMOD NUMBER PUSH5 0x736F6C6343 STOP ADDMOD 0x1E STOP CALLER "
				},
				"gasEstimates": {
					"creation": {
						"codeDepositCost": "151200",
						"executionCost": "194",
						"totalCost": "151394"
					},
					"external": {
						"doWhileLoopExample(uint256)": "infinite",
						"forLoopExample(uint256)": "infinite",
						"whileLoopExample(uint256)": "infinite"
					}
				},
				"methodIdentifiers": {
					"doWhileLoopExample(uint256)": "976ccb98",
					"forLoopExample(uint256)": "66199e38",
					"whileLoopExample(uint256)": "361f67a4"
				}
			},
			"storageLayout": {
				"storage": [],
				"types": null
			},
			"userdoc": {
				"kind": "user",
				"methods": {},
				"version": 1
			}
		}
	}
}