{
	"contracts/10.18.struct(struct mapping).sol": {
		"StudentRecords": {
			"abi": [
				{
					"inputs": [
						{
							"internalType": "uint256",
							"name": "_id",
							"type": "uint256"
						},
						{
							"internalType": "string",
							"name": "_name",
							"type": "string"
						},
						{
							"internalType": "uint256",
							"name": "_age",
							"type": "uint256"
						}
					],
					"name": "addOrUpdateStudent",
					"outputs": [],
					"stateMutability": "nonpayable",
					"type": "function"
				},
				{
					"inputs": [
						{
							"internalType": "uint256",
							"name": "_id",
							"type": "uint256"
						}
					],
					"name": "deleteStudent",
					"outputs": [],
					"stateMutability": "nonpayable",
					"type": "function"
				},
				{
					"inputs": [
						{
							"internalType": "uint256",
							"name": "_id",
							"type": "uint256"
						}
					],
					"name": "getStudent",
					"outputs": [
						{
							"internalType": "uint256",
							"name": "",
							"type": "uint256"
						},
						{
							"internalType": "string",
							"name": "",
							"type": "string"
						},
						{
							"internalType": "uint256",
							"name": "",
							"type": "uint256"
						}
					],
					"stateMutability": "view",
					"type": "function"
				}
			],
			"devdoc": {
				"kind": "dev",
				"methods": {},
				"version": 1
			},
			"evm": {
				"assembly": "    /* \"contracts/10.18.struct(struct mapping).sol\":57:1211  contract StudentRecords {... */\n  mstore(0x40, 0x80)\n  callvalue\n  dup1\n  iszero\n  tag_1\n  jumpi\n  revert(0x00, 0x00)\ntag_1:\n  pop\n  dataSize(sub_0)\n  dup1\n  dataOffset(sub_0)\n  0x00\n  codecopy\n  0x00\n  return\nstop\n\nsub_0: assembly {\n        /* \"contracts/10.18.struct(struct mapping).sol\":57:1211  contract StudentRecords {... */\n      mstore(0x40, 0x80)\n      callvalue\n      dup1\n      iszero\n      tag_1\n      jumpi\n      revert(0x00, 0x00)\n    tag_1:\n      pop\n      jumpi(tag_2, lt(calldatasize, 0x04))\n      shr(0xe0, calldataload(0x00))\n      dup1\n      0x642f9163\n      eq\n      tag_3\n      jumpi\n      dup1\n      0x9e159226\n      eq\n      tag_4\n      jumpi\n      dup1\n      0xb645307d\n      eq\n      tag_5\n      jumpi\n    tag_2:\n      revert(0x00, 0x00)\n        /* \"contracts/10.18.struct(struct mapping).sol\":643:1004  function getStudent(uint256 _id)        ... */\n    tag_3:\n      tag_6\n      0x04\n      dup1\n      calldatasize\n      sub\n      dup2\n      add\n      swap1\n      tag_7\n      swap2\n      swap1\n      tag_8\n      jump\t// in\n    tag_7:\n      tag_9\n      jump\t// in\n    tag_6:\n      mload(0x40)\n      tag_10\n      swap4\n      swap3\n      swap2\n      swap1\n      tag_11\n      jump\t// in\n    tag_10:\n      mload(0x40)\n      dup1\n      swap2\n      sub\n      swap1\n      return\n        /* \"contracts/10.18.struct(struct mapping).sol\":421:598  function addOrUpdateStudent(... */\n    tag_4:\n      tag_12\n      0x04\n      dup1\n      calldatasize\n      sub\n      dup2\n      add\n      swap1\n      tag_13\n      swap2\n      swap1\n      tag_14\n      jump\t// in\n    tag_13:\n      tag_15\n      jump\t// in\n    tag_12:\n      stop\n        /* \"contracts/10.18.struct(struct mapping).sol\":1052:1209  function deleteStudent(uint256 _id) public {... */\n    tag_5:\n      tag_16\n      0x04\n      dup1\n      calldatasize\n      sub\n      dup2\n      add\n      swap1\n      tag_17\n      swap2\n      swap1\n      tag_8\n      jump\t// in\n    tag_17:\n      tag_18\n      jump\t// in\n    tag_16:\n      stop\n        /* \"contracts/10.18.struct(struct mapping).sol\":643:1004  function getStudent(uint256 _id)        ... */\n    tag_9:\n        /* \"contracts/10.18.struct(struct mapping).sol\":742:749  uint256 */\n      0x00\n        /* \"contracts/10.18.struct(struct mapping).sol\":767:780  string memory */\n      0x60\n        /* \"contracts/10.18.struct(struct mapping).sol\":794:801  uint256 */\n      0x00\n        /* \"contracts/10.18.struct(struct mapping).sol\":870:871  0 */\n      0x00\n        /* \"contracts/10.18.struct(struct mapping).sol\":840:848  students */\n      0x00\n        /* \"contracts/10.18.struct(struct mapping).sol\":840:853  students[_id] */\n      0x00\n        /* \"contracts/10.18.struct(struct mapping).sol\":849:852  _id */\n      dup7\n        /* \"contracts/10.18.struct(struct mapping).sol\":840:853  students[_id] */\n      dup2\n      mstore\n      0x20\n      add\n      swap1\n      dup2\n      mstore\n      0x20\n      add\n      0x00\n      keccak256\n        /* \"contracts/10.18.struct(struct mapping).sol\":840:858  students[_id].name */\n      0x01\n      add\n        /* \"contracts/10.18.struct(struct mapping).sol\":834:866  bytes(students[_id].name).length */\n      dup1\n      sload\n      tag_20\n      swap1\n      tag_21\n      jump\t// in\n    tag_20:\n      swap1\n      pop\n        /* \"contracts/10.18.struct(struct mapping).sol\":834:871  bytes(students[_id].name).length != 0 */\n      sub\n        /* \"contracts/10.18.struct(struct mapping).sol\":826:893  require(bytes(students[_id].name).length != 0, \"Student not found\") */\n      tag_22\n      jumpi\n      mload(0x40)\n      0x08c379a000000000000000000000000000000000000000000000000000000000\n      dup2\n      mstore\n      0x04\n      add\n      tag_23\n      swap1\n      tag_24\n      jump\t// in\n    tag_23:\n      mload(0x40)\n      dup1\n      swap2\n      sub\n      swap1\n      revert\n    tag_22:\n        /* \"contracts/10.18.struct(struct mapping).sol\":903:925  Student memory student */\n      0x00\n        /* \"contracts/10.18.struct(struct mapping).sol\":928:936  students */\n      0x00\n        /* \"contracts/10.18.struct(struct mapping).sol\":928:941  students[_id] */\n      0x00\n        /* \"contracts/10.18.struct(struct mapping).sol\":937:940  _id */\n      dup7\n        /* \"contracts/10.18.struct(struct mapping).sol\":928:941  students[_id] */\n      dup2\n      mstore\n      0x20\n      add\n      swap1\n      dup2\n      mstore\n      0x20\n      add\n      0x00\n      keccak256\n        /* \"contracts/10.18.struct(struct mapping).sol\":903:941  Student memory student = students[_id] */\n      mload(0x40)\n      dup1\n      0x60\n      add\n      0x40\n      mstore\n      swap1\n      dup2\n      0x00\n      dup3\n      add\n      sload\n      dup2\n      mstore\n      0x20\n      add\n      0x01\n      dup3\n      add\n      dup1\n      sload\n      tag_25\n      swap1\n      tag_21\n      jump\t// in\n    tag_25:\n      dup1\n      0x1f\n      add\n      0x20\n      dup1\n      swap2\n      div\n      mul\n      0x20\n      add\n      mload(0x40)\n      swap1\n      dup2\n      add\n      0x40\n      mstore\n      dup1\n      swap3\n      swap2\n      swap1\n      dup2\n      dup2\n      mstore\n      0x20\n      add\n      dup3\n      dup1\n      sload\n      tag_26\n      swap1\n      tag_21\n      jump\t// in\n    tag_26:\n      dup1\n      iszero\n      tag_27\n      jumpi\n      dup1\n      0x1f\n      lt\n      tag_28\n      jumpi\n      0x0100\n      dup1\n      dup4\n      sload\n      div\n      mul\n      dup4\n      mstore\n      swap2\n      0x20\n      add\n      swap2\n      jump(tag_27)\n    tag_28:\n      dup3\n      add\n      swap2\n      swap1\n      0x00\n      mstore\n      keccak256(0x00, 0x20)\n      swap1\n    tag_29:\n      dup2\n      sload\n      dup2\n      mstore\n      swap1\n      0x01\n      add\n      swap1\n      0x20\n      add\n      dup1\n      dup4\n      gt\n      tag_29\n      jumpi\n      dup3\n      swap1\n      sub\n      0x1f\n      and\n      dup3\n      add\n      swap2\n    tag_27:\n      pop\n      pop\n      pop\n      pop\n      pop\n      dup2\n      mstore\n      0x20\n      add\n      0x02\n      dup3\n      add\n      sload\n      dup2\n      mstore\n      pop\n      pop\n      swap1\n      pop\n        /* \"contracts/10.18.struct(struct mapping).sol\":959:966  student */\n      dup1\n        /* \"contracts/10.18.struct(struct mapping).sol\":959:969  student.id */\n      0x00\n      add\n      mload\n        /* \"contracts/10.18.struct(struct mapping).sol\":971:978  student */\n      dup2\n        /* \"contracts/10.18.struct(struct mapping).sol\":971:983  student.name */\n      0x20\n      add\n      mload\n        /* \"contracts/10.18.struct(struct mapping).sol\":985:992  student */\n      dup3\n        /* \"contracts/10.18.struct(struct mapping).sol\":985:996  student.age */\n      0x40\n      add\n      mload\n        /* \"contracts/10.18.struct(struct mapping).sol\":951:997  return (student.id, student.name, student.age) */\n      swap4\n      pop\n      swap4\n      pop\n      swap4\n      pop\n      pop\n        /* \"contracts/10.18.struct(struct mapping).sol\":643:1004  function getStudent(uint256 _id)        ... */\n      swap2\n      swap4\n      swap1\n      swap3\n      pop\n      jump\t// out\n        /* \"contracts/10.18.struct(struct mapping).sol\":421:598  function addOrUpdateStudent(... */\n    tag_15:\n        /* \"contracts/10.18.struct(struct mapping).sol\":560:585  Student(_id, _name, _age) */\n      mload(0x40)\n      dup1\n      0x60\n      add\n      0x40\n      mstore\n      dup1\n        /* \"contracts/10.18.struct(struct mapping).sol\":568:571  _id */\n      dup5\n        /* \"contracts/10.18.struct(struct mapping).sol\":560:585  Student(_id, _name, _age) */\n      dup2\n      mstore\n      0x20\n      add\n        /* \"contracts/10.18.struct(struct mapping).sol\":573:578  _name */\n      dup4\n        /* \"contracts/10.18.struct(struct mapping).sol\":560:585  Student(_id, _name, _age) */\n      dup2\n      mstore\n      0x20\n      add\n        /* \"contracts/10.18.struct(struct mapping).sol\":580:584  _age */\n      dup3\n        /* \"contracts/10.18.struct(struct mapping).sol\":560:585  Student(_id, _name, _age) */\n      dup2\n      mstore\n      pop\n        /* \"contracts/10.18.struct(struct mapping).sol\":544:552  students */\n      0x00\n        /* \"contracts/10.18.struct(struct mapping).sol\":544:557  students[_id] */\n      0x00\n        /* \"contracts/10.18.struct(struct mapping).sol\":553:556  _id */\n      dup6\n        /* \"contracts/10.18.struct(struct mapping).sol\":544:557  students[_id] */\n      dup2\n      mstore\n      0x20\n      add\n      swap1\n      dup2\n      mstore\n      0x20\n      add\n      0x00\n      keccak256\n        /* \"contracts/10.18.struct(struct mapping).sol\":544:585  students[_id] = Student(_id, _name, _age) */\n      0x00\n      dup3\n      add\n      mload\n      dup2\n      0x00\n      add\n      sstore\n      0x20\n      dup3\n      add\n      mload\n      dup2\n      0x01\n      add\n      swap1\n      dup2\n      tag_31\n      swap2\n      swap1\n      tag_32\n      jump\t// in\n    tag_31:\n      pop\n      0x40\n      dup3\n      add\n      mload\n      dup2\n      0x02\n      add\n      sstore\n      swap1\n      pop\n      pop\n        /* \"contracts/10.18.struct(struct mapping).sol\":421:598  function addOrUpdateStudent(... */\n      pop\n      pop\n      pop\n      jump\t// out\n        /* \"contracts/10.18.struct(struct mapping).sol\":1052:1209  function deleteStudent(uint256 _id) public {... */\n    tag_18:\n        /* \"contracts/10.18.struct(struct mapping).sol\":1149:1150  0 */\n      0x00\n        /* \"contracts/10.18.struct(struct mapping).sol\":1119:1127  students */\n      0x00\n        /* \"contracts/10.18.struct(struct mapping).sol\":1119:1132  students[_id] */\n      0x00\n        /* \"contracts/10.18.struct(struct mapping).sol\":1128:1131  _id */\n      dup4\n        /* \"contracts/10.18.struct(struct mapping).sol\":1119:1132  students[_id] */\n      dup2\n      mstore\n      0x20\n      add\n      swap1\n      dup2\n      mstore\n      0x20\n      add\n      0x00\n      keccak256\n        /* \"contracts/10.18.struct(struct mapping).sol\":1119:1137  students[_id].name */\n      0x01\n      add\n        /* \"contracts/10.18.struct(struct mapping).sol\":1113:1145  bytes(students[_id].name).length */\n      dup1\n      sload\n      tag_34\n      swap1\n      tag_21\n      jump\t// in\n    tag_34:\n      swap1\n      pop\n        /* \"contracts/10.18.struct(struct mapping).sol\":1113:1150  bytes(students[_id].name).length != 0 */\n      sub\n        /* \"contracts/10.18.struct(struct mapping).sol\":1105:1172  require(bytes(students[_id].name).length != 0, \"Student not found\") */\n      tag_35\n      jumpi\n      mload(0x40)\n      0x08c379a000000000000000000000000000000000000000000000000000000000\n      dup2\n      mstore\n      0x04\n      add\n      tag_36\n      swap1\n      tag_24\n      jump\t// in\n    tag_36:\n      mload(0x40)\n      dup1\n      swap2\n      sub\n      swap1\n      revert\n    tag_35:\n        /* \"contracts/10.18.struct(struct mapping).sol\":1189:1197  students */\n      0x00\n        /* \"contracts/10.18.struct(struct mapping).sol\":1189:1202  students[_id] */\n      0x00\n        /* \"contracts/10.18.struct(struct mapping).sol\":1198:1201  _id */\n      dup3\n        /* \"contracts/10.18.struct(struct mapping).sol\":1189:1202  students[_id] */\n      dup2\n      mstore\n      0x20\n      add\n      swap1\n      dup2\n      mstore\n      0x20\n      add\n      0x00\n      keccak256\n      0x00\n        /* \"contracts/10.18.struct(struct mapping).sol\":1182:1202  delete students[_id] */\n      0x00\n      dup3\n      add\n      0x00\n      swap1\n      sstore\n      0x01\n      dup3\n      add\n      0x00\n      tag_37\n      swap2\n      swap1\n      tag_38\n      jump\t// in\n    tag_37:\n      0x02\n      dup3\n      add\n      0x00\n      swap1\n      sstore\n      pop\n      pop\n        /* \"contracts/10.18.struct(struct mapping).sol\":1052:1209  function deleteStudent(uint256 _id) public {... */\n      pop\n      jump\t// out\n    tag_38:\n      pop\n      dup1\n      sload\n      tag_39\n      swap1\n      tag_21\n      jump\t// in\n    tag_39:\n      0x00\n      dup3\n      sstore\n      dup1\n      0x1f\n      lt\n      tag_41\n      jumpi\n      pop\n      jump(tag_40)\n    tag_41:\n      0x1f\n      add\n      0x20\n      swap1\n      div\n      swap1\n      0x00\n      mstore\n      keccak256(0x00, 0x20)\n      swap1\n      dup2\n      add\n      swap1\n      tag_42\n      swap2\n      swap1\n      tag_43\n      jump\t// in\n    tag_42:\n    tag_40:\n      pop\n      jump\t// out\n    tag_43:\n    tag_44:\n      dup1\n      dup3\n      gt\n      iszero\n      tag_45\n      jumpi\n      0x00\n      dup2\n      0x00\n      swap1\n      sstore\n      pop\n      0x01\n      add\n      jump(tag_44)\n    tag_45:\n      pop\n      swap1\n      jump\t// out\n        /* \"#utility.yul\":7:82   */\n    tag_46:\n        /* \"#utility.yul\":40:46   */\n      0x00\n        /* \"#utility.yul\":73:75   */\n      0x40\n        /* \"#utility.yul\":67:76   */\n      mload\n        /* \"#utility.yul\":57:76   */\n      swap1\n      pop\n        /* \"#utility.yul\":7:82   */\n      swap1\n      jump\t// out\n        /* \"#utility.yul\":88:205   */\n    tag_47:\n        /* \"#utility.yul\":197:198   */\n      0x00\n        /* \"#utility.yul\":194:195   */\n      0x00\n        /* \"#utility.yul\":187:199   */\n      revert\n        /* \"#utility.yul\":211:328   */\n    tag_48:\n        /* \"#utility.yul\":320:321   */\n      0x00\n        /* \"#utility.yul\":317:318   */\n      0x00\n        /* \"#utility.yul\":310:322   */\n      revert\n        /* \"#utility.yul\":334:411   */\n    tag_49:\n        /* \"#utility.yul\":371:378   */\n      0x00\n        /* \"#utility.yul\":400:405   */\n      dup2\n        /* \"#utility.yul\":389:405   */\n      swap1\n      pop\n        /* \"#utility.yul\":334:411   */\n      swap2\n      swap1\n      pop\n      jump\t// out\n        /* \"#utility.yul\":417:539   */\n    tag_50:\n        /* \"#utility.yul\":490:514   */\n      tag_91\n        /* \"#utility.yul\":508:513   */\n      dup2\n        /* \"#utility.yul\":490:514   */\n      tag_49\n      jump\t// in\n    tag_91:\n        /* \"#utility.yul\":483:488   */\n      dup2\n        /* \"#utility.yul\":480:515   */\n      eq\n        /* \"#utility.yul\":470:533   */\n      tag_92\n      jumpi\n        /* \"#utility.yul\":529:530   */\n      0x00\n        /* \"#utility.yul\":526:527   */\n      0x00\n        /* \"#utility.yul\":519:531   */\n      revert\n        /* \"#utility.yul\":470:533   */\n    tag_92:\n        /* \"#utility.yul\":417:539   */\n      pop\n      jump\t// out\n        /* \"#utility.yul\":545:684   */\n    tag_51:\n        /* \"#utility.yul\":591:596   */\n      0x00\n        /* \"#utility.yul\":629:635   */\n      dup2\n        /* \"#utility.yul\":616:636   */\n      calldataload\n        /* \"#utility.yul\":607:636   */\n      swap1\n      pop\n        /* \"#utility.yul\":645:678   */\n      tag_94\n        /* \"#utility.yul\":672:677   */\n      dup2\n        /* \"#utility.yul\":645:678   */\n      tag_50\n      jump\t// in\n    tag_94:\n        /* \"#utility.yul\":545:684   */\n      swap3\n      swap2\n      pop\n      pop\n      jump\t// out\n        /* \"#utility.yul\":690:1019   */\n    tag_8:\n        /* \"#utility.yul\":749:755   */\n      0x00\n        /* \"#utility.yul\":798:800   */\n      0x20\n        /* \"#utility.yul\":786:795   */\n      dup3\n        /* \"#utility.yul\":777:784   */\n      dup5\n        /* \"#utility.yul\":773:796   */\n      sub\n        /* \"#utility.yul\":769:801   */\n      slt\n        /* \"#utility.yul\":766:885   */\n      iszero\n      tag_96\n      jumpi\n        /* \"#utility.yul\":804:883   */\n      tag_97\n      tag_47\n      jump\t// in\n    tag_97:\n        /* \"#utility.yul\":766:885   */\n    tag_96:\n        /* \"#utility.yul\":924:925   */\n      0x00\n        /* \"#utility.yul\":949:1002   */\n      tag_98\n        /* \"#utility.yul\":994:1001   */\n      dup5\n        /* \"#utility.yul\":985:991   */\n      dup3\n        /* \"#utility.yul\":974:983   */\n      dup6\n        /* \"#utility.yul\":970:992   */\n      add\n        /* \"#utility.yul\":949:1002   */\n      tag_51\n      jump\t// in\n    tag_98:\n        /* \"#utility.yul\":939:1002   */\n      swap2\n      pop\n        /* \"#utility.yul\":895:1012   */\n      pop\n        /* \"#utility.yul\":690:1019   */\n      swap3\n      swap2\n      pop\n      pop\n      jump\t// out\n        /* \"#utility.yul\":1025:1143   */\n    tag_52:\n        /* \"#utility.yul\":1112:1136   */\n      tag_100\n        /* \"#utility.yul\":1130:1135   */\n      dup2\n        /* \"#utility.yul\":1112:1136   */\n      tag_49\n      jump\t// in\n    tag_100:\n        /* \"#utility.yul\":1107:1110   */\n      dup3\n        /* \"#utility.yul\":1100:1137   */\n      mstore\n        /* \"#utility.yul\":1025:1143   */\n      pop\n      pop\n      jump\t// out\n        /* \"#utility.yul\":1149:1248   */\n    tag_53:\n        /* \"#utility.yul\":1201:1207   */\n      0x00\n        /* \"#utility.yul\":1235:1240   */\n      dup2\n        /* \"#utility.yul\":1229:1241   */\n      mload\n        /* \"#utility.yul\":1219:1241   */\n      swap1\n      pop\n        /* \"#utility.yul\":1149:1248   */\n      swap2\n      swap1\n      pop\n      jump\t// out\n        /* \"#utility.yul\":1254:1423   */\n    tag_54:\n        /* \"#utility.yul\":1338:1349   */\n      0x00\n        /* \"#utility.yul\":1372:1378   */\n      dup3\n        /* \"#utility.yul\":1367:1370   */\n      dup3\n        /* \"#utility.yul\":1360:1379   */\n      mstore\n        /* \"#utility.yul\":1412:1416   */\n      0x20\n        /* \"#utility.yul\":1407:1410   */\n      dup3\n        /* \"#utility.yul\":1403:1417   */\n      add\n        /* \"#utility.yul\":1388:1417   */\n      swap1\n      pop\n        /* \"#utility.yul\":1254:1423   */\n      swap3\n      swap2\n      pop\n      pop\n      jump\t// out\n        /* \"#utility.yul\":1429:1568   */\n    tag_55:\n        /* \"#utility.yul\":1518:1524   */\n      dup3\n        /* \"#utility.yul\":1513:1516   */\n      dup2\n        /* \"#utility.yul\":1508:1511   */\n      dup4\n        /* \"#utility.yul\":1502:1525   */\n      mcopy\n        /* \"#utility.yul\":1559:1560   */\n      0x00\n        /* \"#utility.yul\":1550:1556   */\n      dup4\n        /* \"#utility.yul\":1545:1548   */\n      dup4\n        /* \"#utility.yul\":1541:1557   */\n      add\n        /* \"#utility.yul\":1534:1561   */\n      mstore\n        /* \"#utility.yul\":1429:1568   */\n      pop\n      pop\n      pop\n      jump\t// out\n        /* \"#utility.yul\":1574:1676   */\n    tag_56:\n        /* \"#utility.yul\":1615:1621   */\n      0x00\n        /* \"#utility.yul\":1666:1668   */\n      0x1f\n        /* \"#utility.yul\":1662:1669   */\n      not\n        /* \"#utility.yul\":1657:1659   */\n      0x1f\n        /* \"#utility.yul\":1650:1655   */\n      dup4\n        /* \"#utility.yul\":1646:1660   */\n      add\n        /* \"#utility.yul\":1642:1670   */\n      and\n        /* \"#utility.yul\":1632:1670   */\n      swap1\n      pop\n        /* \"#utility.yul\":1574:1676   */\n      swap2\n      swap1\n      pop\n      jump\t// out\n        /* \"#utility.yul\":1682:2059   */\n    tag_57:\n        /* \"#utility.yul\":1770:1773   */\n      0x00\n        /* \"#utility.yul\":1798:1837   */\n      tag_106\n        /* \"#utility.yul\":1831:1836   */\n      dup3\n        /* \"#utility.yul\":1798:1837   */\n      tag_53\n      jump\t// in\n    tag_106:\n        /* \"#utility.yul\":1853:1924   */\n      tag_107\n        /* \"#utility.yul\":1917:1923   */\n      dup2\n        /* \"#utility.yul\":1912:1915   */\n      dup6\n        /* \"#utility.yul\":1853:1924   */\n      tag_54\n      jump\t// in\n    tag_107:\n        /* \"#utility.yul\":1846:1924   */\n      swap4\n      pop\n        /* \"#utility.yul\":1933:1998   */\n      tag_108\n        /* \"#utility.yul\":1991:1997   */\n      dup2\n        /* \"#utility.yul\":1986:1989   */\n      dup6\n        /* \"#utility.yul\":1979:1983   */\n      0x20\n        /* \"#utility.yul\":1972:1977   */\n      dup7\n        /* \"#utility.yul\":1968:1984   */\n      add\n        /* \"#utility.yul\":1933:1998   */\n      tag_55\n      jump\t// in\n    tag_108:\n        /* \"#utility.yul\":2023:2052   */\n      tag_109\n        /* \"#utility.yul\":2045:2051   */\n      dup2\n        /* \"#utility.yul\":2023:2052   */\n      tag_56\n      jump\t// in\n    tag_109:\n        /* \"#utility.yul\":2018:2021   */\n      dup5\n        /* \"#utility.yul\":2014:2053   */\n      add\n        /* \"#utility.yul\":2007:2053   */\n      swap2\n      pop\n        /* \"#utility.yul\":1774:2059   */\n      pop\n        /* \"#utility.yul\":1682:2059   */\n      swap3\n      swap2\n      pop\n      pop\n      jump\t// out\n        /* \"#utility.yul\":2065:2598   */\n    tag_11:\n        /* \"#utility.yul\":2234:2238   */\n      0x00\n        /* \"#utility.yul\":2272:2274   */\n      0x60\n        /* \"#utility.yul\":2261:2270   */\n      dup3\n        /* \"#utility.yul\":2257:2275   */\n      add\n        /* \"#utility.yul\":2249:2275   */\n      swap1\n      pop\n        /* \"#utility.yul\":2285:2356   */\n      tag_111\n        /* \"#utility.yul\":2353:2354   */\n      0x00\n        /* \"#utility.yul\":2342:2351   */\n      dup4\n        /* \"#utility.yul\":2338:2355   */\n      add\n        /* \"#utility.yul\":2329:2335   */\n      dup7\n        /* \"#utility.yul\":2285:2356   */\n      tag_52\n      jump\t// in\n    tag_111:\n        /* \"#utility.yul\":2403:2412   */\n      dup2\n        /* \"#utility.yul\":2397:2401   */\n      dup2\n        /* \"#utility.yul\":2393:2413   */\n      sub\n        /* \"#utility.yul\":2388:2390   */\n      0x20\n        /* \"#utility.yul\":2377:2386   */\n      dup4\n        /* \"#utility.yul\":2373:2391   */\n      add\n        /* \"#utility.yul\":2366:2414   */\n      mstore\n        /* \"#utility.yul\":2431:2509   */\n      tag_112\n        /* \"#utility.yul\":2504:2508   */\n      dup2\n        /* \"#utility.yul\":2495:2501   */\n      dup6\n        /* \"#utility.yul\":2431:2509   */\n      tag_57\n      jump\t// in\n    tag_112:\n        /* \"#utility.yul\":2423:2509   */\n      swap1\n      pop\n        /* \"#utility.yul\":2519:2591   */\n      tag_113\n        /* \"#utility.yul\":2587:2589   */\n      0x40\n        /* \"#utility.yul\":2576:2585   */\n      dup4\n        /* \"#utility.yul\":2572:2590   */\n      add\n        /* \"#utility.yul\":2563:2569   */\n      dup5\n        /* \"#utility.yul\":2519:2591   */\n      tag_52\n      jump\t// in\n    tag_113:\n        /* \"#utility.yul\":2065:2598   */\n      swap5\n      swap4\n      pop\n      pop\n      pop\n      pop\n      jump\t// out\n        /* \"#utility.yul\":2604:2721   */\n    tag_58:\n        /* \"#utility.yul\":2713:2714   */\n      0x00\n        /* \"#utility.yul\":2710:2711   */\n      0x00\n        /* \"#utility.yul\":2703:2715   */\n      revert\n        /* \"#utility.yul\":2727:2844   */\n    tag_59:\n        /* \"#utility.yul\":2836:2837   */\n      0x00\n        /* \"#utility.yul\":2833:2834   */\n      0x00\n        /* \"#utility.yul\":2826:2838   */\n      revert\n        /* \"#utility.yul\":2850:3030   */\n    tag_60:\n        /* \"#utility.yul\":2898:2975   */\n      0x4e487b7100000000000000000000000000000000000000000000000000000000\n        /* \"#utility.yul\":2895:2896   */\n      0x00\n        /* \"#utility.yul\":2888:2976   */\n      mstore\n        /* \"#utility.yul\":2995:2999   */\n      0x41\n        /* \"#utility.yul\":2992:2993   */\n      0x04\n        /* \"#utility.yul\":2985:3000   */\n      mstore\n        /* \"#utility.yul\":3019:3023   */\n      0x24\n        /* \"#utility.yul\":3016:3017   */\n      0x00\n        /* \"#utility.yul\":3009:3024   */\n      revert\n        /* \"#utility.yul\":3036:3317   */\n    tag_61:\n        /* \"#utility.yul\":3119:3146   */\n      tag_118\n        /* \"#utility.yul\":3141:3145   */\n      dup3\n        /* \"#utility.yul\":3119:3146   */\n      tag_56\n      jump\t// in\n    tag_118:\n        /* \"#utility.yul\":3111:3117   */\n      dup2\n        /* \"#utility.yul\":3107:3147   */\n      add\n        /* \"#utility.yul\":3249:3255   */\n      dup2\n        /* \"#utility.yul\":3237:3247   */\n      dup2\n        /* \"#utility.yul\":3234:3256   */\n      lt\n        /* \"#utility.yul\":3213:3231   */\n      0xffffffffffffffff\n        /* \"#utility.yul\":3201:3211   */\n      dup3\n        /* \"#utility.yul\":3198:3232   */\n      gt\n        /* \"#utility.yul\":3195:3257   */\n      or\n        /* \"#utility.yul\":3192:3280   */\n      iszero\n      tag_119\n      jumpi\n        /* \"#utility.yul\":3260:3278   */\n      tag_120\n      tag_60\n      jump\t// in\n    tag_120:\n        /* \"#utility.yul\":3192:3280   */\n    tag_119:\n        /* \"#utility.yul\":3300:3310   */\n      dup1\n        /* \"#utility.yul\":3296:3298   */\n      0x40\n        /* \"#utility.yul\":3289:3311   */\n      mstore\n        /* \"#utility.yul\":3079:3317   */\n      pop\n        /* \"#utility.yul\":3036:3317   */\n      pop\n      pop\n      jump\t// out\n        /* \"#utility.yul\":3323:3452   */\n    tag_62:\n        /* \"#utility.yul\":3357:3363   */\n      0x00\n        /* \"#utility.yul\":3384:3404   */\n      tag_122\n      tag_46\n      jump\t// in\n    tag_122:\n        /* \"#utility.yul\":3374:3404   */\n      swap1\n      pop\n        /* \"#utility.yul\":3413:3446   */\n      tag_123\n        /* \"#utility.yul\":3441:3445   */\n      dup3\n        /* \"#utility.yul\":3433:3439   */\n      dup3\n        /* \"#utility.yul\":3413:3446   */\n      tag_61\n      jump\t// in\n    tag_123:\n        /* \"#utility.yul\":3323:3452   */\n      swap2\n      swap1\n      pop\n      jump\t// out\n        /* \"#utility.yul\":3458:3766   */\n    tag_63:\n        /* \"#utility.yul\":3520:3524   */\n      0x00\n        /* \"#utility.yul\":3610:3628   */\n      0xffffffffffffffff\n        /* \"#utility.yul\":3602:3608   */\n      dup3\n        /* \"#utility.yul\":3599:3629   */\n      gt\n        /* \"#utility.yul\":3596:3652   */\n      iszero\n      tag_125\n      jumpi\n        /* \"#utility.yul\":3632:3650   */\n      tag_126\n      tag_60\n      jump\t// in\n    tag_126:\n        /* \"#utility.yul\":3596:3652   */\n    tag_125:\n        /* \"#utility.yul\":3670:3699   */\n      tag_127\n        /* \"#utility.yul\":3692:3698   */\n      dup3\n        /* \"#utility.yul\":3670:3699   */\n      tag_56\n      jump\t// in\n    tag_127:\n        /* \"#utility.yul\":3662:3699   */\n      swap1\n      pop\n        /* \"#utility.yul\":3754:3758   */\n      0x20\n        /* \"#utility.yul\":3748:3752   */\n      dup2\n        /* \"#utility.yul\":3744:3759   */\n      add\n        /* \"#utility.yul\":3736:3759   */\n      swap1\n      pop\n        /* \"#utility.yul\":3458:3766   */\n      swap2\n      swap1\n      pop\n      jump\t// out\n        /* \"#utility.yul\":3772:3920   */\n    tag_64:\n        /* \"#utility.yul\":3870:3876   */\n      dup3\n        /* \"#utility.yul\":3865:3868   */\n      dup2\n        /* \"#utility.yul\":3860:3863   */\n      dup4\n        /* \"#utility.yul\":3847:3877   */\n      calldatacopy\n        /* \"#utility.yul\":3911:3912   */\n      0x00\n        /* \"#utility.yul\":3902:3908   */\n      dup4\n        /* \"#utility.yul\":3897:3900   */\n      dup4\n        /* \"#utility.yul\":3893:3909   */\n      add\n        /* \"#utility.yul\":3886:3913   */\n      mstore\n        /* \"#utility.yul\":3772:3920   */\n      pop\n      pop\n      pop\n      jump\t// out\n        /* \"#utility.yul\":3926:4351   */\n    tag_65:\n        /* \"#utility.yul\":4004:4009   */\n      0x00\n        /* \"#utility.yul\":4029:4095   */\n      tag_130\n        /* \"#utility.yul\":4045:4094   */\n      tag_131\n        /* \"#utility.yul\":4087:4093   */\n      dup5\n        /* \"#utility.yul\":4045:4094   */\n      tag_63\n      jump\t// in\n    tag_131:\n        /* \"#utility.yul\":4029:4095   */\n      tag_62\n      jump\t// in\n    tag_130:\n        /* \"#utility.yul\":4020:4095   */\n      swap1\n      pop\n        /* \"#utility.yul\":4118:4124   */\n      dup3\n        /* \"#utility.yul\":4111:4116   */\n      dup2\n        /* \"#utility.yul\":4104:4125   */\n      mstore\n        /* \"#utility.yul\":4156:4160   */\n      0x20\n        /* \"#utility.yul\":4149:4154   */\n      dup2\n        /* \"#utility.yul\":4145:4161   */\n      add\n        /* \"#utility.yul\":4194:4197   */\n      dup5\n        /* \"#utility.yul\":4185:4191   */\n      dup5\n        /* \"#utility.yul\":4180:4183   */\n      dup5\n        /* \"#utility.yul\":4176:4192   */\n      add\n        /* \"#utility.yul\":4173:4198   */\n      gt\n        /* \"#utility.yul\":4170:4282   */\n      iszero\n      tag_132\n      jumpi\n        /* \"#utility.yul\":4201:4280   */\n      tag_133\n      tag_59\n      jump\t// in\n    tag_133:\n        /* \"#utility.yul\":4170:4282   */\n    tag_132:\n        /* \"#utility.yul\":4291:4345   */\n      tag_134\n        /* \"#utility.yul\":4338:4344   */\n      dup5\n        /* \"#utility.yul\":4333:4336   */\n      dup3\n        /* \"#utility.yul\":4328:4331   */\n      dup6\n        /* \"#utility.yul\":4291:4345   */\n      tag_64\n      jump\t// in\n    tag_134:\n        /* \"#utility.yul\":4010:4351   */\n      pop\n        /* \"#utility.yul\":3926:4351   */\n      swap4\n      swap3\n      pop\n      pop\n      pop\n      jump\t// out\n        /* \"#utility.yul\":4371:4711   */\n    tag_66:\n        /* \"#utility.yul\":4427:4432   */\n      0x00\n        /* \"#utility.yul\":4476:4479   */\n      dup3\n        /* \"#utility.yul\":4469:4473   */\n      0x1f\n        /* \"#utility.yul\":4461:4467   */\n      dup4\n        /* \"#utility.yul\":4457:4474   */\n      add\n        /* \"#utility.yul\":4453:4480   */\n      slt\n        /* \"#utility.yul\":4443:4565   */\n      tag_136\n      jumpi\n        /* \"#utility.yul\":4484:4563   */\n      tag_137\n      tag_58\n      jump\t// in\n    tag_137:\n        /* \"#utility.yul\":4443:4565   */\n    tag_136:\n        /* \"#utility.yul\":4601:4607   */\n      dup2\n        /* \"#utility.yul\":4588:4608   */\n      calldataload\n        /* \"#utility.yul\":4626:4705   */\n      tag_138\n        /* \"#utility.yul\":4701:4704   */\n      dup5\n        /* \"#utility.yul\":4693:4699   */\n      dup3\n        /* \"#utility.yul\":4686:4690   */\n      0x20\n        /* \"#utility.yul\":4678:4684   */\n      dup7\n        /* \"#utility.yul\":4674:4691   */\n      add\n        /* \"#utility.yul\":4626:4705   */\n      tag_65\n      jump\t// in\n    tag_138:\n        /* \"#utility.yul\":4617:4705   */\n      swap2\n      pop\n        /* \"#utility.yul\":4433:4711   */\n      pop\n        /* \"#utility.yul\":4371:4711   */\n      swap3\n      swap2\n      pop\n      pop\n      jump\t// out\n        /* \"#utility.yul\":4717:5516   */\n    tag_14:\n        /* \"#utility.yul\":4804:4810   */\n      0x00\n        /* \"#utility.yul\":4812:4818   */\n      0x00\n        /* \"#utility.yul\":4820:4826   */\n      0x00\n        /* \"#utility.yul\":4869:4871   */\n      0x60\n        /* \"#utility.yul\":4857:4866   */\n      dup5\n        /* \"#utility.yul\":4848:4855   */\n      dup7\n        /* \"#utility.yul\":4844:4867   */\n      sub\n        /* \"#utility.yul\":4840:4872   */\n      slt\n        /* \"#utility.yul\":4837:4956   */\n      iszero\n      tag_140\n      jumpi\n        /* \"#utility.yul\":4875:4954   */\n      tag_141\n      tag_47\n      jump\t// in\n    tag_141:\n        /* \"#utility.yul\":4837:4956   */\n    tag_140:\n        /* \"#utility.yul\":4995:4996   */\n      0x00\n        /* \"#utility.yul\":5020:5073   */\n      tag_142\n        /* \"#utility.yul\":5065:5072   */\n      dup7\n        /* \"#utility.yul\":5056:5062   */\n      dup3\n        /* \"#utility.yul\":5045:5054   */\n      dup8\n        /* \"#utility.yul\":5041:5063   */\n      add\n        /* \"#utility.yul\":5020:5073   */\n      tag_51\n      jump\t// in\n    tag_142:\n        /* \"#utility.yul\":5010:5073   */\n      swap4\n      pop\n        /* \"#utility.yul\":4966:5083   */\n      pop\n        /* \"#utility.yul\":5150:5152   */\n      0x20\n        /* \"#utility.yul\":5139:5148   */\n      dup5\n        /* \"#utility.yul\":5135:5153   */\n      add\n        /* \"#utility.yul\":5122:5154   */\n      calldataload\n        /* \"#utility.yul\":5181:5199   */\n      0xffffffffffffffff\n        /* \"#utility.yul\":5173:5179   */\n      dup2\n        /* \"#utility.yul\":5170:5200   */\n      gt\n        /* \"#utility.yul\":5167:5284   */\n      iszero\n      tag_143\n      jumpi\n        /* \"#utility.yul\":5203:5282   */\n      tag_144\n      tag_48\n      jump\t// in\n    tag_144:\n        /* \"#utility.yul\":5167:5284   */\n    tag_143:\n        /* \"#utility.yul\":5308:5371   */\n      tag_145\n        /* \"#utility.yul\":5363:5370   */\n      dup7\n        /* \"#utility.yul\":5354:5360   */\n      dup3\n        /* \"#utility.yul\":5343:5352   */\n      dup8\n        /* \"#utility.yul\":5339:5361   */\n      add\n        /* \"#utility.yul\":5308:5371   */\n      tag_66\n      jump\t// in\n    tag_145:\n        /* \"#utility.yul\":5298:5371   */\n      swap3\n      pop\n        /* \"#utility.yul\":5093:5381   */\n      pop\n        /* \"#utility.yul\":5420:5422   */\n      0x40\n        /* \"#utility.yul\":5446:5499   */\n      tag_146\n        /* \"#utility.yul\":5491:5498   */\n      dup7\n        /* \"#utility.yul\":5482:5488   */\n      dup3\n        /* \"#utility.yul\":5471:5480   */\n      dup8\n        /* \"#utility.yul\":5467:5489   */\n      add\n        /* \"#utility.yul\":5446:5499   */\n      tag_51\n      jump\t// in\n    tag_146:\n        /* \"#utility.yul\":5436:5499   */\n      swap2\n      pop\n        /* \"#utility.yul\":5391:5509   */\n      pop\n        /* \"#utility.yul\":4717:5516   */\n      swap3\n      pop\n      swap3\n      pop\n      swap3\n      jump\t// out\n        /* \"#utility.yul\":5522:5702   */\n    tag_67:\n        /* \"#utility.yul\":5570:5647   */\n      0x4e487b7100000000000000000000000000000000000000000000000000000000\n        /* \"#utility.yul\":5567:5568   */\n      0x00\n        /* \"#utility.yul\":5560:5648   */\n      mstore\n        /* \"#utility.yul\":5667:5671   */\n      0x22\n        /* \"#utility.yul\":5664:5665   */\n      0x04\n        /* \"#utility.yul\":5657:5672   */\n      mstore\n        /* \"#utility.yul\":5691:5695   */\n      0x24\n        /* \"#utility.yul\":5688:5689   */\n      0x00\n        /* \"#utility.yul\":5681:5696   */\n      revert\n        /* \"#utility.yul\":5708:6028   */\n    tag_21:\n        /* \"#utility.yul\":5752:5758   */\n      0x00\n        /* \"#utility.yul\":5789:5790   */\n      0x02\n        /* \"#utility.yul\":5783:5787   */\n      dup3\n        /* \"#utility.yul\":5779:5791   */\n      div\n        /* \"#utility.yul\":5769:5791   */\n      swap1\n      pop\n        /* \"#utility.yul\":5836:5837   */\n      0x01\n        /* \"#utility.yul\":5830:5834   */\n      dup3\n        /* \"#utility.yul\":5826:5838   */\n      and\n        /* \"#utility.yul\":5857:5875   */\n      dup1\n        /* \"#utility.yul\":5847:5928   */\n      tag_149\n      jumpi\n        /* \"#utility.yul\":5913:5917   */\n      0x7f\n        /* \"#utility.yul\":5905:5911   */\n      dup3\n        /* \"#utility.yul\":5901:5918   */\n      and\n        /* \"#utility.yul\":5891:5918   */\n      swap2\n      pop\n        /* \"#utility.yul\":5847:5928   */\n    tag_149:\n        /* \"#utility.yul\":5975:5977   */\n      0x20\n        /* \"#utility.yul\":5967:5973   */\n      dup3\n        /* \"#utility.yul\":5964:5978   */\n      lt\n        /* \"#utility.yul\":5944:5962   */\n      dup2\n        /* \"#utility.yul\":5941:5979   */\n      sub\n        /* \"#utility.yul\":5938:6022   */\n      tag_150\n      jumpi\n        /* \"#utility.yul\":5994:6012   */\n      tag_151\n      tag_67\n      jump\t// in\n    tag_151:\n        /* \"#utility.yul\":5938:6022   */\n    tag_150:\n        /* \"#utility.yul\":5759:6028   */\n      pop\n        /* \"#utility.yul\":5708:6028   */\n      swap2\n      swap1\n      pop\n      jump\t// out\n        /* \"#utility.yul\":6034:6201   */\n    tag_68:\n        /* \"#utility.yul\":6174:6193   */\n      0x53747564656e74206e6f7420666f756e64000000000000000000000000000000\n        /* \"#utility.yul\":6170:6171   */\n      0x00\n        /* \"#utility.yul\":6162:6168   */\n      dup3\n        /* \"#utility.yul\":6158:6172   */\n      add\n        /* \"#utility.yul\":6151:6194   */\n      mstore\n        /* \"#utility.yul\":6034:6201   */\n      pop\n      jump\t// out\n        /* \"#utility.yul\":6207:6573   */\n    tag_69:\n        /* \"#utility.yul\":6349:6352   */\n      0x00\n        /* \"#utility.yul\":6370:6437   */\n      tag_154\n        /* \"#utility.yul\":6434:6436   */\n      0x11\n        /* \"#utility.yul\":6429:6432   */\n      dup4\n        /* \"#utility.yul\":6370:6437   */\n      tag_54\n      jump\t// in\n    tag_154:\n        /* \"#utility.yul\":6363:6437   */\n      swap2\n      pop\n        /* \"#utility.yul\":6446:6539   */\n      tag_155\n        /* \"#utility.yul\":6535:6538   */\n      dup3\n        /* \"#utility.yul\":6446:6539   */\n      tag_68\n      jump\t// in\n    tag_155:\n        /* \"#utility.yul\":6564:6566   */\n      0x20\n        /* \"#utility.yul\":6559:6562   */\n      dup3\n        /* \"#utility.yul\":6555:6567   */\n      add\n        /* \"#utility.yul\":6548:6567   */\n      swap1\n      pop\n        /* \"#utility.yul\":6207:6573   */\n      swap2\n      swap1\n      pop\n      jump\t// out\n        /* \"#utility.yul\":6579:6998   */\n    tag_24:\n        /* \"#utility.yul\":6745:6749   */\n      0x00\n        /* \"#utility.yul\":6783:6785   */\n      0x20\n        /* \"#utility.yul\":6772:6781   */\n      dup3\n        /* \"#utility.yul\":6768:6786   */\n      add\n        /* \"#utility.yul\":6760:6786   */\n      swap1\n      pop\n        /* \"#utility.yul\":6832:6841   */\n      dup2\n        /* \"#utility.yul\":6826:6830   */\n      dup2\n        /* \"#utility.yul\":6822:6842   */\n      sub\n        /* \"#utility.yul\":6818:6819   */\n      0x00\n        /* \"#utility.yul\":6807:6816   */\n      dup4\n        /* \"#utility.yul\":6803:6820   */\n      add\n        /* \"#utility.yul\":6796:6843   */\n      mstore\n        /* \"#utility.yul\":6860:6991   */\n      tag_157\n        /* \"#utility.yul\":6986:6990   */\n      dup2\n        /* \"#utility.yul\":6860:6991   */\n      tag_69\n      jump\t// in\n    tag_157:\n        /* \"#utility.yul\":6852:6991   */\n      swap1\n      pop\n        /* \"#utility.yul\":6579:6998   */\n      swap2\n      swap1\n      pop\n      jump\t// out\n        /* \"#utility.yul\":7004:7145   */\n    tag_70:\n        /* \"#utility.yul\":7053:7057   */\n      0x00\n        /* \"#utility.yul\":7076:7079   */\n      dup2\n        /* \"#utility.yul\":7068:7079   */\n      swap1\n      pop\n        /* \"#utility.yul\":7099:7102   */\n      dup2\n        /* \"#utility.yul\":7096:7097   */\n      0x00\n        /* \"#utility.yul\":7089:7103   */\n      mstore\n        /* \"#utility.yul\":7133:7137   */\n      0x20\n        /* \"#utility.yul\":7130:7131   */\n      0x00\n        /* \"#utility.yul\":7120:7138   */\n      keccak256\n        /* \"#utility.yul\":7112:7138   */\n      swap1\n      pop\n        /* \"#utility.yul\":7004:7145   */\n      swap2\n      swap1\n      pop\n      jump\t// out\n        /* \"#utility.yul\":7151:7244   */\n    tag_71:\n        /* \"#utility.yul\":7188:7194   */\n      0x00\n        /* \"#utility.yul\":7235:7237   */\n      0x20\n        /* \"#utility.yul\":7230:7232   */\n      0x1f\n        /* \"#utility.yul\":7223:7228   */\n      dup4\n        /* \"#utility.yul\":7219:7233   */\n      add\n        /* \"#utility.yul\":7215:7238   */\n      div\n        /* \"#utility.yul\":7205:7238   */\n      swap1\n      pop\n        /* \"#utility.yul\":7151:7244   */\n      swap2\n      swap1\n      pop\n      jump\t// out\n        /* \"#utility.yul\":7250:7357   */\n    tag_72:\n        /* \"#utility.yul\":7294:7302   */\n      0x00\n        /* \"#utility.yul\":7344:7349   */\n      dup3\n        /* \"#utility.yul\":7338:7342   */\n      dup3\n        /* \"#utility.yul\":7334:7350   */\n      shl\n        /* \"#utility.yul\":7313:7350   */\n      swap1\n      pop\n        /* \"#utility.yul\":7250:7357   */\n      swap3\n      swap2\n      pop\n      pop\n      jump\t// out\n        /* \"#utility.yul\":7363:7756   */\n    tag_73:\n        /* \"#utility.yul\":7432:7438   */\n      0x00\n        /* \"#utility.yul\":7482:7483   */\n      0x08\n        /* \"#utility.yul\":7470:7480   */\n      dup4\n        /* \"#utility.yul\":7466:7484   */\n      mul\n        /* \"#utility.yul\":7505:7602   */\n      tag_162\n        /* \"#utility.yul\":7535:7601   */\n      0xffffffffffffffffffffffffffffffffffffffffffffffffffffffffffffffff\n        /* \"#utility.yul\":7524:7533   */\n      dup3\n        /* \"#utility.yul\":7505:7602   */\n      tag_72\n      jump\t// in\n    tag_162:\n        /* \"#utility.yul\":7623:7662   */\n      tag_163\n        /* \"#utility.yul\":7653:7661   */\n      dup7\n        /* \"#utility.yul\":7642:7651   */\n      dup4\n        /* \"#utility.yul\":7623:7662   */\n      tag_72\n      jump\t// in\n    tag_163:\n        /* \"#utility.yul\":7611:7662   */\n      swap6\n      pop\n        /* \"#utility.yul\":7695:7699   */\n      dup1\n        /* \"#utility.yul\":7691:7700   */\n      not\n        /* \"#utility.yul\":7684:7689   */\n      dup5\n        /* \"#utility.yul\":7680:7701   */\n      and\n        /* \"#utility.yul\":7671:7701   */\n      swap4\n      pop\n        /* \"#utility.yul\":7744:7748   */\n      dup1\n        /* \"#utility.yul\":7734:7742   */\n      dup7\n        /* \"#utility.yul\":7730:7749   */\n      and\n        /* \"#utility.yul\":7723:7728   */\n      dup5\n        /* \"#utility.yul\":7720:7750   */\n      or\n        /* \"#utility.yul\":7710:7750   */\n      swap3\n      pop\n        /* \"#utility.yul\":7439:7756   */\n      pop\n      pop\n        /* \"#utility.yul\":7363:7756   */\n      swap4\n      swap3\n      pop\n      pop\n      pop\n      jump\t// out\n        /* \"#utility.yul\":7762:7822   */\n    tag_74:\n        /* \"#utility.yul\":7790:7793   */\n      0x00\n        /* \"#utility.yul\":7811:7816   */\n      dup2\n        /* \"#utility.yul\":7804:7816   */\n      swap1\n      pop\n        /* \"#utility.yul\":7762:7822   */\n      swap2\n      swap1\n      pop\n      jump\t// out\n        /* \"#utility.yul\":7828:7970   */\n    tag_75:\n        /* \"#utility.yul\":7878:7887   */\n      0x00\n        /* \"#utility.yul\":7911:7964   */\n      tag_166\n        /* \"#utility.yul\":7929:7963   */\n      tag_167\n        /* \"#utility.yul\":7938:7962   */\n      tag_168\n        /* \"#utility.yul\":7956:7961   */\n      dup5\n        /* \"#utility.yul\":7938:7962   */\n      tag_49\n      jump\t// in\n    tag_168:\n        /* \"#utility.yul\":7929:7963   */\n      tag_74\n      jump\t// in\n    tag_167:\n        /* \"#utility.yul\":7911:7964   */\n      tag_49\n      jump\t// in\n    tag_166:\n        /* \"#utility.yul\":7898:7964   */\n      swap1\n      pop\n        /* \"#utility.yul\":7828:7970   */\n      swap2\n      swap1\n      pop\n      jump\t// out\n        /* \"#utility.yul\":7976:8051   */\n    tag_76:\n        /* \"#utility.yul\":8019:8022   */\n      0x00\n        /* \"#utility.yul\":8040:8045   */\n      dup2\n        /* \"#utility.yul\":8033:8045   */\n      swap1\n      pop\n        /* \"#utility.yul\":7976:8051   */\n      swap2\n      swap1\n      pop\n      jump\t// out\n        /* \"#utility.yul\":8057:8326   */\n    tag_77:\n        /* \"#utility.yul\":8167:8206   */\n      tag_171\n        /* \"#utility.yul\":8198:8205   */\n      dup4\n        /* \"#utility.yul\":8167:8206   */\n      tag_75\n      jump\t// in\n    tag_171:\n        /* \"#utility.yul\":8228:8319   */\n      tag_172\n        /* \"#utility.yul\":8277:8318   */\n      tag_173\n        /* \"#utility.yul\":8301:8317   */\n      dup3\n        /* \"#utility.yul\":8277:8318   */\n      tag_76\n      jump\t// in\n    tag_173:\n        /* \"#utility.yul\":8269:8275   */\n      dup5\n        /* \"#utility.yul\":8262:8266   */\n      dup5\n        /* \"#utility.yul\":8256:8267   */\n      sload\n        /* \"#utility.yul\":8228:8319   */\n      tag_73\n      jump\t// in\n    tag_172:\n        /* \"#utility.yul\":8222:8226   */\n      dup3\n        /* \"#utility.yul\":8215:8320   */\n      sstore\n        /* \"#utility.yul\":8133:8326   */\n      pop\n        /* \"#utility.yul\":8057:8326   */\n      pop\n      pop\n      pop\n      jump\t// out\n        /* \"#utility.yul\":8332:8405   */\n    tag_78:\n        /* \"#utility.yul\":8377:8380   */\n      0x00\n        /* \"#utility.yul\":8398:8399   */\n      0x00\n        /* \"#utility.yul\":8391:8399   */\n      swap1\n      pop\n        /* \"#utility.yul\":8332:8405   */\n      swap1\n      jump\t// out\n        /* \"#utility.yul\":8411:8600   */\n    tag_79:\n        /* \"#utility.yul\":8488:8520   */\n      tag_176\n      tag_78\n      jump\t// in\n    tag_176:\n        /* \"#utility.yul\":8529:8594   */\n      tag_177\n        /* \"#utility.yul\":8587:8593   */\n      dup2\n        /* \"#utility.yul\":8579:8585   */\n      dup5\n        /* \"#utility.yul\":8573:8577   */\n      dup5\n        /* \"#utility.yul\":8529:8594   */\n      tag_77\n      jump\t// in\n    tag_177:\n        /* \"#utility.yul\":8464:8600   */\n      pop\n        /* \"#utility.yul\":8411:8600   */\n      pop\n      pop\n      jump\t// out\n        /* \"#utility.yul\":8606:8792   */\n    tag_80:\n        /* \"#utility.yul\":8666:8786   */\n    tag_179:\n        /* \"#utility.yul\":8683:8686   */\n      dup2\n        /* \"#utility.yul\":8676:8681   */\n      dup2\n        /* \"#utility.yul\":8673:8687   */\n      lt\n        /* \"#utility.yul\":8666:8786   */\n      iszero\n      tag_181\n      jumpi\n        /* \"#utility.yul\":8737:8776   */\n      tag_182\n        /* \"#utility.yul\":8774:8775   */\n      0x00\n        /* \"#utility.yul\":8767:8772   */\n      dup3\n        /* \"#utility.yul\":8737:8776   */\n      tag_79\n      jump\t// in\n    tag_182:\n        /* \"#utility.yul\":8710:8711   */\n      0x01\n        /* \"#utility.yul\":8703:8708   */\n      dup2\n        /* \"#utility.yul\":8699:8712   */\n      add\n        /* \"#utility.yul\":8690:8712   */\n      swap1\n      pop\n        /* \"#utility.yul\":8666:8786   */\n      jump(tag_179)\n    tag_181:\n        /* \"#utility.yul\":8606:8792   */\n      pop\n      pop\n      jump\t// out\n        /* \"#utility.yul\":8798:9341   */\n    tag_81:\n        /* \"#utility.yul\":8899:8901   */\n      0x1f\n        /* \"#utility.yul\":8894:8897   */\n      dup3\n        /* \"#utility.yul\":8891:8902   */\n      gt\n        /* \"#utility.yul\":8888:9334   */\n      iszero\n      tag_184\n      jumpi\n        /* \"#utility.yul\":8933:8971   */\n      tag_185\n        /* \"#utility.yul\":8965:8970   */\n      dup2\n        /* \"#utility.yul\":8933:8971   */\n      tag_70\n      jump\t// in\n    tag_185:\n        /* \"#utility.yul\":9017:9046   */\n      tag_186\n        /* \"#utility.yul\":9035:9045   */\n      dup5\n        /* \"#utility.yul\":9017:9046   */\n      tag_71\n      jump\t// in\n    tag_186:\n        /* \"#utility.yul\":9007:9015   */\n      dup2\n        /* \"#utility.yul\":9003:9047   */\n      add\n        /* \"#utility.yul\":9200:9202   */\n      0x20\n        /* \"#utility.yul\":9188:9198   */\n      dup6\n        /* \"#utility.yul\":9185:9203   */\n      lt\n        /* \"#utility.yul\":9182:9231   */\n      iszero\n      tag_187\n      jumpi\n        /* \"#utility.yul\":9221:9229   */\n      dup2\n        /* \"#utility.yul\":9206:9229   */\n      swap1\n      pop\n        /* \"#utility.yul\":9182:9231   */\n    tag_187:\n        /* \"#utility.yul\":9244:9324   */\n      tag_188\n        /* \"#utility.yul\":9300:9322   */\n      tag_189\n        /* \"#utility.yul\":9318:9321   */\n      dup6\n        /* \"#utility.yul\":9300:9322   */\n      tag_71\n      jump\t// in\n    tag_189:\n        /* \"#utility.yul\":9290:9298   */\n      dup4\n        /* \"#utility.yul\":9286:9323   */\n      add\n        /* \"#utility.yul\":9273:9284   */\n      dup3\n        /* \"#utility.yul\":9244:9324   */\n      tag_80\n      jump\t// in\n    tag_188:\n        /* \"#utility.yul\":8903:9334   */\n      pop\n      pop\n        /* \"#utility.yul\":8888:9334   */\n    tag_184:\n        /* \"#utility.yul\":8798:9341   */\n      pop\n      pop\n      pop\n      jump\t// out\n        /* \"#utility.yul\":9347:9464   */\n    tag_82:\n        /* \"#utility.yul\":9401:9409   */\n      0x00\n        /* \"#utility.yul\":9451:9456   */\n      dup3\n        /* \"#utility.yul\":9445:9449   */\n      dup3\n        /* \"#utility.yul\":9441:9457   */\n      shr\n        /* \"#utility.yul\":9420:9457   */\n      swap1\n      pop\n        /* \"#utility.yul\":9347:9464   */\n      swap3\n      swap2\n      pop\n      pop\n      jump\t// out\n        /* \"#utility.yul\":9470:9639   */\n    tag_83:\n        /* \"#utility.yul\":9514:9520   */\n      0x00\n        /* \"#utility.yul\":9547:9598   */\n      tag_192\n        /* \"#utility.yul\":9595:9596   */\n      0x00\n        /* \"#utility.yul\":9591:9597   */\n      not\n        /* \"#utility.yul\":9583:9588   */\n      dup5\n        /* \"#utility.yul\":9580:9581   */\n      0x08\n        /* \"#utility.yul\":9576:9589   */\n      mul\n        /* \"#utility.yul\":9547:9598   */\n      tag_82\n      jump\t// in\n    tag_192:\n        /* \"#utility.yul\":9543:9599   */\n      not\n        /* \"#utility.yul\":9628:9632   */\n      dup1\n        /* \"#utility.yul\":9622:9626   */\n      dup4\n        /* \"#utility.yul\":9618:9633   */\n      and\n        /* \"#utility.yul\":9608:9633   */\n      swap2\n      pop\n        /* \"#utility.yul\":9521:9639   */\n      pop\n        /* \"#utility.yul\":9470:9639   */\n      swap3\n      swap2\n      pop\n      pop\n      jump\t// out\n        /* \"#utility.yul\":9644:9939   */\n    tag_84:\n        /* \"#utility.yul\":9720:9724   */\n      0x00\n        /* \"#utility.yul\":9866:9895   */\n      tag_194\n        /* \"#utility.yul\":9891:9894   */\n      dup4\n        /* \"#utility.yul\":9885:9889   */\n      dup4\n        /* \"#utility.yul\":9866:9895   */\n      tag_83\n      jump\t// in\n    tag_194:\n        /* \"#utility.yul\":9858:9895   */\n      swap2\n      pop\n        /* \"#utility.yul\":9928:9931   */\n      dup3\n        /* \"#utility.yul\":9925:9926   */\n      0x02\n        /* \"#utility.yul\":9921:9932   */\n      mul\n        /* \"#utility.yul\":9915:9919   */\n      dup3\n        /* \"#utility.yul\":9912:9933   */\n      or\n        /* \"#utility.yul\":9904:9933   */\n      swap1\n      pop\n        /* \"#utility.yul\":9644:9939   */\n      swap3\n      swap2\n      pop\n      pop\n      jump\t// out\n        /* \"#utility.yul\":9944:11339   */\n    tag_32:\n        /* \"#utility.yul\":10061:10098   */\n      tag_196\n        /* \"#utility.yul\":10094:10097   */\n      dup3\n        /* \"#utility.yul\":10061:10098   */\n      tag_53\n      jump\t// in\n    tag_196:\n        /* \"#utility.yul\":10163:10181   */\n      0xffffffffffffffff\n        /* \"#utility.yul\":10155:10161   */\n      dup2\n        /* \"#utility.yul\":10152:10182   */\n      gt\n        /* \"#utility.yul\":10149:10205   */\n      iszero\n      tag_197\n      jumpi\n        /* \"#utility.yul\":10185:10203   */\n      tag_198\n      tag_60\n      jump\t// in\n    tag_198:\n        /* \"#utility.yul\":10149:10205   */\n    tag_197:\n        /* \"#utility.yul\":10229:10267   */\n      tag_199\n        /* \"#utility.yul\":10261:10265   */\n      dup3\n        /* \"#utility.yul\":10255:10266   */\n      sload\n        /* \"#utility.yul\":10229:10267   */\n      tag_21\n      jump\t// in\n    tag_199:\n        /* \"#utility.yul\":10314:10381   */\n      tag_200\n        /* \"#utility.yul\":10374:10380   */\n      dup3\n        /* \"#utility.yul\":10366:10372   */\n      dup3\n        /* \"#utility.yul\":10360:10364   */\n      dup6\n        /* \"#utility.yul\":10314:10381   */\n      tag_81\n      jump\t// in\n    tag_200:\n        /* \"#utility.yul\":10408:10409   */\n      0x00\n        /* \"#utility.yul\":10432:10436   */\n      0x20\n        /* \"#utility.yul\":10419:10436   */\n      swap1\n      pop\n        /* \"#utility.yul\":10464:10466   */\n      0x1f\n        /* \"#utility.yul\":10456:10462   */\n      dup4\n        /* \"#utility.yul\":10453:10467   */\n      gt\n        /* \"#utility.yul\":10481:10482   */\n      0x01\n        /* \"#utility.yul\":10476:11094   */\n      dup2\n      eq\n      tag_202\n      jumpi\n        /* \"#utility.yul\":11138:11139   */\n      0x00\n        /* \"#utility.yul\":11155:11161   */\n      dup5\n        /* \"#utility.yul\":11152:11229   */\n      iszero\n      tag_203\n      jumpi\n        /* \"#utility.yul\":11204:11213   */\n      dup3\n        /* \"#utility.yul\":11199:11202   */\n      dup8\n        /* \"#utility.yul\":11195:11214   */\n      add\n        /* \"#utility.yul\":11189:11215   */\n      mload\n        /* \"#utility.yul\":11180:11215   */\n      swap1\n      pop\n        /* \"#utility.yul\":11152:11229   */\n    tag_203:\n        /* \"#utility.yul\":11255:11322   */\n      tag_204\n        /* \"#utility.yul\":11315:11321   */\n      dup6\n        /* \"#utility.yul\":11308:11313   */\n      dup3\n        /* \"#utility.yul\":11255:11322   */\n      tag_84\n      jump\t// in\n    tag_204:\n        /* \"#utility.yul\":11249:11253   */\n      dup7\n        /* \"#utility.yul\":11242:11323   */\n      sstore\n        /* \"#utility.yul\":11111:11333   */\n      pop\n        /* \"#utility.yul\":10446:11333   */\n      jump(tag_201)\n        /* \"#utility.yul\":10476:11094   */\n    tag_202:\n        /* \"#utility.yul\":10528:10532   */\n      0x1f\n        /* \"#utility.yul\":10524:10533   */\n      not\n        /* \"#utility.yul\":10516:10522   */\n      dup5\n        /* \"#utility.yul\":10512:10534   */\n      and\n        /* \"#utility.yul\":10562:10599   */\n      tag_205\n        /* \"#utility.yul\":10594:10598   */\n      dup7\n        /* \"#utility.yul\":10562:10599   */\n      tag_70\n      jump\t// in\n    tag_205:\n        /* \"#utility.yul\":10621:10622   */\n      0x00\n        /* \"#utility.yul\":10635:10843   */\n    tag_206:\n        /* \"#utility.yul\":10649:10656   */\n      dup3\n        /* \"#utility.yul\":10646:10647   */\n      dup2\n        /* \"#utility.yul\":10643:10657   */\n      lt\n        /* \"#utility.yul\":10635:10843   */\n      iszero\n      tag_208\n      jumpi\n        /* \"#utility.yul\":10728:10737   */\n      dup5\n        /* \"#utility.yul\":10723:10726   */\n      dup10\n        /* \"#utility.yul\":10719:10738   */\n      add\n        /* \"#utility.yul\":10713:10739   */\n      mload\n        /* \"#utility.yul\":10705:10711   */\n      dup3\n        /* \"#utility.yul\":10698:10740   */\n      sstore\n        /* \"#utility.yul\":10779:10780   */\n      0x01\n        /* \"#utility.yul\":10771:10777   */\n      dup3\n        /* \"#utility.yul\":10767:10781   */\n      add\n        /* \"#utility.yul\":10757:10781   */\n      swap2\n      pop\n        /* \"#utility.yul\":10826:10828   */\n      0x20\n        /* \"#utility.yul\":10815:10824   */\n      dup6\n        /* \"#utility.yul\":10811:10829   */\n      add\n        /* \"#utility.yul\":10798:10829   */\n      swap5\n      pop\n        /* \"#utility.yul\":10672:10676   */\n      0x20\n        /* \"#utility.yul\":10669:10670   */\n      dup2\n        /* \"#utility.yul\":10665:10677   */\n      add\n        /* \"#utility.yul\":10660:10677   */\n      swap1\n      pop\n        /* \"#utility.yul\":10635:10843   */\n      jump(tag_206)\n    tag_208:\n        /* \"#utility.yul\":10871:10877   */\n      dup7\n        /* \"#utility.yul\":10862:10869   */\n      dup4\n        /* \"#utility.yul\":10859:10878   */\n      lt\n        /* \"#utility.yul\":10856:11035   */\n      iszero\n      tag_209\n      jumpi\n        /* \"#utility.yul\":10929:10938   */\n      dup5\n        /* \"#utility.yul\":10924:10927   */\n      dup10\n        /* \"#utility.yul\":10920:10939   */\n      add\n        /* \"#utility.yul\":10914:10940   */\n      mload\n        /* \"#utility.yul\":10972:11020   */\n      tag_210\n        /* \"#utility.yul\":11014:11018   */\n      0x1f\n        /* \"#utility.yul\":11006:11012   */\n      dup10\n        /* \"#utility.yul\":11002:11019   */\n      and\n        /* \"#utility.yul\":10991:11000   */\n      dup3\n        /* \"#utility.yul\":10972:11020   */\n      tag_83\n      jump\t// in\n    tag_210:\n        /* \"#utility.yul\":10964:10970   */\n      dup4\n        /* \"#utility.yul\":10957:11021   */\n      sstore\n        /* \"#utility.yul\":10879:11035   */\n      pop\n        /* \"#utility.yul\":10856:11035   */\n    tag_209:\n        /* \"#utility.yul\":11081:11082   */\n      0x01\n        /* \"#utility.yul\":11077:11078   */\n      0x02\n        /* \"#utility.yul\":11069:11075   */\n      dup9\n        /* \"#utility.yul\":11065:11079   */\n      mul\n        /* \"#utility.yul\":11061:11083   */\n      add\n        /* \"#utility.yul\":11055:11059   */\n      dup9\n        /* \"#utility.yul\":11048:11084   */\n      sstore\n        /* \"#utility.yul\":10483:11094   */\n      pop\n      pop\n      pop\n        /* \"#utility.yul\":10446:11333   */\n    tag_201:\n      pop\n        /* \"#utility.yul\":10036:11339   */\n      pop\n      pop\n      pop\n        /* \"#utility.yul\":9944:11339   */\n      pop\n      pop\n      jump\t// out\n\n    auxdata: 0xa2646970667358221220d0ceae74b180721efdf54ddac1f2f28418dfec3811bc4d6a15189a1068d3e9aa64736f6c634300081e0033\n}\n",
				"bytecode": {
					"linkReferences": {},
					"object": "6080604052348015600e575f5ffd5b506109618061001c5f395ff3fe608060405234801561000f575f5ffd5b506004361061003f575f3560e01c8063642f9163146100435780639e15922614610075578063b645307d14610091575b5f5ffd5b61005d60048036038101906100589190610379565b6100ad565b60405161006c93929190610423565b60405180910390f35b61008f600480360381019061008a919061058b565b6101ef565b005b6100ab60048036038101906100a69190610379565b61024a565b005b5f60605f5f5f5f8681526020019081526020015f2060010180546100d090610624565b905003610112576040517f08c379a00000000000000000000000000000000000000000000000000000000081526004016101099061069e565b60405180910390fd5b5f5f5f8681526020019081526020015f206040518060600160405290815f820154815260200160018201805461014790610624565b80601f016020809104026020016040519081016040528092919081815260200182805461017390610624565b80156101be5780601f10610195576101008083540402835291602001916101be565b820191905f5260205f20905b8154815290600101906020018083116101a157829003601f168201915b505050505081526020016002820154815250509050805f015181602001518260400151935093509350509193909250565b6040518060600160405280848152602001838152602001828152505f5f8581526020019081526020015f205f820151815f01556020820151816001019081610237919061085c565b5060408201518160020155905050505050565b5f5f5f8381526020019081526020015f20600101805461026990610624565b9050036102ab576040517f08c379a00000000000000000000000000000000000000000000000000000000081526004016102a29061069e565b60405180910390fd5b5f5f8281526020019081526020015f205f5f82015f9055600182015f6102d191906102dd565b600282015f9055505050565b5080546102e990610624565b5f825580601f106102fa5750610317565b601f0160209004905f5260205f2090810190610316919061031a565b5b50565b5b80821115610331575f815f90555060010161031b565b5090565b5f604051905090565b5f5ffd5b5f5ffd5b5f819050919050565b61035881610346565b8114610362575f5ffd5b50565b5f813590506103738161034f565b92915050565b5f6020828403121561038e5761038d61033e565b5b5f61039b84828501610365565b91505092915050565b6103ad81610346565b82525050565b5f81519050919050565b5f82825260208201905092915050565b8281835e5f83830152505050565b5f601f19601f8301169050919050565b5f6103f5826103b3565b6103ff81856103bd565b935061040f8185602086016103cd565b610418816103db565b840191505092915050565b5f6060820190506104365f8301866103a4565b818103602083015261044881856103eb565b905061045760408301846103a4565b949350505050565b5f5ffd5b5f5ffd5b7f4e487b71000000000000000000000000000000000000000000000000000000005f52604160045260245ffd5b61049d826103db565b810181811067ffffffffffffffff821117156104bc576104bb610467565b5b80604052505050565b5f6104ce610335565b90506104da8282610494565b919050565b5f67ffffffffffffffff8211156104f9576104f8610467565b5b610502826103db565b9050602081019050919050565b828183375f83830152505050565b5f61052f61052a846104df565b6104c5565b90508281526020810184848401111561054b5761054a610463565b5b61055684828561050f565b509392505050565b5f82601f8301126105725761057161045f565b5b813561058284826020860161051d565b91505092915050565b5f5f5f606084860312156105a2576105a161033e565b5b5f6105af86828701610365565b935050602084013567ffffffffffffffff8111156105d0576105cf610342565b5b6105dc8682870161055e565b92505060406105ed86828701610365565b9150509250925092565b7f4e487b71000000000000000000000000000000000000000000000000000000005f52602260045260245ffd5b5f600282049050600182168061063b57607f821691505b60208210810361064e5761064d6105f7565b5b50919050565b7f53747564656e74206e6f7420666f756e640000000000000000000000000000005f82015250565b5f6106886011836103bd565b915061069382610654565b602082019050919050565b5f6020820190508181035f8301526106b58161067c565b9050919050565b5f819050815f5260205f209050919050565b5f6020601f8301049050919050565b5f82821b905092915050565b5f600883026107187fffffffffffffffffffffffffffffffffffffffffffffffffffffffffffffffff826106dd565b61072286836106dd565b95508019841693508086168417925050509392505050565b5f819050919050565b5f61075d61075861075384610346565b61073a565b610346565b9050919050565b5f819050919050565b61077683610743565b61078a61078282610764565b8484546106e9565b825550505050565b5f5f905090565b6107a1610792565b6107ac81848461076d565b505050565b5b818110156107cf576107c45f82610799565b6001810190506107b2565b5050565b601f821115610814576107e5816106bc565b6107ee846106ce565b810160208510156107fd578190505b610811610809856106ce565b8301826107b1565b50505b505050565b5f82821c905092915050565b5f6108345f1984600802610819565b1980831691505092915050565b5f61084c8383610825565b9150826002028217905092915050565b610865826103b3565b67ffffffffffffffff81111561087e5761087d610467565b5b6108888254610624565b6108938282856107d3565b5f60209050601f8311600181146108c4575f84156108b2578287015190505b6108bc8582610841565b865550610923565b601f1984166108d2866106bc565b5f5b828110156108f9578489015182556001820191506020850194506020810190506108d4565b868310156109165784890151610912601f891682610825565b8355505b6001600288020188555050505b50505050505056fea2646970667358221220d0ceae74b180721efdf54ddac1f2f28418dfec3811bc4d6a15189a1068d3e9aa64736f6c634300081e0033",
					"opcodes": "PUSH1 0x80 PUSH1 0x40 MSTORE CALLVALUE DUP1 ISZERO PUSH1 0xE JUMPI PUSH0 PUSH0 REVERT JUMPDEST POP PUSH2 0x961 DUP1 PUSH2 0x1C PUSH0 CODECOPY PUSH0 RETURN INVALID PUSH1 0x80 PUSH1 0x40 MSTORE CALLVALUE DUP1 ISZERO PUSH2 0xF JUMPI PUSH0 PUSH0 REVERT JUMPDEST POP PUSH1 0x4 CALLDATASIZE LT PUSH2 0x3F JUMPI PUSH0 CALLDATALOAD PUSH1 0xE0 SHR DUP1 PUSH4 0x642F9163 EQ PUSH2 0x43 JUMPI DUP1 PUSH4 0x9E159226 EQ PUSH2 0x75 JUMPI DUP1 PUSH4 0xB645307D EQ PUSH2 0x91 JUMPI JUMPDEST PUSH0 PUSH0 REVERT JUMPDEST PUSH2 0x5D PUSH1 0x4 DUP1 CALLDATASIZE SUB DUP2 ADD SWAP1 PUSH2 0x58 SWAP2 SWAP1 PUSH2 0x379 JUMP JUMPDEST PUSH2 0xAD JUMP JUMPDEST PUSH1 0x40 MLOAD PUSH2 0x6C SWAP4 SWAP3 SWAP2 SWAP1 PUSH2 0x423 JUMP JUMPDEST PUSH1 0x40 MLOAD DUP1 SWAP2 SUB SWAP1 RETURN JUMPDEST PUSH2 0x8F PUSH1 0x4 DUP1 CALLDATASIZE SUB DUP2 ADD SWAP1 PUSH2 0x8A SWAP2 SWAP1 PUSH2 0x58B JUMP JUMPDEST PUSH2 0x1EF JUMP JUMPDEST STOP JUMPDEST PUSH2 0xAB PUSH1 0x4 DUP1 CALLDATASIZE SUB DUP2 ADD SWAP1 PUSH2 0xA6 SWAP2 SWAP1 PUSH2 0x379 JUMP JUMPDEST PUSH2 0x24A JUMP JUMPDEST STOP JUMPDEST PUSH0 PUSH1 0x60 PUSH0 PUSH0 PUSH0 PUSH0 DUP7 DUP2 MSTORE PUSH1 0x20 ADD SWAP1 DUP2 MSTORE PUSH1 0x20 ADD PUSH0 KECCAK256 PUSH1 0x1 ADD DUP1 SLOAD PUSH2 0xD0 SWAP1 PUSH2 0x624 JUMP JUMPDEST SWAP1 POP SUB PUSH2 0x112 JUMPI PUSH1 0x40 MLOAD PUSH32 0x8C379A000000000000000000000000000000000000000000000000000000000 DUP2 MSTORE PUSH1 0x4 ADD PUSH2 0x109 SWAP1 PUSH2 0x69E JUMP JUMPDEST PUSH1 0x40 MLOAD DUP1 SWAP2 SUB SWAP1 REVERT JUMPDEST PUSH0 PUSH0 PUSH0 DUP7 DUP2 MSTORE PUSH1 0x20 ADD SWAP1 DUP2 MSTORE PUSH1 0x20 ADD PUSH0 KECCAK256 PUSH1 0x40 MLOAD DUP1 PUSH1 0x60 ADD PUSH1 0x40 MSTORE SWAP1 DUP2 PUSH0 DUP3 ADD SLOAD DUP2 MSTORE PUSH1 0x20 ADD PUSH1 0x1 DUP3 ADD DUP1 SLOAD PUSH2 0x147 SWAP1 PUSH2 0x624 JUMP JUMPDEST DUP1 PUSH1 0x1F ADD PUSH1 0x20 DUP1 SWAP2 DIV MUL PUSH1 0x20 ADD PUSH1 0x40 MLOAD SWAP1 DUP2 ADD PUSH1 0x40 MSTORE DUP1 SWAP3 SWAP2 SWAP1 DUP2 DUP2 MSTORE PUSH1 0x20 ADD DUP3 DUP1 SLOAD PUSH2 0x173 SWAP1 PUSH2 0x624 JUMP JUMPDEST DUP1 ISZERO PUSH2 0x1BE JUMPI DUP1 PUSH1 0x1F LT PUSH2 0x195 JUMPI PUSH2 0x100 DUP1 DUP4 SLOAD DIV MUL DUP4 MSTORE SWAP2 PUSH1 0x20 ADD SWAP2 PUSH2 0x1BE JUMP JUMPDEST DUP3 ADD SWAP2 SWAP1 PUSH0 MSTORE PUSH1 0x20 PUSH0 KECCAK256 SWAP1 JUMPDEST DUP2 SLOAD DUP2 MSTORE SWAP1 PUSH1 0x1 ADD SWAP1 PUSH1 0x20 ADD DUP1 DUP4 GT PUSH2 0x1A1 JUMPI DUP3 SWAP1 SUB PUSH1 0x1F AND DUP3 ADD SWAP2 JUMPDEST POP POP POP POP POP DUP2 MSTORE PUSH1 0x20 ADD PUSH1 0x2 DUP3 ADD SLOAD DUP2 MSTORE POP POP SWAP1 POP DUP1 PUSH0 ADD MLOAD DUP2 PUSH1 0x20 ADD MLOAD DUP3 PUSH1 0x40 ADD MLOAD SWAP4 POP SWAP4 POP SWAP4 POP POP SWAP2 SWAP4 SWAP1 SWAP3 POP JUMP JUMPDEST PUSH1 0x40 MLOAD DUP1 PUSH1 0x60 ADD PUSH1 0x40 MSTORE DUP1 DUP5 DUP2 MSTORE PUSH1 0x20 ADD DUP4 DUP2 MSTORE PUSH1 0x20 ADD DUP3 DUP2 MSTORE POP PUSH0 PUSH0 DUP6 DUP2 MSTORE PUSH1 0x20 ADD SWAP1 DUP2 MSTORE PUSH1 0x20 ADD PUSH0 KECCAK256 PUSH0 DUP3 ADD MLOAD DUP2 PUSH0 ADD SSTORE PUSH1 0x20 DUP3 ADD MLOAD DUP2 PUSH1 0x1 ADD SWAP1 DUP2 PUSH2 0x237 SWAP2 SWAP1 PUSH2 0x85C JUMP JUMPDEST POP PUSH1 0x40 DUP3 ADD MLOAD DUP2 PUSH1 0x2 ADD SSTORE SWAP1 POP POP POP POP POP JUMP JUMPDEST PUSH0 PUSH0 PUSH0 DUP4 DUP2 MSTORE PUSH1 0x20 ADD SWAP1 DUP2 MSTORE PUSH1 0x20 ADD PUSH0 KECCAK256 PUSH1 0x1 ADD DUP1 SLOAD PUSH2 0x269 SWAP1 PUSH2 0x624 JUMP JUMPDEST SWAP1 POP SUB PUSH2 0x2AB JUMPI PUSH1 0x40 MLOAD PUSH32 0x8C379A000000000000000000000000000000000000000000000000000000000 DUP2 MSTORE PUSH1 0x4 ADD PUSH2 0x2A2 SWAP1 PUSH2 0x69E JUMP JUMPDEST PUSH1 0x40 MLOAD DUP1 SWAP2 SUB SWAP1 REVERT JUMPDEST PUSH0 PUSH0 DUP3 DUP2 MSTORE PUSH1 0x20 ADD SWAP1 DUP2 MSTORE PUSH1 0x20 ADD PUSH0 KECCAK256 PUSH0 PUSH0 DUP3 ADD PUSH0 SWAP1 SSTORE PUSH1 0x1 DUP3 ADD PUSH0 PUSH2 0x2D1 SWAP2 SWAP1 PUSH2 0x2DD JUMP JUMPDEST PUSH1 0x2 DUP3 ADD PUSH0 SWAP1 SSTORE POP POP POP JUMP JUMPDEST POP DUP1 SLOAD PUSH2 0x2E9 SWAP1 PUSH2 0x624 JUMP JUMPDEST PUSH0 DUP3 SSTORE DUP1 PUSH1 0x1F LT PUSH2 0x2FA JUMPI POP PUSH2 0x317 JUMP JUMPDEST PUSH1 0x1F ADD PUSH1 0x20 SWAP1 DIV SWAP1 PUSH0 MSTORE PUSH1 0x20 PUSH0 KECCAK256 SWAP1 DUP2 ADD SWAP1 PUSH2 0x316 SWAP2 SWAP1 PUSH2 0x31A JUMP JUMPDEST JUMPDEST POP JUMP JUMPDEST JUMPDEST DUP1 DUP3 GT ISZERO PUSH2 0x331 JUMPI PUSH0 DUP2 PUSH0 SWAP1 SSTORE POP PUSH1 0x1 ADD PUSH2 0x31B JUMP JUMPDEST POP SWAP1 JUMP JUMPDEST PUSH0 PUSH1 0x40 MLOAD SWAP1 POP SWAP1 JUMP JUMPDEST PUSH0 PUSH0 REVERT JUMPDEST PUSH0 PUSH0 REVERT JUMPDEST PUSH0 DUP2 SWAP1 POP SWAP2 SWAP1 POP JUMP JUMPDEST PUSH2 0x358 DUP2 PUSH2 0x346 JUMP JUMPDEST DUP2 EQ PUSH2 0x362 JUMPI PUSH0 PUSH0 REVERT JUMPDEST POP JUMP JUMPDEST PUSH0 DUP2 CALLDATALOAD SWAP1 POP PUSH2 0x373 DUP2 PUSH2 0x34F JUMP JUMPDEST SWAP3 SWAP2 POP POP JUMP JUMPDEST PUSH0 PUSH1 0x20 DUP3 DUP5 SUB SLT ISZERO PUSH2 0x38E JUMPI PUSH2 0x38D PUSH2 0x33E JUMP JUMPDEST JUMPDEST PUSH0 PUSH2 0x39B DUP5 DUP3 DUP6 ADD PUSH2 0x365 JUMP JUMPDEST SWAP2 POP POP SWAP3 SWAP2 POP POP JUMP JUMPDEST PUSH2 0x3AD DUP2 PUSH2 0x346 JUMP JUMPDEST DUP3 MSTORE POP POP JUMP JUMPDEST PUSH0 DUP2 MLOAD SWAP1 POP SWAP2 SWAP1 POP JUMP JUMPDEST PUSH0 DUP3 DUP3 MSTORE PUSH1 0x20 DUP3 ADD SWAP1 POP SWAP3 SWAP2 POP POP JUMP JUMPDEST DUP3 DUP2 DUP4 MCOPY PUSH0 DUP4 DUP4 ADD MSTORE POP POP POP JUMP JUMPDEST PUSH0 PUSH1 0x1F NOT PUSH1 0x1F DUP4 ADD AND SWAP1 POP SWAP2 SWAP1 POP JUMP JUMPDEST PUSH0 PUSH2 0x3F5 DUP3 PUSH2 0x3B3 JUMP JUMPDEST PUSH2 0x3FF DUP2 DUP6 PUSH2 0x3BD JUMP JUMPDEST SWAP4 POP PUSH2 0x40F DUP2 DUP6 PUSH1 0x20 DUP7 ADD PUSH2 0x3CD JUMP JUMPDEST PUSH2 0x418 DUP2 PUSH2 0x3DB JUMP JUMPDEST DUP5 ADD SWAP2 POP POP SWAP3 SWAP2 POP POP JUMP JUMPDEST PUSH0 PUSH1 0x60 DUP3 ADD SWAP1 POP PUSH2 0x436 PUSH0 DUP4 ADD DUP7 PUSH2 0x3A4 JUMP JUMPDEST DUP2 DUP2 SUB PUSH1 0x20 DUP4 ADD MSTORE PUSH2 0x448 DUP2 DUP6 PUSH2 0x3EB JUMP JUMPDEST SWAP1 POP PUSH2 0x457 PUSH1 0x40 DUP4 ADD DUP5 PUSH2 0x3A4 JUMP JUMPDEST SWAP5 SWAP4 POP POP POP POP JUMP JUMPDEST PUSH0 PUSH0 REVERT JUMPDEST PUSH0 PUSH0 REVERT JUMPDEST PUSH32 0x4E487B7100000000000000000000000000000000000000000000000000000000 PUSH0 MSTORE PUSH1 0x41 PUSH1 0x4 MSTORE PUSH1 0x24 PUSH0 REVERT JUMPDEST PUSH2 0x49D DUP3 PUSH2 0x3DB JUMP JUMPDEST DUP2 ADD DUP2 DUP2 LT PUSH8 0xFFFFFFFFFFFFFFFF DUP3 GT OR ISZERO PUSH2 0x4BC JUMPI PUSH2 0x4BB PUSH2 0x467 JUMP JUMPDEST JUMPDEST DUP1 PUSH1 0x40 MSTORE POP POP POP JUMP JUMPDEST PUSH0 PUSH2 0x4CE PUSH2 0x335 JUMP JUMPDEST SWAP1 POP PUSH2 0x4DA DUP3 DUP3 PUSH2 0x494 JUMP JUMPDEST SWAP2 SWAP1 POP JUMP JUMPDEST PUSH0 PUSH8 0xFFFFFFFFFFFFFFFF DUP3 GT ISZERO PUSH2 0x4F9 JUMPI PUSH2 0x4F8 PUSH2 0x467 JUMP JUMPDEST JUMPDEST PUSH2 0x502 DUP3 PUSH2 0x3DB JUMP JUMPDEST SWAP1 POP PUSH1 0x20 DUP2 ADD SWAP1 POP SWAP2 SWAP1 POP JUMP JUMPDEST DUP3 DUP2 DUP4 CALLDATACOPY PUSH0 DUP4 DUP4 ADD MSTORE POP POP POP JUMP JUMPDEST PUSH0 PUSH2 0x52F PUSH2 0x52A DUP5 PUSH2 0x4DF JUMP JUMPDEST PUSH2 0x4C5 JUMP JUMPDEST SWAP1 POP DUP3 DUP2 MSTORE PUSH1 0x20 DUP2 ADD DUP5 DUP5 DUP5 ADD GT ISZERO PUSH2 0x54B JUMPI PUSH2 0x54A PUSH2 0x463 JUMP JUMPDEST JUMPDEST PUSH2 0x556 DUP5 DUP3 DUP6 PUSH2 0x50F JUMP JUMPDEST POP SWAP4 SWAP3 POP POP POP JUMP JUMPDEST PUSH0 DUP3 PUSH1 0x1F DUP4 ADD SLT PUSH2 0x572 JUMPI PUSH2 0x571 PUSH2 0x45F JUMP JUMPDEST JUMPDEST DUP2 CALLDATALOAD PUSH2 0x582 DUP5 DUP3 PUSH1 0x20 DUP7 ADD PUSH2 0x51D JUMP JUMPDEST SWAP2 POP POP SWAP3 SWAP2 POP POP JUMP JUMPDEST PUSH0 PUSH0 PUSH0 PUSH1 0x60 DUP5 DUP7 SUB SLT ISZERO PUSH2 0x5A2 JUMPI PUSH2 0x5A1 PUSH2 0x33E JUMP JUMPDEST JUMPDEST PUSH0 PUSH2 0x5AF DUP7 DUP3 DUP8 ADD PUSH2 0x365 JUMP JUMPDEST SWAP4 POP POP PUSH1 0x20 DUP5 ADD CALLDATALOAD PUSH8 0xFFFFFFFFFFFFFFFF DUP2 GT ISZERO PUSH2 0x5D0 JUMPI PUSH2 0x5CF PUSH2 0x342 JUMP JUMPDEST JUMPDEST PUSH2 0x5DC DUP7 DUP3 DUP8 ADD PUSH2 0x55E JUMP JUMPDEST SWAP3 POP POP PUSH1 0x40 PUSH2 0x5ED DUP7 DUP3 DUP8 ADD PUSH2 0x365 JUMP JUMPDEST SWAP2 POP POP SWAP3 POP SWAP3 POP SWAP3 JUMP JUMPDEST PUSH32 0x4E487B7100000000000000000000000000000000000000000000000000000000 PUSH0 MSTORE PUSH1 0x22 PUSH1 0x4 MSTORE PUSH1 0x24 PUSH0 REVERT JUMPDEST PUSH0 PUSH1 0x2 DUP3 DIV SWAP1 POP PUSH1 0x1 DUP3 AND DUP1 PUSH2 0x63B JUMPI PUSH1 0x7F DUP3 AND SWAP2 POP JUMPDEST PUSH1 0x20 DUP3 LT DUP2 SUB PUSH2 0x64E JUMPI PUSH2 0x64D PUSH2 0x5F7 JUMP JUMPDEST JUMPDEST POP SWAP2 SWAP1 POP JUMP JUMPDEST PUSH32 0x53747564656E74206E6F7420666F756E64000000000000000000000000000000 PUSH0 DUP3 ADD MSTORE POP JUMP JUMPDEST PUSH0 PUSH2 0x688 PUSH1 0x11 DUP4 PUSH2 0x3BD JUMP JUMPDEST SWAP2 POP PUSH2 0x693 DUP3 PUSH2 0x654 JUMP JUMPDEST PUSH1 0x20 DUP3 ADD SWAP1 POP SWAP2 SWAP1 POP JUMP JUMPDEST PUSH0 PUSH1 0x20 DUP3 ADD SWAP1 POP DUP2 DUP2 SUB PUSH0 DUP4 ADD MSTORE PUSH2 0x6B5 DUP2 PUSH2 0x67C JUMP JUMPDEST SWAP1 POP SWAP2 SWAP1 POP JUMP JUMPDEST PUSH0 DUP2 SWAP1 POP DUP2 PUSH0 MSTORE PUSH1 0x20 PUSH0 KECCAK256 SWAP1 POP SWAP2 SWAP1 POP JUMP JUMPDEST PUSH0 PUSH1 0x20 PUSH1 0x1F DUP4 ADD DIV SWAP1 POP SWAP2 SWAP1 POP JUMP JUMPDEST PUSH0 DUP3 DUP3 SHL SWAP1 POP SWAP3 SWAP2 POP POP JUMP JUMPDEST PUSH0 PUSH1 0x8 DUP4 MUL PUSH2 0x718 PUSH32 0xFFFFFFFFFFFFFFFFFFFFFFFFFFFFFFFFFFFFFFFFFFFFFFFFFFFFFFFFFFFFFFFF DUP3 PUSH2 0x6DD JUMP JUMPDEST PUSH2 0x722 DUP7 DUP4 PUSH2 0x6DD JUMP JUMPDEST SWAP6 POP DUP1 NOT DUP5 AND SWAP4 POP DUP1 DUP7 AND DUP5 OR SWAP3 POP POP POP SWAP4 SWAP3 POP POP POP JUMP JUMPDEST PUSH0 DUP2 SWAP1 POP SWAP2 SWAP1 POP JUMP JUMPDEST PUSH0 PUSH2 0x75D PUSH2 0x758 PUSH2 0x753 DUP5 PUSH2 0x346 JUMP JUMPDEST PUSH2 0x73A JUMP JUMPDEST PUSH2 0x346 JUMP JUMPDEST SWAP1 POP SWAP2 SWAP1 POP JUMP JUMPDEST PUSH0 DUP2 SWAP1 POP SWAP2 SWAP1 POP JUMP JUMPDEST PUSH2 0x776 DUP4 PUSH2 0x743 JUMP JUMPDEST PUSH2 0x78A PUSH2 0x782 DUP3 PUSH2 0x764 JUMP JUMPDEST DUP5 DUP5 SLOAD PUSH2 0x6E9 JUMP JUMPDEST DUP3 SSTORE POP POP POP POP JUMP JUMPDEST PUSH0 PUSH0 SWAP1 POP SWAP1 JUMP JUMPDEST PUSH2 0x7A1 PUSH2 0x792 JUMP JUMPDEST PUSH2 0x7AC DUP2 DUP5 DUP5 PUSH2 0x76D JUMP JUMPDEST POP POP POP JUMP JUMPDEST JUMPDEST DUP2 DUP2 LT ISZERO PUSH2 0x7CF JUMPI PUSH2 0x7C4 PUSH0 DUP3 PUSH2 0x799 JUMP JUMPDEST PUSH1 0x1 DUP2 ADD SWAP1 POP PUSH2 0x7B2 JUMP JUMPDEST POP POP JUMP JUMPDEST PUSH1 0x1F DUP3 GT ISZERO PUSH2 0x814 JUMPI PUSH2 0x7E5 DUP2 PUSH2 0x6BC JUMP JUMPDEST PUSH2 0x7EE DUP5 PUSH2 0x6CE JUMP JUMPDEST DUP2 ADD PUSH1 0x20 DUP6 LT ISZERO PUSH2 0x7FD JUMPI DUP2 SWAP1 POP JUMPDEST PUSH2 0x811 PUSH2 0x809 DUP6 PUSH2 0x6CE JUMP JUMPDEST DUP4 ADD DUP3 PUSH2 0x7B1 JUMP JUMPDEST POP POP JUMPDEST POP POP POP JUMP JUMPDEST PUSH0 DUP3 DUP3 SHR SWAP1 POP SWAP3 SWAP2 POP POP JUMP JUMPDEST PUSH0 PUSH2 0x834 PUSH0 NOT DUP5 PUSH1 0x8 MUL PUSH2 0x819 JUMP JUMPDEST NOT DUP1 DUP4 AND SWAP2 POP POP SWAP3 SWAP2 POP POP JUMP JUMPDEST PUSH0 PUSH2 0x84C DUP4 DUP4 PUSH2 0x825 JUMP JUMPDEST SWAP2 POP DUP3 PUSH1 0x2 MUL DUP3 OR SWAP1 POP SWAP3 SWAP2 POP POP JUMP JUMPDEST PUSH2 0x865 DUP3 PUSH2 0x3B3 JUMP JUMPDEST PUSH8 0xFFFFFFFFFFFFFFFF DUP2 GT ISZERO PUSH2 0x87E JUMPI PUSH2 0x87D PUSH2 0x467 JUMP JUMPDEST JUMPDEST PUSH2 0x888 DUP3 SLOAD PUSH2 0x624 JUMP JUMPDEST PUSH2 0x893 DUP3 DUP3 DUP6 PUSH2 0x7D3 JUMP JUMPDEST PUSH0 PUSH1 0x20 SWAP1 POP PUSH1 0x1F DUP4 GT PUSH1 0x1 DUP2 EQ PUSH2 0x8C4 JUMPI PUSH0 DUP5 ISZERO PUSH2 0x8B2 JUMPI DUP3 DUP8 ADD MLOAD SWAP1 POP JUMPDEST PUSH2 0x8BC DUP6 DUP3 PUSH2 0x841 JUMP JUMPDEST DUP7 SSTORE POP PUSH2 0x923 JUMP JUMPDEST PUSH1 0x1F NOT DUP5 AND PUSH2 0x8D2 DUP7 PUSH2 0x6BC JUMP JUMPDEST PUSH0 JUMPDEST DUP3 DUP2 LT ISZERO PUSH2 0x8F9 JUMPI DUP5 DUP10 ADD MLOAD DUP3 SSTORE PUSH1 0x1 DUP3 ADD SWAP2 POP PUSH1 0x20 DUP6 ADD SWAP5 POP PUSH1 0x20 DUP2 ADD SWAP1 POP PUSH2 0x8D4 JUMP JUMPDEST DUP7 DUP4 LT ISZERO PUSH2 0x916 JUMPI DUP5 DUP10 ADD MLOAD PUSH2 0x912 PUSH1 0x1F DUP10 AND DUP3 PUSH2 0x825 JUMP JUMPDEST DUP4 SSTORE POP JUMPDEST PUSH1 0x1 PUSH1 0x2 DUP9 MUL ADD DUP9 SSTORE POP POP POP JUMPDEST POP POP POP POP POP POP JUMP INVALID LOG2 PUSH5 0x6970667358 0x22 SLT KECCAK256 0xD0 0xCE 0xAE PUSH21 0xB180721EFDF54DDAC1F2F28418DFEC3811BC4D6A15 XOR SWAP11 LT PUSH9 0xD3E9AA64736F6C6343 STOP ADDMOD 0x1E STOP CALLER "
				},
				"gasEstimates": {
					"creation": {
						"codeDepositCost": "480200",
						"executionCost": "516",
						"totalCost": "480716"
					},
					"external": {
						"addOrUpdateStudent(uint256,string,uint256)": "infinite",
						"deleteStudent(uint256)": "infinite",
						"getStudent(uint256)": "infinite"
					}
				},
				"methodIdentifiers": {
					"addOrUpdateStudent(uint256,string,uint256)": "9e159226",
					"deleteStudent(uint256)": "b645307d",
					"getStudent(uint256)": "642f9163"
				}
			},
			"storageLayout": {
				"storage": [
					{
						"astId": 13,
						"contract": "contracts/10.18.struct(struct mapping).sol:StudentRecords",
						"label": "students",
						"offset": 0,
						"slot": "0",
						"type": "t_mapping(t_uint256,t_struct(Student)8_storage)"
					}
				],
				"types": {
					"t_mapping(t_uint256,t_struct(Student)8_storage)": {
						"encoding": "mapping",
						"key": "t_uint256",
						"label": "mapping(uint256 => struct StudentRecords.Student)",
						"numberOfBytes": "32",
						"value": "t_struct(Student)8_storage"
					},
					"t_string_storage": {
						"encoding": "bytes",
						"label": "string",
						"numberOfBytes": "32"
					},
					"t_struct(Student)8_storage": {
						"encoding": "inplace",
						"label": "struct StudentRecords.Student",
						"members": [
							{
								"astId": 3,
								"contract": "contracts/10.18.struct(struct mapping).sol:StudentRecords",
								"label": "id",
								"offset": 0,
								"slot": "0",
								"type": "t_uint256"
							},
							{
								"astId": 5,
								"contract": "contracts/10.18.struct(struct mapping).sol:StudentRecords",
								"label": "name",
								"offset": 0,
								"slot": "1",
								"type": "t_string_storage"
							},
							{
								"astId": 7,
								"contract": "contracts/10.18.struct(struct mapping).sol:StudentRecords",
								"label": "age",
								"offset": 0,
								"slot": "2",
								"type": "t_uint256"
							}
						],
						"numberOfBytes": "96"
					},
					"t_uint256": {
						"encoding": "inplace",
						"label": "uint256",
						"numberOfBytes": "32"
					}
				}
			},
			"userdoc": {
				"kind": "user",
				"methods": {},
				"version": 1
			}
		}
	}
}