{
	"contracts/externelLibrary/libraryTypedStaticCallContract/MathsContract.sol": {
		"MathsContract": {
			"abi": [
				{
					"inputs": [
						{
							"internalType": "uint256",
							"name": "a",
							"type": "uint256"
						},
						{
							"internalType": "uint256",
							"name": "b",
							"type": "uint256"
						}
					],
					"name": "add",
					"outputs": [
						{
							"internalType": "uint256",
							"name": "",
							"type": "uint256"
						}
					],
					"stateMutability": "pure",
					"type": "function"
				},
				{
					"inputs": [
						{
							"internalType": "uint256",
							"name": "a",
							"type": "uint256"
						},
						{
							"internalType": "uint256",
							"name": "b",
							"type": "uint256"
						}
					],
					"name": "div",
					"outputs": [
						{
							"internalType": "uint256",
							"name": "",
							"type": "uint256"
						}
					],
					"stateMutability": "pure",
					"type": "function"
				},
				{
					"inputs": [
						{
							"internalType": "uint256",
							"name": "a",
							"type": "uint256"
						},
						{
							"internalType": "uint256",
							"name": "b",
							"type": "uint256"
						}
					],
					"name": "mul",
					"outputs": [
						{
							"internalType": "uint256",
							"name": "",
							"type": "uint256"
						}
					],
					"stateMutability": "pure",
					"type": "function"
				},
				{
					"inputs": [
						{
							"internalType": "uint256",
							"name": "a",
							"type": "uint256"
						},
						{
							"internalType": "uint256",
							"name": "b",
							"type": "uint256"
						}
					],
					"name": "sub",
					"outputs": [
						{
							"internalType": "uint256",
							"name": "",
							"type": "uint256"
						}
					],
					"stateMutability": "pure",
					"type": "function"
				}
			],
			"devdoc": {
				"kind": "dev",
				"methods": {},
				"version": 1
			},
			"evm": {
				"assembly": "    /* \"contracts/externelLibrary/libraryTypedStaticCallContract/MathsContract.sol\":60:517  contract MathsContract {... */\n  mstore(0x40, 0x80)\n  callvalue\n  dup1\n  iszero\n  tag_1\n  jumpi\n  revert(0x00, 0x00)\ntag_1:\n  pop\n  dataSize(sub_0)\n  dup1\n  dataOffset(sub_0)\n  0x00\n  codecopy\n  0x00\n  return\nstop\n\nsub_0: assembly {\n        /* \"contracts/externelLibrary/libraryTypedStaticCallContract/MathsContract.sol\":60:517  contract MathsContract {... */\n      mstore(0x40, 0x80)\n      callvalue\n      dup1\n      iszero\n      tag_1\n      jumpi\n      revert(0x00, 0x00)\n    tag_1:\n      pop\n      jumpi(tag_2, lt(calldatasize, 0x04))\n      shr(0xe0, calldataload(0x00))\n      dup1\n      0x771602f7\n      eq\n      tag_3\n      jumpi\n      dup1\n      0xa391c15b\n      eq\n      tag_4\n      jumpi\n      dup1\n      0xb67d77c5\n      eq\n      tag_5\n      jumpi\n      dup1\n      0xc8a4ac9c\n      eq\n      tag_6\n      jumpi\n    tag_2:\n      revert(0x00, 0x00)\n        /* \"contracts/externelLibrary/libraryTypedStaticCallContract/MathsContract.sol\":90:179  function add(uint a, uint b) external pure returns (uint) {... */\n    tag_3:\n      tag_7\n      0x04\n      dup1\n      calldatasize\n      sub\n      dup2\n      add\n      swap1\n      tag_8\n      swap2\n      swap1\n      tag_9\n      jump\t// in\n    tag_8:\n      tag_10\n      jump\t// in\n    tag_7:\n      mload(0x40)\n      tag_11\n      swap2\n      swap1\n      tag_12\n      jump\t// in\n    tag_11:\n      mload(0x40)\n      dup1\n      swap2\n      sub\n      swap1\n      return\n        /* \"contracts/externelLibrary/libraryTypedStaticCallContract/MathsContract.sol\":381:514  function div(uint a, uint b) external pure returns (uint) {... */\n    tag_4:\n      tag_13\n      0x04\n      dup1\n      calldatasize\n      sub\n      dup2\n      add\n      swap1\n      tag_14\n      swap2\n      swap1\n      tag_9\n      jump\t// in\n    tag_14:\n      tag_15\n      jump\t// in\n    tag_13:\n      mload(0x40)\n      tag_16\n      swap2\n      swap1\n      tag_12\n      jump\t// in\n    tag_16:\n      mload(0x40)\n      dup1\n      swap2\n      sub\n      swap1\n      return\n        /* \"contracts/externelLibrary/libraryTypedStaticCallContract/MathsContract.sol\":284:373  function sub(uint a, uint b) external pure returns (uint) {... */\n    tag_5:\n      tag_17\n      0x04\n      dup1\n      calldatasize\n      sub\n      dup2\n      add\n      swap1\n      tag_18\n      swap2\n      swap1\n      tag_9\n      jump\t// in\n    tag_18:\n      tag_19\n      jump\t// in\n    tag_17:\n      mload(0x40)\n      tag_20\n      swap2\n      swap1\n      tag_12\n      jump\t// in\n    tag_20:\n      mload(0x40)\n      dup1\n      swap2\n      sub\n      swap1\n      return\n        /* \"contracts/externelLibrary/libraryTypedStaticCallContract/MathsContract.sol\":187:276  function mul(uint a, uint b) external pure returns (uint) {... */\n    tag_6:\n      tag_21\n      0x04\n      dup1\n      calldatasize\n      sub\n      dup2\n      add\n      swap1\n      tag_22\n      swap2\n      swap1\n      tag_9\n      jump\t// in\n    tag_22:\n      tag_23\n      jump\t// in\n    tag_21:\n      mload(0x40)\n      tag_24\n      swap2\n      swap1\n      tag_12\n      jump\t// in\n    tag_24:\n      mload(0x40)\n      dup1\n      swap2\n      sub\n      swap1\n      return\n        /* \"contracts/externelLibrary/libraryTypedStaticCallContract/MathsContract.sol\":90:179  function add(uint a, uint b) external pure returns (uint) {... */\n    tag_10:\n        /* \"contracts/externelLibrary/libraryTypedStaticCallContract/MathsContract.sol\":142:146  uint */\n      0x00\n        /* \"contracts/externelLibrary/libraryTypedStaticCallContract/MathsContract.sol\":170:171  b */\n      dup2\n        /* \"contracts/externelLibrary/libraryTypedStaticCallContract/MathsContract.sol\":166:167  a */\n      dup4\n        /* \"contracts/externelLibrary/libraryTypedStaticCallContract/MathsContract.sol\":166:171  a + b */\n      tag_26\n      swap2\n      swap1\n      tag_27\n      jump\t// in\n    tag_26:\n        /* \"contracts/externelLibrary/libraryTypedStaticCallContract/MathsContract.sol\":159:171  return a + b */\n      swap1\n      pop\n        /* \"contracts/externelLibrary/libraryTypedStaticCallContract/MathsContract.sol\":90:179  function add(uint a, uint b) external pure returns (uint) {... */\n      swap3\n      swap2\n      pop\n      pop\n      jump\t// out\n        /* \"contracts/externelLibrary/libraryTypedStaticCallContract/MathsContract.sol\":381:514  function div(uint a, uint b) external pure returns (uint) {... */\n    tag_15:\n        /* \"contracts/externelLibrary/libraryTypedStaticCallContract/MathsContract.sol\":433:437  uint */\n      0x00\n        /* \"contracts/externelLibrary/libraryTypedStaticCallContract/MathsContract.sol\":463:464  0 */\n      0x00\n        /* \"contracts/externelLibrary/libraryTypedStaticCallContract/MathsContract.sol\":458:459  b */\n      dup3\n        /* \"contracts/externelLibrary/libraryTypedStaticCallContract/MathsContract.sol\":458:464  b != 0 */\n      sub\n        /* \"contracts/externelLibrary/libraryTypedStaticCallContract/MathsContract.sol\":450:483  require(b != 0, \"Divide by zero\") */\n      tag_29\n      jumpi\n      mload(0x40)\n      0x08c379a000000000000000000000000000000000000000000000000000000000\n      dup2\n      mstore\n      0x04\n      add\n      tag_30\n      swap1\n      tag_31\n      jump\t// in\n    tag_30:\n      mload(0x40)\n      dup1\n      swap2\n      sub\n      swap1\n      revert\n    tag_29:\n        /* \"contracts/externelLibrary/libraryTypedStaticCallContract/MathsContract.sol\":505:506  b */\n      dup2\n        /* \"contracts/externelLibrary/libraryTypedStaticCallContract/MathsContract.sol\":501:502  a */\n      dup4\n        /* \"contracts/externelLibrary/libraryTypedStaticCallContract/MathsContract.sol\":501:506  a / b */\n      tag_32\n      swap2\n      swap1\n      tag_33\n      jump\t// in\n    tag_32:\n        /* \"contracts/externelLibrary/libraryTypedStaticCallContract/MathsContract.sol\":494:506  return a / b */\n      swap1\n      pop\n        /* \"contracts/externelLibrary/libraryTypedStaticCallContract/MathsContract.sol\":381:514  function div(uint a, uint b) external pure returns (uint) {... */\n      swap3\n      swap2\n      pop\n      pop\n      jump\t// out\n        /* \"contracts/externelLibrary/libraryTypedStaticCallContract/MathsContract.sol\":284:373  function sub(uint a, uint b) external pure returns (uint) {... */\n    tag_19:\n        /* \"contracts/externelLibrary/libraryTypedStaticCallContract/MathsContract.sol\":336:340  uint */\n      0x00\n        /* \"contracts/externelLibrary/libraryTypedStaticCallContract/MathsContract.sol\":364:365  b */\n      dup2\n        /* \"contracts/externelLibrary/libraryTypedStaticCallContract/MathsContract.sol\":360:361  a */\n      dup4\n        /* \"contracts/externelLibrary/libraryTypedStaticCallContract/MathsContract.sol\":360:365  a - b */\n      tag_35\n      swap2\n      swap1\n      tag_36\n      jump\t// in\n    tag_35:\n        /* \"contracts/externelLibrary/libraryTypedStaticCallContract/MathsContract.sol\":353:365  return a - b */\n      swap1\n      pop\n        /* \"contracts/externelLibrary/libraryTypedStaticCallContract/MathsContract.sol\":284:373  function sub(uint a, uint b) external pure returns (uint) {... */\n      swap3\n      swap2\n      pop\n      pop\n      jump\t// out\n        /* \"contracts/externelLibrary/libraryTypedStaticCallContract/MathsContract.sol\":187:276  function mul(uint a, uint b) external pure returns (uint) {... */\n    tag_23:\n        /* \"contracts/externelLibrary/libraryTypedStaticCallContract/MathsContract.sol\":239:243  uint */\n      0x00\n        /* \"contracts/externelLibrary/libraryTypedStaticCallContract/MathsContract.sol\":267:268  b */\n      dup2\n        /* \"contracts/externelLibrary/libraryTypedStaticCallContract/MathsContract.sol\":263:264  a */\n      dup4\n        /* \"contracts/externelLibrary/libraryTypedStaticCallContract/MathsContract.sol\":263:268  a * b */\n      tag_38\n      swap2\n      swap1\n      tag_39\n      jump\t// in\n    tag_38:\n        /* \"contracts/externelLibrary/libraryTypedStaticCallContract/MathsContract.sol\":256:268  return a * b */\n      swap1\n      pop\n        /* \"contracts/externelLibrary/libraryTypedStaticCallContract/MathsContract.sol\":187:276  function mul(uint a, uint b) external pure returns (uint) {... */\n      swap3\n      swap2\n      pop\n      pop\n      jump\t// out\n        /* \"#utility.yul\":88:205   */\n    tag_41:\n        /* \"#utility.yul\":197:198   */\n      0x00\n        /* \"#utility.yul\":194:195   */\n      0x00\n        /* \"#utility.yul\":187:199   */\n      revert\n        /* \"#utility.yul\":334:411   */\n    tag_43:\n        /* \"#utility.yul\":371:378   */\n      0x00\n        /* \"#utility.yul\":400:405   */\n      dup2\n        /* \"#utility.yul\":389:405   */\n      swap1\n      pop\n        /* \"#utility.yul\":334:411   */\n      swap2\n      swap1\n      pop\n      jump\t// out\n        /* \"#utility.yul\":417:539   */\n    tag_44:\n        /* \"#utility.yul\":490:514   */\n      tag_58\n        /* \"#utility.yul\":508:513   */\n      dup2\n        /* \"#utility.yul\":490:514   */\n      tag_43\n      jump\t// in\n    tag_58:\n        /* \"#utility.yul\":483:488   */\n      dup2\n        /* \"#utility.yul\":480:515   */\n      eq\n        /* \"#utility.yul\":470:533   */\n      tag_59\n      jumpi\n        /* \"#utility.yul\":529:530   */\n      0x00\n        /* \"#utility.yul\":526:527   */\n      0x00\n        /* \"#utility.yul\":519:531   */\n      revert\n        /* \"#utility.yul\":470:533   */\n    tag_59:\n        /* \"#utility.yul\":417:539   */\n      pop\n      jump\t// out\n        /* \"#utility.yul\":545:684   */\n    tag_45:\n        /* \"#utility.yul\":591:596   */\n      0x00\n        /* \"#utility.yul\":629:635   */\n      dup2\n        /* \"#utility.yul\":616:636   */\n      calldataload\n        /* \"#utility.yul\":607:636   */\n      swap1\n      pop\n        /* \"#utility.yul\":645:678   */\n      tag_61\n        /* \"#utility.yul\":672:677   */\n      dup2\n        /* \"#utility.yul\":645:678   */\n      tag_44\n      jump\t// in\n    tag_61:\n        /* \"#utility.yul\":545:684   */\n      swap3\n      swap2\n      pop\n      pop\n      jump\t// out\n        /* \"#utility.yul\":690:1164   */\n    tag_9:\n        /* \"#utility.yul\":758:764   */\n      0x00\n        /* \"#utility.yul\":766:772   */\n      0x00\n        /* \"#utility.yul\":815:817   */\n      0x40\n        /* \"#utility.yul\":803:812   */\n      dup4\n        /* \"#utility.yul\":794:801   */\n      dup6\n        /* \"#utility.yul\":790:813   */\n      sub\n        /* \"#utility.yul\":786:818   */\n      slt\n        /* \"#utility.yul\":783:902   */\n      iszero\n      tag_63\n      jumpi\n        /* \"#utility.yul\":821:900   */\n      tag_64\n      tag_41\n      jump\t// in\n    tag_64:\n        /* \"#utility.yul\":783:902   */\n    tag_63:\n        /* \"#utility.yul\":941:942   */\n      0x00\n        /* \"#utility.yul\":966:1019   */\n      tag_65\n        /* \"#utility.yul\":1011:1018   */\n      dup6\n        /* \"#utility.yul\":1002:1008   */\n      dup3\n        /* \"#utility.yul\":991:1000   */\n      dup7\n        /* \"#utility.yul\":987:1009   */\n      add\n        /* \"#utility.yul\":966:1019   */\n      tag_45\n      jump\t// in\n    tag_65:\n        /* \"#utility.yul\":956:1019   */\n      swap3\n      pop\n        /* \"#utility.yul\":912:1029   */\n      pop\n        /* \"#utility.yul\":1068:1070   */\n      0x20\n        /* \"#utility.yul\":1094:1147   */\n      tag_66\n        /* \"#utility.yul\":1139:1146   */\n      dup6\n        /* \"#utility.yul\":1130:1136   */\n      dup3\n        /* \"#utility.yul\":1119:1128   */\n      dup7\n        /* \"#utility.yul\":1115:1137   */\n      add\n        /* \"#utility.yul\":1094:1147   */\n      tag_45\n      jump\t// in\n    tag_66:\n        /* \"#utility.yul\":1084:1147   */\n      swap2\n      pop\n        /* \"#utility.yul\":1039:1157   */\n      pop\n        /* \"#utility.yul\":690:1164   */\n      swap3\n      pop\n      swap3\n      swap1\n      pop\n      jump\t// out\n        /* \"#utility.yul\":1170:1288   */\n    tag_46:\n        /* \"#utility.yul\":1257:1281   */\n      tag_68\n        /* \"#utility.yul\":1275:1280   */\n      dup2\n        /* \"#utility.yul\":1257:1281   */\n      tag_43\n      jump\t// in\n    tag_68:\n        /* \"#utility.yul\":1252:1255   */\n      dup3\n        /* \"#utility.yul\":1245:1282   */\n      mstore\n        /* \"#utility.yul\":1170:1288   */\n      pop\n      pop\n      jump\t// out\n        /* \"#utility.yul\":1294:1516   */\n    tag_12:\n        /* \"#utility.yul\":1387:1391   */\n      0x00\n        /* \"#utility.yul\":1425:1427   */\n      0x20\n        /* \"#utility.yul\":1414:1423   */\n      dup3\n        /* \"#utility.yul\":1410:1428   */\n      add\n        /* \"#utility.yul\":1402:1428   */\n      swap1\n      pop\n        /* \"#utility.yul\":1438:1509   */\n      tag_70\n        /* \"#utility.yul\":1506:1507   */\n      0x00\n        /* \"#utility.yul\":1495:1504   */\n      dup4\n        /* \"#utility.yul\":1491:1508   */\n      add\n        /* \"#utility.yul\":1482:1488   */\n      dup5\n        /* \"#utility.yul\":1438:1509   */\n      tag_46\n      jump\t// in\n    tag_70:\n        /* \"#utility.yul\":1294:1516   */\n      swap3\n      swap2\n      pop\n      pop\n      jump\t// out\n        /* \"#utility.yul\":1522:1702   */\n    tag_47:\n        /* \"#utility.yul\":1570:1647   */\n      0x4e487b7100000000000000000000000000000000000000000000000000000000\n        /* \"#utility.yul\":1567:1568   */\n      0x00\n        /* \"#utility.yul\":1560:1648   */\n      mstore\n        /* \"#utility.yul\":1667:1671   */\n      0x11\n        /* \"#utility.yul\":1664:1665   */\n      0x04\n        /* \"#utility.yul\":1657:1672   */\n      mstore\n        /* \"#utility.yul\":1691:1695   */\n      0x24\n        /* \"#utility.yul\":1688:1689   */\n      0x00\n        /* \"#utility.yul\":1681:1696   */\n      revert\n        /* \"#utility.yul\":1708:1899   */\n    tag_27:\n        /* \"#utility.yul\":1748:1751   */\n      0x00\n        /* \"#utility.yul\":1767:1787   */\n      tag_73\n        /* \"#utility.yul\":1785:1786   */\n      dup3\n        /* \"#utility.yul\":1767:1787   */\n      tag_43\n      jump\t// in\n    tag_73:\n        /* \"#utility.yul\":1762:1787   */\n      swap2\n      pop\n        /* \"#utility.yul\":1801:1821   */\n      tag_74\n        /* \"#utility.yul\":1819:1820   */\n      dup4\n        /* \"#utility.yul\":1801:1821   */\n      tag_43\n      jump\t// in\n    tag_74:\n        /* \"#utility.yul\":1796:1821   */\n      swap3\n      pop\n        /* \"#utility.yul\":1844:1845   */\n      dup3\n        /* \"#utility.yul\":1841:1842   */\n      dup3\n        /* \"#utility.yul\":1837:1846   */\n      add\n        /* \"#utility.yul\":1830:1846   */\n      swap1\n      pop\n        /* \"#utility.yul\":1865:1868   */\n      dup1\n        /* \"#utility.yul\":1862:1863   */\n      dup3\n        /* \"#utility.yul\":1859:1869   */\n      gt\n        /* \"#utility.yul\":1856:1892   */\n      iszero\n      tag_75\n      jumpi\n        /* \"#utility.yul\":1872:1890   */\n      tag_76\n      tag_47\n      jump\t// in\n    tag_76:\n        /* \"#utility.yul\":1856:1892   */\n    tag_75:\n        /* \"#utility.yul\":1708:1899   */\n      swap3\n      swap2\n      pop\n      pop\n      jump\t// out\n        /* \"#utility.yul\":1905:2074   */\n    tag_48:\n        /* \"#utility.yul\":1989:2000   */\n      0x00\n        /* \"#utility.yul\":2023:2029   */\n      dup3\n        /* \"#utility.yul\":2018:2021   */\n      dup3\n        /* \"#utility.yul\":2011:2030   */\n      mstore\n        /* \"#utility.yul\":2063:2067   */\n      0x20\n        /* \"#utility.yul\":2058:2061   */\n      dup3\n        /* \"#utility.yul\":2054:2068   */\n      add\n        /* \"#utility.yul\":2039:2068   */\n      swap1\n      pop\n        /* \"#utility.yul\":1905:2074   */\n      swap3\n      swap2\n      pop\n      pop\n      jump\t// out\n        /* \"#utility.yul\":2080:2244   */\n    tag_49:\n        /* \"#utility.yul\":2220:2236   */\n      0x446976696465206279207a65726f000000000000000000000000000000000000\n        /* \"#utility.yul\":2216:2217   */\n      0x00\n        /* \"#utility.yul\":2208:2214   */\n      dup3\n        /* \"#utility.yul\":2204:2218   */\n      add\n        /* \"#utility.yul\":2197:2237   */\n      mstore\n        /* \"#utility.yul\":2080:2244   */\n      pop\n      jump\t// out\n        /* \"#utility.yul\":2250:2616   */\n    tag_50:\n        /* \"#utility.yul\":2392:2395   */\n      0x00\n        /* \"#utility.yul\":2413:2480   */\n      tag_80\n        /* \"#utility.yul\":2477:2479   */\n      0x0e\n        /* \"#utility.yul\":2472:2475   */\n      dup4\n        /* \"#utility.yul\":2413:2480   */\n      tag_48\n      jump\t// in\n    tag_80:\n        /* \"#utility.yul\":2406:2480   */\n      swap2\n      pop\n        /* \"#utility.yul\":2489:2582   */\n      tag_81\n        /* \"#utility.yul\":2578:2581   */\n      dup3\n        /* \"#utility.yul\":2489:2582   */\n      tag_49\n      jump\t// in\n    tag_81:\n        /* \"#utility.yul\":2607:2609   */\n      0x20\n        /* \"#utility.yul\":2602:2605   */\n      dup3\n        /* \"#utility.yul\":2598:2610   */\n      add\n        /* \"#utility.yul\":2591:2610   */\n      swap1\n      pop\n        /* \"#utility.yul\":2250:2616   */\n      swap2\n      swap1\n      pop\n      jump\t// out\n        /* \"#utility.yul\":2622:3041   */\n    tag_31:\n        /* \"#utility.yul\":2788:2792   */\n      0x00\n        /* \"#utility.yul\":2826:2828   */\n      0x20\n        /* \"#utility.yul\":2815:2824   */\n      dup3\n        /* \"#utility.yul\":2811:2829   */\n      add\n        /* \"#utility.yul\":2803:2829   */\n      swap1\n      pop\n        /* \"#utility.yul\":2875:2884   */\n      dup2\n        /* \"#utility.yul\":2869:2873   */\n      dup2\n        /* \"#utility.yul\":2865:2885   */\n      sub\n        /* \"#utility.yul\":2861:2862   */\n      0x00\n        /* \"#utility.yul\":2850:2859   */\n      dup4\n        /* \"#utility.yul\":2846:2863   */\n      add\n        /* \"#utility.yul\":2839:2886   */\n      mstore\n        /* \"#utility.yul\":2903:3034   */\n      tag_83\n        /* \"#utility.yul\":3029:3033   */\n      dup2\n        /* \"#utility.yul\":2903:3034   */\n      tag_50\n      jump\t// in\n    tag_83:\n        /* \"#utility.yul\":2895:3034   */\n      swap1\n      pop\n        /* \"#utility.yul\":2622:3041   */\n      swap2\n      swap1\n      pop\n      jump\t// out\n        /* \"#utility.yul\":3047:3227   */\n    tag_51:\n        /* \"#utility.yul\":3095:3172   */\n      0x4e487b7100000000000000000000000000000000000000000000000000000000\n        /* \"#utility.yul\":3092:3093   */\n      0x00\n        /* \"#utility.yul\":3085:3173   */\n      mstore\n        /* \"#utility.yul\":3192:3196   */\n      0x12\n        /* \"#utility.yul\":3189:3190   */\n      0x04\n        /* \"#utility.yul\":3182:3197   */\n      mstore\n        /* \"#utility.yul\":3216:3220   */\n      0x24\n        /* \"#utility.yul\":3213:3214   */\n      0x00\n        /* \"#utility.yul\":3206:3221   */\n      revert\n        /* \"#utility.yul\":3233:3418   */\n    tag_33:\n        /* \"#utility.yul\":3273:3274   */\n      0x00\n        /* \"#utility.yul\":3290:3310   */\n      tag_86\n        /* \"#utility.yul\":3308:3309   */\n      dup3\n        /* \"#utility.yul\":3290:3310   */\n      tag_43\n      jump\t// in\n    tag_86:\n        /* \"#utility.yul\":3285:3310   */\n      swap2\n      pop\n        /* \"#utility.yul\":3324:3344   */\n      tag_87\n        /* \"#utility.yul\":3342:3343   */\n      dup4\n        /* \"#utility.yul\":3324:3344   */\n      tag_43\n      jump\t// in\n    tag_87:\n        /* \"#utility.yul\":3319:3344   */\n      swap3\n      pop\n        /* \"#utility.yul\":3363:3364   */\n      dup3\n        /* \"#utility.yul\":3353:3388   */\n      tag_88\n      jumpi\n        /* \"#utility.yul\":3368:3386   */\n      tag_89\n      tag_51\n      jump\t// in\n    tag_89:\n        /* \"#utility.yul\":3353:3388   */\n    tag_88:\n        /* \"#utility.yul\":3410:3411   */\n      dup3\n        /* \"#utility.yul\":3407:3408   */\n      dup3\n        /* \"#utility.yul\":3403:3412   */\n      div\n        /* \"#utility.yul\":3398:3412   */\n      swap1\n      pop\n        /* \"#utility.yul\":3233:3418   */\n      swap3\n      swap2\n      pop\n      pop\n      jump\t// out\n        /* \"#utility.yul\":3424:3618   */\n    tag_36:\n        /* \"#utility.yul\":3464:3468   */\n      0x00\n        /* \"#utility.yul\":3484:3504   */\n      tag_91\n        /* \"#utility.yul\":3502:3503   */\n      dup3\n        /* \"#utility.yul\":3484:3504   */\n      tag_43\n      jump\t// in\n    tag_91:\n        /* \"#utility.yul\":3479:3504   */\n      swap2\n      pop\n        /* \"#utility.yul\":3518:3538   */\n      tag_92\n        /* \"#utility.yul\":3536:3537   */\n      dup4\n        /* \"#utility.yul\":3518:3538   */\n      tag_43\n      jump\t// in\n    tag_92:\n        /* \"#utility.yul\":3513:3538   */\n      swap3\n      pop\n        /* \"#utility.yul\":3562:3563   */\n      dup3\n        /* \"#utility.yul\":3559:3560   */\n      dup3\n        /* \"#utility.yul\":3555:3564   */\n      sub\n        /* \"#utility.yul\":3547:3564   */\n      swap1\n      pop\n        /* \"#utility.yul\":3586:3587   */\n      dup2\n        /* \"#utility.yul\":3580:3584   */\n      dup2\n        /* \"#utility.yul\":3577:3588   */\n      gt\n        /* \"#utility.yul\":3574:3611   */\n      iszero\n      tag_93\n      jumpi\n        /* \"#utility.yul\":3591:3609   */\n      tag_94\n      tag_47\n      jump\t// in\n    tag_94:\n        /* \"#utility.yul\":3574:3611   */\n    tag_93:\n        /* \"#utility.yul\":3424:3618   */\n      swap3\n      swap2\n      pop\n      pop\n      jump\t// out\n        /* \"#utility.yul\":3624:4034   */\n    tag_39:\n        /* \"#utility.yul\":3664:3671   */\n      0x00\n        /* \"#utility.yul\":3687:3707   */\n      tag_96\n        /* \"#utility.yul\":3705:3706   */\n      dup3\n        /* \"#utility.yul\":3687:3707   */\n      tag_43\n      jump\t// in\n    tag_96:\n        /* \"#utility.yul\":3682:3707   */\n      swap2\n      pop\n        /* \"#utility.yul\":3721:3741   */\n      tag_97\n        /* \"#utility.yul\":3739:3740   */\n      dup4\n        /* \"#utility.yul\":3721:3741   */\n      tag_43\n      jump\t// in\n    tag_97:\n        /* \"#utility.yul\":3716:3741   */\n      swap3\n      pop\n        /* \"#utility.yul\":3776:3777   */\n      dup3\n        /* \"#utility.yul\":3773:3774   */\n      dup3\n        /* \"#utility.yul\":3769:3778   */\n      mul\n        /* \"#utility.yul\":3798:3828   */\n      tag_98\n        /* \"#utility.yul\":3816:3827   */\n      dup2\n        /* \"#utility.yul\":3798:3828   */\n      tag_43\n      jump\t// in\n    tag_98:\n        /* \"#utility.yul\":3787:3828   */\n      swap2\n      pop\n        /* \"#utility.yul\":3977:3978   */\n      dup3\n        /* \"#utility.yul\":3968:3975   */\n      dup3\n        /* \"#utility.yul\":3964:3979   */\n      div\n        /* \"#utility.yul\":3961:3962   */\n      dup5\n        /* \"#utility.yul\":3958:3980   */\n      eq\n        /* \"#utility.yul\":3938:3939   */\n      dup4\n        /* \"#utility.yul\":3931:3940   */\n      iszero\n        /* \"#utility.yul\":3911:3994   */\n      or\n        /* \"#utility.yul\":3888:4027   */\n      tag_99\n      jumpi\n        /* \"#utility.yul\":4007:4025   */\n      tag_100\n      tag_47\n      jump\t// in\n    tag_100:\n        /* \"#utility.yul\":3888:4027   */\n    tag_99:\n        /* \"#utility.yul\":3672:4034   */\n      pop\n        /* \"#utility.yul\":3624:4034   */\n      swap3\n      swap2\n      pop\n      pop\n      jump\t// out\n\n    auxdata: 0xa2646970667358221220475865bdf540a28c7cbc24727c028096303e2484af57d13d622e1f34fad276df64736f6c634300081e0033\n}\n",
				"bytecode": {
					"linkReferences": {},
					"object": "6080604052348015600e575f5ffd5b506104208061001c5f395ff3fe608060405234801561000f575f5ffd5b506004361061004a575f3560e01c8063771602f71461004e578063a391c15b1461007e578063b67d77c5146100ae578063c8a4ac9c146100de575b5f5ffd5b610068600480360381019061006391906101db565b61010e565b6040516100759190610228565b60405180910390f35b610098600480360381019061009391906101db565b610123565b6040516100a59190610228565b60405180910390f35b6100c860048036038101906100c391906101db565b61017a565b6040516100d59190610228565b60405180910390f35b6100f860048036038101906100f391906101db565b61018f565b6040516101059190610228565b60405180910390f35b5f818361011b919061026e565b905092915050565b5f5f8203610166576040517f08c379a000000000000000000000000000000000000000000000000000000000815260040161015d906102fb565b60405180910390fd5b81836101729190610346565b905092915050565b5f81836101879190610376565b905092915050565b5f818361019c91906103a9565b905092915050565b5f5ffd5b5f819050919050565b6101ba816101a8565b81146101c4575f5ffd5b50565b5f813590506101d5816101b1565b92915050565b5f5f604083850312156101f1576101f06101a4565b5b5f6101fe858286016101c7565b925050602061020f858286016101c7565b9150509250929050565b610222816101a8565b82525050565b5f60208201905061023b5f830184610219565b92915050565b7f4e487b71000000000000000000000000000000000000000000000000000000005f52601160045260245ffd5b5f610278826101a8565b9150610283836101a8565b925082820190508082111561029b5761029a610241565b5b92915050565b5f82825260208201905092915050565b7f446976696465206279207a65726f0000000000000000000000000000000000005f82015250565b5f6102e5600e836102a1565b91506102f0826102b1565b602082019050919050565b5f6020820190508181035f830152610312816102d9565b9050919050565b7f4e487b71000000000000000000000000000000000000000000000000000000005f52601260045260245ffd5b5f610350826101a8565b915061035b836101a8565b92508261036b5761036a610319565b5b828204905092915050565b5f610380826101a8565b915061038b836101a8565b92508282039050818111156103a3576103a2610241565b5b92915050565b5f6103b3826101a8565b91506103be836101a8565b92508282026103cc816101a8565b915082820484148315176103e3576103e2610241565b5b509291505056fea2646970667358221220475865bdf540a28c7cbc24727c028096303e2484af57d13d622e1f34fad276df64736f6c634300081e0033",
					"opcodes": "PUSH1 0x80 PUSH1 0x40 MSTORE CALLVALUE DUP1 ISZERO PUSH1 0xE JUMPI PUSH0 PUSH0 REVERT JUMPDEST POP PUSH2 0x420 DUP1 PUSH2 0x1C PUSH0 CODECOPY PUSH0 RETURN INVALID PUSH1 0x80 PUSH1 0x40 MSTORE CALLVALUE DUP1 ISZERO PUSH2 0xF JUMPI PUSH0 PUSH0 REVERT JUMPDEST POP PUSH1 0x4 CALLDATASIZE LT PUSH2 0x4A JUMPI PUSH0 CALLDATALOAD PUSH1 0xE0 SHR DUP1 PUSH4 0x771602F7 EQ PUSH2 0x4E JUMPI DUP1 PUSH4 0xA391C15B EQ PUSH2 0x7E JUMPI DUP1 PUSH4 0xB67D77C5 EQ PUSH2 0xAE JUMPI DUP1 PUSH4 0xC8A4AC9C EQ PUSH2 0xDE JUMPI JUMPDEST PUSH0 PUSH0 REVERT JUMPDEST PUSH2 0x68 PUSH1 0x4 DUP1 CALLDATASIZE SUB DUP2 ADD SWAP1 PUSH2 0x63 SWAP2 SWAP1 PUSH2 0x1DB JUMP JUMPDEST PUSH2 0x10E JUMP JUMPDEST PUSH1 0x40 MLOAD PUSH2 0x75 SWAP2 SWAP1 PUSH2 0x228 JUMP JUMPDEST PUSH1 0x40 MLOAD DUP1 SWAP2 SUB SWAP1 RETURN JUMPDEST PUSH2 0x98 PUSH1 0x4 DUP1 CALLDATASIZE SUB DUP2 ADD SWAP1 PUSH2 0x93 SWAP2 SWAP1 PUSH2 0x1DB JUMP JUMPDEST PUSH2 0x123 JUMP JUMPDEST PUSH1 0x40 MLOAD PUSH2 0xA5 SWAP2 SWAP1 PUSH2 0x228 JUMP JUMPDEST PUSH1 0x40 MLOAD DUP1 SWAP2 SUB SWAP1 RETURN JUMPDEST PUSH2 0xC8 PUSH1 0x4 DUP1 CALLDATASIZE SUB DUP2 ADD SWAP1 PUSH2 0xC3 SWAP2 SWAP1 PUSH2 0x1DB JUMP JUMPDEST PUSH2 0x17A JUMP JUMPDEST PUSH1 0x40 MLOAD PUSH2 0xD5 SWAP2 SWAP1 PUSH2 0x228 JUMP JUMPDEST PUSH1 0x40 MLOAD DUP1 SWAP2 SUB SWAP1 RETURN JUMPDEST PUSH2 0xF8 PUSH1 0x4 DUP1 CALLDATASIZE SUB DUP2 ADD SWAP1 PUSH2 0xF3 SWAP2 SWAP1 PUSH2 0x1DB JUMP JUMPDEST PUSH2 0x18F JUMP JUMPDEST PUSH1 0x40 MLOAD PUSH2 0x105 SWAP2 SWAP1 PUSH2 0x228 JUMP JUMPDEST PUSH1 0x40 MLOAD DUP1 SWAP2 SUB SWAP1 RETURN JUMPDEST PUSH0 DUP2 DUP4 PUSH2 0x11B SWAP2 SWAP1 PUSH2 0x26E JUMP JUMPDEST SWAP1 POP SWAP3 SWAP2 POP POP JUMP JUMPDEST PUSH0 PUSH0 DUP3 SUB PUSH2 0x166 JUMPI PUSH1 0x40 MLOAD PUSH32 0x8C379A000000000000000000000000000000000000000000000000000000000 DUP2 MSTORE PUSH1 0x4 ADD PUSH2 0x15D SWAP1 PUSH2 0x2FB JUMP JUMPDEST PUSH1 0x40 MLOAD DUP1 SWAP2 SUB SWAP1 REVERT JUMPDEST DUP2 DUP4 PUSH2 0x172 SWAP2 SWAP1 PUSH2 0x346 JUMP JUMPDEST SWAP1 POP SWAP3 SWAP2 POP POP JUMP JUMPDEST PUSH0 DUP2 DUP4 PUSH2 0x187 SWAP2 SWAP1 PUSH2 0x376 JUMP JUMPDEST SWAP1 POP SWAP3 SWAP2 POP POP JUMP JUMPDEST PUSH0 DUP2 DUP4 PUSH2 0x19C SWAP2 SWAP1 PUSH2 0x3A9 JUMP JUMPDEST SWAP1 POP SWAP3 SWAP2 POP POP JUMP JUMPDEST PUSH0 PUSH0 REVERT JUMPDEST PUSH0 DUP2 SWAP1 POP SWAP2 SWAP1 POP JUMP JUMPDEST PUSH2 0x1BA DUP2 PUSH2 0x1A8 JUMP JUMPDEST DUP2 EQ PUSH2 0x1C4 JUMPI PUSH0 PUSH0 REVERT JUMPDEST POP JUMP JUMPDEST PUSH0 DUP2 CALLDATALOAD SWAP1 POP PUSH2 0x1D5 DUP2 PUSH2 0x1B1 JUMP JUMPDEST SWAP3 SWAP2 POP POP JUMP JUMPDEST PUSH0 PUSH0 PUSH1 0x40 DUP4 DUP6 SUB SLT ISZERO PUSH2 0x1F1 JUMPI PUSH2 0x1F0 PUSH2 0x1A4 JUMP JUMPDEST JUMPDEST PUSH0 PUSH2 0x1FE DUP6 DUP3 DUP7 ADD PUSH2 0x1C7 JUMP JUMPDEST SWAP3 POP POP PUSH1 0x20 PUSH2 0x20F DUP6 DUP3 DUP7 ADD PUSH2 0x1C7 JUMP JUMPDEST SWAP2 POP POP SWAP3 POP SWAP3 SWAP1 POP JUMP JUMPDEST PUSH2 0x222 DUP2 PUSH2 0x1A8 JUMP JUMPDEST DUP3 MSTORE POP POP JUMP JUMPDEST PUSH0 PUSH1 0x20 DUP3 ADD SWAP1 POP PUSH2 0x23B PUSH0 DUP4 ADD DUP5 PUSH2 0x219 JUMP JUMPDEST SWAP3 SWAP2 POP POP JUMP JUMPDEST PUSH32 0x4E487B7100000000000000000000000000000000000000000000000000000000 PUSH0 MSTORE PUSH1 0x11 PUSH1 0x4 MSTORE PUSH1 0x24 PUSH0 REVERT JUMPDEST PUSH0 PUSH2 0x278 DUP3 PUSH2 0x1A8 JUMP JUMPDEST SWAP2 POP PUSH2 0x283 DUP4 PUSH2 0x1A8 JUMP JUMPDEST SWAP3 POP DUP3 DUP3 ADD SWAP1 POP DUP1 DUP3 GT ISZERO PUSH2 0x29B JUMPI PUSH2 0x29A PUSH2 0x241 JUMP JUMPDEST JUMPDEST SWAP3 SWAP2 POP POP JUMP JUMPDEST PUSH0 DUP3 DUP3 MSTORE PUSH1 0x20 DUP3 ADD SWAP1 POP SWAP3 SWAP2 POP POP JUMP JUMPDEST PUSH32 0x446976696465206279207A65726F000000000000000000000000000000000000 PUSH0 DUP3 ADD MSTORE POP JUMP JUMPDEST PUSH0 PUSH2 0x2E5 PUSH1 0xE DUP4 PUSH2 0x2A1 JUMP JUMPDEST SWAP2 POP PUSH2 0x2F0 DUP3 PUSH2 0x2B1 JUMP JUMPDEST PUSH1 0x20 DUP3 ADD SWAP1 POP SWAP2 SWAP1 POP JUMP JUMPDEST PUSH0 PUSH1 0x20 DUP3 ADD SWAP1 POP DUP2 DUP2 SUB PUSH0 DUP4 ADD MSTORE PUSH2 0x312 DUP2 PUSH2 0x2D9 JUMP JUMPDEST SWAP1 POP SWAP2 SWAP1 POP JUMP JUMPDEST PUSH32 0x4E487B7100000000000000000000000000000000000000000000000000000000 PUSH0 MSTORE PUSH1 0x12 PUSH1 0x4 MSTORE PUSH1 0x24 PUSH0 REVERT JUMPDEST PUSH0 PUSH2 0x350 DUP3 PUSH2 0x1A8 JUMP JUMPDEST SWAP2 POP PUSH2 0x35B DUP4 PUSH2 0x1A8 JUMP JUMPDEST SWAP3 POP DUP3 PUSH2 0x36B JUMPI PUSH2 0x36A PUSH2 0x319 JUMP JUMPDEST JUMPDEST DUP3 DUP3 DIV SWAP1 POP SWAP3 SWAP2 POP POP JUMP JUMPDEST PUSH0 PUSH2 0x380 DUP3 PUSH2 0x1A8 JUMP JUMPDEST SWAP2 POP PUSH2 0x38B DUP4 PUSH2 0x1A8 JUMP JUMPDEST SWAP3 POP DUP3 DUP3 SUB SWAP1 POP DUP2 DUP2 GT ISZERO PUSH2 0x3A3 JUMPI PUSH2 0x3A2 PUSH2 0x241 JUMP JUMPDEST JUMPDEST SWAP3 SWAP2 POP POP JUMP JUMPDEST PUSH0 PUSH2 0x3B3 DUP3 PUSH2 0x1A8 JUMP JUMPDEST SWAP2 POP PUSH2 0x3BE DUP4 PUSH2 0x1A8 JUMP JUMPDEST SWAP3 POP DUP3 DUP3 MUL PUSH2 0x3CC DUP2 PUSH2 0x1A8 JUMP JUMPDEST SWAP2 POP DUP3 DUP3 DIV DUP5 EQ DUP4 ISZERO OR PUSH2 0x3E3 JUMPI PUSH2 0x3E2 PUSH2 0x241 JUMP JUMPDEST JUMPDEST POP SWAP3 SWAP2 POP POP JUMP INVALID LOG2 PUSH5 0x6970667358 0x22 SLT KECCAK256 SELFBALANCE PC PUSH6 0xBDF540A28C7C 0xBC 0x24 PUSH19 0x7C028096303E2484AF57D13D622E1F34FAD276 0xDF PUSH5 0x736F6C6343 STOP ADDMOD 0x1E STOP CALLER "
				},
				"gasEstimates": {
					"creation": {
						"codeDepositCost": "211200",
						"executionCost": "249",
						"totalCost": "211449"
					},
					"external": {
						"add(uint256,uint256)": "infinite",
						"div(uint256,uint256)": "infinite",
						"mul(uint256,uint256)": "infinite",
						"sub(uint256,uint256)": "infinite"
					}
				},
				"methodIdentifiers": {
					"add(uint256,uint256)": "771602f7",
					"div(uint256,uint256)": "a391c15b",
					"mul(uint256,uint256)": "c8a4ac9c",
					"sub(uint256,uint256)": "b67d77c5"
				}
			},
			"storageLayout": {
				"storage": [],
				"types": null
			},
			"userdoc": {
				"kind": "user",
				"methods": {},
				"version": 1
			}
		}
	}
}