{
	"contracts/10.39.callinganothercontract.sol": {
		"Bob": {
			"abi": [
				{
					"inputs": [
						{
							"internalType": "contract Alice",
							"name": "_alice",
							"type": "address"
						}
					],
					"name": "getter",
					"outputs": [
						{
							"internalType": "uint256",
							"name": "",
							"type": "uint256"
						}
					],
					"stateMutability": "view",
					"type": "function"
				},
				{
					"inputs": [
						{
							"internalType": "contract Alice",
							"name": "_alice",
							"type": "address"
						},
						{
							"internalType": "uint256",
							"name": "_x",
							"type": "uint256"
						}
					],
					"name": "payableSetter",
					"outputs": [],
					"stateMutability": "payable",
					"type": "function"
				},
				{
					"inputs": [
						{
							"internalType": "contract Alice",
							"name": "_alice",
							"type": "address"
						},
						{
							"internalType": "uint256",
							"name": "_x",
							"type": "uint256"
						}
					],
					"name": "setter",
					"outputs": [],
					"stateMutability": "nonpayable",
					"type": "function"
				},
				{
					"inputs": [
						{
							"internalType": "address",
							"name": "_addr",
							"type": "address"
						},
						{
							"internalType": "uint256",
							"name": "_x",
							"type": "uint256"
						}
					],
					"name": "setterViaAddress",
					"outputs": [],
					"stateMutability": "nonpayable",
					"type": "function"
				}
			],
			"devdoc": {
				"kind": "dev",
				"methods": {},
				"version": 1
			},
			"evm": {
				"assembly": "    /* \"contracts/10.39.callinganothercontract.sol\":375:888  contract Bob {... */\n  mstore(0x40, 0x80)\n  callvalue\n  dup1\n  iszero\n  tag_1\n  jumpi\n  revert(0x00, 0x00)\ntag_1:\n  pop\n  dataSize(sub_0)\n  dup1\n  dataOffset(sub_0)\n  0x00\n  codecopy\n  0x00\n  return\nstop\n\nsub_0: assembly {\n        /* \"contracts/10.39.callinganothercontract.sol\":375:888  contract Bob {... */\n      mstore(0x40, 0x80)\n      jumpi(tag_1, lt(calldatasize, 0x04))\n      shr(0xe0, calldataload(0x00))\n      dup1\n      0x4f483ace\n      eq\n      tag_2\n      jumpi\n      dup1\n      0x5fb84517\n      eq\n      tag_3\n      jumpi\n      dup1\n      0xbe06059d\n      eq\n      tag_4\n      jumpi\n      dup1\n      0xf88b1641\n      eq\n      tag_5\n      jumpi\n    tag_1:\n      revert(0x00, 0x00)\n        /* \"contracts/10.39.callinganothercontract.sol\":763:886  function payableSetter(Alice _alice, uint256 _x) public payable {... */\n    tag_2:\n      tag_6\n      0x04\n      dup1\n      calldatasize\n      sub\n      dup2\n      add\n      swap1\n      tag_7\n      swap2\n      swap1\n      tag_8\n      jump\t// in\n    tag_7:\n      tag_9\n      jump\t// in\n    tag_6:\n      stop\n        /* \"contracts/10.39.callinganothercontract.sol\":617:746  function setterViaAddress(address _addr, uint256 _x) public {... */\n    tag_3:\n      callvalue\n      dup1\n      iszero\n      tag_10\n      jumpi\n      revert(0x00, 0x00)\n    tag_10:\n      pop\n      tag_11\n      0x04\n      dup1\n      calldatasize\n      sub\n      dup2\n      add\n      swap1\n      tag_12\n      swap2\n      swap1\n      tag_13\n      jump\t// in\n    tag_12:\n      tag_14\n      jump\t// in\n    tag_11:\n      stop\n        /* \"contracts/10.39.callinganothercontract.sol\":394:477  function setter(Alice _alice, uint256 _x) public {... */\n    tag_4:\n      callvalue\n      dup1\n      iszero\n      tag_15\n      jumpi\n      revert(0x00, 0x00)\n    tag_15:\n      pop\n      tag_16\n      0x04\n      dup1\n      calldatasize\n      sub\n      dup2\n      add\n      swap1\n      tag_17\n      swap2\n      swap1\n      tag_8\n      jump\t// in\n    tag_17:\n      tag_18\n      jump\t// in\n    tag_16:\n      stop\n        /* \"contracts/10.39.callinganothercontract.sol\":483:611  function getter(Alice _alice) public view returns (uint256) {... */\n    tag_5:\n      callvalue\n      dup1\n      iszero\n      tag_19\n      jumpi\n      revert(0x00, 0x00)\n    tag_19:\n      pop\n      tag_20\n      0x04\n      dup1\n      calldatasize\n      sub\n      dup2\n      add\n      swap1\n      tag_21\n      swap2\n      swap1\n      tag_22\n      jump\t// in\n    tag_21:\n      tag_23\n      jump\t// in\n    tag_20:\n      mload(0x40)\n      tag_24\n      swap2\n      swap1\n      tag_25\n      jump\t// in\n    tag_24:\n      mload(0x40)\n      dup1\n      swap2\n      sub\n      swap1\n      return\n        /* \"contracts/10.39.callinganothercontract.sol\":763:886  function payableSetter(Alice _alice, uint256 _x) public payable {... */\n    tag_9:\n        /* \"contracts/10.39.callinganothercontract.sol\":837:843  _alice */\n      dup2\n        /* \"contracts/10.39.callinganothercontract.sol\":837:857  _alice.payableSetter */\n      0xffffffffffffffffffffffffffffffffffffffff\n      and\n      0x9ea883c8\n        /* \"contracts/10.39.callinganothercontract.sol\":865:874  msg.value */\n      callvalue\n        /* \"contracts/10.39.callinganothercontract.sol\":876:878  _x */\n      dup4\n        /* \"contracts/10.39.callinganothercontract.sol\":837:879  _alice.payableSetter{value: msg.value}(_x) */\n      mload(0x40)\n      dup4\n      0xffffffff\n      and\n      0xe0\n      shl\n      dup2\n      mstore\n      0x04\n      add\n      tag_27\n      swap2\n      swap1\n      tag_25\n      jump\t// in\n    tag_27:\n      0x00\n      mload(0x40)\n      dup1\n      dup4\n      sub\n      dup2\n      dup6\n      dup9\n      dup1\n      extcodesize\n      iszero\n      dup1\n      iszero\n      tag_28\n      jumpi\n      revert(0x00, 0x00)\n    tag_28:\n      pop\n      gas\n      call\n      iszero\n      dup1\n      iszero\n      tag_30\n      jumpi\n      returndatacopy(0x00, 0x00, returndatasize)\n      revert(0x00, returndatasize)\n    tag_30:\n      pop\n      pop\n      pop\n      pop\n      pop\n        /* \"contracts/10.39.callinganothercontract.sol\":763:886  function payableSetter(Alice _alice, uint256 _x) public payable {... */\n      pop\n      pop\n      jump\t// out\n        /* \"contracts/10.39.callinganothercontract.sol\":617:746  function setterViaAddress(address _addr, uint256 _x) public {... */\n    tag_14:\n        /* \"contracts/10.39.callinganothercontract.sol\":687:698  Alice alice */\n      0x00\n        /* \"contracts/10.39.callinganothercontract.sol\":707:712  _addr */\n      dup3\n        /* \"contracts/10.39.callinganothercontract.sol\":687:713  Alice alice = Alice(_addr) */\n      swap1\n      pop\n        /* \"contracts/10.39.callinganothercontract.sol\":723:728  alice */\n      dup1\n        /* \"contracts/10.39.callinganothercontract.sol\":723:735  alice.setter */\n      0xffffffffffffffffffffffffffffffffffffffff\n      and\n      0xd423740b\n        /* \"contracts/10.39.callinganothercontract.sol\":736:738  _x */\n      dup4\n        /* \"contracts/10.39.callinganothercontract.sol\":723:739  alice.setter(_x) */\n      mload(0x40)\n      dup3\n      0xffffffff\n      and\n      0xe0\n      shl\n      dup2\n      mstore\n      0x04\n      add\n      tag_32\n      swap2\n      swap1\n      tag_25\n      jump\t// in\n    tag_32:\n      0x00\n      mload(0x40)\n      dup1\n      dup4\n      sub\n      dup2\n      0x00\n      dup8\n      dup1\n      extcodesize\n      iszero\n      dup1\n      iszero\n      tag_33\n      jumpi\n      revert(0x00, 0x00)\n    tag_33:\n      pop\n      gas\n      call\n      iszero\n      dup1\n      iszero\n      tag_35\n      jumpi\n      returndatacopy(0x00, 0x00, returndatasize)\n      revert(0x00, returndatasize)\n    tag_35:\n      pop\n      pop\n      pop\n      pop\n        /* \"contracts/10.39.callinganothercontract.sol\":677:746  {... */\n      pop\n        /* \"contracts/10.39.callinganothercontract.sol\":617:746  function setterViaAddress(address _addr, uint256 _x) public {... */\n      pop\n      pop\n      jump\t// out\n        /* \"contracts/10.39.callinganothercontract.sol\":394:477  function setter(Alice _alice, uint256 _x) public {... */\n    tag_18:\n        /* \"contracts/10.39.callinganothercontract.sol\":453:459  _alice */\n      dup2\n        /* \"contracts/10.39.callinganothercontract.sol\":453:466  _alice.setter */\n      0xffffffffffffffffffffffffffffffffffffffff\n      and\n      0xd423740b\n        /* \"contracts/10.39.callinganothercontract.sol\":467:469  _x */\n      dup3\n        /* \"contracts/10.39.callinganothercontract.sol\":453:470  _alice.setter(_x) */\n      mload(0x40)\n      dup3\n      0xffffffff\n      and\n      0xe0\n      shl\n      dup2\n      mstore\n      0x04\n      add\n      tag_37\n      swap2\n      swap1\n      tag_25\n      jump\t// in\n    tag_37:\n      0x00\n      mload(0x40)\n      dup1\n      dup4\n      sub\n      dup2\n      0x00\n      dup8\n      dup1\n      extcodesize\n      iszero\n      dup1\n      iszero\n      tag_38\n      jumpi\n      revert(0x00, 0x00)\n    tag_38:\n      pop\n      gas\n      call\n      iszero\n      dup1\n      iszero\n      tag_40\n      jumpi\n      returndatacopy(0x00, 0x00, returndatasize)\n      revert(0x00, returndatasize)\n    tag_40:\n      pop\n      pop\n      pop\n      pop\n        /* \"contracts/10.39.callinganothercontract.sol\":394:477  function setter(Alice _alice, uint256 _x) public {... */\n      pop\n      pop\n      jump\t// out\n        /* \"contracts/10.39.callinganothercontract.sol\":483:611  function getter(Alice _alice) public view returns (uint256) {... */\n    tag_23:\n        /* \"contracts/10.39.callinganothercontract.sol\":534:541  uint256 */\n      0x00\n        /* \"contracts/10.39.callinganothercontract.sol\":553:565  uint256 item */\n      0x00\n        /* \"contracts/10.39.callinganothercontract.sol\":568:574  _alice */\n      dup3\n        /* \"contracts/10.39.callinganothercontract.sol\":568:581  _alice.getter */\n      0xffffffffffffffffffffffffffffffffffffffff\n      and\n      0x993a04b7\n        /* \"contracts/10.39.callinganothercontract.sol\":568:583  _alice.getter() */\n      mload(0x40)\n      dup2\n      0xffffffff\n      and\n      0xe0\n      shl\n      dup2\n      mstore\n      0x04\n      add\n      0x20\n      mload(0x40)\n      dup1\n      dup4\n      sub\n      dup2\n      dup7\n      gas\n      staticcall\n      iszero\n      dup1\n      iszero\n      tag_43\n      jumpi\n      returndatacopy(0x00, 0x00, returndatasize)\n      revert(0x00, returndatasize)\n    tag_43:\n      pop\n      pop\n      pop\n      pop\n      mload(0x40)\n      returndatasize\n      not(0x1f)\n      0x1f\n      dup3\n      add\n      and\n      dup3\n      add\n      dup1\n      0x40\n      mstore\n      pop\n      dup2\n      add\n      swap1\n      tag_44\n      swap2\n      swap1\n      tag_45\n      jump\t// in\n    tag_44:\n        /* \"contracts/10.39.callinganothercontract.sol\":553:583  uint256 item = _alice.getter() */\n      swap1\n      pop\n        /* \"contracts/10.39.callinganothercontract.sol\":600:604  item */\n      dup1\n        /* \"contracts/10.39.callinganothercontract.sol\":593:604  return item */\n      swap2\n      pop\n      pop\n        /* \"contracts/10.39.callinganothercontract.sol\":483:611  function getter(Alice _alice) public view returns (uint256) {... */\n      swap2\n      swap1\n      pop\n      jump\t// out\n        /* \"#utility.yul\":88:205   */\n    tag_47:\n        /* \"#utility.yul\":197:198   */\n      0x00\n        /* \"#utility.yul\":194:195   */\n      0x00\n        /* \"#utility.yul\":187:199   */\n      revert\n        /* \"#utility.yul\":334:460   */\n    tag_49:\n        /* \"#utility.yul\":371:378   */\n      0x00\n        /* \"#utility.yul\":411:453   */\n      0xffffffffffffffffffffffffffffffffffffffff\n        /* \"#utility.yul\":404:409   */\n      dup3\n        /* \"#utility.yul\":400:454   */\n      and\n        /* \"#utility.yul\":389:454   */\n      swap1\n      pop\n        /* \"#utility.yul\":334:460   */\n      swap2\n      swap1\n      pop\n      jump\t// out\n        /* \"#utility.yul\":466:562   */\n    tag_50:\n        /* \"#utility.yul\":503:510   */\n      0x00\n        /* \"#utility.yul\":532:556   */\n      tag_67\n        /* \"#utility.yul\":550:555   */\n      dup3\n        /* \"#utility.yul\":532:556   */\n      tag_49\n      jump\t// in\n    tag_67:\n        /* \"#utility.yul\":521:556   */\n      swap1\n      pop\n        /* \"#utility.yul\":466:562   */\n      swap2\n      swap1\n      pop\n      jump\t// out\n        /* \"#utility.yul\":568:676   */\n    tag_51:\n        /* \"#utility.yul\":617:624   */\n      0x00\n        /* \"#utility.yul\":646:670   */\n      tag_69\n        /* \"#utility.yul\":664:669   */\n      dup3\n        /* \"#utility.yul\":646:670   */\n      tag_50\n      jump\t// in\n    tag_69:\n        /* \"#utility.yul\":635:670   */\n      swap1\n      pop\n        /* \"#utility.yul\":568:676   */\n      swap2\n      swap1\n      pop\n      jump\t// out\n        /* \"#utility.yul\":682:828   */\n    tag_52:\n        /* \"#utility.yul\":767:803   */\n      tag_71\n        /* \"#utility.yul\":797:802   */\n      dup2\n        /* \"#utility.yul\":767:803   */\n      tag_51\n      jump\t// in\n    tag_71:\n        /* \"#utility.yul\":760:765   */\n      dup2\n        /* \"#utility.yul\":757:804   */\n      eq\n        /* \"#utility.yul\":747:822   */\n      tag_72\n      jumpi\n        /* \"#utility.yul\":818:819   */\n      0x00\n        /* \"#utility.yul\":815:816   */\n      0x00\n        /* \"#utility.yul\":808:820   */\n      revert\n        /* \"#utility.yul\":747:822   */\n    tag_72:\n        /* \"#utility.yul\":682:828   */\n      pop\n      jump\t// out\n        /* \"#utility.yul\":834:997   */\n    tag_53:\n        /* \"#utility.yul\":892:897   */\n      0x00\n        /* \"#utility.yul\":930:936   */\n      dup2\n        /* \"#utility.yul\":917:937   */\n      calldataload\n        /* \"#utility.yul\":908:937   */\n      swap1\n      pop\n        /* \"#utility.yul\":946:991   */\n      tag_74\n        /* \"#utility.yul\":985:990   */\n      dup2\n        /* \"#utility.yul\":946:991   */\n      tag_52\n      jump\t// in\n    tag_74:\n        /* \"#utility.yul\":834:997   */\n      swap3\n      swap2\n      pop\n      pop\n      jump\t// out\n        /* \"#utility.yul\":1003:1080   */\n    tag_54:\n        /* \"#utility.yul\":1040:1047   */\n      0x00\n        /* \"#utility.yul\":1069:1074   */\n      dup2\n        /* \"#utility.yul\":1058:1074   */\n      swap1\n      pop\n        /* \"#utility.yul\":1003:1080   */\n      swap2\n      swap1\n      pop\n      jump\t// out\n        /* \"#utility.yul\":1086:1208   */\n    tag_55:\n        /* \"#utility.yul\":1159:1183   */\n      tag_77\n        /* \"#utility.yul\":1177:1182   */\n      dup2\n        /* \"#utility.yul\":1159:1183   */\n      tag_54\n      jump\t// in\n    tag_77:\n        /* \"#utility.yul\":1152:1157   */\n      dup2\n        /* \"#utility.yul\":1149:1184   */\n      eq\n        /* \"#utility.yul\":1139:1202   */\n      tag_78\n      jumpi\n        /* \"#utility.yul\":1198:1199   */\n      0x00\n        /* \"#utility.yul\":1195:1196   */\n      0x00\n        /* \"#utility.yul\":1188:1200   */\n      revert\n        /* \"#utility.yul\":1139:1202   */\n    tag_78:\n        /* \"#utility.yul\":1086:1208   */\n      pop\n      jump\t// out\n        /* \"#utility.yul\":1214:1353   */\n    tag_56:\n        /* \"#utility.yul\":1260:1265   */\n      0x00\n        /* \"#utility.yul\":1298:1304   */\n      dup2\n        /* \"#utility.yul\":1285:1305   */\n      calldataload\n        /* \"#utility.yul\":1276:1305   */\n      swap1\n      pop\n        /* \"#utility.yul\":1314:1347   */\n      tag_80\n        /* \"#utility.yul\":1341:1346   */\n      dup2\n        /* \"#utility.yul\":1314:1347   */\n      tag_55\n      jump\t// in\n    tag_80:\n        /* \"#utility.yul\":1214:1353   */\n      swap3\n      swap2\n      pop\n      pop\n      jump\t// out\n        /* \"#utility.yul\":1359:1857   */\n    tag_8:\n        /* \"#utility.yul\":1439:1445   */\n      0x00\n        /* \"#utility.yul\":1447:1453   */\n      0x00\n        /* \"#utility.yul\":1496:1498   */\n      0x40\n        /* \"#utility.yul\":1484:1493   */\n      dup4\n        /* \"#utility.yul\":1475:1482   */\n      dup6\n        /* \"#utility.yul\":1471:1494   */\n      sub\n        /* \"#utility.yul\":1467:1499   */\n      slt\n        /* \"#utility.yul\":1464:1583   */\n      iszero\n      tag_82\n      jumpi\n        /* \"#utility.yul\":1502:1581   */\n      tag_83\n      tag_47\n      jump\t// in\n    tag_83:\n        /* \"#utility.yul\":1464:1583   */\n    tag_82:\n        /* \"#utility.yul\":1622:1623   */\n      0x00\n        /* \"#utility.yul\":1647:1712   */\n      tag_84\n        /* \"#utility.yul\":1704:1711   */\n      dup6\n        /* \"#utility.yul\":1695:1701   */\n      dup3\n        /* \"#utility.yul\":1684:1693   */\n      dup7\n        /* \"#utility.yul\":1680:1702   */\n      add\n        /* \"#utility.yul\":1647:1712   */\n      tag_53\n      jump\t// in\n    tag_84:\n        /* \"#utility.yul\":1637:1712   */\n      swap3\n      pop\n        /* \"#utility.yul\":1593:1722   */\n      pop\n        /* \"#utility.yul\":1761:1763   */\n      0x20\n        /* \"#utility.yul\":1787:1840   */\n      tag_85\n        /* \"#utility.yul\":1832:1839   */\n      dup6\n        /* \"#utility.yul\":1823:1829   */\n      dup3\n        /* \"#utility.yul\":1812:1821   */\n      dup7\n        /* \"#utility.yul\":1808:1830   */\n      add\n        /* \"#utility.yul\":1787:1840   */\n      tag_56\n      jump\t// in\n    tag_85:\n        /* \"#utility.yul\":1777:1840   */\n      swap2\n      pop\n        /* \"#utility.yul\":1732:1850   */\n      pop\n        /* \"#utility.yul\":1359:1857   */\n      swap3\n      pop\n      swap3\n      swap1\n      pop\n      jump\t// out\n        /* \"#utility.yul\":1863:1985   */\n    tag_57:\n        /* \"#utility.yul\":1936:1960   */\n      tag_87\n        /* \"#utility.yul\":1954:1959   */\n      dup2\n        /* \"#utility.yul\":1936:1960   */\n      tag_50\n      jump\t// in\n    tag_87:\n        /* \"#utility.yul\":1929:1934   */\n      dup2\n        /* \"#utility.yul\":1926:1961   */\n      eq\n        /* \"#utility.yul\":1916:1979   */\n      tag_88\n      jumpi\n        /* \"#utility.yul\":1975:1976   */\n      0x00\n        /* \"#utility.yul\":1972:1973   */\n      0x00\n        /* \"#utility.yul\":1965:1977   */\n      revert\n        /* \"#utility.yul\":1916:1979   */\n    tag_88:\n        /* \"#utility.yul\":1863:1985   */\n      pop\n      jump\t// out\n        /* \"#utility.yul\":1991:2130   */\n    tag_58:\n        /* \"#utility.yul\":2037:2042   */\n      0x00\n        /* \"#utility.yul\":2075:2081   */\n      dup2\n        /* \"#utility.yul\":2062:2082   */\n      calldataload\n        /* \"#utility.yul\":2053:2082   */\n      swap1\n      pop\n        /* \"#utility.yul\":2091:2124   */\n      tag_90\n        /* \"#utility.yul\":2118:2123   */\n      dup2\n        /* \"#utility.yul\":2091:2124   */\n      tag_57\n      jump\t// in\n    tag_90:\n        /* \"#utility.yul\":1991:2130   */\n      swap3\n      swap2\n      pop\n      pop\n      jump\t// out\n        /* \"#utility.yul\":2136:2610   */\n    tag_13:\n        /* \"#utility.yul\":2204:2210   */\n      0x00\n        /* \"#utility.yul\":2212:2218   */\n      0x00\n        /* \"#utility.yul\":2261:2263   */\n      0x40\n        /* \"#utility.yul\":2249:2258   */\n      dup4\n        /* \"#utility.yul\":2240:2247   */\n      dup6\n        /* \"#utility.yul\":2236:2259   */\n      sub\n        /* \"#utility.yul\":2232:2264   */\n      slt\n        /* \"#utility.yul\":2229:2348   */\n      iszero\n      tag_92\n      jumpi\n        /* \"#utility.yul\":2267:2346   */\n      tag_93\n      tag_47\n      jump\t// in\n    tag_93:\n        /* \"#utility.yul\":2229:2348   */\n    tag_92:\n        /* \"#utility.yul\":2387:2388   */\n      0x00\n        /* \"#utility.yul\":2412:2465   */\n      tag_94\n        /* \"#utility.yul\":2457:2464   */\n      dup6\n        /* \"#utility.yul\":2448:2454   */\n      dup3\n        /* \"#utility.yul\":2437:2446   */\n      dup7\n        /* \"#utility.yul\":2433:2455   */\n      add\n        /* \"#utility.yul\":2412:2465   */\n      tag_58\n      jump\t// in\n    tag_94:\n        /* \"#utility.yul\":2402:2465   */\n      swap3\n      pop\n        /* \"#utility.yul\":2358:2475   */\n      pop\n        /* \"#utility.yul\":2514:2516   */\n      0x20\n        /* \"#utility.yul\":2540:2593   */\n      tag_95\n        /* \"#utility.yul\":2585:2592   */\n      dup6\n        /* \"#utility.yul\":2576:2582   */\n      dup3\n        /* \"#utility.yul\":2565:2574   */\n      dup7\n        /* \"#utility.yul\":2561:2583   */\n      add\n        /* \"#utility.yul\":2540:2593   */\n      tag_56\n      jump\t// in\n    tag_95:\n        /* \"#utility.yul\":2530:2593   */\n      swap2\n      pop\n        /* \"#utility.yul\":2485:2603   */\n      pop\n        /* \"#utility.yul\":2136:2610   */\n      swap3\n      pop\n      swap3\n      swap1\n      pop\n      jump\t// out\n        /* \"#utility.yul\":2616:2969   */\n    tag_22:\n        /* \"#utility.yul\":2687:2693   */\n      0x00\n        /* \"#utility.yul\":2736:2738   */\n      0x20\n        /* \"#utility.yul\":2724:2733   */\n      dup3\n        /* \"#utility.yul\":2715:2722   */\n      dup5\n        /* \"#utility.yul\":2711:2734   */\n      sub\n        /* \"#utility.yul\":2707:2739   */\n      slt\n        /* \"#utility.yul\":2704:2823   */\n      iszero\n      tag_97\n      jumpi\n        /* \"#utility.yul\":2742:2821   */\n      tag_98\n      tag_47\n      jump\t// in\n    tag_98:\n        /* \"#utility.yul\":2704:2823   */\n    tag_97:\n        /* \"#utility.yul\":2862:2863   */\n      0x00\n        /* \"#utility.yul\":2887:2952   */\n      tag_99\n        /* \"#utility.yul\":2944:2951   */\n      dup5\n        /* \"#utility.yul\":2935:2941   */\n      dup3\n        /* \"#utility.yul\":2924:2933   */\n      dup6\n        /* \"#utility.yul\":2920:2942   */\n      add\n        /* \"#utility.yul\":2887:2952   */\n      tag_53\n      jump\t// in\n    tag_99:\n        /* \"#utility.yul\":2877:2952   */\n      swap2\n      pop\n        /* \"#utility.yul\":2833:2962   */\n      pop\n        /* \"#utility.yul\":2616:2969   */\n      swap3\n      swap2\n      pop\n      pop\n      jump\t// out\n        /* \"#utility.yul\":2975:3093   */\n    tag_59:\n        /* \"#utility.yul\":3062:3086   */\n      tag_101\n        /* \"#utility.yul\":3080:3085   */\n      dup2\n        /* \"#utility.yul\":3062:3086   */\n      tag_54\n      jump\t// in\n    tag_101:\n        /* \"#utility.yul\":3057:3060   */\n      dup3\n        /* \"#utility.yul\":3050:3087   */\n      mstore\n        /* \"#utility.yul\":2975:3093   */\n      pop\n      pop\n      jump\t// out\n        /* \"#utility.yul\":3099:3321   */\n    tag_25:\n        /* \"#utility.yul\":3192:3196   */\n      0x00\n        /* \"#utility.yul\":3230:3232   */\n      0x20\n        /* \"#utility.yul\":3219:3228   */\n      dup3\n        /* \"#utility.yul\":3215:3233   */\n      add\n        /* \"#utility.yul\":3207:3233   */\n      swap1\n      pop\n        /* \"#utility.yul\":3243:3314   */\n      tag_103\n        /* \"#utility.yul\":3311:3312   */\n      0x00\n        /* \"#utility.yul\":3300:3309   */\n      dup4\n        /* \"#utility.yul\":3296:3313   */\n      add\n        /* \"#utility.yul\":3287:3293   */\n      dup5\n        /* \"#utility.yul\":3243:3314   */\n      tag_59\n      jump\t// in\n    tag_103:\n        /* \"#utility.yul\":3099:3321   */\n      swap3\n      swap2\n      pop\n      pop\n      jump\t// out\n        /* \"#utility.yul\":3327:3470   */\n    tag_60:\n        /* \"#utility.yul\":3384:3389   */\n      0x00\n        /* \"#utility.yul\":3415:3421   */\n      dup2\n        /* \"#utility.yul\":3409:3422   */\n      mload\n        /* \"#utility.yul\":3400:3422   */\n      swap1\n      pop\n        /* \"#utility.yul\":3431:3464   */\n      tag_105\n        /* \"#utility.yul\":3458:3463   */\n      dup2\n        /* \"#utility.yul\":3431:3464   */\n      tag_55\n      jump\t// in\n    tag_105:\n        /* \"#utility.yul\":3327:3470   */\n      swap3\n      swap2\n      pop\n      pop\n      jump\t// out\n        /* \"#utility.yul\":3476:3827   */\n    tag_45:\n        /* \"#utility.yul\":3546:3552   */\n      0x00\n        /* \"#utility.yul\":3595:3597   */\n      0x20\n        /* \"#utility.yul\":3583:3592   */\n      dup3\n        /* \"#utility.yul\":3574:3581   */\n      dup5\n        /* \"#utility.yul\":3570:3593   */\n      sub\n        /* \"#utility.yul\":3566:3598   */\n      slt\n        /* \"#utility.yul\":3563:3682   */\n      iszero\n      tag_107\n      jumpi\n        /* \"#utility.yul\":3601:3680   */\n      tag_108\n      tag_47\n      jump\t// in\n    tag_108:\n        /* \"#utility.yul\":3563:3682   */\n    tag_107:\n        /* \"#utility.yul\":3721:3722   */\n      0x00\n        /* \"#utility.yul\":3746:3810   */\n      tag_109\n        /* \"#utility.yul\":3802:3809   */\n      dup5\n        /* \"#utility.yul\":3793:3799   */\n      dup3\n        /* \"#utility.yul\":3782:3791   */\n      dup6\n        /* \"#utility.yul\":3778:3800   */\n      add\n        /* \"#utility.yul\":3746:3810   */\n      tag_60\n      jump\t// in\n    tag_109:\n        /* \"#utility.yul\":3736:3810   */\n      swap2\n      pop\n        /* \"#utility.yul\":3692:3820   */\n      pop\n        /* \"#utility.yul\":3476:3827   */\n      swap3\n      swap2\n      pop\n      pop\n      jump\t// out\n\n    auxdata: 0xa2646970667358221220c7e4a3bf6a4980d7ef742b5adf7ded69a66fda139545ef98947bf81f7e43714564736f6c634300081e0033\n}\n",
				"bytecode": {
					"linkReferences": {},
					"object": "6080604052348015600e575f5ffd5b506104b98061001c5f395ff3fe60806040526004361061003e575f3560e01c80634f483ace146100425780635fb845171461005e578063be06059d14610086578063f88b1641146100ae575b5f5ffd5b61005c6004803603810190610057919061034b565b6100ea565b005b348015610069575f5ffd5b50610084600480360381019061007f91906103b3565b610156565b005b348015610091575f5ffd5b506100ac60048036038101906100a7919061034b565b6101c5565b005b3480156100b9575f5ffd5b506100d460048036038101906100cf91906103f1565b61022f565b6040516100e1919061042b565b60405180910390f35b8173ffffffffffffffffffffffffffffffffffffffff16639ea883c834836040518363ffffffff1660e01b8152600401610124919061042b565b5f604051808303818588803b15801561013b575f5ffd5b505af115801561014d573d5f5f3e3d5ffd5b50505050505050565b5f8290508073ffffffffffffffffffffffffffffffffffffffff1663d423740b836040518263ffffffff1660e01b8152600401610193919061042b565b5f604051808303815f87803b1580156101aa575f5ffd5b505af11580156101bc573d5f5f3e3d5ffd5b50505050505050565b8173ffffffffffffffffffffffffffffffffffffffff1663d423740b826040518263ffffffff1660e01b81526004016101fe919061042b565b5f604051808303815f87803b158015610215575f5ffd5b505af1158015610227573d5f5f3e3d5ffd5b505050505050565b5f5f8273ffffffffffffffffffffffffffffffffffffffff1663993a04b76040518163ffffffff1660e01b8152600401602060405180830381865afa15801561027a573d5f5f3e3d5ffd5b505050506040513d601f19601f8201168201806040525081019061029e9190610458565b905080915050919050565b5f5ffd5b5f73ffffffffffffffffffffffffffffffffffffffff82169050919050565b5f6102d6826102ad565b9050919050565b5f6102e7826102cc565b9050919050565b6102f7816102dd565b8114610301575f5ffd5b50565b5f81359050610312816102ee565b92915050565b5f819050919050565b61032a81610318565b8114610334575f5ffd5b50565b5f8135905061034581610321565b92915050565b5f5f60408385031215610361576103606102a9565b5b5f61036e85828601610304565b925050602061037f85828601610337565b9150509250929050565b610392816102cc565b811461039c575f5ffd5b50565b5f813590506103ad81610389565b92915050565b5f5f604083850312156103c9576103c86102a9565b5b5f6103d68582860161039f565b92505060206103e785828601610337565b9150509250929050565b5f60208284031215610406576104056102a9565b5b5f61041384828501610304565b91505092915050565b61042581610318565b82525050565b5f60208201905061043e5f83018461041c565b92915050565b5f8151905061045281610321565b92915050565b5f6020828403121561046d5761046c6102a9565b5b5f61047a84828501610444565b9150509291505056fea2646970667358221220c7e4a3bf6a4980d7ef742b5adf7ded69a66fda139545ef98947bf81f7e43714564736f6c634300081e0033",
					"opcodes": "PUSH1 0x80 PUSH1 0x40 MSTORE CALLVALUE DUP1 ISZERO PUSH1 0xE JUMPI PUSH0 PUSH0 REVERT JUMPDEST POP PUSH2 0x4B9 DUP1 PUSH2 0x1C PUSH0 CODECOPY PUSH0 RETURN INVALID PUSH1 0x80 PUSH1 0x40 MSTORE PUSH1 0x4 CALLDATASIZE LT PUSH2 0x3E JUMPI PUSH0 CALLDATALOAD PUSH1 0xE0 SHR DUP1 PUSH4 0x4F483ACE EQ PUSH2 0x42 JUMPI DUP1 PUSH4 0x5FB84517 EQ PUSH2 0x5E JUMPI DUP1 PUSH4 0xBE06059D EQ PUSH2 0x86 JUMPI DUP1 PUSH4 0xF88B1641 EQ PUSH2 0xAE JUMPI JUMPDEST PUSH0 PUSH0 REVERT JUMPDEST PUSH2 0x5C PUSH1 0x4 DUP1 CALLDATASIZE SUB DUP2 ADD SWAP1 PUSH2 0x57 SWAP2 SWAP1 PUSH2 0x34B JUMP JUMPDEST PUSH2 0xEA JUMP JUMPDEST STOP JUMPDEST CALLVALUE DUP1 ISZERO PUSH2 0x69 JUMPI PUSH0 PUSH0 REVERT JUMPDEST POP PUSH2 0x84 PUSH1 0x4 DUP1 CALLDATASIZE SUB DUP2 ADD SWAP1 PUSH2 0x7F SWAP2 SWAP1 PUSH2 0x3B3 JUMP JUMPDEST PUSH2 0x156 JUMP JUMPDEST STOP JUMPDEST CALLVALUE DUP1 ISZERO PUSH2 0x91 JUMPI PUSH0 PUSH0 REVERT JUMPDEST POP PUSH2 0xAC PUSH1 0x4 DUP1 CALLDATASIZE SUB DUP2 ADD SWAP1 PUSH2 0xA7 SWAP2 SWAP1 PUSH2 0x34B JUMP JUMPDEST PUSH2 0x1C5 JUMP JUMPDEST STOP JUMPDEST CALLVALUE DUP1 ISZERO PUSH2 0xB9 JUMPI PUSH0 PUSH0 REVERT JUMPDEST POP PUSH2 0xD4 PUSH1 0x4 DUP1 CALLDATASIZE SUB DUP2 ADD SWAP1 PUSH2 0xCF SWAP2 SWAP1 PUSH2 0x3F1 JUMP JUMPDEST PUSH2 0x22F JUMP JUMPDEST PUSH1 0x40 MLOAD PUSH2 0xE1 SWAP2 SWAP1 PUSH2 0x42B JUMP JUMPDEST PUSH1 0x40 MLOAD DUP1 SWAP2 SUB SWAP1 RETURN JUMPDEST DUP2 PUSH20 0xFFFFFFFFFFFFFFFFFFFFFFFFFFFFFFFFFFFFFFFF AND PUSH4 0x9EA883C8 CALLVALUE DUP4 PUSH1 0x40 MLOAD DUP4 PUSH4 0xFFFFFFFF AND PUSH1 0xE0 SHL DUP2 MSTORE PUSH1 0x4 ADD PUSH2 0x124 SWAP2 SWAP1 PUSH2 0x42B JUMP JUMPDEST PUSH0 PUSH1 0x40 MLOAD DUP1 DUP4 SUB DUP2 DUP6 DUP9 DUP1 EXTCODESIZE ISZERO DUP1 ISZERO PUSH2 0x13B JUMPI PUSH0 PUSH0 REVERT JUMPDEST POP GAS CALL ISZERO DUP1 ISZERO PUSH2 0x14D JUMPI RETURNDATASIZE PUSH0 PUSH0 RETURNDATACOPY RETURNDATASIZE PUSH0 REVERT JUMPDEST POP POP POP POP POP POP POP JUMP JUMPDEST PUSH0 DUP3 SWAP1 POP DUP1 PUSH20 0xFFFFFFFFFFFFFFFFFFFFFFFFFFFFFFFFFFFFFFFF AND PUSH4 0xD423740B DUP4 PUSH1 0x40 MLOAD DUP3 PUSH4 0xFFFFFFFF AND PUSH1 0xE0 SHL DUP2 MSTORE PUSH1 0x4 ADD PUSH2 0x193 SWAP2 SWAP1 PUSH2 0x42B JUMP JUMPDEST PUSH0 PUSH1 0x40 MLOAD DUP1 DUP4 SUB DUP2 PUSH0 DUP8 DUP1 EXTCODESIZE ISZERO DUP1 ISZERO PUSH2 0x1AA JUMPI PUSH0 PUSH0 REVERT JUMPDEST POP GAS CALL ISZERO DUP1 ISZERO PUSH2 0x1BC JUMPI RETURNDATASIZE PUSH0 PUSH0 RETURNDATACOPY RETURNDATASIZE PUSH0 REVERT JUMPDEST POP POP POP POP POP POP POP JUMP JUMPDEST DUP2 PUSH20 0xFFFFFFFFFFFFFFFFFFFFFFFFFFFFFFFFFFFFFFFF AND PUSH4 0xD423740B DUP3 PUSH1 0x40 MLOAD DUP3 PUSH4 0xFFFFFFFF AND PUSH1 0xE0 SHL DUP2 MSTORE PUSH1 0x4 ADD PUSH2 0x1FE SWAP2 SWAP1 PUSH2 0x42B JUMP JUMPDEST PUSH0 PUSH1 0x40 MLOAD DUP1 DUP4 SUB DUP2 PUSH0 DUP8 DUP1 EXTCODESIZE ISZERO DUP1 ISZERO PUSH2 0x215 JUMPI PUSH0 PUSH0 REVERT JUMPDEST POP GAS CALL ISZERO DUP1 ISZERO PUSH2 0x227 JUMPI RETURNDATASIZE PUSH0 PUSH0 RETURNDATACOPY RETURNDATASIZE PUSH0 REVERT JUMPDEST POP POP POP POP POP POP JUMP JUMPDEST PUSH0 PUSH0 DUP3 PUSH20 0xFFFFFFFFFFFFFFFFFFFFFFFFFFFFFFFFFFFFFFFF AND PUSH4 0x993A04B7 PUSH1 0x40 MLOAD DUP2 PUSH4 0xFFFFFFFF AND PUSH1 0xE0 SHL DUP2 MSTORE PUSH1 0x4 ADD PUSH1 0x20 PUSH1 0x40 MLOAD DUP1 DUP4 SUB DUP2 DUP7 GAS STATICCALL ISZERO DUP1 ISZERO PUSH2 0x27A JUMPI RETURNDATASIZE PUSH0 PUSH0 RETURNDATACOPY RETURNDATASIZE PUSH0 REVERT JUMPDEST POP POP POP POP PUSH1 0x40 MLOAD RETURNDATASIZE PUSH1 0x1F NOT PUSH1 0x1F DUP3 ADD AND DUP3 ADD DUP1 PUSH1 0x40 MSTORE POP DUP2 ADD SWAP1 PUSH2 0x29E SWAP2 SWAP1 PUSH2 0x458 JUMP JUMPDEST SWAP1 POP DUP1 SWAP2 POP POP SWAP2 SWAP1 POP JUMP JUMPDEST PUSH0 PUSH0 REVERT JUMPDEST PUSH0 PUSH20 0xFFFFFFFFFFFFFFFFFFFFFFFFFFFFFFFFFFFFFFFF DUP3 AND SWAP1 POP SWAP2 SWAP1 POP JUMP JUMPDEST PUSH0 PUSH2 0x2D6 DUP3 PUSH2 0x2AD JUMP JUMPDEST SWAP1 POP SWAP2 SWAP1 POP JUMP JUMPDEST PUSH0 PUSH2 0x2E7 DUP3 PUSH2 0x2CC JUMP JUMPDEST SWAP1 POP SWAP2 SWAP1 POP JUMP JUMPDEST PUSH2 0x2F7 DUP2 PUSH2 0x2DD JUMP JUMPDEST DUP2 EQ PUSH2 0x301 JUMPI PUSH0 PUSH0 REVERT JUMPDEST POP JUMP JUMPDEST PUSH0 DUP2 CALLDATALOAD SWAP1 POP PUSH2 0x312 DUP2 PUSH2 0x2EE JUMP JUMPDEST SWAP3 SWAP2 POP POP JUMP JUMPDEST PUSH0 DUP2 SWAP1 POP SWAP2 SWAP1 POP JUMP JUMPDEST PUSH2 0x32A DUP2 PUSH2 0x318 JUMP JUMPDEST DUP2 EQ PUSH2 0x334 JUMPI PUSH0 PUSH0 REVERT JUMPDEST POP JUMP JUMPDEST PUSH0 DUP2 CALLDATALOAD SWAP1 POP PUSH2 0x345 DUP2 PUSH2 0x321 JUMP JUMPDEST SWAP3 SWAP2 POP POP JUMP JUMPDEST PUSH0 PUSH0 PUSH1 0x40 DUP4 DUP6 SUB SLT ISZERO PUSH2 0x361 JUMPI PUSH2 0x360 PUSH2 0x2A9 JUMP JUMPDEST JUMPDEST PUSH0 PUSH2 0x36E DUP6 DUP3 DUP7 ADD PUSH2 0x304 JUMP JUMPDEST SWAP3 POP POP PUSH1 0x20 PUSH2 0x37F DUP6 DUP3 DUP7 ADD PUSH2 0x337 JUMP JUMPDEST SWAP2 POP POP SWAP3 POP SWAP3 SWAP1 POP JUMP JUMPDEST PUSH2 0x392 DUP2 PUSH2 0x2CC JUMP JUMPDEST DUP2 EQ PUSH2 0x39C JUMPI PUSH0 PUSH0 REVERT JUMPDEST POP JUMP JUMPDEST PUSH0 DUP2 CALLDATALOAD SWAP1 POP PUSH2 0x3AD DUP2 PUSH2 0x389 JUMP JUMPDEST SWAP3 SWAP2 POP POP JUMP JUMPDEST PUSH0 PUSH0 PUSH1 0x40 DUP4 DUP6 SUB SLT ISZERO PUSH2 0x3C9 JUMPI PUSH2 0x3C8 PUSH2 0x2A9 JUMP JUMPDEST JUMPDEST PUSH0 PUSH2 0x3D6 DUP6 DUP3 DUP7 ADD PUSH2 0x39F JUMP JUMPDEST SWAP3 POP POP PUSH1 0x20 PUSH2 0x3E7 DUP6 DUP3 DUP7 ADD PUSH2 0x337 JUMP JUMPDEST SWAP2 POP POP SWAP3 POP SWAP3 SWAP1 POP JUMP JUMPDEST PUSH0 PUSH1 0x20 DUP3 DUP5 SUB SLT ISZERO PUSH2 0x406 JUMPI PUSH2 0x405 PUSH2 0x2A9 JUMP JUMPDEST JUMPDEST PUSH0 PUSH2 0x413 DUP5 DUP3 DUP6 ADD PUSH2 0x304 JUMP JUMPDEST SWAP2 POP POP SWAP3 SWAP2 POP POP JUMP JUMPDEST PUSH2 0x425 DUP2 PUSH2 0x318 JUMP JUMPDEST DUP3 MSTORE POP POP JUMP JUMPDEST PUSH0 PUSH1 0x20 DUP3 ADD SWAP1 POP PUSH2 0x43E PUSH0 DUP4 ADD DUP5 PUSH2 0x41C JUMP JUMPDEST SWAP3 SWAP2 POP POP JUMP JUMPDEST PUSH0 DUP2 MLOAD SWAP1 POP PUSH2 0x452 DUP2 PUSH2 0x321 JUMP JUMPDEST SWAP3 SWAP2 POP POP JUMP JUMPDEST PUSH0 PUSH1 0x20 DUP3 DUP5 SUB SLT ISZERO PUSH2 0x46D JUMPI PUSH2 0x46C PUSH2 0x2A9 JUMP JUMPDEST JUMPDEST PUSH0 PUSH2 0x47A DUP5 DUP3 DUP6 ADD PUSH2 0x444 JUMP JUMPDEST SWAP2 POP POP SWAP3 SWAP2 POP POP JUMP INVALID LOG2 PUSH5 0x6970667358 0x22 SLT KECCAK256 0xC7 RETF LOG3 0xBF PUSH11 0x4980D7EF742B5ADF7DED69 0xA6 PUSH16 0xDA139545EF98947BF81F7E4371456473 PUSH16 0x6C634300081E00330000000000000000 "
				},
				"gasEstimates": {
					"creation": {
						"codeDepositCost": "241800",
						"executionCost": "279",
						"totalCost": "242079"
					},
					"external": {
						"getter(address)": "infinite",
						"payableSetter(address,uint256)": "infinite",
						"setter(address,uint256)": "infinite",
						"setterViaAddress(address,uint256)": "infinite"
					}
				},
				"methodIdentifiers": {
					"getter(address)": "f88b1641",
					"payableSetter(address,uint256)": "4f483ace",
					"setter(address,uint256)": "be06059d",
					"setterViaAddress(address,uint256)": "5fb84517"
				}
			},
			"storageLayout": {
				"storage": [],
				"types": null
			},
			"userdoc": {
				"kind": "user",
				"methods": {},
				"version": 1
			}
		}
	}
}