{
	"contracts/externelLibrary/libraryTypedStaticCall/MyContract.sol": {
		"MyContract": {
			"abi": [
				{
					"inputs": [
						{
							"internalType": "uint256",
							"name": "a",
							"type": "uint256"
						},
						{
							"internalType": "uint256",
							"name": "b",
							"type": "uint256"
						}
					],
					"name": "useLibraryFunction",
					"outputs": [
						{
							"internalType": "uint256",
							"name": "",
							"type": "uint256"
						}
					],
					"stateMutability": "view",
					"type": "function"
				}
			],
			"devdoc": {
				"kind": "dev",
				"methods": {},
				"version": 1
			},
			"evm": {
				"assembly": "    /* \"contracts/externelLibrary/libraryTypedStaticCall/MyContract.sol\":60:589  contract MyContract {... */\n  mstore(0x40, 0x80)\n  callvalue\n  dup1\n  iszero\n  tag_1\n  jumpi\n  revert(0x00, 0x00)\ntag_1:\n  pop\n  dataSize(sub_0)\n  dup1\n  dataOffset(sub_0)\n  0x00\n  codecopy\n  0x00\n  return\nstop\n\nsub_0: assembly {\n        /* \"contracts/externelLibrary/libraryTypedStaticCall/MyContract.sol\":60:589  contract MyContract {... */\n      mstore(0x40, 0x80)\n      callvalue\n      dup1\n      iszero\n      tag_1\n      jumpi\n      revert(0x00, 0x00)\n    tag_1:\n      pop\n      jumpi(tag_2, lt(calldatasize, 0x04))\n      shr(0xe0, calldataload(0x00))\n      dup1\n      0x0913813d\n      eq\n      tag_3\n      jumpi\n    tag_2:\n      revert(0x00, 0x00)\n        /* \"contracts/externelLibrary/libraryTypedStaticCall/MyContract.sol\":232:586  function useLibraryFunction(uint256 a, uint256 b) public view returns (uint256) {... */\n    tag_3:\n      tag_4\n      0x04\n      dup1\n      calldatasize\n      sub\n      dup2\n      add\n      swap1\n      tag_5\n      swap2\n      swap1\n      tag_6\n      jump\t// in\n    tag_5:\n      tag_7\n      jump\t// in\n    tag_4:\n      mload(0x40)\n      tag_8\n      swap2\n      swap1\n      tag_9\n      jump\t// in\n    tag_8:\n      mload(0x40)\n      dup1\n      swap2\n      sub\n      swap1\n      return\n    tag_7:\n        /* \"contracts/externelLibrary/libraryTypedStaticCall/MyContract.sol\":303:310  uint256 */\n      0x00\n        /* \"contracts/externelLibrary/libraryTypedStaticCall/MyContract.sol\":324:336  bool success */\n      0x00\n        /* \"contracts/externelLibrary/libraryTypedStaticCall/MyContract.sol\":338:361  bytes memory returnData */\n      0x00\n        /* \"contracts/externelLibrary/libraryTypedStaticCall/MyContract.sol\":181:223  0x598F68376bCeA149d7b8DCEd0394B8e53cC95F11 */\n      0x598f68376bcea149d7b8dced0394b8e53cc95f11\n        /* \"contracts/externelLibrary/libraryTypedStaticCall/MyContract.sol\":365:396  MATH_LIBRARY_ADDRESS.staticcall */\n      0xffffffffffffffffffffffffffffffffffffffff\n      and\n        /* \"contracts/externelLibrary/libraryTypedStaticCall/MyContract.sol\":459:460  a */\n      dup6\n        /* \"contracts/externelLibrary/libraryTypedStaticCall/MyContract.sol\":462:463  b */\n      dup6\n        /* \"contracts/externelLibrary/libraryTypedStaticCall/MyContract.sol\":411:464  abi.encodeWithSignature(\"mul(uint256,uint256)\", a, b) */\n      add(0x24, mload(0x40))\n      tag_11\n      swap3\n      swap2\n      swap1\n      tag_12\n      jump\t// in\n    tag_11:\n      mload(0x40)\n      0x20\n      dup2\n      dup4\n      sub\n      sub\n      dup2\n      mstore\n      swap1\n      0x40\n      mstore\n      and(not(0xffffffffffffffffffffffffffffffffffffffffffffffffffffffff), 0xc8a4ac9c00000000000000000000000000000000000000000000000000000000)\n      0x20\n      dup3\n      add\n      dup1\n      mload\n      0xffffffffffffffffffffffffffffffffffffffffffffffffffffffff\n      dup4\n      dup2\n      dup4\n      and\n      or\n      dup4\n      mstore\n      pop\n      pop\n      pop\n      pop\n        /* \"contracts/externelLibrary/libraryTypedStaticCall/MyContract.sol\":365:475  MATH_LIBRARY_ADDRESS.staticcall(... */\n      mload(0x40)\n      tag_13\n      swap2\n      swap1\n      tag_14\n      jump\t// in\n    tag_13:\n      0x00\n      mload(0x40)\n      dup1\n      dup4\n      sub\n      dup2\n      dup6\n      gas\n      staticcall\n      swap2\n      pop\n      pop\n      returndatasize\n      dup1\n      0x00\n      dup2\n      eq\n      tag_17\n      jumpi\n      mload(0x40)\n      swap2\n      pop\n      and(add(returndatasize, 0x3f), not(0x1f))\n      dup3\n      add\n      0x40\n      mstore\n      returndatasize\n      dup3\n      mstore\n      returndatasize\n      0x00\n      0x20\n      dup5\n      add\n      returndatacopy\n      jump(tag_16)\n    tag_17:\n      0x60\n      swap2\n      pop\n    tag_16:\n      pop\n        /* \"contracts/externelLibrary/libraryTypedStaticCall/MyContract.sol\":323:475  (bool success, bytes memory returnData) = MATH_LIBRARY_ADDRESS.staticcall(... */\n      swap2\n      pop\n      swap2\n      pop\n        /* \"contracts/externelLibrary/libraryTypedStaticCall/MyContract.sol\":494:501  success */\n      dup2\n        /* \"contracts/externelLibrary/libraryTypedStaticCall/MyContract.sol\":486:525  require(success, \"Library call failed\") */\n      tag_18\n      jumpi\n      mload(0x40)\n      0x08c379a000000000000000000000000000000000000000000000000000000000\n      dup2\n      mstore\n      0x04\n      add\n      tag_19\n      swap1\n      tag_20\n      jump\t// in\n    tag_19:\n      mload(0x40)\n      dup1\n      swap2\n      sub\n      swap1\n      revert\n    tag_18:\n        /* \"contracts/externelLibrary/libraryTypedStaticCall/MyContract.sol\":556:566  returnData */\n      dup1\n        /* \"contracts/externelLibrary/libraryTypedStaticCall/MyContract.sol\":545:578  abi.decode(returnData, (uint256)) */\n      dup1\n      0x20\n      add\n      swap1\n      mload\n      dup2\n      add\n      swap1\n      tag_21\n      swap2\n      swap1\n      tag_22\n      jump\t// in\n    tag_21:\n        /* \"contracts/externelLibrary/libraryTypedStaticCall/MyContract.sol\":538:578  return abi.decode(returnData, (uint256)) */\n      swap3\n      pop\n      pop\n      pop\n        /* \"contracts/externelLibrary/libraryTypedStaticCall/MyContract.sol\":232:586  function useLibraryFunction(uint256 a, uint256 b) public view returns (uint256) {... */\n      swap3\n      swap2\n      pop\n      pop\n      jump\t// out\n        /* \"#utility.yul\":88:205   */\n    tag_24:\n        /* \"#utility.yul\":197:198   */\n      0x00\n        /* \"#utility.yul\":194:195   */\n      0x00\n        /* \"#utility.yul\":187:199   */\n      revert\n        /* \"#utility.yul\":334:411   */\n    tag_26:\n        /* \"#utility.yul\":371:378   */\n      0x00\n        /* \"#utility.yul\":400:405   */\n      dup2\n        /* \"#utility.yul\":389:405   */\n      swap1\n      pop\n        /* \"#utility.yul\":334:411   */\n      swap2\n      swap1\n      pop\n      jump\t// out\n        /* \"#utility.yul\":417:539   */\n    tag_27:\n        /* \"#utility.yul\":490:514   */\n      tag_44\n        /* \"#utility.yul\":508:513   */\n      dup2\n        /* \"#utility.yul\":490:514   */\n      tag_26\n      jump\t// in\n    tag_44:\n        /* \"#utility.yul\":483:488   */\n      dup2\n        /* \"#utility.yul\":480:515   */\n      eq\n        /* \"#utility.yul\":470:533   */\n      tag_45\n      jumpi\n        /* \"#utility.yul\":529:530   */\n      0x00\n        /* \"#utility.yul\":526:527   */\n      0x00\n        /* \"#utility.yul\":519:531   */\n      revert\n        /* \"#utility.yul\":470:533   */\n    tag_45:\n        /* \"#utility.yul\":417:539   */\n      pop\n      jump\t// out\n        /* \"#utility.yul\":545:684   */\n    tag_28:\n        /* \"#utility.yul\":591:596   */\n      0x00\n        /* \"#utility.yul\":629:635   */\n      dup2\n        /* \"#utility.yul\":616:636   */\n      calldataload\n        /* \"#utility.yul\":607:636   */\n      swap1\n      pop\n        /* \"#utility.yul\":645:678   */\n      tag_47\n        /* \"#utility.yul\":672:677   */\n      dup2\n        /* \"#utility.yul\":645:678   */\n      tag_27\n      jump\t// in\n    tag_47:\n        /* \"#utility.yul\":545:684   */\n      swap3\n      swap2\n      pop\n      pop\n      jump\t// out\n        /* \"#utility.yul\":690:1164   */\n    tag_6:\n        /* \"#utility.yul\":758:764   */\n      0x00\n        /* \"#utility.yul\":766:772   */\n      0x00\n        /* \"#utility.yul\":815:817   */\n      0x40\n        /* \"#utility.yul\":803:812   */\n      dup4\n        /* \"#utility.yul\":794:801   */\n      dup6\n        /* \"#utility.yul\":790:813   */\n      sub\n        /* \"#utility.yul\":786:818   */\n      slt\n        /* \"#utility.yul\":783:902   */\n      iszero\n      tag_49\n      jumpi\n        /* \"#utility.yul\":821:900   */\n      tag_50\n      tag_24\n      jump\t// in\n    tag_50:\n        /* \"#utility.yul\":783:902   */\n    tag_49:\n        /* \"#utility.yul\":941:942   */\n      0x00\n        /* \"#utility.yul\":966:1019   */\n      tag_51\n        /* \"#utility.yul\":1011:1018   */\n      dup6\n        /* \"#utility.yul\":1002:1008   */\n      dup3\n        /* \"#utility.yul\":991:1000   */\n      dup7\n        /* \"#utility.yul\":987:1009   */\n      add\n        /* \"#utility.yul\":966:1019   */\n      tag_28\n      jump\t// in\n    tag_51:\n        /* \"#utility.yul\":956:1019   */\n      swap3\n      pop\n        /* \"#utility.yul\":912:1029   */\n      pop\n        /* \"#utility.yul\":1068:1070   */\n      0x20\n        /* \"#utility.yul\":1094:1147   */\n      tag_52\n        /* \"#utility.yul\":1139:1146   */\n      dup6\n        /* \"#utility.yul\":1130:1136   */\n      dup3\n        /* \"#utility.yul\":1119:1128   */\n      dup7\n        /* \"#utility.yul\":1115:1137   */\n      add\n        /* \"#utility.yul\":1094:1147   */\n      tag_28\n      jump\t// in\n    tag_52:\n        /* \"#utility.yul\":1084:1147   */\n      swap2\n      pop\n        /* \"#utility.yul\":1039:1157   */\n      pop\n        /* \"#utility.yul\":690:1164   */\n      swap3\n      pop\n      swap3\n      swap1\n      pop\n      jump\t// out\n        /* \"#utility.yul\":1170:1288   */\n    tag_29:\n        /* \"#utility.yul\":1257:1281   */\n      tag_54\n        /* \"#utility.yul\":1275:1280   */\n      dup2\n        /* \"#utility.yul\":1257:1281   */\n      tag_26\n      jump\t// in\n    tag_54:\n        /* \"#utility.yul\":1252:1255   */\n      dup3\n        /* \"#utility.yul\":1245:1282   */\n      mstore\n        /* \"#utility.yul\":1170:1288   */\n      pop\n      pop\n      jump\t// out\n        /* \"#utility.yul\":1294:1516   */\n    tag_9:\n        /* \"#utility.yul\":1387:1391   */\n      0x00\n        /* \"#utility.yul\":1425:1427   */\n      0x20\n        /* \"#utility.yul\":1414:1423   */\n      dup3\n        /* \"#utility.yul\":1410:1428   */\n      add\n        /* \"#utility.yul\":1402:1428   */\n      swap1\n      pop\n        /* \"#utility.yul\":1438:1509   */\n      tag_56\n        /* \"#utility.yul\":1506:1507   */\n      0x00\n        /* \"#utility.yul\":1495:1504   */\n      dup4\n        /* \"#utility.yul\":1491:1508   */\n      add\n        /* \"#utility.yul\":1482:1488   */\n      dup5\n        /* \"#utility.yul\":1438:1509   */\n      tag_29\n      jump\t// in\n    tag_56:\n        /* \"#utility.yul\":1294:1516   */\n      swap3\n      swap2\n      pop\n      pop\n      jump\t// out\n        /* \"#utility.yul\":1522:1854   */\n    tag_12:\n        /* \"#utility.yul\":1643:1647   */\n      0x00\n        /* \"#utility.yul\":1681:1683   */\n      0x40\n        /* \"#utility.yul\":1670:1679   */\n      dup3\n        /* \"#utility.yul\":1666:1684   */\n      add\n        /* \"#utility.yul\":1658:1684   */\n      swap1\n      pop\n        /* \"#utility.yul\":1694:1765   */\n      tag_58\n        /* \"#utility.yul\":1762:1763   */\n      0x00\n        /* \"#utility.yul\":1751:1760   */\n      dup4\n        /* \"#utility.yul\":1747:1764   */\n      add\n        /* \"#utility.yul\":1738:1744   */\n      dup6\n        /* \"#utility.yul\":1694:1765   */\n      tag_29\n      jump\t// in\n    tag_58:\n        /* \"#utility.yul\":1775:1847   */\n      tag_59\n        /* \"#utility.yul\":1843:1845   */\n      0x20\n        /* \"#utility.yul\":1832:1841   */\n      dup4\n        /* \"#utility.yul\":1828:1846   */\n      add\n        /* \"#utility.yul\":1819:1825   */\n      dup5\n        /* \"#utility.yul\":1775:1847   */\n      tag_29\n      jump\t// in\n    tag_59:\n        /* \"#utility.yul\":1522:1854   */\n      swap4\n      swap3\n      pop\n      pop\n      pop\n      jump\t// out\n        /* \"#utility.yul\":1860:1958   */\n    tag_30:\n        /* \"#utility.yul\":1911:1917   */\n      0x00\n        /* \"#utility.yul\":1945:1950   */\n      dup2\n        /* \"#utility.yul\":1939:1951   */\n      mload\n        /* \"#utility.yul\":1929:1951   */\n      swap1\n      pop\n        /* \"#utility.yul\":1860:1958   */\n      swap2\n      swap1\n      pop\n      jump\t// out\n        /* \"#utility.yul\":1964:2111   */\n    tag_31:\n        /* \"#utility.yul\":2065:2076   */\n      0x00\n        /* \"#utility.yul\":2102:2105   */\n      dup2\n        /* \"#utility.yul\":2087:2105   */\n      swap1\n      pop\n        /* \"#utility.yul\":1964:2111   */\n      swap3\n      swap2\n      pop\n      pop\n      jump\t// out\n        /* \"#utility.yul\":2117:2256   */\n    tag_32:\n        /* \"#utility.yul\":2206:2212   */\n      dup3\n        /* \"#utility.yul\":2201:2204   */\n      dup2\n        /* \"#utility.yul\":2196:2199   */\n      dup4\n        /* \"#utility.yul\":2190:2213   */\n      mcopy\n        /* \"#utility.yul\":2247:2248   */\n      0x00\n        /* \"#utility.yul\":2238:2244   */\n      dup4\n        /* \"#utility.yul\":2233:2236   */\n      dup4\n        /* \"#utility.yul\":2229:2245   */\n      add\n        /* \"#utility.yul\":2222:2249   */\n      mstore\n        /* \"#utility.yul\":2117:2256   */\n      pop\n      pop\n      pop\n      jump\t// out\n        /* \"#utility.yul\":2262:2648   */\n    tag_33:\n        /* \"#utility.yul\":2366:2369   */\n      0x00\n        /* \"#utility.yul\":2394:2432   */\n      tag_64\n        /* \"#utility.yul\":2426:2431   */\n      dup3\n        /* \"#utility.yul\":2394:2432   */\n      tag_30\n      jump\t// in\n    tag_64:\n        /* \"#utility.yul\":2448:2536   */\n      tag_65\n        /* \"#utility.yul\":2529:2535   */\n      dup2\n        /* \"#utility.yul\":2524:2527   */\n      dup6\n        /* \"#utility.yul\":2448:2536   */\n      tag_31\n      jump\t// in\n    tag_65:\n        /* \"#utility.yul\":2441:2536   */\n      swap4\n      pop\n        /* \"#utility.yul\":2545:2610   */\n      tag_66\n        /* \"#utility.yul\":2603:2609   */\n      dup2\n        /* \"#utility.yul\":2598:2601   */\n      dup6\n        /* \"#utility.yul\":2591:2595   */\n      0x20\n        /* \"#utility.yul\":2584:2589   */\n      dup7\n        /* \"#utility.yul\":2580:2596   */\n      add\n        /* \"#utility.yul\":2545:2610   */\n      tag_32\n      jump\t// in\n    tag_66:\n        /* \"#utility.yul\":2635:2641   */\n      dup1\n        /* \"#utility.yul\":2630:2633   */\n      dup5\n        /* \"#utility.yul\":2626:2642   */\n      add\n        /* \"#utility.yul\":2619:2642   */\n      swap2\n      pop\n        /* \"#utility.yul\":2370:2648   */\n      pop\n        /* \"#utility.yul\":2262:2648   */\n      swap3\n      swap2\n      pop\n      pop\n      jump\t// out\n        /* \"#utility.yul\":2654:2925   */\n    tag_14:\n        /* \"#utility.yul\":2784:2787   */\n      0x00\n        /* \"#utility.yul\":2806:2899   */\n      tag_68\n        /* \"#utility.yul\":2895:2898   */\n      dup3\n        /* \"#utility.yul\":2886:2892   */\n      dup5\n        /* \"#utility.yul\":2806:2899   */\n      tag_33\n      jump\t// in\n    tag_68:\n        /* \"#utility.yul\":2799:2899   */\n      swap2\n      pop\n        /* \"#utility.yul\":2916:2919   */\n      dup2\n        /* \"#utility.yul\":2909:2919   */\n      swap1\n      pop\n        /* \"#utility.yul\":2654:2925   */\n      swap3\n      swap2\n      pop\n      pop\n      jump\t// out\n        /* \"#utility.yul\":2931:3100   */\n    tag_34:\n        /* \"#utility.yul\":3015:3026   */\n      0x00\n        /* \"#utility.yul\":3049:3055   */\n      dup3\n        /* \"#utility.yul\":3044:3047   */\n      dup3\n        /* \"#utility.yul\":3037:3056   */\n      mstore\n        /* \"#utility.yul\":3089:3093   */\n      0x20\n        /* \"#utility.yul\":3084:3087   */\n      dup3\n        /* \"#utility.yul\":3080:3094   */\n      add\n        /* \"#utility.yul\":3065:3094   */\n      swap1\n      pop\n        /* \"#utility.yul\":2931:3100   */\n      swap3\n      swap2\n      pop\n      pop\n      jump\t// out\n        /* \"#utility.yul\":3106:3275   */\n    tag_35:\n        /* \"#utility.yul\":3246:3267   */\n      0x4c6962726172792063616c6c206661696c656400000000000000000000000000\n        /* \"#utility.yul\":3242:3243   */\n      0x00\n        /* \"#utility.yul\":3234:3240   */\n      dup3\n        /* \"#utility.yul\":3230:3244   */\n      add\n        /* \"#utility.yul\":3223:3268   */\n      mstore\n        /* \"#utility.yul\":3106:3275   */\n      pop\n      jump\t// out\n        /* \"#utility.yul\":3281:3647   */\n    tag_36:\n        /* \"#utility.yul\":3423:3426   */\n      0x00\n        /* \"#utility.yul\":3444:3511   */\n      tag_72\n        /* \"#utility.yul\":3508:3510   */\n      0x13\n        /* \"#utility.yul\":3503:3506   */\n      dup4\n        /* \"#utility.yul\":3444:3511   */\n      tag_34\n      jump\t// in\n    tag_72:\n        /* \"#utility.yul\":3437:3511   */\n      swap2\n      pop\n        /* \"#utility.yul\":3520:3613   */\n      tag_73\n        /* \"#utility.yul\":3609:3612   */\n      dup3\n        /* \"#utility.yul\":3520:3613   */\n      tag_35\n      jump\t// in\n    tag_73:\n        /* \"#utility.yul\":3638:3640   */\n      0x20\n        /* \"#utility.yul\":3633:3636   */\n      dup3\n        /* \"#utility.yul\":3629:3641   */\n      add\n        /* \"#utility.yul\":3622:3641   */\n      swap1\n      pop\n        /* \"#utility.yul\":3281:3647   */\n      swap2\n      swap1\n      pop\n      jump\t// out\n        /* \"#utility.yul\":3653:4072   */\n    tag_20:\n        /* \"#utility.yul\":3819:3823   */\n      0x00\n        /* \"#utility.yul\":3857:3859   */\n      0x20\n        /* \"#utility.yul\":3846:3855   */\n      dup3\n        /* \"#utility.yul\":3842:3860   */\n      add\n        /* \"#utility.yul\":3834:3860   */\n      swap1\n      pop\n        /* \"#utility.yul\":3906:3915   */\n      dup2\n        /* \"#utility.yul\":3900:3904   */\n      dup2\n        /* \"#utility.yul\":3896:3916   */\n      sub\n        /* \"#utility.yul\":3892:3893   */\n      0x00\n        /* \"#utility.yul\":3881:3890   */\n      dup4\n        /* \"#utility.yul\":3877:3894   */\n      add\n        /* \"#utility.yul\":3870:3917   */\n      mstore\n        /* \"#utility.yul\":3934:4065   */\n      tag_75\n        /* \"#utility.yul\":4060:4064   */\n      dup2\n        /* \"#utility.yul\":3934:4065   */\n      tag_36\n      jump\t// in\n    tag_75:\n        /* \"#utility.yul\":3926:4065   */\n      swap1\n      pop\n        /* \"#utility.yul\":3653:4072   */\n      swap2\n      swap1\n      pop\n      jump\t// out\n        /* \"#utility.yul\":4078:4221   */\n    tag_37:\n        /* \"#utility.yul\":4135:4140   */\n      0x00\n        /* \"#utility.yul\":4166:4172   */\n      dup2\n        /* \"#utility.yul\":4160:4173   */\n      mload\n        /* \"#utility.yul\":4151:4173   */\n      swap1\n      pop\n        /* \"#utility.yul\":4182:4215   */\n      tag_77\n        /* \"#utility.yul\":4209:4214   */\n      dup2\n        /* \"#utility.yul\":4182:4215   */\n      tag_27\n      jump\t// in\n    tag_77:\n        /* \"#utility.yul\":4078:4221   */\n      swap3\n      swap2\n      pop\n      pop\n      jump\t// out\n        /* \"#utility.yul\":4227:4578   */\n    tag_22:\n        /* \"#utility.yul\":4297:4303   */\n      0x00\n        /* \"#utility.yul\":4346:4348   */\n      0x20\n        /* \"#utility.yul\":4334:4343   */\n      dup3\n        /* \"#utility.yul\":4325:4332   */\n      dup5\n        /* \"#utility.yul\":4321:4344   */\n      sub\n        /* \"#utility.yul\":4317:4349   */\n      slt\n        /* \"#utility.yul\":4314:4433   */\n      iszero\n      tag_79\n      jumpi\n        /* \"#utility.yul\":4352:4431   */\n      tag_80\n      tag_24\n      jump\t// in\n    tag_80:\n        /* \"#utility.yul\":4314:4433   */\n    tag_79:\n        /* \"#utility.yul\":4472:4473   */\n      0x00\n        /* \"#utility.yul\":4497:4561   */\n      tag_81\n        /* \"#utility.yul\":4553:4560   */\n      dup5\n        /* \"#utility.yul\":4544:4550   */\n      dup3\n        /* \"#utility.yul\":4533:4542   */\n      dup6\n        /* \"#utility.yul\":4529:4551   */\n      add\n        /* \"#utility.yul\":4497:4561   */\n      tag_37\n      jump\t// in\n    tag_81:\n        /* \"#utility.yul\":4487:4561   */\n      swap2\n      pop\n        /* \"#utility.yul\":4443:4571   */\n      pop\n        /* \"#utility.yul\":4227:4578   */\n      swap3\n      swap2\n      pop\n      pop\n      jump\t// out\n\n    auxdata: 0xa2646970667358221220583d7df5aee27848c6170a6cf50d142609d416822d9438b1cbd4954693b4325a64736f6c634300081e0033\n}\n",
				"bytecode": {
					"linkReferences": {},
					"object": "6080604052348015600e575f5ffd5b506103e18061001c5f395ff3fe608060405234801561000f575f5ffd5b5060043610610029575f3560e01c80630913813d1461002d575b5f5ffd5b610047600480360381019061004291906101ff565b61005d565b604051610054919061024c565b60405180910390f35b5f5f5f73598f68376bcea149d7b8dced0394b8e53cc95f1173ffffffffffffffffffffffffffffffffffffffff16858560405160240161009e929190610265565b6040516020818303038152906040527fc8a4ac9c000000000000000000000000000000000000000000000000000000007bffffffffffffffffffffffffffffffffffffffffffffffffffffffff19166020820180517bffffffffffffffffffffffffffffffffffffffffffffffffffffffff838183161783525050505060405161012891906102de565b5f60405180830381855afa9150503d805f8114610160576040519150601f19603f3d011682016040523d82523d5f602084013e610165565b606091505b5091509150816101aa576040517f08c379a00000000000000000000000000000000000000000000000000000000081526004016101a19061034e565b60405180910390fd5b808060200190518101906101be9190610380565b9250505092915050565b5f5ffd5b5f819050919050565b6101de816101cc565b81146101e8575f5ffd5b50565b5f813590506101f9816101d5565b92915050565b5f5f60408385031215610215576102146101c8565b5b5f610222858286016101eb565b9250506020610233858286016101eb565b9150509250929050565b610246816101cc565b82525050565b5f60208201905061025f5f83018461023d565b92915050565b5f6040820190506102785f83018561023d565b610285602083018461023d565b9392505050565b5f81519050919050565b5f81905092915050565b8281835e5f83830152505050565b5f6102b88261028c565b6102c28185610296565b93506102d28185602086016102a0565b80840191505092915050565b5f6102e982846102ae565b915081905092915050565b5f82825260208201905092915050565b7f4c6962726172792063616c6c206661696c6564000000000000000000000000005f82015250565b5f6103386013836102f4565b915061034382610304565b602082019050919050565b5f6020820190508181035f8301526103658161032c565b9050919050565b5f8151905061037a816101d5565b92915050565b5f60208284031215610395576103946101c8565b5b5f6103a28482850161036c565b9150509291505056fea2646970667358221220583d7df5aee27848c6170a6cf50d142609d416822d9438b1cbd4954693b4325a64736f6c634300081e0033",
					"opcodes": "PUSH1 0x80 PUSH1 0x40 MSTORE CALLVALUE DUP1 ISZERO PUSH1 0xE JUMPI PUSH0 PUSH0 REVERT JUMPDEST POP PUSH2 0x3E1 DUP1 PUSH2 0x1C PUSH0 CODECOPY PUSH0 RETURN INVALID PUSH1 0x80 PUSH1 0x40 MSTORE CALLVALUE DUP1 ISZERO PUSH2 0xF JUMPI PUSH0 PUSH0 REVERT JUMPDEST POP PUSH1 0x4 CALLDATASIZE LT PUSH2 0x29 JUMPI PUSH0 CALLDATALOAD PUSH1 0xE0 SHR DUP1 PUSH4 0x913813D EQ PUSH2 0x2D JUMPI JUMPDEST PUSH0 PUSH0 REVERT JUMPDEST PUSH2 0x47 PUSH1 0x4 DUP1 CALLDATASIZE SUB DUP2 ADD SWAP1 PUSH2 0x42 SWAP2 SWAP1 PUSH2 0x1FF JUMP JUMPDEST PUSH2 0x5D JUMP JUMPDEST PUSH1 0x40 MLOAD PUSH2 0x54 SWAP2 SWAP1 PUSH2 0x24C JUMP JUMPDEST PUSH1 0x40 MLOAD DUP1 SWAP2 SUB SWAP1 RETURN JUMPDEST PUSH0 PUSH0 PUSH0 PUSH20 0x598F68376BCEA149D7B8DCED0394B8E53CC95F11 PUSH20 0xFFFFFFFFFFFFFFFFFFFFFFFFFFFFFFFFFFFFFFFF AND DUP6 DUP6 PUSH1 0x40 MLOAD PUSH1 0x24 ADD PUSH2 0x9E SWAP3 SWAP2 SWAP1 PUSH2 0x265 JUMP JUMPDEST PUSH1 0x40 MLOAD PUSH1 0x20 DUP2 DUP4 SUB SUB DUP2 MSTORE SWAP1 PUSH1 0x40 MSTORE PUSH32 0xC8A4AC9C00000000000000000000000000000000000000000000000000000000 PUSH28 0xFFFFFFFFFFFFFFFFFFFFFFFFFFFFFFFFFFFFFFFFFFFFFFFFFFFFFFFF NOT AND PUSH1 0x20 DUP3 ADD DUP1 MLOAD PUSH28 0xFFFFFFFFFFFFFFFFFFFFFFFFFFFFFFFFFFFFFFFFFFFFFFFFFFFFFFFF DUP4 DUP2 DUP4 AND OR DUP4 MSTORE POP POP POP POP PUSH1 0x40 MLOAD PUSH2 0x128 SWAP2 SWAP1 PUSH2 0x2DE JUMP JUMPDEST PUSH0 PUSH1 0x40 MLOAD DUP1 DUP4 SUB DUP2 DUP6 GAS STATICCALL SWAP2 POP POP RETURNDATASIZE DUP1 PUSH0 DUP2 EQ PUSH2 0x160 JUMPI PUSH1 0x40 MLOAD SWAP2 POP PUSH1 0x1F NOT PUSH1 0x3F RETURNDATASIZE ADD AND DUP3 ADD PUSH1 0x40 MSTORE RETURNDATASIZE DUP3 MSTORE RETURNDATASIZE PUSH0 PUSH1 0x20 DUP5 ADD RETURNDATACOPY PUSH2 0x165 JUMP JUMPDEST PUSH1 0x60 SWAP2 POP JUMPDEST POP SWAP2 POP SWAP2 POP DUP2 PUSH2 0x1AA JUMPI PUSH1 0x40 MLOAD PUSH32 0x8C379A000000000000000000000000000000000000000000000000000000000 DUP2 MSTORE PUSH1 0x4 ADD PUSH2 0x1A1 SWAP1 PUSH2 0x34E JUMP JUMPDEST PUSH1 0x40 MLOAD DUP1 SWAP2 SUB SWAP1 REVERT JUMPDEST DUP1 DUP1 PUSH1 0x20 ADD SWAP1 MLOAD DUP2 ADD SWAP1 PUSH2 0x1BE SWAP2 SWAP1 PUSH2 0x380 JUMP JUMPDEST SWAP3 POP POP POP SWAP3 SWAP2 POP POP JUMP JUMPDEST PUSH0 PUSH0 REVERT JUMPDEST PUSH0 DUP2 SWAP1 POP SWAP2 SWAP1 POP JUMP JUMPDEST PUSH2 0x1DE DUP2 PUSH2 0x1CC JUMP JUMPDEST DUP2 EQ PUSH2 0x1E8 JUMPI PUSH0 PUSH0 REVERT JUMPDEST POP JUMP JUMPDEST PUSH0 DUP2 CALLDATALOAD SWAP1 POP PUSH2 0x1F9 DUP2 PUSH2 0x1D5 JUMP JUMPDEST SWAP3 SWAP2 POP POP JUMP JUMPDEST PUSH0 PUSH0 PUSH1 0x40 DUP4 DUP6 SUB SLT ISZERO PUSH2 0x215 JUMPI PUSH2 0x214 PUSH2 0x1C8 JUMP JUMPDEST JUMPDEST PUSH0 PUSH2 0x222 DUP6 DUP3 DUP7 ADD PUSH2 0x1EB JUMP JUMPDEST SWAP3 POP POP PUSH1 0x20 PUSH2 0x233 DUP6 DUP3 DUP7 ADD PUSH2 0x1EB JUMP JUMPDEST SWAP2 POP POP SWAP3 POP SWAP3 SWAP1 POP JUMP JUMPDEST PUSH2 0x246 DUP2 PUSH2 0x1CC JUMP JUMPDEST DUP3 MSTORE POP POP JUMP JUMPDEST PUSH0 PUSH1 0x20 DUP3 ADD SWAP1 POP PUSH2 0x25F PUSH0 DUP4 ADD DUP5 PUSH2 0x23D JUMP JUMPDEST SWAP3 SWAP2 POP POP JUMP JUMPDEST PUSH0 PUSH1 0x40 DUP3 ADD SWAP1 POP PUSH2 0x278 PUSH0 DUP4 ADD DUP6 PUSH2 0x23D JUMP JUMPDEST PUSH2 0x285 PUSH1 0x20 DUP4 ADD DUP5 PUSH2 0x23D JUMP JUMPDEST SWAP4 SWAP3 POP POP POP JUMP JUMPDEST PUSH0 DUP2 MLOAD SWAP1 POP SWAP2 SWAP1 POP JUMP JUMPDEST PUSH0 DUP2 SWAP1 POP SWAP3 SWAP2 POP POP JUMP JUMPDEST DUP3 DUP2 DUP4 MCOPY PUSH0 DUP4 DUP4 ADD MSTORE POP POP POP JUMP JUMPDEST PUSH0 PUSH2 0x2B8 DUP3 PUSH2 0x28C JUMP JUMPDEST PUSH2 0x2C2 DUP2 DUP6 PUSH2 0x296 JUMP JUMPDEST SWAP4 POP PUSH2 0x2D2 DUP2 DUP6 PUSH1 0x20 DUP7 ADD PUSH2 0x2A0 JUMP JUMPDEST DUP1 DUP5 ADD SWAP2 POP POP SWAP3 SWAP2 POP POP JUMP JUMPDEST PUSH0 PUSH2 0x2E9 DUP3 DUP5 PUSH2 0x2AE JUMP JUMPDEST SWAP2 POP DUP2 SWAP1 POP SWAP3 SWAP2 POP POP JUMP JUMPDEST PUSH0 DUP3 DUP3 MSTORE PUSH1 0x20 DUP3 ADD SWAP1 POP SWAP3 SWAP2 POP POP JUMP JUMPDEST PUSH32 0x4C6962726172792063616C6C206661696C656400000000000000000000000000 PUSH0 DUP3 ADD MSTORE POP JUMP JUMPDEST PUSH0 PUSH2 0x338 PUSH1 0x13 DUP4 PUSH2 0x2F4 JUMP JUMPDEST SWAP2 POP PUSH2 0x343 DUP3 PUSH2 0x304 JUMP JUMPDEST PUSH1 0x20 DUP3 ADD SWAP1 POP SWAP2 SWAP1 POP JUMP JUMPDEST PUSH0 PUSH1 0x20 DUP3 ADD SWAP1 POP DUP2 DUP2 SUB PUSH0 DUP4 ADD MSTORE PUSH2 0x365 DUP2 PUSH2 0x32C JUMP JUMPDEST SWAP1 POP SWAP2 SWAP1 POP JUMP JUMPDEST PUSH0 DUP2 MLOAD SWAP1 POP PUSH2 0x37A DUP2 PUSH2 0x1D5 JUMP JUMPDEST SWAP3 SWAP2 POP POP JUMP JUMPDEST PUSH0 PUSH1 0x20 DUP3 DUP5 SUB SLT ISZERO PUSH2 0x395 JUMPI PUSH2 0x394 PUSH2 0x1C8 JUMP JUMPDEST JUMPDEST PUSH0 PUSH2 0x3A2 DUP5 DUP3 DUP6 ADD PUSH2 0x36C JUMP JUMPDEST SWAP2 POP POP SWAP3 SWAP2 POP POP JUMP INVALID LOG2 PUSH5 0x6970667358 0x22 SLT KECCAK256 PC RETURNDATASIZE PUSH30 0xF5AEE27848C6170A6CF50D142609D416822D9438B1CBD4954693B4325A64 PUSH20 0x6F6C634300081E00330000000000000000000000 "
				},
				"gasEstimates": {
					"creation": {
						"codeDepositCost": "198600",
						"executionCost": "243",
						"totalCost": "198843"
					},
					"external": {
						"useLibraryFunction(uint256,uint256)": "infinite"
					}
				},
				"methodIdentifiers": {
					"useLibraryFunction(uint256,uint256)": "0913813d"
				}
			},
			"storageLayout": {
				"storage": [],
				"types": null
			},
			"userdoc": {
				"kind": "user",
				"methods": {},
				"version": 1
			}
		}
	}
}