{
	"contracts/reownwagmiview.sol": {
		"Counter": {
			"abi": [
				{
					"inputs": [],
					"name": "count",
					"outputs": [
						{
							"internalType": "int256",
							"name": "",
							"type": "int256"
						}
					],
					"stateMutability": "view",
					"type": "function"
				},
				{
					"inputs": [],
					"name": "decrement",
					"outputs": [],
					"stateMutability": "nonpayable",
					"type": "function"
				},
				{
					"inputs": [],
					"name": "getCount",
					"outputs": [
						{
							"internalType": "int256",
							"name": "",
							"type": "int256"
						}
					],
					"stateMutability": "view",
					"type": "function"
				},
				{
					"inputs": [],
					"name": "increment",
					"outputs": [],
					"stateMutability": "nonpayable",
					"type": "function"
				}
			],
			"devdoc": {
				"kind": "dev",
				"methods": {},
				"version": 1
			},
			"evm": {
				"assembly": "    /* \"contracts/reownwagmiview.sol\":61:459  contract Counter {... */\n  mstore(0x40, 0x80)\n  callvalue\n  dup1\n  iszero\n  tag_1\n  jumpi\n  revert(0x00, 0x00)\ntag_1:\n  pop\n  dataSize(sub_0)\n  dup1\n  dataOffset(sub_0)\n  0x00\n  codecopy\n  0x00\n  return\nstop\n\nsub_0: assembly {\n        /* \"contracts/reownwagmiview.sol\":61:459  contract Counter {... */\n      mstore(0x40, 0x80)\n      callvalue\n      dup1\n      iszero\n      tag_1\n      jumpi\n      revert(0x00, 0x00)\n    tag_1:\n      pop\n      jumpi(tag_2, lt(calldatasize, 0x04))\n      shr(0xe0, calldataload(0x00))\n      dup1\n      0x06661abd\n      eq\n      tag_3\n      jumpi\n      dup1\n      0x2baeceb7\n      eq\n      tag_4\n      jumpi\n      dup1\n      0xa87d942c\n      eq\n      tag_5\n      jumpi\n      dup1\n      0xd09de08a\n      eq\n      tag_6\n      jumpi\n    tag_2:\n      revert(0x00, 0x00)\n        /* \"contracts/reownwagmiview.sol\":85:104  int256 public count */\n    tag_3:\n      tag_7\n      tag_8\n      jump\t// in\n    tag_7:\n      mload(0x40)\n      tag_9\n      swap2\n      swap1\n      tag_10\n      jump\t// in\n    tag_9:\n      mload(0x40)\n      dup1\n      swap2\n      sub\n      swap1\n      return\n        /* \"contracts/reownwagmiview.sol\":234:293  function decrement() external {... */\n    tag_4:\n      tag_11\n      tag_12\n      jump\t// in\n    tag_11:\n      stop\n        /* \"contracts/reownwagmiview.sol\":374:456  function getCount() external view returns (int256) {... */\n    tag_5:\n      tag_13\n      tag_14\n      jump\t// in\n    tag_13:\n      mload(0x40)\n      tag_15\n      swap2\n      swap1\n      tag_10\n      jump\t// in\n    tag_15:\n      mload(0x40)\n      dup1\n      swap2\n      sub\n      swap1\n      return\n        /* \"contracts/reownwagmiview.sol\":140:199  function increment() external {... */\n    tag_6:\n      tag_16\n      tag_17\n      jump\t// in\n    tag_16:\n      stop\n        /* \"contracts/reownwagmiview.sol\":85:104  int256 public count */\n    tag_8:\n      sload(0x00)\n      dup2\n      jump\t// out\n        /* \"contracts/reownwagmiview.sol\":234:293  function decrement() external {... */\n    tag_12:\n        /* \"contracts/reownwagmiview.sol\":284:285  1 */\n      0x01\n        /* \"contracts/reownwagmiview.sol\":275:280  count */\n      0x00\n      0x00\n        /* \"contracts/reownwagmiview.sol\":275:285  count -= 1 */\n      dup3\n      dup3\n      sload\n      tag_19\n      swap2\n      swap1\n      tag_20\n      jump\t// in\n    tag_19:\n      swap3\n      pop\n      pop\n      dup2\n      swap1\n      sstore\n      pop\n        /* \"contracts/reownwagmiview.sol\":234:293  function decrement() external {... */\n      jump\t// out\n        /* \"contracts/reownwagmiview.sol\":374:456  function getCount() external view returns (int256) {... */\n    tag_14:\n        /* \"contracts/reownwagmiview.sol\":417:423  int256 */\n      0x00\n        /* \"contracts/reownwagmiview.sol\":443:448  count */\n      sload(0x00)\n        /* \"contracts/reownwagmiview.sol\":436:448  return count */\n      swap1\n      pop\n        /* \"contracts/reownwagmiview.sol\":374:456  function getCount() external view returns (int256) {... */\n      swap1\n      jump\t// out\n        /* \"contracts/reownwagmiview.sol\":140:199  function increment() external {... */\n    tag_17:\n        /* \"contracts/reownwagmiview.sol\":190:191  1 */\n      0x01\n        /* \"contracts/reownwagmiview.sol\":181:186  count */\n      0x00\n      0x00\n        /* \"contracts/reownwagmiview.sol\":181:191  count += 1 */\n      dup3\n      dup3\n      sload\n      tag_23\n      swap2\n      swap1\n      tag_24\n      jump\t// in\n    tag_23:\n      swap3\n      pop\n      pop\n      dup2\n      swap1\n      sstore\n      pop\n        /* \"contracts/reownwagmiview.sol\":140:199  function increment() external {... */\n      jump\t// out\n        /* \"#utility.yul\":7:83   */\n    tag_25:\n        /* \"#utility.yul\":43:50   */\n      0x00\n        /* \"#utility.yul\":72:77   */\n      dup2\n        /* \"#utility.yul\":61:77   */\n      swap1\n      pop\n        /* \"#utility.yul\":7:83   */\n      swap2\n      swap1\n      pop\n      jump\t// out\n        /* \"#utility.yul\":89:204   */\n    tag_26:\n        /* \"#utility.yul\":174:197   */\n      tag_31\n        /* \"#utility.yul\":191:196   */\n      dup2\n        /* \"#utility.yul\":174:197   */\n      tag_25\n      jump\t// in\n    tag_31:\n        /* \"#utility.yul\":169:172   */\n      dup3\n        /* \"#utility.yul\":162:198   */\n      mstore\n        /* \"#utility.yul\":89:204   */\n      pop\n      pop\n      jump\t// out\n        /* \"#utility.yul\":210:428   */\n    tag_10:\n        /* \"#utility.yul\":301:305   */\n      0x00\n        /* \"#utility.yul\":339:341   */\n      0x20\n        /* \"#utility.yul\":328:337   */\n      dup3\n        /* \"#utility.yul\":324:342   */\n      add\n        /* \"#utility.yul\":316:342   */\n      swap1\n      pop\n        /* \"#utility.yul\":352:421   */\n      tag_33\n        /* \"#utility.yul\":418:419   */\n      0x00\n        /* \"#utility.yul\":407:416   */\n      dup4\n        /* \"#utility.yul\":403:420   */\n      add\n        /* \"#utility.yul\":394:400   */\n      dup5\n        /* \"#utility.yul\":352:421   */\n      tag_26\n      jump\t// in\n    tag_33:\n        /* \"#utility.yul\":210:428   */\n      swap3\n      swap2\n      pop\n      pop\n      jump\t// out\n        /* \"#utility.yul\":434:614   */\n    tag_27:\n        /* \"#utility.yul\":482:559   */\n      0x4e487b7100000000000000000000000000000000000000000000000000000000\n        /* \"#utility.yul\":479:480   */\n      0x00\n        /* \"#utility.yul\":472:560   */\n      mstore\n        /* \"#utility.yul\":579:583   */\n      0x11\n        /* \"#utility.yul\":576:577   */\n      0x04\n        /* \"#utility.yul\":569:584   */\n      mstore\n        /* \"#utility.yul\":603:607   */\n      0x24\n        /* \"#utility.yul\":600:601   */\n      0x00\n        /* \"#utility.yul\":593:608   */\n      revert\n        /* \"#utility.yul\":620:992   */\n    tag_20:\n        /* \"#utility.yul\":659:663   */\n      0x00\n        /* \"#utility.yul\":679:698   */\n      tag_36\n        /* \"#utility.yul\":696:697   */\n      dup3\n        /* \"#utility.yul\":679:698   */\n      tag_25\n      jump\t// in\n    tag_36:\n        /* \"#utility.yul\":674:698   */\n      swap2\n      pop\n        /* \"#utility.yul\":712:731   */\n      tag_37\n        /* \"#utility.yul\":729:730   */\n      dup4\n        /* \"#utility.yul\":712:731   */\n      tag_25\n      jump\t// in\n    tag_37:\n        /* \"#utility.yul\":707:731   */\n      swap3\n      pop\n        /* \"#utility.yul\":755:756   */\n      dup3\n        /* \"#utility.yul\":752:753   */\n      dup3\n        /* \"#utility.yul\":748:757   */\n      sub\n        /* \"#utility.yul\":740:757   */\n      swap1\n      pop\n        /* \"#utility.yul\":949:950   */\n      dup2\n        /* \"#utility.yul\":943:947   */\n      dup2\n        /* \"#utility.yul\":939:951   */\n      slt\n        /* \"#utility.yul\":935:936   */\n      0x00\n        /* \"#utility.yul\":932:933   */\n      dup5\n        /* \"#utility.yul\":928:937   */\n      slt\n        /* \"#utility.yul\":924:952   */\n      and\n        /* \"#utility.yul\":907:908   */\n      dup3\n        /* \"#utility.yul\":901:905   */\n      dup3\n        /* \"#utility.yul\":897:909   */\n      sgt\n        /* \"#utility.yul\":892:893   */\n      0x00\n        /* \"#utility.yul\":889:890   */\n      dup6\n        /* \"#utility.yul\":885:894   */\n      slt\n        /* \"#utility.yul\":878:895   */\n      iszero\n        /* \"#utility.yul\":874:910   */\n      and\n        /* \"#utility.yul\":858:962   */\n      or\n        /* \"#utility.yul\":855:985   */\n      iszero\n      tag_38\n      jumpi\n        /* \"#utility.yul\":965:983   */\n      tag_39\n      tag_27\n      jump\t// in\n    tag_39:\n        /* \"#utility.yul\":855:985   */\n    tag_38:\n        /* \"#utility.yul\":620:992   */\n      swap3\n      swap2\n      pop\n      pop\n      jump\t// out\n        /* \"#utility.yul\":998:1373   */\n    tag_24:\n        /* \"#utility.yul\":1037:1040   */\n      0x00\n        /* \"#utility.yul\":1056:1075   */\n      tag_41\n        /* \"#utility.yul\":1073:1074   */\n      dup3\n        /* \"#utility.yul\":1056:1075   */\n      tag_25\n      jump\t// in\n    tag_41:\n        /* \"#utility.yul\":1051:1075   */\n      swap2\n      pop\n        /* \"#utility.yul\":1089:1108   */\n      tag_42\n        /* \"#utility.yul\":1106:1107   */\n      dup4\n        /* \"#utility.yul\":1089:1108   */\n      tag_25\n      jump\t// in\n    tag_42:\n        /* \"#utility.yul\":1084:1108   */\n      swap3\n      pop\n        /* \"#utility.yul\":1131:1132   */\n      dup3\n        /* \"#utility.yul\":1128:1129   */\n      dup3\n        /* \"#utility.yul\":1124:1133   */\n      add\n        /* \"#utility.yul\":1117:1133   */\n      swap1\n      pop\n        /* \"#utility.yul\":1329:1330   */\n      dup3\n        /* \"#utility.yul\":1324:1327   */\n      dup2\n        /* \"#utility.yul\":1320:1331   */\n      slt\n        /* \"#utility.yul\":1313:1332   */\n      iszero\n        /* \"#utility.yul\":1309:1310   */\n      0x00\n        /* \"#utility.yul\":1306:1307   */\n      dup4\n        /* \"#utility.yul\":1302:1311   */\n      slt\n        /* \"#utility.yul\":1298:1333   */\n      and\n        /* \"#utility.yul\":1281:1282   */\n      dup4\n        /* \"#utility.yul\":1276:1279   */\n      dup3\n        /* \"#utility.yul\":1272:1283   */\n      slt\n        /* \"#utility.yul\":1267:1268   */\n      0x00\n        /* \"#utility.yul\":1264:1265   */\n      dup5\n        /* \"#utility.yul\":1260:1269   */\n      slt\n        /* \"#utility.yul\":1253:1270   */\n      iszero\n        /* \"#utility.yul\":1249:1284   */\n      and\n        /* \"#utility.yul\":1233:1343   */\n      or\n        /* \"#utility.yul\":1230:1366   */\n      iszero\n      tag_43\n      jumpi\n        /* \"#utility.yul\":1346:1364   */\n      tag_44\n      tag_27\n      jump\t// in\n    tag_44:\n        /* \"#utility.yul\":1230:1366   */\n    tag_43:\n        /* \"#utility.yul\":998:1373   */\n      swap3\n      swap2\n      pop\n      pop\n      jump\t// out\n\n    auxdata: 0xa264697066735822122084f7ecec005ea53948c2cdc9f68a6f26b3d8df3b34ebdbe9dc57591a9f278edf64736f6c634300081f0033\n}\n",
				"bytecode": {
					"linkReferences": {},
					"object": "6080604052348015600e575f5ffd5b506101f48061001c5f395ff3fe608060405234801561000f575f5ffd5b506004361061004a575f3560e01c806306661abd1461004e5780632baeceb71461006c578063a87d942c14610076578063d09de08a14610094575b5f5ffd5b61005661009e565b60405161006391906100f7565b60405180910390f35b6100746100a3565b005b61007e6100bd565b60405161008b91906100f7565b60405180910390f35b61009c6100c5565b005b5f5481565b60015f5f8282546100b4919061013d565b92505081905550565b5f5f54905090565b60015f5f8282546100d6919061017d565b92505081905550565b5f819050919050565b6100f1816100df565b82525050565b5f60208201905061010a5f8301846100e8565b92915050565b7f4e487b71000000000000000000000000000000000000000000000000000000005f52601160045260245ffd5b5f610147826100df565b9150610152836100df565b925082820390508181125f8412168282135f85121516171561017757610176610110565b5b92915050565b5f610187826100df565b9150610192836100df565b92508282019050828112155f8312168382125f8412151617156101b8576101b7610110565b5b9291505056fea264697066735822122084f7ecec005ea53948c2cdc9f68a6f26b3d8df3b34ebdbe9dc57591a9f278edf64736f6c634300081f0033",
					"opcodes": "PUSH1 0x80 PUSH1 0x40 MSTORE CALLVALUE DUP1 ISZERO PUSH1 0xE JUMPI PUSH0 PUSH0 REVERT JUMPDEST POP PUSH2 0x1F4 DUP1 PUSH2 0x1C PUSH0 CODECOPY PUSH0 RETURN INVALID PUSH1 0x80 PUSH1 0x40 MSTORE CALLVALUE DUP1 ISZERO PUSH2 0xF JUMPI PUSH0 PUSH0 REVERT JUMPDEST POP PUSH1 0x4 CALLDATASIZE LT PUSH2 0x4A JUMPI PUSH0 CALLDATALOAD PUSH1 0xE0 SHR DUP1 PUSH4 0x6661ABD EQ PUSH2 0x4E JUMPI DUP1 PUSH4 0x2BAECEB7 EQ PUSH2 0x6C JUMPI DUP1 PUSH4 0xA87D942C EQ PUSH2 0x76 JUMPI DUP1 PUSH4 0xD09DE08A EQ PUSH2 0x94 JUMPI JUMPDEST PUSH0 PUSH0 REVERT JUMPDEST PUSH2 0x56 PUSH2 0x9E JUMP JUMPDEST PUSH1 0x40 MLOAD PUSH2 0x63 SWAP2 SWAP1 PUSH2 0xF7 JUMP JUMPDEST PUSH1 0x40 MLOAD DUP1 SWAP2 SUB SWAP1 RETURN JUMPDEST PUSH2 0x74 PUSH2 0xA3 JUMP JUMPDEST STOP JUMPDEST PUSH2 0x7E PUSH2 0xBD JUMP JUMPDEST PUSH1 0x40 MLOAD PUSH2 0x8B SWAP2 SWAP1 PUSH2 0xF7 JUMP JUMPDEST PUSH1 0x40 MLOAD DUP1 SWAP2 SUB SWAP1 RETURN JUMPDEST PUSH2 0x9C PUSH2 0xC5 JUMP JUMPDEST STOP JUMPDEST PUSH0 SLOAD DUP2 JUMP JUMPDEST PUSH1 0x1 PUSH0 PUSH0 DUP3 DUP3 SLOAD PUSH2 0xB4 SWAP2 SWAP1 PUSH2 0x13D JUMP JUMPDEST SWAP3 POP POP DUP2 SWAP1 SSTORE POP JUMP JUMPDEST PUSH0 PUSH0 SLOAD SWAP1 POP SWAP1 JUMP JUMPDEST PUSH1 0x1 PUSH0 PUSH0 DUP3 DUP3 SLOAD PUSH2 0xD6 SWAP2 SWAP1 PUSH2 0x17D JUMP JUMPDEST SWAP3 POP POP DUP2 SWAP1 SSTORE POP JUMP JUMPDEST PUSH0 DUP2 SWAP1 POP SWAP2 SWAP1 POP JUMP JUMPDEST PUSH2 0xF1 DUP2 PUSH2 0xDF JUMP JUMPDEST DUP3 MSTORE POP POP JUMP JUMPDEST PUSH0 PUSH1 0x20 DUP3 ADD SWAP1 POP PUSH2 0x10A PUSH0 DUP4 ADD DUP5 PUSH2 0xE8 JUMP JUMPDEST SWAP3 SWAP2 POP POP JUMP JUMPDEST PUSH32 0x4E487B7100000000000000000000000000000000000000000000000000000000 PUSH0 MSTORE PUSH1 0x11 PUSH1 0x4 MSTORE PUSH1 0x24 PUSH0 REVERT JUMPDEST PUSH0 PUSH2 0x147 DUP3 PUSH2 0xDF JUMP JUMPDEST SWAP2 POP PUSH2 0x152 DUP4 PUSH2 0xDF JUMP JUMPDEST SWAP3 POP DUP3 DUP3 SUB SWAP1 POP DUP2 DUP2 SLT PUSH0 DUP5 SLT AND DUP3 DUP3 SGT PUSH0 DUP6 SLT ISZERO AND OR ISZERO PUSH2 0x177 JUMPI PUSH2 0x176 PUSH2 0x110 JUMP JUMPDEST JUMPDEST SWAP3 SWAP2 POP POP JUMP JUMPDEST PUSH0 PUSH2 0x187 DUP3 PUSH2 0xDF JUMP JUMPDEST SWAP2 POP PUSH2 0x192 DUP4 PUSH2 0xDF JUMP JUMPDEST SWAP3 POP DUP3 DUP3 ADD SWAP1 POP DUP3 DUP2 SLT ISZERO PUSH0 DUP4 SLT AND DUP4 DUP3 SLT PUSH0 DUP5 SLT ISZERO AND OR ISZERO PUSH2 0x1B8 JUMPI PUSH2 0x1B7 PUSH2 0x110 JUMP JUMPDEST JUMPDEST SWAP3 SWAP2 POP POP JUMP INVALID LOG2 PUSH5 0x6970667358 0x22 SLT KECCAK256 DUP5 0xF7 EOFCREATE 0xEC STOP MCOPY 0xA5 CODECOPY BASEFEE 0xC2 0xCD 0xC9 0xF6 DUP11 PUSH16 0x26B3D8DF3B34EBDBE9DC57591A9F278E 0xDF PUSH5 0x736F6C6343 STOP ADDMOD 0x1F STOP CALLER "
				},
				"gasEstimates": {
					"creation": {
						"codeDepositCost": "100000",
						"executionCost": "145",
						"totalCost": "100145"
					},
					"external": {
						"count()": "2402",
						"decrement()": "infinite",
						"getCount()": "2453",
						"increment()": "infinite"
					}
				},
				"methodIdentifiers": {
					"count()": "06661abd",
					"decrement()": "2baeceb7",
					"getCount()": "a87d942c",
					"increment()": "d09de08a"
				}
			},
			"storageLayout": {
				"storage": [
					{
						"astId": 3,
						"contract": "contracts/reownwagmiview.sol:Counter",
						"label": "count",
						"offset": 0,
						"slot": "0",
						"type": "t_int256"
					}
				],
				"types": {
					"t_int256": {
						"encoding": "inplace",
						"label": "int256",
						"numberOfBytes": "32"
					}
				}
			},
			"userdoc": {
				"kind": "user",
				"methods": {},
				"version": 1
			}
		}
	}
}