{
	"@chainlink/contracts-ccip/contracts/libraries/Client.sol": {
		"Client": {
			"abi": [
				{
					"inputs": [],
					"name": "EVM_EXTRA_ARGS_V1_TAG",
					"outputs": [
						{
							"internalType": "bytes4",
							"name": "",
							"type": "bytes4"
						}
					],
					"stateMutability": "view",
					"type": "function"
				},
				{
					"inputs": [],
					"name": "GENERIC_EXTRA_ARGS_V2_TAG",
					"outputs": [
						{
							"internalType": "bytes4",
							"name": "",
							"type": "bytes4"
						}
					],
					"stateMutability": "view",
					"type": "function"
				},
				{
					"inputs": [],
					"name": "SVM_ACCOUNT_BYTE_SIZE",
					"outputs": [
						{
							"internalType": "uint256",
							"name": "",
							"type": "uint256"
						}
					],
					"stateMutability": "view",
					"type": "function"
				},
				{
					"inputs": [],
					"name": "SVM_EXTRA_ARGS_MAX_ACCOUNTS",
					"outputs": [
						{
							"internalType": "uint256",
							"name": "",
							"type": "uint256"
						}
					],
					"stateMutability": "view",
					"type": "function"
				},
				{
					"inputs": [],
					"name": "SVM_EXTRA_ARGS_V1_TAG",
					"outputs": [
						{
							"internalType": "bytes4",
							"name": "",
							"type": "bytes4"
						}
					],
					"stateMutability": "view",
					"type": "function"
				},
				{
					"inputs": [],
					"name": "SVM_MESSAGING_ACCOUNTS_OVERHEAD",
					"outputs": [
						{
							"internalType": "uint256",
							"name": "",
							"type": "uint256"
						}
					],
					"stateMutability": "view",
					"type": "function"
				},
				{
					"inputs": [],
					"name": "SVM_TOKEN_TRANSFER_DATA_OVERHEAD",
					"outputs": [
						{
							"internalType": "uint256",
							"name": "",
							"type": "uint256"
						}
					],
					"stateMutability": "view",
					"type": "function"
				}
			],
			"devdoc": {
				"kind": "dev",
				"methods": {},
				"stateVariables": {
					"SVM_ACCOUNT_BYTE_SIZE": {
						"details": "The size of each SVM account address in bytes."
					},
					"SVM_EXTRA_ARGS_MAX_ACCOUNTS": {
						"details": "The maximum number of accounts that can be passed in SVMExtraArgs."
					},
					"SVM_MESSAGING_ACCOUNTS_OVERHEAD": {
						"details": "Number of overhead accounts needed for message execution on SVM.These are message.receiver, and the OffRamp Signer PDA specific to the receiver."
					},
					"SVM_TOKEN_TRANSFER_DATA_OVERHEAD": {
						"details": "The expected static payload size of a token transfer when Borsh encoded and submitted to SVM. TokenPool extra data and offchain data sizes are dynamic, and should be accounted for separately."
					}
				},
				"version": 1
			},
			"evm": {
				"assembly": "    /* \"@chainlink/contracts-ccip/contracts/libraries/Client.sol\":82:4701  library Client {... */\n  dataSize(sub_0)\n  dataOffset(sub_0)\n  0x0b\n  dup3\n  dup3\n  dup3\n  codecopy\n  dup1\n  mload\n  0x00\n  byte\n  0x73\n  eq\n  tag_1\n  jumpi\n  mstore(0x00, 0x4e487b7100000000000000000000000000000000000000000000000000000000)\n  mstore(0x04, 0x00)\n  revert(0x00, 0x24)\ntag_1:\n  mstore(0x00, address)\n  0x73\n  dup2\n  mstore8\n  dup3\n  dup2\n  return\nstop\n\nsub_0: assembly {\n        /* \"@chainlink/contracts-ccip/contracts/libraries/Client.sol\":82:4701  library Client {... */\n      eq(address, deployTimeAddress())\n      mstore(0x40, 0x80)\n      jumpi(tag_1, lt(calldatasize, 0x04))\n      shr(0xe0, calldataload(0x00))\n      dup1\n      0x71953f60\n      gt\n      tag_9\n      jumpi\n      dup1\n      0x71953f60\n      eq\n      tag_5\n      jumpi\n      dup1\n      0x7498e355\n      eq\n      tag_6\n      jumpi\n      dup1\n      0x9713cbbd\n      eq\n      tag_7\n      jumpi\n      dup1\n      0xa5dd87d8\n      eq\n      tag_8\n      jumpi\n      jump(tag_1)\n    tag_9:\n      dup1\n      0x1ac428f8\n      eq\n      tag_2\n      jumpi\n      dup1\n      0x3ab8c0d0\n      eq\n      tag_3\n      jumpi\n      dup1\n      0x5dd8ee3e\n      eq\n      tag_4\n      jumpi\n    tag_1:\n      0x00\n      dup1\n      revert\n        /* \"@chainlink/contracts-ccip/contracts/libraries/Client.sol\":3020:3076  uint256 public constant SVM_EXTRA_ARGS_MAX_ACCOUNTS = 64 */\n    tag_2:\n      tag_10\n      tag_11\n      jump\t// in\n    tag_10:\n      mload(0x40)\n      tag_12\n      swap2\n      swap1\n      tag_13\n      jump\t// in\n    tag_12:\n      mload(0x40)\n      dup1\n      swap2\n      sub\n      swap1\n      return\n        /* \"@chainlink/contracts-ccip/contracts/libraries/Client.sol\":1209:1266  bytes4 public constant EVM_EXTRA_ARGS_V1_TAG = 0x97a657c9 */\n    tag_3:\n      tag_14\n      tag_15\n      jump\t// in\n    tag_14:\n      mload(0x40)\n      tag_16\n      swap2\n      swap1\n      tag_17\n      jump\t// in\n    tag_16:\n      mload(0x40)\n      dup1\n      swap2\n      sub\n      swap1\n      return\n        /* \"@chainlink/contracts-ccip/contracts/libraries/Client.sol\":4151:4210  uint256 public constant SVM_MESSAGING_ACCOUNTS_OVERHEAD = 2 */\n    tag_4:\n      tag_18\n      tag_19\n      jump\t// in\n    tag_18:\n      mload(0x40)\n      tag_20\n      swap2\n      swap1\n      tag_13\n      jump\t// in\n    tag_20:\n      mload(0x40)\n      dup1\n      swap2\n      sub\n      swap1\n      return\n        /* \"@chainlink/contracts-ccip/contracts/libraries/Client.sol\":4273:4323  uint256 public constant SVM_ACCOUNT_BYTE_SIZE = 32 */\n    tag_5:\n      tag_21\n      tag_22\n      jump\t// in\n    tag_21:\n      mload(0x40)\n      tag_23\n      swap2\n      swap1\n      tag_13\n      jump\t// in\n    tag_23:\n      mload(0x40)\n      dup1\n      swap2\n      sub\n      swap1\n      return\n        /* \"@chainlink/contracts-ccip/contracts/libraries/Client.sol\":1810:1871  bytes4 public constant GENERIC_EXTRA_ARGS_V2_TAG = 0x181dcf10 */\n    tag_6:\n      tag_24\n      tag_25\n      jump\t// in\n    tag_24:\n      mload(0x40)\n      tag_26\n      swap2\n      swap1\n      tag_17\n      jump\t// in\n    tag_26:\n      mload(0x40)\n      dup1\n      swap2\n      sub\n      swap1\n      return\n        /* \"@chainlink/contracts-ccip/contracts/libraries/Client.sol\":3290:3911  uint256 public constant SVM_TOKEN_TRANSFER_DATA_OVERHEAD = (4 + 32) // source_pool... */\n    tag_7:\n      tag_27\n      tag_28\n      jump\t// in\n    tag_27:\n      mload(0x40)\n      tag_29\n      swap2\n      swap1\n      tag_13\n      jump\t// in\n    tag_29:\n      mload(0x40)\n      dup1\n      swap2\n      sub\n      swap1\n      return\n        /* \"@chainlink/contracts-ccip/contracts/libraries/Client.sol\":2501:2558  bytes4 public constant SVM_EXTRA_ARGS_V1_TAG = 0x1f3b3aba */\n    tag_8:\n      tag_30\n      tag_31\n      jump\t// in\n    tag_30:\n      mload(0x40)\n      tag_32\n      swap2\n      swap1\n      tag_17\n      jump\t// in\n    tag_32:\n      mload(0x40)\n      dup1\n      swap2\n      sub\n      swap1\n      return\n        /* \"@chainlink/contracts-ccip/contracts/libraries/Client.sol\":3020:3076  uint256 public constant SVM_EXTRA_ARGS_MAX_ACCOUNTS = 64 */\n    tag_11:\n        /* \"@chainlink/contracts-ccip/contracts/libraries/Client.sol\":3074:3076  64 */\n      0x40\n        /* \"@chainlink/contracts-ccip/contracts/libraries/Client.sol\":3020:3076  uint256 public constant SVM_EXTRA_ARGS_MAX_ACCOUNTS = 64 */\n      dup2\n      jump\t// out\n        /* \"@chainlink/contracts-ccip/contracts/libraries/Client.sol\":1209:1266  bytes4 public constant EVM_EXTRA_ARGS_V1_TAG = 0x97a657c9 */\n    tag_15:\n        /* \"@chainlink/contracts-ccip/contracts/libraries/Client.sol\":1256:1266  0x97a657c9 */\n      0x97a657c9\n        /* \"@chainlink/contracts-ccip/contracts/libraries/Client.sol\":1209:1266  bytes4 public constant EVM_EXTRA_ARGS_V1_TAG = 0x97a657c9 */\n      0xe0\n      shl\n      dup2\n      jump\t// out\n        /* \"@chainlink/contracts-ccip/contracts/libraries/Client.sol\":4151:4210  uint256 public constant SVM_MESSAGING_ACCOUNTS_OVERHEAD = 2 */\n    tag_19:\n        /* \"@chainlink/contracts-ccip/contracts/libraries/Client.sol\":4209:4210  2 */\n      0x02\n        /* \"@chainlink/contracts-ccip/contracts/libraries/Client.sol\":4151:4210  uint256 public constant SVM_MESSAGING_ACCOUNTS_OVERHEAD = 2 */\n      dup2\n      jump\t// out\n        /* \"@chainlink/contracts-ccip/contracts/libraries/Client.sol\":4273:4323  uint256 public constant SVM_ACCOUNT_BYTE_SIZE = 32 */\n    tag_22:\n        /* \"@chainlink/contracts-ccip/contracts/libraries/Client.sol\":4321:4323  32 */\n      0x20\n        /* \"@chainlink/contracts-ccip/contracts/libraries/Client.sol\":4273:4323  uint256 public constant SVM_ACCOUNT_BYTE_SIZE = 32 */\n      dup2\n      jump\t// out\n        /* \"@chainlink/contracts-ccip/contracts/libraries/Client.sol\":1810:1871  bytes4 public constant GENERIC_EXTRA_ARGS_V2_TAG = 0x181dcf10 */\n    tag_25:\n        /* \"@chainlink/contracts-ccip/contracts/libraries/Client.sol\":1861:1871  0x181dcf10 */\n      0x181dcf10\n        /* \"@chainlink/contracts-ccip/contracts/libraries/Client.sol\":1810:1871  bytes4 public constant GENERIC_EXTRA_ARGS_V2_TAG = 0x181dcf10 */\n      0xe0\n      shl\n      dup2\n      jump\t// out\n        /* \"@chainlink/contracts-ccip/contracts/libraries/Client.sol\":3290:3911  uint256 public constant SVM_TOKEN_TRANSFER_DATA_OVERHEAD = (4 + 32) // source_pool... */\n    tag_28:\n        /* \"@chainlink/contracts-ccip/contracts/libraries/Client.sol\":3349:3911  (4 + 32) // source_pool... */\n      0x012c\n        /* \"@chainlink/contracts-ccip/contracts/libraries/Client.sol\":3290:3911  uint256 public constant SVM_TOKEN_TRANSFER_DATA_OVERHEAD = (4 + 32) // source_pool... */\n      dup2\n      jump\t// out\n        /* \"@chainlink/contracts-ccip/contracts/libraries/Client.sol\":2501:2558  bytes4 public constant SVM_EXTRA_ARGS_V1_TAG = 0x1f3b3aba */\n    tag_31:\n        /* \"@chainlink/contracts-ccip/contracts/libraries/Client.sol\":2548:2558  0x1f3b3aba */\n      0x1f3b3aba\n        /* \"@chainlink/contracts-ccip/contracts/libraries/Client.sol\":2501:2558  bytes4 public constant SVM_EXTRA_ARGS_V1_TAG = 0x1f3b3aba */\n      0xe0\n      shl\n      dup2\n      jump\t// out\n        /* \"#utility.yul\":7:84   */\n    tag_33:\n        /* \"#utility.yul\":44:51   */\n      0x00\n        /* \"#utility.yul\":73:78   */\n      dup2\n        /* \"#utility.yul\":62:78   */\n      swap1\n      pop\n        /* \"#utility.yul\":7:84   */\n      swap2\n      swap1\n      pop\n      jump\t// out\n        /* \"#utility.yul\":90:216   */\n    tag_34:\n        /* \"#utility.yul\":185:209   */\n      tag_40\n        /* \"#utility.yul\":203:208   */\n      dup2\n        /* \"#utility.yul\":185:209   */\n      tag_33\n      jump\t// in\n    tag_40:\n        /* \"#utility.yul\":180:183   */\n      dup3\n        /* \"#utility.yul\":173:210   */\n      mstore\n        /* \"#utility.yul\":90:216   */\n      pop\n      pop\n      jump\t// out\n        /* \"#utility.yul\":222:460   */\n    tag_13:\n        /* \"#utility.yul\":323:327   */\n      0x00\n        /* \"#utility.yul\":361:363   */\n      0x20\n        /* \"#utility.yul\":350:359   */\n      dup3\n        /* \"#utility.yul\":346:364   */\n      add\n        /* \"#utility.yul\":338:364   */\n      swap1\n      pop\n        /* \"#utility.yul\":374:453   */\n      tag_42\n        /* \"#utility.yul\":450:451   */\n      0x00\n        /* \"#utility.yul\":439:448   */\n      dup4\n        /* \"#utility.yul\":435:452   */\n      add\n        /* \"#utility.yul\":426:432   */\n      dup5\n        /* \"#utility.yul\":374:453   */\n      tag_34\n      jump\t// in\n    tag_42:\n        /* \"#utility.yul\":222:460   */\n      swap3\n      swap2\n      pop\n      pop\n      jump\t// out\n        /* \"#utility.yul\":466:615   */\n    tag_35:\n        /* \"#utility.yul\":502:509   */\n      0x00\n        /* \"#utility.yul\":542:608   */\n      0xffffffff00000000000000000000000000000000000000000000000000000000\n        /* \"#utility.yul\":535:540   */\n      dup3\n        /* \"#utility.yul\":531:609   */\n      and\n        /* \"#utility.yul\":520:609   */\n      swap1\n      pop\n        /* \"#utility.yul\":466:615   */\n      swap2\n      swap1\n      pop\n      jump\t// out\n        /* \"#utility.yul\":621:744   */\n    tag_36:\n        /* \"#utility.yul\":714:737   */\n      tag_45\n        /* \"#utility.yul\":731:736   */\n      dup2\n        /* \"#utility.yul\":714:737   */\n      tag_35\n      jump\t// in\n    tag_45:\n        /* \"#utility.yul\":709:712   */\n      dup3\n        /* \"#utility.yul\":702:738   */\n      mstore\n        /* \"#utility.yul\":621:744   */\n      pop\n      pop\n      jump\t// out\n        /* \"#utility.yul\":750:984   */\n    tag_17:\n        /* \"#utility.yul\":849:853   */\n      0x00\n        /* \"#utility.yul\":887:889   */\n      0x20\n        /* \"#utility.yul\":876:885   */\n      dup3\n        /* \"#utility.yul\":872:890   */\n      add\n        /* \"#utility.yul\":864:890   */\n      swap1\n      pop\n        /* \"#utility.yul\":900:977   */\n      tag_47\n        /* \"#utility.yul\":974:975   */\n      0x00\n        /* \"#utility.yul\":963:972   */\n      dup4\n        /* \"#utility.yul\":959:976   */\n      add\n        /* \"#utility.yul\":950:956   */\n      dup5\n        /* \"#utility.yul\":900:977   */\n      tag_36\n      jump\t// in\n    tag_47:\n        /* \"#utility.yul\":750:984   */\n      swap3\n      swap2\n      pop\n      pop\n      jump\t// out\n\n    auxdata: 0xa26469706673582212203f9b41b8c57f23c72e7071b4a85a1b7b0c27b095316ab79136f339bccb96110964736f6c63430008180033\n}\n",
				"bytecode": {
					"linkReferences": {},
					"object": "61024c61004e600b8282823980515f1a607314610042577f4e487b71000000000000000000000000000000000000000000000000000000005f525f60045260245ffd5b305f52607381538281f3fe7300000000000000000000000000000000000000003014608060405260043610610086575f3560e01c806371953f601161006457806371953f60146100e45780637498e355146101025780639713cbbd14610120578063a5dd87d81461013e57610086565b80631ac428f81461008a5780633ab8c0d0146100a85780635dd8ee3e146100c6575b5f80fd5b61009261015c565b60405161009f91906101aa565b60405180910390f35b6100b0610161565b6040516100bd91906101fd565b60405180910390f35b6100ce61016c565b6040516100db91906101aa565b60405180910390f35b6100ec610171565b6040516100f991906101aa565b60405180910390f35b61010a610176565b60405161011791906101fd565b60405180910390f35b610128610181565b60405161013591906101aa565b60405180910390f35b610146610187565b60405161015391906101fd565b60405180910390f35b604081565b6397a657c960e01b81565b600281565b602081565b63181dcf1060e01b81565b61012c81565b631f3b3aba60e01b81565b5f819050919050565b6101a481610192565b82525050565b5f6020820190506101bd5f83018461019b565b92915050565b5f7fffffffff0000000000000000000000000000000000000000000000000000000082169050919050565b6101f7816101c3565b82525050565b5f6020820190506102105f8301846101ee565b9291505056fea26469706673582212203f9b41b8c57f23c72e7071b4a85a1b7b0c27b095316ab79136f339bccb96110964736f6c63430008180033",
					"opcodes": "PUSH2 0x24C PUSH2 0x4E PUSH1 0xB DUP3 DUP3 DUP3 CODECOPY DUP1 MLOAD PUSH0 BYTE PUSH1 0x73 EQ PUSH2 0x42 JUMPI PUSH32 0x4E487B7100000000000000000000000000000000000000000000000000000000 PUSH0 MSTORE PUSH0 PUSH1 0x4 MSTORE PUSH1 0x24 PUSH0 REVERT JUMPDEST ADDRESS PUSH0 MSTORE PUSH1 0x73 DUP2 MSTORE8 DUP3 DUP2 RETURN INVALID PUSH20 0x0 ADDRESS EQ PUSH1 0x80 PUSH1 0x40 MSTORE PUSH1 0x4 CALLDATASIZE LT PUSH2 0x86 JUMPI PUSH0 CALLDATALOAD PUSH1 0xE0 SHR DUP1 PUSH4 0x71953F60 GT PUSH2 0x64 JUMPI DUP1 PUSH4 0x71953F60 EQ PUSH2 0xE4 JUMPI DUP1 PUSH4 0x7498E355 EQ PUSH2 0x102 JUMPI DUP1 PUSH4 0x9713CBBD EQ PUSH2 0x120 JUMPI DUP1 PUSH4 0xA5DD87D8 EQ PUSH2 0x13E JUMPI PUSH2 0x86 JUMP JUMPDEST DUP1 PUSH4 0x1AC428F8 EQ PUSH2 0x8A JUMPI DUP1 PUSH4 0x3AB8C0D0 EQ PUSH2 0xA8 JUMPI DUP1 PUSH4 0x5DD8EE3E EQ PUSH2 0xC6 JUMPI JUMPDEST PUSH0 DUP1 REVERT JUMPDEST PUSH2 0x92 PUSH2 0x15C JUMP JUMPDEST PUSH1 0x40 MLOAD PUSH2 0x9F SWAP2 SWAP1 PUSH2 0x1AA JUMP JUMPDEST PUSH1 0x40 MLOAD DUP1 SWAP2 SUB SWAP1 RETURN JUMPDEST PUSH2 0xB0 PUSH2 0x161 JUMP JUMPDEST PUSH1 0x40 MLOAD PUSH2 0xBD SWAP2 SWAP1 PUSH2 0x1FD JUMP JUMPDEST PUSH1 0x40 MLOAD DUP1 SWAP2 SUB SWAP1 RETURN JUMPDEST PUSH2 0xCE PUSH2 0x16C JUMP JUMPDEST PUSH1 0x40 MLOAD PUSH2 0xDB SWAP2 SWAP1 PUSH2 0x1AA JUMP JUMPDEST PUSH1 0x40 MLOAD DUP1 SWAP2 SUB SWAP1 RETURN JUMPDEST PUSH2 0xEC PUSH2 0x171 JUMP JUMPDEST PUSH1 0x40 MLOAD PUSH2 0xF9 SWAP2 SWAP1 PUSH2 0x1AA JUMP JUMPDEST PUSH1 0x40 MLOAD DUP1 SWAP2 SUB SWAP1 RETURN JUMPDEST PUSH2 0x10A PUSH2 0x176 JUMP JUMPDEST PUSH1 0x40 MLOAD PUSH2 0x117 SWAP2 SWAP1 PUSH2 0x1FD JUMP JUMPDEST PUSH1 0x40 MLOAD DUP1 SWAP2 SUB SWAP1 RETURN JUMPDEST PUSH2 0x128 PUSH2 0x181 JUMP JUMPDEST PUSH1 0x40 MLOAD PUSH2 0x135 SWAP2 SWAP1 PUSH2 0x1AA JUMP JUMPDEST PUSH1 0x40 MLOAD DUP1 SWAP2 SUB SWAP1 RETURN JUMPDEST PUSH2 0x146 PUSH2 0x187 JUMP JUMPDEST PUSH1 0x40 MLOAD PUSH2 0x153 SWAP2 SWAP1 PUSH2 0x1FD JUMP JUMPDEST PUSH1 0x40 MLOAD DUP1 SWAP2 SUB SWAP1 RETURN JUMPDEST PUSH1 0x40 DUP2 JUMP JUMPDEST PUSH4 0x97A657C9 PUSH1 0xE0 SHL DUP2 JUMP JUMPDEST PUSH1 0x2 DUP2 JUMP JUMPDEST PUSH1 0x20 DUP2 JUMP JUMPDEST PUSH4 0x181DCF10 PUSH1 0xE0 SHL DUP2 JUMP JUMPDEST PUSH2 0x12C DUP2 JUMP JUMPDEST PUSH4 0x1F3B3ABA PUSH1 0xE0 SHL DUP2 JUMP JUMPDEST PUSH0 DUP2 SWAP1 POP SWAP2 SWAP1 POP JUMP JUMPDEST PUSH2 0x1A4 DUP2 PUSH2 0x192 JUMP JUMPDEST DUP3 MSTORE POP POP JUMP JUMPDEST PUSH0 PUSH1 0x20 DUP3 ADD SWAP1 POP PUSH2 0x1BD PUSH0 DUP4 ADD DUP5 PUSH2 0x19B JUMP JUMPDEST SWAP3 SWAP2 POP POP JUMP JUMPDEST PUSH0 PUSH32 0xFFFFFFFF00000000000000000000000000000000000000000000000000000000 DUP3 AND SWAP1 POP SWAP2 SWAP1 POP JUMP JUMPDEST PUSH2 0x1F7 DUP2 PUSH2 0x1C3 JUMP JUMPDEST DUP3 MSTORE POP POP JUMP JUMPDEST PUSH0 PUSH1 0x20 DUP3 ADD SWAP1 POP PUSH2 0x210 PUSH0 DUP4 ADD DUP5 PUSH2 0x1EE JUMP JUMPDEST SWAP3 SWAP2 POP POP JUMP INVALID LOG2 PUSH5 0x6970667358 0x22 SLT KECCAK256 EXTCODEHASH SWAP12 COINBASE 0xB8 0xC5 PUSH32 0x23C72E7071B4A85A1B7B0C27B095316AB79136F339BCCB96110964736F6C6343 STOP ADDMOD XOR STOP CALLER "
				},
				"gasEstimates": {
					"creation": {
						"codeDepositCost": "117600",
						"executionCost": "188",
						"totalCost": "117788"
					},
					"external": {
						"EVM_EXTRA_ARGS_V1_TAG()": "344",
						"GENERIC_EXTRA_ARGS_V2_TAG()": "343",
						"SVM_ACCOUNT_BYTE_SIZE()": "309",
						"SVM_EXTRA_ARGS_MAX_ACCOUNTS()": "310",
						"SVM_EXTRA_ARGS_V1_TAG()": "387",
						"SVM_MESSAGING_ACCOUNTS_OVERHEAD()": "354",
						"SVM_TOKEN_TRANSFER_DATA_OVERHEAD()": "353"
					},
					"internal": {
						"_argsToBytes(struct Client.EVMExtraArgsV1 memory)": "infinite",
						"_argsToBytes(struct Client.GenericExtraArgsV2 memory)": "infinite",
						"_svmArgsToBytes(struct Client.SVMExtraArgsV1 memory)": "infinite"
					}
				},
				"methodIdentifiers": {
					"EVM_EXTRA_ARGS_V1_TAG()": "3ab8c0d0",
					"GENERIC_EXTRA_ARGS_V2_TAG()": "7498e355",
					"SVM_ACCOUNT_BYTE_SIZE()": "71953f60",
					"SVM_EXTRA_ARGS_MAX_ACCOUNTS()": "1ac428f8",
					"SVM_EXTRA_ARGS_V1_TAG()": "a5dd87d8",
					"SVM_MESSAGING_ACCOUNTS_OVERHEAD()": "5dd8ee3e",
					"SVM_TOKEN_TRANSFER_DATA_OVERHEAD()": "9713cbbd"
				}
			},
			"storageLayout": {
				"storage": [],
				"types": null
			},
			"userdoc": {
				"kind": "user",
				"methods": {},
				"version": 1
			}
		}
	}
}