{
	"contracts/chainlink/sendToken.sol": {
		"TokenTransferor": {
			"abi": [
				{
					"inputs": [
						{
							"internalType": "address",
							"name": "_router",
							"type": "address"
						},
						{
							"internalType": "address",
							"name": "_link",
							"type": "address"
						}
					],
					"stateMutability": "nonpayable",
					"type": "constructor"
				},
				{
					"inputs": [
						{
							"internalType": "uint64",
							"name": "destinationChainSelector",
							"type": "uint64"
						}
					],
					"name": "DestinationChainNotAllowlisted",
					"type": "error"
				},
				{
					"inputs": [
						{
							"internalType": "address",
							"name": "owner",
							"type": "address"
						},
						{
							"internalType": "address",
							"name": "target",
							"type": "address"
						},
						{
							"internalType": "uint256",
							"name": "value",
							"type": "uint256"
						}
					],
					"name": "FailedToWithdrawEth",
					"type": "error"
				},
				{
					"inputs": [],
					"name": "InvalidReceiverAddress",
					"type": "error"
				},
				{
					"inputs": [
						{
							"internalType": "uint256",
							"name": "currentBalance",
							"type": "uint256"
						},
						{
							"internalType": "uint256",
							"name": "requiredBalance",
							"type": "uint256"
						}
					],
					"name": "NotEnoughBalance",
					"type": "error"
				},
				{
					"inputs": [],
					"name": "NothingToWithdraw",
					"type": "error"
				},
				{
					"anonymous": false,
					"inputs": [
						{
							"indexed": true,
							"internalType": "address",
							"name": "from",
							"type": "address"
						},
						{
							"indexed": true,
							"internalType": "address",
							"name": "to",
							"type": "address"
						}
					],
					"name": "OwnershipTransferRequested",
					"type": "event"
				},
				{
					"anonymous": false,
					"inputs": [
						{
							"indexed": true,
							"internalType": "address",
							"name": "from",
							"type": "address"
						},
						{
							"indexed": true,
							"internalType": "address",
							"name": "to",
							"type": "address"
						}
					],
					"name": "OwnershipTransferred",
					"type": "event"
				},
				{
					"anonymous": false,
					"inputs": [
						{
							"indexed": true,
							"internalType": "bytes32",
							"name": "messageId",
							"type": "bytes32"
						},
						{
							"indexed": true,
							"internalType": "uint64",
							"name": "destinationChainSelector",
							"type": "uint64"
						},
						{
							"indexed": false,
							"internalType": "address",
							"name": "receiver",
							"type": "address"
						},
						{
							"indexed": false,
							"internalType": "address",
							"name": "token",
							"type": "address"
						},
						{
							"indexed": false,
							"internalType": "uint256",
							"name": "tokenAmount",
							"type": "uint256"
						},
						{
							"indexed": false,
							"internalType": "address",
							"name": "feeToken",
							"type": "address"
						},
						{
							"indexed": false,
							"internalType": "uint256",
							"name": "fees",
							"type": "uint256"
						}
					],
					"name": "TokensTransferred",
					"type": "event"
				},
				{
					"inputs": [],
					"name": "acceptOwnership",
					"outputs": [],
					"stateMutability": "nonpayable",
					"type": "function"
				},
				{
					"inputs": [
						{
							"internalType": "uint64",
							"name": "_destinationChainSelector",
							"type": "uint64"
						},
						{
							"internalType": "bool",
							"name": "allowed",
							"type": "bool"
						}
					],
					"name": "allowlistDestinationChain",
					"outputs": [],
					"stateMutability": "nonpayable",
					"type": "function"
				},
				{
					"inputs": [
						{
							"internalType": "uint64",
							"name": "",
							"type": "uint64"
						}
					],
					"name": "allowlistedChains",
					"outputs": [
						{
							"internalType": "bool",
							"name": "",
							"type": "bool"
						}
					],
					"stateMutability": "view",
					"type": "function"
				},
				{
					"inputs": [],
					"name": "owner",
					"outputs": [
						{
							"internalType": "address",
							"name": "",
							"type": "address"
						}
					],
					"stateMutability": "view",
					"type": "function"
				},
				{
					"inputs": [
						{
							"internalType": "address",
							"name": "to",
							"type": "address"
						}
					],
					"name": "transferOwnership",
					"outputs": [],
					"stateMutability": "nonpayable",
					"type": "function"
				},
				{
					"inputs": [
						{
							"internalType": "uint64",
							"name": "_destinationChainSelector",
							"type": "uint64"
						},
						{
							"internalType": "address",
							"name": "_receiver",
							"type": "address"
						},
						{
							"internalType": "address",
							"name": "_token",
							"type": "address"
						},
						{
							"internalType": "uint256",
							"name": "_amount",
							"type": "uint256"
						}
					],
					"name": "transferTokensPayLINK",
					"outputs": [
						{
							"internalType": "bytes32",
							"name": "messageId",
							"type": "bytes32"
						}
					],
					"stateMutability": "nonpayable",
					"type": "function"
				},
				{
					"inputs": [
						{
							"internalType": "uint64",
							"name": "_destinationChainSelector",
							"type": "uint64"
						},
						{
							"internalType": "address",
							"name": "_receiver",
							"type": "address"
						},
						{
							"internalType": "address",
							"name": "_token",
							"type": "address"
						},
						{
							"internalType": "uint256",
							"name": "_amount",
							"type": "uint256"
						}
					],
					"name": "transferTokensPayNative",
					"outputs": [
						{
							"internalType": "bytes32",
							"name": "messageId",
							"type": "bytes32"
						}
					],
					"stateMutability": "nonpayable",
					"type": "function"
				},
				{
					"inputs": [
						{
							"internalType": "address",
							"name": "_beneficiary",
							"type": "address"
						}
					],
					"name": "withdraw",
					"outputs": [],
					"stateMutability": "nonpayable",
					"type": "function"
				},
				{
					"inputs": [
						{
							"internalType": "address",
							"name": "_beneficiary",
							"type": "address"
						},
						{
							"internalType": "address",
							"name": "_token",
							"type": "address"
						}
					],
					"name": "withdrawToken",
					"outputs": [],
					"stateMutability": "nonpayable",
					"type": "function"
				},
				{
					"stateMutability": "payable",
					"type": "receive"
				}
			],
			"devdoc": {
				"kind": "dev",
				"methods": {
					"allowlistDestinationChain(uint64,bool)": {
						"details": "Updates the allowlist status of a destination chain for transactions.",
						"params": {
							"_destinationChainSelector": "The selector of the destination chain to be updated.",
							"allowed": "The allowlist status to be set for the destination chain."
						}
					},
					"constructor": {
						"params": {
							"_link": "The address of the link contract.",
							"_router": "The address of the router contract."
						}
					},
					"transferTokensPayLINK(uint64,address,address,uint256)": {
						"details": "Assumes your contract has sufficient LINK tokens to pay for the fees.",
						"params": {
							"_amount": "token amount.",
							"_destinationChainSelector": "The identifier (aka selector) for the destination blockchain.",
							"_receiver": "The address of the recipient on the destination blockchain.",
							"_token": "token address."
						},
						"returns": {
							"messageId": "The ID of the message that was sent."
						}
					},
					"transferTokensPayNative(uint64,address,address,uint256)": {
						"details": "Assumes your contract has sufficient native gas like ETH on Ethereum or POL on Polygon.",
						"params": {
							"_amount": "token amount.",
							"_destinationChainSelector": "The identifier (aka selector) for the destination blockchain.",
							"_receiver": "The address of the recipient on the destination blockchain.",
							"_token": "token address."
						},
						"returns": {
							"messageId": "The ID of the message that was sent."
						}
					},
					"withdraw(address)": {
						"details": "This function reverts if there are no funds to withdraw or if the transfer fails. It should only be callable by the owner of the contract.",
						"params": {
							"_beneficiary": "The address to which the Ether should be transferred."
						}
					},
					"withdrawToken(address,address)": {
						"details": "This function reverts with a 'NothingToWithdraw' error if there are no tokens to withdraw.",
						"params": {
							"_beneficiary": "The address to which the tokens will be sent.",
							"_token": "The contract address of the ERC20 token to be withdrawn."
						}
					}
				},
				"title": "- A simple contract for transferring tokens across chains.",
				"version": 1
			},
			"evm": {
				"assembly": "    /* \"contracts/chainlink/sendToken.sol\":851:14263  contract TokenTransferor is OwnerIsCreator {... */\n  mstore(0x40, 0x80)\n    /* \"contracts/chainlink/sendToken.sol\":2639:2773  constructor(address _router, address _link) {... */\n  callvalue\n  dup1\n  iszero\n  tag_1\n  jumpi\n  0x00\n  dup1\n  revert\ntag_1:\n  pop\n  mload(0x40)\n  sub(codesize, bytecodeSize)\n  dup1\n  bytecodeSize\n  dup4\n  codecopy\n  dup2\n  dup2\n  add\n  0x40\n  mstore\n  dup2\n  add\n  swap1\n  tag_2\n  swap2\n  swap1\n  tag_3\n  jump\t// in\ntag_2:\n    /* \"@chainlink/contracts/src/v0.8/shared/access/OwnerIsCreator.sol\":291:301  msg.sender */\n  caller\n    /* \"@chainlink/contracts/src/v0.8/shared/access/ConfirmedOwner.sol\":355:363  newOwner */\n  dup1\n    /* \"@chainlink/contracts/src/v0.8/shared/access/ConfirmedOwner.sol\":373:374  0 */\n  0x00\n    /* \"@chainlink/contracts/src/v0.8/shared/access/ConfirmedOwnerWithProposal.sol\":618:619  0 */\n  dup1\n    /* \"@chainlink/contracts/src/v0.8/shared/access/ConfirmedOwnerWithProposal.sol\":598:620  newOwner != address(0) */\n  0xffffffffffffffffffffffffffffffffffffffff\n  and\n    /* \"@chainlink/contracts/src/v0.8/shared/access/ConfirmedOwnerWithProposal.sol\":598:606  newOwner */\n  dup3\n    /* \"@chainlink/contracts/src/v0.8/shared/access/ConfirmedOwnerWithProposal.sol\":598:620  newOwner != address(0) */\n  0xffffffffffffffffffffffffffffffffffffffff\n  and\n  sub\n    /* \"@chainlink/contracts/src/v0.8/shared/access/ConfirmedOwnerWithProposal.sol\":590:649  require(newOwner != address(0), \"Cannot set owner to zero\") */\n  tag_9\n  jumpi\n  mload(0x40)\n  0x08c379a000000000000000000000000000000000000000000000000000000000\n  dup2\n  mstore\n  0x04\n  add\n  tag_10\n  swap1\n  tag_11\n  jump\t// in\ntag_10:\n  mload(0x40)\n  dup1\n  swap2\n  sub\n  swap1\n  revert\ntag_9:\n    /* \"@chainlink/contracts/src/v0.8/shared/access/ConfirmedOwnerWithProposal.sol\":666:674  newOwner */\n  dup2\n    /* \"@chainlink/contracts/src/v0.8/shared/access/ConfirmedOwnerWithProposal.sol\":656:663  s_owner */\n  0x00\n  dup1\n    /* \"@chainlink/contracts/src/v0.8/shared/access/ConfirmedOwnerWithProposal.sol\":656:674  s_owner = newOwner */\n  0x0100\n  exp\n  dup2\n  sload\n  dup2\n  0xffffffffffffffffffffffffffffffffffffffff\n  mul\n  not\n  and\n  swap1\n  dup4\n  0xffffffffffffffffffffffffffffffffffffffff\n  and\n  mul\n  or\n  swap1\n  sstore\n  pop\n    /* \"@chainlink/contracts/src/v0.8/shared/access/ConfirmedOwnerWithProposal.sol\":708:709  0 */\n  0x00\n    /* \"@chainlink/contracts/src/v0.8/shared/access/ConfirmedOwnerWithProposal.sol\":684:710  pendingOwner != address(0) */\n  0xffffffffffffffffffffffffffffffffffffffff\n  and\n    /* \"@chainlink/contracts/src/v0.8/shared/access/ConfirmedOwnerWithProposal.sol\":684:696  pendingOwner */\n  dup2\n    /* \"@chainlink/contracts/src/v0.8/shared/access/ConfirmedOwnerWithProposal.sol\":684:710  pendingOwner != address(0) */\n  0xffffffffffffffffffffffffffffffffffffffff\n  and\n  eq\n    /* \"@chainlink/contracts/src/v0.8/shared/access/ConfirmedOwnerWithProposal.sol\":680:759  if (pendingOwner != address(0)) {... */\n  tag_12\n  jumpi\n    /* \"@chainlink/contracts/src/v0.8/shared/access/ConfirmedOwnerWithProposal.sol\":720:752  _transferOwnership(pendingOwner) */\n  tag_13\n    /* \"@chainlink/contracts/src/v0.8/shared/access/ConfirmedOwnerWithProposal.sol\":739:751  pendingOwner */\n  dup2\n    /* \"@chainlink/contracts/src/v0.8/shared/access/ConfirmedOwnerWithProposal.sol\":720:738  _transferOwnership */\n  shl(0x20, tag_14)\n    /* \"@chainlink/contracts/src/v0.8/shared/access/ConfirmedOwnerWithProposal.sol\":720:752  _transferOwnership(pendingOwner) */\n  0x20\n  shr\n  jump\t// in\ntag_13:\n    /* \"@chainlink/contracts/src/v0.8/shared/access/ConfirmedOwnerWithProposal.sol\":680:759  if (pendingOwner != address(0)) {... */\ntag_12:\n    /* \"@chainlink/contracts/src/v0.8/shared/access/ConfirmedOwnerWithProposal.sol\":481:763  constructor(address newOwner, address pendingOwner) {... */\n  pop\n  pop\n    /* \"@chainlink/contracts/src/v0.8/shared/access/ConfirmedOwner.sol\":298:379  constructor(address newOwner) ConfirmedOwnerWithProposal(newOwner, address(0)) {} */\n  pop\n    /* \"contracts/chainlink/sendToken.sol\":2719:2726  _router */\n  dup2\n    /* \"contracts/chainlink/sendToken.sol\":2694:2702  s_router */\n  0x03\n  0x00\n    /* \"contracts/chainlink/sendToken.sol\":2694:2727  s_router = IRouterClient(_router) */\n  0x0100\n  exp\n  dup2\n  sload\n  dup2\n  0xffffffffffffffffffffffffffffffffffffffff\n  mul\n  not\n  and\n  swap1\n  dup4\n  0xffffffffffffffffffffffffffffffffffffffff\n  and\n  mul\n  or\n  swap1\n  sstore\n  pop\n    /* \"contracts/chainlink/sendToken.sol\":2759:2764  _link */\n  dup1\n    /* \"contracts/chainlink/sendToken.sol\":2738:2749  s_linkToken */\n  0x04\n  0x00\n    /* \"contracts/chainlink/sendToken.sol\":2738:2765  s_linkToken = IERC20(_link) */\n  0x0100\n  exp\n  dup2\n  sload\n  dup2\n  0xffffffffffffffffffffffffffffffffffffffff\n  mul\n  not\n  and\n  swap1\n  dup4\n  0xffffffffffffffffffffffffffffffffffffffff\n  and\n  mul\n  or\n  swap1\n  sstore\n  pop\n    /* \"contracts/chainlink/sendToken.sol\":2639:2773  constructor(address _router, address _link) {... */\n  pop\n  pop\n    /* \"contracts/chainlink/sendToken.sol\":851:14263  contract TokenTransferor is OwnerIsCreator {... */\n  jump(tag_18)\n    /* \"@chainlink/contracts/src/v0.8/shared/access/ConfirmedOwnerWithProposal.sol\":1536:1775  function _transferOwnership(address to) private {... */\ntag_14:\n    /* \"@chainlink/contracts/src/v0.8/shared/access/ConfirmedOwnerWithProposal.sol\":1655:1665  msg.sender */\n  caller\n    /* \"@chainlink/contracts/src/v0.8/shared/access/ConfirmedOwnerWithProposal.sol\":1649:1665  to != msg.sender */\n  0xffffffffffffffffffffffffffffffffffffffff\n  and\n    /* \"@chainlink/contracts/src/v0.8/shared/access/ConfirmedOwnerWithProposal.sol\":1649:1651  to */\n  dup2\n    /* \"@chainlink/contracts/src/v0.8/shared/access/ConfirmedOwnerWithProposal.sol\":1649:1665  to != msg.sender */\n  0xffffffffffffffffffffffffffffffffffffffff\n  and\n  sub\n    /* \"@chainlink/contracts/src/v0.8/shared/access/ConfirmedOwnerWithProposal.sol\":1641:1693  require(to != msg.sender, \"Cannot transfer to self\") */\n  tag_20\n  jumpi\n  mload(0x40)\n  0x08c379a000000000000000000000000000000000000000000000000000000000\n  dup2\n  mstore\n  0x04\n  add\n  tag_21\n  swap1\n  tag_22\n  jump\t// in\ntag_21:\n  mload(0x40)\n  dup1\n  swap2\n  sub\n  swap1\n  revert\ntag_20:\n    /* \"@chainlink/contracts/src/v0.8/shared/access/ConfirmedOwnerWithProposal.sol\":1717:1719  to */\n  dup1\n    /* \"@chainlink/contracts/src/v0.8/shared/access/ConfirmedOwnerWithProposal.sol\":1700:1714  s_pendingOwner */\n  0x01\n  0x00\n    /* \"@chainlink/contracts/src/v0.8/shared/access/ConfirmedOwnerWithProposal.sol\":1700:1719  s_pendingOwner = to */\n  0x0100\n  exp\n  dup2\n  sload\n  dup2\n  0xffffffffffffffffffffffffffffffffffffffff\n  mul\n  not\n  and\n  swap1\n  dup4\n  0xffffffffffffffffffffffffffffffffffffffff\n  and\n  mul\n  or\n  swap1\n  sstore\n  pop\n    /* \"@chainlink/contracts/src/v0.8/shared/access/ConfirmedOwnerWithProposal.sol\":1767:1769  to */\n  dup1\n    /* \"@chainlink/contracts/src/v0.8/shared/access/ConfirmedOwnerWithProposal.sol\":1731:1770  OwnershipTransferRequested(s_owner, to) */\n  0xffffffffffffffffffffffffffffffffffffffff\n  and\n    /* \"@chainlink/contracts/src/v0.8/shared/access/ConfirmedOwnerWithProposal.sol\":1758:1765  s_owner */\n  0x00\n  dup1\n  sload\n  swap1\n  0x0100\n  exp\n  swap1\n  div\n  0xffffffffffffffffffffffffffffffffffffffff\n  and\n    /* \"@chainlink/contracts/src/v0.8/shared/access/ConfirmedOwnerWithProposal.sol\":1731:1770  OwnershipTransferRequested(s_owner, to) */\n  0xffffffffffffffffffffffffffffffffffffffff\n  and\n  0xed8889f560326eb138920d842192f0eb3dd22b4f139c87a2c57538e05bae1278\n  mload(0x40)\n  mload(0x40)\n  dup1\n  swap2\n  sub\n  swap1\n  log3\n    /* \"@chainlink/contracts/src/v0.8/shared/access/ConfirmedOwnerWithProposal.sol\":1536:1775  function _transferOwnership(address to) private {... */\n  pop\n  jump\t// out\n    /* \"#utility.yul\":88:205   */\ntag_24:\n    /* \"#utility.yul\":197:198   */\n  0x00\n    /* \"#utility.yul\":194:195   */\n  dup1\n    /* \"#utility.yul\":187:199   */\n  revert\n    /* \"#utility.yul\":334:460   */\ntag_26:\n    /* \"#utility.yul\":371:378   */\n  0x00\n    /* \"#utility.yul\":411:453   */\n  0xffffffffffffffffffffffffffffffffffffffff\n    /* \"#utility.yul\":404:409   */\n  dup3\n    /* \"#utility.yul\":400:454   */\n  and\n    /* \"#utility.yul\":389:454   */\n  swap1\n  pop\n    /* \"#utility.yul\":334:460   */\n  swap2\n  swap1\n  pop\n  jump\t// out\n    /* \"#utility.yul\":466:562   */\ntag_27:\n    /* \"#utility.yul\":503:510   */\n  0x00\n    /* \"#utility.yul\":532:556   */\n  tag_41\n    /* \"#utility.yul\":550:555   */\n  dup3\n    /* \"#utility.yul\":532:556   */\n  tag_26\n  jump\t// in\ntag_41:\n    /* \"#utility.yul\":521:556   */\n  swap1\n  pop\n    /* \"#utility.yul\":466:562   */\n  swap2\n  swap1\n  pop\n  jump\t// out\n    /* \"#utility.yul\":568:690   */\ntag_28:\n    /* \"#utility.yul\":641:665   */\n  tag_43\n    /* \"#utility.yul\":659:664   */\n  dup2\n    /* \"#utility.yul\":641:665   */\n  tag_27\n  jump\t// in\ntag_43:\n    /* \"#utility.yul\":634:639   */\n  dup2\n    /* \"#utility.yul\":631:666   */\n  eq\n    /* \"#utility.yul\":621:684   */\n  tag_44\n  jumpi\n    /* \"#utility.yul\":680:681   */\n  0x00\n    /* \"#utility.yul\":677:678   */\n  dup1\n    /* \"#utility.yul\":670:682   */\n  revert\n    /* \"#utility.yul\":621:684   */\ntag_44:\n    /* \"#utility.yul\":568:690   */\n  pop\n  jump\t// out\n    /* \"#utility.yul\":696:839   */\ntag_29:\n    /* \"#utility.yul\":753:758   */\n  0x00\n    /* \"#utility.yul\":784:790   */\n  dup2\n    /* \"#utility.yul\":778:791   */\n  mload\n    /* \"#utility.yul\":769:791   */\n  swap1\n  pop\n    /* \"#utility.yul\":800:833   */\n  tag_46\n    /* \"#utility.yul\":827:832   */\n  dup2\n    /* \"#utility.yul\":800:833   */\n  tag_28\n  jump\t// in\ntag_46:\n    /* \"#utility.yul\":696:839   */\n  swap3\n  swap2\n  pop\n  pop\n  jump\t// out\n    /* \"#utility.yul\":845:1352   */\ntag_3:\n    /* \"#utility.yul\":924:930   */\n  0x00\n    /* \"#utility.yul\":932:938   */\n  dup1\n    /* \"#utility.yul\":981:983   */\n  0x40\n    /* \"#utility.yul\":969:978   */\n  dup4\n    /* \"#utility.yul\":960:967   */\n  dup6\n    /* \"#utility.yul\":956:979   */\n  sub\n    /* \"#utility.yul\":952:984   */\n  slt\n    /* \"#utility.yul\":949:1068   */\n  iszero\n  tag_48\n  jumpi\n    /* \"#utility.yul\":987:1066   */\n  tag_49\n  tag_24\n  jump\t// in\ntag_49:\n    /* \"#utility.yul\":949:1068   */\ntag_48:\n    /* \"#utility.yul\":1107:1108   */\n  0x00\n    /* \"#utility.yul\":1132:1196   */\n  tag_50\n    /* \"#utility.yul\":1188:1195   */\n  dup6\n    /* \"#utility.yul\":1179:1185   */\n  dup3\n    /* \"#utility.yul\":1168:1177   */\n  dup7\n    /* \"#utility.yul\":1164:1186   */\n  add\n    /* \"#utility.yul\":1132:1196   */\n  tag_29\n  jump\t// in\ntag_50:\n    /* \"#utility.yul\":1122:1196   */\n  swap3\n  pop\n    /* \"#utility.yul\":1078:1206   */\n  pop\n    /* \"#utility.yul\":1245:1247   */\n  0x20\n    /* \"#utility.yul\":1271:1335   */\n  tag_51\n    /* \"#utility.yul\":1327:1334   */\n  dup6\n    /* \"#utility.yul\":1318:1324   */\n  dup3\n    /* \"#utility.yul\":1307:1316   */\n  dup7\n    /* \"#utility.yul\":1303:1325   */\n  add\n    /* \"#utility.yul\":1271:1335   */\n  tag_29\n  jump\t// in\ntag_51:\n    /* \"#utility.yul\":1261:1335   */\n  swap2\n  pop\n    /* \"#utility.yul\":1216:1345   */\n  pop\n    /* \"#utility.yul\":845:1352   */\n  swap3\n  pop\n  swap3\n  swap1\n  pop\n  jump\t// out\n    /* \"#utility.yul\":1358:1527   */\ntag_30:\n    /* \"#utility.yul\":1442:1453   */\n  0x00\n    /* \"#utility.yul\":1476:1482   */\n  dup3\n    /* \"#utility.yul\":1471:1474   */\n  dup3\n    /* \"#utility.yul\":1464:1483   */\n  mstore\n    /* \"#utility.yul\":1516:1520   */\n  0x20\n    /* \"#utility.yul\":1511:1514   */\n  dup3\n    /* \"#utility.yul\":1507:1521   */\n  add\n    /* \"#utility.yul\":1492:1521   */\n  swap1\n  pop\n    /* \"#utility.yul\":1358:1527   */\n  swap3\n  swap2\n  pop\n  pop\n  jump\t// out\n    /* \"#utility.yul\":1533:1707   */\ntag_31:\n    /* \"#utility.yul\":1673:1699   */\n  0x43616e6e6f7420736574206f776e657220746f207a65726f0000000000000000\n    /* \"#utility.yul\":1669:1670   */\n  0x00\n    /* \"#utility.yul\":1661:1667   */\n  dup3\n    /* \"#utility.yul\":1657:1671   */\n  add\n    /* \"#utility.yul\":1650:1700   */\n  mstore\n    /* \"#utility.yul\":1533:1707   */\n  pop\n  jump\t// out\n    /* \"#utility.yul\":1713:2079   */\ntag_32:\n    /* \"#utility.yul\":1855:1858   */\n  0x00\n    /* \"#utility.yul\":1876:1943   */\n  tag_55\n    /* \"#utility.yul\":1940:1942   */\n  0x18\n    /* \"#utility.yul\":1935:1938   */\n  dup4\n    /* \"#utility.yul\":1876:1943   */\n  tag_30\n  jump\t// in\ntag_55:\n    /* \"#utility.yul\":1869:1943   */\n  swap2\n  pop\n    /* \"#utility.yul\":1952:2045   */\n  tag_56\n    /* \"#utility.yul\":2041:2044   */\n  dup3\n    /* \"#utility.yul\":1952:2045   */\n  tag_31\n  jump\t// in\ntag_56:\n    /* \"#utility.yul\":2070:2072   */\n  0x20\n    /* \"#utility.yul\":2065:2068   */\n  dup3\n    /* \"#utility.yul\":2061:2073   */\n  add\n    /* \"#utility.yul\":2054:2073   */\n  swap1\n  pop\n    /* \"#utility.yul\":1713:2079   */\n  swap2\n  swap1\n  pop\n  jump\t// out\n    /* \"#utility.yul\":2085:2504   */\ntag_11:\n    /* \"#utility.yul\":2251:2255   */\n  0x00\n    /* \"#utility.yul\":2289:2291   */\n  0x20\n    /* \"#utility.yul\":2278:2287   */\n  dup3\n    /* \"#utility.yul\":2274:2292   */\n  add\n    /* \"#utility.yul\":2266:2292   */\n  swap1\n  pop\n    /* \"#utility.yul\":2338:2347   */\n  dup2\n    /* \"#utility.yul\":2332:2336   */\n  dup2\n    /* \"#utility.yul\":2328:2348   */\n  sub\n    /* \"#utility.yul\":2324:2325   */\n  0x00\n    /* \"#utility.yul\":2313:2322   */\n  dup4\n    /* \"#utility.yul\":2309:2326   */\n  add\n    /* \"#utility.yul\":2302:2349   */\n  mstore\n    /* \"#utility.yul\":2366:2497   */\n  tag_58\n    /* \"#utility.yul\":2492:2496   */\n  dup2\n    /* \"#utility.yul\":2366:2497   */\n  tag_32\n  jump\t// in\ntag_58:\n    /* \"#utility.yul\":2358:2497   */\n  swap1\n  pop\n    /* \"#utility.yul\":2085:2504   */\n  swap2\n  swap1\n  pop\n  jump\t// out\n    /* \"#utility.yul\":2510:2683   */\ntag_33:\n    /* \"#utility.yul\":2650:2675   */\n  0x43616e6e6f74207472616e7366657220746f2073656c66000000000000000000\n    /* \"#utility.yul\":2646:2647   */\n  0x00\n    /* \"#utility.yul\":2638:2644   */\n  dup3\n    /* \"#utility.yul\":2634:2648   */\n  add\n    /* \"#utility.yul\":2627:2676   */\n  mstore\n    /* \"#utility.yul\":2510:2683   */\n  pop\n  jump\t// out\n    /* \"#utility.yul\":2689:3055   */\ntag_34:\n    /* \"#utility.yul\":2831:2834   */\n  0x00\n    /* \"#utility.yul\":2852:2919   */\n  tag_61\n    /* \"#utility.yul\":2916:2918   */\n  0x17\n    /* \"#utility.yul\":2911:2914   */\n  dup4\n    /* \"#utility.yul\":2852:2919   */\n  tag_30\n  jump\t// in\ntag_61:\n    /* \"#utility.yul\":2845:2919   */\n  swap2\n  pop\n    /* \"#utility.yul\":2928:3021   */\n  tag_62\n    /* \"#utility.yul\":3017:3020   */\n  dup3\n    /* \"#utility.yul\":2928:3021   */\n  tag_33\n  jump\t// in\ntag_62:\n    /* \"#utility.yul\":3046:3048   */\n  0x20\n    /* \"#utility.yul\":3041:3044   */\n  dup3\n    /* \"#utility.yul\":3037:3049   */\n  add\n    /* \"#utility.yul\":3030:3049   */\n  swap1\n  pop\n    /* \"#utility.yul\":2689:3055   */\n  swap2\n  swap1\n  pop\n  jump\t// out\n    /* \"#utility.yul\":3061:3480   */\ntag_22:\n    /* \"#utility.yul\":3227:3231   */\n  0x00\n    /* \"#utility.yul\":3265:3267   */\n  0x20\n    /* \"#utility.yul\":3254:3263   */\n  dup3\n    /* \"#utility.yul\":3250:3268   */\n  add\n    /* \"#utility.yul\":3242:3268   */\n  swap1\n  pop\n    /* \"#utility.yul\":3314:3323   */\n  dup2\n    /* \"#utility.yul\":3308:3312   */\n  dup2\n    /* \"#utility.yul\":3304:3324   */\n  sub\n    /* \"#utility.yul\":3300:3301   */\n  0x00\n    /* \"#utility.yul\":3289:3298   */\n  dup4\n    /* \"#utility.yul\":3285:3302   */\n  add\n    /* \"#utility.yul\":3278:3325   */\n  mstore\n    /* \"#utility.yul\":3342:3473   */\n  tag_64\n    /* \"#utility.yul\":3468:3472   */\n  dup2\n    /* \"#utility.yul\":3342:3473   */\n  tag_34\n  jump\t// in\ntag_64:\n    /* \"#utility.yul\":3334:3473   */\n  swap1\n  pop\n    /* \"#utility.yul\":3061:3480   */\n  swap2\n  swap1\n  pop\n  jump\t// out\n    /* \"contracts/chainlink/sendToken.sol\":851:14263  contract TokenTransferor is OwnerIsCreator {... */\ntag_18:\n  dataSize(sub_0)\n  dup1\n  dataOffset(sub_0)\n  0x00\n  codecopy\n  0x00\n  return\nstop\n\nsub_0: assembly {\n        /* \"contracts/chainlink/sendToken.sol\":851:14263  contract TokenTransferor is OwnerIsCreator {... */\n      mstore(0x40, 0x80)\n      jumpi(tag_1, lt(calldatasize, 0x04))\n      shr(0xe0, calldataload(0x00))\n      dup1\n      0x79ba5097\n      gt\n      tag_12\n      jumpi\n      dup1\n      0x79ba5097\n      eq\n      tag_7\n      jumpi\n      dup1\n      0x8da5cb5b\n      eq\n      tag_8\n      jumpi\n      dup1\n      0x95e1402c\n      eq\n      tag_9\n      jumpi\n      dup1\n      0x96d3b83d\n      eq\n      tag_10\n      jumpi\n      dup1\n      0xf2fde38b\n      eq\n      tag_11\n      jumpi\n      jump(tag_2)\n    tag_12:\n      dup1\n      0x0bb106eb\n      eq\n      tag_3\n      jumpi\n      dup1\n      0x3aeac4e1\n      eq\n      tag_4\n      jumpi\n      dup1\n      0x51419b4b\n      eq\n      tag_5\n      jumpi\n      dup1\n      0x51cff8d9\n      eq\n      tag_6\n      jumpi\n      jump(tag_2)\n    tag_1:\n      jumpi(tag_2, calldatasize)\n      stop\n    tag_2:\n      0x00\n      dup1\n      revert\n        /* \"contracts/chainlink/sendToken.sol\":2313:2361  mapping(uint64 => bool) public allowlistedChains */\n    tag_3:\n      callvalue\n      dup1\n      iszero\n      tag_15\n      jumpi\n      0x00\n      dup1\n      revert\n    tag_15:\n      pop\n      tag_16\n      0x04\n      dup1\n      calldatasize\n      sub\n      dup2\n      add\n      swap1\n      tag_17\n      swap2\n      swap1\n      tag_18\n      jump\t// in\n    tag_17:\n      tag_19\n      jump\t// in\n    tag_16:\n      mload(0x40)\n      tag_20\n      swap2\n      swap1\n      tag_21\n      jump\t// in\n    tag_20:\n      mload(0x40)\n      dup1\n      swap2\n      sub\n      swap1\n      return\n        /* \"contracts/chainlink/sendToken.sol\":13863:14260  function withdrawToken(... */\n    tag_4:\n      callvalue\n      dup1\n      iszero\n      tag_22\n      jumpi\n      0x00\n      dup1\n      revert\n    tag_22:\n      pop\n      tag_23\n      0x04\n      dup1\n      calldatasize\n      sub\n      dup2\n      add\n      swap1\n      tag_24\n      swap2\n      swap1\n      tag_25\n      jump\t// in\n    tag_24:\n      tag_26\n      jump\t// in\n    tag_23:\n      stop\n        /* \"contracts/chainlink/sendToken.sol\":8007:9711  function transferTokensPayNative(... */\n    tag_5:\n      callvalue\n      dup1\n      iszero\n      tag_27\n      jumpi\n      0x00\n      dup1\n      revert\n    tag_27:\n      pop\n      tag_28\n      0x04\n      dup1\n      calldatasize\n      sub\n      dup2\n      add\n      swap1\n      tag_29\n      swap2\n      swap1\n      tag_30\n      jump\t// in\n    tag_29:\n      tag_31\n      jump\t// in\n    tag_28:\n      mload(0x40)\n      tag_32\n      swap2\n      swap1\n      tag_33\n      jump\t// in\n    tag_32:\n      mload(0x40)\n      dup1\n      swap2\n      sub\n      swap1\n      return\n        /* \"contracts/chainlink/sendToken.sol\":12891:13495  function withdraw(address _beneficiary) public onlyOwner {... */\n    tag_6:\n      callvalue\n      dup1\n      iszero\n      tag_34\n      jumpi\n      0x00\n      dup1\n      revert\n    tag_34:\n      pop\n      tag_35\n      0x04\n      dup1\n      calldatasize\n      sub\n      dup2\n      add\n      swap1\n      tag_36\n      swap2\n      swap1\n      tag_37\n      jump\t// in\n    tag_36:\n      tag_38\n      jump\t// in\n    tag_35:\n      stop\n        /* \"@chainlink/contracts/src/v0.8/shared/access/ConfirmedOwnerWithProposal.sol\":1026:1342  function acceptOwnership() external override {... */\n    tag_7:\n      callvalue\n      dup1\n      iszero\n      tag_39\n      jumpi\n      0x00\n      dup1\n      revert\n    tag_39:\n      pop\n      tag_40\n      tag_41\n      jump\t// in\n    tag_40:\n      stop\n        /* \"@chainlink/contracts/src/v0.8/shared/access/ConfirmedOwnerWithProposal.sol\":1382:1463  function owner() public view override returns (address) {... */\n    tag_8:\n      callvalue\n      dup1\n      iszero\n      tag_42\n      jumpi\n      0x00\n      dup1\n      revert\n    tag_42:\n      pop\n      tag_43\n      tag_44\n      jump\t// in\n    tag_43:\n      mload(0x40)\n      tag_45\n      swap2\n      swap1\n      tag_46\n      jump\t// in\n    tag_45:\n      mload(0x40)\n      dup1\n      swap2\n      sub\n      swap1\n      return\n        /* \"contracts/chainlink/sendToken.sol\":4635:7286  function transferTokensPayLINK(... */\n    tag_9:\n      callvalue\n      dup1\n      iszero\n      tag_47\n      jumpi\n      0x00\n      dup1\n      revert\n    tag_47:\n      pop\n      tag_48\n      0x04\n      dup1\n      calldatasize\n      sub\n      dup2\n      add\n      swap1\n      tag_49\n      swap2\n      swap1\n      tag_30\n      jump\t// in\n    tag_49:\n      tag_50\n      jump\t// in\n    tag_48:\n      mload(0x40)\n      tag_51\n      swap2\n      swap1\n      tag_33\n      jump\t// in\n    tag_51:\n      mload(0x40)\n      dup1\n      swap2\n      sub\n      swap1\n      return\n        /* \"contracts/chainlink/sendToken.sol\":3780:3980  function allowlistDestinationChain(... */\n    tag_10:\n      callvalue\n      dup1\n      iszero\n      tag_52\n      jumpi\n      0x00\n      dup1\n      revert\n    tag_52:\n      pop\n      tag_53\n      0x04\n      dup1\n      calldatasize\n      sub\n      dup2\n      add\n      swap1\n      tag_54\n      swap2\n      swap1\n      tag_55\n      jump\t// in\n    tag_54:\n      tag_56\n      jump\t// in\n    tag_53:\n      stop\n        /* \"@chainlink/contracts/src/v0.8/shared/access/ConfirmedOwnerWithProposal.sol\":847:945  function transferOwnership(address to) public override onlyOwner {... */\n    tag_11:\n      callvalue\n      dup1\n      iszero\n      tag_57\n      jumpi\n      0x00\n      dup1\n      revert\n    tag_57:\n      pop\n      tag_58\n      0x04\n      dup1\n      calldatasize\n      sub\n      dup2\n      add\n      swap1\n      tag_59\n      swap2\n      swap1\n      tag_37\n      jump\t// in\n    tag_59:\n      tag_60\n      jump\t// in\n    tag_58:\n      stop\n        /* \"contracts/chainlink/sendToken.sol\":2313:2361  mapping(uint64 => bool) public allowlistedChains */\n    tag_19:\n      mstore(0x20, 0x02)\n      dup1\n      0x00\n      mstore\n      keccak256(0x00, 0x40)\n      0x00\n      swap2\n      pop\n      sload\n      swap1\n      0x0100\n      exp\n      swap1\n      div\n      0xff\n      and\n      dup2\n      jump\t// out\n        /* \"contracts/chainlink/sendToken.sol\":13863:14260  function withdrawToken(... */\n    tag_26:\n        /* \"@chainlink/contracts/src/v0.8/shared/access/ConfirmedOwnerWithProposal.sol\":2075:2095  _validateOwnership() */\n      tag_62\n        /* \"@chainlink/contracts/src/v0.8/shared/access/ConfirmedOwnerWithProposal.sol\":2075:2093  _validateOwnership */\n      tag_63\n        /* \"@chainlink/contracts/src/v0.8/shared/access/ConfirmedOwnerWithProposal.sol\":2075:2095  _validateOwnership() */\n      jump\t// in\n    tag_62:\n        /* \"contracts/chainlink/sendToken.sol\":14027:14041  uint256 amount */\n      0x00\n        /* \"contracts/chainlink/sendToken.sol\":14051:14057  _token */\n      dup2\n        /* \"contracts/chainlink/sendToken.sol\":14044:14068  IERC20(_token).balanceOf */\n      0xffffffffffffffffffffffffffffffffffffffff\n      and\n      0x70a08231\n        /* \"contracts/chainlink/sendToken.sol\":14077:14081  this */\n      address\n        /* \"contracts/chainlink/sendToken.sol\":14044:14083  IERC20(_token).balanceOf(address(this)) */\n      mload(0x40)\n      dup3\n      0xffffffff\n      and\n      0xe0\n      shl\n      dup2\n      mstore\n      0x04\n      add\n      tag_65\n      swap2\n      swap1\n      tag_46\n      jump\t// in\n    tag_65:\n      0x20\n      mload(0x40)\n      dup1\n      dup4\n      sub\n      dup2\n      dup7\n      gas\n      staticcall\n      iszero\n      dup1\n      iszero\n      tag_67\n      jumpi\n      returndatasize\n      0x00\n      dup1\n      returndatacopy\n      revert(0x00, returndatasize)\n    tag_67:\n      pop\n      pop\n      pop\n      pop\n      mload(0x40)\n      returndatasize\n      not(0x1f)\n      0x1f\n      dup3\n      add\n      and\n      dup3\n      add\n      dup1\n      0x40\n      mstore\n      pop\n      dup2\n      add\n      swap1\n      tag_68\n      swap2\n      swap1\n      tag_69\n      jump\t// in\n    tag_68:\n        /* \"contracts/chainlink/sendToken.sol\":14027:14083  uint256 amount = IERC20(_token).balanceOf(address(this)) */\n      swap1\n      pop\n        /* \"contracts/chainlink/sendToken.sol\":14161:14162  0 */\n      0x00\n        /* \"contracts/chainlink/sendToken.sol\":14151:14157  amount */\n      dup2\n        /* \"contracts/chainlink/sendToken.sol\":14151:14162  amount == 0 */\n      sub\n        /* \"contracts/chainlink/sendToken.sol\":14147:14190  if (amount == 0) revert NothingToWithdraw() */\n      tag_70\n      jumpi\n        /* \"contracts/chainlink/sendToken.sol\":14171:14190  NothingToWithdraw() */\n      mload(0x40)\n      0xd0d04f6000000000000000000000000000000000000000000000000000000000\n      dup2\n      mstore\n      0x04\n      add\n      mload(0x40)\n      dup1\n      swap2\n      sub\n      swap1\n      revert\n        /* \"contracts/chainlink/sendToken.sol\":14147:14190  if (amount == 0) revert NothingToWithdraw() */\n    tag_70:\n        /* \"contracts/chainlink/sendToken.sol\":14203:14252  IERC20(_token).safeTransfer(_beneficiary, amount) */\n      tag_71\n        /* \"contracts/chainlink/sendToken.sol\":14231:14243  _beneficiary */\n      dup4\n        /* \"contracts/chainlink/sendToken.sol\":14245:14251  amount */\n      dup3\n        /* \"contracts/chainlink/sendToken.sol\":14210:14216  _token */\n      dup5\n        /* \"contracts/chainlink/sendToken.sol\":14203:14230  IERC20(_token).safeTransfer */\n      0xffffffffffffffffffffffffffffffffffffffff\n      and\n      tag_72\n      swap1\n        /* \"contracts/chainlink/sendToken.sol\":14203:14252  IERC20(_token).safeTransfer(_beneficiary, amount) */\n      swap3\n      swap2\n      swap1\n      0xffffffff\n      and\n      jump\t// in\n    tag_71:\n        /* \"contracts/chainlink/sendToken.sol\":13966:14260  {... */\n      pop\n        /* \"contracts/chainlink/sendToken.sol\":13863:14260  function withdrawToken(... */\n      pop\n      pop\n      jump\t// out\n        /* \"contracts/chainlink/sendToken.sol\":8007:9711  function transferTokensPayNative(... */\n    tag_31:\n        /* \"contracts/chainlink/sendToken.sol\":8318:8335  bytes32 messageId */\n      0x00\n        /* \"@chainlink/contracts/src/v0.8/shared/access/ConfirmedOwnerWithProposal.sol\":2075:2095  _validateOwnership() */\n      tag_74\n        /* \"@chainlink/contracts/src/v0.8/shared/access/ConfirmedOwnerWithProposal.sol\":2075:2093  _validateOwnership */\n      tag_63\n        /* \"@chainlink/contracts/src/v0.8/shared/access/ConfirmedOwnerWithProposal.sol\":2075:2095  _validateOwnership() */\n      jump\t// in\n    tag_74:\n        /* \"contracts/chainlink/sendToken.sol\":8236:8261  _destinationChainSelector */\n      dup5\n        /* \"contracts/chainlink/sendToken.sol\":3046:3063  allowlistedChains */\n      0x02\n        /* \"contracts/chainlink/sendToken.sol\":3046:3090  allowlistedChains[_destinationChainSelector] */\n      0x00\n        /* \"contracts/chainlink/sendToken.sol\":3064:3089  _destinationChainSelector */\n      dup3\n        /* \"contracts/chainlink/sendToken.sol\":3046:3090  allowlistedChains[_destinationChainSelector] */\n      0xffffffffffffffff\n      and\n      0xffffffffffffffff\n      and\n      dup2\n      mstore\n      0x20\n      add\n      swap1\n      dup2\n      mstore\n      0x20\n      add\n      0x00\n      keccak256\n      0x00\n      swap1\n      sload\n      swap1\n      0x0100\n      exp\n      swap1\n      div\n      0xff\n      and\n        /* \"contracts/chainlink/sendToken.sol\":3041:3169  if (!allowlistedChains[_destinationChainSelector])... */\n      tag_76\n      jumpi\n        /* \"contracts/chainlink/sendToken.sol\":3143:3168  _destinationChainSelector */\n      dup1\n        /* \"contracts/chainlink/sendToken.sol\":3112:3169  DestinationChainNotAllowlisted(_destinationChainSelector) */\n      mload(0x40)\n      0x0a503cdb00000000000000000000000000000000000000000000000000000000\n      dup2\n      mstore\n      0x04\n      add\n      tag_77\n      swap2\n      swap1\n      tag_78\n      jump\t// in\n    tag_77:\n      mload(0x40)\n      dup1\n      swap2\n      sub\n      swap1\n      revert\n        /* \"contracts/chainlink/sendToken.sol\":3041:3169  if (!allowlistedChains[_destinationChainSelector])... */\n    tag_76:\n        /* \"contracts/chainlink/sendToken.sol\":8289:8298  _receiver */\n      dup5\n        /* \"contracts/chainlink/sendToken.sol\":3392:3393  0 */\n      0x00\n        /* \"contracts/chainlink/sendToken.sol\":3371:3394  _receiver == address(0) */\n      0xffffffffffffffffffffffffffffffffffffffff\n      and\n        /* \"contracts/chainlink/sendToken.sol\":3371:3380  _receiver */\n      dup2\n        /* \"contracts/chainlink/sendToken.sol\":3371:3394  _receiver == address(0) */\n      0xffffffffffffffffffffffffffffffffffffffff\n      and\n      sub\n        /* \"contracts/chainlink/sendToken.sol\":3367:3427  if (_receiver == address(0)) revert InvalidReceiverAddress() */\n      tag_80\n      jumpi\n        /* \"contracts/chainlink/sendToken.sol\":3403:3427  InvalidReceiverAddress() */\n      mload(0x40)\n      0xa05ff47e00000000000000000000000000000000000000000000000000000000\n      dup2\n      mstore\n      0x04\n      add\n      mload(0x40)\n      dup1\n      swap2\n      sub\n      swap1\n      revert\n        /* \"contracts/chainlink/sendToken.sol\":3367:3427  if (_receiver == address(0)) revert InvalidReceiverAddress() */\n    tag_80:\n        /* \"contracts/chainlink/sendToken.sol\":8525:8568  Client.EVM2AnyMessage memory evm2AnyMessage */\n      0x00\n        /* \"contracts/chainlink/sendToken.sol\":8571:8691  _buildCCIPMessage(... */\n      tag_82\n        /* \"contracts/chainlink/sendToken.sol\":8603:8612  _receiver */\n      dup8\n        /* \"contracts/chainlink/sendToken.sol\":8627:8633  _token */\n      dup8\n        /* \"contracts/chainlink/sendToken.sol\":8648:8655  _amount */\n      dup8\n        /* \"contracts/chainlink/sendToken.sol\":8678:8679  0 */\n      0x00\n        /* \"contracts/chainlink/sendToken.sol\":8571:8588  _buildCCIPMessage */\n      tag_83\n        /* \"contracts/chainlink/sendToken.sol\":8571:8691  _buildCCIPMessage(... */\n      jump\t// in\n    tag_82:\n        /* \"contracts/chainlink/sendToken.sol\":8525:8691  Client.EVM2AnyMessage memory evm2AnyMessage = _buildCCIPMessage(... */\n      swap1\n      pop\n        /* \"contracts/chainlink/sendToken.sol\":8757:8769  uint256 fees */\n      0x00\n        /* \"contracts/chainlink/sendToken.sol\":8772:8780  s_router */\n      0x03\n      0x00\n      swap1\n      sload\n      swap1\n      0x0100\n      exp\n      swap1\n      div\n      0xffffffffffffffffffffffffffffffffffffffff\n      and\n        /* \"contracts/chainlink/sendToken.sol\":8772:8787  s_router.getFee */\n      0xffffffffffffffffffffffffffffffffffffffff\n      and\n      0x20487ded\n        /* \"contracts/chainlink/sendToken.sol\":8802:8827  _destinationChainSelector */\n      dup11\n        /* \"contracts/chainlink/sendToken.sol\":8842:8856  evm2AnyMessage */\n      dup5\n        /* \"contracts/chainlink/sendToken.sol\":8772:8867  s_router.getFee(... */\n      mload(0x40)\n      dup4\n      0xffffffff\n      and\n      0xe0\n      shl\n      dup2\n      mstore\n      0x04\n      add\n      tag_84\n      swap3\n      swap2\n      swap1\n      tag_85\n      jump\t// in\n    tag_84:\n      0x20\n      mload(0x40)\n      dup1\n      dup4\n      sub\n      dup2\n      dup7\n      gas\n      staticcall\n      iszero\n      dup1\n      iszero\n      tag_87\n      jumpi\n      returndatasize\n      0x00\n      dup1\n      returndatacopy\n      revert(0x00, returndatasize)\n    tag_87:\n      pop\n      pop\n      pop\n      pop\n      mload(0x40)\n      returndatasize\n      not(0x1f)\n      0x1f\n      dup3\n      add\n      and\n      dup3\n      add\n      dup1\n      0x40\n      mstore\n      pop\n      dup2\n      add\n      swap1\n      tag_88\n      swap2\n      swap1\n      tag_69\n      jump\t// in\n    tag_88:\n        /* \"contracts/chainlink/sendToken.sol\":8757:8867  uint256 fees = s_router.getFee(... */\n      swap1\n      pop\n        /* \"contracts/chainlink/sendToken.sol\":8891:8912  address(this).balance */\n      selfbalance\n        /* \"contracts/chainlink/sendToken.sol\":8884:8888  fees */\n      dup2\n        /* \"contracts/chainlink/sendToken.sol\":8884:8912  fees > address(this).balance */\n      gt\n        /* \"contracts/chainlink/sendToken.sol\":8880:8979  if (fees > address(this).balance)... */\n      iszero\n      tag_89\n      jumpi\n        /* \"contracts/chainlink/sendToken.sol\":8951:8972  address(this).balance */\n      selfbalance\n        /* \"contracts/chainlink/sendToken.sol\":8974:8978  fees */\n      dup2\n        /* \"contracts/chainlink/sendToken.sol\":8934:8979  NotEnoughBalance(address(this).balance, fees) */\n      mload(0x40)\n      0x8f0f420600000000000000000000000000000000000000000000000000000000\n      dup2\n      mstore\n      0x04\n      add\n      tag_90\n      swap3\n      swap2\n      swap1\n      tag_91\n      jump\t// in\n    tag_90:\n      mload(0x40)\n      dup1\n      swap2\n      sub\n      swap1\n      revert\n        /* \"contracts/chainlink/sendToken.sol\":8880:8979  if (fees > address(this).balance)... */\n    tag_89:\n        /* \"contracts/chainlink/sendToken.sol\":9112:9118  _token */\n      dup7\n        /* \"contracts/chainlink/sendToken.sol\":9105:9127  IERC20(_token).approve */\n      0xffffffffffffffffffffffffffffffffffffffff\n      and\n      0x095ea7b3\n        /* \"contracts/chainlink/sendToken.sol\":9136:9144  s_router */\n      0x03\n      0x00\n      swap1\n      sload\n      swap1\n      0x0100\n      exp\n      swap1\n      div\n      0xffffffffffffffffffffffffffffffffffffffff\n      and\n        /* \"contracts/chainlink/sendToken.sol\":9147:9154  _amount */\n      dup9\n        /* \"contracts/chainlink/sendToken.sol\":9105:9155  IERC20(_token).approve(address(s_router), _amount) */\n      mload(0x40)\n      dup4\n      0xffffffff\n      and\n      0xe0\n      shl\n      dup2\n      mstore\n      0x04\n      add\n      tag_92\n      swap3\n      swap2\n      swap1\n      tag_93\n      jump\t// in\n    tag_92:\n      0x20\n      mload(0x40)\n      dup1\n      dup4\n      sub\n      dup2\n      0x00\n      dup8\n      gas\n      call\n      iszero\n      dup1\n      iszero\n      tag_95\n      jumpi\n      returndatasize\n      0x00\n      dup1\n      returndatacopy\n      revert(0x00, returndatasize)\n    tag_95:\n      pop\n      pop\n      pop\n      pop\n      mload(0x40)\n      returndatasize\n      not(0x1f)\n      0x1f\n      dup3\n      add\n      and\n      dup3\n      add\n      dup1\n      0x40\n      mstore\n      pop\n      dup2\n      add\n      swap1\n      tag_96\n      swap2\n      swap1\n      tag_97\n      jump\t// in\n    tag_96:\n      pop\n        /* \"contracts/chainlink/sendToken.sol\":9262:9270  s_router */\n      0x03\n      0x00\n      swap1\n      sload\n      swap1\n      0x0100\n      exp\n      swap1\n      div\n      0xffffffffffffffffffffffffffffffffffffffff\n      and\n        /* \"contracts/chainlink/sendToken.sol\":9262:9279  s_router.ccipSend */\n      0xffffffffffffffffffffffffffffffffffffffff\n      and\n      0x96f4e9f9\n        /* \"contracts/chainlink/sendToken.sol\":9287:9291  fees */\n      dup3\n        /* \"contracts/chainlink/sendToken.sol\":9307:9332  _destinationChainSelector */\n      dup12\n        /* \"contracts/chainlink/sendToken.sol\":9347:9361  evm2AnyMessage */\n      dup6\n        /* \"contracts/chainlink/sendToken.sol\":9262:9372  s_router.ccipSend{value: fees}(... */\n      mload(0x40)\n      dup5\n      0xffffffff\n      and\n      0xe0\n      shl\n      dup2\n      mstore\n      0x04\n      add\n      tag_98\n      swap3\n      swap2\n      swap1\n      tag_85\n      jump\t// in\n    tag_98:\n      0x20\n      mload(0x40)\n      dup1\n      dup4\n      sub\n      dup2\n      dup6\n      dup9\n      gas\n      call\n      iszero\n      dup1\n      iszero\n      tag_100\n      jumpi\n      returndatasize\n      0x00\n      dup1\n      returndatacopy\n      revert(0x00, returndatasize)\n    tag_100:\n      pop\n      pop\n      pop\n      pop\n      pop\n      mload(0x40)\n      returndatasize\n      not(0x1f)\n      0x1f\n      dup3\n      add\n      and\n      dup3\n      add\n      dup1\n      0x40\n      mstore\n      pop\n      dup2\n      add\n      swap1\n      tag_101\n      swap2\n      swap1\n      tag_102\n      jump\t// in\n    tag_101:\n        /* \"contracts/chainlink/sendToken.sol\":9250:9372  messageId = s_router.ccipSend{value: fees}(... */\n      swap5\n      pop\n        /* \"contracts/chainlink/sendToken.sol\":9493:9518  _destinationChainSelector */\n      dup9\n        /* \"contracts/chainlink/sendToken.sol\":9437:9640  TokensTransferred(... */\n      0xffffffffffffffff\n      and\n        /* \"contracts/chainlink/sendToken.sol\":9469:9478  messageId */\n      dup6\n        /* \"contracts/chainlink/sendToken.sol\":9437:9640  TokensTransferred(... */\n      0xc15fb748c32ba4eb29c1c311e78533f93b4425eab49ea87c6fe4279ecadca043\n        /* \"contracts/chainlink/sendToken.sol\":9533:9542  _receiver */\n      dup11\n        /* \"contracts/chainlink/sendToken.sol\":9557:9563  _token */\n      dup11\n        /* \"contracts/chainlink/sendToken.sol\":9578:9585  _amount */\n      dup11\n        /* \"contracts/chainlink/sendToken.sol\":9608:9609  0 */\n      0x00\n        /* \"contracts/chainlink/sendToken.sol\":9625:9629  fees */\n      dup8\n        /* \"contracts/chainlink/sendToken.sol\":9437:9640  TokensTransferred(... */\n      mload(0x40)\n      tag_103\n      swap6\n      swap5\n      swap4\n      swap3\n      swap2\n      swap1\n      tag_104\n      jump\t// in\n    tag_103:\n      mload(0x40)\n      dup1\n      swap2\n      sub\n      swap1\n      log3\n        /* \"contracts/chainlink/sendToken.sol\":9687:9703  return messageId */\n      pop\n      pop\n        /* \"contracts/chainlink/sendToken.sol\":3180:3181  _ */\n      pop\n        /* \"@chainlink/contracts/src/v0.8/shared/access/ConfirmedOwnerWithProposal.sol\":2101:2102  _ */\n      pop\n        /* \"contracts/chainlink/sendToken.sol\":8007:9711  function transferTokensPayNative(... */\n      swap5\n      swap4\n      pop\n      pop\n      pop\n      pop\n      jump\t// out\n        /* \"contracts/chainlink/sendToken.sol\":12891:13495  function withdraw(address _beneficiary) public onlyOwner {... */\n    tag_38:\n        /* \"@chainlink/contracts/src/v0.8/shared/access/ConfirmedOwnerWithProposal.sol\":2075:2095  _validateOwnership() */\n      tag_106\n        /* \"@chainlink/contracts/src/v0.8/shared/access/ConfirmedOwnerWithProposal.sol\":2075:2093  _validateOwnership */\n      tag_63\n        /* \"@chainlink/contracts/src/v0.8/shared/access/ConfirmedOwnerWithProposal.sol\":2075:2095  _validateOwnership() */\n      jump\t// in\n    tag_106:\n        /* \"contracts/chainlink/sendToken.sol\":13009:13023  uint256 amount */\n      0x00\n        /* \"contracts/chainlink/sendToken.sol\":13026:13047  address(this).balance */\n      selfbalance\n        /* \"contracts/chainlink/sendToken.sol\":13009:13047  uint256 amount = address(this).balance */\n      swap1\n      pop\n        /* \"contracts/chainlink/sendToken.sol\":13125:13126  0 */\n      0x00\n        /* \"contracts/chainlink/sendToken.sol\":13115:13121  amount */\n      dup2\n        /* \"contracts/chainlink/sendToken.sol\":13115:13126  amount == 0 */\n      sub\n        /* \"contracts/chainlink/sendToken.sol\":13111:13154  if (amount == 0) revert NothingToWithdraw() */\n      tag_108\n      jumpi\n        /* \"contracts/chainlink/sendToken.sol\":13135:13154  NothingToWithdraw() */\n      mload(0x40)\n      0xd0d04f6000000000000000000000000000000000000000000000000000000000\n      dup2\n      mstore\n      0x04\n      add\n      mload(0x40)\n      dup1\n      swap2\n      sub\n      swap1\n      revert\n        /* \"contracts/chainlink/sendToken.sol\":13111:13154  if (amount == 0) revert NothingToWithdraw() */\n    tag_108:\n        /* \"contracts/chainlink/sendToken.sol\":13267:13276  bool sent */\n      0x00\n        /* \"contracts/chainlink/sendToken.sol\":13282:13294  _beneficiary */\n      dup3\n        /* \"contracts/chainlink/sendToken.sol\":13282:13299  _beneficiary.call */\n      0xffffffffffffffffffffffffffffffffffffffff\n      and\n        /* \"contracts/chainlink/sendToken.sol\":13307:13313  amount */\n      dup3\n        /* \"contracts/chainlink/sendToken.sol\":13282:13318  _beneficiary.call{value: amount}(\"\") */\n      mload(0x40)\n      tag_109\n      swap1\n      tag_110\n      jump\t// in\n    tag_109:\n      0x00\n      mload(0x40)\n      dup1\n      dup4\n      sub\n      dup2\n      dup6\n      dup8\n      gas\n      call\n      swap3\n      pop\n      pop\n      pop\n      returndatasize\n      dup1\n      0x00\n      dup2\n      eq\n      tag_113\n      jumpi\n      mload(0x40)\n      swap2\n      pop\n      and(add(returndatasize, 0x3f), not(0x1f))\n      dup3\n      add\n      0x40\n      mstore\n      returndatasize\n      dup3\n      mstore\n      returndatasize\n      0x00\n      0x20\n      dup5\n      add\n      returndatacopy\n      jump(tag_112)\n    tag_113:\n      0x60\n      swap2\n      pop\n    tag_112:\n      pop\n        /* \"contracts/chainlink/sendToken.sol\":13266:13318  (bool sent, ) = _beneficiary.call{value: amount}(\"\") */\n      pop\n      swap1\n      pop\n        /* \"contracts/chainlink/sendToken.sol\":13421:13425  sent */\n      dup1\n        /* \"contracts/chainlink/sendToken.sol\":13416:13487  if (!sent) revert FailedToWithdrawEth(msg.sender, _beneficiary, amount) */\n      tag_114\n      jumpi\n        /* \"contracts/chainlink/sendToken.sol\":13454:13464  msg.sender */\n      caller\n        /* \"contracts/chainlink/sendToken.sol\":13466:13478  _beneficiary */\n      dup4\n        /* \"contracts/chainlink/sendToken.sol\":13480:13486  amount */\n      dup4\n        /* \"contracts/chainlink/sendToken.sol\":13434:13487  FailedToWithdrawEth(msg.sender, _beneficiary, amount) */\n      mload(0x40)\n      0x9d11f56300000000000000000000000000000000000000000000000000000000\n      dup2\n      mstore\n      0x04\n      add\n      tag_115\n      swap4\n      swap3\n      swap2\n      swap1\n      tag_116\n      jump\t// in\n    tag_115:\n      mload(0x40)\n      dup1\n      swap2\n      sub\n      swap1\n      revert\n        /* \"contracts/chainlink/sendToken.sol\":13416:13487  if (!sent) revert FailedToWithdrawEth(msg.sender, _beneficiary, amount) */\n    tag_114:\n        /* \"contracts/chainlink/sendToken.sol\":12948:13495  {... */\n      pop\n      pop\n        /* \"contracts/chainlink/sendToken.sol\":12891:13495  function withdraw(address _beneficiary) public onlyOwner {... */\n      pop\n      jump\t// out\n        /* \"@chainlink/contracts/src/v0.8/shared/access/ConfirmedOwnerWithProposal.sol\":1026:1342  function acceptOwnership() external override {... */\n    tag_41:\n        /* \"@chainlink/contracts/src/v0.8/shared/access/ConfirmedOwnerWithProposal.sol\":1150:1164  s_pendingOwner */\n      0x01\n      0x00\n      swap1\n      sload\n      swap1\n      0x0100\n      exp\n      swap1\n      div\n      0xffffffffffffffffffffffffffffffffffffffff\n      and\n        /* \"@chainlink/contracts/src/v0.8/shared/access/ConfirmedOwnerWithProposal.sol\":1136:1164  msg.sender == s_pendingOwner */\n      0xffffffffffffffffffffffffffffffffffffffff\n      and\n        /* \"@chainlink/contracts/src/v0.8/shared/access/ConfirmedOwnerWithProposal.sol\":1136:1146  msg.sender */\n      caller\n        /* \"@chainlink/contracts/src/v0.8/shared/access/ConfirmedOwnerWithProposal.sol\":1136:1164  msg.sender == s_pendingOwner */\n      0xffffffffffffffffffffffffffffffffffffffff\n      and\n      eq\n        /* \"@chainlink/contracts/src/v0.8/shared/access/ConfirmedOwnerWithProposal.sol\":1128:1191  require(msg.sender == s_pendingOwner, \"Must be proposed owner\") */\n      tag_118\n      jumpi\n      mload(0x40)\n      0x08c379a000000000000000000000000000000000000000000000000000000000\n      dup2\n      mstore\n      0x04\n      add\n      tag_119\n      swap1\n      tag_120\n      jump\t// in\n    tag_119:\n      mload(0x40)\n      dup1\n      swap2\n      sub\n      swap1\n      revert\n    tag_118:\n        /* \"@chainlink/contracts/src/v0.8/shared/access/ConfirmedOwnerWithProposal.sol\":1198:1214  address oldOwner */\n      0x00\n        /* \"@chainlink/contracts/src/v0.8/shared/access/ConfirmedOwnerWithProposal.sol\":1217:1224  s_owner */\n      dup1\n      0x00\n      swap1\n      sload\n      swap1\n      0x0100\n      exp\n      swap1\n      div\n      0xffffffffffffffffffffffffffffffffffffffff\n      and\n        /* \"@chainlink/contracts/src/v0.8/shared/access/ConfirmedOwnerWithProposal.sol\":1198:1224  address oldOwner = s_owner */\n      swap1\n      pop\n        /* \"@chainlink/contracts/src/v0.8/shared/access/ConfirmedOwnerWithProposal.sol\":1240:1250  msg.sender */\n      caller\n        /* \"@chainlink/contracts/src/v0.8/shared/access/ConfirmedOwnerWithProposal.sol\":1230:1237  s_owner */\n      0x00\n      dup1\n        /* \"@chainlink/contracts/src/v0.8/shared/access/ConfirmedOwnerWithProposal.sol\":1230:1250  s_owner = msg.sender */\n      0x0100\n      exp\n      dup2\n      sload\n      dup2\n      0xffffffffffffffffffffffffffffffffffffffff\n      mul\n      not\n      and\n      swap1\n      dup4\n      0xffffffffffffffffffffffffffffffffffffffff\n      and\n      mul\n      or\n      swap1\n      sstore\n      pop\n        /* \"@chainlink/contracts/src/v0.8/shared/access/ConfirmedOwnerWithProposal.sol\":1281:1282  0 */\n      0x00\n        /* \"@chainlink/contracts/src/v0.8/shared/access/ConfirmedOwnerWithProposal.sol\":1256:1270  s_pendingOwner */\n      0x01\n      0x00\n        /* \"@chainlink/contracts/src/v0.8/shared/access/ConfirmedOwnerWithProposal.sol\":1256:1283  s_pendingOwner = address(0) */\n      0x0100\n      exp\n      dup2\n      sload\n      dup2\n      0xffffffffffffffffffffffffffffffffffffffff\n      mul\n      not\n      and\n      swap1\n      dup4\n      0xffffffffffffffffffffffffffffffffffffffff\n      and\n      mul\n      or\n      swap1\n      sstore\n      pop\n        /* \"@chainlink/contracts/src/v0.8/shared/access/ConfirmedOwnerWithProposal.sol\":1326:1336  msg.sender */\n      caller\n        /* \"@chainlink/contracts/src/v0.8/shared/access/ConfirmedOwnerWithProposal.sol\":1295:1337  OwnershipTransferred(oldOwner, msg.sender) */\n      0xffffffffffffffffffffffffffffffffffffffff\n      and\n        /* \"@chainlink/contracts/src/v0.8/shared/access/ConfirmedOwnerWithProposal.sol\":1316:1324  oldOwner */\n      dup2\n        /* \"@chainlink/contracts/src/v0.8/shared/access/ConfirmedOwnerWithProposal.sol\":1295:1337  OwnershipTransferred(oldOwner, msg.sender) */\n      0xffffffffffffffffffffffffffffffffffffffff\n      and\n      0x8be0079c531659141344cd1fd0a4f28419497f9722a3daafe3b4186f6b6457e0\n      mload(0x40)\n      mload(0x40)\n      dup1\n      swap2\n      sub\n      swap1\n      log3\n        /* \"@chainlink/contracts/src/v0.8/shared/access/ConfirmedOwnerWithProposal.sol\":1071:1342  {... */\n      pop\n        /* \"@chainlink/contracts/src/v0.8/shared/access/ConfirmedOwnerWithProposal.sol\":1026:1342  function acceptOwnership() external override {... */\n      jump\t// out\n        /* \"@chainlink/contracts/src/v0.8/shared/access/ConfirmedOwnerWithProposal.sol\":1382:1463  function owner() public view override returns (address) {... */\n    tag_44:\n        /* \"@chainlink/contracts/src/v0.8/shared/access/ConfirmedOwnerWithProposal.sol\":1429:1436  address */\n      0x00\n        /* \"@chainlink/contracts/src/v0.8/shared/access/ConfirmedOwnerWithProposal.sol\":1451:1458  s_owner */\n      dup1\n      0x00\n      swap1\n      sload\n      swap1\n      0x0100\n      exp\n      swap1\n      div\n      0xffffffffffffffffffffffffffffffffffffffff\n      and\n        /* \"@chainlink/contracts/src/v0.8/shared/access/ConfirmedOwnerWithProposal.sol\":1444:1458  return s_owner */\n      swap1\n      pop\n        /* \"@chainlink/contracts/src/v0.8/shared/access/ConfirmedOwnerWithProposal.sol\":1382:1463  function owner() public view override returns (address) {... */\n      swap1\n      jump\t// out\n        /* \"contracts/chainlink/sendToken.sol\":4635:7286  function transferTokensPayLINK(... */\n    tag_50:\n        /* \"contracts/chainlink/sendToken.sol\":4944:4961  bytes32 messageId */\n      0x00\n        /* \"@chainlink/contracts/src/v0.8/shared/access/ConfirmedOwnerWithProposal.sol\":2075:2095  _validateOwnership() */\n      tag_123\n        /* \"@chainlink/contracts/src/v0.8/shared/access/ConfirmedOwnerWithProposal.sol\":2075:2093  _validateOwnership */\n      tag_63\n        /* \"@chainlink/contracts/src/v0.8/shared/access/ConfirmedOwnerWithProposal.sol\":2075:2095  _validateOwnership() */\n      jump\t// in\n    tag_123:\n        /* \"contracts/chainlink/sendToken.sol\":4862:4887  _destinationChainSelector */\n      dup5\n        /* \"contracts/chainlink/sendToken.sol\":3046:3063  allowlistedChains */\n      0x02\n        /* \"contracts/chainlink/sendToken.sol\":3046:3090  allowlistedChains[_destinationChainSelector] */\n      0x00\n        /* \"contracts/chainlink/sendToken.sol\":3064:3089  _destinationChainSelector */\n      dup3\n        /* \"contracts/chainlink/sendToken.sol\":3046:3090  allowlistedChains[_destinationChainSelector] */\n      0xffffffffffffffff\n      and\n      0xffffffffffffffff\n      and\n      dup2\n      mstore\n      0x20\n      add\n      swap1\n      dup2\n      mstore\n      0x20\n      add\n      0x00\n      keccak256\n      0x00\n      swap1\n      sload\n      swap1\n      0x0100\n      exp\n      swap1\n      div\n      0xff\n      and\n        /* \"contracts/chainlink/sendToken.sol\":3041:3169  if (!allowlistedChains[_destinationChainSelector])... */\n      tag_125\n      jumpi\n        /* \"contracts/chainlink/sendToken.sol\":3143:3168  _destinationChainSelector */\n      dup1\n        /* \"contracts/chainlink/sendToken.sol\":3112:3169  DestinationChainNotAllowlisted(_destinationChainSelector) */\n      mload(0x40)\n      0x0a503cdb00000000000000000000000000000000000000000000000000000000\n      dup2\n      mstore\n      0x04\n      add\n      tag_126\n      swap2\n      swap1\n      tag_78\n      jump\t// in\n    tag_126:\n      mload(0x40)\n      dup1\n      swap2\n      sub\n      swap1\n      revert\n        /* \"contracts/chainlink/sendToken.sol\":3041:3169  if (!allowlistedChains[_destinationChainSelector])... */\n    tag_125:\n        /* \"contracts/chainlink/sendToken.sol\":4915:4924  _receiver */\n      dup5\n        /* \"contracts/chainlink/sendToken.sol\":3392:3393  0 */\n      0x00\n        /* \"contracts/chainlink/sendToken.sol\":3371:3394  _receiver == address(0) */\n      0xffffffffffffffffffffffffffffffffffffffff\n      and\n        /* \"contracts/chainlink/sendToken.sol\":3371:3380  _receiver */\n      dup2\n        /* \"contracts/chainlink/sendToken.sol\":3371:3394  _receiver == address(0) */\n      0xffffffffffffffffffffffffffffffffffffffff\n      and\n      sub\n        /* \"contracts/chainlink/sendToken.sol\":3367:3427  if (_receiver == address(0)) revert InvalidReceiverAddress() */\n      tag_128\n      jumpi\n        /* \"contracts/chainlink/sendToken.sol\":3403:3427  InvalidReceiverAddress() */\n      mload(0x40)\n      0xa05ff47e00000000000000000000000000000000000000000000000000000000\n      dup2\n      mstore\n      0x04\n      add\n      mload(0x40)\n      dup1\n      swap2\n      sub\n      swap1\n      revert\n        /* \"contracts/chainlink/sendToken.sol\":3367:3427  if (_receiver == address(0)) revert InvalidReceiverAddress() */\n    tag_128:\n        /* \"contracts/chainlink/sendToken.sol\":5154:5197  Client.EVM2AnyMessage memory evm2AnyMessage */\n      0x00\n        /* \"contracts/chainlink/sendToken.sol\":5200:5330  _buildCCIPMessage(... */\n      tag_130\n        /* \"contracts/chainlink/sendToken.sol\":5232:5241  _receiver */\n      dup8\n        /* \"contracts/chainlink/sendToken.sol\":5256:5262  _token */\n      dup8\n        /* \"contracts/chainlink/sendToken.sol\":5277:5284  _amount */\n      dup8\n        /* \"contracts/chainlink/sendToken.sol\":5307:5318  s_linkToken */\n      0x04\n      0x00\n      swap1\n      sload\n      swap1\n      0x0100\n      exp\n      swap1\n      div\n      0xffffffffffffffffffffffffffffffffffffffff\n      and\n        /* \"contracts/chainlink/sendToken.sol\":5200:5217  _buildCCIPMessage */\n      tag_83\n        /* \"contracts/chainlink/sendToken.sol\":5200:5330  _buildCCIPMessage(... */\n      jump\t// in\n    tag_130:\n        /* \"contracts/chainlink/sendToken.sol\":5154:5330  Client.EVM2AnyMessage memory evm2AnyMessage = _buildCCIPMessage(... */\n      swap1\n      pop\n        /* \"contracts/chainlink/sendToken.sol\":5396:5408  uint256 fees */\n      0x00\n        /* \"contracts/chainlink/sendToken.sol\":5411:5419  s_router */\n      0x03\n      0x00\n      swap1\n      sload\n      swap1\n      0x0100\n      exp\n      swap1\n      div\n      0xffffffffffffffffffffffffffffffffffffffff\n      and\n        /* \"contracts/chainlink/sendToken.sol\":5411:5426  s_router.getFee */\n      0xffffffffffffffffffffffffffffffffffffffff\n      and\n      0x20487ded\n        /* \"contracts/chainlink/sendToken.sol\":5441:5466  _destinationChainSelector */\n      dup11\n        /* \"contracts/chainlink/sendToken.sol\":5481:5495  evm2AnyMessage */\n      dup5\n        /* \"contracts/chainlink/sendToken.sol\":5411:5506  s_router.getFee(... */\n      mload(0x40)\n      dup4\n      0xffffffff\n      and\n      0xe0\n      shl\n      dup2\n      mstore\n      0x04\n      add\n      tag_131\n      swap3\n      swap2\n      swap1\n      tag_85\n      jump\t// in\n    tag_131:\n      0x20\n      mload(0x40)\n      dup1\n      dup4\n      sub\n      dup2\n      dup7\n      gas\n      staticcall\n      iszero\n      dup1\n      iszero\n      tag_133\n      jumpi\n      returndatasize\n      0x00\n      dup1\n      returndatacopy\n      revert(0x00, returndatasize)\n    tag_133:\n      pop\n      pop\n      pop\n      pop\n      mload(0x40)\n      returndatasize\n      not(0x1f)\n      0x1f\n      dup3\n      add\n      and\n      dup3\n      add\n      dup1\n      0x40\n      mstore\n      pop\n      dup2\n      add\n      swap1\n      tag_134\n      swap2\n      swap1\n      tag_69\n      jump\t// in\n    tag_134:\n        /* \"contracts/chainlink/sendToken.sol\":5396:5506  uint256 fees = s_router.getFee(... */\n      swap1\n      pop\n        /* \"contracts/chainlink/sendToken.sol\":5519:5546  uint256 requiredLinkBalance */\n      0x00\n        /* \"contracts/chainlink/sendToken.sol\":5579:5590  s_linkToken */\n      0x04\n      0x00\n      swap1\n      sload\n      swap1\n      0x0100\n      exp\n      swap1\n      div\n      0xffffffffffffffffffffffffffffffffffffffff\n      and\n        /* \"contracts/chainlink/sendToken.sol\":5561:5591  _token == address(s_linkToken) */\n      0xffffffffffffffffffffffffffffffffffffffff\n      and\n        /* \"contracts/chainlink/sendToken.sol\":5561:5567  _token */\n      dup9\n        /* \"contracts/chainlink/sendToken.sol\":5561:5591  _token == address(s_linkToken) */\n      0xffffffffffffffffffffffffffffffffffffffff\n      and\n      sub\n        /* \"contracts/chainlink/sendToken.sol\":5557:5829  if (_token == address(s_linkToken)) {... */\n      tag_135\n      jumpi\n        /* \"contracts/chainlink/sendToken.sol\":5751:5758  _amount */\n      dup7\n        /* \"contracts/chainlink/sendToken.sol\":5744:5748  fees */\n      dup3\n        /* \"contracts/chainlink/sendToken.sol\":5744:5758  fees + _amount */\n      tag_136\n      swap2\n      swap1\n      tag_137\n      jump\t// in\n    tag_136:\n        /* \"contracts/chainlink/sendToken.sol\":5722:5758  requiredLinkBalance = fees + _amount */\n      swap1\n      pop\n        /* \"contracts/chainlink/sendToken.sol\":5557:5829  if (_token == address(s_linkToken)) {... */\n      jump(tag_138)\n    tag_135:\n        /* \"contracts/chainlink/sendToken.sol\":5813:5817  fees */\n      dup2\n        /* \"contracts/chainlink/sendToken.sol\":5791:5817  requiredLinkBalance = fees */\n      swap1\n      pop\n        /* \"contracts/chainlink/sendToken.sol\":5557:5829  if (_token == address(s_linkToken)) {... */\n    tag_138:\n        /* \"contracts/chainlink/sendToken.sol\":5841:5860  uint256 linkBalance */\n      0x00\n        /* \"contracts/chainlink/sendToken.sol\":5863:5874  s_linkToken */\n      0x04\n      0x00\n      swap1\n      sload\n      swap1\n      0x0100\n      exp\n      swap1\n      div\n      0xffffffffffffffffffffffffffffffffffffffff\n      and\n        /* \"contracts/chainlink/sendToken.sol\":5863:5884  s_linkToken.balanceOf */\n      0xffffffffffffffffffffffffffffffffffffffff\n      and\n      0x70a08231\n        /* \"contracts/chainlink/sendToken.sol\":5893:5897  this */\n      address\n        /* \"contracts/chainlink/sendToken.sol\":5863:5899  s_linkToken.balanceOf(address(this)) */\n      mload(0x40)\n      dup3\n      0xffffffff\n      and\n      0xe0\n      shl\n      dup2\n      mstore\n      0x04\n      add\n      tag_139\n      swap2\n      swap1\n      tag_46\n      jump\t// in\n    tag_139:\n      0x20\n      mload(0x40)\n      dup1\n      dup4\n      sub\n      dup2\n      dup7\n      gas\n      staticcall\n      iszero\n      dup1\n      iszero\n      tag_141\n      jumpi\n      returndatasize\n      0x00\n      dup1\n      returndatacopy\n      revert(0x00, returndatasize)\n    tag_141:\n      pop\n      pop\n      pop\n      pop\n      mload(0x40)\n      returndatasize\n      not(0x1f)\n      0x1f\n      dup3\n      add\n      and\n      dup3\n      add\n      dup1\n      0x40\n      mstore\n      pop\n      dup2\n      add\n      swap1\n      tag_142\n      swap2\n      swap1\n      tag_69\n      jump\t// in\n    tag_142:\n        /* \"contracts/chainlink/sendToken.sol\":5841:5899  uint256 linkBalance = s_linkToken.balanceOf(address(this)) */\n      swap1\n      pop\n        /* \"contracts/chainlink/sendToken.sol\":5938:5949  linkBalance */\n      dup1\n        /* \"contracts/chainlink/sendToken.sol\":5916:5935  requiredLinkBalance */\n      dup3\n        /* \"contracts/chainlink/sendToken.sol\":5916:5949  requiredLinkBalance > linkBalance */\n      gt\n        /* \"contracts/chainlink/sendToken.sol\":5912:6035  if (requiredLinkBalance > linkBalance) {... */\n      iszero\n      tag_143\n      jumpi\n        /* \"contracts/chainlink/sendToken.sol\":5990:6001  linkBalance */\n      dup1\n        /* \"contracts/chainlink/sendToken.sol\":6003:6022  requiredLinkBalance */\n      dup3\n        /* \"contracts/chainlink/sendToken.sol\":5973:6023  NotEnoughBalance(linkBalance, requiredLinkBalance) */\n      mload(0x40)\n      0x8f0f420600000000000000000000000000000000000000000000000000000000\n      dup2\n      mstore\n      0x04\n      add\n      tag_144\n      swap3\n      swap2\n      swap1\n      tag_91\n      jump\t// in\n    tag_144:\n      mload(0x40)\n      dup1\n      swap2\n      sub\n      swap1\n      revert\n        /* \"contracts/chainlink/sendToken.sol\":5912:6035  if (requiredLinkBalance > linkBalance) {... */\n    tag_143:\n        /* \"contracts/chainlink/sendToken.sol\":6162:6173  s_linkToken */\n      0x04\n      0x00\n      swap1\n      sload\n      swap1\n      0x0100\n      exp\n      swap1\n      div\n      0xffffffffffffffffffffffffffffffffffffffff\n      and\n        /* \"contracts/chainlink/sendToken.sol\":6162:6181  s_linkToken.approve */\n      0xffffffffffffffffffffffffffffffffffffffff\n      and\n      0x095ea7b3\n        /* \"contracts/chainlink/sendToken.sol\":6190:6198  s_router */\n      0x03\n      0x00\n      swap1\n      sload\n      swap1\n      0x0100\n      exp\n      swap1\n      div\n      0xffffffffffffffffffffffffffffffffffffffff\n      and\n        /* \"contracts/chainlink/sendToken.sol\":6201:6220  requiredLinkBalance */\n      dup5\n        /* \"contracts/chainlink/sendToken.sol\":6162:6221  s_linkToken.approve(address(s_router), requiredLinkBalance) */\n      mload(0x40)\n      dup4\n      0xffffffff\n      and\n      0xe0\n      shl\n      dup2\n      mstore\n      0x04\n      add\n      tag_145\n      swap3\n      swap2\n      swap1\n      tag_93\n      jump\t// in\n    tag_145:\n      0x20\n      mload(0x40)\n      dup1\n      dup4\n      sub\n      dup2\n      0x00\n      dup8\n      gas\n      call\n      iszero\n      dup1\n      iszero\n      tag_147\n      jumpi\n      returndatasize\n      0x00\n      dup1\n      returndatacopy\n      revert(0x00, returndatasize)\n    tag_147:\n      pop\n      pop\n      pop\n      pop\n      mload(0x40)\n      returndatasize\n      not(0x1f)\n      0x1f\n      dup3\n      add\n      and\n      dup3\n      add\n      dup1\n      0x40\n      mstore\n      pop\n      dup2\n      add\n      swap1\n      tag_148\n      swap2\n      swap1\n      tag_97\n      jump\t// in\n    tag_148:\n      pop\n        /* \"contracts/chainlink/sendToken.sol\":6326:6337  s_linkToken */\n      0x04\n      0x00\n      swap1\n      sload\n      swap1\n      0x0100\n      exp\n      swap1\n      div\n      0xffffffffffffffffffffffffffffffffffffffff\n      and\n        /* \"contracts/chainlink/sendToken.sol\":6308:6338  _token != address(s_linkToken) */\n      0xffffffffffffffffffffffffffffffffffffffff\n      and\n        /* \"contracts/chainlink/sendToken.sol\":6308:6314  _token */\n      dup10\n        /* \"contracts/chainlink/sendToken.sol\":6308:6338  _token != address(s_linkToken) */\n      0xffffffffffffffffffffffffffffffffffffffff\n      and\n      eq\n        /* \"contracts/chainlink/sendToken.sol\":6304:6734  if (_token != address(s_linkToken)) {... */\n      tag_149\n      jumpi\n        /* \"contracts/chainlink/sendToken.sol\":6355:6375  uint256 tokenBalance */\n      0x00\n        /* \"contracts/chainlink/sendToken.sol\":6385:6391  _token */\n      dup10\n        /* \"contracts/chainlink/sendToken.sol\":6378:6402  IERC20(_token).balanceOf */\n      0xffffffffffffffffffffffffffffffffffffffff\n      and\n      0x70a08231\n        /* \"contracts/chainlink/sendToken.sol\":6411:6415  this */\n      address\n        /* \"contracts/chainlink/sendToken.sol\":6378:6417  IERC20(_token).balanceOf(address(this)) */\n      mload(0x40)\n      dup3\n      0xffffffff\n      and\n      0xe0\n      shl\n      dup2\n      mstore\n      0x04\n      add\n      tag_150\n      swap2\n      swap1\n      tag_46\n      jump\t// in\n    tag_150:\n      0x20\n      mload(0x40)\n      dup1\n      dup4\n      sub\n      dup2\n      dup7\n      gas\n      staticcall\n      iszero\n      dup1\n      iszero\n      tag_152\n      jumpi\n      returndatasize\n      0x00\n      dup1\n      returndatacopy\n      revert(0x00, returndatasize)\n    tag_152:\n      pop\n      pop\n      pop\n      pop\n      mload(0x40)\n      returndatasize\n      not(0x1f)\n      0x1f\n      dup3\n      add\n      and\n      dup3\n      add\n      dup1\n      0x40\n      mstore\n      pop\n      dup2\n      add\n      swap1\n      tag_153\n      swap2\n      swap1\n      tag_69\n      jump\t// in\n    tag_153:\n        /* \"contracts/chainlink/sendToken.sol\":6355:6417  uint256 tokenBalance = IERC20(_token).balanceOf(address(this)) */\n      swap1\n      pop\n        /* \"contracts/chainlink/sendToken.sol\":6446:6458  tokenBalance */\n      dup1\n        /* \"contracts/chainlink/sendToken.sol\":6436:6443  _amount */\n      dup10\n        /* \"contracts/chainlink/sendToken.sol\":6436:6458  _amount > tokenBalance */\n      gt\n        /* \"contracts/chainlink/sendToken.sol\":6432:6541  if (_amount > tokenBalance) {... */\n      iszero\n      tag_154\n      jumpi\n        /* \"contracts/chainlink/sendToken.sol\":6503:6515  tokenBalance */\n      dup1\n        /* \"contracts/chainlink/sendToken.sol\":6517:6524  _amount */\n      dup10\n        /* \"contracts/chainlink/sendToken.sol\":6486:6525  NotEnoughBalance(tokenBalance, _amount) */\n      mload(0x40)\n      0x8f0f420600000000000000000000000000000000000000000000000000000000\n      dup2\n      mstore\n      0x04\n      add\n      tag_155\n      swap3\n      swap2\n      swap1\n      tag_91\n      jump\t// in\n    tag_155:\n      mload(0x40)\n      dup1\n      swap2\n      sub\n      swap1\n      revert\n        /* \"contracts/chainlink/sendToken.sol\":6432:6541  if (_amount > tokenBalance) {... */\n    tag_154:\n        /* \"contracts/chainlink/sendToken.sol\":6679:6685  _token */\n      dup10\n        /* \"contracts/chainlink/sendToken.sol\":6672:6694  IERC20(_token).approve */\n      0xffffffffffffffffffffffffffffffffffffffff\n      and\n      0x095ea7b3\n        /* \"contracts/chainlink/sendToken.sol\":6703:6711  s_router */\n      0x03\n      0x00\n      swap1\n      sload\n      swap1\n      0x0100\n      exp\n      swap1\n      div\n      0xffffffffffffffffffffffffffffffffffffffff\n      and\n        /* \"contracts/chainlink/sendToken.sol\":6714:6721  _amount */\n      dup12\n        /* \"contracts/chainlink/sendToken.sol\":6672:6722  IERC20(_token).approve(address(s_router), _amount) */\n      mload(0x40)\n      dup4\n      0xffffffff\n      and\n      0xe0\n      shl\n      dup2\n      mstore\n      0x04\n      add\n      tag_156\n      swap3\n      swap2\n      swap1\n      tag_93\n      jump\t// in\n    tag_156:\n      0x20\n      mload(0x40)\n      dup1\n      dup4\n      sub\n      dup2\n      0x00\n      dup8\n      gas\n      call\n      iszero\n      dup1\n      iszero\n      tag_158\n      jumpi\n      returndatasize\n      0x00\n      dup1\n      returndatacopy\n      revert(0x00, returndatasize)\n    tag_158:\n      pop\n      pop\n      pop\n      pop\n      mload(0x40)\n      returndatasize\n      not(0x1f)\n      0x1f\n      dup3\n      add\n      and\n      dup3\n      add\n      dup1\n      0x40\n      mstore\n      pop\n      dup2\n      add\n      swap1\n      tag_159\n      swap2\n      swap1\n      tag_97\n      jump\t// in\n    tag_159:\n      pop\n        /* \"contracts/chainlink/sendToken.sol\":6340:6734  {... */\n      pop\n        /* \"contracts/chainlink/sendToken.sol\":6304:6734  if (_token != address(s_linkToken)) {... */\n    tag_149:\n        /* \"contracts/chainlink/sendToken.sol\":6840:6848  s_router */\n      0x03\n      0x00\n      swap1\n      sload\n      swap1\n      0x0100\n      exp\n      swap1\n      div\n      0xffffffffffffffffffffffffffffffffffffffff\n      and\n        /* \"contracts/chainlink/sendToken.sol\":6840:6857  s_router.ccipSend */\n      0xffffffffffffffffffffffffffffffffffffffff\n      and\n      0x96f4e9f9\n        /* \"contracts/chainlink/sendToken.sol\":6872:6897  _destinationChainSelector */\n      dup13\n        /* \"contracts/chainlink/sendToken.sol\":6912:6926  evm2AnyMessage */\n      dup7\n        /* \"contracts/chainlink/sendToken.sol\":6840:6937  s_router.ccipSend(... */\n      mload(0x40)\n      dup4\n      0xffffffff\n      and\n      0xe0\n      shl\n      dup2\n      mstore\n      0x04\n      add\n      tag_160\n      swap3\n      swap2\n      swap1\n      tag_85\n      jump\t// in\n    tag_160:\n      0x20\n      mload(0x40)\n      dup1\n      dup4\n      sub\n      dup2\n      0x00\n      dup8\n      gas\n      call\n      iszero\n      dup1\n      iszero\n      tag_162\n      jumpi\n      returndatasize\n      0x00\n      dup1\n      returndatacopy\n      revert(0x00, returndatasize)\n    tag_162:\n      pop\n      pop\n      pop\n      pop\n      mload(0x40)\n      returndatasize\n      not(0x1f)\n      0x1f\n      dup3\n      add\n      and\n      dup3\n      add\n      dup1\n      0x40\n      mstore\n      pop\n      dup2\n      add\n      swap1\n      tag_163\n      swap2\n      swap1\n      tag_102\n      jump\t// in\n    tag_163:\n        /* \"contracts/chainlink/sendToken.sol\":6828:6937  messageId = s_router.ccipSend(... */\n      swap7\n      pop\n        /* \"contracts/chainlink/sendToken.sol\":7058:7083  _destinationChainSelector */\n      dup11\n        /* \"contracts/chainlink/sendToken.sol\":7002:7215  TokensTransferred(... */\n      0xffffffffffffffff\n      and\n        /* \"contracts/chainlink/sendToken.sol\":7034:7043  messageId */\n      dup8\n        /* \"contracts/chainlink/sendToken.sol\":7002:7215  TokensTransferred(... */\n      0xc15fb748c32ba4eb29c1c311e78533f93b4425eab49ea87c6fe4279ecadca043\n        /* \"contracts/chainlink/sendToken.sol\":7098:7107  _receiver */\n      dup13\n        /* \"contracts/chainlink/sendToken.sol\":7122:7128  _token */\n      dup13\n        /* \"contracts/chainlink/sendToken.sol\":7143:7150  _amount */\n      dup13\n        /* \"contracts/chainlink/sendToken.sol\":7173:7184  s_linkToken */\n      0x04\n      0x00\n      swap1\n      sload\n      swap1\n      0x0100\n      exp\n      swap1\n      div\n      0xffffffffffffffffffffffffffffffffffffffff\n      and\n        /* \"contracts/chainlink/sendToken.sol\":7200:7204  fees */\n      dup10\n        /* \"contracts/chainlink/sendToken.sol\":7002:7215  TokensTransferred(... */\n      mload(0x40)\n      tag_164\n      swap6\n      swap5\n      swap4\n      swap3\n      swap2\n      swap1\n      tag_104\n      jump\t// in\n    tag_164:\n      mload(0x40)\n      dup1\n      swap2\n      sub\n      swap1\n      log3\n        /* \"contracts/chainlink/sendToken.sol\":7262:7278  return messageId */\n      pop\n      pop\n      pop\n      pop\n        /* \"contracts/chainlink/sendToken.sol\":3180:3181  _ */\n      pop\n        /* \"@chainlink/contracts/src/v0.8/shared/access/ConfirmedOwnerWithProposal.sol\":2101:2102  _ */\n      pop\n        /* \"contracts/chainlink/sendToken.sol\":4635:7286  function transferTokensPayLINK(... */\n      swap5\n      swap4\n      pop\n      pop\n      pop\n      pop\n      jump\t// out\n        /* \"contracts/chainlink/sendToken.sol\":3780:3980  function allowlistDestinationChain(... */\n    tag_56:\n        /* \"@chainlink/contracts/src/v0.8/shared/access/ConfirmedOwnerWithProposal.sol\":2075:2095  _validateOwnership() */\n      tag_166\n        /* \"@chainlink/contracts/src/v0.8/shared/access/ConfirmedOwnerWithProposal.sol\":2075:2093  _validateOwnership */\n      tag_63\n        /* \"@chainlink/contracts/src/v0.8/shared/access/ConfirmedOwnerWithProposal.sol\":2075:2095  _validateOwnership() */\n      jump\t// in\n    tag_166:\n        /* \"contracts/chainlink/sendToken.sol\":3965:3972  allowed */\n      dup1\n        /* \"contracts/chainlink/sendToken.sol\":3918:3935  allowlistedChains */\n      0x02\n        /* \"contracts/chainlink/sendToken.sol\":3918:3962  allowlistedChains[_destinationChainSelector] */\n      0x00\n        /* \"contracts/chainlink/sendToken.sol\":3936:3961  _destinationChainSelector */\n      dup5\n        /* \"contracts/chainlink/sendToken.sol\":3918:3962  allowlistedChains[_destinationChainSelector] */\n      0xffffffffffffffff\n      and\n      0xffffffffffffffff\n      and\n      dup2\n      mstore\n      0x20\n      add\n      swap1\n      dup2\n      mstore\n      0x20\n      add\n      0x00\n      keccak256\n      0x00\n        /* \"contracts/chainlink/sendToken.sol\":3918:3972  allowlistedChains[_destinationChainSelector] = allowed */\n      0x0100\n      exp\n      dup2\n      sload\n      dup2\n      0xff\n      mul\n      not\n      and\n      swap1\n      dup4\n      iszero\n      iszero\n      mul\n      or\n      swap1\n      sstore\n      pop\n        /* \"contracts/chainlink/sendToken.sol\":3780:3980  function allowlistDestinationChain(... */\n      pop\n      pop\n      jump\t// out\n        /* \"@chainlink/contracts/src/v0.8/shared/access/ConfirmedOwnerWithProposal.sol\":847:945  function transferOwnership(address to) public override onlyOwner {... */\n    tag_60:\n        /* \"@chainlink/contracts/src/v0.8/shared/access/ConfirmedOwnerWithProposal.sol\":2075:2095  _validateOwnership() */\n      tag_169\n        /* \"@chainlink/contracts/src/v0.8/shared/access/ConfirmedOwnerWithProposal.sol\":2075:2093  _validateOwnership */\n      tag_63\n        /* \"@chainlink/contracts/src/v0.8/shared/access/ConfirmedOwnerWithProposal.sol\":2075:2095  _validateOwnership() */\n      jump\t// in\n    tag_169:\n        /* \"@chainlink/contracts/src/v0.8/shared/access/ConfirmedOwnerWithProposal.sol\":918:940  _transferOwnership(to) */\n      tag_171\n        /* \"@chainlink/contracts/src/v0.8/shared/access/ConfirmedOwnerWithProposal.sol\":937:939  to */\n      dup2\n        /* \"@chainlink/contracts/src/v0.8/shared/access/ConfirmedOwnerWithProposal.sol\":918:936  _transferOwnership */\n      tag_172\n        /* \"@chainlink/contracts/src/v0.8/shared/access/ConfirmedOwnerWithProposal.sol\":918:940  _transferOwnership(to) */\n      jump\t// in\n    tag_171:\n        /* \"@chainlink/contracts/src/v0.8/shared/access/ConfirmedOwnerWithProposal.sol\":847:945  function transferOwnership(address to) public override onlyOwner {... */\n      pop\n      jump\t// out\n        /* \"@chainlink/contracts/src/v0.8/shared/access/ConfirmedOwnerWithProposal.sol\":1809:1971  function _validateOwnership() internal view {... */\n    tag_63:\n        /* \"@chainlink/contracts/src/v0.8/shared/access/ConfirmedOwnerWithProposal.sol\":1932:1939  s_owner */\n      0x00\n      dup1\n      sload\n      swap1\n      0x0100\n      exp\n      swap1\n      div\n      0xffffffffffffffffffffffffffffffffffffffff\n      and\n        /* \"@chainlink/contracts/src/v0.8/shared/access/ConfirmedOwnerWithProposal.sol\":1918:1939  msg.sender == s_owner */\n      0xffffffffffffffffffffffffffffffffffffffff\n      and\n        /* \"@chainlink/contracts/src/v0.8/shared/access/ConfirmedOwnerWithProposal.sol\":1918:1928  msg.sender */\n      caller\n        /* \"@chainlink/contracts/src/v0.8/shared/access/ConfirmedOwnerWithProposal.sol\":1918:1939  msg.sender == s_owner */\n      0xffffffffffffffffffffffffffffffffffffffff\n      and\n      eq\n        /* \"@chainlink/contracts/src/v0.8/shared/access/ConfirmedOwnerWithProposal.sol\":1910:1966  require(msg.sender == s_owner, \"Only callable by owner\") */\n      tag_174\n      jumpi\n      mload(0x40)\n      0x08c379a000000000000000000000000000000000000000000000000000000000\n      dup2\n      mstore\n      0x04\n      add\n      tag_175\n      swap1\n      tag_176\n      jump\t// in\n    tag_175:\n      mload(0x40)\n      dup1\n      swap2\n      sub\n      swap1\n      revert\n    tag_174:\n        /* \"@chainlink/contracts/src/v0.8/shared/access/ConfirmedOwnerWithProposal.sol\":1809:1971  function _validateOwnership() internal view {... */\n      jump\t// out\n        /* \"@chainlink/contracts/src/v0.8/vendor/openzeppelin-solidity/v4.8.3/contracts/token/ERC20/utils/SafeERC20.sol\":759:928  function safeTransfer(IERC20 token, address to, uint256 value) internal {... */\n    tag_72:\n        /* \"@chainlink/contracts/src/v0.8/vendor/openzeppelin-solidity/v4.8.3/contracts/token/ERC20/utils/SafeERC20.sol\":837:923  _callOptionalReturn(token, abi.encodeWithSelector(token.transfer.selector, to, value)) */\n      tag_178\n        /* \"@chainlink/contracts/src/v0.8/vendor/openzeppelin-solidity/v4.8.3/contracts/token/ERC20/utils/SafeERC20.sol\":857:862  token */\n      dup4\n        /* \"@chainlink/contracts/src/v0.8/vendor/openzeppelin-solidity/v4.8.3/contracts/token/ERC20/utils/SafeERC20.sol\":887:910  token.transfer.selector */\n      shl(0xe0, 0xa9059cbb)\n        /* \"@chainlink/contracts/src/v0.8/vendor/openzeppelin-solidity/v4.8.3/contracts/token/ERC20/utils/SafeERC20.sol\":912:914  to */\n      dup5\n        /* \"@chainlink/contracts/src/v0.8/vendor/openzeppelin-solidity/v4.8.3/contracts/token/ERC20/utils/SafeERC20.sol\":916:921  value */\n      dup5\n        /* \"@chainlink/contracts/src/v0.8/vendor/openzeppelin-solidity/v4.8.3/contracts/token/ERC20/utils/SafeERC20.sol\":864:922  abi.encodeWithSelector(token.transfer.selector, to, value) */\n      add(0x24, mload(0x40))\n      tag_179\n      swap3\n      swap2\n      swap1\n      tag_93\n      jump\t// in\n    tag_179:\n      mload(0x40)\n      0x20\n      dup2\n      dup4\n      sub\n      sub\n      dup2\n      mstore\n      swap1\n      0x40\n      mstore\n      swap1\n      not(0xffffffffffffffffffffffffffffffffffffffffffffffffffffffff)\n      and\n      0x20\n      dup3\n      add\n      dup1\n      mload\n      0xffffffffffffffffffffffffffffffffffffffffffffffffffffffff\n      dup4\n      dup2\n      dup4\n      and\n      or\n      dup4\n      mstore\n      pop\n      pop\n      pop\n      pop\n        /* \"@chainlink/contracts/src/v0.8/vendor/openzeppelin-solidity/v4.8.3/contracts/token/ERC20/utils/SafeERC20.sol\":837:856  _callOptionalReturn */\n      tag_180\n        /* \"@chainlink/contracts/src/v0.8/vendor/openzeppelin-solidity/v4.8.3/contracts/token/ERC20/utils/SafeERC20.sol\":837:923  _callOptionalReturn(token, abi.encodeWithSelector(token.transfer.selector, to, value)) */\n      jump\t// in\n    tag_178:\n        /* \"@chainlink/contracts/src/v0.8/vendor/openzeppelin-solidity/v4.8.3/contracts/token/ERC20/utils/SafeERC20.sol\":759:928  function safeTransfer(IERC20 token, address to, uint256 value) internal {... */\n      pop\n      pop\n      pop\n      jump\t// out\n        /* \"contracts/chainlink/sendToken.sol\":10288:12228  function _buildCCIPMessage(... */\n    tag_83:\n        /* \"contracts/chainlink/sendToken.sol\":10458:10486  Client.EVM2AnyMessage memory */\n      tag_181\n      tag_182\n      jump\t// in\n    tag_181:\n        /* \"contracts/chainlink/sendToken.sol\":10533:10589  Client.EVMTokenAmount[]... */\n      0x00\n        /* \"contracts/chainlink/sendToken.sol\":10620:10621  1 */\n      0x01\n        /* \"contracts/chainlink/sendToken.sol\":10592:10622  new Client.EVMTokenAmount[](1) */\n      0xffffffffffffffff\n      dup2\n      gt\n      iszero\n      tag_184\n      jumpi\n      tag_185\n      tag_186\n      jump\t// in\n    tag_185:\n    tag_184:\n      mload(0x40)\n      swap1\n      dup1\n      dup3\n      mstore\n      dup1\n      0x20\n      mul\n      0x20\n      add\n      dup3\n      add\n      0x40\n      mstore\n      dup1\n      iszero\n      tag_187\n      jumpi\n      dup2\n      0x20\n      add\n    tag_188:\n      tag_189\n      tag_190\n      jump\t// in\n    tag_189:\n      dup2\n      mstore\n      0x20\n      add\n      swap1\n      0x01\n      swap1\n      sub\n      swap1\n      dup2\n      tag_188\n      jumpi\n      swap1\n      pop\n    tag_187:\n      pop\n        /* \"contracts/chainlink/sendToken.sol\":10533:10622  Client.EVMTokenAmount[]... */\n      swap1\n      pop\n        /* \"contracts/chainlink/sendToken.sol\":10651:10743  Client.EVMTokenAmount({... */\n      mload(0x40)\n      dup1\n      0x40\n      add\n      0x40\n      mstore\n      dup1\n        /* \"contracts/chainlink/sendToken.sol\":10695:10701  _token */\n      dup7\n        /* \"contracts/chainlink/sendToken.sol\":10651:10743  Client.EVMTokenAmount({... */\n      0xffffffffffffffffffffffffffffffffffffffff\n      and\n      dup2\n      mstore\n      0x20\n      add\n        /* \"contracts/chainlink/sendToken.sol\":10724:10731  _amount */\n      dup6\n        /* \"contracts/chainlink/sendToken.sol\":10651:10743  Client.EVMTokenAmount({... */\n      dup2\n      mstore\n      pop\n        /* \"contracts/chainlink/sendToken.sol\":10633:10645  tokenAmounts */\n      dup2\n        /* \"contracts/chainlink/sendToken.sol\":10646:10647  0 */\n      0x00\n        /* \"contracts/chainlink/sendToken.sol\":10633:10648  tokenAmounts[0] */\n      dup2\n      mload\n      dup2\n      lt\n      tag_191\n      jumpi\n      tag_192\n      tag_193\n      jump\t// in\n    tag_192:\n    tag_191:\n      0x20\n      mul\n      0x20\n      add\n      add\n        /* \"contracts/chainlink/sendToken.sol\":10633:10743  tokenAmounts[0] = Client.EVMTokenAmount({... */\n      dup2\n      swap1\n      mstore\n      pop\n        /* \"contracts/chainlink/sendToken.sol\":10891:12220  Client.EVM2AnyMessage({... */\n      mload(0x40)\n      dup1\n      0xa0\n      add\n      0x40\n      mstore\n      dup1\n        /* \"contracts/chainlink/sendToken.sol\":10953:10962  _receiver */\n      dup8\n        /* \"contracts/chainlink/sendToken.sol\":10942:10963  abi.encode(_receiver) */\n      add(0x20, mload(0x40))\n      tag_194\n      swap2\n      swap1\n      tag_46\n      jump\t// in\n    tag_194:\n      mload(0x40)\n      0x20\n      dup2\n      dup4\n      sub\n      sub\n      dup2\n      mstore\n      swap1\n      0x40\n      mstore\n        /* \"contracts/chainlink/sendToken.sol\":10891:12220  Client.EVM2AnyMessage({... */\n      dup2\n      mstore\n      0x20\n      add\n      mload(0x40)\n      dup1\n      0x20\n      add\n      0x40\n      mstore\n      dup1\n      0x00\n      dup2\n      mstore\n      pop\n      dup2\n      mstore\n      0x20\n      add\n        /* \"contracts/chainlink/sendToken.sol\":11066:11078  tokenAmounts */\n      dup3\n        /* \"contracts/chainlink/sendToken.sol\":10891:12220  Client.EVM2AnyMessage({... */\n      dup2\n      mstore\n      0x20\n      add\n        /* \"contracts/chainlink/sendToken.sol\":12188:12204  _feeTokenAddress */\n      dup5\n        /* \"contracts/chainlink/sendToken.sol\":10891:12220  Client.EVM2AnyMessage({... */\n      0xffffffffffffffffffffffffffffffffffffffff\n      and\n      dup2\n      mstore\n      0x20\n      add\n        /* \"contracts/chainlink/sendToken.sol\":11158:12052  Client._argsToBytes(... */\n      tag_195\n        /* \"contracts/chainlink/sendToken.sol\":11730:12033  Client.GenericExtraArgsV2({... */\n      mload(0x40)\n      dup1\n      0x40\n      add\n      0x40\n      mstore\n      dup1\n        /* \"contracts/chainlink/sendToken.sol\":11793:11799  500000 */\n      0x07a120\n        /* \"contracts/chainlink/sendToken.sol\":11730:12033  Client.GenericExtraArgsV2({... */\n      dup2\n      mstore\n      0x20\n      add\n        /* \"contracts/chainlink/sendToken.sol\":11907:11911  true */\n      0x01\n        /* \"contracts/chainlink/sendToken.sol\":11730:12033  Client.GenericExtraArgsV2({... */\n      iszero\n      iszero\n      dup2\n      mstore\n      pop\n        /* \"contracts/chainlink/sendToken.sol\":11158:11177  Client._argsToBytes */\n      tag_196\n        /* \"contracts/chainlink/sendToken.sol\":11158:12052  Client._argsToBytes(... */\n      jump\t// in\n    tag_195:\n        /* \"contracts/chainlink/sendToken.sol\":10891:12220  Client.EVM2AnyMessage({... */\n      dup2\n      mstore\n      pop\n        /* \"contracts/chainlink/sendToken.sol\":10871:12220  return... */\n      swap2\n      pop\n      pop\n        /* \"contracts/chainlink/sendToken.sol\":10288:12228  function _buildCCIPMessage(... */\n      swap5\n      swap4\n      pop\n      pop\n      pop\n      pop\n      jump\t// out\n        /* \"@chainlink/contracts/src/v0.8/shared/access/ConfirmedOwnerWithProposal.sol\":1536:1775  function _transferOwnership(address to) private {... */\n    tag_172:\n        /* \"@chainlink/contracts/src/v0.8/shared/access/ConfirmedOwnerWithProposal.sol\":1655:1665  msg.sender */\n      caller\n        /* \"@chainlink/contracts/src/v0.8/shared/access/ConfirmedOwnerWithProposal.sol\":1649:1665  to != msg.sender */\n      0xffffffffffffffffffffffffffffffffffffffff\n      and\n        /* \"@chainlink/contracts/src/v0.8/shared/access/ConfirmedOwnerWithProposal.sol\":1649:1651  to */\n      dup2\n        /* \"@chainlink/contracts/src/v0.8/shared/access/ConfirmedOwnerWithProposal.sol\":1649:1665  to != msg.sender */\n      0xffffffffffffffffffffffffffffffffffffffff\n      and\n      sub\n        /* \"@chainlink/contracts/src/v0.8/shared/access/ConfirmedOwnerWithProposal.sol\":1641:1693  require(to != msg.sender, \"Cannot transfer to self\") */\n      tag_198\n      jumpi\n      mload(0x40)\n      0x08c379a000000000000000000000000000000000000000000000000000000000\n      dup2\n      mstore\n      0x04\n      add\n      tag_199\n      swap1\n      tag_200\n      jump\t// in\n    tag_199:\n      mload(0x40)\n      dup1\n      swap2\n      sub\n      swap1\n      revert\n    tag_198:\n        /* \"@chainlink/contracts/src/v0.8/shared/access/ConfirmedOwnerWithProposal.sol\":1717:1719  to */\n      dup1\n        /* \"@chainlink/contracts/src/v0.8/shared/access/ConfirmedOwnerWithProposal.sol\":1700:1714  s_pendingOwner */\n      0x01\n      0x00\n        /* \"@chainlink/contracts/src/v0.8/shared/access/ConfirmedOwnerWithProposal.sol\":1700:1719  s_pendingOwner = to */\n      0x0100\n      exp\n      dup2\n      sload\n      dup2\n      0xffffffffffffffffffffffffffffffffffffffff\n      mul\n      not\n      and\n      swap1\n      dup4\n      0xffffffffffffffffffffffffffffffffffffffff\n      and\n      mul\n      or\n      swap1\n      sstore\n      pop\n        /* \"@chainlink/contracts/src/v0.8/shared/access/ConfirmedOwnerWithProposal.sol\":1767:1769  to */\n      dup1\n        /* \"@chainlink/contracts/src/v0.8/shared/access/ConfirmedOwnerWithProposal.sol\":1731:1770  OwnershipTransferRequested(s_owner, to) */\n      0xffffffffffffffffffffffffffffffffffffffff\n      and\n        /* \"@chainlink/contracts/src/v0.8/shared/access/ConfirmedOwnerWithProposal.sol\":1758:1765  s_owner */\n      0x00\n      dup1\n      sload\n      swap1\n      0x0100\n      exp\n      swap1\n      div\n      0xffffffffffffffffffffffffffffffffffffffff\n      and\n        /* \"@chainlink/contracts/src/v0.8/shared/access/ConfirmedOwnerWithProposal.sol\":1731:1770  OwnershipTransferRequested(s_owner, to) */\n      0xffffffffffffffffffffffffffffffffffffffff\n      and\n      0xed8889f560326eb138920d842192f0eb3dd22b4f139c87a2c57538e05bae1278\n      mload(0x40)\n      mload(0x40)\n      dup1\n      swap2\n      sub\n      swap1\n      log3\n        /* \"@chainlink/contracts/src/v0.8/shared/access/ConfirmedOwnerWithProposal.sol\":1536:1775  function _transferOwnership(address to) private {... */\n      pop\n      jump\t// out\n        /* \"@chainlink/contracts/src/v0.8/vendor/openzeppelin-solidity/v4.8.3/contracts/token/ERC20/utils/SafeERC20.sol\":3401:4069  function _callOptionalReturn(IERC20 token, bytes memory data) private {... */\n    tag_180:\n        /* \"@chainlink/contracts/src/v0.8/vendor/openzeppelin-solidity/v4.8.3/contracts/token/ERC20/utils/SafeERC20.sol\":3804:3827  bytes memory returndata */\n      0x00\n        /* \"@chainlink/contracts/src/v0.8/vendor/openzeppelin-solidity/v4.8.3/contracts/token/ERC20/utils/SafeERC20.sol\":3830:3899  address(token).functionCall(data, \"SafeERC20: low-level call failed\") */\n      tag_202\n        /* \"@chainlink/contracts/src/v0.8/vendor/openzeppelin-solidity/v4.8.3/contracts/token/ERC20/utils/SafeERC20.sol\":3858:3862  data */\n      dup3\n        /* \"@chainlink/contracts/src/v0.8/vendor/openzeppelin-solidity/v4.8.3/contracts/token/ERC20/utils/SafeERC20.sol\":3830:3899  address(token).functionCall(data, \"SafeERC20: low-level call failed\") */\n      mload(0x40)\n      dup1\n      0x40\n      add\n      0x40\n      mstore\n      dup1\n      0x20\n      dup2\n      mstore\n      0x20\n      add\n      0x5361666545524332303a206c6f772d6c6576656c2063616c6c206661696c6564\n      dup2\n      mstore\n      pop\n        /* \"@chainlink/contracts/src/v0.8/vendor/openzeppelin-solidity/v4.8.3/contracts/token/ERC20/utils/SafeERC20.sol\":3838:3843  token */\n      dup6\n        /* \"@chainlink/contracts/src/v0.8/vendor/openzeppelin-solidity/v4.8.3/contracts/token/ERC20/utils/SafeERC20.sol\":3830:3857  address(token).functionCall */\n      0xffffffffffffffffffffffffffffffffffffffff\n      and\n      tag_203\n      swap1\n        /* \"@chainlink/contracts/src/v0.8/vendor/openzeppelin-solidity/v4.8.3/contracts/token/ERC20/utils/SafeERC20.sol\":3830:3899  address(token).functionCall(data, \"SafeERC20: low-level call failed\") */\n      swap3\n      swap2\n      swap1\n      0xffffffff\n      and\n      jump\t// in\n    tag_202:\n        /* \"@chainlink/contracts/src/v0.8/vendor/openzeppelin-solidity/v4.8.3/contracts/token/ERC20/utils/SafeERC20.sol\":3804:3899  bytes memory returndata = address(token).functionCall(data, \"SafeERC20: low-level call failed\") */\n      swap1\n      pop\n        /* \"@chainlink/contracts/src/v0.8/vendor/openzeppelin-solidity/v4.8.3/contracts/token/ERC20/utils/SafeERC20.sol\":3929:3930  0 */\n      0x00\n        /* \"@chainlink/contracts/src/v0.8/vendor/openzeppelin-solidity/v4.8.3/contracts/token/ERC20/utils/SafeERC20.sol\":3909:3919  returndata */\n      dup2\n        /* \"@chainlink/contracts/src/v0.8/vendor/openzeppelin-solidity/v4.8.3/contracts/token/ERC20/utils/SafeERC20.sol\":3909:3926  returndata.length */\n      mload\n        /* \"@chainlink/contracts/src/v0.8/vendor/openzeppelin-solidity/v4.8.3/contracts/token/ERC20/utils/SafeERC20.sol\":3909:3930  returndata.length > 0 */\n      gt\n        /* \"@chainlink/contracts/src/v0.8/vendor/openzeppelin-solidity/v4.8.3/contracts/token/ERC20/utils/SafeERC20.sol\":3905:4065  if (returndata.length > 0) {... */\n      iszero\n      tag_204\n      jumpi\n        /* \"@chainlink/contracts/src/v0.8/vendor/openzeppelin-solidity/v4.8.3/contracts/token/ERC20/utils/SafeERC20.sol\":3992:4002  returndata */\n      dup1\n        /* \"@chainlink/contracts/src/v0.8/vendor/openzeppelin-solidity/v4.8.3/contracts/token/ERC20/utils/SafeERC20.sol\":3981:4011  abi.decode(returndata, (bool)) */\n      dup1\n      0x20\n      add\n      swap1\n      mload\n      dup2\n      add\n      swap1\n      tag_205\n      swap2\n      swap1\n      tag_97\n      jump\t// in\n    tag_205:\n        /* \"@chainlink/contracts/src/v0.8/vendor/openzeppelin-solidity/v4.8.3/contracts/token/ERC20/utils/SafeERC20.sol\":3973:4058  require(abi.decode(returndata, (bool)), \"SafeERC20: ERC20 operation did not succeed\") */\n      tag_206\n      jumpi\n      mload(0x40)\n      0x08c379a000000000000000000000000000000000000000000000000000000000\n      dup2\n      mstore\n      0x04\n      add\n      tag_207\n      swap1\n      tag_208\n      jump\t// in\n    tag_207:\n      mload(0x40)\n      dup1\n      swap2\n      sub\n      swap1\n      revert\n    tag_206:\n        /* \"@chainlink/contracts/src/v0.8/vendor/openzeppelin-solidity/v4.8.3/contracts/token/ERC20/utils/SafeERC20.sol\":3905:4065  if (returndata.length > 0) {... */\n    tag_204:\n        /* \"@chainlink/contracts/src/v0.8/vendor/openzeppelin-solidity/v4.8.3/contracts/token/ERC20/utils/SafeERC20.sol\":3471:4069  {... */\n      pop\n        /* \"@chainlink/contracts/src/v0.8/vendor/openzeppelin-solidity/v4.8.3/contracts/token/ERC20/utils/SafeERC20.sol\":3401:4069  function _callOptionalReturn(IERC20 token, bytes memory data) private {... */\n      pop\n      pop\n      jump\t// out\n        /* \"@chainlink/contracts-ccip/contracts/libraries/Client.sol\":4328:4514  function _argsToBytes(... */\n    tag_196:\n        /* \"@chainlink/contracts-ccip/contracts/libraries/Client.sol\":4418:4434  bytes memory bts */\n      0x60\n        /* \"@chainlink/contracts-ccip/contracts/libraries/Client.sol\":1861:1871  0x181dcf10 */\n      0x181dcf10\n        /* \"@chainlink/contracts-ccip/contracts/libraries/Client.sol\":4472:4497  GENERIC_EXTRA_ARGS_V2_TAG */\n      0xe0\n      shl\n        /* \"@chainlink/contracts-ccip/contracts/libraries/Client.sol\":4499:4508  extraArgs */\n      dup3\n        /* \"@chainlink/contracts-ccip/contracts/libraries/Client.sol\":4449:4509  abi.encodeWithSelector(GENERIC_EXTRA_ARGS_V2_TAG, extraArgs) */\n      add(0x24, mload(0x40))\n      tag_210\n      swap2\n      swap1\n      tag_211\n      jump\t// in\n    tag_210:\n      mload(0x40)\n      0x20\n      dup2\n      dup4\n      sub\n      sub\n      dup2\n      mstore\n      swap1\n      0x40\n      mstore\n      swap1\n      not(0xffffffffffffffffffffffffffffffffffffffffffffffffffffffff)\n      and\n      0x20\n      dup3\n      add\n      dup1\n      mload\n      0xffffffffffffffffffffffffffffffffffffffffffffffffffffffff\n      dup4\n      dup2\n      dup4\n      and\n      or\n      dup4\n      mstore\n      pop\n      pop\n      pop\n      pop\n        /* \"@chainlink/contracts-ccip/contracts/libraries/Client.sol\":4442:4509  return abi.encodeWithSelector(GENERIC_EXTRA_ARGS_V2_TAG, extraArgs) */\n      swap1\n      pop\n        /* \"@chainlink/contracts-ccip/contracts/libraries/Client.sol\":4328:4514  function _argsToBytes(... */\n      swap2\n      swap1\n      pop\n      jump\t// out\n        /* \"@chainlink/contracts/src/v0.8/vendor/openzeppelin-solidity/v4.8.3/contracts/utils/Address.sol\":3695:3882  function functionCall(address target, bytes memory data, string memory errorMessage) internal returns (bytes memory) {... */\n    tag_203:\n        /* \"@chainlink/contracts/src/v0.8/vendor/openzeppelin-solidity/v4.8.3/contracts/utils/Address.sol\":3798:3810  bytes memory */\n      0x60\n        /* \"@chainlink/contracts/src/v0.8/vendor/openzeppelin-solidity/v4.8.3/contracts/utils/Address.sol\":3825:3877  functionCallWithValue(target, data, 0, errorMessage) */\n      tag_213\n        /* \"@chainlink/contracts/src/v0.8/vendor/openzeppelin-solidity/v4.8.3/contracts/utils/Address.sol\":3847:3853  target */\n      dup5\n        /* \"@chainlink/contracts/src/v0.8/vendor/openzeppelin-solidity/v4.8.3/contracts/utils/Address.sol\":3855:3859  data */\n      dup5\n        /* \"@chainlink/contracts/src/v0.8/vendor/openzeppelin-solidity/v4.8.3/contracts/utils/Address.sol\":3861:3862  0 */\n      0x00\n        /* \"@chainlink/contracts/src/v0.8/vendor/openzeppelin-solidity/v4.8.3/contracts/utils/Address.sol\":3864:3876  errorMessage */\n      dup6\n        /* \"@chainlink/contracts/src/v0.8/vendor/openzeppelin-solidity/v4.8.3/contracts/utils/Address.sol\":3825:3846  functionCallWithValue */\n      tag_214\n        /* \"@chainlink/contracts/src/v0.8/vendor/openzeppelin-solidity/v4.8.3/contracts/utils/Address.sol\":3825:3877  functionCallWithValue(target, data, 0, errorMessage) */\n      jump\t// in\n    tag_213:\n        /* \"@chainlink/contracts/src/v0.8/vendor/openzeppelin-solidity/v4.8.3/contracts/utils/Address.sol\":3818:3877  return functionCallWithValue(target, data, 0, errorMessage) */\n      swap1\n      pop\n        /* \"@chainlink/contracts/src/v0.8/vendor/openzeppelin-solidity/v4.8.3/contracts/utils/Address.sol\":3695:3882  function functionCall(address target, bytes memory data, string memory errorMessage) internal returns (bytes memory) {... */\n      swap4\n      swap3\n      pop\n      pop\n      pop\n      jump\t// out\n        /* \"@chainlink/contracts/src/v0.8/vendor/openzeppelin-solidity/v4.8.3/contracts/utils/Address.sol\":4672:5086  function functionCallWithValue(... */\n    tag_214:\n        /* \"@chainlink/contracts/src/v0.8/vendor/openzeppelin-solidity/v4.8.3/contracts/utils/Address.sol\":4819:4831  bytes memory */\n      0x60\n        /* \"@chainlink/contracts/src/v0.8/vendor/openzeppelin-solidity/v4.8.3/contracts/utils/Address.sol\":4872:4877  value */\n      dup3\n        /* \"@chainlink/contracts/src/v0.8/vendor/openzeppelin-solidity/v4.8.3/contracts/utils/Address.sol\":4847:4868  address(this).balance */\n      selfbalance\n        /* \"@chainlink/contracts/src/v0.8/vendor/openzeppelin-solidity/v4.8.3/contracts/utils/Address.sol\":4847:4877  address(this).balance >= value */\n      lt\n      iszero\n        /* \"@chainlink/contracts/src/v0.8/vendor/openzeppelin-solidity/v4.8.3/contracts/utils/Address.sol\":4839:4920  require(address(this).balance >= value, \"Address: insufficient balance for call\") */\n      tag_216\n      jumpi\n      mload(0x40)\n      0x08c379a000000000000000000000000000000000000000000000000000000000\n      dup2\n      mstore\n      0x04\n      add\n      tag_217\n      swap1\n      tag_218\n      jump\t// in\n    tag_217:\n      mload(0x40)\n      dup1\n      swap2\n      sub\n      swap1\n      revert\n    tag_216:\n        /* \"@chainlink/contracts/src/v0.8/vendor/openzeppelin-solidity/v4.8.3/contracts/utils/Address.sol\":4927:4939  bool success */\n      0x00\n        /* \"@chainlink/contracts/src/v0.8/vendor/openzeppelin-solidity/v4.8.3/contracts/utils/Address.sol\":4941:4964  bytes memory returndata */\n      dup1\n        /* \"@chainlink/contracts/src/v0.8/vendor/openzeppelin-solidity/v4.8.3/contracts/utils/Address.sol\":4968:4974  target */\n      dup7\n        /* \"@chainlink/contracts/src/v0.8/vendor/openzeppelin-solidity/v4.8.3/contracts/utils/Address.sol\":4968:4979  target.call */\n      0xffffffffffffffffffffffffffffffffffffffff\n      and\n        /* \"@chainlink/contracts/src/v0.8/vendor/openzeppelin-solidity/v4.8.3/contracts/utils/Address.sol\":4987:4992  value */\n      dup6\n        /* \"@chainlink/contracts/src/v0.8/vendor/openzeppelin-solidity/v4.8.3/contracts/utils/Address.sol\":4994:4998  data */\n      dup8\n        /* \"@chainlink/contracts/src/v0.8/vendor/openzeppelin-solidity/v4.8.3/contracts/utils/Address.sol\":4968:4999  target.call{value: value}(data) */\n      mload(0x40)\n      tag_219\n      swap2\n      swap1\n      tag_220\n      jump\t// in\n    tag_219:\n      0x00\n      mload(0x40)\n      dup1\n      dup4\n      sub\n      dup2\n      dup6\n      dup8\n      gas\n      call\n      swap3\n      pop\n      pop\n      pop\n      returndatasize\n      dup1\n      0x00\n      dup2\n      eq\n      tag_223\n      jumpi\n      mload(0x40)\n      swap2\n      pop\n      and(add(returndatasize, 0x3f), not(0x1f))\n      dup3\n      add\n      0x40\n      mstore\n      returndatasize\n      dup3\n      mstore\n      returndatasize\n      0x00\n      0x20\n      dup5\n      add\n      returndatacopy\n      jump(tag_222)\n    tag_223:\n      0x60\n      swap2\n      pop\n    tag_222:\n      pop\n        /* \"@chainlink/contracts/src/v0.8/vendor/openzeppelin-solidity/v4.8.3/contracts/utils/Address.sol\":4926:4999  (bool success, bytes memory returndata) = target.call{value: value}(data) */\n      swap2\n      pop\n      swap2\n      pop\n        /* \"@chainlink/contracts/src/v0.8/vendor/openzeppelin-solidity/v4.8.3/contracts/utils/Address.sol\":5012:5081  verifyCallResultFromTarget(target, success, returndata, errorMessage) */\n      tag_224\n        /* \"@chainlink/contracts/src/v0.8/vendor/openzeppelin-solidity/v4.8.3/contracts/utils/Address.sol\":5039:5045  target */\n      dup8\n        /* \"@chainlink/contracts/src/v0.8/vendor/openzeppelin-solidity/v4.8.3/contracts/utils/Address.sol\":5047:5054  success */\n      dup4\n        /* \"@chainlink/contracts/src/v0.8/vendor/openzeppelin-solidity/v4.8.3/contracts/utils/Address.sol\":5056:5066  returndata */\n      dup4\n        /* \"@chainlink/contracts/src/v0.8/vendor/openzeppelin-solidity/v4.8.3/contracts/utils/Address.sol\":5068:5080  errorMessage */\n      dup8\n        /* \"@chainlink/contracts/src/v0.8/vendor/openzeppelin-solidity/v4.8.3/contracts/utils/Address.sol\":5012:5038  verifyCallResultFromTarget */\n      tag_225\n        /* \"@chainlink/contracts/src/v0.8/vendor/openzeppelin-solidity/v4.8.3/contracts/utils/Address.sol\":5012:5081  verifyCallResultFromTarget(target, success, returndata, errorMessage) */\n      jump\t// in\n    tag_224:\n        /* \"@chainlink/contracts/src/v0.8/vendor/openzeppelin-solidity/v4.8.3/contracts/utils/Address.sol\":5005:5081  return verifyCallResultFromTarget(target, success, returndata, errorMessage) */\n      swap3\n      pop\n      pop\n      pop\n        /* \"@chainlink/contracts/src/v0.8/vendor/openzeppelin-solidity/v4.8.3/contracts/utils/Address.sol\":4672:5086  function functionCallWithValue(... */\n      swap5\n      swap4\n      pop\n      pop\n      pop\n      pop\n      jump\t// out\n        /* \"@chainlink/contracts/src/v0.8/vendor/openzeppelin-solidity/v4.8.3/contracts/utils/Address.sol\":7016:7564  function verifyCallResultFromTarget(... */\n    tag_225:\n        /* \"@chainlink/contracts/src/v0.8/vendor/openzeppelin-solidity/v4.8.3/contracts/utils/Address.sol\":7178:7190  bytes memory */\n      0x60\n        /* \"@chainlink/contracts/src/v0.8/vendor/openzeppelin-solidity/v4.8.3/contracts/utils/Address.sol\":7202:7209  success */\n      dup4\n        /* \"@chainlink/contracts/src/v0.8/vendor/openzeppelin-solidity/v4.8.3/contracts/utils/Address.sol\":7198:7560  if (success) {... */\n      iszero\n      tag_227\n      jumpi\n        /* \"@chainlink/contracts/src/v0.8/vendor/openzeppelin-solidity/v4.8.3/contracts/utils/Address.sol\":7244:7245  0 */\n      0x00\n        /* \"@chainlink/contracts/src/v0.8/vendor/openzeppelin-solidity/v4.8.3/contracts/utils/Address.sol\":7223:7233  returndata */\n      dup4\n        /* \"@chainlink/contracts/src/v0.8/vendor/openzeppelin-solidity/v4.8.3/contracts/utils/Address.sol\":7223:7240  returndata.length */\n      mload\n        /* \"@chainlink/contracts/src/v0.8/vendor/openzeppelin-solidity/v4.8.3/contracts/utils/Address.sol\":7223:7245  returndata.length == 0 */\n      sub\n        /* \"@chainlink/contracts/src/v0.8/vendor/openzeppelin-solidity/v4.8.3/contracts/utils/Address.sol\":7219:7475  if (returndata.length == 0) {... */\n      tag_228\n      jumpi\n        /* \"@chainlink/contracts/src/v0.8/vendor/openzeppelin-solidity/v4.8.3/contracts/utils/Address.sol\":7414:7432  isContract(target) */\n      tag_229\n        /* \"@chainlink/contracts/src/v0.8/vendor/openzeppelin-solidity/v4.8.3/contracts/utils/Address.sol\":7425:7431  target */\n      dup6\n        /* \"@chainlink/contracts/src/v0.8/vendor/openzeppelin-solidity/v4.8.3/contracts/utils/Address.sol\":7414:7424  isContract */\n      tag_230\n        /* \"@chainlink/contracts/src/v0.8/vendor/openzeppelin-solidity/v4.8.3/contracts/utils/Address.sol\":7414:7432  isContract(target) */\n      jump\t// in\n    tag_229:\n        /* \"@chainlink/contracts/src/v0.8/vendor/openzeppelin-solidity/v4.8.3/contracts/utils/Address.sol\":7406:7466  require(isContract(target), \"Address: call to non-contract\") */\n      tag_231\n      jumpi\n      mload(0x40)\n      0x08c379a000000000000000000000000000000000000000000000000000000000\n      dup2\n      mstore\n      0x04\n      add\n      tag_232\n      swap1\n      tag_233\n      jump\t// in\n    tag_232:\n      mload(0x40)\n      dup1\n      swap2\n      sub\n      swap1\n      revert\n    tag_231:\n        /* \"@chainlink/contracts/src/v0.8/vendor/openzeppelin-solidity/v4.8.3/contracts/utils/Address.sol\":7219:7475  if (returndata.length == 0) {... */\n    tag_228:\n        /* \"@chainlink/contracts/src/v0.8/vendor/openzeppelin-solidity/v4.8.3/contracts/utils/Address.sol\":7489:7499  returndata */\n      dup3\n        /* \"@chainlink/contracts/src/v0.8/vendor/openzeppelin-solidity/v4.8.3/contracts/utils/Address.sol\":7482:7499  return returndata */\n      swap1\n      pop\n      jump(tag_226)\n        /* \"@chainlink/contracts/src/v0.8/vendor/openzeppelin-solidity/v4.8.3/contracts/utils/Address.sol\":7198:7560  if (success) {... */\n    tag_227:\n        /* \"@chainlink/contracts/src/v0.8/vendor/openzeppelin-solidity/v4.8.3/contracts/utils/Address.sol\":7520:7553  _revert(returndata, errorMessage) */\n      tag_235\n        /* \"@chainlink/contracts/src/v0.8/vendor/openzeppelin-solidity/v4.8.3/contracts/utils/Address.sol\":7528:7538  returndata */\n      dup4\n        /* \"@chainlink/contracts/src/v0.8/vendor/openzeppelin-solidity/v4.8.3/contracts/utils/Address.sol\":7540:7552  errorMessage */\n      dup4\n        /* \"@chainlink/contracts/src/v0.8/vendor/openzeppelin-solidity/v4.8.3/contracts/utils/Address.sol\":7520:7527  _revert */\n      tag_236\n        /* \"@chainlink/contracts/src/v0.8/vendor/openzeppelin-solidity/v4.8.3/contracts/utils/Address.sol\":7520:7553  _revert(returndata, errorMessage) */\n      jump\t// in\n    tag_235:\n        /* \"@chainlink/contracts/src/v0.8/vendor/openzeppelin-solidity/v4.8.3/contracts/utils/Address.sol\":7016:7564  function verifyCallResultFromTarget(... */\n    tag_226:\n      swap5\n      swap4\n      pop\n      pop\n      pop\n      pop\n      jump\t// out\n        /* \"@chainlink/contracts/src/v0.8/vendor/openzeppelin-solidity/v4.8.3/contracts/utils/Address.sol\":1121:1423  function isContract(address account) internal view returns (bool) {... */\n    tag_230:\n        /* \"@chainlink/contracts/src/v0.8/vendor/openzeppelin-solidity/v4.8.3/contracts/utils/Address.sol\":1181:1185  bool */\n      0x00\n        /* \"@chainlink/contracts/src/v0.8/vendor/openzeppelin-solidity/v4.8.3/contracts/utils/Address.sol\":1417:1418  0 */\n      dup1\n        /* \"@chainlink/contracts/src/v0.8/vendor/openzeppelin-solidity/v4.8.3/contracts/utils/Address.sol\":1395:1402  account */\n      dup3\n        /* \"@chainlink/contracts/src/v0.8/vendor/openzeppelin-solidity/v4.8.3/contracts/utils/Address.sol\":1395:1414  account.code.length */\n      0xffffffffffffffffffffffffffffffffffffffff\n      and\n      extcodesize\n        /* \"@chainlink/contracts/src/v0.8/vendor/openzeppelin-solidity/v4.8.3/contracts/utils/Address.sol\":1395:1418  account.code.length > 0 */\n      gt\n        /* \"@chainlink/contracts/src/v0.8/vendor/openzeppelin-solidity/v4.8.3/contracts/utils/Address.sol\":1388:1418  return account.code.length > 0 */\n      swap1\n      pop\n        /* \"@chainlink/contracts/src/v0.8/vendor/openzeppelin-solidity/v4.8.3/contracts/utils/Address.sol\":1121:1423  function isContract(address account) internal view returns (bool) {... */\n      swap2\n      swap1\n      pop\n      jump\t// out\n        /* \"@chainlink/contracts/src/v0.8/vendor/openzeppelin-solidity/v4.8.3/contracts/utils/Address.sol\":8030:8506  function _revert(bytes memory returndata, string memory errorMessage) private pure {... */\n    tag_236:\n        /* \"@chainlink/contracts/src/v0.8/vendor/openzeppelin-solidity/v4.8.3/contracts/utils/Address.sol\":8201:8202  0 */\n      0x00\n        /* \"@chainlink/contracts/src/v0.8/vendor/openzeppelin-solidity/v4.8.3/contracts/utils/Address.sol\":8181:8191  returndata */\n      dup3\n        /* \"@chainlink/contracts/src/v0.8/vendor/openzeppelin-solidity/v4.8.3/contracts/utils/Address.sol\":8181:8198  returndata.length */\n      mload\n        /* \"@chainlink/contracts/src/v0.8/vendor/openzeppelin-solidity/v4.8.3/contracts/utils/Address.sol\":8181:8202  returndata.length > 0 */\n      gt\n        /* \"@chainlink/contracts/src/v0.8/vendor/openzeppelin-solidity/v4.8.3/contracts/utils/Address.sol\":8177:8502  if (returndata.length > 0) {... */\n      iszero\n      tag_239\n      jumpi\n        /* \"@chainlink/contracts/src/v0.8/vendor/openzeppelin-solidity/v4.8.3/contracts/utils/Address.sol\":8383:8393  returndata */\n      dup2\n        /* \"@chainlink/contracts/src/v0.8/vendor/openzeppelin-solidity/v4.8.3/contracts/utils/Address.sol\":8377:8394  mload(returndata) */\n      mload\n        /* \"@chainlink/contracts/src/v0.8/vendor/openzeppelin-solidity/v4.8.3/contracts/utils/Address.sol\":8431:8446  returndata_size */\n      dup1\n        /* \"@chainlink/contracts/src/v0.8/vendor/openzeppelin-solidity/v4.8.3/contracts/utils/Address.sol\":8418:8428  returndata */\n      dup4\n        /* \"@chainlink/contracts/src/v0.8/vendor/openzeppelin-solidity/v4.8.3/contracts/utils/Address.sol\":8414:8416  32 */\n      0x20\n        /* \"@chainlink/contracts/src/v0.8/vendor/openzeppelin-solidity/v4.8.3/contracts/utils/Address.sol\":8410:8429  add(32, returndata) */\n      add\n        /* \"@chainlink/contracts/src/v0.8/vendor/openzeppelin-solidity/v4.8.3/contracts/utils/Address.sol\":8403:8447  revert(add(32, returndata), returndata_size) */\n      revert\n        /* \"@chainlink/contracts/src/v0.8/vendor/openzeppelin-solidity/v4.8.3/contracts/utils/Address.sol\":8177:8502  if (returndata.length > 0) {... */\n    tag_239:\n        /* \"@chainlink/contracts/src/v0.8/vendor/openzeppelin-solidity/v4.8.3/contracts/utils/Address.sol\":8482:8494  errorMessage */\n      dup1\n        /* \"@chainlink/contracts/src/v0.8/vendor/openzeppelin-solidity/v4.8.3/contracts/utils/Address.sol\":8475:8495  revert(errorMessage) */\n      mload(0x40)\n      0x08c379a000000000000000000000000000000000000000000000000000000000\n      dup2\n      mstore\n      0x04\n      add\n      tag_241\n      swap2\n      swap1\n      tag_242\n      jump\t// in\n    tag_241:\n      mload(0x40)\n      dup1\n      swap2\n      sub\n      swap1\n      revert\n    tag_182:\n      mload(0x40)\n      dup1\n      0xa0\n      add\n      0x40\n      mstore\n      dup1\n      0x60\n      dup2\n      mstore\n      0x20\n      add\n      0x60\n      dup2\n      mstore\n      0x20\n      add\n      0x60\n      dup2\n      mstore\n      0x20\n      add\n      and(0xffffffffffffffffffffffffffffffffffffffff, 0x00)\n      dup2\n      mstore\n      0x20\n      add\n      0x60\n      dup2\n      mstore\n      pop\n      swap1\n      jump\t// out\n    tag_190:\n      mload(0x40)\n      dup1\n      0x40\n      add\n      0x40\n      mstore\n      dup1\n      and(0xffffffffffffffffffffffffffffffffffffffff, 0x00)\n      dup2\n      mstore\n      0x20\n      add\n      0x00\n      dup2\n      mstore\n      pop\n      swap1\n      jump\t// out\n        /* \"#utility.yul\":88:205   */\n    tag_244:\n        /* \"#utility.yul\":197:198   */\n      0x00\n        /* \"#utility.yul\":194:195   */\n      dup1\n        /* \"#utility.yul\":187:199   */\n      revert\n        /* \"#utility.yul\":334:435   */\n    tag_246:\n        /* \"#utility.yul\":370:377   */\n      0x00\n        /* \"#utility.yul\":410:428   */\n      0xffffffffffffffff\n        /* \"#utility.yul\":403:408   */\n      dup3\n        /* \"#utility.yul\":399:429   */\n      and\n        /* \"#utility.yul\":388:429   */\n      swap1\n      pop\n        /* \"#utility.yul\":334:435   */\n      swap2\n      swap1\n      pop\n      jump\t// out\n        /* \"#utility.yul\":441:561   */\n    tag_247:\n        /* \"#utility.yul\":513:536   */\n      tag_312\n        /* \"#utility.yul\":530:535   */\n      dup2\n        /* \"#utility.yul\":513:536   */\n      tag_246\n      jump\t// in\n    tag_312:\n        /* \"#utility.yul\":506:511   */\n      dup2\n        /* \"#utility.yul\":503:537   */\n      eq\n        /* \"#utility.yul\":493:555   */\n      tag_313\n      jumpi\n        /* \"#utility.yul\":551:552   */\n      0x00\n        /* \"#utility.yul\":548:549   */\n      dup1\n        /* \"#utility.yul\":541:553   */\n      revert\n        /* \"#utility.yul\":493:555   */\n    tag_313:\n        /* \"#utility.yul\":441:561   */\n      pop\n      jump\t// out\n        /* \"#utility.yul\":567:704   */\n    tag_248:\n        /* \"#utility.yul\":612:617   */\n      0x00\n        /* \"#utility.yul\":650:656   */\n      dup2\n        /* \"#utility.yul\":637:657   */\n      calldataload\n        /* \"#utility.yul\":628:657   */\n      swap1\n      pop\n        /* \"#utility.yul\":666:698   */\n      tag_315\n        /* \"#utility.yul\":692:697   */\n      dup2\n        /* \"#utility.yul\":666:698   */\n      tag_247\n      jump\t// in\n    tag_315:\n        /* \"#utility.yul\":567:704   */\n      swap3\n      swap2\n      pop\n      pop\n      jump\t// out\n        /* \"#utility.yul\":710:1037   */\n    tag_18:\n        /* \"#utility.yul\":768:774   */\n      0x00\n        /* \"#utility.yul\":817:819   */\n      0x20\n        /* \"#utility.yul\":805:814   */\n      dup3\n        /* \"#utility.yul\":796:803   */\n      dup5\n        /* \"#utility.yul\":792:815   */\n      sub\n        /* \"#utility.yul\":788:820   */\n      slt\n        /* \"#utility.yul\":785:904   */\n      iszero\n      tag_317\n      jumpi\n        /* \"#utility.yul\":823:902   */\n      tag_318\n      tag_244\n      jump\t// in\n    tag_318:\n        /* \"#utility.yul\":785:904   */\n    tag_317:\n        /* \"#utility.yul\":943:944   */\n      0x00\n        /* \"#utility.yul\":968:1020   */\n      tag_319\n        /* \"#utility.yul\":1012:1019   */\n      dup5\n        /* \"#utility.yul\":1003:1009   */\n      dup3\n        /* \"#utility.yul\":992:1001   */\n      dup6\n        /* \"#utility.yul\":988:1010   */\n      add\n        /* \"#utility.yul\":968:1020   */\n      tag_248\n      jump\t// in\n    tag_319:\n        /* \"#utility.yul\":958:1020   */\n      swap2\n      pop\n        /* \"#utility.yul\":914:1030   */\n      pop\n        /* \"#utility.yul\":710:1037   */\n      swap3\n      swap2\n      pop\n      pop\n      jump\t// out\n        /* \"#utility.yul\":1043:1133   */\n    tag_249:\n        /* \"#utility.yul\":1077:1084   */\n      0x00\n        /* \"#utility.yul\":1120:1125   */\n      dup2\n        /* \"#utility.yul\":1113:1126   */\n      iszero\n        /* \"#utility.yul\":1106:1127   */\n      iszero\n        /* \"#utility.yul\":1095:1127   */\n      swap1\n      pop\n        /* \"#utility.yul\":1043:1133   */\n      swap2\n      swap1\n      pop\n      jump\t// out\n        /* \"#utility.yul\":1139:1248   */\n    tag_250:\n        /* \"#utility.yul\":1220:1241   */\n      tag_322\n        /* \"#utility.yul\":1235:1240   */\n      dup2\n        /* \"#utility.yul\":1220:1241   */\n      tag_249\n      jump\t// in\n    tag_322:\n        /* \"#utility.yul\":1215:1218   */\n      dup3\n        /* \"#utility.yul\":1208:1242   */\n      mstore\n        /* \"#utility.yul\":1139:1248   */\n      pop\n      pop\n      jump\t// out\n        /* \"#utility.yul\":1254:1464   */\n    tag_21:\n        /* \"#utility.yul\":1341:1345   */\n      0x00\n        /* \"#utility.yul\":1379:1381   */\n      0x20\n        /* \"#utility.yul\":1368:1377   */\n      dup3\n        /* \"#utility.yul\":1364:1382   */\n      add\n        /* \"#utility.yul\":1356:1382   */\n      swap1\n      pop\n        /* \"#utility.yul\":1392:1457   */\n      tag_324\n        /* \"#utility.yul\":1454:1455   */\n      0x00\n        /* \"#utility.yul\":1443:1452   */\n      dup4\n        /* \"#utility.yul\":1439:1456   */\n      add\n        /* \"#utility.yul\":1430:1436   */\n      dup5\n        /* \"#utility.yul\":1392:1457   */\n      tag_250\n      jump\t// in\n    tag_324:\n        /* \"#utility.yul\":1254:1464   */\n      swap3\n      swap2\n      pop\n      pop\n      jump\t// out\n        /* \"#utility.yul\":1470:1596   */\n    tag_251:\n        /* \"#utility.yul\":1507:1514   */\n      0x00\n        /* \"#utility.yul\":1547:1589   */\n      0xffffffffffffffffffffffffffffffffffffffff\n        /* \"#utility.yul\":1540:1545   */\n      dup3\n        /* \"#utility.yul\":1536:1590   */\n      and\n        /* \"#utility.yul\":1525:1590   */\n      swap1\n      pop\n        /* \"#utility.yul\":1470:1596   */\n      swap2\n      swap1\n      pop\n      jump\t// out\n        /* \"#utility.yul\":1602:1698   */\n    tag_252:\n        /* \"#utility.yul\":1639:1646   */\n      0x00\n        /* \"#utility.yul\":1668:1692   */\n      tag_327\n        /* \"#utility.yul\":1686:1691   */\n      dup3\n        /* \"#utility.yul\":1668:1692   */\n      tag_251\n      jump\t// in\n    tag_327:\n        /* \"#utility.yul\":1657:1692   */\n      swap1\n      pop\n        /* \"#utility.yul\":1602:1698   */\n      swap2\n      swap1\n      pop\n      jump\t// out\n        /* \"#utility.yul\":1704:1826   */\n    tag_253:\n        /* \"#utility.yul\":1777:1801   */\n      tag_329\n        /* \"#utility.yul\":1795:1800   */\n      dup2\n        /* \"#utility.yul\":1777:1801   */\n      tag_252\n      jump\t// in\n    tag_329:\n        /* \"#utility.yul\":1770:1775   */\n      dup2\n        /* \"#utility.yul\":1767:1802   */\n      eq\n        /* \"#utility.yul\":1757:1820   */\n      tag_330\n      jumpi\n        /* \"#utility.yul\":1816:1817   */\n      0x00\n        /* \"#utility.yul\":1813:1814   */\n      dup1\n        /* \"#utility.yul\":1806:1818   */\n      revert\n        /* \"#utility.yul\":1757:1820   */\n    tag_330:\n        /* \"#utility.yul\":1704:1826   */\n      pop\n      jump\t// out\n        /* \"#utility.yul\":1832:1971   */\n    tag_254:\n        /* \"#utility.yul\":1878:1883   */\n      0x00\n        /* \"#utility.yul\":1916:1922   */\n      dup2\n        /* \"#utility.yul\":1903:1923   */\n      calldataload\n        /* \"#utility.yul\":1894:1923   */\n      swap1\n      pop\n        /* \"#utility.yul\":1932:1965   */\n      tag_332\n        /* \"#utility.yul\":1959:1964   */\n      dup2\n        /* \"#utility.yul\":1932:1965   */\n      tag_253\n      jump\t// in\n    tag_332:\n        /* \"#utility.yul\":1832:1971   */\n      swap3\n      swap2\n      pop\n      pop\n      jump\t// out\n        /* \"#utility.yul\":1977:2451   */\n    tag_25:\n        /* \"#utility.yul\":2045:2051   */\n      0x00\n        /* \"#utility.yul\":2053:2059   */\n      dup1\n        /* \"#utility.yul\":2102:2104   */\n      0x40\n        /* \"#utility.yul\":2090:2099   */\n      dup4\n        /* \"#utility.yul\":2081:2088   */\n      dup6\n        /* \"#utility.yul\":2077:2100   */\n      sub\n        /* \"#utility.yul\":2073:2105   */\n      slt\n        /* \"#utility.yul\":2070:2189   */\n      iszero\n      tag_334\n      jumpi\n        /* \"#utility.yul\":2108:2187   */\n      tag_335\n      tag_244\n      jump\t// in\n    tag_335:\n        /* \"#utility.yul\":2070:2189   */\n    tag_334:\n        /* \"#utility.yul\":2228:2229   */\n      0x00\n        /* \"#utility.yul\":2253:2306   */\n      tag_336\n        /* \"#utility.yul\":2298:2305   */\n      dup6\n        /* \"#utility.yul\":2289:2295   */\n      dup3\n        /* \"#utility.yul\":2278:2287   */\n      dup7\n        /* \"#utility.yul\":2274:2296   */\n      add\n        /* \"#utility.yul\":2253:2306   */\n      tag_254\n      jump\t// in\n    tag_336:\n        /* \"#utility.yul\":2243:2306   */\n      swap3\n      pop\n        /* \"#utility.yul\":2199:2316   */\n      pop\n        /* \"#utility.yul\":2355:2357   */\n      0x20\n        /* \"#utility.yul\":2381:2434   */\n      tag_337\n        /* \"#utility.yul\":2426:2433   */\n      dup6\n        /* \"#utility.yul\":2417:2423   */\n      dup3\n        /* \"#utility.yul\":2406:2415   */\n      dup7\n        /* \"#utility.yul\":2402:2424   */\n      add\n        /* \"#utility.yul\":2381:2434   */\n      tag_254\n      jump\t// in\n    tag_337:\n        /* \"#utility.yul\":2371:2434   */\n      swap2\n      pop\n        /* \"#utility.yul\":2326:2444   */\n      pop\n        /* \"#utility.yul\":1977:2451   */\n      swap3\n      pop\n      swap3\n      swap1\n      pop\n      jump\t// out\n        /* \"#utility.yul\":2457:2534   */\n    tag_255:\n        /* \"#utility.yul\":2494:2501   */\n      0x00\n        /* \"#utility.yul\":2523:2528   */\n      dup2\n        /* \"#utility.yul\":2512:2528   */\n      swap1\n      pop\n        /* \"#utility.yul\":2457:2534   */\n      swap2\n      swap1\n      pop\n      jump\t// out\n        /* \"#utility.yul\":2540:2662   */\n    tag_256:\n        /* \"#utility.yul\":2613:2637   */\n      tag_340\n        /* \"#utility.yul\":2631:2636   */\n      dup2\n        /* \"#utility.yul\":2613:2637   */\n      tag_255\n      jump\t// in\n    tag_340:\n        /* \"#utility.yul\":2606:2611   */\n      dup2\n        /* \"#utility.yul\":2603:2638   */\n      eq\n        /* \"#utility.yul\":2593:2656   */\n      tag_341\n      jumpi\n        /* \"#utility.yul\":2652:2653   */\n      0x00\n        /* \"#utility.yul\":2649:2650   */\n      dup1\n        /* \"#utility.yul\":2642:2654   */\n      revert\n        /* \"#utility.yul\":2593:2656   */\n    tag_341:\n        /* \"#utility.yul\":2540:2662   */\n      pop\n      jump\t// out\n        /* \"#utility.yul\":2668:2807   */\n    tag_257:\n        /* \"#utility.yul\":2714:2719   */\n      0x00\n        /* \"#utility.yul\":2752:2758   */\n      dup2\n        /* \"#utility.yul\":2739:2759   */\n      calldataload\n        /* \"#utility.yul\":2730:2759   */\n      swap1\n      pop\n        /* \"#utility.yul\":2768:2801   */\n      tag_343\n        /* \"#utility.yul\":2795:2800   */\n      dup2\n        /* \"#utility.yul\":2768:2801   */\n      tag_256\n      jump\t// in\n    tag_343:\n        /* \"#utility.yul\":2668:2807   */\n      swap3\n      swap2\n      pop\n      pop\n      jump\t// out\n        /* \"#utility.yul\":2813:3576   */\n    tag_30:\n        /* \"#utility.yul\":2898:2904   */\n      0x00\n        /* \"#utility.yul\":2906:2912   */\n      dup1\n        /* \"#utility.yul\":2914:2920   */\n      0x00\n        /* \"#utility.yul\":2922:2928   */\n      dup1\n        /* \"#utility.yul\":2971:2974   */\n      0x80\n        /* \"#utility.yul\":2959:2968   */\n      dup6\n        /* \"#utility.yul\":2950:2957   */\n      dup8\n        /* \"#utility.yul\":2946:2969   */\n      sub\n        /* \"#utility.yul\":2942:2975   */\n      slt\n        /* \"#utility.yul\":2939:3059   */\n      iszero\n      tag_345\n      jumpi\n        /* \"#utility.yul\":2978:3057   */\n      tag_346\n      tag_244\n      jump\t// in\n    tag_346:\n        /* \"#utility.yul\":2939:3059   */\n    tag_345:\n        /* \"#utility.yul\":3098:3099   */\n      0x00\n        /* \"#utility.yul\":3123:3175   */\n      tag_347\n        /* \"#utility.yul\":3167:3174   */\n      dup8\n        /* \"#utility.yul\":3158:3164   */\n      dup3\n        /* \"#utility.yul\":3147:3156   */\n      dup9\n        /* \"#utility.yul\":3143:3165   */\n      add\n        /* \"#utility.yul\":3123:3175   */\n      tag_248\n      jump\t// in\n    tag_347:\n        /* \"#utility.yul\":3113:3175   */\n      swap5\n      pop\n        /* \"#utility.yul\":3069:3185   */\n      pop\n        /* \"#utility.yul\":3224:3226   */\n      0x20\n        /* \"#utility.yul\":3250:3303   */\n      tag_348\n        /* \"#utility.yul\":3295:3302   */\n      dup8\n        /* \"#utility.yul\":3286:3292   */\n      dup3\n        /* \"#utility.yul\":3275:3284   */\n      dup9\n        /* \"#utility.yul\":3271:3293   */\n      add\n        /* \"#utility.yul\":3250:3303   */\n      tag_254\n      jump\t// in\n    tag_348:\n        /* \"#utility.yul\":3240:3303   */\n      swap4\n      pop\n        /* \"#utility.yul\":3195:3313   */\n      pop\n        /* \"#utility.yul\":3352:3354   */\n      0x40\n        /* \"#utility.yul\":3378:3431   */\n      tag_349\n        /* \"#utility.yul\":3423:3430   */\n      dup8\n        /* \"#utility.yul\":3414:3420   */\n      dup3\n        /* \"#utility.yul\":3403:3412   */\n      dup9\n        /* \"#utility.yul\":3399:3421   */\n      add\n        /* \"#utility.yul\":3378:3431   */\n      tag_254\n      jump\t// in\n    tag_349:\n        /* \"#utility.yul\":3368:3431   */\n      swap3\n      pop\n        /* \"#utility.yul\":3323:3441   */\n      pop\n        /* \"#utility.yul\":3480:3482   */\n      0x60\n        /* \"#utility.yul\":3506:3559   */\n      tag_350\n        /* \"#utility.yul\":3551:3558   */\n      dup8\n        /* \"#utility.yul\":3542:3548   */\n      dup3\n        /* \"#utility.yul\":3531:3540   */\n      dup9\n        /* \"#utility.yul\":3527:3549   */\n      add\n        /* \"#utility.yul\":3506:3559   */\n      tag_257\n      jump\t// in\n    tag_350:\n        /* \"#utility.yul\":3496:3559   */\n      swap2\n      pop\n        /* \"#utility.yul\":3451:3569   */\n      pop\n        /* \"#utility.yul\":2813:3576   */\n      swap3\n      swap6\n      swap2\n      swap5\n      pop\n      swap3\n      pop\n      jump\t// out\n        /* \"#utility.yul\":3582:3659   */\n    tag_258:\n        /* \"#utility.yul\":3619:3626   */\n      0x00\n        /* \"#utility.yul\":3648:3653   */\n      dup2\n        /* \"#utility.yul\":3637:3653   */\n      swap1\n      pop\n        /* \"#utility.yul\":3582:3659   */\n      swap2\n      swap1\n      pop\n      jump\t// out\n        /* \"#utility.yul\":3665:3783   */\n    tag_259:\n        /* \"#utility.yul\":3752:3776   */\n      tag_353\n        /* \"#utility.yul\":3770:3775   */\n      dup2\n        /* \"#utility.yul\":3752:3776   */\n      tag_258\n      jump\t// in\n    tag_353:\n        /* \"#utility.yul\":3747:3750   */\n      dup3\n        /* \"#utility.yul\":3740:3777   */\n      mstore\n        /* \"#utility.yul\":3665:3783   */\n      pop\n      pop\n      jump\t// out\n        /* \"#utility.yul\":3789:4011   */\n    tag_33:\n        /* \"#utility.yul\":3882:3886   */\n      0x00\n        /* \"#utility.yul\":3920:3922   */\n      0x20\n        /* \"#utility.yul\":3909:3918   */\n      dup3\n        /* \"#utility.yul\":3905:3923   */\n      add\n        /* \"#utility.yul\":3897:3923   */\n      swap1\n      pop\n        /* \"#utility.yul\":3933:4004   */\n      tag_355\n        /* \"#utility.yul\":4001:4002   */\n      0x00\n        /* \"#utility.yul\":3990:3999   */\n      dup4\n        /* \"#utility.yul\":3986:4003   */\n      add\n        /* \"#utility.yul\":3977:3983   */\n      dup5\n        /* \"#utility.yul\":3933:4004   */\n      tag_259\n      jump\t// in\n    tag_355:\n        /* \"#utility.yul\":3789:4011   */\n      swap3\n      swap2\n      pop\n      pop\n      jump\t// out\n        /* \"#utility.yul\":4017:4346   */\n    tag_37:\n        /* \"#utility.yul\":4076:4082   */\n      0x00\n        /* \"#utility.yul\":4125:4127   */\n      0x20\n        /* \"#utility.yul\":4113:4122   */\n      dup3\n        /* \"#utility.yul\":4104:4111   */\n      dup5\n        /* \"#utility.yul\":4100:4123   */\n      sub\n        /* \"#utility.yul\":4096:4128   */\n      slt\n        /* \"#utility.yul\":4093:4212   */\n      iszero\n      tag_357\n      jumpi\n        /* \"#utility.yul\":4131:4210   */\n      tag_358\n      tag_244\n      jump\t// in\n    tag_358:\n        /* \"#utility.yul\":4093:4212   */\n    tag_357:\n        /* \"#utility.yul\":4251:4252   */\n      0x00\n        /* \"#utility.yul\":4276:4329   */\n      tag_359\n        /* \"#utility.yul\":4321:4328   */\n      dup5\n        /* \"#utility.yul\":4312:4318   */\n      dup3\n        /* \"#utility.yul\":4301:4310   */\n      dup6\n        /* \"#utility.yul\":4297:4319   */\n      add\n        /* \"#utility.yul\":4276:4329   */\n      tag_254\n      jump\t// in\n    tag_359:\n        /* \"#utility.yul\":4266:4329   */\n      swap2\n      pop\n        /* \"#utility.yul\":4222:4339   */\n      pop\n        /* \"#utility.yul\":4017:4346   */\n      swap3\n      swap2\n      pop\n      pop\n      jump\t// out\n        /* \"#utility.yul\":4352:4470   */\n    tag_260:\n        /* \"#utility.yul\":4439:4463   */\n      tag_361\n        /* \"#utility.yul\":4457:4462   */\n      dup2\n        /* \"#utility.yul\":4439:4463   */\n      tag_252\n      jump\t// in\n    tag_361:\n        /* \"#utility.yul\":4434:4437   */\n      dup3\n        /* \"#utility.yul\":4427:4464   */\n      mstore\n        /* \"#utility.yul\":4352:4470   */\n      pop\n      pop\n      jump\t// out\n        /* \"#utility.yul\":4476:4698   */\n    tag_46:\n        /* \"#utility.yul\":4569:4573   */\n      0x00\n        /* \"#utility.yul\":4607:4609   */\n      0x20\n        /* \"#utility.yul\":4596:4605   */\n      dup3\n        /* \"#utility.yul\":4592:4610   */\n      add\n        /* \"#utility.yul\":4584:4610   */\n      swap1\n      pop\n        /* \"#utility.yul\":4620:4691   */\n      tag_363\n        /* \"#utility.yul\":4688:4689   */\n      0x00\n        /* \"#utility.yul\":4677:4686   */\n      dup4\n        /* \"#utility.yul\":4673:4690   */\n      add\n        /* \"#utility.yul\":4664:4670   */\n      dup5\n        /* \"#utility.yul\":4620:4691   */\n      tag_260\n      jump\t// in\n    tag_363:\n        /* \"#utility.yul\":4476:4698   */\n      swap3\n      swap2\n      pop\n      pop\n      jump\t// out\n        /* \"#utility.yul\":4704:4820   */\n    tag_261:\n        /* \"#utility.yul\":4774:4795   */\n      tag_365\n        /* \"#utility.yul\":4789:4794   */\n      dup2\n        /* \"#utility.yul\":4774:4795   */\n      tag_249\n      jump\t// in\n    tag_365:\n        /* \"#utility.yul\":4767:4772   */\n      dup2\n        /* \"#utility.yul\":4764:4796   */\n      eq\n        /* \"#utility.yul\":4754:4814   */\n      tag_366\n      jumpi\n        /* \"#utility.yul\":4810:4811   */\n      0x00\n        /* \"#utility.yul\":4807:4808   */\n      dup1\n        /* \"#utility.yul\":4800:4812   */\n      revert\n        /* \"#utility.yul\":4754:4814   */\n    tag_366:\n        /* \"#utility.yul\":4704:4820   */\n      pop\n      jump\t// out\n        /* \"#utility.yul\":4826:4959   */\n    tag_262:\n        /* \"#utility.yul\":4869:4874   */\n      0x00\n        /* \"#utility.yul\":4907:4913   */\n      dup2\n        /* \"#utility.yul\":4894:4914   */\n      calldataload\n        /* \"#utility.yul\":4885:4914   */\n      swap1\n      pop\n        /* \"#utility.yul\":4923:4953   */\n      tag_368\n        /* \"#utility.yul\":4947:4952   */\n      dup2\n        /* \"#utility.yul\":4923:4953   */\n      tag_261\n      jump\t// in\n    tag_368:\n        /* \"#utility.yul\":4826:4959   */\n      swap3\n      swap2\n      pop\n      pop\n      jump\t// out\n        /* \"#utility.yul\":4965:5431   */\n    tag_55:\n        /* \"#utility.yul\":5029:5035   */\n      0x00\n        /* \"#utility.yul\":5037:5043   */\n      dup1\n        /* \"#utility.yul\":5086:5088   */\n      0x40\n        /* \"#utility.yul\":5074:5083   */\n      dup4\n        /* \"#utility.yul\":5065:5072   */\n      dup6\n        /* \"#utility.yul\":5061:5084   */\n      sub\n        /* \"#utility.yul\":5057:5089   */\n      slt\n        /* \"#utility.yul\":5054:5173   */\n      iszero\n      tag_370\n      jumpi\n        /* \"#utility.yul\":5092:5171   */\n      tag_371\n      tag_244\n      jump\t// in\n    tag_371:\n        /* \"#utility.yul\":5054:5173   */\n    tag_370:\n        /* \"#utility.yul\":5212:5213   */\n      0x00\n        /* \"#utility.yul\":5237:5289   */\n      tag_372\n        /* \"#utility.yul\":5281:5288   */\n      dup6\n        /* \"#utility.yul\":5272:5278   */\n      dup3\n        /* \"#utility.yul\":5261:5270   */\n      dup7\n        /* \"#utility.yul\":5257:5279   */\n      add\n        /* \"#utility.yul\":5237:5289   */\n      tag_248\n      jump\t// in\n    tag_372:\n        /* \"#utility.yul\":5227:5289   */\n      swap3\n      pop\n        /* \"#utility.yul\":5183:5299   */\n      pop\n        /* \"#utility.yul\":5338:5340   */\n      0x20\n        /* \"#utility.yul\":5364:5414   */\n      tag_373\n        /* \"#utility.yul\":5406:5413   */\n      dup6\n        /* \"#utility.yul\":5397:5403   */\n      dup3\n        /* \"#utility.yul\":5386:5395   */\n      dup7\n        /* \"#utility.yul\":5382:5404   */\n      add\n        /* \"#utility.yul\":5364:5414   */\n      tag_262\n      jump\t// in\n    tag_373:\n        /* \"#utility.yul\":5354:5414   */\n      swap2\n      pop\n        /* \"#utility.yul\":5309:5424   */\n      pop\n        /* \"#utility.yul\":4965:5431   */\n      swap3\n      pop\n      swap3\n      swap1\n      pop\n      jump\t// out\n        /* \"#utility.yul\":5437:5580   */\n    tag_263:\n        /* \"#utility.yul\":5494:5499   */\n      0x00\n        /* \"#utility.yul\":5525:5531   */\n      dup2\n        /* \"#utility.yul\":5519:5532   */\n      mload\n        /* \"#utility.yul\":5510:5532   */\n      swap1\n      pop\n        /* \"#utility.yul\":5541:5574   */\n      tag_375\n        /* \"#utility.yul\":5568:5573   */\n      dup2\n        /* \"#utility.yul\":5541:5574   */\n      tag_256\n      jump\t// in\n    tag_375:\n        /* \"#utility.yul\":5437:5580   */\n      swap3\n      swap2\n      pop\n      pop\n      jump\t// out\n        /* \"#utility.yul\":5586:5937   */\n    tag_69:\n        /* \"#utility.yul\":5656:5662   */\n      0x00\n        /* \"#utility.yul\":5705:5707   */\n      0x20\n        /* \"#utility.yul\":5693:5702   */\n      dup3\n        /* \"#utility.yul\":5684:5691   */\n      dup5\n        /* \"#utility.yul\":5680:5703   */\n      sub\n        /* \"#utility.yul\":5676:5708   */\n      slt\n        /* \"#utility.yul\":5673:5792   */\n      iszero\n      tag_377\n      jumpi\n        /* \"#utility.yul\":5711:5790   */\n      tag_378\n      tag_244\n      jump\t// in\n    tag_378:\n        /* \"#utility.yul\":5673:5792   */\n    tag_377:\n        /* \"#utility.yul\":5831:5832   */\n      0x00\n        /* \"#utility.yul\":5856:5920   */\n      tag_379\n        /* \"#utility.yul\":5912:5919   */\n      dup5\n        /* \"#utility.yul\":5903:5909   */\n      dup3\n        /* \"#utility.yul\":5892:5901   */\n      dup6\n        /* \"#utility.yul\":5888:5910   */\n      add\n        /* \"#utility.yul\":5856:5920   */\n      tag_263\n      jump\t// in\n    tag_379:\n        /* \"#utility.yul\":5846:5920   */\n      swap2\n      pop\n        /* \"#utility.yul\":5802:5930   */\n      pop\n        /* \"#utility.yul\":5586:5937   */\n      swap3\n      swap2\n      pop\n      pop\n      jump\t// out\n        /* \"#utility.yul\":5943:6058   */\n    tag_264:\n        /* \"#utility.yul\":6028:6051   */\n      tag_381\n        /* \"#utility.yul\":6045:6050   */\n      dup2\n        /* \"#utility.yul\":6028:6051   */\n      tag_246\n      jump\t// in\n    tag_381:\n        /* \"#utility.yul\":6023:6026   */\n      dup3\n        /* \"#utility.yul\":6016:6052   */\n      mstore\n        /* \"#utility.yul\":5943:6058   */\n      pop\n      pop\n      jump\t// out\n        /* \"#utility.yul\":6064:6282   */\n    tag_78:\n        /* \"#utility.yul\":6155:6159   */\n      0x00\n        /* \"#utility.yul\":6193:6195   */\n      0x20\n        /* \"#utility.yul\":6182:6191   */\n      dup3\n        /* \"#utility.yul\":6178:6196   */\n      add\n        /* \"#utility.yul\":6170:6196   */\n      swap1\n      pop\n        /* \"#utility.yul\":6206:6275   */\n      tag_383\n        /* \"#utility.yul\":6272:6273   */\n      0x00\n        /* \"#utility.yul\":6261:6270   */\n      dup4\n        /* \"#utility.yul\":6257:6274   */\n      add\n        /* \"#utility.yul\":6248:6254   */\n      dup5\n        /* \"#utility.yul\":6206:6275   */\n      tag_264\n      jump\t// in\n    tag_383:\n        /* \"#utility.yul\":6064:6282   */\n      swap3\n      swap2\n      pop\n      pop\n      jump\t// out\n        /* \"#utility.yul\":6288:6386   */\n    tag_265:\n        /* \"#utility.yul\":6339:6345   */\n      0x00\n        /* \"#utility.yul\":6373:6378   */\n      dup2\n        /* \"#utility.yul\":6367:6379   */\n      mload\n        /* \"#utility.yul\":6357:6379   */\n      swap1\n      pop\n        /* \"#utility.yul\":6288:6386   */\n      swap2\n      swap1\n      pop\n      jump\t// out\n        /* \"#utility.yul\":6392:6550   */\n    tag_266:\n        /* \"#utility.yul\":6465:6476   */\n      0x00\n        /* \"#utility.yul\":6499:6505   */\n      dup3\n        /* \"#utility.yul\":6494:6497   */\n      dup3\n        /* \"#utility.yul\":6487:6506   */\n      mstore\n        /* \"#utility.yul\":6539:6543   */\n      0x20\n        /* \"#utility.yul\":6534:6537   */\n      dup3\n        /* \"#utility.yul\":6530:6544   */\n      add\n        /* \"#utility.yul\":6515:6544   */\n      swap1\n      pop\n        /* \"#utility.yul\":6392:6550   */\n      swap3\n      swap2\n      pop\n      pop\n      jump\t// out\n        /* \"#utility.yul\":6556:6802   */\n    tag_267:\n        /* \"#utility.yul\":6637:6638   */\n      0x00\n        /* \"#utility.yul\":6647:6760   */\n    tag_387:\n        /* \"#utility.yul\":6661:6667   */\n      dup4\n        /* \"#utility.yul\":6658:6659   */\n      dup2\n        /* \"#utility.yul\":6655:6668   */\n      lt\n        /* \"#utility.yul\":6647:6760   */\n      iszero\n      tag_389\n      jumpi\n        /* \"#utility.yul\":6746:6747   */\n      dup1\n        /* \"#utility.yul\":6741:6744   */\n      dup3\n        /* \"#utility.yul\":6737:6748   */\n      add\n        /* \"#utility.yul\":6731:6749   */\n      mload\n        /* \"#utility.yul\":6727:6728   */\n      dup2\n        /* \"#utility.yul\":6722:6725   */\n      dup5\n        /* \"#utility.yul\":6718:6729   */\n      add\n        /* \"#utility.yul\":6711:6750   */\n      mstore\n        /* \"#utility.yul\":6683:6685   */\n      0x20\n        /* \"#utility.yul\":6680:6681   */\n      dup2\n        /* \"#utility.yul\":6676:6686   */\n      add\n        /* \"#utility.yul\":6671:6686   */\n      swap1\n      pop\n        /* \"#utility.yul\":6647:6760   */\n      jump(tag_387)\n    tag_389:\n        /* \"#utility.yul\":6794:6795   */\n      0x00\n        /* \"#utility.yul\":6785:6791   */\n      dup5\n        /* \"#utility.yul\":6780:6783   */\n      dup5\n        /* \"#utility.yul\":6776:6792   */\n      add\n        /* \"#utility.yul\":6769:6796   */\n      mstore\n        /* \"#utility.yul\":6618:6802   */\n      pop\n        /* \"#utility.yul\":6556:6802   */\n      pop\n      pop\n      pop\n      jump\t// out\n        /* \"#utility.yul\":6808:6910   */\n    tag_268:\n        /* \"#utility.yul\":6849:6855   */\n      0x00\n        /* \"#utility.yul\":6900:6902   */\n      0x1f\n        /* \"#utility.yul\":6896:6903   */\n      not\n        /* \"#utility.yul\":6891:6893   */\n      0x1f\n        /* \"#utility.yul\":6884:6889   */\n      dup4\n        /* \"#utility.yul\":6880:6894   */\n      add\n        /* \"#utility.yul\":6876:6904   */\n      and\n        /* \"#utility.yul\":6866:6904   */\n      swap1\n      pop\n        /* \"#utility.yul\":6808:6910   */\n      swap2\n      swap1\n      pop\n      jump\t// out\n        /* \"#utility.yul\":6916:7269   */\n    tag_269:\n        /* \"#utility.yul\":6992:6995   */\n      0x00\n        /* \"#utility.yul\":7020:7058   */\n      tag_392\n        /* \"#utility.yul\":7052:7057   */\n      dup3\n        /* \"#utility.yul\":7020:7058   */\n      tag_265\n      jump\t// in\n    tag_392:\n        /* \"#utility.yul\":7074:7134   */\n      tag_393\n        /* \"#utility.yul\":7127:7133   */\n      dup2\n        /* \"#utility.yul\":7122:7125   */\n      dup6\n        /* \"#utility.yul\":7074:7134   */\n      tag_266\n      jump\t// in\n    tag_393:\n        /* \"#utility.yul\":7067:7134   */\n      swap4\n      pop\n        /* \"#utility.yul\":7143:7208   */\n      tag_394\n        /* \"#utility.yul\":7201:7207   */\n      dup2\n        /* \"#utility.yul\":7196:7199   */\n      dup6\n        /* \"#utility.yul\":7189:7193   */\n      0x20\n        /* \"#utility.yul\":7182:7187   */\n      dup7\n        /* \"#utility.yul\":7178:7194   */\n      add\n        /* \"#utility.yul\":7143:7208   */\n      tag_267\n      jump\t// in\n    tag_394:\n        /* \"#utility.yul\":7233:7262   */\n      tag_395\n        /* \"#utility.yul\":7255:7261   */\n      dup2\n        /* \"#utility.yul\":7233:7262   */\n      tag_268\n      jump\t// in\n    tag_395:\n        /* \"#utility.yul\":7228:7231   */\n      dup5\n        /* \"#utility.yul\":7224:7263   */\n      add\n        /* \"#utility.yul\":7217:7263   */\n      swap2\n      pop\n        /* \"#utility.yul\":6996:7269   */\n      pop\n        /* \"#utility.yul\":6916:7269   */\n      swap3\n      swap2\n      pop\n      pop\n      jump\t// out\n        /* \"#utility.yul\":7275:7419   */\n    tag_270:\n        /* \"#utility.yul\":7372:7378   */\n      0x00\n        /* \"#utility.yul\":7406:7411   */\n      dup2\n        /* \"#utility.yul\":7400:7412   */\n      mload\n        /* \"#utility.yul\":7390:7412   */\n      swap1\n      pop\n        /* \"#utility.yul\":7275:7419   */\n      swap2\n      swap1\n      pop\n      jump\t// out\n        /* \"#utility.yul\":7425:7629   */\n    tag_271:\n        /* \"#utility.yul\":7544:7555   */\n      0x00\n        /* \"#utility.yul\":7578:7584   */\n      dup3\n        /* \"#utility.yul\":7573:7576   */\n      dup3\n        /* \"#utility.yul\":7566:7585   */\n      mstore\n        /* \"#utility.yul\":7618:7622   */\n      0x20\n        /* \"#utility.yul\":7613:7616   */\n      dup3\n        /* \"#utility.yul\":7609:7623   */\n      add\n        /* \"#utility.yul\":7594:7623   */\n      swap1\n      pop\n        /* \"#utility.yul\":7425:7629   */\n      swap3\n      swap2\n      pop\n      pop\n      jump\t// out\n        /* \"#utility.yul\":7635:7797   */\n    tag_272:\n        /* \"#utility.yul\":7732:7736   */\n      0x00\n        /* \"#utility.yul\":7755:7758   */\n      dup2\n        /* \"#utility.yul\":7747:7758   */\n      swap1\n      pop\n        /* \"#utility.yul\":7785:7789   */\n      0x20\n        /* \"#utility.yul\":7780:7783   */\n      dup3\n        /* \"#utility.yul\":7776:7790   */\n      add\n        /* \"#utility.yul\":7768:7790   */\n      swap1\n      pop\n        /* \"#utility.yul\":7635:7797   */\n      swap2\n      swap1\n      pop\n      jump\t// out\n        /* \"#utility.yul\":7803:7911   */\n    tag_273:\n        /* \"#utility.yul\":7880:7904   */\n      tag_400\n        /* \"#utility.yul\":7898:7903   */\n      dup2\n        /* \"#utility.yul\":7880:7904   */\n      tag_252\n      jump\t// in\n    tag_400:\n        /* \"#utility.yul\":7875:7878   */\n      dup3\n        /* \"#utility.yul\":7868:7905   */\n      mstore\n        /* \"#utility.yul\":7803:7911   */\n      pop\n      pop\n      jump\t// out\n        /* \"#utility.yul\":7917:8025   */\n    tag_274:\n        /* \"#utility.yul\":7994:8018   */\n      tag_402\n        /* \"#utility.yul\":8012:8017   */\n      dup2\n        /* \"#utility.yul\":7994:8018   */\n      tag_255\n      jump\t// in\n    tag_402:\n        /* \"#utility.yul\":7989:7992   */\n      dup3\n        /* \"#utility.yul\":7982:8019   */\n      mstore\n        /* \"#utility.yul\":7917:8025   */\n      pop\n      pop\n      jump\t// out\n        /* \"#utility.yul\":8099:8609   */\n    tag_275:\n        /* \"#utility.yul\":8246:8250   */\n      0x40\n        /* \"#utility.yul\":8241:8244   */\n      dup3\n        /* \"#utility.yul\":8237:8251   */\n      add\n        /* \"#utility.yul\":8334:8338   */\n      0x00\n        /* \"#utility.yul\":8327:8332   */\n      dup3\n        /* \"#utility.yul\":8323:8339   */\n      add\n        /* \"#utility.yul\":8317:8340   */\n      mload\n        /* \"#utility.yul\":8353:8416   */\n      tag_404\n        /* \"#utility.yul\":8410:8414   */\n      0x00\n        /* \"#utility.yul\":8405:8408   */\n      dup6\n        /* \"#utility.yul\":8401:8415   */\n      add\n        /* \"#utility.yul\":8387:8399   */\n      dup3\n        /* \"#utility.yul\":8353:8416   */\n      tag_273\n      jump\t// in\n    tag_404:\n        /* \"#utility.yul\":8261:8426   */\n      pop\n        /* \"#utility.yul\":8510:8514   */\n      0x20\n        /* \"#utility.yul\":8503:8508   */\n      dup3\n        /* \"#utility.yul\":8499:8515   */\n      add\n        /* \"#utility.yul\":8493:8516   */\n      mload\n        /* \"#utility.yul\":8529:8592   */\n      tag_405\n        /* \"#utility.yul\":8586:8590   */\n      0x20\n        /* \"#utility.yul\":8581:8584   */\n      dup6\n        /* \"#utility.yul\":8577:8591   */\n      add\n        /* \"#utility.yul\":8563:8575   */\n      dup3\n        /* \"#utility.yul\":8529:8592   */\n      tag_274\n      jump\t// in\n    tag_405:\n        /* \"#utility.yul\":8436:8602   */\n      pop\n        /* \"#utility.yul\":8215:8609   */\n      pop\n        /* \"#utility.yul\":8099:8609   */\n      pop\n      pop\n      jump\t// out\n        /* \"#utility.yul\":8615:8914   */\n    tag_276:\n        /* \"#utility.yul\":8744:8754   */\n      0x00\n        /* \"#utility.yul\":8765:8871   */\n      tag_407\n        /* \"#utility.yul\":8867:8870   */\n      dup4\n        /* \"#utility.yul\":8859:8865   */\n      dup4\n        /* \"#utility.yul\":8765:8871   */\n      tag_275\n      jump\t// in\n    tag_407:\n        /* \"#utility.yul\":8903:8907   */\n      0x40\n        /* \"#utility.yul\":8898:8901   */\n      dup4\n        /* \"#utility.yul\":8894:8908   */\n      add\n        /* \"#utility.yul\":8880:8908   */\n      swap1\n      pop\n        /* \"#utility.yul\":8615:8914   */\n      swap3\n      swap2\n      pop\n      pop\n      jump\t// out\n        /* \"#utility.yul\":8920:9063   */\n    tag_277:\n        /* \"#utility.yul\":9020:9024   */\n      0x00\n        /* \"#utility.yul\":9052:9056   */\n      0x20\n        /* \"#utility.yul\":9047:9050   */\n      dup3\n        /* \"#utility.yul\":9043:9057   */\n      add\n        /* \"#utility.yul\":9035:9057   */\n      swap1\n      pop\n        /* \"#utility.yul\":8920:9063   */\n      swap2\n      swap1\n      pop\n      jump\t// out\n        /* \"#utility.yul\":9141:10093   */\n    tag_278:\n        /* \"#utility.yul\":9310:9313   */\n      0x00\n        /* \"#utility.yul\":9339:9423   */\n      tag_410\n        /* \"#utility.yul\":9417:9422   */\n      dup3\n        /* \"#utility.yul\":9339:9423   */\n      tag_270\n      jump\t// in\n    tag_410:\n        /* \"#utility.yul\":9439:9545   */\n      tag_411\n        /* \"#utility.yul\":9538:9544   */\n      dup2\n        /* \"#utility.yul\":9533:9536   */\n      dup6\n        /* \"#utility.yul\":9439:9545   */\n      tag_271\n      jump\t// in\n    tag_411:\n        /* \"#utility.yul\":9432:9545   */\n      swap4\n      pop\n        /* \"#utility.yul\":9569:9655   */\n      tag_412\n        /* \"#utility.yul\":9649:9654   */\n      dup4\n        /* \"#utility.yul\":9569:9655   */\n      tag_272\n      jump\t// in\n    tag_412:\n        /* \"#utility.yul\":9678:9685   */\n      dup1\n        /* \"#utility.yul\":9709:9710   */\n      0x00\n        /* \"#utility.yul\":9694:10068   */\n    tag_413:\n        /* \"#utility.yul\":9719:9725   */\n      dup4\n        /* \"#utility.yul\":9716:9717   */\n      dup2\n        /* \"#utility.yul\":9713:9726   */\n      lt\n        /* \"#utility.yul\":9694:10068   */\n      iszero\n      tag_415\n      jumpi\n        /* \"#utility.yul\":9795:9801   */\n      dup2\n        /* \"#utility.yul\":9789:9802   */\n      mload\n        /* \"#utility.yul\":9822:9945   */\n      tag_416\n        /* \"#utility.yul\":9941:9944   */\n      dup9\n        /* \"#utility.yul\":9926:9939   */\n      dup3\n        /* \"#utility.yul\":9822:9945   */\n      tag_276\n      jump\t// in\n    tag_416:\n        /* \"#utility.yul\":9815:9945   */\n      swap8\n      pop\n        /* \"#utility.yul\":9968:10058   */\n      tag_417\n        /* \"#utility.yul\":10051:10057   */\n      dup4\n        /* \"#utility.yul\":9968:10058   */\n      tag_277\n      jump\t// in\n    tag_417:\n        /* \"#utility.yul\":9958:10058   */\n      swap3\n      pop\n        /* \"#utility.yul\":9754:10068   */\n      pop\n        /* \"#utility.yul\":9741:9742   */\n      0x01\n        /* \"#utility.yul\":9738:9739   */\n      dup2\n        /* \"#utility.yul\":9734:9743   */\n      add\n        /* \"#utility.yul\":9729:9743   */\n      swap1\n      pop\n        /* \"#utility.yul\":9694:10068   */\n      jump(tag_413)\n    tag_415:\n        /* \"#utility.yul\":9698:9712   */\n      pop\n        /* \"#utility.yul\":10084:10087   */\n      dup6\n        /* \"#utility.yul\":10077:10087   */\n      swap4\n      pop\n        /* \"#utility.yul\":9315:10093   */\n      pop\n      pop\n      pop\n        /* \"#utility.yul\":9141:10093   */\n      swap3\n      swap2\n      pop\n      pop\n      jump\t// out\n        /* \"#utility.yul\":10167:11623   */\n    tag_279:\n        /* \"#utility.yul\":10296:10299   */\n      0x00\n        /* \"#utility.yul\":10332:10336   */\n      0xa0\n        /* \"#utility.yul\":10327:10330   */\n      dup4\n        /* \"#utility.yul\":10323:10337   */\n      add\n        /* \"#utility.yul\":10423:10427   */\n      0x00\n        /* \"#utility.yul\":10416:10421   */\n      dup4\n        /* \"#utility.yul\":10412:10428   */\n      add\n        /* \"#utility.yul\":10406:10429   */\n      mload\n        /* \"#utility.yul\":10476:10479   */\n      dup5\n        /* \"#utility.yul\":10470:10474   */\n      dup3\n        /* \"#utility.yul\":10466:10480   */\n      sub\n        /* \"#utility.yul\":10459:10463   */\n      0x00\n        /* \"#utility.yul\":10454:10457   */\n      dup7\n        /* \"#utility.yul\":10450:10464   */\n      add\n        /* \"#utility.yul\":10443:10481   */\n      mstore\n        /* \"#utility.yul\":10502:10573   */\n      tag_419\n        /* \"#utility.yul\":10568:10572   */\n      dup3\n        /* \"#utility.yul\":10554:10566   */\n      dup3\n        /* \"#utility.yul\":10502:10573   */\n      tag_269\n      jump\t// in\n    tag_419:\n        /* \"#utility.yul\":10494:10573   */\n      swap2\n      pop\n        /* \"#utility.yul\":10347:10584   */\n      pop\n        /* \"#utility.yul\":10666:10670   */\n      0x20\n        /* \"#utility.yul\":10659:10664   */\n      dup4\n        /* \"#utility.yul\":10655:10671   */\n      add\n        /* \"#utility.yul\":10649:10672   */\n      mload\n        /* \"#utility.yul\":10719:10722   */\n      dup5\n        /* \"#utility.yul\":10713:10717   */\n      dup3\n        /* \"#utility.yul\":10709:10723   */\n      sub\n        /* \"#utility.yul\":10702:10706   */\n      0x20\n        /* \"#utility.yul\":10697:10700   */\n      dup7\n        /* \"#utility.yul\":10693:10707   */\n      add\n        /* \"#utility.yul\":10686:10724   */\n      mstore\n        /* \"#utility.yul\":10745:10816   */\n      tag_420\n        /* \"#utility.yul\":10811:10815   */\n      dup3\n        /* \"#utility.yul\":10797:10809   */\n      dup3\n        /* \"#utility.yul\":10745:10816   */\n      tag_269\n      jump\t// in\n    tag_420:\n        /* \"#utility.yul\":10737:10816   */\n      swap2\n      pop\n        /* \"#utility.yul\":10594:10827   */\n      pop\n        /* \"#utility.yul\":10917:10921   */\n      0x40\n        /* \"#utility.yul\":10910:10915   */\n      dup4\n        /* \"#utility.yul\":10906:10922   */\n      add\n        /* \"#utility.yul\":10900:10923   */\n      mload\n        /* \"#utility.yul\":10970:10973   */\n      dup5\n        /* \"#utility.yul\":10964:10968   */\n      dup3\n        /* \"#utility.yul\":10960:10974   */\n      sub\n        /* \"#utility.yul\":10953:10957   */\n      0x40\n        /* \"#utility.yul\":10948:10951   */\n      dup7\n        /* \"#utility.yul\":10944:10958   */\n      add\n        /* \"#utility.yul\":10937:10975   */\n      mstore\n        /* \"#utility.yul\":10996:11159   */\n      tag_421\n        /* \"#utility.yul\":11154:11158   */\n      dup3\n        /* \"#utility.yul\":11140:11152   */\n      dup3\n        /* \"#utility.yul\":10996:11159   */\n      tag_278\n      jump\t// in\n    tag_421:\n        /* \"#utility.yul\":10988:11159   */\n      swap2\n      pop\n        /* \"#utility.yul\":10837:11170   */\n      pop\n        /* \"#utility.yul\":11256:11260   */\n      0x60\n        /* \"#utility.yul\":11249:11254   */\n      dup4\n        /* \"#utility.yul\":11245:11261   */\n      add\n        /* \"#utility.yul\":11239:11262   */\n      mload\n        /* \"#utility.yul\":11275:11338   */\n      tag_422\n        /* \"#utility.yul\":11332:11336   */\n      0x60\n        /* \"#utility.yul\":11327:11330   */\n      dup7\n        /* \"#utility.yul\":11323:11337   */\n      add\n        /* \"#utility.yul\":11309:11321   */\n      dup3\n        /* \"#utility.yul\":11275:11338   */\n      tag_273\n      jump\t// in\n    tag_422:\n        /* \"#utility.yul\":11180:11348   */\n      pop\n        /* \"#utility.yul\":11435:11439   */\n      0x80\n        /* \"#utility.yul\":11428:11433   */\n      dup4\n        /* \"#utility.yul\":11424:11440   */\n      add\n        /* \"#utility.yul\":11418:11441   */\n      mload\n        /* \"#utility.yul\":11488:11491   */\n      dup5\n        /* \"#utility.yul\":11482:11486   */\n      dup3\n        /* \"#utility.yul\":11478:11492   */\n      sub\n        /* \"#utility.yul\":11471:11475   */\n      0x80\n        /* \"#utility.yul\":11466:11469   */\n      dup7\n        /* \"#utility.yul\":11462:11476   */\n      add\n        /* \"#utility.yul\":11455:11493   */\n      mstore\n        /* \"#utility.yul\":11514:11585   */\n      tag_423\n        /* \"#utility.yul\":11580:11584   */\n      dup3\n        /* \"#utility.yul\":11566:11578   */\n      dup3\n        /* \"#utility.yul\":11514:11585   */\n      tag_269\n      jump\t// in\n    tag_423:\n        /* \"#utility.yul\":11506:11585   */\n      swap2\n      pop\n        /* \"#utility.yul\":11358:11596   */\n      pop\n        /* \"#utility.yul\":11613:11617   */\n      dup1\n        /* \"#utility.yul\":11606:11617   */\n      swap2\n      pop\n        /* \"#utility.yul\":10301:11623   */\n      pop\n        /* \"#utility.yul\":10167:11623   */\n      swap3\n      swap2\n      pop\n      pop\n      jump\t// out\n        /* \"#utility.yul\":11629:12128   */\n    tag_85:\n        /* \"#utility.yul\":11808:11812   */\n      0x00\n        /* \"#utility.yul\":11846:11848   */\n      0x40\n        /* \"#utility.yul\":11835:11844   */\n      dup3\n        /* \"#utility.yul\":11831:11849   */\n      add\n        /* \"#utility.yul\":11823:11849   */\n      swap1\n      pop\n        /* \"#utility.yul\":11859:11928   */\n      tag_425\n        /* \"#utility.yul\":11925:11926   */\n      0x00\n        /* \"#utility.yul\":11914:11923   */\n      dup4\n        /* \"#utility.yul\":11910:11927   */\n      add\n        /* \"#utility.yul\":11901:11907   */\n      dup6\n        /* \"#utility.yul\":11859:11928   */\n      tag_264\n      jump\t// in\n    tag_425:\n        /* \"#utility.yul\":11975:11984   */\n      dup2\n        /* \"#utility.yul\":11969:11973   */\n      dup2\n        /* \"#utility.yul\":11965:11985   */\n      sub\n        /* \"#utility.yul\":11960:11962   */\n      0x20\n        /* \"#utility.yul\":11949:11958   */\n      dup4\n        /* \"#utility.yul\":11945:11963   */\n      add\n        /* \"#utility.yul\":11938:11986   */\n      mstore\n        /* \"#utility.yul\":12003:12121   */\n      tag_426\n        /* \"#utility.yul\":12116:12120   */\n      dup2\n        /* \"#utility.yul\":12107:12113   */\n      dup5\n        /* \"#utility.yul\":12003:12121   */\n      tag_279\n      jump\t// in\n    tag_426:\n        /* \"#utility.yul\":11995:12121   */\n      swap1\n      pop\n        /* \"#utility.yul\":11629:12128   */\n      swap4\n      swap3\n      pop\n      pop\n      pop\n      jump\t// out\n        /* \"#utility.yul\":12134:12252   */\n    tag_280:\n        /* \"#utility.yul\":12221:12245   */\n      tag_428\n        /* \"#utility.yul\":12239:12244   */\n      dup2\n        /* \"#utility.yul\":12221:12245   */\n      tag_255\n      jump\t// in\n    tag_428:\n        /* \"#utility.yul\":12216:12219   */\n      dup3\n        /* \"#utility.yul\":12209:12246   */\n      mstore\n        /* \"#utility.yul\":12134:12252   */\n      pop\n      pop\n      jump\t// out\n        /* \"#utility.yul\":12258:12590   */\n    tag_91:\n        /* \"#utility.yul\":12379:12383   */\n      0x00\n        /* \"#utility.yul\":12417:12419   */\n      0x40\n        /* \"#utility.yul\":12406:12415   */\n      dup3\n        /* \"#utility.yul\":12402:12420   */\n      add\n        /* \"#utility.yul\":12394:12420   */\n      swap1\n      pop\n        /* \"#utility.yul\":12430:12501   */\n      tag_430\n        /* \"#utility.yul\":12498:12499   */\n      0x00\n        /* \"#utility.yul\":12487:12496   */\n      dup4\n        /* \"#utility.yul\":12483:12500   */\n      add\n        /* \"#utility.yul\":12474:12480   */\n      dup6\n        /* \"#utility.yul\":12430:12501   */\n      tag_280\n      jump\t// in\n    tag_430:\n        /* \"#utility.yul\":12511:12583   */\n      tag_431\n        /* \"#utility.yul\":12579:12581   */\n      0x20\n        /* \"#utility.yul\":12568:12577   */\n      dup4\n        /* \"#utility.yul\":12564:12582   */\n      add\n        /* \"#utility.yul\":12555:12561   */\n      dup5\n        /* \"#utility.yul\":12511:12583   */\n      tag_280\n      jump\t// in\n    tag_431:\n        /* \"#utility.yul\":12258:12590   */\n      swap4\n      swap3\n      pop\n      pop\n      pop\n      jump\t// out\n        /* \"#utility.yul\":12596:12928   */\n    tag_93:\n        /* \"#utility.yul\":12717:12721   */\n      0x00\n        /* \"#utility.yul\":12755:12757   */\n      0x40\n        /* \"#utility.yul\":12744:12753   */\n      dup3\n        /* \"#utility.yul\":12740:12758   */\n      add\n        /* \"#utility.yul\":12732:12758   */\n      swap1\n      pop\n        /* \"#utility.yul\":12768:12839   */\n      tag_433\n        /* \"#utility.yul\":12836:12837   */\n      0x00\n        /* \"#utility.yul\":12825:12834   */\n      dup4\n        /* \"#utility.yul\":12821:12838   */\n      add\n        /* \"#utility.yul\":12812:12818   */\n      dup6\n        /* \"#utility.yul\":12768:12839   */\n      tag_260\n      jump\t// in\n    tag_433:\n        /* \"#utility.yul\":12849:12921   */\n      tag_434\n        /* \"#utility.yul\":12917:12919   */\n      0x20\n        /* \"#utility.yul\":12906:12915   */\n      dup4\n        /* \"#utility.yul\":12902:12920   */\n      add\n        /* \"#utility.yul\":12893:12899   */\n      dup5\n        /* \"#utility.yul\":12849:12921   */\n      tag_280\n      jump\t// in\n    tag_434:\n        /* \"#utility.yul\":12596:12928   */\n      swap4\n      swap3\n      pop\n      pop\n      pop\n      jump\t// out\n        /* \"#utility.yul\":12934:13071   */\n    tag_281:\n        /* \"#utility.yul\":12988:12993   */\n      0x00\n        /* \"#utility.yul\":13019:13025   */\n      dup2\n        /* \"#utility.yul\":13013:13026   */\n      mload\n        /* \"#utility.yul\":13004:13026   */\n      swap1\n      pop\n        /* \"#utility.yul\":13035:13065   */\n      tag_436\n        /* \"#utility.yul\":13059:13064   */\n      dup2\n        /* \"#utility.yul\":13035:13065   */\n      tag_261\n      jump\t// in\n    tag_436:\n        /* \"#utility.yul\":12934:13071   */\n      swap3\n      swap2\n      pop\n      pop\n      jump\t// out\n        /* \"#utility.yul\":13077:13422   */\n    tag_97:\n        /* \"#utility.yul\":13144:13150   */\n      0x00\n        /* \"#utility.yul\":13193:13195   */\n      0x20\n        /* \"#utility.yul\":13181:13190   */\n      dup3\n        /* \"#utility.yul\":13172:13179   */\n      dup5\n        /* \"#utility.yul\":13168:13191   */\n      sub\n        /* \"#utility.yul\":13164:13196   */\n      slt\n        /* \"#utility.yul\":13161:13280   */\n      iszero\n      tag_438\n      jumpi\n        /* \"#utility.yul\":13199:13278   */\n      tag_439\n      tag_244\n      jump\t// in\n    tag_439:\n        /* \"#utility.yul\":13161:13280   */\n    tag_438:\n        /* \"#utility.yul\":13319:13320   */\n      0x00\n        /* \"#utility.yul\":13344:13405   */\n      tag_440\n        /* \"#utility.yul\":13397:13404   */\n      dup5\n        /* \"#utility.yul\":13388:13394   */\n      dup3\n        /* \"#utility.yul\":13377:13386   */\n      dup6\n        /* \"#utility.yul\":13373:13395   */\n      add\n        /* \"#utility.yul\":13344:13405   */\n      tag_281\n      jump\t// in\n    tag_440:\n        /* \"#utility.yul\":13334:13405   */\n      swap2\n      pop\n        /* \"#utility.yul\":13290:13415   */\n      pop\n        /* \"#utility.yul\":13077:13422   */\n      swap3\n      swap2\n      pop\n      pop\n      jump\t// out\n        /* \"#utility.yul\":13428:13550   */\n    tag_282:\n        /* \"#utility.yul\":13501:13525   */\n      tag_442\n        /* \"#utility.yul\":13519:13524   */\n      dup2\n        /* \"#utility.yul\":13501:13525   */\n      tag_258\n      jump\t// in\n    tag_442:\n        /* \"#utility.yul\":13494:13499   */\n      dup2\n        /* \"#utility.yul\":13491:13526   */\n      eq\n        /* \"#utility.yul\":13481:13544   */\n      tag_443\n      jumpi\n        /* \"#utility.yul\":13540:13541   */\n      0x00\n        /* \"#utility.yul\":13537:13538   */\n      dup1\n        /* \"#utility.yul\":13530:13542   */\n      revert\n        /* \"#utility.yul\":13481:13544   */\n    tag_443:\n        /* \"#utility.yul\":13428:13550   */\n      pop\n      jump\t// out\n        /* \"#utility.yul\":13556:13699   */\n    tag_283:\n        /* \"#utility.yul\":13613:13618   */\n      0x00\n        /* \"#utility.yul\":13644:13650   */\n      dup2\n        /* \"#utility.yul\":13638:13651   */\n      mload\n        /* \"#utility.yul\":13629:13651   */\n      swap1\n      pop\n        /* \"#utility.yul\":13660:13693   */\n      tag_445\n        /* \"#utility.yul\":13687:13692   */\n      dup2\n        /* \"#utility.yul\":13660:13693   */\n      tag_282\n      jump\t// in\n    tag_445:\n        /* \"#utility.yul\":13556:13699   */\n      swap3\n      swap2\n      pop\n      pop\n      jump\t// out\n        /* \"#utility.yul\":13705:14056   */\n    tag_102:\n        /* \"#utility.yul\":13775:13781   */\n      0x00\n        /* \"#utility.yul\":13824:13826   */\n      0x20\n        /* \"#utility.yul\":13812:13821   */\n      dup3\n        /* \"#utility.yul\":13803:13810   */\n      dup5\n        /* \"#utility.yul\":13799:13822   */\n      sub\n        /* \"#utility.yul\":13795:13827   */\n      slt\n        /* \"#utility.yul\":13792:13911   */\n      iszero\n      tag_447\n      jumpi\n        /* \"#utility.yul\":13830:13909   */\n      tag_448\n      tag_244\n      jump\t// in\n    tag_448:\n        /* \"#utility.yul\":13792:13911   */\n    tag_447:\n        /* \"#utility.yul\":13950:13951   */\n      0x00\n        /* \"#utility.yul\":13975:14039   */\n      tag_449\n        /* \"#utility.yul\":14031:14038   */\n      dup5\n        /* \"#utility.yul\":14022:14028   */\n      dup3\n        /* \"#utility.yul\":14011:14020   */\n      dup6\n        /* \"#utility.yul\":14007:14029   */\n      add\n        /* \"#utility.yul\":13975:14039   */\n      tag_283\n      jump\t// in\n    tag_449:\n        /* \"#utility.yul\":13965:14039   */\n      swap2\n      pop\n        /* \"#utility.yul\":13921:14049   */\n      pop\n        /* \"#utility.yul\":13705:14056   */\n      swap3\n      swap2\n      pop\n      pop\n      jump\t// out\n        /* \"#utility.yul\":14062:14726   */\n    tag_104:\n        /* \"#utility.yul\":14267:14271   */\n      0x00\n        /* \"#utility.yul\":14305:14308   */\n      0xa0\n        /* \"#utility.yul\":14294:14303   */\n      dup3\n        /* \"#utility.yul\":14290:14309   */\n      add\n        /* \"#utility.yul\":14282:14309   */\n      swap1\n      pop\n        /* \"#utility.yul\":14319:14390   */\n      tag_451\n        /* \"#utility.yul\":14387:14388   */\n      0x00\n        /* \"#utility.yul\":14376:14385   */\n      dup4\n        /* \"#utility.yul\":14372:14389   */\n      add\n        /* \"#utility.yul\":14363:14369   */\n      dup9\n        /* \"#utility.yul\":14319:14390   */\n      tag_260\n      jump\t// in\n    tag_451:\n        /* \"#utility.yul\":14400:14472   */\n      tag_452\n        /* \"#utility.yul\":14468:14470   */\n      0x20\n        /* \"#utility.yul\":14457:14466   */\n      dup4\n        /* \"#utility.yul\":14453:14471   */\n      add\n        /* \"#utility.yul\":14444:14450   */\n      dup8\n        /* \"#utility.yul\":14400:14472   */\n      tag_260\n      jump\t// in\n    tag_452:\n        /* \"#utility.yul\":14482:14554   */\n      tag_453\n        /* \"#utility.yul\":14550:14552   */\n      0x40\n        /* \"#utility.yul\":14539:14548   */\n      dup4\n        /* \"#utility.yul\":14535:14553   */\n      add\n        /* \"#utility.yul\":14526:14532   */\n      dup7\n        /* \"#utility.yul\":14482:14554   */\n      tag_280\n      jump\t// in\n    tag_453:\n        /* \"#utility.yul\":14564:14636   */\n      tag_454\n        /* \"#utility.yul\":14632:14634   */\n      0x60\n        /* \"#utility.yul\":14621:14630   */\n      dup4\n        /* \"#utility.yul\":14617:14635   */\n      add\n        /* \"#utility.yul\":14608:14614   */\n      dup6\n        /* \"#utility.yul\":14564:14636   */\n      tag_260\n      jump\t// in\n    tag_454:\n        /* \"#utility.yul\":14646:14719   */\n      tag_455\n        /* \"#utility.yul\":14714:14717   */\n      0x80\n        /* \"#utility.yul\":14703:14712   */\n      dup4\n        /* \"#utility.yul\":14699:14718   */\n      add\n        /* \"#utility.yul\":14690:14696   */\n      dup5\n        /* \"#utility.yul\":14646:14719   */\n      tag_280\n      jump\t// in\n    tag_455:\n        /* \"#utility.yul\":14062:14726   */\n      swap7\n      swap6\n      pop\n      pop\n      pop\n      pop\n      pop\n      pop\n      jump\t// out\n        /* \"#utility.yul\":14732:14879   */\n    tag_284:\n        /* \"#utility.yul\":14833:14844   */\n      0x00\n        /* \"#utility.yul\":14870:14873   */\n      dup2\n        /* \"#utility.yul\":14855:14873   */\n      swap1\n      pop\n        /* \"#utility.yul\":14732:14879   */\n      swap3\n      swap2\n      pop\n      pop\n      jump\t// out\n        /* \"#utility.yul\":14885:14999   */\n    tag_285:\n      pop\n      jump\t// out\n        /* \"#utility.yul\":15005:15403   */\n    tag_286:\n        /* \"#utility.yul\":15164:15167   */\n      0x00\n        /* \"#utility.yul\":15185:15268   */\n      tag_459\n        /* \"#utility.yul\":15266:15267   */\n      0x00\n        /* \"#utility.yul\":15261:15264   */\n      dup4\n        /* \"#utility.yul\":15185:15268   */\n      tag_284\n      jump\t// in\n    tag_459:\n        /* \"#utility.yul\":15178:15268   */\n      swap2\n      pop\n        /* \"#utility.yul\":15277:15370   */\n      tag_460\n        /* \"#utility.yul\":15366:15369   */\n      dup3\n        /* \"#utility.yul\":15277:15370   */\n      tag_285\n      jump\t// in\n    tag_460:\n        /* \"#utility.yul\":15395:15396   */\n      0x00\n        /* \"#utility.yul\":15390:15393   */\n      dup3\n        /* \"#utility.yul\":15386:15397   */\n      add\n        /* \"#utility.yul\":15379:15397   */\n      swap1\n      pop\n        /* \"#utility.yul\":15005:15403   */\n      swap2\n      swap1\n      pop\n      jump\t// out\n        /* \"#utility.yul\":15409:15788   */\n    tag_110:\n        /* \"#utility.yul\":15593:15596   */\n      0x00\n        /* \"#utility.yul\":15615:15762   */\n      tag_462\n        /* \"#utility.yul\":15758:15761   */\n      dup3\n        /* \"#utility.yul\":15615:15762   */\n      tag_286\n      jump\t// in\n    tag_462:\n        /* \"#utility.yul\":15608:15762   */\n      swap2\n      pop\n        /* \"#utility.yul\":15779:15782   */\n      dup2\n        /* \"#utility.yul\":15772:15782   */\n      swap1\n      pop\n        /* \"#utility.yul\":15409:15788   */\n      swap2\n      swap1\n      pop\n      jump\t// out\n        /* \"#utility.yul\":15794:16236   */\n    tag_116:\n        /* \"#utility.yul\":15943:15947   */\n      0x00\n        /* \"#utility.yul\":15981:15983   */\n      0x60\n        /* \"#utility.yul\":15970:15979   */\n      dup3\n        /* \"#utility.yul\":15966:15984   */\n      add\n        /* \"#utility.yul\":15958:15984   */\n      swap1\n      pop\n        /* \"#utility.yul\":15994:16065   */\n      tag_464\n        /* \"#utility.yul\":16062:16063   */\n      0x00\n        /* \"#utility.yul\":16051:16060   */\n      dup4\n        /* \"#utility.yul\":16047:16064   */\n      add\n        /* \"#utility.yul\":16038:16044   */\n      dup7\n        /* \"#utility.yul\":15994:16065   */\n      tag_260\n      jump\t// in\n    tag_464:\n        /* \"#utility.yul\":16075:16147   */\n      tag_465\n        /* \"#utility.yul\":16143:16145   */\n      0x20\n        /* \"#utility.yul\":16132:16141   */\n      dup4\n        /* \"#utility.yul\":16128:16146   */\n      add\n        /* \"#utility.yul\":16119:16125   */\n      dup6\n        /* \"#utility.yul\":16075:16147   */\n      tag_260\n      jump\t// in\n    tag_465:\n        /* \"#utility.yul\":16157:16229   */\n      tag_466\n        /* \"#utility.yul\":16225:16227   */\n      0x40\n        /* \"#utility.yul\":16214:16223   */\n      dup4\n        /* \"#utility.yul\":16210:16228   */\n      add\n        /* \"#utility.yul\":16201:16207   */\n      dup5\n        /* \"#utility.yul\":16157:16229   */\n      tag_280\n      jump\t// in\n    tag_466:\n        /* \"#utility.yul\":15794:16236   */\n      swap5\n      swap4\n      pop\n      pop\n      pop\n      pop\n      jump\t// out\n        /* \"#utility.yul\":16242:16411   */\n    tag_287:\n        /* \"#utility.yul\":16326:16337   */\n      0x00\n        /* \"#utility.yul\":16360:16366   */\n      dup3\n        /* \"#utility.yul\":16355:16358   */\n      dup3\n        /* \"#utility.yul\":16348:16367   */\n      mstore\n        /* \"#utility.yul\":16400:16404   */\n      0x20\n        /* \"#utility.yul\":16395:16398   */\n      dup3\n        /* \"#utility.yul\":16391:16405   */\n      add\n        /* \"#utility.yul\":16376:16405   */\n      swap1\n      pop\n        /* \"#utility.yul\":16242:16411   */\n      swap3\n      swap2\n      pop\n      pop\n      jump\t// out\n        /* \"#utility.yul\":16417:16589   */\n    tag_288:\n        /* \"#utility.yul\":16557:16581   */\n      0x4d7573742062652070726f706f736564206f776e657200000000000000000000\n        /* \"#utility.yul\":16553:16554   */\n      0x00\n        /* \"#utility.yul\":16545:16551   */\n      dup3\n        /* \"#utility.yul\":16541:16555   */\n      add\n        /* \"#utility.yul\":16534:16582   */\n      mstore\n        /* \"#utility.yul\":16417:16589   */\n      pop\n      jump\t// out\n        /* \"#utility.yul\":16595:16961   */\n    tag_289:\n        /* \"#utility.yul\":16737:16740   */\n      0x00\n        /* \"#utility.yul\":16758:16825   */\n      tag_470\n        /* \"#utility.yul\":16822:16824   */\n      0x16\n        /* \"#utility.yul\":16817:16820   */\n      dup4\n        /* \"#utility.yul\":16758:16825   */\n      tag_287\n      jump\t// in\n    tag_470:\n        /* \"#utility.yul\":16751:16825   */\n      swap2\n      pop\n        /* \"#utility.yul\":16834:16927   */\n      tag_471\n        /* \"#utility.yul\":16923:16926   */\n      dup3\n        /* \"#utility.yul\":16834:16927   */\n      tag_288\n      jump\t// in\n    tag_471:\n        /* \"#utility.yul\":16952:16954   */\n      0x20\n        /* \"#utility.yul\":16947:16950   */\n      dup3\n        /* \"#utility.yul\":16943:16955   */\n      add\n        /* \"#utility.yul\":16936:16955   */\n      swap1\n      pop\n        /* \"#utility.yul\":16595:16961   */\n      swap2\n      swap1\n      pop\n      jump\t// out\n        /* \"#utility.yul\":16967:17386   */\n    tag_120:\n        /* \"#utility.yul\":17133:17137   */\n      0x00\n        /* \"#utility.yul\":17171:17173   */\n      0x20\n        /* \"#utility.yul\":17160:17169   */\n      dup3\n        /* \"#utility.yul\":17156:17174   */\n      add\n        /* \"#utility.yul\":17148:17174   */\n      swap1\n      pop\n        /* \"#utility.yul\":17220:17229   */\n      dup2\n        /* \"#utility.yul\":17214:17218   */\n      dup2\n        /* \"#utility.yul\":17210:17230   */\n      sub\n        /* \"#utility.yul\":17206:17207   */\n      0x00\n        /* \"#utility.yul\":17195:17204   */\n      dup4\n        /* \"#utility.yul\":17191:17208   */\n      add\n        /* \"#utility.yul\":17184:17231   */\n      mstore\n        /* \"#utility.yul\":17248:17379   */\n      tag_473\n        /* \"#utility.yul\":17374:17378   */\n      dup2\n        /* \"#utility.yul\":17248:17379   */\n      tag_289\n      jump\t// in\n    tag_473:\n        /* \"#utility.yul\":17240:17379   */\n      swap1\n      pop\n        /* \"#utility.yul\":16967:17386   */\n      swap2\n      swap1\n      pop\n      jump\t// out\n        /* \"#utility.yul\":17392:17572   */\n    tag_290:\n        /* \"#utility.yul\":17440:17517   */\n      0x4e487b7100000000000000000000000000000000000000000000000000000000\n        /* \"#utility.yul\":17437:17438   */\n      0x00\n        /* \"#utility.yul\":17430:17518   */\n      mstore\n        /* \"#utility.yul\":17537:17541   */\n      0x11\n        /* \"#utility.yul\":17534:17535   */\n      0x04\n        /* \"#utility.yul\":17527:17542   */\n      mstore\n        /* \"#utility.yul\":17561:17565   */\n      0x24\n        /* \"#utility.yul\":17558:17559   */\n      0x00\n        /* \"#utility.yul\":17551:17566   */\n      revert\n        /* \"#utility.yul\":17578:17769   */\n    tag_137:\n        /* \"#utility.yul\":17618:17621   */\n      0x00\n        /* \"#utility.yul\":17637:17657   */\n      tag_476\n        /* \"#utility.yul\":17655:17656   */\n      dup3\n        /* \"#utility.yul\":17637:17657   */\n      tag_255\n      jump\t// in\n    tag_476:\n        /* \"#utility.yul\":17632:17657   */\n      swap2\n      pop\n        /* \"#utility.yul\":17671:17691   */\n      tag_477\n        /* \"#utility.yul\":17689:17690   */\n      dup4\n        /* \"#utility.yul\":17671:17691   */\n      tag_255\n      jump\t// in\n    tag_477:\n        /* \"#utility.yul\":17666:17691   */\n      swap3\n      pop\n        /* \"#utility.yul\":17714:17715   */\n      dup3\n        /* \"#utility.yul\":17711:17712   */\n      dup3\n        /* \"#utility.yul\":17707:17716   */\n      add\n        /* \"#utility.yul\":17700:17716   */\n      swap1\n      pop\n        /* \"#utility.yul\":17735:17738   */\n      dup1\n        /* \"#utility.yul\":17732:17733   */\n      dup3\n        /* \"#utility.yul\":17729:17739   */\n      gt\n        /* \"#utility.yul\":17726:17762   */\n      iszero\n      tag_478\n      jumpi\n        /* \"#utility.yul\":17742:17760   */\n      tag_479\n      tag_290\n      jump\t// in\n    tag_479:\n        /* \"#utility.yul\":17726:17762   */\n    tag_478:\n        /* \"#utility.yul\":17578:17769   */\n      swap3\n      swap2\n      pop\n      pop\n      jump\t// out\n        /* \"#utility.yul\":17775:17947   */\n    tag_291:\n        /* \"#utility.yul\":17915:17939   */\n      0x4f6e6c792063616c6c61626c65206279206f776e657200000000000000000000\n        /* \"#utility.yul\":17911:17912   */\n      0x00\n        /* \"#utility.yul\":17903:17909   */\n      dup3\n        /* \"#utility.yul\":17899:17913   */\n      add\n        /* \"#utility.yul\":17892:17940   */\n      mstore\n        /* \"#utility.yul\":17775:17947   */\n      pop\n      jump\t// out\n        /* \"#utility.yul\":17953:18319   */\n    tag_292:\n        /* \"#utility.yul\":18095:18098   */\n      0x00\n        /* \"#utility.yul\":18116:18183   */\n      tag_482\n        /* \"#utility.yul\":18180:18182   */\n      0x16\n        /* \"#utility.yul\":18175:18178   */\n      dup4\n        /* \"#utility.yul\":18116:18183   */\n      tag_287\n      jump\t// in\n    tag_482:\n        /* \"#utility.yul\":18109:18183   */\n      swap2\n      pop\n        /* \"#utility.yul\":18192:18285   */\n      tag_483\n        /* \"#utility.yul\":18281:18284   */\n      dup3\n        /* \"#utility.yul\":18192:18285   */\n      tag_291\n      jump\t// in\n    tag_483:\n        /* \"#utility.yul\":18310:18312   */\n      0x20\n        /* \"#utility.yul\":18305:18308   */\n      dup3\n        /* \"#utility.yul\":18301:18313   */\n      add\n        /* \"#utility.yul\":18294:18313   */\n      swap1\n      pop\n        /* \"#utility.yul\":17953:18319   */\n      swap2\n      swap1\n      pop\n      jump\t// out\n        /* \"#utility.yul\":18325:18744   */\n    tag_176:\n        /* \"#utility.yul\":18491:18495   */\n      0x00\n        /* \"#utility.yul\":18529:18531   */\n      0x20\n        /* \"#utility.yul\":18518:18527   */\n      dup3\n        /* \"#utility.yul\":18514:18532   */\n      add\n        /* \"#utility.yul\":18506:18532   */\n      swap1\n      pop\n        /* \"#utility.yul\":18578:18587   */\n      dup2\n        /* \"#utility.yul\":18572:18576   */\n      dup2\n        /* \"#utility.yul\":18568:18588   */\n      sub\n        /* \"#utility.yul\":18564:18565   */\n      0x00\n        /* \"#utility.yul\":18553:18562   */\n      dup4\n        /* \"#utility.yul\":18549:18566   */\n      add\n        /* \"#utility.yul\":18542:18589   */\n      mstore\n        /* \"#utility.yul\":18606:18737   */\n      tag_485\n        /* \"#utility.yul\":18732:18736   */\n      dup2\n        /* \"#utility.yul\":18606:18737   */\n      tag_292\n      jump\t// in\n    tag_485:\n        /* \"#utility.yul\":18598:18737   */\n      swap1\n      pop\n        /* \"#utility.yul\":18325:18744   */\n      swap2\n      swap1\n      pop\n      jump\t// out\n        /* \"#utility.yul\":18750:18930   */\n    tag_186:\n        /* \"#utility.yul\":18798:18875   */\n      0x4e487b7100000000000000000000000000000000000000000000000000000000\n        /* \"#utility.yul\":18795:18796   */\n      0x00\n        /* \"#utility.yul\":18788:18876   */\n      mstore\n        /* \"#utility.yul\":18895:18899   */\n      0x41\n        /* \"#utility.yul\":18892:18893   */\n      0x04\n        /* \"#utility.yul\":18885:18900   */\n      mstore\n        /* \"#utility.yul\":18919:18923   */\n      0x24\n        /* \"#utility.yul\":18916:18917   */\n      0x00\n        /* \"#utility.yul\":18909:18924   */\n      revert\n        /* \"#utility.yul\":18936:19116   */\n    tag_193:\n        /* \"#utility.yul\":18984:19061   */\n      0x4e487b7100000000000000000000000000000000000000000000000000000000\n        /* \"#utility.yul\":18981:18982   */\n      0x00\n        /* \"#utility.yul\":18974:19062   */\n      mstore\n        /* \"#utility.yul\":19081:19085   */\n      0x32\n        /* \"#utility.yul\":19078:19079   */\n      0x04\n        /* \"#utility.yul\":19071:19086   */\n      mstore\n        /* \"#utility.yul\":19105:19109   */\n      0x24\n        /* \"#utility.yul\":19102:19103   */\n      0x00\n        /* \"#utility.yul\":19095:19110   */\n      revert\n        /* \"#utility.yul\":19122:19295   */\n    tag_293:\n        /* \"#utility.yul\":19262:19287   */\n      0x43616e6e6f74207472616e7366657220746f2073656c66000000000000000000\n        /* \"#utility.yul\":19258:19259   */\n      0x00\n        /* \"#utility.yul\":19250:19256   */\n      dup3\n        /* \"#utility.yul\":19246:19260   */\n      add\n        /* \"#utility.yul\":19239:19288   */\n      mstore\n        /* \"#utility.yul\":19122:19295   */\n      pop\n      jump\t// out\n        /* \"#utility.yul\":19301:19667   */\n    tag_294:\n        /* \"#utility.yul\":19443:19446   */\n      0x00\n        /* \"#utility.yul\":19464:19531   */\n      tag_490\n        /* \"#utility.yul\":19528:19530   */\n      0x17\n        /* \"#utility.yul\":19523:19526   */\n      dup4\n        /* \"#utility.yul\":19464:19531   */\n      tag_287\n      jump\t// in\n    tag_490:\n        /* \"#utility.yul\":19457:19531   */\n      swap2\n      pop\n        /* \"#utility.yul\":19540:19633   */\n      tag_491\n        /* \"#utility.yul\":19629:19632   */\n      dup3\n        /* \"#utility.yul\":19540:19633   */\n      tag_293\n      jump\t// in\n    tag_491:\n        /* \"#utility.yul\":19658:19660   */\n      0x20\n        /* \"#utility.yul\":19653:19656   */\n      dup3\n        /* \"#utility.yul\":19649:19661   */\n      add\n        /* \"#utility.yul\":19642:19661   */\n      swap1\n      pop\n        /* \"#utility.yul\":19301:19667   */\n      swap2\n      swap1\n      pop\n      jump\t// out\n        /* \"#utility.yul\":19673:20092   */\n    tag_200:\n        /* \"#utility.yul\":19839:19843   */\n      0x00\n        /* \"#utility.yul\":19877:19879   */\n      0x20\n        /* \"#utility.yul\":19866:19875   */\n      dup3\n        /* \"#utility.yul\":19862:19880   */\n      add\n        /* \"#utility.yul\":19854:19880   */\n      swap1\n      pop\n        /* \"#utility.yul\":19926:19935   */\n      dup2\n        /* \"#utility.yul\":19920:19924   */\n      dup2\n        /* \"#utility.yul\":19916:19936   */\n      sub\n        /* \"#utility.yul\":19912:19913   */\n      0x00\n        /* \"#utility.yul\":19901:19910   */\n      dup4\n        /* \"#utility.yul\":19897:19914   */\n      add\n        /* \"#utility.yul\":19890:19937   */\n      mstore\n        /* \"#utility.yul\":19954:20085   */\n      tag_493\n        /* \"#utility.yul\":20080:20084   */\n      dup2\n        /* \"#utility.yul\":19954:20085   */\n      tag_294\n      jump\t// in\n    tag_493:\n        /* \"#utility.yul\":19946:20085   */\n      swap1\n      pop\n        /* \"#utility.yul\":19673:20092   */\n      swap2\n      swap1\n      pop\n      jump\t// out\n        /* \"#utility.yul\":20098:20327   */\n    tag_295:\n        /* \"#utility.yul\":20238:20272   */\n      0x5361666545524332303a204552433230206f7065726174696f6e20646964206e\n        /* \"#utility.yul\":20234:20235   */\n      0x00\n        /* \"#utility.yul\":20226:20232   */\n      dup3\n        /* \"#utility.yul\":20222:20236   */\n      add\n        /* \"#utility.yul\":20215:20273   */\n      mstore\n        /* \"#utility.yul\":20307:20319   */\n      0x6f74207375636365656400000000000000000000000000000000000000000000\n        /* \"#utility.yul\":20302:20304   */\n      0x20\n        /* \"#utility.yul\":20294:20300   */\n      dup3\n        /* \"#utility.yul\":20290:20305   */\n      add\n        /* \"#utility.yul\":20283:20320   */\n      mstore\n        /* \"#utility.yul\":20098:20327   */\n      pop\n      jump\t// out\n        /* \"#utility.yul\":20333:20699   */\n    tag_296:\n        /* \"#utility.yul\":20475:20478   */\n      0x00\n        /* \"#utility.yul\":20496:20563   */\n      tag_496\n        /* \"#utility.yul\":20560:20562   */\n      0x2a\n        /* \"#utility.yul\":20555:20558   */\n      dup4\n        /* \"#utility.yul\":20496:20563   */\n      tag_287\n      jump\t// in\n    tag_496:\n        /* \"#utility.yul\":20489:20563   */\n      swap2\n      pop\n        /* \"#utility.yul\":20572:20665   */\n      tag_497\n        /* \"#utility.yul\":20661:20664   */\n      dup3\n        /* \"#utility.yul\":20572:20665   */\n      tag_295\n      jump\t// in\n    tag_497:\n        /* \"#utility.yul\":20690:20692   */\n      0x40\n        /* \"#utility.yul\":20685:20688   */\n      dup3\n        /* \"#utility.yul\":20681:20693   */\n      add\n        /* \"#utility.yul\":20674:20693   */\n      swap1\n      pop\n        /* \"#utility.yul\":20333:20699   */\n      swap2\n      swap1\n      pop\n      jump\t// out\n        /* \"#utility.yul\":20705:21124   */\n    tag_208:\n        /* \"#utility.yul\":20871:20875   */\n      0x00\n        /* \"#utility.yul\":20909:20911   */\n      0x20\n        /* \"#utility.yul\":20898:20907   */\n      dup3\n        /* \"#utility.yul\":20894:20912   */\n      add\n        /* \"#utility.yul\":20886:20912   */\n      swap1\n      pop\n        /* \"#utility.yul\":20958:20967   */\n      dup2\n        /* \"#utility.yul\":20952:20956   */\n      dup2\n        /* \"#utility.yul\":20948:20968   */\n      sub\n        /* \"#utility.yul\":20944:20945   */\n      0x00\n        /* \"#utility.yul\":20933:20942   */\n      dup4\n        /* \"#utility.yul\":20929:20946   */\n      add\n        /* \"#utility.yul\":20922:20969   */\n      mstore\n        /* \"#utility.yul\":20986:21117   */\n      tag_499\n        /* \"#utility.yul\":21112:21116   */\n      dup2\n        /* \"#utility.yul\":20986:21117   */\n      tag_296\n      jump\t// in\n    tag_499:\n        /* \"#utility.yul\":20978:21117   */\n      swap1\n      pop\n        /* \"#utility.yul\":20705:21124   */\n      swap2\n      swap1\n      pop\n      jump\t// out\n        /* \"#utility.yul\":21130:21229   */\n    tag_297:\n        /* \"#utility.yul\":21201:21222   */\n      tag_501\n        /* \"#utility.yul\":21216:21221   */\n      dup2\n        /* \"#utility.yul\":21201:21222   */\n      tag_249\n      jump\t// in\n    tag_501:\n        /* \"#utility.yul\":21196:21199   */\n      dup3\n        /* \"#utility.yul\":21189:21223   */\n      mstore\n        /* \"#utility.yul\":21130:21229   */\n      pop\n      pop\n      jump\t// out\n        /* \"#utility.yul\":21311:21856   */\n    tag_298:\n        /* \"#utility.yul\":21478:21482   */\n      0x40\n        /* \"#utility.yul\":21473:21476   */\n      dup3\n        /* \"#utility.yul\":21469:21483   */\n      add\n        /* \"#utility.yul\":21569:21573   */\n      0x00\n        /* \"#utility.yul\":21562:21567   */\n      dup3\n        /* \"#utility.yul\":21558:21574   */\n      add\n        /* \"#utility.yul\":21552:21575   */\n      mload\n        /* \"#utility.yul\":21588:21651   */\n      tag_503\n        /* \"#utility.yul\":21645:21649   */\n      0x00\n        /* \"#utility.yul\":21640:21643   */\n      dup6\n        /* \"#utility.yul\":21636:21650   */\n      add\n        /* \"#utility.yul\":21622:21634   */\n      dup3\n        /* \"#utility.yul\":21588:21651   */\n      tag_274\n      jump\t// in\n    tag_503:\n        /* \"#utility.yul\":21493:21661   */\n      pop\n        /* \"#utility.yul\":21763:21767   */\n      0x20\n        /* \"#utility.yul\":21756:21761   */\n      dup3\n        /* \"#utility.yul\":21752:21768   */\n      add\n        /* \"#utility.yul\":21746:21769   */\n      mload\n        /* \"#utility.yul\":21782:21839   */\n      tag_504\n        /* \"#utility.yul\":21833:21837   */\n      0x20\n        /* \"#utility.yul\":21828:21831   */\n      dup6\n        /* \"#utility.yul\":21824:21838   */\n      add\n        /* \"#utility.yul\":21810:21822   */\n      dup3\n        /* \"#utility.yul\":21782:21839   */\n      tag_297\n      jump\t// in\n    tag_504:\n        /* \"#utility.yul\":21671:21849   */\n      pop\n        /* \"#utility.yul\":21447:21856   */\n      pop\n        /* \"#utility.yul\":21311:21856   */\n      pop\n      pop\n      jump\t// out\n        /* \"#utility.yul\":21862:22224   */\n    tag_211:\n        /* \"#utility.yul\":22025:22029   */\n      0x00\n        /* \"#utility.yul\":22063:22065   */\n      0x40\n        /* \"#utility.yul\":22052:22061   */\n      dup3\n        /* \"#utility.yul\":22048:22066   */\n      add\n        /* \"#utility.yul\":22040:22066   */\n      swap1\n      pop\n        /* \"#utility.yul\":22076:22217   */\n      tag_506\n        /* \"#utility.yul\":22214:22215   */\n      0x00\n        /* \"#utility.yul\":22203:22212   */\n      dup4\n        /* \"#utility.yul\":22199:22216   */\n      add\n        /* \"#utility.yul\":22190:22196   */\n      dup5\n        /* \"#utility.yul\":22076:22217   */\n      tag_298\n      jump\t// in\n    tag_506:\n        /* \"#utility.yul\":21862:22224   */\n      swap3\n      swap2\n      pop\n      pop\n      jump\t// out\n        /* \"#utility.yul\":22230:22455   */\n    tag_299:\n        /* \"#utility.yul\":22370:22404   */\n      0x416464726573733a20696e73756666696369656e742062616c616e636520666f\n        /* \"#utility.yul\":22366:22367   */\n      0x00\n        /* \"#utility.yul\":22358:22364   */\n      dup3\n        /* \"#utility.yul\":22354:22368   */\n      add\n        /* \"#utility.yul\":22347:22405   */\n      mstore\n        /* \"#utility.yul\":22439:22447   */\n      0x722063616c6c0000000000000000000000000000000000000000000000000000\n        /* \"#utility.yul\":22434:22436   */\n      0x20\n        /* \"#utility.yul\":22426:22432   */\n      dup3\n        /* \"#utility.yul\":22422:22437   */\n      add\n        /* \"#utility.yul\":22415:22448   */\n      mstore\n        /* \"#utility.yul\":22230:22455   */\n      pop\n      jump\t// out\n        /* \"#utility.yul\":22461:22827   */\n    tag_300:\n        /* \"#utility.yul\":22603:22606   */\n      0x00\n        /* \"#utility.yul\":22624:22691   */\n      tag_509\n        /* \"#utility.yul\":22688:22690   */\n      0x26\n        /* \"#utility.yul\":22683:22686   */\n      dup4\n        /* \"#utility.yul\":22624:22691   */\n      tag_287\n      jump\t// in\n    tag_509:\n        /* \"#utility.yul\":22617:22691   */\n      swap2\n      pop\n        /* \"#utility.yul\":22700:22793   */\n      tag_510\n        /* \"#utility.yul\":22789:22792   */\n      dup3\n        /* \"#utility.yul\":22700:22793   */\n      tag_299\n      jump\t// in\n    tag_510:\n        /* \"#utility.yul\":22818:22820   */\n      0x40\n        /* \"#utility.yul\":22813:22816   */\n      dup3\n        /* \"#utility.yul\":22809:22821   */\n      add\n        /* \"#utility.yul\":22802:22821   */\n      swap1\n      pop\n        /* \"#utility.yul\":22461:22827   */\n      swap2\n      swap1\n      pop\n      jump\t// out\n        /* \"#utility.yul\":22833:23252   */\n    tag_218:\n        /* \"#utility.yul\":22999:23003   */\n      0x00\n        /* \"#utility.yul\":23037:23039   */\n      0x20\n        /* \"#utility.yul\":23026:23035   */\n      dup3\n        /* \"#utility.yul\":23022:23040   */\n      add\n        /* \"#utility.yul\":23014:23040   */\n      swap1\n      pop\n        /* \"#utility.yul\":23086:23095   */\n      dup2\n        /* \"#utility.yul\":23080:23084   */\n      dup2\n        /* \"#utility.yul\":23076:23096   */\n      sub\n        /* \"#utility.yul\":23072:23073   */\n      0x00\n        /* \"#utility.yul\":23061:23070   */\n      dup4\n        /* \"#utility.yul\":23057:23074   */\n      add\n        /* \"#utility.yul\":23050:23097   */\n      mstore\n        /* \"#utility.yul\":23114:23245   */\n      tag_512\n        /* \"#utility.yul\":23240:23244   */\n      dup2\n        /* \"#utility.yul\":23114:23245   */\n      tag_300\n      jump\t// in\n    tag_512:\n        /* \"#utility.yul\":23106:23245   */\n      swap1\n      pop\n        /* \"#utility.yul\":22833:23252   */\n      swap2\n      swap1\n      pop\n      jump\t// out\n        /* \"#utility.yul\":23258:23644   */\n    tag_301:\n        /* \"#utility.yul\":23362:23365   */\n      0x00\n        /* \"#utility.yul\":23390:23428   */\n      tag_514\n        /* \"#utility.yul\":23422:23427   */\n      dup3\n        /* \"#utility.yul\":23390:23428   */\n      tag_265\n      jump\t// in\n    tag_514:\n        /* \"#utility.yul\":23444:23532   */\n      tag_515\n        /* \"#utility.yul\":23525:23531   */\n      dup2\n        /* \"#utility.yul\":23520:23523   */\n      dup6\n        /* \"#utility.yul\":23444:23532   */\n      tag_284\n      jump\t// in\n    tag_515:\n        /* \"#utility.yul\":23437:23532   */\n      swap4\n      pop\n        /* \"#utility.yul\":23541:23606   */\n      tag_516\n        /* \"#utility.yul\":23599:23605   */\n      dup2\n        /* \"#utility.yul\":23594:23597   */\n      dup6\n        /* \"#utility.yul\":23587:23591   */\n      0x20\n        /* \"#utility.yul\":23580:23585   */\n      dup7\n        /* \"#utility.yul\":23576:23592   */\n      add\n        /* \"#utility.yul\":23541:23606   */\n      tag_267\n      jump\t// in\n    tag_516:\n        /* \"#utility.yul\":23631:23637   */\n      dup1\n        /* \"#utility.yul\":23626:23629   */\n      dup5\n        /* \"#utility.yul\":23622:23638   */\n      add\n        /* \"#utility.yul\":23615:23638   */\n      swap2\n      pop\n        /* \"#utility.yul\":23366:23644   */\n      pop\n        /* \"#utility.yul\":23258:23644   */\n      swap3\n      swap2\n      pop\n      pop\n      jump\t// out\n        /* \"#utility.yul\":23650:23921   */\n    tag_220:\n        /* \"#utility.yul\":23780:23783   */\n      0x00\n        /* \"#utility.yul\":23802:23895   */\n      tag_518\n        /* \"#utility.yul\":23891:23894   */\n      dup3\n        /* \"#utility.yul\":23882:23888   */\n      dup5\n        /* \"#utility.yul\":23802:23895   */\n      tag_301\n      jump\t// in\n    tag_518:\n        /* \"#utility.yul\":23795:23895   */\n      swap2\n      pop\n        /* \"#utility.yul\":23912:23915   */\n      dup2\n        /* \"#utility.yul\":23905:23915   */\n      swap1\n      pop\n        /* \"#utility.yul\":23650:23921   */\n      swap3\n      swap2\n      pop\n      pop\n      jump\t// out\n        /* \"#utility.yul\":23927:24106   */\n    tag_302:\n        /* \"#utility.yul\":24067:24098   */\n      0x416464726573733a2063616c6c20746f206e6f6e2d636f6e7472616374000000\n        /* \"#utility.yul\":24063:24064   */\n      0x00\n        /* \"#utility.yul\":24055:24061   */\n      dup3\n        /* \"#utility.yul\":24051:24065   */\n      add\n        /* \"#utility.yul\":24044:24099   */\n      mstore\n        /* \"#utility.yul\":23927:24106   */\n      pop\n      jump\t// out\n        /* \"#utility.yul\":24112:24478   */\n    tag_303:\n        /* \"#utility.yul\":24254:24257   */\n      0x00\n        /* \"#utility.yul\":24275:24342   */\n      tag_521\n        /* \"#utility.yul\":24339:24341   */\n      0x1d\n        /* \"#utility.yul\":24334:24337   */\n      dup4\n        /* \"#utility.yul\":24275:24342   */\n      tag_287\n      jump\t// in\n    tag_521:\n        /* \"#utility.yul\":24268:24342   */\n      swap2\n      pop\n        /* \"#utility.yul\":24351:24444   */\n      tag_522\n        /* \"#utility.yul\":24440:24443   */\n      dup3\n        /* \"#utility.yul\":24351:24444   */\n      tag_302\n      jump\t// in\n    tag_522:\n        /* \"#utility.yul\":24469:24471   */\n      0x20\n        /* \"#utility.yul\":24464:24467   */\n      dup3\n        /* \"#utility.yul\":24460:24472   */\n      add\n        /* \"#utility.yul\":24453:24472   */\n      swap1\n      pop\n        /* \"#utility.yul\":24112:24478   */\n      swap2\n      swap1\n      pop\n      jump\t// out\n        /* \"#utility.yul\":24484:24903   */\n    tag_233:\n        /* \"#utility.yul\":24650:24654   */\n      0x00\n        /* \"#utility.yul\":24688:24690   */\n      0x20\n        /* \"#utility.yul\":24677:24686   */\n      dup3\n        /* \"#utility.yul\":24673:24691   */\n      add\n        /* \"#utility.yul\":24665:24691   */\n      swap1\n      pop\n        /* \"#utility.yul\":24737:24746   */\n      dup2\n        /* \"#utility.yul\":24731:24735   */\n      dup2\n        /* \"#utility.yul\":24727:24747   */\n      sub\n        /* \"#utility.yul\":24723:24724   */\n      0x00\n        /* \"#utility.yul\":24712:24721   */\n      dup4\n        /* \"#utility.yul\":24708:24725   */\n      add\n        /* \"#utility.yul\":24701:24748   */\n      mstore\n        /* \"#utility.yul\":24765:24896   */\n      tag_524\n        /* \"#utility.yul\":24891:24895   */\n      dup2\n        /* \"#utility.yul\":24765:24896   */\n      tag_303\n      jump\t// in\n    tag_524:\n        /* \"#utility.yul\":24757:24896   */\n      swap1\n      pop\n        /* \"#utility.yul\":24484:24903   */\n      swap2\n      swap1\n      pop\n      jump\t// out\n        /* \"#utility.yul\":24909:25008   */\n    tag_304:\n        /* \"#utility.yul\":24961:24967   */\n      0x00\n        /* \"#utility.yul\":24995:25000   */\n      dup2\n        /* \"#utility.yul\":24989:25001   */\n      mload\n        /* \"#utility.yul\":24979:25001   */\n      swap1\n      pop\n        /* \"#utility.yul\":24909:25008   */\n      swap2\n      swap1\n      pop\n      jump\t// out\n        /* \"#utility.yul\":25014:25391   */\n    tag_305:\n        /* \"#utility.yul\":25102:25105   */\n      0x00\n        /* \"#utility.yul\":25130:25169   */\n      tag_527\n        /* \"#utility.yul\":25163:25168   */\n      dup3\n        /* \"#utility.yul\":25130:25169   */\n      tag_304\n      jump\t// in\n    tag_527:\n        /* \"#utility.yul\":25185:25256   */\n      tag_528\n        /* \"#utility.yul\":25249:25255   */\n      dup2\n        /* \"#utility.yul\":25244:25247   */\n      dup6\n        /* \"#utility.yul\":25185:25256   */\n      tag_287\n      jump\t// in\n    tag_528:\n        /* \"#utility.yul\":25178:25256   */\n      swap4\n      pop\n        /* \"#utility.yul\":25265:25330   */\n      tag_529\n        /* \"#utility.yul\":25323:25329   */\n      dup2\n        /* \"#utility.yul\":25318:25321   */\n      dup6\n        /* \"#utility.yul\":25311:25315   */\n      0x20\n        /* \"#utility.yul\":25304:25309   */\n      dup7\n        /* \"#utility.yul\":25300:25316   */\n      add\n        /* \"#utility.yul\":25265:25330   */\n      tag_267\n      jump\t// in\n    tag_529:\n        /* \"#utility.yul\":25355:25384   */\n      tag_530\n        /* \"#utility.yul\":25377:25383   */\n      dup2\n        /* \"#utility.yul\":25355:25384   */\n      tag_268\n      jump\t// in\n    tag_530:\n        /* \"#utility.yul\":25350:25353   */\n      dup5\n        /* \"#utility.yul\":25346:25385   */\n      add\n        /* \"#utility.yul\":25339:25385   */\n      swap2\n      pop\n        /* \"#utility.yul\":25106:25391   */\n      pop\n        /* \"#utility.yul\":25014:25391   */\n      swap3\n      swap2\n      pop\n      pop\n      jump\t// out\n        /* \"#utility.yul\":25397:25710   */\n    tag_242:\n        /* \"#utility.yul\":25510:25514   */\n      0x00\n        /* \"#utility.yul\":25548:25550   */\n      0x20\n        /* \"#utility.yul\":25537:25546   */\n      dup3\n        /* \"#utility.yul\":25533:25551   */\n      add\n        /* \"#utility.yul\":25525:25551   */\n      swap1\n      pop\n        /* \"#utility.yul\":25597:25606   */\n      dup2\n        /* \"#utility.yul\":25591:25595   */\n      dup2\n        /* \"#utility.yul\":25587:25607   */\n      sub\n        /* \"#utility.yul\":25583:25584   */\n      0x00\n        /* \"#utility.yul\":25572:25581   */\n      dup4\n        /* \"#utility.yul\":25568:25585   */\n      add\n        /* \"#utility.yul\":25561:25608   */\n      mstore\n        /* \"#utility.yul\":25625:25703   */\n      tag_532\n        /* \"#utility.yul\":25698:25702   */\n      dup2\n        /* \"#utility.yul\":25689:25695   */\n      dup5\n        /* \"#utility.yul\":25625:25703   */\n      tag_305\n      jump\t// in\n    tag_532:\n        /* \"#utility.yul\":25617:25703   */\n      swap1\n      pop\n        /* \"#utility.yul\":25397:25710   */\n      swap3\n      swap2\n      pop\n      pop\n      jump\t// out\n\n    auxdata: 0xa26469706673582212208029fd75013f5974af969ff9dd9a81075ab6a2c0e8d74d61ffdd09ec1a2bbd3664736f6c63430008180033\n}\n",
				"bytecode": {
					"linkReferences": {},
					"object": "608060405234801562000010575f80fd5b506040516200277b3803806200277b83398181016040528101906200003691906200034c565b33805f8073ffffffffffffffffffffffffffffffffffffffff168273ffffffffffffffffffffffffffffffffffffffff1603620000aa576040517f08c379a0000000000000000000000000000000000000000000000000000000008152600401620000a190620003ef565b60405180910390fd5b815f806101000a81548173ffffffffffffffffffffffffffffffffffffffff021916908373ffffffffffffffffffffffffffffffffffffffff1602179055505f73ffffffffffffffffffffffffffffffffffffffff168173ffffffffffffffffffffffffffffffffffffffff16146200012f576200012e81620001ba60201b60201c565b5b5050508160035f6101000a81548173ffffffffffffffffffffffffffffffffffffffff021916908373ffffffffffffffffffffffffffffffffffffffff1602179055508060045f6101000a81548173ffffffffffffffffffffffffffffffffffffffff021916908373ffffffffffffffffffffffffffffffffffffffff16021790555050506200047d565b3373ffffffffffffffffffffffffffffffffffffffff168173ffffffffffffffffffffffffffffffffffffffff16036200022b576040517f08c379a000000000000000000000000000000000000000000000000000000000815260040162000222906200045d565b60405180910390fd5b8060015f6101000a81548173ffffffffffffffffffffffffffffffffffffffff021916908373ffffffffffffffffffffffffffffffffffffffff1602179055508073ffffffffffffffffffffffffffffffffffffffff165f8054906101000a900473ffffffffffffffffffffffffffffffffffffffff1673ffffffffffffffffffffffffffffffffffffffff167fed8889f560326eb138920d842192f0eb3dd22b4f139c87a2c57538e05bae127860405160405180910390a350565b5f80fd5b5f73ffffffffffffffffffffffffffffffffffffffff82169050919050565b5f6200031682620002eb565b9050919050565b62000328816200030a565b811462000333575f80fd5b50565b5f8151905062000346816200031d565b92915050565b5f8060408385031215620003655762000364620002e7565b5b5f620003748582860162000336565b9250506020620003878582860162000336565b9150509250929050565b5f82825260208201905092915050565b7f43616e6e6f7420736574206f776e657220746f207a65726f00000000000000005f82015250565b5f620003d760188362000391565b9150620003e482620003a1565b602082019050919050565b5f6020820190508181035f8301526200040881620003c9565b9050919050565b7f43616e6e6f74207472616e7366657220746f2073656c660000000000000000005f82015250565b5f6200044560178362000391565b915062000452826200040f565b602082019050919050565b5f6020820190508181035f830152620004768162000437565b9050919050565b6122f0806200048b5f395ff3fe608060405260043610610089575f3560e01c806379ba50971161005857806379ba50971461015c5780638da5cb5b1461017257806395e1402c1461019c57806396d3b83d146101d8578063f2fde38b1461020057610090565b80630bb106eb146100945780633aeac4e1146100d057806351419b4b146100f857806351cff8d91461013457610090565b3661009057005b5f80fd5b34801561009f575f80fd5b506100ba60048036038101906100b5919061176c565b610228565b6040516100c791906117b1565b60405180910390f35b3480156100db575f80fd5b506100f660048036038101906100f19190611824565b610245565b005b348015610103575f80fd5b5061011e60048036038101906101199190611895565b610331565b60405161012b9190611911565b60405180910390f35b34801561013f575f80fd5b5061015a6004803603810190610155919061192a565b61069c565b005b348015610167575f80fd5b50610170610794565b005b34801561017d575f80fd5b50610186610923565b6040516101939190611964565b60405180910390f35b3480156101a7575f80fd5b506101c260048036038101906101bd9190611895565b61094a565b6040516101cf9190611911565b60405180910390f35b3480156101e3575f80fd5b506101fe60048036038101906101f991906119a7565b610fd5565b005b34801561020b575f80fd5b506102266004803603810190610221919061192a565b61101d565b005b6002602052805f5260405f205f915054906101000a900460ff1681565b61024d611031565b5f8173ffffffffffffffffffffffffffffffffffffffff166370a08231306040518263ffffffff1660e01b81526004016102879190611964565b602060405180830381865afa1580156102a2573d5f803e3d5ffd5b505050506040513d601f19601f820116820180604052508101906102c691906119f9565b90505f8103610301576040517fd0d04f6000000000000000000000000000000000000000000000000000000000815260040160405180910390fd5b61032c83828473ffffffffffffffffffffffffffffffffffffffff166110c09092919063ffffffff16565b505050565b5f61033a611031565b8460025f8267ffffffffffffffff1667ffffffffffffffff1681526020019081526020015f205f9054906101000a900460ff166103ae57806040517f0a503cdb0000000000000000000000000000000000000000000000000000000081526004016103a59190611a33565b60405180910390fd5b845f73ffffffffffffffffffffffffffffffffffffffff168173ffffffffffffffffffffffffffffffffffffffff1603610414576040517fa05ff47e00000000000000000000000000000000000000000000000000000000815260040160405180910390fd5b5f6104218787875f611146565b90505f60035f9054906101000a900473ffffffffffffffffffffffffffffffffffffffff1673ffffffffffffffffffffffffffffffffffffffff166320487ded8a846040518363ffffffff1660e01b8152600401610480929190611c51565b602060405180830381865afa15801561049b573d5f803e3d5ffd5b505050506040513d601f19601f820116820180604052508101906104bf91906119f9565b9050478111156105085747816040517f8f0f42060000000000000000000000000000000000000000000000000000000081526004016104ff929190611c8e565b60405180910390fd5b8673ffffffffffffffffffffffffffffffffffffffff1663095ea7b360035f9054906101000a900473ffffffffffffffffffffffffffffffffffffffff16886040518363ffffffff1660e01b8152600401610564929190611cb5565b6020604051808303815f875af1158015610580573d5f803e3d5ffd5b505050506040513d601f19601f820116820180604052508101906105a49190611cf0565b5060035f9054906101000a900473ffffffffffffffffffffffffffffffffffffffff1673ffffffffffffffffffffffffffffffffffffffff166396f4e9f9828b856040518463ffffffff1660e01b8152600401610602929190611c51565b60206040518083038185885af115801561061e573d5f803e3d5ffd5b50505050506040513d601f19601f820116820180604052508101906106439190611d45565b94508867ffffffffffffffff16857fc15fb748c32ba4eb29c1c311e78533f93b4425eab49ea87c6fe4279ecadca0438a8a8a5f87604051610688959493929190611d70565b60405180910390a350505050949350505050565b6106a4611031565b5f4790505f81036106e1576040517fd0d04f6000000000000000000000000000000000000000000000000000000000815260040160405180910390fd5b5f8273ffffffffffffffffffffffffffffffffffffffff168260405161070690611dee565b5f6040518083038185875af1925050503d805f8114610740576040519150601f19603f3d011682016040523d82523d5f602084013e610745565b606091505b505090508061078f573383836040517f9d11f56300000000000000000000000000000000000000000000000000000000815260040161078693929190611e02565b60405180910390fd5b505050565b60015f9054906101000a900473ffffffffffffffffffffffffffffffffffffffff1673ffffffffffffffffffffffffffffffffffffffff163373ffffffffffffffffffffffffffffffffffffffff1614610823576040517f08c379a000000000000000000000000000000000000000000000000000000000815260040161081a90611e91565b60405180910390fd5b5f805f9054906101000a900473ffffffffffffffffffffffffffffffffffffffff169050335f806101000a81548173ffffffffffffffffffffffffffffffffffffffff021916908373ffffffffffffffffffffffffffffffffffffffff1602179055505f60015f6101000a81548173ffffffffffffffffffffffffffffffffffffffff021916908373ffffffffffffffffffffffffffffffffffffffff1602179055503373ffffffffffffffffffffffffffffffffffffffff168173ffffffffffffffffffffffffffffffffffffffff167f8be0079c531659141344cd1fd0a4f28419497f9722a3daafe3b4186f6b6457e060405160405180910390a350565b5f805f9054906101000a900473ffffffffffffffffffffffffffffffffffffffff16905090565b5f610953611031565b8460025f8267ffffffffffffffff1667ffffffffffffffff1681526020019081526020015f205f9054906101000a900460ff166109c757806040517f0a503cdb0000000000000000000000000000000000000000000000000000000081526004016109be9190611a33565b60405180910390fd5b845f73ffffffffffffffffffffffffffffffffffffffff168173ffffffffffffffffffffffffffffffffffffffff1603610a2d576040517fa05ff47e00000000000000000000000000000000000000000000000000000000815260040160405180910390fd5b5f610a5b87878760045f9054906101000a900473ffffffffffffffffffffffffffffffffffffffff16611146565b90505f60035f9054906101000a900473ffffffffffffffffffffffffffffffffffffffff1673ffffffffffffffffffffffffffffffffffffffff166320487ded8a846040518363ffffffff1660e01b8152600401610aba929190611c51565b602060405180830381865afa158015610ad5573d5f803e3d5ffd5b505050506040513d601f19601f82011682018060405250810190610af991906119f9565b90505f60045f9054906101000a900473ffffffffffffffffffffffffffffffffffffffff1673ffffffffffffffffffffffffffffffffffffffff168873ffffffffffffffffffffffffffffffffffffffff1603610b63578682610b5c9190611edc565b9050610b67565b8190505b5f60045f9054906101000a900473ffffffffffffffffffffffffffffffffffffffff1673ffffffffffffffffffffffffffffffffffffffff166370a08231306040518263ffffffff1660e01b8152600401610bc29190611964565b602060405180830381865afa158015610bdd573d5f803e3d5ffd5b505050506040513d601f19601f82011682018060405250810190610c0191906119f9565b905080821115610c4a5780826040517f8f0f4206000000000000000000000000000000000000000000000000000000008152600401610c41929190611c8e565b60405180910390fd5b60045f9054906101000a900473ffffffffffffffffffffffffffffffffffffffff1673ffffffffffffffffffffffffffffffffffffffff1663095ea7b360035f9054906101000a900473ffffffffffffffffffffffffffffffffffffffff16846040518363ffffffff1660e01b8152600401610cc7929190611cb5565b6020604051808303815f875af1158015610ce3573d5f803e3d5ffd5b505050506040513d601f19601f82011682018060405250810190610d079190611cf0565b5060045f9054906101000a900473ffffffffffffffffffffffffffffffffffffffff1673ffffffffffffffffffffffffffffffffffffffff168973ffffffffffffffffffffffffffffffffffffffff1614610ebd575f8973ffffffffffffffffffffffffffffffffffffffff166370a08231306040518263ffffffff1660e01b8152600401610d969190611964565b602060405180830381865afa158015610db1573d5f803e3d5ffd5b505050506040513d601f19601f82011682018060405250810190610dd591906119f9565b905080891115610e1e5780896040517f8f0f4206000000000000000000000000000000000000000000000000000000008152600401610e15929190611c8e565b60405180910390fd5b8973ffffffffffffffffffffffffffffffffffffffff1663095ea7b360035f9054906101000a900473ffffffffffffffffffffffffffffffffffffffff168b6040518363ffffffff1660e01b8152600401610e7a929190611cb5565b6020604051808303815f875af1158015610e96573d5f803e3d5ffd5b505050506040513d601f19601f82011682018060405250810190610eba9190611cf0565b50505b60035f9054906101000a900473ffffffffffffffffffffffffffffffffffffffff1673ffffffffffffffffffffffffffffffffffffffff166396f4e9f98c866040518363ffffffff1660e01b8152600401610f19929190611c51565b6020604051808303815f875af1158015610f35573d5f803e3d5ffd5b505050506040513d601f19601f82011682018060405250810190610f599190611d45565b96508a67ffffffffffffffff16877fc15fb748c32ba4eb29c1c311e78533f93b4425eab49ea87c6fe4279ecadca0438c8c8c60045f9054906101000a900473ffffffffffffffffffffffffffffffffffffffff1689604051610fbf959493929190611d70565b60405180910390a3505050505050949350505050565b610fdd611031565b8060025f8467ffffffffffffffff1667ffffffffffffffff1681526020019081526020015f205f6101000a81548160ff0219169083151502179055505050565b611025611031565b61102e81611286565b50565b5f8054906101000a900473ffffffffffffffffffffffffffffffffffffffff1673ffffffffffffffffffffffffffffffffffffffff163373ffffffffffffffffffffffffffffffffffffffff16146110be576040517f08c379a00000000000000000000000000000000000000000000000000000000081526004016110b590611f59565b60405180910390fd5b565b6111418363a9059cbb60e01b84846040516024016110df929190611cb5565b604051602081830303815290604052907bffffffffffffffffffffffffffffffffffffffffffffffffffffffff19166020820180517bffffffffffffffffffffffffffffffffffffffffffffffffffffffff83818316178352505050506113b0565b505050565b61114e6116b9565b5f600167ffffffffffffffff81111561116a57611169611f77565b5b6040519080825280602002602001820160405280156111a357816020015b6111906116fd565b8152602001906001900390816111885790505b50905060405180604001604052808673ffffffffffffffffffffffffffffffffffffffff16815260200185815250815f815181106111e4576111e3611fa4565b5b60200260200101819052506040518060a001604052808760405160200161120b9190611964565b604051602081830303815290604052815260200160405180602001604052805f81525081526020018281526020018473ffffffffffffffffffffffffffffffffffffffff16815260200161127860405180604001604052806207a120815260200160011515815250611475565b815250915050949350505050565b3373ffffffffffffffffffffffffffffffffffffffff168173ffffffffffffffffffffffffffffffffffffffff16036112f4576040517f08c379a00000000000000000000000000000000000000000000000000000000081526004016112eb9061201b565b60405180910390fd5b8060015f6101000a81548173ffffffffffffffffffffffffffffffffffffffff021916908373ffffffffffffffffffffffffffffffffffffffff1602179055508073ffffffffffffffffffffffffffffffffffffffff165f8054906101000a900473ffffffffffffffffffffffffffffffffffffffff1673ffffffffffffffffffffffffffffffffffffffff167fed8889f560326eb138920d842192f0eb3dd22b4f139c87a2c57538e05bae127860405160405180910390a350565b5f611411826040518060400160405280602081526020017f5361666545524332303a206c6f772d6c6576656c2063616c6c206661696c65648152508573ffffffffffffffffffffffffffffffffffffffff166114f49092919063ffffffff16565b90505f8151111561147057808060200190518101906114309190611cf0565b61146f576040517f08c379a0000000000000000000000000000000000000000000000000000000008152600401611466906120a9565b60405180910390fd5b5b505050565b606063181dcf1060e01b826040516024016114909190612103565b604051602081830303815290604052907bffffffffffffffffffffffffffffffffffffffffffffffffffffffff19166020820180517bffffffffffffffffffffffffffffffffffffffffffffffffffffffff83818316178352505050509050919050565b606061150284845f8561150b565b90509392505050565b606082471015611550576040517f08c379a00000000000000000000000000000000000000000000000000000000081526004016115479061218c565b60405180910390fd5b5f808673ffffffffffffffffffffffffffffffffffffffff16858760405161157891906121da565b5f6040518083038185875af1925050503d805f81146115b2576040519150601f19603f3d011682016040523d82523d5f602084013e6115b7565b606091505b50915091506115c8878383876115d4565b92505050949350505050565b60608315611635575f83510361162d576115ed85611648565b61162c576040517f08c379a00000000000000000000000000000000000000000000000000000000081526004016116239061223a565b60405180910390fd5b5b829050611640565b61163f838361166a565b5b949350505050565b5f808273ffffffffffffffffffffffffffffffffffffffff163b119050919050565b5f8251111561167c5781518083602001fd5b806040517f08c379a00000000000000000000000000000000000000000000000000000000081526004016116b0919061229a565b60405180910390fd5b6040518060a001604052806060815260200160608152602001606081526020015f73ffffffffffffffffffffffffffffffffffffffff168152602001606081525090565b60405180604001604052805f73ffffffffffffffffffffffffffffffffffffffff1681526020015f81525090565b5f80fd5b5f67ffffffffffffffff82169050919050565b61174b8161172f565b8114611755575f80fd5b50565b5f8135905061176681611742565b92915050565b5f602082840312156117815761178061172b565b5b5f61178e84828501611758565b91505092915050565b5f8115159050919050565b6117ab81611797565b82525050565b5f6020820190506117c45f8301846117a2565b92915050565b5f73ffffffffffffffffffffffffffffffffffffffff82169050919050565b5f6117f3826117ca565b9050919050565b611803816117e9565b811461180d575f80fd5b50565b5f8135905061181e816117fa565b92915050565b5f806040838503121561183a5761183961172b565b5b5f61184785828601611810565b925050602061185885828601611810565b9150509250929050565b5f819050919050565b61187481611862565b811461187e575f80fd5b50565b5f8135905061188f8161186b565b92915050565b5f805f80608085870312156118ad576118ac61172b565b5b5f6118ba87828801611758565b94505060206118cb87828801611810565b93505060406118dc87828801611810565b92505060606118ed87828801611881565b91505092959194509250565b5f819050919050565b61190b816118f9565b82525050565b5f6020820190506119245f830184611902565b92915050565b5f6020828403121561193f5761193e61172b565b5b5f61194c84828501611810565b91505092915050565b61195e816117e9565b82525050565b5f6020820190506119775f830184611955565b92915050565b61198681611797565b8114611990575f80fd5b50565b5f813590506119a18161197d565b92915050565b5f80604083850312156119bd576119bc61172b565b5b5f6119ca85828601611758565b92505060206119db85828601611993565b9150509250929050565b5f815190506119f38161186b565b92915050565b5f60208284031215611a0e57611a0d61172b565b5b5f611a1b848285016119e5565b91505092915050565b611a2d8161172f565b82525050565b5f602082019050611a465f830184611a24565b92915050565b5f81519050919050565b5f82825260208201905092915050565b5f5b83811015611a83578082015181840152602081019050611a68565b5f8484015250505050565b5f601f19601f8301169050919050565b5f611aa882611a4c565b611ab28185611a56565b9350611ac2818560208601611a66565b611acb81611a8e565b840191505092915050565b5f81519050919050565b5f82825260208201905092915050565b5f819050602082019050919050565b611b08816117e9565b82525050565b611b1781611862565b82525050565b604082015f820151611b315f850182611aff565b506020820151611b446020850182611b0e565b50505050565b5f611b558383611b1d565b60408301905092915050565b5f602082019050919050565b5f611b7782611ad6565b611b818185611ae0565b9350611b8c83611af0565b805f5b83811015611bbc578151611ba38882611b4a565b9750611bae83611b61565b925050600181019050611b8f565b5085935050505092915050565b5f60a083015f8301518482035f860152611be38282611a9e565b91505060208301518482036020860152611bfd8282611a9e565b91505060408301518482036040860152611c178282611b6d565b9150506060830151611c2c6060860182611aff565b5060808301518482036080860152611c448282611a9e565b9150508091505092915050565b5f604082019050611c645f830185611a24565b8181036020830152611c768184611bc9565b90509392505050565b611c8881611862565b82525050565b5f604082019050611ca15f830185611c7f565b611cae6020830184611c7f565b9392505050565b5f604082019050611cc85f830185611955565b611cd56020830184611c7f565b9392505050565b5f81519050611cea8161197d565b92915050565b5f60208284031215611d0557611d0461172b565b5b5f611d1284828501611cdc565b91505092915050565b611d24816118f9565b8114611d2e575f80fd5b50565b5f81519050611d3f81611d1b565b92915050565b5f60208284031215611d5a57611d5961172b565b5b5f611d6784828501611d31565b91505092915050565b5f60a082019050611d835f830188611955565b611d906020830187611955565b611d9d6040830186611c7f565b611daa6060830185611955565b611db76080830184611c7f565b9695505050505050565b5f81905092915050565b50565b5f611dd95f83611dc1565b9150611de482611dcb565b5f82019050919050565b5f611df882611dce565b9150819050919050565b5f606082019050611e155f830186611955565b611e226020830185611955565b611e2f6040830184611c7f565b949350505050565b5f82825260208201905092915050565b7f4d7573742062652070726f706f736564206f776e6572000000000000000000005f82015250565b5f611e7b601683611e37565b9150611e8682611e47565b602082019050919050565b5f6020820190508181035f830152611ea881611e6f565b9050919050565b7f4e487b71000000000000000000000000000000000000000000000000000000005f52601160045260245ffd5b5f611ee682611862565b9150611ef183611862565b9250828201905080821115611f0957611f08611eaf565b5b92915050565b7f4f6e6c792063616c6c61626c65206279206f776e6572000000000000000000005f82015250565b5f611f43601683611e37565b9150611f4e82611f0f565b602082019050919050565b5f6020820190508181035f830152611f7081611f37565b9050919050565b7f4e487b71000000000000000000000000000000000000000000000000000000005f52604160045260245ffd5b7f4e487b71000000000000000000000000000000000000000000000000000000005f52603260045260245ffd5b7f43616e6e6f74207472616e7366657220746f2073656c660000000000000000005f82015250565b5f612005601783611e37565b915061201082611fd1565b602082019050919050565b5f6020820190508181035f83015261203281611ff9565b9050919050565b7f5361666545524332303a204552433230206f7065726174696f6e20646964206e5f8201527f6f74207375636365656400000000000000000000000000000000000000000000602082015250565b5f612093602a83611e37565b915061209e82612039565b604082019050919050565b5f6020820190508181035f8301526120c081612087565b9050919050565b6120d081611797565b82525050565b604082015f8201516120ea5f850182611b0e565b5060208201516120fd60208501826120c7565b50505050565b5f6040820190506121165f8301846120d6565b92915050565b7f416464726573733a20696e73756666696369656e742062616c616e636520666f5f8201527f722063616c6c0000000000000000000000000000000000000000000000000000602082015250565b5f612176602683611e37565b91506121818261211c565b604082019050919050565b5f6020820190508181035f8301526121a38161216a565b9050919050565b5f6121b482611a4c565b6121be8185611dc1565b93506121ce818560208601611a66565b80840191505092915050565b5f6121e582846121aa565b915081905092915050565b7f416464726573733a2063616c6c20746f206e6f6e2d636f6e74726163740000005f82015250565b5f612224601d83611e37565b915061222f826121f0565b602082019050919050565b5f6020820190508181035f83015261225181612218565b9050919050565b5f81519050919050565b5f61226c82612258565b6122768185611e37565b9350612286818560208601611a66565b61228f81611a8e565b840191505092915050565b5f6020820190508181035f8301526122b28184612262565b90509291505056fea26469706673582212208029fd75013f5974af969ff9dd9a81075ab6a2c0e8d74d61ffdd09ec1a2bbd3664736f6c63430008180033",
					"opcodes": "PUSH1 0x80 PUSH1 0x40 MSTORE CALLVALUE DUP1 ISZERO PUSH3 0x10 JUMPI PUSH0 DUP1 REVERT JUMPDEST POP PUSH1 0x40 MLOAD PUSH3 0x277B CODESIZE SUB DUP1 PUSH3 0x277B DUP4 CODECOPY DUP2 DUP2 ADD PUSH1 0x40 MSTORE DUP2 ADD SWAP1 PUSH3 0x36 SWAP2 SWAP1 PUSH3 0x34C JUMP JUMPDEST CALLER DUP1 PUSH0 DUP1 PUSH20 0xFFFFFFFFFFFFFFFFFFFFFFFFFFFFFFFFFFFFFFFF AND DUP3 PUSH20 0xFFFFFFFFFFFFFFFFFFFFFFFFFFFFFFFFFFFFFFFF AND SUB PUSH3 0xAA JUMPI PUSH1 0x40 MLOAD PUSH32 0x8C379A000000000000000000000000000000000000000000000000000000000 DUP2 MSTORE PUSH1 0x4 ADD PUSH3 0xA1 SWAP1 PUSH3 0x3EF JUMP JUMPDEST PUSH1 0x40 MLOAD DUP1 SWAP2 SUB SWAP1 REVERT JUMPDEST DUP2 PUSH0 DUP1 PUSH2 0x100 EXP DUP2 SLOAD DUP2 PUSH20 0xFFFFFFFFFFFFFFFFFFFFFFFFFFFFFFFFFFFFFFFF MUL NOT AND SWAP1 DUP4 PUSH20 0xFFFFFFFFFFFFFFFFFFFFFFFFFFFFFFFFFFFFFFFF AND MUL OR SWAP1 SSTORE POP PUSH0 PUSH20 0xFFFFFFFFFFFFFFFFFFFFFFFFFFFFFFFFFFFFFFFF AND DUP2 PUSH20 0xFFFFFFFFFFFFFFFFFFFFFFFFFFFFFFFFFFFFFFFF AND EQ PUSH3 0x12F JUMPI PUSH3 0x12E DUP2 PUSH3 0x1BA PUSH1 0x20 SHL PUSH1 0x20 SHR JUMP JUMPDEST JUMPDEST POP POP POP DUP2 PUSH1 0x3 PUSH0 PUSH2 0x100 EXP DUP2 SLOAD DUP2 PUSH20 0xFFFFFFFFFFFFFFFFFFFFFFFFFFFFFFFFFFFFFFFF MUL NOT AND SWAP1 DUP4 PUSH20 0xFFFFFFFFFFFFFFFFFFFFFFFFFFFFFFFFFFFFFFFF AND MUL OR SWAP1 SSTORE POP DUP1 PUSH1 0x4 PUSH0 PUSH2 0x100 EXP DUP2 SLOAD DUP2 PUSH20 0xFFFFFFFFFFFFFFFFFFFFFFFFFFFFFFFFFFFFFFFF MUL NOT AND SWAP1 DUP4 PUSH20 0xFFFFFFFFFFFFFFFFFFFFFFFFFFFFFFFFFFFFFFFF AND MUL OR SWAP1 SSTORE POP POP POP PUSH3 0x47D JUMP JUMPDEST CALLER PUSH20 0xFFFFFFFFFFFFFFFFFFFFFFFFFFFFFFFFFFFFFFFF AND DUP2 PUSH20 0xFFFFFFFFFFFFFFFFFFFFFFFFFFFFFFFFFFFFFFFF AND SUB PUSH3 0x22B JUMPI PUSH1 0x40 MLOAD PUSH32 0x8C379A000000000000000000000000000000000000000000000000000000000 DUP2 MSTORE PUSH1 0x4 ADD PUSH3 0x222 SWAP1 PUSH3 0x45D JUMP JUMPDEST PUSH1 0x40 MLOAD DUP1 SWAP2 SUB SWAP1 REVERT JUMPDEST DUP1 PUSH1 0x1 PUSH0 PUSH2 0x100 EXP DUP2 SLOAD DUP2 PUSH20 0xFFFFFFFFFFFFFFFFFFFFFFFFFFFFFFFFFFFFFFFF MUL NOT AND SWAP1 DUP4 PUSH20 0xFFFFFFFFFFFFFFFFFFFFFFFFFFFFFFFFFFFFFFFF AND MUL OR SWAP1 SSTORE POP DUP1 PUSH20 0xFFFFFFFFFFFFFFFFFFFFFFFFFFFFFFFFFFFFFFFF AND PUSH0 DUP1 SLOAD SWAP1 PUSH2 0x100 EXP SWAP1 DIV PUSH20 0xFFFFFFFFFFFFFFFFFFFFFFFFFFFFFFFFFFFFFFFF AND PUSH20 0xFFFFFFFFFFFFFFFFFFFFFFFFFFFFFFFFFFFFFFFF AND PUSH32 0xED8889F560326EB138920D842192F0EB3DD22B4F139C87A2C57538E05BAE1278 PUSH1 0x40 MLOAD PUSH1 0x40 MLOAD DUP1 SWAP2 SUB SWAP1 LOG3 POP JUMP JUMPDEST PUSH0 DUP1 REVERT JUMPDEST PUSH0 PUSH20 0xFFFFFFFFFFFFFFFFFFFFFFFFFFFFFFFFFFFFFFFF DUP3 AND SWAP1 POP SWAP2 SWAP1 POP JUMP JUMPDEST PUSH0 PUSH3 0x316 DUP3 PUSH3 0x2EB JUMP JUMPDEST SWAP1 POP SWAP2 SWAP1 POP JUMP JUMPDEST PUSH3 0x328 DUP2 PUSH3 0x30A JUMP JUMPDEST DUP2 EQ PUSH3 0x333 JUMPI PUSH0 DUP1 REVERT JUMPDEST POP JUMP JUMPDEST PUSH0 DUP2 MLOAD SWAP1 POP PUSH3 0x346 DUP2 PUSH3 0x31D JUMP JUMPDEST SWAP3 SWAP2 POP POP JUMP JUMPDEST PUSH0 DUP1 PUSH1 0x40 DUP4 DUP6 SUB SLT ISZERO PUSH3 0x365 JUMPI PUSH3 0x364 PUSH3 0x2E7 JUMP JUMPDEST JUMPDEST PUSH0 PUSH3 0x374 DUP6 DUP3 DUP7 ADD PUSH3 0x336 JUMP JUMPDEST SWAP3 POP POP PUSH1 0x20 PUSH3 0x387 DUP6 DUP3 DUP7 ADD PUSH3 0x336 JUMP JUMPDEST SWAP2 POP POP SWAP3 POP SWAP3 SWAP1 POP JUMP JUMPDEST PUSH0 DUP3 DUP3 MSTORE PUSH1 0x20 DUP3 ADD SWAP1 POP SWAP3 SWAP2 POP POP JUMP JUMPDEST PUSH32 0x43616E6E6F7420736574206F776E657220746F207A65726F0000000000000000 PUSH0 DUP3 ADD MSTORE POP JUMP JUMPDEST PUSH0 PUSH3 0x3D7 PUSH1 0x18 DUP4 PUSH3 0x391 JUMP JUMPDEST SWAP2 POP PUSH3 0x3E4 DUP3 PUSH3 0x3A1 JUMP JUMPDEST PUSH1 0x20 DUP3 ADD SWAP1 POP SWAP2 SWAP1 POP JUMP JUMPDEST PUSH0 PUSH1 0x20 DUP3 ADD SWAP1 POP DUP2 DUP2 SUB PUSH0 DUP4 ADD MSTORE PUSH3 0x408 DUP2 PUSH3 0x3C9 JUMP JUMPDEST SWAP1 POP SWAP2 SWAP1 POP JUMP JUMPDEST PUSH32 0x43616E6E6F74207472616E7366657220746F2073656C66000000000000000000 PUSH0 DUP3 ADD MSTORE POP JUMP JUMPDEST PUSH0 PUSH3 0x445 PUSH1 0x17 DUP4 PUSH3 0x391 JUMP JUMPDEST SWAP2 POP PUSH3 0x452 DUP3 PUSH3 0x40F JUMP JUMPDEST PUSH1 0x20 DUP3 ADD SWAP1 POP SWAP2 SWAP1 POP JUMP JUMPDEST PUSH0 PUSH1 0x20 DUP3 ADD SWAP1 POP DUP2 DUP2 SUB PUSH0 DUP4 ADD MSTORE PUSH3 0x476 DUP2 PUSH3 0x437 JUMP JUMPDEST SWAP1 POP SWAP2 SWAP1 POP JUMP JUMPDEST PUSH2 0x22F0 DUP1 PUSH3 0x48B PUSH0 CODECOPY PUSH0 RETURN INVALID PUSH1 0x80 PUSH1 0x40 MSTORE PUSH1 0x4 CALLDATASIZE LT PUSH2 0x89 JUMPI PUSH0 CALLDATALOAD PUSH1 0xE0 SHR DUP1 PUSH4 0x79BA5097 GT PUSH2 0x58 JUMPI DUP1 PUSH4 0x79BA5097 EQ PUSH2 0x15C JUMPI DUP1 PUSH4 0x8DA5CB5B EQ PUSH2 0x172 JUMPI DUP1 PUSH4 0x95E1402C EQ PUSH2 0x19C JUMPI DUP1 PUSH4 0x96D3B83D EQ PUSH2 0x1D8 JUMPI DUP1 PUSH4 0xF2FDE38B EQ PUSH2 0x200 JUMPI PUSH2 0x90 JUMP JUMPDEST DUP1 PUSH4 0xBB106EB EQ PUSH2 0x94 JUMPI DUP1 PUSH4 0x3AEAC4E1 EQ PUSH2 0xD0 JUMPI DUP1 PUSH4 0x51419B4B EQ PUSH2 0xF8 JUMPI DUP1 PUSH4 0x51CFF8D9 EQ PUSH2 0x134 JUMPI PUSH2 0x90 JUMP JUMPDEST CALLDATASIZE PUSH2 0x90 JUMPI STOP JUMPDEST PUSH0 DUP1 REVERT JUMPDEST CALLVALUE DUP1 ISZERO PUSH2 0x9F JUMPI PUSH0 DUP1 REVERT JUMPDEST POP PUSH2 0xBA PUSH1 0x4 DUP1 CALLDATASIZE SUB DUP2 ADD SWAP1 PUSH2 0xB5 SWAP2 SWAP1 PUSH2 0x176C JUMP JUMPDEST PUSH2 0x228 JUMP JUMPDEST PUSH1 0x40 MLOAD PUSH2 0xC7 SWAP2 SWAP1 PUSH2 0x17B1 JUMP JUMPDEST PUSH1 0x40 MLOAD DUP1 SWAP2 SUB SWAP1 RETURN JUMPDEST CALLVALUE DUP1 ISZERO PUSH2 0xDB JUMPI PUSH0 DUP1 REVERT JUMPDEST POP PUSH2 0xF6 PUSH1 0x4 DUP1 CALLDATASIZE SUB DUP2 ADD SWAP1 PUSH2 0xF1 SWAP2 SWAP1 PUSH2 0x1824 JUMP JUMPDEST PUSH2 0x245 JUMP JUMPDEST STOP JUMPDEST CALLVALUE DUP1 ISZERO PUSH2 0x103 JUMPI PUSH0 DUP1 REVERT JUMPDEST POP PUSH2 0x11E PUSH1 0x4 DUP1 CALLDATASIZE SUB DUP2 ADD SWAP1 PUSH2 0x119 SWAP2 SWAP1 PUSH2 0x1895 JUMP JUMPDEST PUSH2 0x331 JUMP JUMPDEST PUSH1 0x40 MLOAD PUSH2 0x12B SWAP2 SWAP1 PUSH2 0x1911 JUMP JUMPDEST PUSH1 0x40 MLOAD DUP1 SWAP2 SUB SWAP1 RETURN JUMPDEST CALLVALUE DUP1 ISZERO PUSH2 0x13F JUMPI PUSH0 DUP1 REVERT JUMPDEST POP PUSH2 0x15A PUSH1 0x4 DUP1 CALLDATASIZE SUB DUP2 ADD SWAP1 PUSH2 0x155 SWAP2 SWAP1 PUSH2 0x192A JUMP JUMPDEST PUSH2 0x69C JUMP JUMPDEST STOP JUMPDEST CALLVALUE DUP1 ISZERO PUSH2 0x167 JUMPI PUSH0 DUP1 REVERT JUMPDEST POP PUSH2 0x170 PUSH2 0x794 JUMP JUMPDEST STOP JUMPDEST CALLVALUE DUP1 ISZERO PUSH2 0x17D JUMPI PUSH0 DUP1 REVERT JUMPDEST POP PUSH2 0x186 PUSH2 0x923 JUMP JUMPDEST PUSH1 0x40 MLOAD PUSH2 0x193 SWAP2 SWAP1 PUSH2 0x1964 JUMP JUMPDEST PUSH1 0x40 MLOAD DUP1 SWAP2 SUB SWAP1 RETURN JUMPDEST CALLVALUE DUP1 ISZERO PUSH2 0x1A7 JUMPI PUSH0 DUP1 REVERT JUMPDEST POP PUSH2 0x1C2 PUSH1 0x4 DUP1 CALLDATASIZE SUB DUP2 ADD SWAP1 PUSH2 0x1BD SWAP2 SWAP1 PUSH2 0x1895 JUMP JUMPDEST PUSH2 0x94A JUMP JUMPDEST PUSH1 0x40 MLOAD PUSH2 0x1CF SWAP2 SWAP1 PUSH2 0x1911 JUMP JUMPDEST PUSH1 0x40 MLOAD DUP1 SWAP2 SUB SWAP1 RETURN JUMPDEST CALLVALUE DUP1 ISZERO PUSH2 0x1E3 JUMPI PUSH0 DUP1 REVERT JUMPDEST POP PUSH2 0x1FE PUSH1 0x4 DUP1 CALLDATASIZE SUB DUP2 ADD SWAP1 PUSH2 0x1F9 SWAP2 SWAP1 PUSH2 0x19A7 JUMP JUMPDEST PUSH2 0xFD5 JUMP JUMPDEST STOP JUMPDEST CALLVALUE DUP1 ISZERO PUSH2 0x20B JUMPI PUSH0 DUP1 REVERT JUMPDEST POP PUSH2 0x226 PUSH1 0x4 DUP1 CALLDATASIZE SUB DUP2 ADD SWAP1 PUSH2 0x221 SWAP2 SWAP1 PUSH2 0x192A JUMP JUMPDEST PUSH2 0x101D JUMP JUMPDEST STOP JUMPDEST PUSH1 0x2 PUSH1 0x20 MSTORE DUP1 PUSH0 MSTORE PUSH1 0x40 PUSH0 KECCAK256 PUSH0 SWAP2 POP SLOAD SWAP1 PUSH2 0x100 EXP SWAP1 DIV PUSH1 0xFF AND DUP2 JUMP JUMPDEST PUSH2 0x24D PUSH2 0x1031 JUMP JUMPDEST PUSH0 DUP2 PUSH20 0xFFFFFFFFFFFFFFFFFFFFFFFFFFFFFFFFFFFFFFFF AND PUSH4 0x70A08231 ADDRESS PUSH1 0x40 MLOAD DUP3 PUSH4 0xFFFFFFFF AND PUSH1 0xE0 SHL DUP2 MSTORE PUSH1 0x4 ADD PUSH2 0x287 SWAP2 SWAP1 PUSH2 0x1964 JUMP JUMPDEST PUSH1 0x20 PUSH1 0x40 MLOAD DUP1 DUP4 SUB DUP2 DUP7 GAS STATICCALL ISZERO DUP1 ISZERO PUSH2 0x2A2 JUMPI RETURNDATASIZE PUSH0 DUP1 RETURNDATACOPY RETURNDATASIZE PUSH0 REVERT JUMPDEST POP POP POP POP PUSH1 0x40 MLOAD RETURNDATASIZE PUSH1 0x1F NOT PUSH1 0x1F DUP3 ADD AND DUP3 ADD DUP1 PUSH1 0x40 MSTORE POP DUP2 ADD SWAP1 PUSH2 0x2C6 SWAP2 SWAP1 PUSH2 0x19F9 JUMP JUMPDEST SWAP1 POP PUSH0 DUP2 SUB PUSH2 0x301 JUMPI PUSH1 0x40 MLOAD PUSH32 0xD0D04F6000000000000000000000000000000000000000000000000000000000 DUP2 MSTORE PUSH1 0x4 ADD PUSH1 0x40 MLOAD DUP1 SWAP2 SUB SWAP1 REVERT JUMPDEST PUSH2 0x32C DUP4 DUP3 DUP5 PUSH20 0xFFFFFFFFFFFFFFFFFFFFFFFFFFFFFFFFFFFFFFFF AND PUSH2 0x10C0 SWAP1 SWAP3 SWAP2 SWAP1 PUSH4 0xFFFFFFFF AND JUMP JUMPDEST POP POP POP JUMP JUMPDEST PUSH0 PUSH2 0x33A PUSH2 0x1031 JUMP JUMPDEST DUP5 PUSH1 0x2 PUSH0 DUP3 PUSH8 0xFFFFFFFFFFFFFFFF AND PUSH8 0xFFFFFFFFFFFFFFFF AND DUP2 MSTORE PUSH1 0x20 ADD SWAP1 DUP2 MSTORE PUSH1 0x20 ADD PUSH0 KECCAK256 PUSH0 SWAP1 SLOAD SWAP1 PUSH2 0x100 EXP SWAP1 DIV PUSH1 0xFF AND PUSH2 0x3AE JUMPI DUP1 PUSH1 0x40 MLOAD PUSH32 0xA503CDB00000000000000000000000000000000000000000000000000000000 DUP2 MSTORE PUSH1 0x4 ADD PUSH2 0x3A5 SWAP2 SWAP1 PUSH2 0x1A33 JUMP JUMPDEST PUSH1 0x40 MLOAD DUP1 SWAP2 SUB SWAP1 REVERT JUMPDEST DUP5 PUSH0 PUSH20 0xFFFFFFFFFFFFFFFFFFFFFFFFFFFFFFFFFFFFFFFF AND DUP2 PUSH20 0xFFFFFFFFFFFFFFFFFFFFFFFFFFFFFFFFFFFFFFFF AND SUB PUSH2 0x414 JUMPI PUSH1 0x40 MLOAD PUSH32 0xA05FF47E00000000000000000000000000000000000000000000000000000000 DUP2 MSTORE PUSH1 0x4 ADD PUSH1 0x40 MLOAD DUP1 SWAP2 SUB SWAP1 REVERT JUMPDEST PUSH0 PUSH2 0x421 DUP8 DUP8 DUP8 PUSH0 PUSH2 0x1146 JUMP JUMPDEST SWAP1 POP PUSH0 PUSH1 0x3 PUSH0 SWAP1 SLOAD SWAP1 PUSH2 0x100 EXP SWAP1 DIV PUSH20 0xFFFFFFFFFFFFFFFFFFFFFFFFFFFFFFFFFFFFFFFF AND PUSH20 0xFFFFFFFFFFFFFFFFFFFFFFFFFFFFFFFFFFFFFFFF AND PUSH4 0x20487DED DUP11 DUP5 PUSH1 0x40 MLOAD DUP4 PUSH4 0xFFFFFFFF AND PUSH1 0xE0 SHL DUP2 MSTORE PUSH1 0x4 ADD PUSH2 0x480 SWAP3 SWAP2 SWAP1 PUSH2 0x1C51 JUMP JUMPDEST PUSH1 0x20 PUSH1 0x40 MLOAD DUP1 DUP4 SUB DUP2 DUP7 GAS STATICCALL ISZERO DUP1 ISZERO PUSH2 0x49B JUMPI RETURNDATASIZE PUSH0 DUP1 RETURNDATACOPY RETURNDATASIZE PUSH0 REVERT JUMPDEST POP POP POP POP PUSH1 0x40 MLOAD RETURNDATASIZE PUSH1 0x1F NOT PUSH1 0x1F DUP3 ADD AND DUP3 ADD DUP1 PUSH1 0x40 MSTORE POP DUP2 ADD SWAP1 PUSH2 0x4BF SWAP2 SWAP1 PUSH2 0x19F9 JUMP JUMPDEST SWAP1 POP SELFBALANCE DUP2 GT ISZERO PUSH2 0x508 JUMPI SELFBALANCE DUP2 PUSH1 0x40 MLOAD PUSH32 0x8F0F420600000000000000000000000000000000000000000000000000000000 DUP2 MSTORE PUSH1 0x4 ADD PUSH2 0x4FF SWAP3 SWAP2 SWAP1 PUSH2 0x1C8E JUMP JUMPDEST PUSH1 0x40 MLOAD DUP1 SWAP2 SUB SWAP1 REVERT JUMPDEST DUP7 PUSH20 0xFFFFFFFFFFFFFFFFFFFFFFFFFFFFFFFFFFFFFFFF AND PUSH4 0x95EA7B3 PUSH1 0x3 PUSH0 SWAP1 SLOAD SWAP1 PUSH2 0x100 EXP SWAP1 DIV PUSH20 0xFFFFFFFFFFFFFFFFFFFFFFFFFFFFFFFFFFFFFFFF AND DUP9 PUSH1 0x40 MLOAD DUP4 PUSH4 0xFFFFFFFF AND PUSH1 0xE0 SHL DUP2 MSTORE PUSH1 0x4 ADD PUSH2 0x564 SWAP3 SWAP2 SWAP1 PUSH2 0x1CB5 JUMP JUMPDEST PUSH1 0x20 PUSH1 0x40 MLOAD DUP1 DUP4 SUB DUP2 PUSH0 DUP8 GAS CALL ISZERO DUP1 ISZERO PUSH2 0x580 JUMPI RETURNDATASIZE PUSH0 DUP1 RETURNDATACOPY RETURNDATASIZE PUSH0 REVERT JUMPDEST POP POP POP POP PUSH1 0x40 MLOAD RETURNDATASIZE PUSH1 0x1F NOT PUSH1 0x1F DUP3 ADD AND DUP3 ADD DUP1 PUSH1 0x40 MSTORE POP DUP2 ADD SWAP1 PUSH2 0x5A4 SWAP2 SWAP1 PUSH2 0x1CF0 JUMP JUMPDEST POP PUSH1 0x3 PUSH0 SWAP1 SLOAD SWAP1 PUSH2 0x100 EXP SWAP1 DIV PUSH20 0xFFFFFFFFFFFFFFFFFFFFFFFFFFFFFFFFFFFFFFFF AND PUSH20 0xFFFFFFFFFFFFFFFFFFFFFFFFFFFFFFFFFFFFFFFF AND PUSH4 0x96F4E9F9 DUP3 DUP12 DUP6 PUSH1 0x40 MLOAD DUP5 PUSH4 0xFFFFFFFF AND PUSH1 0xE0 SHL DUP2 MSTORE PUSH1 0x4 ADD PUSH2 0x602 SWAP3 SWAP2 SWAP1 PUSH2 0x1C51 JUMP JUMPDEST PUSH1 0x20 PUSH1 0x40 MLOAD DUP1 DUP4 SUB DUP2 DUP6 DUP9 GAS CALL ISZERO DUP1 ISZERO PUSH2 0x61E JUMPI RETURNDATASIZE PUSH0 DUP1 RETURNDATACOPY RETURNDATASIZE PUSH0 REVERT JUMPDEST POP POP POP POP POP PUSH1 0x40 MLOAD RETURNDATASIZE PUSH1 0x1F NOT PUSH1 0x1F DUP3 ADD AND DUP3 ADD DUP1 PUSH1 0x40 MSTORE POP DUP2 ADD SWAP1 PUSH2 0x643 SWAP2 SWAP1 PUSH2 0x1D45 JUMP JUMPDEST SWAP5 POP DUP9 PUSH8 0xFFFFFFFFFFFFFFFF AND DUP6 PUSH32 0xC15FB748C32BA4EB29C1C311E78533F93B4425EAB49EA87C6FE4279ECADCA043 DUP11 DUP11 DUP11 PUSH0 DUP8 PUSH1 0x40 MLOAD PUSH2 0x688 SWAP6 SWAP5 SWAP4 SWAP3 SWAP2 SWAP1 PUSH2 0x1D70 JUMP JUMPDEST PUSH1 0x40 MLOAD DUP1 SWAP2 SUB SWAP1 LOG3 POP POP POP POP SWAP5 SWAP4 POP POP POP POP JUMP JUMPDEST PUSH2 0x6A4 PUSH2 0x1031 JUMP JUMPDEST PUSH0 SELFBALANCE SWAP1 POP PUSH0 DUP2 SUB PUSH2 0x6E1 JUMPI PUSH1 0x40 MLOAD PUSH32 0xD0D04F6000000000000000000000000000000000000000000000000000000000 DUP2 MSTORE PUSH1 0x4 ADD PUSH1 0x40 MLOAD DUP1 SWAP2 SUB SWAP1 REVERT JUMPDEST PUSH0 DUP3 PUSH20 0xFFFFFFFFFFFFFFFFFFFFFFFFFFFFFFFFFFFFFFFF AND DUP3 PUSH1 0x40 MLOAD PUSH2 0x706 SWAP1 PUSH2 0x1DEE JUMP JUMPDEST PUSH0 PUSH1 0x40 MLOAD DUP1 DUP4 SUB DUP2 DUP6 DUP8 GAS CALL SWAP3 POP POP POP RETURNDATASIZE DUP1 PUSH0 DUP2 EQ PUSH2 0x740 JUMPI PUSH1 0x40 MLOAD SWAP2 POP PUSH1 0x1F NOT PUSH1 0x3F RETURNDATASIZE ADD AND DUP3 ADD PUSH1 0x40 MSTORE RETURNDATASIZE DUP3 MSTORE RETURNDATASIZE PUSH0 PUSH1 0x20 DUP5 ADD RETURNDATACOPY PUSH2 0x745 JUMP JUMPDEST PUSH1 0x60 SWAP2 POP JUMPDEST POP POP SWAP1 POP DUP1 PUSH2 0x78F JUMPI CALLER DUP4 DUP4 PUSH1 0x40 MLOAD PUSH32 0x9D11F56300000000000000000000000000000000000000000000000000000000 DUP2 MSTORE PUSH1 0x4 ADD PUSH2 0x786 SWAP4 SWAP3 SWAP2 SWAP1 PUSH2 0x1E02 JUMP JUMPDEST PUSH1 0x40 MLOAD DUP1 SWAP2 SUB SWAP1 REVERT JUMPDEST POP POP POP JUMP JUMPDEST PUSH1 0x1 PUSH0 SWAP1 SLOAD SWAP1 PUSH2 0x100 EXP SWAP1 DIV PUSH20 0xFFFFFFFFFFFFFFFFFFFFFFFFFFFFFFFFFFFFFFFF AND PUSH20 0xFFFFFFFFFFFFFFFFFFFFFFFFFFFFFFFFFFFFFFFF AND CALLER PUSH20 0xFFFFFFFFFFFFFFFFFFFFFFFFFFFFFFFFFFFFFFFF AND EQ PUSH2 0x823 JUMPI PUSH1 0x40 MLOAD PUSH32 0x8C379A000000000000000000000000000000000000000000000000000000000 DUP2 MSTORE PUSH1 0x4 ADD PUSH2 0x81A SWAP1 PUSH2 0x1E91 JUMP JUMPDEST PUSH1 0x40 MLOAD DUP1 SWAP2 SUB SWAP1 REVERT JUMPDEST PUSH0 DUP1 PUSH0 SWAP1 SLOAD SWAP1 PUSH2 0x100 EXP SWAP1 DIV PUSH20 0xFFFFFFFFFFFFFFFFFFFFFFFFFFFFFFFFFFFFFFFF AND SWAP1 POP CALLER PUSH0 DUP1 PUSH2 0x100 EXP DUP2 SLOAD DUP2 PUSH20 0xFFFFFFFFFFFFFFFFFFFFFFFFFFFFFFFFFFFFFFFF MUL NOT AND SWAP1 DUP4 PUSH20 0xFFFFFFFFFFFFFFFFFFFFFFFFFFFFFFFFFFFFFFFF AND MUL OR SWAP1 SSTORE POP PUSH0 PUSH1 0x1 PUSH0 PUSH2 0x100 EXP DUP2 SLOAD DUP2 PUSH20 0xFFFFFFFFFFFFFFFFFFFFFFFFFFFFFFFFFFFFFFFF MUL NOT AND SWAP1 DUP4 PUSH20 0xFFFFFFFFFFFFFFFFFFFFFFFFFFFFFFFFFFFFFFFF AND MUL OR SWAP1 SSTORE POP CALLER PUSH20 0xFFFFFFFFFFFFFFFFFFFFFFFFFFFFFFFFFFFFFFFF AND DUP2 PUSH20 0xFFFFFFFFFFFFFFFFFFFFFFFFFFFFFFFFFFFFFFFF AND PUSH32 0x8BE0079C531659141344CD1FD0A4F28419497F9722A3DAAFE3B4186F6B6457E0 PUSH1 0x40 MLOAD PUSH1 0x40 MLOAD DUP1 SWAP2 SUB SWAP1 LOG3 POP JUMP JUMPDEST PUSH0 DUP1 PUSH0 SWAP1 SLOAD SWAP1 PUSH2 0x100 EXP SWAP1 DIV PUSH20 0xFFFFFFFFFFFFFFFFFFFFFFFFFFFFFFFFFFFFFFFF AND SWAP1 POP SWAP1 JUMP JUMPDEST PUSH0 PUSH2 0x953 PUSH2 0x1031 JUMP JUMPDEST DUP5 PUSH1 0x2 PUSH0 DUP3 PUSH8 0xFFFFFFFFFFFFFFFF AND PUSH8 0xFFFFFFFFFFFFFFFF AND DUP2 MSTORE PUSH1 0x20 ADD SWAP1 DUP2 MSTORE PUSH1 0x20 ADD PUSH0 KECCAK256 PUSH0 SWAP1 SLOAD SWAP1 PUSH2 0x100 EXP SWAP1 DIV PUSH1 0xFF AND PUSH2 0x9C7 JUMPI DUP1 PUSH1 0x40 MLOAD PUSH32 0xA503CDB00000000000000000000000000000000000000000000000000000000 DUP2 MSTORE PUSH1 0x4 ADD PUSH2 0x9BE SWAP2 SWAP1 PUSH2 0x1A33 JUMP JUMPDEST PUSH1 0x40 MLOAD DUP1 SWAP2 SUB SWAP1 REVERT JUMPDEST DUP5 PUSH0 PUSH20 0xFFFFFFFFFFFFFFFFFFFFFFFFFFFFFFFFFFFFFFFF AND DUP2 PUSH20 0xFFFFFFFFFFFFFFFFFFFFFFFFFFFFFFFFFFFFFFFF AND SUB PUSH2 0xA2D JUMPI PUSH1 0x40 MLOAD PUSH32 0xA05FF47E00000000000000000000000000000000000000000000000000000000 DUP2 MSTORE PUSH1 0x4 ADD PUSH1 0x40 MLOAD DUP1 SWAP2 SUB SWAP1 REVERT JUMPDEST PUSH0 PUSH2 0xA5B DUP8 DUP8 DUP8 PUSH1 0x4 PUSH0 SWAP1 SLOAD SWAP1 PUSH2 0x100 EXP SWAP1 DIV PUSH20 0xFFFFFFFFFFFFFFFFFFFFFFFFFFFFFFFFFFFFFFFF AND PUSH2 0x1146 JUMP JUMPDEST SWAP1 POP PUSH0 PUSH1 0x3 PUSH0 SWAP1 SLOAD SWAP1 PUSH2 0x100 EXP SWAP1 DIV PUSH20 0xFFFFFFFFFFFFFFFFFFFFFFFFFFFFFFFFFFFFFFFF AND PUSH20 0xFFFFFFFFFFFFFFFFFFFFFFFFFFFFFFFFFFFFFFFF AND PUSH4 0x20487DED DUP11 DUP5 PUSH1 0x40 MLOAD DUP4 PUSH4 0xFFFFFFFF AND PUSH1 0xE0 SHL DUP2 MSTORE PUSH1 0x4 ADD PUSH2 0xABA SWAP3 SWAP2 SWAP1 PUSH2 0x1C51 JUMP JUMPDEST PUSH1 0x20 PUSH1 0x40 MLOAD DUP1 DUP4 SUB DUP2 DUP7 GAS STATICCALL ISZERO DUP1 ISZERO PUSH2 0xAD5 JUMPI RETURNDATASIZE PUSH0 DUP1 RETURNDATACOPY RETURNDATASIZE PUSH0 REVERT JUMPDEST POP POP POP POP PUSH1 0x40 MLOAD RETURNDATASIZE PUSH1 0x1F NOT PUSH1 0x1F DUP3 ADD AND DUP3 ADD DUP1 PUSH1 0x40 MSTORE POP DUP2 ADD SWAP1 PUSH2 0xAF9 SWAP2 SWAP1 PUSH2 0x19F9 JUMP JUMPDEST SWAP1 POP PUSH0 PUSH1 0x4 PUSH0 SWAP1 SLOAD SWAP1 PUSH2 0x100 EXP SWAP1 DIV PUSH20 0xFFFFFFFFFFFFFFFFFFFFFFFFFFFFFFFFFFFFFFFF AND PUSH20 0xFFFFFFFFFFFFFFFFFFFFFFFFFFFFFFFFFFFFFFFF AND DUP9 PUSH20 0xFFFFFFFFFFFFFFFFFFFFFFFFFFFFFFFFFFFFFFFF AND SUB PUSH2 0xB63 JUMPI DUP7 DUP3 PUSH2 0xB5C SWAP2 SWAP1 PUSH2 0x1EDC JUMP JUMPDEST SWAP1 POP PUSH2 0xB67 JUMP JUMPDEST DUP2 SWAP1 POP JUMPDEST PUSH0 PUSH1 0x4 PUSH0 SWAP1 SLOAD SWAP1 PUSH2 0x100 EXP SWAP1 DIV PUSH20 0xFFFFFFFFFFFFFFFFFFFFFFFFFFFFFFFFFFFFFFFF AND PUSH20 0xFFFFFFFFFFFFFFFFFFFFFFFFFFFFFFFFFFFFFFFF AND PUSH4 0x70A08231 ADDRESS PUSH1 0x40 MLOAD DUP3 PUSH4 0xFFFFFFFF AND PUSH1 0xE0 SHL DUP2 MSTORE PUSH1 0x4 ADD PUSH2 0xBC2 SWAP2 SWAP1 PUSH2 0x1964 JUMP JUMPDEST PUSH1 0x20 PUSH1 0x40 MLOAD DUP1 DUP4 SUB DUP2 DUP7 GAS STATICCALL ISZERO DUP1 ISZERO PUSH2 0xBDD JUMPI RETURNDATASIZE PUSH0 DUP1 RETURNDATACOPY RETURNDATASIZE PUSH0 REVERT JUMPDEST POP POP POP POP PUSH1 0x40 MLOAD RETURNDATASIZE PUSH1 0x1F NOT PUSH1 0x1F DUP3 ADD AND DUP3 ADD DUP1 PUSH1 0x40 MSTORE POP DUP2 ADD SWAP1 PUSH2 0xC01 SWAP2 SWAP1 PUSH2 0x19F9 JUMP JUMPDEST SWAP1 POP DUP1 DUP3 GT ISZERO PUSH2 0xC4A JUMPI DUP1 DUP3 PUSH1 0x40 MLOAD PUSH32 0x8F0F420600000000000000000000000000000000000000000000000000000000 DUP2 MSTORE PUSH1 0x4 ADD PUSH2 0xC41 SWAP3 SWAP2 SWAP1 PUSH2 0x1C8E JUMP JUMPDEST PUSH1 0x40 MLOAD DUP1 SWAP2 SUB SWAP1 REVERT JUMPDEST PUSH1 0x4 PUSH0 SWAP1 SLOAD SWAP1 PUSH2 0x100 EXP SWAP1 DIV PUSH20 0xFFFFFFFFFFFFFFFFFFFFFFFFFFFFFFFFFFFFFFFF AND PUSH20 0xFFFFFFFFFFFFFFFFFFFFFFFFFFFFFFFFFFFFFFFF AND PUSH4 0x95EA7B3 PUSH1 0x3 PUSH0 SWAP1 SLOAD SWAP1 PUSH2 0x100 EXP SWAP1 DIV PUSH20 0xFFFFFFFFFFFFFFFFFFFFFFFFFFFFFFFFFFFFFFFF AND DUP5 PUSH1 0x40 MLOAD DUP4 PUSH4 0xFFFFFFFF AND PUSH1 0xE0 SHL DUP2 MSTORE PUSH1 0x4 ADD PUSH2 0xCC7 SWAP3 SWAP2 SWAP1 PUSH2 0x1CB5 JUMP JUMPDEST PUSH1 0x20 PUSH1 0x40 MLOAD DUP1 DUP4 SUB DUP2 PUSH0 DUP8 GAS CALL ISZERO DUP1 ISZERO PUSH2 0xCE3 JUMPI RETURNDATASIZE PUSH0 DUP1 RETURNDATACOPY RETURNDATASIZE PUSH0 REVERT JUMPDEST POP POP POP POP PUSH1 0x40 MLOAD RETURNDATASIZE PUSH1 0x1F NOT PUSH1 0x1F DUP3 ADD AND DUP3 ADD DUP1 PUSH1 0x40 MSTORE POP DUP2 ADD SWAP1 PUSH2 0xD07 SWAP2 SWAP1 PUSH2 0x1CF0 JUMP JUMPDEST POP PUSH1 0x4 PUSH0 SWAP1 SLOAD SWAP1 PUSH2 0x100 EXP SWAP1 DIV PUSH20 0xFFFFFFFFFFFFFFFFFFFFFFFFFFFFFFFFFFFFFFFF AND PUSH20 0xFFFFFFFFFFFFFFFFFFFFFFFFFFFFFFFFFFFFFFFF AND DUP10 PUSH20 0xFFFFFFFFFFFFFFFFFFFFFFFFFFFFFFFFFFFFFFFF AND EQ PUSH2 0xEBD JUMPI PUSH0 DUP10 PUSH20 0xFFFFFFFFFFFFFFFFFFFFFFFFFFFFFFFFFFFFFFFF AND PUSH4 0x70A08231 ADDRESS PUSH1 0x40 MLOAD DUP3 PUSH4 0xFFFFFFFF AND PUSH1 0xE0 SHL DUP2 MSTORE PUSH1 0x4 ADD PUSH2 0xD96 SWAP2 SWAP1 PUSH2 0x1964 JUMP JUMPDEST PUSH1 0x20 PUSH1 0x40 MLOAD DUP1 DUP4 SUB DUP2 DUP7 GAS STATICCALL ISZERO DUP1 ISZERO PUSH2 0xDB1 JUMPI RETURNDATASIZE PUSH0 DUP1 RETURNDATACOPY RETURNDATASIZE PUSH0 REVERT JUMPDEST POP POP POP POP PUSH1 0x40 MLOAD RETURNDATASIZE PUSH1 0x1F NOT PUSH1 0x1F DUP3 ADD AND DUP3 ADD DUP1 PUSH1 0x40 MSTORE POP DUP2 ADD SWAP1 PUSH2 0xDD5 SWAP2 SWAP1 PUSH2 0x19F9 JUMP JUMPDEST SWAP1 POP DUP1 DUP10 GT ISZERO PUSH2 0xE1E JUMPI DUP1 DUP10 PUSH1 0x40 MLOAD PUSH32 0x8F0F420600000000000000000000000000000000000000000000000000000000 DUP2 MSTORE PUSH1 0x4 ADD PUSH2 0xE15 SWAP3 SWAP2 SWAP1 PUSH2 0x1C8E JUMP JUMPDEST PUSH1 0x40 MLOAD DUP1 SWAP2 SUB SWAP1 REVERT JUMPDEST DUP10 PUSH20 0xFFFFFFFFFFFFFFFFFFFFFFFFFFFFFFFFFFFFFFFF AND PUSH4 0x95EA7B3 PUSH1 0x3 PUSH0 SWAP1 SLOAD SWAP1 PUSH2 0x100 EXP SWAP1 DIV PUSH20 0xFFFFFFFFFFFFFFFFFFFFFFFFFFFFFFFFFFFFFFFF AND DUP12 PUSH1 0x40 MLOAD DUP4 PUSH4 0xFFFFFFFF AND PUSH1 0xE0 SHL DUP2 MSTORE PUSH1 0x4 ADD PUSH2 0xE7A SWAP3 SWAP2 SWAP1 PUSH2 0x1CB5 JUMP JUMPDEST PUSH1 0x20 PUSH1 0x40 MLOAD DUP1 DUP4 SUB DUP2 PUSH0 DUP8 GAS CALL ISZERO DUP1 ISZERO PUSH2 0xE96 JUMPI RETURNDATASIZE PUSH0 DUP1 RETURNDATACOPY RETURNDATASIZE PUSH0 REVERT JUMPDEST POP POP POP POP PUSH1 0x40 MLOAD RETURNDATASIZE PUSH1 0x1F NOT PUSH1 0x1F DUP3 ADD AND DUP3 ADD DUP1 PUSH1 0x40 MSTORE POP DUP2 ADD SWAP1 PUSH2 0xEBA SWAP2 SWAP1 PUSH2 0x1CF0 JUMP JUMPDEST POP POP JUMPDEST PUSH1 0x3 PUSH0 SWAP1 SLOAD SWAP1 PUSH2 0x100 EXP SWAP1 DIV PUSH20 0xFFFFFFFFFFFFFFFFFFFFFFFFFFFFFFFFFFFFFFFF AND PUSH20 0xFFFFFFFFFFFFFFFFFFFFFFFFFFFFFFFFFFFFFFFF AND PUSH4 0x96F4E9F9 DUP13 DUP7 PUSH1 0x40 MLOAD DUP4 PUSH4 0xFFFFFFFF AND PUSH1 0xE0 SHL DUP2 MSTORE PUSH1 0x4 ADD PUSH2 0xF19 SWAP3 SWAP2 SWAP1 PUSH2 0x1C51 JUMP JUMPDEST PUSH1 0x20 PUSH1 0x40 MLOAD DUP1 DUP4 SUB DUP2 PUSH0 DUP8 GAS CALL ISZERO DUP1 ISZERO PUSH2 0xF35 JUMPI RETURNDATASIZE PUSH0 DUP1 RETURNDATACOPY RETURNDATASIZE PUSH0 REVERT JUMPDEST POP POP POP POP PUSH1 0x40 MLOAD RETURNDATASIZE PUSH1 0x1F NOT PUSH1 0x1F DUP3 ADD AND DUP3 ADD DUP1 PUSH1 0x40 MSTORE POP DUP2 ADD SWAP1 PUSH2 0xF59 SWAP2 SWAP1 PUSH2 0x1D45 JUMP JUMPDEST SWAP7 POP DUP11 PUSH8 0xFFFFFFFFFFFFFFFF AND DUP8 PUSH32 0xC15FB748C32BA4EB29C1C311E78533F93B4425EAB49EA87C6FE4279ECADCA043 DUP13 DUP13 DUP13 PUSH1 0x4 PUSH0 SWAP1 SLOAD SWAP1 PUSH2 0x100 EXP SWAP1 DIV PUSH20 0xFFFFFFFFFFFFFFFFFFFFFFFFFFFFFFFFFFFFFFFF AND DUP10 PUSH1 0x40 MLOAD PUSH2 0xFBF SWAP6 SWAP5 SWAP4 SWAP3 SWAP2 SWAP1 PUSH2 0x1D70 JUMP JUMPDEST PUSH1 0x40 MLOAD DUP1 SWAP2 SUB SWAP1 LOG3 POP POP POP POP POP POP SWAP5 SWAP4 POP POP POP POP JUMP JUMPDEST PUSH2 0xFDD PUSH2 0x1031 JUMP JUMPDEST DUP1 PUSH1 0x2 PUSH0 DUP5 PUSH8 0xFFFFFFFFFFFFFFFF AND PUSH8 0xFFFFFFFFFFFFFFFF AND DUP2 MSTORE PUSH1 0x20 ADD SWAP1 DUP2 MSTORE PUSH1 0x20 ADD PUSH0 KECCAK256 PUSH0 PUSH2 0x100 EXP DUP2 SLOAD DUP2 PUSH1 0xFF MUL NOT AND SWAP1 DUP4 ISZERO ISZERO MUL OR SWAP1 SSTORE POP POP POP JUMP JUMPDEST PUSH2 0x1025 PUSH2 0x1031 JUMP JUMPDEST PUSH2 0x102E DUP2 PUSH2 0x1286 JUMP JUMPDEST POP JUMP JUMPDEST PUSH0 DUP1 SLOAD SWAP1 PUSH2 0x100 EXP SWAP1 DIV PUSH20 0xFFFFFFFFFFFFFFFFFFFFFFFFFFFFFFFFFFFFFFFF AND PUSH20 0xFFFFFFFFFFFFFFFFFFFFFFFFFFFFFFFFFFFFFFFF AND CALLER PUSH20 0xFFFFFFFFFFFFFFFFFFFFFFFFFFFFFFFFFFFFFFFF AND EQ PUSH2 0x10BE JUMPI PUSH1 0x40 MLOAD PUSH32 0x8C379A000000000000000000000000000000000000000000000000000000000 DUP2 MSTORE PUSH1 0x4 ADD PUSH2 0x10B5 SWAP1 PUSH2 0x1F59 JUMP JUMPDEST PUSH1 0x40 MLOAD DUP1 SWAP2 SUB SWAP1 REVERT JUMPDEST JUMP JUMPDEST PUSH2 0x1141 DUP4 PUSH4 0xA9059CBB PUSH1 0xE0 SHL DUP5 DUP5 PUSH1 0x40 MLOAD PUSH1 0x24 ADD PUSH2 0x10DF SWAP3 SWAP2 SWAP1 PUSH2 0x1CB5 JUMP JUMPDEST PUSH1 0x40 MLOAD PUSH1 0x20 DUP2 DUP4 SUB SUB DUP2 MSTORE SWAP1 PUSH1 0x40 MSTORE SWAP1 PUSH28 0xFFFFFFFFFFFFFFFFFFFFFFFFFFFFFFFFFFFFFFFFFFFFFFFFFFFFFFFF NOT AND PUSH1 0x20 DUP3 ADD DUP1 MLOAD PUSH28 0xFFFFFFFFFFFFFFFFFFFFFFFFFFFFFFFFFFFFFFFFFFFFFFFFFFFFFFFF DUP4 DUP2 DUP4 AND OR DUP4 MSTORE POP POP POP POP PUSH2 0x13B0 JUMP JUMPDEST POP POP POP JUMP JUMPDEST PUSH2 0x114E PUSH2 0x16B9 JUMP JUMPDEST PUSH0 PUSH1 0x1 PUSH8 0xFFFFFFFFFFFFFFFF DUP2 GT ISZERO PUSH2 0x116A JUMPI PUSH2 0x1169 PUSH2 0x1F77 JUMP JUMPDEST JUMPDEST PUSH1 0x40 MLOAD SWAP1 DUP1 DUP3 MSTORE DUP1 PUSH1 0x20 MUL PUSH1 0x20 ADD DUP3 ADD PUSH1 0x40 MSTORE DUP1 ISZERO PUSH2 0x11A3 JUMPI DUP2 PUSH1 0x20 ADD JUMPDEST PUSH2 0x1190 PUSH2 0x16FD JUMP JUMPDEST DUP2 MSTORE PUSH1 0x20 ADD SWAP1 PUSH1 0x1 SWAP1 SUB SWAP1 DUP2 PUSH2 0x1188 JUMPI SWAP1 POP JUMPDEST POP SWAP1 POP PUSH1 0x40 MLOAD DUP1 PUSH1 0x40 ADD PUSH1 0x40 MSTORE DUP1 DUP7 PUSH20 0xFFFFFFFFFFFFFFFFFFFFFFFFFFFFFFFFFFFFFFFF AND DUP2 MSTORE PUSH1 0x20 ADD DUP6 DUP2 MSTORE POP DUP2 PUSH0 DUP2 MLOAD DUP2 LT PUSH2 0x11E4 JUMPI PUSH2 0x11E3 PUSH2 0x1FA4 JUMP JUMPDEST JUMPDEST PUSH1 0x20 MUL PUSH1 0x20 ADD ADD DUP2 SWAP1 MSTORE POP PUSH1 0x40 MLOAD DUP1 PUSH1 0xA0 ADD PUSH1 0x40 MSTORE DUP1 DUP8 PUSH1 0x40 MLOAD PUSH1 0x20 ADD PUSH2 0x120B SWAP2 SWAP1 PUSH2 0x1964 JUMP JUMPDEST PUSH1 0x40 MLOAD PUSH1 0x20 DUP2 DUP4 SUB SUB DUP2 MSTORE SWAP1 PUSH1 0x40 MSTORE DUP2 MSTORE PUSH1 0x20 ADD PUSH1 0x40 MLOAD DUP1 PUSH1 0x20 ADD PUSH1 0x40 MSTORE DUP1 PUSH0 DUP2 MSTORE POP DUP2 MSTORE PUSH1 0x20 ADD DUP3 DUP2 MSTORE PUSH1 0x20 ADD DUP5 PUSH20 0xFFFFFFFFFFFFFFFFFFFFFFFFFFFFFFFFFFFFFFFF AND DUP2 MSTORE PUSH1 0x20 ADD PUSH2 0x1278 PUSH1 0x40 MLOAD DUP1 PUSH1 0x40 ADD PUSH1 0x40 MSTORE DUP1 PUSH3 0x7A120 DUP2 MSTORE PUSH1 0x20 ADD PUSH1 0x1 ISZERO ISZERO DUP2 MSTORE POP PUSH2 0x1475 JUMP JUMPDEST DUP2 MSTORE POP SWAP2 POP POP SWAP5 SWAP4 POP POP POP POP JUMP JUMPDEST CALLER PUSH20 0xFFFFFFFFFFFFFFFFFFFFFFFFFFFFFFFFFFFFFFFF AND DUP2 PUSH20 0xFFFFFFFFFFFFFFFFFFFFFFFFFFFFFFFFFFFFFFFF AND SUB PUSH2 0x12F4 JUMPI PUSH1 0x40 MLOAD PUSH32 0x8C379A000000000000000000000000000000000000000000000000000000000 DUP2 MSTORE PUSH1 0x4 ADD PUSH2 0x12EB SWAP1 PUSH2 0x201B JUMP JUMPDEST PUSH1 0x40 MLOAD DUP1 SWAP2 SUB SWAP1 REVERT JUMPDEST DUP1 PUSH1 0x1 PUSH0 PUSH2 0x100 EXP DUP2 SLOAD DUP2 PUSH20 0xFFFFFFFFFFFFFFFFFFFFFFFFFFFFFFFFFFFFFFFF MUL NOT AND SWAP1 DUP4 PUSH20 0xFFFFFFFFFFFFFFFFFFFFFFFFFFFFFFFFFFFFFFFF AND MUL OR SWAP1 SSTORE POP DUP1 PUSH20 0xFFFFFFFFFFFFFFFFFFFFFFFFFFFFFFFFFFFFFFFF AND PUSH0 DUP1 SLOAD SWAP1 PUSH2 0x100 EXP SWAP1 DIV PUSH20 0xFFFFFFFFFFFFFFFFFFFFFFFFFFFFFFFFFFFFFFFF AND PUSH20 0xFFFFFFFFFFFFFFFFFFFFFFFFFFFFFFFFFFFFFFFF AND PUSH32 0xED8889F560326EB138920D842192F0EB3DD22B4F139C87A2C57538E05BAE1278 PUSH1 0x40 MLOAD PUSH1 0x40 MLOAD DUP1 SWAP2 SUB SWAP1 LOG3 POP JUMP JUMPDEST PUSH0 PUSH2 0x1411 DUP3 PUSH1 0x40 MLOAD DUP1 PUSH1 0x40 ADD PUSH1 0x40 MSTORE DUP1 PUSH1 0x20 DUP2 MSTORE PUSH1 0x20 ADD PUSH32 0x5361666545524332303A206C6F772D6C6576656C2063616C6C206661696C6564 DUP2 MSTORE POP DUP6 PUSH20 0xFFFFFFFFFFFFFFFFFFFFFFFFFFFFFFFFFFFFFFFF AND PUSH2 0x14F4 SWAP1 SWAP3 SWAP2 SWAP1 PUSH4 0xFFFFFFFF AND JUMP JUMPDEST SWAP1 POP PUSH0 DUP2 MLOAD GT ISZERO PUSH2 0x1470 JUMPI DUP1 DUP1 PUSH1 0x20 ADD SWAP1 MLOAD DUP2 ADD SWAP1 PUSH2 0x1430 SWAP2 SWAP1 PUSH2 0x1CF0 JUMP JUMPDEST PUSH2 0x146F JUMPI PUSH1 0x40 MLOAD PUSH32 0x8C379A000000000000000000000000000000000000000000000000000000000 DUP2 MSTORE PUSH1 0x4 ADD PUSH2 0x1466 SWAP1 PUSH2 0x20A9 JUMP JUMPDEST PUSH1 0x40 MLOAD DUP1 SWAP2 SUB SWAP1 REVERT JUMPDEST JUMPDEST POP POP POP JUMP JUMPDEST PUSH1 0x60 PUSH4 0x181DCF10 PUSH1 0xE0 SHL DUP3 PUSH1 0x40 MLOAD PUSH1 0x24 ADD PUSH2 0x1490 SWAP2 SWAP1 PUSH2 0x2103 JUMP JUMPDEST PUSH1 0x40 MLOAD PUSH1 0x20 DUP2 DUP4 SUB SUB DUP2 MSTORE SWAP1 PUSH1 0x40 MSTORE SWAP1 PUSH28 0xFFFFFFFFFFFFFFFFFFFFFFFFFFFFFFFFFFFFFFFFFFFFFFFFFFFFFFFF NOT AND PUSH1 0x20 DUP3 ADD DUP1 MLOAD PUSH28 0xFFFFFFFFFFFFFFFFFFFFFFFFFFFFFFFFFFFFFFFFFFFFFFFFFFFFFFFF DUP4 DUP2 DUP4 AND OR DUP4 MSTORE POP POP POP POP SWAP1 POP SWAP2 SWAP1 POP JUMP JUMPDEST PUSH1 0x60 PUSH2 0x1502 DUP5 DUP5 PUSH0 DUP6 PUSH2 0x150B JUMP JUMPDEST SWAP1 POP SWAP4 SWAP3 POP POP POP JUMP JUMPDEST PUSH1 0x60 DUP3 SELFBALANCE LT ISZERO PUSH2 0x1550 JUMPI PUSH1 0x40 MLOAD PUSH32 0x8C379A000000000000000000000000000000000000000000000000000000000 DUP2 MSTORE PUSH1 0x4 ADD PUSH2 0x1547 SWAP1 PUSH2 0x218C JUMP JUMPDEST PUSH1 0x40 MLOAD DUP1 SWAP2 SUB SWAP1 REVERT JUMPDEST PUSH0 DUP1 DUP7 PUSH20 0xFFFFFFFFFFFFFFFFFFFFFFFFFFFFFFFFFFFFFFFF AND DUP6 DUP8 PUSH1 0x40 MLOAD PUSH2 0x1578 SWAP2 SWAP1 PUSH2 0x21DA JUMP JUMPDEST PUSH0 PUSH1 0x40 MLOAD DUP1 DUP4 SUB DUP2 DUP6 DUP8 GAS CALL SWAP3 POP POP POP RETURNDATASIZE DUP1 PUSH0 DUP2 EQ PUSH2 0x15B2 JUMPI PUSH1 0x40 MLOAD SWAP2 POP PUSH1 0x1F NOT PUSH1 0x3F RETURNDATASIZE ADD AND DUP3 ADD PUSH1 0x40 MSTORE RETURNDATASIZE DUP3 MSTORE RETURNDATASIZE PUSH0 PUSH1 0x20 DUP5 ADD RETURNDATACOPY PUSH2 0x15B7 JUMP JUMPDEST PUSH1 0x60 SWAP2 POP JUMPDEST POP SWAP2 POP SWAP2 POP PUSH2 0x15C8 DUP8 DUP4 DUP4 DUP8 PUSH2 0x15D4 JUMP JUMPDEST SWAP3 POP POP POP SWAP5 SWAP4 POP POP POP POP JUMP JUMPDEST PUSH1 0x60 DUP4 ISZERO PUSH2 0x1635 JUMPI PUSH0 DUP4 MLOAD SUB PUSH2 0x162D JUMPI PUSH2 0x15ED DUP6 PUSH2 0x1648 JUMP JUMPDEST PUSH2 0x162C JUMPI PUSH1 0x40 MLOAD PUSH32 0x8C379A000000000000000000000000000000000000000000000000000000000 DUP2 MSTORE PUSH1 0x4 ADD PUSH2 0x1623 SWAP1 PUSH2 0x223A JUMP JUMPDEST PUSH1 0x40 MLOAD DUP1 SWAP2 SUB SWAP1 REVERT JUMPDEST JUMPDEST DUP3 SWAP1 POP PUSH2 0x1640 JUMP JUMPDEST PUSH2 0x163F DUP4 DUP4 PUSH2 0x166A JUMP JUMPDEST JUMPDEST SWAP5 SWAP4 POP POP POP POP JUMP JUMPDEST PUSH0 DUP1 DUP3 PUSH20 0xFFFFFFFFFFFFFFFFFFFFFFFFFFFFFFFFFFFFFFFF AND EXTCODESIZE GT SWAP1 POP SWAP2 SWAP1 POP JUMP JUMPDEST PUSH0 DUP3 MLOAD GT ISZERO PUSH2 0x167C JUMPI DUP2 MLOAD DUP1 DUP4 PUSH1 0x20 ADD REVERT JUMPDEST DUP1 PUSH1 0x40 MLOAD PUSH32 0x8C379A000000000000000000000000000000000000000000000000000000000 DUP2 MSTORE PUSH1 0x4 ADD PUSH2 0x16B0 SWAP2 SWAP1 PUSH2 0x229A JUMP JUMPDEST PUSH1 0x40 MLOAD DUP1 SWAP2 SUB SWAP1 REVERT JUMPDEST PUSH1 0x40 MLOAD DUP1 PUSH1 0xA0 ADD PUSH1 0x40 MSTORE DUP1 PUSH1 0x60 DUP2 MSTORE PUSH1 0x20 ADD PUSH1 0x60 DUP2 MSTORE PUSH1 0x20 ADD PUSH1 0x60 DUP2 MSTORE PUSH1 0x20 ADD PUSH0 PUSH20 0xFFFFFFFFFFFFFFFFFFFFFFFFFFFFFFFFFFFFFFFF AND DUP2 MSTORE PUSH1 0x20 ADD PUSH1 0x60 DUP2 MSTORE POP SWAP1 JUMP JUMPDEST PUSH1 0x40 MLOAD DUP1 PUSH1 0x40 ADD PUSH1 0x40 MSTORE DUP1 PUSH0 PUSH20 0xFFFFFFFFFFFFFFFFFFFFFFFFFFFFFFFFFFFFFFFF AND DUP2 MSTORE PUSH1 0x20 ADD PUSH0 DUP2 MSTORE POP SWAP1 JUMP JUMPDEST PUSH0 DUP1 REVERT JUMPDEST PUSH0 PUSH8 0xFFFFFFFFFFFFFFFF DUP3 AND SWAP1 POP SWAP2 SWAP1 POP JUMP JUMPDEST PUSH2 0x174B DUP2 PUSH2 0x172F JUMP JUMPDEST DUP2 EQ PUSH2 0x1755 JUMPI PUSH0 DUP1 REVERT JUMPDEST POP JUMP JUMPDEST PUSH0 DUP2 CALLDATALOAD SWAP1 POP PUSH2 0x1766 DUP2 PUSH2 0x1742 JUMP JUMPDEST SWAP3 SWAP2 POP POP JUMP JUMPDEST PUSH0 PUSH1 0x20 DUP3 DUP5 SUB SLT ISZERO PUSH2 0x1781 JUMPI PUSH2 0x1780 PUSH2 0x172B JUMP JUMPDEST JUMPDEST PUSH0 PUSH2 0x178E DUP5 DUP3 DUP6 ADD PUSH2 0x1758 JUMP JUMPDEST SWAP2 POP POP SWAP3 SWAP2 POP POP JUMP JUMPDEST PUSH0 DUP2 ISZERO ISZERO SWAP1 POP SWAP2 SWAP1 POP JUMP JUMPDEST PUSH2 0x17AB DUP2 PUSH2 0x1797 JUMP JUMPDEST DUP3 MSTORE POP POP JUMP JUMPDEST PUSH0 PUSH1 0x20 DUP3 ADD SWAP1 POP PUSH2 0x17C4 PUSH0 DUP4 ADD DUP5 PUSH2 0x17A2 JUMP JUMPDEST SWAP3 SWAP2 POP POP JUMP JUMPDEST PUSH0 PUSH20 0xFFFFFFFFFFFFFFFFFFFFFFFFFFFFFFFFFFFFFFFF DUP3 AND SWAP1 POP SWAP2 SWAP1 POP JUMP JUMPDEST PUSH0 PUSH2 0x17F3 DUP3 PUSH2 0x17CA JUMP JUMPDEST SWAP1 POP SWAP2 SWAP1 POP JUMP JUMPDEST PUSH2 0x1803 DUP2 PUSH2 0x17E9 JUMP JUMPDEST DUP2 EQ PUSH2 0x180D JUMPI PUSH0 DUP1 REVERT JUMPDEST POP JUMP JUMPDEST PUSH0 DUP2 CALLDATALOAD SWAP1 POP PUSH2 0x181E DUP2 PUSH2 0x17FA JUMP JUMPDEST SWAP3 SWAP2 POP POP JUMP JUMPDEST PUSH0 DUP1 PUSH1 0x40 DUP4 DUP6 SUB SLT ISZERO PUSH2 0x183A JUMPI PUSH2 0x1839 PUSH2 0x172B JUMP JUMPDEST JUMPDEST PUSH0 PUSH2 0x1847 DUP6 DUP3 DUP7 ADD PUSH2 0x1810 JUMP JUMPDEST SWAP3 POP POP PUSH1 0x20 PUSH2 0x1858 DUP6 DUP3 DUP7 ADD PUSH2 0x1810 JUMP JUMPDEST SWAP2 POP POP SWAP3 POP SWAP3 SWAP1 POP JUMP JUMPDEST PUSH0 DUP2 SWAP1 POP SWAP2 SWAP1 POP JUMP JUMPDEST PUSH2 0x1874 DUP2 PUSH2 0x1862 JUMP JUMPDEST DUP2 EQ PUSH2 0x187E JUMPI PUSH0 DUP1 REVERT JUMPDEST POP JUMP JUMPDEST PUSH0 DUP2 CALLDATALOAD SWAP1 POP PUSH2 0x188F DUP2 PUSH2 0x186B JUMP JUMPDEST SWAP3 SWAP2 POP POP JUMP JUMPDEST PUSH0 DUP1 PUSH0 DUP1 PUSH1 0x80 DUP6 DUP8 SUB SLT ISZERO PUSH2 0x18AD JUMPI PUSH2 0x18AC PUSH2 0x172B JUMP JUMPDEST JUMPDEST PUSH0 PUSH2 0x18BA DUP8 DUP3 DUP9 ADD PUSH2 0x1758 JUMP JUMPDEST SWAP5 POP POP PUSH1 0x20 PUSH2 0x18CB DUP8 DUP3 DUP9 ADD PUSH2 0x1810 JUMP JUMPDEST SWAP4 POP POP PUSH1 0x40 PUSH2 0x18DC DUP8 DUP3 DUP9 ADD PUSH2 0x1810 JUMP JUMPDEST SWAP3 POP POP PUSH1 0x60 PUSH2 0x18ED DUP8 DUP3 DUP9 ADD PUSH2 0x1881 JUMP JUMPDEST SWAP2 POP POP SWAP3 SWAP6 SWAP2 SWAP5 POP SWAP3 POP JUMP JUMPDEST PUSH0 DUP2 SWAP1 POP SWAP2 SWAP1 POP JUMP JUMPDEST PUSH2 0x190B DUP2 PUSH2 0x18F9 JUMP JUMPDEST DUP3 MSTORE POP POP JUMP JUMPDEST PUSH0 PUSH1 0x20 DUP3 ADD SWAP1 POP PUSH2 0x1924 PUSH0 DUP4 ADD DUP5 PUSH2 0x1902 JUMP JUMPDEST SWAP3 SWAP2 POP POP JUMP JUMPDEST PUSH0 PUSH1 0x20 DUP3 DUP5 SUB SLT ISZERO PUSH2 0x193F JUMPI PUSH2 0x193E PUSH2 0x172B JUMP JUMPDEST JUMPDEST PUSH0 PUSH2 0x194C DUP5 DUP3 DUP6 ADD PUSH2 0x1810 JUMP JUMPDEST SWAP2 POP POP SWAP3 SWAP2 POP POP JUMP JUMPDEST PUSH2 0x195E DUP2 PUSH2 0x17E9 JUMP JUMPDEST DUP3 MSTORE POP POP JUMP JUMPDEST PUSH0 PUSH1 0x20 DUP3 ADD SWAP1 POP PUSH2 0x1977 PUSH0 DUP4 ADD DUP5 PUSH2 0x1955 JUMP JUMPDEST SWAP3 SWAP2 POP POP JUMP JUMPDEST PUSH2 0x1986 DUP2 PUSH2 0x1797 JUMP JUMPDEST DUP2 EQ PUSH2 0x1990 JUMPI PUSH0 DUP1 REVERT JUMPDEST POP JUMP JUMPDEST PUSH0 DUP2 CALLDATALOAD SWAP1 POP PUSH2 0x19A1 DUP2 PUSH2 0x197D JUMP JUMPDEST SWAP3 SWAP2 POP POP JUMP JUMPDEST PUSH0 DUP1 PUSH1 0x40 DUP4 DUP6 SUB SLT ISZERO PUSH2 0x19BD JUMPI PUSH2 0x19BC PUSH2 0x172B JUMP JUMPDEST JUMPDEST PUSH0 PUSH2 0x19CA DUP6 DUP3 DUP7 ADD PUSH2 0x1758 JUMP JUMPDEST SWAP3 POP POP PUSH1 0x20 PUSH2 0x19DB DUP6 DUP3 DUP7 ADD PUSH2 0x1993 JUMP JUMPDEST SWAP2 POP POP SWAP3 POP SWAP3 SWAP1 POP JUMP JUMPDEST PUSH0 DUP2 MLOAD SWAP1 POP PUSH2 0x19F3 DUP2 PUSH2 0x186B JUMP JUMPDEST SWAP3 SWAP2 POP POP JUMP JUMPDEST PUSH0 PUSH1 0x20 DUP3 DUP5 SUB SLT ISZERO PUSH2 0x1A0E JUMPI PUSH2 0x1A0D PUSH2 0x172B JUMP JUMPDEST JUMPDEST PUSH0 PUSH2 0x1A1B DUP5 DUP3 DUP6 ADD PUSH2 0x19E5 JUMP JUMPDEST SWAP2 POP POP SWAP3 SWAP2 POP POP JUMP JUMPDEST PUSH2 0x1A2D DUP2 PUSH2 0x172F JUMP JUMPDEST DUP3 MSTORE POP POP JUMP JUMPDEST PUSH0 PUSH1 0x20 DUP3 ADD SWAP1 POP PUSH2 0x1A46 PUSH0 DUP4 ADD DUP5 PUSH2 0x1A24 JUMP JUMPDEST SWAP3 SWAP2 POP POP JUMP JUMPDEST PUSH0 DUP2 MLOAD SWAP1 POP SWAP2 SWAP1 POP JUMP JUMPDEST PUSH0 DUP3 DUP3 MSTORE PUSH1 0x20 DUP3 ADD SWAP1 POP SWAP3 SWAP2 POP POP JUMP JUMPDEST PUSH0 JUMPDEST DUP4 DUP2 LT ISZERO PUSH2 0x1A83 JUMPI DUP1 DUP3 ADD MLOAD DUP2 DUP5 ADD MSTORE PUSH1 0x20 DUP2 ADD SWAP1 POP PUSH2 0x1A68 JUMP JUMPDEST PUSH0 DUP5 DUP5 ADD MSTORE POP POP POP POP JUMP JUMPDEST PUSH0 PUSH1 0x1F NOT PUSH1 0x1F DUP4 ADD AND SWAP1 POP SWAP2 SWAP1 POP JUMP JUMPDEST PUSH0 PUSH2 0x1AA8 DUP3 PUSH2 0x1A4C JUMP JUMPDEST PUSH2 0x1AB2 DUP2 DUP6 PUSH2 0x1A56 JUMP JUMPDEST SWAP4 POP PUSH2 0x1AC2 DUP2 DUP6 PUSH1 0x20 DUP7 ADD PUSH2 0x1A66 JUMP JUMPDEST PUSH2 0x1ACB DUP2 PUSH2 0x1A8E JUMP JUMPDEST DUP5 ADD SWAP2 POP POP SWAP3 SWAP2 POP POP JUMP JUMPDEST PUSH0 DUP2 MLOAD SWAP1 POP SWAP2 SWAP1 POP JUMP JUMPDEST PUSH0 DUP3 DUP3 MSTORE PUSH1 0x20 DUP3 ADD SWAP1 POP SWAP3 SWAP2 POP POP JUMP JUMPDEST PUSH0 DUP2 SWAP1 POP PUSH1 0x20 DUP3 ADD SWAP1 POP SWAP2 SWAP1 POP JUMP JUMPDEST PUSH2 0x1B08 DUP2 PUSH2 0x17E9 JUMP JUMPDEST DUP3 MSTORE POP POP JUMP JUMPDEST PUSH2 0x1B17 DUP2 PUSH2 0x1862 JUMP JUMPDEST DUP3 MSTORE POP POP JUMP JUMPDEST PUSH1 0x40 DUP3 ADD PUSH0 DUP3 ADD MLOAD PUSH2 0x1B31 PUSH0 DUP6 ADD DUP3 PUSH2 0x1AFF JUMP JUMPDEST POP PUSH1 0x20 DUP3 ADD MLOAD PUSH2 0x1B44 PUSH1 0x20 DUP6 ADD DUP3 PUSH2 0x1B0E JUMP JUMPDEST POP POP POP POP JUMP JUMPDEST PUSH0 PUSH2 0x1B55 DUP4 DUP4 PUSH2 0x1B1D JUMP JUMPDEST PUSH1 0x40 DUP4 ADD SWAP1 POP SWAP3 SWAP2 POP POP JUMP JUMPDEST PUSH0 PUSH1 0x20 DUP3 ADD SWAP1 POP SWAP2 SWAP1 POP JUMP JUMPDEST PUSH0 PUSH2 0x1B77 DUP3 PUSH2 0x1AD6 JUMP JUMPDEST PUSH2 0x1B81 DUP2 DUP6 PUSH2 0x1AE0 JUMP JUMPDEST SWAP4 POP PUSH2 0x1B8C DUP4 PUSH2 0x1AF0 JUMP JUMPDEST DUP1 PUSH0 JUMPDEST DUP4 DUP2 LT ISZERO PUSH2 0x1BBC JUMPI DUP2 MLOAD PUSH2 0x1BA3 DUP9 DUP3 PUSH2 0x1B4A JUMP JUMPDEST SWAP8 POP PUSH2 0x1BAE DUP4 PUSH2 0x1B61 JUMP JUMPDEST SWAP3 POP POP PUSH1 0x1 DUP2 ADD SWAP1 POP PUSH2 0x1B8F JUMP JUMPDEST POP DUP6 SWAP4 POP POP POP POP SWAP3 SWAP2 POP POP JUMP JUMPDEST PUSH0 PUSH1 0xA0 DUP4 ADD PUSH0 DUP4 ADD MLOAD DUP5 DUP3 SUB PUSH0 DUP7 ADD MSTORE PUSH2 0x1BE3 DUP3 DUP3 PUSH2 0x1A9E JUMP JUMPDEST SWAP2 POP POP PUSH1 0x20 DUP4 ADD MLOAD DUP5 DUP3 SUB PUSH1 0x20 DUP7 ADD MSTORE PUSH2 0x1BFD DUP3 DUP3 PUSH2 0x1A9E JUMP JUMPDEST SWAP2 POP POP PUSH1 0x40 DUP4 ADD MLOAD DUP5 DUP3 SUB PUSH1 0x40 DUP7 ADD MSTORE PUSH2 0x1C17 DUP3 DUP3 PUSH2 0x1B6D JUMP JUMPDEST SWAP2 POP POP PUSH1 0x60 DUP4 ADD MLOAD PUSH2 0x1C2C PUSH1 0x60 DUP7 ADD DUP3 PUSH2 0x1AFF JUMP JUMPDEST POP PUSH1 0x80 DUP4 ADD MLOAD DUP5 DUP3 SUB PUSH1 0x80 DUP7 ADD MSTORE PUSH2 0x1C44 DUP3 DUP3 PUSH2 0x1A9E JUMP JUMPDEST SWAP2 POP POP DUP1 SWAP2 POP POP SWAP3 SWAP2 POP POP JUMP JUMPDEST PUSH0 PUSH1 0x40 DUP3 ADD SWAP1 POP PUSH2 0x1C64 PUSH0 DUP4 ADD DUP6 PUSH2 0x1A24 JUMP JUMPDEST DUP2 DUP2 SUB PUSH1 0x20 DUP4 ADD MSTORE PUSH2 0x1C76 DUP2 DUP5 PUSH2 0x1BC9 JUMP JUMPDEST SWAP1 POP SWAP4 SWAP3 POP POP POP JUMP JUMPDEST PUSH2 0x1C88 DUP2 PUSH2 0x1862 JUMP JUMPDEST DUP3 MSTORE POP POP JUMP JUMPDEST PUSH0 PUSH1 0x40 DUP3 ADD SWAP1 POP PUSH2 0x1CA1 PUSH0 DUP4 ADD DUP6 PUSH2 0x1C7F JUMP JUMPDEST PUSH2 0x1CAE PUSH1 0x20 DUP4 ADD DUP5 PUSH2 0x1C7F JUMP JUMPDEST SWAP4 SWAP3 POP POP POP JUMP JUMPDEST PUSH0 PUSH1 0x40 DUP3 ADD SWAP1 POP PUSH2 0x1CC8 PUSH0 DUP4 ADD DUP6 PUSH2 0x1955 JUMP JUMPDEST PUSH2 0x1CD5 PUSH1 0x20 DUP4 ADD DUP5 PUSH2 0x1C7F JUMP JUMPDEST SWAP4 SWAP3 POP POP POP JUMP JUMPDEST PUSH0 DUP2 MLOAD SWAP1 POP PUSH2 0x1CEA DUP2 PUSH2 0x197D JUMP JUMPDEST SWAP3 SWAP2 POP POP JUMP JUMPDEST PUSH0 PUSH1 0x20 DUP3 DUP5 SUB SLT ISZERO PUSH2 0x1D05 JUMPI PUSH2 0x1D04 PUSH2 0x172B JUMP JUMPDEST JUMPDEST PUSH0 PUSH2 0x1D12 DUP5 DUP3 DUP6 ADD PUSH2 0x1CDC JUMP JUMPDEST SWAP2 POP POP SWAP3 SWAP2 POP POP JUMP JUMPDEST PUSH2 0x1D24 DUP2 PUSH2 0x18F9 JUMP JUMPDEST DUP2 EQ PUSH2 0x1D2E JUMPI PUSH0 DUP1 REVERT JUMPDEST POP JUMP JUMPDEST PUSH0 DUP2 MLOAD SWAP1 POP PUSH2 0x1D3F DUP2 PUSH2 0x1D1B JUMP JUMPDEST SWAP3 SWAP2 POP POP JUMP JUMPDEST PUSH0 PUSH1 0x20 DUP3 DUP5 SUB SLT ISZERO PUSH2 0x1D5A JUMPI PUSH2 0x1D59 PUSH2 0x172B JUMP JUMPDEST JUMPDEST PUSH0 PUSH2 0x1D67 DUP5 DUP3 DUP6 ADD PUSH2 0x1D31 JUMP JUMPDEST SWAP2 POP POP SWAP3 SWAP2 POP POP JUMP JUMPDEST PUSH0 PUSH1 0xA0 DUP3 ADD SWAP1 POP PUSH2 0x1D83 PUSH0 DUP4 ADD DUP9 PUSH2 0x1955 JUMP JUMPDEST PUSH2 0x1D90 PUSH1 0x20 DUP4 ADD DUP8 PUSH2 0x1955 JUMP JUMPDEST PUSH2 0x1D9D PUSH1 0x40 DUP4 ADD DUP7 PUSH2 0x1C7F JUMP JUMPDEST PUSH2 0x1DAA PUSH1 0x60 DUP4 ADD DUP6 PUSH2 0x1955 JUMP JUMPDEST PUSH2 0x1DB7 PUSH1 0x80 DUP4 ADD DUP5 PUSH2 0x1C7F JUMP JUMPDEST SWAP7 SWAP6 POP POP POP POP POP POP JUMP JUMPDEST PUSH0 DUP2 SWAP1 POP SWAP3 SWAP2 POP POP JUMP JUMPDEST POP JUMP JUMPDEST PUSH0 PUSH2 0x1DD9 PUSH0 DUP4 PUSH2 0x1DC1 JUMP JUMPDEST SWAP2 POP PUSH2 0x1DE4 DUP3 PUSH2 0x1DCB JUMP JUMPDEST PUSH0 DUP3 ADD SWAP1 POP SWAP2 SWAP1 POP JUMP JUMPDEST PUSH0 PUSH2 0x1DF8 DUP3 PUSH2 0x1DCE JUMP JUMPDEST SWAP2 POP DUP2 SWAP1 POP SWAP2 SWAP1 POP JUMP JUMPDEST PUSH0 PUSH1 0x60 DUP3 ADD SWAP1 POP PUSH2 0x1E15 PUSH0 DUP4 ADD DUP7 PUSH2 0x1955 JUMP JUMPDEST PUSH2 0x1E22 PUSH1 0x20 DUP4 ADD DUP6 PUSH2 0x1955 JUMP JUMPDEST PUSH2 0x1E2F PUSH1 0x40 DUP4 ADD DUP5 PUSH2 0x1C7F JUMP JUMPDEST SWAP5 SWAP4 POP POP POP POP JUMP JUMPDEST PUSH0 DUP3 DUP3 MSTORE PUSH1 0x20 DUP3 ADD SWAP1 POP SWAP3 SWAP2 POP POP JUMP JUMPDEST PUSH32 0x4D7573742062652070726F706F736564206F776E657200000000000000000000 PUSH0 DUP3 ADD MSTORE POP JUMP JUMPDEST PUSH0 PUSH2 0x1E7B PUSH1 0x16 DUP4 PUSH2 0x1E37 JUMP JUMPDEST SWAP2 POP PUSH2 0x1E86 DUP3 PUSH2 0x1E47 JUMP JUMPDEST PUSH1 0x20 DUP3 ADD SWAP1 POP SWAP2 SWAP1 POP JUMP JUMPDEST PUSH0 PUSH1 0x20 DUP3 ADD SWAP1 POP DUP2 DUP2 SUB PUSH0 DUP4 ADD MSTORE PUSH2 0x1EA8 DUP2 PUSH2 0x1E6F JUMP JUMPDEST SWAP1 POP SWAP2 SWAP1 POP JUMP JUMPDEST PUSH32 0x4E487B7100000000000000000000000000000000000000000000000000000000 PUSH0 MSTORE PUSH1 0x11 PUSH1 0x4 MSTORE PUSH1 0x24 PUSH0 REVERT JUMPDEST PUSH0 PUSH2 0x1EE6 DUP3 PUSH2 0x1862 JUMP JUMPDEST SWAP2 POP PUSH2 0x1EF1 DUP4 PUSH2 0x1862 JUMP JUMPDEST SWAP3 POP DUP3 DUP3 ADD SWAP1 POP DUP1 DUP3 GT ISZERO PUSH2 0x1F09 JUMPI PUSH2 0x1F08 PUSH2 0x1EAF JUMP JUMPDEST JUMPDEST SWAP3 SWAP2 POP POP JUMP JUMPDEST PUSH32 0x4F6E6C792063616C6C61626C65206279206F776E657200000000000000000000 PUSH0 DUP3 ADD MSTORE POP JUMP JUMPDEST PUSH0 PUSH2 0x1F43 PUSH1 0x16 DUP4 PUSH2 0x1E37 JUMP JUMPDEST SWAP2 POP PUSH2 0x1F4E DUP3 PUSH2 0x1F0F JUMP JUMPDEST PUSH1 0x20 DUP3 ADD SWAP1 POP SWAP2 SWAP1 POP JUMP JUMPDEST PUSH0 PUSH1 0x20 DUP3 ADD SWAP1 POP DUP2 DUP2 SUB PUSH0 DUP4 ADD MSTORE PUSH2 0x1F70 DUP2 PUSH2 0x1F37 JUMP JUMPDEST SWAP1 POP SWAP2 SWAP1 POP JUMP JUMPDEST PUSH32 0x4E487B7100000000000000000000000000000000000000000000000000000000 PUSH0 MSTORE PUSH1 0x41 PUSH1 0x4 MSTORE PUSH1 0x24 PUSH0 REVERT JUMPDEST PUSH32 0x4E487B7100000000000000000000000000000000000000000000000000000000 PUSH0 MSTORE PUSH1 0x32 PUSH1 0x4 MSTORE PUSH1 0x24 PUSH0 REVERT JUMPDEST PUSH32 0x43616E6E6F74207472616E7366657220746F2073656C66000000000000000000 PUSH0 DUP3 ADD MSTORE POP JUMP JUMPDEST PUSH0 PUSH2 0x2005 PUSH1 0x17 DUP4 PUSH2 0x1E37 JUMP JUMPDEST SWAP2 POP PUSH2 0x2010 DUP3 PUSH2 0x1FD1 JUMP JUMPDEST PUSH1 0x20 DUP3 ADD SWAP1 POP SWAP2 SWAP1 POP JUMP JUMPDEST PUSH0 PUSH1 0x20 DUP3 ADD SWAP1 POP DUP2 DUP2 SUB PUSH0 DUP4 ADD MSTORE PUSH2 0x2032 DUP2 PUSH2 0x1FF9 JUMP JUMPDEST SWAP1 POP SWAP2 SWAP1 POP JUMP JUMPDEST PUSH32 0x5361666545524332303A204552433230206F7065726174696F6E20646964206E PUSH0 DUP3 ADD MSTORE PUSH32 0x6F74207375636365656400000000000000000000000000000000000000000000 PUSH1 0x20 DUP3 ADD MSTORE POP JUMP JUMPDEST PUSH0 PUSH2 0x2093 PUSH1 0x2A DUP4 PUSH2 0x1E37 JUMP JUMPDEST SWAP2 POP PUSH2 0x209E DUP3 PUSH2 0x2039 JUMP JUMPDEST PUSH1 0x40 DUP3 ADD SWAP1 POP SWAP2 SWAP1 POP JUMP JUMPDEST PUSH0 PUSH1 0x20 DUP3 ADD SWAP1 POP DUP2 DUP2 SUB PUSH0 DUP4 ADD MSTORE PUSH2 0x20C0 DUP2 PUSH2 0x2087 JUMP JUMPDEST SWAP1 POP SWAP2 SWAP1 POP JUMP JUMPDEST PUSH2 0x20D0 DUP2 PUSH2 0x1797 JUMP JUMPDEST DUP3 MSTORE POP POP JUMP JUMPDEST PUSH1 0x40 DUP3 ADD PUSH0 DUP3 ADD MLOAD PUSH2 0x20EA PUSH0 DUP6 ADD DUP3 PUSH2 0x1B0E JUMP JUMPDEST POP PUSH1 0x20 DUP3 ADD MLOAD PUSH2 0x20FD PUSH1 0x20 DUP6 ADD DUP3 PUSH2 0x20C7 JUMP JUMPDEST POP POP POP POP JUMP JUMPDEST PUSH0 PUSH1 0x40 DUP3 ADD SWAP1 POP PUSH2 0x2116 PUSH0 DUP4 ADD DUP5 PUSH2 0x20D6 JUMP JUMPDEST SWAP3 SWAP2 POP POP JUMP JUMPDEST PUSH32 0x416464726573733A20696E73756666696369656E742062616C616E636520666F PUSH0 DUP3 ADD MSTORE PUSH32 0x722063616C6C0000000000000000000000000000000000000000000000000000 PUSH1 0x20 DUP3 ADD MSTORE POP JUMP JUMPDEST PUSH0 PUSH2 0x2176 PUSH1 0x26 DUP4 PUSH2 0x1E37 JUMP JUMPDEST SWAP2 POP PUSH2 0x2181 DUP3 PUSH2 0x211C JUMP JUMPDEST PUSH1 0x40 DUP3 ADD SWAP1 POP SWAP2 SWAP1 POP JUMP JUMPDEST PUSH0 PUSH1 0x20 DUP3 ADD SWAP1 POP DUP2 DUP2 SUB PUSH0 DUP4 ADD MSTORE PUSH2 0x21A3 DUP2 PUSH2 0x216A JUMP JUMPDEST SWAP1 POP SWAP2 SWAP1 POP JUMP JUMPDEST PUSH0 PUSH2 0x21B4 DUP3 PUSH2 0x1A4C JUMP JUMPDEST PUSH2 0x21BE DUP2 DUP6 PUSH2 0x1DC1 JUMP JUMPDEST SWAP4 POP PUSH2 0x21CE DUP2 DUP6 PUSH1 0x20 DUP7 ADD PUSH2 0x1A66 JUMP JUMPDEST DUP1 DUP5 ADD SWAP2 POP POP SWAP3 SWAP2 POP POP JUMP JUMPDEST PUSH0 PUSH2 0x21E5 DUP3 DUP5 PUSH2 0x21AA JUMP JUMPDEST SWAP2 POP DUP2 SWAP1 POP SWAP3 SWAP2 POP POP JUMP JUMPDEST PUSH32 0x416464726573733A2063616C6C20746F206E6F6E2D636F6E7472616374000000 PUSH0 DUP3 ADD MSTORE POP JUMP JUMPDEST PUSH0 PUSH2 0x2224 PUSH1 0x1D DUP4 PUSH2 0x1E37 JUMP JUMPDEST SWAP2 POP PUSH2 0x222F DUP3 PUSH2 0x21F0 JUMP JUMPDEST PUSH1 0x20 DUP3 ADD SWAP1 POP SWAP2 SWAP1 POP JUMP JUMPDEST PUSH0 PUSH1 0x20 DUP3 ADD SWAP1 POP DUP2 DUP2 SUB PUSH0 DUP4 ADD MSTORE PUSH2 0x2251 DUP2 PUSH2 0x2218 JUMP JUMPDEST SWAP1 POP SWAP2 SWAP1 POP JUMP JUMPDEST PUSH0 DUP2 MLOAD SWAP1 POP SWAP2 SWAP1 POP JUMP JUMPDEST PUSH0 PUSH2 0x226C DUP3 PUSH2 0x2258 JUMP JUMPDEST PUSH2 0x2276 DUP2 DUP6 PUSH2 0x1E37 JUMP JUMPDEST SWAP4 POP PUSH2 0x2286 DUP2 DUP6 PUSH1 0x20 DUP7 ADD PUSH2 0x1A66 JUMP JUMPDEST PUSH2 0x228F DUP2 PUSH2 0x1A8E JUMP JUMPDEST DUP5 ADD SWAP2 POP POP SWAP3 SWAP2 POP POP JUMP JUMPDEST PUSH0 PUSH1 0x20 DUP3 ADD SWAP1 POP DUP2 DUP2 SUB PUSH0 DUP4 ADD MSTORE PUSH2 0x22B2 DUP2 DUP5 PUSH2 0x2262 JUMP JUMPDEST SWAP1 POP SWAP3 SWAP2 POP POP JUMP INVALID LOG2 PUSH5 0x6970667358 0x22 SLT KECCAK256 DUP1 0x29 REVERT PUSH22 0x13F5974AF969FF9DD9A81075AB6A2C0E8D74D61FFDD MULMOD 0xEC BYTE 0x2B 0xBD CALLDATASIZE PUSH5 0x736F6C6343 STOP ADDMOD XOR STOP CALLER "
				},
				"gasEstimates": {
					"creation": {
						"codeDepositCost": "1788800",
						"executionCost": "infinite",
						"totalCost": "infinite"
					},
					"external": {
						"acceptOwnership()": "54533",
						"allowlistDestinationChain(uint64,bool)": "27194",
						"allowlistedChains(uint64)": "2792",
						"owner()": "2537",
						"transferOwnership(address)": "30733",
						"transferTokensPayLINK(uint64,address,address,uint256)": "infinite",
						"transferTokensPayNative(uint64,address,address,uint256)": "infinite",
						"withdraw(address)": "infinite",
						"withdrawToken(address,address)": "infinite"
					},
					"internal": {
						"_buildCCIPMessage(address,address,uint256,address)": "infinite"
					}
				},
				"methodIdentifiers": {
					"acceptOwnership()": "79ba5097",
					"allowlistDestinationChain(uint64,bool)": "96d3b83d",
					"allowlistedChains(uint64)": "0bb106eb",
					"owner()": "8da5cb5b",
					"transferOwnership(address)": "f2fde38b",
					"transferTokensPayLINK(uint64,address,address,uint256)": "95e1402c",
					"transferTokensPayNative(uint64,address,address,uint256)": "51419b4b",
					"withdraw(address)": "51cff8d9",
					"withdrawToken(address,address)": "3aeac4e1"
				}
			},
			"storageLayout": {
				"storage": [
					{
						"astId": 221,
						"contract": "contracts/chainlink/sendToken.sol:TokenTransferor",
						"label": "s_owner",
						"offset": 0,
						"slot": "0",
						"type": "t_address"
					},
					{
						"astId": 223,
						"contract": "contracts/chainlink/sendToken.sol:TokenTransferor",
						"label": "s_pendingOwner",
						"offset": 0,
						"slot": "1",
						"type": "t_address"
					},
					{
						"astId": 1193,
						"contract": "contracts/chainlink/sendToken.sol:TokenTransferor",
						"label": "allowlistedChains",
						"offset": 0,
						"slot": "2",
						"type": "t_mapping(t_uint64,t_bool)"
					},
					{
						"astId": 1196,
						"contract": "contracts/chainlink/sendToken.sol:TokenTransferor",
						"label": "s_router",
						"offset": 0,
						"slot": "3",
						"type": "t_contract(IRouterClient)42"
					},
					{
						"astId": 1199,
						"contract": "contracts/chainlink/sendToken.sol:TokenTransferor",
						"label": "s_linkToken",
						"offset": 0,
						"slot": "4",
						"type": "t_contract(IERC20)485"
					}
				],
				"types": {
					"t_address": {
						"encoding": "inplace",
						"label": "address",
						"numberOfBytes": "20"
					},
					"t_bool": {
						"encoding": "inplace",
						"label": "bool",
						"numberOfBytes": "1"
					},
					"t_contract(IERC20)485": {
						"encoding": "inplace",
						"label": "contract IERC20",
						"numberOfBytes": "20"
					},
					"t_contract(IRouterClient)42": {
						"encoding": "inplace",
						"label": "contract IRouterClient",
						"numberOfBytes": "20"
					},
					"t_mapping(t_uint64,t_bool)": {
						"encoding": "mapping",
						"key": "t_uint64",
						"label": "mapping(uint64 => bool)",
						"numberOfBytes": "32",
						"value": "t_bool"
					},
					"t_uint64": {
						"encoding": "inplace",
						"label": "uint64",
						"numberOfBytes": "8"
					}
				}
			},
			"userdoc": {
				"kind": "user",
				"methods": {
					"acceptOwnership()": {
						"notice": "Allows an ownership transfer to be completed by the recipient."
					},
					"allowlistDestinationChain(uint64,bool)": {
						"notice": "This function can only be called by the owner."
					},
					"constructor": {
						"notice": "Constructor initializes the contract with the router address."
					},
					"owner()": {
						"notice": "Get the current owner"
					},
					"transferOwnership(address)": {
						"notice": "Allows an owner to begin transferring ownership to a new address."
					},
					"transferTokensPayLINK(uint64,address,address,uint256)": {
						"notice": "Transfer tokens to receiver on the destination chain.pay in LINK.the token must be in the list of supported tokens.This function can only be called by the owner."
					},
					"transferTokensPayNative(uint64,address,address,uint256)": {
						"notice": "Transfer tokens to receiver on the destination chain.Pay in native gas such as ETH on Ethereum or POL on Polygon.the token must be in the list of supported tokens.This function can only be called by the owner."
					},
					"withdraw(address)": {
						"notice": "Allows the contract owner to withdraw the entire balance of Ether from the contract."
					},
					"withdrawToken(address,address)": {
						"notice": "Allows the owner of the contract to withdraw all tokens of a specific ERC20 token."
					}
				},
				"version": 1
			}
		}
	}
}