{
	"contracts/10.8.require.sol": {
		"demo": {
			"abi": [
				{
					"inputs": [
						{
							"internalType": "int256",
							"name": "b",
							"type": "int256"
						}
					],
					"name": "conditionals",
					"outputs": [
						{
							"internalType": "string",
							"name": "",
							"type": "string"
						}
					],
					"stateMutability": "nonpayable",
					"type": "function"
				},
				{
					"inputs": [],
					"name": "num",
					"outputs": [
						{
							"internalType": "int256",
							"name": "",
							"type": "int256"
						}
					],
					"stateMutability": "view",
					"type": "function"
				},
				{
					"inputs": [
						{
							"internalType": "int256",
							"name": "a",
							"type": "int256"
						}
					],
					"name": "requireCheck",
					"outputs": [],
					"stateMutability": "nonpayable",
					"type": "function"
				}
			],
			"devdoc": {
				"kind": "dev",
				"methods": {},
				"version": 1
			},
			"evm": {
				"assembly": "    /* \"contracts/10.8.require.sol\":70:465  contract demo {... */\n  mstore(0x40, 0x80)\n  callvalue\n  dup1\n  iszero\n  tag_1\n  jumpi\n  0x00\n  dup1\n  revert\ntag_1:\n  pop\n  dataSize(sub_0)\n  dup1\n  dataOffset(sub_0)\n  0x00\n  codecopy\n  0x00\n  return\nstop\n\nsub_0: assembly {\n        /* \"contracts/10.8.require.sol\":70:465  contract demo {... */\n      mstore(0x40, 0x80)\n      callvalue\n      dup1\n      iszero\n      tag_1\n      jumpi\n      0x00\n      dup1\n      revert\n    tag_1:\n      pop\n      jumpi(tag_2, lt(calldatasize, 0x04))\n      shr(0xe0, calldataload(0x00))\n      dup1\n      0x04f04595\n      eq\n      tag_3\n      jumpi\n      dup1\n      0x2caa2adc\n      eq\n      tag_4\n      jumpi\n      dup1\n      0x4e70b1dc\n      eq\n      tag_5\n      jumpi\n    tag_2:\n      0x00\n      dup1\n      revert\n        /* \"contracts/10.8.require.sol\":114:250  function requireCheck(int256 a) public {... */\n    tag_3:\n      tag_6\n      0x04\n      dup1\n      calldatasize\n      sub\n      dup2\n      add\n      swap1\n      tag_7\n      swap2\n      swap1\n      tag_8\n      jump\t// in\n    tag_7:\n      tag_9\n      jump\t// in\n    tag_6:\n      stop\n        /* \"contracts/10.8.require.sol\":256:463  function conditionals(int256 b) public returns (string memory) {... */\n    tag_4:\n      tag_10\n      0x04\n      dup1\n      calldatasize\n      sub\n      dup2\n      add\n      swap1\n      tag_11\n      swap2\n      swap1\n      tag_8\n      jump\t// in\n    tag_11:\n      tag_12\n      jump\t// in\n    tag_10:\n      mload(0x40)\n      tag_13\n      swap2\n      swap1\n      tag_14\n      jump\t// in\n    tag_13:\n      mload(0x40)\n      dup1\n      swap2\n      sub\n      swap1\n      return\n        /* \"contracts/10.8.require.sol\":90:107  int256 public num */\n    tag_5:\n      tag_15\n      tag_16\n      jump\t// in\n    tag_15:\n      mload(0x40)\n      tag_17\n      swap2\n      swap1\n      tag_18\n      jump\t// in\n    tag_17:\n      mload(0x40)\n      dup1\n      swap2\n      sub\n      swap1\n      return\n        /* \"contracts/10.8.require.sol\":114:250  function requireCheck(int256 a) public {... */\n    tag_9:\n        /* \"contracts/10.8.require.sol\":169:172  100 */\n      0x64\n        /* \"contracts/10.8.require.sol\":163:166  num */\n      0x00\n        /* \"contracts/10.8.require.sol\":163:172  num = 100 */\n      dup2\n      swap1\n      sstore\n      pop\n        /* \"contracts/10.8.require.sol\":194:195  0 */\n      0x00\n        /* \"contracts/10.8.require.sol\":190:191  a */\n      dup2\n        /* \"contracts/10.8.require.sol\":190:195  a > 0 */\n      sgt\n        /* \"contracts/10.8.require.sol\":182:226  require(a > 0, \"a is not greater than zero\") */\n      tag_20\n      jumpi\n      mload(0x40)\n      0x08c379a000000000000000000000000000000000000000000000000000000000\n      dup2\n      mstore\n      0x04\n      add\n      tag_21\n      swap1\n      tag_22\n      jump\t// in\n    tag_21:\n      mload(0x40)\n      dup1\n      swap2\n      sub\n      swap1\n      revert\n    tag_20:\n        /* \"contracts/10.8.require.sol\":242:243  a */\n      dup1\n        /* \"contracts/10.8.require.sol\":236:239  num */\n      0x00\n        /* \"contracts/10.8.require.sol\":236:243  num = a */\n      dup2\n      swap1\n      sstore\n      pop\n        /* \"contracts/10.8.require.sol\":114:250  function requireCheck(int256 a) public {... */\n      pop\n      jump\t// out\n        /* \"contracts/10.8.require.sol\":256:463  function conditionals(int256 b) public returns (string memory) {... */\n    tag_12:\n        /* \"contracts/10.8.require.sol\":304:317  string memory */\n      0x60\n        /* \"contracts/10.8.require.sol\":335:338  200 */\n      0xc8\n        /* \"contracts/10.8.require.sol\":329:332  num */\n      0x00\n        /* \"contracts/10.8.require.sol\":329:338  num = 200 */\n      dup2\n      swap1\n      sstore\n      pop\n        /* \"contracts/10.8.require.sol\":356:357  0 */\n      0x00\n        /* \"contracts/10.8.require.sol\":352:353  b */\n      dup3\n        /* \"contracts/10.8.require.sol\":352:357  b > 0 */\n      sgt\n        /* \"contracts/10.8.require.sol\":348:457  if (b > 0) {... */\n      iszero\n      tag_24\n      jumpi\n        /* \"contracts/10.8.require.sol\":379:380  b */\n      dup2\n        /* \"contracts/10.8.require.sol\":373:376  num */\n      0x00\n        /* \"contracts/10.8.require.sol\":373:380  num = b */\n      dup2\n      swap1\n      sstore\n      pop\n        /* \"contracts/10.8.require.sol\":348:457  if (b > 0) {... */\n      jump(tag_25)\n    tag_24:\n        /* \"contracts/10.8.require.sol\":411:446  return \"b is not greater than zero\" */\n      mload(0x40)\n      dup1\n      0x40\n      add\n      0x40\n      mstore\n      dup1\n      0x1a\n      dup2\n      mstore\n      0x20\n      add\n      0x62206973206e6f742067726561746572207468616e207a65726f000000000000\n      dup2\n      mstore\n      pop\n      swap1\n      pop\n      jump(tag_23)\n        /* \"contracts/10.8.require.sol\":348:457  if (b > 0) {... */\n    tag_25:\n        /* \"contracts/10.8.require.sol\":256:463  function conditionals(int256 b) public returns (string memory) {... */\n    tag_23:\n      swap2\n      swap1\n      pop\n      jump\t// out\n        /* \"contracts/10.8.require.sol\":90:107  int256 public num */\n    tag_16:\n      sload(0x00)\n      dup2\n      jump\t// out\n        /* \"#utility.yul\":88:205   */\n    tag_27:\n        /* \"#utility.yul\":197:198   */\n      0x00\n        /* \"#utility.yul\":194:195   */\n      dup1\n        /* \"#utility.yul\":187:199   */\n      revert\n        /* \"#utility.yul\":334:410   */\n    tag_29:\n        /* \"#utility.yul\":370:377   */\n      0x00\n        /* \"#utility.yul\":399:404   */\n      dup2\n        /* \"#utility.yul\":388:404   */\n      swap1\n      pop\n        /* \"#utility.yul\":334:410   */\n      swap2\n      swap1\n      pop\n      jump\t// out\n        /* \"#utility.yul\":416:536   */\n    tag_30:\n        /* \"#utility.yul\":488:511   */\n      tag_46\n        /* \"#utility.yul\":505:510   */\n      dup2\n        /* \"#utility.yul\":488:511   */\n      tag_29\n      jump\t// in\n    tag_46:\n        /* \"#utility.yul\":481:486   */\n      dup2\n        /* \"#utility.yul\":478:512   */\n      eq\n        /* \"#utility.yul\":468:530   */\n      tag_47\n      jumpi\n        /* \"#utility.yul\":526:527   */\n      0x00\n        /* \"#utility.yul\":523:524   */\n      dup1\n        /* \"#utility.yul\":516:528   */\n      revert\n        /* \"#utility.yul\":468:530   */\n    tag_47:\n        /* \"#utility.yul\":416:536   */\n      pop\n      jump\t// out\n        /* \"#utility.yul\":542:679   */\n    tag_31:\n        /* \"#utility.yul\":587:592   */\n      0x00\n        /* \"#utility.yul\":625:631   */\n      dup2\n        /* \"#utility.yul\":612:632   */\n      calldataload\n        /* \"#utility.yul\":603:632   */\n      swap1\n      pop\n        /* \"#utility.yul\":641:673   */\n      tag_49\n        /* \"#utility.yul\":667:672   */\n      dup2\n        /* \"#utility.yul\":641:673   */\n      tag_30\n      jump\t// in\n    tag_49:\n        /* \"#utility.yul\":542:679   */\n      swap3\n      swap2\n      pop\n      pop\n      jump\t// out\n        /* \"#utility.yul\":685:1012   */\n    tag_8:\n        /* \"#utility.yul\":743:749   */\n      0x00\n        /* \"#utility.yul\":792:794   */\n      0x20\n        /* \"#utility.yul\":780:789   */\n      dup3\n        /* \"#utility.yul\":771:778   */\n      dup5\n        /* \"#utility.yul\":767:790   */\n      sub\n        /* \"#utility.yul\":763:795   */\n      slt\n        /* \"#utility.yul\":760:879   */\n      iszero\n      tag_51\n      jumpi\n        /* \"#utility.yul\":798:877   */\n      tag_52\n      tag_27\n      jump\t// in\n    tag_52:\n        /* \"#utility.yul\":760:879   */\n    tag_51:\n        /* \"#utility.yul\":918:919   */\n      0x00\n        /* \"#utility.yul\":943:995   */\n      tag_53\n        /* \"#utility.yul\":987:994   */\n      dup5\n        /* \"#utility.yul\":978:984   */\n      dup3\n        /* \"#utility.yul\":967:976   */\n      dup6\n        /* \"#utility.yul\":963:985   */\n      add\n        /* \"#utility.yul\":943:995   */\n      tag_31\n      jump\t// in\n    tag_53:\n        /* \"#utility.yul\":933:995   */\n      swap2\n      pop\n        /* \"#utility.yul\":889:1005   */\n      pop\n        /* \"#utility.yul\":685:1012   */\n      swap3\n      swap2\n      pop\n      pop\n      jump\t// out\n        /* \"#utility.yul\":1018:1117   */\n    tag_32:\n        /* \"#utility.yul\":1070:1076   */\n      0x00\n        /* \"#utility.yul\":1104:1109   */\n      dup2\n        /* \"#utility.yul\":1098:1110   */\n      mload\n        /* \"#utility.yul\":1088:1110   */\n      swap1\n      pop\n        /* \"#utility.yul\":1018:1117   */\n      swap2\n      swap1\n      pop\n      jump\t// out\n        /* \"#utility.yul\":1123:1292   */\n    tag_33:\n        /* \"#utility.yul\":1207:1218   */\n      0x00\n        /* \"#utility.yul\":1241:1247   */\n      dup3\n        /* \"#utility.yul\":1236:1239   */\n      dup3\n        /* \"#utility.yul\":1229:1248   */\n      mstore\n        /* \"#utility.yul\":1281:1285   */\n      0x20\n        /* \"#utility.yul\":1276:1279   */\n      dup3\n        /* \"#utility.yul\":1272:1286   */\n      add\n        /* \"#utility.yul\":1257:1286   */\n      swap1\n      pop\n        /* \"#utility.yul\":1123:1292   */\n      swap3\n      swap2\n      pop\n      pop\n      jump\t// out\n        /* \"#utility.yul\":1298:1544   */\n    tag_34:\n        /* \"#utility.yul\":1379:1380   */\n      0x00\n        /* \"#utility.yul\":1389:1502   */\n    tag_57:\n        /* \"#utility.yul\":1403:1409   */\n      dup4\n        /* \"#utility.yul\":1400:1401   */\n      dup2\n        /* \"#utility.yul\":1397:1410   */\n      lt\n        /* \"#utility.yul\":1389:1502   */\n      iszero\n      tag_59\n      jumpi\n        /* \"#utility.yul\":1488:1489   */\n      dup1\n        /* \"#utility.yul\":1483:1486   */\n      dup3\n        /* \"#utility.yul\":1479:1490   */\n      add\n        /* \"#utility.yul\":1473:1491   */\n      mload\n        /* \"#utility.yul\":1469:1470   */\n      dup2\n        /* \"#utility.yul\":1464:1467   */\n      dup5\n        /* \"#utility.yul\":1460:1471   */\n      add\n        /* \"#utility.yul\":1453:1492   */\n      mstore\n        /* \"#utility.yul\":1425:1427   */\n      0x20\n        /* \"#utility.yul\":1422:1423   */\n      dup2\n        /* \"#utility.yul\":1418:1428   */\n      add\n        /* \"#utility.yul\":1413:1428   */\n      swap1\n      pop\n        /* \"#utility.yul\":1389:1502   */\n      jump(tag_57)\n    tag_59:\n        /* \"#utility.yul\":1536:1537   */\n      0x00\n        /* \"#utility.yul\":1527:1533   */\n      dup5\n        /* \"#utility.yul\":1522:1525   */\n      dup5\n        /* \"#utility.yul\":1518:1534   */\n      add\n        /* \"#utility.yul\":1511:1538   */\n      mstore\n        /* \"#utility.yul\":1360:1544   */\n      pop\n        /* \"#utility.yul\":1298:1544   */\n      pop\n      pop\n      pop\n      jump\t// out\n        /* \"#utility.yul\":1550:1652   */\n    tag_35:\n        /* \"#utility.yul\":1591:1597   */\n      0x00\n        /* \"#utility.yul\":1642:1644   */\n      0x1f\n        /* \"#utility.yul\":1638:1645   */\n      not\n        /* \"#utility.yul\":1633:1635   */\n      0x1f\n        /* \"#utility.yul\":1626:1631   */\n      dup4\n        /* \"#utility.yul\":1622:1636   */\n      add\n        /* \"#utility.yul\":1618:1646   */\n      and\n        /* \"#utility.yul\":1608:1646   */\n      swap1\n      pop\n        /* \"#utility.yul\":1550:1652   */\n      swap2\n      swap1\n      pop\n      jump\t// out\n        /* \"#utility.yul\":1658:2035   */\n    tag_36:\n        /* \"#utility.yul\":1746:1749   */\n      0x00\n        /* \"#utility.yul\":1774:1813   */\n      tag_62\n        /* \"#utility.yul\":1807:1812   */\n      dup3\n        /* \"#utility.yul\":1774:1813   */\n      tag_32\n      jump\t// in\n    tag_62:\n        /* \"#utility.yul\":1829:1900   */\n      tag_63\n        /* \"#utility.yul\":1893:1899   */\n      dup2\n        /* \"#utility.yul\":1888:1891   */\n      dup6\n        /* \"#utility.yul\":1829:1900   */\n      tag_33\n      jump\t// in\n    tag_63:\n        /* \"#utility.yul\":1822:1900   */\n      swap4\n      pop\n        /* \"#utility.yul\":1909:1974   */\n      tag_64\n        /* \"#utility.yul\":1967:1973   */\n      dup2\n        /* \"#utility.yul\":1962:1965   */\n      dup6\n        /* \"#utility.yul\":1955:1959   */\n      0x20\n        /* \"#utility.yul\":1948:1953   */\n      dup7\n        /* \"#utility.yul\":1944:1960   */\n      add\n        /* \"#utility.yul\":1909:1974   */\n      tag_34\n      jump\t// in\n    tag_64:\n        /* \"#utility.yul\":1999:2028   */\n      tag_65\n        /* \"#utility.yul\":2021:2027   */\n      dup2\n        /* \"#utility.yul\":1999:2028   */\n      tag_35\n      jump\t// in\n    tag_65:\n        /* \"#utility.yul\":1994:1997   */\n      dup5\n        /* \"#utility.yul\":1990:2029   */\n      add\n        /* \"#utility.yul\":1983:2029   */\n      swap2\n      pop\n        /* \"#utility.yul\":1750:2035   */\n      pop\n        /* \"#utility.yul\":1658:2035   */\n      swap3\n      swap2\n      pop\n      pop\n      jump\t// out\n        /* \"#utility.yul\":2041:2354   */\n    tag_14:\n        /* \"#utility.yul\":2154:2158   */\n      0x00\n        /* \"#utility.yul\":2192:2194   */\n      0x20\n        /* \"#utility.yul\":2181:2190   */\n      dup3\n        /* \"#utility.yul\":2177:2195   */\n      add\n        /* \"#utility.yul\":2169:2195   */\n      swap1\n      pop\n        /* \"#utility.yul\":2241:2250   */\n      dup2\n        /* \"#utility.yul\":2235:2239   */\n      dup2\n        /* \"#utility.yul\":2231:2251   */\n      sub\n        /* \"#utility.yul\":2227:2228   */\n      0x00\n        /* \"#utility.yul\":2216:2225   */\n      dup4\n        /* \"#utility.yul\":2212:2229   */\n      add\n        /* \"#utility.yul\":2205:2252   */\n      mstore\n        /* \"#utility.yul\":2269:2347   */\n      tag_67\n        /* \"#utility.yul\":2342:2346   */\n      dup2\n        /* \"#utility.yul\":2333:2339   */\n      dup5\n        /* \"#utility.yul\":2269:2347   */\n      tag_36\n      jump\t// in\n    tag_67:\n        /* \"#utility.yul\":2261:2347   */\n      swap1\n      pop\n        /* \"#utility.yul\":2041:2354   */\n      swap3\n      swap2\n      pop\n      pop\n      jump\t// out\n        /* \"#utility.yul\":2360:2475   */\n    tag_37:\n        /* \"#utility.yul\":2445:2468   */\n      tag_69\n        /* \"#utility.yul\":2462:2467   */\n      dup2\n        /* \"#utility.yul\":2445:2468   */\n      tag_29\n      jump\t// in\n    tag_69:\n        /* \"#utility.yul\":2440:2443   */\n      dup3\n        /* \"#utility.yul\":2433:2469   */\n      mstore\n        /* \"#utility.yul\":2360:2475   */\n      pop\n      pop\n      jump\t// out\n        /* \"#utility.yul\":2481:2699   */\n    tag_18:\n        /* \"#utility.yul\":2572:2576   */\n      0x00\n        /* \"#utility.yul\":2610:2612   */\n      0x20\n        /* \"#utility.yul\":2599:2608   */\n      dup3\n        /* \"#utility.yul\":2595:2613   */\n      add\n        /* \"#utility.yul\":2587:2613   */\n      swap1\n      pop\n        /* \"#utility.yul\":2623:2692   */\n      tag_71\n        /* \"#utility.yul\":2689:2690   */\n      0x00\n        /* \"#utility.yul\":2678:2687   */\n      dup4\n        /* \"#utility.yul\":2674:2691   */\n      add\n        /* \"#utility.yul\":2665:2671   */\n      dup5\n        /* \"#utility.yul\":2623:2692   */\n      tag_37\n      jump\t// in\n    tag_71:\n        /* \"#utility.yul\":2481:2699   */\n      swap3\n      swap2\n      pop\n      pop\n      jump\t// out\n        /* \"#utility.yul\":2705:2881   */\n    tag_38:\n        /* \"#utility.yul\":2845:2873   */\n      0x61206973206e6f742067726561746572207468616e207a65726f000000000000\n        /* \"#utility.yul\":2841:2842   */\n      0x00\n        /* \"#utility.yul\":2833:2839   */\n      dup3\n        /* \"#utility.yul\":2829:2843   */\n      add\n        /* \"#utility.yul\":2822:2874   */\n      mstore\n        /* \"#utility.yul\":2705:2881   */\n      pop\n      jump\t// out\n        /* \"#utility.yul\":2887:3253   */\n    tag_39:\n        /* \"#utility.yul\":3029:3032   */\n      0x00\n        /* \"#utility.yul\":3050:3117   */\n      tag_74\n        /* \"#utility.yul\":3114:3116   */\n      0x1a\n        /* \"#utility.yul\":3109:3112   */\n      dup4\n        /* \"#utility.yul\":3050:3117   */\n      tag_33\n      jump\t// in\n    tag_74:\n        /* \"#utility.yul\":3043:3117   */\n      swap2\n      pop\n        /* \"#utility.yul\":3126:3219   */\n      tag_75\n        /* \"#utility.yul\":3215:3218   */\n      dup3\n        /* \"#utility.yul\":3126:3219   */\n      tag_38\n      jump\t// in\n    tag_75:\n        /* \"#utility.yul\":3244:3246   */\n      0x20\n        /* \"#utility.yul\":3239:3242   */\n      dup3\n        /* \"#utility.yul\":3235:3247   */\n      add\n        /* \"#utility.yul\":3228:3247   */\n      swap1\n      pop\n        /* \"#utility.yul\":2887:3253   */\n      swap2\n      swap1\n      pop\n      jump\t// out\n        /* \"#utility.yul\":3259:3678   */\n    tag_22:\n        /* \"#utility.yul\":3425:3429   */\n      0x00\n        /* \"#utility.yul\":3463:3465   */\n      0x20\n        /* \"#utility.yul\":3452:3461   */\n      dup3\n        /* \"#utility.yul\":3448:3466   */\n      add\n        /* \"#utility.yul\":3440:3466   */\n      swap1\n      pop\n        /* \"#utility.yul\":3512:3521   */\n      dup2\n        /* \"#utility.yul\":3506:3510   */\n      dup2\n        /* \"#utility.yul\":3502:3522   */\n      sub\n        /* \"#utility.yul\":3498:3499   */\n      0x00\n        /* \"#utility.yul\":3487:3496   */\n      dup4\n        /* \"#utility.yul\":3483:3500   */\n      add\n        /* \"#utility.yul\":3476:3523   */\n      mstore\n        /* \"#utility.yul\":3540:3671   */\n      tag_77\n        /* \"#utility.yul\":3666:3670   */\n      dup2\n        /* \"#utility.yul\":3540:3671   */\n      tag_39\n      jump\t// in\n    tag_77:\n        /* \"#utility.yul\":3532:3671   */\n      swap1\n      pop\n        /* \"#utility.yul\":3259:3678   */\n      swap2\n      swap1\n      pop\n      jump\t// out\n\n    auxdata: 0xa2646970667358221220213d5d1503b3abc697a9c54f1d20ec6a156606f0f8e7399e9243f07cd2c2850d64736f6c63430008180033\n}\n",
				"bytecode": {
					"linkReferences": {},
					"object": "608060405234801561000f575f80fd5b506103358061001d5f395ff3fe608060405234801561000f575f80fd5b506004361061003f575f3560e01c806304f04595146100435780632caa2adc1461005f5780634e70b1dc1461008f575b5f80fd5b61005d6004803603810190610058919061019a565b6100ad565b005b6100796004803603810190610074919061019a565b6100ff565b604051610086919061024f565b60405180910390f35b61009761015e565b6040516100a4919061027e565b60405180910390f35b60645f819055505f81136100f6576040517f08c379a00000000000000000000000000000000000000000000000000000000081526004016100ed906102e1565b60405180910390fd5b805f8190555050565b606060c85f819055505f82131561011b57815f81905550610158565b6040518060400160405280601a81526020017f62206973206e6f742067726561746572207468616e207a65726f0000000000008152509050610159565b5b919050565b5f5481565b5f80fd5b5f819050919050565b61017981610167565b8114610183575f80fd5b50565b5f8135905061019481610170565b92915050565b5f602082840312156101af576101ae610163565b5b5f6101bc84828501610186565b91505092915050565b5f81519050919050565b5f82825260208201905092915050565b5f5b838110156101fc5780820151818401526020810190506101e1565b5f8484015250505050565b5f601f19601f8301169050919050565b5f610221826101c5565b61022b81856101cf565b935061023b8185602086016101df565b61024481610207565b840191505092915050565b5f6020820190508181035f8301526102678184610217565b905092915050565b61027881610167565b82525050565b5f6020820190506102915f83018461026f565b92915050565b7f61206973206e6f742067726561746572207468616e207a65726f0000000000005f82015250565b5f6102cb601a836101cf565b91506102d682610297565b602082019050919050565b5f6020820190508181035f8301526102f8816102bf565b905091905056fea2646970667358221220213d5d1503b3abc697a9c54f1d20ec6a156606f0f8e7399e9243f07cd2c2850d64736f6c63430008180033",
					"opcodes": "PUSH1 0x80 PUSH1 0x40 MSTORE CALLVALUE DUP1 ISZERO PUSH2 0xF JUMPI PUSH0 DUP1 REVERT JUMPDEST POP PUSH2 0x335 DUP1 PUSH2 0x1D PUSH0 CODECOPY PUSH0 RETURN INVALID PUSH1 0x80 PUSH1 0x40 MSTORE CALLVALUE DUP1 ISZERO PUSH2 0xF JUMPI PUSH0 DUP1 REVERT JUMPDEST POP PUSH1 0x4 CALLDATASIZE LT PUSH2 0x3F JUMPI PUSH0 CALLDATALOAD PUSH1 0xE0 SHR DUP1 PUSH4 0x4F04595 EQ PUSH2 0x43 JUMPI DUP1 PUSH4 0x2CAA2ADC EQ PUSH2 0x5F JUMPI DUP1 PUSH4 0x4E70B1DC EQ PUSH2 0x8F JUMPI JUMPDEST PUSH0 DUP1 REVERT JUMPDEST PUSH2 0x5D PUSH1 0x4 DUP1 CALLDATASIZE SUB DUP2 ADD SWAP1 PUSH2 0x58 SWAP2 SWAP1 PUSH2 0x19A JUMP JUMPDEST PUSH2 0xAD JUMP JUMPDEST STOP JUMPDEST PUSH2 0x79 PUSH1 0x4 DUP1 CALLDATASIZE SUB DUP2 ADD SWAP1 PUSH2 0x74 SWAP2 SWAP1 PUSH2 0x19A JUMP JUMPDEST PUSH2 0xFF JUMP JUMPDEST PUSH1 0x40 MLOAD PUSH2 0x86 SWAP2 SWAP1 PUSH2 0x24F JUMP JUMPDEST PUSH1 0x40 MLOAD DUP1 SWAP2 SUB SWAP1 RETURN JUMPDEST PUSH2 0x97 PUSH2 0x15E JUMP JUMPDEST PUSH1 0x40 MLOAD PUSH2 0xA4 SWAP2 SWAP1 PUSH2 0x27E JUMP JUMPDEST PUSH1 0x40 MLOAD DUP1 SWAP2 SUB SWAP1 RETURN JUMPDEST PUSH1 0x64 PUSH0 DUP2 SWAP1 SSTORE POP PUSH0 DUP2 SGT PUSH2 0xF6 JUMPI PUSH1 0x40 MLOAD PUSH32 0x8C379A000000000000000000000000000000000000000000000000000000000 DUP2 MSTORE PUSH1 0x4 ADD PUSH2 0xED SWAP1 PUSH2 0x2E1 JUMP JUMPDEST PUSH1 0x40 MLOAD DUP1 SWAP2 SUB SWAP1 REVERT JUMPDEST DUP1 PUSH0 DUP2 SWAP1 SSTORE POP POP JUMP JUMPDEST PUSH1 0x60 PUSH1 0xC8 PUSH0 DUP2 SWAP1 SSTORE POP PUSH0 DUP3 SGT ISZERO PUSH2 0x11B JUMPI DUP2 PUSH0 DUP2 SWAP1 SSTORE POP PUSH2 0x158 JUMP JUMPDEST PUSH1 0x40 MLOAD DUP1 PUSH1 0x40 ADD PUSH1 0x40 MSTORE DUP1 PUSH1 0x1A DUP2 MSTORE PUSH1 0x20 ADD PUSH32 0x62206973206E6F742067726561746572207468616E207A65726F000000000000 DUP2 MSTORE POP SWAP1 POP PUSH2 0x159 JUMP JUMPDEST JUMPDEST SWAP2 SWAP1 POP JUMP JUMPDEST PUSH0 SLOAD DUP2 JUMP JUMPDEST PUSH0 DUP1 REVERT JUMPDEST PUSH0 DUP2 SWAP1 POP SWAP2 SWAP1 POP JUMP JUMPDEST PUSH2 0x179 DUP2 PUSH2 0x167 JUMP JUMPDEST DUP2 EQ PUSH2 0x183 JUMPI PUSH0 DUP1 REVERT JUMPDEST POP JUMP JUMPDEST PUSH0 DUP2 CALLDATALOAD SWAP1 POP PUSH2 0x194 DUP2 PUSH2 0x170 JUMP JUMPDEST SWAP3 SWAP2 POP POP JUMP JUMPDEST PUSH0 PUSH1 0x20 DUP3 DUP5 SUB SLT ISZERO PUSH2 0x1AF JUMPI PUSH2 0x1AE PUSH2 0x163 JUMP JUMPDEST JUMPDEST PUSH0 PUSH2 0x1BC DUP5 DUP3 DUP6 ADD PUSH2 0x186 JUMP JUMPDEST SWAP2 POP POP SWAP3 SWAP2 POP POP JUMP JUMPDEST PUSH0 DUP2 MLOAD SWAP1 POP SWAP2 SWAP1 POP JUMP JUMPDEST PUSH0 DUP3 DUP3 MSTORE PUSH1 0x20 DUP3 ADD SWAP1 POP SWAP3 SWAP2 POP POP JUMP JUMPDEST PUSH0 JUMPDEST DUP4 DUP2 LT ISZERO PUSH2 0x1FC JUMPI DUP1 DUP3 ADD MLOAD DUP2 DUP5 ADD MSTORE PUSH1 0x20 DUP2 ADD SWAP1 POP PUSH2 0x1E1 JUMP JUMPDEST PUSH0 DUP5 DUP5 ADD MSTORE POP POP POP POP JUMP JUMPDEST PUSH0 PUSH1 0x1F NOT PUSH1 0x1F DUP4 ADD AND SWAP1 POP SWAP2 SWAP1 POP JUMP JUMPDEST PUSH0 PUSH2 0x221 DUP3 PUSH2 0x1C5 JUMP JUMPDEST PUSH2 0x22B DUP2 DUP6 PUSH2 0x1CF JUMP JUMPDEST SWAP4 POP PUSH2 0x23B DUP2 DUP6 PUSH1 0x20 DUP7 ADD PUSH2 0x1DF JUMP JUMPDEST PUSH2 0x244 DUP2 PUSH2 0x207 JUMP JUMPDEST DUP5 ADD SWAP2 POP POP SWAP3 SWAP2 POP POP JUMP JUMPDEST PUSH0 PUSH1 0x20 DUP3 ADD SWAP1 POP DUP2 DUP2 SUB PUSH0 DUP4 ADD MSTORE PUSH2 0x267 DUP2 DUP5 PUSH2 0x217 JUMP JUMPDEST SWAP1 POP SWAP3 SWAP2 POP POP JUMP JUMPDEST PUSH2 0x278 DUP2 PUSH2 0x167 JUMP JUMPDEST DUP3 MSTORE POP POP JUMP JUMPDEST PUSH0 PUSH1 0x20 DUP3 ADD SWAP1 POP PUSH2 0x291 PUSH0 DUP4 ADD DUP5 PUSH2 0x26F JUMP JUMPDEST SWAP3 SWAP2 POP POP JUMP JUMPDEST PUSH32 0x61206973206E6F742067726561746572207468616E207A65726F000000000000 PUSH0 DUP3 ADD MSTORE POP JUMP JUMPDEST PUSH0 PUSH2 0x2CB PUSH1 0x1A DUP4 PUSH2 0x1CF JUMP JUMPDEST SWAP2 POP PUSH2 0x2D6 DUP3 PUSH2 0x297 JUMP JUMPDEST PUSH1 0x20 DUP3 ADD SWAP1 POP SWAP2 SWAP1 POP JUMP JUMPDEST PUSH0 PUSH1 0x20 DUP3 ADD SWAP1 POP DUP2 DUP2 SUB PUSH0 DUP4 ADD MSTORE PUSH2 0x2F8 DUP2 PUSH2 0x2BF JUMP JUMPDEST SWAP1 POP SWAP2 SWAP1 POP JUMP INVALID LOG2 PUSH5 0x6970667358 0x22 SLT KECCAK256 0x21 RETURNDATASIZE TSTORE ISZERO SUB 0xB3 0xAB 0xC6 SWAP8 0xA9 0xC5 0x4F SAR KECCAK256 0xEC PUSH11 0x156606F0F8E7399E9243F0 PUSH29 0xD2C2850D64736F6C634300081800330000000000000000000000000000 "
				},
				"gasEstimates": {
					"creation": {
						"codeDepositCost": "164200",
						"executionCost": "206",
						"totalCost": "164406"
					},
					"external": {
						"conditionals(int256)": "infinite",
						"num()": "2446",
						"requireCheck(int256)": "27527"
					}
				},
				"methodIdentifiers": {
					"conditionals(int256)": "2caa2adc",
					"num()": "4e70b1dc",
					"requireCheck(int256)": "04f04595"
				}
			},
			"storageLayout": {
				"storage": [
					{
						"astId": 3,
						"contract": "contracts/10.8.require.sol:demo",
						"label": "num",
						"offset": 0,
						"slot": "0",
						"type": "t_int256"
					}
				],
				"types": {
					"t_int256": {
						"encoding": "inplace",
						"label": "int256",
						"numberOfBytes": "32"
					}
				}
			},
			"userdoc": {
				"kind": "user",
				"methods": {},
				"version": 1
			}
		}
	}
}