{
	"contracts/10.30.memoryvscalldata.sol": {
		"CallDataExample": {
			"abi": [
				{
					"inputs": [
						{
							"internalType": "string",
							"name": "name",
							"type": "string"
						}
					],
					"name": "getFirstCharacter",
					"outputs": [
						{
							"internalType": "bytes1",
							"name": "",
							"type": "bytes1"
						}
					],
					"stateMutability": "pure",
					"type": "function"
				}
			],
			"devdoc": {
				"kind": "dev",
				"methods": {},
				"version": 1
			},
			"evm": {
				"assembly": "    /* \"contracts/10.30.memoryvscalldata.sol\":102:327  contract CallDataExample {... */\n  mstore(0x40, 0x80)\n  callvalue\n  dup1\n  iszero\n  tag_1\n  jumpi\n  revert(0x00, 0x00)\ntag_1:\n  pop\n  dataSize(sub_0)\n  dup1\n  dataOffset(sub_0)\n  0x00\n  codecopy\n  0x00\n  return\nstop\n\nsub_0: assembly {\n        /* \"contracts/10.30.memoryvscalldata.sol\":102:327  contract CallDataExample {... */\n      mstore(0x40, 0x80)\n      callvalue\n      dup1\n      iszero\n      tag_1\n      jumpi\n      revert(0x00, 0x00)\n    tag_1:\n      pop\n      jumpi(tag_2, lt(calldatasize, 0x04))\n      shr(0xe0, calldataload(0x00))\n      dup1\n      0xe4498e34\n      eq\n      tag_3\n      jumpi\n    tag_2:\n      revert(0x00, 0x00)\n        /* \"contracts/10.30.memoryvscalldata.sol\":134:324  function getFirstCharacter(string calldata name)... */\n    tag_3:\n      tag_4\n      0x04\n      dup1\n      calldatasize\n      sub\n      dup2\n      add\n      swap1\n      tag_5\n      swap2\n      swap1\n      tag_6\n      jump\t// in\n    tag_5:\n      tag_7\n      jump\t// in\n    tag_4:\n      mload(0x40)\n      tag_8\n      swap2\n      swap1\n      tag_9\n      jump\t// in\n    tag_8:\n      mload(0x40)\n      dup1\n      swap2\n      sub\n      swap1\n      return\n    tag_7:\n        /* \"contracts/10.30.memoryvscalldata.sol\":233:239  bytes1 */\n      0x00\n        /* \"contracts/10.30.memoryvscalldata.sol\":270:274  name */\n      dup3\n      dup3\n        /* \"contracts/10.30.memoryvscalldata.sol\":276:277  0 */\n      0x00\n        /* \"contracts/10.30.memoryvscalldata.sol\":264:278  bytes(name)[0] */\n      dup2\n      dup2\n      lt\n      tag_11\n      jumpi\n      tag_12\n      tag_13\n      jump\t// in\n    tag_12:\n    tag_11:\n      swap1\n      pop\n      add\n      calldataload\n      0xf8\n      shr\n      0xf8\n      shl\n        /* \"contracts/10.30.memoryvscalldata.sol\":257:278  return bytes(name)[0] */\n      swap1\n      pop\n        /* \"contracts/10.30.memoryvscalldata.sol\":134:324  function getFirstCharacter(string calldata name)... */\n      swap3\n      swap2\n      pop\n      pop\n      jump\t// out\n        /* \"#utility.yul\":88:205   */\n    tag_15:\n        /* \"#utility.yul\":197:198   */\n      0x00\n        /* \"#utility.yul\":194:195   */\n      0x00\n        /* \"#utility.yul\":187:199   */\n      revert\n        /* \"#utility.yul\":211:328   */\n    tag_16:\n        /* \"#utility.yul\":320:321   */\n      0x00\n        /* \"#utility.yul\":317:318   */\n      0x00\n        /* \"#utility.yul\":310:322   */\n      revert\n        /* \"#utility.yul\":334:451   */\n    tag_17:\n        /* \"#utility.yul\":443:444   */\n      0x00\n        /* \"#utility.yul\":440:441   */\n      0x00\n        /* \"#utility.yul\":433:445   */\n      revert\n        /* \"#utility.yul\":457:574   */\n    tag_18:\n        /* \"#utility.yul\":566:567   */\n      0x00\n        /* \"#utility.yul\":563:564   */\n      0x00\n        /* \"#utility.yul\":556:568   */\n      revert\n        /* \"#utility.yul\":580:697   */\n    tag_19:\n        /* \"#utility.yul\":689:690   */\n      0x00\n        /* \"#utility.yul\":686:687   */\n      0x00\n        /* \"#utility.yul\":679:691   */\n      revert\n        /* \"#utility.yul\":717:1270   */\n    tag_20:\n        /* \"#utility.yul\":775:783   */\n      0x00\n        /* \"#utility.yul\":785:791   */\n      0x00\n        /* \"#utility.yul\":835:838   */\n      dup4\n        /* \"#utility.yul\":828:832   */\n      0x1f\n        /* \"#utility.yul\":820:826   */\n      dup5\n        /* \"#utility.yul\":816:833   */\n      add\n        /* \"#utility.yul\":812:839   */\n      slt\n        /* \"#utility.yul\":802:924   */\n      tag_31\n      jumpi\n        /* \"#utility.yul\":843:922   */\n      tag_32\n      tag_17\n      jump\t// in\n    tag_32:\n        /* \"#utility.yul\":802:924   */\n    tag_31:\n        /* \"#utility.yul\":956:962   */\n      dup3\n        /* \"#utility.yul\":943:963   */\n      calldataload\n        /* \"#utility.yul\":933:963   */\n      swap1\n      pop\n        /* \"#utility.yul\":986:1004   */\n      0xffffffffffffffff\n        /* \"#utility.yul\":978:984   */\n      dup2\n        /* \"#utility.yul\":975:1005   */\n      gt\n        /* \"#utility.yul\":972:1089   */\n      iszero\n      tag_33\n      jumpi\n        /* \"#utility.yul\":1008:1087   */\n      tag_34\n      tag_18\n      jump\t// in\n    tag_34:\n        /* \"#utility.yul\":972:1089   */\n    tag_33:\n        /* \"#utility.yul\":1122:1126   */\n      0x20\n        /* \"#utility.yul\":1114:1120   */\n      dup4\n        /* \"#utility.yul\":1110:1127   */\n      add\n        /* \"#utility.yul\":1098:1127   */\n      swap2\n      pop\n        /* \"#utility.yul\":1176:1179   */\n      dup4\n        /* \"#utility.yul\":1168:1172   */\n      0x01\n        /* \"#utility.yul\":1160:1166   */\n      dup3\n        /* \"#utility.yul\":1156:1173   */\n      mul\n        /* \"#utility.yul\":1146:1154   */\n      dup4\n        /* \"#utility.yul\":1142:1174   */\n      add\n        /* \"#utility.yul\":1139:1180   */\n      gt\n        /* \"#utility.yul\":1136:1264   */\n      iszero\n      tag_35\n      jumpi\n        /* \"#utility.yul\":1183:1262   */\n      tag_36\n      tag_19\n      jump\t// in\n    tag_36:\n        /* \"#utility.yul\":1136:1264   */\n    tag_35:\n        /* \"#utility.yul\":717:1270   */\n      swap3\n      pop\n      swap3\n      swap1\n      pop\n      jump\t// out\n        /* \"#utility.yul\":1276:1805   */\n    tag_6:\n        /* \"#utility.yul\":1347:1353   */\n      0x00\n        /* \"#utility.yul\":1355:1361   */\n      0x00\n        /* \"#utility.yul\":1404:1406   */\n      0x20\n        /* \"#utility.yul\":1392:1401   */\n      dup4\n        /* \"#utility.yul\":1383:1390   */\n      dup6\n        /* \"#utility.yul\":1379:1402   */\n      sub\n        /* \"#utility.yul\":1375:1407   */\n      slt\n        /* \"#utility.yul\":1372:1491   */\n      iszero\n      tag_38\n      jumpi\n        /* \"#utility.yul\":1410:1489   */\n      tag_39\n      tag_15\n      jump\t// in\n    tag_39:\n        /* \"#utility.yul\":1372:1491   */\n    tag_38:\n        /* \"#utility.yul\":1558:1559   */\n      0x00\n        /* \"#utility.yul\":1547:1556   */\n      dup4\n        /* \"#utility.yul\":1543:1560   */\n      add\n        /* \"#utility.yul\":1530:1561   */\n      calldataload\n        /* \"#utility.yul\":1588:1606   */\n      0xffffffffffffffff\n        /* \"#utility.yul\":1580:1586   */\n      dup2\n        /* \"#utility.yul\":1577:1607   */\n      gt\n        /* \"#utility.yul\":1574:1691   */\n      iszero\n      tag_40\n      jumpi\n        /* \"#utility.yul\":1610:1689   */\n      tag_41\n      tag_16\n      jump\t// in\n    tag_41:\n        /* \"#utility.yul\":1574:1691   */\n    tag_40:\n        /* \"#utility.yul\":1723:1788   */\n      tag_42\n        /* \"#utility.yul\":1780:1787   */\n      dup6\n        /* \"#utility.yul\":1771:1777   */\n      dup3\n        /* \"#utility.yul\":1760:1769   */\n      dup7\n        /* \"#utility.yul\":1756:1778   */\n      add\n        /* \"#utility.yul\":1723:1788   */\n      tag_20\n      jump\t// in\n    tag_42:\n        /* \"#utility.yul\":1705:1788   */\n      swap3\n      pop\n      swap3\n      pop\n        /* \"#utility.yul\":1501:1798   */\n      pop\n        /* \"#utility.yul\":1276:1805   */\n      swap3\n      pop\n      swap3\n      swap1\n      pop\n      jump\t// out\n        /* \"#utility.yul\":1811:1960   */\n    tag_21:\n        /* \"#utility.yul\":1847:1854   */\n      0x00\n        /* \"#utility.yul\":1887:1953   */\n      0xff00000000000000000000000000000000000000000000000000000000000000\n        /* \"#utility.yul\":1880:1885   */\n      dup3\n        /* \"#utility.yul\":1876:1954   */\n      and\n        /* \"#utility.yul\":1865:1954   */\n      swap1\n      pop\n        /* \"#utility.yul\":1811:1960   */\n      swap2\n      swap1\n      pop\n      jump\t// out\n        /* \"#utility.yul\":1966:2081   */\n    tag_22:\n        /* \"#utility.yul\":2051:2074   */\n      tag_45\n        /* \"#utility.yul\":2068:2073   */\n      dup2\n        /* \"#utility.yul\":2051:2074   */\n      tag_21\n      jump\t// in\n    tag_45:\n        /* \"#utility.yul\":2046:2049   */\n      dup3\n        /* \"#utility.yul\":2039:2075   */\n      mstore\n        /* \"#utility.yul\":1966:2081   */\n      pop\n      pop\n      jump\t// out\n        /* \"#utility.yul\":2087:2305   */\n    tag_9:\n        /* \"#utility.yul\":2178:2182   */\n      0x00\n        /* \"#utility.yul\":2216:2218   */\n      0x20\n        /* \"#utility.yul\":2205:2214   */\n      dup3\n        /* \"#utility.yul\":2201:2219   */\n      add\n        /* \"#utility.yul\":2193:2219   */\n      swap1\n      pop\n        /* \"#utility.yul\":2229:2298   */\n      tag_47\n        /* \"#utility.yul\":2295:2296   */\n      0x00\n        /* \"#utility.yul\":2284:2293   */\n      dup4\n        /* \"#utility.yul\":2280:2297   */\n      add\n        /* \"#utility.yul\":2271:2277   */\n      dup5\n        /* \"#utility.yul\":2229:2298   */\n      tag_22\n      jump\t// in\n    tag_47:\n        /* \"#utility.yul\":2087:2305   */\n      swap3\n      swap2\n      pop\n      pop\n      jump\t// out\n        /* \"#utility.yul\":2311:2491   */\n    tag_13:\n        /* \"#utility.yul\":2359:2436   */\n      0x4e487b7100000000000000000000000000000000000000000000000000000000\n        /* \"#utility.yul\":2356:2357   */\n      0x00\n        /* \"#utility.yul\":2349:2437   */\n      mstore\n        /* \"#utility.yul\":2456:2460   */\n      0x32\n        /* \"#utility.yul\":2453:2454   */\n      0x04\n        /* \"#utility.yul\":2446:2461   */\n      mstore\n        /* \"#utility.yul\":2480:2484   */\n      0x24\n        /* \"#utility.yul\":2477:2478   */\n      0x00\n        /* \"#utility.yul\":2470:2485   */\n      revert\n\n    auxdata: 0xa2646970667358221220c4c2589ff77a5bf1eaa5be73717b0edf7aa46aa1b7e1870bae677d2a3ec2056964736f6c634300081e0033\n}\n",
				"bytecode": {
					"linkReferences": {},
					"object": "6080604052348015600e575f5ffd5b506101ed8061001c5f395ff3fe608060405234801561000f575f5ffd5b5060043610610029575f3560e01c8063e4498e341461002d575b5f5ffd5b610047600480360381019061004291906100ec565b61005d565b6040516100549190610171565b60405180910390f35b5f82825f8181106100715761007061018a565b5b9050013560f81c60f81b905092915050565b5f5ffd5b5f5ffd5b5f5ffd5b5f5ffd5b5f5ffd5b5f5f83601f8401126100ac576100ab61008b565b5b8235905067ffffffffffffffff8111156100c9576100c861008f565b5b6020830191508360018202830111156100e5576100e4610093565b5b9250929050565b5f5f6020838503121561010257610101610083565b5b5f83013567ffffffffffffffff81111561011f5761011e610087565b5b61012b85828601610097565b92509250509250929050565b5f7fff0000000000000000000000000000000000000000000000000000000000000082169050919050565b61016b81610137565b82525050565b5f6020820190506101845f830184610162565b92915050565b7f4e487b71000000000000000000000000000000000000000000000000000000005f52603260045260245ffdfea2646970667358221220c4c2589ff77a5bf1eaa5be73717b0edf7aa46aa1b7e1870bae677d2a3ec2056964736f6c634300081e0033",
					"opcodes": "PUSH1 0x80 PUSH1 0x40 MSTORE CALLVALUE DUP1 ISZERO PUSH1 0xE JUMPI PUSH0 PUSH0 REVERT JUMPDEST POP PUSH2 0x1ED DUP1 PUSH2 0x1C PUSH0 CODECOPY PUSH0 RETURN INVALID PUSH1 0x80 PUSH1 0x40 MSTORE CALLVALUE DUP1 ISZERO PUSH2 0xF JUMPI PUSH0 PUSH0 REVERT JUMPDEST POP PUSH1 0x4 CALLDATASIZE LT PUSH2 0x29 JUMPI PUSH0 CALLDATALOAD PUSH1 0xE0 SHR DUP1 PUSH4 0xE4498E34 EQ PUSH2 0x2D JUMPI JUMPDEST PUSH0 PUSH0 REVERT JUMPDEST PUSH2 0x47 PUSH1 0x4 DUP1 CALLDATASIZE SUB DUP2 ADD SWAP1 PUSH2 0x42 SWAP2 SWAP1 PUSH2 0xEC JUMP JUMPDEST PUSH2 0x5D JUMP JUMPDEST PUSH1 0x40 MLOAD PUSH2 0x54 SWAP2 SWAP1 PUSH2 0x171 JUMP JUMPDEST PUSH1 0x40 MLOAD DUP1 SWAP2 SUB SWAP1 RETURN JUMPDEST PUSH0 DUP3 DUP3 PUSH0 DUP2 DUP2 LT PUSH2 0x71 JUMPI PUSH2 0x70 PUSH2 0x18A JUMP JUMPDEST JUMPDEST SWAP1 POP ADD CALLDATALOAD PUSH1 0xF8 SHR PUSH1 0xF8 SHL SWAP1 POP SWAP3 SWAP2 POP POP JUMP JUMPDEST PUSH0 PUSH0 REVERT JUMPDEST PUSH0 PUSH0 REVERT JUMPDEST PUSH0 PUSH0 REVERT JUMPDEST PUSH0 PUSH0 REVERT JUMPDEST PUSH0 PUSH0 REVERT JUMPDEST PUSH0 PUSH0 DUP4 PUSH1 0x1F DUP5 ADD SLT PUSH2 0xAC JUMPI PUSH2 0xAB PUSH2 0x8B JUMP JUMPDEST JUMPDEST DUP3 CALLDATALOAD SWAP1 POP PUSH8 0xFFFFFFFFFFFFFFFF DUP2 GT ISZERO PUSH2 0xC9 JUMPI PUSH2 0xC8 PUSH2 0x8F JUMP JUMPDEST JUMPDEST PUSH1 0x20 DUP4 ADD SWAP2 POP DUP4 PUSH1 0x1 DUP3 MUL DUP4 ADD GT ISZERO PUSH2 0xE5 JUMPI PUSH2 0xE4 PUSH2 0x93 JUMP JUMPDEST JUMPDEST SWAP3 POP SWAP3 SWAP1 POP JUMP JUMPDEST PUSH0 PUSH0 PUSH1 0x20 DUP4 DUP6 SUB SLT ISZERO PUSH2 0x102 JUMPI PUSH2 0x101 PUSH2 0x83 JUMP JUMPDEST JUMPDEST PUSH0 DUP4 ADD CALLDATALOAD PUSH8 0xFFFFFFFFFFFFFFFF DUP2 GT ISZERO PUSH2 0x11F JUMPI PUSH2 0x11E PUSH2 0x87 JUMP JUMPDEST JUMPDEST PUSH2 0x12B DUP6 DUP3 DUP7 ADD PUSH2 0x97 JUMP JUMPDEST SWAP3 POP SWAP3 POP POP SWAP3 POP SWAP3 SWAP1 POP JUMP JUMPDEST PUSH0 PUSH32 0xFF00000000000000000000000000000000000000000000000000000000000000 DUP3 AND SWAP1 POP SWAP2 SWAP1 POP JUMP JUMPDEST PUSH2 0x16B DUP2 PUSH2 0x137 JUMP JUMPDEST DUP3 MSTORE POP POP JUMP JUMPDEST PUSH0 PUSH1 0x20 DUP3 ADD SWAP1 POP PUSH2 0x184 PUSH0 DUP4 ADD DUP5 PUSH2 0x162 JUMP JUMPDEST SWAP3 SWAP2 POP POP JUMP JUMPDEST PUSH32 0x4E487B7100000000000000000000000000000000000000000000000000000000 PUSH0 MSTORE PUSH1 0x32 PUSH1 0x4 MSTORE PUSH1 0x24 PUSH0 REVERT INVALID LOG2 PUSH5 0x6970667358 0x22 SLT KECCAK256 0xC4 0xC2 PC SWAP16 0xF7 PUSH27 0x5BF1EAA5BE73717B0EDF7AA46AA1B7E1870BAE677D2A3EC2056964 PUSH20 0x6F6C634300081E00330000000000000000000000 "
				},
				"gasEstimates": {
					"creation": {
						"codeDepositCost": "98600",
						"executionCost": "145",
						"totalCost": "98745"
					},
					"external": {
						"getFirstCharacter(string)": "695"
					}
				},
				"methodIdentifiers": {
					"getFirstCharacter(string)": "e4498e34"
				}
			},
			"storageLayout": {
				"storage": [],
				"types": null
			},
			"userdoc": {
				"kind": "user",
				"methods": {},
				"version": 1
			}
		}
	}
}