{
	"contracts/10.30.memoryvscalldata.sol": {
		"MemoryVsCalldata": {
			"abi": [
				{
					"inputs": [
						{
							"internalType": "string",
							"name": "text",
							"type": "string"
						}
					],
					"name": "modifyStringMemory",
					"outputs": [
						{
							"internalType": "string",
							"name": "",
							"type": "string"
						}
					],
					"stateMutability": "pure",
					"type": "function"
				},
				{
					"inputs": [
						{
							"internalType": "string",
							"name": "text",
							"type": "string"
						}
					],
					"name": "readOnlyStringCalldata",
					"outputs": [
						{
							"internalType": "string",
							"name": "",
							"type": "string"
						}
					],
					"stateMutability": "pure",
					"type": "function"
				}
			],
			"devdoc": {
				"kind": "dev",
				"methods": {},
				"version": 1
			},
			"evm": {
				"assembly": "    /* \"contracts/10.30.memoryvscalldata.sol\":528:1144  contract MemoryVsCalldata {... */\n  mstore(0x40, 0x80)\n  callvalue\n  dup1\n  iszero\n  tag_1\n  jumpi\n  revert(0x00, 0x00)\ntag_1:\n  pop\n  dataSize(sub_0)\n  dup1\n  dataOffset(sub_0)\n  0x00\n  codecopy\n  0x00\n  return\nstop\n\nsub_0: assembly {\n        /* \"contracts/10.30.memoryvscalldata.sol\":528:1144  contract MemoryVsCalldata {... */\n      mstore(0x40, 0x80)\n      callvalue\n      dup1\n      iszero\n      tag_1\n      jumpi\n      revert(0x00, 0x00)\n    tag_1:\n      pop\n      jumpi(tag_2, lt(calldatasize, 0x04))\n      shr(0xe0, calldataload(0x00))\n      dup1\n      0x7aa52ffe\n      eq\n      tag_3\n      jumpi\n      dup1\n      0x825caa8d\n      eq\n      tag_4\n      jumpi\n    tag_2:\n      revert(0x00, 0x00)\n        /* \"contracts/10.30.memoryvscalldata.sol\":915:1141  function readOnlyStringCalldata(string calldata text)... */\n    tag_3:\n      tag_5\n      0x04\n      dup1\n      calldatasize\n      sub\n      dup2\n      add\n      swap1\n      tag_6\n      swap2\n      swap1\n      tag_7\n      jump\t// in\n    tag_6:\n      tag_8\n      jump\t// in\n    tag_5:\n      mload(0x40)\n      tag_9\n      swap3\n      swap2\n      swap1\n      tag_10\n      jump\t// in\n    tag_9:\n      mload(0x40)\n      dup1\n      swap2\n      sub\n      swap1\n      return\n        /* \"contracts/10.30.memoryvscalldata.sol\":617:846  function modifyStringMemory(string memory text)... */\n    tag_4:\n      tag_11\n      0x04\n      dup1\n      calldatasize\n      sub\n      dup2\n      add\n      swap1\n      tag_12\n      swap2\n      swap1\n      tag_13\n      jump\t// in\n    tag_12:\n      tag_14\n      jump\t// in\n    tag_11:\n      mload(0x40)\n      tag_15\n      swap2\n      swap1\n      tag_16\n      jump\t// in\n    tag_15:\n      mload(0x40)\n      dup1\n      swap2\n      sub\n      swap1\n      return\n        /* \"contracts/10.30.memoryvscalldata.sol\":915:1141  function readOnlyStringCalldata(string calldata text)... */\n    tag_8:\n        /* \"contracts/10.30.memoryvscalldata.sol\":1019:1034  string calldata */\n      calldatasize\n      0x00\n        /* \"contracts/10.30.memoryvscalldata.sol\":1129:1133  text */\n      dup4\n      dup4\n        /* \"contracts/10.30.memoryvscalldata.sol\":1122:1133  return text */\n      swap2\n      pop\n      swap2\n      pop\n        /* \"contracts/10.30.memoryvscalldata.sol\":915:1141  function readOnlyStringCalldata(string calldata text)... */\n      swap3\n      pop\n      swap3\n      swap1\n      pop\n      jump\t// out\n        /* \"contracts/10.30.memoryvscalldata.sol\":617:846  function modifyStringMemory(string memory text)... */\n    tag_14:\n        /* \"contracts/10.30.memoryvscalldata.sol\":713:726  string memory */\n      0x60\n        /* \"contracts/10.30.memoryvscalldata.sol\":744:768  text = \"Modified String\" */\n      mload(0x40)\n      dup1\n      0x40\n      add\n      0x40\n      mstore\n      dup1\n      0x0f\n      dup2\n      mstore\n      0x20\n      add\n      0x4d6f64696669656420537472696e670000000000000000000000000000000000\n      dup2\n      mstore\n      pop\n      swap2\n      pop\n        /* \"contracts/10.30.memoryvscalldata.sol\":834:838  text */\n      dup2\n        /* \"contracts/10.30.memoryvscalldata.sol\":827:838  return text */\n      swap1\n      pop\n        /* \"contracts/10.30.memoryvscalldata.sol\":617:846  function modifyStringMemory(string memory text)... */\n      swap2\n      swap1\n      pop\n      jump\t// out\n        /* \"#utility.yul\":7:82   */\n    tag_19:\n        /* \"#utility.yul\":40:46   */\n      0x00\n        /* \"#utility.yul\":73:75   */\n      0x40\n        /* \"#utility.yul\":67:76   */\n      mload\n        /* \"#utility.yul\":57:76   */\n      swap1\n      pop\n        /* \"#utility.yul\":7:82   */\n      swap1\n      jump\t// out\n        /* \"#utility.yul\":88:205   */\n    tag_20:\n        /* \"#utility.yul\":197:198   */\n      0x00\n        /* \"#utility.yul\":194:195   */\n      0x00\n        /* \"#utility.yul\":187:199   */\n      revert\n        /* \"#utility.yul\":211:328   */\n    tag_21:\n        /* \"#utility.yul\":320:321   */\n      0x00\n        /* \"#utility.yul\":317:318   */\n      0x00\n        /* \"#utility.yul\":310:322   */\n      revert\n        /* \"#utility.yul\":334:451   */\n    tag_22:\n        /* \"#utility.yul\":443:444   */\n      0x00\n        /* \"#utility.yul\":440:441   */\n      0x00\n        /* \"#utility.yul\":433:445   */\n      revert\n        /* \"#utility.yul\":457:574   */\n    tag_23:\n        /* \"#utility.yul\":566:567   */\n      0x00\n        /* \"#utility.yul\":563:564   */\n      0x00\n        /* \"#utility.yul\":556:568   */\n      revert\n        /* \"#utility.yul\":580:697   */\n    tag_24:\n        /* \"#utility.yul\":689:690   */\n      0x00\n        /* \"#utility.yul\":686:687   */\n      0x00\n        /* \"#utility.yul\":679:691   */\n      revert\n        /* \"#utility.yul\":717:1270   */\n    tag_25:\n        /* \"#utility.yul\":775:783   */\n      0x00\n        /* \"#utility.yul\":785:791   */\n      0x00\n        /* \"#utility.yul\":835:838   */\n      dup4\n        /* \"#utility.yul\":828:832   */\n      0x1f\n        /* \"#utility.yul\":820:826   */\n      dup5\n        /* \"#utility.yul\":816:833   */\n      add\n        /* \"#utility.yul\":812:839   */\n      slt\n        /* \"#utility.yul\":802:924   */\n      tag_48\n      jumpi\n        /* \"#utility.yul\":843:922   */\n      tag_49\n      tag_22\n      jump\t// in\n    tag_49:\n        /* \"#utility.yul\":802:924   */\n    tag_48:\n        /* \"#utility.yul\":956:962   */\n      dup3\n        /* \"#utility.yul\":943:963   */\n      calldataload\n        /* \"#utility.yul\":933:963   */\n      swap1\n      pop\n        /* \"#utility.yul\":986:1004   */\n      0xffffffffffffffff\n        /* \"#utility.yul\":978:984   */\n      dup2\n        /* \"#utility.yul\":975:1005   */\n      gt\n        /* \"#utility.yul\":972:1089   */\n      iszero\n      tag_50\n      jumpi\n        /* \"#utility.yul\":1008:1087   */\n      tag_51\n      tag_23\n      jump\t// in\n    tag_51:\n        /* \"#utility.yul\":972:1089   */\n    tag_50:\n        /* \"#utility.yul\":1122:1126   */\n      0x20\n        /* \"#utility.yul\":1114:1120   */\n      dup4\n        /* \"#utility.yul\":1110:1127   */\n      add\n        /* \"#utility.yul\":1098:1127   */\n      swap2\n      pop\n        /* \"#utility.yul\":1176:1179   */\n      dup4\n        /* \"#utility.yul\":1168:1172   */\n      0x01\n        /* \"#utility.yul\":1160:1166   */\n      dup3\n        /* \"#utility.yul\":1156:1173   */\n      mul\n        /* \"#utility.yul\":1146:1154   */\n      dup4\n        /* \"#utility.yul\":1142:1174   */\n      add\n        /* \"#utility.yul\":1139:1180   */\n      gt\n        /* \"#utility.yul\":1136:1264   */\n      iszero\n      tag_52\n      jumpi\n        /* \"#utility.yul\":1183:1262   */\n      tag_53\n      tag_24\n      jump\t// in\n    tag_53:\n        /* \"#utility.yul\":1136:1264   */\n    tag_52:\n        /* \"#utility.yul\":717:1270   */\n      swap3\n      pop\n      swap3\n      swap1\n      pop\n      jump\t// out\n        /* \"#utility.yul\":1276:1805   */\n    tag_7:\n        /* \"#utility.yul\":1347:1353   */\n      0x00\n        /* \"#utility.yul\":1355:1361   */\n      0x00\n        /* \"#utility.yul\":1404:1406   */\n      0x20\n        /* \"#utility.yul\":1392:1401   */\n      dup4\n        /* \"#utility.yul\":1383:1390   */\n      dup6\n        /* \"#utility.yul\":1379:1402   */\n      sub\n        /* \"#utility.yul\":1375:1407   */\n      slt\n        /* \"#utility.yul\":1372:1491   */\n      iszero\n      tag_55\n      jumpi\n        /* \"#utility.yul\":1410:1489   */\n      tag_56\n      tag_20\n      jump\t// in\n    tag_56:\n        /* \"#utility.yul\":1372:1491   */\n    tag_55:\n        /* \"#utility.yul\":1558:1559   */\n      0x00\n        /* \"#utility.yul\":1547:1556   */\n      dup4\n        /* \"#utility.yul\":1543:1560   */\n      add\n        /* \"#utility.yul\":1530:1561   */\n      calldataload\n        /* \"#utility.yul\":1588:1606   */\n      0xffffffffffffffff\n        /* \"#utility.yul\":1580:1586   */\n      dup2\n        /* \"#utility.yul\":1577:1607   */\n      gt\n        /* \"#utility.yul\":1574:1691   */\n      iszero\n      tag_57\n      jumpi\n        /* \"#utility.yul\":1610:1689   */\n      tag_58\n      tag_21\n      jump\t// in\n    tag_58:\n        /* \"#utility.yul\":1574:1691   */\n    tag_57:\n        /* \"#utility.yul\":1723:1788   */\n      tag_59\n        /* \"#utility.yul\":1780:1787   */\n      dup6\n        /* \"#utility.yul\":1771:1777   */\n      dup3\n        /* \"#utility.yul\":1760:1769   */\n      dup7\n        /* \"#utility.yul\":1756:1778   */\n      add\n        /* \"#utility.yul\":1723:1788   */\n      tag_25\n      jump\t// in\n    tag_59:\n        /* \"#utility.yul\":1705:1788   */\n      swap3\n      pop\n      swap3\n      pop\n        /* \"#utility.yul\":1501:1798   */\n      pop\n        /* \"#utility.yul\":1276:1805   */\n      swap3\n      pop\n      swap3\n      swap1\n      pop\n      jump\t// out\n        /* \"#utility.yul\":1811:1980   */\n    tag_26:\n        /* \"#utility.yul\":1895:1906   */\n      0x00\n        /* \"#utility.yul\":1929:1935   */\n      dup3\n        /* \"#utility.yul\":1924:1927   */\n      dup3\n        /* \"#utility.yul\":1917:1936   */\n      mstore\n        /* \"#utility.yul\":1969:1973   */\n      0x20\n        /* \"#utility.yul\":1964:1967   */\n      dup3\n        /* \"#utility.yul\":1960:1974   */\n      add\n        /* \"#utility.yul\":1945:1974   */\n      swap1\n      pop\n        /* \"#utility.yul\":1811:1980   */\n      swap3\n      swap2\n      pop\n      pop\n      jump\t// out\n        /* \"#utility.yul\":1986:2134   */\n    tag_27:\n        /* \"#utility.yul\":2084:2090   */\n      dup3\n        /* \"#utility.yul\":2079:2082   */\n      dup2\n        /* \"#utility.yul\":2074:2077   */\n      dup4\n        /* \"#utility.yul\":2061:2091   */\n      calldatacopy\n        /* \"#utility.yul\":2125:2126   */\n      0x00\n        /* \"#utility.yul\":2116:2122   */\n      dup4\n        /* \"#utility.yul\":2111:2114   */\n      dup4\n        /* \"#utility.yul\":2107:2123   */\n      add\n        /* \"#utility.yul\":2100:2127   */\n      mstore\n        /* \"#utility.yul\":1986:2134   */\n      pop\n      pop\n      pop\n      jump\t// out\n        /* \"#utility.yul\":2140:2242   */\n    tag_28:\n        /* \"#utility.yul\":2181:2187   */\n      0x00\n        /* \"#utility.yul\":2232:2234   */\n      0x1f\n        /* \"#utility.yul\":2228:2235   */\n      not\n        /* \"#utility.yul\":2223:2225   */\n      0x1f\n        /* \"#utility.yul\":2216:2221   */\n      dup4\n        /* \"#utility.yul\":2212:2226   */\n      add\n        /* \"#utility.yul\":2208:2236   */\n      and\n        /* \"#utility.yul\":2198:2236   */\n      swap1\n      pop\n        /* \"#utility.yul\":2140:2242   */\n      swap2\n      swap1\n      pop\n      jump\t// out\n        /* \"#utility.yul\":2272:2589   */\n    tag_29:\n        /* \"#utility.yul\":2370:2373   */\n      0x00\n        /* \"#utility.yul\":2391:2462   */\n      tag_64\n        /* \"#utility.yul\":2455:2461   */\n      dup4\n        /* \"#utility.yul\":2450:2453   */\n      dup6\n        /* \"#utility.yul\":2391:2462   */\n      tag_26\n      jump\t// in\n    tag_64:\n        /* \"#utility.yul\":2384:2462   */\n      swap4\n      pop\n        /* \"#utility.yul\":2472:2528   */\n      tag_65\n        /* \"#utility.yul\":2521:2527   */\n      dup4\n        /* \"#utility.yul\":2516:2519   */\n      dup6\n        /* \"#utility.yul\":2509:2514   */\n      dup5\n        /* \"#utility.yul\":2472:2528   */\n      tag_27\n      jump\t// in\n    tag_65:\n        /* \"#utility.yul\":2553:2582   */\n      tag_66\n        /* \"#utility.yul\":2575:2581   */\n      dup4\n        /* \"#utility.yul\":2553:2582   */\n      tag_28\n      jump\t// in\n    tag_66:\n        /* \"#utility.yul\":2548:2551   */\n      dup5\n        /* \"#utility.yul\":2544:2583   */\n      add\n        /* \"#utility.yul\":2537:2583   */\n      swap1\n      pop\n        /* \"#utility.yul\":2272:2589   */\n      swap4\n      swap3\n      pop\n      pop\n      pop\n      jump\t// out\n        /* \"#utility.yul\":2595:2928   */\n    tag_10:\n        /* \"#utility.yul\":2718:2722   */\n      0x00\n        /* \"#utility.yul\":2756:2758   */\n      0x20\n        /* \"#utility.yul\":2745:2754   */\n      dup3\n        /* \"#utility.yul\":2741:2759   */\n      add\n        /* \"#utility.yul\":2733:2759   */\n      swap1\n      pop\n        /* \"#utility.yul\":2805:2814   */\n      dup2\n        /* \"#utility.yul\":2799:2803   */\n      dup2\n        /* \"#utility.yul\":2795:2815   */\n      sub\n        /* \"#utility.yul\":2791:2792   */\n      0x00\n        /* \"#utility.yul\":2780:2789   */\n      dup4\n        /* \"#utility.yul\":2776:2793   */\n      add\n        /* \"#utility.yul\":2769:2816   */\n      mstore\n        /* \"#utility.yul\":2833:2921   */\n      tag_68\n        /* \"#utility.yul\":2916:2920   */\n      dup2\n        /* \"#utility.yul\":2907:2913   */\n      dup5\n        /* \"#utility.yul\":2899:2905   */\n      dup7\n        /* \"#utility.yul\":2833:2921   */\n      tag_29\n      jump\t// in\n    tag_68:\n        /* \"#utility.yul\":2825:2921   */\n      swap1\n      pop\n        /* \"#utility.yul\":2595:2928   */\n      swap4\n      swap3\n      pop\n      pop\n      pop\n      jump\t// out\n        /* \"#utility.yul\":2934:3051   */\n    tag_30:\n        /* \"#utility.yul\":3043:3044   */\n      0x00\n        /* \"#utility.yul\":3040:3041   */\n      0x00\n        /* \"#utility.yul\":3033:3045   */\n      revert\n        /* \"#utility.yul\":3057:3237   */\n    tag_31:\n        /* \"#utility.yul\":3105:3182   */\n      0x4e487b7100000000000000000000000000000000000000000000000000000000\n        /* \"#utility.yul\":3102:3103   */\n      0x00\n        /* \"#utility.yul\":3095:3183   */\n      mstore\n        /* \"#utility.yul\":3202:3206   */\n      0x41\n        /* \"#utility.yul\":3199:3200   */\n      0x04\n        /* \"#utility.yul\":3192:3207   */\n      mstore\n        /* \"#utility.yul\":3226:3230   */\n      0x24\n        /* \"#utility.yul\":3223:3224   */\n      0x00\n        /* \"#utility.yul\":3216:3231   */\n      revert\n        /* \"#utility.yul\":3243:3524   */\n    tag_32:\n        /* \"#utility.yul\":3326:3353   */\n      tag_72\n        /* \"#utility.yul\":3348:3352   */\n      dup3\n        /* \"#utility.yul\":3326:3353   */\n      tag_28\n      jump\t// in\n    tag_72:\n        /* \"#utility.yul\":3318:3324   */\n      dup2\n        /* \"#utility.yul\":3314:3354   */\n      add\n        /* \"#utility.yul\":3456:3462   */\n      dup2\n        /* \"#utility.yul\":3444:3454   */\n      dup2\n        /* \"#utility.yul\":3441:3463   */\n      lt\n        /* \"#utility.yul\":3420:3438   */\n      0xffffffffffffffff\n        /* \"#utility.yul\":3408:3418   */\n      dup3\n        /* \"#utility.yul\":3405:3439   */\n      gt\n        /* \"#utility.yul\":3402:3464   */\n      or\n        /* \"#utility.yul\":3399:3487   */\n      iszero\n      tag_73\n      jumpi\n        /* \"#utility.yul\":3467:3485   */\n      tag_74\n      tag_31\n      jump\t// in\n    tag_74:\n        /* \"#utility.yul\":3399:3487   */\n    tag_73:\n        /* \"#utility.yul\":3507:3517   */\n      dup1\n        /* \"#utility.yul\":3503:3505   */\n      0x40\n        /* \"#utility.yul\":3496:3518   */\n      mstore\n        /* \"#utility.yul\":3286:3524   */\n      pop\n        /* \"#utility.yul\":3243:3524   */\n      pop\n      pop\n      jump\t// out\n        /* \"#utility.yul\":3530:3659   */\n    tag_33:\n        /* \"#utility.yul\":3564:3570   */\n      0x00\n        /* \"#utility.yul\":3591:3611   */\n      tag_76\n      tag_19\n      jump\t// in\n    tag_76:\n        /* \"#utility.yul\":3581:3611   */\n      swap1\n      pop\n        /* \"#utility.yul\":3620:3653   */\n      tag_77\n        /* \"#utility.yul\":3648:3652   */\n      dup3\n        /* \"#utility.yul\":3640:3646   */\n      dup3\n        /* \"#utility.yul\":3620:3653   */\n      tag_32\n      jump\t// in\n    tag_77:\n        /* \"#utility.yul\":3530:3659   */\n      swap2\n      swap1\n      pop\n      jump\t// out\n        /* \"#utility.yul\":3665:3973   */\n    tag_34:\n        /* \"#utility.yul\":3727:3731   */\n      0x00\n        /* \"#utility.yul\":3817:3835   */\n      0xffffffffffffffff\n        /* \"#utility.yul\":3809:3815   */\n      dup3\n        /* \"#utility.yul\":3806:3836   */\n      gt\n        /* \"#utility.yul\":3803:3859   */\n      iszero\n      tag_79\n      jumpi\n        /* \"#utility.yul\":3839:3857   */\n      tag_80\n      tag_31\n      jump\t// in\n    tag_80:\n        /* \"#utility.yul\":3803:3859   */\n    tag_79:\n        /* \"#utility.yul\":3877:3906   */\n      tag_81\n        /* \"#utility.yul\":3899:3905   */\n      dup3\n        /* \"#utility.yul\":3877:3906   */\n      tag_28\n      jump\t// in\n    tag_81:\n        /* \"#utility.yul\":3869:3906   */\n      swap1\n      pop\n        /* \"#utility.yul\":3961:3965   */\n      0x20\n        /* \"#utility.yul\":3955:3959   */\n      dup2\n        /* \"#utility.yul\":3951:3966   */\n      add\n        /* \"#utility.yul\":3943:3966   */\n      swap1\n      pop\n        /* \"#utility.yul\":3665:3973   */\n      swap2\n      swap1\n      pop\n      jump\t// out\n        /* \"#utility.yul\":3979:4404   */\n    tag_35:\n        /* \"#utility.yul\":4057:4062   */\n      0x00\n        /* \"#utility.yul\":4082:4148   */\n      tag_83\n        /* \"#utility.yul\":4098:4147   */\n      tag_84\n        /* \"#utility.yul\":4140:4146   */\n      dup5\n        /* \"#utility.yul\":4098:4147   */\n      tag_34\n      jump\t// in\n    tag_84:\n        /* \"#utility.yul\":4082:4148   */\n      tag_33\n      jump\t// in\n    tag_83:\n        /* \"#utility.yul\":4073:4148   */\n      swap1\n      pop\n        /* \"#utility.yul\":4171:4177   */\n      dup3\n        /* \"#utility.yul\":4164:4169   */\n      dup2\n        /* \"#utility.yul\":4157:4178   */\n      mstore\n        /* \"#utility.yul\":4209:4213   */\n      0x20\n        /* \"#utility.yul\":4202:4207   */\n      dup2\n        /* \"#utility.yul\":4198:4214   */\n      add\n        /* \"#utility.yul\":4247:4250   */\n      dup5\n        /* \"#utility.yul\":4238:4244   */\n      dup5\n        /* \"#utility.yul\":4233:4236   */\n      dup5\n        /* \"#utility.yul\":4229:4245   */\n      add\n        /* \"#utility.yul\":4226:4251   */\n      gt\n        /* \"#utility.yul\":4223:4335   */\n      iszero\n      tag_85\n      jumpi\n        /* \"#utility.yul\":4254:4333   */\n      tag_86\n      tag_30\n      jump\t// in\n    tag_86:\n        /* \"#utility.yul\":4223:4335   */\n    tag_85:\n        /* \"#utility.yul\":4344:4398   */\n      tag_87\n        /* \"#utility.yul\":4391:4397   */\n      dup5\n        /* \"#utility.yul\":4386:4389   */\n      dup3\n        /* \"#utility.yul\":4381:4384   */\n      dup6\n        /* \"#utility.yul\":4344:4398   */\n      tag_27\n      jump\t// in\n    tag_87:\n        /* \"#utility.yul\":4063:4404   */\n      pop\n        /* \"#utility.yul\":3979:4404   */\n      swap4\n      swap3\n      pop\n      pop\n      pop\n      jump\t// out\n        /* \"#utility.yul\":4424:4764   */\n    tag_36:\n        /* \"#utility.yul\":4480:4485   */\n      0x00\n        /* \"#utility.yul\":4529:4532   */\n      dup3\n        /* \"#utility.yul\":4522:4526   */\n      0x1f\n        /* \"#utility.yul\":4514:4520   */\n      dup4\n        /* \"#utility.yul\":4510:4527   */\n      add\n        /* \"#utility.yul\":4506:4533   */\n      slt\n        /* \"#utility.yul\":4496:4618   */\n      tag_89\n      jumpi\n        /* \"#utility.yul\":4537:4616   */\n      tag_90\n      tag_22\n      jump\t// in\n    tag_90:\n        /* \"#utility.yul\":4496:4618   */\n    tag_89:\n        /* \"#utility.yul\":4654:4660   */\n      dup2\n        /* \"#utility.yul\":4641:4661   */\n      calldataload\n        /* \"#utility.yul\":4679:4758   */\n      tag_91\n        /* \"#utility.yul\":4754:4757   */\n      dup5\n        /* \"#utility.yul\":4746:4752   */\n      dup3\n        /* \"#utility.yul\":4739:4743   */\n      0x20\n        /* \"#utility.yul\":4731:4737   */\n      dup7\n        /* \"#utility.yul\":4727:4744   */\n      add\n        /* \"#utility.yul\":4679:4758   */\n      tag_35\n      jump\t// in\n    tag_91:\n        /* \"#utility.yul\":4670:4758   */\n      swap2\n      pop\n        /* \"#utility.yul\":4486:4764   */\n      pop\n        /* \"#utility.yul\":4424:4764   */\n      swap3\n      swap2\n      pop\n      pop\n      jump\t// out\n        /* \"#utility.yul\":4770:5279   */\n    tag_13:\n        /* \"#utility.yul\":4839:4845   */\n      0x00\n        /* \"#utility.yul\":4888:4890   */\n      0x20\n        /* \"#utility.yul\":4876:4885   */\n      dup3\n        /* \"#utility.yul\":4867:4874   */\n      dup5\n        /* \"#utility.yul\":4863:4886   */\n      sub\n        /* \"#utility.yul\":4859:4891   */\n      slt\n        /* \"#utility.yul\":4856:4975   */\n      iszero\n      tag_93\n      jumpi\n        /* \"#utility.yul\":4894:4973   */\n      tag_94\n      tag_20\n      jump\t// in\n    tag_94:\n        /* \"#utility.yul\":4856:4975   */\n    tag_93:\n        /* \"#utility.yul\":5042:5043   */\n      0x00\n        /* \"#utility.yul\":5031:5040   */\n      dup3\n        /* \"#utility.yul\":5027:5044   */\n      add\n        /* \"#utility.yul\":5014:5045   */\n      calldataload\n        /* \"#utility.yul\":5072:5090   */\n      0xffffffffffffffff\n        /* \"#utility.yul\":5064:5070   */\n      dup2\n        /* \"#utility.yul\":5061:5091   */\n      gt\n        /* \"#utility.yul\":5058:5175   */\n      iszero\n      tag_95\n      jumpi\n        /* \"#utility.yul\":5094:5173   */\n      tag_96\n      tag_21\n      jump\t// in\n    tag_96:\n        /* \"#utility.yul\":5058:5175   */\n    tag_95:\n        /* \"#utility.yul\":5199:5262   */\n      tag_97\n        /* \"#utility.yul\":5254:5261   */\n      dup5\n        /* \"#utility.yul\":5245:5251   */\n      dup3\n        /* \"#utility.yul\":5234:5243   */\n      dup6\n        /* \"#utility.yul\":5230:5252   */\n      add\n        /* \"#utility.yul\":5199:5262   */\n      tag_36\n      jump\t// in\n    tag_97:\n        /* \"#utility.yul\":5189:5262   */\n      swap2\n      pop\n        /* \"#utility.yul\":4985:5272   */\n      pop\n        /* \"#utility.yul\":4770:5279   */\n      swap3\n      swap2\n      pop\n      pop\n      jump\t// out\n        /* \"#utility.yul\":5285:5384   */\n    tag_37:\n        /* \"#utility.yul\":5337:5343   */\n      0x00\n        /* \"#utility.yul\":5371:5376   */\n      dup2\n        /* \"#utility.yul\":5365:5377   */\n      mload\n        /* \"#utility.yul\":5355:5377   */\n      swap1\n      pop\n        /* \"#utility.yul\":5285:5384   */\n      swap2\n      swap1\n      pop\n      jump\t// out\n        /* \"#utility.yul\":5390:5529   */\n    tag_38:\n        /* \"#utility.yul\":5479:5485   */\n      dup3\n        /* \"#utility.yul\":5474:5477   */\n      dup2\n        /* \"#utility.yul\":5469:5472   */\n      dup4\n        /* \"#utility.yul\":5463:5486   */\n      mcopy\n        /* \"#utility.yul\":5520:5521   */\n      0x00\n        /* \"#utility.yul\":5511:5517   */\n      dup4\n        /* \"#utility.yul\":5506:5509   */\n      dup4\n        /* \"#utility.yul\":5502:5518   */\n      add\n        /* \"#utility.yul\":5495:5522   */\n      mstore\n        /* \"#utility.yul\":5390:5529   */\n      pop\n      pop\n      pop\n      jump\t// out\n        /* \"#utility.yul\":5535:5912   */\n    tag_39:\n        /* \"#utility.yul\":5623:5626   */\n      0x00\n        /* \"#utility.yul\":5651:5690   */\n      tag_101\n        /* \"#utility.yul\":5684:5689   */\n      dup3\n        /* \"#utility.yul\":5651:5690   */\n      tag_37\n      jump\t// in\n    tag_101:\n        /* \"#utility.yul\":5706:5777   */\n      tag_102\n        /* \"#utility.yul\":5770:5776   */\n      dup2\n        /* \"#utility.yul\":5765:5768   */\n      dup6\n        /* \"#utility.yul\":5706:5777   */\n      tag_26\n      jump\t// in\n    tag_102:\n        /* \"#utility.yul\":5699:5777   */\n      swap4\n      pop\n        /* \"#utility.yul\":5786:5851   */\n      tag_103\n        /* \"#utility.yul\":5844:5850   */\n      dup2\n        /* \"#utility.yul\":5839:5842   */\n      dup6\n        /* \"#utility.yul\":5832:5836   */\n      0x20\n        /* \"#utility.yul\":5825:5830   */\n      dup7\n        /* \"#utility.yul\":5821:5837   */\n      add\n        /* \"#utility.yul\":5786:5851   */\n      tag_38\n      jump\t// in\n    tag_103:\n        /* \"#utility.yul\":5876:5905   */\n      tag_104\n        /* \"#utility.yul\":5898:5904   */\n      dup2\n        /* \"#utility.yul\":5876:5905   */\n      tag_28\n      jump\t// in\n    tag_104:\n        /* \"#utility.yul\":5871:5874   */\n      dup5\n        /* \"#utility.yul\":5867:5906   */\n      add\n        /* \"#utility.yul\":5860:5906   */\n      swap2\n      pop\n        /* \"#utility.yul\":5627:5912   */\n      pop\n        /* \"#utility.yul\":5535:5912   */\n      swap3\n      swap2\n      pop\n      pop\n      jump\t// out\n        /* \"#utility.yul\":5918:6231   */\n    tag_16:\n        /* \"#utility.yul\":6031:6035   */\n      0x00\n        /* \"#utility.yul\":6069:6071   */\n      0x20\n        /* \"#utility.yul\":6058:6067   */\n      dup3\n        /* \"#utility.yul\":6054:6072   */\n      add\n        /* \"#utility.yul\":6046:6072   */\n      swap1\n      pop\n        /* \"#utility.yul\":6118:6127   */\n      dup2\n        /* \"#utility.yul\":6112:6116   */\n      dup2\n        /* \"#utility.yul\":6108:6128   */\n      sub\n        /* \"#utility.yul\":6104:6105   */\n      0x00\n        /* \"#utility.yul\":6093:6102   */\n      dup4\n        /* \"#utility.yul\":6089:6106   */\n      add\n        /* \"#utility.yul\":6082:6129   */\n      mstore\n        /* \"#utility.yul\":6146:6224   */\n      tag_106\n        /* \"#utility.yul\":6219:6223   */\n      dup2\n        /* \"#utility.yul\":6210:6216   */\n      dup5\n        /* \"#utility.yul\":6146:6224   */\n      tag_39\n      jump\t// in\n    tag_106:\n        /* \"#utility.yul\":6138:6224   */\n      swap1\n      pop\n        /* \"#utility.yul\":5918:6231   */\n      swap3\n      swap2\n      pop\n      pop\n      jump\t// out\n\n    auxdata: 0xa2646970667358221220c6167beb2c48b6759ee6f7ba935273c7269a0ffb2226a34d5b86be00a694c19464736f6c634300081e0033\n}\n",
				"bytecode": {
					"linkReferences": {},
					"object": "6080604052348015600e575f5ffd5b5061042a8061001c5f395ff3fe608060405234801561000f575f5ffd5b5060043610610034575f3560e01c80637aa52ffe14610038578063825caa8d14610069575b5f5ffd5b610052600480360381019061004d919061015c565b610099565b604051610060929190610201565b60405180910390f35b610083600480360381019061007e919061033d565b6100a8565b60405161009091906103d4565b60405180910390f35b365f8383915091509250929050565b60606040518060400160405280600f81526020017f4d6f64696669656420537472696e6700000000000000000000000000000000008152509150819050919050565b5f604051905090565b5f5ffd5b5f5ffd5b5f5ffd5b5f5ffd5b5f5ffd5b5f5f83601f84011261011c5761011b6100fb565b5b8235905067ffffffffffffffff811115610139576101386100ff565b5b60208301915083600182028301111561015557610154610103565b5b9250929050565b5f5f60208385031215610172576101716100f3565b5b5f83013567ffffffffffffffff81111561018f5761018e6100f7565b5b61019b85828601610107565b92509250509250929050565b5f82825260208201905092915050565b828183375f83830152505050565b5f601f19601f8301169050919050565b5f6101e083856101a7565b93506101ed8385846101b7565b6101f6836101c5565b840190509392505050565b5f6020820190508181035f83015261021a8184866101d5565b90509392505050565b5f5ffd5b7f4e487b71000000000000000000000000000000000000000000000000000000005f52604160045260245ffd5b61025d826101c5565b810181811067ffffffffffffffff8211171561027c5761027b610227565b5b80604052505050565b5f61028e6100ea565b905061029a8282610254565b919050565b5f67ffffffffffffffff8211156102b9576102b8610227565b5b6102c2826101c5565b9050602081019050919050565b5f6102e16102dc8461029f565b610285565b9050828152602081018484840111156102fd576102fc610223565b5b6103088482856101b7565b509392505050565b5f82601f830112610324576103236100fb565b5b81356103348482602086016102cf565b91505092915050565b5f60208284031215610352576103516100f3565b5b5f82013567ffffffffffffffff81111561036f5761036e6100f7565b5b61037b84828501610310565b91505092915050565b5f81519050919050565b8281835e5f83830152505050565b5f6103a682610384565b6103b081856101a7565b93506103c081856020860161038e565b6103c9816101c5565b840191505092915050565b5f6020820190508181035f8301526103ec818461039c565b90509291505056fea2646970667358221220c6167beb2c48b6759ee6f7ba935273c7269a0ffb2226a34d5b86be00a694c19464736f6c634300081e0033",
					"opcodes": "PUSH1 0x80 PUSH1 0x40 MSTORE CALLVALUE DUP1 ISZERO PUSH1 0xE JUMPI PUSH0 PUSH0 REVERT JUMPDEST POP PUSH2 0x42A DUP1 PUSH2 0x1C PUSH0 CODECOPY PUSH0 RETURN INVALID PUSH1 0x80 PUSH1 0x40 MSTORE CALLVALUE DUP1 ISZERO PUSH2 0xF JUMPI PUSH0 PUSH0 REVERT JUMPDEST POP PUSH1 0x4 CALLDATASIZE LT PUSH2 0x34 JUMPI PUSH0 CALLDATALOAD PUSH1 0xE0 SHR DUP1 PUSH4 0x7AA52FFE EQ PUSH2 0x38 JUMPI DUP1 PUSH4 0x825CAA8D EQ PUSH2 0x69 JUMPI JUMPDEST PUSH0 PUSH0 REVERT JUMPDEST PUSH2 0x52 PUSH1 0x4 DUP1 CALLDATASIZE SUB DUP2 ADD SWAP1 PUSH2 0x4D SWAP2 SWAP1 PUSH2 0x15C JUMP JUMPDEST PUSH2 0x99 JUMP JUMPDEST PUSH1 0x40 MLOAD PUSH2 0x60 SWAP3 SWAP2 SWAP1 PUSH2 0x201 JUMP JUMPDEST PUSH1 0x40 MLOAD DUP1 SWAP2 SUB SWAP1 RETURN JUMPDEST PUSH2 0x83 PUSH1 0x4 DUP1 CALLDATASIZE SUB DUP2 ADD SWAP1 PUSH2 0x7E SWAP2 SWAP1 PUSH2 0x33D JUMP JUMPDEST PUSH2 0xA8 JUMP JUMPDEST PUSH1 0x40 MLOAD PUSH2 0x90 SWAP2 SWAP1 PUSH2 0x3D4 JUMP JUMPDEST PUSH1 0x40 MLOAD DUP1 SWAP2 SUB SWAP1 RETURN JUMPDEST CALLDATASIZE PUSH0 DUP4 DUP4 SWAP2 POP SWAP2 POP SWAP3 POP SWAP3 SWAP1 POP JUMP JUMPDEST PUSH1 0x60 PUSH1 0x40 MLOAD DUP1 PUSH1 0x40 ADD PUSH1 0x40 MSTORE DUP1 PUSH1 0xF DUP2 MSTORE PUSH1 0x20 ADD PUSH32 0x4D6F64696669656420537472696E670000000000000000000000000000000000 DUP2 MSTORE POP SWAP2 POP DUP2 SWAP1 POP SWAP2 SWAP1 POP JUMP JUMPDEST PUSH0 PUSH1 0x40 MLOAD SWAP1 POP SWAP1 JUMP JUMPDEST PUSH0 PUSH0 REVERT JUMPDEST PUSH0 PUSH0 REVERT JUMPDEST PUSH0 PUSH0 REVERT JUMPDEST PUSH0 PUSH0 REVERT JUMPDEST PUSH0 PUSH0 REVERT JUMPDEST PUSH0 PUSH0 DUP4 PUSH1 0x1F DUP5 ADD SLT PUSH2 0x11C JUMPI PUSH2 0x11B PUSH2 0xFB JUMP JUMPDEST JUMPDEST DUP3 CALLDATALOAD SWAP1 POP PUSH8 0xFFFFFFFFFFFFFFFF DUP2 GT ISZERO PUSH2 0x139 JUMPI PUSH2 0x138 PUSH2 0xFF JUMP JUMPDEST JUMPDEST PUSH1 0x20 DUP4 ADD SWAP2 POP DUP4 PUSH1 0x1 DUP3 MUL DUP4 ADD GT ISZERO PUSH2 0x155 JUMPI PUSH2 0x154 PUSH2 0x103 JUMP JUMPDEST JUMPDEST SWAP3 POP SWAP3 SWAP1 POP JUMP JUMPDEST PUSH0 PUSH0 PUSH1 0x20 DUP4 DUP6 SUB SLT ISZERO PUSH2 0x172 JUMPI PUSH2 0x171 PUSH2 0xF3 JUMP JUMPDEST JUMPDEST PUSH0 DUP4 ADD CALLDATALOAD PUSH8 0xFFFFFFFFFFFFFFFF DUP2 GT ISZERO PUSH2 0x18F JUMPI PUSH2 0x18E PUSH2 0xF7 JUMP JUMPDEST JUMPDEST PUSH2 0x19B DUP6 DUP3 DUP7 ADD PUSH2 0x107 JUMP JUMPDEST SWAP3 POP SWAP3 POP POP SWAP3 POP SWAP3 SWAP1 POP JUMP JUMPDEST PUSH0 DUP3 DUP3 MSTORE PUSH1 0x20 DUP3 ADD SWAP1 POP SWAP3 SWAP2 POP POP JUMP JUMPDEST DUP3 DUP2 DUP4 CALLDATACOPY PUSH0 DUP4 DUP4 ADD MSTORE POP POP POP JUMP JUMPDEST PUSH0 PUSH1 0x1F NOT PUSH1 0x1F DUP4 ADD AND SWAP1 POP SWAP2 SWAP1 POP JUMP JUMPDEST PUSH0 PUSH2 0x1E0 DUP4 DUP6 PUSH2 0x1A7 JUMP JUMPDEST SWAP4 POP PUSH2 0x1ED DUP4 DUP6 DUP5 PUSH2 0x1B7 JUMP JUMPDEST PUSH2 0x1F6 DUP4 PUSH2 0x1C5 JUMP JUMPDEST DUP5 ADD SWAP1 POP SWAP4 SWAP3 POP POP POP JUMP JUMPDEST PUSH0 PUSH1 0x20 DUP3 ADD SWAP1 POP DUP2 DUP2 SUB PUSH0 DUP4 ADD MSTORE PUSH2 0x21A DUP2 DUP5 DUP7 PUSH2 0x1D5 JUMP JUMPDEST SWAP1 POP SWAP4 SWAP3 POP POP POP JUMP JUMPDEST PUSH0 PUSH0 REVERT JUMPDEST PUSH32 0x4E487B7100000000000000000000000000000000000000000000000000000000 PUSH0 MSTORE PUSH1 0x41 PUSH1 0x4 MSTORE PUSH1 0x24 PUSH0 REVERT JUMPDEST PUSH2 0x25D DUP3 PUSH2 0x1C5 JUMP JUMPDEST DUP2 ADD DUP2 DUP2 LT PUSH8 0xFFFFFFFFFFFFFFFF DUP3 GT OR ISZERO PUSH2 0x27C JUMPI PUSH2 0x27B PUSH2 0x227 JUMP JUMPDEST JUMPDEST DUP1 PUSH1 0x40 MSTORE POP POP POP JUMP JUMPDEST PUSH0 PUSH2 0x28E PUSH2 0xEA JUMP JUMPDEST SWAP1 POP PUSH2 0x29A DUP3 DUP3 PUSH2 0x254 JUMP JUMPDEST SWAP2 SWAP1 POP JUMP JUMPDEST PUSH0 PUSH8 0xFFFFFFFFFFFFFFFF DUP3 GT ISZERO PUSH2 0x2B9 JUMPI PUSH2 0x2B8 PUSH2 0x227 JUMP JUMPDEST JUMPDEST PUSH2 0x2C2 DUP3 PUSH2 0x1C5 JUMP JUMPDEST SWAP1 POP PUSH1 0x20 DUP2 ADD SWAP1 POP SWAP2 SWAP1 POP JUMP JUMPDEST PUSH0 PUSH2 0x2E1 PUSH2 0x2DC DUP5 PUSH2 0x29F JUMP JUMPDEST PUSH2 0x285 JUMP JUMPDEST SWAP1 POP DUP3 DUP2 MSTORE PUSH1 0x20 DUP2 ADD DUP5 DUP5 DUP5 ADD GT ISZERO PUSH2 0x2FD JUMPI PUSH2 0x2FC PUSH2 0x223 JUMP JUMPDEST JUMPDEST PUSH2 0x308 DUP5 DUP3 DUP6 PUSH2 0x1B7 JUMP JUMPDEST POP SWAP4 SWAP3 POP POP POP JUMP JUMPDEST PUSH0 DUP3 PUSH1 0x1F DUP4 ADD SLT PUSH2 0x324 JUMPI PUSH2 0x323 PUSH2 0xFB JUMP JUMPDEST JUMPDEST DUP2 CALLDATALOAD PUSH2 0x334 DUP5 DUP3 PUSH1 0x20 DUP7 ADD PUSH2 0x2CF JUMP JUMPDEST SWAP2 POP POP SWAP3 SWAP2 POP POP JUMP JUMPDEST PUSH0 PUSH1 0x20 DUP3 DUP5 SUB SLT ISZERO PUSH2 0x352 JUMPI PUSH2 0x351 PUSH2 0xF3 JUMP JUMPDEST JUMPDEST PUSH0 DUP3 ADD CALLDATALOAD PUSH8 0xFFFFFFFFFFFFFFFF DUP2 GT ISZERO PUSH2 0x36F JUMPI PUSH2 0x36E PUSH2 0xF7 JUMP JUMPDEST JUMPDEST PUSH2 0x37B DUP5 DUP3 DUP6 ADD PUSH2 0x310 JUMP JUMPDEST SWAP2 POP POP SWAP3 SWAP2 POP POP JUMP JUMPDEST PUSH0 DUP2 MLOAD SWAP1 POP SWAP2 SWAP1 POP JUMP JUMPDEST DUP3 DUP2 DUP4 MCOPY PUSH0 DUP4 DUP4 ADD MSTORE POP POP POP JUMP JUMPDEST PUSH0 PUSH2 0x3A6 DUP3 PUSH2 0x384 JUMP JUMPDEST PUSH2 0x3B0 DUP2 DUP6 PUSH2 0x1A7 JUMP JUMPDEST SWAP4 POP PUSH2 0x3C0 DUP2 DUP6 PUSH1 0x20 DUP7 ADD PUSH2 0x38E JUMP JUMPDEST PUSH2 0x3C9 DUP2 PUSH2 0x1C5 JUMP JUMPDEST DUP5 ADD SWAP2 POP POP SWAP3 SWAP2 POP POP JUMP JUMPDEST PUSH0 PUSH1 0x20 DUP3 ADD SWAP1 POP DUP2 DUP2 SUB PUSH0 DUP4 ADD MSTORE PUSH2 0x3EC DUP2 DUP5 PUSH2 0x39C JUMP JUMPDEST SWAP1 POP SWAP3 SWAP2 POP POP JUMP INVALID LOG2 PUSH5 0x6970667358 0x22 SLT KECCAK256 0xC6 AND PUSH28 0xEB2C48B6759EE6F7BA935273C7269A0FFB2226A34D5B86BE00A694C1 SWAP5 PUSH5 0x736F6C6343 STOP ADDMOD 0x1E STOP CALLER "
				},
				"gasEstimates": {
					"creation": {
						"codeDepositCost": "213200",
						"executionCost": "255",
						"totalCost": "213455"
					},
					"external": {
						"modifyStringMemory(string)": "infinite",
						"readOnlyStringCalldata(string)": "infinite"
					}
				},
				"methodIdentifiers": {
					"modifyStringMemory(string)": "825caa8d",
					"readOnlyStringCalldata(string)": "7aa52ffe"
				}
			},
			"storageLayout": {
				"storage": [],
				"types": null
			},
			"userdoc": {
				"kind": "user",
				"methods": {},
				"version": 1
			}
		}
	}
}