{
	"contracts/10.18.struct(struct mapping).sol": {
		"StudentRecords": {
			"abi": [
				{
					"inputs": [
						{
							"internalType": "uint256",
							"name": "_id",
							"type": "uint256"
						},
						{
							"internalType": "string",
							"name": "_name",
							"type": "string"
						},
						{
							"internalType": "uint256",
							"name": "_age",
							"type": "uint256"
						}
					],
					"name": "addOrUpdateStudent",
					"outputs": [],
					"stateMutability": "nonpayable",
					"type": "function"
				},
				{
					"inputs": [
						{
							"internalType": "uint256",
							"name": "_id",
							"type": "uint256"
						}
					],
					"name": "deleteStudent",
					"outputs": [],
					"stateMutability": "nonpayable",
					"type": "function"
				},
				{
					"inputs": [
						{
							"internalType": "uint256",
							"name": "_id",
							"type": "uint256"
						}
					],
					"name": "getStudent",
					"outputs": [
						{
							"internalType": "uint256",
							"name": "",
							"type": "uint256"
						},
						{
							"internalType": "string",
							"name": "",
							"type": "string"
						},
						{
							"internalType": "uint256",
							"name": "",
							"type": "uint256"
						}
					],
					"stateMutability": "view",
					"type": "function"
				}
			],
			"devdoc": {
				"kind": "dev",
				"methods": {},
				"version": 1
			},
			"evm": {
				"assembly": "    /* \"contracts/10.18.struct(struct mapping).sol\":57:1193  contract StudentRecords {... */\n  mstore(0x40, 0x80)\n  callvalue\n  dup1\n  iszero\n  tag_1\n  jumpi\n  0x00\n  dup1\n  revert\ntag_1:\n  pop\n  dataSize(sub_0)\n  dup1\n  dataOffset(sub_0)\n  0x00\n  codecopy\n  0x00\n  return\nstop\n\nsub_0: assembly {\n        /* \"contracts/10.18.struct(struct mapping).sol\":57:1193  contract StudentRecords {... */\n      mstore(0x40, 0x80)\n      callvalue\n      dup1\n      iszero\n      tag_1\n      jumpi\n      0x00\n      dup1\n      revert\n    tag_1:\n      pop\n      jumpi(tag_2, lt(calldatasize, 0x04))\n      shr(0xe0, calldataload(0x00))\n      dup1\n      0x642f9163\n      eq\n      tag_3\n      jumpi\n      dup1\n      0x9e159226\n      eq\n      tag_4\n      jumpi\n      dup1\n      0xb645307d\n      eq\n      tag_5\n      jumpi\n    tag_2:\n      0x00\n      dup1\n      revert\n        /* \"contracts/10.18.struct(struct mapping).sol\":637:986  function getStudent(uint256 _id)... */\n    tag_3:\n      tag_6\n      0x04\n      dup1\n      calldatasize\n      sub\n      dup2\n      add\n      swap1\n      tag_7\n      swap2\n      swap1\n      tag_8\n      jump\t// in\n    tag_7:\n      tag_9\n      jump\t// in\n    tag_6:\n      mload(0x40)\n      tag_10\n      swap4\n      swap3\n      swap2\n      swap1\n      tag_11\n      jump\t// in\n    tag_10:\n      mload(0x40)\n      dup1\n      swap2\n      sub\n      swap1\n      return\n        /* \"contracts/10.18.struct(struct mapping).sol\":421:592  function addOrUpdateStudent(... */\n    tag_4:\n      tag_12\n      0x04\n      dup1\n      calldatasize\n      sub\n      dup2\n      add\n      swap1\n      tag_13\n      swap2\n      swap1\n      tag_14\n      jump\t// in\n    tag_13:\n      tag_15\n      jump\t// in\n    tag_12:\n      stop\n        /* \"contracts/10.18.struct(struct mapping).sol\":1034:1191  function deleteStudent(uint256 _id) public {... */\n    tag_5:\n      tag_16\n      0x04\n      dup1\n      calldatasize\n      sub\n      dup2\n      add\n      swap1\n      tag_17\n      swap2\n      swap1\n      tag_8\n      jump\t// in\n    tag_17:\n      tag_18\n      jump\t// in\n    tag_16:\n      stop\n        /* \"contracts/10.18.struct(struct mapping).sol\":637:986  function getStudent(uint256 _id)... */\n    tag_9:\n        /* \"contracts/10.18.struct(struct mapping).sol\":728:735  uint256 */\n      0x00\n        /* \"contracts/10.18.struct(struct mapping).sol\":749:762  string memory */\n      0x60\n        /* \"contracts/10.18.struct(struct mapping).sol\":776:783  uint256 */\n      0x00\n        /* \"contracts/10.18.struct(struct mapping).sol\":852:853  0 */\n      dup1\n        /* \"contracts/10.18.struct(struct mapping).sol\":822:830  students */\n      0x00\n        /* \"contracts/10.18.struct(struct mapping).sol\":822:835  students[_id] */\n      dup1\n        /* \"contracts/10.18.struct(struct mapping).sol\":831:834  _id */\n      dup7\n        /* \"contracts/10.18.struct(struct mapping).sol\":822:835  students[_id] */\n      dup2\n      mstore\n      0x20\n      add\n      swap1\n      dup2\n      mstore\n      0x20\n      add\n      0x00\n      keccak256\n        /* \"contracts/10.18.struct(struct mapping).sol\":822:840  students[_id].name */\n      0x01\n      add\n        /* \"contracts/10.18.struct(struct mapping).sol\":816:848  bytes(students[_id].name).length */\n      dup1\n      sload\n      tag_20\n      swap1\n      tag_21\n      jump\t// in\n    tag_20:\n      swap1\n      pop\n        /* \"contracts/10.18.struct(struct mapping).sol\":816:853  bytes(students[_id].name).length != 0 */\n      sub\n        /* \"contracts/10.18.struct(struct mapping).sol\":808:875  require(bytes(students[_id].name).length != 0, \"Student not found\") */\n      tag_22\n      jumpi\n      mload(0x40)\n      0x08c379a000000000000000000000000000000000000000000000000000000000\n      dup2\n      mstore\n      0x04\n      add\n      tag_23\n      swap1\n      tag_24\n      jump\t// in\n    tag_23:\n      mload(0x40)\n      dup1\n      swap2\n      sub\n      swap1\n      revert\n    tag_22:\n        /* \"contracts/10.18.struct(struct mapping).sol\":885:907  Student memory student */\n      0x00\n        /* \"contracts/10.18.struct(struct mapping).sol\":910:918  students */\n      dup1\n        /* \"contracts/10.18.struct(struct mapping).sol\":910:923  students[_id] */\n      0x00\n        /* \"contracts/10.18.struct(struct mapping).sol\":919:922  _id */\n      dup7\n        /* \"contracts/10.18.struct(struct mapping).sol\":910:923  students[_id] */\n      dup2\n      mstore\n      0x20\n      add\n      swap1\n      dup2\n      mstore\n      0x20\n      add\n      0x00\n      keccak256\n        /* \"contracts/10.18.struct(struct mapping).sol\":885:923  Student memory student = students[_id] */\n      mload(0x40)\n      dup1\n      0x60\n      add\n      0x40\n      mstore\n      swap1\n      dup2\n      0x00\n      dup3\n      add\n      sload\n      dup2\n      mstore\n      0x20\n      add\n      0x01\n      dup3\n      add\n      dup1\n      sload\n      tag_25\n      swap1\n      tag_21\n      jump\t// in\n    tag_25:\n      dup1\n      0x1f\n      add\n      0x20\n      dup1\n      swap2\n      div\n      mul\n      0x20\n      add\n      mload(0x40)\n      swap1\n      dup2\n      add\n      0x40\n      mstore\n      dup1\n      swap3\n      swap2\n      swap1\n      dup2\n      dup2\n      mstore\n      0x20\n      add\n      dup3\n      dup1\n      sload\n      tag_26\n      swap1\n      tag_21\n      jump\t// in\n    tag_26:\n      dup1\n      iszero\n      tag_27\n      jumpi\n      dup1\n      0x1f\n      lt\n      tag_28\n      jumpi\n      0x0100\n      dup1\n      dup4\n      sload\n      div\n      mul\n      dup4\n      mstore\n      swap2\n      0x20\n      add\n      swap2\n      jump(tag_27)\n    tag_28:\n      dup3\n      add\n      swap2\n      swap1\n      0x00\n      mstore\n      keccak256(0x00, 0x20)\n      swap1\n    tag_29:\n      dup2\n      sload\n      dup2\n      mstore\n      swap1\n      0x01\n      add\n      swap1\n      0x20\n      add\n      dup1\n      dup4\n      gt\n      tag_29\n      jumpi\n      dup3\n      swap1\n      sub\n      0x1f\n      and\n      dup3\n      add\n      swap2\n    tag_27:\n      pop\n      pop\n      pop\n      pop\n      pop\n      dup2\n      mstore\n      0x20\n      add\n      0x02\n      dup3\n      add\n      sload\n      dup2\n      mstore\n      pop\n      pop\n      swap1\n      pop\n        /* \"contracts/10.18.struct(struct mapping).sol\":941:948  student */\n      dup1\n        /* \"contracts/10.18.struct(struct mapping).sol\":941:951  student.id */\n      0x00\n      add\n      mload\n        /* \"contracts/10.18.struct(struct mapping).sol\":953:960  student */\n      dup2\n        /* \"contracts/10.18.struct(struct mapping).sol\":953:965  student.name */\n      0x20\n      add\n      mload\n        /* \"contracts/10.18.struct(struct mapping).sol\":967:974  student */\n      dup3\n        /* \"contracts/10.18.struct(struct mapping).sol\":967:978  student.age */\n      0x40\n      add\n      mload\n        /* \"contracts/10.18.struct(struct mapping).sol\":933:979  return (student.id, student.name, student.age) */\n      swap4\n      pop\n      swap4\n      pop\n      swap4\n      pop\n      pop\n        /* \"contracts/10.18.struct(struct mapping).sol\":637:986  function getStudent(uint256 _id)... */\n      swap2\n      swap4\n      swap1\n      swap3\n      pop\n      jump\t// out\n        /* \"contracts/10.18.struct(struct mapping).sol\":421:592  function addOrUpdateStudent(... */\n    tag_15:\n        /* \"contracts/10.18.struct(struct mapping).sol\":560:585  Student(_id, _name, _age) */\n      mload(0x40)\n      dup1\n      0x60\n      add\n      0x40\n      mstore\n      dup1\n        /* \"contracts/10.18.struct(struct mapping).sol\":568:571  _id */\n      dup5\n        /* \"contracts/10.18.struct(struct mapping).sol\":560:585  Student(_id, _name, _age) */\n      dup2\n      mstore\n      0x20\n      add\n        /* \"contracts/10.18.struct(struct mapping).sol\":573:578  _name */\n      dup4\n        /* \"contracts/10.18.struct(struct mapping).sol\":560:585  Student(_id, _name, _age) */\n      dup2\n      mstore\n      0x20\n      add\n        /* \"contracts/10.18.struct(struct mapping).sol\":580:584  _age */\n      dup3\n        /* \"contracts/10.18.struct(struct mapping).sol\":560:585  Student(_id, _name, _age) */\n      dup2\n      mstore\n      pop\n        /* \"contracts/10.18.struct(struct mapping).sol\":544:552  students */\n      0x00\n        /* \"contracts/10.18.struct(struct mapping).sol\":544:557  students[_id] */\n      dup1\n        /* \"contracts/10.18.struct(struct mapping).sol\":553:556  _id */\n      dup6\n        /* \"contracts/10.18.struct(struct mapping).sol\":544:557  students[_id] */\n      dup2\n      mstore\n      0x20\n      add\n      swap1\n      dup2\n      mstore\n      0x20\n      add\n      0x00\n      keccak256\n        /* \"contracts/10.18.struct(struct mapping).sol\":544:585  students[_id] = Student(_id, _name, _age) */\n      0x00\n      dup3\n      add\n      mload\n      dup2\n      0x00\n      add\n      sstore\n      0x20\n      dup3\n      add\n      mload\n      dup2\n      0x01\n      add\n      swap1\n      dup2\n      tag_31\n      swap2\n      swap1\n      tag_32\n      jump\t// in\n    tag_31:\n      pop\n      0x40\n      dup3\n      add\n      mload\n      dup2\n      0x02\n      add\n      sstore\n      swap1\n      pop\n      pop\n        /* \"contracts/10.18.struct(struct mapping).sol\":421:592  function addOrUpdateStudent(... */\n      pop\n      pop\n      pop\n      jump\t// out\n        /* \"contracts/10.18.struct(struct mapping).sol\":1034:1191  function deleteStudent(uint256 _id) public {... */\n    tag_18:\n        /* \"contracts/10.18.struct(struct mapping).sol\":1131:1132  0 */\n      0x00\n        /* \"contracts/10.18.struct(struct mapping).sol\":1101:1109  students */\n      dup1\n        /* \"contracts/10.18.struct(struct mapping).sol\":1101:1114  students[_id] */\n      0x00\n        /* \"contracts/10.18.struct(struct mapping).sol\":1110:1113  _id */\n      dup4\n        /* \"contracts/10.18.struct(struct mapping).sol\":1101:1114  students[_id] */\n      dup2\n      mstore\n      0x20\n      add\n      swap1\n      dup2\n      mstore\n      0x20\n      add\n      0x00\n      keccak256\n        /* \"contracts/10.18.struct(struct mapping).sol\":1101:1119  students[_id].name */\n      0x01\n      add\n        /* \"contracts/10.18.struct(struct mapping).sol\":1095:1127  bytes(students[_id].name).length */\n      dup1\n      sload\n      tag_34\n      swap1\n      tag_21\n      jump\t// in\n    tag_34:\n      swap1\n      pop\n        /* \"contracts/10.18.struct(struct mapping).sol\":1095:1132  bytes(students[_id].name).length != 0 */\n      sub\n        /* \"contracts/10.18.struct(struct mapping).sol\":1087:1154  require(bytes(students[_id].name).length != 0, \"Student not found\") */\n      tag_35\n      jumpi\n      mload(0x40)\n      0x08c379a000000000000000000000000000000000000000000000000000000000\n      dup2\n      mstore\n      0x04\n      add\n      tag_36\n      swap1\n      tag_24\n      jump\t// in\n    tag_36:\n      mload(0x40)\n      dup1\n      swap2\n      sub\n      swap1\n      revert\n    tag_35:\n        /* \"contracts/10.18.struct(struct mapping).sol\":1171:1179  students */\n      0x00\n        /* \"contracts/10.18.struct(struct mapping).sol\":1171:1184  students[_id] */\n      dup1\n        /* \"contracts/10.18.struct(struct mapping).sol\":1180:1183  _id */\n      dup3\n        /* \"contracts/10.18.struct(struct mapping).sol\":1171:1184  students[_id] */\n      dup2\n      mstore\n      0x20\n      add\n      swap1\n      dup2\n      mstore\n      0x20\n      add\n      0x00\n      keccak256\n      0x00\n        /* \"contracts/10.18.struct(struct mapping).sol\":1164:1184  delete students[_id] */\n      dup1\n      dup3\n      add\n      0x00\n      swap1\n      sstore\n      0x01\n      dup3\n      add\n      0x00\n      tag_37\n      swap2\n      swap1\n      tag_38\n      jump\t// in\n    tag_37:\n      0x02\n      dup3\n      add\n      0x00\n      swap1\n      sstore\n      pop\n      pop\n        /* \"contracts/10.18.struct(struct mapping).sol\":1034:1191  function deleteStudent(uint256 _id) public {... */\n      pop\n      jump\t// out\n    tag_38:\n      pop\n      dup1\n      sload\n      tag_39\n      swap1\n      tag_21\n      jump\t// in\n    tag_39:\n      0x00\n      dup3\n      sstore\n      dup1\n      0x1f\n      lt\n      tag_41\n      jumpi\n      pop\n      jump(tag_40)\n    tag_41:\n      0x1f\n      add\n      0x20\n      swap1\n      div\n      swap1\n      0x00\n      mstore\n      keccak256(0x00, 0x20)\n      swap1\n      dup2\n      add\n      swap1\n      tag_42\n      swap2\n      swap1\n      tag_43\n      jump\t// in\n    tag_42:\n    tag_40:\n      pop\n      jump\t// out\n    tag_43:\n    tag_44:\n      dup1\n      dup3\n      gt\n      iszero\n      tag_45\n      jumpi\n      0x00\n      dup2\n      0x00\n      swap1\n      sstore\n      pop\n      0x01\n      add\n      jump(tag_44)\n    tag_45:\n      pop\n      swap1\n      jump\t// out\n        /* \"#utility.yul\":7:82   */\n    tag_46:\n        /* \"#utility.yul\":40:46   */\n      0x00\n        /* \"#utility.yul\":73:75   */\n      0x40\n        /* \"#utility.yul\":67:76   */\n      mload\n        /* \"#utility.yul\":57:76   */\n      swap1\n      pop\n        /* \"#utility.yul\":7:82   */\n      swap1\n      jump\t// out\n        /* \"#utility.yul\":88:205   */\n    tag_47:\n        /* \"#utility.yul\":197:198   */\n      0x00\n        /* \"#utility.yul\":194:195   */\n      dup1\n        /* \"#utility.yul\":187:199   */\n      revert\n        /* \"#utility.yul\":211:328   */\n    tag_48:\n        /* \"#utility.yul\":320:321   */\n      0x00\n        /* \"#utility.yul\":317:318   */\n      dup1\n        /* \"#utility.yul\":310:322   */\n      revert\n        /* \"#utility.yul\":334:411   */\n    tag_49:\n        /* \"#utility.yul\":371:378   */\n      0x00\n        /* \"#utility.yul\":400:405   */\n      dup2\n        /* \"#utility.yul\":389:405   */\n      swap1\n      pop\n        /* \"#utility.yul\":334:411   */\n      swap2\n      swap1\n      pop\n      jump\t// out\n        /* \"#utility.yul\":417:539   */\n    tag_50:\n        /* \"#utility.yul\":490:514   */\n      tag_91\n        /* \"#utility.yul\":508:513   */\n      dup2\n        /* \"#utility.yul\":490:514   */\n      tag_49\n      jump\t// in\n    tag_91:\n        /* \"#utility.yul\":483:488   */\n      dup2\n        /* \"#utility.yul\":480:515   */\n      eq\n        /* \"#utility.yul\":470:533   */\n      tag_92\n      jumpi\n        /* \"#utility.yul\":529:530   */\n      0x00\n        /* \"#utility.yul\":526:527   */\n      dup1\n        /* \"#utility.yul\":519:531   */\n      revert\n        /* \"#utility.yul\":470:533   */\n    tag_92:\n        /* \"#utility.yul\":417:539   */\n      pop\n      jump\t// out\n        /* \"#utility.yul\":545:684   */\n    tag_51:\n        /* \"#utility.yul\":591:596   */\n      0x00\n        /* \"#utility.yul\":629:635   */\n      dup2\n        /* \"#utility.yul\":616:636   */\n      calldataload\n        /* \"#utility.yul\":607:636   */\n      swap1\n      pop\n        /* \"#utility.yul\":645:678   */\n      tag_94\n        /* \"#utility.yul\":672:677   */\n      dup2\n        /* \"#utility.yul\":645:678   */\n      tag_50\n      jump\t// in\n    tag_94:\n        /* \"#utility.yul\":545:684   */\n      swap3\n      swap2\n      pop\n      pop\n      jump\t// out\n        /* \"#utility.yul\":690:1019   */\n    tag_8:\n        /* \"#utility.yul\":749:755   */\n      0x00\n        /* \"#utility.yul\":798:800   */\n      0x20\n        /* \"#utility.yul\":786:795   */\n      dup3\n        /* \"#utility.yul\":777:784   */\n      dup5\n        /* \"#utility.yul\":773:796   */\n      sub\n        /* \"#utility.yul\":769:801   */\n      slt\n        /* \"#utility.yul\":766:885   */\n      iszero\n      tag_96\n      jumpi\n        /* \"#utility.yul\":804:883   */\n      tag_97\n      tag_47\n      jump\t// in\n    tag_97:\n        /* \"#utility.yul\":766:885   */\n    tag_96:\n        /* \"#utility.yul\":924:925   */\n      0x00\n        /* \"#utility.yul\":949:1002   */\n      tag_98\n        /* \"#utility.yul\":994:1001   */\n      dup5\n        /* \"#utility.yul\":985:991   */\n      dup3\n        /* \"#utility.yul\":974:983   */\n      dup6\n        /* \"#utility.yul\":970:992   */\n      add\n        /* \"#utility.yul\":949:1002   */\n      tag_51\n      jump\t// in\n    tag_98:\n        /* \"#utility.yul\":939:1002   */\n      swap2\n      pop\n        /* \"#utility.yul\":895:1012   */\n      pop\n        /* \"#utility.yul\":690:1019   */\n      swap3\n      swap2\n      pop\n      pop\n      jump\t// out\n        /* \"#utility.yul\":1025:1143   */\n    tag_52:\n        /* \"#utility.yul\":1112:1136   */\n      tag_100\n        /* \"#utility.yul\":1130:1135   */\n      dup2\n        /* \"#utility.yul\":1112:1136   */\n      tag_49\n      jump\t// in\n    tag_100:\n        /* \"#utility.yul\":1107:1110   */\n      dup3\n        /* \"#utility.yul\":1100:1137   */\n      mstore\n        /* \"#utility.yul\":1025:1143   */\n      pop\n      pop\n      jump\t// out\n        /* \"#utility.yul\":1149:1248   */\n    tag_53:\n        /* \"#utility.yul\":1201:1207   */\n      0x00\n        /* \"#utility.yul\":1235:1240   */\n      dup2\n        /* \"#utility.yul\":1229:1241   */\n      mload\n        /* \"#utility.yul\":1219:1241   */\n      swap1\n      pop\n        /* \"#utility.yul\":1149:1248   */\n      swap2\n      swap1\n      pop\n      jump\t// out\n        /* \"#utility.yul\":1254:1423   */\n    tag_54:\n        /* \"#utility.yul\":1338:1349   */\n      0x00\n        /* \"#utility.yul\":1372:1378   */\n      dup3\n        /* \"#utility.yul\":1367:1370   */\n      dup3\n        /* \"#utility.yul\":1360:1379   */\n      mstore\n        /* \"#utility.yul\":1412:1416   */\n      0x20\n        /* \"#utility.yul\":1407:1410   */\n      dup3\n        /* \"#utility.yul\":1403:1417   */\n      add\n        /* \"#utility.yul\":1388:1417   */\n      swap1\n      pop\n        /* \"#utility.yul\":1254:1423   */\n      swap3\n      swap2\n      pop\n      pop\n      jump\t// out\n        /* \"#utility.yul\":1429:1675   */\n    tag_55:\n        /* \"#utility.yul\":1510:1511   */\n      0x00\n        /* \"#utility.yul\":1520:1633   */\n    tag_104:\n        /* \"#utility.yul\":1534:1540   */\n      dup4\n        /* \"#utility.yul\":1531:1532   */\n      dup2\n        /* \"#utility.yul\":1528:1541   */\n      lt\n        /* \"#utility.yul\":1520:1633   */\n      iszero\n      tag_106\n      jumpi\n        /* \"#utility.yul\":1619:1620   */\n      dup1\n        /* \"#utility.yul\":1614:1617   */\n      dup3\n        /* \"#utility.yul\":1610:1621   */\n      add\n        /* \"#utility.yul\":1604:1622   */\n      mload\n        /* \"#utility.yul\":1600:1601   */\n      dup2\n        /* \"#utility.yul\":1595:1598   */\n      dup5\n        /* \"#utility.yul\":1591:1602   */\n      add\n        /* \"#utility.yul\":1584:1623   */\n      mstore\n        /* \"#utility.yul\":1556:1558   */\n      0x20\n        /* \"#utility.yul\":1553:1554   */\n      dup2\n        /* \"#utility.yul\":1549:1559   */\n      add\n        /* \"#utility.yul\":1544:1559   */\n      swap1\n      pop\n        /* \"#utility.yul\":1520:1633   */\n      jump(tag_104)\n    tag_106:\n        /* \"#utility.yul\":1667:1668   */\n      0x00\n        /* \"#utility.yul\":1658:1664   */\n      dup5\n        /* \"#utility.yul\":1653:1656   */\n      dup5\n        /* \"#utility.yul\":1649:1665   */\n      add\n        /* \"#utility.yul\":1642:1669   */\n      mstore\n        /* \"#utility.yul\":1491:1675   */\n      pop\n        /* \"#utility.yul\":1429:1675   */\n      pop\n      pop\n      pop\n      jump\t// out\n        /* \"#utility.yul\":1681:1783   */\n    tag_56:\n        /* \"#utility.yul\":1722:1728   */\n      0x00\n        /* \"#utility.yul\":1773:1775   */\n      0x1f\n        /* \"#utility.yul\":1769:1776   */\n      not\n        /* \"#utility.yul\":1764:1766   */\n      0x1f\n        /* \"#utility.yul\":1757:1762   */\n      dup4\n        /* \"#utility.yul\":1753:1767   */\n      add\n        /* \"#utility.yul\":1749:1777   */\n      and\n        /* \"#utility.yul\":1739:1777   */\n      swap1\n      pop\n        /* \"#utility.yul\":1681:1783   */\n      swap2\n      swap1\n      pop\n      jump\t// out\n        /* \"#utility.yul\":1789:2166   */\n    tag_57:\n        /* \"#utility.yul\":1877:1880   */\n      0x00\n        /* \"#utility.yul\":1905:1944   */\n      tag_109\n        /* \"#utility.yul\":1938:1943   */\n      dup3\n        /* \"#utility.yul\":1905:1944   */\n      tag_53\n      jump\t// in\n    tag_109:\n        /* \"#utility.yul\":1960:2031   */\n      tag_110\n        /* \"#utility.yul\":2024:2030   */\n      dup2\n        /* \"#utility.yul\":2019:2022   */\n      dup6\n        /* \"#utility.yul\":1960:2031   */\n      tag_54\n      jump\t// in\n    tag_110:\n        /* \"#utility.yul\":1953:2031   */\n      swap4\n      pop\n        /* \"#utility.yul\":2040:2105   */\n      tag_111\n        /* \"#utility.yul\":2098:2104   */\n      dup2\n        /* \"#utility.yul\":2093:2096   */\n      dup6\n        /* \"#utility.yul\":2086:2090   */\n      0x20\n        /* \"#utility.yul\":2079:2084   */\n      dup7\n        /* \"#utility.yul\":2075:2091   */\n      add\n        /* \"#utility.yul\":2040:2105   */\n      tag_55\n      jump\t// in\n    tag_111:\n        /* \"#utility.yul\":2130:2159   */\n      tag_112\n        /* \"#utility.yul\":2152:2158   */\n      dup2\n        /* \"#utility.yul\":2130:2159   */\n      tag_56\n      jump\t// in\n    tag_112:\n        /* \"#utility.yul\":2125:2128   */\n      dup5\n        /* \"#utility.yul\":2121:2160   */\n      add\n        /* \"#utility.yul\":2114:2160   */\n      swap2\n      pop\n        /* \"#utility.yul\":1881:2166   */\n      pop\n        /* \"#utility.yul\":1789:2166   */\n      swap3\n      swap2\n      pop\n      pop\n      jump\t// out\n        /* \"#utility.yul\":2172:2705   */\n    tag_11:\n        /* \"#utility.yul\":2341:2345   */\n      0x00\n        /* \"#utility.yul\":2379:2381   */\n      0x60\n        /* \"#utility.yul\":2368:2377   */\n      dup3\n        /* \"#utility.yul\":2364:2382   */\n      add\n        /* \"#utility.yul\":2356:2382   */\n      swap1\n      pop\n        /* \"#utility.yul\":2392:2463   */\n      tag_114\n        /* \"#utility.yul\":2460:2461   */\n      0x00\n        /* \"#utility.yul\":2449:2458   */\n      dup4\n        /* \"#utility.yul\":2445:2462   */\n      add\n        /* \"#utility.yul\":2436:2442   */\n      dup7\n        /* \"#utility.yul\":2392:2463   */\n      tag_52\n      jump\t// in\n    tag_114:\n        /* \"#utility.yul\":2510:2519   */\n      dup2\n        /* \"#utility.yul\":2504:2508   */\n      dup2\n        /* \"#utility.yul\":2500:2520   */\n      sub\n        /* \"#utility.yul\":2495:2497   */\n      0x20\n        /* \"#utility.yul\":2484:2493   */\n      dup4\n        /* \"#utility.yul\":2480:2498   */\n      add\n        /* \"#utility.yul\":2473:2521   */\n      mstore\n        /* \"#utility.yul\":2538:2616   */\n      tag_115\n        /* \"#utility.yul\":2611:2615   */\n      dup2\n        /* \"#utility.yul\":2602:2608   */\n      dup6\n        /* \"#utility.yul\":2538:2616   */\n      tag_57\n      jump\t// in\n    tag_115:\n        /* \"#utility.yul\":2530:2616   */\n      swap1\n      pop\n        /* \"#utility.yul\":2626:2698   */\n      tag_116\n        /* \"#utility.yul\":2694:2696   */\n      0x40\n        /* \"#utility.yul\":2683:2692   */\n      dup4\n        /* \"#utility.yul\":2679:2697   */\n      add\n        /* \"#utility.yul\":2670:2676   */\n      dup5\n        /* \"#utility.yul\":2626:2698   */\n      tag_52\n      jump\t// in\n    tag_116:\n        /* \"#utility.yul\":2172:2705   */\n      swap5\n      swap4\n      pop\n      pop\n      pop\n      pop\n      jump\t// out\n        /* \"#utility.yul\":2711:2828   */\n    tag_58:\n        /* \"#utility.yul\":2820:2821   */\n      0x00\n        /* \"#utility.yul\":2817:2818   */\n      dup1\n        /* \"#utility.yul\":2810:2822   */\n      revert\n        /* \"#utility.yul\":2834:2951   */\n    tag_59:\n        /* \"#utility.yul\":2943:2944   */\n      0x00\n        /* \"#utility.yul\":2940:2941   */\n      dup1\n        /* \"#utility.yul\":2933:2945   */\n      revert\n        /* \"#utility.yul\":2957:3137   */\n    tag_60:\n        /* \"#utility.yul\":3005:3082   */\n      0x4e487b7100000000000000000000000000000000000000000000000000000000\n        /* \"#utility.yul\":3002:3003   */\n      0x00\n        /* \"#utility.yul\":2995:3083   */\n      mstore\n        /* \"#utility.yul\":3102:3106   */\n      0x41\n        /* \"#utility.yul\":3099:3100   */\n      0x04\n        /* \"#utility.yul\":3092:3107   */\n      mstore\n        /* \"#utility.yul\":3126:3130   */\n      0x24\n        /* \"#utility.yul\":3123:3124   */\n      0x00\n        /* \"#utility.yul\":3116:3131   */\n      revert\n        /* \"#utility.yul\":3143:3424   */\n    tag_61:\n        /* \"#utility.yul\":3226:3253   */\n      tag_121\n        /* \"#utility.yul\":3248:3252   */\n      dup3\n        /* \"#utility.yul\":3226:3253   */\n      tag_56\n      jump\t// in\n    tag_121:\n        /* \"#utility.yul\":3218:3224   */\n      dup2\n        /* \"#utility.yul\":3214:3254   */\n      add\n        /* \"#utility.yul\":3356:3362   */\n      dup2\n        /* \"#utility.yul\":3344:3354   */\n      dup2\n        /* \"#utility.yul\":3341:3363   */\n      lt\n        /* \"#utility.yul\":3320:3338   */\n      0xffffffffffffffff\n        /* \"#utility.yul\":3308:3318   */\n      dup3\n        /* \"#utility.yul\":3305:3339   */\n      gt\n        /* \"#utility.yul\":3302:3364   */\n      or\n        /* \"#utility.yul\":3299:3387   */\n      iszero\n      tag_122\n      jumpi\n        /* \"#utility.yul\":3367:3385   */\n      tag_123\n      tag_60\n      jump\t// in\n    tag_123:\n        /* \"#utility.yul\":3299:3387   */\n    tag_122:\n        /* \"#utility.yul\":3407:3417   */\n      dup1\n        /* \"#utility.yul\":3403:3405   */\n      0x40\n        /* \"#utility.yul\":3396:3418   */\n      mstore\n        /* \"#utility.yul\":3186:3424   */\n      pop\n        /* \"#utility.yul\":3143:3424   */\n      pop\n      pop\n      jump\t// out\n        /* \"#utility.yul\":3430:3559   */\n    tag_62:\n        /* \"#utility.yul\":3464:3470   */\n      0x00\n        /* \"#utility.yul\":3491:3511   */\n      tag_125\n      tag_46\n      jump\t// in\n    tag_125:\n        /* \"#utility.yul\":3481:3511   */\n      swap1\n      pop\n        /* \"#utility.yul\":3520:3553   */\n      tag_126\n        /* \"#utility.yul\":3548:3552   */\n      dup3\n        /* \"#utility.yul\":3540:3546   */\n      dup3\n        /* \"#utility.yul\":3520:3553   */\n      tag_61\n      jump\t// in\n    tag_126:\n        /* \"#utility.yul\":3430:3559   */\n      swap2\n      swap1\n      pop\n      jump\t// out\n        /* \"#utility.yul\":3565:3873   */\n    tag_63:\n        /* \"#utility.yul\":3627:3631   */\n      0x00\n        /* \"#utility.yul\":3717:3735   */\n      0xffffffffffffffff\n        /* \"#utility.yul\":3709:3715   */\n      dup3\n        /* \"#utility.yul\":3706:3736   */\n      gt\n        /* \"#utility.yul\":3703:3759   */\n      iszero\n      tag_128\n      jumpi\n        /* \"#utility.yul\":3739:3757   */\n      tag_129\n      tag_60\n      jump\t// in\n    tag_129:\n        /* \"#utility.yul\":3703:3759   */\n    tag_128:\n        /* \"#utility.yul\":3777:3806   */\n      tag_130\n        /* \"#utility.yul\":3799:3805   */\n      dup3\n        /* \"#utility.yul\":3777:3806   */\n      tag_56\n      jump\t// in\n    tag_130:\n        /* \"#utility.yul\":3769:3806   */\n      swap1\n      pop\n        /* \"#utility.yul\":3861:3865   */\n      0x20\n        /* \"#utility.yul\":3855:3859   */\n      dup2\n        /* \"#utility.yul\":3851:3866   */\n      add\n        /* \"#utility.yul\":3843:3866   */\n      swap1\n      pop\n        /* \"#utility.yul\":3565:3873   */\n      swap2\n      swap1\n      pop\n      jump\t// out\n        /* \"#utility.yul\":3879:4025   */\n    tag_64:\n        /* \"#utility.yul\":3976:3982   */\n      dup3\n        /* \"#utility.yul\":3971:3974   */\n      dup2\n        /* \"#utility.yul\":3966:3969   */\n      dup4\n        /* \"#utility.yul\":3953:3983   */\n      calldatacopy\n        /* \"#utility.yul\":4017:4018   */\n      0x00\n        /* \"#utility.yul\":4008:4014   */\n      dup4\n        /* \"#utility.yul\":4003:4006   */\n      dup4\n        /* \"#utility.yul\":3999:4015   */\n      add\n        /* \"#utility.yul\":3992:4019   */\n      mstore\n        /* \"#utility.yul\":3879:4025   */\n      pop\n      pop\n      pop\n      jump\t// out\n        /* \"#utility.yul\":4031:4456   */\n    tag_65:\n        /* \"#utility.yul\":4109:4114   */\n      0x00\n        /* \"#utility.yul\":4134:4200   */\n      tag_133\n        /* \"#utility.yul\":4150:4199   */\n      tag_134\n        /* \"#utility.yul\":4192:4198   */\n      dup5\n        /* \"#utility.yul\":4150:4199   */\n      tag_63\n      jump\t// in\n    tag_134:\n        /* \"#utility.yul\":4134:4200   */\n      tag_62\n      jump\t// in\n    tag_133:\n        /* \"#utility.yul\":4125:4200   */\n      swap1\n      pop\n        /* \"#utility.yul\":4223:4229   */\n      dup3\n        /* \"#utility.yul\":4216:4221   */\n      dup2\n        /* \"#utility.yul\":4209:4230   */\n      mstore\n        /* \"#utility.yul\":4261:4265   */\n      0x20\n        /* \"#utility.yul\":4254:4259   */\n      dup2\n        /* \"#utility.yul\":4250:4266   */\n      add\n        /* \"#utility.yul\":4299:4302   */\n      dup5\n        /* \"#utility.yul\":4290:4296   */\n      dup5\n        /* \"#utility.yul\":4285:4288   */\n      dup5\n        /* \"#utility.yul\":4281:4297   */\n      add\n        /* \"#utility.yul\":4278:4303   */\n      gt\n        /* \"#utility.yul\":4275:4387   */\n      iszero\n      tag_135\n      jumpi\n        /* \"#utility.yul\":4306:4385   */\n      tag_136\n      tag_59\n      jump\t// in\n    tag_136:\n        /* \"#utility.yul\":4275:4387   */\n    tag_135:\n        /* \"#utility.yul\":4396:4450   */\n      tag_137\n        /* \"#utility.yul\":4443:4449   */\n      dup5\n        /* \"#utility.yul\":4438:4441   */\n      dup3\n        /* \"#utility.yul\":4433:4436   */\n      dup6\n        /* \"#utility.yul\":4396:4450   */\n      tag_64\n      jump\t// in\n    tag_137:\n        /* \"#utility.yul\":4115:4456   */\n      pop\n        /* \"#utility.yul\":4031:4456   */\n      swap4\n      swap3\n      pop\n      pop\n      pop\n      jump\t// out\n        /* \"#utility.yul\":4476:4816   */\n    tag_66:\n        /* \"#utility.yul\":4532:4537   */\n      0x00\n        /* \"#utility.yul\":4581:4584   */\n      dup3\n        /* \"#utility.yul\":4574:4578   */\n      0x1f\n        /* \"#utility.yul\":4566:4572   */\n      dup4\n        /* \"#utility.yul\":4562:4579   */\n      add\n        /* \"#utility.yul\":4558:4585   */\n      slt\n        /* \"#utility.yul\":4548:4670   */\n      tag_139\n      jumpi\n        /* \"#utility.yul\":4589:4668   */\n      tag_140\n      tag_58\n      jump\t// in\n    tag_140:\n        /* \"#utility.yul\":4548:4670   */\n    tag_139:\n        /* \"#utility.yul\":4706:4712   */\n      dup2\n        /* \"#utility.yul\":4693:4713   */\n      calldataload\n        /* \"#utility.yul\":4731:4810   */\n      tag_141\n        /* \"#utility.yul\":4806:4809   */\n      dup5\n        /* \"#utility.yul\":4798:4804   */\n      dup3\n        /* \"#utility.yul\":4791:4795   */\n      0x20\n        /* \"#utility.yul\":4783:4789   */\n      dup7\n        /* \"#utility.yul\":4779:4796   */\n      add\n        /* \"#utility.yul\":4731:4810   */\n      tag_65\n      jump\t// in\n    tag_141:\n        /* \"#utility.yul\":4722:4810   */\n      swap2\n      pop\n        /* \"#utility.yul\":4538:4816   */\n      pop\n        /* \"#utility.yul\":4476:4816   */\n      swap3\n      swap2\n      pop\n      pop\n      jump\t// out\n        /* \"#utility.yul\":4822:5621   */\n    tag_14:\n        /* \"#utility.yul\":4909:4915   */\n      0x00\n        /* \"#utility.yul\":4917:4923   */\n      dup1\n        /* \"#utility.yul\":4925:4931   */\n      0x00\n        /* \"#utility.yul\":4974:4976   */\n      0x60\n        /* \"#utility.yul\":4962:4971   */\n      dup5\n        /* \"#utility.yul\":4953:4960   */\n      dup7\n        /* \"#utility.yul\":4949:4972   */\n      sub\n        /* \"#utility.yul\":4945:4977   */\n      slt\n        /* \"#utility.yul\":4942:5061   */\n      iszero\n      tag_143\n      jumpi\n        /* \"#utility.yul\":4980:5059   */\n      tag_144\n      tag_47\n      jump\t// in\n    tag_144:\n        /* \"#utility.yul\":4942:5061   */\n    tag_143:\n        /* \"#utility.yul\":5100:5101   */\n      0x00\n        /* \"#utility.yul\":5125:5178   */\n      tag_145\n        /* \"#utility.yul\":5170:5177   */\n      dup7\n        /* \"#utility.yul\":5161:5167   */\n      dup3\n        /* \"#utility.yul\":5150:5159   */\n      dup8\n        /* \"#utility.yul\":5146:5168   */\n      add\n        /* \"#utility.yul\":5125:5178   */\n      tag_51\n      jump\t// in\n    tag_145:\n        /* \"#utility.yul\":5115:5178   */\n      swap4\n      pop\n        /* \"#utility.yul\":5071:5188   */\n      pop\n        /* \"#utility.yul\":5255:5257   */\n      0x20\n        /* \"#utility.yul\":5244:5253   */\n      dup5\n        /* \"#utility.yul\":5240:5258   */\n      add\n        /* \"#utility.yul\":5227:5259   */\n      calldataload\n        /* \"#utility.yul\":5286:5304   */\n      0xffffffffffffffff\n        /* \"#utility.yul\":5278:5284   */\n      dup2\n        /* \"#utility.yul\":5275:5305   */\n      gt\n        /* \"#utility.yul\":5272:5389   */\n      iszero\n      tag_146\n      jumpi\n        /* \"#utility.yul\":5308:5387   */\n      tag_147\n      tag_48\n      jump\t// in\n    tag_147:\n        /* \"#utility.yul\":5272:5389   */\n    tag_146:\n        /* \"#utility.yul\":5413:5476   */\n      tag_148\n        /* \"#utility.yul\":5468:5475   */\n      dup7\n        /* \"#utility.yul\":5459:5465   */\n      dup3\n        /* \"#utility.yul\":5448:5457   */\n      dup8\n        /* \"#utility.yul\":5444:5466   */\n      add\n        /* \"#utility.yul\":5413:5476   */\n      tag_66\n      jump\t// in\n    tag_148:\n        /* \"#utility.yul\":5403:5476   */\n      swap3\n      pop\n        /* \"#utility.yul\":5198:5486   */\n      pop\n        /* \"#utility.yul\":5525:5527   */\n      0x40\n        /* \"#utility.yul\":5551:5604   */\n      tag_149\n        /* \"#utility.yul\":5596:5603   */\n      dup7\n        /* \"#utility.yul\":5587:5593   */\n      dup3\n        /* \"#utility.yul\":5576:5585   */\n      dup8\n        /* \"#utility.yul\":5572:5594   */\n      add\n        /* \"#utility.yul\":5551:5604   */\n      tag_51\n      jump\t// in\n    tag_149:\n        /* \"#utility.yul\":5541:5604   */\n      swap2\n      pop\n        /* \"#utility.yul\":5496:5614   */\n      pop\n        /* \"#utility.yul\":4822:5621   */\n      swap3\n      pop\n      swap3\n      pop\n      swap3\n      jump\t// out\n        /* \"#utility.yul\":5627:5807   */\n    tag_67:\n        /* \"#utility.yul\":5675:5752   */\n      0x4e487b7100000000000000000000000000000000000000000000000000000000\n        /* \"#utility.yul\":5672:5673   */\n      0x00\n        /* \"#utility.yul\":5665:5753   */\n      mstore\n        /* \"#utility.yul\":5772:5776   */\n      0x22\n        /* \"#utility.yul\":5769:5770   */\n      0x04\n        /* \"#utility.yul\":5762:5777   */\n      mstore\n        /* \"#utility.yul\":5796:5800   */\n      0x24\n        /* \"#utility.yul\":5793:5794   */\n      0x00\n        /* \"#utility.yul\":5786:5801   */\n      revert\n        /* \"#utility.yul\":5813:6133   */\n    tag_21:\n        /* \"#utility.yul\":5857:5863   */\n      0x00\n        /* \"#utility.yul\":5894:5895   */\n      0x02\n        /* \"#utility.yul\":5888:5892   */\n      dup3\n        /* \"#utility.yul\":5884:5896   */\n      div\n        /* \"#utility.yul\":5874:5896   */\n      swap1\n      pop\n        /* \"#utility.yul\":5941:5942   */\n      0x01\n        /* \"#utility.yul\":5935:5939   */\n      dup3\n        /* \"#utility.yul\":5931:5943   */\n      and\n        /* \"#utility.yul\":5962:5980   */\n      dup1\n        /* \"#utility.yul\":5952:6033   */\n      tag_152\n      jumpi\n        /* \"#utility.yul\":6018:6022   */\n      0x7f\n        /* \"#utility.yul\":6010:6016   */\n      dup3\n        /* \"#utility.yul\":6006:6023   */\n      and\n        /* \"#utility.yul\":5996:6023   */\n      swap2\n      pop\n        /* \"#utility.yul\":5952:6033   */\n    tag_152:\n        /* \"#utility.yul\":6080:6082   */\n      0x20\n        /* \"#utility.yul\":6072:6078   */\n      dup3\n        /* \"#utility.yul\":6069:6083   */\n      lt\n        /* \"#utility.yul\":6049:6067   */\n      dup2\n        /* \"#utility.yul\":6046:6084   */\n      sub\n        /* \"#utility.yul\":6043:6127   */\n      tag_153\n      jumpi\n        /* \"#utility.yul\":6099:6117   */\n      tag_154\n      tag_67\n      jump\t// in\n    tag_154:\n        /* \"#utility.yul\":6043:6127   */\n    tag_153:\n        /* \"#utility.yul\":5864:6133   */\n      pop\n        /* \"#utility.yul\":5813:6133   */\n      swap2\n      swap1\n      pop\n      jump\t// out\n        /* \"#utility.yul\":6139:6306   */\n    tag_68:\n        /* \"#utility.yul\":6279:6298   */\n      0x53747564656e74206e6f7420666f756e64000000000000000000000000000000\n        /* \"#utility.yul\":6275:6276   */\n      0x00\n        /* \"#utility.yul\":6267:6273   */\n      dup3\n        /* \"#utility.yul\":6263:6277   */\n      add\n        /* \"#utility.yul\":6256:6299   */\n      mstore\n        /* \"#utility.yul\":6139:6306   */\n      pop\n      jump\t// out\n        /* \"#utility.yul\":6312:6678   */\n    tag_69:\n        /* \"#utility.yul\":6454:6457   */\n      0x00\n        /* \"#utility.yul\":6475:6542   */\n      tag_157\n        /* \"#utility.yul\":6539:6541   */\n      0x11\n        /* \"#utility.yul\":6534:6537   */\n      dup4\n        /* \"#utility.yul\":6475:6542   */\n      tag_54\n      jump\t// in\n    tag_157:\n        /* \"#utility.yul\":6468:6542   */\n      swap2\n      pop\n        /* \"#utility.yul\":6551:6644   */\n      tag_158\n        /* \"#utility.yul\":6640:6643   */\n      dup3\n        /* \"#utility.yul\":6551:6644   */\n      tag_68\n      jump\t// in\n    tag_158:\n        /* \"#utility.yul\":6669:6671   */\n      0x20\n        /* \"#utility.yul\":6664:6667   */\n      dup3\n        /* \"#utility.yul\":6660:6672   */\n      add\n        /* \"#utility.yul\":6653:6672   */\n      swap1\n      pop\n        /* \"#utility.yul\":6312:6678   */\n      swap2\n      swap1\n      pop\n      jump\t// out\n        /* \"#utility.yul\":6684:7103   */\n    tag_24:\n        /* \"#utility.yul\":6850:6854   */\n      0x00\n        /* \"#utility.yul\":6888:6890   */\n      0x20\n        /* \"#utility.yul\":6877:6886   */\n      dup3\n        /* \"#utility.yul\":6873:6891   */\n      add\n        /* \"#utility.yul\":6865:6891   */\n      swap1\n      pop\n        /* \"#utility.yul\":6937:6946   */\n      dup2\n        /* \"#utility.yul\":6931:6935   */\n      dup2\n        /* \"#utility.yul\":6927:6947   */\n      sub\n        /* \"#utility.yul\":6923:6924   */\n      0x00\n        /* \"#utility.yul\":6912:6921   */\n      dup4\n        /* \"#utility.yul\":6908:6925   */\n      add\n        /* \"#utility.yul\":6901:6948   */\n      mstore\n        /* \"#utility.yul\":6965:7096   */\n      tag_160\n        /* \"#utility.yul\":7091:7095   */\n      dup2\n        /* \"#utility.yul\":6965:7096   */\n      tag_69\n      jump\t// in\n    tag_160:\n        /* \"#utility.yul\":6957:7096   */\n      swap1\n      pop\n        /* \"#utility.yul\":6684:7103   */\n      swap2\n      swap1\n      pop\n      jump\t// out\n        /* \"#utility.yul\":7109:7250   */\n    tag_70:\n        /* \"#utility.yul\":7158:7162   */\n      0x00\n        /* \"#utility.yul\":7181:7184   */\n      dup2\n        /* \"#utility.yul\":7173:7184   */\n      swap1\n      pop\n        /* \"#utility.yul\":7204:7207   */\n      dup2\n        /* \"#utility.yul\":7201:7202   */\n      0x00\n        /* \"#utility.yul\":7194:7208   */\n      mstore\n        /* \"#utility.yul\":7238:7242   */\n      0x20\n        /* \"#utility.yul\":7235:7236   */\n      0x00\n        /* \"#utility.yul\":7225:7243   */\n      keccak256\n        /* \"#utility.yul\":7217:7243   */\n      swap1\n      pop\n        /* \"#utility.yul\":7109:7250   */\n      swap2\n      swap1\n      pop\n      jump\t// out\n        /* \"#utility.yul\":7256:7349   */\n    tag_71:\n        /* \"#utility.yul\":7293:7299   */\n      0x00\n        /* \"#utility.yul\":7340:7342   */\n      0x20\n        /* \"#utility.yul\":7335:7337   */\n      0x1f\n        /* \"#utility.yul\":7328:7333   */\n      dup4\n        /* \"#utility.yul\":7324:7338   */\n      add\n        /* \"#utility.yul\":7320:7343   */\n      div\n        /* \"#utility.yul\":7310:7343   */\n      swap1\n      pop\n        /* \"#utility.yul\":7256:7349   */\n      swap2\n      swap1\n      pop\n      jump\t// out\n        /* \"#utility.yul\":7355:7462   */\n    tag_72:\n        /* \"#utility.yul\":7399:7407   */\n      0x00\n        /* \"#utility.yul\":7449:7454   */\n      dup3\n        /* \"#utility.yul\":7443:7447   */\n      dup3\n        /* \"#utility.yul\":7439:7455   */\n      shl\n        /* \"#utility.yul\":7418:7455   */\n      swap1\n      pop\n        /* \"#utility.yul\":7355:7462   */\n      swap3\n      swap2\n      pop\n      pop\n      jump\t// out\n        /* \"#utility.yul\":7468:7861   */\n    tag_73:\n        /* \"#utility.yul\":7537:7543   */\n      0x00\n        /* \"#utility.yul\":7587:7588   */\n      0x08\n        /* \"#utility.yul\":7575:7585   */\n      dup4\n        /* \"#utility.yul\":7571:7589   */\n      mul\n        /* \"#utility.yul\":7610:7707   */\n      tag_165\n        /* \"#utility.yul\":7640:7706   */\n      0xffffffffffffffffffffffffffffffffffffffffffffffffffffffffffffffff\n        /* \"#utility.yul\":7629:7638   */\n      dup3\n        /* \"#utility.yul\":7610:7707   */\n      tag_72\n      jump\t// in\n    tag_165:\n        /* \"#utility.yul\":7728:7767   */\n      tag_166\n        /* \"#utility.yul\":7758:7766   */\n      dup7\n        /* \"#utility.yul\":7747:7756   */\n      dup4\n        /* \"#utility.yul\":7728:7767   */\n      tag_72\n      jump\t// in\n    tag_166:\n        /* \"#utility.yul\":7716:7767   */\n      swap6\n      pop\n        /* \"#utility.yul\":7800:7804   */\n      dup1\n        /* \"#utility.yul\":7796:7805   */\n      not\n        /* \"#utility.yul\":7789:7794   */\n      dup5\n        /* \"#utility.yul\":7785:7806   */\n      and\n        /* \"#utility.yul\":7776:7806   */\n      swap4\n      pop\n        /* \"#utility.yul\":7849:7853   */\n      dup1\n        /* \"#utility.yul\":7839:7847   */\n      dup7\n        /* \"#utility.yul\":7835:7854   */\n      and\n        /* \"#utility.yul\":7828:7833   */\n      dup5\n        /* \"#utility.yul\":7825:7855   */\n      or\n        /* \"#utility.yul\":7815:7855   */\n      swap3\n      pop\n        /* \"#utility.yul\":7544:7861   */\n      pop\n      pop\n        /* \"#utility.yul\":7468:7861   */\n      swap4\n      swap3\n      pop\n      pop\n      pop\n      jump\t// out\n        /* \"#utility.yul\":7867:7927   */\n    tag_74:\n        /* \"#utility.yul\":7895:7898   */\n      0x00\n        /* \"#utility.yul\":7916:7921   */\n      dup2\n        /* \"#utility.yul\":7909:7921   */\n      swap1\n      pop\n        /* \"#utility.yul\":7867:7927   */\n      swap2\n      swap1\n      pop\n      jump\t// out\n        /* \"#utility.yul\":7933:8075   */\n    tag_75:\n        /* \"#utility.yul\":7983:7992   */\n      0x00\n        /* \"#utility.yul\":8016:8069   */\n      tag_169\n        /* \"#utility.yul\":8034:8068   */\n      tag_170\n        /* \"#utility.yul\":8043:8067   */\n      tag_171\n        /* \"#utility.yul\":8061:8066   */\n      dup5\n        /* \"#utility.yul\":8043:8067   */\n      tag_49\n      jump\t// in\n    tag_171:\n        /* \"#utility.yul\":8034:8068   */\n      tag_74\n      jump\t// in\n    tag_170:\n        /* \"#utility.yul\":8016:8069   */\n      tag_49\n      jump\t// in\n    tag_169:\n        /* \"#utility.yul\":8003:8069   */\n      swap1\n      pop\n        /* \"#utility.yul\":7933:8075   */\n      swap2\n      swap1\n      pop\n      jump\t// out\n        /* \"#utility.yul\":8081:8156   */\n    tag_76:\n        /* \"#utility.yul\":8124:8127   */\n      0x00\n        /* \"#utility.yul\":8145:8150   */\n      dup2\n        /* \"#utility.yul\":8138:8150   */\n      swap1\n      pop\n        /* \"#utility.yul\":8081:8156   */\n      swap2\n      swap1\n      pop\n      jump\t// out\n        /* \"#utility.yul\":8162:8431   */\n    tag_77:\n        /* \"#utility.yul\":8272:8311   */\n      tag_174\n        /* \"#utility.yul\":8303:8310   */\n      dup4\n        /* \"#utility.yul\":8272:8311   */\n      tag_75\n      jump\t// in\n    tag_174:\n        /* \"#utility.yul\":8333:8424   */\n      tag_175\n        /* \"#utility.yul\":8382:8423   */\n      tag_176\n        /* \"#utility.yul\":8406:8422   */\n      dup3\n        /* \"#utility.yul\":8382:8423   */\n      tag_76\n      jump\t// in\n    tag_176:\n        /* \"#utility.yul\":8374:8380   */\n      dup5\n        /* \"#utility.yul\":8367:8371   */\n      dup5\n        /* \"#utility.yul\":8361:8372   */\n      sload\n        /* \"#utility.yul\":8333:8424   */\n      tag_73\n      jump\t// in\n    tag_175:\n        /* \"#utility.yul\":8327:8331   */\n      dup3\n        /* \"#utility.yul\":8320:8425   */\n      sstore\n        /* \"#utility.yul\":8238:8431   */\n      pop\n        /* \"#utility.yul\":8162:8431   */\n      pop\n      pop\n      pop\n      jump\t// out\n        /* \"#utility.yul\":8437:8510   */\n    tag_78:\n        /* \"#utility.yul\":8482:8485   */\n      0x00\n        /* \"#utility.yul\":8437:8510   */\n      swap1\n      jump\t// out\n        /* \"#utility.yul\":8516:8705   */\n    tag_79:\n        /* \"#utility.yul\":8593:8625   */\n      tag_179\n      tag_78\n      jump\t// in\n    tag_179:\n        /* \"#utility.yul\":8634:8699   */\n      tag_180\n        /* \"#utility.yul\":8692:8698   */\n      dup2\n        /* \"#utility.yul\":8684:8690   */\n      dup5\n        /* \"#utility.yul\":8678:8682   */\n      dup5\n        /* \"#utility.yul\":8634:8699   */\n      tag_77\n      jump\t// in\n    tag_180:\n        /* \"#utility.yul\":8569:8705   */\n      pop\n        /* \"#utility.yul\":8516:8705   */\n      pop\n      pop\n      jump\t// out\n        /* \"#utility.yul\":8711:8897   */\n    tag_80:\n        /* \"#utility.yul\":8771:8891   */\n    tag_182:\n        /* \"#utility.yul\":8788:8791   */\n      dup2\n        /* \"#utility.yul\":8781:8786   */\n      dup2\n        /* \"#utility.yul\":8778:8792   */\n      lt\n        /* \"#utility.yul\":8771:8891   */\n      iszero\n      tag_184\n      jumpi\n        /* \"#utility.yul\":8842:8881   */\n      tag_185\n        /* \"#utility.yul\":8879:8880   */\n      0x00\n        /* \"#utility.yul\":8872:8877   */\n      dup3\n        /* \"#utility.yul\":8842:8881   */\n      tag_79\n      jump\t// in\n    tag_185:\n        /* \"#utility.yul\":8815:8816   */\n      0x01\n        /* \"#utility.yul\":8808:8813   */\n      dup2\n        /* \"#utility.yul\":8804:8817   */\n      add\n        /* \"#utility.yul\":8795:8817   */\n      swap1\n      pop\n        /* \"#utility.yul\":8771:8891   */\n      jump(tag_182)\n    tag_184:\n        /* \"#utility.yul\":8711:8897   */\n      pop\n      pop\n      jump\t// out\n        /* \"#utility.yul\":8903:9446   */\n    tag_81:\n        /* \"#utility.yul\":9004:9006   */\n      0x1f\n        /* \"#utility.yul\":8999:9002   */\n      dup3\n        /* \"#utility.yul\":8996:9007   */\n      gt\n        /* \"#utility.yul\":8993:9439   */\n      iszero\n      tag_187\n      jumpi\n        /* \"#utility.yul\":9038:9076   */\n      tag_188\n        /* \"#utility.yul\":9070:9075   */\n      dup2\n        /* \"#utility.yul\":9038:9076   */\n      tag_70\n      jump\t// in\n    tag_188:\n        /* \"#utility.yul\":9122:9151   */\n      tag_189\n        /* \"#utility.yul\":9140:9150   */\n      dup5\n        /* \"#utility.yul\":9122:9151   */\n      tag_71\n      jump\t// in\n    tag_189:\n        /* \"#utility.yul\":9112:9120   */\n      dup2\n        /* \"#utility.yul\":9108:9152   */\n      add\n        /* \"#utility.yul\":9305:9307   */\n      0x20\n        /* \"#utility.yul\":9293:9303   */\n      dup6\n        /* \"#utility.yul\":9290:9308   */\n      lt\n        /* \"#utility.yul\":9287:9336   */\n      iszero\n      tag_190\n      jumpi\n        /* \"#utility.yul\":9326:9334   */\n      dup2\n        /* \"#utility.yul\":9311:9334   */\n      swap1\n      pop\n        /* \"#utility.yul\":9287:9336   */\n    tag_190:\n        /* \"#utility.yul\":9349:9429   */\n      tag_191\n        /* \"#utility.yul\":9405:9427   */\n      tag_192\n        /* \"#utility.yul\":9423:9426   */\n      dup6\n        /* \"#utility.yul\":9405:9427   */\n      tag_71\n      jump\t// in\n    tag_192:\n        /* \"#utility.yul\":9395:9403   */\n      dup4\n        /* \"#utility.yul\":9391:9428   */\n      add\n        /* \"#utility.yul\":9378:9389   */\n      dup3\n        /* \"#utility.yul\":9349:9429   */\n      tag_80\n      jump\t// in\n    tag_191:\n        /* \"#utility.yul\":9008:9439   */\n      pop\n      pop\n        /* \"#utility.yul\":8993:9439   */\n    tag_187:\n        /* \"#utility.yul\":8903:9446   */\n      pop\n      pop\n      pop\n      jump\t// out\n        /* \"#utility.yul\":9452:9569   */\n    tag_82:\n        /* \"#utility.yul\":9506:9514   */\n      0x00\n        /* \"#utility.yul\":9556:9561   */\n      dup3\n        /* \"#utility.yul\":9550:9554   */\n      dup3\n        /* \"#utility.yul\":9546:9562   */\n      shr\n        /* \"#utility.yul\":9525:9562   */\n      swap1\n      pop\n        /* \"#utility.yul\":9452:9569   */\n      swap3\n      swap2\n      pop\n      pop\n      jump\t// out\n        /* \"#utility.yul\":9575:9744   */\n    tag_83:\n        /* \"#utility.yul\":9619:9625   */\n      0x00\n        /* \"#utility.yul\":9652:9703   */\n      tag_195\n        /* \"#utility.yul\":9700:9701   */\n      0x00\n        /* \"#utility.yul\":9696:9702   */\n      not\n        /* \"#utility.yul\":9688:9693   */\n      dup5\n        /* \"#utility.yul\":9685:9686   */\n      0x08\n        /* \"#utility.yul\":9681:9694   */\n      mul\n        /* \"#utility.yul\":9652:9703   */\n      tag_82\n      jump\t// in\n    tag_195:\n        /* \"#utility.yul\":9648:9704   */\n      not\n        /* \"#utility.yul\":9733:9737   */\n      dup1\n        /* \"#utility.yul\":9727:9731   */\n      dup4\n        /* \"#utility.yul\":9723:9738   */\n      and\n        /* \"#utility.yul\":9713:9738   */\n      swap2\n      pop\n        /* \"#utility.yul\":9626:9744   */\n      pop\n        /* \"#utility.yul\":9575:9744   */\n      swap3\n      swap2\n      pop\n      pop\n      jump\t// out\n        /* \"#utility.yul\":9749:10044   */\n    tag_84:\n        /* \"#utility.yul\":9825:9829   */\n      0x00\n        /* \"#utility.yul\":9971:10000   */\n      tag_197\n        /* \"#utility.yul\":9996:9999   */\n      dup4\n        /* \"#utility.yul\":9990:9994   */\n      dup4\n        /* \"#utility.yul\":9971:10000   */\n      tag_83\n      jump\t// in\n    tag_197:\n        /* \"#utility.yul\":9963:10000   */\n      swap2\n      pop\n        /* \"#utility.yul\":10033:10036   */\n      dup3\n        /* \"#utility.yul\":10030:10031   */\n      0x02\n        /* \"#utility.yul\":10026:10037   */\n      mul\n        /* \"#utility.yul\":10020:10024   */\n      dup3\n        /* \"#utility.yul\":10017:10038   */\n      or\n        /* \"#utility.yul\":10009:10038   */\n      swap1\n      pop\n        /* \"#utility.yul\":9749:10044   */\n      swap3\n      swap2\n      pop\n      pop\n      jump\t// out\n        /* \"#utility.yul\":10049:11444   */\n    tag_32:\n        /* \"#utility.yul\":10166:10203   */\n      tag_199\n        /* \"#utility.yul\":10199:10202   */\n      dup3\n        /* \"#utility.yul\":10166:10203   */\n      tag_53\n      jump\t// in\n    tag_199:\n        /* \"#utility.yul\":10268:10286   */\n      0xffffffffffffffff\n        /* \"#utility.yul\":10260:10266   */\n      dup2\n        /* \"#utility.yul\":10257:10287   */\n      gt\n        /* \"#utility.yul\":10254:10310   */\n      iszero\n      tag_200\n      jumpi\n        /* \"#utility.yul\":10290:10308   */\n      tag_201\n      tag_60\n      jump\t// in\n    tag_201:\n        /* \"#utility.yul\":10254:10310   */\n    tag_200:\n        /* \"#utility.yul\":10334:10372   */\n      tag_202\n        /* \"#utility.yul\":10366:10370   */\n      dup3\n        /* \"#utility.yul\":10360:10371   */\n      sload\n        /* \"#utility.yul\":10334:10372   */\n      tag_21\n      jump\t// in\n    tag_202:\n        /* \"#utility.yul\":10419:10486   */\n      tag_203\n        /* \"#utility.yul\":10479:10485   */\n      dup3\n        /* \"#utility.yul\":10471:10477   */\n      dup3\n        /* \"#utility.yul\":10465:10469   */\n      dup6\n        /* \"#utility.yul\":10419:10486   */\n      tag_81\n      jump\t// in\n    tag_203:\n        /* \"#utility.yul\":10513:10514   */\n      0x00\n        /* \"#utility.yul\":10537:10541   */\n      0x20\n        /* \"#utility.yul\":10524:10541   */\n      swap1\n      pop\n        /* \"#utility.yul\":10569:10571   */\n      0x1f\n        /* \"#utility.yul\":10561:10567   */\n      dup4\n        /* \"#utility.yul\":10558:10572   */\n      gt\n        /* \"#utility.yul\":10586:10587   */\n      0x01\n        /* \"#utility.yul\":10581:11199   */\n      dup2\n      eq\n      tag_205\n      jumpi\n        /* \"#utility.yul\":11243:11244   */\n      0x00\n        /* \"#utility.yul\":11260:11266   */\n      dup5\n        /* \"#utility.yul\":11257:11334   */\n      iszero\n      tag_206\n      jumpi\n        /* \"#utility.yul\":11309:11318   */\n      dup3\n        /* \"#utility.yul\":11304:11307   */\n      dup8\n        /* \"#utility.yul\":11300:11319   */\n      add\n        /* \"#utility.yul\":11294:11320   */\n      mload\n        /* \"#utility.yul\":11285:11320   */\n      swap1\n      pop\n        /* \"#utility.yul\":11257:11334   */\n    tag_206:\n        /* \"#utility.yul\":11360:11427   */\n      tag_207\n        /* \"#utility.yul\":11420:11426   */\n      dup6\n        /* \"#utility.yul\":11413:11418   */\n      dup3\n        /* \"#utility.yul\":11360:11427   */\n      tag_84\n      jump\t// in\n    tag_207:\n        /* \"#utility.yul\":11354:11358   */\n      dup7\n        /* \"#utility.yul\":11347:11428   */\n      sstore\n        /* \"#utility.yul\":11216:11438   */\n      pop\n        /* \"#utility.yul\":10551:11438   */\n      jump(tag_204)\n        /* \"#utility.yul\":10581:11199   */\n    tag_205:\n        /* \"#utility.yul\":10633:10637   */\n      0x1f\n        /* \"#utility.yul\":10629:10638   */\n      not\n        /* \"#utility.yul\":10621:10627   */\n      dup5\n        /* \"#utility.yul\":10617:10639   */\n      and\n        /* \"#utility.yul\":10667:10704   */\n      tag_208\n        /* \"#utility.yul\":10699:10703   */\n      dup7\n        /* \"#utility.yul\":10667:10704   */\n      tag_70\n      jump\t// in\n    tag_208:\n        /* \"#utility.yul\":10726:10727   */\n      0x00\n        /* \"#utility.yul\":10740:10948   */\n    tag_209:\n        /* \"#utility.yul\":10754:10761   */\n      dup3\n        /* \"#utility.yul\":10751:10752   */\n      dup2\n        /* \"#utility.yul\":10748:10762   */\n      lt\n        /* \"#utility.yul\":10740:10948   */\n      iszero\n      tag_211\n      jumpi\n        /* \"#utility.yul\":10833:10842   */\n      dup5\n        /* \"#utility.yul\":10828:10831   */\n      dup10\n        /* \"#utility.yul\":10824:10843   */\n      add\n        /* \"#utility.yul\":10818:10844   */\n      mload\n        /* \"#utility.yul\":10810:10816   */\n      dup3\n        /* \"#utility.yul\":10803:10845   */\n      sstore\n        /* \"#utility.yul\":10884:10885   */\n      0x01\n        /* \"#utility.yul\":10876:10882   */\n      dup3\n        /* \"#utility.yul\":10872:10886   */\n      add\n        /* \"#utility.yul\":10862:10886   */\n      swap2\n      pop\n        /* \"#utility.yul\":10931:10933   */\n      0x20\n        /* \"#utility.yul\":10920:10929   */\n      dup6\n        /* \"#utility.yul\":10916:10934   */\n      add\n        /* \"#utility.yul\":10903:10934   */\n      swap5\n      pop\n        /* \"#utility.yul\":10777:10781   */\n      0x20\n        /* \"#utility.yul\":10774:10775   */\n      dup2\n        /* \"#utility.yul\":10770:10782   */\n      add\n        /* \"#utility.yul\":10765:10782   */\n      swap1\n      pop\n        /* \"#utility.yul\":10740:10948   */\n      jump(tag_209)\n    tag_211:\n        /* \"#utility.yul\":10976:10982   */\n      dup7\n        /* \"#utility.yul\":10967:10974   */\n      dup4\n        /* \"#utility.yul\":10964:10983   */\n      lt\n        /* \"#utility.yul\":10961:11140   */\n      iszero\n      tag_212\n      jumpi\n        /* \"#utility.yul\":11034:11043   */\n      dup5\n        /* \"#utility.yul\":11029:11032   */\n      dup10\n        /* \"#utility.yul\":11025:11044   */\n      add\n        /* \"#utility.yul\":11019:11045   */\n      mload\n        /* \"#utility.yul\":11077:11125   */\n      tag_213\n        /* \"#utility.yul\":11119:11123   */\n      0x1f\n        /* \"#utility.yul\":11111:11117   */\n      dup10\n        /* \"#utility.yul\":11107:11124   */\n      and\n        /* \"#utility.yul\":11096:11105   */\n      dup3\n        /* \"#utility.yul\":11077:11125   */\n      tag_83\n      jump\t// in\n    tag_213:\n        /* \"#utility.yul\":11069:11075   */\n      dup4\n        /* \"#utility.yul\":11062:11126   */\n      sstore\n        /* \"#utility.yul\":10984:11140   */\n      pop\n        /* \"#utility.yul\":10961:11140   */\n    tag_212:\n        /* \"#utility.yul\":11186:11187   */\n      0x01\n        /* \"#utility.yul\":11182:11183   */\n      0x02\n        /* \"#utility.yul\":11174:11180   */\n      dup9\n        /* \"#utility.yul\":11170:11184   */\n      mul\n        /* \"#utility.yul\":11166:11188   */\n      add\n        /* \"#utility.yul\":11160:11164   */\n      dup9\n        /* \"#utility.yul\":11153:11189   */\n      sstore\n        /* \"#utility.yul\":10588:11199   */\n      pop\n      pop\n      pop\n        /* \"#utility.yul\":10551:11438   */\n    tag_204:\n      pop\n        /* \"#utility.yul\":10141:11444   */\n      pop\n      pop\n      pop\n        /* \"#utility.yul\":10049:11444   */\n      pop\n      pop\n      jump\t// out\n\n    auxdata: 0xa26469706673582212200fd298099279a2d16d077678bd9228a748b68ffb0dc6f0ba52021cca422e99d664736f6c63430008180033\n}\n",
				"bytecode": {
					"linkReferences": {},
					"object": "608060405234801561000f575f80fd5b506109788061001d5f395ff3fe608060405234801561000f575f80fd5b506004361061003f575f3560e01c8063642f9163146100435780639e15922614610075578063b645307d14610091575b5f80fd5b61005d60048036038101906100589190610379565b6100ad565b60405161006c9392919061043d565b60405180910390f35b61008f600480360381019061008a91906105a5565b6101ef565b005b6100ab60048036038101906100a69190610379565b61024a565b005b5f60605f805f808681526020019081526020015f2060010180546100d09061063e565b905003610112576040517f08c379a0000000000000000000000000000000000000000000000000000000008152600401610109906106b8565b60405180910390fd5b5f805f8681526020019081526020015f206040518060600160405290815f82015481526020016001820180546101479061063e565b80601f01602080910402602001604051908101604052809291908181526020018280546101739061063e565b80156101be5780601f10610195576101008083540402835291602001916101be565b820191905f5260205f20905b8154815290600101906020018083116101a157829003601f168201915b505050505081526020016002820154815250509050805f015181602001518260400151935093509350509193909250565b6040518060600160405280848152602001838152602001828152505f808581526020019081526020015f205f820151815f015560208201518160010190816102379190610873565b5060408201518160020155905050505050565b5f805f8381526020019081526020015f2060010180546102699061063e565b9050036102ab576040517f08c379a00000000000000000000000000000000000000000000000000000000081526004016102a2906106b8565b60405180910390fd5b5f808281526020019081526020015f205f8082015f9055600182015f6102d191906102dd565b600282015f9055505050565b5080546102e99061063e565b5f825580601f106102fa5750610317565b601f0160209004905f5260205f2090810190610316919061031a565b5b50565b5b80821115610331575f815f90555060010161031b565b5090565b5f604051905090565b5f80fd5b5f80fd5b5f819050919050565b61035881610346565b8114610362575f80fd5b50565b5f813590506103738161034f565b92915050565b5f6020828403121561038e5761038d61033e565b5b5f61039b84828501610365565b91505092915050565b6103ad81610346565b82525050565b5f81519050919050565b5f82825260208201905092915050565b5f5b838110156103ea5780820151818401526020810190506103cf565b5f8484015250505050565b5f601f19601f8301169050919050565b5f61040f826103b3565b61041981856103bd565b93506104298185602086016103cd565b610432816103f5565b840191505092915050565b5f6060820190506104505f8301866103a4565b81810360208301526104628185610405565b905061047160408301846103a4565b949350505050565b5f80fd5b5f80fd5b7f4e487b71000000000000000000000000000000000000000000000000000000005f52604160045260245ffd5b6104b7826103f5565b810181811067ffffffffffffffff821117156104d6576104d5610481565b5b80604052505050565b5f6104e8610335565b90506104f482826104ae565b919050565b5f67ffffffffffffffff82111561051357610512610481565b5b61051c826103f5565b9050602081019050919050565b828183375f83830152505050565b5f610549610544846104f9565b6104df565b9050828152602081018484840111156105655761056461047d565b5b610570848285610529565b509392505050565b5f82601f83011261058c5761058b610479565b5b813561059c848260208601610537565b91505092915050565b5f805f606084860312156105bc576105bb61033e565b5b5f6105c986828701610365565b935050602084013567ffffffffffffffff8111156105ea576105e9610342565b5b6105f686828701610578565b925050604061060786828701610365565b9150509250925092565b7f4e487b71000000000000000000000000000000000000000000000000000000005f52602260045260245ffd5b5f600282049050600182168061065557607f821691505b60208210810361066857610667610611565b5b50919050565b7f53747564656e74206e6f7420666f756e640000000000000000000000000000005f82015250565b5f6106a26011836103bd565b91506106ad8261066e565b602082019050919050565b5f6020820190508181035f8301526106cf81610696565b9050919050565b5f819050815f5260205f209050919050565b5f6020601f8301049050919050565b5f82821b905092915050565b5f600883026107327fffffffffffffffffffffffffffffffffffffffffffffffffffffffffffffffff826106f7565b61073c86836106f7565b95508019841693508086168417925050509392505050565b5f819050919050565b5f61077761077261076d84610346565b610754565b610346565b9050919050565b5f819050919050565b6107908361075d565b6107a461079c8261077e565b848454610703565b825550505050565b5f90565b6107b86107ac565b6107c3818484610787565b505050565b5b818110156107e6576107db5f826107b0565b6001810190506107c9565b5050565b601f82111561082b576107fc816106d6565b610805846106e8565b81016020851015610814578190505b610828610820856106e8565b8301826107c8565b50505b505050565b5f82821c905092915050565b5f61084b5f1984600802610830565b1980831691505092915050565b5f610863838361083c565b9150826002028217905092915050565b61087c826103b3565b67ffffffffffffffff81111561089557610894610481565b5b61089f825461063e565b6108aa8282856107ea565b5f60209050601f8311600181146108db575f84156108c9578287015190505b6108d38582610858565b86555061093a565b601f1984166108e9866106d6565b5f5b82811015610910578489015182556001820191506020850194506020810190506108eb565b8683101561092d5784890151610929601f89168261083c565b8355505b6001600288020188555050505b50505050505056fea26469706673582212200fd298099279a2d16d077678bd9228a748b68ffb0dc6f0ba52021cca422e99d664736f6c63430008180033",
					"opcodes": "PUSH1 0x80 PUSH1 0x40 MSTORE CALLVALUE DUP1 ISZERO PUSH2 0xF JUMPI PUSH0 DUP1 REVERT JUMPDEST POP PUSH2 0x978 DUP1 PUSH2 0x1D PUSH0 CODECOPY PUSH0 RETURN INVALID PUSH1 0x80 PUSH1 0x40 MSTORE CALLVALUE DUP1 ISZERO PUSH2 0xF JUMPI PUSH0 DUP1 REVERT JUMPDEST POP PUSH1 0x4 CALLDATASIZE LT PUSH2 0x3F JUMPI PUSH0 CALLDATALOAD PUSH1 0xE0 SHR DUP1 PUSH4 0x642F9163 EQ PUSH2 0x43 JUMPI DUP1 PUSH4 0x9E159226 EQ PUSH2 0x75 JUMPI DUP1 PUSH4 0xB645307D EQ PUSH2 0x91 JUMPI JUMPDEST PUSH0 DUP1 REVERT JUMPDEST PUSH2 0x5D PUSH1 0x4 DUP1 CALLDATASIZE SUB DUP2 ADD SWAP1 PUSH2 0x58 SWAP2 SWAP1 PUSH2 0x379 JUMP JUMPDEST PUSH2 0xAD JUMP JUMPDEST PUSH1 0x40 MLOAD PUSH2 0x6C SWAP4 SWAP3 SWAP2 SWAP1 PUSH2 0x43D JUMP JUMPDEST PUSH1 0x40 MLOAD DUP1 SWAP2 SUB SWAP1 RETURN JUMPDEST PUSH2 0x8F PUSH1 0x4 DUP1 CALLDATASIZE SUB DUP2 ADD SWAP1 PUSH2 0x8A SWAP2 SWAP1 PUSH2 0x5A5 JUMP JUMPDEST PUSH2 0x1EF JUMP JUMPDEST STOP JUMPDEST PUSH2 0xAB PUSH1 0x4 DUP1 CALLDATASIZE SUB DUP2 ADD SWAP1 PUSH2 0xA6 SWAP2 SWAP1 PUSH2 0x379 JUMP JUMPDEST PUSH2 0x24A JUMP JUMPDEST STOP JUMPDEST PUSH0 PUSH1 0x60 PUSH0 DUP1 PUSH0 DUP1 DUP7 DUP2 MSTORE PUSH1 0x20 ADD SWAP1 DUP2 MSTORE PUSH1 0x20 ADD PUSH0 KECCAK256 PUSH1 0x1 ADD DUP1 SLOAD PUSH2 0xD0 SWAP1 PUSH2 0x63E JUMP JUMPDEST SWAP1 POP SUB PUSH2 0x112 JUMPI PUSH1 0x40 MLOAD PUSH32 0x8C379A000000000000000000000000000000000000000000000000000000000 DUP2 MSTORE PUSH1 0x4 ADD PUSH2 0x109 SWAP1 PUSH2 0x6B8 JUMP JUMPDEST PUSH1 0x40 MLOAD DUP1 SWAP2 SUB SWAP1 REVERT JUMPDEST PUSH0 DUP1 PUSH0 DUP7 DUP2 MSTORE PUSH1 0x20 ADD SWAP1 DUP2 MSTORE PUSH1 0x20 ADD PUSH0 KECCAK256 PUSH1 0x40 MLOAD DUP1 PUSH1 0x60 ADD PUSH1 0x40 MSTORE SWAP1 DUP2 PUSH0 DUP3 ADD SLOAD DUP2 MSTORE PUSH1 0x20 ADD PUSH1 0x1 DUP3 ADD DUP1 SLOAD PUSH2 0x147 SWAP1 PUSH2 0x63E JUMP JUMPDEST DUP1 PUSH1 0x1F ADD PUSH1 0x20 DUP1 SWAP2 DIV MUL PUSH1 0x20 ADD PUSH1 0x40 MLOAD SWAP1 DUP2 ADD PUSH1 0x40 MSTORE DUP1 SWAP3 SWAP2 SWAP1 DUP2 DUP2 MSTORE PUSH1 0x20 ADD DUP3 DUP1 SLOAD PUSH2 0x173 SWAP1 PUSH2 0x63E JUMP JUMPDEST DUP1 ISZERO PUSH2 0x1BE JUMPI DUP1 PUSH1 0x1F LT PUSH2 0x195 JUMPI PUSH2 0x100 DUP1 DUP4 SLOAD DIV MUL DUP4 MSTORE SWAP2 PUSH1 0x20 ADD SWAP2 PUSH2 0x1BE JUMP JUMPDEST DUP3 ADD SWAP2 SWAP1 PUSH0 MSTORE PUSH1 0x20 PUSH0 KECCAK256 SWAP1 JUMPDEST DUP2 SLOAD DUP2 MSTORE SWAP1 PUSH1 0x1 ADD SWAP1 PUSH1 0x20 ADD DUP1 DUP4 GT PUSH2 0x1A1 JUMPI DUP3 SWAP1 SUB PUSH1 0x1F AND DUP3 ADD SWAP2 JUMPDEST POP POP POP POP POP DUP2 MSTORE PUSH1 0x20 ADD PUSH1 0x2 DUP3 ADD SLOAD DUP2 MSTORE POP POP SWAP1 POP DUP1 PUSH0 ADD MLOAD DUP2 PUSH1 0x20 ADD MLOAD DUP3 PUSH1 0x40 ADD MLOAD SWAP4 POP SWAP4 POP SWAP4 POP POP SWAP2 SWAP4 SWAP1 SWAP3 POP JUMP JUMPDEST PUSH1 0x40 MLOAD DUP1 PUSH1 0x60 ADD PUSH1 0x40 MSTORE DUP1 DUP5 DUP2 MSTORE PUSH1 0x20 ADD DUP4 DUP2 MSTORE PUSH1 0x20 ADD DUP3 DUP2 MSTORE POP PUSH0 DUP1 DUP6 DUP2 MSTORE PUSH1 0x20 ADD SWAP1 DUP2 MSTORE PUSH1 0x20 ADD PUSH0 KECCAK256 PUSH0 DUP3 ADD MLOAD DUP2 PUSH0 ADD SSTORE PUSH1 0x20 DUP3 ADD MLOAD DUP2 PUSH1 0x1 ADD SWAP1 DUP2 PUSH2 0x237 SWAP2 SWAP1 PUSH2 0x873 JUMP JUMPDEST POP PUSH1 0x40 DUP3 ADD MLOAD DUP2 PUSH1 0x2 ADD SSTORE SWAP1 POP POP POP POP POP JUMP JUMPDEST PUSH0 DUP1 PUSH0 DUP4 DUP2 MSTORE PUSH1 0x20 ADD SWAP1 DUP2 MSTORE PUSH1 0x20 ADD PUSH0 KECCAK256 PUSH1 0x1 ADD DUP1 SLOAD PUSH2 0x269 SWAP1 PUSH2 0x63E JUMP JUMPDEST SWAP1 POP SUB PUSH2 0x2AB JUMPI PUSH1 0x40 MLOAD PUSH32 0x8C379A000000000000000000000000000000000000000000000000000000000 DUP2 MSTORE PUSH1 0x4 ADD PUSH2 0x2A2 SWAP1 PUSH2 0x6B8 JUMP JUMPDEST PUSH1 0x40 MLOAD DUP1 SWAP2 SUB SWAP1 REVERT JUMPDEST PUSH0 DUP1 DUP3 DUP2 MSTORE PUSH1 0x20 ADD SWAP1 DUP2 MSTORE PUSH1 0x20 ADD PUSH0 KECCAK256 PUSH0 DUP1 DUP3 ADD PUSH0 SWAP1 SSTORE PUSH1 0x1 DUP3 ADD PUSH0 PUSH2 0x2D1 SWAP2 SWAP1 PUSH2 0x2DD JUMP JUMPDEST PUSH1 0x2 DUP3 ADD PUSH0 SWAP1 SSTORE POP POP POP JUMP JUMPDEST POP DUP1 SLOAD PUSH2 0x2E9 SWAP1 PUSH2 0x63E JUMP JUMPDEST PUSH0 DUP3 SSTORE DUP1 PUSH1 0x1F LT PUSH2 0x2FA JUMPI POP PUSH2 0x317 JUMP JUMPDEST PUSH1 0x1F ADD PUSH1 0x20 SWAP1 DIV SWAP1 PUSH0 MSTORE PUSH1 0x20 PUSH0 KECCAK256 SWAP1 DUP2 ADD SWAP1 PUSH2 0x316 SWAP2 SWAP1 PUSH2 0x31A JUMP JUMPDEST JUMPDEST POP JUMP JUMPDEST JUMPDEST DUP1 DUP3 GT ISZERO PUSH2 0x331 JUMPI PUSH0 DUP2 PUSH0 SWAP1 SSTORE POP PUSH1 0x1 ADD PUSH2 0x31B JUMP JUMPDEST POP SWAP1 JUMP JUMPDEST PUSH0 PUSH1 0x40 MLOAD SWAP1 POP SWAP1 JUMP JUMPDEST PUSH0 DUP1 REVERT JUMPDEST PUSH0 DUP1 REVERT JUMPDEST PUSH0 DUP2 SWAP1 POP SWAP2 SWAP1 POP JUMP JUMPDEST PUSH2 0x358 DUP2 PUSH2 0x346 JUMP JUMPDEST DUP2 EQ PUSH2 0x362 JUMPI PUSH0 DUP1 REVERT JUMPDEST POP JUMP JUMPDEST PUSH0 DUP2 CALLDATALOAD SWAP1 POP PUSH2 0x373 DUP2 PUSH2 0x34F JUMP JUMPDEST SWAP3 SWAP2 POP POP JUMP JUMPDEST PUSH0 PUSH1 0x20 DUP3 DUP5 SUB SLT ISZERO PUSH2 0x38E JUMPI PUSH2 0x38D PUSH2 0x33E JUMP JUMPDEST JUMPDEST PUSH0 PUSH2 0x39B DUP5 DUP3 DUP6 ADD PUSH2 0x365 JUMP JUMPDEST SWAP2 POP POP SWAP3 SWAP2 POP POP JUMP JUMPDEST PUSH2 0x3AD DUP2 PUSH2 0x346 JUMP JUMPDEST DUP3 MSTORE POP POP JUMP JUMPDEST PUSH0 DUP2 MLOAD SWAP1 POP SWAP2 SWAP1 POP JUMP JUMPDEST PUSH0 DUP3 DUP3 MSTORE PUSH1 0x20 DUP3 ADD SWAP1 POP SWAP3 SWAP2 POP POP JUMP JUMPDEST PUSH0 JUMPDEST DUP4 DUP2 LT ISZERO PUSH2 0x3EA JUMPI DUP1 DUP3 ADD MLOAD DUP2 DUP5 ADD MSTORE PUSH1 0x20 DUP2 ADD SWAP1 POP PUSH2 0x3CF JUMP JUMPDEST PUSH0 DUP5 DUP5 ADD MSTORE POP POP POP POP JUMP JUMPDEST PUSH0 PUSH1 0x1F NOT PUSH1 0x1F DUP4 ADD AND SWAP1 POP SWAP2 SWAP1 POP JUMP JUMPDEST PUSH0 PUSH2 0x40F DUP3 PUSH2 0x3B3 JUMP JUMPDEST PUSH2 0x419 DUP2 DUP6 PUSH2 0x3BD JUMP JUMPDEST SWAP4 POP PUSH2 0x429 DUP2 DUP6 PUSH1 0x20 DUP7 ADD PUSH2 0x3CD JUMP JUMPDEST PUSH2 0x432 DUP2 PUSH2 0x3F5 JUMP JUMPDEST DUP5 ADD SWAP2 POP POP SWAP3 SWAP2 POP POP JUMP JUMPDEST PUSH0 PUSH1 0x60 DUP3 ADD SWAP1 POP PUSH2 0x450 PUSH0 DUP4 ADD DUP7 PUSH2 0x3A4 JUMP JUMPDEST DUP2 DUP2 SUB PUSH1 0x20 DUP4 ADD MSTORE PUSH2 0x462 DUP2 DUP6 PUSH2 0x405 JUMP JUMPDEST SWAP1 POP PUSH2 0x471 PUSH1 0x40 DUP4 ADD DUP5 PUSH2 0x3A4 JUMP JUMPDEST SWAP5 SWAP4 POP POP POP POP JUMP JUMPDEST PUSH0 DUP1 REVERT JUMPDEST PUSH0 DUP1 REVERT JUMPDEST PUSH32 0x4E487B7100000000000000000000000000000000000000000000000000000000 PUSH0 MSTORE PUSH1 0x41 PUSH1 0x4 MSTORE PUSH1 0x24 PUSH0 REVERT JUMPDEST PUSH2 0x4B7 DUP3 PUSH2 0x3F5 JUMP JUMPDEST DUP2 ADD DUP2 DUP2 LT PUSH8 0xFFFFFFFFFFFFFFFF DUP3 GT OR ISZERO PUSH2 0x4D6 JUMPI PUSH2 0x4D5 PUSH2 0x481 JUMP JUMPDEST JUMPDEST DUP1 PUSH1 0x40 MSTORE POP POP POP JUMP JUMPDEST PUSH0 PUSH2 0x4E8 PUSH2 0x335 JUMP JUMPDEST SWAP1 POP PUSH2 0x4F4 DUP3 DUP3 PUSH2 0x4AE JUMP JUMPDEST SWAP2 SWAP1 POP JUMP JUMPDEST PUSH0 PUSH8 0xFFFFFFFFFFFFFFFF DUP3 GT ISZERO PUSH2 0x513 JUMPI PUSH2 0x512 PUSH2 0x481 JUMP JUMPDEST JUMPDEST PUSH2 0x51C DUP3 PUSH2 0x3F5 JUMP JUMPDEST SWAP1 POP PUSH1 0x20 DUP2 ADD SWAP1 POP SWAP2 SWAP1 POP JUMP JUMPDEST DUP3 DUP2 DUP4 CALLDATACOPY PUSH0 DUP4 DUP4 ADD MSTORE POP POP POP JUMP JUMPDEST PUSH0 PUSH2 0x549 PUSH2 0x544 DUP5 PUSH2 0x4F9 JUMP JUMPDEST PUSH2 0x4DF JUMP JUMPDEST SWAP1 POP DUP3 DUP2 MSTORE PUSH1 0x20 DUP2 ADD DUP5 DUP5 DUP5 ADD GT ISZERO PUSH2 0x565 JUMPI PUSH2 0x564 PUSH2 0x47D JUMP JUMPDEST JUMPDEST PUSH2 0x570 DUP5 DUP3 DUP6 PUSH2 0x529 JUMP JUMPDEST POP SWAP4 SWAP3 POP POP POP JUMP JUMPDEST PUSH0 DUP3 PUSH1 0x1F DUP4 ADD SLT PUSH2 0x58C JUMPI PUSH2 0x58B PUSH2 0x479 JUMP JUMPDEST JUMPDEST DUP2 CALLDATALOAD PUSH2 0x59C DUP5 DUP3 PUSH1 0x20 DUP7 ADD PUSH2 0x537 JUMP JUMPDEST SWAP2 POP POP SWAP3 SWAP2 POP POP JUMP JUMPDEST PUSH0 DUP1 PUSH0 PUSH1 0x60 DUP5 DUP7 SUB SLT ISZERO PUSH2 0x5BC JUMPI PUSH2 0x5BB PUSH2 0x33E JUMP JUMPDEST JUMPDEST PUSH0 PUSH2 0x5C9 DUP7 DUP3 DUP8 ADD PUSH2 0x365 JUMP JUMPDEST SWAP4 POP POP PUSH1 0x20 DUP5 ADD CALLDATALOAD PUSH8 0xFFFFFFFFFFFFFFFF DUP2 GT ISZERO PUSH2 0x5EA JUMPI PUSH2 0x5E9 PUSH2 0x342 JUMP JUMPDEST JUMPDEST PUSH2 0x5F6 DUP7 DUP3 DUP8 ADD PUSH2 0x578 JUMP JUMPDEST SWAP3 POP POP PUSH1 0x40 PUSH2 0x607 DUP7 DUP3 DUP8 ADD PUSH2 0x365 JUMP JUMPDEST SWAP2 POP POP SWAP3 POP SWAP3 POP SWAP3 JUMP JUMPDEST PUSH32 0x4E487B7100000000000000000000000000000000000000000000000000000000 PUSH0 MSTORE PUSH1 0x22 PUSH1 0x4 MSTORE PUSH1 0x24 PUSH0 REVERT JUMPDEST PUSH0 PUSH1 0x2 DUP3 DIV SWAP1 POP PUSH1 0x1 DUP3 AND DUP1 PUSH2 0x655 JUMPI PUSH1 0x7F DUP3 AND SWAP2 POP JUMPDEST PUSH1 0x20 DUP3 LT DUP2 SUB PUSH2 0x668 JUMPI PUSH2 0x667 PUSH2 0x611 JUMP JUMPDEST JUMPDEST POP SWAP2 SWAP1 POP JUMP JUMPDEST PUSH32 0x53747564656E74206E6F7420666F756E64000000000000000000000000000000 PUSH0 DUP3 ADD MSTORE POP JUMP JUMPDEST PUSH0 PUSH2 0x6A2 PUSH1 0x11 DUP4 PUSH2 0x3BD JUMP JUMPDEST SWAP2 POP PUSH2 0x6AD DUP3 PUSH2 0x66E JUMP JUMPDEST PUSH1 0x20 DUP3 ADD SWAP1 POP SWAP2 SWAP1 POP JUMP JUMPDEST PUSH0 PUSH1 0x20 DUP3 ADD SWAP1 POP DUP2 DUP2 SUB PUSH0 DUP4 ADD MSTORE PUSH2 0x6CF DUP2 PUSH2 0x696 JUMP JUMPDEST SWAP1 POP SWAP2 SWAP1 POP JUMP JUMPDEST PUSH0 DUP2 SWAP1 POP DUP2 PUSH0 MSTORE PUSH1 0x20 PUSH0 KECCAK256 SWAP1 POP SWAP2 SWAP1 POP JUMP JUMPDEST PUSH0 PUSH1 0x20 PUSH1 0x1F DUP4 ADD DIV SWAP1 POP SWAP2 SWAP1 POP JUMP JUMPDEST PUSH0 DUP3 DUP3 SHL SWAP1 POP SWAP3 SWAP2 POP POP JUMP JUMPDEST PUSH0 PUSH1 0x8 DUP4 MUL PUSH2 0x732 PUSH32 0xFFFFFFFFFFFFFFFFFFFFFFFFFFFFFFFFFFFFFFFFFFFFFFFFFFFFFFFFFFFFFFFF DUP3 PUSH2 0x6F7 JUMP JUMPDEST PUSH2 0x73C DUP7 DUP4 PUSH2 0x6F7 JUMP JUMPDEST SWAP6 POP DUP1 NOT DUP5 AND SWAP4 POP DUP1 DUP7 AND DUP5 OR SWAP3 POP POP POP SWAP4 SWAP3 POP POP POP JUMP JUMPDEST PUSH0 DUP2 SWAP1 POP SWAP2 SWAP1 POP JUMP JUMPDEST PUSH0 PUSH2 0x777 PUSH2 0x772 PUSH2 0x76D DUP5 PUSH2 0x346 JUMP JUMPDEST PUSH2 0x754 JUMP JUMPDEST PUSH2 0x346 JUMP JUMPDEST SWAP1 POP SWAP2 SWAP1 POP JUMP JUMPDEST PUSH0 DUP2 SWAP1 POP SWAP2 SWAP1 POP JUMP JUMPDEST PUSH2 0x790 DUP4 PUSH2 0x75D JUMP JUMPDEST PUSH2 0x7A4 PUSH2 0x79C DUP3 PUSH2 0x77E JUMP JUMPDEST DUP5 DUP5 SLOAD PUSH2 0x703 JUMP JUMPDEST DUP3 SSTORE POP POP POP POP JUMP JUMPDEST PUSH0 SWAP1 JUMP JUMPDEST PUSH2 0x7B8 PUSH2 0x7AC JUMP JUMPDEST PUSH2 0x7C3 DUP2 DUP5 DUP5 PUSH2 0x787 JUMP JUMPDEST POP POP POP JUMP JUMPDEST JUMPDEST DUP2 DUP2 LT ISZERO PUSH2 0x7E6 JUMPI PUSH2 0x7DB PUSH0 DUP3 PUSH2 0x7B0 JUMP JUMPDEST PUSH1 0x1 DUP2 ADD SWAP1 POP PUSH2 0x7C9 JUMP JUMPDEST POP POP JUMP JUMPDEST PUSH1 0x1F DUP3 GT ISZERO PUSH2 0x82B JUMPI PUSH2 0x7FC DUP2 PUSH2 0x6D6 JUMP JUMPDEST PUSH2 0x805 DUP5 PUSH2 0x6E8 JUMP JUMPDEST DUP2 ADD PUSH1 0x20 DUP6 LT ISZERO PUSH2 0x814 JUMPI DUP2 SWAP1 POP JUMPDEST PUSH2 0x828 PUSH2 0x820 DUP6 PUSH2 0x6E8 JUMP JUMPDEST DUP4 ADD DUP3 PUSH2 0x7C8 JUMP JUMPDEST POP POP JUMPDEST POP POP POP JUMP JUMPDEST PUSH0 DUP3 DUP3 SHR SWAP1 POP SWAP3 SWAP2 POP POP JUMP JUMPDEST PUSH0 PUSH2 0x84B PUSH0 NOT DUP5 PUSH1 0x8 MUL PUSH2 0x830 JUMP JUMPDEST NOT DUP1 DUP4 AND SWAP2 POP POP SWAP3 SWAP2 POP POP JUMP JUMPDEST PUSH0 PUSH2 0x863 DUP4 DUP4 PUSH2 0x83C JUMP JUMPDEST SWAP2 POP DUP3 PUSH1 0x2 MUL DUP3 OR SWAP1 POP SWAP3 SWAP2 POP POP JUMP JUMPDEST PUSH2 0x87C DUP3 PUSH2 0x3B3 JUMP JUMPDEST PUSH8 0xFFFFFFFFFFFFFFFF DUP2 GT ISZERO PUSH2 0x895 JUMPI PUSH2 0x894 PUSH2 0x481 JUMP JUMPDEST JUMPDEST PUSH2 0x89F DUP3 SLOAD PUSH2 0x63E JUMP JUMPDEST PUSH2 0x8AA DUP3 DUP3 DUP6 PUSH2 0x7EA JUMP JUMPDEST PUSH0 PUSH1 0x20 SWAP1 POP PUSH1 0x1F DUP4 GT PUSH1 0x1 DUP2 EQ PUSH2 0x8DB JUMPI PUSH0 DUP5 ISZERO PUSH2 0x8C9 JUMPI DUP3 DUP8 ADD MLOAD SWAP1 POP JUMPDEST PUSH2 0x8D3 DUP6 DUP3 PUSH2 0x858 JUMP JUMPDEST DUP7 SSTORE POP PUSH2 0x93A JUMP JUMPDEST PUSH1 0x1F NOT DUP5 AND PUSH2 0x8E9 DUP7 PUSH2 0x6D6 JUMP JUMPDEST PUSH0 JUMPDEST DUP3 DUP2 LT ISZERO PUSH2 0x910 JUMPI DUP5 DUP10 ADD MLOAD DUP3 SSTORE PUSH1 0x1 DUP3 ADD SWAP2 POP PUSH1 0x20 DUP6 ADD SWAP5 POP PUSH1 0x20 DUP2 ADD SWAP1 POP PUSH2 0x8EB JUMP JUMPDEST DUP7 DUP4 LT ISZERO PUSH2 0x92D JUMPI DUP5 DUP10 ADD MLOAD PUSH2 0x929 PUSH1 0x1F DUP10 AND DUP3 PUSH2 0x83C JUMP JUMPDEST DUP4 SSTORE POP JUMPDEST PUSH1 0x1 PUSH1 0x2 DUP9 MUL ADD DUP9 SSTORE POP POP POP JUMPDEST POP POP POP POP POP POP JUMP INVALID LOG2 PUSH5 0x6970667358 0x22 SLT KECCAK256 0xF 0xD2 SWAP9 MULMOD SWAP3 PUSH26 0xA2D16D077678BD9228A748B68FFB0DC6F0BA52021CCA422E99D6 PUSH5 0x736F6C6343 STOP ADDMOD XOR STOP CALLER "
				},
				"gasEstimates": {
					"creation": {
						"codeDepositCost": "484800",
						"executionCost": "516",
						"totalCost": "485316"
					},
					"external": {
						"addOrUpdateStudent(uint256,string,uint256)": "infinite",
						"deleteStudent(uint256)": "infinite",
						"getStudent(uint256)": "infinite"
					}
				},
				"methodIdentifiers": {
					"addOrUpdateStudent(uint256,string,uint256)": "9e159226",
					"deleteStudent(uint256)": "b645307d",
					"getStudent(uint256)": "642f9163"
				}
			},
			"storageLayout": {
				"storage": [
					{
						"astId": 13,
						"contract": "contracts/10.18.struct(struct mapping).sol:StudentRecords",
						"label": "students",
						"offset": 0,
						"slot": "0",
						"type": "t_mapping(t_uint256,t_struct(Student)8_storage)"
					}
				],
				"types": {
					"t_mapping(t_uint256,t_struct(Student)8_storage)": {
						"encoding": "mapping",
						"key": "t_uint256",
						"label": "mapping(uint256 => struct StudentRecords.Student)",
						"numberOfBytes": "32",
						"value": "t_struct(Student)8_storage"
					},
					"t_string_storage": {
						"encoding": "bytes",
						"label": "string",
						"numberOfBytes": "32"
					},
					"t_struct(Student)8_storage": {
						"encoding": "inplace",
						"label": "struct StudentRecords.Student",
						"members": [
							{
								"astId": 3,
								"contract": "contracts/10.18.struct(struct mapping).sol:StudentRecords",
								"label": "id",
								"offset": 0,
								"slot": "0",
								"type": "t_uint256"
							},
							{
								"astId": 5,
								"contract": "contracts/10.18.struct(struct mapping).sol:StudentRecords",
								"label": "name",
								"offset": 0,
								"slot": "1",
								"type": "t_string_storage"
							},
							{
								"astId": 7,
								"contract": "contracts/10.18.struct(struct mapping).sol:StudentRecords",
								"label": "age",
								"offset": 0,
								"slot": "2",
								"type": "t_uint256"
							}
						],
						"numberOfBytes": "96"
					},
					"t_uint256": {
						"encoding": "inplace",
						"label": "uint256",
						"numberOfBytes": "32"
					}
				}
			},
			"userdoc": {
				"kind": "user",
				"methods": {},
				"version": 1
			}
		}
	}
}