{
	"contracts/evm/memoryevm.sol": {
		"MemoryExample": {
			"abi": [
				{
					"inputs": [],
					"name": "storeAndRetrieveMemory",
					"outputs": [
						{
							"internalType": "uint256",
							"name": "",
							"type": "uint256"
						}
					],
					"stateMutability": "pure",
					"type": "function"
				}
			],
			"devdoc": {
				"kind": "dev",
				"methods": {},
				"version": 1
			},
			"evm": {
				"assembly": "    /* \"contracts/evm/memoryevm.sol\":341:740  contract MemoryExample {... */\n  mstore(0x40, 0x80)\n  callvalue\n  dup1\n  iszero\n  tag_1\n  jumpi\n  revert(0x00, 0x00)\ntag_1:\n  pop\n  dataSize(sub_0)\n  dup1\n  dataOffset(sub_0)\n  0x00\n  codecopy\n  0x00\n  return\nstop\n\nsub_0: assembly {\n        /* \"contracts/evm/memoryevm.sol\":341:740  contract MemoryExample {... */\n      mstore(0x40, 0x80)\n      callvalue\n      dup1\n      iszero\n      tag_1\n      jumpi\n      revert(0x00, 0x00)\n    tag_1:\n      pop\n      jumpi(tag_2, lt(calldatasize, 0x04))\n      shr(0xe0, calldataload(0x00))\n      dup1\n      0x44a49725\n      eq\n      tag_3\n      jumpi\n    tag_2:\n      revert(0x00, 0x00)\n        /* \"contracts/evm/memoryevm.sol\":371:737  function storeAndRetrieveMemory() public pure returns (uint256) {... */\n    tag_3:\n      tag_4\n      tag_5\n      jump\t// in\n    tag_4:\n      mload(0x40)\n      tag_6\n      swap2\n      swap1\n      tag_7\n      jump\t// in\n    tag_6:\n      mload(0x40)\n      dup1\n      swap2\n      sub\n      swap1\n      return\n    tag_5:\n        /* \"contracts/evm/memoryevm.sol\":426:433  uint256 */\n      0x00\n        /* \"contracts/evm/memoryevm.sol\":446:466  uint256 valueToStore */\n      0x00\n        /* \"contracts/evm/memoryevm.sol\":469:470  1 */\n      0x01\n        /* \"contracts/evm/memoryevm.sol\":446:470  uint256 valueToStore = 1 */\n      swap1\n      pop\n        /* \"contracts/evm/memoryevm.sol\":481:503  uint256 retrievedValue */\n      0x00\n        /* \"contracts/evm/memoryevm.sol\":552:564  valueToStore */\n      dup2\n        /* \"contracts/evm/memoryevm.sol\":546:550  0x00 */\n      0x00\n        /* \"contracts/evm/memoryevm.sol\":538:565  mstore8(0x00, valueToStore) */\n      mstore8\n        /* \"contracts/evm/memoryevm.sol\":638:642  0x00 */\n      0x00\n        /* \"contracts/evm/memoryevm.sol\":632:643  mload(0x00) */\n      mload\n        /* \"contracts/evm/memoryevm.sol\":614:643  retrievedValue := mload(0x00) */\n      swap1\n      pop\n        /* \"contracts/evm/memoryevm.sol\":696:710  retrievedValue */\n      dup1\n        /* \"contracts/evm/memoryevm.sol\":689:710  return retrievedValue */\n      swap3\n      pop\n      pop\n      pop\n        /* \"contracts/evm/memoryevm.sol\":371:737  function storeAndRetrieveMemory() public pure returns (uint256) {... */\n      swap1\n      jump\t// out\n        /* \"#utility.yul\":7:84   */\n    tag_9:\n        /* \"#utility.yul\":44:51   */\n      0x00\n        /* \"#utility.yul\":73:78   */\n      dup2\n        /* \"#utility.yul\":62:78   */\n      swap1\n      pop\n        /* \"#utility.yul\":7:84   */\n      swap2\n      swap1\n      pop\n      jump\t// out\n        /* \"#utility.yul\":90:208   */\n    tag_10:\n        /* \"#utility.yul\":177:201   */\n      tag_14\n        /* \"#utility.yul\":195:200   */\n      dup2\n        /* \"#utility.yul\":177:201   */\n      tag_9\n      jump\t// in\n    tag_14:\n        /* \"#utility.yul\":172:175   */\n      dup3\n        /* \"#utility.yul\":165:202   */\n      mstore\n        /* \"#utility.yul\":90:208   */\n      pop\n      pop\n      jump\t// out\n        /* \"#utility.yul\":214:436   */\n    tag_7:\n        /* \"#utility.yul\":307:311   */\n      0x00\n        /* \"#utility.yul\":345:347   */\n      0x20\n        /* \"#utility.yul\":334:343   */\n      dup3\n        /* \"#utility.yul\":330:348   */\n      add\n        /* \"#utility.yul\":322:348   */\n      swap1\n      pop\n        /* \"#utility.yul\":358:429   */\n      tag_16\n        /* \"#utility.yul\":426:427   */\n      0x00\n        /* \"#utility.yul\":415:424   */\n      dup4\n        /* \"#utility.yul\":411:428   */\n      add\n        /* \"#utility.yul\":402:408   */\n      dup5\n        /* \"#utility.yul\":358:429   */\n      tag_10\n      jump\t// in\n    tag_16:\n        /* \"#utility.yul\":214:436   */\n      swap3\n      swap2\n      pop\n      pop\n      jump\t// out\n\n    auxdata: 0xa2646970667358221220e35c927e926a28a44d1eebab77e22be45ac47909d72b3b55cb139be45a6ab1f064736f6c634300081e0033\n}\n",
				"bytecode": {
					"linkReferences": {},
					"object": "6080604052348015600e575f5ffd5b5060bd80601a5f395ff3fe6080604052348015600e575f5ffd5b50600436106026575f3560e01c806344a4972514602a575b5f5ffd5b60306044565b604051603b91906070565b60405180910390f35b5f5f600190505f815f535f519050809250505090565b5f819050919050565b606a81605a565b82525050565b5f60208201905060815f8301846063565b9291505056fea2646970667358221220e35c927e926a28a44d1eebab77e22be45ac47909d72b3b55cb139be45a6ab1f064736f6c634300081e0033",
					"opcodes": "PUSH1 0x80 PUSH1 0x40 MSTORE CALLVALUE DUP1 ISZERO PUSH1 0xE JUMPI PUSH0 PUSH0 REVERT JUMPDEST POP PUSH1 0xBD DUP1 PUSH1 0x1A PUSH0 CODECOPY PUSH0 RETURN INVALID PUSH1 0x80 PUSH1 0x40 MSTORE CALLVALUE DUP1 ISZERO PUSH1 0xE JUMPI PUSH0 PUSH0 REVERT JUMPDEST POP PUSH1 0x4 CALLDATASIZE LT PUSH1 0x26 JUMPI PUSH0 CALLDATALOAD PUSH1 0xE0 SHR DUP1 PUSH4 0x44A49725 EQ PUSH1 0x2A JUMPI JUMPDEST PUSH0 PUSH0 REVERT JUMPDEST PUSH1 0x30 PUSH1 0x44 JUMP JUMPDEST PUSH1 0x40 MLOAD PUSH1 0x3B SWAP2 SWAP1 PUSH1 0x70 JUMP JUMPDEST PUSH1 0x40 MLOAD DUP1 SWAP2 SUB SWAP1 RETURN JUMPDEST PUSH0 PUSH0 PUSH1 0x1 SWAP1 POP PUSH0 DUP2 PUSH0 MSTORE8 PUSH0 MLOAD SWAP1 POP DUP1 SWAP3 POP POP POP SWAP1 JUMP JUMPDEST PUSH0 DUP2 SWAP1 POP SWAP2 SWAP1 POP JUMP JUMPDEST PUSH1 0x6A DUP2 PUSH1 0x5A JUMP JUMPDEST DUP3 MSTORE POP POP JUMP JUMPDEST PUSH0 PUSH1 0x20 DUP3 ADD SWAP1 POP PUSH1 0x81 PUSH0 DUP4 ADD DUP5 PUSH1 0x63 JUMP JUMPDEST SWAP3 SWAP2 POP POP JUMP INVALID LOG2 PUSH5 0x6970667358 0x22 SLT KECCAK256 CALLF 0x5C92 PUSH31 0x926A28A44D1EEBAB77E22BE45AC47909D72B3B55CB139BE45A6AB1F064736F PUSH13 0x634300081E0033000000000000 "
				},
				"gasEstimates": {
					"creation": {
						"codeDepositCost": "37800",
						"executionCost": "85",
						"totalCost": "37885"
					},
					"external": {
						"storeAndRetrieveMemory()": "infinite"
					}
				},
				"methodIdentifiers": {
					"storeAndRetrieveMemory()": "44a49725"
				}
			},
			"storageLayout": {
				"storage": [],
				"types": null
			},
			"userdoc": {
				"kind": "user",
				"methods": {},
				"version": 1
			}
		}
	}
}