{
	"contracts/otherconceptsofsolidity/userdefinedvaluetypes.sol": {
		"WithUDVT": {
			"abi": [
				{
					"inputs": [],
					"name": "age",
					"outputs": [
						{
							"internalType": "Age",
							"name": "",
							"type": "uint64"
						}
					],
					"stateMutability": "view",
					"type": "function"
				},
				{
					"inputs": [],
					"name": "getAge",
					"outputs": [
						{
							"internalType": "uint64",
							"name": "",
							"type": "uint64"
						}
					],
					"stateMutability": "view",
					"type": "function"
				},
				{
					"inputs": [],
					"name": "getWeight",
					"outputs": [
						{
							"internalType": "uint64",
							"name": "",
							"type": "uint64"
						}
					],
					"stateMutability": "view",
					"type": "function"
				},
				{
					"inputs": [
						{
							"internalType": "Age",
							"name": "_age",
							"type": "uint64"
						},
						{
							"internalType": "Weight",
							"name": "_weight",
							"type": "uint64"
						}
					],
					"name": "setDetails",
					"outputs": [],
					"stateMutability": "nonpayable",
					"type": "function"
				},
				{
					"inputs": [],
					"name": "weight",
					"outputs": [
						{
							"internalType": "Weight",
							"name": "",
							"type": "uint64"
						}
					],
					"stateMutability": "view",
					"type": "function"
				}
			],
			"devdoc": {
				"kind": "dev",
				"methods": {},
				"version": 1
			},
			"evm": {
				"assembly": "    /* \"contracts/otherconceptsofsolidity/userdefinedvaluetypes.sol\":482:1712  contract WithUDVT {... */\n  mstore(0x40, 0x80)\n  callvalue\n  dup1\n  iszero\n  tag_1\n  jumpi\n  revert(0x00, 0x00)\ntag_1:\n  pop\n  dataSize(sub_0)\n  dup1\n  dataOffset(sub_0)\n  0x00\n  codecopy\n  0x00\n  return\nstop\n\nsub_0: assembly {\n        /* \"contracts/otherconceptsofsolidity/userdefinedvaluetypes.sol\":482:1712  contract WithUDVT {... */\n      mstore(0x40, 0x80)\n      callvalue\n      dup1\n      iszero\n      tag_1\n      jumpi\n      revert(0x00, 0x00)\n    tag_1:\n      pop\n      jumpi(tag_2, lt(calldatasize, 0x04))\n      shr(0xe0, calldataload(0x00))\n      dup1\n      0x262a9dff\n      eq\n      tag_3\n      jumpi\n      dup1\n      0x967e6e65\n      eq\n      tag_4\n      jumpi\n      dup1\n      0xa1aab33f\n      eq\n      tag_5\n      jumpi\n      dup1\n      0xa61a6ea4\n      eq\n      tag_6\n      jumpi\n      dup1\n      0xa9b4b780\n      eq\n      tag_7\n      jumpi\n    tag_2:\n      revert(0x00, 0x00)\n        /* \"contracts/otherconceptsofsolidity/userdefinedvaluetypes.sol\":723:737  Age public age */\n    tag_3:\n      tag_8\n      tag_9\n      jump\t// in\n    tag_8:\n      mload(0x40)\n      tag_10\n      swap2\n      swap1\n      tag_11\n      jump\t// in\n    tag_10:\n      mload(0x40)\n      dup1\n      swap2\n      sub\n      swap1\n      return\n        /* \"contracts/otherconceptsofsolidity/userdefinedvaluetypes.sol\":1405:1491  function getAge() public view returns (uint64) {... */\n    tag_4:\n      tag_12\n      tag_13\n      jump\t// in\n    tag_12:\n      mload(0x40)\n      tag_14\n      swap2\n      swap1\n      tag_15\n      jump\t// in\n    tag_14:\n      mload(0x40)\n      dup1\n      swap2\n      sub\n      swap1\n      return\n        /* \"contracts/otherconceptsofsolidity/userdefinedvaluetypes.sol\":743:763  Weight public weight */\n    tag_5:\n      tag_16\n      tag_17\n      jump\t// in\n    tag_16:\n      mload(0x40)\n      tag_18\n      swap2\n      swap1\n      tag_19\n      jump\t// in\n    tag_18:\n      mload(0x40)\n      dup1\n      swap2\n      sub\n      swap1\n      return\n        /* \"contracts/otherconceptsofsolidity/userdefinedvaluetypes.sol\":1039:1145  function setDetails(Age _age, Weight _weight) public {... */\n    tag_6:\n      tag_20\n      0x04\n      dup1\n      calldatasize\n      sub\n      dup2\n      add\n      swap1\n      tag_21\n      swap2\n      swap1\n      tag_22\n      jump\t// in\n    tag_21:\n      tag_23\n      jump\t// in\n    tag_20:\n      stop\n        /* \"contracts/otherconceptsofsolidity/userdefinedvaluetypes.sol\":1615:1710  function getWeight() public view returns (uint64) {... */\n    tag_7:\n      tag_24\n      tag_25\n      jump\t// in\n    tag_24:\n      mload(0x40)\n      tag_26\n      swap2\n      swap1\n      tag_15\n      jump\t// in\n    tag_26:\n      mload(0x40)\n      dup1\n      swap2\n      sub\n      swap1\n      return\n        /* \"contracts/otherconceptsofsolidity/userdefinedvaluetypes.sol\":723:737  Age public age */\n    tag_9:\n      0x00\n      0x00\n      swap1\n      sload\n      swap1\n      0x0100\n      exp\n      swap1\n      div\n      0xffffffffffffffff\n      and\n      dup2\n      jump\t// out\n        /* \"contracts/otherconceptsofsolidity/userdefinedvaluetypes.sol\":1405:1491  function getAge() public view returns (uint64) {... */\n    tag_13:\n        /* \"contracts/otherconceptsofsolidity/userdefinedvaluetypes.sol\":1444:1450  uint64 */\n      0x00\n        /* \"contracts/otherconceptsofsolidity/userdefinedvaluetypes.sol\":1480:1483  age */\n      0x00\n      0x00\n      swap1\n      sload\n      swap1\n      0x0100\n      exp\n      swap1\n      div\n      0xffffffffffffffff\n      and\n        /* \"contracts/otherconceptsofsolidity/userdefinedvaluetypes.sol\":1462:1484  return Age.unwrap(age) */\n      swap1\n      pop\n        /* \"contracts/otherconceptsofsolidity/userdefinedvaluetypes.sol\":1405:1491  function getAge() public view returns (uint64) {... */\n      swap1\n      jump\t// out\n        /* \"contracts/otherconceptsofsolidity/userdefinedvaluetypes.sol\":743:763  Weight public weight */\n    tag_17:\n      0x00\n      0x08\n      swap1\n      sload\n      swap1\n      0x0100\n      exp\n      swap1\n      div\n      0xffffffffffffffff\n      and\n      dup2\n      jump\t// out\n        /* \"contracts/otherconceptsofsolidity/userdefinedvaluetypes.sol\":1039:1145  function setDetails(Age _age, Weight _weight) public {... */\n    tag_23:\n        /* \"contracts/otherconceptsofsolidity/userdefinedvaluetypes.sol\":1108:1112  _age */\n      dup2\n        /* \"contracts/otherconceptsofsolidity/userdefinedvaluetypes.sol\":1102:1105  age */\n      0x00\n      0x00\n        /* \"contracts/otherconceptsofsolidity/userdefinedvaluetypes.sol\":1102:1112  age = _age */\n      0x0100\n      exp\n      dup2\n      sload\n      dup2\n      0xffffffffffffffff\n      mul\n      not\n      and\n      swap1\n      dup4\n      0xffffffffffffffff\n      and\n      mul\n      or\n      swap1\n      sstore\n      pop\n        /* \"contracts/otherconceptsofsolidity/userdefinedvaluetypes.sol\":1131:1138  _weight */\n      dup1\n        /* \"contracts/otherconceptsofsolidity/userdefinedvaluetypes.sol\":1122:1128  weight */\n      0x00\n      0x08\n        /* \"contracts/otherconceptsofsolidity/userdefinedvaluetypes.sol\":1122:1138  weight = _weight */\n      0x0100\n      exp\n      dup2\n      sload\n      dup2\n      0xffffffffffffffff\n      mul\n      not\n      and\n      swap1\n      dup4\n      0xffffffffffffffff\n      and\n      mul\n      or\n      swap1\n      sstore\n      pop\n        /* \"contracts/otherconceptsofsolidity/userdefinedvaluetypes.sol\":1039:1145  function setDetails(Age _age, Weight _weight) public {... */\n      pop\n      pop\n      jump\t// out\n        /* \"contracts/otherconceptsofsolidity/userdefinedvaluetypes.sol\":1615:1710  function getWeight() public view returns (uint64) {... */\n    tag_25:\n        /* \"contracts/otherconceptsofsolidity/userdefinedvaluetypes.sol\":1657:1663  uint64 */\n      0x00\n        /* \"contracts/otherconceptsofsolidity/userdefinedvaluetypes.sol\":1696:1702  weight */\n      0x00\n      0x08\n      swap1\n      sload\n      swap1\n      0x0100\n      exp\n      swap1\n      div\n      0xffffffffffffffff\n      and\n        /* \"contracts/otherconceptsofsolidity/userdefinedvaluetypes.sol\":1675:1703  return Weight.unwrap(weight) */\n      swap1\n      pop\n        /* \"contracts/otherconceptsofsolidity/userdefinedvaluetypes.sol\":1615:1710  function getWeight() public view returns (uint64) {... */\n      swap1\n      jump\t// out\n        /* \"#utility.yul\":7:108   */\n    tag_30:\n        /* \"#utility.yul\":43:50   */\n      0x00\n        /* \"#utility.yul\":83:101   */\n      0xffffffffffffffff\n        /* \"#utility.yul\":76:81   */\n      dup3\n        /* \"#utility.yul\":72:102   */\n      and\n        /* \"#utility.yul\":61:102   */\n      swap1\n      pop\n        /* \"#utility.yul\":7:108   */\n      swap2\n      swap1\n      pop\n      jump\t// out\n        /* \"#utility.yul\":114:174   */\n    tag_31:\n        /* \"#utility.yul\":142:145   */\n      0x00\n        /* \"#utility.yul\":163:168   */\n      dup2\n        /* \"#utility.yul\":156:168   */\n      swap1\n      pop\n        /* \"#utility.yul\":114:174   */\n      swap2\n      swap1\n      pop\n      jump\t// out\n        /* \"#utility.yul\":180:318   */\n    tag_32:\n        /* \"#utility.yul\":228:237   */\n      0x00\n        /* \"#utility.yul\":261:312   */\n      tag_47\n        /* \"#utility.yul\":278:311   */\n      tag_48\n        /* \"#utility.yul\":287:310   */\n      tag_49\n        /* \"#utility.yul\":304:309   */\n      dup5\n        /* \"#utility.yul\":287:310   */\n      tag_30\n      jump\t// in\n    tag_49:\n        /* \"#utility.yul\":278:311   */\n      tag_31\n      jump\t// in\n    tag_48:\n        /* \"#utility.yul\":261:312   */\n      tag_30\n      jump\t// in\n    tag_47:\n        /* \"#utility.yul\":248:312   */\n      swap1\n      pop\n        /* \"#utility.yul\":180:318   */\n      swap2\n      swap1\n      pop\n      jump\t// out\n        /* \"#utility.yul\":324:473   */\n    tag_33:\n        /* \"#utility.yul\":431:466   */\n      tag_51\n        /* \"#utility.yul\":460:465   */\n      dup2\n        /* \"#utility.yul\":431:466   */\n      tag_32\n      jump\t// in\n    tag_51:\n        /* \"#utility.yul\":426:429   */\n      dup3\n        /* \"#utility.yul\":419:467   */\n      mstore\n        /* \"#utility.yul\":324:473   */\n      pop\n      pop\n      jump\t// out\n        /* \"#utility.yul\":479:741   */\n    tag_11:\n        /* \"#utility.yul\":592:596   */\n      0x00\n        /* \"#utility.yul\":630:632   */\n      0x20\n        /* \"#utility.yul\":619:628   */\n      dup3\n        /* \"#utility.yul\":615:633   */\n      add\n        /* \"#utility.yul\":607:633   */\n      swap1\n      pop\n        /* \"#utility.yul\":643:734   */\n      tag_53\n        /* \"#utility.yul\":731:732   */\n      0x00\n        /* \"#utility.yul\":720:729   */\n      dup4\n        /* \"#utility.yul\":716:733   */\n      add\n        /* \"#utility.yul\":707:713   */\n      dup5\n        /* \"#utility.yul\":643:734   */\n      tag_33\n      jump\t// in\n    tag_53:\n        /* \"#utility.yul\":479:741   */\n      swap3\n      swap2\n      pop\n      pop\n      jump\t// out\n        /* \"#utility.yul\":747:862   */\n    tag_34:\n        /* \"#utility.yul\":832:855   */\n      tag_55\n        /* \"#utility.yul\":849:854   */\n      dup2\n        /* \"#utility.yul\":832:855   */\n      tag_30\n      jump\t// in\n    tag_55:\n        /* \"#utility.yul\":827:830   */\n      dup3\n        /* \"#utility.yul\":820:856   */\n      mstore\n        /* \"#utility.yul\":747:862   */\n      pop\n      pop\n      jump\t// out\n        /* \"#utility.yul\":868:1086   */\n    tag_15:\n        /* \"#utility.yul\":959:963   */\n      0x00\n        /* \"#utility.yul\":997:999   */\n      0x20\n        /* \"#utility.yul\":986:995   */\n      dup3\n        /* \"#utility.yul\":982:1000   */\n      add\n        /* \"#utility.yul\":974:1000   */\n      swap1\n      pop\n        /* \"#utility.yul\":1010:1079   */\n      tag_57\n        /* \"#utility.yul\":1076:1077   */\n      0x00\n        /* \"#utility.yul\":1065:1074   */\n      dup4\n        /* \"#utility.yul\":1061:1078   */\n      add\n        /* \"#utility.yul\":1052:1058   */\n      dup5\n        /* \"#utility.yul\":1010:1079   */\n      tag_34\n      jump\t// in\n    tag_57:\n        /* \"#utility.yul\":868:1086   */\n      swap3\n      swap2\n      pop\n      pop\n      jump\t// out\n        /* \"#utility.yul\":1092:1244   */\n    tag_35:\n        /* \"#utility.yul\":1202:1237   */\n      tag_59\n        /* \"#utility.yul\":1231:1236   */\n      dup2\n        /* \"#utility.yul\":1202:1237   */\n      tag_32\n      jump\t// in\n    tag_59:\n        /* \"#utility.yul\":1197:1200   */\n      dup3\n        /* \"#utility.yul\":1190:1238   */\n      mstore\n        /* \"#utility.yul\":1092:1244   */\n      pop\n      pop\n      jump\t// out\n        /* \"#utility.yul\":1250:1518   */\n    tag_19:\n        /* \"#utility.yul\":1366:1370   */\n      0x00\n        /* \"#utility.yul\":1404:1406   */\n      0x20\n        /* \"#utility.yul\":1393:1402   */\n      dup3\n        /* \"#utility.yul\":1389:1407   */\n      add\n        /* \"#utility.yul\":1381:1407   */\n      swap1\n      pop\n        /* \"#utility.yul\":1417:1511   */\n      tag_61\n        /* \"#utility.yul\":1508:1509   */\n      0x00\n        /* \"#utility.yul\":1497:1506   */\n      dup4\n        /* \"#utility.yul\":1493:1510   */\n      add\n        /* \"#utility.yul\":1484:1490   */\n      dup5\n        /* \"#utility.yul\":1417:1511   */\n      tag_35\n      jump\t// in\n    tag_61:\n        /* \"#utility.yul\":1250:1518   */\n      swap3\n      swap2\n      pop\n      pop\n      jump\t// out\n        /* \"#utility.yul\":1605:1722   */\n    tag_37:\n        /* \"#utility.yul\":1714:1715   */\n      0x00\n        /* \"#utility.yul\":1711:1712   */\n      0x00\n        /* \"#utility.yul\":1704:1716   */\n      revert\n        /* \"#utility.yul\":1851:1993   */\n    tag_39:\n        /* \"#utility.yul\":1945:1968   */\n      tag_66\n        /* \"#utility.yul\":1962:1967   */\n      dup2\n        /* \"#utility.yul\":1945:1968   */\n      tag_30\n      jump\t// in\n    tag_66:\n        /* \"#utility.yul\":1938:1943   */\n      dup2\n        /* \"#utility.yul\":1935:1969   */\n      eq\n        /* \"#utility.yul\":1925:1987   */\n      tag_67\n      jumpi\n        /* \"#utility.yul\":1983:1984   */\n      0x00\n        /* \"#utility.yul\":1980:1981   */\n      0x00\n        /* \"#utility.yul\":1973:1985   */\n      revert\n        /* \"#utility.yul\":1925:1987   */\n    tag_67:\n        /* \"#utility.yul\":1851:1993   */\n      pop\n      jump\t// out\n        /* \"#utility.yul\":1999:2180   */\n    tag_40:\n        /* \"#utility.yul\":2066:2071   */\n      0x00\n        /* \"#utility.yul\":2104:2110   */\n      dup2\n        /* \"#utility.yul\":2091:2111   */\n      calldataload\n        /* \"#utility.yul\":2082:2111   */\n      swap1\n      pop\n        /* \"#utility.yul\":2120:2174   */\n      tag_69\n        /* \"#utility.yul\":2168:2173   */\n      dup2\n        /* \"#utility.yul\":2120:2174   */\n      tag_39\n      jump\t// in\n    tag_69:\n        /* \"#utility.yul\":1999:2180   */\n      swap3\n      swap2\n      pop\n      pop\n      jump\t// out\n        /* \"#utility.yul\":2186:2331   */\n    tag_41:\n        /* \"#utility.yul\":2283:2306   */\n      tag_71\n        /* \"#utility.yul\":2300:2305   */\n      dup2\n        /* \"#utility.yul\":2283:2306   */\n      tag_30\n      jump\t// in\n    tag_71:\n        /* \"#utility.yul\":2276:2281   */\n      dup2\n        /* \"#utility.yul\":2273:2307   */\n      eq\n        /* \"#utility.yul\":2263:2325   */\n      tag_72\n      jumpi\n        /* \"#utility.yul\":2321:2322   */\n      0x00\n        /* \"#utility.yul\":2318:2319   */\n      0x00\n        /* \"#utility.yul\":2311:2323   */\n      revert\n        /* \"#utility.yul\":2263:2325   */\n    tag_72:\n        /* \"#utility.yul\":2186:2331   */\n      pop\n      jump\t// out\n        /* \"#utility.yul\":2337:2524   */\n    tag_42:\n        /* \"#utility.yul\":2407:2412   */\n      0x00\n        /* \"#utility.yul\":2445:2451   */\n      dup2\n        /* \"#utility.yul\":2432:2452   */\n      calldataload\n        /* \"#utility.yul\":2423:2452   */\n      swap1\n      pop\n        /* \"#utility.yul\":2461:2518   */\n      tag_74\n        /* \"#utility.yul\":2512:2517   */\n      dup2\n        /* \"#utility.yul\":2461:2518   */\n      tag_41\n      jump\t// in\n    tag_74:\n        /* \"#utility.yul\":2337:2524   */\n      swap3\n      swap2\n      pop\n      pop\n      jump\t// out\n        /* \"#utility.yul\":2530:3094   */\n    tag_22:\n        /* \"#utility.yul\":2643:2649   */\n      0x00\n        /* \"#utility.yul\":2651:2657   */\n      0x00\n        /* \"#utility.yul\":2700:2702   */\n      0x40\n        /* \"#utility.yul\":2688:2697   */\n      dup4\n        /* \"#utility.yul\":2679:2686   */\n      dup6\n        /* \"#utility.yul\":2675:2698   */\n      sub\n        /* \"#utility.yul\":2671:2703   */\n      slt\n        /* \"#utility.yul\":2668:2787   */\n      iszero\n      tag_76\n      jumpi\n        /* \"#utility.yul\":2706:2785   */\n      tag_77\n      tag_37\n      jump\t// in\n    tag_77:\n        /* \"#utility.yul\":2668:2787   */\n    tag_76:\n        /* \"#utility.yul\":2826:2827   */\n      0x00\n        /* \"#utility.yul\":2851:2925   */\n      tag_78\n        /* \"#utility.yul\":2917:2924   */\n      dup6\n        /* \"#utility.yul\":2908:2914   */\n      dup3\n        /* \"#utility.yul\":2897:2906   */\n      dup7\n        /* \"#utility.yul\":2893:2915   */\n      add\n        /* \"#utility.yul\":2851:2925   */\n      tag_40\n      jump\t// in\n    tag_78:\n        /* \"#utility.yul\":2841:2925   */\n      swap3\n      pop\n        /* \"#utility.yul\":2797:2935   */\n      pop\n        /* \"#utility.yul\":2974:2976   */\n      0x20\n        /* \"#utility.yul\":3000:3077   */\n      tag_79\n        /* \"#utility.yul\":3069:3076   */\n      dup6\n        /* \"#utility.yul\":3060:3066   */\n      dup3\n        /* \"#utility.yul\":3049:3058   */\n      dup7\n        /* \"#utility.yul\":3045:3067   */\n      add\n        /* \"#utility.yul\":3000:3077   */\n      tag_42\n      jump\t// in\n    tag_79:\n        /* \"#utility.yul\":2990:3077   */\n      swap2\n      pop\n        /* \"#utility.yul\":2945:3087   */\n      pop\n        /* \"#utility.yul\":2530:3094   */\n      swap3\n      pop\n      swap3\n      swap1\n      pop\n      jump\t// out\n\n    auxdata: 0xa2646970667358221220e79b14aa9858b054be66299c8c4f1661ee86b5374bf17a05c0861da8c8cc3eb864736f6c634300081f0033\n}\n",
				"bytecode": {
					"linkReferences": {},
					"object": "6080604052348015600e575f5ffd5b506103298061001c5f395ff3fe608060405234801561000f575f5ffd5b5060043610610055575f3560e01c8063262a9dff14610059578063967e6e6514610077578063a1aab33f14610095578063a61a6ea4146100b3578063a9b4b780146100cf575b5f5ffd5b6100616100ed565b60405161006e91906101f4565b60405180910390f35b61007f610105565b60405161008c919061021c565b60405180910390f35b61009d610120565b6040516100aa9190610244565b60405180910390f35b6100cd60048036038101906100c891906102b5565b610139565b005b6100d761018c565b6040516100e4919061021c565b60405180910390f35b5f5f9054906101000a900467ffffffffffffffff1681565b5f5f5f9054906101000a900467ffffffffffffffff16905090565b5f60089054906101000a900467ffffffffffffffff1681565b815f5f6101000a81548167ffffffffffffffff021916908367ffffffffffffffff160217905550805f60086101000a81548167ffffffffffffffff021916908367ffffffffffffffff1602179055505050565b5f5f60089054906101000a900467ffffffffffffffff16905090565b5f67ffffffffffffffff82169050919050565b5f819050919050565b5f6101de6101d96101d4846101a8565b6101bb565b6101a8565b9050919050565b6101ee816101c4565b82525050565b5f6020820190506102075f8301846101e5565b92915050565b610216816101a8565b82525050565b5f60208201905061022f5f83018461020d565b92915050565b61023e816101c4565b82525050565b5f6020820190506102575f830184610235565b92915050565b5f5ffd5b61026a816101a8565b8114610274575f5ffd5b50565b5f8135905061028581610261565b92915050565b610294816101a8565b811461029e575f5ffd5b50565b5f813590506102af8161028b565b92915050565b5f5f604083850312156102cb576102ca61025d565b5b5f6102d885828601610277565b92505060206102e9858286016102a1565b915050925092905056fea2646970667358221220e79b14aa9858b054be66299c8c4f1661ee86b5374bf17a05c0861da8c8cc3eb864736f6c634300081f0033",
					"opcodes": "PUSH1 0x80 PUSH1 0x40 MSTORE CALLVALUE DUP1 ISZERO PUSH1 0xE JUMPI PUSH0 PUSH0 REVERT JUMPDEST POP PUSH2 0x329 DUP1 PUSH2 0x1C PUSH0 CODECOPY PUSH0 RETURN INVALID PUSH1 0x80 PUSH1 0x40 MSTORE CALLVALUE DUP1 ISZERO PUSH2 0xF JUMPI PUSH0 PUSH0 REVERT JUMPDEST POP PUSH1 0x4 CALLDATASIZE LT PUSH2 0x55 JUMPI PUSH0 CALLDATALOAD PUSH1 0xE0 SHR DUP1 PUSH4 0x262A9DFF EQ PUSH2 0x59 JUMPI DUP1 PUSH4 0x967E6E65 EQ PUSH2 0x77 JUMPI DUP1 PUSH4 0xA1AAB33F EQ PUSH2 0x95 JUMPI DUP1 PUSH4 0xA61A6EA4 EQ PUSH2 0xB3 JUMPI DUP1 PUSH4 0xA9B4B780 EQ PUSH2 0xCF JUMPI JUMPDEST PUSH0 PUSH0 REVERT JUMPDEST PUSH2 0x61 PUSH2 0xED JUMP JUMPDEST PUSH1 0x40 MLOAD PUSH2 0x6E SWAP2 SWAP1 PUSH2 0x1F4 JUMP JUMPDEST PUSH1 0x40 MLOAD DUP1 SWAP2 SUB SWAP1 RETURN JUMPDEST PUSH2 0x7F PUSH2 0x105 JUMP JUMPDEST PUSH1 0x40 MLOAD PUSH2 0x8C SWAP2 SWAP1 PUSH2 0x21C JUMP JUMPDEST PUSH1 0x40 MLOAD DUP1 SWAP2 SUB SWAP1 RETURN JUMPDEST PUSH2 0x9D PUSH2 0x120 JUMP JUMPDEST PUSH1 0x40 MLOAD PUSH2 0xAA SWAP2 SWAP1 PUSH2 0x244 JUMP JUMPDEST PUSH1 0x40 MLOAD DUP1 SWAP2 SUB SWAP1 RETURN JUMPDEST PUSH2 0xCD PUSH1 0x4 DUP1 CALLDATASIZE SUB DUP2 ADD SWAP1 PUSH2 0xC8 SWAP2 SWAP1 PUSH2 0x2B5 JUMP JUMPDEST PUSH2 0x139 JUMP JUMPDEST STOP JUMPDEST PUSH2 0xD7 PUSH2 0x18C JUMP JUMPDEST PUSH1 0x40 MLOAD PUSH2 0xE4 SWAP2 SWAP1 PUSH2 0x21C JUMP JUMPDEST PUSH1 0x40 MLOAD DUP1 SWAP2 SUB SWAP1 RETURN JUMPDEST PUSH0 PUSH0 SWAP1 SLOAD SWAP1 PUSH2 0x100 EXP SWAP1 DIV PUSH8 0xFFFFFFFFFFFFFFFF AND DUP2 JUMP JUMPDEST PUSH0 PUSH0 PUSH0 SWAP1 SLOAD SWAP1 PUSH2 0x100 EXP SWAP1 DIV PUSH8 0xFFFFFFFFFFFFFFFF AND SWAP1 POP SWAP1 JUMP JUMPDEST PUSH0 PUSH1 0x8 SWAP1 SLOAD SWAP1 PUSH2 0x100 EXP SWAP1 DIV PUSH8 0xFFFFFFFFFFFFFFFF AND DUP2 JUMP JUMPDEST DUP2 PUSH0 PUSH0 PUSH2 0x100 EXP DUP2 SLOAD DUP2 PUSH8 0xFFFFFFFFFFFFFFFF MUL NOT AND SWAP1 DUP4 PUSH8 0xFFFFFFFFFFFFFFFF AND MUL OR SWAP1 SSTORE POP DUP1 PUSH0 PUSH1 0x8 PUSH2 0x100 EXP DUP2 SLOAD DUP2 PUSH8 0xFFFFFFFFFFFFFFFF MUL NOT AND SWAP1 DUP4 PUSH8 0xFFFFFFFFFFFFFFFF AND MUL OR SWAP1 SSTORE POP POP POP JUMP JUMPDEST PUSH0 PUSH0 PUSH1 0x8 SWAP1 SLOAD SWAP1 PUSH2 0x100 EXP SWAP1 DIV PUSH8 0xFFFFFFFFFFFFFFFF AND SWAP1 POP SWAP1 JUMP JUMPDEST PUSH0 PUSH8 0xFFFFFFFFFFFFFFFF DUP3 AND SWAP1 POP SWAP2 SWAP1 POP JUMP JUMPDEST PUSH0 DUP2 SWAP1 POP SWAP2 SWAP1 POP JUMP JUMPDEST PUSH0 PUSH2 0x1DE PUSH2 0x1D9 PUSH2 0x1D4 DUP5 PUSH2 0x1A8 JUMP JUMPDEST PUSH2 0x1BB JUMP JUMPDEST PUSH2 0x1A8 JUMP JUMPDEST SWAP1 POP SWAP2 SWAP1 POP JUMP JUMPDEST PUSH2 0x1EE DUP2 PUSH2 0x1C4 JUMP JUMPDEST DUP3 MSTORE POP POP JUMP JUMPDEST PUSH0 PUSH1 0x20 DUP3 ADD SWAP1 POP PUSH2 0x207 PUSH0 DUP4 ADD DUP5 PUSH2 0x1E5 JUMP JUMPDEST SWAP3 SWAP2 POP POP JUMP JUMPDEST PUSH2 0x216 DUP2 PUSH2 0x1A8 JUMP JUMPDEST DUP3 MSTORE POP POP JUMP JUMPDEST PUSH0 PUSH1 0x20 DUP3 ADD SWAP1 POP PUSH2 0x22F PUSH0 DUP4 ADD DUP5 PUSH2 0x20D JUMP JUMPDEST SWAP3 SWAP2 POP POP JUMP JUMPDEST PUSH2 0x23E DUP2 PUSH2 0x1C4 JUMP JUMPDEST DUP3 MSTORE POP POP JUMP JUMPDEST PUSH0 PUSH1 0x20 DUP3 ADD SWAP1 POP PUSH2 0x257 PUSH0 DUP4 ADD DUP5 PUSH2 0x235 JUMP JUMPDEST SWAP3 SWAP2 POP POP JUMP JUMPDEST PUSH0 PUSH0 REVERT JUMPDEST PUSH2 0x26A DUP2 PUSH2 0x1A8 JUMP JUMPDEST DUP2 EQ PUSH2 0x274 JUMPI PUSH0 PUSH0 REVERT JUMPDEST POP JUMP JUMPDEST PUSH0 DUP2 CALLDATALOAD SWAP1 POP PUSH2 0x285 DUP2 PUSH2 0x261 JUMP JUMPDEST SWAP3 SWAP2 POP POP JUMP JUMPDEST PUSH2 0x294 DUP2 PUSH2 0x1A8 JUMP JUMPDEST DUP2 EQ PUSH2 0x29E JUMPI PUSH0 PUSH0 REVERT JUMPDEST POP JUMP JUMPDEST PUSH0 DUP2 CALLDATALOAD SWAP1 POP PUSH2 0x2AF DUP2 PUSH2 0x28B JUMP JUMPDEST SWAP3 SWAP2 POP POP JUMP JUMPDEST PUSH0 PUSH0 PUSH1 0x40 DUP4 DUP6 SUB SLT ISZERO PUSH2 0x2CB JUMPI PUSH2 0x2CA PUSH2 0x25D JUMP JUMPDEST JUMPDEST PUSH0 PUSH2 0x2D8 DUP6 DUP3 DUP7 ADD PUSH2 0x277 JUMP JUMPDEST SWAP3 POP POP PUSH1 0x20 PUSH2 0x2E9 DUP6 DUP3 DUP7 ADD PUSH2 0x2A1 JUMP JUMPDEST SWAP2 POP POP SWAP3 POP SWAP3 SWAP1 POP JUMP INVALID LOG2 PUSH5 0x6970667358 0x22 SLT KECCAK256 SWAPN 0x9B EQ 0xAA SWAP9 PC 0xB0 SLOAD 0xBE PUSH7 0x299C8C4F1661EE DUP7 0xB5 CALLDATACOPY 0x4B CALL PUSH27 0x5C0861DA8C8CC3EB864736F6C634300081F003300000000000000 "
				},
				"gasEstimates": {
					"creation": {
						"codeDepositCost": "161800",
						"executionCost": "206",
						"totalCost": "162006"
					},
					"external": {
						"age()": "infinite",
						"getAge()": "2472",
						"getWeight()": "2589",
						"setDetails(uint64,uint64)": "infinite",
						"weight()": "infinite"
					}
				},
				"methodIdentifiers": {
					"age()": "262a9dff",
					"getAge()": "967e6e65",
					"getWeight()": "a9b4b780",
					"setDetails(uint64,uint64)": "a61a6ea4",
					"weight()": "a1aab33f"
				}
			},
			"storageLayout": {
				"storage": [
					{
						"astId": 8,
						"contract": "contracts/otherconceptsofsolidity/userdefinedvaluetypes.sol:WithUDVT",
						"label": "age",
						"offset": 0,
						"slot": "0",
						"type": "t_userDefinedValueType(Age)3"
					},
					{
						"astId": 11,
						"contract": "contracts/otherconceptsofsolidity/userdefinedvaluetypes.sol:WithUDVT",
						"label": "weight",
						"offset": 8,
						"slot": "0",
						"type": "t_userDefinedValueType(Weight)5"
					}
				],
				"types": {
					"t_userDefinedValueType(Age)3": {
						"encoding": "inplace",
						"label": "Age",
						"numberOfBytes": "8"
					},
					"t_userDefinedValueType(Weight)5": {
						"encoding": "inplace",
						"label": "Weight",
						"numberOfBytes": "8"
					}
				}
			},
			"userdoc": {
				"kind": "user",
				"methods": {},
				"version": 1
			}
		}
	}
}