{
	"contracts/10.12.visibility.sol": {
		"child": {
			"abi": [
				{
					"inputs": [],
					"name": "f1",
					"outputs": [
						{
							"internalType": "uint256",
							"name": "",
							"type": "uint256"
						}
					],
					"stateMutability": "pure",
					"type": "function"
				},
				{
					"inputs": [],
					"name": "f4",
					"outputs": [
						{
							"internalType": "uint256",
							"name": "",
							"type": "uint256"
						}
					],
					"stateMutability": "pure",
					"type": "function"
				},
				{
					"inputs": [],
					"name": "x",
					"outputs": [
						{
							"internalType": "uint256",
							"name": "",
							"type": "uint256"
						}
					],
					"stateMutability": "view",
					"type": "function"
				}
			],
			"devdoc": {
				"kind": "dev",
				"methods": {},
				"version": 1
			},
			"evm": {
				"assembly": "    /* \"contracts/10.12.visibility.sol\":560:615  contract child is demo {... */\n  mstore(0x40, 0x80)\n    /* \"contracts/10.12.visibility.sol\":608:612  f1() */\n  tag_1\n    /* \"contracts/10.12.visibility.sol\":608:610  f1 */\n  shl(0x20, tag_2)\n    /* \"contracts/10.12.visibility.sol\":608:612  f1() */\n  0x20\n  shr\n  jump\t// in\ntag_1:\n    /* \"contracts/10.12.visibility.sol\":589:612  uint256 public x = f1() */\n  0x00\n  sstore\n    /* \"contracts/10.12.visibility.sol\":560:615  contract child is demo {... */\n  callvalue\n  dup1\n  iszero\n  tag_3\n  jumpi\n  revert(0x00, 0x00)\ntag_3:\n  pop\n  jump(tag_4)\n    /* \"contracts/10.12.visibility.sol\":103:189  function f1() public pure returns (uint256) {... */\ntag_2:\n    /* \"contracts/10.12.visibility.sol\":138:145  uint256 */\n  0x00\n    /* \"contracts/10.12.visibility.sol\":181:182  1 */\n  0x01\n    /* \"contracts/10.12.visibility.sol\":174:182  return 1 */\n  swap1\n  pop\n    /* \"contracts/10.12.visibility.sol\":103:189  function f1() public pure returns (uint256) {... */\n  swap1\n  jump\t// out\n    /* \"contracts/10.12.visibility.sol\":560:615  contract child is demo {... */\ntag_4:\n  dataSize(sub_0)\n  dup1\n  dataOffset(sub_0)\n  0x00\n  codecopy\n  0x00\n  return\nstop\n\nsub_0: assembly {\n        /* \"contracts/10.12.visibility.sol\":560:615  contract child is demo {... */\n      mstore(0x40, 0x80)\n      callvalue\n      dup1\n      iszero\n      tag_1\n      jumpi\n      revert(0x00, 0x00)\n    tag_1:\n      pop\n      jumpi(tag_2, lt(calldatasize, 0x04))\n      shr(0xe0, calldataload(0x00))\n      dup1\n      0x0c55699c\n      eq\n      tag_3\n      jumpi\n      dup1\n      0xc27fc305\n      eq\n      tag_4\n      jumpi\n      dup1\n      0xc3f90202\n      eq\n      tag_5\n      jumpi\n    tag_2:\n      revert(0x00, 0x00)\n        /* \"contracts/10.12.visibility.sol\":589:612  uint256 public x = f1() */\n    tag_3:\n      tag_6\n      tag_7\n      jump\t// in\n    tag_6:\n      mload(0x40)\n      tag_8\n      swap2\n      swap1\n      tag_9\n      jump\t// in\n    tag_8:\n      mload(0x40)\n      dup1\n      swap2\n      sub\n      swap1\n      return\n        /* \"contracts/10.12.visibility.sol\":103:189  function f1() public pure returns (uint256) {... */\n    tag_4:\n      tag_10\n      tag_11\n      jump\t// in\n    tag_10:\n      mload(0x40)\n      tag_12\n      swap2\n      swap1\n      tag_9\n      jump\t// in\n    tag_12:\n      mload(0x40)\n      dup1\n      swap2\n      sub\n      swap1\n      return\n        /* \"contracts/10.12.visibility.sol\":379:450  function f4() external pure returns (uint256) {... */\n    tag_5:\n      tag_13\n      tag_14\n      jump\t// in\n    tag_13:\n      mload(0x40)\n      tag_15\n      swap2\n      swap1\n      tag_9\n      jump\t// in\n    tag_15:\n      mload(0x40)\n      dup1\n      swap2\n      sub\n      swap1\n      return\n        /* \"contracts/10.12.visibility.sol\":589:612  uint256 public x = f1() */\n    tag_7:\n      sload(0x00)\n      dup2\n      jump\t// out\n        /* \"contracts/10.12.visibility.sol\":103:189  function f1() public pure returns (uint256) {... */\n    tag_11:\n        /* \"contracts/10.12.visibility.sol\":138:145  uint256 */\n      0x00\n        /* \"contracts/10.12.visibility.sol\":181:182  1 */\n      0x01\n        /* \"contracts/10.12.visibility.sol\":174:182  return 1 */\n      swap1\n      pop\n        /* \"contracts/10.12.visibility.sol\":103:189  function f1() public pure returns (uint256) {... */\n      swap1\n      jump\t// out\n        /* \"contracts/10.12.visibility.sol\":379:450  function f4() external pure returns (uint256) {... */\n    tag_14:\n        /* \"contracts/10.12.visibility.sol\":416:423  uint256 */\n      0x00\n        /* \"contracts/10.12.visibility.sol\":442:443  4 */\n      0x04\n        /* \"contracts/10.12.visibility.sol\":435:443  return 4 */\n      swap1\n      pop\n        /* \"contracts/10.12.visibility.sol\":379:450  function f4() external pure returns (uint256) {... */\n      swap1\n      jump\t// out\n        /* \"#utility.yul\":7:84   */\n    tag_18:\n        /* \"#utility.yul\":44:51   */\n      0x00\n        /* \"#utility.yul\":73:78   */\n      dup2\n        /* \"#utility.yul\":62:78   */\n      swap1\n      pop\n        /* \"#utility.yul\":7:84   */\n      swap2\n      swap1\n      pop\n      jump\t// out\n        /* \"#utility.yul\":90:208   */\n    tag_19:\n        /* \"#utility.yul\":177:201   */\n      tag_23\n        /* \"#utility.yul\":195:200   */\n      dup2\n        /* \"#utility.yul\":177:201   */\n      tag_18\n      jump\t// in\n    tag_23:\n        /* \"#utility.yul\":172:175   */\n      dup3\n        /* \"#utility.yul\":165:202   */\n      mstore\n        /* \"#utility.yul\":90:208   */\n      pop\n      pop\n      jump\t// out\n        /* \"#utility.yul\":214:436   */\n    tag_9:\n        /* \"#utility.yul\":307:311   */\n      0x00\n        /* \"#utility.yul\":345:347   */\n      0x20\n        /* \"#utility.yul\":334:343   */\n      dup3\n        /* \"#utility.yul\":330:348   */\n      add\n        /* \"#utility.yul\":322:348   */\n      swap1\n      pop\n        /* \"#utility.yul\":358:429   */\n      tag_25\n        /* \"#utility.yul\":426:427   */\n      0x00\n        /* \"#utility.yul\":415:424   */\n      dup4\n        /* \"#utility.yul\":411:428   */\n      add\n        /* \"#utility.yul\":402:408   */\n      dup5\n        /* \"#utility.yul\":358:429   */\n      tag_19\n      jump\t// in\n    tag_25:\n        /* \"#utility.yul\":214:436   */\n      swap3\n      swap2\n      pop\n      pop\n      jump\t// out\n\n    auxdata: 0xa264697066735822122025b343e834fe0b33d78f739d4f2331ae123c0ada32dd0534b7efc2dcb9547ba064736f6c634300081e0033\n}\n",
				"bytecode": {
					"linkReferences": {},
					"object": "60806040526010602160201b60201c565b5f55348015601c575f5ffd5b506029565b5f6001905090565b610104806100365f395ff3fe6080604052348015600e575f5ffd5b5060043610603a575f3560e01c80630c55699c14603e578063c27fc305146058578063c3f90202146072575b5f5ffd5b6044608c565b604051604f919060b7565b60405180910390f35b605e6091565b6040516069919060b7565b60405180910390f35b60786099565b6040516083919060b7565b60405180910390f35b5f5481565b5f6001905090565b5f6004905090565b5f819050919050565b60b18160a1565b82525050565b5f60208201905060c85f83018460aa565b9291505056fea264697066735822122025b343e834fe0b33d78f739d4f2331ae123c0ada32dd0534b7efc2dcb9547ba064736f6c634300081e0033",
					"opcodes": "PUSH1 0x80 PUSH1 0x40 MSTORE PUSH1 0x10 PUSH1 0x21 PUSH1 0x20 SHL PUSH1 0x20 SHR JUMP JUMPDEST PUSH0 SSTORE CALLVALUE DUP1 ISZERO PUSH1 0x1C JUMPI PUSH0 PUSH0 REVERT JUMPDEST POP PUSH1 0x29 JUMP JUMPDEST PUSH0 PUSH1 0x1 SWAP1 POP SWAP1 JUMP JUMPDEST PUSH2 0x104 DUP1 PUSH2 0x36 PUSH0 CODECOPY PUSH0 RETURN INVALID PUSH1 0x80 PUSH1 0x40 MSTORE CALLVALUE DUP1 ISZERO PUSH1 0xE JUMPI PUSH0 PUSH0 REVERT JUMPDEST POP PUSH1 0x4 CALLDATASIZE LT PUSH1 0x3A JUMPI PUSH0 CALLDATALOAD PUSH1 0xE0 SHR DUP1 PUSH4 0xC55699C EQ PUSH1 0x3E JUMPI DUP1 PUSH4 0xC27FC305 EQ PUSH1 0x58 JUMPI DUP1 PUSH4 0xC3F90202 EQ PUSH1 0x72 JUMPI JUMPDEST PUSH0 PUSH0 REVERT JUMPDEST PUSH1 0x44 PUSH1 0x8C JUMP JUMPDEST PUSH1 0x40 MLOAD PUSH1 0x4F SWAP2 SWAP1 PUSH1 0xB7 JUMP JUMPDEST PUSH1 0x40 MLOAD DUP1 SWAP2 SUB SWAP1 RETURN JUMPDEST PUSH1 0x5E PUSH1 0x91 JUMP JUMPDEST PUSH1 0x40 MLOAD PUSH1 0x69 SWAP2 SWAP1 PUSH1 0xB7 JUMP JUMPDEST PUSH1 0x40 MLOAD DUP1 SWAP2 SUB SWAP1 RETURN JUMPDEST PUSH1 0x78 PUSH1 0x99 JUMP JUMPDEST PUSH1 0x40 MLOAD PUSH1 0x83 SWAP2 SWAP1 PUSH1 0xB7 JUMP JUMPDEST PUSH1 0x40 MLOAD DUP1 SWAP2 SUB SWAP1 RETURN JUMPDEST PUSH0 SLOAD DUP2 JUMP JUMPDEST PUSH0 PUSH1 0x1 SWAP1 POP SWAP1 JUMP JUMPDEST PUSH0 PUSH1 0x4 SWAP1 POP SWAP1 JUMP JUMPDEST PUSH0 DUP2 SWAP1 POP SWAP2 SWAP1 POP JUMP JUMPDEST PUSH1 0xB1 DUP2 PUSH1 0xA1 JUMP JUMPDEST DUP3 MSTORE POP POP JUMP JUMPDEST PUSH0 PUSH1 0x20 DUP3 ADD SWAP1 POP PUSH1 0xC8 PUSH0 DUP4 ADD DUP5 PUSH1 0xAA JUMP JUMPDEST SWAP3 SWAP2 POP POP JUMP INVALID LOG2 PUSH5 0x6970667358 0x22 SLT KECCAK256 0x25 0xB3 NUMBER 0xE8 CALLVALUE INVALID SIGNEXTEND CALLER 0xD7 DUP16 PUSH20 0x9D4F2331AE123C0ADA32DD0534B7EFC2DCB9547B LOG0 PUSH5 0x736F6C6343 STOP ADDMOD 0x1E STOP CALLER "
				},
				"gasEstimates": {
					"creation": {
						"codeDepositCost": "52000",
						"executionCost": "infinite",
						"totalCost": "infinite"
					},
					"external": {
						"f1()": "332",
						"f4()": "354",
						"x()": "2402"
					}
				},
				"methodIdentifiers": {
					"f1()": "c27fc305",
					"f4()": "c3f90202",
					"x()": "0c55699c"
				}
			},
			"storageLayout": {
				"storage": [
					{
						"astId": 56,
						"contract": "contracts/10.12.visibility.sol:child",
						"label": "x",
						"offset": 0,
						"slot": "0",
						"type": "t_uint256"
					}
				],
				"types": {
					"t_uint256": {
						"encoding": "inplace",
						"label": "uint256",
						"numberOfBytes": "32"
					}
				}
			},
			"userdoc": {
				"kind": "user",
				"methods": {},
				"version": 1
			}
		}
	}
}