{
	"contracts/delegateextra.sol": {
		"A": {
			"abi": [
				{
					"inputs": [
						{
							"internalType": "address",
							"name": "_bAddress",
							"type": "address"
						},
						{
							"internalType": "address",
							"name": "_cAddress",
							"type": "address"
						}
					],
					"name": "callB",
					"outputs": [],
					"stateMutability": "payable",
					"type": "function"
				}
			],
			"devdoc": {
				"kind": "dev",
				"methods": {},
				"version": 1
			},
			"evm": {
				"assembly": "    /* \"contracts/delegateextra.sol\":70:427  contract A {... */\n  mstore(0x40, 0x80)\n  callvalue\n  dup1\n  iszero\n  tag_1\n  jumpi\n  revert(0x00, 0x00)\ntag_1:\n  pop\n  dataSize(sub_0)\n  dup1\n  dataOffset(sub_0)\n  0x00\n  codecopy\n  0x00\n  return\nstop\n\nsub_0: assembly {\n        /* \"contracts/delegateextra.sol\":70:427  contract A {... */\n      mstore(0x40, 0x80)\n      jumpi(tag_1, lt(calldatasize, 0x04))\n      shr(0xe0, calldataload(0x00))\n      dup1\n      0x96e3add4\n      eq\n      tag_2\n      jumpi\n    tag_1:\n      revert(0x00, 0x00)\n        /* \"contracts/delegateextra.sol\":88:424  function callB(address _bAddress, address _cAddress) public payable {... */\n    tag_2:\n      tag_3\n      0x04\n      dup1\n      calldatasize\n      sub\n      dup2\n      add\n      swap1\n      tag_4\n      swap2\n      swap1\n      tag_5\n      jump\t// in\n    tag_4:\n      tag_6\n      jump\t// in\n    tag_3:\n      stop\n    tag_6:\n        /* \"contracts/delegateextra.sol\":235:247  bool success */\n      0x00\n        /* \"contracts/delegateextra.sol\":253:262  _bAddress */\n      dup3\n        /* \"contracts/delegateextra.sol\":253:267  _bAddress.call */\n      0xffffffffffffffffffffffffffffffffffffffff\n      and\n        /* \"contracts/delegateextra.sol\":275:284  msg.value */\n      callvalue\n        /* \"contracts/delegateextra.sol\":348:357  _cAddress */\n      dup4\n        /* \"contracts/delegateextra.sol\":300:358  abi.encodeWithSignature(\"delegateLog(address)\", _cAddress) */\n      add(0x24, mload(0x40))\n      tag_8\n      swap2\n      swap1\n      tag_9\n      jump\t// in\n    tag_8:\n      mload(0x40)\n      0x20\n      dup2\n      dup4\n      sub\n      sub\n      dup2\n      mstore\n      swap1\n      0x40\n      mstore\n      and(not(0xffffffffffffffffffffffffffffffffffffffffffffffffffffffff), 0x2071c93800000000000000000000000000000000000000000000000000000000)\n      0x20\n      dup3\n      add\n      dup1\n      mload\n      0xffffffffffffffffffffffffffffffffffffffffffffffffffffffff\n      dup4\n      dup2\n      dup4\n      and\n      or\n      dup4\n      mstore\n      pop\n      pop\n      pop\n      pop\n        /* \"contracts/delegateextra.sol\":253:369  _bAddress.call{value: msg.value}(... */\n      mload(0x40)\n      tag_10\n      swap2\n      swap1\n      tag_11\n      jump\t// in\n    tag_10:\n      0x00\n      mload(0x40)\n      dup1\n      dup4\n      sub\n      dup2\n      dup6\n      dup8\n      gas\n      call\n      swap3\n      pop\n      pop\n      pop\n      returndatasize\n      dup1\n      0x00\n      dup2\n      eq\n      tag_14\n      jumpi\n      mload(0x40)\n      swap2\n      pop\n      and(add(returndatasize, 0x3f), not(0x1f))\n      dup3\n      add\n      0x40\n      mstore\n      returndatasize\n      dup3\n      mstore\n      returndatasize\n      0x00\n      0x20\n      dup5\n      add\n      returndatacopy\n      jump(tag_13)\n    tag_14:\n      0x60\n      swap2\n      pop\n    tag_13:\n      pop\n        /* \"contracts/delegateextra.sol\":234:369  (bool success, ) = _bAddress.call{value: msg.value}(... */\n      pop\n      swap1\n      pop\n        /* \"contracts/delegateextra.sol\":388:395  success */\n      dup1\n        /* \"contracts/delegateextra.sol\":380:416  require(success, \"call to B failed\") */\n      tag_15\n      jumpi\n      mload(0x40)\n      0x08c379a000000000000000000000000000000000000000000000000000000000\n      dup2\n      mstore\n      0x04\n      add\n      tag_16\n      swap1\n      tag_17\n      jump\t// in\n    tag_16:\n      mload(0x40)\n      dup1\n      swap2\n      sub\n      swap1\n      revert\n    tag_15:\n        /* \"contracts/delegateextra.sol\":156:424  {... */\n      pop\n        /* \"contracts/delegateextra.sol\":88:424  function callB(address _bAddress, address _cAddress) public payable {... */\n      pop\n      pop\n      jump\t// out\n        /* \"#utility.yul\":88:205   */\n    tag_19:\n        /* \"#utility.yul\":197:198   */\n      0x00\n        /* \"#utility.yul\":194:195   */\n      0x00\n        /* \"#utility.yul\":187:199   */\n      revert\n        /* \"#utility.yul\":334:460   */\n    tag_21:\n        /* \"#utility.yul\":371:378   */\n      0x00\n        /* \"#utility.yul\":411:453   */\n      0xffffffffffffffffffffffffffffffffffffffff\n        /* \"#utility.yul\":404:409   */\n      dup3\n        /* \"#utility.yul\":400:454   */\n      and\n        /* \"#utility.yul\":389:454   */\n      swap1\n      pop\n        /* \"#utility.yul\":334:460   */\n      swap2\n      swap1\n      pop\n      jump\t// out\n        /* \"#utility.yul\":466:562   */\n    tag_22:\n        /* \"#utility.yul\":503:510   */\n      0x00\n        /* \"#utility.yul\":532:556   */\n      tag_39\n        /* \"#utility.yul\":550:555   */\n      dup3\n        /* \"#utility.yul\":532:556   */\n      tag_21\n      jump\t// in\n    tag_39:\n        /* \"#utility.yul\":521:556   */\n      swap1\n      pop\n        /* \"#utility.yul\":466:562   */\n      swap2\n      swap1\n      pop\n      jump\t// out\n        /* \"#utility.yul\":568:690   */\n    tag_23:\n        /* \"#utility.yul\":641:665   */\n      tag_41\n        /* \"#utility.yul\":659:664   */\n      dup2\n        /* \"#utility.yul\":641:665   */\n      tag_22\n      jump\t// in\n    tag_41:\n        /* \"#utility.yul\":634:639   */\n      dup2\n        /* \"#utility.yul\":631:666   */\n      eq\n        /* \"#utility.yul\":621:684   */\n      tag_42\n      jumpi\n        /* \"#utility.yul\":680:681   */\n      0x00\n        /* \"#utility.yul\":677:678   */\n      0x00\n        /* \"#utility.yul\":670:682   */\n      revert\n        /* \"#utility.yul\":621:684   */\n    tag_42:\n        /* \"#utility.yul\":568:690   */\n      pop\n      jump\t// out\n        /* \"#utility.yul\":696:835   */\n    tag_24:\n        /* \"#utility.yul\":742:747   */\n      0x00\n        /* \"#utility.yul\":780:786   */\n      dup2\n        /* \"#utility.yul\":767:787   */\n      calldataload\n        /* \"#utility.yul\":758:787   */\n      swap1\n      pop\n        /* \"#utility.yul\":796:829   */\n      tag_44\n        /* \"#utility.yul\":823:828   */\n      dup2\n        /* \"#utility.yul\":796:829   */\n      tag_23\n      jump\t// in\n    tag_44:\n        /* \"#utility.yul\":696:835   */\n      swap3\n      swap2\n      pop\n      pop\n      jump\t// out\n        /* \"#utility.yul\":841:1315   */\n    tag_5:\n        /* \"#utility.yul\":909:915   */\n      0x00\n        /* \"#utility.yul\":917:923   */\n      0x00\n        /* \"#utility.yul\":966:968   */\n      0x40\n        /* \"#utility.yul\":954:963   */\n      dup4\n        /* \"#utility.yul\":945:952   */\n      dup6\n        /* \"#utility.yul\":941:964   */\n      sub\n        /* \"#utility.yul\":937:969   */\n      slt\n        /* \"#utility.yul\":934:1053   */\n      iszero\n      tag_46\n      jumpi\n        /* \"#utility.yul\":972:1051   */\n      tag_47\n      tag_19\n      jump\t// in\n    tag_47:\n        /* \"#utility.yul\":934:1053   */\n    tag_46:\n        /* \"#utility.yul\":1092:1093   */\n      0x00\n        /* \"#utility.yul\":1117:1170   */\n      tag_48\n        /* \"#utility.yul\":1162:1169   */\n      dup6\n        /* \"#utility.yul\":1153:1159   */\n      dup3\n        /* \"#utility.yul\":1142:1151   */\n      dup7\n        /* \"#utility.yul\":1138:1160   */\n      add\n        /* \"#utility.yul\":1117:1170   */\n      tag_24\n      jump\t// in\n    tag_48:\n        /* \"#utility.yul\":1107:1170   */\n      swap3\n      pop\n        /* \"#utility.yul\":1063:1180   */\n      pop\n        /* \"#utility.yul\":1219:1221   */\n      0x20\n        /* \"#utility.yul\":1245:1298   */\n      tag_49\n        /* \"#utility.yul\":1290:1297   */\n      dup6\n        /* \"#utility.yul\":1281:1287   */\n      dup3\n        /* \"#utility.yul\":1270:1279   */\n      dup7\n        /* \"#utility.yul\":1266:1288   */\n      add\n        /* \"#utility.yul\":1245:1298   */\n      tag_24\n      jump\t// in\n    tag_49:\n        /* \"#utility.yul\":1235:1298   */\n      swap2\n      pop\n        /* \"#utility.yul\":1190:1308   */\n      pop\n        /* \"#utility.yul\":841:1315   */\n      swap3\n      pop\n      swap3\n      swap1\n      pop\n      jump\t// out\n        /* \"#utility.yul\":1321:1439   */\n    tag_25:\n        /* \"#utility.yul\":1408:1432   */\n      tag_51\n        /* \"#utility.yul\":1426:1431   */\n      dup2\n        /* \"#utility.yul\":1408:1432   */\n      tag_22\n      jump\t// in\n    tag_51:\n        /* \"#utility.yul\":1403:1406   */\n      dup3\n        /* \"#utility.yul\":1396:1433   */\n      mstore\n        /* \"#utility.yul\":1321:1439   */\n      pop\n      pop\n      jump\t// out\n        /* \"#utility.yul\":1445:1667   */\n    tag_9:\n        /* \"#utility.yul\":1538:1542   */\n      0x00\n        /* \"#utility.yul\":1576:1578   */\n      0x20\n        /* \"#utility.yul\":1565:1574   */\n      dup3\n        /* \"#utility.yul\":1561:1579   */\n      add\n        /* \"#utility.yul\":1553:1579   */\n      swap1\n      pop\n        /* \"#utility.yul\":1589:1660   */\n      tag_53\n        /* \"#utility.yul\":1657:1658   */\n      0x00\n        /* \"#utility.yul\":1646:1655   */\n      dup4\n        /* \"#utility.yul\":1642:1659   */\n      add\n        /* \"#utility.yul\":1633:1639   */\n      dup5\n        /* \"#utility.yul\":1589:1660   */\n      tag_25\n      jump\t// in\n    tag_53:\n        /* \"#utility.yul\":1445:1667   */\n      swap3\n      swap2\n      pop\n      pop\n      jump\t// out\n        /* \"#utility.yul\":1673:1771   */\n    tag_26:\n        /* \"#utility.yul\":1724:1730   */\n      0x00\n        /* \"#utility.yul\":1758:1763   */\n      dup2\n        /* \"#utility.yul\":1752:1764   */\n      mload\n        /* \"#utility.yul\":1742:1764   */\n      swap1\n      pop\n        /* \"#utility.yul\":1673:1771   */\n      swap2\n      swap1\n      pop\n      jump\t// out\n        /* \"#utility.yul\":1777:1924   */\n    tag_27:\n        /* \"#utility.yul\":1878:1889   */\n      0x00\n        /* \"#utility.yul\":1915:1918   */\n      dup2\n        /* \"#utility.yul\":1900:1918   */\n      swap1\n      pop\n        /* \"#utility.yul\":1777:1924   */\n      swap3\n      swap2\n      pop\n      pop\n      jump\t// out\n        /* \"#utility.yul\":1930:2069   */\n    tag_28:\n        /* \"#utility.yul\":2019:2025   */\n      dup3\n        /* \"#utility.yul\":2014:2017   */\n      dup2\n        /* \"#utility.yul\":2009:2012   */\n      dup4\n        /* \"#utility.yul\":2003:2026   */\n      mcopy\n        /* \"#utility.yul\":2060:2061   */\n      0x00\n        /* \"#utility.yul\":2051:2057   */\n      dup4\n        /* \"#utility.yul\":2046:2049   */\n      dup4\n        /* \"#utility.yul\":2042:2058   */\n      add\n        /* \"#utility.yul\":2035:2062   */\n      mstore\n        /* \"#utility.yul\":1930:2069   */\n      pop\n      pop\n      pop\n      jump\t// out\n        /* \"#utility.yul\":2075:2461   */\n    tag_29:\n        /* \"#utility.yul\":2179:2182   */\n      0x00\n        /* \"#utility.yul\":2207:2245   */\n      tag_58\n        /* \"#utility.yul\":2239:2244   */\n      dup3\n        /* \"#utility.yul\":2207:2245   */\n      tag_26\n      jump\t// in\n    tag_58:\n        /* \"#utility.yul\":2261:2349   */\n      tag_59\n        /* \"#utility.yul\":2342:2348   */\n      dup2\n        /* \"#utility.yul\":2337:2340   */\n      dup6\n        /* \"#utility.yul\":2261:2349   */\n      tag_27\n      jump\t// in\n    tag_59:\n        /* \"#utility.yul\":2254:2349   */\n      swap4\n      pop\n        /* \"#utility.yul\":2358:2423   */\n      tag_60\n        /* \"#utility.yul\":2416:2422   */\n      dup2\n        /* \"#utility.yul\":2411:2414   */\n      dup6\n        /* \"#utility.yul\":2404:2408   */\n      0x20\n        /* \"#utility.yul\":2397:2402   */\n      dup7\n        /* \"#utility.yul\":2393:2409   */\n      add\n        /* \"#utility.yul\":2358:2423   */\n      tag_28\n      jump\t// in\n    tag_60:\n        /* \"#utility.yul\":2448:2454   */\n      dup1\n        /* \"#utility.yul\":2443:2446   */\n      dup5\n        /* \"#utility.yul\":2439:2455   */\n      add\n        /* \"#utility.yul\":2432:2455   */\n      swap2\n      pop\n        /* \"#utility.yul\":2183:2461   */\n      pop\n        /* \"#utility.yul\":2075:2461   */\n      swap3\n      swap2\n      pop\n      pop\n      jump\t// out\n        /* \"#utility.yul\":2467:2738   */\n    tag_11:\n        /* \"#utility.yul\":2597:2600   */\n      0x00\n        /* \"#utility.yul\":2619:2712   */\n      tag_62\n        /* \"#utility.yul\":2708:2711   */\n      dup3\n        /* \"#utility.yul\":2699:2705   */\n      dup5\n        /* \"#utility.yul\":2619:2712   */\n      tag_29\n      jump\t// in\n    tag_62:\n        /* \"#utility.yul\":2612:2712   */\n      swap2\n      pop\n        /* \"#utility.yul\":2729:2732   */\n      dup2\n        /* \"#utility.yul\":2722:2732   */\n      swap1\n      pop\n        /* \"#utility.yul\":2467:2738   */\n      swap3\n      swap2\n      pop\n      pop\n      jump\t// out\n        /* \"#utility.yul\":2744:2913   */\n    tag_30:\n        /* \"#utility.yul\":2828:2839   */\n      0x00\n        /* \"#utility.yul\":2862:2868   */\n      dup3\n        /* \"#utility.yul\":2857:2860   */\n      dup3\n        /* \"#utility.yul\":2850:2869   */\n      mstore\n        /* \"#utility.yul\":2902:2906   */\n      0x20\n        /* \"#utility.yul\":2897:2900   */\n      dup3\n        /* \"#utility.yul\":2893:2907   */\n      add\n        /* \"#utility.yul\":2878:2907   */\n      swap1\n      pop\n        /* \"#utility.yul\":2744:2913   */\n      swap3\n      swap2\n      pop\n      pop\n      jump\t// out\n        /* \"#utility.yul\":2919:3085   */\n    tag_31:\n        /* \"#utility.yul\":3059:3077   */\n      0x63616c6c20746f2042206661696c656400000000000000000000000000000000\n        /* \"#utility.yul\":3055:3056   */\n      0x00\n        /* \"#utility.yul\":3047:3053   */\n      dup3\n        /* \"#utility.yul\":3043:3057   */\n      add\n        /* \"#utility.yul\":3036:3078   */\n      mstore\n        /* \"#utility.yul\":2919:3085   */\n      pop\n      jump\t// out\n        /* \"#utility.yul\":3091:3457   */\n    tag_32:\n        /* \"#utility.yul\":3233:3236   */\n      0x00\n        /* \"#utility.yul\":3254:3321   */\n      tag_66\n        /* \"#utility.yul\":3318:3320   */\n      0x10\n        /* \"#utility.yul\":3313:3316   */\n      dup4\n        /* \"#utility.yul\":3254:3321   */\n      tag_30\n      jump\t// in\n    tag_66:\n        /* \"#utility.yul\":3247:3321   */\n      swap2\n      pop\n        /* \"#utility.yul\":3330:3423   */\n      tag_67\n        /* \"#utility.yul\":3419:3422   */\n      dup3\n        /* \"#utility.yul\":3330:3423   */\n      tag_31\n      jump\t// in\n    tag_67:\n        /* \"#utility.yul\":3448:3450   */\n      0x20\n        /* \"#utility.yul\":3443:3446   */\n      dup3\n        /* \"#utility.yul\":3439:3451   */\n      add\n        /* \"#utility.yul\":3432:3451   */\n      swap1\n      pop\n        /* \"#utility.yul\":3091:3457   */\n      swap2\n      swap1\n      pop\n      jump\t// out\n        /* \"#utility.yul\":3463:3882   */\n    tag_17:\n        /* \"#utility.yul\":3629:3633   */\n      0x00\n        /* \"#utility.yul\":3667:3669   */\n      0x20\n        /* \"#utility.yul\":3656:3665   */\n      dup3\n        /* \"#utility.yul\":3652:3670   */\n      add\n        /* \"#utility.yul\":3644:3670   */\n      swap1\n      pop\n        /* \"#utility.yul\":3716:3725   */\n      dup2\n        /* \"#utility.yul\":3710:3714   */\n      dup2\n        /* \"#utility.yul\":3706:3726   */\n      sub\n        /* \"#utility.yul\":3702:3703   */\n      0x00\n        /* \"#utility.yul\":3691:3700   */\n      dup4\n        /* \"#utility.yul\":3687:3704   */\n      add\n        /* \"#utility.yul\":3680:3727   */\n      mstore\n        /* \"#utility.yul\":3744:3875   */\n      tag_69\n        /* \"#utility.yul\":3870:3874   */\n      dup2\n        /* \"#utility.yul\":3744:3875   */\n      tag_32\n      jump\t// in\n    tag_69:\n        /* \"#utility.yul\":3736:3875   */\n      swap1\n      pop\n        /* \"#utility.yul\":3463:3882   */\n      swap2\n      swap1\n      pop\n      jump\t// out\n\n    auxdata: 0xa26469706673582212209a8756b011a2213ed7a7681de173e44b2c6dffea36568fe93d538bf92e5b117964736f6c634300081e0033\n}\n",
				"bytecode": {
					"linkReferences": {},
					"object": "6080604052348015600e575f5ffd5b506103538061001c5f395ff3fe60806040526004361061001d575f3560e01c806396e3add414610021575b5f5ffd5b61003b600480360381019061003691906101d7565b61003d565b005b5f8273ffffffffffffffffffffffffffffffffffffffff1634836040516024016100679190610224565b6040516020818303038152906040527f2071c938000000000000000000000000000000000000000000000000000000007bffffffffffffffffffffffffffffffffffffffffffffffffffffffff19166020820180517bffffffffffffffffffffffffffffffffffffffffffffffffffffffff83818316178352505050506040516100f1919061028f565b5f6040518083038185875af1925050503d805f811461012b576040519150601f19603f3d011682016040523d82523d5f602084013e610130565b606091505b5050905080610174576040517f08c379a000000000000000000000000000000000000000000000000000000000815260040161016b906102ff565b60405180910390fd5b505050565b5f5ffd5b5f73ffffffffffffffffffffffffffffffffffffffff82169050919050565b5f6101a68261017d565b9050919050565b6101b68161019c565b81146101c0575f5ffd5b50565b5f813590506101d1816101ad565b92915050565b5f5f604083850312156101ed576101ec610179565b5b5f6101fa858286016101c3565b925050602061020b858286016101c3565b9150509250929050565b61021e8161019c565b82525050565b5f6020820190506102375f830184610215565b92915050565b5f81519050919050565b5f81905092915050565b8281835e5f83830152505050565b5f6102698261023d565b6102738185610247565b9350610283818560208601610251565b80840191505092915050565b5f61029a828461025f565b915081905092915050565b5f82825260208201905092915050565b7f63616c6c20746f2042206661696c6564000000000000000000000000000000005f82015250565b5f6102e96010836102a5565b91506102f4826102b5565b602082019050919050565b5f6020820190508181035f830152610316816102dd565b905091905056fea26469706673582212209a8756b011a2213ed7a7681de173e44b2c6dffea36568fe93d538bf92e5b117964736f6c634300081e0033",
					"opcodes": "PUSH1 0x80 PUSH1 0x40 MSTORE CALLVALUE DUP1 ISZERO PUSH1 0xE JUMPI PUSH0 PUSH0 REVERT JUMPDEST POP PUSH2 0x353 DUP1 PUSH2 0x1C PUSH0 CODECOPY PUSH0 RETURN INVALID PUSH1 0x80 PUSH1 0x40 MSTORE PUSH1 0x4 CALLDATASIZE LT PUSH2 0x1D JUMPI PUSH0 CALLDATALOAD PUSH1 0xE0 SHR DUP1 PUSH4 0x96E3ADD4 EQ PUSH2 0x21 JUMPI JUMPDEST PUSH0 PUSH0 REVERT JUMPDEST PUSH2 0x3B PUSH1 0x4 DUP1 CALLDATASIZE SUB DUP2 ADD SWAP1 PUSH2 0x36 SWAP2 SWAP1 PUSH2 0x1D7 JUMP JUMPDEST PUSH2 0x3D JUMP JUMPDEST STOP JUMPDEST PUSH0 DUP3 PUSH20 0xFFFFFFFFFFFFFFFFFFFFFFFFFFFFFFFFFFFFFFFF AND CALLVALUE DUP4 PUSH1 0x40 MLOAD PUSH1 0x24 ADD PUSH2 0x67 SWAP2 SWAP1 PUSH2 0x224 JUMP JUMPDEST PUSH1 0x40 MLOAD PUSH1 0x20 DUP2 DUP4 SUB SUB DUP2 MSTORE SWAP1 PUSH1 0x40 MSTORE PUSH32 0x2071C93800000000000000000000000000000000000000000000000000000000 PUSH28 0xFFFFFFFFFFFFFFFFFFFFFFFFFFFFFFFFFFFFFFFFFFFFFFFFFFFFFFFF NOT AND PUSH1 0x20 DUP3 ADD DUP1 MLOAD PUSH28 0xFFFFFFFFFFFFFFFFFFFFFFFFFFFFFFFFFFFFFFFFFFFFFFFFFFFFFFFF DUP4 DUP2 DUP4 AND OR DUP4 MSTORE POP POP POP POP PUSH1 0x40 MLOAD PUSH2 0xF1 SWAP2 SWAP1 PUSH2 0x28F JUMP JUMPDEST PUSH0 PUSH1 0x40 MLOAD DUP1 DUP4 SUB DUP2 DUP6 DUP8 GAS CALL SWAP3 POP POP POP RETURNDATASIZE DUP1 PUSH0 DUP2 EQ PUSH2 0x12B JUMPI PUSH1 0x40 MLOAD SWAP2 POP PUSH1 0x1F NOT PUSH1 0x3F RETURNDATASIZE ADD AND DUP3 ADD PUSH1 0x40 MSTORE RETURNDATASIZE DUP3 MSTORE RETURNDATASIZE PUSH0 PUSH1 0x20 DUP5 ADD RETURNDATACOPY PUSH2 0x130 JUMP JUMPDEST PUSH1 0x60 SWAP2 POP JUMPDEST POP POP SWAP1 POP DUP1 PUSH2 0x174 JUMPI PUSH1 0x40 MLOAD PUSH32 0x8C379A000000000000000000000000000000000000000000000000000000000 DUP2 MSTORE PUSH1 0x4 ADD PUSH2 0x16B SWAP1 PUSH2 0x2FF JUMP JUMPDEST PUSH1 0x40 MLOAD DUP1 SWAP2 SUB SWAP1 REVERT JUMPDEST POP POP POP JUMP JUMPDEST PUSH0 PUSH0 REVERT JUMPDEST PUSH0 PUSH20 0xFFFFFFFFFFFFFFFFFFFFFFFFFFFFFFFFFFFFFFFF DUP3 AND SWAP1 POP SWAP2 SWAP1 POP JUMP JUMPDEST PUSH0 PUSH2 0x1A6 DUP3 PUSH2 0x17D JUMP JUMPDEST SWAP1 POP SWAP2 SWAP1 POP JUMP JUMPDEST PUSH2 0x1B6 DUP2 PUSH2 0x19C JUMP JUMPDEST DUP2 EQ PUSH2 0x1C0 JUMPI PUSH0 PUSH0 REVERT JUMPDEST POP JUMP JUMPDEST PUSH0 DUP2 CALLDATALOAD SWAP1 POP PUSH2 0x1D1 DUP2 PUSH2 0x1AD JUMP JUMPDEST SWAP3 SWAP2 POP POP JUMP JUMPDEST PUSH0 PUSH0 PUSH1 0x40 DUP4 DUP6 SUB SLT ISZERO PUSH2 0x1ED JUMPI PUSH2 0x1EC PUSH2 0x179 JUMP JUMPDEST JUMPDEST PUSH0 PUSH2 0x1FA DUP6 DUP3 DUP7 ADD PUSH2 0x1C3 JUMP JUMPDEST SWAP3 POP POP PUSH1 0x20 PUSH2 0x20B DUP6 DUP3 DUP7 ADD PUSH2 0x1C3 JUMP JUMPDEST SWAP2 POP POP SWAP3 POP SWAP3 SWAP1 POP JUMP JUMPDEST PUSH2 0x21E DUP2 PUSH2 0x19C JUMP JUMPDEST DUP3 MSTORE POP POP JUMP JUMPDEST PUSH0 PUSH1 0x20 DUP3 ADD SWAP1 POP PUSH2 0x237 PUSH0 DUP4 ADD DUP5 PUSH2 0x215 JUMP JUMPDEST SWAP3 SWAP2 POP POP JUMP JUMPDEST PUSH0 DUP2 MLOAD SWAP1 POP SWAP2 SWAP1 POP JUMP JUMPDEST PUSH0 DUP2 SWAP1 POP SWAP3 SWAP2 POP POP JUMP JUMPDEST DUP3 DUP2 DUP4 MCOPY PUSH0 DUP4 DUP4 ADD MSTORE POP POP POP JUMP JUMPDEST PUSH0 PUSH2 0x269 DUP3 PUSH2 0x23D JUMP JUMPDEST PUSH2 0x273 DUP2 DUP6 PUSH2 0x247 JUMP JUMPDEST SWAP4 POP PUSH2 0x283 DUP2 DUP6 PUSH1 0x20 DUP7 ADD PUSH2 0x251 JUMP JUMPDEST DUP1 DUP5 ADD SWAP2 POP POP SWAP3 SWAP2 POP POP JUMP JUMPDEST PUSH0 PUSH2 0x29A DUP3 DUP5 PUSH2 0x25F JUMP JUMPDEST SWAP2 POP DUP2 SWAP1 POP SWAP3 SWAP2 POP POP JUMP JUMPDEST PUSH0 DUP3 DUP3 MSTORE PUSH1 0x20 DUP3 ADD SWAP1 POP SWAP3 SWAP2 POP POP JUMP JUMPDEST PUSH32 0x63616C6C20746F2042206661696C656400000000000000000000000000000000 PUSH0 DUP3 ADD MSTORE POP JUMP JUMPDEST PUSH0 PUSH2 0x2E9 PUSH1 0x10 DUP4 PUSH2 0x2A5 JUMP JUMPDEST SWAP2 POP PUSH2 0x2F4 DUP3 PUSH2 0x2B5 JUMP JUMPDEST PUSH1 0x20 DUP3 ADD SWAP1 POP SWAP2 SWAP1 POP JUMP JUMPDEST PUSH0 PUSH1 0x20 DUP3 ADD SWAP1 POP DUP2 DUP2 SUB PUSH0 DUP4 ADD MSTORE PUSH2 0x316 DUP2 PUSH2 0x2DD JUMP JUMPDEST SWAP1 POP SWAP2 SWAP1 POP JUMP INVALID LOG2 PUSH5 0x6970667358 0x22 SLT KECCAK256 SWAP11 DUP8 JUMP 0xB0 GT LOG2 0x21 RETURNDATACOPY 0xD7 0xA7 PUSH9 0x1DE173E44B2C6DFFEA CALLDATASIZE JUMP DUP16 0xE9 RETURNDATASIZE MSTORE8 DUP12 EXTDELEGATECALL 0x2E JUMPDEST GT PUSH26 0x64736F6C634300081E0033000000000000000000000000000000 "
				},
				"gasEstimates": {
					"creation": {
						"codeDepositCost": "170200",
						"executionCost": "212",
						"totalCost": "170412"
					},
					"external": {
						"callB(address,address)": "infinite"
					}
				},
				"methodIdentifiers": {
					"callB(address,address)": "96e3add4"
				}
			},
			"storageLayout": {
				"storage": [],
				"types": null
			},
			"userdoc": {
				"kind": "user",
				"methods": {},
				"version": 1
			}
		}
	}
}