{
	"contracts/10.22.mappingwitharray.sol": {
		"AddressToArrayMapping": {
			"abi": [
				{
					"inputs": [
						{
							"internalType": "address",
							"name": "_address",
							"type": "address"
						},
						{
							"internalType": "uint256",
							"name": "_value",
							"type": "uint256"
						}
					],
					"name": "addValue",
					"outputs": [],
					"stateMutability": "nonpayable",
					"type": "function"
				},
				{
					"inputs": [
						{
							"internalType": "address",
							"name": "_address",
							"type": "address"
						}
					],
					"name": "getValues",
					"outputs": [
						{
							"internalType": "uint256[]",
							"name": "",
							"type": "uint256[]"
						}
					],
					"stateMutability": "view",
					"type": "function"
				},
				{
					"inputs": [
						{
							"internalType": "address",
							"name": "_address",
							"type": "address"
						},
						{
							"internalType": "uint256",
							"name": "_index",
							"type": "uint256"
						}
					],
					"name": "removeValueAt",
					"outputs": [],
					"stateMutability": "nonpayable",
					"type": "function"
				}
			],
			"devdoc": {
				"kind": "dev",
				"methods": {},
				"version": 1
			},
			"evm": {
				"assembly": "    /* \"contracts/10.22.mappingwitharray.sol\":57:1249  contract AddressToArrayMapping {... */\n  mstore(0x40, 0x80)\n  callvalue\n  dup1\n  iszero\n  tag_1\n  jumpi\n  revert(0x00, 0x00)\ntag_1:\n  pop\n  dataSize(sub_0)\n  dup1\n  dataOffset(sub_0)\n  0x00\n  codecopy\n  0x00\n  return\nstop\n\nsub_0: assembly {\n        /* \"contracts/10.22.mappingwitharray.sol\":57:1249  contract AddressToArrayMapping {... */\n      mstore(0x40, 0x80)\n      callvalue\n      dup1\n      iszero\n      tag_1\n      jumpi\n      revert(0x00, 0x00)\n    tag_1:\n      pop\n      jumpi(tag_2, lt(calldatasize, 0x04))\n      shr(0xe0, calldataload(0x00))\n      dup1\n      0x924f364d\n      eq\n      tag_3\n      jumpi\n      dup1\n      0xb30dc2f7\n      eq\n      tag_4\n      jumpi\n      dup1\n      0xca0b1878\n      eq\n      tag_5\n      jumpi\n    tag_2:\n      revert(0x00, 0x00)\n        /* \"contracts/10.22.mappingwitharray.sol\":462:615  function getValues(address _address)... */\n    tag_3:\n      tag_6\n      0x04\n      dup1\n      calldatasize\n      sub\n      dup2\n      add\n      swap1\n      tag_7\n      swap2\n      swap1\n      tag_8\n      jump\t// in\n    tag_7:\n      tag_9\n      jump\t// in\n    tag_6:\n      mload(0x40)\n      tag_10\n      swap2\n      swap1\n      tag_11\n      jump\t// in\n    tag_10:\n      mload(0x40)\n      dup1\n      swap2\n      sub\n      swap1\n      return\n        /* \"contracts/10.22.mappingwitharray.sol\":695:1247  function removeValueAt(address _address, uint256 _index) public {... */\n    tag_4:\n      tag_12\n      0x04\n      dup1\n      calldatasize\n      sub\n      dup2\n      add\n      swap1\n      tag_13\n      swap2\n      swap1\n      tag_14\n      jump\t// in\n    tag_13:\n      tag_15\n      jump\t// in\n    tag_12:\n      stop\n        /* \"contracts/10.22.mappingwitharray.sol\":279:393  function addValue(address _address, uint256 _value) public {... */\n    tag_5:\n      tag_16\n      0x04\n      dup1\n      calldatasize\n      sub\n      dup2\n      add\n      swap1\n      tag_17\n      swap2\n      swap1\n      tag_14\n      jump\t// in\n    tag_17:\n      tag_18\n      jump\t// in\n    tag_16:\n      stop\n        /* \"contracts/10.22.mappingwitharray.sol\":462:615  function getValues(address _address)... */\n    tag_9:\n        /* \"contracts/10.22.mappingwitharray.sol\":544:560  uint256[] memory */\n      0x60\n        /* \"contracts/10.22.mappingwitharray.sol\":583:598  addressToValues */\n      0x00\n        /* \"contracts/10.22.mappingwitharray.sol\":583:608  addressToValues[_address] */\n      0x00\n        /* \"contracts/10.22.mappingwitharray.sol\":599:607  _address */\n      dup4\n        /* \"contracts/10.22.mappingwitharray.sol\":583:608  addressToValues[_address] */\n      0xffffffffffffffffffffffffffffffffffffffff\n      and\n      0xffffffffffffffffffffffffffffffffffffffff\n      and\n      dup2\n      mstore\n      0x20\n      add\n      swap1\n      dup2\n      mstore\n      0x20\n      add\n      0x00\n      keccak256\n        /* \"contracts/10.22.mappingwitharray.sol\":576:608  return addressToValues[_address] */\n      dup1\n      sload\n      dup1\n      0x20\n      mul\n      0x20\n      add\n      mload(0x40)\n      swap1\n      dup2\n      add\n      0x40\n      mstore\n      dup1\n      swap3\n      swap2\n      swap1\n      dup2\n      dup2\n      mstore\n      0x20\n      add\n      dup3\n      dup1\n      sload\n      dup1\n      iszero\n      tag_20\n      jumpi\n      0x20\n      mul\n      dup3\n      add\n      swap2\n      swap1\n      0x00\n      mstore\n      keccak256(0x00, 0x20)\n      swap1\n    tag_21:\n      dup2\n      sload\n      dup2\n      mstore\n      0x20\n      add\n      swap1\n      0x01\n      add\n      swap1\n      dup1\n      dup4\n      gt\n      tag_21\n      jumpi\n    tag_20:\n      pop\n      pop\n      pop\n      pop\n      pop\n      swap1\n      pop\n        /* \"contracts/10.22.mappingwitharray.sol\":462:615  function getValues(address _address)... */\n      swap2\n      swap1\n      pop\n      jump\t// out\n        /* \"contracts/10.22.mappingwitharray.sol\":695:1247  function removeValueAt(address _address, uint256 _index) public {... */\n    tag_15:\n        /* \"contracts/10.22.mappingwitharray.sol\":799:814  addressToValues */\n      0x00\n        /* \"contracts/10.22.mappingwitharray.sol\":799:824  addressToValues[_address] */\n      0x00\n        /* \"contracts/10.22.mappingwitharray.sol\":815:823  _address */\n      dup4\n        /* \"contracts/10.22.mappingwitharray.sol\":799:824  addressToValues[_address] */\n      0xffffffffffffffffffffffffffffffffffffffff\n      and\n      0xffffffffffffffffffffffffffffffffffffffff\n      and\n      dup2\n      mstore\n      0x20\n      add\n      swap1\n      dup2\n      mstore\n      0x20\n      add\n      0x00\n      keccak256\n        /* \"contracts/10.22.mappingwitharray.sol\":799:831  addressToValues[_address].length */\n      dup1\n      sload\n      swap1\n      pop\n        /* \"contracts/10.22.mappingwitharray.sol\":790:796  _index */\n      dup2\n        /* \"contracts/10.22.mappingwitharray.sol\":790:831  _index < addressToValues[_address].length */\n      lt\n        /* \"contracts/10.22.mappingwitharray.sol\":769:876  require(... */\n      tag_23\n      jumpi\n      mload(0x40)\n      0x08c379a000000000000000000000000000000000000000000000000000000000\n      dup2\n      mstore\n      0x04\n      add\n      tag_24\n      swap1\n      tag_25\n      jump\t// in\n    tag_24:\n      mload(0x40)\n      dup1\n      swap2\n      sub\n      swap1\n      revert\n    tag_23:\n        /* \"contracts/10.22.mappingwitharray.sol\":976:985  uint256 i */\n      0x00\n        /* \"contracts/10.22.mappingwitharray.sol\":988:994  _index */\n      dup2\n        /* \"contracts/10.22.mappingwitharray.sol\":976:994  uint256 i = _index */\n      swap1\n      pop\n        /* \"contracts/10.22.mappingwitharray.sol\":958:1164  for (... */\n    tag_26:\n        /* \"contracts/10.22.mappingwitharray.sol\":1047:1048  1 */\n      0x01\n        /* \"contracts/10.22.mappingwitharray.sol\":1012:1027  addressToValues */\n      0x00\n        /* \"contracts/10.22.mappingwitharray.sol\":1012:1037  addressToValues[_address] */\n      0x00\n        /* \"contracts/10.22.mappingwitharray.sol\":1028:1036  _address */\n      dup6\n        /* \"contracts/10.22.mappingwitharray.sol\":1012:1037  addressToValues[_address] */\n      0xffffffffffffffffffffffffffffffffffffffff\n      and\n      0xffffffffffffffffffffffffffffffffffffffff\n      and\n      dup2\n      mstore\n      0x20\n      add\n      swap1\n      dup2\n      mstore\n      0x20\n      add\n      0x00\n      keccak256\n        /* \"contracts/10.22.mappingwitharray.sol\":1012:1044  addressToValues[_address].length */\n      dup1\n      sload\n      swap1\n      pop\n        /* \"contracts/10.22.mappingwitharray.sol\":1012:1048  addressToValues[_address].length - 1 */\n      tag_29\n      swap2\n      swap1\n      tag_30\n      jump\t// in\n    tag_29:\n        /* \"contracts/10.22.mappingwitharray.sol\":1008:1009  i */\n      dup2\n        /* \"contracts/10.22.mappingwitharray.sol\":1008:1048  i < addressToValues[_address].length - 1 */\n      lt\n        /* \"contracts/10.22.mappingwitharray.sol\":958:1164  for (... */\n      iszero\n      tag_27\n      jumpi\n        /* \"contracts/10.22.mappingwitharray.sol\":1121:1136  addressToValues */\n      0x00\n        /* \"contracts/10.22.mappingwitharray.sol\":1121:1146  addressToValues[_address] */\n      0x00\n        /* \"contracts/10.22.mappingwitharray.sol\":1137:1145  _address */\n      dup5\n        /* \"contracts/10.22.mappingwitharray.sol\":1121:1146  addressToValues[_address] */\n      0xffffffffffffffffffffffffffffffffffffffff\n      and\n      0xffffffffffffffffffffffffffffffffffffffff\n      and\n      dup2\n      mstore\n      0x20\n      add\n      swap1\n      dup2\n      mstore\n      0x20\n      add\n      0x00\n      keccak256\n        /* \"contracts/10.22.mappingwitharray.sol\":1151:1152  1 */\n      0x01\n        /* \"contracts/10.22.mappingwitharray.sol\":1147:1148  i */\n      dup3\n        /* \"contracts/10.22.mappingwitharray.sol\":1147:1152  i + 1 */\n      tag_31\n      swap2\n      swap1\n      tag_32\n      jump\t// in\n    tag_31:\n        /* \"contracts/10.22.mappingwitharray.sol\":1121:1153  addressToValues[_address][i + 1] */\n      dup2\n      sload\n      dup2\n      lt\n      tag_33\n      jumpi\n      tag_34\n      tag_35\n      jump\t// in\n    tag_34:\n    tag_33:\n      swap1\n      0x00\n      mstore\n      keccak256(0x00, 0x20)\n      add\n      sload\n        /* \"contracts/10.22.mappingwitharray.sol\":1090:1105  addressToValues */\n      0x00\n        /* \"contracts/10.22.mappingwitharray.sol\":1090:1115  addressToValues[_address] */\n      0x00\n        /* \"contracts/10.22.mappingwitharray.sol\":1106:1114  _address */\n      dup6\n        /* \"contracts/10.22.mappingwitharray.sol\":1090:1115  addressToValues[_address] */\n      0xffffffffffffffffffffffffffffffffffffffff\n      and\n      0xffffffffffffffffffffffffffffffffffffffff\n      and\n      dup2\n      mstore\n      0x20\n      add\n      swap1\n      dup2\n      mstore\n      0x20\n      add\n      0x00\n      keccak256\n        /* \"contracts/10.22.mappingwitharray.sol\":1116:1117  i */\n      dup3\n        /* \"contracts/10.22.mappingwitharray.sol\":1090:1118  addressToValues[_address][i] */\n      dup2\n      sload\n      dup2\n      lt\n      tag_37\n      jumpi\n      tag_38\n      tag_35\n      jump\t// in\n    tag_38:\n    tag_37:\n      swap1\n      0x00\n      mstore\n      keccak256(0x00, 0x20)\n      add\n        /* \"contracts/10.22.mappingwitharray.sol\":1090:1153  addressToValues[_address][i] = addressToValues[_address][i + 1] */\n      dup2\n      swap1\n      sstore\n      pop\n        /* \"contracts/10.22.mappingwitharray.sol\":1062:1065  i++ */\n      dup1\n      dup1\n      0x01\n      add\n      swap2\n      pop\n      pop\n        /* \"contracts/10.22.mappingwitharray.sol\":958:1164  for (... */\n      jump(tag_26)\n    tag_27:\n      pop\n        /* \"contracts/10.22.mappingwitharray.sol\":1209:1224  addressToValues */\n      0x00\n        /* \"contracts/10.22.mappingwitharray.sol\":1209:1234  addressToValues[_address] */\n      0x00\n        /* \"contracts/10.22.mappingwitharray.sol\":1225:1233  _address */\n      dup4\n        /* \"contracts/10.22.mappingwitharray.sol\":1209:1234  addressToValues[_address] */\n      0xffffffffffffffffffffffffffffffffffffffff\n      and\n      0xffffffffffffffffffffffffffffffffffffffff\n      and\n      dup2\n      mstore\n      0x20\n      add\n      swap1\n      dup2\n      mstore\n      0x20\n      add\n      0x00\n      keccak256\n        /* \"contracts/10.22.mappingwitharray.sol\":1209:1240  addressToValues[_address].pop() */\n      dup1\n      sload\n      dup1\n      tag_40\n      jumpi\n      tag_41\n      tag_42\n      jump\t// in\n    tag_41:\n    tag_40:\n      0x01\n      swap1\n      sub\n      dup2\n      dup2\n      swap1\n      0x00\n      mstore\n      keccak256(0x00, 0x20)\n      add\n      0x00\n      swap1\n      sstore\n      swap1\n      sstore\n        /* \"contracts/10.22.mappingwitharray.sol\":695:1247  function removeValueAt(address _address, uint256 _index) public {... */\n      pop\n      pop\n      jump\t// out\n        /* \"contracts/10.22.mappingwitharray.sol\":279:393  function addValue(address _address, uint256 _value) public {... */\n    tag_18:\n        /* \"contracts/10.22.mappingwitharray.sol\":348:363  addressToValues */\n      0x00\n        /* \"contracts/10.22.mappingwitharray.sol\":348:373  addressToValues[_address] */\n      0x00\n        /* \"contracts/10.22.mappingwitharray.sol\":364:372  _address */\n      dup4\n        /* \"contracts/10.22.mappingwitharray.sol\":348:373  addressToValues[_address] */\n      0xffffffffffffffffffffffffffffffffffffffff\n      and\n      0xffffffffffffffffffffffffffffffffffffffff\n      and\n      dup2\n      mstore\n      0x20\n      add\n      swap1\n      dup2\n      mstore\n      0x20\n      add\n      0x00\n      keccak256\n        /* \"contracts/10.22.mappingwitharray.sol\":379:385  _value */\n      dup2\n        /* \"contracts/10.22.mappingwitharray.sol\":348:386  addressToValues[_address].push(_value) */\n      swap1\n      dup1\n      0x01\n      dup2\n      sload\n      add\n      dup1\n      dup3\n      sstore\n      dup1\n      swap2\n      pop\n      pop\n      0x01\n      swap1\n      sub\n      swap1\n      0x00\n      mstore\n      keccak256(0x00, 0x20)\n      add\n      0x00\n      swap1\n      swap2\n      swap1\n      swap2\n      swap1\n      swap2\n      pop\n      sstore\n        /* \"contracts/10.22.mappingwitharray.sol\":279:393  function addValue(address _address, uint256 _value) public {... */\n      pop\n      pop\n      jump\t// out\n        /* \"#utility.yul\":88:205   */\n    tag_47:\n        /* \"#utility.yul\":197:198   */\n      0x00\n        /* \"#utility.yul\":194:195   */\n      0x00\n        /* \"#utility.yul\":187:199   */\n      revert\n        /* \"#utility.yul\":334:460   */\n    tag_49:\n        /* \"#utility.yul\":371:378   */\n      0x00\n        /* \"#utility.yul\":411:453   */\n      0xffffffffffffffffffffffffffffffffffffffff\n        /* \"#utility.yul\":404:409   */\n      dup3\n        /* \"#utility.yul\":400:454   */\n      and\n        /* \"#utility.yul\":389:454   */\n      swap1\n      pop\n        /* \"#utility.yul\":334:460   */\n      swap2\n      swap1\n      pop\n      jump\t// out\n        /* \"#utility.yul\":466:562   */\n    tag_50:\n        /* \"#utility.yul\":503:510   */\n      0x00\n        /* \"#utility.yul\":532:556   */\n      tag_73\n        /* \"#utility.yul\":550:555   */\n      dup3\n        /* \"#utility.yul\":532:556   */\n      tag_49\n      jump\t// in\n    tag_73:\n        /* \"#utility.yul\":521:556   */\n      swap1\n      pop\n        /* \"#utility.yul\":466:562   */\n      swap2\n      swap1\n      pop\n      jump\t// out\n        /* \"#utility.yul\":568:690   */\n    tag_51:\n        /* \"#utility.yul\":641:665   */\n      tag_75\n        /* \"#utility.yul\":659:664   */\n      dup2\n        /* \"#utility.yul\":641:665   */\n      tag_50\n      jump\t// in\n    tag_75:\n        /* \"#utility.yul\":634:639   */\n      dup2\n        /* \"#utility.yul\":631:666   */\n      eq\n        /* \"#utility.yul\":621:684   */\n      tag_76\n      jumpi\n        /* \"#utility.yul\":680:681   */\n      0x00\n        /* \"#utility.yul\":677:678   */\n      0x00\n        /* \"#utility.yul\":670:682   */\n      revert\n        /* \"#utility.yul\":621:684   */\n    tag_76:\n        /* \"#utility.yul\":568:690   */\n      pop\n      jump\t// out\n        /* \"#utility.yul\":696:835   */\n    tag_52:\n        /* \"#utility.yul\":742:747   */\n      0x00\n        /* \"#utility.yul\":780:786   */\n      dup2\n        /* \"#utility.yul\":767:787   */\n      calldataload\n        /* \"#utility.yul\":758:787   */\n      swap1\n      pop\n        /* \"#utility.yul\":796:829   */\n      tag_78\n        /* \"#utility.yul\":823:828   */\n      dup2\n        /* \"#utility.yul\":796:829   */\n      tag_51\n      jump\t// in\n    tag_78:\n        /* \"#utility.yul\":696:835   */\n      swap3\n      swap2\n      pop\n      pop\n      jump\t// out\n        /* \"#utility.yul\":841:1170   */\n    tag_8:\n        /* \"#utility.yul\":900:906   */\n      0x00\n        /* \"#utility.yul\":949:951   */\n      0x20\n        /* \"#utility.yul\":937:946   */\n      dup3\n        /* \"#utility.yul\":928:935   */\n      dup5\n        /* \"#utility.yul\":924:947   */\n      sub\n        /* \"#utility.yul\":920:952   */\n      slt\n        /* \"#utility.yul\":917:1036   */\n      iszero\n      tag_80\n      jumpi\n        /* \"#utility.yul\":955:1034   */\n      tag_81\n      tag_47\n      jump\t// in\n    tag_81:\n        /* \"#utility.yul\":917:1036   */\n    tag_80:\n        /* \"#utility.yul\":1075:1076   */\n      0x00\n        /* \"#utility.yul\":1100:1153   */\n      tag_82\n        /* \"#utility.yul\":1145:1152   */\n      dup5\n        /* \"#utility.yul\":1136:1142   */\n      dup3\n        /* \"#utility.yul\":1125:1134   */\n      dup6\n        /* \"#utility.yul\":1121:1143   */\n      add\n        /* \"#utility.yul\":1100:1153   */\n      tag_52\n      jump\t// in\n    tag_82:\n        /* \"#utility.yul\":1090:1153   */\n      swap2\n      pop\n        /* \"#utility.yul\":1046:1163   */\n      pop\n        /* \"#utility.yul\":841:1170   */\n      swap3\n      swap2\n      pop\n      pop\n      jump\t// out\n        /* \"#utility.yul\":1176:1290   */\n    tag_53:\n        /* \"#utility.yul\":1243:1249   */\n      0x00\n        /* \"#utility.yul\":1277:1282   */\n      dup2\n        /* \"#utility.yul\":1271:1283   */\n      mload\n        /* \"#utility.yul\":1261:1283   */\n      swap1\n      pop\n        /* \"#utility.yul\":1176:1290   */\n      swap2\n      swap1\n      pop\n      jump\t// out\n        /* \"#utility.yul\":1296:1480   */\n    tag_54:\n        /* \"#utility.yul\":1395:1406   */\n      0x00\n        /* \"#utility.yul\":1429:1435   */\n      dup3\n        /* \"#utility.yul\":1424:1427   */\n      dup3\n        /* \"#utility.yul\":1417:1436   */\n      mstore\n        /* \"#utility.yul\":1469:1473   */\n      0x20\n        /* \"#utility.yul\":1464:1467   */\n      dup3\n        /* \"#utility.yul\":1460:1474   */\n      add\n        /* \"#utility.yul\":1445:1474   */\n      swap1\n      pop\n        /* \"#utility.yul\":1296:1480   */\n      swap3\n      swap2\n      pop\n      pop\n      jump\t// out\n        /* \"#utility.yul\":1486:1618   */\n    tag_55:\n        /* \"#utility.yul\":1553:1557   */\n      0x00\n        /* \"#utility.yul\":1576:1579   */\n      dup2\n        /* \"#utility.yul\":1568:1579   */\n      swap1\n      pop\n        /* \"#utility.yul\":1606:1610   */\n      0x20\n        /* \"#utility.yul\":1601:1604   */\n      dup3\n        /* \"#utility.yul\":1597:1611   */\n      add\n        /* \"#utility.yul\":1589:1611   */\n      swap1\n      pop\n        /* \"#utility.yul\":1486:1618   */\n      swap2\n      swap1\n      pop\n      jump\t// out\n        /* \"#utility.yul\":1624:1701   */\n    tag_56:\n        /* \"#utility.yul\":1661:1668   */\n      0x00\n        /* \"#utility.yul\":1690:1695   */\n      dup2\n        /* \"#utility.yul\":1679:1695   */\n      swap1\n      pop\n        /* \"#utility.yul\":1624:1701   */\n      swap2\n      swap1\n      pop\n      jump\t// out\n        /* \"#utility.yul\":1707:1815   */\n    tag_57:\n        /* \"#utility.yul\":1784:1808   */\n      tag_88\n        /* \"#utility.yul\":1802:1807   */\n      dup2\n        /* \"#utility.yul\":1784:1808   */\n      tag_56\n      jump\t// in\n    tag_88:\n        /* \"#utility.yul\":1779:1782   */\n      dup3\n        /* \"#utility.yul\":1772:1809   */\n      mstore\n        /* \"#utility.yul\":1707:1815   */\n      pop\n      pop\n      jump\t// out\n        /* \"#utility.yul\":1821:2000   */\n    tag_58:\n        /* \"#utility.yul\":1890:1900   */\n      0x00\n        /* \"#utility.yul\":1911:1957   */\n      tag_90\n        /* \"#utility.yul\":1953:1956   */\n      dup4\n        /* \"#utility.yul\":1945:1951   */\n      dup4\n        /* \"#utility.yul\":1911:1957   */\n      tag_57\n      jump\t// in\n    tag_90:\n        /* \"#utility.yul\":1989:1993   */\n      0x20\n        /* \"#utility.yul\":1984:1987   */\n      dup4\n        /* \"#utility.yul\":1980:1994   */\n      add\n        /* \"#utility.yul\":1966:1994   */\n      swap1\n      pop\n        /* \"#utility.yul\":1821:2000   */\n      swap3\n      swap2\n      pop\n      pop\n      jump\t// out\n        /* \"#utility.yul\":2006:2119   */\n    tag_59:\n        /* \"#utility.yul\":2076:2080   */\n      0x00\n        /* \"#utility.yul\":2108:2112   */\n      0x20\n        /* \"#utility.yul\":2103:2106   */\n      dup3\n        /* \"#utility.yul\":2099:2113   */\n      add\n        /* \"#utility.yul\":2091:2113   */\n      swap1\n      pop\n        /* \"#utility.yul\":2006:2119   */\n      swap2\n      swap1\n      pop\n      jump\t// out\n        /* \"#utility.yul\":2155:2887   */\n    tag_60:\n        /* \"#utility.yul\":2274:2277   */\n      0x00\n        /* \"#utility.yul\":2303:2357   */\n      tag_93\n        /* \"#utility.yul\":2351:2356   */\n      dup3\n        /* \"#utility.yul\":2303:2357   */\n      tag_53\n      jump\t// in\n    tag_93:\n        /* \"#utility.yul\":2373:2459   */\n      tag_94\n        /* \"#utility.yul\":2452:2458   */\n      dup2\n        /* \"#utility.yul\":2447:2450   */\n      dup6\n        /* \"#utility.yul\":2373:2459   */\n      tag_54\n      jump\t// in\n    tag_94:\n        /* \"#utility.yul\":2366:2459   */\n      swap4\n      pop\n        /* \"#utility.yul\":2483:2539   */\n      tag_95\n        /* \"#utility.yul\":2533:2538   */\n      dup4\n        /* \"#utility.yul\":2483:2539   */\n      tag_55\n      jump\t// in\n    tag_95:\n        /* \"#utility.yul\":2562:2569   */\n      dup1\n        /* \"#utility.yul\":2593:2594   */\n      0x00\n        /* \"#utility.yul\":2578:2862   */\n    tag_96:\n        /* \"#utility.yul\":2603:2609   */\n      dup4\n        /* \"#utility.yul\":2600:2601   */\n      dup2\n        /* \"#utility.yul\":2597:2610   */\n      lt\n        /* \"#utility.yul\":2578:2862   */\n      iszero\n      tag_98\n      jumpi\n        /* \"#utility.yul\":2679:2685   */\n      dup2\n        /* \"#utility.yul\":2673:2686   */\n      mload\n        /* \"#utility.yul\":2706:2769   */\n      tag_99\n        /* \"#utility.yul\":2765:2768   */\n      dup9\n        /* \"#utility.yul\":2750:2763   */\n      dup3\n        /* \"#utility.yul\":2706:2769   */\n      tag_58\n      jump\t// in\n    tag_99:\n        /* \"#utility.yul\":2699:2769   */\n      swap8\n      pop\n        /* \"#utility.yul\":2792:2852   */\n      tag_100\n        /* \"#utility.yul\":2845:2851   */\n      dup4\n        /* \"#utility.yul\":2792:2852   */\n      tag_59\n      jump\t// in\n    tag_100:\n        /* \"#utility.yul\":2782:2852   */\n      swap3\n      pop\n        /* \"#utility.yul\":2638:2862   */\n      pop\n        /* \"#utility.yul\":2625:2626   */\n      0x01\n        /* \"#utility.yul\":2622:2623   */\n      dup2\n        /* \"#utility.yul\":2618:2627   */\n      add\n        /* \"#utility.yul\":2613:2627   */\n      swap1\n      pop\n        /* \"#utility.yul\":2578:2862   */\n      jump(tag_96)\n    tag_98:\n        /* \"#utility.yul\":2582:2596   */\n      pop\n        /* \"#utility.yul\":2878:2881   */\n      dup6\n        /* \"#utility.yul\":2871:2881   */\n      swap4\n      pop\n        /* \"#utility.yul\":2279:2887   */\n      pop\n      pop\n      pop\n        /* \"#utility.yul\":2155:2887   */\n      swap3\n      swap2\n      pop\n      pop\n      jump\t// out\n        /* \"#utility.yul\":2893:3266   */\n    tag_11:\n        /* \"#utility.yul\":3036:3040   */\n      0x00\n        /* \"#utility.yul\":3074:3076   */\n      0x20\n        /* \"#utility.yul\":3063:3072   */\n      dup3\n        /* \"#utility.yul\":3059:3077   */\n      add\n        /* \"#utility.yul\":3051:3077   */\n      swap1\n      pop\n        /* \"#utility.yul\":3123:3132   */\n      dup2\n        /* \"#utility.yul\":3117:3121   */\n      dup2\n        /* \"#utility.yul\":3113:3133   */\n      sub\n        /* \"#utility.yul\":3109:3110   */\n      0x00\n        /* \"#utility.yul\":3098:3107   */\n      dup4\n        /* \"#utility.yul\":3094:3111   */\n      add\n        /* \"#utility.yul\":3087:3134   */\n      mstore\n        /* \"#utility.yul\":3151:3259   */\n      tag_102\n        /* \"#utility.yul\":3254:3258   */\n      dup2\n        /* \"#utility.yul\":3245:3251   */\n      dup5\n        /* \"#utility.yul\":3151:3259   */\n      tag_60\n      jump\t// in\n    tag_102:\n        /* \"#utility.yul\":3143:3259   */\n      swap1\n      pop\n        /* \"#utility.yul\":2893:3266   */\n      swap3\n      swap2\n      pop\n      pop\n      jump\t// out\n        /* \"#utility.yul\":3272:3394   */\n    tag_61:\n        /* \"#utility.yul\":3345:3369   */\n      tag_104\n        /* \"#utility.yul\":3363:3368   */\n      dup2\n        /* \"#utility.yul\":3345:3369   */\n      tag_56\n      jump\t// in\n    tag_104:\n        /* \"#utility.yul\":3338:3343   */\n      dup2\n        /* \"#utility.yul\":3335:3370   */\n      eq\n        /* \"#utility.yul\":3325:3388   */\n      tag_105\n      jumpi\n        /* \"#utility.yul\":3384:3385   */\n      0x00\n        /* \"#utility.yul\":3381:3382   */\n      0x00\n        /* \"#utility.yul\":3374:3386   */\n      revert\n        /* \"#utility.yul\":3325:3388   */\n    tag_105:\n        /* \"#utility.yul\":3272:3394   */\n      pop\n      jump\t// out\n        /* \"#utility.yul\":3400:3539   */\n    tag_62:\n        /* \"#utility.yul\":3446:3451   */\n      0x00\n        /* \"#utility.yul\":3484:3490   */\n      dup2\n        /* \"#utility.yul\":3471:3491   */\n      calldataload\n        /* \"#utility.yul\":3462:3491   */\n      swap1\n      pop\n        /* \"#utility.yul\":3500:3533   */\n      tag_107\n        /* \"#utility.yul\":3527:3532   */\n      dup2\n        /* \"#utility.yul\":3500:3533   */\n      tag_61\n      jump\t// in\n    tag_107:\n        /* \"#utility.yul\":3400:3539   */\n      swap3\n      swap2\n      pop\n      pop\n      jump\t// out\n        /* \"#utility.yul\":3545:4019   */\n    tag_14:\n        /* \"#utility.yul\":3613:3619   */\n      0x00\n        /* \"#utility.yul\":3621:3627   */\n      0x00\n        /* \"#utility.yul\":3670:3672   */\n      0x40\n        /* \"#utility.yul\":3658:3667   */\n      dup4\n        /* \"#utility.yul\":3649:3656   */\n      dup6\n        /* \"#utility.yul\":3645:3668   */\n      sub\n        /* \"#utility.yul\":3641:3673   */\n      slt\n        /* \"#utility.yul\":3638:3757   */\n      iszero\n      tag_109\n      jumpi\n        /* \"#utility.yul\":3676:3755   */\n      tag_110\n      tag_47\n      jump\t// in\n    tag_110:\n        /* \"#utility.yul\":3638:3757   */\n    tag_109:\n        /* \"#utility.yul\":3796:3797   */\n      0x00\n        /* \"#utility.yul\":3821:3874   */\n      tag_111\n        /* \"#utility.yul\":3866:3873   */\n      dup6\n        /* \"#utility.yul\":3857:3863   */\n      dup3\n        /* \"#utility.yul\":3846:3855   */\n      dup7\n        /* \"#utility.yul\":3842:3864   */\n      add\n        /* \"#utility.yul\":3821:3874   */\n      tag_52\n      jump\t// in\n    tag_111:\n        /* \"#utility.yul\":3811:3874   */\n      swap3\n      pop\n        /* \"#utility.yul\":3767:3884   */\n      pop\n        /* \"#utility.yul\":3923:3925   */\n      0x20\n        /* \"#utility.yul\":3949:4002   */\n      tag_112\n        /* \"#utility.yul\":3994:4001   */\n      dup6\n        /* \"#utility.yul\":3985:3991   */\n      dup3\n        /* \"#utility.yul\":3974:3983   */\n      dup7\n        /* \"#utility.yul\":3970:3992   */\n      add\n        /* \"#utility.yul\":3949:4002   */\n      tag_62\n      jump\t// in\n    tag_112:\n        /* \"#utility.yul\":3939:4002   */\n      swap2\n      pop\n        /* \"#utility.yul\":3894:4012   */\n      pop\n        /* \"#utility.yul\":3545:4019   */\n      swap3\n      pop\n      swap3\n      swap1\n      pop\n      jump\t// out\n        /* \"#utility.yul\":4025:4194   */\n    tag_63:\n        /* \"#utility.yul\":4109:4120   */\n      0x00\n        /* \"#utility.yul\":4143:4149   */\n      dup3\n        /* \"#utility.yul\":4138:4141   */\n      dup3\n        /* \"#utility.yul\":4131:4150   */\n      mstore\n        /* \"#utility.yul\":4183:4187   */\n      0x20\n        /* \"#utility.yul\":4178:4181   */\n      dup3\n        /* \"#utility.yul\":4174:4188   */\n      add\n        /* \"#utility.yul\":4159:4188   */\n      swap1\n      pop\n        /* \"#utility.yul\":4025:4194   */\n      swap3\n      swap2\n      pop\n      pop\n      jump\t// out\n        /* \"#utility.yul\":4200:4369   */\n    tag_64:\n        /* \"#utility.yul\":4340:4361   */\n      0x496e646578206f7574206f6620626f756e647300000000000000000000000000\n        /* \"#utility.yul\":4336:4337   */\n      0x00\n        /* \"#utility.yul\":4328:4334   */\n      dup3\n        /* \"#utility.yul\":4324:4338   */\n      add\n        /* \"#utility.yul\":4317:4362   */\n      mstore\n        /* \"#utility.yul\":4200:4369   */\n      pop\n      jump\t// out\n        /* \"#utility.yul\":4375:4741   */\n    tag_65:\n        /* \"#utility.yul\":4517:4520   */\n      0x00\n        /* \"#utility.yul\":4538:4605   */\n      tag_116\n        /* \"#utility.yul\":4602:4604   */\n      0x13\n        /* \"#utility.yul\":4597:4600   */\n      dup4\n        /* \"#utility.yul\":4538:4605   */\n      tag_63\n      jump\t// in\n    tag_116:\n        /* \"#utility.yul\":4531:4605   */\n      swap2\n      pop\n        /* \"#utility.yul\":4614:4707   */\n      tag_117\n        /* \"#utility.yul\":4703:4706   */\n      dup3\n        /* \"#utility.yul\":4614:4707   */\n      tag_64\n      jump\t// in\n    tag_117:\n        /* \"#utility.yul\":4732:4734   */\n      0x20\n        /* \"#utility.yul\":4727:4730   */\n      dup3\n        /* \"#utility.yul\":4723:4735   */\n      add\n        /* \"#utility.yul\":4716:4735   */\n      swap1\n      pop\n        /* \"#utility.yul\":4375:4741   */\n      swap2\n      swap1\n      pop\n      jump\t// out\n        /* \"#utility.yul\":4747:5166   */\n    tag_25:\n        /* \"#utility.yul\":4913:4917   */\n      0x00\n        /* \"#utility.yul\":4951:4953   */\n      0x20\n        /* \"#utility.yul\":4940:4949   */\n      dup3\n        /* \"#utility.yul\":4936:4954   */\n      add\n        /* \"#utility.yul\":4928:4954   */\n      swap1\n      pop\n        /* \"#utility.yul\":5000:5009   */\n      dup2\n        /* \"#utility.yul\":4994:4998   */\n      dup2\n        /* \"#utility.yul\":4990:5010   */\n      sub\n        /* \"#utility.yul\":4986:4987   */\n      0x00\n        /* \"#utility.yul\":4975:4984   */\n      dup4\n        /* \"#utility.yul\":4971:4988   */\n      add\n        /* \"#utility.yul\":4964:5011   */\n      mstore\n        /* \"#utility.yul\":5028:5159   */\n      tag_119\n        /* \"#utility.yul\":5154:5158   */\n      dup2\n        /* \"#utility.yul\":5028:5159   */\n      tag_65\n      jump\t// in\n    tag_119:\n        /* \"#utility.yul\":5020:5159   */\n      swap1\n      pop\n        /* \"#utility.yul\":4747:5166   */\n      swap2\n      swap1\n      pop\n      jump\t// out\n        /* \"#utility.yul\":5172:5352   */\n    tag_66:\n        /* \"#utility.yul\":5220:5297   */\n      0x4e487b7100000000000000000000000000000000000000000000000000000000\n        /* \"#utility.yul\":5217:5218   */\n      0x00\n        /* \"#utility.yul\":5210:5298   */\n      mstore\n        /* \"#utility.yul\":5317:5321   */\n      0x11\n        /* \"#utility.yul\":5314:5315   */\n      0x04\n        /* \"#utility.yul\":5307:5322   */\n      mstore\n        /* \"#utility.yul\":5341:5345   */\n      0x24\n        /* \"#utility.yul\":5338:5339   */\n      0x00\n        /* \"#utility.yul\":5331:5346   */\n      revert\n        /* \"#utility.yul\":5358:5552   */\n    tag_30:\n        /* \"#utility.yul\":5398:5402   */\n      0x00\n        /* \"#utility.yul\":5418:5438   */\n      tag_122\n        /* \"#utility.yul\":5436:5437   */\n      dup3\n        /* \"#utility.yul\":5418:5438   */\n      tag_56\n      jump\t// in\n    tag_122:\n        /* \"#utility.yul\":5413:5438   */\n      swap2\n      pop\n        /* \"#utility.yul\":5452:5472   */\n      tag_123\n        /* \"#utility.yul\":5470:5471   */\n      dup4\n        /* \"#utility.yul\":5452:5472   */\n      tag_56\n      jump\t// in\n    tag_123:\n        /* \"#utility.yul\":5447:5472   */\n      swap3\n      pop\n        /* \"#utility.yul\":5496:5497   */\n      dup3\n        /* \"#utility.yul\":5493:5494   */\n      dup3\n        /* \"#utility.yul\":5489:5498   */\n      sub\n        /* \"#utility.yul\":5481:5498   */\n      swap1\n      pop\n        /* \"#utility.yul\":5520:5521   */\n      dup2\n        /* \"#utility.yul\":5514:5518   */\n      dup2\n        /* \"#utility.yul\":5511:5522   */\n      gt\n        /* \"#utility.yul\":5508:5545   */\n      iszero\n      tag_124\n      jumpi\n        /* \"#utility.yul\":5525:5543   */\n      tag_125\n      tag_66\n      jump\t// in\n    tag_125:\n        /* \"#utility.yul\":5508:5545   */\n    tag_124:\n        /* \"#utility.yul\":5358:5552   */\n      swap3\n      swap2\n      pop\n      pop\n      jump\t// out\n        /* \"#utility.yul\":5558:5749   */\n    tag_32:\n        /* \"#utility.yul\":5598:5601   */\n      0x00\n        /* \"#utility.yul\":5617:5637   */\n      tag_127\n        /* \"#utility.yul\":5635:5636   */\n      dup3\n        /* \"#utility.yul\":5617:5637   */\n      tag_56\n      jump\t// in\n    tag_127:\n        /* \"#utility.yul\":5612:5637   */\n      swap2\n      pop\n        /* \"#utility.yul\":5651:5671   */\n      tag_128\n        /* \"#utility.yul\":5669:5670   */\n      dup4\n        /* \"#utility.yul\":5651:5671   */\n      tag_56\n      jump\t// in\n    tag_128:\n        /* \"#utility.yul\":5646:5671   */\n      swap3\n      pop\n        /* \"#utility.yul\":5694:5695   */\n      dup3\n        /* \"#utility.yul\":5691:5692   */\n      dup3\n        /* \"#utility.yul\":5687:5696   */\n      add\n        /* \"#utility.yul\":5680:5696   */\n      swap1\n      pop\n        /* \"#utility.yul\":5715:5718   */\n      dup1\n        /* \"#utility.yul\":5712:5713   */\n      dup3\n        /* \"#utility.yul\":5709:5719   */\n      gt\n        /* \"#utility.yul\":5706:5742   */\n      iszero\n      tag_129\n      jumpi\n        /* \"#utility.yul\":5722:5740   */\n      tag_130\n      tag_66\n      jump\t// in\n    tag_130:\n        /* \"#utility.yul\":5706:5742   */\n    tag_129:\n        /* \"#utility.yul\":5558:5749   */\n      swap3\n      swap2\n      pop\n      pop\n      jump\t// out\n        /* \"#utility.yul\":5755:5935   */\n    tag_35:\n        /* \"#utility.yul\":5803:5880   */\n      0x4e487b7100000000000000000000000000000000000000000000000000000000\n        /* \"#utility.yul\":5800:5801   */\n      0x00\n        /* \"#utility.yul\":5793:5881   */\n      mstore\n        /* \"#utility.yul\":5900:5904   */\n      0x32\n        /* \"#utility.yul\":5897:5898   */\n      0x04\n        /* \"#utility.yul\":5890:5905   */\n      mstore\n        /* \"#utility.yul\":5924:5928   */\n      0x24\n        /* \"#utility.yul\":5921:5922   */\n      0x00\n        /* \"#utility.yul\":5914:5929   */\n      revert\n        /* \"#utility.yul\":5941:6121   */\n    tag_42:\n        /* \"#utility.yul\":5989:6066   */\n      0x4e487b7100000000000000000000000000000000000000000000000000000000\n        /* \"#utility.yul\":5986:5987   */\n      0x00\n        /* \"#utility.yul\":5979:6067   */\n      mstore\n        /* \"#utility.yul\":6086:6090   */\n      0x31\n        /* \"#utility.yul\":6083:6084   */\n      0x04\n        /* \"#utility.yul\":6076:6091   */\n      mstore\n        /* \"#utility.yul\":6110:6114   */\n      0x24\n        /* \"#utility.yul\":6107:6108   */\n      0x00\n        /* \"#utility.yul\":6100:6115   */\n      revert\n\n    auxdata: 0xa26469706673582212209cd43a3bfc50eb2fa162f33ca342ba5d5c668a5809ea4ab7c8efbe2e7e211f7964736f6c634300081e0033\n}\n",
				"bytecode": {
					"linkReferences": {},
					"object": "6080604052348015600e575f5ffd5b506107148061001c5f395ff3fe608060405234801561000f575f5ffd5b506004361061003f575f3560e01c8063924f364d14610043578063b30dc2f714610073578063ca0b18781461008f575b5f5ffd5b61005d60048036038101906100589190610406565b6100ab565b60405161006a91906104f1565b60405180910390f35b61008d6004803603810190610088919061053b565b61013d565b005b6100a960048036038101906100a4919061053b565b610344565b005b60605f5f8373ffffffffffffffffffffffffffffffffffffffff1673ffffffffffffffffffffffffffffffffffffffff1681526020019081526020015f2080548060200260200160405190810160405280929190818152602001828054801561013157602002820191905f5260205f20905b81548152602001906001019080831161011d575b50505050509050919050565b5f5f8373ffffffffffffffffffffffffffffffffffffffff1673ffffffffffffffffffffffffffffffffffffffff1681526020019081526020015f208054905081106101be576040517f08c379a00000000000000000000000000000000000000000000000000000000081526004016101b5906105d3565b60405180910390fd5b5f8190505b60015f5f8573ffffffffffffffffffffffffffffffffffffffff1673ffffffffffffffffffffffffffffffffffffffff1681526020019081526020015f208054905061020f919061061e565b8110156102e0575f5f8473ffffffffffffffffffffffffffffffffffffffff1673ffffffffffffffffffffffffffffffffffffffff1681526020019081526020015f2060018261025f9190610651565b815481106102705761026f610684565b5b905f5260205f2001545f5f8573ffffffffffffffffffffffffffffffffffffffff1673ffffffffffffffffffffffffffffffffffffffff1681526020019081526020015f2082815481106102c7576102c6610684565b5b905f5260205f20018190555080806001019150506101c3565b505f5f8373ffffffffffffffffffffffffffffffffffffffff1673ffffffffffffffffffffffffffffffffffffffff1681526020019081526020015f2080548061032d5761032c6106b1565b5b600190038181905f5260205f20015f905590555050565b5f5f8373ffffffffffffffffffffffffffffffffffffffff1673ffffffffffffffffffffffffffffffffffffffff1681526020019081526020015f2081908060018154018082558091505060019003905f5260205f20015f90919091909150555050565b5f5ffd5b5f73ffffffffffffffffffffffffffffffffffffffff82169050919050565b5f6103d5826103ac565b9050919050565b6103e5816103cb565b81146103ef575f5ffd5b50565b5f81359050610400816103dc565b92915050565b5f6020828403121561041b5761041a6103a8565b5b5f610428848285016103f2565b91505092915050565b5f81519050919050565b5f82825260208201905092915050565b5f819050602082019050919050565b5f819050919050565b61046c8161045a565b82525050565b5f61047d8383610463565b60208301905092915050565b5f602082019050919050565b5f61049f82610431565b6104a9818561043b565b93506104b48361044b565b805f5b838110156104e45781516104cb8882610472565b97506104d683610489565b9250506001810190506104b7565b5085935050505092915050565b5f6020820190508181035f8301526105098184610495565b905092915050565b61051a8161045a565b8114610524575f5ffd5b50565b5f8135905061053581610511565b92915050565b5f5f60408385031215610551576105506103a8565b5b5f61055e858286016103f2565b925050602061056f85828601610527565b9150509250929050565b5f82825260208201905092915050565b7f496e646578206f7574206f6620626f756e6473000000000000000000000000005f82015250565b5f6105bd601383610579565b91506105c882610589565b602082019050919050565b5f6020820190508181035f8301526105ea816105b1565b9050919050565b7f4e487b71000000000000000000000000000000000000000000000000000000005f52601160045260245ffd5b5f6106288261045a565b91506106338361045a565b925082820390508181111561064b5761064a6105f1565b5b92915050565b5f61065b8261045a565b91506106668361045a565b925082820190508082111561067e5761067d6105f1565b5b92915050565b7f4e487b71000000000000000000000000000000000000000000000000000000005f52603260045260245ffd5b7f4e487b71000000000000000000000000000000000000000000000000000000005f52603160045260245ffdfea26469706673582212209cd43a3bfc50eb2fa162f33ca342ba5d5c668a5809ea4ab7c8efbe2e7e211f7964736f6c634300081e0033",
					"opcodes": "PUSH1 0x80 PUSH1 0x40 MSTORE CALLVALUE DUP1 ISZERO PUSH1 0xE JUMPI PUSH0 PUSH0 REVERT JUMPDEST POP PUSH2 0x714 DUP1 PUSH2 0x1C PUSH0 CODECOPY PUSH0 RETURN INVALID PUSH1 0x80 PUSH1 0x40 MSTORE CALLVALUE DUP1 ISZERO PUSH2 0xF JUMPI PUSH0 PUSH0 REVERT JUMPDEST POP PUSH1 0x4 CALLDATASIZE LT PUSH2 0x3F JUMPI PUSH0 CALLDATALOAD PUSH1 0xE0 SHR DUP1 PUSH4 0x924F364D EQ PUSH2 0x43 JUMPI DUP1 PUSH4 0xB30DC2F7 EQ PUSH2 0x73 JUMPI DUP1 PUSH4 0xCA0B1878 EQ PUSH2 0x8F JUMPI JUMPDEST PUSH0 PUSH0 REVERT JUMPDEST PUSH2 0x5D PUSH1 0x4 DUP1 CALLDATASIZE SUB DUP2 ADD SWAP1 PUSH2 0x58 SWAP2 SWAP1 PUSH2 0x406 JUMP JUMPDEST PUSH2 0xAB JUMP JUMPDEST PUSH1 0x40 MLOAD PUSH2 0x6A SWAP2 SWAP1 PUSH2 0x4F1 JUMP JUMPDEST PUSH1 0x40 MLOAD DUP1 SWAP2 SUB SWAP1 RETURN JUMPDEST PUSH2 0x8D PUSH1 0x4 DUP1 CALLDATASIZE SUB DUP2 ADD SWAP1 PUSH2 0x88 SWAP2 SWAP1 PUSH2 0x53B JUMP JUMPDEST PUSH2 0x13D JUMP JUMPDEST STOP JUMPDEST PUSH2 0xA9 PUSH1 0x4 DUP1 CALLDATASIZE SUB DUP2 ADD SWAP1 PUSH2 0xA4 SWAP2 SWAP1 PUSH2 0x53B JUMP JUMPDEST PUSH2 0x344 JUMP JUMPDEST STOP JUMPDEST PUSH1 0x60 PUSH0 PUSH0 DUP4 PUSH20 0xFFFFFFFFFFFFFFFFFFFFFFFFFFFFFFFFFFFFFFFF AND PUSH20 0xFFFFFFFFFFFFFFFFFFFFFFFFFFFFFFFFFFFFFFFF AND DUP2 MSTORE PUSH1 0x20 ADD SWAP1 DUP2 MSTORE PUSH1 0x20 ADD PUSH0 KECCAK256 DUP1 SLOAD DUP1 PUSH1 0x20 MUL PUSH1 0x20 ADD PUSH1 0x40 MLOAD SWAP1 DUP2 ADD PUSH1 0x40 MSTORE DUP1 SWAP3 SWAP2 SWAP1 DUP2 DUP2 MSTORE PUSH1 0x20 ADD DUP3 DUP1 SLOAD DUP1 ISZERO PUSH2 0x131 JUMPI PUSH1 0x20 MUL DUP3 ADD SWAP2 SWAP1 PUSH0 MSTORE PUSH1 0x20 PUSH0 KECCAK256 SWAP1 JUMPDEST DUP2 SLOAD DUP2 MSTORE PUSH1 0x20 ADD SWAP1 PUSH1 0x1 ADD SWAP1 DUP1 DUP4 GT PUSH2 0x11D JUMPI JUMPDEST POP POP POP POP POP SWAP1 POP SWAP2 SWAP1 POP JUMP JUMPDEST PUSH0 PUSH0 DUP4 PUSH20 0xFFFFFFFFFFFFFFFFFFFFFFFFFFFFFFFFFFFFFFFF AND PUSH20 0xFFFFFFFFFFFFFFFFFFFFFFFFFFFFFFFFFFFFFFFF AND DUP2 MSTORE PUSH1 0x20 ADD SWAP1 DUP2 MSTORE PUSH1 0x20 ADD PUSH0 KECCAK256 DUP1 SLOAD SWAP1 POP DUP2 LT PUSH2 0x1BE JUMPI PUSH1 0x40 MLOAD PUSH32 0x8C379A000000000000000000000000000000000000000000000000000000000 DUP2 MSTORE PUSH1 0x4 ADD PUSH2 0x1B5 SWAP1 PUSH2 0x5D3 JUMP JUMPDEST PUSH1 0x40 MLOAD DUP1 SWAP2 SUB SWAP1 REVERT JUMPDEST PUSH0 DUP2 SWAP1 POP JUMPDEST PUSH1 0x1 PUSH0 PUSH0 DUP6 PUSH20 0xFFFFFFFFFFFFFFFFFFFFFFFFFFFFFFFFFFFFFFFF AND PUSH20 0xFFFFFFFFFFFFFFFFFFFFFFFFFFFFFFFFFFFFFFFF AND DUP2 MSTORE PUSH1 0x20 ADD SWAP1 DUP2 MSTORE PUSH1 0x20 ADD PUSH0 KECCAK256 DUP1 SLOAD SWAP1 POP PUSH2 0x20F SWAP2 SWAP1 PUSH2 0x61E JUMP JUMPDEST DUP2 LT ISZERO PUSH2 0x2E0 JUMPI PUSH0 PUSH0 DUP5 PUSH20 0xFFFFFFFFFFFFFFFFFFFFFFFFFFFFFFFFFFFFFFFF AND PUSH20 0xFFFFFFFFFFFFFFFFFFFFFFFFFFFFFFFFFFFFFFFF AND DUP2 MSTORE PUSH1 0x20 ADD SWAP1 DUP2 MSTORE PUSH1 0x20 ADD PUSH0 KECCAK256 PUSH1 0x1 DUP3 PUSH2 0x25F SWAP2 SWAP1 PUSH2 0x651 JUMP JUMPDEST DUP2 SLOAD DUP2 LT PUSH2 0x270 JUMPI PUSH2 0x26F PUSH2 0x684 JUMP JUMPDEST JUMPDEST SWAP1 PUSH0 MSTORE PUSH1 0x20 PUSH0 KECCAK256 ADD SLOAD PUSH0 PUSH0 DUP6 PUSH20 0xFFFFFFFFFFFFFFFFFFFFFFFFFFFFFFFFFFFFFFFF AND PUSH20 0xFFFFFFFFFFFFFFFFFFFFFFFFFFFFFFFFFFFFFFFF AND DUP2 MSTORE PUSH1 0x20 ADD SWAP1 DUP2 MSTORE PUSH1 0x20 ADD PUSH0 KECCAK256 DUP3 DUP2 SLOAD DUP2 LT PUSH2 0x2C7 JUMPI PUSH2 0x2C6 PUSH2 0x684 JUMP JUMPDEST JUMPDEST SWAP1 PUSH0 MSTORE PUSH1 0x20 PUSH0 KECCAK256 ADD DUP2 SWAP1 SSTORE POP DUP1 DUP1 PUSH1 0x1 ADD SWAP2 POP POP PUSH2 0x1C3 JUMP JUMPDEST POP PUSH0 PUSH0 DUP4 PUSH20 0xFFFFFFFFFFFFFFFFFFFFFFFFFFFFFFFFFFFFFFFF AND PUSH20 0xFFFFFFFFFFFFFFFFFFFFFFFFFFFFFFFFFFFFFFFF AND DUP2 MSTORE PUSH1 0x20 ADD SWAP1 DUP2 MSTORE PUSH1 0x20 ADD PUSH0 KECCAK256 DUP1 SLOAD DUP1 PUSH2 0x32D JUMPI PUSH2 0x32C PUSH2 0x6B1 JUMP JUMPDEST JUMPDEST PUSH1 0x1 SWAP1 SUB DUP2 DUP2 SWAP1 PUSH0 MSTORE PUSH1 0x20 PUSH0 KECCAK256 ADD PUSH0 SWAP1 SSTORE SWAP1 SSTORE POP POP JUMP JUMPDEST PUSH0 PUSH0 DUP4 PUSH20 0xFFFFFFFFFFFFFFFFFFFFFFFFFFFFFFFFFFFFFFFF AND PUSH20 0xFFFFFFFFFFFFFFFFFFFFFFFFFFFFFFFFFFFFFFFF AND DUP2 MSTORE PUSH1 0x20 ADD SWAP1 DUP2 MSTORE PUSH1 0x20 ADD PUSH0 KECCAK256 DUP2 SWAP1 DUP1 PUSH1 0x1 DUP2 SLOAD ADD DUP1 DUP3 SSTORE DUP1 SWAP2 POP POP PUSH1 0x1 SWAP1 SUB SWAP1 PUSH0 MSTORE PUSH1 0x20 PUSH0 KECCAK256 ADD PUSH0 SWAP1 SWAP2 SWAP1 SWAP2 SWAP1 SWAP2 POP SSTORE POP POP JUMP JUMPDEST PUSH0 PUSH0 REVERT JUMPDEST PUSH0 PUSH20 0xFFFFFFFFFFFFFFFFFFFFFFFFFFFFFFFFFFFFFFFF DUP3 AND SWAP1 POP SWAP2 SWAP1 POP JUMP JUMPDEST PUSH0 PUSH2 0x3D5 DUP3 PUSH2 0x3AC JUMP JUMPDEST SWAP1 POP SWAP2 SWAP1 POP JUMP JUMPDEST PUSH2 0x3E5 DUP2 PUSH2 0x3CB JUMP JUMPDEST DUP2 EQ PUSH2 0x3EF JUMPI PUSH0 PUSH0 REVERT JUMPDEST POP JUMP JUMPDEST PUSH0 DUP2 CALLDATALOAD SWAP1 POP PUSH2 0x400 DUP2 PUSH2 0x3DC JUMP JUMPDEST SWAP3 SWAP2 POP POP JUMP JUMPDEST PUSH0 PUSH1 0x20 DUP3 DUP5 SUB SLT ISZERO PUSH2 0x41B JUMPI PUSH2 0x41A PUSH2 0x3A8 JUMP JUMPDEST JUMPDEST PUSH0 PUSH2 0x428 DUP5 DUP3 DUP6 ADD PUSH2 0x3F2 JUMP JUMPDEST SWAP2 POP POP SWAP3 SWAP2 POP POP JUMP JUMPDEST PUSH0 DUP2 MLOAD SWAP1 POP SWAP2 SWAP1 POP JUMP JUMPDEST PUSH0 DUP3 DUP3 MSTORE PUSH1 0x20 DUP3 ADD SWAP1 POP SWAP3 SWAP2 POP POP JUMP JUMPDEST PUSH0 DUP2 SWAP1 POP PUSH1 0x20 DUP3 ADD SWAP1 POP SWAP2 SWAP1 POP JUMP JUMPDEST PUSH0 DUP2 SWAP1 POP SWAP2 SWAP1 POP JUMP JUMPDEST PUSH2 0x46C DUP2 PUSH2 0x45A JUMP JUMPDEST DUP3 MSTORE POP POP JUMP JUMPDEST PUSH0 PUSH2 0x47D DUP4 DUP4 PUSH2 0x463 JUMP JUMPDEST PUSH1 0x20 DUP4 ADD SWAP1 POP SWAP3 SWAP2 POP POP JUMP JUMPDEST PUSH0 PUSH1 0x20 DUP3 ADD SWAP1 POP SWAP2 SWAP1 POP JUMP JUMPDEST PUSH0 PUSH2 0x49F DUP3 PUSH2 0x431 JUMP JUMPDEST PUSH2 0x4A9 DUP2 DUP6 PUSH2 0x43B JUMP JUMPDEST SWAP4 POP PUSH2 0x4B4 DUP4 PUSH2 0x44B JUMP JUMPDEST DUP1 PUSH0 JUMPDEST DUP4 DUP2 LT ISZERO PUSH2 0x4E4 JUMPI DUP2 MLOAD PUSH2 0x4CB DUP9 DUP3 PUSH2 0x472 JUMP JUMPDEST SWAP8 POP PUSH2 0x4D6 DUP4 PUSH2 0x489 JUMP JUMPDEST SWAP3 POP POP PUSH1 0x1 DUP2 ADD SWAP1 POP PUSH2 0x4B7 JUMP JUMPDEST POP DUP6 SWAP4 POP POP POP POP SWAP3 SWAP2 POP POP JUMP JUMPDEST PUSH0 PUSH1 0x20 DUP3 ADD SWAP1 POP DUP2 DUP2 SUB PUSH0 DUP4 ADD MSTORE PUSH2 0x509 DUP2 DUP5 PUSH2 0x495 JUMP JUMPDEST SWAP1 POP SWAP3 SWAP2 POP POP JUMP JUMPDEST PUSH2 0x51A DUP2 PUSH2 0x45A JUMP JUMPDEST DUP2 EQ PUSH2 0x524 JUMPI PUSH0 PUSH0 REVERT JUMPDEST POP JUMP JUMPDEST PUSH0 DUP2 CALLDATALOAD SWAP1 POP PUSH2 0x535 DUP2 PUSH2 0x511 JUMP JUMPDEST SWAP3 SWAP2 POP POP JUMP JUMPDEST PUSH0 PUSH0 PUSH1 0x40 DUP4 DUP6 SUB SLT ISZERO PUSH2 0x551 JUMPI PUSH2 0x550 PUSH2 0x3A8 JUMP JUMPDEST JUMPDEST PUSH0 PUSH2 0x55E DUP6 DUP3 DUP7 ADD PUSH2 0x3F2 JUMP JUMPDEST SWAP3 POP POP PUSH1 0x20 PUSH2 0x56F DUP6 DUP3 DUP7 ADD PUSH2 0x527 JUMP JUMPDEST SWAP2 POP POP SWAP3 POP SWAP3 SWAP1 POP JUMP JUMPDEST PUSH0 DUP3 DUP3 MSTORE PUSH1 0x20 DUP3 ADD SWAP1 POP SWAP3 SWAP2 POP POP JUMP JUMPDEST PUSH32 0x496E646578206F7574206F6620626F756E647300000000000000000000000000 PUSH0 DUP3 ADD MSTORE POP JUMP JUMPDEST PUSH0 PUSH2 0x5BD PUSH1 0x13 DUP4 PUSH2 0x579 JUMP JUMPDEST SWAP2 POP PUSH2 0x5C8 DUP3 PUSH2 0x589 JUMP JUMPDEST PUSH1 0x20 DUP3 ADD SWAP1 POP SWAP2 SWAP1 POP JUMP JUMPDEST PUSH0 PUSH1 0x20 DUP3 ADD SWAP1 POP DUP2 DUP2 SUB PUSH0 DUP4 ADD MSTORE PUSH2 0x5EA DUP2 PUSH2 0x5B1 JUMP JUMPDEST SWAP1 POP SWAP2 SWAP1 POP JUMP JUMPDEST PUSH32 0x4E487B7100000000000000000000000000000000000000000000000000000000 PUSH0 MSTORE PUSH1 0x11 PUSH1 0x4 MSTORE PUSH1 0x24 PUSH0 REVERT JUMPDEST PUSH0 PUSH2 0x628 DUP3 PUSH2 0x45A JUMP JUMPDEST SWAP2 POP PUSH2 0x633 DUP4 PUSH2 0x45A JUMP JUMPDEST SWAP3 POP DUP3 DUP3 SUB SWAP1 POP DUP2 DUP2 GT ISZERO PUSH2 0x64B JUMPI PUSH2 0x64A PUSH2 0x5F1 JUMP JUMPDEST JUMPDEST SWAP3 SWAP2 POP POP JUMP JUMPDEST PUSH0 PUSH2 0x65B DUP3 PUSH2 0x45A JUMP JUMPDEST SWAP2 POP PUSH2 0x666 DUP4 PUSH2 0x45A JUMP JUMPDEST SWAP3 POP DUP3 DUP3 ADD SWAP1 POP DUP1 DUP3 GT ISZERO PUSH2 0x67E JUMPI PUSH2 0x67D PUSH2 0x5F1 JUMP JUMPDEST JUMPDEST SWAP3 SWAP2 POP POP JUMP JUMPDEST PUSH32 0x4E487B7100000000000000000000000000000000000000000000000000000000 PUSH0 MSTORE PUSH1 0x32 PUSH1 0x4 MSTORE PUSH1 0x24 PUSH0 REVERT JUMPDEST PUSH32 0x4E487B7100000000000000000000000000000000000000000000000000000000 PUSH0 MSTORE PUSH1 0x31 PUSH1 0x4 MSTORE PUSH1 0x24 PUSH0 REVERT INVALID LOG2 PUSH5 0x6970667358 0x22 SLT KECCAK256 SWAP13 0xD4 GASPRICE EXTCODESIZE 0xFC POP 0xEB 0x2F LOG1 PUSH3 0xF33CA3 TIMESTAMP 0xBA TSTORE TLOAD PUSH7 0x8A5809EA4AB7C8 0xEF 0xBE 0x2E PUSH31 0x211F7964736F6C634300081E00330000000000000000000000000000000000 "
				},
				"gasEstimates": {
					"creation": {
						"codeDepositCost": "362400",
						"executionCost": "397",
						"totalCost": "362797"
					},
					"external": {
						"addValue(address,uint256)": "47148",
						"getValues(address)": "infinite",
						"removeValueAt(address,uint256)": "infinite"
					}
				},
				"methodIdentifiers": {
					"addValue(address,uint256)": "ca0b1878",
					"getValues(address)": "924f364d",
					"removeValueAt(address,uint256)": "b30dc2f7"
				}
			},
			"storageLayout": {
				"storage": [
					{
						"astId": 6,
						"contract": "contracts/10.22.mappingwitharray.sol:AddressToArrayMapping",
						"label": "addressToValues",
						"offset": 0,
						"slot": "0",
						"type": "t_mapping(t_address,t_array(t_uint256)dyn_storage)"
					}
				],
				"types": {
					"t_address": {
						"encoding": "inplace",
						"label": "address",
						"numberOfBytes": "20"
					},
					"t_array(t_uint256)dyn_storage": {
						"base": "t_uint256",
						"encoding": "dynamic_array",
						"label": "uint256[]",
						"numberOfBytes": "32"
					},
					"t_mapping(t_address,t_array(t_uint256)dyn_storage)": {
						"encoding": "mapping",
						"key": "t_address",
						"label": "mapping(address => uint256[])",
						"numberOfBytes": "32",
						"value": "t_array(t_uint256)dyn_storage"
					},
					"t_uint256": {
						"encoding": "inplace",
						"label": "uint256",
						"numberOfBytes": "32"
					}
				}
			},
			"userdoc": {
				"kind": "user",
				"methods": {},
				"version": 1
			}
		}
	}
}