{
	"contracts/onchain.sol": {
		"PollingApp": {
			"abi": [
				{
					"anonymous": false,
					"inputs": [
						{
							"indexed": true,
							"internalType": "uint256",
							"name": "questionId",
							"type": "uint256"
						},
						{
							"indexed": true,
							"internalType": "address",
							"name": "creator",
							"type": "address"
						},
						{
							"indexed": false,
							"internalType": "string",
							"name": "ipfsHash",
							"type": "string"
						},
						{
							"indexed": false,
							"internalType": "enum PollingApp.QuestionType",
							"name": "qType",
							"type": "uint8"
						},
						{
							"indexed": false,
							"internalType": "uint256",
							"name": "deadline",
							"type": "uint256"
						},
						{
							"indexed": false,
							"internalType": "uint8",
							"name": "category",
							"type": "uint8"
						}
					],
					"name": "QuestionCreated",
					"type": "event"
				},
				{
					"anonymous": false,
					"inputs": [
						{
							"indexed": true,
							"internalType": "uint256",
							"name": "questionId",
							"type": "uint256"
						},
						{
							"indexed": true,
							"internalType": "address",
							"name": "upvoter",
							"type": "address"
						}
					],
					"name": "Upvoted",
					"type": "event"
				},
				{
					"anonymous": false,
					"inputs": [
						{
							"indexed": true,
							"internalType": "uint256",
							"name": "questionId",
							"type": "uint256"
						},
						{
							"indexed": true,
							"internalType": "address",
							"name": "voter",
							"type": "address"
						},
						{
							"indexed": false,
							"internalType": "uint256[]",
							"name": "selectedOptions",
							"type": "uint256[]"
						}
					],
					"name": "Voted",
					"type": "event"
				},
				{
					"inputs": [
						{
							"internalType": "string",
							"name": "_ipfsHash",
							"type": "string"
						},
						{
							"internalType": "enum PollingApp.QuestionType",
							"name": "_qType",
							"type": "uint8"
						},
						{
							"internalType": "uint256",
							"name": "_deadline",
							"type": "uint256"
						},
						{
							"internalType": "uint8",
							"name": "_category",
							"type": "uint8"
						}
					],
					"name": "createQuestion",
					"outputs": [],
					"stateMutability": "nonpayable",
					"type": "function"
				},
				{
					"inputs": [
						{
							"internalType": "uint256",
							"name": "",
							"type": "uint256"
						},
						{
							"internalType": "address",
							"name": "",
							"type": "address"
						}
					],
					"name": "hasUpvoted",
					"outputs": [
						{
							"internalType": "bool",
							"name": "",
							"type": "bool"
						}
					],
					"stateMutability": "view",
					"type": "function"
				},
				{
					"inputs": [
						{
							"internalType": "uint256",
							"name": "",
							"type": "uint256"
						},
						{
							"internalType": "address",
							"name": "",
							"type": "address"
						}
					],
					"name": "hasVoted",
					"outputs": [
						{
							"internalType": "bool",
							"name": "",
							"type": "bool"
						}
					],
					"stateMutability": "view",
					"type": "function"
				},
				{
					"inputs": [],
					"name": "nextQuestionId",
					"outputs": [
						{
							"internalType": "uint256",
							"name": "",
							"type": "uint256"
						}
					],
					"stateMutability": "view",
					"type": "function"
				},
				{
					"inputs": [
						{
							"internalType": "uint256",
							"name": "",
							"type": "uint256"
						}
					],
					"name": "questions",
					"outputs": [
						{
							"internalType": "address",
							"name": "creator",
							"type": "address"
						},
						{
							"internalType": "string",
							"name": "ipfsHash",
							"type": "string"
						},
						{
							"internalType": "enum PollingApp.QuestionType",
							"name": "qType",
							"type": "uint8"
						},
						{
							"internalType": "uint256",
							"name": "deadline",
							"type": "uint256"
						},
						{
							"internalType": "uint8",
							"name": "category",
							"type": "uint8"
						},
						{
							"internalType": "uint256",
							"name": "voteCount",
							"type": "uint256"
						},
						{
							"internalType": "uint256",
							"name": "upvoteCount",
							"type": "uint256"
						},
						{
							"internalType": "bool",
							"name": "exists",
							"type": "bool"
						}
					],
					"stateMutability": "view",
					"type": "function"
				},
				{
					"inputs": [
						{
							"internalType": "uint256",
							"name": "_questionId",
							"type": "uint256"
						}
					],
					"name": "upvote",
					"outputs": [],
					"stateMutability": "nonpayable",
					"type": "function"
				},
				{
					"inputs": [
						{
							"internalType": "uint256",
							"name": "_questionId",
							"type": "uint256"
						},
						{
							"internalType": "uint256[]",
							"name": "_selectedOptions",
							"type": "uint256[]"
						}
					],
					"name": "vote",
					"outputs": [],
					"stateMutability": "nonpayable",
					"type": "function"
				}
			],
			"devdoc": {
				"details": "Decentralized Polling Smart Contract",
				"kind": "dev",
				"methods": {
					"createQuestion(string,uint8,uint256,uint8)": {
						"details": "Create a new poll/question",
						"params": {
							"_category": "Predefined category ID",
							"_deadline": "Timestamp when voting ends",
							"_ipfsHash": "CID from IPFS containing question text and options",
							"_qType": "Type of the question (YesNo, Single, Multiple)"
						}
					},
					"upvote(uint256)": {
						"details": "Upvote a specific question",
						"params": {
							"_questionId": "ID of the question"
						}
					},
					"vote(uint256,uint256[])": {
						"details": "Vote on a specific question",
						"params": {
							"_questionId": "ID of the question",
							"_selectedOptions": "Array of selected option indices"
						}
					}
				},
				"title": "PollingApp",
				"version": 1
			},
			"evm": {
				"assembly": "    /* \"contracts/onchain.sol\":139:3780  contract PollingApp {... */\n  mstore(0x40, 0x80)\n  callvalue\n  dup1\n  iszero\n  tag_1\n  jumpi\n  revert(0x00, 0x00)\ntag_1:\n  pop\n  dataSize(sub_0)\n  dup1\n  dataOffset(sub_0)\n  0x00\n  codecopy\n  0x00\n  return\nstop\n\nsub_0: assembly {\n        /* \"contracts/onchain.sol\":139:3780  contract PollingApp {... */\n      mstore(0x40, 0x80)\n      callvalue\n      dup1\n      iszero\n      tag_1\n      jumpi\n      revert(0x00, 0x00)\n    tag_1:\n      pop\n      jumpi(tag_2, lt(calldatasize, 0x04))\n      shr(0xe0, calldataload(0x00))\n      dup1\n      0x7055d368\n      gt\n      tag_10\n      jumpi\n      dup1\n      0x7055d368\n      eq\n      tag_6\n      jumpi\n      dup1\n      0xa52c8658\n      eq\n      tag_7\n      jumpi\n      dup1\n      0xa6794cd5\n      eq\n      tag_8\n      jumpi\n      dup1\n      0xeb264b9c\n      eq\n      tag_9\n      jumpi\n      jump(tag_2)\n    tag_10:\n      dup1\n      0x01ddf070\n      eq\n      tag_3\n      jumpi\n      dup1\n      0x31b1b978\n      eq\n      tag_4\n      jumpi\n      dup1\n      0x43859632\n      eq\n      tag_5\n      jumpi\n    tag_2:\n      revert(0x00, 0x00)\n        /* \"contracts/onchain.sol\":3408:3777  function upvote(uint256 _questionId) external {... */\n    tag_3:\n      tag_11\n      0x04\n      dup1\n      calldatasize\n      sub\n      dup2\n      add\n      swap1\n      tag_12\n      swap2\n      swap1\n      tag_13\n      jump\t// in\n    tag_12:\n      tag_14\n      jump\t// in\n    tag_11:\n      stop\n        /* \"contracts/onchain.sol\":529:574  mapping(uint256 => Question) public questions */\n    tag_4:\n      tag_15\n      0x04\n      dup1\n      calldatasize\n      sub\n      dup2\n      add\n      swap1\n      tag_16\n      swap2\n      swap1\n      tag_13\n      jump\t// in\n    tag_16:\n      tag_17\n      jump\t// in\n    tag_15:\n      mload(0x40)\n      tag_18\n      swap9\n      swap8\n      swap7\n      swap6\n      swap5\n      swap4\n      swap3\n      swap2\n      swap1\n      tag_19\n      jump\t// in\n    tag_18:\n      mload(0x40)\n      dup1\n      swap2\n      sub\n      swap1\n      return\n        /* \"contracts/onchain.sol\":645:705  mapping(uint256 => mapping(address => bool)) public hasVoted */\n    tag_5:\n      tag_20\n      0x04\n      dup1\n      calldatasize\n      sub\n      dup2\n      add\n      swap1\n      tag_21\n      swap2\n      swap1\n      tag_22\n      jump\t// in\n    tag_21:\n      tag_23\n      jump\t// in\n    tag_20:\n      mload(0x40)\n      tag_24\n      swap2\n      swap1\n      tag_25\n      jump\t// in\n    tag_24:\n      mload(0x40)\n      dup1\n      swap2\n      sub\n      swap1\n      return\n        /* \"contracts/onchain.sol\":2558:3296  function vote(uint256 _questionId, uint256[] calldata _selectedOptions) external {... */\n    tag_6:\n      tag_26\n      0x04\n      dup1\n      calldatasize\n      sub\n      dup2\n      add\n      swap1\n      tag_27\n      swap2\n      swap1\n      tag_28\n      jump\t// in\n    tag_27:\n      tag_29\n      jump\t// in\n    tag_26:\n      stop\n        /* \"contracts/onchain.sol\":778:840  mapping(uint256 => mapping(address => bool)) public hasUpvoted */\n    tag_7:\n      tag_30\n      0x04\n      dup1\n      calldatasize\n      sub\n      dup2\n      add\n      swap1\n      tag_31\n      swap2\n      swap1\n      tag_22\n      jump\t// in\n    tag_31:\n      tag_32\n      jump\t// in\n    tag_30:\n      mload(0x40)\n      tag_33\n      swap2\n      swap1\n      tag_25\n      jump\t// in\n    tag_33:\n      mload(0x40)\n      dup1\n      swap2\n      sub\n      swap1\n      return\n        /* \"contracts/onchain.sol\":1641:2380  function createQuestion(... */\n    tag_8:\n      tag_34\n      0x04\n      dup1\n      calldatasize\n      sub\n      dup2\n      add\n      swap1\n      tag_35\n      swap2\n      swap1\n      tag_36\n      jump\t// in\n    tag_35:\n      tag_37\n      jump\t// in\n    tag_34:\n      stop\n        /* \"contracts/onchain.sol\":853:882  uint256 public nextQuestionId */\n    tag_9:\n      tag_38\n      tag_39\n      jump\t// in\n    tag_38:\n      mload(0x40)\n      tag_40\n      swap2\n      swap1\n      tag_41\n      jump\t// in\n    tag_40:\n      mload(0x40)\n      dup1\n      swap2\n      sub\n      swap1\n      return\n        /* \"contracts/onchain.sol\":3408:3777  function upvote(uint256 _questionId) external {... */\n    tag_14:\n        /* \"contracts/onchain.sol\":3465:3483  Question storage q */\n      0x00\n        /* \"contracts/onchain.sol\":3486:3495  questions */\n      0x00\n        /* \"contracts/onchain.sol\":3486:3508  questions[_questionId] */\n      0x00\n        /* \"contracts/onchain.sol\":3496:3507  _questionId */\n      dup4\n        /* \"contracts/onchain.sol\":3486:3508  questions[_questionId] */\n      dup2\n      mstore\n      0x20\n      add\n      swap1\n      dup2\n      mstore\n      0x20\n      add\n      0x00\n      keccak256\n        /* \"contracts/onchain.sol\":3465:3508  Question storage q = questions[_questionId] */\n      swap1\n      pop\n        /* \"contracts/onchain.sol\":3527:3528  q */\n      dup1\n        /* \"contracts/onchain.sol\":3527:3535  q.exists */\n      0x07\n      add\n      0x00\n      swap1\n      sload\n      swap1\n      0x0100\n      exp\n      swap1\n      div\n      0xff\n      and\n        /* \"contracts/onchain.sol\":3519:3563  require(q.exists, \"Question does not exist\") */\n      tag_43\n      jumpi\n      mload(0x40)\n      0x08c379a000000000000000000000000000000000000000000000000000000000\n      dup2\n      mstore\n      0x04\n      add\n      tag_44\n      swap1\n      tag_45\n      jump\t// in\n    tag_44:\n      mload(0x40)\n      dup1\n      swap2\n      sub\n      swap1\n      revert\n    tag_43:\n        /* \"contracts/onchain.sol\":3583:3593  hasUpvoted */\n      0x02\n        /* \"contracts/onchain.sol\":3583:3606  hasUpvoted[_questionId] */\n      0x00\n        /* \"contracts/onchain.sol\":3594:3605  _questionId */\n      dup4\n        /* \"contracts/onchain.sol\":3583:3606  hasUpvoted[_questionId] */\n      dup2\n      mstore\n      0x20\n      add\n      swap1\n      dup2\n      mstore\n      0x20\n      add\n      0x00\n      keccak256\n        /* \"contracts/onchain.sol\":3583:3618  hasUpvoted[_questionId][msg.sender] */\n      0x00\n        /* \"contracts/onchain.sol\":3607:3617  msg.sender */\n      caller\n        /* \"contracts/onchain.sol\":3583:3618  hasUpvoted[_questionId][msg.sender] */\n      0xffffffffffffffffffffffffffffffffffffffff\n      and\n      0xffffffffffffffffffffffffffffffffffffffff\n      and\n      dup2\n      mstore\n      0x20\n      add\n      swap1\n      dup2\n      mstore\n      0x20\n      add\n      0x00\n      keccak256\n      0x00\n      swap1\n      sload\n      swap1\n      0x0100\n      exp\n      swap1\n      div\n      0xff\n      and\n        /* \"contracts/onchain.sol\":3582:3618  !hasUpvoted[_questionId][msg.sender] */\n      iszero\n        /* \"contracts/onchain.sol\":3574:3638  require(!hasUpvoted[_questionId][msg.sender], \"Already upvoted\") */\n      tag_46\n      jumpi\n      mload(0x40)\n      0x08c379a000000000000000000000000000000000000000000000000000000000\n      dup2\n      mstore\n      0x04\n      add\n      tag_47\n      swap1\n      tag_48\n      jump\t// in\n    tag_47:\n      mload(0x40)\n      dup1\n      swap2\n      sub\n      swap1\n      revert\n    tag_46:\n        /* \"contracts/onchain.sol\":3689:3693  true */\n      0x01\n        /* \"contracts/onchain.sol\":3651:3661  hasUpvoted */\n      0x02\n        /* \"contracts/onchain.sol\":3651:3674  hasUpvoted[_questionId] */\n      0x00\n        /* \"contracts/onchain.sol\":3662:3673  _questionId */\n      dup5\n        /* \"contracts/onchain.sol\":3651:3674  hasUpvoted[_questionId] */\n      dup2\n      mstore\n      0x20\n      add\n      swap1\n      dup2\n      mstore\n      0x20\n      add\n      0x00\n      keccak256\n        /* \"contracts/onchain.sol\":3651:3686  hasUpvoted[_questionId][msg.sender] */\n      0x00\n        /* \"contracts/onchain.sol\":3675:3685  msg.sender */\n      caller\n        /* \"contracts/onchain.sol\":3651:3686  hasUpvoted[_questionId][msg.sender] */\n      0xffffffffffffffffffffffffffffffffffffffff\n      and\n      0xffffffffffffffffffffffffffffffffffffffff\n      and\n      dup2\n      mstore\n      0x20\n      add\n      swap1\n      dup2\n      mstore\n      0x20\n      add\n      0x00\n      keccak256\n      0x00\n        /* \"contracts/onchain.sol\":3651:3693  hasUpvoted[_questionId][msg.sender] = true */\n      0x0100\n      exp\n      dup2\n      sload\n      dup2\n      0xff\n      mul\n      not\n      and\n      swap1\n      dup4\n      iszero\n      iszero\n      mul\n      or\n      swap1\n      sstore\n      pop\n        /* \"contracts/onchain.sol\":3704:3705  q */\n      dup1\n        /* \"contracts/onchain.sol\":3704:3717  q.upvoteCount */\n      0x06\n      add\n      0x00\n        /* \"contracts/onchain.sol\":3704:3719  q.upvoteCount++ */\n      dup2\n      sload\n      dup1\n      swap3\n      swap2\n      swap1\n      tag_49\n      swap1\n      tag_50\n      jump\t// in\n    tag_49:\n      swap2\n      swap1\n      pop\n      sstore\n      pop\n        /* \"contracts/onchain.sol\":3758:3768  msg.sender */\n      caller\n        /* \"contracts/onchain.sol\":3737:3769  Upvoted(_questionId, msg.sender) */\n      0xffffffffffffffffffffffffffffffffffffffff\n      and\n        /* \"contracts/onchain.sol\":3745:3756  _questionId */\n      dup3\n        /* \"contracts/onchain.sol\":3737:3769  Upvoted(_questionId, msg.sender) */\n      0x0e092509bde1dd304f477e3ec921b6e4e5092738f70dcd204952ffc1ffdaafdf\n      mload(0x40)\n      mload(0x40)\n      dup1\n      swap2\n      sub\n      swap1\n      log3\n        /* \"contracts/onchain.sol\":3454:3777  {... */\n      pop\n        /* \"contracts/onchain.sol\":3408:3777  function upvote(uint256 _questionId) external {... */\n      pop\n      jump\t// out\n        /* \"contracts/onchain.sol\":529:574  mapping(uint256 => Question) public questions */\n    tag_17:\n      mstore(0x20, 0x00)\n      dup1\n      0x00\n      mstore\n      keccak256(0x00, 0x40)\n      0x00\n      swap2\n      pop\n      swap1\n      pop\n      dup1\n      0x00\n      add\n      0x00\n      swap1\n      sload\n      swap1\n      0x0100\n      exp\n      swap1\n      div\n      0xffffffffffffffffffffffffffffffffffffffff\n      and\n      swap1\n      dup1\n      0x01\n      add\n      dup1\n      sload\n      tag_51\n      swap1\n      tag_52\n      jump\t// in\n    tag_51:\n      dup1\n      0x1f\n      add\n      0x20\n      dup1\n      swap2\n      div\n      mul\n      0x20\n      add\n      mload(0x40)\n      swap1\n      dup2\n      add\n      0x40\n      mstore\n      dup1\n      swap3\n      swap2\n      swap1\n      dup2\n      dup2\n      mstore\n      0x20\n      add\n      dup3\n      dup1\n      sload\n      tag_53\n      swap1\n      tag_52\n      jump\t// in\n    tag_53:\n      dup1\n      iszero\n      tag_54\n      jumpi\n      dup1\n      0x1f\n      lt\n      tag_55\n      jumpi\n      0x0100\n      dup1\n      dup4\n      sload\n      div\n      mul\n      dup4\n      mstore\n      swap2\n      0x20\n      add\n      swap2\n      jump(tag_54)\n    tag_55:\n      dup3\n      add\n      swap2\n      swap1\n      0x00\n      mstore\n      keccak256(0x00, 0x20)\n      swap1\n    tag_56:\n      dup2\n      sload\n      dup2\n      mstore\n      swap1\n      0x01\n      add\n      swap1\n      0x20\n      add\n      dup1\n      dup4\n      gt\n      tag_56\n      jumpi\n      dup3\n      swap1\n      sub\n      0x1f\n      and\n      dup3\n      add\n      swap2\n    tag_54:\n      pop\n      pop\n      pop\n      pop\n      pop\n      swap1\n      dup1\n      0x02\n      add\n      0x00\n      swap1\n      sload\n      swap1\n      0x0100\n      exp\n      swap1\n      div\n      0xff\n      and\n      swap1\n      dup1\n      0x03\n      add\n      sload\n      swap1\n      dup1\n      0x04\n      add\n      0x00\n      swap1\n      sload\n      swap1\n      0x0100\n      exp\n      swap1\n      div\n      0xff\n      and\n      swap1\n      dup1\n      0x05\n      add\n      sload\n      swap1\n      dup1\n      0x06\n      add\n      sload\n      swap1\n      dup1\n      0x07\n      add\n      0x00\n      swap1\n      sload\n      swap1\n      0x0100\n      exp\n      swap1\n      div\n      0xff\n      and\n      swap1\n      pop\n      dup9\n      jump\t// out\n        /* \"contracts/onchain.sol\":645:705  mapping(uint256 => mapping(address => bool)) public hasVoted */\n    tag_23:\n      mstore(0x20, 0x01)\n      dup2\n      0x00\n      mstore\n      mstore(0x20, keccak256(0x00, 0x40))\n      dup1\n      0x00\n      mstore\n      keccak256(0x00, 0x40)\n      0x00\n      swap2\n      pop\n      swap2\n      pop\n      swap1\n      sload\n      swap1\n      0x0100\n      exp\n      swap1\n      div\n      0xff\n      and\n      dup2\n      jump\t// out\n        /* \"contracts/onchain.sol\":2558:3296  function vote(uint256 _questionId, uint256[] calldata _selectedOptions) external {... */\n    tag_29:\n        /* \"contracts/onchain.sol\":2650:2668  Question storage q */\n      0x00\n        /* \"contracts/onchain.sol\":2671:2680  questions */\n      0x00\n        /* \"contracts/onchain.sol\":2671:2693  questions[_questionId] */\n      0x00\n        /* \"contracts/onchain.sol\":2681:2692  _questionId */\n      dup6\n        /* \"contracts/onchain.sol\":2671:2693  questions[_questionId] */\n      dup2\n      mstore\n      0x20\n      add\n      swap1\n      dup2\n      mstore\n      0x20\n      add\n      0x00\n      keccak256\n        /* \"contracts/onchain.sol\":2650:2693  Question storage q = questions[_questionId] */\n      swap1\n      pop\n        /* \"contracts/onchain.sol\":2712:2713  q */\n      dup1\n        /* \"contracts/onchain.sol\":2712:2720  q.exists */\n      0x07\n      add\n      0x00\n      swap1\n      sload\n      swap1\n      0x0100\n      exp\n      swap1\n      div\n      0xff\n      and\n        /* \"contracts/onchain.sol\":2704:2748  require(q.exists, \"Question does not exist\") */\n      tag_58\n      jumpi\n      mload(0x40)\n      0x08c379a000000000000000000000000000000000000000000000000000000000\n      dup2\n      mstore\n      0x04\n      add\n      tag_59\n      swap1\n      tag_45\n      jump\t// in\n    tag_59:\n      mload(0x40)\n      dup1\n      swap2\n      sub\n      swap1\n      revert\n    tag_58:\n        /* \"contracts/onchain.sol\":2785:2786  q */\n      dup1\n        /* \"contracts/onchain.sol\":2785:2795  q.deadline */\n      0x03\n      add\n      sload\n        /* \"contracts/onchain.sol\":2767:2782  block.timestamp */\n      timestamp\n        /* \"contracts/onchain.sol\":2767:2795  block.timestamp < q.deadline */\n      lt\n        /* \"contracts/onchain.sol\":2759:2814  require(block.timestamp < q.deadline, \"Poll has ended\") */\n      tag_60\n      jumpi\n      mload(0x40)\n      0x08c379a000000000000000000000000000000000000000000000000000000000\n      dup2\n      mstore\n      0x04\n      add\n      tag_61\n      swap1\n      tag_62\n      jump\t// in\n    tag_61:\n      mload(0x40)\n      dup1\n      swap2\n      sub\n      swap1\n      revert\n    tag_60:\n        /* \"contracts/onchain.sol\":2834:2842  hasVoted */\n      0x01\n        /* \"contracts/onchain.sol\":2834:2855  hasVoted[_questionId] */\n      0x00\n        /* \"contracts/onchain.sol\":2843:2854  _questionId */\n      dup6\n        /* \"contracts/onchain.sol\":2834:2855  hasVoted[_questionId] */\n      dup2\n      mstore\n      0x20\n      add\n      swap1\n      dup2\n      mstore\n      0x20\n      add\n      0x00\n      keccak256\n        /* \"contracts/onchain.sol\":2834:2867  hasVoted[_questionId][msg.sender] */\n      0x00\n        /* \"contracts/onchain.sol\":2856:2866  msg.sender */\n      caller\n        /* \"contracts/onchain.sol\":2834:2867  hasVoted[_questionId][msg.sender] */\n      0xffffffffffffffffffffffffffffffffffffffff\n      and\n      0xffffffffffffffffffffffffffffffffffffffff\n      and\n      dup2\n      mstore\n      0x20\n      add\n      swap1\n      dup2\n      mstore\n      0x20\n      add\n      0x00\n      keccak256\n      0x00\n      swap1\n      sload\n      swap1\n      0x0100\n      exp\n      swap1\n      div\n      0xff\n      and\n        /* \"contracts/onchain.sol\":2833:2867  !hasVoted[_questionId][msg.sender] */\n      iszero\n        /* \"contracts/onchain.sol\":2825:2885  require(!hasVoted[_questionId][msg.sender], \"Already voted\") */\n      tag_63\n      jumpi\n      mload(0x40)\n      0x08c379a000000000000000000000000000000000000000000000000000000000\n      dup2\n      mstore\n      0x04\n      add\n      tag_64\n      swap1\n      tag_65\n      jump\t// in\n    tag_64:\n      mload(0x40)\n      dup1\n      swap2\n      sub\n      swap1\n      revert\n    tag_63:\n        /* \"contracts/onchain.sol\":2930:2931  0 */\n      0x00\n        /* \"contracts/onchain.sol\":2904:2920  _selectedOptions */\n      dup4\n      dup4\n        /* \"contracts/onchain.sol\":2904:2927  _selectedOptions.length */\n      swap1\n      pop\n        /* \"contracts/onchain.sol\":2904:2931  _selectedOptions.length > 0 */\n      gt\n        /* \"contracts/onchain.sol\":2896:2967  require(_selectedOptions.length > 0, \"Must select at least one option\") */\n      tag_66\n      jumpi\n      mload(0x40)\n      0x08c379a000000000000000000000000000000000000000000000000000000000\n      dup2\n      mstore\n      0x04\n      add\n      tag_67\n      swap1\n      tag_68\n      jump\t// in\n    tag_67:\n      mload(0x40)\n      dup1\n      swap2\n      sub\n      swap1\n      revert\n    tag_66:\n        /* \"contracts/onchain.sol\":2995:3013  QuestionType.YesNo */\n      0x00\n        /* \"contracts/onchain.sol\":2984:3013  q.qType == QuestionType.YesNo */\n      0x02\n      dup2\n      gt\n      iszero\n      tag_69\n      jumpi\n      tag_70\n      tag_71\n      jump\t// in\n    tag_70:\n    tag_69:\n        /* \"contracts/onchain.sol\":2984:2985  q */\n      dup2\n        /* \"contracts/onchain.sol\":2984:2991  q.qType */\n      0x02\n      add\n      0x00\n      swap1\n      sload\n      swap1\n      0x0100\n      exp\n      swap1\n      div\n      0xff\n      and\n        /* \"contracts/onchain.sol\":2984:3013  q.qType == QuestionType.YesNo */\n      0x02\n      dup2\n      gt\n      iszero\n      tag_72\n      jumpi\n      tag_73\n      tag_71\n      jump\t// in\n    tag_73:\n    tag_72:\n      eq\n        /* \"contracts/onchain.sol\":2984:3053  q.qType == QuestionType.YesNo || q.qType == QuestionType.SingleChoice */\n      dup1\n      tag_74\n      jumpi\n      pop\n        /* \"contracts/onchain.sol\":3028:3053  QuestionType.SingleChoice */\n      0x01\n        /* \"contracts/onchain.sol\":3017:3053  q.qType == QuestionType.SingleChoice */\n      0x02\n      dup2\n      gt\n      iszero\n      tag_75\n      jumpi\n      tag_76\n      tag_71\n      jump\t// in\n    tag_76:\n    tag_75:\n        /* \"contracts/onchain.sol\":3017:3018  q */\n      dup2\n        /* \"contracts/onchain.sol\":3017:3024  q.qType */\n      0x02\n      add\n      0x00\n      swap1\n      sload\n      swap1\n      0x0100\n      exp\n      swap1\n      div\n      0xff\n      and\n        /* \"contracts/onchain.sol\":3017:3053  q.qType == QuestionType.SingleChoice */\n      0x02\n      dup2\n      gt\n      iszero\n      tag_77\n      jumpi\n      tag_78\n      tag_71\n      jump\t// in\n    tag_78:\n    tag_77:\n      eq\n        /* \"contracts/onchain.sol\":2984:3053  q.qType == QuestionType.YesNo || q.qType == QuestionType.SingleChoice */\n    tag_74:\n        /* \"contracts/onchain.sol\":2980:3146  if (q.qType == QuestionType.YesNo || q.qType == QuestionType.SingleChoice) {... */\n      iszero\n      tag_79\n      jumpi\n        /* \"contracts/onchain.sol\":3105:3106  1 */\n      0x01\n        /* \"contracts/onchain.sol\":3078:3094  _selectedOptions */\n      dup4\n      dup4\n        /* \"contracts/onchain.sol\":3078:3101  _selectedOptions.length */\n      swap1\n      pop\n        /* \"contracts/onchain.sol\":3078:3106  _selectedOptions.length == 1 */\n      eq\n        /* \"contracts/onchain.sol\":3070:3134  require(_selectedOptions.length == 1, \"Only one option allowed\") */\n      tag_80\n      jumpi\n      mload(0x40)\n      0x08c379a000000000000000000000000000000000000000000000000000000000\n      dup2\n      mstore\n      0x04\n      add\n      tag_81\n      swap1\n      tag_82\n      jump\t// in\n    tag_81:\n      mload(0x40)\n      dup1\n      swap2\n      sub\n      swap1\n      revert\n    tag_80:\n        /* \"contracts/onchain.sol\":2980:3146  if (q.qType == QuestionType.YesNo || q.qType == QuestionType.SingleChoice) {... */\n    tag_79:\n        /* \"contracts/onchain.sol\":3194:3198  true */\n      0x01\n        /* \"contracts/onchain.sol\":3158:3166  hasVoted */\n      dup1\n        /* \"contracts/onchain.sol\":3158:3179  hasVoted[_questionId] */\n      0x00\n        /* \"contracts/onchain.sol\":3167:3178  _questionId */\n      dup7\n        /* \"contracts/onchain.sol\":3158:3179  hasVoted[_questionId] */\n      dup2\n      mstore\n      0x20\n      add\n      swap1\n      dup2\n      mstore\n      0x20\n      add\n      0x00\n      keccak256\n        /* \"contracts/onchain.sol\":3158:3191  hasVoted[_questionId][msg.sender] */\n      0x00\n        /* \"contracts/onchain.sol\":3180:3190  msg.sender */\n      caller\n        /* \"contracts/onchain.sol\":3158:3191  hasVoted[_questionId][msg.sender] */\n      0xffffffffffffffffffffffffffffffffffffffff\n      and\n      0xffffffffffffffffffffffffffffffffffffffff\n      and\n      dup2\n      mstore\n      0x20\n      add\n      swap1\n      dup2\n      mstore\n      0x20\n      add\n      0x00\n      keccak256\n      0x00\n        /* \"contracts/onchain.sol\":3158:3198  hasVoted[_questionId][msg.sender] = true */\n      0x0100\n      exp\n      dup2\n      sload\n      dup2\n      0xff\n      mul\n      not\n      and\n      swap1\n      dup4\n      iszero\n      iszero\n      mul\n      or\n      swap1\n      sstore\n      pop\n        /* \"contracts/onchain.sol\":3209:3210  q */\n      dup1\n        /* \"contracts/onchain.sol\":3209:3220  q.voteCount */\n      0x05\n      add\n      0x00\n        /* \"contracts/onchain.sol\":3209:3222  q.voteCount++ */\n      dup2\n      sload\n      dup1\n      swap3\n      swap2\n      swap1\n      tag_83\n      swap1\n      tag_50\n      jump\t// in\n    tag_83:\n      swap2\n      swap1\n      pop\n      sstore\n      pop\n        /* \"contracts/onchain.sol\":3259:3269  msg.sender */\n      caller\n        /* \"contracts/onchain.sol\":3240:3288  Voted(_questionId, msg.sender, _selectedOptions) */\n      0xffffffffffffffffffffffffffffffffffffffff\n      and\n        /* \"contracts/onchain.sol\":3246:3257  _questionId */\n      dup5\n        /* \"contracts/onchain.sol\":3240:3288  Voted(_questionId, msg.sender, _selectedOptions) */\n      0x87f23b7a798a675896e0c401278860ea037111dd34e85a1f4870371bfadfa0cf\n        /* \"contracts/onchain.sol\":3271:3287  _selectedOptions */\n      dup6\n      dup6\n        /* \"contracts/onchain.sol\":3240:3288  Voted(_questionId, msg.sender, _selectedOptions) */\n      mload(0x40)\n      tag_84\n      swap3\n      swap2\n      swap1\n      tag_85\n      jump\t// in\n    tag_84:\n      mload(0x40)\n      dup1\n      swap2\n      sub\n      swap1\n      log3\n        /* \"contracts/onchain.sol\":2639:3296  {... */\n      pop\n        /* \"contracts/onchain.sol\":2558:3296  function vote(uint256 _questionId, uint256[] calldata _selectedOptions) external {... */\n      pop\n      pop\n      pop\n      jump\t// out\n        /* \"contracts/onchain.sol\":778:840  mapping(uint256 => mapping(address => bool)) public hasUpvoted */\n    tag_32:\n      mstore(0x20, 0x02)\n      dup2\n      0x00\n      mstore\n      mstore(0x20, keccak256(0x00, 0x40))\n      dup1\n      0x00\n      mstore\n      keccak256(0x00, 0x40)\n      0x00\n      swap2\n      pop\n      swap2\n      pop\n      swap1\n      sload\n      swap1\n      0x0100\n      exp\n      swap1\n      div\n      0xff\n      and\n      dup2\n      jump\t// out\n        /* \"contracts/onchain.sol\":1641:2380  function createQuestion(... */\n    tag_37:\n        /* \"contracts/onchain.sol\":1830:1845  block.timestamp */\n      timestamp\n        /* \"contracts/onchain.sol\":1818:1827  _deadline */\n      dup3\n        /* \"contracts/onchain.sol\":1818:1845  _deadline > block.timestamp */\n      gt\n        /* \"contracts/onchain.sol\":1810:1880  require(_deadline > block.timestamp, \"Deadline must be in the future\") */\n      tag_87\n      jumpi\n      mload(0x40)\n      0x08c379a000000000000000000000000000000000000000000000000000000000\n      dup2\n      mstore\n      0x04\n      add\n      tag_88\n      swap1\n      tag_89\n      jump\t// in\n    tag_88:\n      mload(0x40)\n      dup1\n      swap2\n      sub\n      swap1\n      revert\n    tag_87:\n        /* \"contracts/onchain.sol\":1911:1913  10 */\n      0x0a\n        /* \"contracts/onchain.sol\":1899:1908  _category */\n      dup2\n        /* \"contracts/onchain.sol\":1899:1913  _category < 10 */\n      0xff\n      and\n      lt\n        /* \"contracts/onchain.sol\":1891:1934  require(_category < 10, \"Invalid category\") */\n      tag_90\n      jumpi\n      mload(0x40)\n      0x08c379a000000000000000000000000000000000000000000000000000000000\n      dup2\n      mstore\n      0x04\n      add\n      tag_91\n      swap1\n      tag_92\n      jump\t// in\n    tag_91:\n      mload(0x40)\n      dup1\n      swap2\n      sub\n      swap1\n      revert\n    tag_90:\n        /* \"contracts/onchain.sol\":1975:2243  Question({... */\n      mload(0x40)\n      dup1\n      0x0100\n      add\n      0x40\n      mstore\n      dup1\n        /* \"contracts/onchain.sol\":2008:2018  msg.sender */\n      caller\n        /* \"contracts/onchain.sol\":1975:2243  Question({... */\n      0xffffffffffffffffffffffffffffffffffffffff\n      and\n      dup2\n      mstore\n      0x20\n      add\n        /* \"contracts/onchain.sol\":2043:2052  _ipfsHash */\n      dup6\n        /* \"contracts/onchain.sol\":1975:2243  Question({... */\n      dup2\n      mstore\n      0x20\n      add\n        /* \"contracts/onchain.sol\":2074:2080  _qType */\n      dup5\n        /* \"contracts/onchain.sol\":1975:2243  Question({... */\n      0x02\n      dup2\n      gt\n      iszero\n      tag_93\n      jumpi\n      tag_94\n      tag_71\n      jump\t// in\n    tag_94:\n    tag_93:\n      dup2\n      mstore\n      0x20\n      add\n        /* \"contracts/onchain.sol\":2105:2114  _deadline */\n      dup4\n        /* \"contracts/onchain.sol\":1975:2243  Question({... */\n      dup2\n      mstore\n      0x20\n      add\n        /* \"contracts/onchain.sol\":2139:2148  _category */\n      dup3\n        /* \"contracts/onchain.sol\":1975:2243  Question({... */\n      0xff\n      and\n      dup2\n      mstore\n      0x20\n      add\n        /* \"contracts/onchain.sol\":2174:2175  0 */\n      0x00\n        /* \"contracts/onchain.sol\":1975:2243  Question({... */\n      dup2\n      mstore\n      0x20\n      add\n        /* \"contracts/onchain.sol\":2203:2204  0 */\n      0x00\n        /* \"contracts/onchain.sol\":1975:2243  Question({... */\n      dup2\n      mstore\n      0x20\n      add\n        /* \"contracts/onchain.sol\":2227:2231  true */\n      0x01\n        /* \"contracts/onchain.sol\":1975:2243  Question({... */\n      iszero\n      iszero\n      dup2\n      mstore\n      pop\n        /* \"contracts/onchain.sol\":1947:1956  questions */\n      0x00\n        /* \"contracts/onchain.sol\":1947:1972  questions[nextQuestionId] */\n      0x00\n        /* \"contracts/onchain.sol\":1957:1971  nextQuestionId */\n      sload(0x03)\n        /* \"contracts/onchain.sol\":1947:1972  questions[nextQuestionId] */\n      dup2\n      mstore\n      0x20\n      add\n      swap1\n      dup2\n      mstore\n      0x20\n      add\n      0x00\n      keccak256\n        /* \"contracts/onchain.sol\":1947:2243  questions[nextQuestionId] = Question({... */\n      0x00\n      dup3\n      add\n      mload\n      dup2\n      0x00\n      add\n      exp(0x0100, 0x00)\n      dup2\n      sload\n      dup2\n      0xffffffffffffffffffffffffffffffffffffffff\n      mul\n      not\n      and\n      swap1\n      dup4\n      0xffffffffffffffffffffffffffffffffffffffff\n      and\n      mul\n      or\n      swap1\n      sstore\n      pop\n      0x20\n      dup3\n      add\n      mload\n      dup2\n      0x01\n      add\n      swap1\n      dup2\n      tag_95\n      swap2\n      swap1\n      tag_96\n      jump\t// in\n    tag_95:\n      pop\n      0x40\n      dup3\n      add\n      mload\n      dup2\n      0x02\n      add\n      exp(0x0100, 0x00)\n      dup2\n      sload\n      dup2\n      0xff\n      mul\n      not\n      and\n      swap1\n      dup4\n      0x02\n      dup2\n      gt\n      iszero\n      tag_97\n      jumpi\n      tag_98\n      tag_71\n      jump\t// in\n    tag_98:\n    tag_97:\n      mul\n      or\n      swap1\n      sstore\n      pop\n      0x60\n      dup3\n      add\n      mload\n      dup2\n      0x03\n      add\n      sstore\n      0x80\n      dup3\n      add\n      mload\n      dup2\n      0x04\n      add\n      exp(0x0100, 0x00)\n      dup2\n      sload\n      dup2\n      0xff\n      mul\n      not\n      and\n      swap1\n      dup4\n      0xff\n      and\n      mul\n      or\n      swap1\n      sstore\n      pop\n      0xa0\n      dup3\n      add\n      mload\n      dup2\n      0x05\n      add\n      sstore\n      0xc0\n      dup3\n      add\n      mload\n      dup2\n      0x06\n      add\n      sstore\n      0xe0\n      dup3\n      add\n      mload\n      dup2\n      0x07\n      add\n      exp(0x0100, 0x00)\n      dup2\n      sload\n      dup2\n      0xff\n      mul\n      not\n      and\n      swap1\n      dup4\n      iszero\n      iszero\n      mul\n      or\n      swap1\n      sstore\n      pop\n      swap1\n      pop\n      pop\n        /* \"contracts/onchain.sol\":2293:2303  msg.sender */\n      caller\n        /* \"contracts/onchain.sol\":2261:2345  QuestionCreated(nextQuestionId, msg.sender, _ipfsHash, _qType, _deadline, _category) */\n      0xffffffffffffffffffffffffffffffffffffffff\n      and\n        /* \"contracts/onchain.sol\":2277:2291  nextQuestionId */\n      sload(0x03)\n        /* \"contracts/onchain.sol\":2261:2345  QuestionCreated(nextQuestionId, msg.sender, _ipfsHash, _qType, _deadline, _category) */\n      0x2eee3ebdd587f8bd0ef9e9cf02bc348c4849a2777513fec314adba0626ad01c6\n        /* \"contracts/onchain.sol\":2305:2314  _ipfsHash */\n      dup7\n        /* \"contracts/onchain.sol\":2316:2322  _qType */\n      dup7\n        /* \"contracts/onchain.sol\":2324:2333  _deadline */\n      dup7\n        /* \"contracts/onchain.sol\":2335:2344  _category */\n      dup7\n        /* \"contracts/onchain.sol\":2261:2345  QuestionCreated(nextQuestionId, msg.sender, _ipfsHash, _qType, _deadline, _category) */\n      mload(0x40)\n      tag_99\n      swap5\n      swap4\n      swap3\n      swap2\n      swap1\n      tag_100\n      jump\t// in\n    tag_99:\n      mload(0x40)\n      dup1\n      swap2\n      sub\n      swap1\n      log3\n        /* \"contracts/onchain.sol\":2356:2370  nextQuestionId */\n      0x03\n      0x00\n        /* \"contracts/onchain.sol\":2356:2372  nextQuestionId++ */\n      dup2\n      sload\n      dup1\n      swap3\n      swap2\n      swap1\n      tag_101\n      swap1\n      tag_50\n      jump\t// in\n    tag_101:\n      swap2\n      swap1\n      pop\n      sstore\n      pop\n        /* \"contracts/onchain.sol\":1641:2380  function createQuestion(... */\n      pop\n      pop\n      pop\n      pop\n      jump\t// out\n        /* \"contracts/onchain.sol\":853:882  uint256 public nextQuestionId */\n    tag_39:\n      sload(0x03)\n      dup2\n      jump\t// out\n        /* \"#utility.yul\":7:82   */\n    tag_102:\n        /* \"#utility.yul\":40:46   */\n      0x00\n        /* \"#utility.yul\":73:75   */\n      0x40\n        /* \"#utility.yul\":67:76   */\n      mload\n        /* \"#utility.yul\":57:76   */\n      swap1\n      pop\n        /* \"#utility.yul\":7:82   */\n      swap1\n      jump\t// out\n        /* \"#utility.yul\":88:205   */\n    tag_103:\n        /* \"#utility.yul\":197:198   */\n      0x00\n        /* \"#utility.yul\":194:195   */\n      0x00\n        /* \"#utility.yul\":187:199   */\n      revert\n        /* \"#utility.yul\":211:328   */\n    tag_104:\n        /* \"#utility.yul\":320:321   */\n      0x00\n        /* \"#utility.yul\":317:318   */\n      0x00\n        /* \"#utility.yul\":310:322   */\n      revert\n        /* \"#utility.yul\":334:411   */\n    tag_105:\n        /* \"#utility.yul\":371:378   */\n      0x00\n        /* \"#utility.yul\":400:405   */\n      dup2\n        /* \"#utility.yul\":389:405   */\n      swap1\n      pop\n        /* \"#utility.yul\":334:411   */\n      swap2\n      swap1\n      pop\n      jump\t// out\n        /* \"#utility.yul\":417:539   */\n    tag_106:\n        /* \"#utility.yul\":490:514   */\n      tag_186\n        /* \"#utility.yul\":508:513   */\n      dup2\n        /* \"#utility.yul\":490:514   */\n      tag_105\n      jump\t// in\n    tag_186:\n        /* \"#utility.yul\":483:488   */\n      dup2\n        /* \"#utility.yul\":480:515   */\n      eq\n        /* \"#utility.yul\":470:533   */\n      tag_187\n      jumpi\n        /* \"#utility.yul\":529:530   */\n      0x00\n        /* \"#utility.yul\":526:527   */\n      0x00\n        /* \"#utility.yul\":519:531   */\n      revert\n        /* \"#utility.yul\":470:533   */\n    tag_187:\n        /* \"#utility.yul\":417:539   */\n      pop\n      jump\t// out\n        /* \"#utility.yul\":545:684   */\n    tag_107:\n        /* \"#utility.yul\":591:596   */\n      0x00\n        /* \"#utility.yul\":629:635   */\n      dup2\n        /* \"#utility.yul\":616:636   */\n      calldataload\n        /* \"#utility.yul\":607:636   */\n      swap1\n      pop\n        /* \"#utility.yul\":645:678   */\n      tag_189\n        /* \"#utility.yul\":672:677   */\n      dup2\n        /* \"#utility.yul\":645:678   */\n      tag_106\n      jump\t// in\n    tag_189:\n        /* \"#utility.yul\":545:684   */\n      swap3\n      swap2\n      pop\n      pop\n      jump\t// out\n        /* \"#utility.yul\":690:1019   */\n    tag_13:\n        /* \"#utility.yul\":749:755   */\n      0x00\n        /* \"#utility.yul\":798:800   */\n      0x20\n        /* \"#utility.yul\":786:795   */\n      dup3\n        /* \"#utility.yul\":777:784   */\n      dup5\n        /* \"#utility.yul\":773:796   */\n      sub\n        /* \"#utility.yul\":769:801   */\n      slt\n        /* \"#utility.yul\":766:885   */\n      iszero\n      tag_191\n      jumpi\n        /* \"#utility.yul\":804:883   */\n      tag_192\n      tag_103\n      jump\t// in\n    tag_192:\n        /* \"#utility.yul\":766:885   */\n    tag_191:\n        /* \"#utility.yul\":924:925   */\n      0x00\n        /* \"#utility.yul\":949:1002   */\n      tag_193\n        /* \"#utility.yul\":994:1001   */\n      dup5\n        /* \"#utility.yul\":985:991   */\n      dup3\n        /* \"#utility.yul\":974:983   */\n      dup6\n        /* \"#utility.yul\":970:992   */\n      add\n        /* \"#utility.yul\":949:1002   */\n      tag_107\n      jump\t// in\n    tag_193:\n        /* \"#utility.yul\":939:1002   */\n      swap2\n      pop\n        /* \"#utility.yul\":895:1012   */\n      pop\n        /* \"#utility.yul\":690:1019   */\n      swap3\n      swap2\n      pop\n      pop\n      jump\t// out\n        /* \"#utility.yul\":1025:1151   */\n    tag_108:\n        /* \"#utility.yul\":1062:1069   */\n      0x00\n        /* \"#utility.yul\":1102:1144   */\n      0xffffffffffffffffffffffffffffffffffffffff\n        /* \"#utility.yul\":1095:1100   */\n      dup3\n        /* \"#utility.yul\":1091:1145   */\n      and\n        /* \"#utility.yul\":1080:1145   */\n      swap1\n      pop\n        /* \"#utility.yul\":1025:1151   */\n      swap2\n      swap1\n      pop\n      jump\t// out\n        /* \"#utility.yul\":1157:1253   */\n    tag_109:\n        /* \"#utility.yul\":1194:1201   */\n      0x00\n        /* \"#utility.yul\":1223:1247   */\n      tag_196\n        /* \"#utility.yul\":1241:1246   */\n      dup3\n        /* \"#utility.yul\":1223:1247   */\n      tag_108\n      jump\t// in\n    tag_196:\n        /* \"#utility.yul\":1212:1247   */\n      swap1\n      pop\n        /* \"#utility.yul\":1157:1253   */\n      swap2\n      swap1\n      pop\n      jump\t// out\n        /* \"#utility.yul\":1259:1377   */\n    tag_110:\n        /* \"#utility.yul\":1346:1370   */\n      tag_198\n        /* \"#utility.yul\":1364:1369   */\n      dup2\n        /* \"#utility.yul\":1346:1370   */\n      tag_109\n      jump\t// in\n    tag_198:\n        /* \"#utility.yul\":1341:1344   */\n      dup3\n        /* \"#utility.yul\":1334:1371   */\n      mstore\n        /* \"#utility.yul\":1259:1377   */\n      pop\n      pop\n      jump\t// out\n        /* \"#utility.yul\":1383:1482   */\n    tag_111:\n        /* \"#utility.yul\":1435:1441   */\n      0x00\n        /* \"#utility.yul\":1469:1474   */\n      dup2\n        /* \"#utility.yul\":1463:1475   */\n      mload\n        /* \"#utility.yul\":1453:1475   */\n      swap1\n      pop\n        /* \"#utility.yul\":1383:1482   */\n      swap2\n      swap1\n      pop\n      jump\t// out\n        /* \"#utility.yul\":1488:1657   */\n    tag_112:\n        /* \"#utility.yul\":1572:1583   */\n      0x00\n        /* \"#utility.yul\":1606:1612   */\n      dup3\n        /* \"#utility.yul\":1601:1604   */\n      dup3\n        /* \"#utility.yul\":1594:1613   */\n      mstore\n        /* \"#utility.yul\":1646:1650   */\n      0x20\n        /* \"#utility.yul\":1641:1644   */\n      dup3\n        /* \"#utility.yul\":1637:1651   */\n      add\n        /* \"#utility.yul\":1622:1651   */\n      swap1\n      pop\n        /* \"#utility.yul\":1488:1657   */\n      swap3\n      swap2\n      pop\n      pop\n      jump\t// out\n        /* \"#utility.yul\":1663:1802   */\n    tag_113:\n        /* \"#utility.yul\":1752:1758   */\n      dup3\n        /* \"#utility.yul\":1747:1750   */\n      dup2\n        /* \"#utility.yul\":1742:1745   */\n      dup4\n        /* \"#utility.yul\":1736:1759   */\n      mcopy\n        /* \"#utility.yul\":1793:1794   */\n      0x00\n        /* \"#utility.yul\":1784:1790   */\n      dup4\n        /* \"#utility.yul\":1779:1782   */\n      dup4\n        /* \"#utility.yul\":1775:1791   */\n      add\n        /* \"#utility.yul\":1768:1795   */\n      mstore\n        /* \"#utility.yul\":1663:1802   */\n      pop\n      pop\n      pop\n      jump\t// out\n        /* \"#utility.yul\":1808:1910   */\n    tag_114:\n        /* \"#utility.yul\":1849:1855   */\n      0x00\n        /* \"#utility.yul\":1900:1902   */\n      0x1f\n        /* \"#utility.yul\":1896:1903   */\n      not\n        /* \"#utility.yul\":1891:1893   */\n      0x1f\n        /* \"#utility.yul\":1884:1889   */\n      dup4\n        /* \"#utility.yul\":1880:1894   */\n      add\n        /* \"#utility.yul\":1876:1904   */\n      and\n        /* \"#utility.yul\":1866:1904   */\n      swap1\n      pop\n        /* \"#utility.yul\":1808:1910   */\n      swap2\n      swap1\n      pop\n      jump\t// out\n        /* \"#utility.yul\":1916:2293   */\n    tag_115:\n        /* \"#utility.yul\":2004:2007   */\n      0x00\n        /* \"#utility.yul\":2032:2071   */\n      tag_204\n        /* \"#utility.yul\":2065:2070   */\n      dup3\n        /* \"#utility.yul\":2032:2071   */\n      tag_111\n      jump\t// in\n    tag_204:\n        /* \"#utility.yul\":2087:2158   */\n      tag_205\n        /* \"#utility.yul\":2151:2157   */\n      dup2\n        /* \"#utility.yul\":2146:2149   */\n      dup6\n        /* \"#utility.yul\":2087:2158   */\n      tag_112\n      jump\t// in\n    tag_205:\n        /* \"#utility.yul\":2080:2158   */\n      swap4\n      pop\n        /* \"#utility.yul\":2167:2232   */\n      tag_206\n        /* \"#utility.yul\":2225:2231   */\n      dup2\n        /* \"#utility.yul\":2220:2223   */\n      dup6\n        /* \"#utility.yul\":2213:2217   */\n      0x20\n        /* \"#utility.yul\":2206:2211   */\n      dup7\n        /* \"#utility.yul\":2202:2218   */\n      add\n        /* \"#utility.yul\":2167:2232   */\n      tag_113\n      jump\t// in\n    tag_206:\n        /* \"#utility.yul\":2257:2286   */\n      tag_207\n        /* \"#utility.yul\":2279:2285   */\n      dup2\n        /* \"#utility.yul\":2257:2286   */\n      tag_114\n      jump\t// in\n    tag_207:\n        /* \"#utility.yul\":2252:2255   */\n      dup5\n        /* \"#utility.yul\":2248:2287   */\n      add\n        /* \"#utility.yul\":2241:2287   */\n      swap2\n      pop\n        /* \"#utility.yul\":2008:2293   */\n      pop\n        /* \"#utility.yul\":1916:2293   */\n      swap3\n      swap2\n      pop\n      pop\n      jump\t// out\n        /* \"#utility.yul\":2299:2479   */\n    tag_71:\n        /* \"#utility.yul\":2347:2424   */\n      0x4e487b7100000000000000000000000000000000000000000000000000000000\n        /* \"#utility.yul\":2344:2345   */\n      0x00\n        /* \"#utility.yul\":2337:2425   */\n      mstore\n        /* \"#utility.yul\":2444:2448   */\n      0x21\n        /* \"#utility.yul\":2441:2442   */\n      0x04\n        /* \"#utility.yul\":2434:2449   */\n      mstore\n        /* \"#utility.yul\":2468:2472   */\n      0x24\n        /* \"#utility.yul\":2465:2466   */\n      0x00\n        /* \"#utility.yul\":2458:2473   */\n      revert\n        /* \"#utility.yul\":2485:2604   */\n    tag_116:\n        /* \"#utility.yul\":2572:2573   */\n      0x03\n        /* \"#utility.yul\":2565:2570   */\n      dup2\n        /* \"#utility.yul\":2562:2574   */\n      lt\n        /* \"#utility.yul\":2552:2598   */\n      tag_210\n      jumpi\n        /* \"#utility.yul\":2578:2596   */\n      tag_211\n      tag_71\n      jump\t// in\n    tag_211:\n        /* \"#utility.yul\":2552:2598   */\n    tag_210:\n        /* \"#utility.yul\":2485:2604   */\n      pop\n      jump\t// out\n        /* \"#utility.yul\":2610:2749   */\n    tag_117:\n        /* \"#utility.yul\":2661:2668   */\n      0x00\n        /* \"#utility.yul\":2690:2695   */\n      dup2\n        /* \"#utility.yul\":2679:2695   */\n      swap1\n      pop\n        /* \"#utility.yul\":2696:2743   */\n      tag_213\n        /* \"#utility.yul\":2737:2742   */\n      dup3\n        /* \"#utility.yul\":2696:2743   */\n      tag_116\n      jump\t// in\n    tag_213:\n        /* \"#utility.yul\":2610:2749   */\n      swap2\n      swap1\n      pop\n      jump\t// out\n        /* \"#utility.yul\":2755:2894   */\n    tag_118:\n        /* \"#utility.yul\":2817:2826   */\n      0x00\n        /* \"#utility.yul\":2850:2888   */\n      tag_215\n        /* \"#utility.yul\":2882:2887   */\n      dup3\n        /* \"#utility.yul\":2850:2888   */\n      tag_117\n      jump\t// in\n    tag_215:\n        /* \"#utility.yul\":2837:2888   */\n      swap1\n      pop\n        /* \"#utility.yul\":2755:2894   */\n      swap2\n      swap1\n      pop\n      jump\t// out\n        /* \"#utility.yul\":2900:3055   */\n    tag_119:\n        /* \"#utility.yul\":2999:3048   */\n      tag_217\n        /* \"#utility.yul\":3042:3047   */\n      dup2\n        /* \"#utility.yul\":2999:3048   */\n      tag_118\n      jump\t// in\n    tag_217:\n        /* \"#utility.yul\":2994:2997   */\n      dup3\n        /* \"#utility.yul\":2987:3049   */\n      mstore\n        /* \"#utility.yul\":2900:3055   */\n      pop\n      pop\n      jump\t// out\n        /* \"#utility.yul\":3061:3179   */\n    tag_120:\n        /* \"#utility.yul\":3148:3172   */\n      tag_219\n        /* \"#utility.yul\":3166:3171   */\n      dup2\n        /* \"#utility.yul\":3148:3172   */\n      tag_105\n      jump\t// in\n    tag_219:\n        /* \"#utility.yul\":3143:3146   */\n      dup3\n        /* \"#utility.yul\":3136:3173   */\n      mstore\n        /* \"#utility.yul\":3061:3179   */\n      pop\n      pop\n      jump\t// out\n        /* \"#utility.yul\":3185:3271   */\n    tag_121:\n        /* \"#utility.yul\":3220:3227   */\n      0x00\n        /* \"#utility.yul\":3260:3264   */\n      0xff\n        /* \"#utility.yul\":3253:3258   */\n      dup3\n        /* \"#utility.yul\":3249:3265   */\n      and\n        /* \"#utility.yul\":3238:3265   */\n      swap1\n      pop\n        /* \"#utility.yul\":3185:3271   */\n      swap2\n      swap1\n      pop\n      jump\t// out\n        /* \"#utility.yul\":3277:3389   */\n    tag_122:\n        /* \"#utility.yul\":3360:3382   */\n      tag_222\n        /* \"#utility.yul\":3376:3381   */\n      dup2\n        /* \"#utility.yul\":3360:3382   */\n      tag_121\n      jump\t// in\n    tag_222:\n        /* \"#utility.yul\":3355:3358   */\n      dup3\n        /* \"#utility.yul\":3348:3383   */\n      mstore\n        /* \"#utility.yul\":3277:3389   */\n      pop\n      pop\n      jump\t// out\n        /* \"#utility.yul\":3395:3485   */\n    tag_123:\n        /* \"#utility.yul\":3429:3436   */\n      0x00\n        /* \"#utility.yul\":3472:3477   */\n      dup2\n        /* \"#utility.yul\":3465:3478   */\n      iszero\n        /* \"#utility.yul\":3458:3479   */\n      iszero\n        /* \"#utility.yul\":3447:3479   */\n      swap1\n      pop\n        /* \"#utility.yul\":3395:3485   */\n      swap2\n      swap1\n      pop\n      jump\t// out\n        /* \"#utility.yul\":3491:3600   */\n    tag_124:\n        /* \"#utility.yul\":3572:3593   */\n      tag_225\n        /* \"#utility.yul\":3587:3592   */\n      dup2\n        /* \"#utility.yul\":3572:3593   */\n      tag_123\n      jump\t// in\n    tag_225:\n        /* \"#utility.yul\":3567:3570   */\n      dup3\n        /* \"#utility.yul\":3560:3594   */\n      mstore\n        /* \"#utility.yul\":3491:3600   */\n      pop\n      pop\n      jump\t// out\n        /* \"#utility.yul\":3606:4698   */\n    tag_19:\n        /* \"#utility.yul\":3917:3921   */\n      0x00\n        /* \"#utility.yul\":3955:3958   */\n      0x0100\n        /* \"#utility.yul\":3944:3953   */\n      dup3\n        /* \"#utility.yul\":3940:3959   */\n      add\n        /* \"#utility.yul\":3932:3959   */\n      swap1\n      pop\n        /* \"#utility.yul\":3969:4040   */\n      tag_227\n        /* \"#utility.yul\":4037:4038   */\n      0x00\n        /* \"#utility.yul\":4026:4035   */\n      dup4\n        /* \"#utility.yul\":4022:4039   */\n      add\n        /* \"#utility.yul\":4013:4019   */\n      dup12\n        /* \"#utility.yul\":3969:4040   */\n      tag_110\n      jump\t// in\n    tag_227:\n        /* \"#utility.yul\":4087:4096   */\n      dup2\n        /* \"#utility.yul\":4081:4085   */\n      dup2\n        /* \"#utility.yul\":4077:4097   */\n      sub\n        /* \"#utility.yul\":4072:4074   */\n      0x20\n        /* \"#utility.yul\":4061:4070   */\n      dup4\n        /* \"#utility.yul\":4057:4075   */\n      add\n        /* \"#utility.yul\":4050:4098   */\n      mstore\n        /* \"#utility.yul\":4115:4193   */\n      tag_228\n        /* \"#utility.yul\":4188:4192   */\n      dup2\n        /* \"#utility.yul\":4179:4185   */\n      dup11\n        /* \"#utility.yul\":4115:4193   */\n      tag_115\n      jump\t// in\n    tag_228:\n        /* \"#utility.yul\":4107:4193   */\n      swap1\n      pop\n        /* \"#utility.yul\":4203:4287   */\n      tag_229\n        /* \"#utility.yul\":4283:4285   */\n      0x40\n        /* \"#utility.yul\":4272:4281   */\n      dup4\n        /* \"#utility.yul\":4268:4286   */\n      add\n        /* \"#utility.yul\":4259:4265   */\n      dup10\n        /* \"#utility.yul\":4203:4287   */\n      tag_119\n      jump\t// in\n    tag_229:\n        /* \"#utility.yul\":4297:4369   */\n      tag_230\n        /* \"#utility.yul\":4365:4367   */\n      0x60\n        /* \"#utility.yul\":4354:4363   */\n      dup4\n        /* \"#utility.yul\":4350:4368   */\n      add\n        /* \"#utility.yul\":4341:4347   */\n      dup9\n        /* \"#utility.yul\":4297:4369   */\n      tag_120\n      jump\t// in\n    tag_230:\n        /* \"#utility.yul\":4379:4448   */\n      tag_231\n        /* \"#utility.yul\":4443:4446   */\n      0x80\n        /* \"#utility.yul\":4432:4441   */\n      dup4\n        /* \"#utility.yul\":4428:4447   */\n      add\n        /* \"#utility.yul\":4419:4425   */\n      dup8\n        /* \"#utility.yul\":4379:4448   */\n      tag_122\n      jump\t// in\n    tag_231:\n        /* \"#utility.yul\":4458:4531   */\n      tag_232\n        /* \"#utility.yul\":4526:4529   */\n      0xa0\n        /* \"#utility.yul\":4515:4524   */\n      dup4\n        /* \"#utility.yul\":4511:4530   */\n      add\n        /* \"#utility.yul\":4502:4508   */\n      dup7\n        /* \"#utility.yul\":4458:4531   */\n      tag_120\n      jump\t// in\n    tag_232:\n        /* \"#utility.yul\":4541:4614   */\n      tag_233\n        /* \"#utility.yul\":4609:4612   */\n      0xc0\n        /* \"#utility.yul\":4598:4607   */\n      dup4\n        /* \"#utility.yul\":4594:4613   */\n      add\n        /* \"#utility.yul\":4585:4591   */\n      dup6\n        /* \"#utility.yul\":4541:4614   */\n      tag_120\n      jump\t// in\n    tag_233:\n        /* \"#utility.yul\":4624:4691   */\n      tag_234\n        /* \"#utility.yul\":4686:4689   */\n      0xe0\n        /* \"#utility.yul\":4675:4684   */\n      dup4\n        /* \"#utility.yul\":4671:4690   */\n      add\n        /* \"#utility.yul\":4662:4668   */\n      dup5\n        /* \"#utility.yul\":4624:4691   */\n      tag_124\n      jump\t// in\n    tag_234:\n        /* \"#utility.yul\":3606:4698   */\n      swap10\n      swap9\n      pop\n      pop\n      pop\n      pop\n      pop\n      pop\n      pop\n      pop\n      pop\n      jump\t// out\n        /* \"#utility.yul\":4704:4826   */\n    tag_125:\n        /* \"#utility.yul\":4777:4801   */\n      tag_236\n        /* \"#utility.yul\":4795:4800   */\n      dup2\n        /* \"#utility.yul\":4777:4801   */\n      tag_109\n      jump\t// in\n    tag_236:\n        /* \"#utility.yul\":4770:4775   */\n      dup2\n        /* \"#utility.yul\":4767:4802   */\n      eq\n        /* \"#utility.yul\":4757:4820   */\n      tag_237\n      jumpi\n        /* \"#utility.yul\":4816:4817   */\n      0x00\n        /* \"#utility.yul\":4813:4814   */\n      0x00\n        /* \"#utility.yul\":4806:4818   */\n      revert\n        /* \"#utility.yul\":4757:4820   */\n    tag_237:\n        /* \"#utility.yul\":4704:4826   */\n      pop\n      jump\t// out\n        /* \"#utility.yul\":4832:4971   */\n    tag_126:\n        /* \"#utility.yul\":4878:4883   */\n      0x00\n        /* \"#utility.yul\":4916:4922   */\n      dup2\n        /* \"#utility.yul\":4903:4923   */\n      calldataload\n        /* \"#utility.yul\":4894:4923   */\n      swap1\n      pop\n        /* \"#utility.yul\":4932:4965   */\n      tag_239\n        /* \"#utility.yul\":4959:4964   */\n      dup2\n        /* \"#utility.yul\":4932:4965   */\n      tag_125\n      jump\t// in\n    tag_239:\n        /* \"#utility.yul\":4832:4971   */\n      swap3\n      swap2\n      pop\n      pop\n      jump\t// out\n        /* \"#utility.yul\":4977:5451   */\n    tag_22:\n        /* \"#utility.yul\":5045:5051   */\n      0x00\n        /* \"#utility.yul\":5053:5059   */\n      0x00\n        /* \"#utility.yul\":5102:5104   */\n      0x40\n        /* \"#utility.yul\":5090:5099   */\n      dup4\n        /* \"#utility.yul\":5081:5088   */\n      dup6\n        /* \"#utility.yul\":5077:5100   */\n      sub\n        /* \"#utility.yul\":5073:5105   */\n      slt\n        /* \"#utility.yul\":5070:5189   */\n      iszero\n      tag_241\n      jumpi\n        /* \"#utility.yul\":5108:5187   */\n      tag_242\n      tag_103\n      jump\t// in\n    tag_242:\n        /* \"#utility.yul\":5070:5189   */\n    tag_241:\n        /* \"#utility.yul\":5228:5229   */\n      0x00\n        /* \"#utility.yul\":5253:5306   */\n      tag_243\n        /* \"#utility.yul\":5298:5305   */\n      dup6\n        /* \"#utility.yul\":5289:5295   */\n      dup3\n        /* \"#utility.yul\":5278:5287   */\n      dup7\n        /* \"#utility.yul\":5274:5296   */\n      add\n        /* \"#utility.yul\":5253:5306   */\n      tag_107\n      jump\t// in\n    tag_243:\n        /* \"#utility.yul\":5243:5306   */\n      swap3\n      pop\n        /* \"#utility.yul\":5199:5316   */\n      pop\n        /* \"#utility.yul\":5355:5357   */\n      0x20\n        /* \"#utility.yul\":5381:5434   */\n      tag_244\n        /* \"#utility.yul\":5426:5433   */\n      dup6\n        /* \"#utility.yul\":5417:5423   */\n      dup3\n        /* \"#utility.yul\":5406:5415   */\n      dup7\n        /* \"#utility.yul\":5402:5424   */\n      add\n        /* \"#utility.yul\":5381:5434   */\n      tag_126\n      jump\t// in\n    tag_244:\n        /* \"#utility.yul\":5371:5434   */\n      swap2\n      pop\n        /* \"#utility.yul\":5326:5444   */\n      pop\n        /* \"#utility.yul\":4977:5451   */\n      swap3\n      pop\n      swap3\n      swap1\n      pop\n      jump\t// out\n        /* \"#utility.yul\":5457:5667   */\n    tag_25:\n        /* \"#utility.yul\":5544:5548   */\n      0x00\n        /* \"#utility.yul\":5582:5584   */\n      0x20\n        /* \"#utility.yul\":5571:5580   */\n      dup3\n        /* \"#utility.yul\":5567:5585   */\n      add\n        /* \"#utility.yul\":5559:5585   */\n      swap1\n      pop\n        /* \"#utility.yul\":5595:5660   */\n      tag_246\n        /* \"#utility.yul\":5657:5658   */\n      0x00\n        /* \"#utility.yul\":5646:5655   */\n      dup4\n        /* \"#utility.yul\":5642:5659   */\n      add\n        /* \"#utility.yul\":5633:5639   */\n      dup5\n        /* \"#utility.yul\":5595:5660   */\n      tag_124\n      jump\t// in\n    tag_246:\n        /* \"#utility.yul\":5457:5667   */\n      swap3\n      swap2\n      pop\n      pop\n      jump\t// out\n        /* \"#utility.yul\":5673:5790   */\n    tag_127:\n        /* \"#utility.yul\":5782:5783   */\n      0x00\n        /* \"#utility.yul\":5779:5780   */\n      0x00\n        /* \"#utility.yul\":5772:5784   */\n      revert\n        /* \"#utility.yul\":5796:5913   */\n    tag_128:\n        /* \"#utility.yul\":5905:5906   */\n      0x00\n        /* \"#utility.yul\":5902:5903   */\n      0x00\n        /* \"#utility.yul\":5895:5907   */\n      revert\n        /* \"#utility.yul\":5919:6036   */\n    tag_129:\n        /* \"#utility.yul\":6028:6029   */\n      0x00\n        /* \"#utility.yul\":6025:6026   */\n      0x00\n        /* \"#utility.yul\":6018:6030   */\n      revert\n        /* \"#utility.yul\":6059:6627   */\n    tag_130:\n        /* \"#utility.yul\":6132:6140   */\n      0x00\n        /* \"#utility.yul\":6142:6148   */\n      0x00\n        /* \"#utility.yul\":6192:6195   */\n      dup4\n        /* \"#utility.yul\":6185:6189   */\n      0x1f\n        /* \"#utility.yul\":6177:6183   */\n      dup5\n        /* \"#utility.yul\":6173:6190   */\n      add\n        /* \"#utility.yul\":6169:6196   */\n      slt\n        /* \"#utility.yul\":6159:6281   */\n      tag_251\n      jumpi\n        /* \"#utility.yul\":6200:6279   */\n      tag_252\n      tag_127\n      jump\t// in\n    tag_252:\n        /* \"#utility.yul\":6159:6281   */\n    tag_251:\n        /* \"#utility.yul\":6313:6319   */\n      dup3\n        /* \"#utility.yul\":6300:6320   */\n      calldataload\n        /* \"#utility.yul\":6290:6320   */\n      swap1\n      pop\n        /* \"#utility.yul\":6343:6361   */\n      0xffffffffffffffff\n        /* \"#utility.yul\":6335:6341   */\n      dup2\n        /* \"#utility.yul\":6332:6362   */\n      gt\n        /* \"#utility.yul\":6329:6446   */\n      iszero\n      tag_253\n      jumpi\n        /* \"#utility.yul\":6365:6444   */\n      tag_254\n      tag_128\n      jump\t// in\n    tag_254:\n        /* \"#utility.yul\":6329:6446   */\n    tag_253:\n        /* \"#utility.yul\":6479:6483   */\n      0x20\n        /* \"#utility.yul\":6471:6477   */\n      dup4\n        /* \"#utility.yul\":6467:6484   */\n      add\n        /* \"#utility.yul\":6455:6484   */\n      swap2\n      pop\n        /* \"#utility.yul\":6533:6536   */\n      dup4\n        /* \"#utility.yul\":6525:6529   */\n      0x20\n        /* \"#utility.yul\":6517:6523   */\n      dup3\n        /* \"#utility.yul\":6513:6530   */\n      mul\n        /* \"#utility.yul\":6503:6511   */\n      dup4\n        /* \"#utility.yul\":6499:6531   */\n      add\n        /* \"#utility.yul\":6496:6537   */\n      gt\n        /* \"#utility.yul\":6493:6621   */\n      iszero\n      tag_255\n      jumpi\n        /* \"#utility.yul\":6540:6619   */\n      tag_256\n      tag_129\n      jump\t// in\n    tag_256:\n        /* \"#utility.yul\":6493:6621   */\n    tag_255:\n        /* \"#utility.yul\":6059:6627   */\n      swap3\n      pop\n      swap3\n      swap1\n      pop\n      jump\t// out\n        /* \"#utility.yul\":6633:7337   */\n    tag_28:\n        /* \"#utility.yul\":6728:6734   */\n      0x00\n        /* \"#utility.yul\":6736:6742   */\n      0x00\n        /* \"#utility.yul\":6744:6750   */\n      0x00\n        /* \"#utility.yul\":6793:6795   */\n      0x40\n        /* \"#utility.yul\":6781:6790   */\n      dup5\n        /* \"#utility.yul\":6772:6779   */\n      dup7\n        /* \"#utility.yul\":6768:6791   */\n      sub\n        /* \"#utility.yul\":6764:6796   */\n      slt\n        /* \"#utility.yul\":6761:6880   */\n      iszero\n      tag_258\n      jumpi\n        /* \"#utility.yul\":6799:6878   */\n      tag_259\n      tag_103\n      jump\t// in\n    tag_259:\n        /* \"#utility.yul\":6761:6880   */\n    tag_258:\n        /* \"#utility.yul\":6919:6920   */\n      0x00\n        /* \"#utility.yul\":6944:6997   */\n      tag_260\n        /* \"#utility.yul\":6989:6996   */\n      dup7\n        /* \"#utility.yul\":6980:6986   */\n      dup3\n        /* \"#utility.yul\":6969:6978   */\n      dup8\n        /* \"#utility.yul\":6965:6987   */\n      add\n        /* \"#utility.yul\":6944:6997   */\n      tag_107\n      jump\t// in\n    tag_260:\n        /* \"#utility.yul\":6934:6997   */\n      swap4\n      pop\n        /* \"#utility.yul\":6890:7007   */\n      pop\n        /* \"#utility.yul\":7074:7076   */\n      0x20\n        /* \"#utility.yul\":7063:7072   */\n      dup5\n        /* \"#utility.yul\":7059:7077   */\n      add\n        /* \"#utility.yul\":7046:7078   */\n      calldataload\n        /* \"#utility.yul\":7105:7123   */\n      0xffffffffffffffff\n        /* \"#utility.yul\":7097:7103   */\n      dup2\n        /* \"#utility.yul\":7094:7124   */\n      gt\n        /* \"#utility.yul\":7091:7208   */\n      iszero\n      tag_261\n      jumpi\n        /* \"#utility.yul\":7127:7206   */\n      tag_262\n      tag_104\n      jump\t// in\n    tag_262:\n        /* \"#utility.yul\":7091:7208   */\n    tag_261:\n        /* \"#utility.yul\":7240:7320   */\n      tag_263\n        /* \"#utility.yul\":7312:7319   */\n      dup7\n        /* \"#utility.yul\":7303:7309   */\n      dup3\n        /* \"#utility.yul\":7292:7301   */\n      dup8\n        /* \"#utility.yul\":7288:7310   */\n      add\n        /* \"#utility.yul\":7240:7320   */\n      tag_130\n      jump\t// in\n    tag_263:\n        /* \"#utility.yul\":7222:7320   */\n      swap3\n      pop\n      swap3\n      pop\n        /* \"#utility.yul\":7017:7330   */\n      pop\n        /* \"#utility.yul\":6633:7337   */\n      swap3\n      pop\n      swap3\n      pop\n      swap3\n      jump\t// out\n        /* \"#utility.yul\":7343:7460   */\n    tag_131:\n        /* \"#utility.yul\":7452:7453   */\n      0x00\n        /* \"#utility.yul\":7449:7450   */\n      0x00\n        /* \"#utility.yul\":7442:7454   */\n      revert\n        /* \"#utility.yul\":7466:7646   */\n    tag_132:\n        /* \"#utility.yul\":7514:7591   */\n      0x4e487b7100000000000000000000000000000000000000000000000000000000\n        /* \"#utility.yul\":7511:7512   */\n      0x00\n        /* \"#utility.yul\":7504:7592   */\n      mstore\n        /* \"#utility.yul\":7611:7615   */\n      0x41\n        /* \"#utility.yul\":7608:7609   */\n      0x04\n        /* \"#utility.yul\":7601:7616   */\n      mstore\n        /* \"#utility.yul\":7635:7639   */\n      0x24\n        /* \"#utility.yul\":7632:7633   */\n      0x00\n        /* \"#utility.yul\":7625:7640   */\n      revert\n        /* \"#utility.yul\":7652:7933   */\n    tag_133:\n        /* \"#utility.yul\":7735:7762   */\n      tag_267\n        /* \"#utility.yul\":7757:7761   */\n      dup3\n        /* \"#utility.yul\":7735:7762   */\n      tag_114\n      jump\t// in\n    tag_267:\n        /* \"#utility.yul\":7727:7733   */\n      dup2\n        /* \"#utility.yul\":7723:7763   */\n      add\n        /* \"#utility.yul\":7865:7871   */\n      dup2\n        /* \"#utility.yul\":7853:7863   */\n      dup2\n        /* \"#utility.yul\":7850:7872   */\n      lt\n        /* \"#utility.yul\":7829:7847   */\n      0xffffffffffffffff\n        /* \"#utility.yul\":7817:7827   */\n      dup3\n        /* \"#utility.yul\":7814:7848   */\n      gt\n        /* \"#utility.yul\":7811:7873   */\n      or\n        /* \"#utility.yul\":7808:7896   */\n      iszero\n      tag_268\n      jumpi\n        /* \"#utility.yul\":7876:7894   */\n      tag_269\n      tag_132\n      jump\t// in\n    tag_269:\n        /* \"#utility.yul\":7808:7896   */\n    tag_268:\n        /* \"#utility.yul\":7916:7926   */\n      dup1\n        /* \"#utility.yul\":7912:7914   */\n      0x40\n        /* \"#utility.yul\":7905:7927   */\n      mstore\n        /* \"#utility.yul\":7695:7933   */\n      pop\n        /* \"#utility.yul\":7652:7933   */\n      pop\n      pop\n      jump\t// out\n        /* \"#utility.yul\":7939:8068   */\n    tag_134:\n        /* \"#utility.yul\":7973:7979   */\n      0x00\n        /* \"#utility.yul\":8000:8020   */\n      tag_271\n      tag_102\n      jump\t// in\n    tag_271:\n        /* \"#utility.yul\":7990:8020   */\n      swap1\n      pop\n        /* \"#utility.yul\":8029:8062   */\n      tag_272\n        /* \"#utility.yul\":8057:8061   */\n      dup3\n        /* \"#utility.yul\":8049:8055   */\n      dup3\n        /* \"#utility.yul\":8029:8062   */\n      tag_133\n      jump\t// in\n    tag_272:\n        /* \"#utility.yul\":7939:8068   */\n      swap2\n      swap1\n      pop\n      jump\t// out\n        /* \"#utility.yul\":8074:8382   */\n    tag_135:\n        /* \"#utility.yul\":8136:8140   */\n      0x00\n        /* \"#utility.yul\":8226:8244   */\n      0xffffffffffffffff\n        /* \"#utility.yul\":8218:8224   */\n      dup3\n        /* \"#utility.yul\":8215:8245   */\n      gt\n        /* \"#utility.yul\":8212:8268   */\n      iszero\n      tag_274\n      jumpi\n        /* \"#utility.yul\":8248:8266   */\n      tag_275\n      tag_132\n      jump\t// in\n    tag_275:\n        /* \"#utility.yul\":8212:8268   */\n    tag_274:\n        /* \"#utility.yul\":8286:8315   */\n      tag_276\n        /* \"#utility.yul\":8308:8314   */\n      dup3\n        /* \"#utility.yul\":8286:8315   */\n      tag_114\n      jump\t// in\n    tag_276:\n        /* \"#utility.yul\":8278:8315   */\n      swap1\n      pop\n        /* \"#utility.yul\":8370:8374   */\n      0x20\n        /* \"#utility.yul\":8364:8368   */\n      dup2\n        /* \"#utility.yul\":8360:8375   */\n      add\n        /* \"#utility.yul\":8352:8375   */\n      swap1\n      pop\n        /* \"#utility.yul\":8074:8382   */\n      swap2\n      swap1\n      pop\n      jump\t// out\n        /* \"#utility.yul\":8388:8536   */\n    tag_136:\n        /* \"#utility.yul\":8486:8492   */\n      dup3\n        /* \"#utility.yul\":8481:8484   */\n      dup2\n        /* \"#utility.yul\":8476:8479   */\n      dup4\n        /* \"#utility.yul\":8463:8493   */\n      calldatacopy\n        /* \"#utility.yul\":8527:8528   */\n      0x00\n        /* \"#utility.yul\":8518:8524   */\n      dup4\n        /* \"#utility.yul\":8513:8516   */\n      dup4\n        /* \"#utility.yul\":8509:8525   */\n      add\n        /* \"#utility.yul\":8502:8529   */\n      mstore\n        /* \"#utility.yul\":8388:8536   */\n      pop\n      pop\n      pop\n      jump\t// out\n        /* \"#utility.yul\":8542:8967   */\n    tag_137:\n        /* \"#utility.yul\":8620:8625   */\n      0x00\n        /* \"#utility.yul\":8645:8711   */\n      tag_279\n        /* \"#utility.yul\":8661:8710   */\n      tag_280\n        /* \"#utility.yul\":8703:8709   */\n      dup5\n        /* \"#utility.yul\":8661:8710   */\n      tag_135\n      jump\t// in\n    tag_280:\n        /* \"#utility.yul\":8645:8711   */\n      tag_134\n      jump\t// in\n    tag_279:\n        /* \"#utility.yul\":8636:8711   */\n      swap1\n      pop\n        /* \"#utility.yul\":8734:8740   */\n      dup3\n        /* \"#utility.yul\":8727:8732   */\n      dup2\n        /* \"#utility.yul\":8720:8741   */\n      mstore\n        /* \"#utility.yul\":8772:8776   */\n      0x20\n        /* \"#utility.yul\":8765:8770   */\n      dup2\n        /* \"#utility.yul\":8761:8777   */\n      add\n        /* \"#utility.yul\":8810:8813   */\n      dup5\n        /* \"#utility.yul\":8801:8807   */\n      dup5\n        /* \"#utility.yul\":8796:8799   */\n      dup5\n        /* \"#utility.yul\":8792:8808   */\n      add\n        /* \"#utility.yul\":8789:8814   */\n      gt\n        /* \"#utility.yul\":8786:8898   */\n      iszero\n      tag_281\n      jumpi\n        /* \"#utility.yul\":8817:8896   */\n      tag_282\n      tag_131\n      jump\t// in\n    tag_282:\n        /* \"#utility.yul\":8786:8898   */\n    tag_281:\n        /* \"#utility.yul\":8907:8961   */\n      tag_283\n        /* \"#utility.yul\":8954:8960   */\n      dup5\n        /* \"#utility.yul\":8949:8952   */\n      dup3\n        /* \"#utility.yul\":8944:8947   */\n      dup6\n        /* \"#utility.yul\":8907:8961   */\n      tag_136\n      jump\t// in\n    tag_283:\n        /* \"#utility.yul\":8626:8967   */\n      pop\n        /* \"#utility.yul\":8542:8967   */\n      swap4\n      swap3\n      pop\n      pop\n      pop\n      jump\t// out\n        /* \"#utility.yul\":8987:9327   */\n    tag_138:\n        /* \"#utility.yul\":9043:9048   */\n      0x00\n        /* \"#utility.yul\":9092:9095   */\n      dup3\n        /* \"#utility.yul\":9085:9089   */\n      0x1f\n        /* \"#utility.yul\":9077:9083   */\n      dup4\n        /* \"#utility.yul\":9073:9090   */\n      add\n        /* \"#utility.yul\":9069:9096   */\n      slt\n        /* \"#utility.yul\":9059:9181   */\n      tag_285\n      jumpi\n        /* \"#utility.yul\":9100:9179   */\n      tag_286\n      tag_127\n      jump\t// in\n    tag_286:\n        /* \"#utility.yul\":9059:9181   */\n    tag_285:\n        /* \"#utility.yul\":9217:9223   */\n      dup2\n        /* \"#utility.yul\":9204:9224   */\n      calldataload\n        /* \"#utility.yul\":9242:9321   */\n      tag_287\n        /* \"#utility.yul\":9317:9320   */\n      dup5\n        /* \"#utility.yul\":9309:9315   */\n      dup3\n        /* \"#utility.yul\":9302:9306   */\n      0x20\n        /* \"#utility.yul\":9294:9300   */\n      dup7\n        /* \"#utility.yul\":9290:9307   */\n      add\n        /* \"#utility.yul\":9242:9321   */\n      tag_137\n      jump\t// in\n    tag_287:\n        /* \"#utility.yul\":9233:9321   */\n      swap2\n      pop\n        /* \"#utility.yul\":9049:9327   */\n      pop\n        /* \"#utility.yul\":8987:9327   */\n      swap3\n      swap2\n      pop\n      pop\n      jump\t// out\n        /* \"#utility.yul\":9333:9446   */\n    tag_139:\n        /* \"#utility.yul\":9420:9421   */\n      0x03\n        /* \"#utility.yul\":9413:9418   */\n      dup2\n        /* \"#utility.yul\":9410:9422   */\n      lt\n        /* \"#utility.yul\":9400:9440   */\n      tag_289\n      jumpi\n        /* \"#utility.yul\":9436:9437   */\n      0x00\n        /* \"#utility.yul\":9433:9434   */\n      0x00\n        /* \"#utility.yul\":9426:9438   */\n      revert\n        /* \"#utility.yul\":9400:9440   */\n    tag_289:\n        /* \"#utility.yul\":9333:9446   */\n      pop\n      jump\t// out\n        /* \"#utility.yul\":9452:9619   */\n    tag_140:\n        /* \"#utility.yul\":9512:9517   */\n      0x00\n        /* \"#utility.yul\":9550:9556   */\n      dup2\n        /* \"#utility.yul\":9537:9557   */\n      calldataload\n        /* \"#utility.yul\":9528:9557   */\n      swap1\n      pop\n        /* \"#utility.yul\":9566:9613   */\n      tag_291\n        /* \"#utility.yul\":9607:9612   */\n      dup2\n        /* \"#utility.yul\":9566:9613   */\n      tag_139\n      jump\t// in\n    tag_291:\n        /* \"#utility.yul\":9452:9619   */\n      swap3\n      swap2\n      pop\n      pop\n      jump\t// out\n        /* \"#utility.yul\":9625:9743   */\n    tag_141:\n        /* \"#utility.yul\":9696:9718   */\n      tag_293\n        /* \"#utility.yul\":9712:9717   */\n      dup2\n        /* \"#utility.yul\":9696:9718   */\n      tag_121\n      jump\t// in\n    tag_293:\n        /* \"#utility.yul\":9689:9694   */\n      dup2\n        /* \"#utility.yul\":9686:9719   */\n      eq\n        /* \"#utility.yul\":9676:9737   */\n      tag_294\n      jumpi\n        /* \"#utility.yul\":9733:9734   */\n      0x00\n        /* \"#utility.yul\":9730:9731   */\n      0x00\n        /* \"#utility.yul\":9723:9735   */\n      revert\n        /* \"#utility.yul\":9676:9737   */\n    tag_294:\n        /* \"#utility.yul\":9625:9743   */\n      pop\n      jump\t// out\n        /* \"#utility.yul\":9749:9884   */\n    tag_142:\n        /* \"#utility.yul\":9793:9798   */\n      0x00\n        /* \"#utility.yul\":9831:9837   */\n      dup2\n        /* \"#utility.yul\":9818:9838   */\n      calldataload\n        /* \"#utility.yul\":9809:9838   */\n      swap1\n      pop\n        /* \"#utility.yul\":9847:9878   */\n      tag_296\n        /* \"#utility.yul\":9872:9877   */\n      dup2\n        /* \"#utility.yul\":9847:9878   */\n      tag_141\n      jump\t// in\n    tag_296:\n        /* \"#utility.yul\":9749:9884   */\n      swap3\n      swap2\n      pop\n      pop\n      jump\t// out\n        /* \"#utility.yul\":9890:10859   */\n    tag_36:\n        /* \"#utility.yul\":9998:10004   */\n      0x00\n        /* \"#utility.yul\":10006:10012   */\n      0x00\n        /* \"#utility.yul\":10014:10020   */\n      0x00\n        /* \"#utility.yul\":10022:10028   */\n      0x00\n        /* \"#utility.yul\":10071:10074   */\n      0x80\n        /* \"#utility.yul\":10059:10068   */\n      dup6\n        /* \"#utility.yul\":10050:10057   */\n      dup8\n        /* \"#utility.yul\":10046:10069   */\n      sub\n        /* \"#utility.yul\":10042:10075   */\n      slt\n        /* \"#utility.yul\":10039:10159   */\n      iszero\n      tag_298\n      jumpi\n        /* \"#utility.yul\":10078:10157   */\n      tag_299\n      tag_103\n      jump\t// in\n    tag_299:\n        /* \"#utility.yul\":10039:10159   */\n    tag_298:\n        /* \"#utility.yul\":10226:10227   */\n      0x00\n        /* \"#utility.yul\":10215:10224   */\n      dup6\n        /* \"#utility.yul\":10211:10228   */\n      add\n        /* \"#utility.yul\":10198:10229   */\n      calldataload\n        /* \"#utility.yul\":10256:10274   */\n      0xffffffffffffffff\n        /* \"#utility.yul\":10248:10254   */\n      dup2\n        /* \"#utility.yul\":10245:10275   */\n      gt\n        /* \"#utility.yul\":10242:10359   */\n      iszero\n      tag_300\n      jumpi\n        /* \"#utility.yul\":10278:10357   */\n      tag_301\n      tag_104\n      jump\t// in\n    tag_301:\n        /* \"#utility.yul\":10242:10359   */\n    tag_300:\n        /* \"#utility.yul\":10383:10446   */\n      tag_302\n        /* \"#utility.yul\":10438:10445   */\n      dup8\n        /* \"#utility.yul\":10429:10435   */\n      dup3\n        /* \"#utility.yul\":10418:10427   */\n      dup9\n        /* \"#utility.yul\":10414:10436   */\n      add\n        /* \"#utility.yul\":10383:10446   */\n      tag_138\n      jump\t// in\n    tag_302:\n        /* \"#utility.yul\":10373:10446   */\n      swap5\n      pop\n        /* \"#utility.yul\":10169:10456   */\n      pop\n        /* \"#utility.yul\":10495:10497   */\n      0x20\n        /* \"#utility.yul\":10521:10588   */\n      tag_303\n        /* \"#utility.yul\":10580:10587   */\n      dup8\n        /* \"#utility.yul\":10571:10577   */\n      dup3\n        /* \"#utility.yul\":10560:10569   */\n      dup9\n        /* \"#utility.yul\":10556:10578   */\n      add\n        /* \"#utility.yul\":10521:10588   */\n      tag_140\n      jump\t// in\n    tag_303:\n        /* \"#utility.yul\":10511:10588   */\n      swap4\n      pop\n        /* \"#utility.yul\":10466:10598   */\n      pop\n        /* \"#utility.yul\":10637:10639   */\n      0x40\n        /* \"#utility.yul\":10663:10716   */\n      tag_304\n        /* \"#utility.yul\":10708:10715   */\n      dup8\n        /* \"#utility.yul\":10699:10705   */\n      dup3\n        /* \"#utility.yul\":10688:10697   */\n      dup9\n        /* \"#utility.yul\":10684:10706   */\n      add\n        /* \"#utility.yul\":10663:10716   */\n      tag_107\n      jump\t// in\n    tag_304:\n        /* \"#utility.yul\":10653:10716   */\n      swap3\n      pop\n        /* \"#utility.yul\":10608:10726   */\n      pop\n        /* \"#utility.yul\":10765:10767   */\n      0x60\n        /* \"#utility.yul\":10791:10842   */\n      tag_305\n        /* \"#utility.yul\":10834:10841   */\n      dup8\n        /* \"#utility.yul\":10825:10831   */\n      dup3\n        /* \"#utility.yul\":10814:10823   */\n      dup9\n        /* \"#utility.yul\":10810:10832   */\n      add\n        /* \"#utility.yul\":10791:10842   */\n      tag_142\n      jump\t// in\n    tag_305:\n        /* \"#utility.yul\":10781:10842   */\n      swap2\n      pop\n        /* \"#utility.yul\":10736:10852   */\n      pop\n        /* \"#utility.yul\":9890:10859   */\n      swap3\n      swap6\n      swap2\n      swap5\n      pop\n      swap3\n      pop\n      jump\t// out\n        /* \"#utility.yul\":10865:11087   */\n    tag_41:\n        /* \"#utility.yul\":10958:10962   */\n      0x00\n        /* \"#utility.yul\":10996:10998   */\n      0x20\n        /* \"#utility.yul\":10985:10994   */\n      dup3\n        /* \"#utility.yul\":10981:10999   */\n      add\n        /* \"#utility.yul\":10973:10999   */\n      swap1\n      pop\n        /* \"#utility.yul\":11009:11080   */\n      tag_307\n        /* \"#utility.yul\":11077:11078   */\n      0x00\n        /* \"#utility.yul\":11066:11075   */\n      dup4\n        /* \"#utility.yul\":11062:11079   */\n      add\n        /* \"#utility.yul\":11053:11059   */\n      dup5\n        /* \"#utility.yul\":11009:11080   */\n      tag_120\n      jump\t// in\n    tag_307:\n        /* \"#utility.yul\":10865:11087   */\n      swap3\n      swap2\n      pop\n      pop\n      jump\t// out\n        /* \"#utility.yul\":11093:11266   */\n    tag_143:\n        /* \"#utility.yul\":11233:11258   */\n      0x5175657374696f6e20646f6573206e6f74206578697374000000000000000000\n        /* \"#utility.yul\":11229:11230   */\n      0x00\n        /* \"#utility.yul\":11221:11227   */\n      dup3\n        /* \"#utility.yul\":11217:11231   */\n      add\n        /* \"#utility.yul\":11210:11259   */\n      mstore\n        /* \"#utility.yul\":11093:11266   */\n      pop\n      jump\t// out\n        /* \"#utility.yul\":11272:11638   */\n    tag_144:\n        /* \"#utility.yul\":11414:11417   */\n      0x00\n        /* \"#utility.yul\":11435:11502   */\n      tag_310\n        /* \"#utility.yul\":11499:11501   */\n      0x17\n        /* \"#utility.yul\":11494:11497   */\n      dup4\n        /* \"#utility.yul\":11435:11502   */\n      tag_112\n      jump\t// in\n    tag_310:\n        /* \"#utility.yul\":11428:11502   */\n      swap2\n      pop\n        /* \"#utility.yul\":11511:11604   */\n      tag_311\n        /* \"#utility.yul\":11600:11603   */\n      dup3\n        /* \"#utility.yul\":11511:11604   */\n      tag_143\n      jump\t// in\n    tag_311:\n        /* \"#utility.yul\":11629:11631   */\n      0x20\n        /* \"#utility.yul\":11624:11627   */\n      dup3\n        /* \"#utility.yul\":11620:11632   */\n      add\n        /* \"#utility.yul\":11613:11632   */\n      swap1\n      pop\n        /* \"#utility.yul\":11272:11638   */\n      swap2\n      swap1\n      pop\n      jump\t// out\n        /* \"#utility.yul\":11644:12063   */\n    tag_45:\n        /* \"#utility.yul\":11810:11814   */\n      0x00\n        /* \"#utility.yul\":11848:11850   */\n      0x20\n        /* \"#utility.yul\":11837:11846   */\n      dup3\n        /* \"#utility.yul\":11833:11851   */\n      add\n        /* \"#utility.yul\":11825:11851   */\n      swap1\n      pop\n        /* \"#utility.yul\":11897:11906   */\n      dup2\n        /* \"#utility.yul\":11891:11895   */\n      dup2\n        /* \"#utility.yul\":11887:11907   */\n      sub\n        /* \"#utility.yul\":11883:11884   */\n      0x00\n        /* \"#utility.yul\":11872:11881   */\n      dup4\n        /* \"#utility.yul\":11868:11885   */\n      add\n        /* \"#utility.yul\":11861:11908   */\n      mstore\n        /* \"#utility.yul\":11925:12056   */\n      tag_313\n        /* \"#utility.yul\":12051:12055   */\n      dup2\n        /* \"#utility.yul\":11925:12056   */\n      tag_144\n      jump\t// in\n    tag_313:\n        /* \"#utility.yul\":11917:12056   */\n      swap1\n      pop\n        /* \"#utility.yul\":11644:12063   */\n      swap2\n      swap1\n      pop\n      jump\t// out\n        /* \"#utility.yul\":12069:12234   */\n    tag_145:\n        /* \"#utility.yul\":12209:12226   */\n      0x416c7265616479207570766f7465640000000000000000000000000000000000\n        /* \"#utility.yul\":12205:12206   */\n      0x00\n        /* \"#utility.yul\":12197:12203   */\n      dup3\n        /* \"#utility.yul\":12193:12207   */\n      add\n        /* \"#utility.yul\":12186:12227   */\n      mstore\n        /* \"#utility.yul\":12069:12234   */\n      pop\n      jump\t// out\n        /* \"#utility.yul\":12240:12606   */\n    tag_146:\n        /* \"#utility.yul\":12382:12385   */\n      0x00\n        /* \"#utility.yul\":12403:12470   */\n      tag_316\n        /* \"#utility.yul\":12467:12469   */\n      0x0f\n        /* \"#utility.yul\":12462:12465   */\n      dup4\n        /* \"#utility.yul\":12403:12470   */\n      tag_112\n      jump\t// in\n    tag_316:\n        /* \"#utility.yul\":12396:12470   */\n      swap2\n      pop\n        /* \"#utility.yul\":12479:12572   */\n      tag_317\n        /* \"#utility.yul\":12568:12571   */\n      dup3\n        /* \"#utility.yul\":12479:12572   */\n      tag_145\n      jump\t// in\n    tag_317:\n        /* \"#utility.yul\":12597:12599   */\n      0x20\n        /* \"#utility.yul\":12592:12595   */\n      dup3\n        /* \"#utility.yul\":12588:12600   */\n      add\n        /* \"#utility.yul\":12581:12600   */\n      swap1\n      pop\n        /* \"#utility.yul\":12240:12606   */\n      swap2\n      swap1\n      pop\n      jump\t// out\n        /* \"#utility.yul\":12612:13031   */\n    tag_48:\n        /* \"#utility.yul\":12778:12782   */\n      0x00\n        /* \"#utility.yul\":12816:12818   */\n      0x20\n        /* \"#utility.yul\":12805:12814   */\n      dup3\n        /* \"#utility.yul\":12801:12819   */\n      add\n        /* \"#utility.yul\":12793:12819   */\n      swap1\n      pop\n        /* \"#utility.yul\":12865:12874   */\n      dup2\n        /* \"#utility.yul\":12859:12863   */\n      dup2\n        /* \"#utility.yul\":12855:12875   */\n      sub\n        /* \"#utility.yul\":12851:12852   */\n      0x00\n        /* \"#utility.yul\":12840:12849   */\n      dup4\n        /* \"#utility.yul\":12836:12853   */\n      add\n        /* \"#utility.yul\":12829:12876   */\n      mstore\n        /* \"#utility.yul\":12893:13024   */\n      tag_319\n        /* \"#utility.yul\":13019:13023   */\n      dup2\n        /* \"#utility.yul\":12893:13024   */\n      tag_146\n      jump\t// in\n    tag_319:\n        /* \"#utility.yul\":12885:13024   */\n      swap1\n      pop\n        /* \"#utility.yul\":12612:13031   */\n      swap2\n      swap1\n      pop\n      jump\t// out\n        /* \"#utility.yul\":13037:13217   */\n    tag_147:\n        /* \"#utility.yul\":13085:13162   */\n      0x4e487b7100000000000000000000000000000000000000000000000000000000\n        /* \"#utility.yul\":13082:13083   */\n      0x00\n        /* \"#utility.yul\":13075:13163   */\n      mstore\n        /* \"#utility.yul\":13182:13186   */\n      0x11\n        /* \"#utility.yul\":13179:13180   */\n      0x04\n        /* \"#utility.yul\":13172:13187   */\n      mstore\n        /* \"#utility.yul\":13206:13210   */\n      0x24\n        /* \"#utility.yul\":13203:13204   */\n      0x00\n        /* \"#utility.yul\":13196:13211   */\n      revert\n        /* \"#utility.yul\":13223:13456   */\n    tag_50:\n        /* \"#utility.yul\":13262:13265   */\n      0x00\n        /* \"#utility.yul\":13285:13309   */\n      tag_322\n        /* \"#utility.yul\":13303:13308   */\n      dup3\n        /* \"#utility.yul\":13285:13309   */\n      tag_105\n      jump\t// in\n    tag_322:\n        /* \"#utility.yul\":13276:13309   */\n      swap2\n      pop\n        /* \"#utility.yul\":13331:13397   */\n      0xffffffffffffffffffffffffffffffffffffffffffffffffffffffffffffffff\n        /* \"#utility.yul\":13324:13329   */\n      dup3\n        /* \"#utility.yul\":13321:13398   */\n      sub\n        /* \"#utility.yul\":13318:13421   */\n      tag_323\n      jumpi\n        /* \"#utility.yul\":13401:13419   */\n      tag_324\n      tag_147\n      jump\t// in\n    tag_324:\n        /* \"#utility.yul\":13318:13421   */\n    tag_323:\n        /* \"#utility.yul\":13448:13449   */\n      0x01\n        /* \"#utility.yul\":13441:13446   */\n      dup3\n        /* \"#utility.yul\":13437:13450   */\n      add\n        /* \"#utility.yul\":13430:13450   */\n      swap1\n      pop\n        /* \"#utility.yul\":13223:13456   */\n      swap2\n      swap1\n      pop\n      jump\t// out\n        /* \"#utility.yul\":13462:13642   */\n    tag_148:\n        /* \"#utility.yul\":13510:13587   */\n      0x4e487b7100000000000000000000000000000000000000000000000000000000\n        /* \"#utility.yul\":13507:13508   */\n      0x00\n        /* \"#utility.yul\":13500:13588   */\n      mstore\n        /* \"#utility.yul\":13607:13611   */\n      0x22\n        /* \"#utility.yul\":13604:13605   */\n      0x04\n        /* \"#utility.yul\":13597:13612   */\n      mstore\n        /* \"#utility.yul\":13631:13635   */\n      0x24\n        /* \"#utility.yul\":13628:13629   */\n      0x00\n        /* \"#utility.yul\":13621:13636   */\n      revert\n        /* \"#utility.yul\":13648:13968   */\n    tag_52:\n        /* \"#utility.yul\":13692:13698   */\n      0x00\n        /* \"#utility.yul\":13729:13730   */\n      0x02\n        /* \"#utility.yul\":13723:13727   */\n      dup3\n        /* \"#utility.yul\":13719:13731   */\n      div\n        /* \"#utility.yul\":13709:13731   */\n      swap1\n      pop\n        /* \"#utility.yul\":13776:13777   */\n      0x01\n        /* \"#utility.yul\":13770:13774   */\n      dup3\n        /* \"#utility.yul\":13766:13778   */\n      and\n        /* \"#utility.yul\":13797:13815   */\n      dup1\n        /* \"#utility.yul\":13787:13868   */\n      tag_327\n      jumpi\n        /* \"#utility.yul\":13853:13857   */\n      0x7f\n        /* \"#utility.yul\":13845:13851   */\n      dup3\n        /* \"#utility.yul\":13841:13858   */\n      and\n        /* \"#utility.yul\":13831:13858   */\n      swap2\n      pop\n        /* \"#utility.yul\":13787:13868   */\n    tag_327:\n        /* \"#utility.yul\":13915:13917   */\n      0x20\n        /* \"#utility.yul\":13907:13913   */\n      dup3\n        /* \"#utility.yul\":13904:13918   */\n      lt\n        /* \"#utility.yul\":13884:13902   */\n      dup2\n        /* \"#utility.yul\":13881:13919   */\n      sub\n        /* \"#utility.yul\":13878:13962   */\n      tag_328\n      jumpi\n        /* \"#utility.yul\":13934:13952   */\n      tag_329\n      tag_148\n      jump\t// in\n    tag_329:\n        /* \"#utility.yul\":13878:13962   */\n    tag_328:\n        /* \"#utility.yul\":13699:13968   */\n      pop\n        /* \"#utility.yul\":13648:13968   */\n      swap2\n      swap1\n      pop\n      jump\t// out\n        /* \"#utility.yul\":13974:14138   */\n    tag_149:\n        /* \"#utility.yul\":14114:14130   */\n      0x506f6c6c2068617320656e646564000000000000000000000000000000000000\n        /* \"#utility.yul\":14110:14111   */\n      0x00\n        /* \"#utility.yul\":14102:14108   */\n      dup3\n        /* \"#utility.yul\":14098:14112   */\n      add\n        /* \"#utility.yul\":14091:14131   */\n      mstore\n        /* \"#utility.yul\":13974:14138   */\n      pop\n      jump\t// out\n        /* \"#utility.yul\":14144:14510   */\n    tag_150:\n        /* \"#utility.yul\":14286:14289   */\n      0x00\n        /* \"#utility.yul\":14307:14374   */\n      tag_332\n        /* \"#utility.yul\":14371:14373   */\n      0x0e\n        /* \"#utility.yul\":14366:14369   */\n      dup4\n        /* \"#utility.yul\":14307:14374   */\n      tag_112\n      jump\t// in\n    tag_332:\n        /* \"#utility.yul\":14300:14374   */\n      swap2\n      pop\n        /* \"#utility.yul\":14383:14476   */\n      tag_333\n        /* \"#utility.yul\":14472:14475   */\n      dup3\n        /* \"#utility.yul\":14383:14476   */\n      tag_149\n      jump\t// in\n    tag_333:\n        /* \"#utility.yul\":14501:14503   */\n      0x20\n        /* \"#utility.yul\":14496:14499   */\n      dup3\n        /* \"#utility.yul\":14492:14504   */\n      add\n        /* \"#utility.yul\":14485:14504   */\n      swap1\n      pop\n        /* \"#utility.yul\":14144:14510   */\n      swap2\n      swap1\n      pop\n      jump\t// out\n        /* \"#utility.yul\":14516:14935   */\n    tag_62:\n        /* \"#utility.yul\":14682:14686   */\n      0x00\n        /* \"#utility.yul\":14720:14722   */\n      0x20\n        /* \"#utility.yul\":14709:14718   */\n      dup3\n        /* \"#utility.yul\":14705:14723   */\n      add\n        /* \"#utility.yul\":14697:14723   */\n      swap1\n      pop\n        /* \"#utility.yul\":14769:14778   */\n      dup2\n        /* \"#utility.yul\":14763:14767   */\n      dup2\n        /* \"#utility.yul\":14759:14779   */\n      sub\n        /* \"#utility.yul\":14755:14756   */\n      0x00\n        /* \"#utility.yul\":14744:14753   */\n      dup4\n        /* \"#utility.yul\":14740:14757   */\n      add\n        /* \"#utility.yul\":14733:14780   */\n      mstore\n        /* \"#utility.yul\":14797:14928   */\n      tag_335\n        /* \"#utility.yul\":14923:14927   */\n      dup2\n        /* \"#utility.yul\":14797:14928   */\n      tag_150\n      jump\t// in\n    tag_335:\n        /* \"#utility.yul\":14789:14928   */\n      swap1\n      pop\n        /* \"#utility.yul\":14516:14935   */\n      swap2\n      swap1\n      pop\n      jump\t// out\n        /* \"#utility.yul\":14941:15104   */\n    tag_151:\n        /* \"#utility.yul\":15081:15096   */\n      0x416c726561647920766f74656400000000000000000000000000000000000000\n        /* \"#utility.yul\":15077:15078   */\n      0x00\n        /* \"#utility.yul\":15069:15075   */\n      dup3\n        /* \"#utility.yul\":15065:15079   */\n      add\n        /* \"#utility.yul\":15058:15097   */\n      mstore\n        /* \"#utility.yul\":14941:15104   */\n      pop\n      jump\t// out\n        /* \"#utility.yul\":15110:15476   */\n    tag_152:\n        /* \"#utility.yul\":15252:15255   */\n      0x00\n        /* \"#utility.yul\":15273:15340   */\n      tag_338\n        /* \"#utility.yul\":15337:15339   */\n      0x0d\n        /* \"#utility.yul\":15332:15335   */\n      dup4\n        /* \"#utility.yul\":15273:15340   */\n      tag_112\n      jump\t// in\n    tag_338:\n        /* \"#utility.yul\":15266:15340   */\n      swap2\n      pop\n        /* \"#utility.yul\":15349:15442   */\n      tag_339\n        /* \"#utility.yul\":15438:15441   */\n      dup3\n        /* \"#utility.yul\":15349:15442   */\n      tag_151\n      jump\t// in\n    tag_339:\n        /* \"#utility.yul\":15467:15469   */\n      0x20\n        /* \"#utility.yul\":15462:15465   */\n      dup3\n        /* \"#utility.yul\":15458:15470   */\n      add\n        /* \"#utility.yul\":15451:15470   */\n      swap1\n      pop\n        /* \"#utility.yul\":15110:15476   */\n      swap2\n      swap1\n      pop\n      jump\t// out\n        /* \"#utility.yul\":15482:15901   */\n    tag_65:\n        /* \"#utility.yul\":15648:15652   */\n      0x00\n        /* \"#utility.yul\":15686:15688   */\n      0x20\n        /* \"#utility.yul\":15675:15684   */\n      dup3\n        /* \"#utility.yul\":15671:15689   */\n      add\n        /* \"#utility.yul\":15663:15689   */\n      swap1\n      pop\n        /* \"#utility.yul\":15735:15744   */\n      dup2\n        /* \"#utility.yul\":15729:15733   */\n      dup2\n        /* \"#utility.yul\":15725:15745   */\n      sub\n        /* \"#utility.yul\":15721:15722   */\n      0x00\n        /* \"#utility.yul\":15710:15719   */\n      dup4\n        /* \"#utility.yul\":15706:15723   */\n      add\n        /* \"#utility.yul\":15699:15746   */\n      mstore\n        /* \"#utility.yul\":15763:15894   */\n      tag_341\n        /* \"#utility.yul\":15889:15893   */\n      dup2\n        /* \"#utility.yul\":15763:15894   */\n      tag_152\n      jump\t// in\n    tag_341:\n        /* \"#utility.yul\":15755:15894   */\n      swap1\n      pop\n        /* \"#utility.yul\":15482:15901   */\n      swap2\n      swap1\n      pop\n      jump\t// out\n        /* \"#utility.yul\":15907:16088   */\n    tag_153:\n        /* \"#utility.yul\":16047:16080   */\n      0x4d7573742073656c656374206174206c65617374206f6e65206f7074696f6e00\n        /* \"#utility.yul\":16043:16044   */\n      0x00\n        /* \"#utility.yul\":16035:16041   */\n      dup3\n        /* \"#utility.yul\":16031:16045   */\n      add\n        /* \"#utility.yul\":16024:16081   */\n      mstore\n        /* \"#utility.yul\":15907:16088   */\n      pop\n      jump\t// out\n        /* \"#utility.yul\":16094:16460   */\n    tag_154:\n        /* \"#utility.yul\":16236:16239   */\n      0x00\n        /* \"#utility.yul\":16257:16324   */\n      tag_344\n        /* \"#utility.yul\":16321:16323   */\n      0x1f\n        /* \"#utility.yul\":16316:16319   */\n      dup4\n        /* \"#utility.yul\":16257:16324   */\n      tag_112\n      jump\t// in\n    tag_344:\n        /* \"#utility.yul\":16250:16324   */\n      swap2\n      pop\n        /* \"#utility.yul\":16333:16426   */\n      tag_345\n        /* \"#utility.yul\":16422:16425   */\n      dup3\n        /* \"#utility.yul\":16333:16426   */\n      tag_153\n      jump\t// in\n    tag_345:\n        /* \"#utility.yul\":16451:16453   */\n      0x20\n        /* \"#utility.yul\":16446:16449   */\n      dup3\n        /* \"#utility.yul\":16442:16454   */\n      add\n        /* \"#utility.yul\":16435:16454   */\n      swap1\n      pop\n        /* \"#utility.yul\":16094:16460   */\n      swap2\n      swap1\n      pop\n      jump\t// out\n        /* \"#utility.yul\":16466:16885   */\n    tag_68:\n        /* \"#utility.yul\":16632:16636   */\n      0x00\n        /* \"#utility.yul\":16670:16672   */\n      0x20\n        /* \"#utility.yul\":16659:16668   */\n      dup3\n        /* \"#utility.yul\":16655:16673   */\n      add\n        /* \"#utility.yul\":16647:16673   */\n      swap1\n      pop\n        /* \"#utility.yul\":16719:16728   */\n      dup2\n        /* \"#utility.yul\":16713:16717   */\n      dup2\n        /* \"#utility.yul\":16709:16729   */\n      sub\n        /* \"#utility.yul\":16705:16706   */\n      0x00\n        /* \"#utility.yul\":16694:16703   */\n      dup4\n        /* \"#utility.yul\":16690:16707   */\n      add\n        /* \"#utility.yul\":16683:16730   */\n      mstore\n        /* \"#utility.yul\":16747:16878   */\n      tag_347\n        /* \"#utility.yul\":16873:16877   */\n      dup2\n        /* \"#utility.yul\":16747:16878   */\n      tag_154\n      jump\t// in\n    tag_347:\n        /* \"#utility.yul\":16739:16878   */\n      swap1\n      pop\n        /* \"#utility.yul\":16466:16885   */\n      swap2\n      swap1\n      pop\n      jump\t// out\n        /* \"#utility.yul\":16891:17064   */\n    tag_155:\n        /* \"#utility.yul\":17031:17056   */\n      0x4f6e6c79206f6e65206f7074696f6e20616c6c6f776564000000000000000000\n        /* \"#utility.yul\":17027:17028   */\n      0x00\n        /* \"#utility.yul\":17019:17025   */\n      dup3\n        /* \"#utility.yul\":17015:17029   */\n      add\n        /* \"#utility.yul\":17008:17057   */\n      mstore\n        /* \"#utility.yul\":16891:17064   */\n      pop\n      jump\t// out\n        /* \"#utility.yul\":17070:17436   */\n    tag_156:\n        /* \"#utility.yul\":17212:17215   */\n      0x00\n        /* \"#utility.yul\":17233:17300   */\n      tag_350\n        /* \"#utility.yul\":17297:17299   */\n      0x17\n        /* \"#utility.yul\":17292:17295   */\n      dup4\n        /* \"#utility.yul\":17233:17300   */\n      tag_112\n      jump\t// in\n    tag_350:\n        /* \"#utility.yul\":17226:17300   */\n      swap2\n      pop\n        /* \"#utility.yul\":17309:17402   */\n      tag_351\n        /* \"#utility.yul\":17398:17401   */\n      dup3\n        /* \"#utility.yul\":17309:17402   */\n      tag_155\n      jump\t// in\n    tag_351:\n        /* \"#utility.yul\":17427:17429   */\n      0x20\n        /* \"#utility.yul\":17422:17425   */\n      dup3\n        /* \"#utility.yul\":17418:17430   */\n      add\n        /* \"#utility.yul\":17411:17430   */\n      swap1\n      pop\n        /* \"#utility.yul\":17070:17436   */\n      swap2\n      swap1\n      pop\n      jump\t// out\n        /* \"#utility.yul\":17442:17861   */\n    tag_82:\n        /* \"#utility.yul\":17608:17612   */\n      0x00\n        /* \"#utility.yul\":17646:17648   */\n      0x20\n        /* \"#utility.yul\":17635:17644   */\n      dup3\n        /* \"#utility.yul\":17631:17649   */\n      add\n        /* \"#utility.yul\":17623:17649   */\n      swap1\n      pop\n        /* \"#utility.yul\":17695:17704   */\n      dup2\n        /* \"#utility.yul\":17689:17693   */\n      dup2\n        /* \"#utility.yul\":17685:17705   */\n      sub\n        /* \"#utility.yul\":17681:17682   */\n      0x00\n        /* \"#utility.yul\":17670:17679   */\n      dup4\n        /* \"#utility.yul\":17666:17683   */\n      add\n        /* \"#utility.yul\":17659:17706   */\n      mstore\n        /* \"#utility.yul\":17723:17854   */\n      tag_353\n        /* \"#utility.yul\":17849:17853   */\n      dup2\n        /* \"#utility.yul\":17723:17854   */\n      tag_156\n      jump\t// in\n    tag_353:\n        /* \"#utility.yul\":17715:17854   */\n      swap1\n      pop\n        /* \"#utility.yul\":17442:17861   */\n      swap2\n      swap1\n      pop\n      jump\t// out\n        /* \"#utility.yul\":17867:18051   */\n    tag_157:\n        /* \"#utility.yul\":17966:17977   */\n      0x00\n        /* \"#utility.yul\":18000:18006   */\n      dup3\n        /* \"#utility.yul\":17995:17998   */\n      dup3\n        /* \"#utility.yul\":17988:18007   */\n      mstore\n        /* \"#utility.yul\":18040:18044   */\n      0x20\n        /* \"#utility.yul\":18035:18038   */\n      dup3\n        /* \"#utility.yul\":18031:18045   */\n      add\n        /* \"#utility.yul\":18016:18045   */\n      swap1\n      pop\n        /* \"#utility.yul\":17867:18051   */\n      swap3\n      swap2\n      pop\n      pop\n      jump\t// out\n        /* \"#utility.yul\":18057:18174   */\n    tag_158:\n        /* \"#utility.yul\":18166:18167   */\n      0x00\n        /* \"#utility.yul\":18163:18164   */\n      0x00\n        /* \"#utility.yul\":18156:18168   */\n      revert\n        /* \"#utility.yul\":18180:18279   */\n    tag_159:\n        /* \"#utility.yul\":18265:18271   */\n      dup3\n        /* \"#utility.yul\":18260:18263   */\n      dup2\n        /* \"#utility.yul\":18255:18258   */\n      dup4\n        /* \"#utility.yul\":18242:18272   */\n      calldatacopy\n        /* \"#utility.yul\":18180:18279   */\n      pop\n      pop\n      pop\n      jump\t// out\n        /* \"#utility.yul\":18315:18852   */\n    tag_160:\n        /* \"#utility.yul\":18443:18446   */\n      0x00\n        /* \"#utility.yul\":18464:18550   */\n      tag_358\n        /* \"#utility.yul\":18543:18549   */\n      dup4\n        /* \"#utility.yul\":18538:18541   */\n      dup6\n        /* \"#utility.yul\":18464:18550   */\n      tag_157\n      jump\t// in\n    tag_358:\n        /* \"#utility.yul\":18457:18550   */\n      swap4\n      pop\n        /* \"#utility.yul\":18574:18640   */\n      0x07ffffffffffffffffffffffffffffffffffffffffffffffffffffffffffffff\n        /* \"#utility.yul\":18566:18572   */\n      dup4\n        /* \"#utility.yul\":18563:18641   */\n      gt\n        /* \"#utility.yul\":18560:18725   */\n      iszero\n      tag_359\n      jumpi\n        /* \"#utility.yul\":18644:18723   */\n      tag_360\n      tag_158\n      jump\t// in\n    tag_360:\n        /* \"#utility.yul\":18560:18725   */\n    tag_359:\n        /* \"#utility.yul\":18756:18760   */\n      0x20\n        /* \"#utility.yul\":18748:18754   */\n      dup4\n        /* \"#utility.yul\":18744:18761   */\n      mul\n        /* \"#utility.yul\":18734:18761   */\n      swap3\n      pop\n        /* \"#utility.yul\":18771:18814   */\n      tag_361\n        /* \"#utility.yul\":18807:18813   */\n      dup4\n        /* \"#utility.yul\":18802:18805   */\n      dup6\n        /* \"#utility.yul\":18795:18800   */\n      dup5\n        /* \"#utility.yul\":18771:18814   */\n      tag_159\n      jump\t// in\n    tag_361:\n        /* \"#utility.yul\":18839:18845   */\n      dup3\n        /* \"#utility.yul\":18834:18837   */\n      dup5\n        /* \"#utility.yul\":18830:18846   */\n      add\n        /* \"#utility.yul\":18823:18846   */\n      swap1\n      pop\n        /* \"#utility.yul\":18315:18852   */\n      swap4\n      swap3\n      pop\n      pop\n      pop\n      jump\t// out\n        /* \"#utility.yul\":18858:19251   */\n    tag_85:\n        /* \"#utility.yul\":19011:19015   */\n      0x00\n        /* \"#utility.yul\":19049:19051   */\n      0x20\n        /* \"#utility.yul\":19038:19047   */\n      dup3\n        /* \"#utility.yul\":19034:19052   */\n      add\n        /* \"#utility.yul\":19026:19052   */\n      swap1\n      pop\n        /* \"#utility.yul\":19098:19107   */\n      dup2\n        /* \"#utility.yul\":19092:19096   */\n      dup2\n        /* \"#utility.yul\":19088:19108   */\n      sub\n        /* \"#utility.yul\":19084:19085   */\n      0x00\n        /* \"#utility.yul\":19073:19082   */\n      dup4\n        /* \"#utility.yul\":19069:19086   */\n      add\n        /* \"#utility.yul\":19062:19109   */\n      mstore\n        /* \"#utility.yul\":19126:19244   */\n      tag_363\n        /* \"#utility.yul\":19239:19243   */\n      dup2\n        /* \"#utility.yul\":19230:19236   */\n      dup5\n        /* \"#utility.yul\":19222:19228   */\n      dup7\n        /* \"#utility.yul\":19126:19244   */\n      tag_160\n      jump\t// in\n    tag_363:\n        /* \"#utility.yul\":19118:19244   */\n      swap1\n      pop\n        /* \"#utility.yul\":18858:19251   */\n      swap4\n      swap3\n      pop\n      pop\n      pop\n      jump\t// out\n        /* \"#utility.yul\":19257:19437   */\n    tag_161:\n        /* \"#utility.yul\":19397:19429   */\n      0x446561646c696e65206d75737420626520696e20746865206675747572650000\n        /* \"#utility.yul\":19393:19394   */\n      0x00\n        /* \"#utility.yul\":19385:19391   */\n      dup3\n        /* \"#utility.yul\":19381:19395   */\n      add\n        /* \"#utility.yul\":19374:19430   */\n      mstore\n        /* \"#utility.yul\":19257:19437   */\n      pop\n      jump\t// out\n        /* \"#utility.yul\":19443:19809   */\n    tag_162:\n        /* \"#utility.yul\":19585:19588   */\n      0x00\n        /* \"#utility.yul\":19606:19673   */\n      tag_366\n        /* \"#utility.yul\":19670:19672   */\n      0x1e\n        /* \"#utility.yul\":19665:19668   */\n      dup4\n        /* \"#utility.yul\":19606:19673   */\n      tag_112\n      jump\t// in\n    tag_366:\n        /* \"#utility.yul\":19599:19673   */\n      swap2\n      pop\n        /* \"#utility.yul\":19682:19775   */\n      tag_367\n        /* \"#utility.yul\":19771:19774   */\n      dup3\n        /* \"#utility.yul\":19682:19775   */\n      tag_161\n      jump\t// in\n    tag_367:\n        /* \"#utility.yul\":19800:19802   */\n      0x20\n        /* \"#utility.yul\":19795:19798   */\n      dup3\n        /* \"#utility.yul\":19791:19803   */\n      add\n        /* \"#utility.yul\":19784:19803   */\n      swap1\n      pop\n        /* \"#utility.yul\":19443:19809   */\n      swap2\n      swap1\n      pop\n      jump\t// out\n        /* \"#utility.yul\":19815:20234   */\n    tag_89:\n        /* \"#utility.yul\":19981:19985   */\n      0x00\n        /* \"#utility.yul\":20019:20021   */\n      0x20\n        /* \"#utility.yul\":20008:20017   */\n      dup3\n        /* \"#utility.yul\":20004:20022   */\n      add\n        /* \"#utility.yul\":19996:20022   */\n      swap1\n      pop\n        /* \"#utility.yul\":20068:20077   */\n      dup2\n        /* \"#utility.yul\":20062:20066   */\n      dup2\n        /* \"#utility.yul\":20058:20078   */\n      sub\n        /* \"#utility.yul\":20054:20055   */\n      0x00\n        /* \"#utility.yul\":20043:20052   */\n      dup4\n        /* \"#utility.yul\":20039:20056   */\n      add\n        /* \"#utility.yul\":20032:20079   */\n      mstore\n        /* \"#utility.yul\":20096:20227   */\n      tag_369\n        /* \"#utility.yul\":20222:20226   */\n      dup2\n        /* \"#utility.yul\":20096:20227   */\n      tag_162\n      jump\t// in\n    tag_369:\n        /* \"#utility.yul\":20088:20227   */\n      swap1\n      pop\n        /* \"#utility.yul\":19815:20234   */\n      swap2\n      swap1\n      pop\n      jump\t// out\n        /* \"#utility.yul\":20240:20406   */\n    tag_163:\n        /* \"#utility.yul\":20380:20398   */\n      0x496e76616c69642063617465676f727900000000000000000000000000000000\n        /* \"#utility.yul\":20376:20377   */\n      0x00\n        /* \"#utility.yul\":20368:20374   */\n      dup3\n        /* \"#utility.yul\":20364:20378   */\n      add\n        /* \"#utility.yul\":20357:20399   */\n      mstore\n        /* \"#utility.yul\":20240:20406   */\n      pop\n      jump\t// out\n        /* \"#utility.yul\":20412:20778   */\n    tag_164:\n        /* \"#utility.yul\":20554:20557   */\n      0x00\n        /* \"#utility.yul\":20575:20642   */\n      tag_372\n        /* \"#utility.yul\":20639:20641   */\n      0x10\n        /* \"#utility.yul\":20634:20637   */\n      dup4\n        /* \"#utility.yul\":20575:20642   */\n      tag_112\n      jump\t// in\n    tag_372:\n        /* \"#utility.yul\":20568:20642   */\n      swap2\n      pop\n        /* \"#utility.yul\":20651:20744   */\n      tag_373\n        /* \"#utility.yul\":20740:20743   */\n      dup3\n        /* \"#utility.yul\":20651:20744   */\n      tag_163\n      jump\t// in\n    tag_373:\n        /* \"#utility.yul\":20769:20771   */\n      0x20\n        /* \"#utility.yul\":20764:20767   */\n      dup3\n        /* \"#utility.yul\":20760:20772   */\n      add\n        /* \"#utility.yul\":20753:20772   */\n      swap1\n      pop\n        /* \"#utility.yul\":20412:20778   */\n      swap2\n      swap1\n      pop\n      jump\t// out\n        /* \"#utility.yul\":20784:21203   */\n    tag_92:\n        /* \"#utility.yul\":20950:20954   */\n      0x00\n        /* \"#utility.yul\":20988:20990   */\n      0x20\n        /* \"#utility.yul\":20977:20986   */\n      dup3\n        /* \"#utility.yul\":20973:20991   */\n      add\n        /* \"#utility.yul\":20965:20991   */\n      swap1\n      pop\n        /* \"#utility.yul\":21037:21046   */\n      dup2\n        /* \"#utility.yul\":21031:21035   */\n      dup2\n        /* \"#utility.yul\":21027:21047   */\n      sub\n        /* \"#utility.yul\":21023:21024   */\n      0x00\n        /* \"#utility.yul\":21012:21021   */\n      dup4\n        /* \"#utility.yul\":21008:21025   */\n      add\n        /* \"#utility.yul\":21001:21048   */\n      mstore\n        /* \"#utility.yul\":21065:21196   */\n      tag_375\n        /* \"#utility.yul\":21191:21195   */\n      dup2\n        /* \"#utility.yul\":21065:21196   */\n      tag_164\n      jump\t// in\n    tag_375:\n        /* \"#utility.yul\":21057:21196   */\n      swap1\n      pop\n        /* \"#utility.yul\":20784:21203   */\n      swap2\n      swap1\n      pop\n      jump\t// out\n        /* \"#utility.yul\":21209:21350   */\n    tag_165:\n        /* \"#utility.yul\":21258:21262   */\n      0x00\n        /* \"#utility.yul\":21281:21284   */\n      dup2\n        /* \"#utility.yul\":21273:21284   */\n      swap1\n      pop\n        /* \"#utility.yul\":21304:21307   */\n      dup2\n        /* \"#utility.yul\":21301:21302   */\n      0x00\n        /* \"#utility.yul\":21294:21308   */\n      mstore\n        /* \"#utility.yul\":21338:21342   */\n      0x20\n        /* \"#utility.yul\":21335:21336   */\n      0x00\n        /* \"#utility.yul\":21325:21343   */\n      keccak256\n        /* \"#utility.yul\":21317:21343   */\n      swap1\n      pop\n        /* \"#utility.yul\":21209:21350   */\n      swap2\n      swap1\n      pop\n      jump\t// out\n        /* \"#utility.yul\":21356:21449   */\n    tag_166:\n        /* \"#utility.yul\":21393:21399   */\n      0x00\n        /* \"#utility.yul\":21440:21442   */\n      0x20\n        /* \"#utility.yul\":21435:21437   */\n      0x1f\n        /* \"#utility.yul\":21428:21433   */\n      dup4\n        /* \"#utility.yul\":21424:21438   */\n      add\n        /* \"#utility.yul\":21420:21443   */\n      div\n        /* \"#utility.yul\":21410:21443   */\n      swap1\n      pop\n        /* \"#utility.yul\":21356:21449   */\n      swap2\n      swap1\n      pop\n      jump\t// out\n        /* \"#utility.yul\":21455:21562   */\n    tag_167:\n        /* \"#utility.yul\":21499:21507   */\n      0x00\n        /* \"#utility.yul\":21549:21554   */\n      dup3\n        /* \"#utility.yul\":21543:21547   */\n      dup3\n        /* \"#utility.yul\":21539:21555   */\n      shl\n        /* \"#utility.yul\":21518:21555   */\n      swap1\n      pop\n        /* \"#utility.yul\":21455:21562   */\n      swap3\n      swap2\n      pop\n      pop\n      jump\t// out\n        /* \"#utility.yul\":21568:21961   */\n    tag_168:\n        /* \"#utility.yul\":21637:21643   */\n      0x00\n        /* \"#utility.yul\":21687:21688   */\n      0x08\n        /* \"#utility.yul\":21675:21685   */\n      dup4\n        /* \"#utility.yul\":21671:21689   */\n      mul\n        /* \"#utility.yul\":21710:21807   */\n      tag_380\n        /* \"#utility.yul\":21740:21806   */\n      0xffffffffffffffffffffffffffffffffffffffffffffffffffffffffffffffff\n        /* \"#utility.yul\":21729:21738   */\n      dup3\n        /* \"#utility.yul\":21710:21807   */\n      tag_167\n      jump\t// in\n    tag_380:\n        /* \"#utility.yul\":21828:21867   */\n      tag_381\n        /* \"#utility.yul\":21858:21866   */\n      dup7\n        /* \"#utility.yul\":21847:21856   */\n      dup4\n        /* \"#utility.yul\":21828:21867   */\n      tag_167\n      jump\t// in\n    tag_381:\n        /* \"#utility.yul\":21816:21867   */\n      swap6\n      pop\n        /* \"#utility.yul\":21900:21904   */\n      dup1\n        /* \"#utility.yul\":21896:21905   */\n      not\n        /* \"#utility.yul\":21889:21894   */\n      dup5\n        /* \"#utility.yul\":21885:21906   */\n      and\n        /* \"#utility.yul\":21876:21906   */\n      swap4\n      pop\n        /* \"#utility.yul\":21949:21953   */\n      dup1\n        /* \"#utility.yul\":21939:21947   */\n      dup7\n        /* \"#utility.yul\":21935:21954   */\n      and\n        /* \"#utility.yul\":21928:21933   */\n      dup5\n        /* \"#utility.yul\":21925:21955   */\n      or\n        /* \"#utility.yul\":21915:21955   */\n      swap3\n      pop\n        /* \"#utility.yul\":21644:21961   */\n      pop\n      pop\n        /* \"#utility.yul\":21568:21961   */\n      swap4\n      swap3\n      pop\n      pop\n      pop\n      jump\t// out\n        /* \"#utility.yul\":21967:22027   */\n    tag_169:\n        /* \"#utility.yul\":21995:21998   */\n      0x00\n        /* \"#utility.yul\":22016:22021   */\n      dup2\n        /* \"#utility.yul\":22009:22021   */\n      swap1\n      pop\n        /* \"#utility.yul\":21967:22027   */\n      swap2\n      swap1\n      pop\n      jump\t// out\n        /* \"#utility.yul\":22033:22175   */\n    tag_170:\n        /* \"#utility.yul\":22083:22092   */\n      0x00\n        /* \"#utility.yul\":22116:22169   */\n      tag_384\n        /* \"#utility.yul\":22134:22168   */\n      tag_385\n        /* \"#utility.yul\":22143:22167   */\n      tag_386\n        /* \"#utility.yul\":22161:22166   */\n      dup5\n        /* \"#utility.yul\":22143:22167   */\n      tag_105\n      jump\t// in\n    tag_386:\n        /* \"#utility.yul\":22134:22168   */\n      tag_169\n      jump\t// in\n    tag_385:\n        /* \"#utility.yul\":22116:22169   */\n      tag_105\n      jump\t// in\n    tag_384:\n        /* \"#utility.yul\":22103:22169   */\n      swap1\n      pop\n        /* \"#utility.yul\":22033:22175   */\n      swap2\n      swap1\n      pop\n      jump\t// out\n        /* \"#utility.yul\":22181:22256   */\n    tag_171:\n        /* \"#utility.yul\":22224:22227   */\n      0x00\n        /* \"#utility.yul\":22245:22250   */\n      dup2\n        /* \"#utility.yul\":22238:22250   */\n      swap1\n      pop\n        /* \"#utility.yul\":22181:22256   */\n      swap2\n      swap1\n      pop\n      jump\t// out\n        /* \"#utility.yul\":22262:22531   */\n    tag_172:\n        /* \"#utility.yul\":22372:22411   */\n      tag_389\n        /* \"#utility.yul\":22403:22410   */\n      dup4\n        /* \"#utility.yul\":22372:22411   */\n      tag_170\n      jump\t// in\n    tag_389:\n        /* \"#utility.yul\":22433:22524   */\n      tag_390\n        /* \"#utility.yul\":22482:22523   */\n      tag_391\n        /* \"#utility.yul\":22506:22522   */\n      dup3\n        /* \"#utility.yul\":22482:22523   */\n      tag_171\n      jump\t// in\n    tag_391:\n        /* \"#utility.yul\":22474:22480   */\n      dup5\n        /* \"#utility.yul\":22467:22471   */\n      dup5\n        /* \"#utility.yul\":22461:22472   */\n      sload\n        /* \"#utility.yul\":22433:22524   */\n      tag_168\n      jump\t// in\n    tag_390:\n        /* \"#utility.yul\":22427:22431   */\n      dup3\n        /* \"#utility.yul\":22420:22525   */\n      sstore\n        /* \"#utility.yul\":22338:22531   */\n      pop\n        /* \"#utility.yul\":22262:22531   */\n      pop\n      pop\n      pop\n      jump\t// out\n        /* \"#utility.yul\":22537:22610   */\n    tag_173:\n        /* \"#utility.yul\":22582:22585   */\n      0x00\n        /* \"#utility.yul\":22603:22604   */\n      0x00\n        /* \"#utility.yul\":22596:22604   */\n      swap1\n      pop\n        /* \"#utility.yul\":22537:22610   */\n      swap1\n      jump\t// out\n        /* \"#utility.yul\":22616:22805   */\n    tag_174:\n        /* \"#utility.yul\":22693:22725   */\n      tag_394\n      tag_173\n      jump\t// in\n    tag_394:\n        /* \"#utility.yul\":22734:22799   */\n      tag_395\n        /* \"#utility.yul\":22792:22798   */\n      dup2\n        /* \"#utility.yul\":22784:22790   */\n      dup5\n        /* \"#utility.yul\":22778:22782   */\n      dup5\n        /* \"#utility.yul\":22734:22799   */\n      tag_172\n      jump\t// in\n    tag_395:\n        /* \"#utility.yul\":22669:22805   */\n      pop\n        /* \"#utility.yul\":22616:22805   */\n      pop\n      pop\n      jump\t// out\n        /* \"#utility.yul\":22811:22997   */\n    tag_175:\n        /* \"#utility.yul\":22871:22991   */\n    tag_397:\n        /* \"#utility.yul\":22888:22891   */\n      dup2\n        /* \"#utility.yul\":22881:22886   */\n      dup2\n        /* \"#utility.yul\":22878:22892   */\n      lt\n        /* \"#utility.yul\":22871:22991   */\n      iszero\n      tag_399\n      jumpi\n        /* \"#utility.yul\":22942:22981   */\n      tag_400\n        /* \"#utility.yul\":22979:22980   */\n      0x00\n        /* \"#utility.yul\":22972:22977   */\n      dup3\n        /* \"#utility.yul\":22942:22981   */\n      tag_174\n      jump\t// in\n    tag_400:\n        /* \"#utility.yul\":22915:22916   */\n      0x01\n        /* \"#utility.yul\":22908:22913   */\n      dup2\n        /* \"#utility.yul\":22904:22917   */\n      add\n        /* \"#utility.yul\":22895:22917   */\n      swap1\n      pop\n        /* \"#utility.yul\":22871:22991   */\n      jump(tag_397)\n    tag_399:\n        /* \"#utility.yul\":22811:22997   */\n      pop\n      pop\n      jump\t// out\n        /* \"#utility.yul\":23003:23546   */\n    tag_176:\n        /* \"#utility.yul\":23104:23106   */\n      0x1f\n        /* \"#utility.yul\":23099:23102   */\n      dup3\n        /* \"#utility.yul\":23096:23107   */\n      gt\n        /* \"#utility.yul\":23093:23539   */\n      iszero\n      tag_402\n      jumpi\n        /* \"#utility.yul\":23138:23176   */\n      tag_403\n        /* \"#utility.yul\":23170:23175   */\n      dup2\n        /* \"#utility.yul\":23138:23176   */\n      tag_165\n      jump\t// in\n    tag_403:\n        /* \"#utility.yul\":23222:23251   */\n      tag_404\n        /* \"#utility.yul\":23240:23250   */\n      dup5\n        /* \"#utility.yul\":23222:23251   */\n      tag_166\n      jump\t// in\n    tag_404:\n        /* \"#utility.yul\":23212:23220   */\n      dup2\n        /* \"#utility.yul\":23208:23252   */\n      add\n        /* \"#utility.yul\":23405:23407   */\n      0x20\n        /* \"#utility.yul\":23393:23403   */\n      dup6\n        /* \"#utility.yul\":23390:23408   */\n      lt\n        /* \"#utility.yul\":23387:23436   */\n      iszero\n      tag_405\n      jumpi\n        /* \"#utility.yul\":23426:23434   */\n      dup2\n        /* \"#utility.yul\":23411:23434   */\n      swap1\n      pop\n        /* \"#utility.yul\":23387:23436   */\n    tag_405:\n        /* \"#utility.yul\":23449:23529   */\n      tag_406\n        /* \"#utility.yul\":23505:23527   */\n      tag_407\n        /* \"#utility.yul\":23523:23526   */\n      dup6\n        /* \"#utility.yul\":23505:23527   */\n      tag_166\n      jump\t// in\n    tag_407:\n        /* \"#utility.yul\":23495:23503   */\n      dup4\n        /* \"#utility.yul\":23491:23528   */\n      add\n        /* \"#utility.yul\":23478:23489   */\n      dup3\n        /* \"#utility.yul\":23449:23529   */\n      tag_175\n      jump\t// in\n    tag_406:\n        /* \"#utility.yul\":23108:23539   */\n      pop\n      pop\n        /* \"#utility.yul\":23093:23539   */\n    tag_402:\n        /* \"#utility.yul\":23003:23546   */\n      pop\n      pop\n      pop\n      jump\t// out\n        /* \"#utility.yul\":23552:23669   */\n    tag_177:\n        /* \"#utility.yul\":23606:23614   */\n      0x00\n        /* \"#utility.yul\":23656:23661   */\n      dup3\n        /* \"#utility.yul\":23650:23654   */\n      dup3\n        /* \"#utility.yul\":23646:23662   */\n      shr\n        /* \"#utility.yul\":23625:23662   */\n      swap1\n      pop\n        /* \"#utility.yul\":23552:23669   */\n      swap3\n      swap2\n      pop\n      pop\n      jump\t// out\n        /* \"#utility.yul\":23675:23844   */\n    tag_178:\n        /* \"#utility.yul\":23719:23725   */\n      0x00\n        /* \"#utility.yul\":23752:23803   */\n      tag_410\n        /* \"#utility.yul\":23800:23801   */\n      0x00\n        /* \"#utility.yul\":23796:23802   */\n      not\n        /* \"#utility.yul\":23788:23793   */\n      dup5\n        /* \"#utility.yul\":23785:23786   */\n      0x08\n        /* \"#utility.yul\":23781:23794   */\n      mul\n        /* \"#utility.yul\":23752:23803   */\n      tag_177\n      jump\t// in\n    tag_410:\n        /* \"#utility.yul\":23748:23804   */\n      not\n        /* \"#utility.yul\":23833:23837   */\n      dup1\n        /* \"#utility.yul\":23827:23831   */\n      dup4\n        /* \"#utility.yul\":23823:23838   */\n      and\n        /* \"#utility.yul\":23813:23838   */\n      swap2\n      pop\n        /* \"#utility.yul\":23726:23844   */\n      pop\n        /* \"#utility.yul\":23675:23844   */\n      swap3\n      swap2\n      pop\n      pop\n      jump\t// out\n        /* \"#utility.yul\":23849:24144   */\n    tag_179:\n        /* \"#utility.yul\":23925:23929   */\n      0x00\n        /* \"#utility.yul\":24071:24100   */\n      tag_412\n        /* \"#utility.yul\":24096:24099   */\n      dup4\n        /* \"#utility.yul\":24090:24094   */\n      dup4\n        /* \"#utility.yul\":24071:24100   */\n      tag_178\n      jump\t// in\n    tag_412:\n        /* \"#utility.yul\":24063:24100   */\n      swap2\n      pop\n        /* \"#utility.yul\":24133:24136   */\n      dup3\n        /* \"#utility.yul\":24130:24131   */\n      0x02\n        /* \"#utility.yul\":24126:24137   */\n      mul\n        /* \"#utility.yul\":24120:24124   */\n      dup3\n        /* \"#utility.yul\":24117:24138   */\n      or\n        /* \"#utility.yul\":24109:24138   */\n      swap1\n      pop\n        /* \"#utility.yul\":23849:24144   */\n      swap3\n      swap2\n      pop\n      pop\n      jump\t// out\n        /* \"#utility.yul\":24149:25544   */\n    tag_96:\n        /* \"#utility.yul\":24266:24303   */\n      tag_414\n        /* \"#utility.yul\":24299:24302   */\n      dup3\n        /* \"#utility.yul\":24266:24303   */\n      tag_111\n      jump\t// in\n    tag_414:\n        /* \"#utility.yul\":24368:24386   */\n      0xffffffffffffffff\n        /* \"#utility.yul\":24360:24366   */\n      dup2\n        /* \"#utility.yul\":24357:24387   */\n      gt\n        /* \"#utility.yul\":24354:24410   */\n      iszero\n      tag_415\n      jumpi\n        /* \"#utility.yul\":24390:24408   */\n      tag_416\n      tag_132\n      jump\t// in\n    tag_416:\n        /* \"#utility.yul\":24354:24410   */\n    tag_415:\n        /* \"#utility.yul\":24434:24472   */\n      tag_417\n        /* \"#utility.yul\":24466:24470   */\n      dup3\n        /* \"#utility.yul\":24460:24471   */\n      sload\n        /* \"#utility.yul\":24434:24472   */\n      tag_52\n      jump\t// in\n    tag_417:\n        /* \"#utility.yul\":24519:24586   */\n      tag_418\n        /* \"#utility.yul\":24579:24585   */\n      dup3\n        /* \"#utility.yul\":24571:24577   */\n      dup3\n        /* \"#utility.yul\":24565:24569   */\n      dup6\n        /* \"#utility.yul\":24519:24586   */\n      tag_176\n      jump\t// in\n    tag_418:\n        /* \"#utility.yul\":24613:24614   */\n      0x00\n        /* \"#utility.yul\":24637:24641   */\n      0x20\n        /* \"#utility.yul\":24624:24641   */\n      swap1\n      pop\n        /* \"#utility.yul\":24669:24671   */\n      0x1f\n        /* \"#utility.yul\":24661:24667   */\n      dup4\n        /* \"#utility.yul\":24658:24672   */\n      gt\n        /* \"#utility.yul\":24686:24687   */\n      0x01\n        /* \"#utility.yul\":24681:25299   */\n      dup2\n      eq\n      tag_420\n      jumpi\n        /* \"#utility.yul\":25343:25344   */\n      0x00\n        /* \"#utility.yul\":25360:25366   */\n      dup5\n        /* \"#utility.yul\":25357:25434   */\n      iszero\n      tag_421\n      jumpi\n        /* \"#utility.yul\":25409:25418   */\n      dup3\n        /* \"#utility.yul\":25404:25407   */\n      dup8\n        /* \"#utility.yul\":25400:25419   */\n      add\n        /* \"#utility.yul\":25394:25420   */\n      mload\n        /* \"#utility.yul\":25385:25420   */\n      swap1\n      pop\n        /* \"#utility.yul\":25357:25434   */\n    tag_421:\n        /* \"#utility.yul\":25460:25527   */\n      tag_422\n        /* \"#utility.yul\":25520:25526   */\n      dup6\n        /* \"#utility.yul\":25513:25518   */\n      dup3\n        /* \"#utility.yul\":25460:25527   */\n      tag_179\n      jump\t// in\n    tag_422:\n        /* \"#utility.yul\":25454:25458   */\n      dup7\n        /* \"#utility.yul\":25447:25528   */\n      sstore\n        /* \"#utility.yul\":25316:25538   */\n      pop\n        /* \"#utility.yul\":24651:25538   */\n      jump(tag_419)\n        /* \"#utility.yul\":24681:25299   */\n    tag_420:\n        /* \"#utility.yul\":24733:24737   */\n      0x1f\n        /* \"#utility.yul\":24729:24738   */\n      not\n        /* \"#utility.yul\":24721:24727   */\n      dup5\n        /* \"#utility.yul\":24717:24739   */\n      and\n        /* \"#utility.yul\":24767:24804   */\n      tag_423\n        /* \"#utility.yul\":24799:24803   */\n      dup7\n        /* \"#utility.yul\":24767:24804   */\n      tag_165\n      jump\t// in\n    tag_423:\n        /* \"#utility.yul\":24826:24827   */\n      0x00\n        /* \"#utility.yul\":24840:25048   */\n    tag_424:\n        /* \"#utility.yul\":24854:24861   */\n      dup3\n        /* \"#utility.yul\":24851:24852   */\n      dup2\n        /* \"#utility.yul\":24848:24862   */\n      lt\n        /* \"#utility.yul\":24840:25048   */\n      iszero\n      tag_426\n      jumpi\n        /* \"#utility.yul\":24933:24942   */\n      dup5\n        /* \"#utility.yul\":24928:24931   */\n      dup10\n        /* \"#utility.yul\":24924:24943   */\n      add\n        /* \"#utility.yul\":24918:24944   */\n      mload\n        /* \"#utility.yul\":24910:24916   */\n      dup3\n        /* \"#utility.yul\":24903:24945   */\n      sstore\n        /* \"#utility.yul\":24984:24985   */\n      0x01\n        /* \"#utility.yul\":24976:24982   */\n      dup3\n        /* \"#utility.yul\":24972:24986   */\n      add\n        /* \"#utility.yul\":24962:24986   */\n      swap2\n      pop\n        /* \"#utility.yul\":25031:25033   */\n      0x20\n        /* \"#utility.yul\":25020:25029   */\n      dup6\n        /* \"#utility.yul\":25016:25034   */\n      add\n        /* \"#utility.yul\":25003:25034   */\n      swap5\n      pop\n        /* \"#utility.yul\":24877:24881   */\n      0x20\n        /* \"#utility.yul\":24874:24875   */\n      dup2\n        /* \"#utility.yul\":24870:24882   */\n      add\n        /* \"#utility.yul\":24865:24882   */\n      swap1\n      pop\n        /* \"#utility.yul\":24840:25048   */\n      jump(tag_424)\n    tag_426:\n        /* \"#utility.yul\":25076:25082   */\n      dup7\n        /* \"#utility.yul\":25067:25074   */\n      dup4\n        /* \"#utility.yul\":25064:25083   */\n      lt\n        /* \"#utility.yul\":25061:25240   */\n      iszero\n      tag_427\n      jumpi\n        /* \"#utility.yul\":25134:25143   */\n      dup5\n        /* \"#utility.yul\":25129:25132   */\n      dup10\n        /* \"#utility.yul\":25125:25144   */\n      add\n        /* \"#utility.yul\":25119:25145   */\n      mload\n        /* \"#utility.yul\":25177:25225   */\n      tag_428\n        /* \"#utility.yul\":25219:25223   */\n      0x1f\n        /* \"#utility.yul\":25211:25217   */\n      dup10\n        /* \"#utility.yul\":25207:25224   */\n      and\n        /* \"#utility.yul\":25196:25205   */\n      dup3\n        /* \"#utility.yul\":25177:25225   */\n      tag_178\n      jump\t// in\n    tag_428:\n        /* \"#utility.yul\":25169:25175   */\n      dup4\n        /* \"#utility.yul\":25162:25226   */\n      sstore\n        /* \"#utility.yul\":25084:25240   */\n      pop\n        /* \"#utility.yul\":25061:25240   */\n    tag_427:\n        /* \"#utility.yul\":25286:25287   */\n      0x01\n        /* \"#utility.yul\":25282:25283   */\n      0x02\n        /* \"#utility.yul\":25274:25280   */\n      dup9\n        /* \"#utility.yul\":25270:25284   */\n      mul\n        /* \"#utility.yul\":25266:25288   */\n      add\n        /* \"#utility.yul\":25260:25264   */\n      dup9\n        /* \"#utility.yul\":25253:25289   */\n      sstore\n        /* \"#utility.yul\":24688:25299   */\n      pop\n      pop\n      pop\n        /* \"#utility.yul\":24651:25538   */\n    tag_419:\n      pop\n        /* \"#utility.yul\":24241:25544   */\n      pop\n      pop\n      pop\n        /* \"#utility.yul\":24149:25544   */\n      pop\n      pop\n      jump\t// out\n        /* \"#utility.yul\":25550:26210   */\n    tag_100:\n        /* \"#utility.yul\":25755:25759   */\n      0x00\n        /* \"#utility.yul\":25793:25796   */\n      0x80\n        /* \"#utility.yul\":25782:25791   */\n      dup3\n        /* \"#utility.yul\":25778:25797   */\n      add\n        /* \"#utility.yul\":25770:25797   */\n      swap1\n      pop\n        /* \"#utility.yul\":25843:25852   */\n      dup2\n        /* \"#utility.yul\":25837:25841   */\n      dup2\n        /* \"#utility.yul\":25833:25853   */\n      sub\n        /* \"#utility.yul\":25829:25830   */\n      0x00\n        /* \"#utility.yul\":25818:25827   */\n      dup4\n        /* \"#utility.yul\":25814:25831   */\n      add\n        /* \"#utility.yul\":25807:25854   */\n      mstore\n        /* \"#utility.yul\":25871:25949   */\n      tag_430\n        /* \"#utility.yul\":25944:25948   */\n      dup2\n        /* \"#utility.yul\":25935:25941   */\n      dup8\n        /* \"#utility.yul\":25871:25949   */\n      tag_115\n      jump\t// in\n    tag_430:\n        /* \"#utility.yul\":25863:25949   */\n      swap1\n      pop\n        /* \"#utility.yul\":25959:26043   */\n      tag_431\n        /* \"#utility.yul\":26039:26041   */\n      0x20\n        /* \"#utility.yul\":26028:26037   */\n      dup4\n        /* \"#utility.yul\":26024:26042   */\n      add\n        /* \"#utility.yul\":26015:26021   */\n      dup7\n        /* \"#utility.yul\":25959:26043   */\n      tag_119\n      jump\t// in\n    tag_431:\n        /* \"#utility.yul\":26053:26125   */\n      tag_432\n        /* \"#utility.yul\":26121:26123   */\n      0x40\n        /* \"#utility.yul\":26110:26119   */\n      dup4\n        /* \"#utility.yul\":26106:26124   */\n      add\n        /* \"#utility.yul\":26097:26103   */\n      dup6\n        /* \"#utility.yul\":26053:26125   */\n      tag_120\n      jump\t// in\n    tag_432:\n        /* \"#utility.yul\":26135:26203   */\n      tag_433\n        /* \"#utility.yul\":26199:26201   */\n      0x60\n        /* \"#utility.yul\":26188:26197   */\n      dup4\n        /* \"#utility.yul\":26184:26202   */\n      add\n        /* \"#utility.yul\":26175:26181   */\n      dup5\n        /* \"#utility.yul\":26135:26203   */\n      tag_122\n      jump\t// in\n    tag_433:\n        /* \"#utility.yul\":25550:26210   */\n      swap6\n      swap5\n      pop\n      pop\n      pop\n      pop\n      pop\n      jump\t// out\n\n    auxdata: 0xa26469706673582212204bd4b6fe28f726b57c3675fbcce68a17a0a556eb695ce5566d9be0314e4f4d5d64736f6c634300081f0033\n}\n",
				"bytecode": {
					"linkReferences": {},
					"object": "6080604052348015600e575f5ffd5b506117698061001c5f395ff3fe608060405234801561000f575f5ffd5b506004361061007b575f3560e01c80637055d368116100595780637055d36814610102578063a52c86581461011e578063a6794cd51461014e578063eb264b9c1461016a5761007b565b806301ddf0701461007f57806331b1b9781461009b57806343859632146100d2575b5f5ffd5b61009960048036038101906100949190610a6e565b610188565b005b6100b560048036038101906100b09190610a6e565b610349565b6040516100c9989796959493929190610bff565b60405180910390f35b6100ec60048036038101906100e79190610cac565b610455565b6040516100f99190610cea565b60405180910390f35b61011c60048036038101906101179190610d64565b61047f565b005b61013860048036038101906101339190610cac565b61079b565b6040516101459190610cea565b60405180910390f35b61016860048036038101906101639190610f36565b6107c5565b005b610172610a24565b60405161017f9190610fb6565b60405180910390f35b5f5f5f8381526020019081526020015f209050806007015f9054906101000a900460ff166101eb576040517f08c379a00000000000000000000000000000000000000000000000000000000081526004016101e290611019565b60405180910390fd5b60025f8381526020019081526020015f205f3373ffffffffffffffffffffffffffffffffffffffff1673ffffffffffffffffffffffffffffffffffffffff1681526020019081526020015f205f9054906101000a900460ff1615610284576040517f08c379a000000000000000000000000000000000000000000000000000000000815260040161027b90611081565b60405180910390fd5b600160025f8481526020019081526020015f205f3373ffffffffffffffffffffffffffffffffffffffff1673ffffffffffffffffffffffffffffffffffffffff1681526020019081526020015f205f6101000a81548160ff021916908315150217905550806006015f8154809291906102fc906110cc565b91905055503373ffffffffffffffffffffffffffffffffffffffff16827f0e092509bde1dd304f477e3ec921b6e4e5092738f70dcd204952ffc1ffdaafdf60405160405180910390a35050565b5f602052805f5260405f205f91509050805f015f9054906101000a900473ffffffffffffffffffffffffffffffffffffffff169080600101805461038c90611140565b80601f01602080910402602001604051908101604052809291908181526020018280546103b890611140565b80156104035780601f106103da57610100808354040283529160200191610403565b820191905f5260205f20905b8154815290600101906020018083116103e657829003601f168201915b505050505090806002015f9054906101000a900460ff1690806003015490806004015f9054906101000a900460ff1690806005015490806006015490806007015f9054906101000a900460ff16905088565b6001602052815f5260405f20602052805f5260405f205f915091509054906101000a900460ff1681565b5f5f5f8581526020019081526020015f209050806007015f9054906101000a900460ff166104e2576040517f08c379a00000000000000000000000000000000000000000000000000000000081526004016104d990611019565b60405180910390fd5b80600301544210610528576040517f08c379a000000000000000000000000000000000000000000000000000000000815260040161051f906111ba565b60405180910390fd5b60015f8581526020019081526020015f205f3373ffffffffffffffffffffffffffffffffffffffff1673ffffffffffffffffffffffffffffffffffffffff1681526020019081526020015f205f9054906101000a900460ff16156105c1576040517f08c379a00000000000000000000000000000000000000000000000000000000081526004016105b890611222565b60405180910390fd5b5f8383905011610606576040517f08c379a00000000000000000000000000000000000000000000000000000000081526004016105fd9061128a565b60405180910390fd5b5f600281111561061957610618610b48565b5b816002015f9054906101000a900460ff16600281111561063c5761063b610b48565b5b148061067c57506001600281111561065757610656610b48565b5b816002015f9054906101000a900460ff16600281111561067a57610679610b48565b5b145b156106c857600183839050146106c7576040517f08c379a00000000000000000000000000000000000000000000000000000000081526004016106be906112f2565b60405180910390fd5b5b6001805f8681526020019081526020015f205f3373ffffffffffffffffffffffffffffffffffffffff1673ffffffffffffffffffffffffffffffffffffffff1681526020019081526020015f205f6101000a81548160ff021916908315150217905550806005015f81548092919061073f906110cc565b91905055503373ffffffffffffffffffffffffffffffffffffffff16847f87f23b7a798a675896e0c401278860ea037111dd34e85a1f4870371bfadfa0cf858560405161078d929190611388565b60405180910390a350505050565b6002602052815f5260405f20602052805f5260405f205f915091509054906101000a900460ff1681565b428211610807576040517f08c379a00000000000000000000000000000000000000000000000000000000081526004016107fe906113f4565b60405180910390fd5b600a8160ff161061084d576040517f08c379a00000000000000000000000000000000000000000000000000000000081526004016108449061145c565b60405180910390fd5b6040518061010001604052803373ffffffffffffffffffffffffffffffffffffffff16815260200185815260200184600281111561088e5761088d610b48565b5b81526020018381526020018260ff1681526020015f81526020015f8152602001600115158152505f5f60035481526020019081526020015f205f820151815f015f6101000a81548173ffffffffffffffffffffffffffffffffffffffff021916908373ffffffffffffffffffffffffffffffffffffffff1602179055506020820151816001019081610920919061161a565b506040820151816002015f6101000a81548160ff0219169083600281111561094b5761094a610b48565b5b0217905550606082015181600301556080820151816004015f6101000a81548160ff021916908360ff16021790555060a0820151816005015560c0820151816006015560e0820151816007015f6101000a81548160ff0219169083151502179055509050503373ffffffffffffffffffffffffffffffffffffffff166003547f2eee3ebdd587f8bd0ef9e9cf02bc348c4849a2777513fec314adba0626ad01c6868686866040516109ff94939291906116e9565b60405180910390a360035f815480929190610a19906110cc565b919050555050505050565b60035481565b5f604051905090565b5f5ffd5b5f5ffd5b5f819050919050565b610a4d81610a3b565b8114610a57575f5ffd5b50565b5f81359050610a6881610a44565b92915050565b5f60208284031215610a8357610a82610a33565b5b5f610a9084828501610a5a565b91505092915050565b5f73ffffffffffffffffffffffffffffffffffffffff82169050919050565b5f610ac282610a99565b9050919050565b610ad281610ab8565b82525050565b5f81519050919050565b5f82825260208201905092915050565b8281835e5f83830152505050565b5f601f19601f8301169050919050565b5f610b1a82610ad8565b610b248185610ae2565b9350610b34818560208601610af2565b610b3d81610b00565b840191505092915050565b7f4e487b71000000000000000000000000000000000000000000000000000000005f52602160045260245ffd5b60038110610b8657610b85610b48565b5b50565b5f819050610b9682610b75565b919050565b5f610ba582610b89565b9050919050565b610bb581610b9b565b82525050565b610bc481610a3b565b82525050565b5f60ff82169050919050565b610bdf81610bca565b82525050565b5f8115159050919050565b610bf981610be5565b82525050565b5f61010082019050610c135f83018b610ac9565b8181036020830152610c25818a610b10565b9050610c346040830189610bac565b610c416060830188610bbb565b610c4e6080830187610bd6565b610c5b60a0830186610bbb565b610c6860c0830185610bbb565b610c7560e0830184610bf0565b9998505050505050505050565b610c8b81610ab8565b8114610c95575f5ffd5b50565b5f81359050610ca681610c82565b92915050565b5f5f60408385031215610cc257610cc1610a33565b5b5f610ccf85828601610a5a565b9250506020610ce085828601610c98565b9150509250929050565b5f602082019050610cfd5f830184610bf0565b92915050565b5f5ffd5b5f5ffd5b5f5ffd5b5f5f83601f840112610d2457610d23610d03565b5b8235905067ffffffffffffffff811115610d4157610d40610d07565b5b602083019150836020820283011115610d5d57610d5c610d0b565b5b9250929050565b5f5f5f60408486031215610d7b57610d7a610a33565b5b5f610d8886828701610a5a565b935050602084013567ffffffffffffffff811115610da957610da8610a37565b5b610db586828701610d0f565b92509250509250925092565b5f5ffd5b7f4e487b71000000000000000000000000000000000000000000000000000000005f52604160045260245ffd5b610dfb82610b00565b810181811067ffffffffffffffff82111715610e1a57610e19610dc5565b5b80604052505050565b5f610e2c610a2a565b9050610e388282610df2565b919050565b5f67ffffffffffffffff821115610e5757610e56610dc5565b5b610e6082610b00565b9050602081019050919050565b828183375f83830152505050565b5f610e8d610e8884610e3d565b610e23565b905082815260208101848484011115610ea957610ea8610dc1565b5b610eb4848285610e6d565b509392505050565b5f82601f830112610ed057610ecf610d03565b5b8135610ee0848260208601610e7b565b91505092915050565b60038110610ef5575f5ffd5b50565b5f81359050610f0681610ee9565b92915050565b610f1581610bca565b8114610f1f575f5ffd5b50565b5f81359050610f3081610f0c565b92915050565b5f5f5f5f60808587031215610f4e57610f4d610a33565b5b5f85013567ffffffffffffffff811115610f6b57610f6a610a37565b5b610f7787828801610ebc565b9450506020610f8887828801610ef8565b9350506040610f9987828801610a5a565b9250506060610faa87828801610f22565b91505092959194509250565b5f602082019050610fc95f830184610bbb565b92915050565b7f5175657374696f6e20646f6573206e6f742065786973740000000000000000005f82015250565b5f611003601783610ae2565b915061100e82610fcf565b602082019050919050565b5f6020820190508181035f83015261103081610ff7565b9050919050565b7f416c7265616479207570766f74656400000000000000000000000000000000005f82015250565b5f61106b600f83610ae2565b915061107682611037565b602082019050919050565b5f6020820190508181035f8301526110988161105f565b9050919050565b7f4e487b71000000000000000000000000000000000000000000000000000000005f52601160045260245ffd5b5f6110d682610a3b565b91507fffffffffffffffffffffffffffffffffffffffffffffffffffffffffffffffff82036111085761110761109f565b5b600182019050919050565b7f4e487b71000000000000000000000000000000000000000000000000000000005f52602260045260245ffd5b5f600282049050600182168061115757607f821691505b60208210810361116a57611169611113565b5b50919050565b7f506f6c6c2068617320656e6465640000000000000000000000000000000000005f82015250565b5f6111a4600e83610ae2565b91506111af82611170565b602082019050919050565b5f6020820190508181035f8301526111d181611198565b9050919050565b7f416c726561647920766f746564000000000000000000000000000000000000005f82015250565b5f61120c600d83610ae2565b9150611217826111d8565b602082019050919050565b5f6020820190508181035f83015261123981611200565b9050919050565b7f4d7573742073656c656374206174206c65617374206f6e65206f7074696f6e005f82015250565b5f611274601f83610ae2565b915061127f82611240565b602082019050919050565b5f6020820190508181035f8301526112a181611268565b9050919050565b7f4f6e6c79206f6e65206f7074696f6e20616c6c6f7765640000000000000000005f82015250565b5f6112dc601783610ae2565b91506112e7826112a8565b602082019050919050565b5f6020820190508181035f830152611309816112d0565b9050919050565b5f82825260208201905092915050565b5f5ffd5b82818337505050565b5f6113388385611310565b93507f07ffffffffffffffffffffffffffffffffffffffffffffffffffffffffffffff83111561136b5761136a611320565b5b60208302925061137c838584611324565b82840190509392505050565b5f6020820190508181035f8301526113a181848661132d565b90509392505050565b7f446561646c696e65206d75737420626520696e207468652066757475726500005f82015250565b5f6113de601e83610ae2565b91506113e9826113aa565b602082019050919050565b5f6020820190508181035f83015261140b816113d2565b9050919050565b7f496e76616c69642063617465676f7279000000000000000000000000000000005f82015250565b5f611446601083610ae2565b915061145182611412565b602082019050919050565b5f6020820190508181035f8301526114738161143a565b9050919050565b5f819050815f5260205f209050919050565b5f6020601f8301049050919050565b5f82821b905092915050565b5f600883026114d67fffffffffffffffffffffffffffffffffffffffffffffffffffffffffffffffff8261149b565b6114e0868361149b565b95508019841693508086168417925050509392505050565b5f819050919050565b5f61151b61151661151184610a3b565b6114f8565b610a3b565b9050919050565b5f819050919050565b61153483611501565b61154861154082611522565b8484546114a7565b825550505050565b5f5f905090565b61155f611550565b61156a81848461152b565b505050565b5b8181101561158d576115825f82611557565b600181019050611570565b5050565b601f8211156115d2576115a38161147a565b6115ac8461148c565b810160208510156115bb578190505b6115cf6115c78561148c565b83018261156f565b50505b505050565b5f82821c905092915050565b5f6115f25f19846008026115d7565b1980831691505092915050565b5f61160a83836115e3565b9150826002028217905092915050565b61162382610ad8565b67ffffffffffffffff81111561163c5761163b610dc5565b5b6116468254611140565b611651828285611591565b5f60209050601f831160018114611682575f8415611670578287015190505b61167a85826115ff565b8655506116e1565b601f1984166116908661147a565b5f5b828110156116b757848901518255600182019150602085019450602081019050611692565b868310156116d457848901516116d0601f8916826115e3565b8355505b6001600288020188555050505b505050505050565b5f6080820190508181035f8301526117018187610b10565b90506117106020830186610bac565b61171d6040830185610bbb565b61172a6060830184610bd6565b9594505050505056fea26469706673582212204bd4b6fe28f726b57c3675fbcce68a17a0a556eb695ce5566d9be0314e4f4d5d64736f6c634300081f0033",
					"opcodes": "PUSH1 0x80 PUSH1 0x40 MSTORE CALLVALUE DUP1 ISZERO PUSH1 0xE JUMPI PUSH0 PUSH0 REVERT JUMPDEST POP PUSH2 0x1769 DUP1 PUSH2 0x1C PUSH0 CODECOPY PUSH0 RETURN INVALID PUSH1 0x80 PUSH1 0x40 MSTORE CALLVALUE DUP1 ISZERO PUSH2 0xF JUMPI PUSH0 PUSH0 REVERT JUMPDEST POP PUSH1 0x4 CALLDATASIZE LT PUSH2 0x7B JUMPI PUSH0 CALLDATALOAD PUSH1 0xE0 SHR DUP1 PUSH4 0x7055D368 GT PUSH2 0x59 JUMPI DUP1 PUSH4 0x7055D368 EQ PUSH2 0x102 JUMPI DUP1 PUSH4 0xA52C8658 EQ PUSH2 0x11E JUMPI DUP1 PUSH4 0xA6794CD5 EQ PUSH2 0x14E JUMPI DUP1 PUSH4 0xEB264B9C EQ PUSH2 0x16A JUMPI PUSH2 0x7B JUMP JUMPDEST DUP1 PUSH4 0x1DDF070 EQ PUSH2 0x7F JUMPI DUP1 PUSH4 0x31B1B978 EQ PUSH2 0x9B JUMPI DUP1 PUSH4 0x43859632 EQ PUSH2 0xD2 JUMPI JUMPDEST PUSH0 PUSH0 REVERT JUMPDEST PUSH2 0x99 PUSH1 0x4 DUP1 CALLDATASIZE SUB DUP2 ADD SWAP1 PUSH2 0x94 SWAP2 SWAP1 PUSH2 0xA6E JUMP JUMPDEST PUSH2 0x188 JUMP JUMPDEST STOP JUMPDEST PUSH2 0xB5 PUSH1 0x4 DUP1 CALLDATASIZE SUB DUP2 ADD SWAP1 PUSH2 0xB0 SWAP2 SWAP1 PUSH2 0xA6E JUMP JUMPDEST PUSH2 0x349 JUMP JUMPDEST PUSH1 0x40 MLOAD PUSH2 0xC9 SWAP9 SWAP8 SWAP7 SWAP6 SWAP5 SWAP4 SWAP3 SWAP2 SWAP1 PUSH2 0xBFF JUMP JUMPDEST PUSH1 0x40 MLOAD DUP1 SWAP2 SUB SWAP1 RETURN JUMPDEST PUSH2 0xEC PUSH1 0x4 DUP1 CALLDATASIZE SUB DUP2 ADD SWAP1 PUSH2 0xE7 SWAP2 SWAP1 PUSH2 0xCAC JUMP JUMPDEST PUSH2 0x455 JUMP JUMPDEST PUSH1 0x40 MLOAD PUSH2 0xF9 SWAP2 SWAP1 PUSH2 0xCEA JUMP JUMPDEST PUSH1 0x40 MLOAD DUP1 SWAP2 SUB SWAP1 RETURN JUMPDEST PUSH2 0x11C PUSH1 0x4 DUP1 CALLDATASIZE SUB DUP2 ADD SWAP1 PUSH2 0x117 SWAP2 SWAP1 PUSH2 0xD64 JUMP JUMPDEST PUSH2 0x47F JUMP JUMPDEST STOP JUMPDEST PUSH2 0x138 PUSH1 0x4 DUP1 CALLDATASIZE SUB DUP2 ADD SWAP1 PUSH2 0x133 SWAP2 SWAP1 PUSH2 0xCAC JUMP JUMPDEST PUSH2 0x79B JUMP JUMPDEST PUSH1 0x40 MLOAD PUSH2 0x145 SWAP2 SWAP1 PUSH2 0xCEA JUMP JUMPDEST PUSH1 0x40 MLOAD DUP1 SWAP2 SUB SWAP1 RETURN JUMPDEST PUSH2 0x168 PUSH1 0x4 DUP1 CALLDATASIZE SUB DUP2 ADD SWAP1 PUSH2 0x163 SWAP2 SWAP1 PUSH2 0xF36 JUMP JUMPDEST PUSH2 0x7C5 JUMP JUMPDEST STOP JUMPDEST PUSH2 0x172 PUSH2 0xA24 JUMP JUMPDEST PUSH1 0x40 MLOAD PUSH2 0x17F SWAP2 SWAP1 PUSH2 0xFB6 JUMP JUMPDEST PUSH1 0x40 MLOAD DUP1 SWAP2 SUB SWAP1 RETURN JUMPDEST PUSH0 PUSH0 PUSH0 DUP4 DUP2 MSTORE PUSH1 0x20 ADD SWAP1 DUP2 MSTORE PUSH1 0x20 ADD PUSH0 KECCAK256 SWAP1 POP DUP1 PUSH1 0x7 ADD PUSH0 SWAP1 SLOAD SWAP1 PUSH2 0x100 EXP SWAP1 DIV PUSH1 0xFF AND PUSH2 0x1EB JUMPI PUSH1 0x40 MLOAD PUSH32 0x8C379A000000000000000000000000000000000000000000000000000000000 DUP2 MSTORE PUSH1 0x4 ADD PUSH2 0x1E2 SWAP1 PUSH2 0x1019 JUMP JUMPDEST PUSH1 0x40 MLOAD DUP1 SWAP2 SUB SWAP1 REVERT JUMPDEST PUSH1 0x2 PUSH0 DUP4 DUP2 MSTORE PUSH1 0x20 ADD SWAP1 DUP2 MSTORE PUSH1 0x20 ADD PUSH0 KECCAK256 PUSH0 CALLER PUSH20 0xFFFFFFFFFFFFFFFFFFFFFFFFFFFFFFFFFFFFFFFF AND PUSH20 0xFFFFFFFFFFFFFFFFFFFFFFFFFFFFFFFFFFFFFFFF AND DUP2 MSTORE PUSH1 0x20 ADD SWAP1 DUP2 MSTORE PUSH1 0x20 ADD PUSH0 KECCAK256 PUSH0 SWAP1 SLOAD SWAP1 PUSH2 0x100 EXP SWAP1 DIV PUSH1 0xFF AND ISZERO PUSH2 0x284 JUMPI PUSH1 0x40 MLOAD PUSH32 0x8C379A000000000000000000000000000000000000000000000000000000000 DUP2 MSTORE PUSH1 0x4 ADD PUSH2 0x27B SWAP1 PUSH2 0x1081 JUMP JUMPDEST PUSH1 0x40 MLOAD DUP1 SWAP2 SUB SWAP1 REVERT JUMPDEST PUSH1 0x1 PUSH1 0x2 PUSH0 DUP5 DUP2 MSTORE PUSH1 0x20 ADD SWAP1 DUP2 MSTORE PUSH1 0x20 ADD PUSH0 KECCAK256 PUSH0 CALLER PUSH20 0xFFFFFFFFFFFFFFFFFFFFFFFFFFFFFFFFFFFFFFFF AND PUSH20 0xFFFFFFFFFFFFFFFFFFFFFFFFFFFFFFFFFFFFFFFF AND DUP2 MSTORE PUSH1 0x20 ADD SWAP1 DUP2 MSTORE PUSH1 0x20 ADD PUSH0 KECCAK256 PUSH0 PUSH2 0x100 EXP DUP2 SLOAD DUP2 PUSH1 0xFF MUL NOT AND SWAP1 DUP4 ISZERO ISZERO MUL OR SWAP1 SSTORE POP DUP1 PUSH1 0x6 ADD PUSH0 DUP2 SLOAD DUP1 SWAP3 SWAP2 SWAP1 PUSH2 0x2FC SWAP1 PUSH2 0x10CC JUMP JUMPDEST SWAP2 SWAP1 POP SSTORE POP CALLER PUSH20 0xFFFFFFFFFFFFFFFFFFFFFFFFFFFFFFFFFFFFFFFF AND DUP3 PUSH32 0xE092509BDE1DD304F477E3EC921B6E4E5092738F70DCD204952FFC1FFDAAFDF PUSH1 0x40 MLOAD PUSH1 0x40 MLOAD DUP1 SWAP2 SUB SWAP1 LOG3 POP POP JUMP JUMPDEST PUSH0 PUSH1 0x20 MSTORE DUP1 PUSH0 MSTORE PUSH1 0x40 PUSH0 KECCAK256 PUSH0 SWAP2 POP SWAP1 POP DUP1 PUSH0 ADD PUSH0 SWAP1 SLOAD SWAP1 PUSH2 0x100 EXP SWAP1 DIV PUSH20 0xFFFFFFFFFFFFFFFFFFFFFFFFFFFFFFFFFFFFFFFF AND SWAP1 DUP1 PUSH1 0x1 ADD DUP1 SLOAD PUSH2 0x38C SWAP1 PUSH2 0x1140 JUMP JUMPDEST DUP1 PUSH1 0x1F ADD PUSH1 0x20 DUP1 SWAP2 DIV MUL PUSH1 0x20 ADD PUSH1 0x40 MLOAD SWAP1 DUP2 ADD PUSH1 0x40 MSTORE DUP1 SWAP3 SWAP2 SWAP1 DUP2 DUP2 MSTORE PUSH1 0x20 ADD DUP3 DUP1 SLOAD PUSH2 0x3B8 SWAP1 PUSH2 0x1140 JUMP JUMPDEST DUP1 ISZERO PUSH2 0x403 JUMPI DUP1 PUSH1 0x1F LT PUSH2 0x3DA JUMPI PUSH2 0x100 DUP1 DUP4 SLOAD DIV MUL DUP4 MSTORE SWAP2 PUSH1 0x20 ADD SWAP2 PUSH2 0x403 JUMP JUMPDEST DUP3 ADD SWAP2 SWAP1 PUSH0 MSTORE PUSH1 0x20 PUSH0 KECCAK256 SWAP1 JUMPDEST DUP2 SLOAD DUP2 MSTORE SWAP1 PUSH1 0x1 ADD SWAP1 PUSH1 0x20 ADD DUP1 DUP4 GT PUSH2 0x3E6 JUMPI DUP3 SWAP1 SUB PUSH1 0x1F AND DUP3 ADD SWAP2 JUMPDEST POP POP POP POP POP SWAP1 DUP1 PUSH1 0x2 ADD PUSH0 SWAP1 SLOAD SWAP1 PUSH2 0x100 EXP SWAP1 DIV PUSH1 0xFF AND SWAP1 DUP1 PUSH1 0x3 ADD SLOAD SWAP1 DUP1 PUSH1 0x4 ADD PUSH0 SWAP1 SLOAD SWAP1 PUSH2 0x100 EXP SWAP1 DIV PUSH1 0xFF AND SWAP1 DUP1 PUSH1 0x5 ADD SLOAD SWAP1 DUP1 PUSH1 0x6 ADD SLOAD SWAP1 DUP1 PUSH1 0x7 ADD PUSH0 SWAP1 SLOAD SWAP1 PUSH2 0x100 EXP SWAP1 DIV PUSH1 0xFF AND SWAP1 POP DUP9 JUMP JUMPDEST PUSH1 0x1 PUSH1 0x20 MSTORE DUP2 PUSH0 MSTORE PUSH1 0x40 PUSH0 KECCAK256 PUSH1 0x20 MSTORE DUP1 PUSH0 MSTORE PUSH1 0x40 PUSH0 KECCAK256 PUSH0 SWAP2 POP SWAP2 POP SWAP1 SLOAD SWAP1 PUSH2 0x100 EXP SWAP1 DIV PUSH1 0xFF AND DUP2 JUMP JUMPDEST PUSH0 PUSH0 PUSH0 DUP6 DUP2 MSTORE PUSH1 0x20 ADD SWAP1 DUP2 MSTORE PUSH1 0x20 ADD PUSH0 KECCAK256 SWAP1 POP DUP1 PUSH1 0x7 ADD PUSH0 SWAP1 SLOAD SWAP1 PUSH2 0x100 EXP SWAP1 DIV PUSH1 0xFF AND PUSH2 0x4E2 JUMPI PUSH1 0x40 MLOAD PUSH32 0x8C379A000000000000000000000000000000000000000000000000000000000 DUP2 MSTORE PUSH1 0x4 ADD PUSH2 0x4D9 SWAP1 PUSH2 0x1019 JUMP JUMPDEST PUSH1 0x40 MLOAD DUP1 SWAP2 SUB SWAP1 REVERT JUMPDEST DUP1 PUSH1 0x3 ADD SLOAD TIMESTAMP LT PUSH2 0x528 JUMPI PUSH1 0x40 MLOAD PUSH32 0x8C379A000000000000000000000000000000000000000000000000000000000 DUP2 MSTORE PUSH1 0x4 ADD PUSH2 0x51F SWAP1 PUSH2 0x11BA JUMP JUMPDEST PUSH1 0x40 MLOAD DUP1 SWAP2 SUB SWAP1 REVERT JUMPDEST PUSH1 0x1 PUSH0 DUP6 DUP2 MSTORE PUSH1 0x20 ADD SWAP1 DUP2 MSTORE PUSH1 0x20 ADD PUSH0 KECCAK256 PUSH0 CALLER PUSH20 0xFFFFFFFFFFFFFFFFFFFFFFFFFFFFFFFFFFFFFFFF AND PUSH20 0xFFFFFFFFFFFFFFFFFFFFFFFFFFFFFFFFFFFFFFFF AND DUP2 MSTORE PUSH1 0x20 ADD SWAP1 DUP2 MSTORE PUSH1 0x20 ADD PUSH0 KECCAK256 PUSH0 SWAP1 SLOAD SWAP1 PUSH2 0x100 EXP SWAP1 DIV PUSH1 0xFF AND ISZERO PUSH2 0x5C1 JUMPI PUSH1 0x40 MLOAD PUSH32 0x8C379A000000000000000000000000000000000000000000000000000000000 DUP2 MSTORE PUSH1 0x4 ADD PUSH2 0x5B8 SWAP1 PUSH2 0x1222 JUMP JUMPDEST PUSH1 0x40 MLOAD DUP1 SWAP2 SUB SWAP1 REVERT JUMPDEST PUSH0 DUP4 DUP4 SWAP1 POP GT PUSH2 0x606 JUMPI PUSH1 0x40 MLOAD PUSH32 0x8C379A000000000000000000000000000000000000000000000000000000000 DUP2 MSTORE PUSH1 0x4 ADD PUSH2 0x5FD SWAP1 PUSH2 0x128A JUMP JUMPDEST PUSH1 0x40 MLOAD DUP1 SWAP2 SUB SWAP1 REVERT JUMPDEST PUSH0 PUSH1 0x2 DUP2 GT ISZERO PUSH2 0x619 JUMPI PUSH2 0x618 PUSH2 0xB48 JUMP JUMPDEST JUMPDEST DUP2 PUSH1 0x2 ADD PUSH0 SWAP1 SLOAD SWAP1 PUSH2 0x100 EXP SWAP1 DIV PUSH1 0xFF AND PUSH1 0x2 DUP2 GT ISZERO PUSH2 0x63C JUMPI PUSH2 0x63B PUSH2 0xB48 JUMP JUMPDEST JUMPDEST EQ DUP1 PUSH2 0x67C JUMPI POP PUSH1 0x1 PUSH1 0x2 DUP2 GT ISZERO PUSH2 0x657 JUMPI PUSH2 0x656 PUSH2 0xB48 JUMP JUMPDEST JUMPDEST DUP2 PUSH1 0x2 ADD PUSH0 SWAP1 SLOAD SWAP1 PUSH2 0x100 EXP SWAP1 DIV PUSH1 0xFF AND PUSH1 0x2 DUP2 GT ISZERO PUSH2 0x67A JUMPI PUSH2 0x679 PUSH2 0xB48 JUMP JUMPDEST JUMPDEST EQ JUMPDEST ISZERO PUSH2 0x6C8 JUMPI PUSH1 0x1 DUP4 DUP4 SWAP1 POP EQ PUSH2 0x6C7 JUMPI PUSH1 0x40 MLOAD PUSH32 0x8C379A000000000000000000000000000000000000000000000000000000000 DUP2 MSTORE PUSH1 0x4 ADD PUSH2 0x6BE SWAP1 PUSH2 0x12F2 JUMP JUMPDEST PUSH1 0x40 MLOAD DUP1 SWAP2 SUB SWAP1 REVERT JUMPDEST JUMPDEST PUSH1 0x1 DUP1 PUSH0 DUP7 DUP2 MSTORE PUSH1 0x20 ADD SWAP1 DUP2 MSTORE PUSH1 0x20 ADD PUSH0 KECCAK256 PUSH0 CALLER PUSH20 0xFFFFFFFFFFFFFFFFFFFFFFFFFFFFFFFFFFFFFFFF AND PUSH20 0xFFFFFFFFFFFFFFFFFFFFFFFFFFFFFFFFFFFFFFFF AND DUP2 MSTORE PUSH1 0x20 ADD SWAP1 DUP2 MSTORE PUSH1 0x20 ADD PUSH0 KECCAK256 PUSH0 PUSH2 0x100 EXP DUP2 SLOAD DUP2 PUSH1 0xFF MUL NOT AND SWAP1 DUP4 ISZERO ISZERO MUL OR SWAP1 SSTORE POP DUP1 PUSH1 0x5 ADD PUSH0 DUP2 SLOAD DUP1 SWAP3 SWAP2 SWAP1 PUSH2 0x73F SWAP1 PUSH2 0x10CC JUMP JUMPDEST SWAP2 SWAP1 POP SSTORE POP CALLER PUSH20 0xFFFFFFFFFFFFFFFFFFFFFFFFFFFFFFFFFFFFFFFF AND DUP5 PUSH32 0x87F23B7A798A675896E0C401278860EA037111DD34E85A1F4870371BFADFA0CF DUP6 DUP6 PUSH1 0x40 MLOAD PUSH2 0x78D SWAP3 SWAP2 SWAP1 PUSH2 0x1388 JUMP JUMPDEST PUSH1 0x40 MLOAD DUP1 SWAP2 SUB SWAP1 LOG3 POP POP POP POP JUMP JUMPDEST PUSH1 0x2 PUSH1 0x20 MSTORE DUP2 PUSH0 MSTORE PUSH1 0x40 PUSH0 KECCAK256 PUSH1 0x20 MSTORE DUP1 PUSH0 MSTORE PUSH1 0x40 PUSH0 KECCAK256 PUSH0 SWAP2 POP SWAP2 POP SWAP1 SLOAD SWAP1 PUSH2 0x100 EXP SWAP1 DIV PUSH1 0xFF AND DUP2 JUMP JUMPDEST TIMESTAMP DUP3 GT PUSH2 0x807 JUMPI PUSH1 0x40 MLOAD PUSH32 0x8C379A000000000000000000000000000000000000000000000000000000000 DUP2 MSTORE PUSH1 0x4 ADD PUSH2 0x7FE SWAP1 PUSH2 0x13F4 JUMP JUMPDEST PUSH1 0x40 MLOAD DUP1 SWAP2 SUB SWAP1 REVERT JUMPDEST PUSH1 0xA DUP2 PUSH1 0xFF AND LT PUSH2 0x84D JUMPI PUSH1 0x40 MLOAD PUSH32 0x8C379A000000000000000000000000000000000000000000000000000000000 DUP2 MSTORE PUSH1 0x4 ADD PUSH2 0x844 SWAP1 PUSH2 0x145C JUMP JUMPDEST PUSH1 0x40 MLOAD DUP1 SWAP2 SUB SWAP1 REVERT JUMPDEST PUSH1 0x40 MLOAD DUP1 PUSH2 0x100 ADD PUSH1 0x40 MSTORE DUP1 CALLER PUSH20 0xFFFFFFFFFFFFFFFFFFFFFFFFFFFFFFFFFFFFFFFF AND DUP2 MSTORE PUSH1 0x20 ADD DUP6 DUP2 MSTORE PUSH1 0x20 ADD DUP5 PUSH1 0x2 DUP2 GT ISZERO PUSH2 0x88E JUMPI PUSH2 0x88D PUSH2 0xB48 JUMP JUMPDEST JUMPDEST DUP2 MSTORE PUSH1 0x20 ADD DUP4 DUP2 MSTORE PUSH1 0x20 ADD DUP3 PUSH1 0xFF AND DUP2 MSTORE PUSH1 0x20 ADD PUSH0 DUP2 MSTORE PUSH1 0x20 ADD PUSH0 DUP2 MSTORE PUSH1 0x20 ADD PUSH1 0x1 ISZERO ISZERO DUP2 MSTORE POP PUSH0 PUSH0 PUSH1 0x3 SLOAD DUP2 MSTORE PUSH1 0x20 ADD SWAP1 DUP2 MSTORE PUSH1 0x20 ADD PUSH0 KECCAK256 PUSH0 DUP3 ADD MLOAD DUP2 PUSH0 ADD PUSH0 PUSH2 0x100 EXP DUP2 SLOAD DUP2 PUSH20 0xFFFFFFFFFFFFFFFFFFFFFFFFFFFFFFFFFFFFFFFF MUL NOT AND SWAP1 DUP4 PUSH20 0xFFFFFFFFFFFFFFFFFFFFFFFFFFFFFFFFFFFFFFFF AND MUL OR SWAP1 SSTORE POP PUSH1 0x20 DUP3 ADD MLOAD DUP2 PUSH1 0x1 ADD SWAP1 DUP2 PUSH2 0x920 SWAP2 SWAP1 PUSH2 0x161A JUMP JUMPDEST POP PUSH1 0x40 DUP3 ADD MLOAD DUP2 PUSH1 0x2 ADD PUSH0 PUSH2 0x100 EXP DUP2 SLOAD DUP2 PUSH1 0xFF MUL NOT AND SWAP1 DUP4 PUSH1 0x2 DUP2 GT ISZERO PUSH2 0x94B JUMPI PUSH2 0x94A PUSH2 0xB48 JUMP JUMPDEST JUMPDEST MUL OR SWAP1 SSTORE POP PUSH1 0x60 DUP3 ADD MLOAD DUP2 PUSH1 0x3 ADD SSTORE PUSH1 0x80 DUP3 ADD MLOAD DUP2 PUSH1 0x4 ADD PUSH0 PUSH2 0x100 EXP DUP2 SLOAD DUP2 PUSH1 0xFF MUL NOT AND SWAP1 DUP4 PUSH1 0xFF AND MUL OR SWAP1 SSTORE POP PUSH1 0xA0 DUP3 ADD MLOAD DUP2 PUSH1 0x5 ADD SSTORE PUSH1 0xC0 DUP3 ADD MLOAD DUP2 PUSH1 0x6 ADD SSTORE PUSH1 0xE0 DUP3 ADD MLOAD DUP2 PUSH1 0x7 ADD PUSH0 PUSH2 0x100 EXP DUP2 SLOAD DUP2 PUSH1 0xFF MUL NOT AND SWAP1 DUP4 ISZERO ISZERO MUL OR SWAP1 SSTORE POP SWAP1 POP POP CALLER PUSH20 0xFFFFFFFFFFFFFFFFFFFFFFFFFFFFFFFFFFFFFFFF AND PUSH1 0x3 SLOAD PUSH32 0x2EEE3EBDD587F8BD0EF9E9CF02BC348C4849A2777513FEC314ADBA0626AD01C6 DUP7 DUP7 DUP7 DUP7 PUSH1 0x40 MLOAD PUSH2 0x9FF SWAP5 SWAP4 SWAP3 SWAP2 SWAP1 PUSH2 0x16E9 JUMP JUMPDEST PUSH1 0x40 MLOAD DUP1 SWAP2 SUB SWAP1 LOG3 PUSH1 0x3 PUSH0 DUP2 SLOAD DUP1 SWAP3 SWAP2 SWAP1 PUSH2 0xA19 SWAP1 PUSH2 0x10CC JUMP JUMPDEST SWAP2 SWAP1 POP SSTORE POP POP POP POP POP JUMP JUMPDEST PUSH1 0x3 SLOAD DUP2 JUMP JUMPDEST PUSH0 PUSH1 0x40 MLOAD SWAP1 POP SWAP1 JUMP JUMPDEST PUSH0 PUSH0 REVERT JUMPDEST PUSH0 PUSH0 REVERT JUMPDEST PUSH0 DUP2 SWAP1 POP SWAP2 SWAP1 POP JUMP JUMPDEST PUSH2 0xA4D DUP2 PUSH2 0xA3B JUMP JUMPDEST DUP2 EQ PUSH2 0xA57 JUMPI PUSH0 PUSH0 REVERT JUMPDEST POP JUMP JUMPDEST PUSH0 DUP2 CALLDATALOAD SWAP1 POP PUSH2 0xA68 DUP2 PUSH2 0xA44 JUMP JUMPDEST SWAP3 SWAP2 POP POP JUMP JUMPDEST PUSH0 PUSH1 0x20 DUP3 DUP5 SUB SLT ISZERO PUSH2 0xA83 JUMPI PUSH2 0xA82 PUSH2 0xA33 JUMP JUMPDEST JUMPDEST PUSH0 PUSH2 0xA90 DUP5 DUP3 DUP6 ADD PUSH2 0xA5A JUMP JUMPDEST SWAP2 POP POP SWAP3 SWAP2 POP POP JUMP JUMPDEST PUSH0 PUSH20 0xFFFFFFFFFFFFFFFFFFFFFFFFFFFFFFFFFFFFFFFF DUP3 AND SWAP1 POP SWAP2 SWAP1 POP JUMP JUMPDEST PUSH0 PUSH2 0xAC2 DUP3 PUSH2 0xA99 JUMP JUMPDEST SWAP1 POP SWAP2 SWAP1 POP JUMP JUMPDEST PUSH2 0xAD2 DUP2 PUSH2 0xAB8 JUMP JUMPDEST DUP3 MSTORE POP POP JUMP JUMPDEST PUSH0 DUP2 MLOAD SWAP1 POP SWAP2 SWAP1 POP JUMP JUMPDEST PUSH0 DUP3 DUP3 MSTORE PUSH1 0x20 DUP3 ADD SWAP1 POP SWAP3 SWAP2 POP POP JUMP JUMPDEST DUP3 DUP2 DUP4 MCOPY PUSH0 DUP4 DUP4 ADD MSTORE POP POP POP JUMP JUMPDEST PUSH0 PUSH1 0x1F NOT PUSH1 0x1F DUP4 ADD AND SWAP1 POP SWAP2 SWAP1 POP JUMP JUMPDEST PUSH0 PUSH2 0xB1A DUP3 PUSH2 0xAD8 JUMP JUMPDEST PUSH2 0xB24 DUP2 DUP6 PUSH2 0xAE2 JUMP JUMPDEST SWAP4 POP PUSH2 0xB34 DUP2 DUP6 PUSH1 0x20 DUP7 ADD PUSH2 0xAF2 JUMP JUMPDEST PUSH2 0xB3D DUP2 PUSH2 0xB00 JUMP JUMPDEST DUP5 ADD SWAP2 POP POP SWAP3 SWAP2 POP POP JUMP JUMPDEST PUSH32 0x4E487B7100000000000000000000000000000000000000000000000000000000 PUSH0 MSTORE PUSH1 0x21 PUSH1 0x4 MSTORE PUSH1 0x24 PUSH0 REVERT JUMPDEST PUSH1 0x3 DUP2 LT PUSH2 0xB86 JUMPI PUSH2 0xB85 PUSH2 0xB48 JUMP JUMPDEST JUMPDEST POP JUMP JUMPDEST PUSH0 DUP2 SWAP1 POP PUSH2 0xB96 DUP3 PUSH2 0xB75 JUMP JUMPDEST SWAP2 SWAP1 POP JUMP JUMPDEST PUSH0 PUSH2 0xBA5 DUP3 PUSH2 0xB89 JUMP JUMPDEST SWAP1 POP SWAP2 SWAP1 POP JUMP JUMPDEST PUSH2 0xBB5 DUP2 PUSH2 0xB9B JUMP JUMPDEST DUP3 MSTORE POP POP JUMP JUMPDEST PUSH2 0xBC4 DUP2 PUSH2 0xA3B JUMP JUMPDEST DUP3 MSTORE POP POP JUMP JUMPDEST PUSH0 PUSH1 0xFF DUP3 AND SWAP1 POP SWAP2 SWAP1 POP JUMP JUMPDEST PUSH2 0xBDF DUP2 PUSH2 0xBCA JUMP JUMPDEST DUP3 MSTORE POP POP JUMP JUMPDEST PUSH0 DUP2 ISZERO ISZERO SWAP1 POP SWAP2 SWAP1 POP JUMP JUMPDEST PUSH2 0xBF9 DUP2 PUSH2 0xBE5 JUMP JUMPDEST DUP3 MSTORE POP POP JUMP JUMPDEST PUSH0 PUSH2 0x100 DUP3 ADD SWAP1 POP PUSH2 0xC13 PUSH0 DUP4 ADD DUP12 PUSH2 0xAC9 JUMP JUMPDEST DUP2 DUP2 SUB PUSH1 0x20 DUP4 ADD MSTORE PUSH2 0xC25 DUP2 DUP11 PUSH2 0xB10 JUMP JUMPDEST SWAP1 POP PUSH2 0xC34 PUSH1 0x40 DUP4 ADD DUP10 PUSH2 0xBAC JUMP JUMPDEST PUSH2 0xC41 PUSH1 0x60 DUP4 ADD DUP9 PUSH2 0xBBB JUMP JUMPDEST PUSH2 0xC4E PUSH1 0x80 DUP4 ADD DUP8 PUSH2 0xBD6 JUMP JUMPDEST PUSH2 0xC5B PUSH1 0xA0 DUP4 ADD DUP7 PUSH2 0xBBB JUMP JUMPDEST PUSH2 0xC68 PUSH1 0xC0 DUP4 ADD DUP6 PUSH2 0xBBB JUMP JUMPDEST PUSH2 0xC75 PUSH1 0xE0 DUP4 ADD DUP5 PUSH2 0xBF0 JUMP JUMPDEST SWAP10 SWAP9 POP POP POP POP POP POP POP POP POP JUMP JUMPDEST PUSH2 0xC8B DUP2 PUSH2 0xAB8 JUMP JUMPDEST DUP2 EQ PUSH2 0xC95 JUMPI PUSH0 PUSH0 REVERT JUMPDEST POP JUMP JUMPDEST PUSH0 DUP2 CALLDATALOAD SWAP1 POP PUSH2 0xCA6 DUP2 PUSH2 0xC82 JUMP JUMPDEST SWAP3 SWAP2 POP POP JUMP JUMPDEST PUSH0 PUSH0 PUSH1 0x40 DUP4 DUP6 SUB SLT ISZERO PUSH2 0xCC2 JUMPI PUSH2 0xCC1 PUSH2 0xA33 JUMP JUMPDEST JUMPDEST PUSH0 PUSH2 0xCCF DUP6 DUP3 DUP7 ADD PUSH2 0xA5A JUMP JUMPDEST SWAP3 POP POP PUSH1 0x20 PUSH2 0xCE0 DUP6 DUP3 DUP7 ADD PUSH2 0xC98 JUMP JUMPDEST SWAP2 POP POP SWAP3 POP SWAP3 SWAP1 POP JUMP JUMPDEST PUSH0 PUSH1 0x20 DUP3 ADD SWAP1 POP PUSH2 0xCFD PUSH0 DUP4 ADD DUP5 PUSH2 0xBF0 JUMP JUMPDEST SWAP3 SWAP2 POP POP JUMP JUMPDEST PUSH0 PUSH0 REVERT JUMPDEST PUSH0 PUSH0 REVERT JUMPDEST PUSH0 PUSH0 REVERT JUMPDEST PUSH0 PUSH0 DUP4 PUSH1 0x1F DUP5 ADD SLT PUSH2 0xD24 JUMPI PUSH2 0xD23 PUSH2 0xD03 JUMP JUMPDEST JUMPDEST DUP3 CALLDATALOAD SWAP1 POP PUSH8 0xFFFFFFFFFFFFFFFF DUP2 GT ISZERO PUSH2 0xD41 JUMPI PUSH2 0xD40 PUSH2 0xD07 JUMP JUMPDEST JUMPDEST PUSH1 0x20 DUP4 ADD SWAP2 POP DUP4 PUSH1 0x20 DUP3 MUL DUP4 ADD GT ISZERO PUSH2 0xD5D JUMPI PUSH2 0xD5C PUSH2 0xD0B JUMP JUMPDEST JUMPDEST SWAP3 POP SWAP3 SWAP1 POP JUMP JUMPDEST PUSH0 PUSH0 PUSH0 PUSH1 0x40 DUP5 DUP7 SUB SLT ISZERO PUSH2 0xD7B JUMPI PUSH2 0xD7A PUSH2 0xA33 JUMP JUMPDEST JUMPDEST PUSH0 PUSH2 0xD88 DUP7 DUP3 DUP8 ADD PUSH2 0xA5A JUMP JUMPDEST SWAP4 POP POP PUSH1 0x20 DUP5 ADD CALLDATALOAD PUSH8 0xFFFFFFFFFFFFFFFF DUP2 GT ISZERO PUSH2 0xDA9 JUMPI PUSH2 0xDA8 PUSH2 0xA37 JUMP JUMPDEST JUMPDEST PUSH2 0xDB5 DUP7 DUP3 DUP8 ADD PUSH2 0xD0F JUMP JUMPDEST SWAP3 POP SWAP3 POP POP SWAP3 POP SWAP3 POP SWAP3 JUMP JUMPDEST PUSH0 PUSH0 REVERT JUMPDEST PUSH32 0x4E487B7100000000000000000000000000000000000000000000000000000000 PUSH0 MSTORE PUSH1 0x41 PUSH1 0x4 MSTORE PUSH1 0x24 PUSH0 REVERT JUMPDEST PUSH2 0xDFB DUP3 PUSH2 0xB00 JUMP JUMPDEST DUP2 ADD DUP2 DUP2 LT PUSH8 0xFFFFFFFFFFFFFFFF DUP3 GT OR ISZERO PUSH2 0xE1A JUMPI PUSH2 0xE19 PUSH2 0xDC5 JUMP JUMPDEST JUMPDEST DUP1 PUSH1 0x40 MSTORE POP POP POP JUMP JUMPDEST PUSH0 PUSH2 0xE2C PUSH2 0xA2A JUMP JUMPDEST SWAP1 POP PUSH2 0xE38 DUP3 DUP3 PUSH2 0xDF2 JUMP JUMPDEST SWAP2 SWAP1 POP JUMP JUMPDEST PUSH0 PUSH8 0xFFFFFFFFFFFFFFFF DUP3 GT ISZERO PUSH2 0xE57 JUMPI PUSH2 0xE56 PUSH2 0xDC5 JUMP JUMPDEST JUMPDEST PUSH2 0xE60 DUP3 PUSH2 0xB00 JUMP JUMPDEST SWAP1 POP PUSH1 0x20 DUP2 ADD SWAP1 POP SWAP2 SWAP1 POP JUMP JUMPDEST DUP3 DUP2 DUP4 CALLDATACOPY PUSH0 DUP4 DUP4 ADD MSTORE POP POP POP JUMP JUMPDEST PUSH0 PUSH2 0xE8D PUSH2 0xE88 DUP5 PUSH2 0xE3D JUMP JUMPDEST PUSH2 0xE23 JUMP JUMPDEST SWAP1 POP DUP3 DUP2 MSTORE PUSH1 0x20 DUP2 ADD DUP5 DUP5 DUP5 ADD GT ISZERO PUSH2 0xEA9 JUMPI PUSH2 0xEA8 PUSH2 0xDC1 JUMP JUMPDEST JUMPDEST PUSH2 0xEB4 DUP5 DUP3 DUP6 PUSH2 0xE6D JUMP JUMPDEST POP SWAP4 SWAP3 POP POP POP JUMP JUMPDEST PUSH0 DUP3 PUSH1 0x1F DUP4 ADD SLT PUSH2 0xED0 JUMPI PUSH2 0xECF PUSH2 0xD03 JUMP JUMPDEST JUMPDEST DUP2 CALLDATALOAD PUSH2 0xEE0 DUP5 DUP3 PUSH1 0x20 DUP7 ADD PUSH2 0xE7B JUMP JUMPDEST SWAP2 POP POP SWAP3 SWAP2 POP POP JUMP JUMPDEST PUSH1 0x3 DUP2 LT PUSH2 0xEF5 JUMPI PUSH0 PUSH0 REVERT JUMPDEST POP JUMP JUMPDEST PUSH0 DUP2 CALLDATALOAD SWAP1 POP PUSH2 0xF06 DUP2 PUSH2 0xEE9 JUMP JUMPDEST SWAP3 SWAP2 POP POP JUMP JUMPDEST PUSH2 0xF15 DUP2 PUSH2 0xBCA JUMP JUMPDEST DUP2 EQ PUSH2 0xF1F JUMPI PUSH0 PUSH0 REVERT JUMPDEST POP JUMP JUMPDEST PUSH0 DUP2 CALLDATALOAD SWAP1 POP PUSH2 0xF30 DUP2 PUSH2 0xF0C JUMP JUMPDEST SWAP3 SWAP2 POP POP JUMP JUMPDEST PUSH0 PUSH0 PUSH0 PUSH0 PUSH1 0x80 DUP6 DUP8 SUB SLT ISZERO PUSH2 0xF4E JUMPI PUSH2 0xF4D PUSH2 0xA33 JUMP JUMPDEST JUMPDEST PUSH0 DUP6 ADD CALLDATALOAD PUSH8 0xFFFFFFFFFFFFFFFF DUP2 GT ISZERO PUSH2 0xF6B JUMPI PUSH2 0xF6A PUSH2 0xA37 JUMP JUMPDEST JUMPDEST PUSH2 0xF77 DUP8 DUP3 DUP9 ADD PUSH2 0xEBC JUMP JUMPDEST SWAP5 POP POP PUSH1 0x20 PUSH2 0xF88 DUP8 DUP3 DUP9 ADD PUSH2 0xEF8 JUMP JUMPDEST SWAP4 POP POP PUSH1 0x40 PUSH2 0xF99 DUP8 DUP3 DUP9 ADD PUSH2 0xA5A JUMP JUMPDEST SWAP3 POP POP PUSH1 0x60 PUSH2 0xFAA DUP8 DUP3 DUP9 ADD PUSH2 0xF22 JUMP JUMPDEST SWAP2 POP POP SWAP3 SWAP6 SWAP2 SWAP5 POP SWAP3 POP JUMP JUMPDEST PUSH0 PUSH1 0x20 DUP3 ADD SWAP1 POP PUSH2 0xFC9 PUSH0 DUP4 ADD DUP5 PUSH2 0xBBB JUMP JUMPDEST SWAP3 SWAP2 POP POP JUMP JUMPDEST PUSH32 0x5175657374696F6E20646F6573206E6F74206578697374000000000000000000 PUSH0 DUP3 ADD MSTORE POP JUMP JUMPDEST PUSH0 PUSH2 0x1003 PUSH1 0x17 DUP4 PUSH2 0xAE2 JUMP JUMPDEST SWAP2 POP PUSH2 0x100E DUP3 PUSH2 0xFCF JUMP JUMPDEST PUSH1 0x20 DUP3 ADD SWAP1 POP SWAP2 SWAP1 POP JUMP JUMPDEST PUSH0 PUSH1 0x20 DUP3 ADD SWAP1 POP DUP2 DUP2 SUB PUSH0 DUP4 ADD MSTORE PUSH2 0x1030 DUP2 PUSH2 0xFF7 JUMP JUMPDEST SWAP1 POP SWAP2 SWAP1 POP JUMP JUMPDEST PUSH32 0x416C7265616479207570766F7465640000000000000000000000000000000000 PUSH0 DUP3 ADD MSTORE POP JUMP JUMPDEST PUSH0 PUSH2 0x106B PUSH1 0xF DUP4 PUSH2 0xAE2 JUMP JUMPDEST SWAP2 POP PUSH2 0x1076 DUP3 PUSH2 0x1037 JUMP JUMPDEST PUSH1 0x20 DUP3 ADD SWAP1 POP SWAP2 SWAP1 POP JUMP JUMPDEST PUSH0 PUSH1 0x20 DUP3 ADD SWAP1 POP DUP2 DUP2 SUB PUSH0 DUP4 ADD MSTORE PUSH2 0x1098 DUP2 PUSH2 0x105F JUMP JUMPDEST SWAP1 POP SWAP2 SWAP1 POP JUMP JUMPDEST PUSH32 0x4E487B7100000000000000000000000000000000000000000000000000000000 PUSH0 MSTORE PUSH1 0x11 PUSH1 0x4 MSTORE PUSH1 0x24 PUSH0 REVERT JUMPDEST PUSH0 PUSH2 0x10D6 DUP3 PUSH2 0xA3B JUMP JUMPDEST SWAP2 POP PUSH32 0xFFFFFFFFFFFFFFFFFFFFFFFFFFFFFFFFFFFFFFFFFFFFFFFFFFFFFFFFFFFFFFFF DUP3 SUB PUSH2 0x1108 JUMPI PUSH2 0x1107 PUSH2 0x109F JUMP JUMPDEST JUMPDEST PUSH1 0x1 DUP3 ADD SWAP1 POP SWAP2 SWAP1 POP JUMP JUMPDEST PUSH32 0x4E487B7100000000000000000000000000000000000000000000000000000000 PUSH0 MSTORE PUSH1 0x22 PUSH1 0x4 MSTORE PUSH1 0x24 PUSH0 REVERT JUMPDEST PUSH0 PUSH1 0x2 DUP3 DIV SWAP1 POP PUSH1 0x1 DUP3 AND DUP1 PUSH2 0x1157 JUMPI PUSH1 0x7F DUP3 AND SWAP2 POP JUMPDEST PUSH1 0x20 DUP3 LT DUP2 SUB PUSH2 0x116A JUMPI PUSH2 0x1169 PUSH2 0x1113 JUMP JUMPDEST JUMPDEST POP SWAP2 SWAP1 POP JUMP JUMPDEST PUSH32 0x506F6C6C2068617320656E646564000000000000000000000000000000000000 PUSH0 DUP3 ADD MSTORE POP JUMP JUMPDEST PUSH0 PUSH2 0x11A4 PUSH1 0xE DUP4 PUSH2 0xAE2 JUMP JUMPDEST SWAP2 POP PUSH2 0x11AF DUP3 PUSH2 0x1170 JUMP JUMPDEST PUSH1 0x20 DUP3 ADD SWAP1 POP SWAP2 SWAP1 POP JUMP JUMPDEST PUSH0 PUSH1 0x20 DUP3 ADD SWAP1 POP DUP2 DUP2 SUB PUSH0 DUP4 ADD MSTORE PUSH2 0x11D1 DUP2 PUSH2 0x1198 JUMP JUMPDEST SWAP1 POP SWAP2 SWAP1 POP JUMP JUMPDEST PUSH32 0x416C726561647920766F74656400000000000000000000000000000000000000 PUSH0 DUP3 ADD MSTORE POP JUMP JUMPDEST PUSH0 PUSH2 0x120C PUSH1 0xD DUP4 PUSH2 0xAE2 JUMP JUMPDEST SWAP2 POP PUSH2 0x1217 DUP3 PUSH2 0x11D8 JUMP JUMPDEST PUSH1 0x20 DUP3 ADD SWAP1 POP SWAP2 SWAP1 POP JUMP JUMPDEST PUSH0 PUSH1 0x20 DUP3 ADD SWAP1 POP DUP2 DUP2 SUB PUSH0 DUP4 ADD MSTORE PUSH2 0x1239 DUP2 PUSH2 0x1200 JUMP JUMPDEST SWAP1 POP SWAP2 SWAP1 POP JUMP JUMPDEST PUSH32 0x4D7573742073656C656374206174206C65617374206F6E65206F7074696F6E00 PUSH0 DUP3 ADD MSTORE POP JUMP JUMPDEST PUSH0 PUSH2 0x1274 PUSH1 0x1F DUP4 PUSH2 0xAE2 JUMP JUMPDEST SWAP2 POP PUSH2 0x127F DUP3 PUSH2 0x1240 JUMP JUMPDEST PUSH1 0x20 DUP3 ADD SWAP1 POP SWAP2 SWAP1 POP JUMP JUMPDEST PUSH0 PUSH1 0x20 DUP3 ADD SWAP1 POP DUP2 DUP2 SUB PUSH0 DUP4 ADD MSTORE PUSH2 0x12A1 DUP2 PUSH2 0x1268 JUMP JUMPDEST SWAP1 POP SWAP2 SWAP1 POP JUMP JUMPDEST PUSH32 0x4F6E6C79206F6E65206F7074696F6E20616C6C6F776564000000000000000000 PUSH0 DUP3 ADD MSTORE POP JUMP JUMPDEST PUSH0 PUSH2 0x12DC PUSH1 0x17 DUP4 PUSH2 0xAE2 JUMP JUMPDEST SWAP2 POP PUSH2 0x12E7 DUP3 PUSH2 0x12A8 JUMP JUMPDEST PUSH1 0x20 DUP3 ADD SWAP1 POP SWAP2 SWAP1 POP JUMP JUMPDEST PUSH0 PUSH1 0x20 DUP3 ADD SWAP1 POP DUP2 DUP2 SUB PUSH0 DUP4 ADD MSTORE PUSH2 0x1309 DUP2 PUSH2 0x12D0 JUMP JUMPDEST SWAP1 POP SWAP2 SWAP1 POP JUMP JUMPDEST PUSH0 DUP3 DUP3 MSTORE PUSH1 0x20 DUP3 ADD SWAP1 POP SWAP3 SWAP2 POP POP JUMP JUMPDEST PUSH0 PUSH0 REVERT JUMPDEST DUP3 DUP2 DUP4 CALLDATACOPY POP POP POP JUMP JUMPDEST PUSH0 PUSH2 0x1338 DUP4 DUP6 PUSH2 0x1310 JUMP JUMPDEST SWAP4 POP PUSH32 0x7FFFFFFFFFFFFFFFFFFFFFFFFFFFFFFFFFFFFFFFFFFFFFFFFFFFFFFFFFFFFFF DUP4 GT ISZERO PUSH2 0x136B JUMPI PUSH2 0x136A PUSH2 0x1320 JUMP JUMPDEST JUMPDEST PUSH1 0x20 DUP4 MUL SWAP3 POP PUSH2 0x137C DUP4 DUP6 DUP5 PUSH2 0x1324 JUMP JUMPDEST DUP3 DUP5 ADD SWAP1 POP SWAP4 SWAP3 POP POP POP JUMP JUMPDEST PUSH0 PUSH1 0x20 DUP3 ADD SWAP1 POP DUP2 DUP2 SUB PUSH0 DUP4 ADD MSTORE PUSH2 0x13A1 DUP2 DUP5 DUP7 PUSH2 0x132D JUMP JUMPDEST SWAP1 POP SWAP4 SWAP3 POP POP POP JUMP JUMPDEST PUSH32 0x446561646C696E65206D75737420626520696E20746865206675747572650000 PUSH0 DUP3 ADD MSTORE POP JUMP JUMPDEST PUSH0 PUSH2 0x13DE PUSH1 0x1E DUP4 PUSH2 0xAE2 JUMP JUMPDEST SWAP2 POP PUSH2 0x13E9 DUP3 PUSH2 0x13AA JUMP JUMPDEST PUSH1 0x20 DUP3 ADD SWAP1 POP SWAP2 SWAP1 POP JUMP JUMPDEST PUSH0 PUSH1 0x20 DUP3 ADD SWAP1 POP DUP2 DUP2 SUB PUSH0 DUP4 ADD MSTORE PUSH2 0x140B DUP2 PUSH2 0x13D2 JUMP JUMPDEST SWAP1 POP SWAP2 SWAP1 POP JUMP JUMPDEST PUSH32 0x496E76616C69642063617465676F727900000000000000000000000000000000 PUSH0 DUP3 ADD MSTORE POP JUMP JUMPDEST PUSH0 PUSH2 0x1446 PUSH1 0x10 DUP4 PUSH2 0xAE2 JUMP JUMPDEST SWAP2 POP PUSH2 0x1451 DUP3 PUSH2 0x1412 JUMP JUMPDEST PUSH1 0x20 DUP3 ADD SWAP1 POP SWAP2 SWAP1 POP JUMP JUMPDEST PUSH0 PUSH1 0x20 DUP3 ADD SWAP1 POP DUP2 DUP2 SUB PUSH0 DUP4 ADD MSTORE PUSH2 0x1473 DUP2 PUSH2 0x143A JUMP JUMPDEST SWAP1 POP SWAP2 SWAP1 POP JUMP JUMPDEST PUSH0 DUP2 SWAP1 POP DUP2 PUSH0 MSTORE PUSH1 0x20 PUSH0 KECCAK256 SWAP1 POP SWAP2 SWAP1 POP JUMP JUMPDEST PUSH0 PUSH1 0x20 PUSH1 0x1F DUP4 ADD DIV SWAP1 POP SWAP2 SWAP1 POP JUMP JUMPDEST PUSH0 DUP3 DUP3 SHL SWAP1 POP SWAP3 SWAP2 POP POP JUMP JUMPDEST PUSH0 PUSH1 0x8 DUP4 MUL PUSH2 0x14D6 PUSH32 0xFFFFFFFFFFFFFFFFFFFFFFFFFFFFFFFFFFFFFFFFFFFFFFFFFFFFFFFFFFFFFFFF DUP3 PUSH2 0x149B JUMP JUMPDEST PUSH2 0x14E0 DUP7 DUP4 PUSH2 0x149B JUMP JUMPDEST SWAP6 POP DUP1 NOT DUP5 AND SWAP4 POP DUP1 DUP7 AND DUP5 OR SWAP3 POP POP POP SWAP4 SWAP3 POP POP POP JUMP JUMPDEST PUSH0 DUP2 SWAP1 POP SWAP2 SWAP1 POP JUMP JUMPDEST PUSH0 PUSH2 0x151B PUSH2 0x1516 PUSH2 0x1511 DUP5 PUSH2 0xA3B JUMP JUMPDEST PUSH2 0x14F8 JUMP JUMPDEST PUSH2 0xA3B JUMP JUMPDEST SWAP1 POP SWAP2 SWAP1 POP JUMP JUMPDEST PUSH0 DUP2 SWAP1 POP SWAP2 SWAP1 POP JUMP JUMPDEST PUSH2 0x1534 DUP4 PUSH2 0x1501 JUMP JUMPDEST PUSH2 0x1548 PUSH2 0x1540 DUP3 PUSH2 0x1522 JUMP JUMPDEST DUP5 DUP5 SLOAD PUSH2 0x14A7 JUMP JUMPDEST DUP3 SSTORE POP POP POP POP JUMP JUMPDEST PUSH0 PUSH0 SWAP1 POP SWAP1 JUMP JUMPDEST PUSH2 0x155F PUSH2 0x1550 JUMP JUMPDEST PUSH2 0x156A DUP2 DUP5 DUP5 PUSH2 0x152B JUMP JUMPDEST POP POP POP JUMP JUMPDEST JUMPDEST DUP2 DUP2 LT ISZERO PUSH2 0x158D JUMPI PUSH2 0x1582 PUSH0 DUP3 PUSH2 0x1557 JUMP JUMPDEST PUSH1 0x1 DUP2 ADD SWAP1 POP PUSH2 0x1570 JUMP JUMPDEST POP POP JUMP JUMPDEST PUSH1 0x1F DUP3 GT ISZERO PUSH2 0x15D2 JUMPI PUSH2 0x15A3 DUP2 PUSH2 0x147A JUMP JUMPDEST PUSH2 0x15AC DUP5 PUSH2 0x148C JUMP JUMPDEST DUP2 ADD PUSH1 0x20 DUP6 LT ISZERO PUSH2 0x15BB JUMPI DUP2 SWAP1 POP JUMPDEST PUSH2 0x15CF PUSH2 0x15C7 DUP6 PUSH2 0x148C JUMP JUMPDEST DUP4 ADD DUP3 PUSH2 0x156F JUMP JUMPDEST POP POP JUMPDEST POP POP POP JUMP JUMPDEST PUSH0 DUP3 DUP3 SHR SWAP1 POP SWAP3 SWAP2 POP POP JUMP JUMPDEST PUSH0 PUSH2 0x15F2 PUSH0 NOT DUP5 PUSH1 0x8 MUL PUSH2 0x15D7 JUMP JUMPDEST NOT DUP1 DUP4 AND SWAP2 POP POP SWAP3 SWAP2 POP POP JUMP JUMPDEST PUSH0 PUSH2 0x160A DUP4 DUP4 PUSH2 0x15E3 JUMP JUMPDEST SWAP2 POP DUP3 PUSH1 0x2 MUL DUP3 OR SWAP1 POP SWAP3 SWAP2 POP POP JUMP JUMPDEST PUSH2 0x1623 DUP3 PUSH2 0xAD8 JUMP JUMPDEST PUSH8 0xFFFFFFFFFFFFFFFF DUP2 GT ISZERO PUSH2 0x163C JUMPI PUSH2 0x163B PUSH2 0xDC5 JUMP JUMPDEST JUMPDEST PUSH2 0x1646 DUP3 SLOAD PUSH2 0x1140 JUMP JUMPDEST PUSH2 0x1651 DUP3 DUP3 DUP6 PUSH2 0x1591 JUMP JUMPDEST PUSH0 PUSH1 0x20 SWAP1 POP PUSH1 0x1F DUP4 GT PUSH1 0x1 DUP2 EQ PUSH2 0x1682 JUMPI PUSH0 DUP5 ISZERO PUSH2 0x1670 JUMPI DUP3 DUP8 ADD MLOAD SWAP1 POP JUMPDEST PUSH2 0x167A DUP6 DUP3 PUSH2 0x15FF JUMP JUMPDEST DUP7 SSTORE POP PUSH2 0x16E1 JUMP JUMPDEST PUSH1 0x1F NOT DUP5 AND PUSH2 0x1690 DUP7 PUSH2 0x147A JUMP JUMPDEST PUSH0 JUMPDEST DUP3 DUP2 LT ISZERO PUSH2 0x16B7 JUMPI DUP5 DUP10 ADD MLOAD DUP3 SSTORE PUSH1 0x1 DUP3 ADD SWAP2 POP PUSH1 0x20 DUP6 ADD SWAP5 POP PUSH1 0x20 DUP2 ADD SWAP1 POP PUSH2 0x1692 JUMP JUMPDEST DUP7 DUP4 LT ISZERO PUSH2 0x16D4 JUMPI DUP5 DUP10 ADD MLOAD PUSH2 0x16D0 PUSH1 0x1F DUP10 AND DUP3 PUSH2 0x15E3 JUMP JUMPDEST DUP4 SSTORE POP JUMPDEST PUSH1 0x1 PUSH1 0x2 DUP9 MUL ADD DUP9 SSTORE POP POP POP JUMPDEST POP POP POP POP POP POP JUMP JUMPDEST PUSH0 PUSH1 0x80 DUP3 ADD SWAP1 POP DUP2 DUP2 SUB PUSH0 DUP4 ADD MSTORE PUSH2 0x1701 DUP2 DUP8 PUSH2 0xB10 JUMP JUMPDEST SWAP1 POP PUSH2 0x1710 PUSH1 0x20 DUP4 ADD DUP7 PUSH2 0xBAC JUMP JUMPDEST PUSH2 0x171D PUSH1 0x40 DUP4 ADD DUP6 PUSH2 0xBBB JUMP JUMPDEST PUSH2 0x172A PUSH1 0x60 DUP4 ADD DUP5 PUSH2 0xBD6 JUMP JUMPDEST SWAP6 SWAP5 POP POP POP POP POP JUMP INVALID LOG2 PUSH5 0x6970667358 0x22 SLT KECCAK256 0x4B 0xD4 0xB6 INVALID 0x28 0xF7 0x26 0xB5 PUSH29 0x3675FBCCE68A17A0A556EB695CE5566D9BE0314E4F4D5D64736F6C6343 STOP ADDMOD 0x1F STOP CALLER "
				},
				"gasEstimates": {
					"creation": {
						"codeDepositCost": "1198600",
						"executionCost": "1246",
						"totalCost": "1199846"
					},
					"external": {
						"createQuestion(string,uint8,uint256,uint8)": "infinite",
						"hasUpvoted(uint256,address)": "3092",
						"hasVoted(uint256,address)": "3115",
						"nextQuestionId()": "2491",
						"questions(uint256)": "infinite",
						"upvote(uint256)": "infinite",
						"vote(uint256,uint256[])": "infinite"
					}
				},
				"methodIdentifiers": {
					"createQuestion(string,uint8,uint256,uint8)": "a6794cd5",
					"hasUpvoted(uint256,address)": "a52c8658",
					"hasVoted(uint256,address)": "43859632",
					"nextQuestionId()": "eb264b9c",
					"questions(uint256)": "31b1b978",
					"upvote(uint256)": "01ddf070",
					"vote(uint256,uint256[])": "7055d368"
				}
			},
			"storageLayout": {
				"storage": [
					{
						"astId": 29,
						"contract": "contracts/onchain.sol:PollingApp",
						"label": "questions",
						"offset": 0,
						"slot": "0",
						"type": "t_mapping(t_uint256,t_struct(Question)24_storage)"
					},
					{
						"astId": 35,
						"contract": "contracts/onchain.sol:PollingApp",
						"label": "hasVoted",
						"offset": 0,
						"slot": "1",
						"type": "t_mapping(t_uint256,t_mapping(t_address,t_bool))"
					},
					{
						"astId": 41,
						"contract": "contracts/onchain.sol:PollingApp",
						"label": "hasUpvoted",
						"offset": 0,
						"slot": "2",
						"type": "t_mapping(t_uint256,t_mapping(t_address,t_bool))"
					},
					{
						"astId": 43,
						"contract": "contracts/onchain.sol:PollingApp",
						"label": "nextQuestionId",
						"offset": 0,
						"slot": "3",
						"type": "t_uint256"
					}
				],
				"types": {
					"t_address": {
						"encoding": "inplace",
						"label": "address",
						"numberOfBytes": "20"
					},
					"t_bool": {
						"encoding": "inplace",
						"label": "bool",
						"numberOfBytes": "1"
					},
					"t_enum(QuestionType)6": {
						"encoding": "inplace",
						"label": "enum PollingApp.QuestionType",
						"numberOfBytes": "1"
					},
					"t_mapping(t_address,t_bool)": {
						"encoding": "mapping",
						"key": "t_address",
						"label": "mapping(address => bool)",
						"numberOfBytes": "32",
						"value": "t_bool"
					},
					"t_mapping(t_uint256,t_mapping(t_address,t_bool))": {
						"encoding": "mapping",
						"key": "t_uint256",
						"label": "mapping(uint256 => mapping(address => bool))",
						"numberOfBytes": "32",
						"value": "t_mapping(t_address,t_bool)"
					},
					"t_mapping(t_uint256,t_struct(Question)24_storage)": {
						"encoding": "mapping",
						"key": "t_uint256",
						"label": "mapping(uint256 => struct PollingApp.Question)",
						"numberOfBytes": "32",
						"value": "t_struct(Question)24_storage"
					},
					"t_string_storage": {
						"encoding": "bytes",
						"label": "string",
						"numberOfBytes": "32"
					},
					"t_struct(Question)24_storage": {
						"encoding": "inplace",
						"label": "struct PollingApp.Question",
						"members": [
							{
								"astId": 8,
								"contract": "contracts/onchain.sol:PollingApp",
								"label": "creator",
								"offset": 0,
								"slot": "0",
								"type": "t_address"
							},
							{
								"astId": 10,
								"contract": "contracts/onchain.sol:PollingApp",
								"label": "ipfsHash",
								"offset": 0,
								"slot": "1",
								"type": "t_string_storage"
							},
							{
								"astId": 13,
								"contract": "contracts/onchain.sol:PollingApp",
								"label": "qType",
								"offset": 0,
								"slot": "2",
								"type": "t_enum(QuestionType)6"
							},
							{
								"astId": 15,
								"contract": "contracts/onchain.sol:PollingApp",
								"label": "deadline",
								"offset": 0,
								"slot": "3",
								"type": "t_uint256"
							},
							{
								"astId": 17,
								"contract": "contracts/onchain.sol:PollingApp",
								"label": "category",
								"offset": 0,
								"slot": "4",
								"type": "t_uint8"
							},
							{
								"astId": 19,
								"contract": "contracts/onchain.sol:PollingApp",
								"label": "voteCount",
								"offset": 0,
								"slot": "5",
								"type": "t_uint256"
							},
							{
								"astId": 21,
								"contract": "contracts/onchain.sol:PollingApp",
								"label": "upvoteCount",
								"offset": 0,
								"slot": "6",
								"type": "t_uint256"
							},
							{
								"astId": 23,
								"contract": "contracts/onchain.sol:PollingApp",
								"label": "exists",
								"offset": 0,
								"slot": "7",
								"type": "t_bool"
							}
						],
						"numberOfBytes": "256"
					},
					"t_uint256": {
						"encoding": "inplace",
						"label": "uint256",
						"numberOfBytes": "32"
					},
					"t_uint8": {
						"encoding": "inplace",
						"label": "uint8",
						"numberOfBytes": "1"
					}
				}
			},
			"userdoc": {
				"kind": "user",
				"methods": {},
				"version": 1
			}
		}
	}
}