{
	"contracts/thegraph.sol": {
		"EventVault": {
			"abi": [
				{
					"anonymous": false,
					"inputs": [
						{
							"indexed": true,
							"internalType": "address",
							"name": "user",
							"type": "address"
						},
						{
							"indexed": true,
							"internalType": "uint256",
							"name": "amount",
							"type": "uint256"
						},
						{
							"indexed": false,
							"internalType": "uint256",
							"name": "timestamp",
							"type": "uint256"
						}
					],
					"name": "Deposit",
					"type": "event"
				},
				{
					"anonymous": false,
					"inputs": [
						{
							"indexed": true,
							"internalType": "address",
							"name": "user",
							"type": "address"
						},
						{
							"indexed": false,
							"internalType": "string",
							"name": "message",
							"type": "string"
						},
						{
							"indexed": false,
							"internalType": "uint256",
							"name": "timestamp",
							"type": "uint256"
						}
					],
					"name": "MessagePosted",
					"type": "event"
				},
				{
					"anonymous": false,
					"inputs": [
						{
							"indexed": true,
							"internalType": "address",
							"name": "user",
							"type": "address"
						},
						{
							"indexed": true,
							"internalType": "uint256",
							"name": "amount",
							"type": "uint256"
						},
						{
							"indexed": false,
							"internalType": "uint256",
							"name": "timestamp",
							"type": "uint256"
						}
					],
					"name": "Withdraw",
					"type": "event"
				},
				{
					"inputs": [
						{
							"internalType": "address",
							"name": "",
							"type": "address"
						}
					],
					"name": "balances",
					"outputs": [
						{
							"internalType": "uint256",
							"name": "",
							"type": "uint256"
						}
					],
					"stateMutability": "view",
					"type": "function"
				},
				{
					"inputs": [],
					"name": "deposit",
					"outputs": [],
					"stateMutability": "payable",
					"type": "function"
				},
				{
					"inputs": [
						{
							"internalType": "string",
							"name": "message",
							"type": "string"
						}
					],
					"name": "postMessage",
					"outputs": [],
					"stateMutability": "nonpayable",
					"type": "function"
				},
				{
					"inputs": [
						{
							"internalType": "uint256",
							"name": "amount",
							"type": "uint256"
						}
					],
					"name": "withdraw",
					"outputs": [],
					"stateMutability": "nonpayable",
					"type": "function"
				}
			],
			"devdoc": {
				"kind": "dev",
				"methods": {},
				"version": 1
			},
			"evm": {
				"assembly": "    /* \"contracts/thegraph.sol\":58:1040  contract EventVault {... */\n  mstore(0x40, 0x80)\n  callvalue\n  dup1\n  iszero\n  tag_1\n  jumpi\n  revert(0x00, 0x00)\ntag_1:\n  pop\n  dataSize(sub_0)\n  dup1\n  dataOffset(sub_0)\n  0x00\n  codecopy\n  0x00\n  return\nstop\n\nsub_0: assembly {\n        /* \"contracts/thegraph.sol\":58:1040  contract EventVault {... */\n      mstore(0x40, 0x80)\n      jumpi(tag_1, lt(calldatasize, 0x04))\n      shr(0xe0, calldataload(0x00))\n      dup1\n      0x27e235e3\n      eq\n      tag_2\n      jumpi\n      dup1\n      0x2e1a7d4d\n      eq\n      tag_3\n      jumpi\n      dup1\n      0x6630f88f\n      eq\n      tag_4\n      jumpi\n      dup1\n      0xd0e30db0\n      eq\n      tag_5\n      jumpi\n    tag_1:\n      revert(0x00, 0x00)\n        /* \"contracts/thegraph.sol\":428:471  mapping(address => uint256) public balances */\n    tag_2:\n      callvalue\n      dup1\n      iszero\n      tag_6\n      jumpi\n      revert(0x00, 0x00)\n    tag_6:\n      pop\n      tag_7\n      0x04\n      dup1\n      calldatasize\n      sub\n      dup2\n      add\n      swap1\n      tag_8\n      swap2\n      swap1\n      tag_9\n      jump\t// in\n    tag_8:\n      tag_10\n      jump\t// in\n    tag_7:\n      mload(0x40)\n      tag_11\n      swap2\n      swap1\n      tag_12\n      jump\t// in\n    tag_11:\n      mload(0x40)\n      dup1\n      swap2\n      sub\n      swap1\n      return\n        /* \"contracts/thegraph.sol\":633:904  function withdraw(uint256 amount) external {... */\n    tag_3:\n      callvalue\n      dup1\n      iszero\n      tag_13\n      jumpi\n      revert(0x00, 0x00)\n    tag_13:\n      pop\n      tag_14\n      0x04\n      dup1\n      calldatasize\n      sub\n      dup2\n      add\n      swap1\n      tag_15\n      swap2\n      swap1\n      tag_16\n      jump\t// in\n    tag_15:\n      tag_17\n      jump\t// in\n    tag_14:\n      stop\n        /* \"contracts/thegraph.sol\":910:1038  function postMessage(string calldata message) external {... */\n    tag_4:\n      callvalue\n      dup1\n      iszero\n      tag_18\n      jumpi\n      revert(0x00, 0x00)\n    tag_18:\n      pop\n      tag_19\n      0x04\n      dup1\n      calldatasize\n      sub\n      dup2\n      add\n      swap1\n      tag_20\n      swap2\n      swap1\n      tag_21\n      jump\t// in\n    tag_20:\n      tag_22\n      jump\t// in\n    tag_19:\n      stop\n        /* \"contracts/thegraph.sol\":478:627  function deposit() external payable {... */\n    tag_5:\n      tag_23\n      tag_24\n      jump\t// in\n    tag_23:\n      stop\n        /* \"contracts/thegraph.sol\":428:471  mapping(address => uint256) public balances */\n    tag_10:\n      mstore(0x20, 0x00)\n      dup1\n      0x00\n      mstore\n      keccak256(0x00, 0x40)\n      0x00\n      swap2\n      pop\n      swap1\n      pop\n      sload\n      dup2\n      jump\t// out\n        /* \"contracts/thegraph.sol\":633:904  function withdraw(uint256 amount) external {... */\n    tag_17:\n        /* \"contracts/thegraph.sol\":718:724  amount */\n      dup1\n        /* \"contracts/thegraph.sol\":694:702  balances */\n      0x00\n        /* \"contracts/thegraph.sol\":694:714  balances[msg.sender] */\n      0x00\n        /* \"contracts/thegraph.sol\":703:713  msg.sender */\n      caller\n        /* \"contracts/thegraph.sol\":694:714  balances[msg.sender] */\n      0xffffffffffffffffffffffffffffffffffffffff\n      and\n      0xffffffffffffffffffffffffffffffffffffffff\n      and\n      dup2\n      mstore\n      0x20\n      add\n      swap1\n      dup2\n      mstore\n      0x20\n      add\n      0x00\n      keccak256\n      sload\n        /* \"contracts/thegraph.sol\":694:724  balances[msg.sender] >= amount */\n      lt\n      iszero\n        /* \"contracts/thegraph.sol\":686:749  require(balances[msg.sender] >= amount, \"Insufficient balance\") */\n      tag_26\n      jumpi\n      mload(0x40)\n      0x08c379a000000000000000000000000000000000000000000000000000000000\n      dup2\n      mstore\n      0x04\n      add\n      tag_27\n      swap1\n      tag_28\n      jump\t// in\n    tag_27:\n      mload(0x40)\n      dup1\n      swap2\n      sub\n      swap1\n      revert\n    tag_26:\n        /* \"contracts/thegraph.sol\":784:790  amount */\n      dup1\n        /* \"contracts/thegraph.sol\":760:768  balances */\n      0x00\n        /* \"contracts/thegraph.sol\":760:780  balances[msg.sender] */\n      0x00\n        /* \"contracts/thegraph.sol\":769:779  msg.sender */\n      caller\n        /* \"contracts/thegraph.sol\":760:780  balances[msg.sender] */\n      0xffffffffffffffffffffffffffffffffffffffff\n      and\n      0xffffffffffffffffffffffffffffffffffffffff\n      and\n      dup2\n      mstore\n      0x20\n      add\n      swap1\n      dup2\n      mstore\n      0x20\n      add\n      0x00\n      keccak256\n      0x00\n        /* \"contracts/thegraph.sol\":760:790  balances[msg.sender] -= amount */\n      dup3\n      dup3\n      sload\n      tag_29\n      swap2\n      swap1\n      tag_30\n      jump\t// in\n    tag_29:\n      swap3\n      pop\n      pop\n      dup2\n      swap1\n      sstore\n      pop\n        /* \"contracts/thegraph.sol\":808:818  msg.sender */\n      caller\n        /* \"contracts/thegraph.sol\":800:828  payable(msg.sender).transfer */\n      0xffffffffffffffffffffffffffffffffffffffff\n      and\n        /* \"contracts/thegraph.sol\":800:836  payable(msg.sender).transfer(amount) */\n      0x08fc\n        /* \"contracts/thegraph.sol\":829:835  amount */\n      dup3\n        /* \"contracts/thegraph.sol\":800:836  payable(msg.sender).transfer(amount) */\n      swap1\n      dup2\n      iszero\n      mul\n      swap1\n      mload(0x40)\n      0x00\n      mload(0x40)\n      dup1\n      dup4\n      sub\n      dup2\n      dup6\n      dup9\n      dup9\n      call\n      swap4\n      pop\n      pop\n      pop\n      pop\n      iszero\n      dup1\n      iszero\n      tag_32\n      jumpi\n      returndatacopy(0x00, 0x00, returndatasize)\n      revert(0x00, returndatasize)\n    tag_32:\n      pop\n        /* \"contracts/thegraph.sol\":873:879  amount */\n      dup1\n        /* \"contracts/thegraph.sol\":861:871  msg.sender */\n      caller\n        /* \"contracts/thegraph.sol\":852:897  Withdraw(msg.sender, amount, block.timestamp) */\n      0xffffffffffffffffffffffffffffffffffffffff\n      and\n      0xf279e6a1f5e320cca91135676d9cb6e44ca8a08c0b88342bcdb1144f6511b568\n        /* \"contracts/thegraph.sol\":881:896  block.timestamp */\n      timestamp\n        /* \"contracts/thegraph.sol\":852:897  Withdraw(msg.sender, amount, block.timestamp) */\n      mload(0x40)\n      tag_33\n      swap2\n      swap1\n      tag_12\n      jump\t// in\n    tag_33:\n      mload(0x40)\n      dup1\n      swap2\n      sub\n      swap1\n      log3\n        /* \"contracts/thegraph.sol\":633:904  function withdraw(uint256 amount) external {... */\n      pop\n      jump\t// out\n        /* \"contracts/thegraph.sol\":910:1038  function postMessage(string calldata message) external {... */\n    tag_22:\n        /* \"contracts/thegraph.sol\":994:1004  msg.sender */\n      caller\n        /* \"contracts/thegraph.sol\":980:1031  MessagePosted(msg.sender, message, block.timestamp) */\n      0xffffffffffffffffffffffffffffffffffffffff\n      and\n      0x6d334e6c56ab039764300c508e6f79891f4ddce8d92de4108c43fa1de6908a28\n        /* \"contracts/thegraph.sol\":1006:1013  message */\n      dup4\n      dup4\n        /* \"contracts/thegraph.sol\":1015:1030  block.timestamp */\n      timestamp\n        /* \"contracts/thegraph.sol\":980:1031  MessagePosted(msg.sender, message, block.timestamp) */\n      mload(0x40)\n      tag_35\n      swap4\n      swap3\n      swap2\n      swap1\n      tag_36\n      jump\t// in\n    tag_35:\n      mload(0x40)\n      dup1\n      swap2\n      sub\n      swap1\n      log2\n        /* \"contracts/thegraph.sol\":910:1038  function postMessage(string calldata message) external {... */\n      pop\n      pop\n      jump\t// out\n        /* \"contracts/thegraph.sol\":478:627  function deposit() external payable {... */\n    tag_24:\n        /* \"contracts/thegraph.sol\":548:557  msg.value */\n      callvalue\n        /* \"contracts/thegraph.sol\":524:532  balances */\n      0x00\n        /* \"contracts/thegraph.sol\":524:544  balances[msg.sender] */\n      0x00\n        /* \"contracts/thegraph.sol\":533:543  msg.sender */\n      caller\n        /* \"contracts/thegraph.sol\":524:544  balances[msg.sender] */\n      0xffffffffffffffffffffffffffffffffffffffff\n      and\n      0xffffffffffffffffffffffffffffffffffffffff\n      and\n      dup2\n      mstore\n      0x20\n      add\n      swap1\n      dup2\n      mstore\n      0x20\n      add\n      0x00\n      keccak256\n      0x00\n        /* \"contracts/thegraph.sol\":524:557  balances[msg.sender] += msg.value */\n      dup3\n      dup3\n      sload\n      tag_38\n      swap2\n      swap1\n      tag_39\n      jump\t// in\n    tag_38:\n      swap3\n      pop\n      pop\n      dup2\n      swap1\n      sstore\n      pop\n        /* \"contracts/thegraph.sol\":593:602  msg.value */\n      callvalue\n        /* \"contracts/thegraph.sol\":581:591  msg.sender */\n      caller\n        /* \"contracts/thegraph.sol\":573:620  Deposit(msg.sender, msg.value, block.timestamp) */\n      0xffffffffffffffffffffffffffffffffffffffff\n      and\n      0x90890809c654f11d6e72a28fa60149770a0d11ec6c92319d6ceb2bb0a4ea1a15\n        /* \"contracts/thegraph.sol\":604:619  block.timestamp */\n      timestamp\n        /* \"contracts/thegraph.sol\":573:620  Deposit(msg.sender, msg.value, block.timestamp) */\n      mload(0x40)\n      tag_40\n      swap2\n      swap1\n      tag_12\n      jump\t// in\n    tag_40:\n      mload(0x40)\n      dup1\n      swap2\n      sub\n      swap1\n      log3\n        /* \"contracts/thegraph.sol\":478:627  function deposit() external payable {... */\n      jump\t// out\n        /* \"#utility.yul\":88:205   */\n    tag_42:\n        /* \"#utility.yul\":197:198   */\n      0x00\n        /* \"#utility.yul\":194:195   */\n      0x00\n        /* \"#utility.yul\":187:199   */\n      revert\n        /* \"#utility.yul\":211:328   */\n    tag_43:\n        /* \"#utility.yul\":320:321   */\n      0x00\n        /* \"#utility.yul\":317:318   */\n      0x00\n        /* \"#utility.yul\":310:322   */\n      revert\n        /* \"#utility.yul\":334:460   */\n    tag_44:\n        /* \"#utility.yul\":371:378   */\n      0x00\n        /* \"#utility.yul\":411:453   */\n      0xffffffffffffffffffffffffffffffffffffffff\n        /* \"#utility.yul\":404:409   */\n      dup3\n        /* \"#utility.yul\":400:454   */\n      and\n        /* \"#utility.yul\":389:454   */\n      swap1\n      pop\n        /* \"#utility.yul\":334:460   */\n      swap2\n      swap1\n      pop\n      jump\t// out\n        /* \"#utility.yul\":466:562   */\n    tag_45:\n        /* \"#utility.yul\":503:510   */\n      0x00\n        /* \"#utility.yul\":532:556   */\n      tag_69\n        /* \"#utility.yul\":550:555   */\n      dup3\n        /* \"#utility.yul\":532:556   */\n      tag_44\n      jump\t// in\n    tag_69:\n        /* \"#utility.yul\":521:556   */\n      swap1\n      pop\n        /* \"#utility.yul\":466:562   */\n      swap2\n      swap1\n      pop\n      jump\t// out\n        /* \"#utility.yul\":568:690   */\n    tag_46:\n        /* \"#utility.yul\":641:665   */\n      tag_71\n        /* \"#utility.yul\":659:664   */\n      dup2\n        /* \"#utility.yul\":641:665   */\n      tag_45\n      jump\t// in\n    tag_71:\n        /* \"#utility.yul\":634:639   */\n      dup2\n        /* \"#utility.yul\":631:666   */\n      eq\n        /* \"#utility.yul\":621:684   */\n      tag_72\n      jumpi\n        /* \"#utility.yul\":680:681   */\n      0x00\n        /* \"#utility.yul\":677:678   */\n      0x00\n        /* \"#utility.yul\":670:682   */\n      revert\n        /* \"#utility.yul\":621:684   */\n    tag_72:\n        /* \"#utility.yul\":568:690   */\n      pop\n      jump\t// out\n        /* \"#utility.yul\":696:835   */\n    tag_47:\n        /* \"#utility.yul\":742:747   */\n      0x00\n        /* \"#utility.yul\":780:786   */\n      dup2\n        /* \"#utility.yul\":767:787   */\n      calldataload\n        /* \"#utility.yul\":758:787   */\n      swap1\n      pop\n        /* \"#utility.yul\":796:829   */\n      tag_74\n        /* \"#utility.yul\":823:828   */\n      dup2\n        /* \"#utility.yul\":796:829   */\n      tag_46\n      jump\t// in\n    tag_74:\n        /* \"#utility.yul\":696:835   */\n      swap3\n      swap2\n      pop\n      pop\n      jump\t// out\n        /* \"#utility.yul\":841:1170   */\n    tag_9:\n        /* \"#utility.yul\":900:906   */\n      0x00\n        /* \"#utility.yul\":949:951   */\n      0x20\n        /* \"#utility.yul\":937:946   */\n      dup3\n        /* \"#utility.yul\":928:935   */\n      dup5\n        /* \"#utility.yul\":924:947   */\n      sub\n        /* \"#utility.yul\":920:952   */\n      slt\n        /* \"#utility.yul\":917:1036   */\n      iszero\n      tag_76\n      jumpi\n        /* \"#utility.yul\":955:1034   */\n      tag_77\n      tag_42\n      jump\t// in\n    tag_77:\n        /* \"#utility.yul\":917:1036   */\n    tag_76:\n        /* \"#utility.yul\":1075:1076   */\n      0x00\n        /* \"#utility.yul\":1100:1153   */\n      tag_78\n        /* \"#utility.yul\":1145:1152   */\n      dup5\n        /* \"#utility.yul\":1136:1142   */\n      dup3\n        /* \"#utility.yul\":1125:1134   */\n      dup6\n        /* \"#utility.yul\":1121:1143   */\n      add\n        /* \"#utility.yul\":1100:1153   */\n      tag_47\n      jump\t// in\n    tag_78:\n        /* \"#utility.yul\":1090:1153   */\n      swap2\n      pop\n        /* \"#utility.yul\":1046:1163   */\n      pop\n        /* \"#utility.yul\":841:1170   */\n      swap3\n      swap2\n      pop\n      pop\n      jump\t// out\n        /* \"#utility.yul\":1176:1253   */\n    tag_48:\n        /* \"#utility.yul\":1213:1220   */\n      0x00\n        /* \"#utility.yul\":1242:1247   */\n      dup2\n        /* \"#utility.yul\":1231:1247   */\n      swap1\n      pop\n        /* \"#utility.yul\":1176:1253   */\n      swap2\n      swap1\n      pop\n      jump\t// out\n        /* \"#utility.yul\":1259:1377   */\n    tag_49:\n        /* \"#utility.yul\":1346:1370   */\n      tag_81\n        /* \"#utility.yul\":1364:1369   */\n      dup2\n        /* \"#utility.yul\":1346:1370   */\n      tag_48\n      jump\t// in\n    tag_81:\n        /* \"#utility.yul\":1341:1344   */\n      dup3\n        /* \"#utility.yul\":1334:1371   */\n      mstore\n        /* \"#utility.yul\":1259:1377   */\n      pop\n      pop\n      jump\t// out\n        /* \"#utility.yul\":1383:1605   */\n    tag_12:\n        /* \"#utility.yul\":1476:1480   */\n      0x00\n        /* \"#utility.yul\":1514:1516   */\n      0x20\n        /* \"#utility.yul\":1503:1512   */\n      dup3\n        /* \"#utility.yul\":1499:1517   */\n      add\n        /* \"#utility.yul\":1491:1517   */\n      swap1\n      pop\n        /* \"#utility.yul\":1527:1598   */\n      tag_83\n        /* \"#utility.yul\":1595:1596   */\n      0x00\n        /* \"#utility.yul\":1584:1593   */\n      dup4\n        /* \"#utility.yul\":1580:1597   */\n      add\n        /* \"#utility.yul\":1571:1577   */\n      dup5\n        /* \"#utility.yul\":1527:1598   */\n      tag_49\n      jump\t// in\n    tag_83:\n        /* \"#utility.yul\":1383:1605   */\n      swap3\n      swap2\n      pop\n      pop\n      jump\t// out\n        /* \"#utility.yul\":1611:1733   */\n    tag_50:\n        /* \"#utility.yul\":1684:1708   */\n      tag_85\n        /* \"#utility.yul\":1702:1707   */\n      dup2\n        /* \"#utility.yul\":1684:1708   */\n      tag_48\n      jump\t// in\n    tag_85:\n        /* \"#utility.yul\":1677:1682   */\n      dup2\n        /* \"#utility.yul\":1674:1709   */\n      eq\n        /* \"#utility.yul\":1664:1727   */\n      tag_86\n      jumpi\n        /* \"#utility.yul\":1723:1724   */\n      0x00\n        /* \"#utility.yul\":1720:1721   */\n      0x00\n        /* \"#utility.yul\":1713:1725   */\n      revert\n        /* \"#utility.yul\":1664:1727   */\n    tag_86:\n        /* \"#utility.yul\":1611:1733   */\n      pop\n      jump\t// out\n        /* \"#utility.yul\":1739:1878   */\n    tag_51:\n        /* \"#utility.yul\":1785:1790   */\n      0x00\n        /* \"#utility.yul\":1823:1829   */\n      dup2\n        /* \"#utility.yul\":1810:1830   */\n      calldataload\n        /* \"#utility.yul\":1801:1830   */\n      swap1\n      pop\n        /* \"#utility.yul\":1839:1872   */\n      tag_88\n        /* \"#utility.yul\":1866:1871   */\n      dup2\n        /* \"#utility.yul\":1839:1872   */\n      tag_50\n      jump\t// in\n    tag_88:\n        /* \"#utility.yul\":1739:1878   */\n      swap3\n      swap2\n      pop\n      pop\n      jump\t// out\n        /* \"#utility.yul\":1884:2213   */\n    tag_16:\n        /* \"#utility.yul\":1943:1949   */\n      0x00\n        /* \"#utility.yul\":1992:1994   */\n      0x20\n        /* \"#utility.yul\":1980:1989   */\n      dup3\n        /* \"#utility.yul\":1971:1978   */\n      dup5\n        /* \"#utility.yul\":1967:1990   */\n      sub\n        /* \"#utility.yul\":1963:1995   */\n      slt\n        /* \"#utility.yul\":1960:2079   */\n      iszero\n      tag_90\n      jumpi\n        /* \"#utility.yul\":1998:2077   */\n      tag_91\n      tag_42\n      jump\t// in\n    tag_91:\n        /* \"#utility.yul\":1960:2079   */\n    tag_90:\n        /* \"#utility.yul\":2118:2119   */\n      0x00\n        /* \"#utility.yul\":2143:2196   */\n      tag_92\n        /* \"#utility.yul\":2188:2195   */\n      dup5\n        /* \"#utility.yul\":2179:2185   */\n      dup3\n        /* \"#utility.yul\":2168:2177   */\n      dup6\n        /* \"#utility.yul\":2164:2186   */\n      add\n        /* \"#utility.yul\":2143:2196   */\n      tag_51\n      jump\t// in\n    tag_92:\n        /* \"#utility.yul\":2133:2196   */\n      swap2\n      pop\n        /* \"#utility.yul\":2089:2206   */\n      pop\n        /* \"#utility.yul\":1884:2213   */\n      swap3\n      swap2\n      pop\n      pop\n      jump\t// out\n        /* \"#utility.yul\":2219:2336   */\n    tag_52:\n        /* \"#utility.yul\":2328:2329   */\n      0x00\n        /* \"#utility.yul\":2325:2326   */\n      0x00\n        /* \"#utility.yul\":2318:2330   */\n      revert\n        /* \"#utility.yul\":2342:2459   */\n    tag_53:\n        /* \"#utility.yul\":2451:2452   */\n      0x00\n        /* \"#utility.yul\":2448:2449   */\n      0x00\n        /* \"#utility.yul\":2441:2453   */\n      revert\n        /* \"#utility.yul\":2465:2582   */\n    tag_54:\n        /* \"#utility.yul\":2574:2575   */\n      0x00\n        /* \"#utility.yul\":2571:2572   */\n      0x00\n        /* \"#utility.yul\":2564:2576   */\n      revert\n        /* \"#utility.yul\":2602:3155   */\n    tag_55:\n        /* \"#utility.yul\":2660:2668   */\n      0x00\n        /* \"#utility.yul\":2670:2676   */\n      0x00\n        /* \"#utility.yul\":2720:2723   */\n      dup4\n        /* \"#utility.yul\":2713:2717   */\n      0x1f\n        /* \"#utility.yul\":2705:2711   */\n      dup5\n        /* \"#utility.yul\":2701:2718   */\n      add\n        /* \"#utility.yul\":2697:2724   */\n      slt\n        /* \"#utility.yul\":2687:2809   */\n      tag_97\n      jumpi\n        /* \"#utility.yul\":2728:2807   */\n      tag_98\n      tag_52\n      jump\t// in\n    tag_98:\n        /* \"#utility.yul\":2687:2809   */\n    tag_97:\n        /* \"#utility.yul\":2841:2847   */\n      dup3\n        /* \"#utility.yul\":2828:2848   */\n      calldataload\n        /* \"#utility.yul\":2818:2848   */\n      swap1\n      pop\n        /* \"#utility.yul\":2871:2889   */\n      0xffffffffffffffff\n        /* \"#utility.yul\":2863:2869   */\n      dup2\n        /* \"#utility.yul\":2860:2890   */\n      gt\n        /* \"#utility.yul\":2857:2974   */\n      iszero\n      tag_99\n      jumpi\n        /* \"#utility.yul\":2893:2972   */\n      tag_100\n      tag_53\n      jump\t// in\n    tag_100:\n        /* \"#utility.yul\":2857:2974   */\n    tag_99:\n        /* \"#utility.yul\":3007:3011   */\n      0x20\n        /* \"#utility.yul\":2999:3005   */\n      dup4\n        /* \"#utility.yul\":2995:3012   */\n      add\n        /* \"#utility.yul\":2983:3012   */\n      swap2\n      pop\n        /* \"#utility.yul\":3061:3064   */\n      dup4\n        /* \"#utility.yul\":3053:3057   */\n      0x01\n        /* \"#utility.yul\":3045:3051   */\n      dup3\n        /* \"#utility.yul\":3041:3058   */\n      mul\n        /* \"#utility.yul\":3031:3039   */\n      dup4\n        /* \"#utility.yul\":3027:3059   */\n      add\n        /* \"#utility.yul\":3024:3065   */\n      gt\n        /* \"#utility.yul\":3021:3149   */\n      iszero\n      tag_101\n      jumpi\n        /* \"#utility.yul\":3068:3147   */\n      tag_102\n      tag_54\n      jump\t// in\n    tag_102:\n        /* \"#utility.yul\":3021:3149   */\n    tag_101:\n        /* \"#utility.yul\":2602:3155   */\n      swap3\n      pop\n      swap3\n      swap1\n      pop\n      jump\t// out\n        /* \"#utility.yul\":3161:3690   */\n    tag_21:\n        /* \"#utility.yul\":3232:3238   */\n      0x00\n        /* \"#utility.yul\":3240:3246   */\n      0x00\n        /* \"#utility.yul\":3289:3291   */\n      0x20\n        /* \"#utility.yul\":3277:3286   */\n      dup4\n        /* \"#utility.yul\":3268:3275   */\n      dup6\n        /* \"#utility.yul\":3264:3287   */\n      sub\n        /* \"#utility.yul\":3260:3292   */\n      slt\n        /* \"#utility.yul\":3257:3376   */\n      iszero\n      tag_104\n      jumpi\n        /* \"#utility.yul\":3295:3374   */\n      tag_105\n      tag_42\n      jump\t// in\n    tag_105:\n        /* \"#utility.yul\":3257:3376   */\n    tag_104:\n        /* \"#utility.yul\":3443:3444   */\n      0x00\n        /* \"#utility.yul\":3432:3441   */\n      dup4\n        /* \"#utility.yul\":3428:3445   */\n      add\n        /* \"#utility.yul\":3415:3446   */\n      calldataload\n        /* \"#utility.yul\":3473:3491   */\n      0xffffffffffffffff\n        /* \"#utility.yul\":3465:3471   */\n      dup2\n        /* \"#utility.yul\":3462:3492   */\n      gt\n        /* \"#utility.yul\":3459:3576   */\n      iszero\n      tag_106\n      jumpi\n        /* \"#utility.yul\":3495:3574   */\n      tag_107\n      tag_43\n      jump\t// in\n    tag_107:\n        /* \"#utility.yul\":3459:3576   */\n    tag_106:\n        /* \"#utility.yul\":3608:3673   */\n      tag_108\n        /* \"#utility.yul\":3665:3672   */\n      dup6\n        /* \"#utility.yul\":3656:3662   */\n      dup3\n        /* \"#utility.yul\":3645:3654   */\n      dup7\n        /* \"#utility.yul\":3641:3663   */\n      add\n        /* \"#utility.yul\":3608:3673   */\n      tag_55\n      jump\t// in\n    tag_108:\n        /* \"#utility.yul\":3590:3673   */\n      swap3\n      pop\n      swap3\n      pop\n        /* \"#utility.yul\":3386:3683   */\n      pop\n        /* \"#utility.yul\":3161:3690   */\n      swap3\n      pop\n      swap3\n      swap1\n      pop\n      jump\t// out\n        /* \"#utility.yul\":3696:3865   */\n    tag_56:\n        /* \"#utility.yul\":3780:3791   */\n      0x00\n        /* \"#utility.yul\":3814:3820   */\n      dup3\n        /* \"#utility.yul\":3809:3812   */\n      dup3\n        /* \"#utility.yul\":3802:3821   */\n      mstore\n        /* \"#utility.yul\":3854:3858   */\n      0x20\n        /* \"#utility.yul\":3849:3852   */\n      dup3\n        /* \"#utility.yul\":3845:3859   */\n      add\n        /* \"#utility.yul\":3830:3859   */\n      swap1\n      pop\n        /* \"#utility.yul\":3696:3865   */\n      swap3\n      swap2\n      pop\n      pop\n      jump\t// out\n        /* \"#utility.yul\":3871:4041   */\n    tag_57:\n        /* \"#utility.yul\":4011:4033   */\n      0x496e73756666696369656e742062616c616e6365000000000000000000000000\n        /* \"#utility.yul\":4007:4008   */\n      0x00\n        /* \"#utility.yul\":3999:4005   */\n      dup3\n        /* \"#utility.yul\":3995:4009   */\n      add\n        /* \"#utility.yul\":3988:4034   */\n      mstore\n        /* \"#utility.yul\":3871:4041   */\n      pop\n      jump\t// out\n        /* \"#utility.yul\":4047:4413   */\n    tag_58:\n        /* \"#utility.yul\":4189:4192   */\n      0x00\n        /* \"#utility.yul\":4210:4277   */\n      tag_112\n        /* \"#utility.yul\":4274:4276   */\n      0x14\n        /* \"#utility.yul\":4269:4272   */\n      dup4\n        /* \"#utility.yul\":4210:4277   */\n      tag_56\n      jump\t// in\n    tag_112:\n        /* \"#utility.yul\":4203:4277   */\n      swap2\n      pop\n        /* \"#utility.yul\":4286:4379   */\n      tag_113\n        /* \"#utility.yul\":4375:4378   */\n      dup3\n        /* \"#utility.yul\":4286:4379   */\n      tag_57\n      jump\t// in\n    tag_113:\n        /* \"#utility.yul\":4404:4406   */\n      0x20\n        /* \"#utility.yul\":4399:4402   */\n      dup3\n        /* \"#utility.yul\":4395:4407   */\n      add\n        /* \"#utility.yul\":4388:4407   */\n      swap1\n      pop\n        /* \"#utility.yul\":4047:4413   */\n      swap2\n      swap1\n      pop\n      jump\t// out\n        /* \"#utility.yul\":4419:4838   */\n    tag_28:\n        /* \"#utility.yul\":4585:4589   */\n      0x00\n        /* \"#utility.yul\":4623:4625   */\n      0x20\n        /* \"#utility.yul\":4612:4621   */\n      dup3\n        /* \"#utility.yul\":4608:4626   */\n      add\n        /* \"#utility.yul\":4600:4626   */\n      swap1\n      pop\n        /* \"#utility.yul\":4672:4681   */\n      dup2\n        /* \"#utility.yul\":4666:4670   */\n      dup2\n        /* \"#utility.yul\":4662:4682   */\n      sub\n        /* \"#utility.yul\":4658:4659   */\n      0x00\n        /* \"#utility.yul\":4647:4656   */\n      dup4\n        /* \"#utility.yul\":4643:4660   */\n      add\n        /* \"#utility.yul\":4636:4683   */\n      mstore\n        /* \"#utility.yul\":4700:4831   */\n      tag_115\n        /* \"#utility.yul\":4826:4830   */\n      dup2\n        /* \"#utility.yul\":4700:4831   */\n      tag_58\n      jump\t// in\n    tag_115:\n        /* \"#utility.yul\":4692:4831   */\n      swap1\n      pop\n        /* \"#utility.yul\":4419:4838   */\n      swap2\n      swap1\n      pop\n      jump\t// out\n        /* \"#utility.yul\":4844:5024   */\n    tag_59:\n        /* \"#utility.yul\":4892:4969   */\n      0x4e487b7100000000000000000000000000000000000000000000000000000000\n        /* \"#utility.yul\":4889:4890   */\n      0x00\n        /* \"#utility.yul\":4882:4970   */\n      mstore\n        /* \"#utility.yul\":4989:4993   */\n      0x11\n        /* \"#utility.yul\":4986:4987   */\n      0x04\n        /* \"#utility.yul\":4979:4994   */\n      mstore\n        /* \"#utility.yul\":5013:5017   */\n      0x24\n        /* \"#utility.yul\":5010:5011   */\n      0x00\n        /* \"#utility.yul\":5003:5018   */\n      revert\n        /* \"#utility.yul\":5030:5224   */\n    tag_30:\n        /* \"#utility.yul\":5070:5074   */\n      0x00\n        /* \"#utility.yul\":5090:5110   */\n      tag_118\n        /* \"#utility.yul\":5108:5109   */\n      dup3\n        /* \"#utility.yul\":5090:5110   */\n      tag_48\n      jump\t// in\n    tag_118:\n        /* \"#utility.yul\":5085:5110   */\n      swap2\n      pop\n        /* \"#utility.yul\":5124:5144   */\n      tag_119\n        /* \"#utility.yul\":5142:5143   */\n      dup4\n        /* \"#utility.yul\":5124:5144   */\n      tag_48\n      jump\t// in\n    tag_119:\n        /* \"#utility.yul\":5119:5144   */\n      swap3\n      pop\n        /* \"#utility.yul\":5168:5169   */\n      dup3\n        /* \"#utility.yul\":5165:5166   */\n      dup3\n        /* \"#utility.yul\":5161:5170   */\n      sub\n        /* \"#utility.yul\":5153:5170   */\n      swap1\n      pop\n        /* \"#utility.yul\":5192:5193   */\n      dup2\n        /* \"#utility.yul\":5186:5190   */\n      dup2\n        /* \"#utility.yul\":5183:5194   */\n      gt\n        /* \"#utility.yul\":5180:5217   */\n      iszero\n      tag_120\n      jumpi\n        /* \"#utility.yul\":5197:5215   */\n      tag_121\n      tag_59\n      jump\t// in\n    tag_121:\n        /* \"#utility.yul\":5180:5217   */\n    tag_120:\n        /* \"#utility.yul\":5030:5224   */\n      swap3\n      swap2\n      pop\n      pop\n      jump\t// out\n        /* \"#utility.yul\":5230:5378   */\n    tag_60:\n        /* \"#utility.yul\":5328:5334   */\n      dup3\n        /* \"#utility.yul\":5323:5326   */\n      dup2\n        /* \"#utility.yul\":5318:5321   */\n      dup4\n        /* \"#utility.yul\":5305:5335   */\n      calldatacopy\n        /* \"#utility.yul\":5369:5370   */\n      0x00\n        /* \"#utility.yul\":5360:5366   */\n      dup4\n        /* \"#utility.yul\":5355:5358   */\n      dup4\n        /* \"#utility.yul\":5351:5367   */\n      add\n        /* \"#utility.yul\":5344:5371   */\n      mstore\n        /* \"#utility.yul\":5230:5378   */\n      pop\n      pop\n      pop\n      jump\t// out\n        /* \"#utility.yul\":5384:5486   */\n    tag_61:\n        /* \"#utility.yul\":5425:5431   */\n      0x00\n        /* \"#utility.yul\":5476:5478   */\n      0x1f\n        /* \"#utility.yul\":5472:5479   */\n      not\n        /* \"#utility.yul\":5467:5469   */\n      0x1f\n        /* \"#utility.yul\":5460:5465   */\n      dup4\n        /* \"#utility.yul\":5456:5470   */\n      add\n        /* \"#utility.yul\":5452:5480   */\n      and\n        /* \"#utility.yul\":5442:5480   */\n      swap1\n      pop\n        /* \"#utility.yul\":5384:5486   */\n      swap2\n      swap1\n      pop\n      jump\t// out\n        /* \"#utility.yul\":5516:5833   */\n    tag_62:\n        /* \"#utility.yul\":5614:5617   */\n      0x00\n        /* \"#utility.yul\":5635:5706   */\n      tag_125\n        /* \"#utility.yul\":5699:5705   */\n      dup4\n        /* \"#utility.yul\":5694:5697   */\n      dup6\n        /* \"#utility.yul\":5635:5706   */\n      tag_56\n      jump\t// in\n    tag_125:\n        /* \"#utility.yul\":5628:5706   */\n      swap4\n      pop\n        /* \"#utility.yul\":5716:5772   */\n      tag_126\n        /* \"#utility.yul\":5765:5771   */\n      dup4\n        /* \"#utility.yul\":5760:5763   */\n      dup6\n        /* \"#utility.yul\":5753:5758   */\n      dup5\n        /* \"#utility.yul\":5716:5772   */\n      tag_60\n      jump\t// in\n    tag_126:\n        /* \"#utility.yul\":5797:5826   */\n      tag_127\n        /* \"#utility.yul\":5819:5825   */\n      dup4\n        /* \"#utility.yul\":5797:5826   */\n      tag_61\n      jump\t// in\n    tag_127:\n        /* \"#utility.yul\":5792:5795   */\n      dup5\n        /* \"#utility.yul\":5788:5827   */\n      add\n        /* \"#utility.yul\":5781:5827   */\n      swap1\n      pop\n        /* \"#utility.yul\":5516:5833   */\n      swap4\n      swap3\n      pop\n      pop\n      pop\n      jump\t// out\n        /* \"#utility.yul\":5839:6282   */\n    tag_36:\n        /* \"#utility.yul\":5990:5994   */\n      0x00\n        /* \"#utility.yul\":6028:6030   */\n      0x40\n        /* \"#utility.yul\":6017:6026   */\n      dup3\n        /* \"#utility.yul\":6013:6031   */\n      add\n        /* \"#utility.yul\":6005:6031   */\n      swap1\n      pop\n        /* \"#utility.yul\":6077:6086   */\n      dup2\n        /* \"#utility.yul\":6071:6075   */\n      dup2\n        /* \"#utility.yul\":6067:6087   */\n      sub\n        /* \"#utility.yul\":6063:6064   */\n      0x00\n        /* \"#utility.yul\":6052:6061   */\n      dup4\n        /* \"#utility.yul\":6048:6065   */\n      add\n        /* \"#utility.yul\":6041:6088   */\n      mstore\n        /* \"#utility.yul\":6105:6193   */\n      tag_129\n        /* \"#utility.yul\":6188:6192   */\n      dup2\n        /* \"#utility.yul\":6179:6185   */\n      dup6\n        /* \"#utility.yul\":6171:6177   */\n      dup8\n        /* \"#utility.yul\":6105:6193   */\n      tag_62\n      jump\t// in\n    tag_129:\n        /* \"#utility.yul\":6097:6193   */\n      swap1\n      pop\n        /* \"#utility.yul\":6203:6275   */\n      tag_130\n        /* \"#utility.yul\":6271:6273   */\n      0x20\n        /* \"#utility.yul\":6260:6269   */\n      dup4\n        /* \"#utility.yul\":6256:6274   */\n      add\n        /* \"#utility.yul\":6247:6253   */\n      dup5\n        /* \"#utility.yul\":6203:6275   */\n      tag_49\n      jump\t// in\n    tag_130:\n        /* \"#utility.yul\":5839:6282   */\n      swap5\n      swap4\n      pop\n      pop\n      pop\n      pop\n      jump\t// out\n        /* \"#utility.yul\":6288:6479   */\n    tag_39:\n        /* \"#utility.yul\":6328:6331   */\n      0x00\n        /* \"#utility.yul\":6347:6367   */\n      tag_132\n        /* \"#utility.yul\":6365:6366   */\n      dup3\n        /* \"#utility.yul\":6347:6367   */\n      tag_48\n      jump\t// in\n    tag_132:\n        /* \"#utility.yul\":6342:6367   */\n      swap2\n      pop\n        /* \"#utility.yul\":6381:6401   */\n      tag_133\n        /* \"#utility.yul\":6399:6400   */\n      dup4\n        /* \"#utility.yul\":6381:6401   */\n      tag_48\n      jump\t// in\n    tag_133:\n        /* \"#utility.yul\":6376:6401   */\n      swap3\n      pop\n        /* \"#utility.yul\":6424:6425   */\n      dup3\n        /* \"#utility.yul\":6421:6422   */\n      dup3\n        /* \"#utility.yul\":6417:6426   */\n      add\n        /* \"#utility.yul\":6410:6426   */\n      swap1\n      pop\n        /* \"#utility.yul\":6445:6448   */\n      dup1\n        /* \"#utility.yul\":6442:6443   */\n      dup3\n        /* \"#utility.yul\":6439:6449   */\n      gt\n        /* \"#utility.yul\":6436:6472   */\n      iszero\n      tag_134\n      jumpi\n        /* \"#utility.yul\":6452:6470   */\n      tag_135\n      tag_59\n      jump\t// in\n    tag_135:\n        /* \"#utility.yul\":6436:6472   */\n    tag_134:\n        /* \"#utility.yul\":6288:6479   */\n      swap3\n      swap2\n      pop\n      pop\n      jump\t// out\n\n    auxdata: 0xa26469706673582212201188c94d4ff6fed757f068108d05c6d1771ed47ac36a150590f8403fa6b8029664736f6c634300081f0033\n}\n",
				"bytecode": {
					"linkReferences": {},
					"object": "6080604052348015600e575f5ffd5b506106c68061001c5f395ff3fe60806040526004361061003e575f3560e01c806327e235e3146100425780632e1a7d4d1461007e5780636630f88f146100a6578063d0e30db0146100ce575b5f5ffd5b34801561004d575f5ffd5b50610068600480360381019061006391906103ae565b6100d8565b60405161007591906103f1565b60405180910390f35b348015610089575f5ffd5b506100a4600480360381019061009f9190610434565b6100ec565b005b3480156100b1575f5ffd5b506100cc60048036038101906100c791906104c0565b610253565b005b6100d66102a9565b005b5f602052805f5260405f205f915090505481565b805f5f3373ffffffffffffffffffffffffffffffffffffffff1673ffffffffffffffffffffffffffffffffffffffff1681526020019081526020015f2054101561016b576040517f08c379a000000000000000000000000000000000000000000000000000000000815260040161016290610565565b60405180910390fd5b805f5f3373ffffffffffffffffffffffffffffffffffffffff1673ffffffffffffffffffffffffffffffffffffffff1681526020019081526020015f205f8282546101b691906105b0565b925050819055503373ffffffffffffffffffffffffffffffffffffffff166108fc8290811502906040515f60405180830381858888f19350505050158015610200573d5f5f3e3d5ffd5b50803373ffffffffffffffffffffffffffffffffffffffff167ff279e6a1f5e320cca91135676d9cb6e44ca8a08c0b88342bcdb1144f6511b5684260405161024891906103f1565b60405180910390a350565b3373ffffffffffffffffffffffffffffffffffffffff167f6d334e6c56ab039764300c508e6f79891f4ddce8d92de4108c43fa1de6908a2883834260405161029d9392919061062d565b60405180910390a25050565b345f5f3373ffffffffffffffffffffffffffffffffffffffff1673ffffffffffffffffffffffffffffffffffffffff1681526020019081526020015f205f8282546102f4919061065d565b92505081905550343373ffffffffffffffffffffffffffffffffffffffff167f90890809c654f11d6e72a28fa60149770a0d11ec6c92319d6ceb2bb0a4ea1a154260405161034291906103f1565b60405180910390a3565b5f5ffd5b5f5ffd5b5f73ffffffffffffffffffffffffffffffffffffffff82169050919050565b5f61037d82610354565b9050919050565b61038d81610373565b8114610397575f5ffd5b50565b5f813590506103a881610384565b92915050565b5f602082840312156103c3576103c261034c565b5b5f6103d08482850161039a565b91505092915050565b5f819050919050565b6103eb816103d9565b82525050565b5f6020820190506104045f8301846103e2565b92915050565b610413816103d9565b811461041d575f5ffd5b50565b5f8135905061042e8161040a565b92915050565b5f602082840312156104495761044861034c565b5b5f61045684828501610420565b91505092915050565b5f5ffd5b5f5ffd5b5f5ffd5b5f5f83601f8401126104805761047f61045f565b5b8235905067ffffffffffffffff81111561049d5761049c610463565b5b6020830191508360018202830111156104b9576104b8610467565b5b9250929050565b5f5f602083850312156104d6576104d561034c565b5b5f83013567ffffffffffffffff8111156104f3576104f2610350565b5b6104ff8582860161046b565b92509250509250929050565b5f82825260208201905092915050565b7f496e73756666696369656e742062616c616e63650000000000000000000000005f82015250565b5f61054f60148361050b565b915061055a8261051b565b602082019050919050565b5f6020820190508181035f83015261057c81610543565b9050919050565b7f4e487b71000000000000000000000000000000000000000000000000000000005f52601160045260245ffd5b5f6105ba826103d9565b91506105c5836103d9565b92508282039050818111156105dd576105dc610583565b5b92915050565b828183375f83830152505050565b5f601f19601f8301169050919050565b5f61060c838561050b565b93506106198385846105e3565b610622836105f1565b840190509392505050565b5f6040820190508181035f830152610646818587610601565b905061065560208301846103e2565b949350505050565b5f610667826103d9565b9150610672836103d9565b925082820190508082111561068a57610689610583565b5b9291505056fea26469706673582212201188c94d4ff6fed757f068108d05c6d1771ed47ac36a150590f8403fa6b8029664736f6c634300081f0033",
					"opcodes": "PUSH1 0x80 PUSH1 0x40 MSTORE CALLVALUE DUP1 ISZERO PUSH1 0xE JUMPI PUSH0 PUSH0 REVERT JUMPDEST POP PUSH2 0x6C6 DUP1 PUSH2 0x1C PUSH0 CODECOPY PUSH0 RETURN INVALID PUSH1 0x80 PUSH1 0x40 MSTORE PUSH1 0x4 CALLDATASIZE LT PUSH2 0x3E JUMPI PUSH0 CALLDATALOAD PUSH1 0xE0 SHR DUP1 PUSH4 0x27E235E3 EQ PUSH2 0x42 JUMPI DUP1 PUSH4 0x2E1A7D4D EQ PUSH2 0x7E JUMPI DUP1 PUSH4 0x6630F88F EQ PUSH2 0xA6 JUMPI DUP1 PUSH4 0xD0E30DB0 EQ PUSH2 0xCE JUMPI JUMPDEST PUSH0 PUSH0 REVERT JUMPDEST CALLVALUE DUP1 ISZERO PUSH2 0x4D JUMPI PUSH0 PUSH0 REVERT JUMPDEST POP PUSH2 0x68 PUSH1 0x4 DUP1 CALLDATASIZE SUB DUP2 ADD SWAP1 PUSH2 0x63 SWAP2 SWAP1 PUSH2 0x3AE JUMP JUMPDEST PUSH2 0xD8 JUMP JUMPDEST PUSH1 0x40 MLOAD PUSH2 0x75 SWAP2 SWAP1 PUSH2 0x3F1 JUMP JUMPDEST PUSH1 0x40 MLOAD DUP1 SWAP2 SUB SWAP1 RETURN JUMPDEST CALLVALUE DUP1 ISZERO PUSH2 0x89 JUMPI PUSH0 PUSH0 REVERT JUMPDEST POP PUSH2 0xA4 PUSH1 0x4 DUP1 CALLDATASIZE SUB DUP2 ADD SWAP1 PUSH2 0x9F SWAP2 SWAP1 PUSH2 0x434 JUMP JUMPDEST PUSH2 0xEC JUMP JUMPDEST STOP JUMPDEST CALLVALUE DUP1 ISZERO PUSH2 0xB1 JUMPI PUSH0 PUSH0 REVERT JUMPDEST POP PUSH2 0xCC PUSH1 0x4 DUP1 CALLDATASIZE SUB DUP2 ADD SWAP1 PUSH2 0xC7 SWAP2 SWAP1 PUSH2 0x4C0 JUMP JUMPDEST PUSH2 0x253 JUMP JUMPDEST STOP JUMPDEST PUSH2 0xD6 PUSH2 0x2A9 JUMP JUMPDEST STOP JUMPDEST PUSH0 PUSH1 0x20 MSTORE DUP1 PUSH0 MSTORE PUSH1 0x40 PUSH0 KECCAK256 PUSH0 SWAP2 POP SWAP1 POP SLOAD DUP2 JUMP JUMPDEST DUP1 PUSH0 PUSH0 CALLER PUSH20 0xFFFFFFFFFFFFFFFFFFFFFFFFFFFFFFFFFFFFFFFF AND PUSH20 0xFFFFFFFFFFFFFFFFFFFFFFFFFFFFFFFFFFFFFFFF AND DUP2 MSTORE PUSH1 0x20 ADD SWAP1 DUP2 MSTORE PUSH1 0x20 ADD PUSH0 KECCAK256 SLOAD LT ISZERO PUSH2 0x16B JUMPI PUSH1 0x40 MLOAD PUSH32 0x8C379A000000000000000000000000000000000000000000000000000000000 DUP2 MSTORE PUSH1 0x4 ADD PUSH2 0x162 SWAP1 PUSH2 0x565 JUMP JUMPDEST PUSH1 0x40 MLOAD DUP1 SWAP2 SUB SWAP1 REVERT JUMPDEST DUP1 PUSH0 PUSH0 CALLER PUSH20 0xFFFFFFFFFFFFFFFFFFFFFFFFFFFFFFFFFFFFFFFF AND PUSH20 0xFFFFFFFFFFFFFFFFFFFFFFFFFFFFFFFFFFFFFFFF AND DUP2 MSTORE PUSH1 0x20 ADD SWAP1 DUP2 MSTORE PUSH1 0x20 ADD PUSH0 KECCAK256 PUSH0 DUP3 DUP3 SLOAD PUSH2 0x1B6 SWAP2 SWAP1 PUSH2 0x5B0 JUMP JUMPDEST SWAP3 POP POP DUP2 SWAP1 SSTORE POP CALLER PUSH20 0xFFFFFFFFFFFFFFFFFFFFFFFFFFFFFFFFFFFFFFFF AND PUSH2 0x8FC DUP3 SWAP1 DUP2 ISZERO MUL SWAP1 PUSH1 0x40 MLOAD PUSH0 PUSH1 0x40 MLOAD DUP1 DUP4 SUB DUP2 DUP6 DUP9 DUP9 CALL SWAP4 POP POP POP POP ISZERO DUP1 ISZERO PUSH2 0x200 JUMPI RETURNDATASIZE PUSH0 PUSH0 RETURNDATACOPY RETURNDATASIZE PUSH0 REVERT JUMPDEST POP DUP1 CALLER PUSH20 0xFFFFFFFFFFFFFFFFFFFFFFFFFFFFFFFFFFFFFFFF AND PUSH32 0xF279E6A1F5E320CCA91135676D9CB6E44CA8A08C0B88342BCDB1144F6511B568 TIMESTAMP PUSH1 0x40 MLOAD PUSH2 0x248 SWAP2 SWAP1 PUSH2 0x3F1 JUMP JUMPDEST PUSH1 0x40 MLOAD DUP1 SWAP2 SUB SWAP1 LOG3 POP JUMP JUMPDEST CALLER PUSH20 0xFFFFFFFFFFFFFFFFFFFFFFFFFFFFFFFFFFFFFFFF AND PUSH32 0x6D334E6C56AB039764300C508E6F79891F4DDCE8D92DE4108C43FA1DE6908A28 DUP4 DUP4 TIMESTAMP PUSH1 0x40 MLOAD PUSH2 0x29D SWAP4 SWAP3 SWAP2 SWAP1 PUSH2 0x62D JUMP JUMPDEST PUSH1 0x40 MLOAD DUP1 SWAP2 SUB SWAP1 LOG2 POP POP JUMP JUMPDEST CALLVALUE PUSH0 PUSH0 CALLER PUSH20 0xFFFFFFFFFFFFFFFFFFFFFFFFFFFFFFFFFFFFFFFF AND PUSH20 0xFFFFFFFFFFFFFFFFFFFFFFFFFFFFFFFFFFFFFFFF AND DUP2 MSTORE PUSH1 0x20 ADD SWAP1 DUP2 MSTORE PUSH1 0x20 ADD PUSH0 KECCAK256 PUSH0 DUP3 DUP3 SLOAD PUSH2 0x2F4 SWAP2 SWAP1 PUSH2 0x65D JUMP JUMPDEST SWAP3 POP POP DUP2 SWAP1 SSTORE POP CALLVALUE CALLER PUSH20 0xFFFFFFFFFFFFFFFFFFFFFFFFFFFFFFFFFFFFFFFF AND PUSH32 0x90890809C654F11D6E72A28FA60149770A0D11EC6C92319D6CEB2BB0A4EA1A15 TIMESTAMP PUSH1 0x40 MLOAD PUSH2 0x342 SWAP2 SWAP1 PUSH2 0x3F1 JUMP JUMPDEST PUSH1 0x40 MLOAD DUP1 SWAP2 SUB SWAP1 LOG3 JUMP JUMPDEST PUSH0 PUSH0 REVERT JUMPDEST PUSH0 PUSH0 REVERT JUMPDEST PUSH0 PUSH20 0xFFFFFFFFFFFFFFFFFFFFFFFFFFFFFFFFFFFFFFFF DUP3 AND SWAP1 POP SWAP2 SWAP1 POP JUMP JUMPDEST PUSH0 PUSH2 0x37D DUP3 PUSH2 0x354 JUMP JUMPDEST SWAP1 POP SWAP2 SWAP1 POP JUMP JUMPDEST PUSH2 0x38D DUP2 PUSH2 0x373 JUMP JUMPDEST DUP2 EQ PUSH2 0x397 JUMPI PUSH0 PUSH0 REVERT JUMPDEST POP JUMP JUMPDEST PUSH0 DUP2 CALLDATALOAD SWAP1 POP PUSH2 0x3A8 DUP2 PUSH2 0x384 JUMP JUMPDEST SWAP3 SWAP2 POP POP JUMP JUMPDEST PUSH0 PUSH1 0x20 DUP3 DUP5 SUB SLT ISZERO PUSH2 0x3C3 JUMPI PUSH2 0x3C2 PUSH2 0x34C JUMP JUMPDEST JUMPDEST PUSH0 PUSH2 0x3D0 DUP5 DUP3 DUP6 ADD PUSH2 0x39A JUMP JUMPDEST SWAP2 POP POP SWAP3 SWAP2 POP POP JUMP JUMPDEST PUSH0 DUP2 SWAP1 POP SWAP2 SWAP1 POP JUMP JUMPDEST PUSH2 0x3EB DUP2 PUSH2 0x3D9 JUMP JUMPDEST DUP3 MSTORE POP POP JUMP JUMPDEST PUSH0 PUSH1 0x20 DUP3 ADD SWAP1 POP PUSH2 0x404 PUSH0 DUP4 ADD DUP5 PUSH2 0x3E2 JUMP JUMPDEST SWAP3 SWAP2 POP POP JUMP JUMPDEST PUSH2 0x413 DUP2 PUSH2 0x3D9 JUMP JUMPDEST DUP2 EQ PUSH2 0x41D JUMPI PUSH0 PUSH0 REVERT JUMPDEST POP JUMP JUMPDEST PUSH0 DUP2 CALLDATALOAD SWAP1 POP PUSH2 0x42E DUP2 PUSH2 0x40A JUMP JUMPDEST SWAP3 SWAP2 POP POP JUMP JUMPDEST PUSH0 PUSH1 0x20 DUP3 DUP5 SUB SLT ISZERO PUSH2 0x449 JUMPI PUSH2 0x448 PUSH2 0x34C JUMP JUMPDEST JUMPDEST PUSH0 PUSH2 0x456 DUP5 DUP3 DUP6 ADD PUSH2 0x420 JUMP JUMPDEST SWAP2 POP POP SWAP3 SWAP2 POP POP JUMP JUMPDEST PUSH0 PUSH0 REVERT JUMPDEST PUSH0 PUSH0 REVERT JUMPDEST PUSH0 PUSH0 REVERT JUMPDEST PUSH0 PUSH0 DUP4 PUSH1 0x1F DUP5 ADD SLT PUSH2 0x480 JUMPI PUSH2 0x47F PUSH2 0x45F JUMP JUMPDEST JUMPDEST DUP3 CALLDATALOAD SWAP1 POP PUSH8 0xFFFFFFFFFFFFFFFF DUP2 GT ISZERO PUSH2 0x49D JUMPI PUSH2 0x49C PUSH2 0x463 JUMP JUMPDEST JUMPDEST PUSH1 0x20 DUP4 ADD SWAP2 POP DUP4 PUSH1 0x1 DUP3 MUL DUP4 ADD GT ISZERO PUSH2 0x4B9 JUMPI PUSH2 0x4B8 PUSH2 0x467 JUMP JUMPDEST JUMPDEST SWAP3 POP SWAP3 SWAP1 POP JUMP JUMPDEST PUSH0 PUSH0 PUSH1 0x20 DUP4 DUP6 SUB SLT ISZERO PUSH2 0x4D6 JUMPI PUSH2 0x4D5 PUSH2 0x34C JUMP JUMPDEST JUMPDEST PUSH0 DUP4 ADD CALLDATALOAD PUSH8 0xFFFFFFFFFFFFFFFF DUP2 GT ISZERO PUSH2 0x4F3 JUMPI PUSH2 0x4F2 PUSH2 0x350 JUMP JUMPDEST JUMPDEST PUSH2 0x4FF DUP6 DUP3 DUP7 ADD PUSH2 0x46B JUMP JUMPDEST SWAP3 POP SWAP3 POP POP SWAP3 POP SWAP3 SWAP1 POP JUMP JUMPDEST PUSH0 DUP3 DUP3 MSTORE PUSH1 0x20 DUP3 ADD SWAP1 POP SWAP3 SWAP2 POP POP JUMP JUMPDEST PUSH32 0x496E73756666696369656E742062616C616E6365000000000000000000000000 PUSH0 DUP3 ADD MSTORE POP JUMP JUMPDEST PUSH0 PUSH2 0x54F PUSH1 0x14 DUP4 PUSH2 0x50B JUMP JUMPDEST SWAP2 POP PUSH2 0x55A DUP3 PUSH2 0x51B JUMP JUMPDEST PUSH1 0x20 DUP3 ADD SWAP1 POP SWAP2 SWAP1 POP JUMP JUMPDEST PUSH0 PUSH1 0x20 DUP3 ADD SWAP1 POP DUP2 DUP2 SUB PUSH0 DUP4 ADD MSTORE PUSH2 0x57C DUP2 PUSH2 0x543 JUMP JUMPDEST SWAP1 POP SWAP2 SWAP1 POP JUMP JUMPDEST PUSH32 0x4E487B7100000000000000000000000000000000000000000000000000000000 PUSH0 MSTORE PUSH1 0x11 PUSH1 0x4 MSTORE PUSH1 0x24 PUSH0 REVERT JUMPDEST PUSH0 PUSH2 0x5BA DUP3 PUSH2 0x3D9 JUMP JUMPDEST SWAP2 POP PUSH2 0x5C5 DUP4 PUSH2 0x3D9 JUMP JUMPDEST SWAP3 POP DUP3 DUP3 SUB SWAP1 POP DUP2 DUP2 GT ISZERO PUSH2 0x5DD JUMPI PUSH2 0x5DC PUSH2 0x583 JUMP JUMPDEST JUMPDEST SWAP3 SWAP2 POP POP JUMP JUMPDEST DUP3 DUP2 DUP4 CALLDATACOPY PUSH0 DUP4 DUP4 ADD MSTORE POP POP POP JUMP JUMPDEST PUSH0 PUSH1 0x1F NOT PUSH1 0x1F DUP4 ADD AND SWAP1 POP SWAP2 SWAP1 POP JUMP JUMPDEST PUSH0 PUSH2 0x60C DUP4 DUP6 PUSH2 0x50B JUMP JUMPDEST SWAP4 POP PUSH2 0x619 DUP4 DUP6 DUP5 PUSH2 0x5E3 JUMP JUMPDEST PUSH2 0x622 DUP4 PUSH2 0x5F1 JUMP JUMPDEST DUP5 ADD SWAP1 POP SWAP4 SWAP3 POP POP POP JUMP JUMPDEST PUSH0 PUSH1 0x40 DUP3 ADD SWAP1 POP DUP2 DUP2 SUB PUSH0 DUP4 ADD MSTORE PUSH2 0x646 DUP2 DUP6 DUP8 PUSH2 0x601 JUMP JUMPDEST SWAP1 POP PUSH2 0x655 PUSH1 0x20 DUP4 ADD DUP5 PUSH2 0x3E2 JUMP JUMPDEST SWAP5 SWAP4 POP POP POP POP JUMP JUMPDEST PUSH0 PUSH2 0x667 DUP3 PUSH2 0x3D9 JUMP JUMPDEST SWAP2 POP PUSH2 0x672 DUP4 PUSH2 0x3D9 JUMP JUMPDEST SWAP3 POP DUP3 DUP3 ADD SWAP1 POP DUP1 DUP3 GT ISZERO PUSH2 0x68A JUMPI PUSH2 0x689 PUSH2 0x583 JUMP JUMPDEST JUMPDEST SWAP3 SWAP2 POP POP JUMP INVALID LOG2 PUSH5 0x6970667358 0x22 SLT KECCAK256 GT DUP9 0xC9 0x4D 0x4F 0xF6 INVALID 0xD7 JUMPI CREATE PUSH9 0x108D05C6D1771ED47A 0xC3 PUSH11 0x150590F8403FA6B8029664 PUSH20 0x6F6C634300081F00330000000000000000000000 "
				},
				"gasEstimates": {
					"creation": {
						"codeDepositCost": "346800",
						"executionCost": "384",
						"totalCost": "347184"
					},
					"external": {
						"balances(address)": "2779",
						"deposit()": "infinite",
						"postMessage(string)": "infinite",
						"withdraw(uint256)": "infinite"
					}
				},
				"methodIdentifiers": {
					"balances(address)": "27e235e3",
					"deposit()": "d0e30db0",
					"postMessage(string)": "6630f88f",
					"withdraw(uint256)": "2e1a7d4d"
				}
			},
			"storageLayout": {
				"storage": [
					{
						"astId": 29,
						"contract": "contracts/thegraph.sol:EventVault",
						"label": "balances",
						"offset": 0,
						"slot": "0",
						"type": "t_mapping(t_address,t_uint256)"
					}
				],
				"types": {
					"t_address": {
						"encoding": "inplace",
						"label": "address",
						"numberOfBytes": "20"
					},
					"t_mapping(t_address,t_uint256)": {
						"encoding": "mapping",
						"key": "t_address",
						"label": "mapping(address => uint256)",
						"numberOfBytes": "32",
						"value": "t_uint256"
					},
					"t_uint256": {
						"encoding": "inplace",
						"label": "uint256",
						"numberOfBytes": "32"
					}
				}
			},
			"userdoc": {
				"kind": "user",
				"methods": {},
				"version": 1
			}
		}
	}
}