{
	"contracts/exams.sol": {
		"DecentralizedExamSystem": {
			"abi": [
				{
					"inputs": [],
					"stateMutability": "nonpayable",
					"type": "constructor"
				},
				{
					"inputs": [
						{
							"internalType": "uint256",
							"name": "examId",
							"type": "uint256"
						},
						{
							"internalType": "string",
							"name": "questionText",
							"type": "string"
						},
						{
							"internalType": "string[]",
							"name": "options",
							"type": "string[]"
						},
						{
							"internalType": "uint256",
							"name": "correctOptionIndex",
							"type": "uint256"
						},
						{
							"internalType": "uint256",
							"name": "marks",
							"type": "uint256"
						}
					],
					"name": "addQuestion",
					"outputs": [],
					"stateMutability": "nonpayable",
					"type": "function"
				},
				{
					"inputs": [
						{
							"internalType": "string",
							"name": "title",
							"type": "string"
						}
					],
					"name": "createExam",
					"outputs": [],
					"stateMutability": "nonpayable",
					"type": "function"
				},
				{
					"inputs": [],
					"name": "examCount",
					"outputs": [
						{
							"internalType": "uint256",
							"name": "",
							"type": "uint256"
						}
					],
					"stateMutability": "view",
					"type": "function"
				},
				{
					"inputs": [
						{
							"internalType": "uint256",
							"name": "",
							"type": "uint256"
						},
						{
							"internalType": "uint256",
							"name": "",
							"type": "uint256"
						}
					],
					"name": "examQuestions",
					"outputs": [
						{
							"internalType": "string",
							"name": "questionText",
							"type": "string"
						},
						{
							"internalType": "uint256",
							"name": "correctOptionIndex",
							"type": "uint256"
						},
						{
							"internalType": "uint256",
							"name": "marks",
							"type": "uint256"
						}
					],
					"stateMutability": "view",
					"type": "function"
				},
				{
					"inputs": [
						{
							"internalType": "uint256",
							"name": "",
							"type": "uint256"
						}
					],
					"name": "exams",
					"outputs": [
						{
							"internalType": "string",
							"name": "title",
							"type": "string"
						},
						{
							"internalType": "bool",
							"name": "published",
							"type": "bool"
						},
						{
							"internalType": "uint256",
							"name": "totalMarks",
							"type": "uint256"
						}
					],
					"stateMutability": "view",
					"type": "function"
				},
				{
					"inputs": [
						{
							"internalType": "uint256",
							"name": "examId",
							"type": "uint256"
						},
						{
							"internalType": "address",
							"name": "student",
							"type": "address"
						}
					],
					"name": "getStudentScore",
					"outputs": [
						{
							"internalType": "uint256",
							"name": "",
							"type": "uint256"
						}
					],
					"stateMutability": "view",
					"type": "function"
				},
				{
					"inputs": [],
					"name": "owner",
					"outputs": [
						{
							"internalType": "address",
							"name": "",
							"type": "address"
						}
					],
					"stateMutability": "view",
					"type": "function"
				},
				{
					"inputs": [
						{
							"internalType": "uint256",
							"name": "examId",
							"type": "uint256"
						}
					],
					"name": "publishExam",
					"outputs": [],
					"stateMutability": "nonpayable",
					"type": "function"
				},
				{
					"inputs": [
						{
							"internalType": "uint256",
							"name": "",
							"type": "uint256"
						}
					],
					"name": "questionCount",
					"outputs": [
						{
							"internalType": "uint256",
							"name": "",
							"type": "uint256"
						}
					],
					"stateMutability": "view",
					"type": "function"
				},
				{
					"inputs": [
						{
							"internalType": "uint256",
							"name": "",
							"type": "uint256"
						},
						{
							"internalType": "address",
							"name": "",
							"type": "address"
						}
					],
					"name": "studentAnswers",
					"outputs": [
						{
							"internalType": "bool",
							"name": "submitted",
							"type": "bool"
						},
						{
							"internalType": "uint256",
							"name": "score",
							"type": "uint256"
						}
					],
					"stateMutability": "view",
					"type": "function"
				},
				{
					"inputs": [
						{
							"internalType": "uint256",
							"name": "examId",
							"type": "uint256"
						},
						{
							"internalType": "uint256[]",
							"name": "selectedOptions",
							"type": "uint256[]"
						}
					],
					"name": "submitAnswers",
					"outputs": [],
					"stateMutability": "nonpayable",
					"type": "function"
				}
			],
			"devdoc": {
				"kind": "dev",
				"methods": {},
				"version": 1
			},
			"evm": {
				"assembly": "    /* \"contracts/exams.sol\":58:3807  contract DecentralizedExamSystem {... */\n  mstore(0x40, 0x80)\n    /* \"contracts/exams.sol\":1174:1223  constructor() {... */\n  callvalue\n  dup1\n  iszero\n  tag_1\n  jumpi\n  revert(0x00, 0x00)\ntag_1:\n  pop\n    /* \"contracts/exams.sol\":1206:1216  msg.sender */\n  caller\n    /* \"contracts/exams.sol\":1198:1203  owner */\n  0x00\n  0x00\n    /* \"contracts/exams.sol\":1198:1216  owner = msg.sender */\n  0x0100\n  exp\n  dup2\n  sload\n  dup2\n  0xffffffffffffffffffffffffffffffffffffffff\n  mul\n  not\n  and\n  swap1\n  dup4\n  0xffffffffffffffffffffffffffffffffffffffff\n  and\n  mul\n  or\n  swap1\n  sstore\n  pop\n    /* \"contracts/exams.sol\":58:3807  contract DecentralizedExamSystem {... */\n  dataSize(sub_0)\n  dup1\n  dataOffset(sub_0)\n  0x00\n  codecopy\n  0x00\n  return\nstop\n\nsub_0: assembly {\n        /* \"contracts/exams.sol\":58:3807  contract DecentralizedExamSystem {... */\n      mstore(0x40, 0x80)\n      callvalue\n      dup1\n      iszero\n      tag_1\n      jumpi\n      revert(0x00, 0x00)\n    tag_1:\n      pop\n      jumpi(tag_2, lt(calldatasize, 0x04))\n      shr(0xe0, calldataload(0x00))\n      dup1\n      0x4198cb3f\n      gt\n      tag_14\n      jumpi\n      dup1\n      0x4198cb3f\n      eq\n      tag_8\n      jumpi\n      dup1\n      0x61c5c068\n      eq\n      tag_9\n      jumpi\n      dup1\n      0x8da5cb5b\n      eq\n      tag_10\n      jumpi\n      dup1\n      0x944bda63\n      eq\n      tag_11\n      jumpi\n      dup1\n      0xa9dafbe9\n      eq\n      tag_12\n      jumpi\n      dup1\n      0xefc342f4\n      eq\n      tag_13\n      jumpi\n      jump(tag_2)\n    tag_14:\n      dup1\n      0x084a5818\n      eq\n      tag_3\n      jumpi\n      dup1\n      0x0bcb5189\n      eq\n      tag_4\n      jumpi\n      dup1\n      0x0dfb1dbf\n      eq\n      tag_5\n      jumpi\n      dup1\n      0x33255036\n      eq\n      tag_6\n      jumpi\n      dup1\n      0x39274fdd\n      eq\n      tag_7\n      jumpi\n    tag_2:\n      revert(0x00, 0x00)\n        /* \"contracts/exams.sol\":2564:3461  function submitAnswers(uint256 examId, uint256[] memory selectedOptions)... */\n    tag_3:\n      tag_15\n      0x04\n      dup1\n      calldatasize\n      sub\n      dup2\n      add\n      swap1\n      tag_16\n      swap2\n      swap1\n      tag_17\n      jump\t// in\n    tag_16:\n      tag_18\n      jump\t// in\n    tag_15:\n      stop\n        /* \"contracts/exams.sol\":774:861  mapping(uint256 => mapping(address => StudentSubmission))... */\n    tag_4:\n      tag_19\n      0x04\n      dup1\n      calldatasize\n      sub\n      dup2\n      add\n      swap1\n      tag_20\n      swap2\n      swap1\n      tag_21\n      jump\t// in\n    tag_20:\n      tag_22\n      jump\t// in\n    tag_19:\n      mload(0x40)\n      tag_23\n      swap3\n      swap2\n      swap1\n      tag_24\n      jump\t// in\n    tag_23:\n      mload(0x40)\n      dup1\n      swap2\n      sub\n      swap1\n      return\n        /* \"contracts/exams.sol\":902:926  uint256 public examCount */\n    tag_5:\n      tag_25\n      tag_26\n      jump\t// in\n    tag_25:\n      mload(0x40)\n      tag_27\n      swap2\n      swap1\n      tag_28\n      jump\t// in\n    tag_27:\n      mload(0x40)\n      dup1\n      swap2\n      sub\n      swap1\n      return\n        /* \"contracts/exams.sol\":1452:2288  function addQuestion(... */\n    tag_6:\n      tag_29\n      0x04\n      dup1\n      calldatasize\n      sub\n      dup2\n      add\n      swap1\n      tag_30\n      swap2\n      swap1\n      tag_31\n      jump\t// in\n    tag_30:\n      tag_32\n      jump\t// in\n    tag_29:\n      stop\n        /* \"contracts/exams.sol\":2294:2558  function publishExam(uint256 examId) external onlyOwner examExists(examId) {... */\n    tag_7:\n      tag_33\n      0x04\n      dup1\n      calldatasize\n      sub\n      dup2\n      add\n      swap1\n      tag_34\n      swap2\n      swap1\n      tag_35\n      jump\t// in\n    tag_34:\n      tag_36\n      jump\t// in\n    tag_33:\n      stop\n        /* \"contracts/exams.sol\":533:570  mapping(uint256 => Exam) public exams */\n    tag_8:\n      tag_37\n      0x04\n      dup1\n      calldatasize\n      sub\n      dup2\n      add\n      swap1\n      tag_38\n      swap2\n      swap1\n      tag_35\n      jump\t// in\n    tag_38:\n      tag_39\n      jump\t// in\n    tag_37:\n      mload(0x40)\n      tag_40\n      swap4\n      swap3\n      swap2\n      swap1\n      tag_41\n      jump\t// in\n    tag_40:\n      mload(0x40)\n      dup1\n      swap2\n      sub\n      swap1\n      return\n        /* \"contracts/exams.sol\":576:645  mapping(uint256 => mapping(uint256 => Question)) public examQuestions */\n    tag_9:\n      tag_42\n      0x04\n      dup1\n      calldatasize\n      sub\n      dup2\n      add\n      swap1\n      tag_43\n      swap2\n      swap1\n      tag_44\n      jump\t// in\n    tag_43:\n      tag_45\n      jump\t// in\n    tag_42:\n      mload(0x40)\n      tag_46\n      swap4\n      swap3\n      swap2\n      swap1\n      tag_47\n      jump\t// in\n    tag_46:\n      mload(0x40)\n      dup1\n      swap2\n      sub\n      swap1\n      return\n        /* \"contracts/exams.sol\":97:117  address public owner */\n    tag_10:\n      tag_48\n      tag_49\n      jump\t// in\n    tag_48:\n      mload(0x40)\n      tag_50\n      swap2\n      swap1\n      tag_51\n      jump\t// in\n    tag_50:\n      mload(0x40)\n      dup1\n      swap2\n      sub\n      swap1\n      return\n        /* \"contracts/exams.sol\":1229:1446  function createExam(string memory title) external onlyOwner {... */\n    tag_11:\n      tag_52\n      0x04\n      dup1\n      calldatasize\n      sub\n      dup2\n      add\n      swap1\n      tag_53\n      swap2\n      swap1\n      tag_54\n      jump\t// in\n    tag_53:\n      tag_55\n      jump\t// in\n    tag_52:\n      stop\n        /* \"contracts/exams.sol\":3467:3805  function getStudentScore(uint256 examId, address student)... */\n    tag_12:\n      tag_56\n      0x04\n      dup1\n      calldatasize\n      sub\n      dup2\n      add\n      swap1\n      tag_57\n      swap2\n      swap1\n      tag_21\n      jump\t// in\n    tag_57:\n      tag_58\n      jump\t// in\n    tag_56:\n      mload(0x40)\n      tag_59\n      swap2\n      swap1\n      tag_28\n      jump\t// in\n    tag_59:\n      mload(0x40)\n      dup1\n      swap2\n      sub\n      swap1\n      return\n        /* \"contracts/exams.sol\":687:735  mapping(uint256 => uint256) public questionCount */\n    tag_13:\n      tag_60\n      0x04\n      dup1\n      calldatasize\n      sub\n      dup2\n      add\n      swap1\n      tag_61\n      swap2\n      swap1\n      tag_35\n      jump\t// in\n    tag_61:\n      tag_62\n      jump\t// in\n    tag_60:\n      mload(0x40)\n      tag_63\n      swap2\n      swap1\n      tag_28\n      jump\t// in\n    tag_63:\n      mload(0x40)\n      dup1\n      swap2\n      sub\n      swap1\n      return\n        /* \"contracts/exams.sol\":2564:3461  function submitAnswers(uint256 examId, uint256[] memory selectedOptions)... */\n    tag_18:\n        /* \"contracts/exams.sol\":2673:2679  examId */\n      dup2\n        /* \"contracts/exams.sol\":1117:1126  examCount */\n      sload(0x05)\n        /* \"contracts/exams.sol\":1108:1114  examId */\n      dup2\n        /* \"contracts/exams.sol\":1108:1126  examId < examCount */\n      lt\n        /* \"contracts/exams.sol\":1100:1150  require(examId < examCount, \"Exam does not exist\") */\n      tag_65\n      jumpi\n      mload(0x40)\n      0x08c379a000000000000000000000000000000000000000000000000000000000\n      dup2\n      mstore\n      0x04\n      add\n      tag_66\n      swap1\n      tag_67\n      jump\t// in\n    tag_66:\n      mload(0x40)\n      dup1\n      swap2\n      sub\n      swap1\n      revert\n    tag_65:\n        /* \"contracts/exams.sol\":2717:2731  studentAnswers */\n      0x04\n        /* \"contracts/exams.sol\":2717:2739  studentAnswers[examId] */\n      0x00\n        /* \"contracts/exams.sol\":2732:2738  examId */\n      dup5\n        /* \"contracts/exams.sol\":2717:2739  studentAnswers[examId] */\n      dup2\n      mstore\n      0x20\n      add\n      swap1\n      dup2\n      mstore\n      0x20\n      add\n      0x00\n      keccak256\n        /* \"contracts/exams.sol\":2717:2751  studentAnswers[examId][msg.sender] */\n      0x00\n        /* \"contracts/exams.sol\":2740:2750  msg.sender */\n      caller\n        /* \"contracts/exams.sol\":2717:2751  studentAnswers[examId][msg.sender] */\n      0xffffffffffffffffffffffffffffffffffffffff\n      and\n      0xffffffffffffffffffffffffffffffffffffffff\n      and\n      dup2\n      mstore\n      0x20\n      add\n      swap1\n      dup2\n      mstore\n      0x20\n      add\n      0x00\n      keccak256\n        /* \"contracts/exams.sol\":2717:2761  studentAnswers[examId][msg.sender].submitted */\n      0x01\n      add\n      0x00\n      swap1\n      sload\n      swap1\n      0x0100\n      exp\n      swap1\n      div\n      0xff\n      and\n        /* \"contracts/exams.sol\":2716:2761  !studentAnswers[examId][msg.sender].submitted */\n      iszero\n        /* \"contracts/exams.sol\":2695:2822  require(... */\n      tag_69\n      jumpi\n      mload(0x40)\n      0x08c379a000000000000000000000000000000000000000000000000000000000\n      dup2\n      mstore\n      0x04\n      add\n      tag_70\n      swap1\n      tag_71\n      jump\t// in\n    tag_70:\n      mload(0x40)\n      dup1\n      swap2\n      sub\n      swap1\n      revert\n    tag_69:\n        /* \"contracts/exams.sol\":2879:2892  questionCount */\n      0x03\n        /* \"contracts/exams.sol\":2879:2900  questionCount[examId] */\n      0x00\n        /* \"contracts/exams.sol\":2893:2899  examId */\n      dup5\n        /* \"contracts/exams.sol\":2879:2900  questionCount[examId] */\n      dup2\n      mstore\n      0x20\n      add\n      swap1\n      dup2\n      mstore\n      0x20\n      add\n      0x00\n      keccak256\n      sload\n        /* \"contracts/exams.sol\":2853:2868  selectedOptions */\n      dup3\n        /* \"contracts/exams.sol\":2853:2875  selectedOptions.length */\n      mload\n        /* \"contracts/exams.sol\":2853:2900  selectedOptions.length == questionCount[examId] */\n      eq\n        /* \"contracts/exams.sol\":2832:2951  require(... */\n      tag_72\n      jumpi\n      mload(0x40)\n      0x08c379a000000000000000000000000000000000000000000000000000000000\n      dup2\n      mstore\n      0x04\n      add\n      tag_73\n      swap1\n      tag_74\n      jump\t// in\n    tag_73:\n      mload(0x40)\n      dup1\n      swap2\n      sub\n      swap1\n      revert\n    tag_72:\n        /* \"contracts/exams.sol\":2962:2975  uint256 score */\n      0x00\n        /* \"contracts/exams.sol\":2978:2979  0 */\n      0x00\n        /* \"contracts/exams.sol\":2962:2979  uint256 score = 0 */\n      swap1\n      pop\n        /* \"contracts/exams.sol\":2994:3003  uint256 i */\n      0x00\n        /* \"contracts/exams.sol\":3006:3007  0 */\n      0x00\n        /* \"contracts/exams.sol\":2994:3007  uint256 i = 0 */\n      swap1\n      pop\n        /* \"contracts/exams.sol\":2989:3335  for (uint256 i = 0; i < selectedOptions.length; i++) {... */\n    tag_75:\n        /* \"contracts/exams.sol\":3013:3028  selectedOptions */\n      dup4\n        /* \"contracts/exams.sol\":3013:3035  selectedOptions.length */\n      mload\n        /* \"contracts/exams.sol\":3009:3010  i */\n      dup2\n        /* \"contracts/exams.sol\":3009:3035  i < selectedOptions.length */\n      lt\n        /* \"contracts/exams.sol\":2989:3335  for (uint256 i = 0; i < selectedOptions.length; i++) {... */\n      iszero\n      tag_76\n      jumpi\n        /* \"contracts/exams.sol\":3115:3128  examQuestions */\n      0x02\n        /* \"contracts/exams.sol\":3115:3136  examQuestions[examId] */\n      0x00\n        /* \"contracts/exams.sol\":3129:3135  examId */\n      dup7\n        /* \"contracts/exams.sol\":3115:3136  examQuestions[examId] */\n      dup2\n      mstore\n      0x20\n      add\n      swap1\n      dup2\n      mstore\n      0x20\n      add\n      0x00\n      keccak256\n        /* \"contracts/exams.sol\":3115:3139  examQuestions[examId][i] */\n      0x00\n        /* \"contracts/exams.sol\":3137:3138  i */\n      dup3\n        /* \"contracts/exams.sol\":3115:3139  examQuestions[examId][i] */\n      dup2\n      mstore\n      0x20\n      add\n      swap1\n      dup2\n      mstore\n      0x20\n      add\n      0x00\n      keccak256\n        /* \"contracts/exams.sol\":3115:3158  examQuestions[examId][i].correctOptionIndex */\n      0x02\n      add\n      sload\n        /* \"contracts/exams.sol\":3077:3092  selectedOptions */\n      dup5\n        /* \"contracts/exams.sol\":3093:3094  i */\n      dup3\n        /* \"contracts/exams.sol\":3077:3095  selectedOptions[i] */\n      dup2\n      mload\n      dup2\n      lt\n      tag_78\n      jumpi\n      tag_79\n      tag_80\n      jump\t// in\n    tag_79:\n    tag_78:\n      0x20\n      mul\n      0x20\n      add\n      add\n      mload\n        /* \"contracts/exams.sol\":3077:3158  selectedOptions[i] ==... */\n      sub\n        /* \"contracts/exams.sol\":3056:3245  if (... */\n      tag_81\n      jumpi\n        /* \"contracts/exams.sol\":3200:3213  examQuestions */\n      0x02\n        /* \"contracts/exams.sol\":3200:3221  examQuestions[examId] */\n      0x00\n        /* \"contracts/exams.sol\":3214:3220  examId */\n      dup7\n        /* \"contracts/exams.sol\":3200:3221  examQuestions[examId] */\n      dup2\n      mstore\n      0x20\n      add\n      swap1\n      dup2\n      mstore\n      0x20\n      add\n      0x00\n      keccak256\n        /* \"contracts/exams.sol\":3200:3224  examQuestions[examId][i] */\n      0x00\n        /* \"contracts/exams.sol\":3222:3223  i */\n      dup3\n        /* \"contracts/exams.sol\":3200:3224  examQuestions[examId][i] */\n      dup2\n      mstore\n      0x20\n      add\n      swap1\n      dup2\n      mstore\n      0x20\n      add\n      0x00\n      keccak256\n        /* \"contracts/exams.sol\":3200:3230  examQuestions[examId][i].marks */\n      0x03\n      add\n      sload\n        /* \"contracts/exams.sol\":3191:3230  score += examQuestions[examId][i].marks */\n      dup3\n      tag_82\n      swap2\n      swap1\n      tag_83\n      jump\t// in\n    tag_82:\n      swap2\n      pop\n        /* \"contracts/exams.sol\":3056:3245  if (... */\n    tag_81:\n        /* \"contracts/exams.sol\":3306:3321  selectedOptions */\n      dup4\n        /* \"contracts/exams.sol\":3322:3323  i */\n      dup2\n        /* \"contracts/exams.sol\":3306:3324  selectedOptions[i] */\n      dup2\n      mload\n      dup2\n      lt\n      tag_84\n      jumpi\n      tag_85\n      tag_80\n      jump\t// in\n    tag_85:\n    tag_84:\n      0x20\n      mul\n      0x20\n      add\n      add\n      mload\n        /* \"contracts/exams.sol\":3258:3272  studentAnswers */\n      0x04\n        /* \"contracts/exams.sol\":3258:3280  studentAnswers[examId] */\n      0x00\n        /* \"contracts/exams.sol\":3273:3279  examId */\n      dup8\n        /* \"contracts/exams.sol\":3258:3280  studentAnswers[examId] */\n      dup2\n      mstore\n      0x20\n      add\n      swap1\n      dup2\n      mstore\n      0x20\n      add\n      0x00\n      keccak256\n        /* \"contracts/exams.sol\":3258:3292  studentAnswers[examId][msg.sender] */\n      0x00\n        /* \"contracts/exams.sol\":3281:3291  msg.sender */\n      caller\n        /* \"contracts/exams.sol\":3258:3292  studentAnswers[examId][msg.sender] */\n      0xffffffffffffffffffffffffffffffffffffffff\n      and\n      0xffffffffffffffffffffffffffffffffffffffff\n      and\n      dup2\n      mstore\n      0x20\n      add\n      swap1\n      dup2\n      mstore\n      0x20\n      add\n      0x00\n      keccak256\n        /* \"contracts/exams.sol\":3258:3300  studentAnswers[examId][msg.sender].answers */\n      0x00\n      add\n        /* \"contracts/exams.sol\":3258:3303  studentAnswers[examId][msg.sender].answers[i] */\n      0x00\n        /* \"contracts/exams.sol\":3301:3302  i */\n      dup4\n        /* \"contracts/exams.sol\":3258:3303  studentAnswers[examId][msg.sender].answers[i] */\n      dup2\n      mstore\n      0x20\n      add\n      swap1\n      dup2\n      mstore\n      0x20\n      add\n      0x00\n      keccak256\n        /* \"contracts/exams.sol\":3258:3324  studentAnswers[examId][msg.sender].answers[i] = selectedOptions[i] */\n      dup2\n      swap1\n      sstore\n      pop\n        /* \"contracts/exams.sol\":3037:3040  i++ */\n      dup1\n      dup1\n      0x01\n      add\n      swap2\n      pop\n      pop\n        /* \"contracts/exams.sol\":2989:3335  for (uint256 i = 0; i < selectedOptions.length; i++) {... */\n      jump(tag_75)\n    tag_76:\n      pop\n        /* \"contracts/exams.sol\":3392:3396  true */\n      0x01\n        /* \"contracts/exams.sol\":3345:3359  studentAnswers */\n      0x04\n        /* \"contracts/exams.sol\":3345:3367  studentAnswers[examId] */\n      0x00\n        /* \"contracts/exams.sol\":3360:3366  examId */\n      dup7\n        /* \"contracts/exams.sol\":3345:3367  studentAnswers[examId] */\n      dup2\n      mstore\n      0x20\n      add\n      swap1\n      dup2\n      mstore\n      0x20\n      add\n      0x00\n      keccak256\n        /* \"contracts/exams.sol\":3345:3379  studentAnswers[examId][msg.sender] */\n      0x00\n        /* \"contracts/exams.sol\":3368:3378  msg.sender */\n      caller\n        /* \"contracts/exams.sol\":3345:3379  studentAnswers[examId][msg.sender] */\n      0xffffffffffffffffffffffffffffffffffffffff\n      and\n      0xffffffffffffffffffffffffffffffffffffffff\n      and\n      dup2\n      mstore\n      0x20\n      add\n      swap1\n      dup2\n      mstore\n      0x20\n      add\n      0x00\n      keccak256\n        /* \"contracts/exams.sol\":3345:3389  studentAnswers[examId][msg.sender].submitted */\n      0x01\n      add\n      0x00\n        /* \"contracts/exams.sol\":3345:3396  studentAnswers[examId][msg.sender].submitted = true */\n      0x0100\n      exp\n      dup2\n      sload\n      dup2\n      0xff\n      mul\n      not\n      and\n      swap1\n      dup4\n      iszero\n      iszero\n      mul\n      or\n      swap1\n      sstore\n      pop\n        /* \"contracts/exams.sol\":3449:3454  score */\n      dup1\n        /* \"contracts/exams.sol\":3406:3420  studentAnswers */\n      0x04\n        /* \"contracts/exams.sol\":3406:3428  studentAnswers[examId] */\n      0x00\n        /* \"contracts/exams.sol\":3421:3427  examId */\n      dup7\n        /* \"contracts/exams.sol\":3406:3428  studentAnswers[examId] */\n      dup2\n      mstore\n      0x20\n      add\n      swap1\n      dup2\n      mstore\n      0x20\n      add\n      0x00\n      keccak256\n        /* \"contracts/exams.sol\":3406:3440  studentAnswers[examId][msg.sender] */\n      0x00\n        /* \"contracts/exams.sol\":3429:3439  msg.sender */\n      caller\n        /* \"contracts/exams.sol\":3406:3440  studentAnswers[examId][msg.sender] */\n      0xffffffffffffffffffffffffffffffffffffffff\n      and\n      0xffffffffffffffffffffffffffffffffffffffff\n      and\n      dup2\n      mstore\n      0x20\n      add\n      swap1\n      dup2\n      mstore\n      0x20\n      add\n      0x00\n      keccak256\n        /* \"contracts/exams.sol\":3406:3446  studentAnswers[examId][msg.sender].score */\n      0x02\n      add\n        /* \"contracts/exams.sol\":3406:3454  studentAnswers[examId][msg.sender].score = score */\n      dup2\n      swap1\n      sstore\n      pop\n        /* \"contracts/exams.sol\":2685:3461  {... */\n      pop\n        /* \"contracts/exams.sol\":2564:3461  function submitAnswers(uint256 examId, uint256[] memory selectedOptions)... */\n      pop\n      pop\n      pop\n      jump\t// out\n        /* \"contracts/exams.sol\":774:861  mapping(uint256 => mapping(address => StudentSubmission))... */\n    tag_22:\n      mstore(0x20, 0x04)\n      dup2\n      0x00\n      mstore\n      mstore(0x20, keccak256(0x00, 0x40))\n      dup1\n      0x00\n      mstore\n      keccak256(0x00, 0x40)\n      0x00\n      swap2\n      pop\n      swap2\n      pop\n      pop\n      dup1\n      0x01\n      add\n      0x00\n      swap1\n      sload\n      swap1\n      0x0100\n      exp\n      swap1\n      div\n      0xff\n      and\n      swap1\n      dup1\n      0x02\n      add\n      sload\n      swap1\n      pop\n      dup3\n      jump\t// out\n        /* \"contracts/exams.sol\":902:926  uint256 public examCount */\n    tag_26:\n      sload(0x05)\n      dup2\n      jump\t// out\n        /* \"contracts/exams.sol\":1452:2288  function addQuestion(... */\n    tag_32:\n        /* \"contracts/exams.sol\":986:991  owner */\n      0x00\n      0x00\n      swap1\n      sload\n      swap1\n      0x0100\n      exp\n      swap1\n      div\n      0xffffffffffffffffffffffffffffffffffffffff\n      and\n        /* \"contracts/exams.sol\":972:991  msg.sender == owner */\n      0xffffffffffffffffffffffffffffffffffffffff\n      and\n        /* \"contracts/exams.sol\":972:982  msg.sender */\n      caller\n        /* \"contracts/exams.sol\":972:991  msg.sender == owner */\n      0xffffffffffffffffffffffffffffffffffffffff\n      and\n      eq\n        /* \"contracts/exams.sol\":964:1030  require(msg.sender == owner, \"Only owner can perform this action\") */\n      tag_87\n      jumpi\n      mload(0x40)\n      0x08c379a000000000000000000000000000000000000000000000000000000000\n      dup2\n      mstore\n      0x04\n      add\n      tag_88\n      swap1\n      tag_89\n      jump\t// in\n    tag_88:\n      mload(0x40)\n      dup1\n      swap2\n      sub\n      swap1\n      revert\n    tag_87:\n        /* \"contracts/exams.sol\":1661:1667  examId */\n      dup5\n        /* \"contracts/exams.sol\":1117:1126  examCount */\n      sload(0x05)\n        /* \"contracts/exams.sol\":1108:1114  examId */\n      dup2\n        /* \"contracts/exams.sol\":1108:1126  examId < examCount */\n      lt\n        /* \"contracts/exams.sol\":1100:1150  require(examId < examCount, \"Exam does not exist\") */\n      tag_91\n      jumpi\n      mload(0x40)\n      0x08c379a000000000000000000000000000000000000000000000000000000000\n      dup2\n      mstore\n      0x04\n      add\n      tag_92\n      swap1\n      tag_67\n      jump\t// in\n    tag_92:\n      mload(0x40)\n      dup1\n      swap2\n      sub\n      swap1\n      revert\n    tag_91:\n        /* \"contracts/exams.sol\":1688:1693  exams */\n      0x01\n        /* \"contracts/exams.sol\":1688:1701  exams[examId] */\n      0x00\n        /* \"contracts/exams.sol\":1694:1700  examId */\n      dup8\n        /* \"contracts/exams.sol\":1688:1701  exams[examId] */\n      dup2\n      mstore\n      0x20\n      add\n      swap1\n      dup2\n      mstore\n      0x20\n      add\n      0x00\n      keccak256\n        /* \"contracts/exams.sol\":1688:1711  exams[examId].published */\n      0x01\n      add\n      0x00\n      swap1\n      sload\n      swap1\n      0x0100\n      exp\n      swap1\n      div\n      0xff\n      and\n        /* \"contracts/exams.sol\":1687:1711  !exams[examId].published */\n      iszero\n        /* \"contracts/exams.sol\":1679:1746  require(!exams[examId].published, \"Cannot modify after publishing\") */\n      tag_94\n      jumpi\n      mload(0x40)\n      0x08c379a000000000000000000000000000000000000000000000000000000000\n      dup2\n      mstore\n      0x04\n      add\n      tag_95\n      swap1\n      tag_96\n      jump\t// in\n    tag_95:\n      mload(0x40)\n      dup1\n      swap2\n      sub\n      swap1\n      revert\n    tag_94:\n        /* \"contracts/exams.sol\":1782:1783  2 */\n      0x02\n        /* \"contracts/exams.sol\":1764:1771  options */\n      dup5\n        /* \"contracts/exams.sol\":1764:1778  options.length */\n      mload\n        /* \"contracts/exams.sol\":1764:1783  options.length >= 2 */\n      lt\n      iszero\n        /* \"contracts/exams.sol\":1756:1816  require(options.length >= 2, \"Must have at least 2 options\") */\n      tag_97\n      jumpi\n      mload(0x40)\n      0x08c379a000000000000000000000000000000000000000000000000000000000\n      dup2\n      mstore\n      0x04\n      add\n      tag_98\n      swap1\n      tag_99\n      jump\t// in\n    tag_98:\n      mload(0x40)\n      dup1\n      swap2\n      sub\n      swap1\n      revert\n    tag_97:\n        /* \"contracts/exams.sol\":1868:1875  options */\n      dup4\n        /* \"contracts/exams.sol\":1868:1882  options.length */\n      mload\n        /* \"contracts/exams.sol\":1847:1865  correctOptionIndex */\n      dup4\n        /* \"contracts/exams.sol\":1847:1882  correctOptionIndex < options.length */\n      lt\n        /* \"contracts/exams.sol\":1826:1936  require(... */\n      tag_100\n      jumpi\n      mload(0x40)\n      0x08c379a000000000000000000000000000000000000000000000000000000000\n      dup2\n      mstore\n      0x04\n      add\n      tag_101\n      swap1\n      tag_102\n      jump\t// in\n    tag_101:\n      mload(0x40)\n      dup1\n      swap2\n      sub\n      swap1\n      revert\n    tag_100:\n        /* \"contracts/exams.sol\":1947:1965  uint256 questionId */\n      0x00\n        /* \"contracts/exams.sol\":1968:1981  questionCount */\n      0x03\n        /* \"contracts/exams.sol\":1968:1989  questionCount[examId] */\n      0x00\n        /* \"contracts/exams.sol\":1982:1988  examId */\n      dup9\n        /* \"contracts/exams.sol\":1968:1989  questionCount[examId] */\n      dup2\n      mstore\n      0x20\n      add\n      swap1\n      dup2\n      mstore\n      0x20\n      add\n      0x00\n      keccak256\n      sload\n        /* \"contracts/exams.sol\":1947:1989  uint256 questionId = questionCount[examId] */\n      swap1\n      pop\n        /* \"contracts/exams.sol\":2036:2204  Question({... */\n      mload(0x40)\n      dup1\n      0x80\n      add\n      0x40\n      mstore\n      dup1\n        /* \"contracts/exams.sol\":2073:2085  questionText */\n      dup8\n        /* \"contracts/exams.sol\":2036:2204  Question({... */\n      dup2\n      mstore\n      0x20\n      add\n        /* \"contracts/exams.sol\":2108:2115  options */\n      dup7\n        /* \"contracts/exams.sol\":2036:2204  Question({... */\n      dup2\n      mstore\n      0x20\n      add\n        /* \"contracts/exams.sol\":2149:2167  correctOptionIndex */\n      dup6\n        /* \"contracts/exams.sol\":2036:2204  Question({... */\n      dup2\n      mstore\n      0x20\n      add\n        /* \"contracts/exams.sol\":2188:2193  marks */\n      dup5\n        /* \"contracts/exams.sol\":2036:2204  Question({... */\n      dup2\n      mstore\n      pop\n        /* \"contracts/exams.sol\":2000:2013  examQuestions */\n      0x02\n        /* \"contracts/exams.sol\":2000:2021  examQuestions[examId] */\n      0x00\n        /* \"contracts/exams.sol\":2014:2020  examId */\n      dup10\n        /* \"contracts/exams.sol\":2000:2021  examQuestions[examId] */\n      dup2\n      mstore\n      0x20\n      add\n      swap1\n      dup2\n      mstore\n      0x20\n      add\n      0x00\n      keccak256\n        /* \"contracts/exams.sol\":2000:2033  examQuestions[examId][questionId] */\n      0x00\n        /* \"contracts/exams.sol\":2022:2032  questionId */\n      dup4\n        /* \"contracts/exams.sol\":2000:2033  examQuestions[examId][questionId] */\n      dup2\n      mstore\n      0x20\n      add\n      swap1\n      dup2\n      mstore\n      0x20\n      add\n      0x00\n      keccak256\n        /* \"contracts/exams.sol\":2000:2204  examQuestions[examId][questionId] = Question({... */\n      0x00\n      dup3\n      add\n      mload\n      dup2\n      0x00\n      add\n      swap1\n      dup2\n      tag_103\n      swap2\n      swap1\n      tag_104\n      jump\t// in\n    tag_103:\n      pop\n      0x20\n      dup3\n      add\n      mload\n      dup2\n      0x01\n      add\n      swap1\n      dup1\n      mload\n      swap1\n      0x20\n      add\n      swap1\n      tag_105\n      swap3\n      swap2\n      swap1\n      tag_106\n      jump\t// in\n    tag_105:\n      pop\n      0x40\n      dup3\n      add\n      mload\n      dup2\n      0x02\n      add\n      sstore\n      0x60\n      dup3\n      add\n      mload\n      dup2\n      0x03\n      add\n      sstore\n      swap1\n      pop\n      pop\n        /* \"contracts/exams.sol\":2215:2228  questionCount */\n      0x03\n        /* \"contracts/exams.sol\":2215:2236  questionCount[examId] */\n      0x00\n        /* \"contracts/exams.sol\":2229:2235  examId */\n      dup9\n        /* \"contracts/exams.sol\":2215:2236  questionCount[examId] */\n      dup2\n      mstore\n      0x20\n      add\n      swap1\n      dup2\n      mstore\n      0x20\n      add\n      0x00\n      keccak256\n      0x00\n        /* \"contracts/exams.sol\":2215:2238  questionCount[examId]++ */\n      dup2\n      sload\n      dup1\n      swap3\n      swap2\n      swap1\n      tag_107\n      swap1\n      tag_108\n      jump\t// in\n    tag_107:\n      swap2\n      swap1\n      pop\n      sstore\n      pop\n        /* \"contracts/exams.sol\":2276:2281  marks */\n      dup3\n        /* \"contracts/exams.sol\":2248:2253  exams */\n      0x01\n        /* \"contracts/exams.sol\":2248:2261  exams[examId] */\n      0x00\n        /* \"contracts/exams.sol\":2254:2260  examId */\n      dup10\n        /* \"contracts/exams.sol\":2248:2261  exams[examId] */\n      dup2\n      mstore\n      0x20\n      add\n      swap1\n      dup2\n      mstore\n      0x20\n      add\n      0x00\n      keccak256\n        /* \"contracts/exams.sol\":2248:2272  exams[examId].totalMarks */\n      0x02\n      add\n      0x00\n        /* \"contracts/exams.sol\":2248:2281  exams[examId].totalMarks += marks */\n      dup3\n      dup3\n      sload\n      tag_109\n      swap2\n      swap1\n      tag_83\n      jump\t// in\n    tag_109:\n      swap3\n      pop\n      pop\n      dup2\n      swap1\n      sstore\n      pop\n        /* \"contracts/exams.sol\":1669:2288  {... */\n      pop\n        /* \"contracts/exams.sol\":1040:1041  _ */\n      pop\n        /* \"contracts/exams.sol\":1452:2288  function addQuestion(... */\n      pop\n      pop\n      pop\n      pop\n      pop\n      jump\t// out\n        /* \"contracts/exams.sol\":2294:2558  function publishExam(uint256 examId) external onlyOwner examExists(examId) {... */\n    tag_36:\n        /* \"contracts/exams.sol\":986:991  owner */\n      0x00\n      0x00\n      swap1\n      sload\n      swap1\n      0x0100\n      exp\n      swap1\n      div\n      0xffffffffffffffffffffffffffffffffffffffff\n      and\n        /* \"contracts/exams.sol\":972:991  msg.sender == owner */\n      0xffffffffffffffffffffffffffffffffffffffff\n      and\n        /* \"contracts/exams.sol\":972:982  msg.sender */\n      caller\n        /* \"contracts/exams.sol\":972:991  msg.sender == owner */\n      0xffffffffffffffffffffffffffffffffffffffff\n      and\n      eq\n        /* \"contracts/exams.sol\":964:1030  require(msg.sender == owner, \"Only owner can perform this action\") */\n      tag_111\n      jumpi\n      mload(0x40)\n      0x08c379a000000000000000000000000000000000000000000000000000000000\n      dup2\n      mstore\n      0x04\n      add\n      tag_112\n      swap1\n      tag_89\n      jump\t// in\n    tag_112:\n      mload(0x40)\n      dup1\n      swap2\n      sub\n      swap1\n      revert\n    tag_111:\n        /* \"contracts/exams.sol\":2361:2367  examId */\n      dup1\n        /* \"contracts/exams.sol\":1117:1126  examCount */\n      sload(0x05)\n        /* \"contracts/exams.sol\":1108:1114  examId */\n      dup2\n        /* \"contracts/exams.sol\":1108:1126  examId < examCount */\n      lt\n        /* \"contracts/exams.sol\":1100:1150  require(examId < examCount, \"Exam does not exist\") */\n      tag_114\n      jumpi\n      mload(0x40)\n      0x08c379a000000000000000000000000000000000000000000000000000000000\n      dup2\n      mstore\n      0x04\n      add\n      tag_115\n      swap1\n      tag_67\n      jump\t// in\n    tag_115:\n      mload(0x40)\n      dup1\n      swap2\n      sub\n      swap1\n      revert\n    tag_114:\n        /* \"contracts/exams.sol\":2388:2393  exams */\n      0x01\n        /* \"contracts/exams.sol\":2388:2401  exams[examId] */\n      0x00\n        /* \"contracts/exams.sol\":2394:2400  examId */\n      dup4\n        /* \"contracts/exams.sol\":2388:2401  exams[examId] */\n      dup2\n      mstore\n      0x20\n      add\n      swap1\n      dup2\n      mstore\n      0x20\n      add\n      0x00\n      keccak256\n        /* \"contracts/exams.sol\":2388:2411  exams[examId].published */\n      0x01\n      add\n      0x00\n      swap1\n      sload\n      swap1\n      0x0100\n      exp\n      swap1\n      div\n      0xff\n      and\n        /* \"contracts/exams.sol\":2387:2411  !exams[examId].published */\n      iszero\n        /* \"contracts/exams.sol\":2379:2438  require(!exams[examId].published, \"Exam already published\") */\n      tag_117\n      jumpi\n      mload(0x40)\n      0x08c379a000000000000000000000000000000000000000000000000000000000\n      dup2\n      mstore\n      0x04\n      add\n      tag_118\n      swap1\n      tag_119\n      jump\t// in\n    tag_118:\n      mload(0x40)\n      dup1\n      swap2\n      sub\n      swap1\n      revert\n    tag_117:\n        /* \"contracts/exams.sol\":2480:2481  0 */\n      0x00\n        /* \"contracts/exams.sol\":2456:2469  questionCount */\n      0x03\n        /* \"contracts/exams.sol\":2456:2477  questionCount[examId] */\n      0x00\n        /* \"contracts/exams.sol\":2470:2476  examId */\n      dup5\n        /* \"contracts/exams.sol\":2456:2477  questionCount[examId] */\n      dup2\n      mstore\n      0x20\n      add\n      swap1\n      dup2\n      mstore\n      0x20\n      add\n      0x00\n      keccak256\n      sload\n        /* \"contracts/exams.sol\":2456:2481  questionCount[examId] > 0 */\n      gt\n        /* \"contracts/exams.sol\":2448:2510  require(questionCount[examId] > 0, \"Exam must have questions\") */\n      tag_120\n      jumpi\n      mload(0x40)\n      0x08c379a000000000000000000000000000000000000000000000000000000000\n      dup2\n      mstore\n      0x04\n      add\n      tag_121\n      swap1\n      tag_122\n      jump\t// in\n    tag_121:\n      mload(0x40)\n      dup1\n      swap2\n      sub\n      swap1\n      revert\n    tag_120:\n        /* \"contracts/exams.sol\":2547:2551  true */\n      0x01\n        /* \"contracts/exams.sol\":2521:2526  exams */\n      dup1\n        /* \"contracts/exams.sol\":2521:2534  exams[examId] */\n      0x00\n        /* \"contracts/exams.sol\":2527:2533  examId */\n      dup5\n        /* \"contracts/exams.sol\":2521:2534  exams[examId] */\n      dup2\n      mstore\n      0x20\n      add\n      swap1\n      dup2\n      mstore\n      0x20\n      add\n      0x00\n      keccak256\n        /* \"contracts/exams.sol\":2521:2544  exams[examId].published */\n      0x01\n      add\n      0x00\n        /* \"contracts/exams.sol\":2521:2551  exams[examId].published = true */\n      0x0100\n      exp\n      dup2\n      sload\n      dup2\n      0xff\n      mul\n      not\n      and\n      swap1\n      dup4\n      iszero\n      iszero\n      mul\n      or\n      swap1\n      sstore\n      pop\n        /* \"contracts/exams.sol\":1040:1041  _ */\n      pop\n        /* \"contracts/exams.sol\":2294:2558  function publishExam(uint256 examId) external onlyOwner examExists(examId) {... */\n      pop\n      jump\t// out\n        /* \"contracts/exams.sol\":533:570  mapping(uint256 => Exam) public exams */\n    tag_39:\n      mstore(0x20, 0x01)\n      dup1\n      0x00\n      mstore\n      keccak256(0x00, 0x40)\n      0x00\n      swap2\n      pop\n      swap1\n      pop\n      dup1\n      0x00\n      add\n      dup1\n      sload\n      tag_123\n      swap1\n      tag_124\n      jump\t// in\n    tag_123:\n      dup1\n      0x1f\n      add\n      0x20\n      dup1\n      swap2\n      div\n      mul\n      0x20\n      add\n      mload(0x40)\n      swap1\n      dup2\n      add\n      0x40\n      mstore\n      dup1\n      swap3\n      swap2\n      swap1\n      dup2\n      dup2\n      mstore\n      0x20\n      add\n      dup3\n      dup1\n      sload\n      tag_125\n      swap1\n      tag_124\n      jump\t// in\n    tag_125:\n      dup1\n      iszero\n      tag_126\n      jumpi\n      dup1\n      0x1f\n      lt\n      tag_127\n      jumpi\n      0x0100\n      dup1\n      dup4\n      sload\n      div\n      mul\n      dup4\n      mstore\n      swap2\n      0x20\n      add\n      swap2\n      jump(tag_126)\n    tag_127:\n      dup3\n      add\n      swap2\n      swap1\n      0x00\n      mstore\n      keccak256(0x00, 0x20)\n      swap1\n    tag_128:\n      dup2\n      sload\n      dup2\n      mstore\n      swap1\n      0x01\n      add\n      swap1\n      0x20\n      add\n      dup1\n      dup4\n      gt\n      tag_128\n      jumpi\n      dup3\n      swap1\n      sub\n      0x1f\n      and\n      dup3\n      add\n      swap2\n    tag_126:\n      pop\n      pop\n      pop\n      pop\n      pop\n      swap1\n      dup1\n      0x01\n      add\n      0x00\n      swap1\n      sload\n      swap1\n      0x0100\n      exp\n      swap1\n      div\n      0xff\n      and\n      swap1\n      dup1\n      0x02\n      add\n      sload\n      swap1\n      pop\n      dup4\n      jump\t// out\n        /* \"contracts/exams.sol\":576:645  mapping(uint256 => mapping(uint256 => Question)) public examQuestions */\n    tag_45:\n      mstore(0x20, 0x02)\n      dup2\n      0x00\n      mstore\n      mstore(0x20, keccak256(0x00, 0x40))\n      dup1\n      0x00\n      mstore\n      keccak256(0x00, 0x40)\n      0x00\n      swap2\n      pop\n      swap2\n      pop\n      pop\n      dup1\n      0x00\n      add\n      dup1\n      sload\n      tag_129\n      swap1\n      tag_124\n      jump\t// in\n    tag_129:\n      dup1\n      0x1f\n      add\n      0x20\n      dup1\n      swap2\n      div\n      mul\n      0x20\n      add\n      mload(0x40)\n      swap1\n      dup2\n      add\n      0x40\n      mstore\n      dup1\n      swap3\n      swap2\n      swap1\n      dup2\n      dup2\n      mstore\n      0x20\n      add\n      dup3\n      dup1\n      sload\n      tag_130\n      swap1\n      tag_124\n      jump\t// in\n    tag_130:\n      dup1\n      iszero\n      tag_131\n      jumpi\n      dup1\n      0x1f\n      lt\n      tag_132\n      jumpi\n      0x0100\n      dup1\n      dup4\n      sload\n      div\n      mul\n      dup4\n      mstore\n      swap2\n      0x20\n      add\n      swap2\n      jump(tag_131)\n    tag_132:\n      dup3\n      add\n      swap2\n      swap1\n      0x00\n      mstore\n      keccak256(0x00, 0x20)\n      swap1\n    tag_133:\n      dup2\n      sload\n      dup2\n      mstore\n      swap1\n      0x01\n      add\n      swap1\n      0x20\n      add\n      dup1\n      dup4\n      gt\n      tag_133\n      jumpi\n      dup3\n      swap1\n      sub\n      0x1f\n      and\n      dup3\n      add\n      swap2\n    tag_131:\n      pop\n      pop\n      pop\n      pop\n      pop\n      swap1\n      dup1\n      0x02\n      add\n      sload\n      swap1\n      dup1\n      0x03\n      add\n      sload\n      swap1\n      pop\n      dup4\n      jump\t// out\n        /* \"contracts/exams.sol\":97:117  address public owner */\n    tag_49:\n      0x00\n      0x00\n      swap1\n      sload\n      swap1\n      0x0100\n      exp\n      swap1\n      div\n      0xffffffffffffffffffffffffffffffffffffffff\n      and\n      dup2\n      jump\t// out\n        /* \"contracts/exams.sol\":1229:1446  function createExam(string memory title) external onlyOwner {... */\n    tag_55:\n        /* \"contracts/exams.sol\":986:991  owner */\n      0x00\n      0x00\n      swap1\n      sload\n      swap1\n      0x0100\n      exp\n      swap1\n      div\n      0xffffffffffffffffffffffffffffffffffffffff\n      and\n        /* \"contracts/exams.sol\":972:991  msg.sender == owner */\n      0xffffffffffffffffffffffffffffffffffffffff\n      and\n        /* \"contracts/exams.sol\":972:982  msg.sender */\n      caller\n        /* \"contracts/exams.sol\":972:991  msg.sender == owner */\n      0xffffffffffffffffffffffffffffffffffffffff\n      and\n      eq\n        /* \"contracts/exams.sol\":964:1030  require(msg.sender == owner, \"Only owner can perform this action\") */\n      tag_135\n      jumpi\n      mload(0x40)\n      0x08c379a000000000000000000000000000000000000000000000000000000000\n      dup2\n      mstore\n      0x04\n      add\n      tag_136\n      swap1\n      tag_89\n      jump\t// in\n    tag_136:\n      mload(0x40)\n      dup1\n      swap2\n      sub\n      swap1\n      revert\n    tag_135:\n        /* \"contracts/exams.sol\":1318:1417  Exam({... */\n      mload(0x40)\n      dup1\n      0x60\n      add\n      0x40\n      mstore\n      dup1\n        /* \"contracts/exams.sol\":1344:1349  title */\n      dup3\n        /* \"contracts/exams.sol\":1318:1417  Exam({... */\n      dup2\n      mstore\n      0x20\n      add\n        /* \"contracts/exams.sol\":1374:1379  false */\n      0x00\n        /* \"contracts/exams.sol\":1318:1417  Exam({... */\n      iszero\n      iszero\n      dup2\n      mstore\n      0x20\n      add\n        /* \"contracts/exams.sol\":1405:1406  0 */\n      0x00\n        /* \"contracts/exams.sol\":1318:1417  Exam({... */\n      dup2\n      mstore\n      pop\n        /* \"contracts/exams.sol\":1299:1304  exams */\n      0x01\n        /* \"contracts/exams.sol\":1299:1315  exams[examCount] */\n      0x00\n        /* \"contracts/exams.sol\":1305:1314  examCount */\n      sload(0x05)\n        /* \"contracts/exams.sol\":1299:1315  exams[examCount] */\n      dup2\n      mstore\n      0x20\n      add\n      swap1\n      dup2\n      mstore\n      0x20\n      add\n      0x00\n      keccak256\n        /* \"contracts/exams.sol\":1299:1417  exams[examCount] = Exam({... */\n      0x00\n      dup3\n      add\n      mload\n      dup2\n      0x00\n      add\n      swap1\n      dup2\n      tag_138\n      swap2\n      swap1\n      tag_104\n      jump\t// in\n    tag_138:\n      pop\n      0x20\n      dup3\n      add\n      mload\n      dup2\n      0x01\n      add\n      exp(0x0100, 0x00)\n      dup2\n      sload\n      dup2\n      0xff\n      mul\n      not\n      and\n      swap1\n      dup4\n      iszero\n      iszero\n      mul\n      or\n      swap1\n      sstore\n      pop\n      0x40\n      dup3\n      add\n      mload\n      dup2\n      0x02\n      add\n      sstore\n      swap1\n      pop\n      pop\n        /* \"contracts/exams.sol\":1428:1437  examCount */\n      0x05\n      0x00\n        /* \"contracts/exams.sol\":1428:1439  examCount++ */\n      dup2\n      sload\n      dup1\n      swap3\n      swap2\n      swap1\n      tag_139\n      swap1\n      tag_108\n      jump\t// in\n    tag_139:\n      swap2\n      swap1\n      pop\n      sstore\n      pop\n        /* \"contracts/exams.sol\":1229:1446  function createExam(string memory title) external onlyOwner {... */\n      pop\n      jump\t// out\n        /* \"contracts/exams.sol\":3467:3805  function getStudentScore(uint256 examId, address student)... */\n    tag_58:\n        /* \"contracts/exams.sol\":3599:3606  uint256 */\n      0x00\n        /* \"contracts/exams.sol\":3574:3580  examId */\n      dup3\n        /* \"contracts/exams.sol\":1117:1126  examCount */\n      sload(0x05)\n        /* \"contracts/exams.sol\":1108:1114  examId */\n      dup2\n        /* \"contracts/exams.sol\":1108:1126  examId < examCount */\n      lt\n        /* \"contracts/exams.sol\":1100:1150  require(examId < examCount, \"Exam does not exist\") */\n      tag_141\n      jumpi\n      mload(0x40)\n      0x08c379a000000000000000000000000000000000000000000000000000000000\n      dup2\n      mstore\n      0x04\n      add\n      tag_142\n      swap1\n      tag_67\n      jump\t// in\n    tag_142:\n      mload(0x40)\n      dup1\n      swap2\n      sub\n      swap1\n      revert\n    tag_141:\n        /* \"contracts/exams.sol\":3643:3657  studentAnswers */\n      0x04\n        /* \"contracts/exams.sol\":3643:3665  studentAnswers[examId] */\n      0x00\n        /* \"contracts/exams.sol\":3658:3664  examId */\n      dup6\n        /* \"contracts/exams.sol\":3643:3665  studentAnswers[examId] */\n      dup2\n      mstore\n      0x20\n      add\n      swap1\n      dup2\n      mstore\n      0x20\n      add\n      0x00\n      keccak256\n        /* \"contracts/exams.sol\":3643:3674  studentAnswers[examId][student] */\n      0x00\n        /* \"contracts/exams.sol\":3666:3673  student */\n      dup5\n        /* \"contracts/exams.sol\":3643:3674  studentAnswers[examId][student] */\n      0xffffffffffffffffffffffffffffffffffffffff\n      and\n      0xffffffffffffffffffffffffffffffffffffffff\n      and\n      dup2\n      mstore\n      0x20\n      add\n      swap1\n      dup2\n      mstore\n      0x20\n      add\n      0x00\n      keccak256\n        /* \"contracts/exams.sol\":3643:3684  studentAnswers[examId][student].submitted */\n      0x01\n      add\n      0x00\n      swap1\n      sload\n      swap1\n      0x0100\n      exp\n      swap1\n      div\n      0xff\n      and\n        /* \"contracts/exams.sol\":3622:3744  require(... */\n      tag_144\n      jumpi\n      mload(0x40)\n      0x08c379a000000000000000000000000000000000000000000000000000000000\n      dup2\n      mstore\n      0x04\n      add\n      tag_145\n      swap1\n      tag_146\n      jump\t// in\n    tag_145:\n      mload(0x40)\n      dup1\n      swap2\n      sub\n      swap1\n      revert\n    tag_144:\n        /* \"contracts/exams.sol\":3761:3775  studentAnswers */\n      0x04\n        /* \"contracts/exams.sol\":3761:3783  studentAnswers[examId] */\n      0x00\n        /* \"contracts/exams.sol\":3776:3782  examId */\n      dup6\n        /* \"contracts/exams.sol\":3761:3783  studentAnswers[examId] */\n      dup2\n      mstore\n      0x20\n      add\n      swap1\n      dup2\n      mstore\n      0x20\n      add\n      0x00\n      keccak256\n        /* \"contracts/exams.sol\":3761:3792  studentAnswers[examId][student] */\n      0x00\n        /* \"contracts/exams.sol\":3784:3791  student */\n      dup5\n        /* \"contracts/exams.sol\":3761:3792  studentAnswers[examId][student] */\n      0xffffffffffffffffffffffffffffffffffffffff\n      and\n      0xffffffffffffffffffffffffffffffffffffffff\n      and\n      dup2\n      mstore\n      0x20\n      add\n      swap1\n      dup2\n      mstore\n      0x20\n      add\n      0x00\n      keccak256\n        /* \"contracts/exams.sol\":3761:3798  studentAnswers[examId][student].score */\n      0x02\n      add\n      sload\n        /* \"contracts/exams.sol\":3754:3798  return studentAnswers[examId][student].score */\n      swap2\n      pop\n        /* \"contracts/exams.sol\":3467:3805  function getStudentScore(uint256 examId, address student)... */\n      pop\n      swap3\n      swap2\n      pop\n      pop\n      jump\t// out\n        /* \"contracts/exams.sol\":687:735  mapping(uint256 => uint256) public questionCount */\n    tag_62:\n      mstore(0x20, 0x03)\n      dup1\n      0x00\n      mstore\n      keccak256(0x00, 0x40)\n      0x00\n      swap2\n      pop\n      swap1\n      pop\n      sload\n      dup2\n      jump\t// out\n    tag_106:\n      dup3\n      dup1\n      sload\n      dup3\n      dup3\n      sstore\n      swap1\n      0x00\n      mstore\n      keccak256(0x00, 0x20)\n      swap1\n      dup2\n      add\n      swap3\n      dup3\n      iszero\n      tag_147\n      jumpi\n      swap2\n      0x20\n      mul\n      dup3\n      add\n    tag_148:\n      dup3\n      dup2\n      gt\n      iszero\n      tag_149\n      jumpi\n      dup3\n      mload\n      dup3\n      swap1\n      dup2\n      tag_150\n      swap2\n      swap1\n      tag_104\n      jump\t// in\n    tag_150:\n      pop\n      swap2\n      0x20\n      add\n      swap2\n      swap1\n      0x01\n      add\n      swap1\n      jump(tag_148)\n    tag_149:\n    tag_147:\n      pop\n      swap1\n      pop\n      tag_151\n      swap2\n      swap1\n      tag_152\n      jump\t// in\n    tag_151:\n      pop\n      swap1\n      jump\t// out\n    tag_152:\n    tag_153:\n      dup1\n      dup3\n      gt\n      iszero\n      tag_154\n      jumpi\n      0x00\n      dup2\n      dup2\n      tag_155\n      swap2\n      swap1\n      tag_156\n      jump\t// in\n    tag_155:\n      pop\n      0x01\n      add\n      jump(tag_153)\n    tag_154:\n      pop\n      swap1\n      jump\t// out\n    tag_156:\n      pop\n      dup1\n      sload\n      tag_157\n      swap1\n      tag_124\n      jump\t// in\n    tag_157:\n      0x00\n      dup3\n      sstore\n      dup1\n      0x1f\n      lt\n      tag_159\n      jumpi\n      pop\n      jump(tag_158)\n    tag_159:\n      0x1f\n      add\n      0x20\n      swap1\n      div\n      swap1\n      0x00\n      mstore\n      keccak256(0x00, 0x20)\n      swap1\n      dup2\n      add\n      swap1\n      tag_160\n      swap2\n      swap1\n      tag_161\n      jump\t// in\n    tag_160:\n    tag_158:\n      pop\n      jump\t// out\n    tag_161:\n    tag_162:\n      dup1\n      dup3\n      gt\n      iszero\n      tag_163\n      jumpi\n      0x00\n      dup2\n      0x00\n      swap1\n      sstore\n      pop\n      0x01\n      add\n      jump(tag_162)\n    tag_163:\n      pop\n      swap1\n      jump\t// out\n        /* \"#utility.yul\":7:82   */\n    tag_164:\n        /* \"#utility.yul\":40:46   */\n      0x00\n        /* \"#utility.yul\":73:75   */\n      0x40\n        /* \"#utility.yul\":67:76   */\n      mload\n        /* \"#utility.yul\":57:76   */\n      swap1\n      pop\n        /* \"#utility.yul\":7:82   */\n      swap1\n      jump\t// out\n        /* \"#utility.yul\":88:205   */\n    tag_165:\n        /* \"#utility.yul\":197:198   */\n      0x00\n        /* \"#utility.yul\":194:195   */\n      0x00\n        /* \"#utility.yul\":187:199   */\n      revert\n        /* \"#utility.yul\":211:328   */\n    tag_166:\n        /* \"#utility.yul\":320:321   */\n      0x00\n        /* \"#utility.yul\":317:318   */\n      0x00\n        /* \"#utility.yul\":310:322   */\n      revert\n        /* \"#utility.yul\":334:411   */\n    tag_167:\n        /* \"#utility.yul\":371:378   */\n      0x00\n        /* \"#utility.yul\":400:405   */\n      dup2\n        /* \"#utility.yul\":389:405   */\n      swap1\n      pop\n        /* \"#utility.yul\":334:411   */\n      swap2\n      swap1\n      pop\n      jump\t// out\n        /* \"#utility.yul\":417:539   */\n    tag_168:\n        /* \"#utility.yul\":490:514   */\n      tag_242\n        /* \"#utility.yul\":508:513   */\n      dup2\n        /* \"#utility.yul\":490:514   */\n      tag_167\n      jump\t// in\n    tag_242:\n        /* \"#utility.yul\":483:488   */\n      dup2\n        /* \"#utility.yul\":480:515   */\n      eq\n        /* \"#utility.yul\":470:533   */\n      tag_243\n      jumpi\n        /* \"#utility.yul\":529:530   */\n      0x00\n        /* \"#utility.yul\":526:527   */\n      0x00\n        /* \"#utility.yul\":519:531   */\n      revert\n        /* \"#utility.yul\":470:533   */\n    tag_243:\n        /* \"#utility.yul\":417:539   */\n      pop\n      jump\t// out\n        /* \"#utility.yul\":545:684   */\n    tag_169:\n        /* \"#utility.yul\":591:596   */\n      0x00\n        /* \"#utility.yul\":629:635   */\n      dup2\n        /* \"#utility.yul\":616:636   */\n      calldataload\n        /* \"#utility.yul\":607:636   */\n      swap1\n      pop\n        /* \"#utility.yul\":645:678   */\n      tag_245\n        /* \"#utility.yul\":672:677   */\n      dup2\n        /* \"#utility.yul\":645:678   */\n      tag_168\n      jump\t// in\n    tag_245:\n        /* \"#utility.yul\":545:684   */\n      swap3\n      swap2\n      pop\n      pop\n      jump\t// out\n        /* \"#utility.yul\":690:807   */\n    tag_170:\n        /* \"#utility.yul\":799:800   */\n      0x00\n        /* \"#utility.yul\":796:797   */\n      0x00\n        /* \"#utility.yul\":789:801   */\n      revert\n        /* \"#utility.yul\":813:915   */\n    tag_171:\n        /* \"#utility.yul\":854:860   */\n      0x00\n        /* \"#utility.yul\":905:907   */\n      0x1f\n        /* \"#utility.yul\":901:908   */\n      not\n        /* \"#utility.yul\":896:898   */\n      0x1f\n        /* \"#utility.yul\":889:894   */\n      dup4\n        /* \"#utility.yul\":885:899   */\n      add\n        /* \"#utility.yul\":881:909   */\n      and\n        /* \"#utility.yul\":871:909   */\n      swap1\n      pop\n        /* \"#utility.yul\":813:915   */\n      swap2\n      swap1\n      pop\n      jump\t// out\n        /* \"#utility.yul\":921:1101   */\n    tag_172:\n        /* \"#utility.yul\":969:1046   */\n      0x4e487b7100000000000000000000000000000000000000000000000000000000\n        /* \"#utility.yul\":966:967   */\n      0x00\n        /* \"#utility.yul\":959:1047   */\n      mstore\n        /* \"#utility.yul\":1066:1070   */\n      0x41\n        /* \"#utility.yul\":1063:1064   */\n      0x04\n        /* \"#utility.yul\":1056:1071   */\n      mstore\n        /* \"#utility.yul\":1090:1094   */\n      0x24\n        /* \"#utility.yul\":1087:1088   */\n      0x00\n        /* \"#utility.yul\":1080:1095   */\n      revert\n        /* \"#utility.yul\":1107:1388   */\n    tag_173:\n        /* \"#utility.yul\":1190:1217   */\n      tag_250\n        /* \"#utility.yul\":1212:1216   */\n      dup3\n        /* \"#utility.yul\":1190:1217   */\n      tag_171\n      jump\t// in\n    tag_250:\n        /* \"#utility.yul\":1182:1188   */\n      dup2\n        /* \"#utility.yul\":1178:1218   */\n      add\n        /* \"#utility.yul\":1320:1326   */\n      dup2\n        /* \"#utility.yul\":1308:1318   */\n      dup2\n        /* \"#utility.yul\":1305:1327   */\n      lt\n        /* \"#utility.yul\":1284:1302   */\n      0xffffffffffffffff\n        /* \"#utility.yul\":1272:1282   */\n      dup3\n        /* \"#utility.yul\":1269:1303   */\n      gt\n        /* \"#utility.yul\":1266:1328   */\n      or\n        /* \"#utility.yul\":1263:1351   */\n      iszero\n      tag_251\n      jumpi\n        /* \"#utility.yul\":1331:1349   */\n      tag_252\n      tag_172\n      jump\t// in\n    tag_252:\n        /* \"#utility.yul\":1263:1351   */\n    tag_251:\n        /* \"#utility.yul\":1371:1381   */\n      dup1\n        /* \"#utility.yul\":1367:1369   */\n      0x40\n        /* \"#utility.yul\":1360:1382   */\n      mstore\n        /* \"#utility.yul\":1150:1388   */\n      pop\n        /* \"#utility.yul\":1107:1388   */\n      pop\n      pop\n      jump\t// out\n        /* \"#utility.yul\":1394:1523   */\n    tag_174:\n        /* \"#utility.yul\":1428:1434   */\n      0x00\n        /* \"#utility.yul\":1455:1475   */\n      tag_254\n      tag_164\n      jump\t// in\n    tag_254:\n        /* \"#utility.yul\":1445:1475   */\n      swap1\n      pop\n        /* \"#utility.yul\":1484:1517   */\n      tag_255\n        /* \"#utility.yul\":1512:1516   */\n      dup3\n        /* \"#utility.yul\":1504:1510   */\n      dup3\n        /* \"#utility.yul\":1484:1517   */\n      tag_173\n      jump\t// in\n    tag_255:\n        /* \"#utility.yul\":1394:1523   */\n      swap2\n      swap1\n      pop\n      jump\t// out\n        /* \"#utility.yul\":1529:1840   */\n    tag_175:\n        /* \"#utility.yul\":1606:1610   */\n      0x00\n        /* \"#utility.yul\":1696:1714   */\n      0xffffffffffffffff\n        /* \"#utility.yul\":1688:1694   */\n      dup3\n        /* \"#utility.yul\":1685:1715   */\n      gt\n        /* \"#utility.yul\":1682:1738   */\n      iszero\n      tag_257\n      jumpi\n        /* \"#utility.yul\":1718:1736   */\n      tag_258\n      tag_172\n      jump\t// in\n    tag_258:\n        /* \"#utility.yul\":1682:1738   */\n    tag_257:\n        /* \"#utility.yul\":1768:1772   */\n      0x20\n        /* \"#utility.yul\":1760:1766   */\n      dup3\n        /* \"#utility.yul\":1756:1773   */\n      mul\n        /* \"#utility.yul\":1748:1773   */\n      swap1\n      pop\n        /* \"#utility.yul\":1828:1832   */\n      0x20\n        /* \"#utility.yul\":1822:1826   */\n      dup2\n        /* \"#utility.yul\":1818:1833   */\n      add\n        /* \"#utility.yul\":1810:1833   */\n      swap1\n      pop\n        /* \"#utility.yul\":1529:1840   */\n      swap2\n      swap1\n      pop\n      jump\t// out\n        /* \"#utility.yul\":1846:1963   */\n    tag_176:\n        /* \"#utility.yul\":1955:1956   */\n      0x00\n        /* \"#utility.yul\":1952:1953   */\n      0x00\n        /* \"#utility.yul\":1945:1957   */\n      revert\n        /* \"#utility.yul\":1986:2696   */\n    tag_177:\n        /* \"#utility.yul\":2082:2087   */\n      0x00\n        /* \"#utility.yul\":2107:2188   */\n      tag_261\n        /* \"#utility.yul\":2123:2187   */\n      tag_262\n        /* \"#utility.yul\":2180:2186   */\n      dup5\n        /* \"#utility.yul\":2123:2187   */\n      tag_175\n      jump\t// in\n    tag_262:\n        /* \"#utility.yul\":2107:2188   */\n      tag_174\n      jump\t// in\n    tag_261:\n        /* \"#utility.yul\":2098:2188   */\n      swap1\n      pop\n        /* \"#utility.yul\":2208:2213   */\n      dup1\n        /* \"#utility.yul\":2237:2243   */\n      dup4\n        /* \"#utility.yul\":2230:2235   */\n      dup3\n        /* \"#utility.yul\":2223:2244   */\n      mstore\n        /* \"#utility.yul\":2271:2275   */\n      0x20\n        /* \"#utility.yul\":2264:2269   */\n      dup3\n        /* \"#utility.yul\":2260:2276   */\n      add\n        /* \"#utility.yul\":2253:2276   */\n      swap1\n      pop\n        /* \"#utility.yul\":2324:2328   */\n      0x20\n        /* \"#utility.yul\":2316:2322   */\n      dup5\n        /* \"#utility.yul\":2312:2329   */\n      mul\n        /* \"#utility.yul\":2304:2310   */\n      dup4\n        /* \"#utility.yul\":2300:2330   */\n      add\n        /* \"#utility.yul\":2353:2356   */\n      dup6\n        /* \"#utility.yul\":2345:2351   */\n      dup2\n        /* \"#utility.yul\":2342:2357   */\n      gt\n        /* \"#utility.yul\":2339:2461   */\n      iszero\n      tag_263\n      jumpi\n        /* \"#utility.yul\":2372:2451   */\n      tag_264\n      tag_176\n      jump\t// in\n    tag_264:\n        /* \"#utility.yul\":2339:2461   */\n    tag_263:\n        /* \"#utility.yul\":2487:2493   */\n      dup4\n        /* \"#utility.yul\":2470:2690   */\n    tag_265:\n        /* \"#utility.yul\":2504:2510   */\n      dup2\n        /* \"#utility.yul\":2499:2502   */\n      dup2\n        /* \"#utility.yul\":2496:2511   */\n      lt\n        /* \"#utility.yul\":2470:2690   */\n      iszero\n      tag_267\n      jumpi\n        /* \"#utility.yul\":2579:2582   */\n      dup1\n        /* \"#utility.yul\":2608:2645   */\n      tag_268\n        /* \"#utility.yul\":2641:2644   */\n      dup9\n        /* \"#utility.yul\":2629:2639   */\n      dup3\n        /* \"#utility.yul\":2608:2645   */\n      tag_169\n      jump\t// in\n    tag_268:\n        /* \"#utility.yul\":2603:2606   */\n      dup5\n        /* \"#utility.yul\":2596:2646   */\n      mstore\n        /* \"#utility.yul\":2675:2679   */\n      0x20\n        /* \"#utility.yul\":2670:2673   */\n      dup5\n        /* \"#utility.yul\":2666:2680   */\n      add\n        /* \"#utility.yul\":2659:2680   */\n      swap4\n      pop\n        /* \"#utility.yul\":2546:2690   */\n      pop\n        /* \"#utility.yul\":2530:2534   */\n      0x20\n        /* \"#utility.yul\":2525:2528   */\n      dup2\n        /* \"#utility.yul\":2521:2535   */\n      add\n        /* \"#utility.yul\":2514:2535   */\n      swap1\n      pop\n        /* \"#utility.yul\":2470:2690   */\n      jump(tag_265)\n    tag_267:\n        /* \"#utility.yul\":2474:2495   */\n      pop\n        /* \"#utility.yul\":2088:2696   */\n      pop\n      pop\n        /* \"#utility.yul\":1986:2696   */\n      swap4\n      swap3\n      pop\n      pop\n      pop\n      jump\t// out\n        /* \"#utility.yul\":2719:3089   */\n    tag_178:\n        /* \"#utility.yul\":2790:2795   */\n      0x00\n        /* \"#utility.yul\":2839:2842   */\n      dup3\n        /* \"#utility.yul\":2832:2836   */\n      0x1f\n        /* \"#utility.yul\":2824:2830   */\n      dup4\n        /* \"#utility.yul\":2820:2837   */\n      add\n        /* \"#utility.yul\":2816:2843   */\n      slt\n        /* \"#utility.yul\":2806:2928   */\n      tag_270\n      jumpi\n        /* \"#utility.yul\":2847:2926   */\n      tag_271\n      tag_170\n      jump\t// in\n    tag_271:\n        /* \"#utility.yul\":2806:2928   */\n    tag_270:\n        /* \"#utility.yul\":2964:2970   */\n      dup2\n        /* \"#utility.yul\":2951:2971   */\n      calldataload\n        /* \"#utility.yul\":2989:3083   */\n      tag_272\n        /* \"#utility.yul\":3079:3082   */\n      dup5\n        /* \"#utility.yul\":3071:3077   */\n      dup3\n        /* \"#utility.yul\":3064:3068   */\n      0x20\n        /* \"#utility.yul\":3056:3062   */\n      dup7\n        /* \"#utility.yul\":3052:3069   */\n      add\n        /* \"#utility.yul\":2989:3083   */\n      tag_177\n      jump\t// in\n    tag_272:\n        /* \"#utility.yul\":2980:3083   */\n      swap2\n      pop\n        /* \"#utility.yul\":2796:3089   */\n      pop\n        /* \"#utility.yul\":2719:3089   */\n      swap3\n      swap2\n      pop\n      pop\n      jump\t// out\n        /* \"#utility.yul\":3095:3779   */\n    tag_17:\n        /* \"#utility.yul\":3188:3194   */\n      0x00\n        /* \"#utility.yul\":3196:3202   */\n      0x00\n        /* \"#utility.yul\":3245:3247   */\n      0x40\n        /* \"#utility.yul\":3233:3242   */\n      dup4\n        /* \"#utility.yul\":3224:3231   */\n      dup6\n        /* \"#utility.yul\":3220:3243   */\n      sub\n        /* \"#utility.yul\":3216:3248   */\n      slt\n        /* \"#utility.yul\":3213:3332   */\n      iszero\n      tag_274\n      jumpi\n        /* \"#utility.yul\":3251:3330   */\n      tag_275\n      tag_165\n      jump\t// in\n    tag_275:\n        /* \"#utility.yul\":3213:3332   */\n    tag_274:\n        /* \"#utility.yul\":3371:3372   */\n      0x00\n        /* \"#utility.yul\":3396:3449   */\n      tag_276\n        /* \"#utility.yul\":3441:3448   */\n      dup6\n        /* \"#utility.yul\":3432:3438   */\n      dup3\n        /* \"#utility.yul\":3421:3430   */\n      dup7\n        /* \"#utility.yul\":3417:3439   */\n      add\n        /* \"#utility.yul\":3396:3449   */\n      tag_169\n      jump\t// in\n    tag_276:\n        /* \"#utility.yul\":3386:3449   */\n      swap3\n      pop\n        /* \"#utility.yul\":3342:3459   */\n      pop\n        /* \"#utility.yul\":3526:3528   */\n      0x20\n        /* \"#utility.yul\":3515:3524   */\n      dup4\n        /* \"#utility.yul\":3511:3529   */\n      add\n        /* \"#utility.yul\":3498:3530   */\n      calldataload\n        /* \"#utility.yul\":3557:3575   */\n      0xffffffffffffffff\n        /* \"#utility.yul\":3549:3555   */\n      dup2\n        /* \"#utility.yul\":3546:3576   */\n      gt\n        /* \"#utility.yul\":3543:3660   */\n      iszero\n      tag_277\n      jumpi\n        /* \"#utility.yul\":3579:3658   */\n      tag_278\n      tag_166\n      jump\t// in\n    tag_278:\n        /* \"#utility.yul\":3543:3660   */\n    tag_277:\n        /* \"#utility.yul\":3684:3762   */\n      tag_279\n        /* \"#utility.yul\":3754:3761   */\n      dup6\n        /* \"#utility.yul\":3745:3751   */\n      dup3\n        /* \"#utility.yul\":3734:3743   */\n      dup7\n        /* \"#utility.yul\":3730:3752   */\n      add\n        /* \"#utility.yul\":3684:3762   */\n      tag_178\n      jump\t// in\n    tag_279:\n        /* \"#utility.yul\":3674:3762   */\n      swap2\n      pop\n        /* \"#utility.yul\":3469:3772   */\n      pop\n        /* \"#utility.yul\":3095:3779   */\n      swap3\n      pop\n      swap3\n      swap1\n      pop\n      jump\t// out\n        /* \"#utility.yul\":3785:3911   */\n    tag_179:\n        /* \"#utility.yul\":3822:3829   */\n      0x00\n        /* \"#utility.yul\":3862:3904   */\n      0xffffffffffffffffffffffffffffffffffffffff\n        /* \"#utility.yul\":3855:3860   */\n      dup3\n        /* \"#utility.yul\":3851:3905   */\n      and\n        /* \"#utility.yul\":3840:3905   */\n      swap1\n      pop\n        /* \"#utility.yul\":3785:3911   */\n      swap2\n      swap1\n      pop\n      jump\t// out\n        /* \"#utility.yul\":3917:4013   */\n    tag_180:\n        /* \"#utility.yul\":3954:3961   */\n      0x00\n        /* \"#utility.yul\":3983:4007   */\n      tag_282\n        /* \"#utility.yul\":4001:4006   */\n      dup3\n        /* \"#utility.yul\":3983:4007   */\n      tag_179\n      jump\t// in\n    tag_282:\n        /* \"#utility.yul\":3972:4007   */\n      swap1\n      pop\n        /* \"#utility.yul\":3917:4013   */\n      swap2\n      swap1\n      pop\n      jump\t// out\n        /* \"#utility.yul\":4019:4141   */\n    tag_181:\n        /* \"#utility.yul\":4092:4116   */\n      tag_284\n        /* \"#utility.yul\":4110:4115   */\n      dup2\n        /* \"#utility.yul\":4092:4116   */\n      tag_180\n      jump\t// in\n    tag_284:\n        /* \"#utility.yul\":4085:4090   */\n      dup2\n        /* \"#utility.yul\":4082:4117   */\n      eq\n        /* \"#utility.yul\":4072:4135   */\n      tag_285\n      jumpi\n        /* \"#utility.yul\":4131:4132   */\n      0x00\n        /* \"#utility.yul\":4128:4129   */\n      0x00\n        /* \"#utility.yul\":4121:4133   */\n      revert\n        /* \"#utility.yul\":4072:4135   */\n    tag_285:\n        /* \"#utility.yul\":4019:4141   */\n      pop\n      jump\t// out\n        /* \"#utility.yul\":4147:4286   */\n    tag_182:\n        /* \"#utility.yul\":4193:4198   */\n      0x00\n        /* \"#utility.yul\":4231:4237   */\n      dup2\n        /* \"#utility.yul\":4218:4238   */\n      calldataload\n        /* \"#utility.yul\":4209:4238   */\n      swap1\n      pop\n        /* \"#utility.yul\":4247:4280   */\n      tag_287\n        /* \"#utility.yul\":4274:4279   */\n      dup2\n        /* \"#utility.yul\":4247:4280   */\n      tag_181\n      jump\t// in\n    tag_287:\n        /* \"#utility.yul\":4147:4286   */\n      swap3\n      swap2\n      pop\n      pop\n      jump\t// out\n        /* \"#utility.yul\":4292:4766   */\n    tag_21:\n        /* \"#utility.yul\":4360:4366   */\n      0x00\n        /* \"#utility.yul\":4368:4374   */\n      0x00\n        /* \"#utility.yul\":4417:4419   */\n      0x40\n        /* \"#utility.yul\":4405:4414   */\n      dup4\n        /* \"#utility.yul\":4396:4403   */\n      dup6\n        /* \"#utility.yul\":4392:4415   */\n      sub\n        /* \"#utility.yul\":4388:4420   */\n      slt\n        /* \"#utility.yul\":4385:4504   */\n      iszero\n      tag_289\n      jumpi\n        /* \"#utility.yul\":4423:4502   */\n      tag_290\n      tag_165\n      jump\t// in\n    tag_290:\n        /* \"#utility.yul\":4385:4504   */\n    tag_289:\n        /* \"#utility.yul\":4543:4544   */\n      0x00\n        /* \"#utility.yul\":4568:4621   */\n      tag_291\n        /* \"#utility.yul\":4613:4620   */\n      dup6\n        /* \"#utility.yul\":4604:4610   */\n      dup3\n        /* \"#utility.yul\":4593:4602   */\n      dup7\n        /* \"#utility.yul\":4589:4611   */\n      add\n        /* \"#utility.yul\":4568:4621   */\n      tag_169\n      jump\t// in\n    tag_291:\n        /* \"#utility.yul\":4558:4621   */\n      swap3\n      pop\n        /* \"#utility.yul\":4514:4631   */\n      pop\n        /* \"#utility.yul\":4670:4672   */\n      0x20\n        /* \"#utility.yul\":4696:4749   */\n      tag_292\n        /* \"#utility.yul\":4741:4748   */\n      dup6\n        /* \"#utility.yul\":4732:4738   */\n      dup3\n        /* \"#utility.yul\":4721:4730   */\n      dup7\n        /* \"#utility.yul\":4717:4739   */\n      add\n        /* \"#utility.yul\":4696:4749   */\n      tag_182\n      jump\t// in\n    tag_292:\n        /* \"#utility.yul\":4686:4749   */\n      swap2\n      pop\n        /* \"#utility.yul\":4641:4759   */\n      pop\n        /* \"#utility.yul\":4292:4766   */\n      swap3\n      pop\n      swap3\n      swap1\n      pop\n      jump\t// out\n        /* \"#utility.yul\":4772:4862   */\n    tag_183:\n        /* \"#utility.yul\":4806:4813   */\n      0x00\n        /* \"#utility.yul\":4849:4854   */\n      dup2\n        /* \"#utility.yul\":4842:4855   */\n      iszero\n        /* \"#utility.yul\":4835:4856   */\n      iszero\n        /* \"#utility.yul\":4824:4856   */\n      swap1\n      pop\n        /* \"#utility.yul\":4772:4862   */\n      swap2\n      swap1\n      pop\n      jump\t// out\n        /* \"#utility.yul\":4868:4977   */\n    tag_184:\n        /* \"#utility.yul\":4949:4970   */\n      tag_295\n        /* \"#utility.yul\":4964:4969   */\n      dup2\n        /* \"#utility.yul\":4949:4970   */\n      tag_183\n      jump\t// in\n    tag_295:\n        /* \"#utility.yul\":4944:4947   */\n      dup3\n        /* \"#utility.yul\":4937:4971   */\n      mstore\n        /* \"#utility.yul\":4868:4977   */\n      pop\n      pop\n      jump\t// out\n        /* \"#utility.yul\":4983:5101   */\n    tag_185:\n        /* \"#utility.yul\":5070:5094   */\n      tag_297\n        /* \"#utility.yul\":5088:5093   */\n      dup2\n        /* \"#utility.yul\":5070:5094   */\n      tag_167\n      jump\t// in\n    tag_297:\n        /* \"#utility.yul\":5065:5068   */\n      dup3\n        /* \"#utility.yul\":5058:5095   */\n      mstore\n        /* \"#utility.yul\":4983:5101   */\n      pop\n      pop\n      jump\t// out\n        /* \"#utility.yul\":5107:5427   */\n    tag_24:\n        /* \"#utility.yul\":5222:5226   */\n      0x00\n        /* \"#utility.yul\":5260:5262   */\n      0x40\n        /* \"#utility.yul\":5249:5258   */\n      dup3\n        /* \"#utility.yul\":5245:5263   */\n      add\n        /* \"#utility.yul\":5237:5263   */\n      swap1\n      pop\n        /* \"#utility.yul\":5273:5338   */\n      tag_299\n        /* \"#utility.yul\":5335:5336   */\n      0x00\n        /* \"#utility.yul\":5324:5333   */\n      dup4\n        /* \"#utility.yul\":5320:5337   */\n      add\n        /* \"#utility.yul\":5311:5317   */\n      dup6\n        /* \"#utility.yul\":5273:5338   */\n      tag_184\n      jump\t// in\n    tag_299:\n        /* \"#utility.yul\":5348:5420   */\n      tag_300\n        /* \"#utility.yul\":5416:5418   */\n      0x20\n        /* \"#utility.yul\":5405:5414   */\n      dup4\n        /* \"#utility.yul\":5401:5419   */\n      add\n        /* \"#utility.yul\":5392:5398   */\n      dup5\n        /* \"#utility.yul\":5348:5420   */\n      tag_185\n      jump\t// in\n    tag_300:\n        /* \"#utility.yul\":5107:5427   */\n      swap4\n      swap3\n      pop\n      pop\n      pop\n      jump\t// out\n        /* \"#utility.yul\":5433:5655   */\n    tag_28:\n        /* \"#utility.yul\":5526:5530   */\n      0x00\n        /* \"#utility.yul\":5564:5566   */\n      0x20\n        /* \"#utility.yul\":5553:5562   */\n      dup3\n        /* \"#utility.yul\":5549:5567   */\n      add\n        /* \"#utility.yul\":5541:5567   */\n      swap1\n      pop\n        /* \"#utility.yul\":5577:5648   */\n      tag_302\n        /* \"#utility.yul\":5645:5646   */\n      0x00\n        /* \"#utility.yul\":5634:5643   */\n      dup4\n        /* \"#utility.yul\":5630:5647   */\n      add\n        /* \"#utility.yul\":5621:5627   */\n      dup5\n        /* \"#utility.yul\":5577:5648   */\n      tag_185\n      jump\t// in\n    tag_302:\n        /* \"#utility.yul\":5433:5655   */\n      swap3\n      swap2\n      pop\n      pop\n      jump\t// out\n        /* \"#utility.yul\":5661:5778   */\n    tag_186:\n        /* \"#utility.yul\":5770:5771   */\n      0x00\n        /* \"#utility.yul\":5767:5768   */\n      0x00\n        /* \"#utility.yul\":5760:5772   */\n      revert\n        /* \"#utility.yul\":5784:6092   */\n    tag_187:\n        /* \"#utility.yul\":5846:5850   */\n      0x00\n        /* \"#utility.yul\":5936:5954   */\n      0xffffffffffffffff\n        /* \"#utility.yul\":5928:5934   */\n      dup3\n        /* \"#utility.yul\":5925:5955   */\n      gt\n        /* \"#utility.yul\":5922:5978   */\n      iszero\n      tag_305\n      jumpi\n        /* \"#utility.yul\":5958:5976   */\n      tag_306\n      tag_172\n      jump\t// in\n    tag_306:\n        /* \"#utility.yul\":5922:5978   */\n    tag_305:\n        /* \"#utility.yul\":5996:6025   */\n      tag_307\n        /* \"#utility.yul\":6018:6024   */\n      dup3\n        /* \"#utility.yul\":5996:6025   */\n      tag_171\n      jump\t// in\n    tag_307:\n        /* \"#utility.yul\":5988:6025   */\n      swap1\n      pop\n        /* \"#utility.yul\":6080:6084   */\n      0x20\n        /* \"#utility.yul\":6074:6078   */\n      dup2\n        /* \"#utility.yul\":6070:6085   */\n      add\n        /* \"#utility.yul\":6062:6085   */\n      swap1\n      pop\n        /* \"#utility.yul\":5784:6092   */\n      swap2\n      swap1\n      pop\n      jump\t// out\n        /* \"#utility.yul\":6098:6246   */\n    tag_188:\n        /* \"#utility.yul\":6196:6202   */\n      dup3\n        /* \"#utility.yul\":6191:6194   */\n      dup2\n        /* \"#utility.yul\":6186:6189   */\n      dup4\n        /* \"#utility.yul\":6173:6203   */\n      calldatacopy\n        /* \"#utility.yul\":6237:6238   */\n      0x00\n        /* \"#utility.yul\":6228:6234   */\n      dup4\n        /* \"#utility.yul\":6223:6226   */\n      dup4\n        /* \"#utility.yul\":6219:6235   */\n      add\n        /* \"#utility.yul\":6212:6239   */\n      mstore\n        /* \"#utility.yul\":6098:6246   */\n      pop\n      pop\n      pop\n      jump\t// out\n        /* \"#utility.yul\":6252:6677   */\n    tag_189:\n        /* \"#utility.yul\":6330:6335   */\n      0x00\n        /* \"#utility.yul\":6355:6421   */\n      tag_310\n        /* \"#utility.yul\":6371:6420   */\n      tag_311\n        /* \"#utility.yul\":6413:6419   */\n      dup5\n        /* \"#utility.yul\":6371:6420   */\n      tag_187\n      jump\t// in\n    tag_311:\n        /* \"#utility.yul\":6355:6421   */\n      tag_174\n      jump\t// in\n    tag_310:\n        /* \"#utility.yul\":6346:6421   */\n      swap1\n      pop\n        /* \"#utility.yul\":6444:6450   */\n      dup3\n        /* \"#utility.yul\":6437:6442   */\n      dup2\n        /* \"#utility.yul\":6430:6451   */\n      mstore\n        /* \"#utility.yul\":6482:6486   */\n      0x20\n        /* \"#utility.yul\":6475:6480   */\n      dup2\n        /* \"#utility.yul\":6471:6487   */\n      add\n        /* \"#utility.yul\":6520:6523   */\n      dup5\n        /* \"#utility.yul\":6511:6517   */\n      dup5\n        /* \"#utility.yul\":6506:6509   */\n      dup5\n        /* \"#utility.yul\":6502:6518   */\n      add\n        /* \"#utility.yul\":6499:6524   */\n      gt\n        /* \"#utility.yul\":6496:6608   */\n      iszero\n      tag_312\n      jumpi\n        /* \"#utility.yul\":6527:6606   */\n      tag_313\n      tag_186\n      jump\t// in\n    tag_313:\n        /* \"#utility.yul\":6496:6608   */\n    tag_312:\n        /* \"#utility.yul\":6617:6671   */\n      tag_314\n        /* \"#utility.yul\":6664:6670   */\n      dup5\n        /* \"#utility.yul\":6659:6662   */\n      dup3\n        /* \"#utility.yul\":6654:6657   */\n      dup6\n        /* \"#utility.yul\":6617:6671   */\n      tag_188\n      jump\t// in\n    tag_314:\n        /* \"#utility.yul\":6336:6677   */\n      pop\n        /* \"#utility.yul\":6252:6677   */\n      swap4\n      swap3\n      pop\n      pop\n      pop\n      jump\t// out\n        /* \"#utility.yul\":6697:7037   */\n    tag_190:\n        /* \"#utility.yul\":6753:6758   */\n      0x00\n        /* \"#utility.yul\":6802:6805   */\n      dup3\n        /* \"#utility.yul\":6795:6799   */\n      0x1f\n        /* \"#utility.yul\":6787:6793   */\n      dup4\n        /* \"#utility.yul\":6783:6800   */\n      add\n        /* \"#utility.yul\":6779:6806   */\n      slt\n        /* \"#utility.yul\":6769:6891   */\n      tag_316\n      jumpi\n        /* \"#utility.yul\":6810:6889   */\n      tag_317\n      tag_170\n      jump\t// in\n    tag_317:\n        /* \"#utility.yul\":6769:6891   */\n    tag_316:\n        /* \"#utility.yul\":6927:6933   */\n      dup2\n        /* \"#utility.yul\":6914:6934   */\n      calldataload\n        /* \"#utility.yul\":6952:7031   */\n      tag_318\n        /* \"#utility.yul\":7027:7030   */\n      dup5\n        /* \"#utility.yul\":7019:7025   */\n      dup3\n        /* \"#utility.yul\":7012:7016   */\n      0x20\n        /* \"#utility.yul\":7004:7010   */\n      dup7\n        /* \"#utility.yul\":7000:7017   */\n      add\n        /* \"#utility.yul\":6952:7031   */\n      tag_189\n      jump\t// in\n    tag_318:\n        /* \"#utility.yul\":6943:7031   */\n      swap2\n      pop\n        /* \"#utility.yul\":6759:7037   */\n      pop\n        /* \"#utility.yul\":6697:7037   */\n      swap3\n      swap2\n      pop\n      pop\n      jump\t// out\n        /* \"#utility.yul\":7043:7364   */\n    tag_191:\n        /* \"#utility.yul\":7130:7134   */\n      0x00\n        /* \"#utility.yul\":7220:7238   */\n      0xffffffffffffffff\n        /* \"#utility.yul\":7212:7218   */\n      dup3\n        /* \"#utility.yul\":7209:7239   */\n      gt\n        /* \"#utility.yul\":7206:7262   */\n      iszero\n      tag_320\n      jumpi\n        /* \"#utility.yul\":7242:7260   */\n      tag_321\n      tag_172\n      jump\t// in\n    tag_321:\n        /* \"#utility.yul\":7206:7262   */\n    tag_320:\n        /* \"#utility.yul\":7292:7296   */\n      0x20\n        /* \"#utility.yul\":7284:7290   */\n      dup3\n        /* \"#utility.yul\":7280:7297   */\n      mul\n        /* \"#utility.yul\":7272:7297   */\n      swap1\n      pop\n        /* \"#utility.yul\":7352:7356   */\n      0x20\n        /* \"#utility.yul\":7346:7350   */\n      dup2\n        /* \"#utility.yul\":7342:7357   */\n      add\n        /* \"#utility.yul\":7334:7357   */\n      swap1\n      pop\n        /* \"#utility.yul\":7043:7364   */\n      swap2\n      swap1\n      pop\n      jump\t// out\n        /* \"#utility.yul\":7386:8331   */\n    tag_192:\n        /* \"#utility.yul\":7492:7497   */\n      0x00\n        /* \"#utility.yul\":7517:7608   */\n      tag_323\n        /* \"#utility.yul\":7533:7607   */\n      tag_324\n        /* \"#utility.yul\":7600:7606   */\n      dup5\n        /* \"#utility.yul\":7533:7607   */\n      tag_191\n      jump\t// in\n    tag_324:\n        /* \"#utility.yul\":7517:7608   */\n      tag_174\n      jump\t// in\n    tag_323:\n        /* \"#utility.yul\":7508:7608   */\n      swap1\n      pop\n        /* \"#utility.yul\":7628:7633   */\n      dup1\n        /* \"#utility.yul\":7657:7663   */\n      dup4\n        /* \"#utility.yul\":7650:7655   */\n      dup3\n        /* \"#utility.yul\":7643:7664   */\n      mstore\n        /* \"#utility.yul\":7691:7695   */\n      0x20\n        /* \"#utility.yul\":7684:7689   */\n      dup3\n        /* \"#utility.yul\":7680:7696   */\n      add\n        /* \"#utility.yul\":7673:7696   */\n      swap1\n      pop\n        /* \"#utility.yul\":7744:7748   */\n      0x20\n        /* \"#utility.yul\":7736:7742   */\n      dup5\n        /* \"#utility.yul\":7732:7749   */\n      mul\n        /* \"#utility.yul\":7724:7730   */\n      dup4\n        /* \"#utility.yul\":7720:7750   */\n      add\n        /* \"#utility.yul\":7773:7776   */\n      dup6\n        /* \"#utility.yul\":7765:7771   */\n      dup2\n        /* \"#utility.yul\":7762:7777   */\n      gt\n        /* \"#utility.yul\":7759:7881   */\n      iszero\n      tag_325\n      jumpi\n        /* \"#utility.yul\":7792:7871   */\n      tag_326\n      tag_176\n      jump\t// in\n    tag_326:\n        /* \"#utility.yul\":7759:7881   */\n    tag_325:\n        /* \"#utility.yul\":7907:7913   */\n      dup4\n        /* \"#utility.yul\":7890:8325   */\n    tag_327:\n        /* \"#utility.yul\":7924:7930   */\n      dup2\n        /* \"#utility.yul\":7919:7922   */\n      dup2\n        /* \"#utility.yul\":7916:7931   */\n      lt\n        /* \"#utility.yul\":7890:8325   */\n      iszero\n      tag_329\n      jumpi\n        /* \"#utility.yul\":8013:8016   */\n      dup1\n        /* \"#utility.yul\":8000:8017   */\n      calldataload\n        /* \"#utility.yul\":8049:8067   */\n      0xffffffffffffffff\n        /* \"#utility.yul\":8036:8047   */\n      dup2\n        /* \"#utility.yul\":8033:8068   */\n      gt\n        /* \"#utility.yul\":8030:8152   */\n      iszero\n      tag_330\n      jumpi\n        /* \"#utility.yul\":8071:8150   */\n      tag_331\n      tag_170\n      jump\t// in\n    tag_331:\n        /* \"#utility.yul\":8030:8152   */\n    tag_330:\n        /* \"#utility.yul\":8195:8206   */\n      dup1\n        /* \"#utility.yul\":8187:8193   */\n      dup7\n        /* \"#utility.yul\":8183:8207   */\n      add\n        /* \"#utility.yul\":8233:8280   */\n      tag_332\n        /* \"#utility.yul\":8276:8279   */\n      dup10\n        /* \"#utility.yul\":8264:8274   */\n      dup3\n        /* \"#utility.yul\":8233:8280   */\n      tag_190\n      jump\t// in\n    tag_332:\n        /* \"#utility.yul\":8228:8231   */\n      dup6\n        /* \"#utility.yul\":8221:8281   */\n      mstore\n        /* \"#utility.yul\":8310:8314   */\n      0x20\n        /* \"#utility.yul\":8305:8308   */\n      dup6\n        /* \"#utility.yul\":8301:8315   */\n      add\n        /* \"#utility.yul\":8294:8315   */\n      swap5\n      pop\n        /* \"#utility.yul\":7966:8325   */\n      pop\n      pop\n        /* \"#utility.yul\":7950:7954   */\n      0x20\n        /* \"#utility.yul\":7945:7948   */\n      dup2\n        /* \"#utility.yul\":7941:7955   */\n      add\n        /* \"#utility.yul\":7934:7955   */\n      swap1\n      pop\n        /* \"#utility.yul\":7890:8325   */\n      jump(tag_327)\n    tag_329:\n        /* \"#utility.yul\":7894:7915   */\n      pop\n        /* \"#utility.yul\":7498:8331   */\n      pop\n      pop\n        /* \"#utility.yul\":7386:8331   */\n      swap4\n      swap3\n      pop\n      pop\n      pop\n      jump\t// out\n        /* \"#utility.yul\":8353:8743   */\n    tag_193:\n        /* \"#utility.yul\":8434:8439   */\n      0x00\n        /* \"#utility.yul\":8483:8486   */\n      dup3\n        /* \"#utility.yul\":8476:8480   */\n      0x1f\n        /* \"#utility.yul\":8468:8474   */\n      dup4\n        /* \"#utility.yul\":8464:8481   */\n      add\n        /* \"#utility.yul\":8460:8487   */\n      slt\n        /* \"#utility.yul\":8450:8572   */\n      tag_334\n      jumpi\n        /* \"#utility.yul\":8491:8570   */\n      tag_335\n      tag_170\n      jump\t// in\n    tag_335:\n        /* \"#utility.yul\":8450:8572   */\n    tag_334:\n        /* \"#utility.yul\":8608:8614   */\n      dup2\n        /* \"#utility.yul\":8595:8615   */\n      calldataload\n        /* \"#utility.yul\":8633:8737   */\n      tag_336\n        /* \"#utility.yul\":8733:8736   */\n      dup5\n        /* \"#utility.yul\":8725:8731   */\n      dup3\n        /* \"#utility.yul\":8718:8722   */\n      0x20\n        /* \"#utility.yul\":8710:8716   */\n      dup7\n        /* \"#utility.yul\":8706:8723   */\n      add\n        /* \"#utility.yul\":8633:8737   */\n      tag_192\n      jump\t// in\n    tag_336:\n        /* \"#utility.yul\":8624:8737   */\n      swap2\n      pop\n        /* \"#utility.yul\":8440:8743   */\n      pop\n        /* \"#utility.yul\":8353:8743   */\n      swap3\n      swap2\n      pop\n      pop\n      jump\t// out\n        /* \"#utility.yul\":8749:10070   */\n    tag_31:\n        /* \"#utility.yul\":8889:8895   */\n      0x00\n        /* \"#utility.yul\":8897:8903   */\n      0x00\n        /* \"#utility.yul\":8905:8911   */\n      0x00\n        /* \"#utility.yul\":8913:8919   */\n      0x00\n        /* \"#utility.yul\":8921:8927   */\n      0x00\n        /* \"#utility.yul\":8970:8973   */\n      0xa0\n        /* \"#utility.yul\":8958:8967   */\n      dup7\n        /* \"#utility.yul\":8949:8956   */\n      dup9\n        /* \"#utility.yul\":8945:8968   */\n      sub\n        /* \"#utility.yul\":8941:8974   */\n      slt\n        /* \"#utility.yul\":8938:9058   */\n      iszero\n      tag_338\n      jumpi\n        /* \"#utility.yul\":8977:9056   */\n      tag_339\n      tag_165\n      jump\t// in\n    tag_339:\n        /* \"#utility.yul\":8938:9058   */\n    tag_338:\n        /* \"#utility.yul\":9097:9098   */\n      0x00\n        /* \"#utility.yul\":9122:9175   */\n      tag_340\n        /* \"#utility.yul\":9167:9174   */\n      dup9\n        /* \"#utility.yul\":9158:9164   */\n      dup3\n        /* \"#utility.yul\":9147:9156   */\n      dup10\n        /* \"#utility.yul\":9143:9165   */\n      add\n        /* \"#utility.yul\":9122:9175   */\n      tag_169\n      jump\t// in\n    tag_340:\n        /* \"#utility.yul\":9112:9175   */\n      swap6\n      pop\n        /* \"#utility.yul\":9068:9185   */\n      pop\n        /* \"#utility.yul\":9252:9254   */\n      0x20\n        /* \"#utility.yul\":9241:9250   */\n      dup7\n        /* \"#utility.yul\":9237:9255   */\n      add\n        /* \"#utility.yul\":9224:9256   */\n      calldataload\n        /* \"#utility.yul\":9283:9301   */\n      0xffffffffffffffff\n        /* \"#utility.yul\":9275:9281   */\n      dup2\n        /* \"#utility.yul\":9272:9302   */\n      gt\n        /* \"#utility.yul\":9269:9386   */\n      iszero\n      tag_341\n      jumpi\n        /* \"#utility.yul\":9305:9384   */\n      tag_342\n      tag_166\n      jump\t// in\n    tag_342:\n        /* \"#utility.yul\":9269:9386   */\n    tag_341:\n        /* \"#utility.yul\":9410:9473   */\n      tag_343\n        /* \"#utility.yul\":9465:9472   */\n      dup9\n        /* \"#utility.yul\":9456:9462   */\n      dup3\n        /* \"#utility.yul\":9445:9454   */\n      dup10\n        /* \"#utility.yul\":9441:9463   */\n      add\n        /* \"#utility.yul\":9410:9473   */\n      tag_190\n      jump\t// in\n    tag_343:\n        /* \"#utility.yul\":9400:9473   */\n      swap5\n      pop\n        /* \"#utility.yul\":9195:9483   */\n      pop\n        /* \"#utility.yul\":9550:9552   */\n      0x40\n        /* \"#utility.yul\":9539:9548   */\n      dup7\n        /* \"#utility.yul\":9535:9553   */\n      add\n        /* \"#utility.yul\":9522:9554   */\n      calldataload\n        /* \"#utility.yul\":9581:9599   */\n      0xffffffffffffffff\n        /* \"#utility.yul\":9573:9579   */\n      dup2\n        /* \"#utility.yul\":9570:9600   */\n      gt\n        /* \"#utility.yul\":9567:9684   */\n      iszero\n      tag_344\n      jumpi\n        /* \"#utility.yul\":9603:9682   */\n      tag_345\n      tag_166\n      jump\t// in\n    tag_345:\n        /* \"#utility.yul\":9567:9684   */\n    tag_344:\n        /* \"#utility.yul\":9708:9796   */\n      tag_346\n        /* \"#utility.yul\":9788:9795   */\n      dup9\n        /* \"#utility.yul\":9779:9785   */\n      dup3\n        /* \"#utility.yul\":9768:9777   */\n      dup10\n        /* \"#utility.yul\":9764:9786   */\n      add\n        /* \"#utility.yul\":9708:9796   */\n      tag_193\n      jump\t// in\n    tag_346:\n        /* \"#utility.yul\":9698:9796   */\n      swap4\n      pop\n        /* \"#utility.yul\":9493:9806   */\n      pop\n        /* \"#utility.yul\":9845:9847   */\n      0x60\n        /* \"#utility.yul\":9871:9924   */\n      tag_347\n        /* \"#utility.yul\":9916:9923   */\n      dup9\n        /* \"#utility.yul\":9907:9913   */\n      dup3\n        /* \"#utility.yul\":9896:9905   */\n      dup10\n        /* \"#utility.yul\":9892:9914   */\n      add\n        /* \"#utility.yul\":9871:9924   */\n      tag_169\n      jump\t// in\n    tag_347:\n        /* \"#utility.yul\":9861:9924   */\n      swap3\n      pop\n        /* \"#utility.yul\":9816:9934   */\n      pop\n        /* \"#utility.yul\":9973:9976   */\n      0x80\n        /* \"#utility.yul\":10000:10053   */\n      tag_348\n        /* \"#utility.yul\":10045:10052   */\n      dup9\n        /* \"#utility.yul\":10036:10042   */\n      dup3\n        /* \"#utility.yul\":10025:10034   */\n      dup10\n        /* \"#utility.yul\":10021:10043   */\n      add\n        /* \"#utility.yul\":10000:10053   */\n      tag_169\n      jump\t// in\n    tag_348:\n        /* \"#utility.yul\":9990:10053   */\n      swap2\n      pop\n        /* \"#utility.yul\":9944:10063   */\n      pop\n        /* \"#utility.yul\":8749:10070   */\n      swap3\n      swap6\n      pop\n      swap3\n      swap6\n      swap1\n      swap4\n      pop\n      jump\t// out\n        /* \"#utility.yul\":10076:10405   */\n    tag_35:\n        /* \"#utility.yul\":10135:10141   */\n      0x00\n        /* \"#utility.yul\":10184:10186   */\n      0x20\n        /* \"#utility.yul\":10172:10181   */\n      dup3\n        /* \"#utility.yul\":10163:10170   */\n      dup5\n        /* \"#utility.yul\":10159:10182   */\n      sub\n        /* \"#utility.yul\":10155:10187   */\n      slt\n        /* \"#utility.yul\":10152:10271   */\n      iszero\n      tag_350\n      jumpi\n        /* \"#utility.yul\":10190:10269   */\n      tag_351\n      tag_165\n      jump\t// in\n    tag_351:\n        /* \"#utility.yul\":10152:10271   */\n    tag_350:\n        /* \"#utility.yul\":10310:10311   */\n      0x00\n        /* \"#utility.yul\":10335:10388   */\n      tag_352\n        /* \"#utility.yul\":10380:10387   */\n      dup5\n        /* \"#utility.yul\":10371:10377   */\n      dup3\n        /* \"#utility.yul\":10360:10369   */\n      dup6\n        /* \"#utility.yul\":10356:10378   */\n      add\n        /* \"#utility.yul\":10335:10388   */\n      tag_169\n      jump\t// in\n    tag_352:\n        /* \"#utility.yul\":10325:10388   */\n      swap2\n      pop\n        /* \"#utility.yul\":10281:10398   */\n      pop\n        /* \"#utility.yul\":10076:10405   */\n      swap3\n      swap2\n      pop\n      pop\n      jump\t// out\n        /* \"#utility.yul\":10411:10510   */\n    tag_194:\n        /* \"#utility.yul\":10463:10469   */\n      0x00\n        /* \"#utility.yul\":10497:10502   */\n      dup2\n        /* \"#utility.yul\":10491:10503   */\n      mload\n        /* \"#utility.yul\":10481:10503   */\n      swap1\n      pop\n        /* \"#utility.yul\":10411:10510   */\n      swap2\n      swap1\n      pop\n      jump\t// out\n        /* \"#utility.yul\":10516:10685   */\n    tag_195:\n        /* \"#utility.yul\":10600:10611   */\n      0x00\n        /* \"#utility.yul\":10634:10640   */\n      dup3\n        /* \"#utility.yul\":10629:10632   */\n      dup3\n        /* \"#utility.yul\":10622:10641   */\n      mstore\n        /* \"#utility.yul\":10674:10678   */\n      0x20\n        /* \"#utility.yul\":10669:10672   */\n      dup3\n        /* \"#utility.yul\":10665:10679   */\n      add\n        /* \"#utility.yul\":10650:10679   */\n      swap1\n      pop\n        /* \"#utility.yul\":10516:10685   */\n      swap3\n      swap2\n      pop\n      pop\n      jump\t// out\n        /* \"#utility.yul\":10691:10830   */\n    tag_196:\n        /* \"#utility.yul\":10780:10786   */\n      dup3\n        /* \"#utility.yul\":10775:10778   */\n      dup2\n        /* \"#utility.yul\":10770:10773   */\n      dup4\n        /* \"#utility.yul\":10764:10787   */\n      mcopy\n        /* \"#utility.yul\":10821:10822   */\n      0x00\n        /* \"#utility.yul\":10812:10818   */\n      dup4\n        /* \"#utility.yul\":10807:10810   */\n      dup4\n        /* \"#utility.yul\":10803:10819   */\n      add\n        /* \"#utility.yul\":10796:10823   */\n      mstore\n        /* \"#utility.yul\":10691:10830   */\n      pop\n      pop\n      pop\n      jump\t// out\n        /* \"#utility.yul\":10836:11213   */\n    tag_197:\n        /* \"#utility.yul\":10924:10927   */\n      0x00\n        /* \"#utility.yul\":10952:10991   */\n      tag_357\n        /* \"#utility.yul\":10985:10990   */\n      dup3\n        /* \"#utility.yul\":10952:10991   */\n      tag_194\n      jump\t// in\n    tag_357:\n        /* \"#utility.yul\":11007:11078   */\n      tag_358\n        /* \"#utility.yul\":11071:11077   */\n      dup2\n        /* \"#utility.yul\":11066:11069   */\n      dup6\n        /* \"#utility.yul\":11007:11078   */\n      tag_195\n      jump\t// in\n    tag_358:\n        /* \"#utility.yul\":11000:11078   */\n      swap4\n      pop\n        /* \"#utility.yul\":11087:11152   */\n      tag_359\n        /* \"#utility.yul\":11145:11151   */\n      dup2\n        /* \"#utility.yul\":11140:11143   */\n      dup6\n        /* \"#utility.yul\":11133:11137   */\n      0x20\n        /* \"#utility.yul\":11126:11131   */\n      dup7\n        /* \"#utility.yul\":11122:11138   */\n      add\n        /* \"#utility.yul\":11087:11152   */\n      tag_196\n      jump\t// in\n    tag_359:\n        /* \"#utility.yul\":11177:11206   */\n      tag_360\n        /* \"#utility.yul\":11199:11205   */\n      dup2\n        /* \"#utility.yul\":11177:11206   */\n      tag_171\n      jump\t// in\n    tag_360:\n        /* \"#utility.yul\":11172:11175   */\n      dup5\n        /* \"#utility.yul\":11168:11207   */\n      add\n        /* \"#utility.yul\":11161:11207   */\n      swap2\n      pop\n        /* \"#utility.yul\":10928:11213   */\n      pop\n        /* \"#utility.yul\":10836:11213   */\n      swap3\n      swap2\n      pop\n      pop\n      jump\t// out\n        /* \"#utility.yul\":11219:11740   */\n    tag_41:\n        /* \"#utility.yul\":11382:11386   */\n      0x00\n        /* \"#utility.yul\":11420:11422   */\n      0x60\n        /* \"#utility.yul\":11409:11418   */\n      dup3\n        /* \"#utility.yul\":11405:11423   */\n      add\n        /* \"#utility.yul\":11397:11423   */\n      swap1\n      pop\n        /* \"#utility.yul\":11469:11478   */\n      dup2\n        /* \"#utility.yul\":11463:11467   */\n      dup2\n        /* \"#utility.yul\":11459:11479   */\n      sub\n        /* \"#utility.yul\":11455:11456   */\n      0x00\n        /* \"#utility.yul\":11444:11453   */\n      dup4\n        /* \"#utility.yul\":11440:11457   */\n      add\n        /* \"#utility.yul\":11433:11480   */\n      mstore\n        /* \"#utility.yul\":11497:11575   */\n      tag_362\n        /* \"#utility.yul\":11570:11574   */\n      dup2\n        /* \"#utility.yul\":11561:11567   */\n      dup7\n        /* \"#utility.yul\":11497:11575   */\n      tag_197\n      jump\t// in\n    tag_362:\n        /* \"#utility.yul\":11489:11575   */\n      swap1\n      pop\n        /* \"#utility.yul\":11585:11651   */\n      tag_363\n        /* \"#utility.yul\":11647:11649   */\n      0x20\n        /* \"#utility.yul\":11636:11645   */\n      dup4\n        /* \"#utility.yul\":11632:11650   */\n      add\n        /* \"#utility.yul\":11623:11629   */\n      dup6\n        /* \"#utility.yul\":11585:11651   */\n      tag_184\n      jump\t// in\n    tag_363:\n        /* \"#utility.yul\":11661:11733   */\n      tag_364\n        /* \"#utility.yul\":11729:11731   */\n      0x40\n        /* \"#utility.yul\":11718:11727   */\n      dup4\n        /* \"#utility.yul\":11714:11732   */\n      add\n        /* \"#utility.yul\":11705:11711   */\n      dup5\n        /* \"#utility.yul\":11661:11733   */\n      tag_185\n      jump\t// in\n    tag_364:\n        /* \"#utility.yul\":11219:11740   */\n      swap5\n      swap4\n      pop\n      pop\n      pop\n      pop\n      jump\t// out\n        /* \"#utility.yul\":11746:12220   */\n    tag_44:\n        /* \"#utility.yul\":11814:11820   */\n      0x00\n        /* \"#utility.yul\":11822:11828   */\n      0x00\n        /* \"#utility.yul\":11871:11873   */\n      0x40\n        /* \"#utility.yul\":11859:11868   */\n      dup4\n        /* \"#utility.yul\":11850:11857   */\n      dup6\n        /* \"#utility.yul\":11846:11869   */\n      sub\n        /* \"#utility.yul\":11842:11874   */\n      slt\n        /* \"#utility.yul\":11839:11958   */\n      iszero\n      tag_366\n      jumpi\n        /* \"#utility.yul\":11877:11956   */\n      tag_367\n      tag_165\n      jump\t// in\n    tag_367:\n        /* \"#utility.yul\":11839:11958   */\n    tag_366:\n        /* \"#utility.yul\":11997:11998   */\n      0x00\n        /* \"#utility.yul\":12022:12075   */\n      tag_368\n        /* \"#utility.yul\":12067:12074   */\n      dup6\n        /* \"#utility.yul\":12058:12064   */\n      dup3\n        /* \"#utility.yul\":12047:12056   */\n      dup7\n        /* \"#utility.yul\":12043:12065   */\n      add\n        /* \"#utility.yul\":12022:12075   */\n      tag_169\n      jump\t// in\n    tag_368:\n        /* \"#utility.yul\":12012:12075   */\n      swap3\n      pop\n        /* \"#utility.yul\":11968:12085   */\n      pop\n        /* \"#utility.yul\":12124:12126   */\n      0x20\n        /* \"#utility.yul\":12150:12203   */\n      tag_369\n        /* \"#utility.yul\":12195:12202   */\n      dup6\n        /* \"#utility.yul\":12186:12192   */\n      dup3\n        /* \"#utility.yul\":12175:12184   */\n      dup7\n        /* \"#utility.yul\":12171:12193   */\n      add\n        /* \"#utility.yul\":12150:12203   */\n      tag_169\n      jump\t// in\n    tag_369:\n        /* \"#utility.yul\":12140:12203   */\n      swap2\n      pop\n        /* \"#utility.yul\":12095:12213   */\n      pop\n        /* \"#utility.yul\":11746:12220   */\n      swap3\n      pop\n      swap3\n      swap1\n      pop\n      jump\t// out\n        /* \"#utility.yul\":12226:12759   */\n    tag_47:\n        /* \"#utility.yul\":12395:12399   */\n      0x00\n        /* \"#utility.yul\":12433:12435   */\n      0x60\n        /* \"#utility.yul\":12422:12431   */\n      dup3\n        /* \"#utility.yul\":12418:12436   */\n      add\n        /* \"#utility.yul\":12410:12436   */\n      swap1\n      pop\n        /* \"#utility.yul\":12482:12491   */\n      dup2\n        /* \"#utility.yul\":12476:12480   */\n      dup2\n        /* \"#utility.yul\":12472:12492   */\n      sub\n        /* \"#utility.yul\":12468:12469   */\n      0x00\n        /* \"#utility.yul\":12457:12466   */\n      dup4\n        /* \"#utility.yul\":12453:12470   */\n      add\n        /* \"#utility.yul\":12446:12493   */\n      mstore\n        /* \"#utility.yul\":12510:12588   */\n      tag_371\n        /* \"#utility.yul\":12583:12587   */\n      dup2\n        /* \"#utility.yul\":12574:12580   */\n      dup7\n        /* \"#utility.yul\":12510:12588   */\n      tag_197\n      jump\t// in\n    tag_371:\n        /* \"#utility.yul\":12502:12588   */\n      swap1\n      pop\n        /* \"#utility.yul\":12598:12670   */\n      tag_372\n        /* \"#utility.yul\":12666:12668   */\n      0x20\n        /* \"#utility.yul\":12655:12664   */\n      dup4\n        /* \"#utility.yul\":12651:12669   */\n      add\n        /* \"#utility.yul\":12642:12648   */\n      dup6\n        /* \"#utility.yul\":12598:12670   */\n      tag_185\n      jump\t// in\n    tag_372:\n        /* \"#utility.yul\":12680:12752   */\n      tag_373\n        /* \"#utility.yul\":12748:12750   */\n      0x40\n        /* \"#utility.yul\":12737:12746   */\n      dup4\n        /* \"#utility.yul\":12733:12751   */\n      add\n        /* \"#utility.yul\":12724:12730   */\n      dup5\n        /* \"#utility.yul\":12680:12752   */\n      tag_185\n      jump\t// in\n    tag_373:\n        /* \"#utility.yul\":12226:12759   */\n      swap5\n      swap4\n      pop\n      pop\n      pop\n      pop\n      jump\t// out\n        /* \"#utility.yul\":12765:12883   */\n    tag_198:\n        /* \"#utility.yul\":12852:12876   */\n      tag_375\n        /* \"#utility.yul\":12870:12875   */\n      dup2\n        /* \"#utility.yul\":12852:12876   */\n      tag_180\n      jump\t// in\n    tag_375:\n        /* \"#utility.yul\":12847:12850   */\n      dup3\n        /* \"#utility.yul\":12840:12877   */\n      mstore\n        /* \"#utility.yul\":12765:12883   */\n      pop\n      pop\n      jump\t// out\n        /* \"#utility.yul\":12889:13111   */\n    tag_51:\n        /* \"#utility.yul\":12982:12986   */\n      0x00\n        /* \"#utility.yul\":13020:13022   */\n      0x20\n        /* \"#utility.yul\":13009:13018   */\n      dup3\n        /* \"#utility.yul\":13005:13023   */\n      add\n        /* \"#utility.yul\":12997:13023   */\n      swap1\n      pop\n        /* \"#utility.yul\":13033:13104   */\n      tag_377\n        /* \"#utility.yul\":13101:13102   */\n      0x00\n        /* \"#utility.yul\":13090:13099   */\n      dup4\n        /* \"#utility.yul\":13086:13103   */\n      add\n        /* \"#utility.yul\":13077:13083   */\n      dup5\n        /* \"#utility.yul\":13033:13104   */\n      tag_198\n      jump\t// in\n    tag_377:\n        /* \"#utility.yul\":12889:13111   */\n      swap3\n      swap2\n      pop\n      pop\n      jump\t// out\n        /* \"#utility.yul\":13117:13626   */\n    tag_54:\n        /* \"#utility.yul\":13186:13192   */\n      0x00\n        /* \"#utility.yul\":13235:13237   */\n      0x20\n        /* \"#utility.yul\":13223:13232   */\n      dup3\n        /* \"#utility.yul\":13214:13221   */\n      dup5\n        /* \"#utility.yul\":13210:13233   */\n      sub\n        /* \"#utility.yul\":13206:13238   */\n      slt\n        /* \"#utility.yul\":13203:13322   */\n      iszero\n      tag_379\n      jumpi\n        /* \"#utility.yul\":13241:13320   */\n      tag_380\n      tag_165\n      jump\t// in\n    tag_380:\n        /* \"#utility.yul\":13203:13322   */\n    tag_379:\n        /* \"#utility.yul\":13389:13390   */\n      0x00\n        /* \"#utility.yul\":13378:13387   */\n      dup3\n        /* \"#utility.yul\":13374:13391   */\n      add\n        /* \"#utility.yul\":13361:13392   */\n      calldataload\n        /* \"#utility.yul\":13419:13437   */\n      0xffffffffffffffff\n        /* \"#utility.yul\":13411:13417   */\n      dup2\n        /* \"#utility.yul\":13408:13438   */\n      gt\n        /* \"#utility.yul\":13405:13522   */\n      iszero\n      tag_381\n      jumpi\n        /* \"#utility.yul\":13441:13520   */\n      tag_382\n      tag_166\n      jump\t// in\n    tag_382:\n        /* \"#utility.yul\":13405:13522   */\n    tag_381:\n        /* \"#utility.yul\":13546:13609   */\n      tag_383\n        /* \"#utility.yul\":13601:13608   */\n      dup5\n        /* \"#utility.yul\":13592:13598   */\n      dup3\n        /* \"#utility.yul\":13581:13590   */\n      dup6\n        /* \"#utility.yul\":13577:13599   */\n      add\n        /* \"#utility.yul\":13546:13609   */\n      tag_190\n      jump\t// in\n    tag_383:\n        /* \"#utility.yul\":13536:13609   */\n      swap2\n      pop\n        /* \"#utility.yul\":13332:13619   */\n      pop\n        /* \"#utility.yul\":13117:13626   */\n      swap3\n      swap2\n      pop\n      pop\n      jump\t// out\n        /* \"#utility.yul\":13632:13801   */\n    tag_199:\n        /* \"#utility.yul\":13772:13793   */\n      0x4578616d20646f6573206e6f7420657869737400000000000000000000000000\n        /* \"#utility.yul\":13768:13769   */\n      0x00\n        /* \"#utility.yul\":13760:13766   */\n      dup3\n        /* \"#utility.yul\":13756:13770   */\n      add\n        /* \"#utility.yul\":13749:13794   */\n      mstore\n        /* \"#utility.yul\":13632:13801   */\n      pop\n      jump\t// out\n        /* \"#utility.yul\":13807:14173   */\n    tag_200:\n        /* \"#utility.yul\":13949:13952   */\n      0x00\n        /* \"#utility.yul\":13970:14037   */\n      tag_386\n        /* \"#utility.yul\":14034:14036   */\n      0x13\n        /* \"#utility.yul\":14029:14032   */\n      dup4\n        /* \"#utility.yul\":13970:14037   */\n      tag_195\n      jump\t// in\n    tag_386:\n        /* \"#utility.yul\":13963:14037   */\n      swap2\n      pop\n        /* \"#utility.yul\":14046:14139   */\n      tag_387\n        /* \"#utility.yul\":14135:14138   */\n      dup3\n        /* \"#utility.yul\":14046:14139   */\n      tag_199\n      jump\t// in\n    tag_387:\n        /* \"#utility.yul\":14164:14166   */\n      0x20\n        /* \"#utility.yul\":14159:14162   */\n      dup3\n        /* \"#utility.yul\":14155:14167   */\n      add\n        /* \"#utility.yul\":14148:14167   */\n      swap1\n      pop\n        /* \"#utility.yul\":13807:14173   */\n      swap2\n      swap1\n      pop\n      jump\t// out\n        /* \"#utility.yul\":14179:14598   */\n    tag_67:\n        /* \"#utility.yul\":14345:14349   */\n      0x00\n        /* \"#utility.yul\":14383:14385   */\n      0x20\n        /* \"#utility.yul\":14372:14381   */\n      dup3\n        /* \"#utility.yul\":14368:14386   */\n      add\n        /* \"#utility.yul\":14360:14386   */\n      swap1\n      pop\n        /* \"#utility.yul\":14432:14441   */\n      dup2\n        /* \"#utility.yul\":14426:14430   */\n      dup2\n        /* \"#utility.yul\":14422:14442   */\n      sub\n        /* \"#utility.yul\":14418:14419   */\n      0x00\n        /* \"#utility.yul\":14407:14416   */\n      dup4\n        /* \"#utility.yul\":14403:14420   */\n      add\n        /* \"#utility.yul\":14396:14443   */\n      mstore\n        /* \"#utility.yul\":14460:14591   */\n      tag_389\n        /* \"#utility.yul\":14586:14590   */\n      dup2\n        /* \"#utility.yul\":14460:14591   */\n      tag_200\n      jump\t// in\n    tag_389:\n        /* \"#utility.yul\":14452:14591   */\n      swap1\n      pop\n        /* \"#utility.yul\":14179:14598   */\n      swap2\n      swap1\n      pop\n      jump\t// out\n        /* \"#utility.yul\":14604:14826   */\n    tag_201:\n        /* \"#utility.yul\":14744:14778   */\n      0x596f75206861766520616c7265616479207375626d6974746564207468652065\n        /* \"#utility.yul\":14740:14741   */\n      0x00\n        /* \"#utility.yul\":14732:14738   */\n      dup3\n        /* \"#utility.yul\":14728:14742   */\n      add\n        /* \"#utility.yul\":14721:14779   */\n      mstore\n        /* \"#utility.yul\":14813:14818   */\n      0x78616d0000000000000000000000000000000000000000000000000000000000\n        /* \"#utility.yul\":14808:14810   */\n      0x20\n        /* \"#utility.yul\":14800:14806   */\n      dup3\n        /* \"#utility.yul\":14796:14811   */\n      add\n        /* \"#utility.yul\":14789:14819   */\n      mstore\n        /* \"#utility.yul\":14604:14826   */\n      pop\n      jump\t// out\n        /* \"#utility.yul\":14832:15198   */\n    tag_202:\n        /* \"#utility.yul\":14974:14977   */\n      0x00\n        /* \"#utility.yul\":14995:15062   */\n      tag_392\n        /* \"#utility.yul\":15059:15061   */\n      0x23\n        /* \"#utility.yul\":15054:15057   */\n      dup4\n        /* \"#utility.yul\":14995:15062   */\n      tag_195\n      jump\t// in\n    tag_392:\n        /* \"#utility.yul\":14988:15062   */\n      swap2\n      pop\n        /* \"#utility.yul\":15071:15164   */\n      tag_393\n        /* \"#utility.yul\":15160:15163   */\n      dup3\n        /* \"#utility.yul\":15071:15164   */\n      tag_201\n      jump\t// in\n    tag_393:\n        /* \"#utility.yul\":15189:15191   */\n      0x40\n        /* \"#utility.yul\":15184:15187   */\n      dup3\n        /* \"#utility.yul\":15180:15192   */\n      add\n        /* \"#utility.yul\":15173:15192   */\n      swap1\n      pop\n        /* \"#utility.yul\":14832:15198   */\n      swap2\n      swap1\n      pop\n      jump\t// out\n        /* \"#utility.yul\":15204:15623   */\n    tag_71:\n        /* \"#utility.yul\":15370:15374   */\n      0x00\n        /* \"#utility.yul\":15408:15410   */\n      0x20\n        /* \"#utility.yul\":15397:15406   */\n      dup3\n        /* \"#utility.yul\":15393:15411   */\n      add\n        /* \"#utility.yul\":15385:15411   */\n      swap1\n      pop\n        /* \"#utility.yul\":15457:15466   */\n      dup2\n        /* \"#utility.yul\":15451:15455   */\n      dup2\n        /* \"#utility.yul\":15447:15467   */\n      sub\n        /* \"#utility.yul\":15443:15444   */\n      0x00\n        /* \"#utility.yul\":15432:15441   */\n      dup4\n        /* \"#utility.yul\":15428:15445   */\n      add\n        /* \"#utility.yul\":15421:15468   */\n      mstore\n        /* \"#utility.yul\":15485:15616   */\n      tag_395\n        /* \"#utility.yul\":15611:15615   */\n      dup2\n        /* \"#utility.yul\":15485:15616   */\n      tag_202\n      jump\t// in\n    tag_395:\n        /* \"#utility.yul\":15477:15616   */\n      swap1\n      pop\n        /* \"#utility.yul\":15204:15623   */\n      swap2\n      swap1\n      pop\n      jump\t// out\n        /* \"#utility.yul\":15629:15804   */\n    tag_203:\n        /* \"#utility.yul\":15769:15796   */\n      0x4d75737420616e7377657220616c6c207175657374696f6e7300000000000000\n        /* \"#utility.yul\":15765:15766   */\n      0x00\n        /* \"#utility.yul\":15757:15763   */\n      dup3\n        /* \"#utility.yul\":15753:15767   */\n      add\n        /* \"#utility.yul\":15746:15797   */\n      mstore\n        /* \"#utility.yul\":15629:15804   */\n      pop\n      jump\t// out\n        /* \"#utility.yul\":15810:16176   */\n    tag_204:\n        /* \"#utility.yul\":15952:15955   */\n      0x00\n        /* \"#utility.yul\":15973:16040   */\n      tag_398\n        /* \"#utility.yul\":16037:16039   */\n      0x19\n        /* \"#utility.yul\":16032:16035   */\n      dup4\n        /* \"#utility.yul\":15973:16040   */\n      tag_195\n      jump\t// in\n    tag_398:\n        /* \"#utility.yul\":15966:16040   */\n      swap2\n      pop\n        /* \"#utility.yul\":16049:16142   */\n      tag_399\n        /* \"#utility.yul\":16138:16141   */\n      dup3\n        /* \"#utility.yul\":16049:16142   */\n      tag_203\n      jump\t// in\n    tag_399:\n        /* \"#utility.yul\":16167:16169   */\n      0x20\n        /* \"#utility.yul\":16162:16165   */\n      dup3\n        /* \"#utility.yul\":16158:16170   */\n      add\n        /* \"#utility.yul\":16151:16170   */\n      swap1\n      pop\n        /* \"#utility.yul\":15810:16176   */\n      swap2\n      swap1\n      pop\n      jump\t// out\n        /* \"#utility.yul\":16182:16601   */\n    tag_74:\n        /* \"#utility.yul\":16348:16352   */\n      0x00\n        /* \"#utility.yul\":16386:16388   */\n      0x20\n        /* \"#utility.yul\":16375:16384   */\n      dup3\n        /* \"#utility.yul\":16371:16389   */\n      add\n        /* \"#utility.yul\":16363:16389   */\n      swap1\n      pop\n        /* \"#utility.yul\":16435:16444   */\n      dup2\n        /* \"#utility.yul\":16429:16433   */\n      dup2\n        /* \"#utility.yul\":16425:16445   */\n      sub\n        /* \"#utility.yul\":16421:16422   */\n      0x00\n        /* \"#utility.yul\":16410:16419   */\n      dup4\n        /* \"#utility.yul\":16406:16423   */\n      add\n        /* \"#utility.yul\":16399:16446   */\n      mstore\n        /* \"#utility.yul\":16463:16594   */\n      tag_401\n        /* \"#utility.yul\":16589:16593   */\n      dup2\n        /* \"#utility.yul\":16463:16594   */\n      tag_204\n      jump\t// in\n    tag_401:\n        /* \"#utility.yul\":16455:16594   */\n      swap1\n      pop\n        /* \"#utility.yul\":16182:16601   */\n      swap2\n      swap1\n      pop\n      jump\t// out\n        /* \"#utility.yul\":16607:16787   */\n    tag_80:\n        /* \"#utility.yul\":16655:16732   */\n      0x4e487b7100000000000000000000000000000000000000000000000000000000\n        /* \"#utility.yul\":16652:16653   */\n      0x00\n        /* \"#utility.yul\":16645:16733   */\n      mstore\n        /* \"#utility.yul\":16752:16756   */\n      0x32\n        /* \"#utility.yul\":16749:16750   */\n      0x04\n        /* \"#utility.yul\":16742:16757   */\n      mstore\n        /* \"#utility.yul\":16776:16780   */\n      0x24\n        /* \"#utility.yul\":16773:16774   */\n      0x00\n        /* \"#utility.yul\":16766:16781   */\n      revert\n        /* \"#utility.yul\":16793:16973   */\n    tag_205:\n        /* \"#utility.yul\":16841:16918   */\n      0x4e487b7100000000000000000000000000000000000000000000000000000000\n        /* \"#utility.yul\":16838:16839   */\n      0x00\n        /* \"#utility.yul\":16831:16919   */\n      mstore\n        /* \"#utility.yul\":16938:16942   */\n      0x11\n        /* \"#utility.yul\":16935:16936   */\n      0x04\n        /* \"#utility.yul\":16928:16943   */\n      mstore\n        /* \"#utility.yul\":16962:16966   */\n      0x24\n        /* \"#utility.yul\":16959:16960   */\n      0x00\n        /* \"#utility.yul\":16952:16967   */\n      revert\n        /* \"#utility.yul\":16979:17170   */\n    tag_83:\n        /* \"#utility.yul\":17019:17022   */\n      0x00\n        /* \"#utility.yul\":17038:17058   */\n      tag_405\n        /* \"#utility.yul\":17056:17057   */\n      dup3\n        /* \"#utility.yul\":17038:17058   */\n      tag_167\n      jump\t// in\n    tag_405:\n        /* \"#utility.yul\":17033:17058   */\n      swap2\n      pop\n        /* \"#utility.yul\":17072:17092   */\n      tag_406\n        /* \"#utility.yul\":17090:17091   */\n      dup4\n        /* \"#utility.yul\":17072:17092   */\n      tag_167\n      jump\t// in\n    tag_406:\n        /* \"#utility.yul\":17067:17092   */\n      swap3\n      pop\n        /* \"#utility.yul\":17115:17116   */\n      dup3\n        /* \"#utility.yul\":17112:17113   */\n      dup3\n        /* \"#utility.yul\":17108:17117   */\n      add\n        /* \"#utility.yul\":17101:17117   */\n      swap1\n      pop\n        /* \"#utility.yul\":17136:17139   */\n      dup1\n        /* \"#utility.yul\":17133:17134   */\n      dup3\n        /* \"#utility.yul\":17130:17140   */\n      gt\n        /* \"#utility.yul\":17127:17163   */\n      iszero\n      tag_407\n      jumpi\n        /* \"#utility.yul\":17143:17161   */\n      tag_408\n      tag_205\n      jump\t// in\n    tag_408:\n        /* \"#utility.yul\":17127:17163   */\n    tag_407:\n        /* \"#utility.yul\":16979:17170   */\n      swap3\n      swap2\n      pop\n      pop\n      jump\t// out\n        /* \"#utility.yul\":17176:17397   */\n    tag_206:\n        /* \"#utility.yul\":17316:17350   */\n      0x4f6e6c79206f776e65722063616e20706572666f726d20746869732061637469\n        /* \"#utility.yul\":17312:17313   */\n      0x00\n        /* \"#utility.yul\":17304:17310   */\n      dup3\n        /* \"#utility.yul\":17300:17314   */\n      add\n        /* \"#utility.yul\":17293:17351   */\n      mstore\n        /* \"#utility.yul\":17385:17389   */\n      0x6f6e000000000000000000000000000000000000000000000000000000000000\n        /* \"#utility.yul\":17380:17382   */\n      0x20\n        /* \"#utility.yul\":17372:17378   */\n      dup3\n        /* \"#utility.yul\":17368:17383   */\n      add\n        /* \"#utility.yul\":17361:17390   */\n      mstore\n        /* \"#utility.yul\":17176:17397   */\n      pop\n      jump\t// out\n        /* \"#utility.yul\":17403:17769   */\n    tag_207:\n        /* \"#utility.yul\":17545:17548   */\n      0x00\n        /* \"#utility.yul\":17566:17633   */\n      tag_411\n        /* \"#utility.yul\":17630:17632   */\n      0x22\n        /* \"#utility.yul\":17625:17628   */\n      dup4\n        /* \"#utility.yul\":17566:17633   */\n      tag_195\n      jump\t// in\n    tag_411:\n        /* \"#utility.yul\":17559:17633   */\n      swap2\n      pop\n        /* \"#utility.yul\":17642:17735   */\n      tag_412\n        /* \"#utility.yul\":17731:17734   */\n      dup3\n        /* \"#utility.yul\":17642:17735   */\n      tag_206\n      jump\t// in\n    tag_412:\n        /* \"#utility.yul\":17760:17762   */\n      0x40\n        /* \"#utility.yul\":17755:17758   */\n      dup3\n        /* \"#utility.yul\":17751:17763   */\n      add\n        /* \"#utility.yul\":17744:17763   */\n      swap1\n      pop\n        /* \"#utility.yul\":17403:17769   */\n      swap2\n      swap1\n      pop\n      jump\t// out\n        /* \"#utility.yul\":17775:18194   */\n    tag_89:\n        /* \"#utility.yul\":17941:17945   */\n      0x00\n        /* \"#utility.yul\":17979:17981   */\n      0x20\n        /* \"#utility.yul\":17968:17977   */\n      dup3\n        /* \"#utility.yul\":17964:17982   */\n      add\n        /* \"#utility.yul\":17956:17982   */\n      swap1\n      pop\n        /* \"#utility.yul\":18028:18037   */\n      dup2\n        /* \"#utility.yul\":18022:18026   */\n      dup2\n        /* \"#utility.yul\":18018:18038   */\n      sub\n        /* \"#utility.yul\":18014:18015   */\n      0x00\n        /* \"#utility.yul\":18003:18012   */\n      dup4\n        /* \"#utility.yul\":17999:18016   */\n      add\n        /* \"#utility.yul\":17992:18039   */\n      mstore\n        /* \"#utility.yul\":18056:18187   */\n      tag_414\n        /* \"#utility.yul\":18182:18186   */\n      dup2\n        /* \"#utility.yul\":18056:18187   */\n      tag_207\n      jump\t// in\n    tag_414:\n        /* \"#utility.yul\":18048:18187   */\n      swap1\n      pop\n        /* \"#utility.yul\":17775:18194   */\n      swap2\n      swap1\n      pop\n      jump\t// out\n        /* \"#utility.yul\":18200:18380   */\n    tag_208:\n        /* \"#utility.yul\":18340:18372   */\n      0x43616e6e6f74206d6f64696679206166746572207075626c697368696e670000\n        /* \"#utility.yul\":18336:18337   */\n      0x00\n        /* \"#utility.yul\":18328:18334   */\n      dup3\n        /* \"#utility.yul\":18324:18338   */\n      add\n        /* \"#utility.yul\":18317:18373   */\n      mstore\n        /* \"#utility.yul\":18200:18380   */\n      pop\n      jump\t// out\n        /* \"#utility.yul\":18386:18752   */\n    tag_209:\n        /* \"#utility.yul\":18528:18531   */\n      0x00\n        /* \"#utility.yul\":18549:18616   */\n      tag_417\n        /* \"#utility.yul\":18613:18615   */\n      0x1e\n        /* \"#utility.yul\":18608:18611   */\n      dup4\n        /* \"#utility.yul\":18549:18616   */\n      tag_195\n      jump\t// in\n    tag_417:\n        /* \"#utility.yul\":18542:18616   */\n      swap2\n      pop\n        /* \"#utility.yul\":18625:18718   */\n      tag_418\n        /* \"#utility.yul\":18714:18717   */\n      dup3\n        /* \"#utility.yul\":18625:18718   */\n      tag_208\n      jump\t// in\n    tag_418:\n        /* \"#utility.yul\":18743:18745   */\n      0x20\n        /* \"#utility.yul\":18738:18741   */\n      dup3\n        /* \"#utility.yul\":18734:18746   */\n      add\n        /* \"#utility.yul\":18727:18746   */\n      swap1\n      pop\n        /* \"#utility.yul\":18386:18752   */\n      swap2\n      swap1\n      pop\n      jump\t// out\n        /* \"#utility.yul\":18758:19177   */\n    tag_96:\n        /* \"#utility.yul\":18924:18928   */\n      0x00\n        /* \"#utility.yul\":18962:18964   */\n      0x20\n        /* \"#utility.yul\":18951:18960   */\n      dup3\n        /* \"#utility.yul\":18947:18965   */\n      add\n        /* \"#utility.yul\":18939:18965   */\n      swap1\n      pop\n        /* \"#utility.yul\":19011:19020   */\n      dup2\n        /* \"#utility.yul\":19005:19009   */\n      dup2\n        /* \"#utility.yul\":19001:19021   */\n      sub\n        /* \"#utility.yul\":18997:18998   */\n      0x00\n        /* \"#utility.yul\":18986:18995   */\n      dup4\n        /* \"#utility.yul\":18982:18999   */\n      add\n        /* \"#utility.yul\":18975:19022   */\n      mstore\n        /* \"#utility.yul\":19039:19170   */\n      tag_420\n        /* \"#utility.yul\":19165:19169   */\n      dup2\n        /* \"#utility.yul\":19039:19170   */\n      tag_209\n      jump\t// in\n    tag_420:\n        /* \"#utility.yul\":19031:19170   */\n      swap1\n      pop\n        /* \"#utility.yul\":18758:19177   */\n      swap2\n      swap1\n      pop\n      jump\t// out\n        /* \"#utility.yul\":19183:19361   */\n    tag_210:\n        /* \"#utility.yul\":19323:19353   */\n      0x4d7573742068617665206174206c656173742032206f7074696f6e7300000000\n        /* \"#utility.yul\":19319:19320   */\n      0x00\n        /* \"#utility.yul\":19311:19317   */\n      dup3\n        /* \"#utility.yul\":19307:19321   */\n      add\n        /* \"#utility.yul\":19300:19354   */\n      mstore\n        /* \"#utility.yul\":19183:19361   */\n      pop\n      jump\t// out\n        /* \"#utility.yul\":19367:19733   */\n    tag_211:\n        /* \"#utility.yul\":19509:19512   */\n      0x00\n        /* \"#utility.yul\":19530:19597   */\n      tag_423\n        /* \"#utility.yul\":19594:19596   */\n      0x1c\n        /* \"#utility.yul\":19589:19592   */\n      dup4\n        /* \"#utility.yul\":19530:19597   */\n      tag_195\n      jump\t// in\n    tag_423:\n        /* \"#utility.yul\":19523:19597   */\n      swap2\n      pop\n        /* \"#utility.yul\":19606:19699   */\n      tag_424\n        /* \"#utility.yul\":19695:19698   */\n      dup3\n        /* \"#utility.yul\":19606:19699   */\n      tag_210\n      jump\t// in\n    tag_424:\n        /* \"#utility.yul\":19724:19726   */\n      0x20\n        /* \"#utility.yul\":19719:19722   */\n      dup3\n        /* \"#utility.yul\":19715:19727   */\n      add\n        /* \"#utility.yul\":19708:19727   */\n      swap1\n      pop\n        /* \"#utility.yul\":19367:19733   */\n      swap2\n      swap1\n      pop\n      jump\t// out\n        /* \"#utility.yul\":19739:20158   */\n    tag_99:\n        /* \"#utility.yul\":19905:19909   */\n      0x00\n        /* \"#utility.yul\":19943:19945   */\n      0x20\n        /* \"#utility.yul\":19932:19941   */\n      dup3\n        /* \"#utility.yul\":19928:19946   */\n      add\n        /* \"#utility.yul\":19920:19946   */\n      swap1\n      pop\n        /* \"#utility.yul\":19992:20001   */\n      dup2\n        /* \"#utility.yul\":19986:19990   */\n      dup2\n        /* \"#utility.yul\":19982:20002   */\n      sub\n        /* \"#utility.yul\":19978:19979   */\n      0x00\n        /* \"#utility.yul\":19967:19976   */\n      dup4\n        /* \"#utility.yul\":19963:19980   */\n      add\n        /* \"#utility.yul\":19956:20003   */\n      mstore\n        /* \"#utility.yul\":20020:20151   */\n      tag_426\n        /* \"#utility.yul\":20146:20150   */\n      dup2\n        /* \"#utility.yul\":20020:20151   */\n      tag_211\n      jump\t// in\n    tag_426:\n        /* \"#utility.yul\":20012:20151   */\n      swap1\n      pop\n        /* \"#utility.yul\":19739:20158   */\n      swap2\n      swap1\n      pop\n      jump\t// out\n        /* \"#utility.yul\":20164:20342   */\n    tag_212:\n        /* \"#utility.yul\":20304:20334   */\n      0x496e76616c696420636f727265637420616e7377657220696e64657800000000\n        /* \"#utility.yul\":20300:20301   */\n      0x00\n        /* \"#utility.yul\":20292:20298   */\n      dup3\n        /* \"#utility.yul\":20288:20302   */\n      add\n        /* \"#utility.yul\":20281:20335   */\n      mstore\n        /* \"#utility.yul\":20164:20342   */\n      pop\n      jump\t// out\n        /* \"#utility.yul\":20348:20714   */\n    tag_213:\n        /* \"#utility.yul\":20490:20493   */\n      0x00\n        /* \"#utility.yul\":20511:20578   */\n      tag_429\n        /* \"#utility.yul\":20575:20577   */\n      0x1c\n        /* \"#utility.yul\":20570:20573   */\n      dup4\n        /* \"#utility.yul\":20511:20578   */\n      tag_195\n      jump\t// in\n    tag_429:\n        /* \"#utility.yul\":20504:20578   */\n      swap2\n      pop\n        /* \"#utility.yul\":20587:20680   */\n      tag_430\n        /* \"#utility.yul\":20676:20679   */\n      dup3\n        /* \"#utility.yul\":20587:20680   */\n      tag_212\n      jump\t// in\n    tag_430:\n        /* \"#utility.yul\":20705:20707   */\n      0x20\n        /* \"#utility.yul\":20700:20703   */\n      dup3\n        /* \"#utility.yul\":20696:20708   */\n      add\n        /* \"#utility.yul\":20689:20708   */\n      swap1\n      pop\n        /* \"#utility.yul\":20348:20714   */\n      swap2\n      swap1\n      pop\n      jump\t// out\n        /* \"#utility.yul\":20720:21139   */\n    tag_102:\n        /* \"#utility.yul\":20886:20890   */\n      0x00\n        /* \"#utility.yul\":20924:20926   */\n      0x20\n        /* \"#utility.yul\":20913:20922   */\n      dup3\n        /* \"#utility.yul\":20909:20927   */\n      add\n        /* \"#utility.yul\":20901:20927   */\n      swap1\n      pop\n        /* \"#utility.yul\":20973:20982   */\n      dup2\n        /* \"#utility.yul\":20967:20971   */\n      dup2\n        /* \"#utility.yul\":20963:20983   */\n      sub\n        /* \"#utility.yul\":20959:20960   */\n      0x00\n        /* \"#utility.yul\":20948:20957   */\n      dup4\n        /* \"#utility.yul\":20944:20961   */\n      add\n        /* \"#utility.yul\":20937:20984   */\n      mstore\n        /* \"#utility.yul\":21001:21132   */\n      tag_432\n        /* \"#utility.yul\":21127:21131   */\n      dup2\n        /* \"#utility.yul\":21001:21132   */\n      tag_213\n      jump\t// in\n    tag_432:\n        /* \"#utility.yul\":20993:21132   */\n      swap1\n      pop\n        /* \"#utility.yul\":20720:21139   */\n      swap2\n      swap1\n      pop\n      jump\t// out\n        /* \"#utility.yul\":21145:21325   */\n    tag_214:\n        /* \"#utility.yul\":21193:21270   */\n      0x4e487b7100000000000000000000000000000000000000000000000000000000\n        /* \"#utility.yul\":21190:21191   */\n      0x00\n        /* \"#utility.yul\":21183:21271   */\n      mstore\n        /* \"#utility.yul\":21290:21294   */\n      0x22\n        /* \"#utility.yul\":21287:21288   */\n      0x04\n        /* \"#utility.yul\":21280:21295   */\n      mstore\n        /* \"#utility.yul\":21314:21318   */\n      0x24\n        /* \"#utility.yul\":21311:21312   */\n      0x00\n        /* \"#utility.yul\":21304:21319   */\n      revert\n        /* \"#utility.yul\":21331:21651   */\n    tag_124:\n        /* \"#utility.yul\":21375:21381   */\n      0x00\n        /* \"#utility.yul\":21412:21413   */\n      0x02\n        /* \"#utility.yul\":21406:21410   */\n      dup3\n        /* \"#utility.yul\":21402:21414   */\n      div\n        /* \"#utility.yul\":21392:21414   */\n      swap1\n      pop\n        /* \"#utility.yul\":21459:21460   */\n      0x01\n        /* \"#utility.yul\":21453:21457   */\n      dup3\n        /* \"#utility.yul\":21449:21461   */\n      and\n        /* \"#utility.yul\":21480:21498   */\n      dup1\n        /* \"#utility.yul\":21470:21551   */\n      tag_435\n      jumpi\n        /* \"#utility.yul\":21536:21540   */\n      0x7f\n        /* \"#utility.yul\":21528:21534   */\n      dup3\n        /* \"#utility.yul\":21524:21541   */\n      and\n        /* \"#utility.yul\":21514:21541   */\n      swap2\n      pop\n        /* \"#utility.yul\":21470:21551   */\n    tag_435:\n        /* \"#utility.yul\":21598:21600   */\n      0x20\n        /* \"#utility.yul\":21590:21596   */\n      dup3\n        /* \"#utility.yul\":21587:21601   */\n      lt\n        /* \"#utility.yul\":21567:21585   */\n      dup2\n        /* \"#utility.yul\":21564:21602   */\n      sub\n        /* \"#utility.yul\":21561:21645   */\n      tag_436\n      jumpi\n        /* \"#utility.yul\":21617:21635   */\n      tag_437\n      tag_214\n      jump\t// in\n    tag_437:\n        /* \"#utility.yul\":21561:21645   */\n    tag_436:\n        /* \"#utility.yul\":21382:21651   */\n      pop\n        /* \"#utility.yul\":21331:21651   */\n      swap2\n      swap1\n      pop\n      jump\t// out\n        /* \"#utility.yul\":21657:21798   */\n    tag_215:\n        /* \"#utility.yul\":21706:21710   */\n      0x00\n        /* \"#utility.yul\":21729:21732   */\n      dup2\n        /* \"#utility.yul\":21721:21732   */\n      swap1\n      pop\n        /* \"#utility.yul\":21752:21755   */\n      dup2\n        /* \"#utility.yul\":21749:21750   */\n      0x00\n        /* \"#utility.yul\":21742:21756   */\n      mstore\n        /* \"#utility.yul\":21786:21790   */\n      0x20\n        /* \"#utility.yul\":21783:21784   */\n      0x00\n        /* \"#utility.yul\":21773:21791   */\n      keccak256\n        /* \"#utility.yul\":21765:21791   */\n      swap1\n      pop\n        /* \"#utility.yul\":21657:21798   */\n      swap2\n      swap1\n      pop\n      jump\t// out\n        /* \"#utility.yul\":21804:21897   */\n    tag_216:\n        /* \"#utility.yul\":21841:21847   */\n      0x00\n        /* \"#utility.yul\":21888:21890   */\n      0x20\n        /* \"#utility.yul\":21883:21885   */\n      0x1f\n        /* \"#utility.yul\":21876:21881   */\n      dup4\n        /* \"#utility.yul\":21872:21886   */\n      add\n        /* \"#utility.yul\":21868:21891   */\n      div\n        /* \"#utility.yul\":21858:21891   */\n      swap1\n      pop\n        /* \"#utility.yul\":21804:21897   */\n      swap2\n      swap1\n      pop\n      jump\t// out\n        /* \"#utility.yul\":21903:22010   */\n    tag_217:\n        /* \"#utility.yul\":21947:21955   */\n      0x00\n        /* \"#utility.yul\":21997:22002   */\n      dup3\n        /* \"#utility.yul\":21991:21995   */\n      dup3\n        /* \"#utility.yul\":21987:22003   */\n      shl\n        /* \"#utility.yul\":21966:22003   */\n      swap1\n      pop\n        /* \"#utility.yul\":21903:22010   */\n      swap3\n      swap2\n      pop\n      pop\n      jump\t// out\n        /* \"#utility.yul\":22016:22409   */\n    tag_218:\n        /* \"#utility.yul\":22085:22091   */\n      0x00\n        /* \"#utility.yul\":22135:22136   */\n      0x08\n        /* \"#utility.yul\":22123:22133   */\n      dup4\n        /* \"#utility.yul\":22119:22137   */\n      mul\n        /* \"#utility.yul\":22158:22255   */\n      tag_442\n        /* \"#utility.yul\":22188:22254   */\n      0xffffffffffffffffffffffffffffffffffffffffffffffffffffffffffffffff\n        /* \"#utility.yul\":22177:22186   */\n      dup3\n        /* \"#utility.yul\":22158:22255   */\n      tag_217\n      jump\t// in\n    tag_442:\n        /* \"#utility.yul\":22276:22315   */\n      tag_443\n        /* \"#utility.yul\":22306:22314   */\n      dup7\n        /* \"#utility.yul\":22295:22304   */\n      dup4\n        /* \"#utility.yul\":22276:22315   */\n      tag_217\n      jump\t// in\n    tag_443:\n        /* \"#utility.yul\":22264:22315   */\n      swap6\n      pop\n        /* \"#utility.yul\":22348:22352   */\n      dup1\n        /* \"#utility.yul\":22344:22353   */\n      not\n        /* \"#utility.yul\":22337:22342   */\n      dup5\n        /* \"#utility.yul\":22333:22354   */\n      and\n        /* \"#utility.yul\":22324:22354   */\n      swap4\n      pop\n        /* \"#utility.yul\":22397:22401   */\n      dup1\n        /* \"#utility.yul\":22387:22395   */\n      dup7\n        /* \"#utility.yul\":22383:22402   */\n      and\n        /* \"#utility.yul\":22376:22381   */\n      dup5\n        /* \"#utility.yul\":22373:22403   */\n      or\n        /* \"#utility.yul\":22363:22403   */\n      swap3\n      pop\n        /* \"#utility.yul\":22092:22409   */\n      pop\n      pop\n        /* \"#utility.yul\":22016:22409   */\n      swap4\n      swap3\n      pop\n      pop\n      pop\n      jump\t// out\n        /* \"#utility.yul\":22415:22475   */\n    tag_219:\n        /* \"#utility.yul\":22443:22446   */\n      0x00\n        /* \"#utility.yul\":22464:22469   */\n      dup2\n        /* \"#utility.yul\":22457:22469   */\n      swap1\n      pop\n        /* \"#utility.yul\":22415:22475   */\n      swap2\n      swap1\n      pop\n      jump\t// out\n        /* \"#utility.yul\":22481:22623   */\n    tag_220:\n        /* \"#utility.yul\":22531:22540   */\n      0x00\n        /* \"#utility.yul\":22564:22617   */\n      tag_446\n        /* \"#utility.yul\":22582:22616   */\n      tag_447\n        /* \"#utility.yul\":22591:22615   */\n      tag_448\n        /* \"#utility.yul\":22609:22614   */\n      dup5\n        /* \"#utility.yul\":22591:22615   */\n      tag_167\n      jump\t// in\n    tag_448:\n        /* \"#utility.yul\":22582:22616   */\n      tag_219\n      jump\t// in\n    tag_447:\n        /* \"#utility.yul\":22564:22617   */\n      tag_167\n      jump\t// in\n    tag_446:\n        /* \"#utility.yul\":22551:22617   */\n      swap1\n      pop\n        /* \"#utility.yul\":22481:22623   */\n      swap2\n      swap1\n      pop\n      jump\t// out\n        /* \"#utility.yul\":22629:22704   */\n    tag_221:\n        /* \"#utility.yul\":22672:22675   */\n      0x00\n        /* \"#utility.yul\":22693:22698   */\n      dup2\n        /* \"#utility.yul\":22686:22698   */\n      swap1\n      pop\n        /* \"#utility.yul\":22629:22704   */\n      swap2\n      swap1\n      pop\n      jump\t// out\n        /* \"#utility.yul\":22710:22979   */\n    tag_222:\n        /* \"#utility.yul\":22820:22859   */\n      tag_451\n        /* \"#utility.yul\":22851:22858   */\n      dup4\n        /* \"#utility.yul\":22820:22859   */\n      tag_220\n      jump\t// in\n    tag_451:\n        /* \"#utility.yul\":22881:22972   */\n      tag_452\n        /* \"#utility.yul\":22930:22971   */\n      tag_453\n        /* \"#utility.yul\":22954:22970   */\n      dup3\n        /* \"#utility.yul\":22930:22971   */\n      tag_221\n      jump\t// in\n    tag_453:\n        /* \"#utility.yul\":22922:22928   */\n      dup5\n        /* \"#utility.yul\":22915:22919   */\n      dup5\n        /* \"#utility.yul\":22909:22920   */\n      sload\n        /* \"#utility.yul\":22881:22972   */\n      tag_218\n      jump\t// in\n    tag_452:\n        /* \"#utility.yul\":22875:22879   */\n      dup3\n        /* \"#utility.yul\":22868:22973   */\n      sstore\n        /* \"#utility.yul\":22786:22979   */\n      pop\n        /* \"#utility.yul\":22710:22979   */\n      pop\n      pop\n      pop\n      jump\t// out\n        /* \"#utility.yul\":22985:23058   */\n    tag_223:\n        /* \"#utility.yul\":23030:23033   */\n      0x00\n        /* \"#utility.yul\":23051:23052   */\n      0x00\n        /* \"#utility.yul\":23044:23052   */\n      swap1\n      pop\n        /* \"#utility.yul\":22985:23058   */\n      swap1\n      jump\t// out\n        /* \"#utility.yul\":23064:23253   */\n    tag_224:\n        /* \"#utility.yul\":23141:23173   */\n      tag_456\n      tag_223\n      jump\t// in\n    tag_456:\n        /* \"#utility.yul\":23182:23247   */\n      tag_457\n        /* \"#utility.yul\":23240:23246   */\n      dup2\n        /* \"#utility.yul\":23232:23238   */\n      dup5\n        /* \"#utility.yul\":23226:23230   */\n      dup5\n        /* \"#utility.yul\":23182:23247   */\n      tag_222\n      jump\t// in\n    tag_457:\n        /* \"#utility.yul\":23117:23253   */\n      pop\n        /* \"#utility.yul\":23064:23253   */\n      pop\n      pop\n      jump\t// out\n        /* \"#utility.yul\":23259:23445   */\n    tag_225:\n        /* \"#utility.yul\":23319:23439   */\n    tag_459:\n        /* \"#utility.yul\":23336:23339   */\n      dup2\n        /* \"#utility.yul\":23329:23334   */\n      dup2\n        /* \"#utility.yul\":23326:23340   */\n      lt\n        /* \"#utility.yul\":23319:23439   */\n      iszero\n      tag_461\n      jumpi\n        /* \"#utility.yul\":23390:23429   */\n      tag_462\n        /* \"#utility.yul\":23427:23428   */\n      0x00\n        /* \"#utility.yul\":23420:23425   */\n      dup3\n        /* \"#utility.yul\":23390:23429   */\n      tag_224\n      jump\t// in\n    tag_462:\n        /* \"#utility.yul\":23363:23364   */\n      0x01\n        /* \"#utility.yul\":23356:23361   */\n      dup2\n        /* \"#utility.yul\":23352:23365   */\n      add\n        /* \"#utility.yul\":23343:23365   */\n      swap1\n      pop\n        /* \"#utility.yul\":23319:23439   */\n      jump(tag_459)\n    tag_461:\n        /* \"#utility.yul\":23259:23445   */\n      pop\n      pop\n      jump\t// out\n        /* \"#utility.yul\":23451:23994   */\n    tag_226:\n        /* \"#utility.yul\":23552:23554   */\n      0x1f\n        /* \"#utility.yul\":23547:23550   */\n      dup3\n        /* \"#utility.yul\":23544:23555   */\n      gt\n        /* \"#utility.yul\":23541:23987   */\n      iszero\n      tag_464\n      jumpi\n        /* \"#utility.yul\":23586:23624   */\n      tag_465\n        /* \"#utility.yul\":23618:23623   */\n      dup2\n        /* \"#utility.yul\":23586:23624   */\n      tag_215\n      jump\t// in\n    tag_465:\n        /* \"#utility.yul\":23670:23699   */\n      tag_466\n        /* \"#utility.yul\":23688:23698   */\n      dup5\n        /* \"#utility.yul\":23670:23699   */\n      tag_216\n      jump\t// in\n    tag_466:\n        /* \"#utility.yul\":23660:23668   */\n      dup2\n        /* \"#utility.yul\":23656:23700   */\n      add\n        /* \"#utility.yul\":23853:23855   */\n      0x20\n        /* \"#utility.yul\":23841:23851   */\n      dup6\n        /* \"#utility.yul\":23838:23856   */\n      lt\n        /* \"#utility.yul\":23835:23884   */\n      iszero\n      tag_467\n      jumpi\n        /* \"#utility.yul\":23874:23882   */\n      dup2\n        /* \"#utility.yul\":23859:23882   */\n      swap1\n      pop\n        /* \"#utility.yul\":23835:23884   */\n    tag_467:\n        /* \"#utility.yul\":23897:23977   */\n      tag_468\n        /* \"#utility.yul\":23953:23975   */\n      tag_469\n        /* \"#utility.yul\":23971:23974   */\n      dup6\n        /* \"#utility.yul\":23953:23975   */\n      tag_216\n      jump\t// in\n    tag_469:\n        /* \"#utility.yul\":23943:23951   */\n      dup4\n        /* \"#utility.yul\":23939:23976   */\n      add\n        /* \"#utility.yul\":23926:23937   */\n      dup3\n        /* \"#utility.yul\":23897:23977   */\n      tag_225\n      jump\t// in\n    tag_468:\n        /* \"#utility.yul\":23556:23987   */\n      pop\n      pop\n        /* \"#utility.yul\":23541:23987   */\n    tag_464:\n        /* \"#utility.yul\":23451:23994   */\n      pop\n      pop\n      pop\n      jump\t// out\n        /* \"#utility.yul\":24000:24117   */\n    tag_227:\n        /* \"#utility.yul\":24054:24062   */\n      0x00\n        /* \"#utility.yul\":24104:24109   */\n      dup3\n        /* \"#utility.yul\":24098:24102   */\n      dup3\n        /* \"#utility.yul\":24094:24110   */\n      shr\n        /* \"#utility.yul\":24073:24110   */\n      swap1\n      pop\n        /* \"#utility.yul\":24000:24117   */\n      swap3\n      swap2\n      pop\n      pop\n      jump\t// out\n        /* \"#utility.yul\":24123:24292   */\n    tag_228:\n        /* \"#utility.yul\":24167:24173   */\n      0x00\n        /* \"#utility.yul\":24200:24251   */\n      tag_472\n        /* \"#utility.yul\":24248:24249   */\n      0x00\n        /* \"#utility.yul\":24244:24250   */\n      not\n        /* \"#utility.yul\":24236:24241   */\n      dup5\n        /* \"#utility.yul\":24233:24234   */\n      0x08\n        /* \"#utility.yul\":24229:24242   */\n      mul\n        /* \"#utility.yul\":24200:24251   */\n      tag_227\n      jump\t// in\n    tag_472:\n        /* \"#utility.yul\":24196:24252   */\n      not\n        /* \"#utility.yul\":24281:24285   */\n      dup1\n        /* \"#utility.yul\":24275:24279   */\n      dup4\n        /* \"#utility.yul\":24271:24286   */\n      and\n        /* \"#utility.yul\":24261:24286   */\n      swap2\n      pop\n        /* \"#utility.yul\":24174:24292   */\n      pop\n        /* \"#utility.yul\":24123:24292   */\n      swap3\n      swap2\n      pop\n      pop\n      jump\t// out\n        /* \"#utility.yul\":24297:24592   */\n    tag_229:\n        /* \"#utility.yul\":24373:24377   */\n      0x00\n        /* \"#utility.yul\":24519:24548   */\n      tag_474\n        /* \"#utility.yul\":24544:24547   */\n      dup4\n        /* \"#utility.yul\":24538:24542   */\n      dup4\n        /* \"#utility.yul\":24519:24548   */\n      tag_228\n      jump\t// in\n    tag_474:\n        /* \"#utility.yul\":24511:24548   */\n      swap2\n      pop\n        /* \"#utility.yul\":24581:24584   */\n      dup3\n        /* \"#utility.yul\":24578:24579   */\n      0x02\n        /* \"#utility.yul\":24574:24585   */\n      mul\n        /* \"#utility.yul\":24568:24572   */\n      dup3\n        /* \"#utility.yul\":24565:24586   */\n      or\n        /* \"#utility.yul\":24557:24586   */\n      swap1\n      pop\n        /* \"#utility.yul\":24297:24592   */\n      swap3\n      swap2\n      pop\n      pop\n      jump\t// out\n        /* \"#utility.yul\":24597:25992   */\n    tag_104:\n        /* \"#utility.yul\":24714:24751   */\n      tag_476\n        /* \"#utility.yul\":24747:24750   */\n      dup3\n        /* \"#utility.yul\":24714:24751   */\n      tag_194\n      jump\t// in\n    tag_476:\n        /* \"#utility.yul\":24816:24834   */\n      0xffffffffffffffff\n        /* \"#utility.yul\":24808:24814   */\n      dup2\n        /* \"#utility.yul\":24805:24835   */\n      gt\n        /* \"#utility.yul\":24802:24858   */\n      iszero\n      tag_477\n      jumpi\n        /* \"#utility.yul\":24838:24856   */\n      tag_478\n      tag_172\n      jump\t// in\n    tag_478:\n        /* \"#utility.yul\":24802:24858   */\n    tag_477:\n        /* \"#utility.yul\":24882:24920   */\n      tag_479\n        /* \"#utility.yul\":24914:24918   */\n      dup3\n        /* \"#utility.yul\":24908:24919   */\n      sload\n        /* \"#utility.yul\":24882:24920   */\n      tag_124\n      jump\t// in\n    tag_479:\n        /* \"#utility.yul\":24967:25034   */\n      tag_480\n        /* \"#utility.yul\":25027:25033   */\n      dup3\n        /* \"#utility.yul\":25019:25025   */\n      dup3\n        /* \"#utility.yul\":25013:25017   */\n      dup6\n        /* \"#utility.yul\":24967:25034   */\n      tag_226\n      jump\t// in\n    tag_480:\n        /* \"#utility.yul\":25061:25062   */\n      0x00\n        /* \"#utility.yul\":25085:25089   */\n      0x20\n        /* \"#utility.yul\":25072:25089   */\n      swap1\n      pop\n        /* \"#utility.yul\":25117:25119   */\n      0x1f\n        /* \"#utility.yul\":25109:25115   */\n      dup4\n        /* \"#utility.yul\":25106:25120   */\n      gt\n        /* \"#utility.yul\":25134:25135   */\n      0x01\n        /* \"#utility.yul\":25129:25747   */\n      dup2\n      eq\n      tag_482\n      jumpi\n        /* \"#utility.yul\":25791:25792   */\n      0x00\n        /* \"#utility.yul\":25808:25814   */\n      dup5\n        /* \"#utility.yul\":25805:25882   */\n      iszero\n      tag_483\n      jumpi\n        /* \"#utility.yul\":25857:25866   */\n      dup3\n        /* \"#utility.yul\":25852:25855   */\n      dup8\n        /* \"#utility.yul\":25848:25867   */\n      add\n        /* \"#utility.yul\":25842:25868   */\n      mload\n        /* \"#utility.yul\":25833:25868   */\n      swap1\n      pop\n        /* \"#utility.yul\":25805:25882   */\n    tag_483:\n        /* \"#utility.yul\":25908:25975   */\n      tag_484\n        /* \"#utility.yul\":25968:25974   */\n      dup6\n        /* \"#utility.yul\":25961:25966   */\n      dup3\n        /* \"#utility.yul\":25908:25975   */\n      tag_229\n      jump\t// in\n    tag_484:\n        /* \"#utility.yul\":25902:25906   */\n      dup7\n        /* \"#utility.yul\":25895:25976   */\n      sstore\n        /* \"#utility.yul\":25764:25986   */\n      pop\n        /* \"#utility.yul\":25099:25986   */\n      jump(tag_481)\n        /* \"#utility.yul\":25129:25747   */\n    tag_482:\n        /* \"#utility.yul\":25181:25185   */\n      0x1f\n        /* \"#utility.yul\":25177:25186   */\n      not\n        /* \"#utility.yul\":25169:25175   */\n      dup5\n        /* \"#utility.yul\":25165:25187   */\n      and\n        /* \"#utility.yul\":25215:25252   */\n      tag_485\n        /* \"#utility.yul\":25247:25251   */\n      dup7\n        /* \"#utility.yul\":25215:25252   */\n      tag_215\n      jump\t// in\n    tag_485:\n        /* \"#utility.yul\":25274:25275   */\n      0x00\n        /* \"#utility.yul\":25288:25496   */\n    tag_486:\n        /* \"#utility.yul\":25302:25309   */\n      dup3\n        /* \"#utility.yul\":25299:25300   */\n      dup2\n        /* \"#utility.yul\":25296:25310   */\n      lt\n        /* \"#utility.yul\":25288:25496   */\n      iszero\n      tag_488\n      jumpi\n        /* \"#utility.yul\":25381:25390   */\n      dup5\n        /* \"#utility.yul\":25376:25379   */\n      dup10\n        /* \"#utility.yul\":25372:25391   */\n      add\n        /* \"#utility.yul\":25366:25392   */\n      mload\n        /* \"#utility.yul\":25358:25364   */\n      dup3\n        /* \"#utility.yul\":25351:25393   */\n      sstore\n        /* \"#utility.yul\":25432:25433   */\n      0x01\n        /* \"#utility.yul\":25424:25430   */\n      dup3\n        /* \"#utility.yul\":25420:25434   */\n      add\n        /* \"#utility.yul\":25410:25434   */\n      swap2\n      pop\n        /* \"#utility.yul\":25479:25481   */\n      0x20\n        /* \"#utility.yul\":25468:25477   */\n      dup6\n        /* \"#utility.yul\":25464:25482   */\n      add\n        /* \"#utility.yul\":25451:25482   */\n      swap5\n      pop\n        /* \"#utility.yul\":25325:25329   */\n      0x20\n        /* \"#utility.yul\":25322:25323   */\n      dup2\n        /* \"#utility.yul\":25318:25330   */\n      add\n        /* \"#utility.yul\":25313:25330   */\n      swap1\n      pop\n        /* \"#utility.yul\":25288:25496   */\n      jump(tag_486)\n    tag_488:\n        /* \"#utility.yul\":25524:25530   */\n      dup7\n        /* \"#utility.yul\":25515:25522   */\n      dup4\n        /* \"#utility.yul\":25512:25531   */\n      lt\n        /* \"#utility.yul\":25509:25688   */\n      iszero\n      tag_489\n      jumpi\n        /* \"#utility.yul\":25582:25591   */\n      dup5\n        /* \"#utility.yul\":25577:25580   */\n      dup10\n        /* \"#utility.yul\":25573:25592   */\n      add\n        /* \"#utility.yul\":25567:25593   */\n      mload\n        /* \"#utility.yul\":25625:25673   */\n      tag_490\n        /* \"#utility.yul\":25667:25671   */\n      0x1f\n        /* \"#utility.yul\":25659:25665   */\n      dup10\n        /* \"#utility.yul\":25655:25672   */\n      and\n        /* \"#utility.yul\":25644:25653   */\n      dup3\n        /* \"#utility.yul\":25625:25673   */\n      tag_228\n      jump\t// in\n    tag_490:\n        /* \"#utility.yul\":25617:25623   */\n      dup4\n        /* \"#utility.yul\":25610:25674   */\n      sstore\n        /* \"#utility.yul\":25532:25688   */\n      pop\n        /* \"#utility.yul\":25509:25688   */\n    tag_489:\n        /* \"#utility.yul\":25734:25735   */\n      0x01\n        /* \"#utility.yul\":25730:25731   */\n      0x02\n        /* \"#utility.yul\":25722:25728   */\n      dup9\n        /* \"#utility.yul\":25718:25732   */\n      mul\n        /* \"#utility.yul\":25714:25736   */\n      add\n        /* \"#utility.yul\":25708:25712   */\n      dup9\n        /* \"#utility.yul\":25701:25737   */\n      sstore\n        /* \"#utility.yul\":25136:25747   */\n      pop\n      pop\n      pop\n        /* \"#utility.yul\":25099:25986   */\n    tag_481:\n      pop\n        /* \"#utility.yul\":24689:25992   */\n      pop\n      pop\n      pop\n        /* \"#utility.yul\":24597:25992   */\n      pop\n      pop\n      jump\t// out\n        /* \"#utility.yul\":25998:26231   */\n    tag_108:\n        /* \"#utility.yul\":26037:26040   */\n      0x00\n        /* \"#utility.yul\":26060:26084   */\n      tag_492\n        /* \"#utility.yul\":26078:26083   */\n      dup3\n        /* \"#utility.yul\":26060:26084   */\n      tag_167\n      jump\t// in\n    tag_492:\n        /* \"#utility.yul\":26051:26084   */\n      swap2\n      pop\n        /* \"#utility.yul\":26106:26172   */\n      0xffffffffffffffffffffffffffffffffffffffffffffffffffffffffffffffff\n        /* \"#utility.yul\":26099:26104   */\n      dup3\n        /* \"#utility.yul\":26096:26173   */\n      sub\n        /* \"#utility.yul\":26093:26196   */\n      tag_493\n      jumpi\n        /* \"#utility.yul\":26176:26194   */\n      tag_494\n      tag_205\n      jump\t// in\n    tag_494:\n        /* \"#utility.yul\":26093:26196   */\n    tag_493:\n        /* \"#utility.yul\":26223:26224   */\n      0x01\n        /* \"#utility.yul\":26216:26221   */\n      dup3\n        /* \"#utility.yul\":26212:26225   */\n      add\n        /* \"#utility.yul\":26205:26225   */\n      swap1\n      pop\n        /* \"#utility.yul\":25998:26231   */\n      swap2\n      swap1\n      pop\n      jump\t// out\n        /* \"#utility.yul\":26237:26409   */\n    tag_230:\n        /* \"#utility.yul\":26377:26401   */\n      0x4578616d20616c7265616479207075626c697368656400000000000000000000\n        /* \"#utility.yul\":26373:26374   */\n      0x00\n        /* \"#utility.yul\":26365:26371   */\n      dup3\n        /* \"#utility.yul\":26361:26375   */\n      add\n        /* \"#utility.yul\":26354:26402   */\n      mstore\n        /* \"#utility.yul\":26237:26409   */\n      pop\n      jump\t// out\n        /* \"#utility.yul\":26415:26781   */\n    tag_231:\n        /* \"#utility.yul\":26557:26560   */\n      0x00\n        /* \"#utility.yul\":26578:26645   */\n      tag_497\n        /* \"#utility.yul\":26642:26644   */\n      0x16\n        /* \"#utility.yul\":26637:26640   */\n      dup4\n        /* \"#utility.yul\":26578:26645   */\n      tag_195\n      jump\t// in\n    tag_497:\n        /* \"#utility.yul\":26571:26645   */\n      swap2\n      pop\n        /* \"#utility.yul\":26654:26747   */\n      tag_498\n        /* \"#utility.yul\":26743:26746   */\n      dup3\n        /* \"#utility.yul\":26654:26747   */\n      tag_230\n      jump\t// in\n    tag_498:\n        /* \"#utility.yul\":26772:26774   */\n      0x20\n        /* \"#utility.yul\":26767:26770   */\n      dup3\n        /* \"#utility.yul\":26763:26775   */\n      add\n        /* \"#utility.yul\":26756:26775   */\n      swap1\n      pop\n        /* \"#utility.yul\":26415:26781   */\n      swap2\n      swap1\n      pop\n      jump\t// out\n        /* \"#utility.yul\":26787:27206   */\n    tag_119:\n        /* \"#utility.yul\":26953:26957   */\n      0x00\n        /* \"#utility.yul\":26991:26993   */\n      0x20\n        /* \"#utility.yul\":26980:26989   */\n      dup3\n        /* \"#utility.yul\":26976:26994   */\n      add\n        /* \"#utility.yul\":26968:26994   */\n      swap1\n      pop\n        /* \"#utility.yul\":27040:27049   */\n      dup2\n        /* \"#utility.yul\":27034:27038   */\n      dup2\n        /* \"#utility.yul\":27030:27050   */\n      sub\n        /* \"#utility.yul\":27026:27027   */\n      0x00\n        /* \"#utility.yul\":27015:27024   */\n      dup4\n        /* \"#utility.yul\":27011:27028   */\n      add\n        /* \"#utility.yul\":27004:27051   */\n      mstore\n        /* \"#utility.yul\":27068:27199   */\n      tag_500\n        /* \"#utility.yul\":27194:27198   */\n      dup2\n        /* \"#utility.yul\":27068:27199   */\n      tag_231\n      jump\t// in\n    tag_500:\n        /* \"#utility.yul\":27060:27199   */\n      swap1\n      pop\n        /* \"#utility.yul\":26787:27206   */\n      swap2\n      swap1\n      pop\n      jump\t// out\n        /* \"#utility.yul\":27212:27386   */\n    tag_232:\n        /* \"#utility.yul\":27352:27378   */\n      0x4578616d206d7573742068617665207175657374696f6e730000000000000000\n        /* \"#utility.yul\":27348:27349   */\n      0x00\n        /* \"#utility.yul\":27340:27346   */\n      dup3\n        /* \"#utility.yul\":27336:27350   */\n      add\n        /* \"#utility.yul\":27329:27379   */\n      mstore\n        /* \"#utility.yul\":27212:27386   */\n      pop\n      jump\t// out\n        /* \"#utility.yul\":27392:27758   */\n    tag_233:\n        /* \"#utility.yul\":27534:27537   */\n      0x00\n        /* \"#utility.yul\":27555:27622   */\n      tag_503\n        /* \"#utility.yul\":27619:27621   */\n      0x18\n        /* \"#utility.yul\":27614:27617   */\n      dup4\n        /* \"#utility.yul\":27555:27622   */\n      tag_195\n      jump\t// in\n    tag_503:\n        /* \"#utility.yul\":27548:27622   */\n      swap2\n      pop\n        /* \"#utility.yul\":27631:27724   */\n      tag_504\n        /* \"#utility.yul\":27720:27723   */\n      dup3\n        /* \"#utility.yul\":27631:27724   */\n      tag_232\n      jump\t// in\n    tag_504:\n        /* \"#utility.yul\":27749:27751   */\n      0x20\n        /* \"#utility.yul\":27744:27747   */\n      dup3\n        /* \"#utility.yul\":27740:27752   */\n      add\n        /* \"#utility.yul\":27733:27752   */\n      swap1\n      pop\n        /* \"#utility.yul\":27392:27758   */\n      swap2\n      swap1\n      pop\n      jump\t// out\n        /* \"#utility.yul\":27764:28183   */\n    tag_122:\n        /* \"#utility.yul\":27930:27934   */\n      0x00\n        /* \"#utility.yul\":27968:27970   */\n      0x20\n        /* \"#utility.yul\":27957:27966   */\n      dup3\n        /* \"#utility.yul\":27953:27971   */\n      add\n        /* \"#utility.yul\":27945:27971   */\n      swap1\n      pop\n        /* \"#utility.yul\":28017:28026   */\n      dup2\n        /* \"#utility.yul\":28011:28015   */\n      dup2\n        /* \"#utility.yul\":28007:28027   */\n      sub\n        /* \"#utility.yul\":28003:28004   */\n      0x00\n        /* \"#utility.yul\":27992:28001   */\n      dup4\n        /* \"#utility.yul\":27988:28005   */\n      add\n        /* \"#utility.yul\":27981:28028   */\n      mstore\n        /* \"#utility.yul\":28045:28176   */\n      tag_506\n        /* \"#utility.yul\":28171:28175   */\n      dup2\n        /* \"#utility.yul\":28045:28176   */\n      tag_233\n      jump\t// in\n    tag_506:\n        /* \"#utility.yul\":28037:28176   */\n      swap1\n      pop\n        /* \"#utility.yul\":27764:28183   */\n      swap2\n      swap1\n      pop\n      jump\t// out\n        /* \"#utility.yul\":28189:28410   */\n    tag_234:\n        /* \"#utility.yul\":28329:28363   */\n      0x53747564656e7420686173206e6f74207375626d697474656420746865206578\n        /* \"#utility.yul\":28325:28326   */\n      0x00\n        /* \"#utility.yul\":28317:28323   */\n      dup3\n        /* \"#utility.yul\":28313:28327   */\n      add\n        /* \"#utility.yul\":28306:28364   */\n      mstore\n        /* \"#utility.yul\":28398:28402   */\n      0x616d000000000000000000000000000000000000000000000000000000000000\n        /* \"#utility.yul\":28393:28395   */\n      0x20\n        /* \"#utility.yul\":28385:28391   */\n      dup3\n        /* \"#utility.yul\":28381:28396   */\n      add\n        /* \"#utility.yul\":28374:28403   */\n      mstore\n        /* \"#utility.yul\":28189:28410   */\n      pop\n      jump\t// out\n        /* \"#utility.yul\":28416:28782   */\n    tag_235:\n        /* \"#utility.yul\":28558:28561   */\n      0x00\n        /* \"#utility.yul\":28579:28646   */\n      tag_509\n        /* \"#utility.yul\":28643:28645   */\n      0x22\n        /* \"#utility.yul\":28638:28641   */\n      dup4\n        /* \"#utility.yul\":28579:28646   */\n      tag_195\n      jump\t// in\n    tag_509:\n        /* \"#utility.yul\":28572:28646   */\n      swap2\n      pop\n        /* \"#utility.yul\":28655:28748   */\n      tag_510\n        /* \"#utility.yul\":28744:28747   */\n      dup3\n        /* \"#utility.yul\":28655:28748   */\n      tag_234\n      jump\t// in\n    tag_510:\n        /* \"#utility.yul\":28773:28775   */\n      0x40\n        /* \"#utility.yul\":28768:28771   */\n      dup3\n        /* \"#utility.yul\":28764:28776   */\n      add\n        /* \"#utility.yul\":28757:28776   */\n      swap1\n      pop\n        /* \"#utility.yul\":28416:28782   */\n      swap2\n      swap1\n      pop\n      jump\t// out\n        /* \"#utility.yul\":28788:29207   */\n    tag_146:\n        /* \"#utility.yul\":28954:28958   */\n      0x00\n        /* \"#utility.yul\":28992:28994   */\n      0x20\n        /* \"#utility.yul\":28981:28990   */\n      dup3\n        /* \"#utility.yul\":28977:28995   */\n      add\n        /* \"#utility.yul\":28969:28995   */\n      swap1\n      pop\n        /* \"#utility.yul\":29041:29050   */\n      dup2\n        /* \"#utility.yul\":29035:29039   */\n      dup2\n        /* \"#utility.yul\":29031:29051   */\n      sub\n        /* \"#utility.yul\":29027:29028   */\n      0x00\n        /* \"#utility.yul\":29016:29025   */\n      dup4\n        /* \"#utility.yul\":29012:29029   */\n      add\n        /* \"#utility.yul\":29005:29052   */\n      mstore\n        /* \"#utility.yul\":29069:29200   */\n      tag_512\n        /* \"#utility.yul\":29195:29199   */\n      dup2\n        /* \"#utility.yul\":29069:29200   */\n      tag_235\n      jump\t// in\n    tag_512:\n        /* \"#utility.yul\":29061:29200   */\n      swap1\n      pop\n        /* \"#utility.yul\":28788:29207   */\n      swap2\n      swap1\n      pop\n      jump\t// out\n\n    auxdata: 0xa264697066735822122000e68667f710dd75820a9f6930add110d1dc36f1b6fa6b7053b12d022ca74bec64736f6c634300081f0033\n}\n",
				"bytecode": {
					"linkReferences": {},
					"object": "6080604052348015600e575f5ffd5b50335f5f6101000a81548173ffffffffffffffffffffffffffffffffffffffff021916908373ffffffffffffffffffffffffffffffffffffffff160217905550611dfb8061005b5f395ff3fe608060405234801561000f575f5ffd5b50600436106100a7575f3560e01c80634198cb3f1161006f5780634198cb3f1461014e57806361c5c068146101805780638da5cb5b146101b2578063944bda63146101d0578063a9dafbe9146101ec578063efc342f41461021c576100a7565b8063084a5818146100ab5780630bcb5189146100c75780630dfb1dbf146100f8578063332550361461011657806339274fdd14610132575b5f5ffd5b6100c560048036038101906100c0919061105b565b61024c565b005b6100e160048036038101906100dc919061110f565b610554565b6040516100ef929190611176565b60405180910390f35b61010061058c565b60405161010d919061119d565b60405180910390f35b610130600480360381019061012b9190611344565b610592565b005b61014c600480360381019061014791906113f3565b610845565b005b610168600480360381019061016391906113f3565b6109fb565b6040516101779392919061147e565b60405180910390f35b61019a600480360381019061019591906114ba565b610ab3565b6040516101a9939291906114f8565b60405180910390f35b6101ba610b6a565b6040516101c79190611543565b60405180910390f35b6101ea60048036038101906101e5919061155c565b610b8e565b005b6102066004803603810190610201919061110f565b610ca6565b604051610213919061119d565b60405180910390f35b610236600480360381019061023191906113f3565b610de0565b604051610243919061119d565b60405180910390f35b816005548110610291576040517f08c379a0000000000000000000000000000000000000000000000000000000008152600401610288906115ed565b60405180910390fd5b60045f8481526020019081526020015f205f3373ffffffffffffffffffffffffffffffffffffffff1673ffffffffffffffffffffffffffffffffffffffff1681526020019081526020015f206001015f9054906101000a900460ff161561032d576040517f08c379a00000000000000000000000000000000000000000000000000000000081526004016103249061167b565b60405180910390fd5b60035f8481526020019081526020015f2054825114610381576040517f08c379a0000000000000000000000000000000000000000000000000000000008152600401610378906116e3565b60405180910390fd5b5f5f90505f5f90505b83518110156104925760025f8681526020019081526020015f205f8281526020019081526020015f20600201548482815181106103ca576103c9611701565b5b6020026020010151036104095760025f8681526020019081526020015f205f8281526020019081526020015f206003015482610406919061175b565b91505b83818151811061041c5761041b611701565b5b602002602001015160045f8781526020019081526020015f205f3373ffffffffffffffffffffffffffffffffffffffff1673ffffffffffffffffffffffffffffffffffffffff1681526020019081526020015f205f015f8381526020019081526020015f2081905550808060010191505061038a565b50600160045f8681526020019081526020015f205f3373ffffffffffffffffffffffffffffffffffffffff1673ffffffffffffffffffffffffffffffffffffffff1681526020019081526020015f206001015f6101000a81548160ff0219169083151502179055508060045f8681526020019081526020015f205f3373ffffffffffffffffffffffffffffffffffffffff1673ffffffffffffffffffffffffffffffffffffffff1681526020019081526020015f206002018190555050505050565b6004602052815f5260405f20602052805f5260405f205f9150915050806001015f9054906101000a900460ff16908060020154905082565b60055481565b5f5f9054906101000a900473ffffffffffffffffffffffffffffffffffffffff1673ffffffffffffffffffffffffffffffffffffffff163373ffffffffffffffffffffffffffffffffffffffff1614610620576040517f08c379a0000000000000000000000000000000000000000000000000000000008152600401610617906117fe565b60405180910390fd5b846005548110610665576040517f08c379a000000000000000000000000000000000000000000000000000000000815260040161065c906115ed565b60405180910390fd5b60015f8781526020019081526020015f206001015f9054906101000a900460ff16156106c6576040517f08c379a00000000000000000000000000000000000000000000000000000000081526004016106bd90611866565b60405180910390fd5b60028451101561070b576040517f08c379a0000000000000000000000000000000000000000000000000000000008152600401610702906118ce565b60405180910390fd5b8351831061074e576040517f08c379a000000000000000000000000000000000000000000000000000000000815260040161074590611936565b60405180910390fd5b5f60035f8881526020019081526020015f2054905060405180608001604052808781526020018681526020018581526020018481525060025f8981526020019081526020015f205f8381526020019081526020015f205f820151815f0190816107b79190611b51565b5060208201518160010190805190602001906107d4929190610df5565b50604082015181600201556060820151816003015590505060035f8881526020019081526020015f205f81548092919061080d90611c20565b91905055508260015f8981526020019081526020015f206002015f828254610835919061175b565b9250508190555050505050505050565b5f5f9054906101000a900473ffffffffffffffffffffffffffffffffffffffff1673ffffffffffffffffffffffffffffffffffffffff163373ffffffffffffffffffffffffffffffffffffffff16146108d3576040517f08c379a00000000000000000000000000000000000000000000000000000000081526004016108ca906117fe565b60405180910390fd5b806005548110610918576040517f08c379a000000000000000000000000000000000000000000000000000000000815260040161090f906115ed565b60405180910390fd5b60015f8381526020019081526020015f206001015f9054906101000a900460ff1615610979576040517f08c379a000000000000000000000000000000000000000000000000000000000815260040161097090611cb1565b60405180910390fd5b5f60035f8481526020019081526020015f2054116109cc576040517f08c379a00000000000000000000000000000000000000000000000000000000081526004016109c390611d19565b60405180910390fd5b6001805f8481526020019081526020015f206001015f6101000a81548160ff0219169083151502179055505050565b6001602052805f5260405f205f91509050805f018054610a1a90611981565b80601f0160208091040260200160405190810160405280929190818152602001828054610a4690611981565b8015610a915780601f10610a6857610100808354040283529160200191610a91565b820191905f5260205f20905b815481529060010190602001808311610a7457829003601f168201915b505050505090806001015f9054906101000a900460ff16908060020154905083565b6002602052815f5260405f20602052805f5260405f205f9150915050805f018054610add90611981565b80601f0160208091040260200160405190810160405280929190818152602001828054610b0990611981565b8015610b545780601f10610b2b57610100808354040283529160200191610b54565b820191905f5260205f20905b815481529060010190602001808311610b3757829003601f168201915b5050505050908060020154908060030154905083565b5f5f9054906101000a900473ffffffffffffffffffffffffffffffffffffffff1681565b5f5f9054906101000a900473ffffffffffffffffffffffffffffffffffffffff1673ffffffffffffffffffffffffffffffffffffffff163373ffffffffffffffffffffffffffffffffffffffff1614610c1c576040517f08c379a0000000000000000000000000000000000000000000000000000000008152600401610c13906117fe565b60405180910390fd5b60405180606001604052808281526020015f151581526020015f81525060015f60055481526020019081526020015f205f820151815f019081610c5f9190611b51565b506020820151816001015f6101000a81548160ff0219169083151502179055506040820151816002015590505060055f815480929190610c9e90611c20565b919050555050565b5f826005548110610cec576040517f08c379a0000000000000000000000000000000000000000000000000000000008152600401610ce3906115ed565b60405180910390fd5b60045f8581526020019081526020015f205f8473ffffffffffffffffffffffffffffffffffffffff1673ffffffffffffffffffffffffffffffffffffffff1681526020019081526020015f206001015f9054906101000a900460ff16610d87576040517f08c379a0000000000000000000000000000000000000000000000000000000008152600401610d7e90611da7565b60405180910390fd5b60045f8581526020019081526020015f205f8473ffffffffffffffffffffffffffffffffffffffff1673ffffffffffffffffffffffffffffffffffffffff1681526020019081526020015f206002015491505092915050565b6003602052805f5260405f205f915090505481565b828054828255905f5260205f20908101928215610e3b579160200282015b82811115610e3a578251829081610e2a9190611b51565b5091602001919060010190610e13565b5b509050610e489190610e4c565b5090565b5b80821115610e6b575f8181610e629190610e6f565b50600101610e4d565b5090565b508054610e7b90611981565b5f825580601f10610e8c5750610ea9565b601f0160209004905f5260205f2090810190610ea89190610eac565b5b50565b5b80821115610ec3575f815f905550600101610ead565b5090565b5f604051905090565b5f5ffd5b5f5ffd5b5f819050919050565b610eea81610ed8565b8114610ef4575f5ffd5b50565b5f81359050610f0581610ee1565b92915050565b5f5ffd5b5f601f19601f8301169050919050565b7f4e487b71000000000000000000000000000000000000000000000000000000005f52604160045260245ffd5b610f5582610f0f565b810181811067ffffffffffffffff82111715610f7457610f73610f1f565b5b80604052505050565b5f610f86610ec7565b9050610f928282610f4c565b919050565b5f67ffffffffffffffff821115610fb157610fb0610f1f565b5b602082029050602081019050919050565b5f5ffd5b5f610fd8610fd384610f97565b610f7d565b90508083825260208201905060208402830185811115610ffb57610ffa610fc2565b5b835b8181101561102457806110108882610ef7565b845260208401935050602081019050610ffd565b5050509392505050565b5f82601f83011261104257611041610f0b565b5b8135611052848260208601610fc6565b91505092915050565b5f5f6040838503121561107157611070610ed0565b5b5f61107e85828601610ef7565b925050602083013567ffffffffffffffff81111561109f5761109e610ed4565b5b6110ab8582860161102e565b9150509250929050565b5f73ffffffffffffffffffffffffffffffffffffffff82169050919050565b5f6110de826110b5565b9050919050565b6110ee816110d4565b81146110f8575f5ffd5b50565b5f81359050611109816110e5565b92915050565b5f5f6040838503121561112557611124610ed0565b5b5f61113285828601610ef7565b9250506020611143858286016110fb565b9150509250929050565b5f8115159050919050565b6111618161114d565b82525050565b61117081610ed8565b82525050565b5f6040820190506111895f830185611158565b6111966020830184611167565b9392505050565b5f6020820190506111b05f830184611167565b92915050565b5f5ffd5b5f67ffffffffffffffff8211156111d4576111d3610f1f565b5b6111dd82610f0f565b9050602081019050919050565b828183375f83830152505050565b5f61120a611205846111ba565b610f7d565b905082815260208101848484011115611226576112256111b6565b5b6112318482856111ea565b509392505050565b5f82601f83011261124d5761124c610f0b565b5b813561125d8482602086016111f8565b91505092915050565b5f67ffffffffffffffff8211156112805761127f610f1f565b5b602082029050602081019050919050565b5f6112a361129e84611266565b610f7d565b905080838252602082019050602084028301858111156112c6576112c5610fc2565b5b835b8181101561130d57803567ffffffffffffffff8111156112eb576112ea610f0b565b5b8086016112f88982611239565b855260208501945050506020810190506112c8565b5050509392505050565b5f82601f83011261132b5761132a610f0b565b5b813561133b848260208601611291565b91505092915050565b5f5f5f5f5f60a0868803121561135d5761135c610ed0565b5b5f61136a88828901610ef7565b955050602086013567ffffffffffffffff81111561138b5761138a610ed4565b5b61139788828901611239565b945050604086013567ffffffffffffffff8111156113b8576113b7610ed4565b5b6113c488828901611317565b93505060606113d588828901610ef7565b92505060806113e688828901610ef7565b9150509295509295909350565b5f6020828403121561140857611407610ed0565b5b5f61141584828501610ef7565b91505092915050565b5f81519050919050565b5f82825260208201905092915050565b8281835e5f83830152505050565b5f6114508261141e565b61145a8185611428565b935061146a818560208601611438565b61147381610f0f565b840191505092915050565b5f6060820190508181035f8301526114968186611446565b90506114a56020830185611158565b6114b26040830184611167565b949350505050565b5f5f604083850312156114d0576114cf610ed0565b5b5f6114dd85828601610ef7565b92505060206114ee85828601610ef7565b9150509250929050565b5f6060820190508181035f8301526115108186611446565b905061151f6020830185611167565b61152c6040830184611167565b949350505050565b61153d816110d4565b82525050565b5f6020820190506115565f830184611534565b92915050565b5f6020828403121561157157611570610ed0565b5b5f82013567ffffffffffffffff81111561158e5761158d610ed4565b5b61159a84828501611239565b91505092915050565b7f4578616d20646f6573206e6f74206578697374000000000000000000000000005f82015250565b5f6115d7601383611428565b91506115e2826115a3565b602082019050919050565b5f6020820190508181035f830152611604816115cb565b9050919050565b7f596f75206861766520616c7265616479207375626d69747465642074686520655f8201527f78616d0000000000000000000000000000000000000000000000000000000000602082015250565b5f611665602383611428565b91506116708261160b565b604082019050919050565b5f6020820190508181035f83015261169281611659565b9050919050565b7f4d75737420616e7377657220616c6c207175657374696f6e73000000000000005f82015250565b5f6116cd601983611428565b91506116d882611699565b602082019050919050565b5f6020820190508181035f8301526116fa816116c1565b9050919050565b7f4e487b71000000000000000000000000000000000000000000000000000000005f52603260045260245ffd5b7f4e487b71000000000000000000000000000000000000000000000000000000005f52601160045260245ffd5b5f61176582610ed8565b915061177083610ed8565b92508282019050808211156117885761178761172e565b5b92915050565b7f4f6e6c79206f776e65722063616e20706572666f726d207468697320616374695f8201527f6f6e000000000000000000000000000000000000000000000000000000000000602082015250565b5f6117e8602283611428565b91506117f38261178e565b604082019050919050565b5f6020820190508181035f830152611815816117dc565b9050919050565b7f43616e6e6f74206d6f64696679206166746572207075626c697368696e6700005f82015250565b5f611850601e83611428565b915061185b8261181c565b602082019050919050565b5f6020820190508181035f83015261187d81611844565b9050919050565b7f4d7573742068617665206174206c656173742032206f7074696f6e73000000005f82015250565b5f6118b8601c83611428565b91506118c382611884565b602082019050919050565b5f6020820190508181035f8301526118e5816118ac565b9050919050565b7f496e76616c696420636f727265637420616e7377657220696e646578000000005f82015250565b5f611920601c83611428565b915061192b826118ec565b602082019050919050565b5f6020820190508181035f83015261194d81611914565b9050919050565b7f4e487b71000000000000000000000000000000000000000000000000000000005f52602260045260245ffd5b5f600282049050600182168061199857607f821691505b6020821081036119ab576119aa611954565b5b50919050565b5f819050815f5260205f209050919050565b5f6020601f8301049050919050565b5f82821b905092915050565b5f60088302611a0d7fffffffffffffffffffffffffffffffffffffffffffffffffffffffffffffffff826119d2565b611a1786836119d2565b95508019841693508086168417925050509392505050565b5f819050919050565b5f611a52611a4d611a4884610ed8565b611a2f565b610ed8565b9050919050565b5f819050919050565b611a6b83611a38565b611a7f611a7782611a59565b8484546119de565b825550505050565b5f5f905090565b611a96611a87565b611aa1818484611a62565b505050565b5b81811015611ac457611ab95f82611a8e565b600181019050611aa7565b5050565b601f821115611b0957611ada816119b1565b611ae3846119c3565b81016020851015611af2578190505b611b06611afe856119c3565b830182611aa6565b50505b505050565b5f82821c905092915050565b5f611b295f1984600802611b0e565b1980831691505092915050565b5f611b418383611b1a565b9150826002028217905092915050565b611b5a8261141e565b67ffffffffffffffff811115611b7357611b72610f1f565b5b611b7d8254611981565b611b88828285611ac8565b5f60209050601f831160018114611bb9575f8415611ba7578287015190505b611bb18582611b36565b865550611c18565b601f198416611bc7866119b1565b5f5b82811015611bee57848901518255600182019150602085019450602081019050611bc9565b86831015611c0b5784890151611c07601f891682611b1a565b8355505b6001600288020188555050505b505050505050565b5f611c2a82610ed8565b91507fffffffffffffffffffffffffffffffffffffffffffffffffffffffffffffffff8203611c5c57611c5b61172e565b5b600182019050919050565b7f4578616d20616c7265616479207075626c6973686564000000000000000000005f82015250565b5f611c9b601683611428565b9150611ca682611c67565b602082019050919050565b5f6020820190508181035f830152611cc881611c8f565b9050919050565b7f4578616d206d7573742068617665207175657374696f6e7300000000000000005f82015250565b5f611d03601883611428565b9150611d0e82611ccf565b602082019050919050565b5f6020820190508181035f830152611d3081611cf7565b9050919050565b7f53747564656e7420686173206e6f74207375626d6974746564207468652065785f8201527f616d000000000000000000000000000000000000000000000000000000000000602082015250565b5f611d91602283611428565b9150611d9c82611d37565b604082019050919050565b5f6020820190508181035f830152611dbe81611d85565b905091905056fea264697066735822122000e68667f710dd75820a9f6930add110d1dc36f1b6fa6b7053b12d022ca74bec64736f6c634300081f0033",
					"opcodes": "PUSH1 0x80 PUSH1 0x40 MSTORE CALLVALUE DUP1 ISZERO PUSH1 0xE JUMPI PUSH0 PUSH0 REVERT JUMPDEST POP CALLER PUSH0 PUSH0 PUSH2 0x100 EXP DUP2 SLOAD DUP2 PUSH20 0xFFFFFFFFFFFFFFFFFFFFFFFFFFFFFFFFFFFFFFFF MUL NOT AND SWAP1 DUP4 PUSH20 0xFFFFFFFFFFFFFFFFFFFFFFFFFFFFFFFFFFFFFFFF AND MUL OR SWAP1 SSTORE POP PUSH2 0x1DFB DUP1 PUSH2 0x5B PUSH0 CODECOPY PUSH0 RETURN INVALID PUSH1 0x80 PUSH1 0x40 MSTORE CALLVALUE DUP1 ISZERO PUSH2 0xF JUMPI PUSH0 PUSH0 REVERT JUMPDEST POP PUSH1 0x4 CALLDATASIZE LT PUSH2 0xA7 JUMPI PUSH0 CALLDATALOAD PUSH1 0xE0 SHR DUP1 PUSH4 0x4198CB3F GT PUSH2 0x6F JUMPI DUP1 PUSH4 0x4198CB3F EQ PUSH2 0x14E JUMPI DUP1 PUSH4 0x61C5C068 EQ PUSH2 0x180 JUMPI DUP1 PUSH4 0x8DA5CB5B EQ PUSH2 0x1B2 JUMPI DUP1 PUSH4 0x944BDA63 EQ PUSH2 0x1D0 JUMPI DUP1 PUSH4 0xA9DAFBE9 EQ PUSH2 0x1EC JUMPI DUP1 PUSH4 0xEFC342F4 EQ PUSH2 0x21C JUMPI PUSH2 0xA7 JUMP JUMPDEST DUP1 PUSH4 0x84A5818 EQ PUSH2 0xAB JUMPI DUP1 PUSH4 0xBCB5189 EQ PUSH2 0xC7 JUMPI DUP1 PUSH4 0xDFB1DBF EQ PUSH2 0xF8 JUMPI DUP1 PUSH4 0x33255036 EQ PUSH2 0x116 JUMPI DUP1 PUSH4 0x39274FDD EQ PUSH2 0x132 JUMPI JUMPDEST PUSH0 PUSH0 REVERT JUMPDEST PUSH2 0xC5 PUSH1 0x4 DUP1 CALLDATASIZE SUB DUP2 ADD SWAP1 PUSH2 0xC0 SWAP2 SWAP1 PUSH2 0x105B JUMP JUMPDEST PUSH2 0x24C JUMP JUMPDEST STOP JUMPDEST PUSH2 0xE1 PUSH1 0x4 DUP1 CALLDATASIZE SUB DUP2 ADD SWAP1 PUSH2 0xDC SWAP2 SWAP1 PUSH2 0x110F JUMP JUMPDEST PUSH2 0x554 JUMP JUMPDEST PUSH1 0x40 MLOAD PUSH2 0xEF SWAP3 SWAP2 SWAP1 PUSH2 0x1176 JUMP JUMPDEST PUSH1 0x40 MLOAD DUP1 SWAP2 SUB SWAP1 RETURN JUMPDEST PUSH2 0x100 PUSH2 0x58C JUMP JUMPDEST PUSH1 0x40 MLOAD PUSH2 0x10D SWAP2 SWAP1 PUSH2 0x119D JUMP JUMPDEST PUSH1 0x40 MLOAD DUP1 SWAP2 SUB SWAP1 RETURN JUMPDEST PUSH2 0x130 PUSH1 0x4 DUP1 CALLDATASIZE SUB DUP2 ADD SWAP1 PUSH2 0x12B SWAP2 SWAP1 PUSH2 0x1344 JUMP JUMPDEST PUSH2 0x592 JUMP JUMPDEST STOP JUMPDEST PUSH2 0x14C PUSH1 0x4 DUP1 CALLDATASIZE SUB DUP2 ADD SWAP1 PUSH2 0x147 SWAP2 SWAP1 PUSH2 0x13F3 JUMP JUMPDEST PUSH2 0x845 JUMP JUMPDEST STOP JUMPDEST PUSH2 0x168 PUSH1 0x4 DUP1 CALLDATASIZE SUB DUP2 ADD SWAP1 PUSH2 0x163 SWAP2 SWAP1 PUSH2 0x13F3 JUMP JUMPDEST PUSH2 0x9FB JUMP JUMPDEST PUSH1 0x40 MLOAD PUSH2 0x177 SWAP4 SWAP3 SWAP2 SWAP1 PUSH2 0x147E JUMP JUMPDEST PUSH1 0x40 MLOAD DUP1 SWAP2 SUB SWAP1 RETURN JUMPDEST PUSH2 0x19A PUSH1 0x4 DUP1 CALLDATASIZE SUB DUP2 ADD SWAP1 PUSH2 0x195 SWAP2 SWAP1 PUSH2 0x14BA JUMP JUMPDEST PUSH2 0xAB3 JUMP JUMPDEST PUSH1 0x40 MLOAD PUSH2 0x1A9 SWAP4 SWAP3 SWAP2 SWAP1 PUSH2 0x14F8 JUMP JUMPDEST PUSH1 0x40 MLOAD DUP1 SWAP2 SUB SWAP1 RETURN JUMPDEST PUSH2 0x1BA PUSH2 0xB6A JUMP JUMPDEST PUSH1 0x40 MLOAD PUSH2 0x1C7 SWAP2 SWAP1 PUSH2 0x1543 JUMP JUMPDEST PUSH1 0x40 MLOAD DUP1 SWAP2 SUB SWAP1 RETURN JUMPDEST PUSH2 0x1EA PUSH1 0x4 DUP1 CALLDATASIZE SUB DUP2 ADD SWAP1 PUSH2 0x1E5 SWAP2 SWAP1 PUSH2 0x155C JUMP JUMPDEST PUSH2 0xB8E JUMP JUMPDEST STOP JUMPDEST PUSH2 0x206 PUSH1 0x4 DUP1 CALLDATASIZE SUB DUP2 ADD SWAP1 PUSH2 0x201 SWAP2 SWAP1 PUSH2 0x110F JUMP JUMPDEST PUSH2 0xCA6 JUMP JUMPDEST PUSH1 0x40 MLOAD PUSH2 0x213 SWAP2 SWAP1 PUSH2 0x119D JUMP JUMPDEST PUSH1 0x40 MLOAD DUP1 SWAP2 SUB SWAP1 RETURN JUMPDEST PUSH2 0x236 PUSH1 0x4 DUP1 CALLDATASIZE SUB DUP2 ADD SWAP1 PUSH2 0x231 SWAP2 SWAP1 PUSH2 0x13F3 JUMP JUMPDEST PUSH2 0xDE0 JUMP JUMPDEST PUSH1 0x40 MLOAD PUSH2 0x243 SWAP2 SWAP1 PUSH2 0x119D JUMP JUMPDEST PUSH1 0x40 MLOAD DUP1 SWAP2 SUB SWAP1 RETURN JUMPDEST DUP2 PUSH1 0x5 SLOAD DUP2 LT PUSH2 0x291 JUMPI PUSH1 0x40 MLOAD PUSH32 0x8C379A000000000000000000000000000000000000000000000000000000000 DUP2 MSTORE PUSH1 0x4 ADD PUSH2 0x288 SWAP1 PUSH2 0x15ED JUMP JUMPDEST PUSH1 0x40 MLOAD DUP1 SWAP2 SUB SWAP1 REVERT JUMPDEST PUSH1 0x4 PUSH0 DUP5 DUP2 MSTORE PUSH1 0x20 ADD SWAP1 DUP2 MSTORE PUSH1 0x20 ADD PUSH0 KECCAK256 PUSH0 CALLER PUSH20 0xFFFFFFFFFFFFFFFFFFFFFFFFFFFFFFFFFFFFFFFF AND PUSH20 0xFFFFFFFFFFFFFFFFFFFFFFFFFFFFFFFFFFFFFFFF AND DUP2 MSTORE PUSH1 0x20 ADD SWAP1 DUP2 MSTORE PUSH1 0x20 ADD PUSH0 KECCAK256 PUSH1 0x1 ADD PUSH0 SWAP1 SLOAD SWAP1 PUSH2 0x100 EXP SWAP1 DIV PUSH1 0xFF AND ISZERO PUSH2 0x32D JUMPI PUSH1 0x40 MLOAD PUSH32 0x8C379A000000000000000000000000000000000000000000000000000000000 DUP2 MSTORE PUSH1 0x4 ADD PUSH2 0x324 SWAP1 PUSH2 0x167B JUMP JUMPDEST PUSH1 0x40 MLOAD DUP1 SWAP2 SUB SWAP1 REVERT JUMPDEST PUSH1 0x3 PUSH0 DUP5 DUP2 MSTORE PUSH1 0x20 ADD SWAP1 DUP2 MSTORE PUSH1 0x20 ADD PUSH0 KECCAK256 SLOAD DUP3 MLOAD EQ PUSH2 0x381 JUMPI PUSH1 0x40 MLOAD PUSH32 0x8C379A000000000000000000000000000000000000000000000000000000000 DUP2 MSTORE PUSH1 0x4 ADD PUSH2 0x378 SWAP1 PUSH2 0x16E3 JUMP JUMPDEST PUSH1 0x40 MLOAD DUP1 SWAP2 SUB SWAP1 REVERT JUMPDEST PUSH0 PUSH0 SWAP1 POP PUSH0 PUSH0 SWAP1 POP JUMPDEST DUP4 MLOAD DUP2 LT ISZERO PUSH2 0x492 JUMPI PUSH1 0x2 PUSH0 DUP7 DUP2 MSTORE PUSH1 0x20 ADD SWAP1 DUP2 MSTORE PUSH1 0x20 ADD PUSH0 KECCAK256 PUSH0 DUP3 DUP2 MSTORE PUSH1 0x20 ADD SWAP1 DUP2 MSTORE PUSH1 0x20 ADD PUSH0 KECCAK256 PUSH1 0x2 ADD SLOAD DUP5 DUP3 DUP2 MLOAD DUP2 LT PUSH2 0x3CA JUMPI PUSH2 0x3C9 PUSH2 0x1701 JUMP JUMPDEST JUMPDEST PUSH1 0x20 MUL PUSH1 0x20 ADD ADD MLOAD SUB PUSH2 0x409 JUMPI PUSH1 0x2 PUSH0 DUP7 DUP2 MSTORE PUSH1 0x20 ADD SWAP1 DUP2 MSTORE PUSH1 0x20 ADD PUSH0 KECCAK256 PUSH0 DUP3 DUP2 MSTORE PUSH1 0x20 ADD SWAP1 DUP2 MSTORE PUSH1 0x20 ADD PUSH0 KECCAK256 PUSH1 0x3 ADD SLOAD DUP3 PUSH2 0x406 SWAP2 SWAP1 PUSH2 0x175B JUMP JUMPDEST SWAP2 POP JUMPDEST DUP4 DUP2 DUP2 MLOAD DUP2 LT PUSH2 0x41C JUMPI PUSH2 0x41B PUSH2 0x1701 JUMP JUMPDEST JUMPDEST PUSH1 0x20 MUL PUSH1 0x20 ADD ADD MLOAD PUSH1 0x4 PUSH0 DUP8 DUP2 MSTORE PUSH1 0x20 ADD SWAP1 DUP2 MSTORE PUSH1 0x20 ADD PUSH0 KECCAK256 PUSH0 CALLER PUSH20 0xFFFFFFFFFFFFFFFFFFFFFFFFFFFFFFFFFFFFFFFF AND PUSH20 0xFFFFFFFFFFFFFFFFFFFFFFFFFFFFFFFFFFFFFFFF AND DUP2 MSTORE PUSH1 0x20 ADD SWAP1 DUP2 MSTORE PUSH1 0x20 ADD PUSH0 KECCAK256 PUSH0 ADD PUSH0 DUP4 DUP2 MSTORE PUSH1 0x20 ADD SWAP1 DUP2 MSTORE PUSH1 0x20 ADD PUSH0 KECCAK256 DUP2 SWAP1 SSTORE POP DUP1 DUP1 PUSH1 0x1 ADD SWAP2 POP POP PUSH2 0x38A JUMP JUMPDEST POP PUSH1 0x1 PUSH1 0x4 PUSH0 DUP7 DUP2 MSTORE PUSH1 0x20 ADD SWAP1 DUP2 MSTORE PUSH1 0x20 ADD PUSH0 KECCAK256 PUSH0 CALLER PUSH20 0xFFFFFFFFFFFFFFFFFFFFFFFFFFFFFFFFFFFFFFFF AND PUSH20 0xFFFFFFFFFFFFFFFFFFFFFFFFFFFFFFFFFFFFFFFF AND DUP2 MSTORE PUSH1 0x20 ADD SWAP1 DUP2 MSTORE PUSH1 0x20 ADD PUSH0 KECCAK256 PUSH1 0x1 ADD PUSH0 PUSH2 0x100 EXP DUP2 SLOAD DUP2 PUSH1 0xFF MUL NOT AND SWAP1 DUP4 ISZERO ISZERO MUL OR SWAP1 SSTORE POP DUP1 PUSH1 0x4 PUSH0 DUP7 DUP2 MSTORE PUSH1 0x20 ADD SWAP1 DUP2 MSTORE PUSH1 0x20 ADD PUSH0 KECCAK256 PUSH0 CALLER PUSH20 0xFFFFFFFFFFFFFFFFFFFFFFFFFFFFFFFFFFFFFFFF AND PUSH20 0xFFFFFFFFFFFFFFFFFFFFFFFFFFFFFFFFFFFFFFFF AND DUP2 MSTORE PUSH1 0x20 ADD SWAP1 DUP2 MSTORE PUSH1 0x20 ADD PUSH0 KECCAK256 PUSH1 0x2 ADD DUP2 SWAP1 SSTORE POP POP POP POP POP JUMP JUMPDEST PUSH1 0x4 PUSH1 0x20 MSTORE DUP2 PUSH0 MSTORE PUSH1 0x40 PUSH0 KECCAK256 PUSH1 0x20 MSTORE DUP1 PUSH0 MSTORE PUSH1 0x40 PUSH0 KECCAK256 PUSH0 SWAP2 POP SWAP2 POP POP DUP1 PUSH1 0x1 ADD PUSH0 SWAP1 SLOAD SWAP1 PUSH2 0x100 EXP SWAP1 DIV PUSH1 0xFF AND SWAP1 DUP1 PUSH1 0x2 ADD SLOAD SWAP1 POP DUP3 JUMP JUMPDEST PUSH1 0x5 SLOAD DUP2 JUMP JUMPDEST PUSH0 PUSH0 SWAP1 SLOAD SWAP1 PUSH2 0x100 EXP SWAP1 DIV PUSH20 0xFFFFFFFFFFFFFFFFFFFFFFFFFFFFFFFFFFFFFFFF AND PUSH20 0xFFFFFFFFFFFFFFFFFFFFFFFFFFFFFFFFFFFFFFFF AND CALLER PUSH20 0xFFFFFFFFFFFFFFFFFFFFFFFFFFFFFFFFFFFFFFFF AND EQ PUSH2 0x620 JUMPI PUSH1 0x40 MLOAD PUSH32 0x8C379A000000000000000000000000000000000000000000000000000000000 DUP2 MSTORE PUSH1 0x4 ADD PUSH2 0x617 SWAP1 PUSH2 0x17FE JUMP JUMPDEST PUSH1 0x40 MLOAD DUP1 SWAP2 SUB SWAP1 REVERT JUMPDEST DUP5 PUSH1 0x5 SLOAD DUP2 LT PUSH2 0x665 JUMPI PUSH1 0x40 MLOAD PUSH32 0x8C379A000000000000000000000000000000000000000000000000000000000 DUP2 MSTORE PUSH1 0x4 ADD PUSH2 0x65C SWAP1 PUSH2 0x15ED JUMP JUMPDEST PUSH1 0x40 MLOAD DUP1 SWAP2 SUB SWAP1 REVERT JUMPDEST PUSH1 0x1 PUSH0 DUP8 DUP2 MSTORE PUSH1 0x20 ADD SWAP1 DUP2 MSTORE PUSH1 0x20 ADD PUSH0 KECCAK256 PUSH1 0x1 ADD PUSH0 SWAP1 SLOAD SWAP1 PUSH2 0x100 EXP SWAP1 DIV PUSH1 0xFF AND ISZERO PUSH2 0x6C6 JUMPI PUSH1 0x40 MLOAD PUSH32 0x8C379A000000000000000000000000000000000000000000000000000000000 DUP2 MSTORE PUSH1 0x4 ADD PUSH2 0x6BD SWAP1 PUSH2 0x1866 JUMP JUMPDEST PUSH1 0x40 MLOAD DUP1 SWAP2 SUB SWAP1 REVERT JUMPDEST PUSH1 0x2 DUP5 MLOAD LT ISZERO PUSH2 0x70B JUMPI PUSH1 0x40 MLOAD PUSH32 0x8C379A000000000000000000000000000000000000000000000000000000000 DUP2 MSTORE PUSH1 0x4 ADD PUSH2 0x702 SWAP1 PUSH2 0x18CE JUMP JUMPDEST PUSH1 0x40 MLOAD DUP1 SWAP2 SUB SWAP1 REVERT JUMPDEST DUP4 MLOAD DUP4 LT PUSH2 0x74E JUMPI PUSH1 0x40 MLOAD PUSH32 0x8C379A000000000000000000000000000000000000000000000000000000000 DUP2 MSTORE PUSH1 0x4 ADD PUSH2 0x745 SWAP1 PUSH2 0x1936 JUMP JUMPDEST PUSH1 0x40 MLOAD DUP1 SWAP2 SUB SWAP1 REVERT JUMPDEST PUSH0 PUSH1 0x3 PUSH0 DUP9 DUP2 MSTORE PUSH1 0x20 ADD SWAP1 DUP2 MSTORE PUSH1 0x20 ADD PUSH0 KECCAK256 SLOAD SWAP1 POP PUSH1 0x40 MLOAD DUP1 PUSH1 0x80 ADD PUSH1 0x40 MSTORE DUP1 DUP8 DUP2 MSTORE PUSH1 0x20 ADD DUP7 DUP2 MSTORE PUSH1 0x20 ADD DUP6 DUP2 MSTORE PUSH1 0x20 ADD DUP5 DUP2 MSTORE POP PUSH1 0x2 PUSH0 DUP10 DUP2 MSTORE PUSH1 0x20 ADD SWAP1 DUP2 MSTORE PUSH1 0x20 ADD PUSH0 KECCAK256 PUSH0 DUP4 DUP2 MSTORE PUSH1 0x20 ADD SWAP1 DUP2 MSTORE PUSH1 0x20 ADD PUSH0 KECCAK256 PUSH0 DUP3 ADD MLOAD DUP2 PUSH0 ADD SWAP1 DUP2 PUSH2 0x7B7 SWAP2 SWAP1 PUSH2 0x1B51 JUMP JUMPDEST POP PUSH1 0x20 DUP3 ADD MLOAD DUP2 PUSH1 0x1 ADD SWAP1 DUP1 MLOAD SWAP1 PUSH1 0x20 ADD SWAP1 PUSH2 0x7D4 SWAP3 SWAP2 SWAP1 PUSH2 0xDF5 JUMP JUMPDEST POP PUSH1 0x40 DUP3 ADD MLOAD DUP2 PUSH1 0x2 ADD SSTORE PUSH1 0x60 DUP3 ADD MLOAD DUP2 PUSH1 0x3 ADD SSTORE SWAP1 POP POP PUSH1 0x3 PUSH0 DUP9 DUP2 MSTORE PUSH1 0x20 ADD SWAP1 DUP2 MSTORE PUSH1 0x20 ADD PUSH0 KECCAK256 PUSH0 DUP2 SLOAD DUP1 SWAP3 SWAP2 SWAP1 PUSH2 0x80D SWAP1 PUSH2 0x1C20 JUMP JUMPDEST SWAP2 SWAP1 POP SSTORE POP DUP3 PUSH1 0x1 PUSH0 DUP10 DUP2 MSTORE PUSH1 0x20 ADD SWAP1 DUP2 MSTORE PUSH1 0x20 ADD PUSH0 KECCAK256 PUSH1 0x2 ADD PUSH0 DUP3 DUP3 SLOAD PUSH2 0x835 SWAP2 SWAP1 PUSH2 0x175B JUMP JUMPDEST SWAP3 POP POP DUP2 SWAP1 SSTORE POP POP POP POP POP POP POP POP JUMP JUMPDEST PUSH0 PUSH0 SWAP1 SLOAD SWAP1 PUSH2 0x100 EXP SWAP1 DIV PUSH20 0xFFFFFFFFFFFFFFFFFFFFFFFFFFFFFFFFFFFFFFFF AND PUSH20 0xFFFFFFFFFFFFFFFFFFFFFFFFFFFFFFFFFFFFFFFF AND CALLER PUSH20 0xFFFFFFFFFFFFFFFFFFFFFFFFFFFFFFFFFFFFFFFF AND EQ PUSH2 0x8D3 JUMPI PUSH1 0x40 MLOAD PUSH32 0x8C379A000000000000000000000000000000000000000000000000000000000 DUP2 MSTORE PUSH1 0x4 ADD PUSH2 0x8CA SWAP1 PUSH2 0x17FE JUMP JUMPDEST PUSH1 0x40 MLOAD DUP1 SWAP2 SUB SWAP1 REVERT JUMPDEST DUP1 PUSH1 0x5 SLOAD DUP2 LT PUSH2 0x918 JUMPI PUSH1 0x40 MLOAD PUSH32 0x8C379A000000000000000000000000000000000000000000000000000000000 DUP2 MSTORE PUSH1 0x4 ADD PUSH2 0x90F SWAP1 PUSH2 0x15ED JUMP JUMPDEST PUSH1 0x40 MLOAD DUP1 SWAP2 SUB SWAP1 REVERT JUMPDEST PUSH1 0x1 PUSH0 DUP4 DUP2 MSTORE PUSH1 0x20 ADD SWAP1 DUP2 MSTORE PUSH1 0x20 ADD PUSH0 KECCAK256 PUSH1 0x1 ADD PUSH0 SWAP1 SLOAD SWAP1 PUSH2 0x100 EXP SWAP1 DIV PUSH1 0xFF AND ISZERO PUSH2 0x979 JUMPI PUSH1 0x40 MLOAD PUSH32 0x8C379A000000000000000000000000000000000000000000000000000000000 DUP2 MSTORE PUSH1 0x4 ADD PUSH2 0x970 SWAP1 PUSH2 0x1CB1 JUMP JUMPDEST PUSH1 0x40 MLOAD DUP1 SWAP2 SUB SWAP1 REVERT JUMPDEST PUSH0 PUSH1 0x3 PUSH0 DUP5 DUP2 MSTORE PUSH1 0x20 ADD SWAP1 DUP2 MSTORE PUSH1 0x20 ADD PUSH0 KECCAK256 SLOAD GT PUSH2 0x9CC JUMPI PUSH1 0x40 MLOAD PUSH32 0x8C379A000000000000000000000000000000000000000000000000000000000 DUP2 MSTORE PUSH1 0x4 ADD PUSH2 0x9C3 SWAP1 PUSH2 0x1D19 JUMP JUMPDEST PUSH1 0x40 MLOAD DUP1 SWAP2 SUB SWAP1 REVERT JUMPDEST PUSH1 0x1 DUP1 PUSH0 DUP5 DUP2 MSTORE PUSH1 0x20 ADD SWAP1 DUP2 MSTORE PUSH1 0x20 ADD PUSH0 KECCAK256 PUSH1 0x1 ADD PUSH0 PUSH2 0x100 EXP DUP2 SLOAD DUP2 PUSH1 0xFF MUL NOT AND SWAP1 DUP4 ISZERO ISZERO MUL OR SWAP1 SSTORE POP POP POP JUMP JUMPDEST PUSH1 0x1 PUSH1 0x20 MSTORE DUP1 PUSH0 MSTORE PUSH1 0x40 PUSH0 KECCAK256 PUSH0 SWAP2 POP SWAP1 POP DUP1 PUSH0 ADD DUP1 SLOAD PUSH2 0xA1A SWAP1 PUSH2 0x1981 JUMP JUMPDEST DUP1 PUSH1 0x1F ADD PUSH1 0x20 DUP1 SWAP2 DIV MUL PUSH1 0x20 ADD PUSH1 0x40 MLOAD SWAP1 DUP2 ADD PUSH1 0x40 MSTORE DUP1 SWAP3 SWAP2 SWAP1 DUP2 DUP2 MSTORE PUSH1 0x20 ADD DUP3 DUP1 SLOAD PUSH2 0xA46 SWAP1 PUSH2 0x1981 JUMP JUMPDEST DUP1 ISZERO PUSH2 0xA91 JUMPI DUP1 PUSH1 0x1F LT PUSH2 0xA68 JUMPI PUSH2 0x100 DUP1 DUP4 SLOAD DIV MUL DUP4 MSTORE SWAP2 PUSH1 0x20 ADD SWAP2 PUSH2 0xA91 JUMP JUMPDEST DUP3 ADD SWAP2 SWAP1 PUSH0 MSTORE PUSH1 0x20 PUSH0 KECCAK256 SWAP1 JUMPDEST DUP2 SLOAD DUP2 MSTORE SWAP1 PUSH1 0x1 ADD SWAP1 PUSH1 0x20 ADD DUP1 DUP4 GT PUSH2 0xA74 JUMPI DUP3 SWAP1 SUB PUSH1 0x1F AND DUP3 ADD SWAP2 JUMPDEST POP POP POP POP POP SWAP1 DUP1 PUSH1 0x1 ADD PUSH0 SWAP1 SLOAD SWAP1 PUSH2 0x100 EXP SWAP1 DIV PUSH1 0xFF AND SWAP1 DUP1 PUSH1 0x2 ADD SLOAD SWAP1 POP DUP4 JUMP JUMPDEST PUSH1 0x2 PUSH1 0x20 MSTORE DUP2 PUSH0 MSTORE PUSH1 0x40 PUSH0 KECCAK256 PUSH1 0x20 MSTORE DUP1 PUSH0 MSTORE PUSH1 0x40 PUSH0 KECCAK256 PUSH0 SWAP2 POP SWAP2 POP POP DUP1 PUSH0 ADD DUP1 SLOAD PUSH2 0xADD SWAP1 PUSH2 0x1981 JUMP JUMPDEST DUP1 PUSH1 0x1F ADD PUSH1 0x20 DUP1 SWAP2 DIV MUL PUSH1 0x20 ADD PUSH1 0x40 MLOAD SWAP1 DUP2 ADD PUSH1 0x40 MSTORE DUP1 SWAP3 SWAP2 SWAP1 DUP2 DUP2 MSTORE PUSH1 0x20 ADD DUP3 DUP1 SLOAD PUSH2 0xB09 SWAP1 PUSH2 0x1981 JUMP JUMPDEST DUP1 ISZERO PUSH2 0xB54 JUMPI DUP1 PUSH1 0x1F LT PUSH2 0xB2B JUMPI PUSH2 0x100 DUP1 DUP4 SLOAD DIV MUL DUP4 MSTORE SWAP2 PUSH1 0x20 ADD SWAP2 PUSH2 0xB54 JUMP JUMPDEST DUP3 ADD SWAP2 SWAP1 PUSH0 MSTORE PUSH1 0x20 PUSH0 KECCAK256 SWAP1 JUMPDEST DUP2 SLOAD DUP2 MSTORE SWAP1 PUSH1 0x1 ADD SWAP1 PUSH1 0x20 ADD DUP1 DUP4 GT PUSH2 0xB37 JUMPI DUP3 SWAP1 SUB PUSH1 0x1F AND DUP3 ADD SWAP2 JUMPDEST POP POP POP POP POP SWAP1 DUP1 PUSH1 0x2 ADD SLOAD SWAP1 DUP1 PUSH1 0x3 ADD SLOAD SWAP1 POP DUP4 JUMP JUMPDEST PUSH0 PUSH0 SWAP1 SLOAD SWAP1 PUSH2 0x100 EXP SWAP1 DIV PUSH20 0xFFFFFFFFFFFFFFFFFFFFFFFFFFFFFFFFFFFFFFFF AND DUP2 JUMP JUMPDEST PUSH0 PUSH0 SWAP1 SLOAD SWAP1 PUSH2 0x100 EXP SWAP1 DIV PUSH20 0xFFFFFFFFFFFFFFFFFFFFFFFFFFFFFFFFFFFFFFFF AND PUSH20 0xFFFFFFFFFFFFFFFFFFFFFFFFFFFFFFFFFFFFFFFF AND CALLER PUSH20 0xFFFFFFFFFFFFFFFFFFFFFFFFFFFFFFFFFFFFFFFF AND EQ PUSH2 0xC1C JUMPI PUSH1 0x40 MLOAD PUSH32 0x8C379A000000000000000000000000000000000000000000000000000000000 DUP2 MSTORE PUSH1 0x4 ADD PUSH2 0xC13 SWAP1 PUSH2 0x17FE JUMP JUMPDEST PUSH1 0x40 MLOAD DUP1 SWAP2 SUB SWAP1 REVERT JUMPDEST PUSH1 0x40 MLOAD DUP1 PUSH1 0x60 ADD PUSH1 0x40 MSTORE DUP1 DUP3 DUP2 MSTORE PUSH1 0x20 ADD PUSH0 ISZERO ISZERO DUP2 MSTORE PUSH1 0x20 ADD PUSH0 DUP2 MSTORE POP PUSH1 0x1 PUSH0 PUSH1 0x5 SLOAD DUP2 MSTORE PUSH1 0x20 ADD SWAP1 DUP2 MSTORE PUSH1 0x20 ADD PUSH0 KECCAK256 PUSH0 DUP3 ADD MLOAD DUP2 PUSH0 ADD SWAP1 DUP2 PUSH2 0xC5F SWAP2 SWAP1 PUSH2 0x1B51 JUMP JUMPDEST POP PUSH1 0x20 DUP3 ADD MLOAD DUP2 PUSH1 0x1 ADD PUSH0 PUSH2 0x100 EXP DUP2 SLOAD DUP2 PUSH1 0xFF MUL NOT AND SWAP1 DUP4 ISZERO ISZERO MUL OR SWAP1 SSTORE POP PUSH1 0x40 DUP3 ADD MLOAD DUP2 PUSH1 0x2 ADD SSTORE SWAP1 POP POP PUSH1 0x5 PUSH0 DUP2 SLOAD DUP1 SWAP3 SWAP2 SWAP1 PUSH2 0xC9E SWAP1 PUSH2 0x1C20 JUMP JUMPDEST SWAP2 SWAP1 POP SSTORE POP POP JUMP JUMPDEST PUSH0 DUP3 PUSH1 0x5 SLOAD DUP2 LT PUSH2 0xCEC JUMPI PUSH1 0x40 MLOAD PUSH32 0x8C379A000000000000000000000000000000000000000000000000000000000 DUP2 MSTORE PUSH1 0x4 ADD PUSH2 0xCE3 SWAP1 PUSH2 0x15ED JUMP JUMPDEST PUSH1 0x40 MLOAD DUP1 SWAP2 SUB SWAP1 REVERT JUMPDEST PUSH1 0x4 PUSH0 DUP6 DUP2 MSTORE PUSH1 0x20 ADD SWAP1 DUP2 MSTORE PUSH1 0x20 ADD PUSH0 KECCAK256 PUSH0 DUP5 PUSH20 0xFFFFFFFFFFFFFFFFFFFFFFFFFFFFFFFFFFFFFFFF AND PUSH20 0xFFFFFFFFFFFFFFFFFFFFFFFFFFFFFFFFFFFFFFFF AND DUP2 MSTORE PUSH1 0x20 ADD SWAP1 DUP2 MSTORE PUSH1 0x20 ADD PUSH0 KECCAK256 PUSH1 0x1 ADD PUSH0 SWAP1 SLOAD SWAP1 PUSH2 0x100 EXP SWAP1 DIV PUSH1 0xFF AND PUSH2 0xD87 JUMPI PUSH1 0x40 MLOAD PUSH32 0x8C379A000000000000000000000000000000000000000000000000000000000 DUP2 MSTORE PUSH1 0x4 ADD PUSH2 0xD7E SWAP1 PUSH2 0x1DA7 JUMP JUMPDEST PUSH1 0x40 MLOAD DUP1 SWAP2 SUB SWAP1 REVERT JUMPDEST PUSH1 0x4 PUSH0 DUP6 DUP2 MSTORE PUSH1 0x20 ADD SWAP1 DUP2 MSTORE PUSH1 0x20 ADD PUSH0 KECCAK256 PUSH0 DUP5 PUSH20 0xFFFFFFFFFFFFFFFFFFFFFFFFFFFFFFFFFFFFFFFF AND PUSH20 0xFFFFFFFFFFFFFFFFFFFFFFFFFFFFFFFFFFFFFFFF AND DUP2 MSTORE PUSH1 0x20 ADD SWAP1 DUP2 MSTORE PUSH1 0x20 ADD PUSH0 KECCAK256 PUSH1 0x2 ADD SLOAD SWAP2 POP POP SWAP3 SWAP2 POP POP JUMP JUMPDEST PUSH1 0x3 PUSH1 0x20 MSTORE DUP1 PUSH0 MSTORE PUSH1 0x40 PUSH0 KECCAK256 PUSH0 SWAP2 POP SWAP1 POP SLOAD DUP2 JUMP JUMPDEST DUP3 DUP1 SLOAD DUP3 DUP3 SSTORE SWAP1 PUSH0 MSTORE PUSH1 0x20 PUSH0 KECCAK256 SWAP1 DUP2 ADD SWAP3 DUP3 ISZERO PUSH2 0xE3B JUMPI SWAP2 PUSH1 0x20 MUL DUP3 ADD JUMPDEST DUP3 DUP2 GT ISZERO PUSH2 0xE3A JUMPI DUP3 MLOAD DUP3 SWAP1 DUP2 PUSH2 0xE2A SWAP2 SWAP1 PUSH2 0x1B51 JUMP JUMPDEST POP SWAP2 PUSH1 0x20 ADD SWAP2 SWAP1 PUSH1 0x1 ADD SWAP1 PUSH2 0xE13 JUMP JUMPDEST JUMPDEST POP SWAP1 POP PUSH2 0xE48 SWAP2 SWAP1 PUSH2 0xE4C JUMP JUMPDEST POP SWAP1 JUMP JUMPDEST JUMPDEST DUP1 DUP3 GT ISZERO PUSH2 0xE6B JUMPI PUSH0 DUP2 DUP2 PUSH2 0xE62 SWAP2 SWAP1 PUSH2 0xE6F JUMP JUMPDEST POP PUSH1 0x1 ADD PUSH2 0xE4D JUMP JUMPDEST POP SWAP1 JUMP JUMPDEST POP DUP1 SLOAD PUSH2 0xE7B SWAP1 PUSH2 0x1981 JUMP JUMPDEST PUSH0 DUP3 SSTORE DUP1 PUSH1 0x1F LT PUSH2 0xE8C JUMPI POP PUSH2 0xEA9 JUMP JUMPDEST PUSH1 0x1F ADD PUSH1 0x20 SWAP1 DIV SWAP1 PUSH0 MSTORE PUSH1 0x20 PUSH0 KECCAK256 SWAP1 DUP2 ADD SWAP1 PUSH2 0xEA8 SWAP2 SWAP1 PUSH2 0xEAC JUMP JUMPDEST JUMPDEST POP JUMP JUMPDEST JUMPDEST DUP1 DUP3 GT ISZERO PUSH2 0xEC3 JUMPI PUSH0 DUP2 PUSH0 SWAP1 SSTORE POP PUSH1 0x1 ADD PUSH2 0xEAD JUMP JUMPDEST POP SWAP1 JUMP JUMPDEST PUSH0 PUSH1 0x40 MLOAD SWAP1 POP SWAP1 JUMP JUMPDEST PUSH0 PUSH0 REVERT JUMPDEST PUSH0 PUSH0 REVERT JUMPDEST PUSH0 DUP2 SWAP1 POP SWAP2 SWAP1 POP JUMP JUMPDEST PUSH2 0xEEA DUP2 PUSH2 0xED8 JUMP JUMPDEST DUP2 EQ PUSH2 0xEF4 JUMPI PUSH0 PUSH0 REVERT JUMPDEST POP JUMP JUMPDEST PUSH0 DUP2 CALLDATALOAD SWAP1 POP PUSH2 0xF05 DUP2 PUSH2 0xEE1 JUMP JUMPDEST SWAP3 SWAP2 POP POP JUMP JUMPDEST PUSH0 PUSH0 REVERT JUMPDEST PUSH0 PUSH1 0x1F NOT PUSH1 0x1F DUP4 ADD AND SWAP1 POP SWAP2 SWAP1 POP JUMP JUMPDEST PUSH32 0x4E487B7100000000000000000000000000000000000000000000000000000000 PUSH0 MSTORE PUSH1 0x41 PUSH1 0x4 MSTORE PUSH1 0x24 PUSH0 REVERT JUMPDEST PUSH2 0xF55 DUP3 PUSH2 0xF0F JUMP JUMPDEST DUP2 ADD DUP2 DUP2 LT PUSH8 0xFFFFFFFFFFFFFFFF DUP3 GT OR ISZERO PUSH2 0xF74 JUMPI PUSH2 0xF73 PUSH2 0xF1F JUMP JUMPDEST JUMPDEST DUP1 PUSH1 0x40 MSTORE POP POP POP JUMP JUMPDEST PUSH0 PUSH2 0xF86 PUSH2 0xEC7 JUMP JUMPDEST SWAP1 POP PUSH2 0xF92 DUP3 DUP3 PUSH2 0xF4C JUMP JUMPDEST SWAP2 SWAP1 POP JUMP JUMPDEST PUSH0 PUSH8 0xFFFFFFFFFFFFFFFF DUP3 GT ISZERO PUSH2 0xFB1 JUMPI PUSH2 0xFB0 PUSH2 0xF1F JUMP JUMPDEST JUMPDEST PUSH1 0x20 DUP3 MUL SWAP1 POP PUSH1 0x20 DUP2 ADD SWAP1 POP SWAP2 SWAP1 POP JUMP JUMPDEST PUSH0 PUSH0 REVERT JUMPDEST PUSH0 PUSH2 0xFD8 PUSH2 0xFD3 DUP5 PUSH2 0xF97 JUMP JUMPDEST PUSH2 0xF7D JUMP JUMPDEST SWAP1 POP DUP1 DUP4 DUP3 MSTORE PUSH1 0x20 DUP3 ADD SWAP1 POP PUSH1 0x20 DUP5 MUL DUP4 ADD DUP6 DUP2 GT ISZERO PUSH2 0xFFB JUMPI PUSH2 0xFFA PUSH2 0xFC2 JUMP JUMPDEST JUMPDEST DUP4 JUMPDEST DUP2 DUP2 LT ISZERO PUSH2 0x1024 JUMPI DUP1 PUSH2 0x1010 DUP9 DUP3 PUSH2 0xEF7 JUMP JUMPDEST DUP5 MSTORE PUSH1 0x20 DUP5 ADD SWAP4 POP POP PUSH1 0x20 DUP2 ADD SWAP1 POP PUSH2 0xFFD JUMP JUMPDEST POP POP POP SWAP4 SWAP3 POP POP POP JUMP JUMPDEST PUSH0 DUP3 PUSH1 0x1F DUP4 ADD SLT PUSH2 0x1042 JUMPI PUSH2 0x1041 PUSH2 0xF0B JUMP JUMPDEST JUMPDEST DUP2 CALLDATALOAD PUSH2 0x1052 DUP5 DUP3 PUSH1 0x20 DUP7 ADD PUSH2 0xFC6 JUMP JUMPDEST SWAP2 POP POP SWAP3 SWAP2 POP POP JUMP JUMPDEST PUSH0 PUSH0 PUSH1 0x40 DUP4 DUP6 SUB SLT ISZERO PUSH2 0x1071 JUMPI PUSH2 0x1070 PUSH2 0xED0 JUMP JUMPDEST JUMPDEST PUSH0 PUSH2 0x107E DUP6 DUP3 DUP7 ADD PUSH2 0xEF7 JUMP JUMPDEST SWAP3 POP POP PUSH1 0x20 DUP4 ADD CALLDATALOAD PUSH8 0xFFFFFFFFFFFFFFFF DUP2 GT ISZERO PUSH2 0x109F JUMPI PUSH2 0x109E PUSH2 0xED4 JUMP JUMPDEST JUMPDEST PUSH2 0x10AB DUP6 DUP3 DUP7 ADD PUSH2 0x102E JUMP JUMPDEST SWAP2 POP POP SWAP3 POP SWAP3 SWAP1 POP JUMP JUMPDEST PUSH0 PUSH20 0xFFFFFFFFFFFFFFFFFFFFFFFFFFFFFFFFFFFFFFFF DUP3 AND SWAP1 POP SWAP2 SWAP1 POP JUMP JUMPDEST PUSH0 PUSH2 0x10DE DUP3 PUSH2 0x10B5 JUMP JUMPDEST SWAP1 POP SWAP2 SWAP1 POP JUMP JUMPDEST PUSH2 0x10EE DUP2 PUSH2 0x10D4 JUMP JUMPDEST DUP2 EQ PUSH2 0x10F8 JUMPI PUSH0 PUSH0 REVERT JUMPDEST POP JUMP JUMPDEST PUSH0 DUP2 CALLDATALOAD SWAP1 POP PUSH2 0x1109 DUP2 PUSH2 0x10E5 JUMP JUMPDEST SWAP3 SWAP2 POP POP JUMP JUMPDEST PUSH0 PUSH0 PUSH1 0x40 DUP4 DUP6 SUB SLT ISZERO PUSH2 0x1125 JUMPI PUSH2 0x1124 PUSH2 0xED0 JUMP JUMPDEST JUMPDEST PUSH0 PUSH2 0x1132 DUP6 DUP3 DUP7 ADD PUSH2 0xEF7 JUMP JUMPDEST SWAP3 POP POP PUSH1 0x20 PUSH2 0x1143 DUP6 DUP3 DUP7 ADD PUSH2 0x10FB JUMP JUMPDEST SWAP2 POP POP SWAP3 POP SWAP3 SWAP1 POP JUMP JUMPDEST PUSH0 DUP2 ISZERO ISZERO SWAP1 POP SWAP2 SWAP1 POP JUMP JUMPDEST PUSH2 0x1161 DUP2 PUSH2 0x114D JUMP JUMPDEST DUP3 MSTORE POP POP JUMP JUMPDEST PUSH2 0x1170 DUP2 PUSH2 0xED8 JUMP JUMPDEST DUP3 MSTORE POP POP JUMP JUMPDEST PUSH0 PUSH1 0x40 DUP3 ADD SWAP1 POP PUSH2 0x1189 PUSH0 DUP4 ADD DUP6 PUSH2 0x1158 JUMP JUMPDEST PUSH2 0x1196 PUSH1 0x20 DUP4 ADD DUP5 PUSH2 0x1167 JUMP JUMPDEST SWAP4 SWAP3 POP POP POP JUMP JUMPDEST PUSH0 PUSH1 0x20 DUP3 ADD SWAP1 POP PUSH2 0x11B0 PUSH0 DUP4 ADD DUP5 PUSH2 0x1167 JUMP JUMPDEST SWAP3 SWAP2 POP POP JUMP JUMPDEST PUSH0 PUSH0 REVERT JUMPDEST PUSH0 PUSH8 0xFFFFFFFFFFFFFFFF DUP3 GT ISZERO PUSH2 0x11D4 JUMPI PUSH2 0x11D3 PUSH2 0xF1F JUMP JUMPDEST JUMPDEST PUSH2 0x11DD DUP3 PUSH2 0xF0F JUMP JUMPDEST SWAP1 POP PUSH1 0x20 DUP2 ADD SWAP1 POP SWAP2 SWAP1 POP JUMP JUMPDEST DUP3 DUP2 DUP4 CALLDATACOPY PUSH0 DUP4 DUP4 ADD MSTORE POP POP POP JUMP JUMPDEST PUSH0 PUSH2 0x120A PUSH2 0x1205 DUP5 PUSH2 0x11BA JUMP JUMPDEST PUSH2 0xF7D JUMP JUMPDEST SWAP1 POP DUP3 DUP2 MSTORE PUSH1 0x20 DUP2 ADD DUP5 DUP5 DUP5 ADD GT ISZERO PUSH2 0x1226 JUMPI PUSH2 0x1225 PUSH2 0x11B6 JUMP JUMPDEST JUMPDEST PUSH2 0x1231 DUP5 DUP3 DUP6 PUSH2 0x11EA JUMP JUMPDEST POP SWAP4 SWAP3 POP POP POP JUMP JUMPDEST PUSH0 DUP3 PUSH1 0x1F DUP4 ADD SLT PUSH2 0x124D JUMPI PUSH2 0x124C PUSH2 0xF0B JUMP JUMPDEST JUMPDEST DUP2 CALLDATALOAD PUSH2 0x125D DUP5 DUP3 PUSH1 0x20 DUP7 ADD PUSH2 0x11F8 JUMP JUMPDEST SWAP2 POP POP SWAP3 SWAP2 POP POP JUMP JUMPDEST PUSH0 PUSH8 0xFFFFFFFFFFFFFFFF DUP3 GT ISZERO PUSH2 0x1280 JUMPI PUSH2 0x127F PUSH2 0xF1F JUMP JUMPDEST JUMPDEST PUSH1 0x20 DUP3 MUL SWAP1 POP PUSH1 0x20 DUP2 ADD SWAP1 POP SWAP2 SWAP1 POP JUMP JUMPDEST PUSH0 PUSH2 0x12A3 PUSH2 0x129E DUP5 PUSH2 0x1266 JUMP JUMPDEST PUSH2 0xF7D JUMP JUMPDEST SWAP1 POP DUP1 DUP4 DUP3 MSTORE PUSH1 0x20 DUP3 ADD SWAP1 POP PUSH1 0x20 DUP5 MUL DUP4 ADD DUP6 DUP2 GT ISZERO PUSH2 0x12C6 JUMPI PUSH2 0x12C5 PUSH2 0xFC2 JUMP JUMPDEST JUMPDEST DUP4 JUMPDEST DUP2 DUP2 LT ISZERO PUSH2 0x130D JUMPI DUP1 CALLDATALOAD PUSH8 0xFFFFFFFFFFFFFFFF DUP2 GT ISZERO PUSH2 0x12EB JUMPI PUSH2 0x12EA PUSH2 0xF0B JUMP JUMPDEST JUMPDEST DUP1 DUP7 ADD PUSH2 0x12F8 DUP10 DUP3 PUSH2 0x1239 JUMP JUMPDEST DUP6 MSTORE PUSH1 0x20 DUP6 ADD SWAP5 POP POP POP PUSH1 0x20 DUP2 ADD SWAP1 POP PUSH2 0x12C8 JUMP JUMPDEST POP POP POP SWAP4 SWAP3 POP POP POP JUMP JUMPDEST PUSH0 DUP3 PUSH1 0x1F DUP4 ADD SLT PUSH2 0x132B JUMPI PUSH2 0x132A PUSH2 0xF0B JUMP JUMPDEST JUMPDEST DUP2 CALLDATALOAD PUSH2 0x133B DUP5 DUP3 PUSH1 0x20 DUP7 ADD PUSH2 0x1291 JUMP JUMPDEST SWAP2 POP POP SWAP3 SWAP2 POP POP JUMP JUMPDEST PUSH0 PUSH0 PUSH0 PUSH0 PUSH0 PUSH1 0xA0 DUP7 DUP9 SUB SLT ISZERO PUSH2 0x135D JUMPI PUSH2 0x135C PUSH2 0xED0 JUMP JUMPDEST JUMPDEST PUSH0 PUSH2 0x136A DUP9 DUP3 DUP10 ADD PUSH2 0xEF7 JUMP JUMPDEST SWAP6 POP POP PUSH1 0x20 DUP7 ADD CALLDATALOAD PUSH8 0xFFFFFFFFFFFFFFFF DUP2 GT ISZERO PUSH2 0x138B JUMPI PUSH2 0x138A PUSH2 0xED4 JUMP JUMPDEST JUMPDEST PUSH2 0x1397 DUP9 DUP3 DUP10 ADD PUSH2 0x1239 JUMP JUMPDEST SWAP5 POP POP PUSH1 0x40 DUP7 ADD CALLDATALOAD PUSH8 0xFFFFFFFFFFFFFFFF DUP2 GT ISZERO PUSH2 0x13B8 JUMPI PUSH2 0x13B7 PUSH2 0xED4 JUMP JUMPDEST JUMPDEST PUSH2 0x13C4 DUP9 DUP3 DUP10 ADD PUSH2 0x1317 JUMP JUMPDEST SWAP4 POP POP PUSH1 0x60 PUSH2 0x13D5 DUP9 DUP3 DUP10 ADD PUSH2 0xEF7 JUMP JUMPDEST SWAP3 POP POP PUSH1 0x80 PUSH2 0x13E6 DUP9 DUP3 DUP10 ADD PUSH2 0xEF7 JUMP JUMPDEST SWAP2 POP POP SWAP3 SWAP6 POP SWAP3 SWAP6 SWAP1 SWAP4 POP JUMP JUMPDEST PUSH0 PUSH1 0x20 DUP3 DUP5 SUB SLT ISZERO PUSH2 0x1408 JUMPI PUSH2 0x1407 PUSH2 0xED0 JUMP JUMPDEST JUMPDEST PUSH0 PUSH2 0x1415 DUP5 DUP3 DUP6 ADD PUSH2 0xEF7 JUMP JUMPDEST SWAP2 POP POP SWAP3 SWAP2 POP POP JUMP JUMPDEST PUSH0 DUP2 MLOAD SWAP1 POP SWAP2 SWAP1 POP JUMP JUMPDEST PUSH0 DUP3 DUP3 MSTORE PUSH1 0x20 DUP3 ADD SWAP1 POP SWAP3 SWAP2 POP POP JUMP JUMPDEST DUP3 DUP2 DUP4 MCOPY PUSH0 DUP4 DUP4 ADD MSTORE POP POP POP JUMP JUMPDEST PUSH0 PUSH2 0x1450 DUP3 PUSH2 0x141E JUMP JUMPDEST PUSH2 0x145A DUP2 DUP6 PUSH2 0x1428 JUMP JUMPDEST SWAP4 POP PUSH2 0x146A DUP2 DUP6 PUSH1 0x20 DUP7 ADD PUSH2 0x1438 JUMP JUMPDEST PUSH2 0x1473 DUP2 PUSH2 0xF0F JUMP JUMPDEST DUP5 ADD SWAP2 POP POP SWAP3 SWAP2 POP POP JUMP JUMPDEST PUSH0 PUSH1 0x60 DUP3 ADD SWAP1 POP DUP2 DUP2 SUB PUSH0 DUP4 ADD MSTORE PUSH2 0x1496 DUP2 DUP7 PUSH2 0x1446 JUMP JUMPDEST SWAP1 POP PUSH2 0x14A5 PUSH1 0x20 DUP4 ADD DUP6 PUSH2 0x1158 JUMP JUMPDEST PUSH2 0x14B2 PUSH1 0x40 DUP4 ADD DUP5 PUSH2 0x1167 JUMP JUMPDEST SWAP5 SWAP4 POP POP POP POP JUMP JUMPDEST PUSH0 PUSH0 PUSH1 0x40 DUP4 DUP6 SUB SLT ISZERO PUSH2 0x14D0 JUMPI PUSH2 0x14CF PUSH2 0xED0 JUMP JUMPDEST JUMPDEST PUSH0 PUSH2 0x14DD DUP6 DUP3 DUP7 ADD PUSH2 0xEF7 JUMP JUMPDEST SWAP3 POP POP PUSH1 0x20 PUSH2 0x14EE DUP6 DUP3 DUP7 ADD PUSH2 0xEF7 JUMP JUMPDEST SWAP2 POP POP SWAP3 POP SWAP3 SWAP1 POP JUMP JUMPDEST PUSH0 PUSH1 0x60 DUP3 ADD SWAP1 POP DUP2 DUP2 SUB PUSH0 DUP4 ADD MSTORE PUSH2 0x1510 DUP2 DUP7 PUSH2 0x1446 JUMP JUMPDEST SWAP1 POP PUSH2 0x151F PUSH1 0x20 DUP4 ADD DUP6 PUSH2 0x1167 JUMP JUMPDEST PUSH2 0x152C PUSH1 0x40 DUP4 ADD DUP5 PUSH2 0x1167 JUMP JUMPDEST SWAP5 SWAP4 POP POP POP POP JUMP JUMPDEST PUSH2 0x153D DUP2 PUSH2 0x10D4 JUMP JUMPDEST DUP3 MSTORE POP POP JUMP JUMPDEST PUSH0 PUSH1 0x20 DUP3 ADD SWAP1 POP PUSH2 0x1556 PUSH0 DUP4 ADD DUP5 PUSH2 0x1534 JUMP JUMPDEST SWAP3 SWAP2 POP POP JUMP JUMPDEST PUSH0 PUSH1 0x20 DUP3 DUP5 SUB SLT ISZERO PUSH2 0x1571 JUMPI PUSH2 0x1570 PUSH2 0xED0 JUMP JUMPDEST JUMPDEST PUSH0 DUP3 ADD CALLDATALOAD PUSH8 0xFFFFFFFFFFFFFFFF DUP2 GT ISZERO PUSH2 0x158E JUMPI PUSH2 0x158D PUSH2 0xED4 JUMP JUMPDEST JUMPDEST PUSH2 0x159A DUP5 DUP3 DUP6 ADD PUSH2 0x1239 JUMP JUMPDEST SWAP2 POP POP SWAP3 SWAP2 POP POP JUMP JUMPDEST PUSH32 0x4578616D20646F6573206E6F7420657869737400000000000000000000000000 PUSH0 DUP3 ADD MSTORE POP JUMP JUMPDEST PUSH0 PUSH2 0x15D7 PUSH1 0x13 DUP4 PUSH2 0x1428 JUMP JUMPDEST SWAP2 POP PUSH2 0x15E2 DUP3 PUSH2 0x15A3 JUMP JUMPDEST PUSH1 0x20 DUP3 ADD SWAP1 POP SWAP2 SWAP1 POP JUMP JUMPDEST PUSH0 PUSH1 0x20 DUP3 ADD SWAP1 POP DUP2 DUP2 SUB PUSH0 DUP4 ADD MSTORE PUSH2 0x1604 DUP2 PUSH2 0x15CB JUMP JUMPDEST SWAP1 POP SWAP2 SWAP1 POP JUMP JUMPDEST PUSH32 0x596F75206861766520616C7265616479207375626D6974746564207468652065 PUSH0 DUP3 ADD MSTORE PUSH32 0x78616D0000000000000000000000000000000000000000000000000000000000 PUSH1 0x20 DUP3 ADD MSTORE POP JUMP JUMPDEST PUSH0 PUSH2 0x1665 PUSH1 0x23 DUP4 PUSH2 0x1428 JUMP JUMPDEST SWAP2 POP PUSH2 0x1670 DUP3 PUSH2 0x160B JUMP JUMPDEST PUSH1 0x40 DUP3 ADD SWAP1 POP SWAP2 SWAP1 POP JUMP JUMPDEST PUSH0 PUSH1 0x20 DUP3 ADD SWAP1 POP DUP2 DUP2 SUB PUSH0 DUP4 ADD MSTORE PUSH2 0x1692 DUP2 PUSH2 0x1659 JUMP JUMPDEST SWAP1 POP SWAP2 SWAP1 POP JUMP JUMPDEST PUSH32 0x4D75737420616E7377657220616C6C207175657374696F6E7300000000000000 PUSH0 DUP3 ADD MSTORE POP JUMP JUMPDEST PUSH0 PUSH2 0x16CD PUSH1 0x19 DUP4 PUSH2 0x1428 JUMP JUMPDEST SWAP2 POP PUSH2 0x16D8 DUP3 PUSH2 0x1699 JUMP JUMPDEST PUSH1 0x20 DUP3 ADD SWAP1 POP SWAP2 SWAP1 POP JUMP JUMPDEST PUSH0 PUSH1 0x20 DUP3 ADD SWAP1 POP DUP2 DUP2 SUB PUSH0 DUP4 ADD MSTORE PUSH2 0x16FA DUP2 PUSH2 0x16C1 JUMP JUMPDEST SWAP1 POP SWAP2 SWAP1 POP JUMP JUMPDEST PUSH32 0x4E487B7100000000000000000000000000000000000000000000000000000000 PUSH0 MSTORE PUSH1 0x32 PUSH1 0x4 MSTORE PUSH1 0x24 PUSH0 REVERT JUMPDEST PUSH32 0x4E487B7100000000000000000000000000000000000000000000000000000000 PUSH0 MSTORE PUSH1 0x11 PUSH1 0x4 MSTORE PUSH1 0x24 PUSH0 REVERT JUMPDEST PUSH0 PUSH2 0x1765 DUP3 PUSH2 0xED8 JUMP JUMPDEST SWAP2 POP PUSH2 0x1770 DUP4 PUSH2 0xED8 JUMP JUMPDEST SWAP3 POP DUP3 DUP3 ADD SWAP1 POP DUP1 DUP3 GT ISZERO PUSH2 0x1788 JUMPI PUSH2 0x1787 PUSH2 0x172E JUMP JUMPDEST JUMPDEST SWAP3 SWAP2 POP POP JUMP JUMPDEST PUSH32 0x4F6E6C79206F776E65722063616E20706572666F726D20746869732061637469 PUSH0 DUP3 ADD MSTORE PUSH32 0x6F6E000000000000000000000000000000000000000000000000000000000000 PUSH1 0x20 DUP3 ADD MSTORE POP JUMP JUMPDEST PUSH0 PUSH2 0x17E8 PUSH1 0x22 DUP4 PUSH2 0x1428 JUMP JUMPDEST SWAP2 POP PUSH2 0x17F3 DUP3 PUSH2 0x178E JUMP JUMPDEST PUSH1 0x40 DUP3 ADD SWAP1 POP SWAP2 SWAP1 POP JUMP JUMPDEST PUSH0 PUSH1 0x20 DUP3 ADD SWAP1 POP DUP2 DUP2 SUB PUSH0 DUP4 ADD MSTORE PUSH2 0x1815 DUP2 PUSH2 0x17DC JUMP JUMPDEST SWAP1 POP SWAP2 SWAP1 POP JUMP JUMPDEST PUSH32 0x43616E6E6F74206D6F64696679206166746572207075626C697368696E670000 PUSH0 DUP3 ADD MSTORE POP JUMP JUMPDEST PUSH0 PUSH2 0x1850 PUSH1 0x1E DUP4 PUSH2 0x1428 JUMP JUMPDEST SWAP2 POP PUSH2 0x185B DUP3 PUSH2 0x181C JUMP JUMPDEST PUSH1 0x20 DUP3 ADD SWAP1 POP SWAP2 SWAP1 POP JUMP JUMPDEST PUSH0 PUSH1 0x20 DUP3 ADD SWAP1 POP DUP2 DUP2 SUB PUSH0 DUP4 ADD MSTORE PUSH2 0x187D DUP2 PUSH2 0x1844 JUMP JUMPDEST SWAP1 POP SWAP2 SWAP1 POP JUMP JUMPDEST PUSH32 0x4D7573742068617665206174206C656173742032206F7074696F6E7300000000 PUSH0 DUP3 ADD MSTORE POP JUMP JUMPDEST PUSH0 PUSH2 0x18B8 PUSH1 0x1C DUP4 PUSH2 0x1428 JUMP JUMPDEST SWAP2 POP PUSH2 0x18C3 DUP3 PUSH2 0x1884 JUMP JUMPDEST PUSH1 0x20 DUP3 ADD SWAP1 POP SWAP2 SWAP1 POP JUMP JUMPDEST PUSH0 PUSH1 0x20 DUP3 ADD SWAP1 POP DUP2 DUP2 SUB PUSH0 DUP4 ADD MSTORE PUSH2 0x18E5 DUP2 PUSH2 0x18AC JUMP JUMPDEST SWAP1 POP SWAP2 SWAP1 POP JUMP JUMPDEST PUSH32 0x496E76616C696420636F727265637420616E7377657220696E64657800000000 PUSH0 DUP3 ADD MSTORE POP JUMP JUMPDEST PUSH0 PUSH2 0x1920 PUSH1 0x1C DUP4 PUSH2 0x1428 JUMP JUMPDEST SWAP2 POP PUSH2 0x192B DUP3 PUSH2 0x18EC JUMP JUMPDEST PUSH1 0x20 DUP3 ADD SWAP1 POP SWAP2 SWAP1 POP JUMP JUMPDEST PUSH0 PUSH1 0x20 DUP3 ADD SWAP1 POP DUP2 DUP2 SUB PUSH0 DUP4 ADD MSTORE PUSH2 0x194D DUP2 PUSH2 0x1914 JUMP JUMPDEST SWAP1 POP SWAP2 SWAP1 POP JUMP JUMPDEST PUSH32 0x4E487B7100000000000000000000000000000000000000000000000000000000 PUSH0 MSTORE PUSH1 0x22 PUSH1 0x4 MSTORE PUSH1 0x24 PUSH0 REVERT JUMPDEST PUSH0 PUSH1 0x2 DUP3 DIV SWAP1 POP PUSH1 0x1 DUP3 AND DUP1 PUSH2 0x1998 JUMPI PUSH1 0x7F DUP3 AND SWAP2 POP JUMPDEST PUSH1 0x20 DUP3 LT DUP2 SUB PUSH2 0x19AB JUMPI PUSH2 0x19AA PUSH2 0x1954 JUMP JUMPDEST JUMPDEST POP SWAP2 SWAP1 POP JUMP JUMPDEST PUSH0 DUP2 SWAP1 POP DUP2 PUSH0 MSTORE PUSH1 0x20 PUSH0 KECCAK256 SWAP1 POP SWAP2 SWAP1 POP JUMP JUMPDEST PUSH0 PUSH1 0x20 PUSH1 0x1F DUP4 ADD DIV SWAP1 POP SWAP2 SWAP1 POP JUMP JUMPDEST PUSH0 DUP3 DUP3 SHL SWAP1 POP SWAP3 SWAP2 POP POP JUMP JUMPDEST PUSH0 PUSH1 0x8 DUP4 MUL PUSH2 0x1A0D PUSH32 0xFFFFFFFFFFFFFFFFFFFFFFFFFFFFFFFFFFFFFFFFFFFFFFFFFFFFFFFFFFFFFFFF DUP3 PUSH2 0x19D2 JUMP JUMPDEST PUSH2 0x1A17 DUP7 DUP4 PUSH2 0x19D2 JUMP JUMPDEST SWAP6 POP DUP1 NOT DUP5 AND SWAP4 POP DUP1 DUP7 AND DUP5 OR SWAP3 POP POP POP SWAP4 SWAP3 POP POP POP JUMP JUMPDEST PUSH0 DUP2 SWAP1 POP SWAP2 SWAP1 POP JUMP JUMPDEST PUSH0 PUSH2 0x1A52 PUSH2 0x1A4D PUSH2 0x1A48 DUP5 PUSH2 0xED8 JUMP JUMPDEST PUSH2 0x1A2F JUMP JUMPDEST PUSH2 0xED8 JUMP JUMPDEST SWAP1 POP SWAP2 SWAP1 POP JUMP JUMPDEST PUSH0 DUP2 SWAP1 POP SWAP2 SWAP1 POP JUMP JUMPDEST PUSH2 0x1A6B DUP4 PUSH2 0x1A38 JUMP JUMPDEST PUSH2 0x1A7F PUSH2 0x1A77 DUP3 PUSH2 0x1A59 JUMP JUMPDEST DUP5 DUP5 SLOAD PUSH2 0x19DE JUMP JUMPDEST DUP3 SSTORE POP POP POP POP JUMP JUMPDEST PUSH0 PUSH0 SWAP1 POP SWAP1 JUMP JUMPDEST PUSH2 0x1A96 PUSH2 0x1A87 JUMP JUMPDEST PUSH2 0x1AA1 DUP2 DUP5 DUP5 PUSH2 0x1A62 JUMP JUMPDEST POP POP POP JUMP JUMPDEST JUMPDEST DUP2 DUP2 LT ISZERO PUSH2 0x1AC4 JUMPI PUSH2 0x1AB9 PUSH0 DUP3 PUSH2 0x1A8E JUMP JUMPDEST PUSH1 0x1 DUP2 ADD SWAP1 POP PUSH2 0x1AA7 JUMP JUMPDEST POP POP JUMP JUMPDEST PUSH1 0x1F DUP3 GT ISZERO PUSH2 0x1B09 JUMPI PUSH2 0x1ADA DUP2 PUSH2 0x19B1 JUMP JUMPDEST PUSH2 0x1AE3 DUP5 PUSH2 0x19C3 JUMP JUMPDEST DUP2 ADD PUSH1 0x20 DUP6 LT ISZERO PUSH2 0x1AF2 JUMPI DUP2 SWAP1 POP JUMPDEST PUSH2 0x1B06 PUSH2 0x1AFE DUP6 PUSH2 0x19C3 JUMP JUMPDEST DUP4 ADD DUP3 PUSH2 0x1AA6 JUMP JUMPDEST POP POP JUMPDEST POP POP POP JUMP JUMPDEST PUSH0 DUP3 DUP3 SHR SWAP1 POP SWAP3 SWAP2 POP POP JUMP JUMPDEST PUSH0 PUSH2 0x1B29 PUSH0 NOT DUP5 PUSH1 0x8 MUL PUSH2 0x1B0E JUMP JUMPDEST NOT DUP1 DUP4 AND SWAP2 POP POP SWAP3 SWAP2 POP POP JUMP JUMPDEST PUSH0 PUSH2 0x1B41 DUP4 DUP4 PUSH2 0x1B1A JUMP JUMPDEST SWAP2 POP DUP3 PUSH1 0x2 MUL DUP3 OR SWAP1 POP SWAP3 SWAP2 POP POP JUMP JUMPDEST PUSH2 0x1B5A DUP3 PUSH2 0x141E JUMP JUMPDEST PUSH8 0xFFFFFFFFFFFFFFFF DUP2 GT ISZERO PUSH2 0x1B73 JUMPI PUSH2 0x1B72 PUSH2 0xF1F JUMP JUMPDEST JUMPDEST PUSH2 0x1B7D DUP3 SLOAD PUSH2 0x1981 JUMP JUMPDEST PUSH2 0x1B88 DUP3 DUP3 DUP6 PUSH2 0x1AC8 JUMP JUMPDEST PUSH0 PUSH1 0x20 SWAP1 POP PUSH1 0x1F DUP4 GT PUSH1 0x1 DUP2 EQ PUSH2 0x1BB9 JUMPI PUSH0 DUP5 ISZERO PUSH2 0x1BA7 JUMPI DUP3 DUP8 ADD MLOAD SWAP1 POP JUMPDEST PUSH2 0x1BB1 DUP6 DUP3 PUSH2 0x1B36 JUMP JUMPDEST DUP7 SSTORE POP PUSH2 0x1C18 JUMP JUMPDEST PUSH1 0x1F NOT DUP5 AND PUSH2 0x1BC7 DUP7 PUSH2 0x19B1 JUMP JUMPDEST PUSH0 JUMPDEST DUP3 DUP2 LT ISZERO PUSH2 0x1BEE JUMPI DUP5 DUP10 ADD MLOAD DUP3 SSTORE PUSH1 0x1 DUP3 ADD SWAP2 POP PUSH1 0x20 DUP6 ADD SWAP5 POP PUSH1 0x20 DUP2 ADD SWAP1 POP PUSH2 0x1BC9 JUMP JUMPDEST DUP7 DUP4 LT ISZERO PUSH2 0x1C0B JUMPI DUP5 DUP10 ADD MLOAD PUSH2 0x1C07 PUSH1 0x1F DUP10 AND DUP3 PUSH2 0x1B1A JUMP JUMPDEST DUP4 SSTORE POP JUMPDEST PUSH1 0x1 PUSH1 0x2 DUP9 MUL ADD DUP9 SSTORE POP POP POP JUMPDEST POP POP POP POP POP POP JUMP JUMPDEST PUSH0 PUSH2 0x1C2A DUP3 PUSH2 0xED8 JUMP JUMPDEST SWAP2 POP PUSH32 0xFFFFFFFFFFFFFFFFFFFFFFFFFFFFFFFFFFFFFFFFFFFFFFFFFFFFFFFFFFFFFFFF DUP3 SUB PUSH2 0x1C5C JUMPI PUSH2 0x1C5B PUSH2 0x172E JUMP JUMPDEST JUMPDEST PUSH1 0x1 DUP3 ADD SWAP1 POP SWAP2 SWAP1 POP JUMP JUMPDEST PUSH32 0x4578616D20616C7265616479207075626C697368656400000000000000000000 PUSH0 DUP3 ADD MSTORE POP JUMP JUMPDEST PUSH0 PUSH2 0x1C9B PUSH1 0x16 DUP4 PUSH2 0x1428 JUMP JUMPDEST SWAP2 POP PUSH2 0x1CA6 DUP3 PUSH2 0x1C67 JUMP JUMPDEST PUSH1 0x20 DUP3 ADD SWAP1 POP SWAP2 SWAP1 POP JUMP JUMPDEST PUSH0 PUSH1 0x20 DUP3 ADD SWAP1 POP DUP2 DUP2 SUB PUSH0 DUP4 ADD MSTORE PUSH2 0x1CC8 DUP2 PUSH2 0x1C8F JUMP JUMPDEST SWAP1 POP SWAP2 SWAP1 POP JUMP JUMPDEST PUSH32 0x4578616D206D7573742068617665207175657374696F6E730000000000000000 PUSH0 DUP3 ADD MSTORE POP JUMP JUMPDEST PUSH0 PUSH2 0x1D03 PUSH1 0x18 DUP4 PUSH2 0x1428 JUMP JUMPDEST SWAP2 POP PUSH2 0x1D0E DUP3 PUSH2 0x1CCF JUMP JUMPDEST PUSH1 0x20 DUP3 ADD SWAP1 POP SWAP2 SWAP1 POP JUMP JUMPDEST PUSH0 PUSH1 0x20 DUP3 ADD SWAP1 POP DUP2 DUP2 SUB PUSH0 DUP4 ADD MSTORE PUSH2 0x1D30 DUP2 PUSH2 0x1CF7 JUMP JUMPDEST SWAP1 POP SWAP2 SWAP1 POP JUMP JUMPDEST PUSH32 0x53747564656E7420686173206E6F74207375626D697474656420746865206578 PUSH0 DUP3 ADD MSTORE PUSH32 0x616D000000000000000000000000000000000000000000000000000000000000 PUSH1 0x20 DUP3 ADD MSTORE POP JUMP JUMPDEST PUSH0 PUSH2 0x1D91 PUSH1 0x22 DUP4 PUSH2 0x1428 JUMP JUMPDEST SWAP2 POP PUSH2 0x1D9C DUP3 PUSH2 0x1D37 JUMP JUMPDEST PUSH1 0x40 DUP3 ADD SWAP1 POP SWAP2 SWAP1 POP JUMP JUMPDEST PUSH0 PUSH1 0x20 DUP3 ADD SWAP1 POP DUP2 DUP2 SUB PUSH0 DUP4 ADD MSTORE PUSH2 0x1DBE DUP2 PUSH2 0x1D85 JUMP JUMPDEST SWAP1 POP SWAP2 SWAP1 POP JUMP INVALID LOG2 PUSH5 0x6970667358 0x22 SLT KECCAK256 STOP DUPN 0x86 PUSH8 0xF710DD75820A9F69 ADDRESS 0xAD DATALOADN 0x10D1 0xDC CALLDATASIZE CALL 0xB6 STATICCALL PUSH12 0x7053B12D022CA74BEC64736F PUSH13 0x634300081F0033000000000000 "
				},
				"gasEstimates": {
					"creation": {
						"codeDepositCost": "1535000",
						"executionCost": "25865",
						"totalCost": "1560865"
					},
					"external": {
						"addQuestion(uint256,string,string[],uint256,uint256)": "infinite",
						"createExam(string)": "infinite",
						"examCount()": "2470",
						"examQuestions(uint256,uint256)": "infinite",
						"exams(uint256)": "infinite",
						"getStudentScore(uint256,address)": "infinite",
						"owner()": "2551",
						"publishExam(uint256)": "33569",
						"questionCount(uint256)": "infinite",
						"studentAnswers(uint256,address)": "infinite",
						"submitAnswers(uint256,uint256[])": "infinite"
					}
				},
				"methodIdentifiers": {
					"addQuestion(uint256,string,string[],uint256,uint256)": "33255036",
					"createExam(string)": "944bda63",
					"examCount()": "0dfb1dbf",
					"examQuestions(uint256,uint256)": "61c5c068",
					"exams(uint256)": "4198cb3f",
					"getStudentScore(uint256,address)": "a9dafbe9",
					"owner()": "8da5cb5b",
					"publishExam(uint256)": "39274fdd",
					"questionCount(uint256)": "efc342f4",
					"studentAnswers(uint256,address)": "0bcb5189",
					"submitAnswers(uint256,uint256[])": "084a5818"
				}
			},
			"storageLayout": {
				"storage": [
					{
						"astId": 3,
						"contract": "contracts/exams.sol:DecentralizedExamSystem",
						"label": "owner",
						"offset": 0,
						"slot": "0",
						"type": "t_address"
					},
					{
						"astId": 34,
						"contract": "contracts/exams.sol:DecentralizedExamSystem",
						"label": "exams",
						"offset": 0,
						"slot": "1",
						"type": "t_mapping(t_uint256,t_struct(Exam)10_storage)"
					},
					{
						"astId": 41,
						"contract": "contracts/exams.sol:DecentralizedExamSystem",
						"label": "examQuestions",
						"offset": 0,
						"slot": "2",
						"type": "t_mapping(t_uint256,t_mapping(t_uint256,t_struct(Question)20_storage))"
					},
					{
						"astId": 45,
						"contract": "contracts/exams.sol:DecentralizedExamSystem",
						"label": "questionCount",
						"offset": 0,
						"slot": "3",
						"type": "t_mapping(t_uint256,t_uint256)"
					},
					{
						"astId": 52,
						"contract": "contracts/exams.sol:DecentralizedExamSystem",
						"label": "studentAnswers",
						"offset": 0,
						"slot": "4",
						"type": "t_mapping(t_uint256,t_mapping(t_address,t_struct(StudentSubmission)29_storage))"
					},
					{
						"astId": 54,
						"contract": "contracts/exams.sol:DecentralizedExamSystem",
						"label": "examCount",
						"offset": 0,
						"slot": "5",
						"type": "t_uint256"
					}
				],
				"types": {
					"t_address": {
						"encoding": "inplace",
						"label": "address",
						"numberOfBytes": "20"
					},
					"t_array(t_string_storage)dyn_storage": {
						"base": "t_string_storage",
						"encoding": "dynamic_array",
						"label": "string[]",
						"numberOfBytes": "32"
					},
					"t_bool": {
						"encoding": "inplace",
						"label": "bool",
						"numberOfBytes": "1"
					},
					"t_mapping(t_address,t_struct(StudentSubmission)29_storage)": {
						"encoding": "mapping",
						"key": "t_address",
						"label": "mapping(address => struct DecentralizedExamSystem.StudentSubmission)",
						"numberOfBytes": "32",
						"value": "t_struct(StudentSubmission)29_storage"
					},
					"t_mapping(t_uint256,t_mapping(t_address,t_struct(StudentSubmission)29_storage))": {
						"encoding": "mapping",
						"key": "t_uint256",
						"label": "mapping(uint256 => mapping(address => struct DecentralizedExamSystem.StudentSubmission))",
						"numberOfBytes": "32",
						"value": "t_mapping(t_address,t_struct(StudentSubmission)29_storage)"
					},
					"t_mapping(t_uint256,t_mapping(t_uint256,t_struct(Question)20_storage))": {
						"encoding": "mapping",
						"key": "t_uint256",
						"label": "mapping(uint256 => mapping(uint256 => struct DecentralizedExamSystem.Question))",
						"numberOfBytes": "32",
						"value": "t_mapping(t_uint256,t_struct(Question)20_storage)"
					},
					"t_mapping(t_uint256,t_struct(Exam)10_storage)": {
						"encoding": "mapping",
						"key": "t_uint256",
						"label": "mapping(uint256 => struct DecentralizedExamSystem.Exam)",
						"numberOfBytes": "32",
						"value": "t_struct(Exam)10_storage"
					},
					"t_mapping(t_uint256,t_struct(Question)20_storage)": {
						"encoding": "mapping",
						"key": "t_uint256",
						"label": "mapping(uint256 => struct DecentralizedExamSystem.Question)",
						"numberOfBytes": "32",
						"value": "t_struct(Question)20_storage"
					},
					"t_mapping(t_uint256,t_uint256)": {
						"encoding": "mapping",
						"key": "t_uint256",
						"label": "mapping(uint256 => uint256)",
						"numberOfBytes": "32",
						"value": "t_uint256"
					},
					"t_string_storage": {
						"encoding": "bytes",
						"label": "string",
						"numberOfBytes": "32"
					},
					"t_struct(Exam)10_storage": {
						"encoding": "inplace",
						"label": "struct DecentralizedExamSystem.Exam",
						"members": [
							{
								"astId": 5,
								"contract": "contracts/exams.sol:DecentralizedExamSystem",
								"label": "title",
								"offset": 0,
								"slot": "0",
								"type": "t_string_storage"
							},
							{
								"astId": 7,
								"contract": "contracts/exams.sol:DecentralizedExamSystem",
								"label": "published",
								"offset": 0,
								"slot": "1",
								"type": "t_bool"
							},
							{
								"astId": 9,
								"contract": "contracts/exams.sol:DecentralizedExamSystem",
								"label": "totalMarks",
								"offset": 0,
								"slot": "2",
								"type": "t_uint256"
							}
						],
						"numberOfBytes": "96"
					},
					"t_struct(Question)20_storage": {
						"encoding": "inplace",
						"label": "struct DecentralizedExamSystem.Question",
						"members": [
							{
								"astId": 12,
								"contract": "contracts/exams.sol:DecentralizedExamSystem",
								"label": "questionText",
								"offset": 0,
								"slot": "0",
								"type": "t_string_storage"
							},
							{
								"astId": 15,
								"contract": "contracts/exams.sol:DecentralizedExamSystem",
								"label": "options",
								"offset": 0,
								"slot": "1",
								"type": "t_array(t_string_storage)dyn_storage"
							},
							{
								"astId": 17,
								"contract": "contracts/exams.sol:DecentralizedExamSystem",
								"label": "correctOptionIndex",
								"offset": 0,
								"slot": "2",
								"type": "t_uint256"
							},
							{
								"astId": 19,
								"contract": "contracts/exams.sol:DecentralizedExamSystem",
								"label": "marks",
								"offset": 0,
								"slot": "3",
								"type": "t_uint256"
							}
						],
						"numberOfBytes": "128"
					},
					"t_struct(StudentSubmission)29_storage": {
						"encoding": "inplace",
						"label": "struct DecentralizedExamSystem.StudentSubmission",
						"members": [
							{
								"astId": 24,
								"contract": "contracts/exams.sol:DecentralizedExamSystem",
								"label": "answers",
								"offset": 0,
								"slot": "0",
								"type": "t_mapping(t_uint256,t_uint256)"
							},
							{
								"astId": 26,
								"contract": "contracts/exams.sol:DecentralizedExamSystem",
								"label": "submitted",
								"offset": 0,
								"slot": "1",
								"type": "t_bool"
							},
							{
								"astId": 28,
								"contract": "contracts/exams.sol:DecentralizedExamSystem",
								"label": "score",
								"offset": 0,
								"slot": "2",
								"type": "t_uint256"
							}
						],
						"numberOfBytes": "96"
					},
					"t_uint256": {
						"encoding": "inplace",
						"label": "uint256",
						"numberOfBytes": "32"
					}
				}
			},
			"userdoc": {
				"kind": "user",
				"methods": {},
				"version": 1
			}
		}
	}
}