{
	"contracts/10.19.arrayofstruct.sol": {
		"StudentManagement": {
			"abi": [
				{
					"inputs": [
						{
							"internalType": "uint256",
							"name": "_id",
							"type": "uint256"
						},
						{
							"internalType": "string",
							"name": "_name",
							"type": "string"
						},
						{
							"internalType": "uint256",
							"name": "_age",
							"type": "uint256"
						}
					],
					"name": "addStudent",
					"outputs": [],
					"stateMutability": "nonpayable",
					"type": "function"
				},
				{
					"inputs": [
						{
							"internalType": "uint256",
							"name": "_id",
							"type": "uint256"
						}
					],
					"name": "getStudentById",
					"outputs": [
						{
							"internalType": "uint256",
							"name": "",
							"type": "uint256"
						},
						{
							"internalType": "string",
							"name": "",
							"type": "string"
						},
						{
							"internalType": "uint256",
							"name": "",
							"type": "uint256"
						}
					],
					"stateMutability": "view",
					"type": "function"
				},
				{
					"inputs": [
						{
							"internalType": "uint256",
							"name": "_index",
							"type": "uint256"
						}
					],
					"name": "getStudentByIndex",
					"outputs": [
						{
							"internalType": "uint256",
							"name": "",
							"type": "uint256"
						},
						{
							"internalType": "string",
							"name": "",
							"type": "string"
						},
						{
							"internalType": "uint256",
							"name": "",
							"type": "uint256"
						}
					],
					"stateMutability": "view",
					"type": "function"
				},
				{
					"inputs": [
						{
							"internalType": "uint256",
							"name": "_id",
							"type": "uint256"
						}
					],
					"name": "removeStudent",
					"outputs": [],
					"stateMutability": "nonpayable",
					"type": "function"
				},
				{
					"inputs": [
						{
							"internalType": "uint256",
							"name": "",
							"type": "uint256"
						}
					],
					"name": "studentIdToIndex",
					"outputs": [
						{
							"internalType": "uint256",
							"name": "",
							"type": "uint256"
						}
					],
					"stateMutability": "view",
					"type": "function"
				},
				{
					"inputs": [
						{
							"internalType": "uint256",
							"name": "",
							"type": "uint256"
						}
					],
					"name": "students",
					"outputs": [
						{
							"internalType": "uint256",
							"name": "id",
							"type": "uint256"
						},
						{
							"internalType": "string",
							"name": "name",
							"type": "string"
						},
						{
							"internalType": "uint256",
							"name": "age",
							"type": "uint256"
						}
					],
					"stateMutability": "view",
					"type": "function"
				},
				{
					"inputs": [
						{
							"internalType": "uint256",
							"name": "_id",
							"type": "uint256"
						},
						{
							"internalType": "string",
							"name": "_name",
							"type": "string"
						},
						{
							"internalType": "uint256",
							"name": "_age",
							"type": "uint256"
						}
					],
					"name": "updateStudent",
					"outputs": [],
					"stateMutability": "nonpayable",
					"type": "function"
				}
			],
			"devdoc": {
				"kind": "dev",
				"methods": {},
				"version": 1
			},
			"evm": {
				"assembly": "    /* \"contracts/10.19.arrayofstruct.sol\":80:2718  contract StudentManagement {... */\n  mstore(0x40, 0x80)\n  callvalue\n  dup1\n  iszero\n  tag_1\n  jumpi\n  revert(0x00, 0x00)\ntag_1:\n  pop\n  dataSize(sub_0)\n  dup1\n  dataOffset(sub_0)\n  0x00\n  codecopy\n  0x00\n  return\nstop\n\nsub_0: assembly {\n        /* \"contracts/10.19.arrayofstruct.sol\":80:2718  contract StudentManagement {... */\n      mstore(0x40, 0x80)\n      callvalue\n      dup1\n      iszero\n      tag_1\n      jumpi\n      revert(0x00, 0x00)\n    tag_1:\n      pop\n      jumpi(tag_2, lt(calldatasize, 0x04))\n      shr(0xe0, calldataload(0x00))\n      dup1\n      0xc8fb0793\n      gt\n      tag_10\n      jumpi\n      dup1\n      0xc8fb0793\n      eq\n      tag_6\n      jumpi\n      dup1\n      0xda4ed516\n      eq\n      tag_7\n      jumpi\n      dup1\n      0xdc78302b\n      eq\n      tag_8\n      jumpi\n      dup1\n      0xec7505b1\n      eq\n      tag_9\n      jumpi\n      jump(tag_2)\n    tag_10:\n      dup1\n      0x06ead22e\n      eq\n      tag_3\n      jumpi\n      dup1\n      0x6af83845\n      eq\n      tag_4\n      jumpi\n      dup1\n      0xc1bea1db\n      eq\n      tag_5\n      jumpi\n    tag_2:\n      revert(0x00, 0x00)\n        /* \"contracts/10.19.arrayofstruct.sol\":289:314  Student[] public students */\n    tag_3:\n      tag_11\n      0x04\n      dup1\n      calldatasize\n      sub\n      dup2\n      add\n      swap1\n      tag_12\n      swap2\n      swap1\n      tag_13\n      jump\t// in\n    tag_12:\n      tag_14\n      jump\t// in\n    tag_11:\n      mload(0x40)\n      tag_15\n      swap4\n      swap3\n      swap2\n      swap1\n      tag_16\n      jump\t// in\n    tag_15:\n      mload(0x40)\n      dup1\n      swap2\n      sub\n      swap1\n      return\n        /* \"contracts/10.19.arrayofstruct.sol\":2189:2715  function removeStudent(uint256 _id) public {... */\n    tag_4:\n      tag_17\n      0x04\n      dup1\n      calldatasize\n      sub\n      dup2\n      add\n      swap1\n      tag_18\n      swap2\n      swap1\n      tag_13\n      jump\t// in\n    tag_18:\n      tag_19\n      jump\t// in\n    tag_17:\n      stop\n        /* \"contracts/10.19.arrayofstruct.sol\":524:870  function addStudent(... */\n    tag_5:\n      tag_20\n      0x04\n      dup1\n      calldatasize\n      sub\n      dup2\n      add\n      swap1\n      tag_21\n      swap2\n      swap1\n      tag_22\n      jump\t// in\n    tag_21:\n      tag_23\n      jump\t// in\n    tag_20:\n      stop\n        /* \"contracts/10.19.arrayofstruct.sol\":1332:1733  function getStudentById(uint256 _id)... */\n    tag_6:\n      tag_24\n      0x04\n      dup1\n      calldatasize\n      sub\n      dup2\n      add\n      swap1\n      tag_25\n      swap2\n      swap1\n      tag_13\n      jump\t// in\n    tag_25:\n      tag_26\n      jump\t// in\n    tag_24:\n      mload(0x40)\n      tag_27\n      swap4\n      swap3\n      swap2\n      swap1\n      tag_16\n      jump\t// in\n    tag_27:\n      mload(0x40)\n      dup1\n      swap2\n      sub\n      swap1\n      return\n        /* \"contracts/10.19.arrayofstruct.sol\":374:425  mapping(uint256 => uint256) public studentIdToIndex */\n    tag_7:\n      tag_28\n      0x04\n      dup1\n      calldatasize\n      sub\n      dup2\n      add\n      swap1\n      tag_29\n      swap2\n      swap1\n      tag_13\n      jump\t// in\n    tag_29:\n      tag_30\n      jump\t// in\n    tag_28:\n      mload(0x40)\n      tag_31\n      swap2\n      swap1\n      tag_32\n      jump\t// in\n    tag_31:\n      mload(0x40)\n      dup1\n      swap2\n      sub\n      swap1\n      return\n        /* \"contracts/10.19.arrayofstruct.sol\":921:1284  function getStudentByIndex(uint256 _index)... */\n    tag_8:\n      tag_33\n      0x04\n      dup1\n      calldatasize\n      sub\n      dup2\n      add\n      swap1\n      tag_34\n      swap2\n      swap1\n      tag_13\n      jump\t// in\n    tag_34:\n      tag_35\n      jump\t// in\n    tag_33:\n      mload(0x40)\n      tag_36\n      swap4\n      swap3\n      swap2\n      swap1\n      tag_16\n      jump\t// in\n    tag_36:\n      mload(0x40)\n      dup1\n      swap2\n      sub\n      swap1\n      return\n        /* \"contracts/10.19.arrayofstruct.sol\":1794:2138  function updateStudent(... */\n    tag_9:\n      tag_37\n      0x04\n      dup1\n      calldatasize\n      sub\n      dup2\n      add\n      swap1\n      tag_38\n      swap2\n      swap1\n      tag_22\n      jump\t// in\n    tag_38:\n      tag_39\n      jump\t// in\n    tag_37:\n      stop\n        /* \"contracts/10.19.arrayofstruct.sol\":289:314  Student[] public students */\n    tag_14:\n      0x00\n      dup2\n      dup2\n      sload\n      dup2\n      lt\n      tag_40\n      jumpi\n      0x00\n      dup1\n      revert\n    tag_40:\n      swap1\n      0x00\n      mstore\n      keccak256(0x00, 0x20)\n      swap1\n      0x03\n      mul\n      add\n      0x00\n      swap2\n      pop\n      swap1\n      pop\n      dup1\n      0x00\n      add\n      sload\n      swap1\n      dup1\n      0x01\n      add\n      dup1\n      sload\n      tag_42\n      swap1\n      tag_43\n      jump\t// in\n    tag_42:\n      dup1\n      0x1f\n      add\n      0x20\n      dup1\n      swap2\n      div\n      mul\n      0x20\n      add\n      mload(0x40)\n      swap1\n      dup2\n      add\n      0x40\n      mstore\n      dup1\n      swap3\n      swap2\n      swap1\n      dup2\n      dup2\n      mstore\n      0x20\n      add\n      dup3\n      dup1\n      sload\n      tag_44\n      swap1\n      tag_43\n      jump\t// in\n    tag_44:\n      dup1\n      iszero\n      tag_45\n      jumpi\n      dup1\n      0x1f\n      lt\n      tag_46\n      jumpi\n      0x0100\n      dup1\n      dup4\n      sload\n      div\n      mul\n      dup4\n      mstore\n      swap2\n      0x20\n      add\n      swap2\n      jump(tag_45)\n    tag_46:\n      dup3\n      add\n      swap2\n      swap1\n      0x00\n      mstore\n      keccak256(0x00, 0x20)\n      swap1\n    tag_47:\n      dup2\n      sload\n      dup2\n      mstore\n      swap1\n      0x01\n      add\n      swap1\n      0x20\n      add\n      dup1\n      dup4\n      gt\n      tag_47\n      jumpi\n      dup3\n      swap1\n      sub\n      0x1f\n      and\n      dup3\n      add\n      swap2\n    tag_45:\n      pop\n      pop\n      pop\n      pop\n      pop\n      swap1\n      dup1\n      0x02\n      add\n      sload\n      swap1\n      pop\n      dup4\n      jump\t// out\n        /* \"contracts/10.19.arrayofstruct.sol\":2189:2715  function removeStudent(uint256 _id) public {... */\n    tag_19:\n        /* \"contracts/10.19.arrayofstruct.sol\":2243:2256  uint256 index */\n      0x00\n        /* \"contracts/10.19.arrayofstruct.sol\":2259:2275  studentIdToIndex */\n      0x01\n        /* \"contracts/10.19.arrayofstruct.sol\":2259:2280  studentIdToIndex[_id] */\n      0x00\n        /* \"contracts/10.19.arrayofstruct.sol\":2276:2279  _id */\n      dup4\n        /* \"contracts/10.19.arrayofstruct.sol\":2259:2280  studentIdToIndex[_id] */\n      dup2\n      mstore\n      0x20\n      add\n      swap1\n      dup2\n      mstore\n      0x20\n      add\n      0x00\n      keccak256\n      sload\n        /* \"contracts/10.19.arrayofstruct.sol\":2243:2280  uint256 index = studentIdToIndex[_id] */\n      swap1\n      pop\n        /* \"contracts/10.19.arrayofstruct.sol\":2307:2315  students */\n      0x00\n        /* \"contracts/10.19.arrayofstruct.sol\":2307:2322  students.length */\n      dup1\n      sload\n      swap1\n      pop\n        /* \"contracts/10.19.arrayofstruct.sol\":2299:2304  index */\n      dup2\n        /* \"contracts/10.19.arrayofstruct.sol\":2299:2322  index < students.length */\n      lt\n        /* \"contracts/10.19.arrayofstruct.sol\":2291:2344  require(index < students.length, \"Student not found\") */\n      tag_49\n      jumpi\n      mload(0x40)\n      0x08c379a000000000000000000000000000000000000000000000000000000000\n      dup2\n      mstore\n      0x04\n      add\n      tag_50\n      swap1\n      tag_51\n      jump\t// in\n    tag_50:\n      mload(0x40)\n      dup1\n      swap2\n      sub\n      swap1\n      revert\n    tag_49:\n        /* \"contracts/10.19.arrayofstruct.sol\":2447:2455  students */\n      0x00\n        /* \"contracts/10.19.arrayofstruct.sol\":2474:2475  1 */\n      0x01\n        /* \"contracts/10.19.arrayofstruct.sol\":2456:2464  students */\n      0x00\n        /* \"contracts/10.19.arrayofstruct.sol\":2456:2471  students.length */\n      dup1\n      sload\n      swap1\n      pop\n        /* \"contracts/10.19.arrayofstruct.sol\":2456:2475  students.length - 1 */\n      tag_52\n      swap2\n      swap1\n      tag_53\n      jump\t// in\n    tag_52:\n        /* \"contracts/10.19.arrayofstruct.sol\":2447:2476  students[students.length - 1] */\n      dup2\n      sload\n      dup2\n      lt\n      tag_54\n      jumpi\n      tag_55\n      tag_56\n      jump\t// in\n    tag_55:\n    tag_54:\n      swap1\n      0x00\n      mstore\n      keccak256(0x00, 0x20)\n      swap1\n      0x03\n      mul\n      add\n        /* \"contracts/10.19.arrayofstruct.sol\":2429:2437  students */\n      0x00\n        /* \"contracts/10.19.arrayofstruct.sol\":2438:2443  index */\n      dup3\n        /* \"contracts/10.19.arrayofstruct.sol\":2429:2444  students[index] */\n      dup2\n      sload\n      dup2\n      lt\n      tag_58\n      jumpi\n      tag_59\n      tag_56\n      jump\t// in\n    tag_59:\n    tag_58:\n      swap1\n      0x00\n      mstore\n      keccak256(0x00, 0x20)\n      swap1\n      0x03\n      mul\n      add\n        /* \"contracts/10.19.arrayofstruct.sol\":2429:2476  students[index] = students[students.length - 1] */\n      0x00\n      dup3\n      add\n      sload\n      dup2\n      0x00\n      add\n      sstore\n      0x01\n      dup3\n      add\n      dup2\n      0x01\n      add\n      swap1\n      dup2\n      tag_61\n      swap2\n      swap1\n      tag_62\n      jump\t// in\n    tag_61:\n      pop\n      0x02\n      dup3\n      add\n      sload\n      dup2\n      0x02\n      add\n      sstore\n      swap1\n      pop\n      pop\n        /* \"contracts/10.19.arrayofstruct.sol\":2563:2568  index */\n      dup1\n        /* \"contracts/10.19.arrayofstruct.sol\":2524:2540  studentIdToIndex */\n      0x01\n        /* \"contracts/10.19.arrayofstruct.sol\":2524:2560  studentIdToIndex[students[index].id] */\n      0x00\n        /* \"contracts/10.19.arrayofstruct.sol\":2541:2549  students */\n      0x00\n        /* \"contracts/10.19.arrayofstruct.sol\":2550:2555  index */\n      dup5\n        /* \"contracts/10.19.arrayofstruct.sol\":2541:2556  students[index] */\n      dup2\n      sload\n      dup2\n      lt\n      tag_63\n      jumpi\n      tag_64\n      tag_56\n      jump\t// in\n    tag_64:\n    tag_63:\n      swap1\n      0x00\n      mstore\n      keccak256(0x00, 0x20)\n      swap1\n      0x03\n      mul\n      add\n        /* \"contracts/10.19.arrayofstruct.sol\":2541:2559  students[index].id */\n      0x00\n      add\n      sload\n        /* \"contracts/10.19.arrayofstruct.sol\":2524:2560  studentIdToIndex[students[index].id] */\n      dup2\n      mstore\n      0x20\n      add\n      swap1\n      dup2\n      mstore\n      0x20\n      add\n      0x00\n      keccak256\n        /* \"contracts/10.19.arrayofstruct.sol\":2524:2568  studentIdToIndex[students[index].id] = index */\n      dup2\n      swap1\n      sstore\n      pop\n        /* \"contracts/10.19.arrayofstruct.sol\":2617:2625  students */\n      0x00\n        /* \"contracts/10.19.arrayofstruct.sol\":2617:2631  students.pop() */\n      dup1\n      sload\n      dup1\n      tag_66\n      jumpi\n      tag_67\n      tag_68\n      jump\t// in\n    tag_67:\n    tag_66:\n      0x01\n      swap1\n      sub\n      dup2\n      dup2\n      swap1\n      0x00\n      mstore\n      keccak256(0x00, 0x20)\n      swap1\n      0x03\n      mul\n      add\n      0x00\n      0x00\n      dup3\n      add\n      0x00\n      swap1\n      sstore\n      0x01\n      dup3\n      add\n      0x00\n      tag_70\n      swap2\n      swap1\n      tag_71\n      jump\t// in\n    tag_70:\n      0x02\n      dup3\n      add\n      0x00\n      swap1\n      sstore\n      pop\n      pop\n      swap1\n      sstore\n        /* \"contracts/10.19.arrayofstruct.sol\":2686:2702  studentIdToIndex */\n      0x01\n        /* \"contracts/10.19.arrayofstruct.sol\":2686:2707  studentIdToIndex[_id] */\n      0x00\n        /* \"contracts/10.19.arrayofstruct.sol\":2703:2706  _id */\n      dup4\n        /* \"contracts/10.19.arrayofstruct.sol\":2686:2707  studentIdToIndex[_id] */\n      dup2\n      mstore\n      0x20\n      add\n      swap1\n      dup2\n      mstore\n      0x20\n      add\n      0x00\n      keccak256\n        /* \"contracts/10.19.arrayofstruct.sol\":2679:2707  delete studentIdToIndex[_id] */\n      0x00\n      swap1\n      sstore\n        /* \"contracts/10.19.arrayofstruct.sol\":2232:2715  {... */\n      pop\n        /* \"contracts/10.19.arrayofstruct.sol\":2189:2715  function removeStudent(uint256 _id) public {... */\n      pop\n      jump\t// out\n        /* \"contracts/10.19.arrayofstruct.sol\":524:870  function addStudent(... */\n    tag_23:\n        /* \"contracts/10.19.arrayofstruct.sol\":708:716  students */\n      0x00\n        /* \"contracts/10.19.arrayofstruct.sol\":722:747  Student(_id, _name, _age) */\n      mload(0x40)\n      dup1\n      0x60\n      add\n      0x40\n      mstore\n      dup1\n        /* \"contracts/10.19.arrayofstruct.sol\":730:733  _id */\n      dup6\n        /* \"contracts/10.19.arrayofstruct.sol\":722:747  Student(_id, _name, _age) */\n      dup2\n      mstore\n      0x20\n      add\n        /* \"contracts/10.19.arrayofstruct.sol\":735:740  _name */\n      dup5\n        /* \"contracts/10.19.arrayofstruct.sol\":722:747  Student(_id, _name, _age) */\n      dup2\n      mstore\n      0x20\n      add\n        /* \"contracts/10.19.arrayofstruct.sol\":742:746  _age */\n      dup4\n        /* \"contracts/10.19.arrayofstruct.sol\":722:747  Student(_id, _name, _age) */\n      dup2\n      mstore\n      pop\n        /* \"contracts/10.19.arrayofstruct.sol\":708:748  students.push(Student(_id, _name, _age)) */\n      swap1\n      dup1\n      0x01\n      dup2\n      sload\n      add\n      dup1\n      dup3\n      sstore\n      dup1\n      swap2\n      pop\n      pop\n      0x01\n      swap1\n      sub\n      swap1\n      0x00\n      mstore\n      keccak256(0x00, 0x20)\n      swap1\n      0x03\n      mul\n      add\n      0x00\n      swap1\n      swap2\n      swap1\n      swap2\n      swap1\n      swap2\n      pop\n      0x00\n      dup3\n      add\n      mload\n      dup2\n      0x00\n      add\n      sstore\n      0x20\n      dup3\n      add\n      mload\n      dup2\n      0x01\n      add\n      swap1\n      dup2\n      tag_74\n      swap2\n      swap1\n      tag_75\n      jump\t// in\n    tag_74:\n      pop\n      0x40\n      dup3\n      add\n      mload\n      dup2\n      0x02\n      add\n      sstore\n      pop\n      pop\n        /* \"contracts/10.19.arrayofstruct.sol\":861:862  1 */\n      0x01\n        /* \"contracts/10.19.arrayofstruct.sol\":843:851  students */\n      0x00\n        /* \"contracts/10.19.arrayofstruct.sol\":843:858  students.length */\n      dup1\n      sload\n      swap1\n      pop\n        /* \"contracts/10.19.arrayofstruct.sol\":843:862  students.length - 1 */\n      tag_76\n      swap2\n      swap1\n      tag_53\n      jump\t// in\n    tag_76:\n        /* \"contracts/10.19.arrayofstruct.sol\":819:835  studentIdToIndex */\n      0x01\n        /* \"contracts/10.19.arrayofstruct.sol\":819:840  studentIdToIndex[_id] */\n      0x00\n        /* \"contracts/10.19.arrayofstruct.sol\":836:839  _id */\n      dup6\n        /* \"contracts/10.19.arrayofstruct.sol\":819:840  studentIdToIndex[_id] */\n      dup2\n      mstore\n      0x20\n      add\n      swap1\n      dup2\n      mstore\n      0x20\n      add\n      0x00\n      keccak256\n        /* \"contracts/10.19.arrayofstruct.sol\":819:862  studentIdToIndex[_id] = students.length - 1 */\n      dup2\n      swap1\n      sstore\n      pop\n        /* \"contracts/10.19.arrayofstruct.sol\":524:870  function addStudent(... */\n      pop\n      pop\n      pop\n      jump\t// out\n        /* \"contracts/10.19.arrayofstruct.sol\":1332:1733  function getStudentById(uint256 _id)... */\n    tag_26:\n        /* \"contracts/10.19.arrayofstruct.sol\":1431:1438  uint256 */\n      0x00\n        /* \"contracts/10.19.arrayofstruct.sol\":1453:1466  string memory */\n      0x60\n        /* \"contracts/10.19.arrayofstruct.sol\":1481:1488  uint256 */\n      0x00\n        /* \"contracts/10.19.arrayofstruct.sol\":1516:1529  uint256 index */\n      0x00\n        /* \"contracts/10.19.arrayofstruct.sol\":1532:1548  studentIdToIndex */\n      0x01\n        /* \"contracts/10.19.arrayofstruct.sol\":1532:1553  studentIdToIndex[_id] */\n      0x00\n        /* \"contracts/10.19.arrayofstruct.sol\":1549:1552  _id */\n      dup7\n        /* \"contracts/10.19.arrayofstruct.sol\":1532:1553  studentIdToIndex[_id] */\n      dup2\n      mstore\n      0x20\n      add\n      swap1\n      dup2\n      mstore\n      0x20\n      add\n      0x00\n      keccak256\n      sload\n        /* \"contracts/10.19.arrayofstruct.sol\":1516:1553  uint256 index = studentIdToIndex[_id] */\n      swap1\n      pop\n        /* \"contracts/10.19.arrayofstruct.sol\":1580:1588  students */\n      0x00\n        /* \"contracts/10.19.arrayofstruct.sol\":1580:1595  students.length */\n      dup1\n      sload\n      swap1\n      pop\n        /* \"contracts/10.19.arrayofstruct.sol\":1572:1577  index */\n      dup2\n        /* \"contracts/10.19.arrayofstruct.sol\":1572:1595  index < students.length */\n      lt\n        /* \"contracts/10.19.arrayofstruct.sol\":1564:1617  require(index < students.length, \"Student not found\") */\n      tag_78\n      jumpi\n      mload(0x40)\n      0x08c379a000000000000000000000000000000000000000000000000000000000\n      dup2\n      mstore\n      0x04\n      add\n      tag_79\n      swap1\n      tag_51\n      jump\t// in\n    tag_79:\n      mload(0x40)\n      dup1\n      swap2\n      sub\n      swap1\n      revert\n    tag_78:\n        /* \"contracts/10.19.arrayofstruct.sol\":1628:1650  Student memory student */\n      0x00\n        /* \"contracts/10.19.arrayofstruct.sol\":1653:1661  students */\n      0x00\n        /* \"contracts/10.19.arrayofstruct.sol\":1662:1667  index */\n      dup3\n        /* \"contracts/10.19.arrayofstruct.sol\":1653:1668  students[index] */\n      dup2\n      sload\n      dup2\n      lt\n      tag_80\n      jumpi\n      tag_81\n      tag_56\n      jump\t// in\n    tag_81:\n    tag_80:\n      swap1\n      0x00\n      mstore\n      keccak256(0x00, 0x20)\n      swap1\n      0x03\n      mul\n      add\n        /* \"contracts/10.19.arrayofstruct.sol\":1628:1668  Student memory student = students[index] */\n      mload(0x40)\n      dup1\n      0x60\n      add\n      0x40\n      mstore\n      swap1\n      dup2\n      0x00\n      dup3\n      add\n      sload\n      dup2\n      mstore\n      0x20\n      add\n      0x01\n      dup3\n      add\n      dup1\n      sload\n      tag_83\n      swap1\n      tag_43\n      jump\t// in\n    tag_83:\n      dup1\n      0x1f\n      add\n      0x20\n      dup1\n      swap2\n      div\n      mul\n      0x20\n      add\n      mload(0x40)\n      swap1\n      dup2\n      add\n      0x40\n      mstore\n      dup1\n      swap3\n      swap2\n      swap1\n      dup2\n      dup2\n      mstore\n      0x20\n      add\n      dup3\n      dup1\n      sload\n      tag_84\n      swap1\n      tag_43\n      jump\t// in\n    tag_84:\n      dup1\n      iszero\n      tag_85\n      jumpi\n      dup1\n      0x1f\n      lt\n      tag_86\n      jumpi\n      0x0100\n      dup1\n      dup4\n      sload\n      div\n      mul\n      dup4\n      mstore\n      swap2\n      0x20\n      add\n      swap2\n      jump(tag_85)\n    tag_86:\n      dup3\n      add\n      swap2\n      swap1\n      0x00\n      mstore\n      keccak256(0x00, 0x20)\n      swap1\n    tag_87:\n      dup2\n      sload\n      dup2\n      mstore\n      swap1\n      0x01\n      add\n      swap1\n      0x20\n      add\n      dup1\n      dup4\n      gt\n      tag_87\n      jumpi\n      dup3\n      swap1\n      sub\n      0x1f\n      and\n      dup3\n      add\n      swap2\n    tag_85:\n      pop\n      pop\n      pop\n      pop\n      pop\n      dup2\n      mstore\n      0x20\n      add\n      0x02\n      dup3\n      add\n      sload\n      dup2\n      mstore\n      pop\n      pop\n      swap1\n      pop\n        /* \"contracts/10.19.arrayofstruct.sol\":1687:1694  student */\n      dup1\n        /* \"contracts/10.19.arrayofstruct.sol\":1687:1697  student.id */\n      0x00\n      add\n      mload\n        /* \"contracts/10.19.arrayofstruct.sol\":1699:1706  student */\n      dup2\n        /* \"contracts/10.19.arrayofstruct.sol\":1699:1711  student.name */\n      0x20\n      add\n      mload\n        /* \"contracts/10.19.arrayofstruct.sol\":1713:1720  student */\n      dup3\n        /* \"contracts/10.19.arrayofstruct.sol\":1713:1724  student.age */\n      0x40\n      add\n      mload\n        /* \"contracts/10.19.arrayofstruct.sol\":1679:1725  return (student.id, student.name, student.age) */\n      swap5\n      pop\n      swap5\n      pop\n      swap5\n      pop\n      pop\n      pop\n        /* \"contracts/10.19.arrayofstruct.sol\":1332:1733  function getStudentById(uint256 _id)... */\n      swap2\n      swap4\n      swap1\n      swap3\n      pop\n      jump\t// out\n        /* \"contracts/10.19.arrayofstruct.sol\":374:425  mapping(uint256 => uint256) public studentIdToIndex */\n    tag_30:\n      mstore(0x20, 0x01)\n      dup1\n      0x00\n      mstore\n      keccak256(0x00, 0x40)\n      0x00\n      swap2\n      pop\n      swap1\n      pop\n      sload\n      dup2\n      jump\t// out\n        /* \"contracts/10.19.arrayofstruct.sol\":921:1284  function getStudentByIndex(uint256 _index)... */\n    tag_35:\n        /* \"contracts/10.19.arrayofstruct.sol\":1026:1033  uint256 */\n      0x00\n        /* \"contracts/10.19.arrayofstruct.sol\":1048:1061  string memory */\n      0x60\n        /* \"contracts/10.19.arrayofstruct.sol\":1076:1083  uint256 */\n      0x00\n        /* \"contracts/10.19.arrayofstruct.sol\":1128:1136  students */\n      0x00\n        /* \"contracts/10.19.arrayofstruct.sol\":1128:1143  students.length */\n      dup1\n      sload\n      swap1\n      pop\n        /* \"contracts/10.19.arrayofstruct.sol\":1119:1125  _index */\n      dup5\n        /* \"contracts/10.19.arrayofstruct.sol\":1119:1143  _index < students.length */\n      lt\n        /* \"contracts/10.19.arrayofstruct.sol\":1111:1167  require(_index < students.length, \"Index out of bounds\") */\n      tag_89\n      jumpi\n      mload(0x40)\n      0x08c379a000000000000000000000000000000000000000000000000000000000\n      dup2\n      mstore\n      0x04\n      add\n      tag_90\n      swap1\n      tag_91\n      jump\t// in\n    tag_90:\n      mload(0x40)\n      dup1\n      swap2\n      sub\n      swap1\n      revert\n    tag_89:\n        /* \"contracts/10.19.arrayofstruct.sol\":1178:1200  Student memory student */\n      0x00\n        /* \"contracts/10.19.arrayofstruct.sol\":1203:1211  students */\n      0x00\n        /* \"contracts/10.19.arrayofstruct.sol\":1212:1218  _index */\n      dup6\n        /* \"contracts/10.19.arrayofstruct.sol\":1203:1219  students[_index] */\n      dup2\n      sload\n      dup2\n      lt\n      tag_92\n      jumpi\n      tag_93\n      tag_56\n      jump\t// in\n    tag_93:\n    tag_92:\n      swap1\n      0x00\n      mstore\n      keccak256(0x00, 0x20)\n      swap1\n      0x03\n      mul\n      add\n        /* \"contracts/10.19.arrayofstruct.sol\":1178:1219  Student memory student = students[_index] */\n      mload(0x40)\n      dup1\n      0x60\n      add\n      0x40\n      mstore\n      swap1\n      dup2\n      0x00\n      dup3\n      add\n      sload\n      dup2\n      mstore\n      0x20\n      add\n      0x01\n      dup3\n      add\n      dup1\n      sload\n      tag_95\n      swap1\n      tag_43\n      jump\t// in\n    tag_95:\n      dup1\n      0x1f\n      add\n      0x20\n      dup1\n      swap2\n      div\n      mul\n      0x20\n      add\n      mload(0x40)\n      swap1\n      dup2\n      add\n      0x40\n      mstore\n      dup1\n      swap3\n      swap2\n      swap1\n      dup2\n      dup2\n      mstore\n      0x20\n      add\n      dup3\n      dup1\n      sload\n      tag_96\n      swap1\n      tag_43\n      jump\t// in\n    tag_96:\n      dup1\n      iszero\n      tag_97\n      jumpi\n      dup1\n      0x1f\n      lt\n      tag_98\n      jumpi\n      0x0100\n      dup1\n      dup4\n      sload\n      div\n      mul\n      dup4\n      mstore\n      swap2\n      0x20\n      add\n      swap2\n      jump(tag_97)\n    tag_98:\n      dup3\n      add\n      swap2\n      swap1\n      0x00\n      mstore\n      keccak256(0x00, 0x20)\n      swap1\n    tag_99:\n      dup2\n      sload\n      dup2\n      mstore\n      swap1\n      0x01\n      add\n      swap1\n      0x20\n      add\n      dup1\n      dup4\n      gt\n      tag_99\n      jumpi\n      dup3\n      swap1\n      sub\n      0x1f\n      and\n      dup3\n      add\n      swap2\n    tag_97:\n      pop\n      pop\n      pop\n      pop\n      pop\n      dup2\n      mstore\n      0x20\n      add\n      0x02\n      dup3\n      add\n      sload\n      dup2\n      mstore\n      pop\n      pop\n      swap1\n      pop\n        /* \"contracts/10.19.arrayofstruct.sol\":1238:1245  student */\n      dup1\n        /* \"contracts/10.19.arrayofstruct.sol\":1238:1248  student.id */\n      0x00\n      add\n      mload\n        /* \"contracts/10.19.arrayofstruct.sol\":1250:1257  student */\n      dup2\n        /* \"contracts/10.19.arrayofstruct.sol\":1250:1262  student.name */\n      0x20\n      add\n      mload\n        /* \"contracts/10.19.arrayofstruct.sol\":1264:1271  student */\n      dup3\n        /* \"contracts/10.19.arrayofstruct.sol\":1264:1275  student.age */\n      0x40\n      add\n      mload\n        /* \"contracts/10.19.arrayofstruct.sol\":1230:1276  return (student.id, student.name, student.age) */\n      swap4\n      pop\n      swap4\n      pop\n      swap4\n      pop\n      pop\n        /* \"contracts/10.19.arrayofstruct.sol\":921:1284  function getStudentByIndex(uint256 _index)... */\n      swap2\n      swap4\n      swap1\n      swap3\n      pop\n      jump\t// out\n        /* \"contracts/10.19.arrayofstruct.sol\":1794:2138  function updateStudent(... */\n    tag_39:\n        /* \"contracts/10.19.arrayofstruct.sol\":1917:1930  uint256 index */\n      0x00\n        /* \"contracts/10.19.arrayofstruct.sol\":1933:1949  studentIdToIndex */\n      0x01\n        /* \"contracts/10.19.arrayofstruct.sol\":1933:1954  studentIdToIndex[_id] */\n      0x00\n        /* \"contracts/10.19.arrayofstruct.sol\":1950:1953  _id */\n      dup6\n        /* \"contracts/10.19.arrayofstruct.sol\":1933:1954  studentIdToIndex[_id] */\n      dup2\n      mstore\n      0x20\n      add\n      swap1\n      dup2\n      mstore\n      0x20\n      add\n      0x00\n      keccak256\n      sload\n        /* \"contracts/10.19.arrayofstruct.sol\":1917:1954  uint256 index = studentIdToIndex[_id] */\n      swap1\n      pop\n        /* \"contracts/10.19.arrayofstruct.sol\":1981:1989  students */\n      0x00\n        /* \"contracts/10.19.arrayofstruct.sol\":1981:1996  students.length */\n      dup1\n      sload\n      swap1\n      pop\n        /* \"contracts/10.19.arrayofstruct.sol\":1973:1978  index */\n      dup2\n        /* \"contracts/10.19.arrayofstruct.sol\":1973:1996  index < students.length */\n      lt\n        /* \"contracts/10.19.arrayofstruct.sol\":1965:2018  require(index < students.length, \"Student not found\") */\n      tag_101\n      jumpi\n      mload(0x40)\n      0x08c379a000000000000000000000000000000000000000000000000000000000\n      dup2\n      mstore\n      0x04\n      add\n      tag_102\n      swap1\n      tag_51\n      jump\t// in\n    tag_102:\n      mload(0x40)\n      dup1\n      swap2\n      sub\n      swap1\n      revert\n    tag_101:\n        /* \"contracts/10.19.arrayofstruct.sol\":2029:2052  Student storage student */\n      0x00\n        /* \"contracts/10.19.arrayofstruct.sol\":2055:2063  students */\n      0x00\n        /* \"contracts/10.19.arrayofstruct.sol\":2064:2069  index */\n      dup3\n        /* \"contracts/10.19.arrayofstruct.sol\":2055:2070  students[index] */\n      dup2\n      sload\n      dup2\n      lt\n      tag_103\n      jumpi\n      tag_104\n      tag_56\n      jump\t// in\n    tag_104:\n    tag_103:\n      swap1\n      0x00\n      mstore\n      keccak256(0x00, 0x20)\n      swap1\n      0x03\n      mul\n      add\n        /* \"contracts/10.19.arrayofstruct.sol\":2029:2070  Student storage student = students[index] */\n      swap1\n      pop\n        /* \"contracts/10.19.arrayofstruct.sol\":2096:2101  _name */\n      dup4\n        /* \"contracts/10.19.arrayofstruct.sol\":2081:2088  student */\n      dup2\n        /* \"contracts/10.19.arrayofstruct.sol\":2081:2093  student.name */\n      0x01\n      add\n        /* \"contracts/10.19.arrayofstruct.sol\":2081:2101  student.name = _name */\n      swap1\n      dup2\n      tag_106\n      swap2\n      swap1\n      tag_75\n      jump\t// in\n    tag_106:\n      pop\n        /* \"contracts/10.19.arrayofstruct.sol\":2126:2130  _age */\n      dup3\n        /* \"contracts/10.19.arrayofstruct.sol\":2112:2119  student */\n      dup2\n        /* \"contracts/10.19.arrayofstruct.sol\":2112:2123  student.age */\n      0x02\n      add\n        /* \"contracts/10.19.arrayofstruct.sol\":2112:2130  student.age = _age */\n      dup2\n      swap1\n      sstore\n      pop\n        /* \"contracts/10.19.arrayofstruct.sol\":1906:2138  {... */\n      pop\n      pop\n        /* \"contracts/10.19.arrayofstruct.sol\":1794:2138  function updateStudent(... */\n      pop\n      pop\n      pop\n      jump\t// out\n    tag_71:\n      pop\n      dup1\n      sload\n      tag_107\n      swap1\n      tag_43\n      jump\t// in\n    tag_107:\n      0x00\n      dup3\n      sstore\n      dup1\n      0x1f\n      lt\n      tag_109\n      jumpi\n      pop\n      jump(tag_108)\n    tag_109:\n      0x1f\n      add\n      0x20\n      swap1\n      div\n      swap1\n      0x00\n      mstore\n      keccak256(0x00, 0x20)\n      swap1\n      dup2\n      add\n      swap1\n      tag_110\n      swap2\n      swap1\n      tag_111\n      jump\t// in\n    tag_110:\n    tag_108:\n      pop\n      jump\t// out\n    tag_111:\n    tag_112:\n      dup1\n      dup3\n      gt\n      iszero\n      tag_113\n      jumpi\n      0x00\n      dup2\n      0x00\n      swap1\n      sstore\n      pop\n      0x01\n      add\n      jump(tag_112)\n    tag_113:\n      pop\n      swap1\n      jump\t// out\n        /* \"#utility.yul\":7:82   */\n    tag_114:\n        /* \"#utility.yul\":40:46   */\n      0x00\n        /* \"#utility.yul\":73:75   */\n      0x40\n        /* \"#utility.yul\":67:76   */\n      mload\n        /* \"#utility.yul\":57:76   */\n      swap1\n      pop\n        /* \"#utility.yul\":7:82   */\n      swap1\n      jump\t// out\n        /* \"#utility.yul\":88:205   */\n    tag_115:\n        /* \"#utility.yul\":197:198   */\n      0x00\n        /* \"#utility.yul\":194:195   */\n      0x00\n        /* \"#utility.yul\":187:199   */\n      revert\n        /* \"#utility.yul\":211:328   */\n    tag_116:\n        /* \"#utility.yul\":320:321   */\n      0x00\n        /* \"#utility.yul\":317:318   */\n      0x00\n        /* \"#utility.yul\":310:322   */\n      revert\n        /* \"#utility.yul\":334:411   */\n    tag_117:\n        /* \"#utility.yul\":371:378   */\n      0x00\n        /* \"#utility.yul\":400:405   */\n      dup2\n        /* \"#utility.yul\":389:405   */\n      swap1\n      pop\n        /* \"#utility.yul\":334:411   */\n      swap2\n      swap1\n      pop\n      jump\t// out\n        /* \"#utility.yul\":417:539   */\n    tag_118:\n        /* \"#utility.yul\":490:514   */\n      tag_163\n        /* \"#utility.yul\":508:513   */\n      dup2\n        /* \"#utility.yul\":490:514   */\n      tag_117\n      jump\t// in\n    tag_163:\n        /* \"#utility.yul\":483:488   */\n      dup2\n        /* \"#utility.yul\":480:515   */\n      eq\n        /* \"#utility.yul\":470:533   */\n      tag_164\n      jumpi\n        /* \"#utility.yul\":529:530   */\n      0x00\n        /* \"#utility.yul\":526:527   */\n      0x00\n        /* \"#utility.yul\":519:531   */\n      revert\n        /* \"#utility.yul\":470:533   */\n    tag_164:\n        /* \"#utility.yul\":417:539   */\n      pop\n      jump\t// out\n        /* \"#utility.yul\":545:684   */\n    tag_119:\n        /* \"#utility.yul\":591:596   */\n      0x00\n        /* \"#utility.yul\":629:635   */\n      dup2\n        /* \"#utility.yul\":616:636   */\n      calldataload\n        /* \"#utility.yul\":607:636   */\n      swap1\n      pop\n        /* \"#utility.yul\":645:678   */\n      tag_166\n        /* \"#utility.yul\":672:677   */\n      dup2\n        /* \"#utility.yul\":645:678   */\n      tag_118\n      jump\t// in\n    tag_166:\n        /* \"#utility.yul\":545:684   */\n      swap3\n      swap2\n      pop\n      pop\n      jump\t// out\n        /* \"#utility.yul\":690:1019   */\n    tag_13:\n        /* \"#utility.yul\":749:755   */\n      0x00\n        /* \"#utility.yul\":798:800   */\n      0x20\n        /* \"#utility.yul\":786:795   */\n      dup3\n        /* \"#utility.yul\":777:784   */\n      dup5\n        /* \"#utility.yul\":773:796   */\n      sub\n        /* \"#utility.yul\":769:801   */\n      slt\n        /* \"#utility.yul\":766:885   */\n      iszero\n      tag_168\n      jumpi\n        /* \"#utility.yul\":804:883   */\n      tag_169\n      tag_115\n      jump\t// in\n    tag_169:\n        /* \"#utility.yul\":766:885   */\n    tag_168:\n        /* \"#utility.yul\":924:925   */\n      0x00\n        /* \"#utility.yul\":949:1002   */\n      tag_170\n        /* \"#utility.yul\":994:1001   */\n      dup5\n        /* \"#utility.yul\":985:991   */\n      dup3\n        /* \"#utility.yul\":974:983   */\n      dup6\n        /* \"#utility.yul\":970:992   */\n      add\n        /* \"#utility.yul\":949:1002   */\n      tag_119\n      jump\t// in\n    tag_170:\n        /* \"#utility.yul\":939:1002   */\n      swap2\n      pop\n        /* \"#utility.yul\":895:1012   */\n      pop\n        /* \"#utility.yul\":690:1019   */\n      swap3\n      swap2\n      pop\n      pop\n      jump\t// out\n        /* \"#utility.yul\":1025:1143   */\n    tag_120:\n        /* \"#utility.yul\":1112:1136   */\n      tag_172\n        /* \"#utility.yul\":1130:1135   */\n      dup2\n        /* \"#utility.yul\":1112:1136   */\n      tag_117\n      jump\t// in\n    tag_172:\n        /* \"#utility.yul\":1107:1110   */\n      dup3\n        /* \"#utility.yul\":1100:1137   */\n      mstore\n        /* \"#utility.yul\":1025:1143   */\n      pop\n      pop\n      jump\t// out\n        /* \"#utility.yul\":1149:1248   */\n    tag_121:\n        /* \"#utility.yul\":1201:1207   */\n      0x00\n        /* \"#utility.yul\":1235:1240   */\n      dup2\n        /* \"#utility.yul\":1229:1241   */\n      mload\n        /* \"#utility.yul\":1219:1241   */\n      swap1\n      pop\n        /* \"#utility.yul\":1149:1248   */\n      swap2\n      swap1\n      pop\n      jump\t// out\n        /* \"#utility.yul\":1254:1423   */\n    tag_122:\n        /* \"#utility.yul\":1338:1349   */\n      0x00\n        /* \"#utility.yul\":1372:1378   */\n      dup3\n        /* \"#utility.yul\":1367:1370   */\n      dup3\n        /* \"#utility.yul\":1360:1379   */\n      mstore\n        /* \"#utility.yul\":1412:1416   */\n      0x20\n        /* \"#utility.yul\":1407:1410   */\n      dup3\n        /* \"#utility.yul\":1403:1417   */\n      add\n        /* \"#utility.yul\":1388:1417   */\n      swap1\n      pop\n        /* \"#utility.yul\":1254:1423   */\n      swap3\n      swap2\n      pop\n      pop\n      jump\t// out\n        /* \"#utility.yul\":1429:1568   */\n    tag_123:\n        /* \"#utility.yul\":1518:1524   */\n      dup3\n        /* \"#utility.yul\":1513:1516   */\n      dup2\n        /* \"#utility.yul\":1508:1511   */\n      dup4\n        /* \"#utility.yul\":1502:1525   */\n      mcopy\n        /* \"#utility.yul\":1559:1560   */\n      0x00\n        /* \"#utility.yul\":1550:1556   */\n      dup4\n        /* \"#utility.yul\":1545:1548   */\n      dup4\n        /* \"#utility.yul\":1541:1557   */\n      add\n        /* \"#utility.yul\":1534:1561   */\n      mstore\n        /* \"#utility.yul\":1429:1568   */\n      pop\n      pop\n      pop\n      jump\t// out\n        /* \"#utility.yul\":1574:1676   */\n    tag_124:\n        /* \"#utility.yul\":1615:1621   */\n      0x00\n        /* \"#utility.yul\":1666:1668   */\n      0x1f\n        /* \"#utility.yul\":1662:1669   */\n      not\n        /* \"#utility.yul\":1657:1659   */\n      0x1f\n        /* \"#utility.yul\":1650:1655   */\n      dup4\n        /* \"#utility.yul\":1646:1660   */\n      add\n        /* \"#utility.yul\":1642:1670   */\n      and\n        /* \"#utility.yul\":1632:1670   */\n      swap1\n      pop\n        /* \"#utility.yul\":1574:1676   */\n      swap2\n      swap1\n      pop\n      jump\t// out\n        /* \"#utility.yul\":1682:2059   */\n    tag_125:\n        /* \"#utility.yul\":1770:1773   */\n      0x00\n        /* \"#utility.yul\":1798:1837   */\n      tag_178\n        /* \"#utility.yul\":1831:1836   */\n      dup3\n        /* \"#utility.yul\":1798:1837   */\n      tag_121\n      jump\t// in\n    tag_178:\n        /* \"#utility.yul\":1853:1924   */\n      tag_179\n        /* \"#utility.yul\":1917:1923   */\n      dup2\n        /* \"#utility.yul\":1912:1915   */\n      dup6\n        /* \"#utility.yul\":1853:1924   */\n      tag_122\n      jump\t// in\n    tag_179:\n        /* \"#utility.yul\":1846:1924   */\n      swap4\n      pop\n        /* \"#utility.yul\":1933:1998   */\n      tag_180\n        /* \"#utility.yul\":1991:1997   */\n      dup2\n        /* \"#utility.yul\":1986:1989   */\n      dup6\n        /* \"#utility.yul\":1979:1983   */\n      0x20\n        /* \"#utility.yul\":1972:1977   */\n      dup7\n        /* \"#utility.yul\":1968:1984   */\n      add\n        /* \"#utility.yul\":1933:1998   */\n      tag_123\n      jump\t// in\n    tag_180:\n        /* \"#utility.yul\":2023:2052   */\n      tag_181\n        /* \"#utility.yul\":2045:2051   */\n      dup2\n        /* \"#utility.yul\":2023:2052   */\n      tag_124\n      jump\t// in\n    tag_181:\n        /* \"#utility.yul\":2018:2021   */\n      dup5\n        /* \"#utility.yul\":2014:2053   */\n      add\n        /* \"#utility.yul\":2007:2053   */\n      swap2\n      pop\n        /* \"#utility.yul\":1774:2059   */\n      pop\n        /* \"#utility.yul\":1682:2059   */\n      swap3\n      swap2\n      pop\n      pop\n      jump\t// out\n        /* \"#utility.yul\":2065:2598   */\n    tag_16:\n        /* \"#utility.yul\":2234:2238   */\n      0x00\n        /* \"#utility.yul\":2272:2274   */\n      0x60\n        /* \"#utility.yul\":2261:2270   */\n      dup3\n        /* \"#utility.yul\":2257:2275   */\n      add\n        /* \"#utility.yul\":2249:2275   */\n      swap1\n      pop\n        /* \"#utility.yul\":2285:2356   */\n      tag_183\n        /* \"#utility.yul\":2353:2354   */\n      0x00\n        /* \"#utility.yul\":2342:2351   */\n      dup4\n        /* \"#utility.yul\":2338:2355   */\n      add\n        /* \"#utility.yul\":2329:2335   */\n      dup7\n        /* \"#utility.yul\":2285:2356   */\n      tag_120\n      jump\t// in\n    tag_183:\n        /* \"#utility.yul\":2403:2412   */\n      dup2\n        /* \"#utility.yul\":2397:2401   */\n      dup2\n        /* \"#utility.yul\":2393:2413   */\n      sub\n        /* \"#utility.yul\":2388:2390   */\n      0x20\n        /* \"#utility.yul\":2377:2386   */\n      dup4\n        /* \"#utility.yul\":2373:2391   */\n      add\n        /* \"#utility.yul\":2366:2414   */\n      mstore\n        /* \"#utility.yul\":2431:2509   */\n      tag_184\n        /* \"#utility.yul\":2504:2508   */\n      dup2\n        /* \"#utility.yul\":2495:2501   */\n      dup6\n        /* \"#utility.yul\":2431:2509   */\n      tag_125\n      jump\t// in\n    tag_184:\n        /* \"#utility.yul\":2423:2509   */\n      swap1\n      pop\n        /* \"#utility.yul\":2519:2591   */\n      tag_185\n        /* \"#utility.yul\":2587:2589   */\n      0x40\n        /* \"#utility.yul\":2576:2585   */\n      dup4\n        /* \"#utility.yul\":2572:2590   */\n      add\n        /* \"#utility.yul\":2563:2569   */\n      dup5\n        /* \"#utility.yul\":2519:2591   */\n      tag_120\n      jump\t// in\n    tag_185:\n        /* \"#utility.yul\":2065:2598   */\n      swap5\n      swap4\n      pop\n      pop\n      pop\n      pop\n      jump\t// out\n        /* \"#utility.yul\":2604:2721   */\n    tag_126:\n        /* \"#utility.yul\":2713:2714   */\n      0x00\n        /* \"#utility.yul\":2710:2711   */\n      0x00\n        /* \"#utility.yul\":2703:2715   */\n      revert\n        /* \"#utility.yul\":2727:2844   */\n    tag_127:\n        /* \"#utility.yul\":2836:2837   */\n      0x00\n        /* \"#utility.yul\":2833:2834   */\n      0x00\n        /* \"#utility.yul\":2826:2838   */\n      revert\n        /* \"#utility.yul\":2850:3030   */\n    tag_128:\n        /* \"#utility.yul\":2898:2975   */\n      0x4e487b7100000000000000000000000000000000000000000000000000000000\n        /* \"#utility.yul\":2895:2896   */\n      0x00\n        /* \"#utility.yul\":2888:2976   */\n      mstore\n        /* \"#utility.yul\":2995:2999   */\n      0x41\n        /* \"#utility.yul\":2992:2993   */\n      0x04\n        /* \"#utility.yul\":2985:3000   */\n      mstore\n        /* \"#utility.yul\":3019:3023   */\n      0x24\n        /* \"#utility.yul\":3016:3017   */\n      0x00\n        /* \"#utility.yul\":3009:3024   */\n      revert\n        /* \"#utility.yul\":3036:3317   */\n    tag_129:\n        /* \"#utility.yul\":3119:3146   */\n      tag_190\n        /* \"#utility.yul\":3141:3145   */\n      dup3\n        /* \"#utility.yul\":3119:3146   */\n      tag_124\n      jump\t// in\n    tag_190:\n        /* \"#utility.yul\":3111:3117   */\n      dup2\n        /* \"#utility.yul\":3107:3147   */\n      add\n        /* \"#utility.yul\":3249:3255   */\n      dup2\n        /* \"#utility.yul\":3237:3247   */\n      dup2\n        /* \"#utility.yul\":3234:3256   */\n      lt\n        /* \"#utility.yul\":3213:3231   */\n      0xffffffffffffffff\n        /* \"#utility.yul\":3201:3211   */\n      dup3\n        /* \"#utility.yul\":3198:3232   */\n      gt\n        /* \"#utility.yul\":3195:3257   */\n      or\n        /* \"#utility.yul\":3192:3280   */\n      iszero\n      tag_191\n      jumpi\n        /* \"#utility.yul\":3260:3278   */\n      tag_192\n      tag_128\n      jump\t// in\n    tag_192:\n        /* \"#utility.yul\":3192:3280   */\n    tag_191:\n        /* \"#utility.yul\":3300:3310   */\n      dup1\n        /* \"#utility.yul\":3296:3298   */\n      0x40\n        /* \"#utility.yul\":3289:3311   */\n      mstore\n        /* \"#utility.yul\":3079:3317   */\n      pop\n        /* \"#utility.yul\":3036:3317   */\n      pop\n      pop\n      jump\t// out\n        /* \"#utility.yul\":3323:3452   */\n    tag_130:\n        /* \"#utility.yul\":3357:3363   */\n      0x00\n        /* \"#utility.yul\":3384:3404   */\n      tag_194\n      tag_114\n      jump\t// in\n    tag_194:\n        /* \"#utility.yul\":3374:3404   */\n      swap1\n      pop\n        /* \"#utility.yul\":3413:3446   */\n      tag_195\n        /* \"#utility.yul\":3441:3445   */\n      dup3\n        /* \"#utility.yul\":3433:3439   */\n      dup3\n        /* \"#utility.yul\":3413:3446   */\n      tag_129\n      jump\t// in\n    tag_195:\n        /* \"#utility.yul\":3323:3452   */\n      swap2\n      swap1\n      pop\n      jump\t// out\n        /* \"#utility.yul\":3458:3766   */\n    tag_131:\n        /* \"#utility.yul\":3520:3524   */\n      0x00\n        /* \"#utility.yul\":3610:3628   */\n      0xffffffffffffffff\n        /* \"#utility.yul\":3602:3608   */\n      dup3\n        /* \"#utility.yul\":3599:3629   */\n      gt\n        /* \"#utility.yul\":3596:3652   */\n      iszero\n      tag_197\n      jumpi\n        /* \"#utility.yul\":3632:3650   */\n      tag_198\n      tag_128\n      jump\t// in\n    tag_198:\n        /* \"#utility.yul\":3596:3652   */\n    tag_197:\n        /* \"#utility.yul\":3670:3699   */\n      tag_199\n        /* \"#utility.yul\":3692:3698   */\n      dup3\n        /* \"#utility.yul\":3670:3699   */\n      tag_124\n      jump\t// in\n    tag_199:\n        /* \"#utility.yul\":3662:3699   */\n      swap1\n      pop\n        /* \"#utility.yul\":3754:3758   */\n      0x20\n        /* \"#utility.yul\":3748:3752   */\n      dup2\n        /* \"#utility.yul\":3744:3759   */\n      add\n        /* \"#utility.yul\":3736:3759   */\n      swap1\n      pop\n        /* \"#utility.yul\":3458:3766   */\n      swap2\n      swap1\n      pop\n      jump\t// out\n        /* \"#utility.yul\":3772:3920   */\n    tag_132:\n        /* \"#utility.yul\":3870:3876   */\n      dup3\n        /* \"#utility.yul\":3865:3868   */\n      dup2\n        /* \"#utility.yul\":3860:3863   */\n      dup4\n        /* \"#utility.yul\":3847:3877   */\n      calldatacopy\n        /* \"#utility.yul\":3911:3912   */\n      0x00\n        /* \"#utility.yul\":3902:3908   */\n      dup4\n        /* \"#utility.yul\":3897:3900   */\n      dup4\n        /* \"#utility.yul\":3893:3909   */\n      add\n        /* \"#utility.yul\":3886:3913   */\n      mstore\n        /* \"#utility.yul\":3772:3920   */\n      pop\n      pop\n      pop\n      jump\t// out\n        /* \"#utility.yul\":3926:4351   */\n    tag_133:\n        /* \"#utility.yul\":4004:4009   */\n      0x00\n        /* \"#utility.yul\":4029:4095   */\n      tag_202\n        /* \"#utility.yul\":4045:4094   */\n      tag_203\n        /* \"#utility.yul\":4087:4093   */\n      dup5\n        /* \"#utility.yul\":4045:4094   */\n      tag_131\n      jump\t// in\n    tag_203:\n        /* \"#utility.yul\":4029:4095   */\n      tag_130\n      jump\t// in\n    tag_202:\n        /* \"#utility.yul\":4020:4095   */\n      swap1\n      pop\n        /* \"#utility.yul\":4118:4124   */\n      dup3\n        /* \"#utility.yul\":4111:4116   */\n      dup2\n        /* \"#utility.yul\":4104:4125   */\n      mstore\n        /* \"#utility.yul\":4156:4160   */\n      0x20\n        /* \"#utility.yul\":4149:4154   */\n      dup2\n        /* \"#utility.yul\":4145:4161   */\n      add\n        /* \"#utility.yul\":4194:4197   */\n      dup5\n        /* \"#utility.yul\":4185:4191   */\n      dup5\n        /* \"#utility.yul\":4180:4183   */\n      dup5\n        /* \"#utility.yul\":4176:4192   */\n      add\n        /* \"#utility.yul\":4173:4198   */\n      gt\n        /* \"#utility.yul\":4170:4282   */\n      iszero\n      tag_204\n      jumpi\n        /* \"#utility.yul\":4201:4280   */\n      tag_205\n      tag_127\n      jump\t// in\n    tag_205:\n        /* \"#utility.yul\":4170:4282   */\n    tag_204:\n        /* \"#utility.yul\":4291:4345   */\n      tag_206\n        /* \"#utility.yul\":4338:4344   */\n      dup5\n        /* \"#utility.yul\":4333:4336   */\n      dup3\n        /* \"#utility.yul\":4328:4331   */\n      dup6\n        /* \"#utility.yul\":4291:4345   */\n      tag_132\n      jump\t// in\n    tag_206:\n        /* \"#utility.yul\":4010:4351   */\n      pop\n        /* \"#utility.yul\":3926:4351   */\n      swap4\n      swap3\n      pop\n      pop\n      pop\n      jump\t// out\n        /* \"#utility.yul\":4371:4711   */\n    tag_134:\n        /* \"#utility.yul\":4427:4432   */\n      0x00\n        /* \"#utility.yul\":4476:4479   */\n      dup3\n        /* \"#utility.yul\":4469:4473   */\n      0x1f\n        /* \"#utility.yul\":4461:4467   */\n      dup4\n        /* \"#utility.yul\":4457:4474   */\n      add\n        /* \"#utility.yul\":4453:4480   */\n      slt\n        /* \"#utility.yul\":4443:4565   */\n      tag_208\n      jumpi\n        /* \"#utility.yul\":4484:4563   */\n      tag_209\n      tag_126\n      jump\t// in\n    tag_209:\n        /* \"#utility.yul\":4443:4565   */\n    tag_208:\n        /* \"#utility.yul\":4601:4607   */\n      dup2\n        /* \"#utility.yul\":4588:4608   */\n      calldataload\n        /* \"#utility.yul\":4626:4705   */\n      tag_210\n        /* \"#utility.yul\":4701:4704   */\n      dup5\n        /* \"#utility.yul\":4693:4699   */\n      dup3\n        /* \"#utility.yul\":4686:4690   */\n      0x20\n        /* \"#utility.yul\":4678:4684   */\n      dup7\n        /* \"#utility.yul\":4674:4691   */\n      add\n        /* \"#utility.yul\":4626:4705   */\n      tag_133\n      jump\t// in\n    tag_210:\n        /* \"#utility.yul\":4617:4705   */\n      swap2\n      pop\n        /* \"#utility.yul\":4433:4711   */\n      pop\n        /* \"#utility.yul\":4371:4711   */\n      swap3\n      swap2\n      pop\n      pop\n      jump\t// out\n        /* \"#utility.yul\":4717:5516   */\n    tag_22:\n        /* \"#utility.yul\":4804:4810   */\n      0x00\n        /* \"#utility.yul\":4812:4818   */\n      0x00\n        /* \"#utility.yul\":4820:4826   */\n      0x00\n        /* \"#utility.yul\":4869:4871   */\n      0x60\n        /* \"#utility.yul\":4857:4866   */\n      dup5\n        /* \"#utility.yul\":4848:4855   */\n      dup7\n        /* \"#utility.yul\":4844:4867   */\n      sub\n        /* \"#utility.yul\":4840:4872   */\n      slt\n        /* \"#utility.yul\":4837:4956   */\n      iszero\n      tag_212\n      jumpi\n        /* \"#utility.yul\":4875:4954   */\n      tag_213\n      tag_115\n      jump\t// in\n    tag_213:\n        /* \"#utility.yul\":4837:4956   */\n    tag_212:\n        /* \"#utility.yul\":4995:4996   */\n      0x00\n        /* \"#utility.yul\":5020:5073   */\n      tag_214\n        /* \"#utility.yul\":5065:5072   */\n      dup7\n        /* \"#utility.yul\":5056:5062   */\n      dup3\n        /* \"#utility.yul\":5045:5054   */\n      dup8\n        /* \"#utility.yul\":5041:5063   */\n      add\n        /* \"#utility.yul\":5020:5073   */\n      tag_119\n      jump\t// in\n    tag_214:\n        /* \"#utility.yul\":5010:5073   */\n      swap4\n      pop\n        /* \"#utility.yul\":4966:5083   */\n      pop\n        /* \"#utility.yul\":5150:5152   */\n      0x20\n        /* \"#utility.yul\":5139:5148   */\n      dup5\n        /* \"#utility.yul\":5135:5153   */\n      add\n        /* \"#utility.yul\":5122:5154   */\n      calldataload\n        /* \"#utility.yul\":5181:5199   */\n      0xffffffffffffffff\n        /* \"#utility.yul\":5173:5179   */\n      dup2\n        /* \"#utility.yul\":5170:5200   */\n      gt\n        /* \"#utility.yul\":5167:5284   */\n      iszero\n      tag_215\n      jumpi\n        /* \"#utility.yul\":5203:5282   */\n      tag_216\n      tag_116\n      jump\t// in\n    tag_216:\n        /* \"#utility.yul\":5167:5284   */\n    tag_215:\n        /* \"#utility.yul\":5308:5371   */\n      tag_217\n        /* \"#utility.yul\":5363:5370   */\n      dup7\n        /* \"#utility.yul\":5354:5360   */\n      dup3\n        /* \"#utility.yul\":5343:5352   */\n      dup8\n        /* \"#utility.yul\":5339:5361   */\n      add\n        /* \"#utility.yul\":5308:5371   */\n      tag_134\n      jump\t// in\n    tag_217:\n        /* \"#utility.yul\":5298:5371   */\n      swap3\n      pop\n        /* \"#utility.yul\":5093:5381   */\n      pop\n        /* \"#utility.yul\":5420:5422   */\n      0x40\n        /* \"#utility.yul\":5446:5499   */\n      tag_218\n        /* \"#utility.yul\":5491:5498   */\n      dup7\n        /* \"#utility.yul\":5482:5488   */\n      dup3\n        /* \"#utility.yul\":5471:5480   */\n      dup8\n        /* \"#utility.yul\":5467:5489   */\n      add\n        /* \"#utility.yul\":5446:5499   */\n      tag_119\n      jump\t// in\n    tag_218:\n        /* \"#utility.yul\":5436:5499   */\n      swap2\n      pop\n        /* \"#utility.yul\":5391:5509   */\n      pop\n        /* \"#utility.yul\":4717:5516   */\n      swap3\n      pop\n      swap3\n      pop\n      swap3\n      jump\t// out\n        /* \"#utility.yul\":5522:5744   */\n    tag_32:\n        /* \"#utility.yul\":5615:5619   */\n      0x00\n        /* \"#utility.yul\":5653:5655   */\n      0x20\n        /* \"#utility.yul\":5642:5651   */\n      dup3\n        /* \"#utility.yul\":5638:5656   */\n      add\n        /* \"#utility.yul\":5630:5656   */\n      swap1\n      pop\n        /* \"#utility.yul\":5666:5737   */\n      tag_220\n        /* \"#utility.yul\":5734:5735   */\n      0x00\n        /* \"#utility.yul\":5723:5732   */\n      dup4\n        /* \"#utility.yul\":5719:5736   */\n      add\n        /* \"#utility.yul\":5710:5716   */\n      dup5\n        /* \"#utility.yul\":5666:5737   */\n      tag_120\n      jump\t// in\n    tag_220:\n        /* \"#utility.yul\":5522:5744   */\n      swap3\n      swap2\n      pop\n      pop\n      jump\t// out\n        /* \"#utility.yul\":5750:5930   */\n    tag_135:\n        /* \"#utility.yul\":5798:5875   */\n      0x4e487b7100000000000000000000000000000000000000000000000000000000\n        /* \"#utility.yul\":5795:5796   */\n      0x00\n        /* \"#utility.yul\":5788:5876   */\n      mstore\n        /* \"#utility.yul\":5895:5899   */\n      0x22\n        /* \"#utility.yul\":5892:5893   */\n      0x04\n        /* \"#utility.yul\":5885:5900   */\n      mstore\n        /* \"#utility.yul\":5919:5923   */\n      0x24\n        /* \"#utility.yul\":5916:5917   */\n      0x00\n        /* \"#utility.yul\":5909:5924   */\n      revert\n        /* \"#utility.yul\":5936:6256   */\n    tag_43:\n        /* \"#utility.yul\":5980:5986   */\n      0x00\n        /* \"#utility.yul\":6017:6018   */\n      0x02\n        /* \"#utility.yul\":6011:6015   */\n      dup3\n        /* \"#utility.yul\":6007:6019   */\n      div\n        /* \"#utility.yul\":5997:6019   */\n      swap1\n      pop\n        /* \"#utility.yul\":6064:6065   */\n      0x01\n        /* \"#utility.yul\":6058:6062   */\n      dup3\n        /* \"#utility.yul\":6054:6066   */\n      and\n        /* \"#utility.yul\":6085:6103   */\n      dup1\n        /* \"#utility.yul\":6075:6156   */\n      tag_223\n      jumpi\n        /* \"#utility.yul\":6141:6145   */\n      0x7f\n        /* \"#utility.yul\":6133:6139   */\n      dup3\n        /* \"#utility.yul\":6129:6146   */\n      and\n        /* \"#utility.yul\":6119:6146   */\n      swap2\n      pop\n        /* \"#utility.yul\":6075:6156   */\n    tag_223:\n        /* \"#utility.yul\":6203:6205   */\n      0x20\n        /* \"#utility.yul\":6195:6201   */\n      dup3\n        /* \"#utility.yul\":6192:6206   */\n      lt\n        /* \"#utility.yul\":6172:6190   */\n      dup2\n        /* \"#utility.yul\":6169:6207   */\n      sub\n        /* \"#utility.yul\":6166:6250   */\n      tag_224\n      jumpi\n        /* \"#utility.yul\":6222:6240   */\n      tag_225\n      tag_135\n      jump\t// in\n    tag_225:\n        /* \"#utility.yul\":6166:6250   */\n    tag_224:\n        /* \"#utility.yul\":5987:6256   */\n      pop\n        /* \"#utility.yul\":5936:6256   */\n      swap2\n      swap1\n      pop\n      jump\t// out\n        /* \"#utility.yul\":6262:6429   */\n    tag_136:\n        /* \"#utility.yul\":6402:6421   */\n      0x53747564656e74206e6f7420666f756e64000000000000000000000000000000\n        /* \"#utility.yul\":6398:6399   */\n      0x00\n        /* \"#utility.yul\":6390:6396   */\n      dup3\n        /* \"#utility.yul\":6386:6400   */\n      add\n        /* \"#utility.yul\":6379:6422   */\n      mstore\n        /* \"#utility.yul\":6262:6429   */\n      pop\n      jump\t// out\n        /* \"#utility.yul\":6435:6801   */\n    tag_137:\n        /* \"#utility.yul\":6577:6580   */\n      0x00\n        /* \"#utility.yul\":6598:6665   */\n      tag_228\n        /* \"#utility.yul\":6662:6664   */\n      0x11\n        /* \"#utility.yul\":6657:6660   */\n      dup4\n        /* \"#utility.yul\":6598:6665   */\n      tag_122\n      jump\t// in\n    tag_228:\n        /* \"#utility.yul\":6591:6665   */\n      swap2\n      pop\n        /* \"#utility.yul\":6674:6767   */\n      tag_229\n        /* \"#utility.yul\":6763:6766   */\n      dup3\n        /* \"#utility.yul\":6674:6767   */\n      tag_136\n      jump\t// in\n    tag_229:\n        /* \"#utility.yul\":6792:6794   */\n      0x20\n        /* \"#utility.yul\":6787:6790   */\n      dup3\n        /* \"#utility.yul\":6783:6795   */\n      add\n        /* \"#utility.yul\":6776:6795   */\n      swap1\n      pop\n        /* \"#utility.yul\":6435:6801   */\n      swap2\n      swap1\n      pop\n      jump\t// out\n        /* \"#utility.yul\":6807:7226   */\n    tag_51:\n        /* \"#utility.yul\":6973:6977   */\n      0x00\n        /* \"#utility.yul\":7011:7013   */\n      0x20\n        /* \"#utility.yul\":7000:7009   */\n      dup3\n        /* \"#utility.yul\":6996:7014   */\n      add\n        /* \"#utility.yul\":6988:7014   */\n      swap1\n      pop\n        /* \"#utility.yul\":7060:7069   */\n      dup2\n        /* \"#utility.yul\":7054:7058   */\n      dup2\n        /* \"#utility.yul\":7050:7070   */\n      sub\n        /* \"#utility.yul\":7046:7047   */\n      0x00\n        /* \"#utility.yul\":7035:7044   */\n      dup4\n        /* \"#utility.yul\":7031:7048   */\n      add\n        /* \"#utility.yul\":7024:7071   */\n      mstore\n        /* \"#utility.yul\":7088:7219   */\n      tag_231\n        /* \"#utility.yul\":7214:7218   */\n      dup2\n        /* \"#utility.yul\":7088:7219   */\n      tag_137\n      jump\t// in\n    tag_231:\n        /* \"#utility.yul\":7080:7219   */\n      swap1\n      pop\n        /* \"#utility.yul\":6807:7226   */\n      swap2\n      swap1\n      pop\n      jump\t// out\n        /* \"#utility.yul\":7232:7412   */\n    tag_138:\n        /* \"#utility.yul\":7280:7357   */\n      0x4e487b7100000000000000000000000000000000000000000000000000000000\n        /* \"#utility.yul\":7277:7278   */\n      0x00\n        /* \"#utility.yul\":7270:7358   */\n      mstore\n        /* \"#utility.yul\":7377:7381   */\n      0x11\n        /* \"#utility.yul\":7374:7375   */\n      0x04\n        /* \"#utility.yul\":7367:7382   */\n      mstore\n        /* \"#utility.yul\":7401:7405   */\n      0x24\n        /* \"#utility.yul\":7398:7399   */\n      0x00\n        /* \"#utility.yul\":7391:7406   */\n      revert\n        /* \"#utility.yul\":7418:7612   */\n    tag_53:\n        /* \"#utility.yul\":7458:7462   */\n      0x00\n        /* \"#utility.yul\":7478:7498   */\n      tag_234\n        /* \"#utility.yul\":7496:7497   */\n      dup3\n        /* \"#utility.yul\":7478:7498   */\n      tag_117\n      jump\t// in\n    tag_234:\n        /* \"#utility.yul\":7473:7498   */\n      swap2\n      pop\n        /* \"#utility.yul\":7512:7532   */\n      tag_235\n        /* \"#utility.yul\":7530:7531   */\n      dup4\n        /* \"#utility.yul\":7512:7532   */\n      tag_117\n      jump\t// in\n    tag_235:\n        /* \"#utility.yul\":7507:7532   */\n      swap3\n      pop\n        /* \"#utility.yul\":7556:7557   */\n      dup3\n        /* \"#utility.yul\":7553:7554   */\n      dup3\n        /* \"#utility.yul\":7549:7558   */\n      sub\n        /* \"#utility.yul\":7541:7558   */\n      swap1\n      pop\n        /* \"#utility.yul\":7580:7581   */\n      dup2\n        /* \"#utility.yul\":7574:7578   */\n      dup2\n        /* \"#utility.yul\":7571:7582   */\n      gt\n        /* \"#utility.yul\":7568:7605   */\n      iszero\n      tag_236\n      jumpi\n        /* \"#utility.yul\":7585:7603   */\n      tag_237\n      tag_138\n      jump\t// in\n    tag_237:\n        /* \"#utility.yul\":7568:7605   */\n    tag_236:\n        /* \"#utility.yul\":7418:7612   */\n      swap3\n      swap2\n      pop\n      pop\n      jump\t// out\n        /* \"#utility.yul\":7618:7798   */\n    tag_56:\n        /* \"#utility.yul\":7666:7743   */\n      0x4e487b7100000000000000000000000000000000000000000000000000000000\n        /* \"#utility.yul\":7663:7664   */\n      0x00\n        /* \"#utility.yul\":7656:7744   */\n      mstore\n        /* \"#utility.yul\":7763:7767   */\n      0x32\n        /* \"#utility.yul\":7760:7761   */\n      0x04\n        /* \"#utility.yul\":7753:7768   */\n      mstore\n        /* \"#utility.yul\":7787:7791   */\n      0x24\n        /* \"#utility.yul\":7784:7785   */\n      0x00\n        /* \"#utility.yul\":7777:7792   */\n      revert\n        /* \"#utility.yul\":7804:7953   */\n    tag_139:\n        /* \"#utility.yul\":7853:7859   */\n      0x00\n        /* \"#utility.yul\":7887:7892   */\n      dup2\n        /* \"#utility.yul\":7881:7893   */\n      sload\n        /* \"#utility.yul\":7871:7893   */\n      swap1\n      pop\n        /* \"#utility.yul\":7913:7946   */\n      tag_240\n        /* \"#utility.yul\":7939:7945   */\n      dup2\n        /* \"#utility.yul\":7913:7946   */\n      tag_43\n      jump\t// in\n    tag_240:\n        /* \"#utility.yul\":7903:7946   */\n      swap1\n      pop\n        /* \"#utility.yul\":7804:7953   */\n      swap2\n      swap1\n      pop\n      jump\t// out\n        /* \"#utility.yul\":7959:8100   */\n    tag_140:\n        /* \"#utility.yul\":8008:8012   */\n      0x00\n        /* \"#utility.yul\":8031:8034   */\n      dup2\n        /* \"#utility.yul\":8023:8034   */\n      swap1\n      pop\n        /* \"#utility.yul\":8054:8057   */\n      dup2\n        /* \"#utility.yul\":8051:8052   */\n      0x00\n        /* \"#utility.yul\":8044:8058   */\n      mstore\n        /* \"#utility.yul\":8088:8092   */\n      0x20\n        /* \"#utility.yul\":8085:8086   */\n      0x00\n        /* \"#utility.yul\":8075:8093   */\n      keccak256\n        /* \"#utility.yul\":8067:8093   */\n      swap1\n      pop\n        /* \"#utility.yul\":7959:8100   */\n      swap2\n      swap1\n      pop\n      jump\t// out\n        /* \"#utility.yul\":8106:8199   */\n    tag_141:\n        /* \"#utility.yul\":8143:8149   */\n      0x00\n        /* \"#utility.yul\":8190:8192   */\n      0x20\n        /* \"#utility.yul\":8185:8187   */\n      0x1f\n        /* \"#utility.yul\":8178:8183   */\n      dup4\n        /* \"#utility.yul\":8174:8188   */\n      add\n        /* \"#utility.yul\":8170:8193   */\n      div\n        /* \"#utility.yul\":8160:8193   */\n      swap1\n      pop\n        /* \"#utility.yul\":8106:8199   */\n      swap2\n      swap1\n      pop\n      jump\t// out\n        /* \"#utility.yul\":8205:8312   */\n    tag_142:\n        /* \"#utility.yul\":8249:8257   */\n      0x00\n        /* \"#utility.yul\":8299:8304   */\n      dup3\n        /* \"#utility.yul\":8293:8297   */\n      dup3\n        /* \"#utility.yul\":8289:8305   */\n      shl\n        /* \"#utility.yul\":8268:8305   */\n      swap1\n      pop\n        /* \"#utility.yul\":8205:8312   */\n      swap3\n      swap2\n      pop\n      pop\n      jump\t// out\n        /* \"#utility.yul\":8318:8711   */\n    tag_143:\n        /* \"#utility.yul\":8387:8393   */\n      0x00\n        /* \"#utility.yul\":8437:8438   */\n      0x08\n        /* \"#utility.yul\":8425:8435   */\n      dup4\n        /* \"#utility.yul\":8421:8439   */\n      mul\n        /* \"#utility.yul\":8460:8557   */\n      tag_245\n        /* \"#utility.yul\":8490:8556   */\n      0xffffffffffffffffffffffffffffffffffffffffffffffffffffffffffffffff\n        /* \"#utility.yul\":8479:8488   */\n      dup3\n        /* \"#utility.yul\":8460:8557   */\n      tag_142\n      jump\t// in\n    tag_245:\n        /* \"#utility.yul\":8578:8617   */\n      tag_246\n        /* \"#utility.yul\":8608:8616   */\n      dup7\n        /* \"#utility.yul\":8597:8606   */\n      dup4\n        /* \"#utility.yul\":8578:8617   */\n      tag_142\n      jump\t// in\n    tag_246:\n        /* \"#utility.yul\":8566:8617   */\n      swap6\n      pop\n        /* \"#utility.yul\":8650:8654   */\n      dup1\n        /* \"#utility.yul\":8646:8655   */\n      not\n        /* \"#utility.yul\":8639:8644   */\n      dup5\n        /* \"#utility.yul\":8635:8656   */\n      and\n        /* \"#utility.yul\":8626:8656   */\n      swap4\n      pop\n        /* \"#utility.yul\":8699:8703   */\n      dup1\n        /* \"#utility.yul\":8689:8697   */\n      dup7\n        /* \"#utility.yul\":8685:8704   */\n      and\n        /* \"#utility.yul\":8678:8683   */\n      dup5\n        /* \"#utility.yul\":8675:8705   */\n      or\n        /* \"#utility.yul\":8665:8705   */\n      swap3\n      pop\n        /* \"#utility.yul\":8394:8711   */\n      pop\n      pop\n        /* \"#utility.yul\":8318:8711   */\n      swap4\n      swap3\n      pop\n      pop\n      pop\n      jump\t// out\n        /* \"#utility.yul\":8717:8777   */\n    tag_144:\n        /* \"#utility.yul\":8745:8748   */\n      0x00\n        /* \"#utility.yul\":8766:8771   */\n      dup2\n        /* \"#utility.yul\":8759:8771   */\n      swap1\n      pop\n        /* \"#utility.yul\":8717:8777   */\n      swap2\n      swap1\n      pop\n      jump\t// out\n        /* \"#utility.yul\":8783:8925   */\n    tag_145:\n        /* \"#utility.yul\":8833:8842   */\n      0x00\n        /* \"#utility.yul\":8866:8919   */\n      tag_249\n        /* \"#utility.yul\":8884:8918   */\n      tag_250\n        /* \"#utility.yul\":8893:8917   */\n      tag_251\n        /* \"#utility.yul\":8911:8916   */\n      dup5\n        /* \"#utility.yul\":8893:8917   */\n      tag_117\n      jump\t// in\n    tag_251:\n        /* \"#utility.yul\":8884:8918   */\n      tag_144\n      jump\t// in\n    tag_250:\n        /* \"#utility.yul\":8866:8919   */\n      tag_117\n      jump\t// in\n    tag_249:\n        /* \"#utility.yul\":8853:8919   */\n      swap1\n      pop\n        /* \"#utility.yul\":8783:8925   */\n      swap2\n      swap1\n      pop\n      jump\t// out\n        /* \"#utility.yul\":8931:9006   */\n    tag_146:\n        /* \"#utility.yul\":8974:8977   */\n      0x00\n        /* \"#utility.yul\":8995:9000   */\n      dup2\n        /* \"#utility.yul\":8988:9000   */\n      swap1\n      pop\n        /* \"#utility.yul\":8931:9006   */\n      swap2\n      swap1\n      pop\n      jump\t// out\n        /* \"#utility.yul\":9012:9281   */\n    tag_147:\n        /* \"#utility.yul\":9122:9161   */\n      tag_254\n        /* \"#utility.yul\":9153:9160   */\n      dup4\n        /* \"#utility.yul\":9122:9161   */\n      tag_145\n      jump\t// in\n    tag_254:\n        /* \"#utility.yul\":9183:9274   */\n      tag_255\n        /* \"#utility.yul\":9232:9273   */\n      tag_256\n        /* \"#utility.yul\":9256:9272   */\n      dup3\n        /* \"#utility.yul\":9232:9273   */\n      tag_146\n      jump\t// in\n    tag_256:\n        /* \"#utility.yul\":9224:9230   */\n      dup5\n        /* \"#utility.yul\":9217:9221   */\n      dup5\n        /* \"#utility.yul\":9211:9222   */\n      sload\n        /* \"#utility.yul\":9183:9274   */\n      tag_143\n      jump\t// in\n    tag_255:\n        /* \"#utility.yul\":9177:9181   */\n      dup3\n        /* \"#utility.yul\":9170:9275   */\n      sstore\n        /* \"#utility.yul\":9088:9281   */\n      pop\n        /* \"#utility.yul\":9012:9281   */\n      pop\n      pop\n      pop\n      jump\t// out\n        /* \"#utility.yul\":9287:9360   */\n    tag_148:\n        /* \"#utility.yul\":9332:9335   */\n      0x00\n        /* \"#utility.yul\":9353:9354   */\n      0x00\n        /* \"#utility.yul\":9346:9354   */\n      swap1\n      pop\n        /* \"#utility.yul\":9287:9360   */\n      swap1\n      jump\t// out\n        /* \"#utility.yul\":9366:9555   */\n    tag_149:\n        /* \"#utility.yul\":9443:9475   */\n      tag_259\n      tag_148\n      jump\t// in\n    tag_259:\n        /* \"#utility.yul\":9484:9549   */\n      tag_260\n        /* \"#utility.yul\":9542:9548   */\n      dup2\n        /* \"#utility.yul\":9534:9540   */\n      dup5\n        /* \"#utility.yul\":9528:9532   */\n      dup5\n        /* \"#utility.yul\":9484:9549   */\n      tag_147\n      jump\t// in\n    tag_260:\n        /* \"#utility.yul\":9419:9555   */\n      pop\n        /* \"#utility.yul\":9366:9555   */\n      pop\n      pop\n      jump\t// out\n        /* \"#utility.yul\":9561:9747   */\n    tag_150:\n        /* \"#utility.yul\":9621:9741   */\n    tag_262:\n        /* \"#utility.yul\":9638:9641   */\n      dup2\n        /* \"#utility.yul\":9631:9636   */\n      dup2\n        /* \"#utility.yul\":9628:9642   */\n      lt\n        /* \"#utility.yul\":9621:9741   */\n      iszero\n      tag_264\n      jumpi\n        /* \"#utility.yul\":9692:9731   */\n      tag_265\n        /* \"#utility.yul\":9729:9730   */\n      0x00\n        /* \"#utility.yul\":9722:9727   */\n      dup3\n        /* \"#utility.yul\":9692:9731   */\n      tag_149\n      jump\t// in\n    tag_265:\n        /* \"#utility.yul\":9665:9666   */\n      0x01\n        /* \"#utility.yul\":9658:9663   */\n      dup2\n        /* \"#utility.yul\":9654:9667   */\n      add\n        /* \"#utility.yul\":9645:9667   */\n      swap1\n      pop\n        /* \"#utility.yul\":9621:9741   */\n      jump(tag_262)\n    tag_264:\n        /* \"#utility.yul\":9561:9747   */\n      pop\n      pop\n      jump\t// out\n        /* \"#utility.yul\":9753:10296   */\n    tag_151:\n        /* \"#utility.yul\":9854:9856   */\n      0x1f\n        /* \"#utility.yul\":9849:9852   */\n      dup3\n        /* \"#utility.yul\":9846:9857   */\n      gt\n        /* \"#utility.yul\":9843:10289   */\n      iszero\n      tag_267\n      jumpi\n        /* \"#utility.yul\":9888:9926   */\n      tag_268\n        /* \"#utility.yul\":9920:9925   */\n      dup2\n        /* \"#utility.yul\":9888:9926   */\n      tag_140\n      jump\t// in\n    tag_268:\n        /* \"#utility.yul\":9972:10001   */\n      tag_269\n        /* \"#utility.yul\":9990:10000   */\n      dup5\n        /* \"#utility.yul\":9972:10001   */\n      tag_141\n      jump\t// in\n    tag_269:\n        /* \"#utility.yul\":9962:9970   */\n      dup2\n        /* \"#utility.yul\":9958:10002   */\n      add\n        /* \"#utility.yul\":10155:10157   */\n      0x20\n        /* \"#utility.yul\":10143:10153   */\n      dup6\n        /* \"#utility.yul\":10140:10158   */\n      lt\n        /* \"#utility.yul\":10137:10186   */\n      iszero\n      tag_270\n      jumpi\n        /* \"#utility.yul\":10176:10184   */\n      dup2\n        /* \"#utility.yul\":10161:10184   */\n      swap1\n      pop\n        /* \"#utility.yul\":10137:10186   */\n    tag_270:\n        /* \"#utility.yul\":10199:10279   */\n      tag_271\n        /* \"#utility.yul\":10255:10277   */\n      tag_272\n        /* \"#utility.yul\":10273:10276   */\n      dup6\n        /* \"#utility.yul\":10255:10277   */\n      tag_141\n      jump\t// in\n    tag_272:\n        /* \"#utility.yul\":10245:10253   */\n      dup4\n        /* \"#utility.yul\":10241:10278   */\n      add\n        /* \"#utility.yul\":10228:10239   */\n      dup3\n        /* \"#utility.yul\":10199:10279   */\n      tag_150\n      jump\t// in\n    tag_271:\n        /* \"#utility.yul\":9858:10289   */\n      pop\n      pop\n        /* \"#utility.yul\":9843:10289   */\n    tag_267:\n        /* \"#utility.yul\":9753:10296   */\n      pop\n      pop\n      pop\n      jump\t// out\n        /* \"#utility.yul\":10302:10419   */\n    tag_152:\n        /* \"#utility.yul\":10356:10364   */\n      0x00\n        /* \"#utility.yul\":10406:10411   */\n      dup3\n        /* \"#utility.yul\":10400:10404   */\n      dup3\n        /* \"#utility.yul\":10396:10412   */\n      shr\n        /* \"#utility.yul\":10375:10412   */\n      swap1\n      pop\n        /* \"#utility.yul\":10302:10419   */\n      swap3\n      swap2\n      pop\n      pop\n      jump\t// out\n        /* \"#utility.yul\":10425:10594   */\n    tag_153:\n        /* \"#utility.yul\":10469:10475   */\n      0x00\n        /* \"#utility.yul\":10502:10553   */\n      tag_275\n        /* \"#utility.yul\":10550:10551   */\n      0x00\n        /* \"#utility.yul\":10546:10552   */\n      not\n        /* \"#utility.yul\":10538:10543   */\n      dup5\n        /* \"#utility.yul\":10535:10536   */\n      0x08\n        /* \"#utility.yul\":10531:10544   */\n      mul\n        /* \"#utility.yul\":10502:10553   */\n      tag_152\n      jump\t// in\n    tag_275:\n        /* \"#utility.yul\":10498:10554   */\n      not\n        /* \"#utility.yul\":10583:10587   */\n      dup1\n        /* \"#utility.yul\":10577:10581   */\n      dup4\n        /* \"#utility.yul\":10573:10588   */\n      and\n        /* \"#utility.yul\":10563:10588   */\n      swap2\n      pop\n        /* \"#utility.yul\":10476:10594   */\n      pop\n        /* \"#utility.yul\":10425:10594   */\n      swap3\n      swap2\n      pop\n      pop\n      jump\t// out\n        /* \"#utility.yul\":10599:10894   */\n    tag_154:\n        /* \"#utility.yul\":10675:10679   */\n      0x00\n        /* \"#utility.yul\":10821:10850   */\n      tag_277\n        /* \"#utility.yul\":10846:10849   */\n      dup4\n        /* \"#utility.yul\":10840:10844   */\n      dup4\n        /* \"#utility.yul\":10821:10850   */\n      tag_153\n      jump\t// in\n    tag_277:\n        /* \"#utility.yul\":10813:10850   */\n      swap2\n      pop\n        /* \"#utility.yul\":10883:10886   */\n      dup3\n        /* \"#utility.yul\":10880:10881   */\n      0x02\n        /* \"#utility.yul\":10876:10887   */\n      mul\n        /* \"#utility.yul\":10870:10874   */\n      dup3\n        /* \"#utility.yul\":10867:10888   */\n      or\n        /* \"#utility.yul\":10859:10888   */\n      swap1\n      pop\n        /* \"#utility.yul\":10599:10894   */\n      swap3\n      swap2\n      pop\n      pop\n      jump\t// out\n        /* \"#utility.yul\":10899:12350   */\n    tag_62:\n        /* \"#utility.yul\":11010:11013   */\n      dup2\n        /* \"#utility.yul\":11004:11008   */\n      dup2\n        /* \"#utility.yul\":11001:11014   */\n      sub\n        /* \"#utility.yul\":10998:11024   */\n      tag_279\n      jumpi\n        /* \"#utility.yul\":11017:11022   */\n      pop\n      pop\n      jump(tag_278)\n        /* \"#utility.yul\":10998:11024   */\n    tag_279:\n        /* \"#utility.yul\":11048:11082   */\n      tag_280\n        /* \"#utility.yul\":11078:11081   */\n      dup3\n        /* \"#utility.yul\":11048:11082   */\n      tag_139\n      jump\t// in\n    tag_280:\n        /* \"#utility.yul\":11147:11165   */\n      0xffffffffffffffff\n        /* \"#utility.yul\":11139:11145   */\n      dup2\n        /* \"#utility.yul\":11136:11166   */\n      gt\n        /* \"#utility.yul\":11133:11189   */\n      iszero\n      tag_281\n      jumpi\n        /* \"#utility.yul\":11169:11187   */\n      tag_282\n      tag_128\n      jump\t// in\n    tag_282:\n        /* \"#utility.yul\":11133:11189   */\n    tag_281:\n        /* \"#utility.yul\":11213:11251   */\n      tag_283\n        /* \"#utility.yul\":11245:11249   */\n      dup3\n        /* \"#utility.yul\":11239:11250   */\n      sload\n        /* \"#utility.yul\":11213:11251   */\n      tag_43\n      jump\t// in\n    tag_283:\n        /* \"#utility.yul\":11298:11365   */\n      tag_284\n        /* \"#utility.yul\":11358:11364   */\n      dup3\n        /* \"#utility.yul\":11350:11356   */\n      dup3\n        /* \"#utility.yul\":11344:11348   */\n      dup6\n        /* \"#utility.yul\":11298:11365   */\n      tag_151\n      jump\t// in\n    tag_284:\n        /* \"#utility.yul\":11392:11393   */\n      0x00\n        /* \"#utility.yul\":11421:11423   */\n      0x1f\n        /* \"#utility.yul\":11413:11419   */\n      dup4\n        /* \"#utility.yul\":11410:11424   */\n      gt\n        /* \"#utility.yul\":11438:11439   */\n      0x01\n        /* \"#utility.yul\":11433:12105   */\n      dup2\n      eq\n      tag_286\n      jumpi\n        /* \"#utility.yul\":12149:12150   */\n      0x00\n        /* \"#utility.yul\":12166:12172   */\n      dup5\n        /* \"#utility.yul\":12163:12240   */\n      iszero\n      tag_287\n      jumpi\n        /* \"#utility.yul\":12215:12224   */\n      dup3\n        /* \"#utility.yul\":12210:12213   */\n      dup8\n        /* \"#utility.yul\":12206:12225   */\n      add\n        /* \"#utility.yul\":12200:12226   */\n      sload\n        /* \"#utility.yul\":12191:12226   */\n      swap1\n      pop\n        /* \"#utility.yul\":12163:12240   */\n    tag_287:\n        /* \"#utility.yul\":12266:12333   */\n      tag_288\n        /* \"#utility.yul\":12326:12332   */\n      dup6\n        /* \"#utility.yul\":12319:12324   */\n      dup3\n        /* \"#utility.yul\":12266:12333   */\n      tag_154\n      jump\t// in\n    tag_288:\n        /* \"#utility.yul\":12260:12264   */\n      dup7\n        /* \"#utility.yul\":12253:12334   */\n      sstore\n        /* \"#utility.yul\":12122:12344   */\n      pop\n        /* \"#utility.yul\":11403:12344   */\n      jump(tag_285)\n        /* \"#utility.yul\":11433:12105   */\n    tag_286:\n        /* \"#utility.yul\":11485:11489   */\n      0x1f\n        /* \"#utility.yul\":11481:11490   */\n      not\n        /* \"#utility.yul\":11473:11479   */\n      dup5\n        /* \"#utility.yul\":11469:11491   */\n      and\n        /* \"#utility.yul\":11511:11547   */\n      tag_289\n        /* \"#utility.yul\":11543:11546   */\n      dup8\n        /* \"#utility.yul\":11511:11547   */\n      tag_140\n      jump\t// in\n    tag_289:\n        /* \"#utility.yul\":11504:11547   */\n      swap7\n      pop\n        /* \"#utility.yul\":11574:11611   */\n      tag_290\n        /* \"#utility.yul\":11606:11610   */\n      dup7\n        /* \"#utility.yul\":11574:11611   */\n      tag_140\n      jump\t// in\n    tag_290:\n        /* \"#utility.yul\":11633:11634   */\n      0x00\n        /* \"#utility.yul\":11647:11854   */\n    tag_291:\n        /* \"#utility.yul\":11661:11668   */\n      dup3\n        /* \"#utility.yul\":11658:11659   */\n      dup2\n        /* \"#utility.yul\":11655:11669   */\n      lt\n        /* \"#utility.yul\":11647:11854   */\n      iszero\n      tag_293\n      jumpi\n        /* \"#utility.yul\":11740:11749   */\n      dup5\n        /* \"#utility.yul\":11735:11738   */\n      dup10\n        /* \"#utility.yul\":11731:11750   */\n      add\n        /* \"#utility.yul\":11725:11751   */\n      sload\n        /* \"#utility.yul\":11717:11723   */\n      dup3\n        /* \"#utility.yul\":11710:11752   */\n      sstore\n        /* \"#utility.yul\":11791:11792   */\n      0x01\n        /* \"#utility.yul\":11783:11789   */\n      dup3\n        /* \"#utility.yul\":11779:11793   */\n      add\n        /* \"#utility.yul\":11769:11793   */\n      swap2\n      pop\n        /* \"#utility.yul\":11838:11839   */\n      0x01\n        /* \"#utility.yul\":11827:11836   */\n      dup6\n        /* \"#utility.yul\":11823:11840   */\n      add\n        /* \"#utility.yul\":11810:11840   */\n      swap5\n      pop\n        /* \"#utility.yul\":11684:11688   */\n      0x20\n        /* \"#utility.yul\":11681:11682   */\n      dup2\n        /* \"#utility.yul\":11677:11689   */\n      add\n        /* \"#utility.yul\":11672:11689   */\n      swap1\n      pop\n        /* \"#utility.yul\":11647:11854   */\n      jump(tag_291)\n    tag_293:\n        /* \"#utility.yul\":11882:11888   */\n      dup7\n        /* \"#utility.yul\":11873:11880   */\n      dup4\n        /* \"#utility.yul\":11870:11889   */\n      lt\n        /* \"#utility.yul\":11867:12046   */\n      iszero\n      tag_294\n      jumpi\n        /* \"#utility.yul\":11940:11949   */\n      dup5\n        /* \"#utility.yul\":11935:11938   */\n      dup10\n        /* \"#utility.yul\":11931:11950   */\n      add\n        /* \"#utility.yul\":11925:11951   */\n      sload\n        /* \"#utility.yul\":11983:12031   */\n      tag_295\n        /* \"#utility.yul\":12025:12029   */\n      0x1f\n        /* \"#utility.yul\":12017:12023   */\n      dup10\n        /* \"#utility.yul\":12013:12030   */\n      and\n        /* \"#utility.yul\":12002:12011   */\n      dup3\n        /* \"#utility.yul\":11983:12031   */\n      tag_153\n      jump\t// in\n    tag_295:\n        /* \"#utility.yul\":11975:11981   */\n      dup4\n        /* \"#utility.yul\":11968:12032   */\n      sstore\n        /* \"#utility.yul\":11890:12046   */\n      pop\n        /* \"#utility.yul\":11867:12046   */\n    tag_294:\n        /* \"#utility.yul\":12092:12093   */\n      0x01\n        /* \"#utility.yul\":12088:12089   */\n      0x02\n        /* \"#utility.yul\":12080:12086   */\n      dup9\n        /* \"#utility.yul\":12076:12090   */\n      mul\n        /* \"#utility.yul\":12072:12094   */\n      add\n        /* \"#utility.yul\":12066:12070   */\n      dup9\n        /* \"#utility.yul\":12059:12095   */\n      sstore\n        /* \"#utility.yul\":11440:12105   */\n      pop\n      pop\n      pop\n        /* \"#utility.yul\":11403:12344   */\n    tag_285:\n      pop\n        /* \"#utility.yul\":10988:12350   */\n      pop\n      pop\n      pop\n        /* \"#utility.yul\":10899:12350   */\n      pop\n      pop\n    tag_278:\n      jump\t// out\n        /* \"#utility.yul\":12356:12536   */\n    tag_68:\n        /* \"#utility.yul\":12404:12481   */\n      0x4e487b7100000000000000000000000000000000000000000000000000000000\n        /* \"#utility.yul\":12401:12402   */\n      0x00\n        /* \"#utility.yul\":12394:12482   */\n      mstore\n        /* \"#utility.yul\":12501:12505   */\n      0x31\n        /* \"#utility.yul\":12498:12499   */\n      0x04\n        /* \"#utility.yul\":12491:12506   */\n      mstore\n        /* \"#utility.yul\":12525:12529   */\n      0x24\n        /* \"#utility.yul\":12522:12523   */\n      0x00\n        /* \"#utility.yul\":12515:12530   */\n      revert\n        /* \"#utility.yul\":12542:13937   */\n    tag_75:\n        /* \"#utility.yul\":12659:12696   */\n      tag_298\n        /* \"#utility.yul\":12692:12695   */\n      dup3\n        /* \"#utility.yul\":12659:12696   */\n      tag_121\n      jump\t// in\n    tag_298:\n        /* \"#utility.yul\":12761:12779   */\n      0xffffffffffffffff\n        /* \"#utility.yul\":12753:12759   */\n      dup2\n        /* \"#utility.yul\":12750:12780   */\n      gt\n        /* \"#utility.yul\":12747:12803   */\n      iszero\n      tag_299\n      jumpi\n        /* \"#utility.yul\":12783:12801   */\n      tag_300\n      tag_128\n      jump\t// in\n    tag_300:\n        /* \"#utility.yul\":12747:12803   */\n    tag_299:\n        /* \"#utility.yul\":12827:12865   */\n      tag_301\n        /* \"#utility.yul\":12859:12863   */\n      dup3\n        /* \"#utility.yul\":12853:12864   */\n      sload\n        /* \"#utility.yul\":12827:12865   */\n      tag_43\n      jump\t// in\n    tag_301:\n        /* \"#utility.yul\":12912:12979   */\n      tag_302\n        /* \"#utility.yul\":12972:12978   */\n      dup3\n        /* \"#utility.yul\":12964:12970   */\n      dup3\n        /* \"#utility.yul\":12958:12962   */\n      dup6\n        /* \"#utility.yul\":12912:12979   */\n      tag_151\n      jump\t// in\n    tag_302:\n        /* \"#utility.yul\":13006:13007   */\n      0x00\n        /* \"#utility.yul\":13030:13034   */\n      0x20\n        /* \"#utility.yul\":13017:13034   */\n      swap1\n      pop\n        /* \"#utility.yul\":13062:13064   */\n      0x1f\n        /* \"#utility.yul\":13054:13060   */\n      dup4\n        /* \"#utility.yul\":13051:13065   */\n      gt\n        /* \"#utility.yul\":13079:13080   */\n      0x01\n        /* \"#utility.yul\":13074:13692   */\n      dup2\n      eq\n      tag_304\n      jumpi\n        /* \"#utility.yul\":13736:13737   */\n      0x00\n        /* \"#utility.yul\":13753:13759   */\n      dup5\n        /* \"#utility.yul\":13750:13827   */\n      iszero\n      tag_305\n      jumpi\n        /* \"#utility.yul\":13802:13811   */\n      dup3\n        /* \"#utility.yul\":13797:13800   */\n      dup8\n        /* \"#utility.yul\":13793:13812   */\n      add\n        /* \"#utility.yul\":13787:13813   */\n      mload\n        /* \"#utility.yul\":13778:13813   */\n      swap1\n      pop\n        /* \"#utility.yul\":13750:13827   */\n    tag_305:\n        /* \"#utility.yul\":13853:13920   */\n      tag_306\n        /* \"#utility.yul\":13913:13919   */\n      dup6\n        /* \"#utility.yul\":13906:13911   */\n      dup3\n        /* \"#utility.yul\":13853:13920   */\n      tag_154\n      jump\t// in\n    tag_306:\n        /* \"#utility.yul\":13847:13851   */\n      dup7\n        /* \"#utility.yul\":13840:13921   */\n      sstore\n        /* \"#utility.yul\":13709:13931   */\n      pop\n        /* \"#utility.yul\":13044:13931   */\n      jump(tag_303)\n        /* \"#utility.yul\":13074:13692   */\n    tag_304:\n        /* \"#utility.yul\":13126:13130   */\n      0x1f\n        /* \"#utility.yul\":13122:13131   */\n      not\n        /* \"#utility.yul\":13114:13120   */\n      dup5\n        /* \"#utility.yul\":13110:13132   */\n      and\n        /* \"#utility.yul\":13160:13197   */\n      tag_307\n        /* \"#utility.yul\":13192:13196   */\n      dup7\n        /* \"#utility.yul\":13160:13197   */\n      tag_140\n      jump\t// in\n    tag_307:\n        /* \"#utility.yul\":13219:13220   */\n      0x00\n        /* \"#utility.yul\":13233:13441   */\n    tag_308:\n        /* \"#utility.yul\":13247:13254   */\n      dup3\n        /* \"#utility.yul\":13244:13245   */\n      dup2\n        /* \"#utility.yul\":13241:13255   */\n      lt\n        /* \"#utility.yul\":13233:13441   */\n      iszero\n      tag_310\n      jumpi\n        /* \"#utility.yul\":13326:13335   */\n      dup5\n        /* \"#utility.yul\":13321:13324   */\n      dup10\n        /* \"#utility.yul\":13317:13336   */\n      add\n        /* \"#utility.yul\":13311:13337   */\n      mload\n        /* \"#utility.yul\":13303:13309   */\n      dup3\n        /* \"#utility.yul\":13296:13338   */\n      sstore\n        /* \"#utility.yul\":13377:13378   */\n      0x01\n        /* \"#utility.yul\":13369:13375   */\n      dup3\n        /* \"#utility.yul\":13365:13379   */\n      add\n        /* \"#utility.yul\":13355:13379   */\n      swap2\n      pop\n        /* \"#utility.yul\":13424:13426   */\n      0x20\n        /* \"#utility.yul\":13413:13422   */\n      dup6\n        /* \"#utility.yul\":13409:13427   */\n      add\n        /* \"#utility.yul\":13396:13427   */\n      swap5\n      pop\n        /* \"#utility.yul\":13270:13274   */\n      0x20\n        /* \"#utility.yul\":13267:13268   */\n      dup2\n        /* \"#utility.yul\":13263:13275   */\n      add\n        /* \"#utility.yul\":13258:13275   */\n      swap1\n      pop\n        /* \"#utility.yul\":13233:13441   */\n      jump(tag_308)\n    tag_310:\n        /* \"#utility.yul\":13469:13475   */\n      dup7\n        /* \"#utility.yul\":13460:13467   */\n      dup4\n        /* \"#utility.yul\":13457:13476   */\n      lt\n        /* \"#utility.yul\":13454:13633   */\n      iszero\n      tag_311\n      jumpi\n        /* \"#utility.yul\":13527:13536   */\n      dup5\n        /* \"#utility.yul\":13522:13525   */\n      dup10\n        /* \"#utility.yul\":13518:13537   */\n      add\n        /* \"#utility.yul\":13512:13538   */\n      mload\n        /* \"#utility.yul\":13570:13618   */\n      tag_312\n        /* \"#utility.yul\":13612:13616   */\n      0x1f\n        /* \"#utility.yul\":13604:13610   */\n      dup10\n        /* \"#utility.yul\":13600:13617   */\n      and\n        /* \"#utility.yul\":13589:13598   */\n      dup3\n        /* \"#utility.yul\":13570:13618   */\n      tag_153\n      jump\t// in\n    tag_312:\n        /* \"#utility.yul\":13562:13568   */\n      dup4\n        /* \"#utility.yul\":13555:13619   */\n      sstore\n        /* \"#utility.yul\":13477:13633   */\n      pop\n        /* \"#utility.yul\":13454:13633   */\n    tag_311:\n        /* \"#utility.yul\":13679:13680   */\n      0x01\n        /* \"#utility.yul\":13675:13676   */\n      0x02\n        /* \"#utility.yul\":13667:13673   */\n      dup9\n        /* \"#utility.yul\":13663:13677   */\n      mul\n        /* \"#utility.yul\":13659:13681   */\n      add\n        /* \"#utility.yul\":13653:13657   */\n      dup9\n        /* \"#utility.yul\":13646:13682   */\n      sstore\n        /* \"#utility.yul\":13081:13692   */\n      pop\n      pop\n      pop\n        /* \"#utility.yul\":13044:13931   */\n    tag_303:\n      pop\n        /* \"#utility.yul\":12634:13937   */\n      pop\n      pop\n      pop\n        /* \"#utility.yul\":12542:13937   */\n      pop\n      pop\n      jump\t// out\n        /* \"#utility.yul\":13943:14112   */\n    tag_155:\n        /* \"#utility.yul\":14083:14104   */\n      0x496e646578206f7574206f6620626f756e647300000000000000000000000000\n        /* \"#utility.yul\":14079:14080   */\n      0x00\n        /* \"#utility.yul\":14071:14077   */\n      dup3\n        /* \"#utility.yul\":14067:14081   */\n      add\n        /* \"#utility.yul\":14060:14105   */\n      mstore\n        /* \"#utility.yul\":13943:14112   */\n      pop\n      jump\t// out\n        /* \"#utility.yul\":14118:14484   */\n    tag_156:\n        /* \"#utility.yul\":14260:14263   */\n      0x00\n        /* \"#utility.yul\":14281:14348   */\n      tag_315\n        /* \"#utility.yul\":14345:14347   */\n      0x13\n        /* \"#utility.yul\":14340:14343   */\n      dup4\n        /* \"#utility.yul\":14281:14348   */\n      tag_122\n      jump\t// in\n    tag_315:\n        /* \"#utility.yul\":14274:14348   */\n      swap2\n      pop\n        /* \"#utility.yul\":14357:14450   */\n      tag_316\n        /* \"#utility.yul\":14446:14449   */\n      dup3\n        /* \"#utility.yul\":14357:14450   */\n      tag_155\n      jump\t// in\n    tag_316:\n        /* \"#utility.yul\":14475:14477   */\n      0x20\n        /* \"#utility.yul\":14470:14473   */\n      dup3\n        /* \"#utility.yul\":14466:14478   */\n      add\n        /* \"#utility.yul\":14459:14478   */\n      swap1\n      pop\n        /* \"#utility.yul\":14118:14484   */\n      swap2\n      swap1\n      pop\n      jump\t// out\n        /* \"#utility.yul\":14490:14909   */\n    tag_91:\n        /* \"#utility.yul\":14656:14660   */\n      0x00\n        /* \"#utility.yul\":14694:14696   */\n      0x20\n        /* \"#utility.yul\":14683:14692   */\n      dup3\n        /* \"#utility.yul\":14679:14697   */\n      add\n        /* \"#utility.yul\":14671:14697   */\n      swap1\n      pop\n        /* \"#utility.yul\":14743:14752   */\n      dup2\n        /* \"#utility.yul\":14737:14741   */\n      dup2\n        /* \"#utility.yul\":14733:14753   */\n      sub\n        /* \"#utility.yul\":14729:14730   */\n      0x00\n        /* \"#utility.yul\":14718:14727   */\n      dup4\n        /* \"#utility.yul\":14714:14731   */\n      add\n        /* \"#utility.yul\":14707:14754   */\n      mstore\n        /* \"#utility.yul\":14771:14902   */\n      tag_318\n        /* \"#utility.yul\":14897:14901   */\n      dup2\n        /* \"#utility.yul\":14771:14902   */\n      tag_156\n      jump\t// in\n    tag_318:\n        /* \"#utility.yul\":14763:14902   */\n      swap1\n      pop\n        /* \"#utility.yul\":14490:14909   */\n      swap2\n      swap1\n      pop\n      jump\t// out\n\n    auxdata: 0xa2646970667358221220191008802e99ebeff726b94dc65919897e0f8ab2497bea3f949b3ecb5df54d2764736f6c634300081e0033\n}\n",
				"bytecode": {
					"linkReferences": {},
					"object": "6080604052348015600e575f5ffd5b5061103f8061001c5f395ff3fe608060405234801561000f575f5ffd5b506004361061007b575f3560e01c8063c8fb079311610059578063c8fb0793146100e9578063da4ed5161461011b578063dc78302b1461014b578063ec7505b11461017d5761007b565b806306ead22e1461007f5780636af83845146100b1578063c1bea1db146100cd575b5f5ffd5b61009960048036038101906100949190610822565b610199565b6040516100a8939291906108cc565b60405180910390f35b6100cb60048036038101906100c69190610822565b610253565b005b6100e760048036038101906100e29190610a34565b6103b9565b005b61010360048036038101906100fe9190610822565b610450565b604051610112939291906108cc565b60405180910390f35b61013560048036038101906101309190610822565b61059c565b6040516101429190610aa0565b60405180910390f35b61016560048036038101906101609190610822565b6105b1565b604051610174939291906108cc565b60405180910390f35b61019760048036038101906101929190610a34565b6106e7565b005b5f81815481106101a7575f80fd5b905f5260205f2090600302015f91509050805f0154908060010180546101cc90610ae6565b80601f01602080910402602001604051908101604052809291908181526020018280546101f890610ae6565b80156102435780601f1061021a57610100808354040283529160200191610243565b820191905f5260205f20905b81548152906001019060200180831161022657829003601f168201915b5050505050908060020154905083565b5f60015f8381526020019081526020015f205490505f8054905081106102ae576040517f08c379a00000000000000000000000000000000000000000000000000000000081526004016102a590610b60565b60405180910390fd5b5f60015f805490506102c09190610bab565b815481106102d1576102d0610bde565b5b905f5260205f2090600302015f82815481106102f0576102ef610bde565b5b905f5260205f2090600302015f820154815f0155600182018160010190816103189190610dc0565b50600282015481600201559050508060015f5f848154811061033d5761033c610bde565b5b905f5260205f2090600302015f015481526020019081526020015f20819055505f80548061036e5761036d610ea5565b5b600190038181905f5260205f2090600302015f5f82015f9055600182015f6103969190610786565b600282015f90555050905560015f8381526020019081526020015f205f90555050565b5f604051806060016040528085815260200184815260200183815250908060018154018082558091505060019003905f5260205f2090600302015f909190919091505f820151815f015560208201518160010190816104189190610ed2565b5060408201518160020155505060015f805490506104369190610bab565b60015f8581526020019081526020015f2081905550505050565b5f60605f5f60015f8681526020019081526020015f205490505f8054905081106104af576040517f08c379a00000000000000000000000000000000000000000000000000000000081526004016104a690610b60565b60405180910390fd5b5f5f82815481106104c3576104c2610bde565b5b905f5260205f2090600302016040518060600160405290815f82015481526020016001820180546104f390610ae6565b80601f016020809104026020016040519081016040528092919081815260200182805461051f90610ae6565b801561056a5780601f106105415761010080835404028352916020019161056a565b820191905f5260205f20905b81548152906001019060200180831161054d57829003601f168201915b505050505081526020016002820154815250509050805f01518160200151826040015194509450945050509193909250565b6001602052805f5260405f205f915090505481565b5f60605f5f8054905084106105fb576040517f08c379a00000000000000000000000000000000000000000000000000000000081526004016105f290610feb565b60405180910390fd5b5f5f858154811061060f5761060e610bde565b5b905f5260205f2090600302016040518060600160405290815f820154815260200160018201805461063f90610ae6565b80601f016020809104026020016040519081016040528092919081815260200182805461066b90610ae6565b80156106b65780601f1061068d576101008083540402835291602001916106b6565b820191905f5260205f20905b81548152906001019060200180831161069957829003601f168201915b505050505081526020016002820154815250509050805f015181602001518260400151935093509350509193909250565b5f60015f8581526020019081526020015f205490505f805490508110610742576040517f08c379a000000000000000000000000000000000000000000000000000000000815260040161073990610b60565b60405180910390fd5b5f5f828154811061075657610755610bde565b5b905f5260205f2090600302019050838160010190816107759190610ed2565b508281600201819055505050505050565b50805461079290610ae6565b5f825580601f106107a357506107c0565b601f0160209004905f5260205f20908101906107bf91906107c3565b5b50565b5b808211156107da575f815f9055506001016107c4565b5090565b5f604051905090565b5f5ffd5b5f5ffd5b5f819050919050565b610801816107ef565b811461080b575f5ffd5b50565b5f8135905061081c816107f8565b92915050565b5f60208284031215610837576108366107e7565b5b5f6108448482850161080e565b91505092915050565b610856816107ef565b82525050565b5f81519050919050565b5f82825260208201905092915050565b8281835e5f83830152505050565b5f601f19601f8301169050919050565b5f61089e8261085c565b6108a88185610866565b93506108b8818560208601610876565b6108c181610884565b840191505092915050565b5f6060820190506108df5f83018661084d565b81810360208301526108f18185610894565b9050610900604083018461084d565b949350505050565b5f5ffd5b5f5ffd5b7f4e487b71000000000000000000000000000000000000000000000000000000005f52604160045260245ffd5b61094682610884565b810181811067ffffffffffffffff8211171561096557610964610910565b5b80604052505050565b5f6109776107de565b9050610983828261093d565b919050565b5f67ffffffffffffffff8211156109a2576109a1610910565b5b6109ab82610884565b9050602081019050919050565b828183375f83830152505050565b5f6109d86109d384610988565b61096e565b9050828152602081018484840111156109f4576109f361090c565b5b6109ff8482856109b8565b509392505050565b5f82601f830112610a1b57610a1a610908565b5b8135610a2b8482602086016109c6565b91505092915050565b5f5f5f60608486031215610a4b57610a4a6107e7565b5b5f610a588682870161080e565b935050602084013567ffffffffffffffff811115610a7957610a786107eb565b5b610a8586828701610a07565b9250506040610a968682870161080e565b9150509250925092565b5f602082019050610ab35f83018461084d565b92915050565b7f4e487b71000000000000000000000000000000000000000000000000000000005f52602260045260245ffd5b5f6002820490506001821680610afd57607f821691505b602082108103610b1057610b0f610ab9565b5b50919050565b7f53747564656e74206e6f7420666f756e640000000000000000000000000000005f82015250565b5f610b4a601183610866565b9150610b5582610b16565b602082019050919050565b5f6020820190508181035f830152610b7781610b3e565b9050919050565b7f4e487b71000000000000000000000000000000000000000000000000000000005f52601160045260245ffd5b5f610bb5826107ef565b9150610bc0836107ef565b9250828203905081811115610bd857610bd7610b7e565b5b92915050565b7f4e487b71000000000000000000000000000000000000000000000000000000005f52603260045260245ffd5b5f81549050610c1981610ae6565b9050919050565b5f819050815f5260205f209050919050565b5f6020601f8301049050919050565b5f82821b905092915050565b5f60088302610c7c7fffffffffffffffffffffffffffffffffffffffffffffffffffffffffffffffff82610c41565b610c868683610c41565b95508019841693508086168417925050509392505050565b5f819050919050565b5f610cc1610cbc610cb7846107ef565b610c9e565b6107ef565b9050919050565b5f819050919050565b610cda83610ca7565b610cee610ce682610cc8565b848454610c4d565b825550505050565b5f5f905090565b610d05610cf6565b610d10818484610cd1565b505050565b5b81811015610d3357610d285f82610cfd565b600181019050610d16565b5050565b601f821115610d7857610d4981610c20565b610d5284610c32565b81016020851015610d61578190505b610d75610d6d85610c32565b830182610d15565b50505b505050565b5f82821c905092915050565b5f610d985f1984600802610d7d565b1980831691505092915050565b5f610db08383610d89565b9150826002028217905092915050565b818103610dce575050610ea3565b610dd782610c0b565b67ffffffffffffffff811115610df057610def610910565b5b610dfa8254610ae6565b610e05828285610d37565b5f601f831160018114610e32575f8415610e20578287015490505b610e2a8582610da5565b865550610e9c565b601f198416610e4087610c20565b9650610e4b86610c20565b5f5b82811015610e7257848901548255600182019150600185019450602081019050610e4d565b86831015610e8f5784890154610e8b601f891682610d89565b8355505b6001600288020188555050505b5050505050505b565b7f4e487b71000000000000000000000000000000000000000000000000000000005f52603160045260245ffd5b610edb8261085c565b67ffffffffffffffff811115610ef457610ef3610910565b5b610efe8254610ae6565b610f09828285610d37565b5f60209050601f831160018114610f3a575f8415610f28578287015190505b610f328582610da5565b865550610f99565b601f198416610f4886610c20565b5f5b82811015610f6f57848901518255600182019150602085019450602081019050610f4a565b86831015610f8c5784890151610f88601f891682610d89565b8355505b6001600288020188555050505b505050505050565b7f496e646578206f7574206f6620626f756e6473000000000000000000000000005f82015250565b5f610fd5601383610866565b9150610fe082610fa1565b602082019050919050565b5f6020820190508181035f83015261100281610fc9565b905091905056fea2646970667358221220191008802e99ebeff726b94dc65919897e0f8ab2497bea3f949b3ecb5df54d2764736f6c634300081e0033",
					"opcodes": "PUSH1 0x80 PUSH1 0x40 MSTORE CALLVALUE DUP1 ISZERO PUSH1 0xE JUMPI PUSH0 PUSH0 REVERT JUMPDEST POP PUSH2 0x103F DUP1 PUSH2 0x1C PUSH0 CODECOPY PUSH0 RETURN INVALID PUSH1 0x80 PUSH1 0x40 MSTORE CALLVALUE DUP1 ISZERO PUSH2 0xF JUMPI PUSH0 PUSH0 REVERT JUMPDEST POP PUSH1 0x4 CALLDATASIZE LT PUSH2 0x7B JUMPI PUSH0 CALLDATALOAD PUSH1 0xE0 SHR DUP1 PUSH4 0xC8FB0793 GT PUSH2 0x59 JUMPI DUP1 PUSH4 0xC8FB0793 EQ PUSH2 0xE9 JUMPI DUP1 PUSH4 0xDA4ED516 EQ PUSH2 0x11B JUMPI DUP1 PUSH4 0xDC78302B EQ PUSH2 0x14B JUMPI DUP1 PUSH4 0xEC7505B1 EQ PUSH2 0x17D JUMPI PUSH2 0x7B JUMP JUMPDEST DUP1 PUSH4 0x6EAD22E EQ PUSH2 0x7F JUMPI DUP1 PUSH4 0x6AF83845 EQ PUSH2 0xB1 JUMPI DUP1 PUSH4 0xC1BEA1DB EQ PUSH2 0xCD JUMPI JUMPDEST PUSH0 PUSH0 REVERT JUMPDEST PUSH2 0x99 PUSH1 0x4 DUP1 CALLDATASIZE SUB DUP2 ADD SWAP1 PUSH2 0x94 SWAP2 SWAP1 PUSH2 0x822 JUMP JUMPDEST PUSH2 0x199 JUMP JUMPDEST PUSH1 0x40 MLOAD PUSH2 0xA8 SWAP4 SWAP3 SWAP2 SWAP1 PUSH2 0x8CC JUMP JUMPDEST PUSH1 0x40 MLOAD DUP1 SWAP2 SUB SWAP1 RETURN JUMPDEST PUSH2 0xCB PUSH1 0x4 DUP1 CALLDATASIZE SUB DUP2 ADD SWAP1 PUSH2 0xC6 SWAP2 SWAP1 PUSH2 0x822 JUMP JUMPDEST PUSH2 0x253 JUMP JUMPDEST STOP JUMPDEST PUSH2 0xE7 PUSH1 0x4 DUP1 CALLDATASIZE SUB DUP2 ADD SWAP1 PUSH2 0xE2 SWAP2 SWAP1 PUSH2 0xA34 JUMP JUMPDEST PUSH2 0x3B9 JUMP JUMPDEST STOP JUMPDEST PUSH2 0x103 PUSH1 0x4 DUP1 CALLDATASIZE SUB DUP2 ADD SWAP1 PUSH2 0xFE SWAP2 SWAP1 PUSH2 0x822 JUMP JUMPDEST PUSH2 0x450 JUMP JUMPDEST PUSH1 0x40 MLOAD PUSH2 0x112 SWAP4 SWAP3 SWAP2 SWAP1 PUSH2 0x8CC JUMP JUMPDEST PUSH1 0x40 MLOAD DUP1 SWAP2 SUB SWAP1 RETURN JUMPDEST PUSH2 0x135 PUSH1 0x4 DUP1 CALLDATASIZE SUB DUP2 ADD SWAP1 PUSH2 0x130 SWAP2 SWAP1 PUSH2 0x822 JUMP JUMPDEST PUSH2 0x59C JUMP JUMPDEST PUSH1 0x40 MLOAD PUSH2 0x142 SWAP2 SWAP1 PUSH2 0xAA0 JUMP JUMPDEST PUSH1 0x40 MLOAD DUP1 SWAP2 SUB SWAP1 RETURN JUMPDEST PUSH2 0x165 PUSH1 0x4 DUP1 CALLDATASIZE SUB DUP2 ADD SWAP1 PUSH2 0x160 SWAP2 SWAP1 PUSH2 0x822 JUMP JUMPDEST PUSH2 0x5B1 JUMP JUMPDEST PUSH1 0x40 MLOAD PUSH2 0x174 SWAP4 SWAP3 SWAP2 SWAP1 PUSH2 0x8CC JUMP JUMPDEST PUSH1 0x40 MLOAD DUP1 SWAP2 SUB SWAP1 RETURN JUMPDEST PUSH2 0x197 PUSH1 0x4 DUP1 CALLDATASIZE SUB DUP2 ADD SWAP1 PUSH2 0x192 SWAP2 SWAP1 PUSH2 0xA34 JUMP JUMPDEST PUSH2 0x6E7 JUMP JUMPDEST STOP JUMPDEST PUSH0 DUP2 DUP2 SLOAD DUP2 LT PUSH2 0x1A7 JUMPI PUSH0 DUP1 REVERT JUMPDEST SWAP1 PUSH0 MSTORE PUSH1 0x20 PUSH0 KECCAK256 SWAP1 PUSH1 0x3 MUL ADD PUSH0 SWAP2 POP SWAP1 POP DUP1 PUSH0 ADD SLOAD SWAP1 DUP1 PUSH1 0x1 ADD DUP1 SLOAD PUSH2 0x1CC SWAP1 PUSH2 0xAE6 JUMP JUMPDEST DUP1 PUSH1 0x1F ADD PUSH1 0x20 DUP1 SWAP2 DIV MUL PUSH1 0x20 ADD PUSH1 0x40 MLOAD SWAP1 DUP2 ADD PUSH1 0x40 MSTORE DUP1 SWAP3 SWAP2 SWAP1 DUP2 DUP2 MSTORE PUSH1 0x20 ADD DUP3 DUP1 SLOAD PUSH2 0x1F8 SWAP1 PUSH2 0xAE6 JUMP JUMPDEST DUP1 ISZERO PUSH2 0x243 JUMPI DUP1 PUSH1 0x1F LT PUSH2 0x21A JUMPI PUSH2 0x100 DUP1 DUP4 SLOAD DIV MUL DUP4 MSTORE SWAP2 PUSH1 0x20 ADD SWAP2 PUSH2 0x243 JUMP JUMPDEST DUP3 ADD SWAP2 SWAP1 PUSH0 MSTORE PUSH1 0x20 PUSH0 KECCAK256 SWAP1 JUMPDEST DUP2 SLOAD DUP2 MSTORE SWAP1 PUSH1 0x1 ADD SWAP1 PUSH1 0x20 ADD DUP1 DUP4 GT PUSH2 0x226 JUMPI DUP3 SWAP1 SUB PUSH1 0x1F AND DUP3 ADD SWAP2 JUMPDEST POP POP POP POP POP SWAP1 DUP1 PUSH1 0x2 ADD SLOAD SWAP1 POP DUP4 JUMP JUMPDEST PUSH0 PUSH1 0x1 PUSH0 DUP4 DUP2 MSTORE PUSH1 0x20 ADD SWAP1 DUP2 MSTORE PUSH1 0x20 ADD PUSH0 KECCAK256 SLOAD SWAP1 POP PUSH0 DUP1 SLOAD SWAP1 POP DUP2 LT PUSH2 0x2AE JUMPI PUSH1 0x40 MLOAD PUSH32 0x8C379A000000000000000000000000000000000000000000000000000000000 DUP2 MSTORE PUSH1 0x4 ADD PUSH2 0x2A5 SWAP1 PUSH2 0xB60 JUMP JUMPDEST PUSH1 0x40 MLOAD DUP1 SWAP2 SUB SWAP1 REVERT JUMPDEST PUSH0 PUSH1 0x1 PUSH0 DUP1 SLOAD SWAP1 POP PUSH2 0x2C0 SWAP2 SWAP1 PUSH2 0xBAB JUMP JUMPDEST DUP2 SLOAD DUP2 LT PUSH2 0x2D1 JUMPI PUSH2 0x2D0 PUSH2 0xBDE JUMP JUMPDEST JUMPDEST SWAP1 PUSH0 MSTORE PUSH1 0x20 PUSH0 KECCAK256 SWAP1 PUSH1 0x3 MUL ADD PUSH0 DUP3 DUP2 SLOAD DUP2 LT PUSH2 0x2F0 JUMPI PUSH2 0x2EF PUSH2 0xBDE JUMP JUMPDEST JUMPDEST SWAP1 PUSH0 MSTORE PUSH1 0x20 PUSH0 KECCAK256 SWAP1 PUSH1 0x3 MUL ADD PUSH0 DUP3 ADD SLOAD DUP2 PUSH0 ADD SSTORE PUSH1 0x1 DUP3 ADD DUP2 PUSH1 0x1 ADD SWAP1 DUP2 PUSH2 0x318 SWAP2 SWAP1 PUSH2 0xDC0 JUMP JUMPDEST POP PUSH1 0x2 DUP3 ADD SLOAD DUP2 PUSH1 0x2 ADD SSTORE SWAP1 POP POP DUP1 PUSH1 0x1 PUSH0 PUSH0 DUP5 DUP2 SLOAD DUP2 LT PUSH2 0x33D JUMPI PUSH2 0x33C PUSH2 0xBDE JUMP JUMPDEST JUMPDEST SWAP1 PUSH0 MSTORE PUSH1 0x20 PUSH0 KECCAK256 SWAP1 PUSH1 0x3 MUL ADD PUSH0 ADD SLOAD DUP2 MSTORE PUSH1 0x20 ADD SWAP1 DUP2 MSTORE PUSH1 0x20 ADD PUSH0 KECCAK256 DUP2 SWAP1 SSTORE POP PUSH0 DUP1 SLOAD DUP1 PUSH2 0x36E JUMPI PUSH2 0x36D PUSH2 0xEA5 JUMP JUMPDEST JUMPDEST PUSH1 0x1 SWAP1 SUB DUP2 DUP2 SWAP1 PUSH0 MSTORE PUSH1 0x20 PUSH0 KECCAK256 SWAP1 PUSH1 0x3 MUL ADD PUSH0 PUSH0 DUP3 ADD PUSH0 SWAP1 SSTORE PUSH1 0x1 DUP3 ADD PUSH0 PUSH2 0x396 SWAP2 SWAP1 PUSH2 0x786 JUMP JUMPDEST PUSH1 0x2 DUP3 ADD PUSH0 SWAP1 SSTORE POP POP SWAP1 SSTORE PUSH1 0x1 PUSH0 DUP4 DUP2 MSTORE PUSH1 0x20 ADD SWAP1 DUP2 MSTORE PUSH1 0x20 ADD PUSH0 KECCAK256 PUSH0 SWAP1 SSTORE POP POP JUMP JUMPDEST PUSH0 PUSH1 0x40 MLOAD DUP1 PUSH1 0x60 ADD PUSH1 0x40 MSTORE DUP1 DUP6 DUP2 MSTORE PUSH1 0x20 ADD DUP5 DUP2 MSTORE PUSH1 0x20 ADD DUP4 DUP2 MSTORE POP SWAP1 DUP1 PUSH1 0x1 DUP2 SLOAD ADD DUP1 DUP3 SSTORE DUP1 SWAP2 POP POP PUSH1 0x1 SWAP1 SUB SWAP1 PUSH0 MSTORE PUSH1 0x20 PUSH0 KECCAK256 SWAP1 PUSH1 0x3 MUL ADD PUSH0 SWAP1 SWAP2 SWAP1 SWAP2 SWAP1 SWAP2 POP PUSH0 DUP3 ADD MLOAD DUP2 PUSH0 ADD SSTORE PUSH1 0x20 DUP3 ADD MLOAD DUP2 PUSH1 0x1 ADD SWAP1 DUP2 PUSH2 0x418 SWAP2 SWAP1 PUSH2 0xED2 JUMP JUMPDEST POP PUSH1 0x40 DUP3 ADD MLOAD DUP2 PUSH1 0x2 ADD SSTORE POP POP PUSH1 0x1 PUSH0 DUP1 SLOAD SWAP1 POP PUSH2 0x436 SWAP2 SWAP1 PUSH2 0xBAB JUMP JUMPDEST PUSH1 0x1 PUSH0 DUP6 DUP2 MSTORE PUSH1 0x20 ADD SWAP1 DUP2 MSTORE PUSH1 0x20 ADD PUSH0 KECCAK256 DUP2 SWAP1 SSTORE POP POP POP POP JUMP JUMPDEST PUSH0 PUSH1 0x60 PUSH0 PUSH0 PUSH1 0x1 PUSH0 DUP7 DUP2 MSTORE PUSH1 0x20 ADD SWAP1 DUP2 MSTORE PUSH1 0x20 ADD PUSH0 KECCAK256 SLOAD SWAP1 POP PUSH0 DUP1 SLOAD SWAP1 POP DUP2 LT PUSH2 0x4AF JUMPI PUSH1 0x40 MLOAD PUSH32 0x8C379A000000000000000000000000000000000000000000000000000000000 DUP2 MSTORE PUSH1 0x4 ADD PUSH2 0x4A6 SWAP1 PUSH2 0xB60 JUMP JUMPDEST PUSH1 0x40 MLOAD DUP1 SWAP2 SUB SWAP1 REVERT JUMPDEST PUSH0 PUSH0 DUP3 DUP2 SLOAD DUP2 LT PUSH2 0x4C3 JUMPI PUSH2 0x4C2 PUSH2 0xBDE JUMP JUMPDEST JUMPDEST SWAP1 PUSH0 MSTORE PUSH1 0x20 PUSH0 KECCAK256 SWAP1 PUSH1 0x3 MUL ADD PUSH1 0x40 MLOAD DUP1 PUSH1 0x60 ADD PUSH1 0x40 MSTORE SWAP1 DUP2 PUSH0 DUP3 ADD SLOAD DUP2 MSTORE PUSH1 0x20 ADD PUSH1 0x1 DUP3 ADD DUP1 SLOAD PUSH2 0x4F3 SWAP1 PUSH2 0xAE6 JUMP JUMPDEST DUP1 PUSH1 0x1F ADD PUSH1 0x20 DUP1 SWAP2 DIV MUL PUSH1 0x20 ADD PUSH1 0x40 MLOAD SWAP1 DUP2 ADD PUSH1 0x40 MSTORE DUP1 SWAP3 SWAP2 SWAP1 DUP2 DUP2 MSTORE PUSH1 0x20 ADD DUP3 DUP1 SLOAD PUSH2 0x51F SWAP1 PUSH2 0xAE6 JUMP JUMPDEST DUP1 ISZERO PUSH2 0x56A JUMPI DUP1 PUSH1 0x1F LT PUSH2 0x541 JUMPI PUSH2 0x100 DUP1 DUP4 SLOAD DIV MUL DUP4 MSTORE SWAP2 PUSH1 0x20 ADD SWAP2 PUSH2 0x56A JUMP JUMPDEST DUP3 ADD SWAP2 SWAP1 PUSH0 MSTORE PUSH1 0x20 PUSH0 KECCAK256 SWAP1 JUMPDEST DUP2 SLOAD DUP2 MSTORE SWAP1 PUSH1 0x1 ADD SWAP1 PUSH1 0x20 ADD DUP1 DUP4 GT PUSH2 0x54D JUMPI DUP3 SWAP1 SUB PUSH1 0x1F AND DUP3 ADD SWAP2 JUMPDEST POP POP POP POP POP DUP2 MSTORE PUSH1 0x20 ADD PUSH1 0x2 DUP3 ADD SLOAD DUP2 MSTORE POP POP SWAP1 POP DUP1 PUSH0 ADD MLOAD DUP2 PUSH1 0x20 ADD MLOAD DUP3 PUSH1 0x40 ADD MLOAD SWAP5 POP SWAP5 POP SWAP5 POP POP POP SWAP2 SWAP4 SWAP1 SWAP3 POP JUMP JUMPDEST PUSH1 0x1 PUSH1 0x20 MSTORE DUP1 PUSH0 MSTORE PUSH1 0x40 PUSH0 KECCAK256 PUSH0 SWAP2 POP SWAP1 POP SLOAD DUP2 JUMP JUMPDEST PUSH0 PUSH1 0x60 PUSH0 PUSH0 DUP1 SLOAD SWAP1 POP DUP5 LT PUSH2 0x5FB JUMPI PUSH1 0x40 MLOAD PUSH32 0x8C379A000000000000000000000000000000000000000000000000000000000 DUP2 MSTORE PUSH1 0x4 ADD PUSH2 0x5F2 SWAP1 PUSH2 0xFEB JUMP JUMPDEST PUSH1 0x40 MLOAD DUP1 SWAP2 SUB SWAP1 REVERT JUMPDEST PUSH0 PUSH0 DUP6 DUP2 SLOAD DUP2 LT PUSH2 0x60F JUMPI PUSH2 0x60E PUSH2 0xBDE JUMP JUMPDEST JUMPDEST SWAP1 PUSH0 MSTORE PUSH1 0x20 PUSH0 KECCAK256 SWAP1 PUSH1 0x3 MUL ADD PUSH1 0x40 MLOAD DUP1 PUSH1 0x60 ADD PUSH1 0x40 MSTORE SWAP1 DUP2 PUSH0 DUP3 ADD SLOAD DUP2 MSTORE PUSH1 0x20 ADD PUSH1 0x1 DUP3 ADD DUP1 SLOAD PUSH2 0x63F SWAP1 PUSH2 0xAE6 JUMP JUMPDEST DUP1 PUSH1 0x1F ADD PUSH1 0x20 DUP1 SWAP2 DIV MUL PUSH1 0x20 ADD PUSH1 0x40 MLOAD SWAP1 DUP2 ADD PUSH1 0x40 MSTORE DUP1 SWAP3 SWAP2 SWAP1 DUP2 DUP2 MSTORE PUSH1 0x20 ADD DUP3 DUP1 SLOAD PUSH2 0x66B SWAP1 PUSH2 0xAE6 JUMP JUMPDEST DUP1 ISZERO PUSH2 0x6B6 JUMPI DUP1 PUSH1 0x1F LT PUSH2 0x68D JUMPI PUSH2 0x100 DUP1 DUP4 SLOAD DIV MUL DUP4 MSTORE SWAP2 PUSH1 0x20 ADD SWAP2 PUSH2 0x6B6 JUMP JUMPDEST DUP3 ADD SWAP2 SWAP1 PUSH0 MSTORE PUSH1 0x20 PUSH0 KECCAK256 SWAP1 JUMPDEST DUP2 SLOAD DUP2 MSTORE SWAP1 PUSH1 0x1 ADD SWAP1 PUSH1 0x20 ADD DUP1 DUP4 GT PUSH2 0x699 JUMPI DUP3 SWAP1 SUB PUSH1 0x1F AND DUP3 ADD SWAP2 JUMPDEST POP POP POP POP POP DUP2 MSTORE PUSH1 0x20 ADD PUSH1 0x2 DUP3 ADD SLOAD DUP2 MSTORE POP POP SWAP1 POP DUP1 PUSH0 ADD MLOAD DUP2 PUSH1 0x20 ADD MLOAD DUP3 PUSH1 0x40 ADD MLOAD SWAP4 POP SWAP4 POP SWAP4 POP POP SWAP2 SWAP4 SWAP1 SWAP3 POP JUMP JUMPDEST PUSH0 PUSH1 0x1 PUSH0 DUP6 DUP2 MSTORE PUSH1 0x20 ADD SWAP1 DUP2 MSTORE PUSH1 0x20 ADD PUSH0 KECCAK256 SLOAD SWAP1 POP PUSH0 DUP1 SLOAD SWAP1 POP DUP2 LT PUSH2 0x742 JUMPI PUSH1 0x40 MLOAD PUSH32 0x8C379A000000000000000000000000000000000000000000000000000000000 DUP2 MSTORE PUSH1 0x4 ADD PUSH2 0x739 SWAP1 PUSH2 0xB60 JUMP JUMPDEST PUSH1 0x40 MLOAD DUP1 SWAP2 SUB SWAP1 REVERT JUMPDEST PUSH0 PUSH0 DUP3 DUP2 SLOAD DUP2 LT PUSH2 0x756 JUMPI PUSH2 0x755 PUSH2 0xBDE JUMP JUMPDEST JUMPDEST SWAP1 PUSH0 MSTORE PUSH1 0x20 PUSH0 KECCAK256 SWAP1 PUSH1 0x3 MUL ADD SWAP1 POP DUP4 DUP2 PUSH1 0x1 ADD SWAP1 DUP2 PUSH2 0x775 SWAP2 SWAP1 PUSH2 0xED2 JUMP JUMPDEST POP DUP3 DUP2 PUSH1 0x2 ADD DUP2 SWAP1 SSTORE POP POP POP POP POP POP JUMP JUMPDEST POP DUP1 SLOAD PUSH2 0x792 SWAP1 PUSH2 0xAE6 JUMP JUMPDEST PUSH0 DUP3 SSTORE DUP1 PUSH1 0x1F LT PUSH2 0x7A3 JUMPI POP PUSH2 0x7C0 JUMP JUMPDEST PUSH1 0x1F ADD PUSH1 0x20 SWAP1 DIV SWAP1 PUSH0 MSTORE PUSH1 0x20 PUSH0 KECCAK256 SWAP1 DUP2 ADD SWAP1 PUSH2 0x7BF SWAP2 SWAP1 PUSH2 0x7C3 JUMP JUMPDEST JUMPDEST POP JUMP JUMPDEST JUMPDEST DUP1 DUP3 GT ISZERO PUSH2 0x7DA JUMPI PUSH0 DUP2 PUSH0 SWAP1 SSTORE POP PUSH1 0x1 ADD PUSH2 0x7C4 JUMP JUMPDEST POP SWAP1 JUMP JUMPDEST PUSH0 PUSH1 0x40 MLOAD SWAP1 POP SWAP1 JUMP JUMPDEST PUSH0 PUSH0 REVERT JUMPDEST PUSH0 PUSH0 REVERT JUMPDEST PUSH0 DUP2 SWAP1 POP SWAP2 SWAP1 POP JUMP JUMPDEST PUSH2 0x801 DUP2 PUSH2 0x7EF JUMP JUMPDEST DUP2 EQ PUSH2 0x80B JUMPI PUSH0 PUSH0 REVERT JUMPDEST POP JUMP JUMPDEST PUSH0 DUP2 CALLDATALOAD SWAP1 POP PUSH2 0x81C DUP2 PUSH2 0x7F8 JUMP JUMPDEST SWAP3 SWAP2 POP POP JUMP JUMPDEST PUSH0 PUSH1 0x20 DUP3 DUP5 SUB SLT ISZERO PUSH2 0x837 JUMPI PUSH2 0x836 PUSH2 0x7E7 JUMP JUMPDEST JUMPDEST PUSH0 PUSH2 0x844 DUP5 DUP3 DUP6 ADD PUSH2 0x80E JUMP JUMPDEST SWAP2 POP POP SWAP3 SWAP2 POP POP JUMP JUMPDEST PUSH2 0x856 DUP2 PUSH2 0x7EF JUMP JUMPDEST DUP3 MSTORE POP POP JUMP JUMPDEST PUSH0 DUP2 MLOAD SWAP1 POP SWAP2 SWAP1 POP JUMP JUMPDEST PUSH0 DUP3 DUP3 MSTORE PUSH1 0x20 DUP3 ADD SWAP1 POP SWAP3 SWAP2 POP POP JUMP JUMPDEST DUP3 DUP2 DUP4 MCOPY PUSH0 DUP4 DUP4 ADD MSTORE POP POP POP JUMP JUMPDEST PUSH0 PUSH1 0x1F NOT PUSH1 0x1F DUP4 ADD AND SWAP1 POP SWAP2 SWAP1 POP JUMP JUMPDEST PUSH0 PUSH2 0x89E DUP3 PUSH2 0x85C JUMP JUMPDEST PUSH2 0x8A8 DUP2 DUP6 PUSH2 0x866 JUMP JUMPDEST SWAP4 POP PUSH2 0x8B8 DUP2 DUP6 PUSH1 0x20 DUP7 ADD PUSH2 0x876 JUMP JUMPDEST PUSH2 0x8C1 DUP2 PUSH2 0x884 JUMP JUMPDEST DUP5 ADD SWAP2 POP POP SWAP3 SWAP2 POP POP JUMP JUMPDEST PUSH0 PUSH1 0x60 DUP3 ADD SWAP1 POP PUSH2 0x8DF PUSH0 DUP4 ADD DUP7 PUSH2 0x84D JUMP JUMPDEST DUP2 DUP2 SUB PUSH1 0x20 DUP4 ADD MSTORE PUSH2 0x8F1 DUP2 DUP6 PUSH2 0x894 JUMP JUMPDEST SWAP1 POP PUSH2 0x900 PUSH1 0x40 DUP4 ADD DUP5 PUSH2 0x84D JUMP JUMPDEST SWAP5 SWAP4 POP POP POP POP JUMP JUMPDEST PUSH0 PUSH0 REVERT JUMPDEST PUSH0 PUSH0 REVERT JUMPDEST PUSH32 0x4E487B7100000000000000000000000000000000000000000000000000000000 PUSH0 MSTORE PUSH1 0x41 PUSH1 0x4 MSTORE PUSH1 0x24 PUSH0 REVERT JUMPDEST PUSH2 0x946 DUP3 PUSH2 0x884 JUMP JUMPDEST DUP2 ADD DUP2 DUP2 LT PUSH8 0xFFFFFFFFFFFFFFFF DUP3 GT OR ISZERO PUSH2 0x965 JUMPI PUSH2 0x964 PUSH2 0x910 JUMP JUMPDEST JUMPDEST DUP1 PUSH1 0x40 MSTORE POP POP POP JUMP JUMPDEST PUSH0 PUSH2 0x977 PUSH2 0x7DE JUMP JUMPDEST SWAP1 POP PUSH2 0x983 DUP3 DUP3 PUSH2 0x93D JUMP JUMPDEST SWAP2 SWAP1 POP JUMP JUMPDEST PUSH0 PUSH8 0xFFFFFFFFFFFFFFFF DUP3 GT ISZERO PUSH2 0x9A2 JUMPI PUSH2 0x9A1 PUSH2 0x910 JUMP JUMPDEST JUMPDEST PUSH2 0x9AB DUP3 PUSH2 0x884 JUMP JUMPDEST SWAP1 POP PUSH1 0x20 DUP2 ADD SWAP1 POP SWAP2 SWAP1 POP JUMP JUMPDEST DUP3 DUP2 DUP4 CALLDATACOPY PUSH0 DUP4 DUP4 ADD MSTORE POP POP POP JUMP JUMPDEST PUSH0 PUSH2 0x9D8 PUSH2 0x9D3 DUP5 PUSH2 0x988 JUMP JUMPDEST PUSH2 0x96E JUMP JUMPDEST SWAP1 POP DUP3 DUP2 MSTORE PUSH1 0x20 DUP2 ADD DUP5 DUP5 DUP5 ADD GT ISZERO PUSH2 0x9F4 JUMPI PUSH2 0x9F3 PUSH2 0x90C JUMP JUMPDEST JUMPDEST PUSH2 0x9FF DUP5 DUP3 DUP6 PUSH2 0x9B8 JUMP JUMPDEST POP SWAP4 SWAP3 POP POP POP JUMP JUMPDEST PUSH0 DUP3 PUSH1 0x1F DUP4 ADD SLT PUSH2 0xA1B JUMPI PUSH2 0xA1A PUSH2 0x908 JUMP JUMPDEST JUMPDEST DUP2 CALLDATALOAD PUSH2 0xA2B DUP5 DUP3 PUSH1 0x20 DUP7 ADD PUSH2 0x9C6 JUMP JUMPDEST SWAP2 POP POP SWAP3 SWAP2 POP POP JUMP JUMPDEST PUSH0 PUSH0 PUSH0 PUSH1 0x60 DUP5 DUP7 SUB SLT ISZERO PUSH2 0xA4B JUMPI PUSH2 0xA4A PUSH2 0x7E7 JUMP JUMPDEST JUMPDEST PUSH0 PUSH2 0xA58 DUP7 DUP3 DUP8 ADD PUSH2 0x80E JUMP JUMPDEST SWAP4 POP POP PUSH1 0x20 DUP5 ADD CALLDATALOAD PUSH8 0xFFFFFFFFFFFFFFFF DUP2 GT ISZERO PUSH2 0xA79 JUMPI PUSH2 0xA78 PUSH2 0x7EB JUMP JUMPDEST JUMPDEST PUSH2 0xA85 DUP7 DUP3 DUP8 ADD PUSH2 0xA07 JUMP JUMPDEST SWAP3 POP POP PUSH1 0x40 PUSH2 0xA96 DUP7 DUP3 DUP8 ADD PUSH2 0x80E JUMP JUMPDEST SWAP2 POP POP SWAP3 POP SWAP3 POP SWAP3 JUMP JUMPDEST PUSH0 PUSH1 0x20 DUP3 ADD SWAP1 POP PUSH2 0xAB3 PUSH0 DUP4 ADD DUP5 PUSH2 0x84D JUMP JUMPDEST SWAP3 SWAP2 POP POP JUMP JUMPDEST PUSH32 0x4E487B7100000000000000000000000000000000000000000000000000000000 PUSH0 MSTORE PUSH1 0x22 PUSH1 0x4 MSTORE PUSH1 0x24 PUSH0 REVERT JUMPDEST PUSH0 PUSH1 0x2 DUP3 DIV SWAP1 POP PUSH1 0x1 DUP3 AND DUP1 PUSH2 0xAFD JUMPI PUSH1 0x7F DUP3 AND SWAP2 POP JUMPDEST PUSH1 0x20 DUP3 LT DUP2 SUB PUSH2 0xB10 JUMPI PUSH2 0xB0F PUSH2 0xAB9 JUMP JUMPDEST JUMPDEST POP SWAP2 SWAP1 POP JUMP JUMPDEST PUSH32 0x53747564656E74206E6F7420666F756E64000000000000000000000000000000 PUSH0 DUP3 ADD MSTORE POP JUMP JUMPDEST PUSH0 PUSH2 0xB4A PUSH1 0x11 DUP4 PUSH2 0x866 JUMP JUMPDEST SWAP2 POP PUSH2 0xB55 DUP3 PUSH2 0xB16 JUMP JUMPDEST PUSH1 0x20 DUP3 ADD SWAP1 POP SWAP2 SWAP1 POP JUMP JUMPDEST PUSH0 PUSH1 0x20 DUP3 ADD SWAP1 POP DUP2 DUP2 SUB PUSH0 DUP4 ADD MSTORE PUSH2 0xB77 DUP2 PUSH2 0xB3E JUMP JUMPDEST SWAP1 POP SWAP2 SWAP1 POP JUMP JUMPDEST PUSH32 0x4E487B7100000000000000000000000000000000000000000000000000000000 PUSH0 MSTORE PUSH1 0x11 PUSH1 0x4 MSTORE PUSH1 0x24 PUSH0 REVERT JUMPDEST PUSH0 PUSH2 0xBB5 DUP3 PUSH2 0x7EF JUMP JUMPDEST SWAP2 POP PUSH2 0xBC0 DUP4 PUSH2 0x7EF JUMP JUMPDEST SWAP3 POP DUP3 DUP3 SUB SWAP1 POP DUP2 DUP2 GT ISZERO PUSH2 0xBD8 JUMPI PUSH2 0xBD7 PUSH2 0xB7E JUMP JUMPDEST JUMPDEST SWAP3 SWAP2 POP POP JUMP JUMPDEST PUSH32 0x4E487B7100000000000000000000000000000000000000000000000000000000 PUSH0 MSTORE PUSH1 0x32 PUSH1 0x4 MSTORE PUSH1 0x24 PUSH0 REVERT JUMPDEST PUSH0 DUP2 SLOAD SWAP1 POP PUSH2 0xC19 DUP2 PUSH2 0xAE6 JUMP JUMPDEST SWAP1 POP SWAP2 SWAP1 POP JUMP JUMPDEST PUSH0 DUP2 SWAP1 POP DUP2 PUSH0 MSTORE PUSH1 0x20 PUSH0 KECCAK256 SWAP1 POP SWAP2 SWAP1 POP JUMP JUMPDEST PUSH0 PUSH1 0x20 PUSH1 0x1F DUP4 ADD DIV SWAP1 POP SWAP2 SWAP1 POP JUMP JUMPDEST PUSH0 DUP3 DUP3 SHL SWAP1 POP SWAP3 SWAP2 POP POP JUMP JUMPDEST PUSH0 PUSH1 0x8 DUP4 MUL PUSH2 0xC7C PUSH32 0xFFFFFFFFFFFFFFFFFFFFFFFFFFFFFFFFFFFFFFFFFFFFFFFFFFFFFFFFFFFFFFFF DUP3 PUSH2 0xC41 JUMP JUMPDEST PUSH2 0xC86 DUP7 DUP4 PUSH2 0xC41 JUMP JUMPDEST SWAP6 POP DUP1 NOT DUP5 AND SWAP4 POP DUP1 DUP7 AND DUP5 OR SWAP3 POP POP POP SWAP4 SWAP3 POP POP POP JUMP JUMPDEST PUSH0 DUP2 SWAP1 POP SWAP2 SWAP1 POP JUMP JUMPDEST PUSH0 PUSH2 0xCC1 PUSH2 0xCBC PUSH2 0xCB7 DUP5 PUSH2 0x7EF JUMP JUMPDEST PUSH2 0xC9E JUMP JUMPDEST PUSH2 0x7EF JUMP JUMPDEST SWAP1 POP SWAP2 SWAP1 POP JUMP JUMPDEST PUSH0 DUP2 SWAP1 POP SWAP2 SWAP1 POP JUMP JUMPDEST PUSH2 0xCDA DUP4 PUSH2 0xCA7 JUMP JUMPDEST PUSH2 0xCEE PUSH2 0xCE6 DUP3 PUSH2 0xCC8 JUMP JUMPDEST DUP5 DUP5 SLOAD PUSH2 0xC4D JUMP JUMPDEST DUP3 SSTORE POP POP POP POP JUMP JUMPDEST PUSH0 PUSH0 SWAP1 POP SWAP1 JUMP JUMPDEST PUSH2 0xD05 PUSH2 0xCF6 JUMP JUMPDEST PUSH2 0xD10 DUP2 DUP5 DUP5 PUSH2 0xCD1 JUMP JUMPDEST POP POP POP JUMP JUMPDEST JUMPDEST DUP2 DUP2 LT ISZERO PUSH2 0xD33 JUMPI PUSH2 0xD28 PUSH0 DUP3 PUSH2 0xCFD JUMP JUMPDEST PUSH1 0x1 DUP2 ADD SWAP1 POP PUSH2 0xD16 JUMP JUMPDEST POP POP JUMP JUMPDEST PUSH1 0x1F DUP3 GT ISZERO PUSH2 0xD78 JUMPI PUSH2 0xD49 DUP2 PUSH2 0xC20 JUMP JUMPDEST PUSH2 0xD52 DUP5 PUSH2 0xC32 JUMP JUMPDEST DUP2 ADD PUSH1 0x20 DUP6 LT ISZERO PUSH2 0xD61 JUMPI DUP2 SWAP1 POP JUMPDEST PUSH2 0xD75 PUSH2 0xD6D DUP6 PUSH2 0xC32 JUMP JUMPDEST DUP4 ADD DUP3 PUSH2 0xD15 JUMP JUMPDEST POP POP JUMPDEST POP POP POP JUMP JUMPDEST PUSH0 DUP3 DUP3 SHR SWAP1 POP SWAP3 SWAP2 POP POP JUMP JUMPDEST PUSH0 PUSH2 0xD98 PUSH0 NOT DUP5 PUSH1 0x8 MUL PUSH2 0xD7D JUMP JUMPDEST NOT DUP1 DUP4 AND SWAP2 POP POP SWAP3 SWAP2 POP POP JUMP JUMPDEST PUSH0 PUSH2 0xDB0 DUP4 DUP4 PUSH2 0xD89 JUMP JUMPDEST SWAP2 POP DUP3 PUSH1 0x2 MUL DUP3 OR SWAP1 POP SWAP3 SWAP2 POP POP JUMP JUMPDEST DUP2 DUP2 SUB PUSH2 0xDCE JUMPI POP POP PUSH2 0xEA3 JUMP JUMPDEST PUSH2 0xDD7 DUP3 PUSH2 0xC0B JUMP JUMPDEST PUSH8 0xFFFFFFFFFFFFFFFF DUP2 GT ISZERO PUSH2 0xDF0 JUMPI PUSH2 0xDEF PUSH2 0x910 JUMP JUMPDEST JUMPDEST PUSH2 0xDFA DUP3 SLOAD PUSH2 0xAE6 JUMP JUMPDEST PUSH2 0xE05 DUP3 DUP3 DUP6 PUSH2 0xD37 JUMP JUMPDEST PUSH0 PUSH1 0x1F DUP4 GT PUSH1 0x1 DUP2 EQ PUSH2 0xE32 JUMPI PUSH0 DUP5 ISZERO PUSH2 0xE20 JUMPI DUP3 DUP8 ADD SLOAD SWAP1 POP JUMPDEST PUSH2 0xE2A DUP6 DUP3 PUSH2 0xDA5 JUMP JUMPDEST DUP7 SSTORE POP PUSH2 0xE9C JUMP JUMPDEST PUSH1 0x1F NOT DUP5 AND PUSH2 0xE40 DUP8 PUSH2 0xC20 JUMP JUMPDEST SWAP7 POP PUSH2 0xE4B DUP7 PUSH2 0xC20 JUMP JUMPDEST PUSH0 JUMPDEST DUP3 DUP2 LT ISZERO PUSH2 0xE72 JUMPI DUP5 DUP10 ADD SLOAD DUP3 SSTORE PUSH1 0x1 DUP3 ADD SWAP2 POP PUSH1 0x1 DUP6 ADD SWAP5 POP PUSH1 0x20 DUP2 ADD SWAP1 POP PUSH2 0xE4D JUMP JUMPDEST DUP7 DUP4 LT ISZERO PUSH2 0xE8F JUMPI DUP5 DUP10 ADD SLOAD PUSH2 0xE8B PUSH1 0x1F DUP10 AND DUP3 PUSH2 0xD89 JUMP JUMPDEST DUP4 SSTORE POP JUMPDEST PUSH1 0x1 PUSH1 0x2 DUP9 MUL ADD DUP9 SSTORE POP POP POP JUMPDEST POP POP POP POP POP POP JUMPDEST JUMP JUMPDEST PUSH32 0x4E487B7100000000000000000000000000000000000000000000000000000000 PUSH0 MSTORE PUSH1 0x31 PUSH1 0x4 MSTORE PUSH1 0x24 PUSH0 REVERT JUMPDEST PUSH2 0xEDB DUP3 PUSH2 0x85C JUMP JUMPDEST PUSH8 0xFFFFFFFFFFFFFFFF DUP2 GT ISZERO PUSH2 0xEF4 JUMPI PUSH2 0xEF3 PUSH2 0x910 JUMP JUMPDEST JUMPDEST PUSH2 0xEFE DUP3 SLOAD PUSH2 0xAE6 JUMP JUMPDEST PUSH2 0xF09 DUP3 DUP3 DUP6 PUSH2 0xD37 JUMP JUMPDEST PUSH0 PUSH1 0x20 SWAP1 POP PUSH1 0x1F DUP4 GT PUSH1 0x1 DUP2 EQ PUSH2 0xF3A JUMPI PUSH0 DUP5 ISZERO PUSH2 0xF28 JUMPI DUP3 DUP8 ADD MLOAD SWAP1 POP JUMPDEST PUSH2 0xF32 DUP6 DUP3 PUSH2 0xDA5 JUMP JUMPDEST DUP7 SSTORE POP PUSH2 0xF99 JUMP JUMPDEST PUSH1 0x1F NOT DUP5 AND PUSH2 0xF48 DUP7 PUSH2 0xC20 JUMP JUMPDEST PUSH0 JUMPDEST DUP3 DUP2 LT ISZERO PUSH2 0xF6F JUMPI DUP5 DUP10 ADD MLOAD DUP3 SSTORE PUSH1 0x1 DUP3 ADD SWAP2 POP PUSH1 0x20 DUP6 ADD SWAP5 POP PUSH1 0x20 DUP2 ADD SWAP1 POP PUSH2 0xF4A JUMP JUMPDEST DUP7 DUP4 LT ISZERO PUSH2 0xF8C JUMPI DUP5 DUP10 ADD MLOAD PUSH2 0xF88 PUSH1 0x1F DUP10 AND DUP3 PUSH2 0xD89 JUMP JUMPDEST DUP4 SSTORE POP JUMPDEST PUSH1 0x1 PUSH1 0x2 DUP9 MUL ADD DUP9 SSTORE POP POP POP JUMPDEST POP POP POP POP POP POP JUMP JUMPDEST PUSH32 0x496E646578206F7574206F6620626F756E647300000000000000000000000000 PUSH0 DUP3 ADD MSTORE POP JUMP JUMPDEST PUSH0 PUSH2 0xFD5 PUSH1 0x13 DUP4 PUSH2 0x866 JUMP JUMPDEST SWAP2 POP PUSH2 0xFE0 DUP3 PUSH2 0xFA1 JUMP JUMPDEST PUSH1 0x20 DUP3 ADD SWAP1 POP SWAP2 SWAP1 POP JUMP JUMPDEST PUSH0 PUSH1 0x20 DUP3 ADD SWAP1 POP DUP2 DUP2 SUB PUSH0 DUP4 ADD MSTORE PUSH2 0x1002 DUP2 PUSH2 0xFC9 JUMP JUMPDEST SWAP1 POP SWAP2 SWAP1 POP JUMP INVALID LOG2 PUSH5 0x6970667358 0x22 SLT KECCAK256 NOT LT ADDMOD DUP1 0x2E SWAP10 0xEB 0xEF 0xF7 0x26 0xB9 0x4D 0xC6 MSIZE NOT DUP10 PUSH31 0xF8AB2497BEA3F949B3ECB5DF54D2764736F6C634300081E00330000000000 "
				},
				"gasEstimates": {
					"creation": {
						"codeDepositCost": "831800",
						"executionCost": "862",
						"totalCost": "832662"
					},
					"external": {
						"addStudent(uint256,string,uint256)": "infinite",
						"getStudentById(uint256)": "infinite",
						"getStudentByIndex(uint256)": "infinite",
						"removeStudent(uint256)": "infinite",
						"studentIdToIndex(uint256)": "infinite",
						"students(uint256)": "infinite",
						"updateStudent(uint256,string,uint256)": "infinite"
					}
				},
				"methodIdentifiers": {
					"addStudent(uint256,string,uint256)": "c1bea1db",
					"getStudentById(uint256)": "c8fb0793",
					"getStudentByIndex(uint256)": "dc78302b",
					"removeStudent(uint256)": "6af83845",
					"studentIdToIndex(uint256)": "da4ed516",
					"students(uint256)": "06ead22e",
					"updateStudent(uint256,string,uint256)": "ec7505b1"
				}
			},
			"storageLayout": {
				"storage": [
					{
						"astId": 12,
						"contract": "contracts/10.19.arrayofstruct.sol:StudentManagement",
						"label": "students",
						"offset": 0,
						"slot": "0",
						"type": "t_array(t_struct(Student)8_storage)dyn_storage"
					},
					{
						"astId": 16,
						"contract": "contracts/10.19.arrayofstruct.sol:StudentManagement",
						"label": "studentIdToIndex",
						"offset": 0,
						"slot": "1",
						"type": "t_mapping(t_uint256,t_uint256)"
					}
				],
				"types": {
					"t_array(t_struct(Student)8_storage)dyn_storage": {
						"base": "t_struct(Student)8_storage",
						"encoding": "dynamic_array",
						"label": "struct StudentManagement.Student[]",
						"numberOfBytes": "32"
					},
					"t_mapping(t_uint256,t_uint256)": {
						"encoding": "mapping",
						"key": "t_uint256",
						"label": "mapping(uint256 => uint256)",
						"numberOfBytes": "32",
						"value": "t_uint256"
					},
					"t_string_storage": {
						"encoding": "bytes",
						"label": "string",
						"numberOfBytes": "32"
					},
					"t_struct(Student)8_storage": {
						"encoding": "inplace",
						"label": "struct StudentManagement.Student",
						"members": [
							{
								"astId": 3,
								"contract": "contracts/10.19.arrayofstruct.sol:StudentManagement",
								"label": "id",
								"offset": 0,
								"slot": "0",
								"type": "t_uint256"
							},
							{
								"astId": 5,
								"contract": "contracts/10.19.arrayofstruct.sol:StudentManagement",
								"label": "name",
								"offset": 0,
								"slot": "1",
								"type": "t_string_storage"
							},
							{
								"astId": 7,
								"contract": "contracts/10.19.arrayofstruct.sol:StudentManagement",
								"label": "age",
								"offset": 0,
								"slot": "2",
								"type": "t_uint256"
							}
						],
						"numberOfBytes": "96"
					},
					"t_uint256": {
						"encoding": "inplace",
						"label": "uint256",
						"numberOfBytes": "32"
					}
				}
			},
			"userdoc": {
				"kind": "user",
				"methods": {},
				"version": 1
			}
		}
	}
}