{
	"contracts/otherconceptsofsolidity/transeintstorage.sol": {
		"TransientFeel": {
			"abi": [
				{
					"inputs": [],
					"name": "readLater",
					"outputs": [
						{
							"internalType": "uint256",
							"name": "v",
							"type": "uint256"
						}
					],
					"stateMutability": "view",
					"type": "function"
				},
				{
					"inputs": [],
					"name": "writeAndRead",
					"outputs": [
						{
							"internalType": "uint256",
							"name": "",
							"type": "uint256"
						}
					],
					"stateMutability": "nonpayable",
					"type": "function"
				}
			],
			"devdoc": {
				"kind": "dev",
				"methods": {},
				"version": 1
			},
			"evm": {
				"assembly": "    /* \"contracts/otherconceptsofsolidity/transeintstorage.sol\":147:919  contract TransientFeel {... */\n  mstore(0x40, 0x80)\n  callvalue\n  dup1\n  iszero\n  tag_1\n  jumpi\n  revert(0x00, 0x00)\ntag_1:\n  pop\n  dataSize(sub_0)\n  dup1\n  dataOffset(sub_0)\n  0x00\n  codecopy\n  0x00\n  return\nstop\n\nsub_0: assembly {\n        /* \"contracts/otherconceptsofsolidity/transeintstorage.sol\":147:919  contract TransientFeel {... */\n      mstore(0x40, 0x80)\n      callvalue\n      dup1\n      iszero\n      tag_1\n      jumpi\n      revert(0x00, 0x00)\n    tag_1:\n      pop\n      jumpi(tag_2, lt(calldatasize, 0x04))\n      shr(0xe0, calldataload(0x00))\n      dup1\n      0x0b909479\n      eq\n      tag_3\n      jumpi\n      dup1\n      0xa6061bbc\n      eq\n      tag_4\n      jumpi\n    tag_2:\n      revert(0x00, 0x00)\n        /* \"contracts/otherconceptsofsolidity/transeintstorage.sol\":360:703  function writeAndRead() external returns (uint256) {... */\n    tag_3:\n      tag_5\n      tag_6\n      jump\t// in\n    tag_5:\n      mload(0x40)\n      tag_7\n      swap2\n      swap1\n      tag_8\n      jump\t// in\n    tag_7:\n      mload(0x40)\n      dup1\n      swap2\n      sub\n      swap1\n      return\n        /* \"contracts/otherconceptsofsolidity/transeintstorage.sol\":761:917  function readLater() external view returns (uint256 v) {... */\n    tag_4:\n      tag_9\n      tag_10\n      jump\t// in\n    tag_9:\n      mload(0x40)\n      tag_11\n      swap2\n      swap1\n      tag_8\n      jump\t// in\n    tag_11:\n      mload(0x40)\n      dup1\n      swap2\n      sub\n      swap1\n      return\n        /* \"contracts/otherconceptsofsolidity/transeintstorage.sol\":360:703  function writeAndRead() external returns (uint256) {... */\n    tag_6:\n        /* \"contracts/otherconceptsofsolidity/transeintstorage.sol\":402:409  uint256 */\n      0x00\n        /* \"contracts/otherconceptsofsolidity/transeintstorage.sol\":498:501  777 */\n      0x0309\n        /* \"contracts/otherconceptsofsolidity/transeintstorage.sol\":492:496  SLOT */\n      0x00\n        /* \"contracts/otherconceptsofsolidity/transeintstorage.sol\":485:502  tstore(SLOT, 777) */\n      tstore\n        /* \"contracts/otherconceptsofsolidity/transeintstorage.sol\":522:535  uint256 value */\n      0x00\n        /* \"contracts/otherconceptsofsolidity/transeintstorage.sol\":621:625  SLOT */\n      0x00\n        /* \"contracts/otherconceptsofsolidity/transeintstorage.sol\":615:626  tload(SLOT) */\n      tload\n        /* \"contracts/otherconceptsofsolidity/transeintstorage.sol\":606:626  value := tload(SLOT) */\n      swap1\n      pop\n        /* \"contracts/otherconceptsofsolidity/transeintstorage.sol\":691:696  value */\n      dup1\n        /* \"contracts/otherconceptsofsolidity/transeintstorage.sol\":684:696  return value */\n      swap2\n      pop\n      pop\n        /* \"contracts/otherconceptsofsolidity/transeintstorage.sol\":360:703  function writeAndRead() external returns (uint256) {... */\n      swap1\n      jump\t// out\n        /* \"contracts/otherconceptsofsolidity/transeintstorage.sol\":761:917  function readLater() external view returns (uint256 v) {... */\n    tag_10:\n        /* \"contracts/otherconceptsofsolidity/transeintstorage.sol\":805:814  uint256 v */\n      0x00\n        /* \"contracts/otherconceptsofsolidity/transeintstorage.sol\":860:864  SLOT */\n      0x00\n        /* \"contracts/otherconceptsofsolidity/transeintstorage.sol\":854:865  tload(SLOT) */\n      tload\n        /* \"contracts/otherconceptsofsolidity/transeintstorage.sol\":849:865  v := tload(SLOT) */\n      swap1\n      pop\n        /* \"contracts/otherconceptsofsolidity/transeintstorage.sol\":761:917  function readLater() external view returns (uint256 v) {... */\n      swap1\n      jump\t// out\n        /* \"#utility.yul\":7:84   */\n    tag_14:\n        /* \"#utility.yul\":44:51   */\n      0x00\n        /* \"#utility.yul\":73:78   */\n      dup2\n        /* \"#utility.yul\":62:78   */\n      swap1\n      pop\n        /* \"#utility.yul\":7:84   */\n      swap2\n      swap1\n      pop\n      jump\t// out\n        /* \"#utility.yul\":90:208   */\n    tag_15:\n        /* \"#utility.yul\":177:201   */\n      tag_19\n        /* \"#utility.yul\":195:200   */\n      dup2\n        /* \"#utility.yul\":177:201   */\n      tag_14\n      jump\t// in\n    tag_19:\n        /* \"#utility.yul\":172:175   */\n      dup3\n        /* \"#utility.yul\":165:202   */\n      mstore\n        /* \"#utility.yul\":90:208   */\n      pop\n      pop\n      jump\t// out\n        /* \"#utility.yul\":214:436   */\n    tag_8:\n        /* \"#utility.yul\":307:311   */\n      0x00\n        /* \"#utility.yul\":345:347   */\n      0x20\n        /* \"#utility.yul\":334:343   */\n      dup3\n        /* \"#utility.yul\":330:348   */\n      add\n        /* \"#utility.yul\":322:348   */\n      swap1\n      pop\n        /* \"#utility.yul\":358:429   */\n      tag_21\n        /* \"#utility.yul\":426:427   */\n      0x00\n        /* \"#utility.yul\":415:424   */\n      dup4\n        /* \"#utility.yul\":411:428   */\n      add\n        /* \"#utility.yul\":402:408   */\n      dup5\n        /* \"#utility.yul\":358:429   */\n      tag_15\n      jump\t// in\n    tag_21:\n        /* \"#utility.yul\":214:436   */\n      swap3\n      swap2\n      pop\n      pop\n      jump\t// out\n\n    auxdata: 0xa2646970667358221220b41b8afca2821c3e415d4350c08e9c7e269851f2dadce48736cf9eb347ebb45364736f6c634300081f0033\n}\n",
				"bytecode": {
					"linkReferences": {},
					"object": "6080604052348015600e575f5ffd5b5060e58061001b5f395ff3fe6080604052348015600e575f5ffd5b50600436106030575f3560e01c80630b909479146034578063a6061bbc14604e575b5f5ffd5b603a6068565b604051604591906098565b60405180910390f35b6054607a565b604051605f91906098565b60405180910390f35b5f6103095f5d5f5f5c90508091505090565b5f5f5c905090565b5f819050919050565b6092816082565b82525050565b5f60208201905060a95f830184608b565b9291505056fea2646970667358221220b41b8afca2821c3e415d4350c08e9c7e269851f2dadce48736cf9eb347ebb45364736f6c634300081f0033",
					"opcodes": "PUSH1 0x80 PUSH1 0x40 MSTORE CALLVALUE DUP1 ISZERO PUSH1 0xE JUMPI PUSH0 PUSH0 REVERT JUMPDEST POP PUSH1 0xE5 DUP1 PUSH2 0x1B PUSH0 CODECOPY PUSH0 RETURN INVALID PUSH1 0x80 PUSH1 0x40 MSTORE CALLVALUE DUP1 ISZERO PUSH1 0xE JUMPI PUSH0 PUSH0 REVERT JUMPDEST POP PUSH1 0x4 CALLDATASIZE LT PUSH1 0x30 JUMPI PUSH0 CALLDATALOAD PUSH1 0xE0 SHR DUP1 PUSH4 0xB909479 EQ PUSH1 0x34 JUMPI DUP1 PUSH4 0xA6061BBC EQ PUSH1 0x4E JUMPI JUMPDEST PUSH0 PUSH0 REVERT JUMPDEST PUSH1 0x3A PUSH1 0x68 JUMP JUMPDEST PUSH1 0x40 MLOAD PUSH1 0x45 SWAP2 SWAP1 PUSH1 0x98 JUMP JUMPDEST PUSH1 0x40 MLOAD DUP1 SWAP2 SUB SWAP1 RETURN JUMPDEST PUSH1 0x54 PUSH1 0x7A JUMP JUMPDEST PUSH1 0x40 MLOAD PUSH1 0x5F SWAP2 SWAP1 PUSH1 0x98 JUMP JUMPDEST PUSH1 0x40 MLOAD DUP1 SWAP2 SUB SWAP1 RETURN JUMPDEST PUSH0 PUSH2 0x309 PUSH0 TSTORE PUSH0 PUSH0 TLOAD SWAP1 POP DUP1 SWAP2 POP POP SWAP1 JUMP JUMPDEST PUSH0 PUSH0 TLOAD SWAP1 POP SWAP1 JUMP JUMPDEST PUSH0 DUP2 SWAP1 POP SWAP2 SWAP1 POP JUMP JUMPDEST PUSH1 0x92 DUP2 PUSH1 0x82 JUMP JUMPDEST DUP3 MSTORE POP POP JUMP JUMPDEST PUSH0 PUSH1 0x20 DUP3 ADD SWAP1 POP PUSH1 0xA9 PUSH0 DUP4 ADD DUP5 PUSH1 0x8B JUMP JUMPDEST SWAP3 SWAP2 POP POP JUMP INVALID LOG2 PUSH5 0x6970667358 0x22 SLT KECCAK256 0xB4 SHL DUP11 0xFC LOG2 DUP3 SHR RETURNDATACOPY COINBASE TSTORE NUMBER POP 0xC0 DUP15 SWAP13 PUSH31 0x269851F2DADCE48736CF9EB347EBB45364736F6C634300081F003300000000 "
				},
				"gasEstimates": {
					"creation": {
						"codeDepositCost": "45800",
						"executionCost": "97",
						"totalCost": "45897"
					},
					"external": {
						"readLater()": "431",
						"writeAndRead()": "526"
					}
				},
				"methodIdentifiers": {
					"readLater()": "a6061bbc",
					"writeAndRead()": "0b909479"
				}
			},
			"storageLayout": {
				"storage": [],
				"types": null
			},
			"userdoc": {
				"kind": "user",
				"methods": {},
				"version": 1
			}
		}
	}
}