{
	"contracts/10.38.transfervssendvscall.sol": {
		"TransferExample": {
			"abi": [
				{
					"inputs": [
						{
							"internalType": "address payable",
							"name": "recipient",
							"type": "address"
						}
					],
					"name": "callEther",
					"outputs": [
						{
							"internalType": "bool",
							"name": "",
							"type": "bool"
						},
						{
							"internalType": "bytes",
							"name": "",
							"type": "bytes"
						}
					],
					"stateMutability": "payable",
					"type": "function"
				},
				{
					"inputs": [
						{
							"internalType": "address payable",
							"name": "recipient",
							"type": "address"
						}
					],
					"name": "sendEther",
					"outputs": [
						{
							"internalType": "bool",
							"name": "",
							"type": "bool"
						}
					],
					"stateMutability": "payable",
					"type": "function"
				},
				{
					"inputs": [
						{
							"internalType": "address payable",
							"name": "recipient",
							"type": "address"
						}
					],
					"name": "transferEther",
					"outputs": [],
					"stateMutability": "payable",
					"type": "function"
				}
			],
			"devdoc": {
				"kind": "dev",
				"methods": {},
				"version": 1
			},
			"evm": {
				"assembly": "    /* \"contracts/10.38.transfervssendvscall.sol\":58:1057  contract TransferExample {... */\n  mstore(0x40, 0x80)\n  callvalue\n  dup1\n  iszero\n  tag_1\n  jumpi\n  revert(0x00, 0x00)\ntag_1:\n  pop\n  dataSize(sub_0)\n  dup1\n  dataOffset(sub_0)\n  0x00\n  codecopy\n  0x00\n  return\nstop\n\nsub_0: assembly {\n        /* \"contracts/10.38.transfervssendvscall.sol\":58:1057  contract TransferExample {... */\n      mstore(0x40, 0x80)\n      jumpi(tag_1, lt(calldatasize, 0x04))\n      shr(0xe0, calldataload(0x00))\n      dup1\n      0x48c981e2\n      eq\n      tag_2\n      jumpi\n      dup1\n      0x6b55e991\n      eq\n      tag_3\n      jumpi\n      dup1\n      0x6d6e2411\n      eq\n      tag_4\n      jumpi\n    tag_1:\n      revert(0x00, 0x00)\n        /* \"contracts/10.38.transfervssendvscall.sol\":322:617  function sendEther(address payable recipient)... */\n    tag_2:\n      tag_5\n      0x04\n      dup1\n      calldatasize\n      sub\n      dup2\n      add\n      swap1\n      tag_6\n      swap2\n      swap1\n      tag_7\n      jump\t// in\n    tag_6:\n      tag_8\n      jump\t// in\n    tag_5:\n      mload(0x40)\n      tag_9\n      swap2\n      swap1\n      tag_10\n      jump\t// in\n    tag_9:\n      mload(0x40)\n      dup1\n      swap2\n      sub\n      swap1\n      return\n        /* \"contracts/10.38.transfervssendvscall.sol\":89:316  function transferEther(address payable recipient) public payable {... */\n    tag_3:\n      tag_11\n      0x04\n      dup1\n      calldatasize\n      sub\n      dup2\n      add\n      swap1\n      tag_12\n      swap2\n      swap1\n      tag_7\n      jump\t// in\n    tag_12:\n      tag_13\n      jump\t// in\n    tag_11:\n      stop\n        /* \"contracts/10.38.transfervssendvscall.sol\":623:978  function callEther(address payable recipient)... */\n    tag_4:\n      tag_14\n      0x04\n      dup1\n      calldatasize\n      sub\n      dup2\n      add\n      swap1\n      tag_15\n      swap2\n      swap1\n      tag_7\n      jump\t// in\n    tag_15:\n      tag_16\n      jump\t// in\n    tag_14:\n      mload(0x40)\n      tag_17\n      swap3\n      swap2\n      swap1\n      tag_18\n      jump\t// in\n    tag_17:\n      mload(0x40)\n      dup1\n      swap2\n      sub\n      swap1\n      return\n        /* \"contracts/10.38.transfervssendvscall.sol\":322:617  function sendEther(address payable recipient)... */\n    tag_8:\n        /* \"contracts/10.38.transfervssendvscall.sol\":416:420  bool */\n      0x00\n        /* \"contracts/10.38.transfervssendvscall.sol\":482:489  1 ether */\n      0x0de0b6b3a7640000\n        /* \"contracts/10.38.transfervssendvscall.sol\":457:478  address(this).balance */\n      selfbalance\n        /* \"contracts/10.38.transfervssendvscall.sol\":457:489  address(this).balance >= 1 ether */\n      lt\n      iszero\n        /* \"contracts/10.38.transfervssendvscall.sol\":436:544  require(... */\n      tag_20\n      jumpi\n      mload(0x40)\n      0x08c379a000000000000000000000000000000000000000000000000000000000\n      dup2\n      mstore\n      0x04\n      add\n      tag_21\n      swap1\n      tag_22\n      jump\t// in\n    tag_21:\n      mload(0x40)\n      dup1\n      swap2\n      sub\n      swap1\n      revert\n    tag_20:\n        /* \"contracts/10.38.transfervssendvscall.sol\":554:563  bool sent */\n      0x00\n        /* \"contracts/10.38.transfervssendvscall.sol\":566:575  recipient */\n      dup3\n        /* \"contracts/10.38.transfervssendvscall.sol\":566:580  recipient.send */\n      0xffffffffffffffffffffffffffffffffffffffff\n      and\n        /* \"contracts/10.38.transfervssendvscall.sol\":566:589  recipient.send(1 ether) */\n      0x08fc\n        /* \"contracts/10.38.transfervssendvscall.sol\":581:588  1 ether */\n      0x0de0b6b3a7640000\n        /* \"contracts/10.38.transfervssendvscall.sol\":566:589  recipient.send(1 ether) */\n      swap1\n      dup2\n      iszero\n      mul\n      swap1\n      mload(0x40)\n      0x00\n      mload(0x40)\n      dup1\n      dup4\n      sub\n      dup2\n      dup6\n      dup9\n      dup9\n      call\n      swap4\n      pop\n      pop\n      pop\n      pop\n        /* \"contracts/10.38.transfervssendvscall.sol\":554:589  bool sent = recipient.send(1 ether) */\n      swap1\n      pop\n        /* \"contracts/10.38.transfervssendvscall.sol\":606:610  sent */\n      dup1\n        /* \"contracts/10.38.transfervssendvscall.sol\":599:610  return sent */\n      swap2\n      pop\n      pop\n        /* \"contracts/10.38.transfervssendvscall.sol\":322:617  function sendEther(address payable recipient)... */\n      swap2\n      swap1\n      pop\n      jump\t// out\n        /* \"contracts/10.38.transfervssendvscall.sol\":89:316  function transferEther(address payable recipient) public payable {... */\n    tag_13:\n        /* \"contracts/10.38.transfervssendvscall.sol\":210:217  1 ether */\n      0x0de0b6b3a7640000\n        /* \"contracts/10.38.transfervssendvscall.sol\":185:206  address(this).balance */\n      selfbalance\n        /* \"contracts/10.38.transfervssendvscall.sol\":185:217  address(this).balance >= 1 ether */\n      lt\n      iszero\n        /* \"contracts/10.38.transfervssendvscall.sol\":164:272  require(... */\n      tag_25\n      jumpi\n      mload(0x40)\n      0x08c379a000000000000000000000000000000000000000000000000000000000\n      dup2\n      mstore\n      0x04\n      add\n      tag_26\n      swap1\n      tag_22\n      jump\t// in\n    tag_26:\n      mload(0x40)\n      dup1\n      swap2\n      sub\n      swap1\n      revert\n    tag_25:\n        /* \"contracts/10.38.transfervssendvscall.sol\":282:291  recipient */\n      dup1\n        /* \"contracts/10.38.transfervssendvscall.sol\":282:300  recipient.transfer */\n      0xffffffffffffffffffffffffffffffffffffffff\n      and\n        /* \"contracts/10.38.transfervssendvscall.sol\":282:309  recipient.transfer(1 ether) */\n      0x08fc\n        /* \"contracts/10.38.transfervssendvscall.sol\":301:308  1 ether */\n      0x0de0b6b3a7640000\n        /* \"contracts/10.38.transfervssendvscall.sol\":282:309  recipient.transfer(1 ether) */\n      swap1\n      dup2\n      iszero\n      mul\n      swap1\n      mload(0x40)\n      0x00\n      mload(0x40)\n      dup1\n      dup4\n      sub\n      dup2\n      dup6\n      dup9\n      dup9\n      call\n      swap4\n      pop\n      pop\n      pop\n      pop\n      iszero\n      dup1\n      iszero\n      tag_28\n      jumpi\n      returndatacopy(0x00, 0x00, returndatasize)\n      revert(0x00, returndatasize)\n    tag_28:\n      pop\n        /* \"contracts/10.38.transfervssendvscall.sol\":89:316  function transferEther(address payable recipient) public payable {... */\n      pop\n      jump\t// out\n        /* \"contracts/10.38.transfervssendvscall.sol\":623:978  function callEther(address payable recipient)... */\n    tag_16:\n        /* \"contracts/10.38.transfervssendvscall.sol\":717:721  bool */\n      0x00\n        /* \"contracts/10.38.transfervssendvscall.sol\":723:735  bytes memory */\n      0x60\n        /* \"contracts/10.38.transfervssendvscall.sol\":797:804  1 ether */\n      0x0de0b6b3a7640000\n        /* \"contracts/10.38.transfervssendvscall.sol\":772:793  address(this).balance */\n      selfbalance\n        /* \"contracts/10.38.transfervssendvscall.sol\":772:804  address(this).balance >= 1 ether */\n      lt\n      iszero\n        /* \"contracts/10.38.transfervssendvscall.sol\":751:859  require(... */\n      tag_30\n      jumpi\n      mload(0x40)\n      0x08c379a000000000000000000000000000000000000000000000000000000000\n      dup2\n      mstore\n      0x04\n      add\n      tag_31\n      swap1\n      tag_22\n      jump\t// in\n    tag_31:\n      mload(0x40)\n      dup1\n      swap2\n      sub\n      swap1\n      revert\n    tag_30:\n        /* \"contracts/10.38.transfervssendvscall.sol\":870:882  bool success */\n      0x00\n        /* \"contracts/10.38.transfervssendvscall.sol\":884:901  bytes memory data */\n      0x00\n        /* \"contracts/10.38.transfervssendvscall.sol\":905:914  recipient */\n      dup5\n        /* \"contracts/10.38.transfervssendvscall.sol\":905:919  recipient.call */\n      0xffffffffffffffffffffffffffffffffffffffff\n      and\n        /* \"contracts/10.38.transfervssendvscall.sol\":927:934  1 ether */\n      0x0de0b6b3a7640000\n        /* \"contracts/10.38.transfervssendvscall.sol\":905:939  recipient.call{value: 1 ether}(\"\") */\n      mload(0x40)\n      tag_32\n      swap1\n      tag_33\n      jump\t// in\n    tag_32:\n      0x00\n      mload(0x40)\n      dup1\n      dup4\n      sub\n      dup2\n      dup6\n      dup8\n      gas\n      call\n      swap3\n      pop\n      pop\n      pop\n      returndatasize\n      dup1\n      0x00\n      dup2\n      eq\n      tag_36\n      jumpi\n      mload(0x40)\n      swap2\n      pop\n      and(add(returndatasize, 0x3f), not(0x1f))\n      dup3\n      add\n      0x40\n      mstore\n      returndatasize\n      dup3\n      mstore\n      returndatasize\n      0x00\n      0x20\n      dup5\n      add\n      returndatacopy\n      jump(tag_35)\n    tag_36:\n      0x60\n      swap2\n      pop\n    tag_35:\n      pop\n        /* \"contracts/10.38.transfervssendvscall.sol\":869:939  (bool success, bytes memory data) = recipient.call{value: 1 ether}(\"\") */\n      swap2\n      pop\n      swap2\n      pop\n        /* \"contracts/10.38.transfervssendvscall.sol\":957:964  success */\n      dup2\n        /* \"contracts/10.38.transfervssendvscall.sol\":966:970  data */\n      dup2\n        /* \"contracts/10.38.transfervssendvscall.sol\":949:971  return (success, data) */\n      swap4\n      pop\n      swap4\n      pop\n      pop\n      pop\n        /* \"contracts/10.38.transfervssendvscall.sol\":623:978  function callEther(address payable recipient)... */\n      swap2\n      pop\n      swap2\n      jump\t// out\n        /* \"#utility.yul\":88:205   */\n    tag_38:\n        /* \"#utility.yul\":197:198   */\n      0x00\n        /* \"#utility.yul\":194:195   */\n      0x00\n        /* \"#utility.yul\":187:199   */\n      revert\n        /* \"#utility.yul\":334:460   */\n    tag_40:\n        /* \"#utility.yul\":371:378   */\n      0x00\n        /* \"#utility.yul\":411:453   */\n      0xffffffffffffffffffffffffffffffffffffffff\n        /* \"#utility.yul\":404:409   */\n      dup3\n        /* \"#utility.yul\":400:454   */\n      and\n        /* \"#utility.yul\":389:454   */\n      swap1\n      pop\n        /* \"#utility.yul\":334:460   */\n      swap2\n      swap1\n      pop\n      jump\t// out\n        /* \"#utility.yul\":466:570   */\n    tag_41:\n        /* \"#utility.yul\":511:518   */\n      0x00\n        /* \"#utility.yul\":540:564   */\n      tag_63\n        /* \"#utility.yul\":558:563   */\n      dup3\n        /* \"#utility.yul\":540:564   */\n      tag_40\n      jump\t// in\n    tag_63:\n        /* \"#utility.yul\":529:564   */\n      swap1\n      pop\n        /* \"#utility.yul\":466:570   */\n      swap2\n      swap1\n      pop\n      jump\t// out\n        /* \"#utility.yul\":576:714   */\n    tag_42:\n        /* \"#utility.yul\":657:689   */\n      tag_65\n        /* \"#utility.yul\":683:688   */\n      dup2\n        /* \"#utility.yul\":657:689   */\n      tag_41\n      jump\t// in\n    tag_65:\n        /* \"#utility.yul\":650:655   */\n      dup2\n        /* \"#utility.yul\":647:690   */\n      eq\n        /* \"#utility.yul\":637:708   */\n      tag_66\n      jumpi\n        /* \"#utility.yul\":704:705   */\n      0x00\n        /* \"#utility.yul\":701:702   */\n      0x00\n        /* \"#utility.yul\":694:706   */\n      revert\n        /* \"#utility.yul\":637:708   */\n    tag_66:\n        /* \"#utility.yul\":576:714   */\n      pop\n      jump\t// out\n        /* \"#utility.yul\":720:875   */\n    tag_43:\n        /* \"#utility.yul\":774:779   */\n      0x00\n        /* \"#utility.yul\":812:818   */\n      dup2\n        /* \"#utility.yul\":799:819   */\n      calldataload\n        /* \"#utility.yul\":790:819   */\n      swap1\n      pop\n        /* \"#utility.yul\":828:869   */\n      tag_68\n        /* \"#utility.yul\":863:868   */\n      dup2\n        /* \"#utility.yul\":828:869   */\n      tag_42\n      jump\t// in\n    tag_68:\n        /* \"#utility.yul\":720:875   */\n      swap3\n      swap2\n      pop\n      pop\n      jump\t// out\n        /* \"#utility.yul\":881:1226   */\n    tag_7:\n        /* \"#utility.yul\":948:954   */\n      0x00\n        /* \"#utility.yul\":997:999   */\n      0x20\n        /* \"#utility.yul\":985:994   */\n      dup3\n        /* \"#utility.yul\":976:983   */\n      dup5\n        /* \"#utility.yul\":972:995   */\n      sub\n        /* \"#utility.yul\":968:1000   */\n      slt\n        /* \"#utility.yul\":965:1084   */\n      iszero\n      tag_70\n      jumpi\n        /* \"#utility.yul\":1003:1082   */\n      tag_71\n      tag_38\n      jump\t// in\n    tag_71:\n        /* \"#utility.yul\":965:1084   */\n    tag_70:\n        /* \"#utility.yul\":1123:1124   */\n      0x00\n        /* \"#utility.yul\":1148:1209   */\n      tag_72\n        /* \"#utility.yul\":1201:1208   */\n      dup5\n        /* \"#utility.yul\":1192:1198   */\n      dup3\n        /* \"#utility.yul\":1181:1190   */\n      dup6\n        /* \"#utility.yul\":1177:1199   */\n      add\n        /* \"#utility.yul\":1148:1209   */\n      tag_43\n      jump\t// in\n    tag_72:\n        /* \"#utility.yul\":1138:1209   */\n      swap2\n      pop\n        /* \"#utility.yul\":1094:1219   */\n      pop\n        /* \"#utility.yul\":881:1226   */\n      swap3\n      swap2\n      pop\n      pop\n      jump\t// out\n        /* \"#utility.yul\":1232:1322   */\n    tag_44:\n        /* \"#utility.yul\":1266:1273   */\n      0x00\n        /* \"#utility.yul\":1309:1314   */\n      dup2\n        /* \"#utility.yul\":1302:1315   */\n      iszero\n        /* \"#utility.yul\":1295:1316   */\n      iszero\n        /* \"#utility.yul\":1284:1316   */\n      swap1\n      pop\n        /* \"#utility.yul\":1232:1322   */\n      swap2\n      swap1\n      pop\n      jump\t// out\n        /* \"#utility.yul\":1328:1437   */\n    tag_45:\n        /* \"#utility.yul\":1409:1430   */\n      tag_75\n        /* \"#utility.yul\":1424:1429   */\n      dup2\n        /* \"#utility.yul\":1409:1430   */\n      tag_44\n      jump\t// in\n    tag_75:\n        /* \"#utility.yul\":1404:1407   */\n      dup3\n        /* \"#utility.yul\":1397:1431   */\n      mstore\n        /* \"#utility.yul\":1328:1437   */\n      pop\n      pop\n      jump\t// out\n        /* \"#utility.yul\":1443:1653   */\n    tag_10:\n        /* \"#utility.yul\":1530:1534   */\n      0x00\n        /* \"#utility.yul\":1568:1570   */\n      0x20\n        /* \"#utility.yul\":1557:1566   */\n      dup3\n        /* \"#utility.yul\":1553:1571   */\n      add\n        /* \"#utility.yul\":1545:1571   */\n      swap1\n      pop\n        /* \"#utility.yul\":1581:1646   */\n      tag_77\n        /* \"#utility.yul\":1643:1644   */\n      0x00\n        /* \"#utility.yul\":1632:1641   */\n      dup4\n        /* \"#utility.yul\":1628:1645   */\n      add\n        /* \"#utility.yul\":1619:1625   */\n      dup5\n        /* \"#utility.yul\":1581:1646   */\n      tag_45\n      jump\t// in\n    tag_77:\n        /* \"#utility.yul\":1443:1653   */\n      swap3\n      swap2\n      pop\n      pop\n      jump\t// out\n        /* \"#utility.yul\":1659:1757   */\n    tag_46:\n        /* \"#utility.yul\":1710:1716   */\n      0x00\n        /* \"#utility.yul\":1744:1749   */\n      dup2\n        /* \"#utility.yul\":1738:1750   */\n      mload\n        /* \"#utility.yul\":1728:1750   */\n      swap1\n      pop\n        /* \"#utility.yul\":1659:1757   */\n      swap2\n      swap1\n      pop\n      jump\t// out\n        /* \"#utility.yul\":1763:1931   */\n    tag_47:\n        /* \"#utility.yul\":1846:1857   */\n      0x00\n        /* \"#utility.yul\":1880:1886   */\n      dup3\n        /* \"#utility.yul\":1875:1878   */\n      dup3\n        /* \"#utility.yul\":1868:1887   */\n      mstore\n        /* \"#utility.yul\":1920:1924   */\n      0x20\n        /* \"#utility.yul\":1915:1918   */\n      dup3\n        /* \"#utility.yul\":1911:1925   */\n      add\n        /* \"#utility.yul\":1896:1925   */\n      swap1\n      pop\n        /* \"#utility.yul\":1763:1931   */\n      swap3\n      swap2\n      pop\n      pop\n      jump\t// out\n        /* \"#utility.yul\":1937:2076   */\n    tag_48:\n        /* \"#utility.yul\":2026:2032   */\n      dup3\n        /* \"#utility.yul\":2021:2024   */\n      dup2\n        /* \"#utility.yul\":2016:2019   */\n      dup4\n        /* \"#utility.yul\":2010:2033   */\n      mcopy\n        /* \"#utility.yul\":2067:2068   */\n      0x00\n        /* \"#utility.yul\":2058:2064   */\n      dup4\n        /* \"#utility.yul\":2053:2056   */\n      dup4\n        /* \"#utility.yul\":2049:2065   */\n      add\n        /* \"#utility.yul\":2042:2069   */\n      mstore\n        /* \"#utility.yul\":1937:2076   */\n      pop\n      pop\n      pop\n      jump\t// out\n        /* \"#utility.yul\":2082:2184   */\n    tag_49:\n        /* \"#utility.yul\":2123:2129   */\n      0x00\n        /* \"#utility.yul\":2174:2176   */\n      0x1f\n        /* \"#utility.yul\":2170:2177   */\n      not\n        /* \"#utility.yul\":2165:2167   */\n      0x1f\n        /* \"#utility.yul\":2158:2163   */\n      dup4\n        /* \"#utility.yul\":2154:2168   */\n      add\n        /* \"#utility.yul\":2150:2178   */\n      and\n        /* \"#utility.yul\":2140:2178   */\n      swap1\n      pop\n        /* \"#utility.yul\":2082:2184   */\n      swap2\n      swap1\n      pop\n      jump\t// out\n        /* \"#utility.yul\":2190:2563   */\n    tag_50:\n        /* \"#utility.yul\":2276:2279   */\n      0x00\n        /* \"#utility.yul\":2304:2342   */\n      tag_83\n        /* \"#utility.yul\":2336:2341   */\n      dup3\n        /* \"#utility.yul\":2304:2342   */\n      tag_46\n      jump\t// in\n    tag_83:\n        /* \"#utility.yul\":2358:2428   */\n      tag_84\n        /* \"#utility.yul\":2421:2427   */\n      dup2\n        /* \"#utility.yul\":2416:2419   */\n      dup6\n        /* \"#utility.yul\":2358:2428   */\n      tag_47\n      jump\t// in\n    tag_84:\n        /* \"#utility.yul\":2351:2428   */\n      swap4\n      pop\n        /* \"#utility.yul\":2437:2502   */\n      tag_85\n        /* \"#utility.yul\":2495:2501   */\n      dup2\n        /* \"#utility.yul\":2490:2493   */\n      dup6\n        /* \"#utility.yul\":2483:2487   */\n      0x20\n        /* \"#utility.yul\":2476:2481   */\n      dup7\n        /* \"#utility.yul\":2472:2488   */\n      add\n        /* \"#utility.yul\":2437:2502   */\n      tag_48\n      jump\t// in\n    tag_85:\n        /* \"#utility.yul\":2527:2556   */\n      tag_86\n        /* \"#utility.yul\":2549:2555   */\n      dup2\n        /* \"#utility.yul\":2527:2556   */\n      tag_49\n      jump\t// in\n    tag_86:\n        /* \"#utility.yul\":2522:2525   */\n      dup5\n        /* \"#utility.yul\":2518:2557   */\n      add\n        /* \"#utility.yul\":2511:2557   */\n      swap2\n      pop\n        /* \"#utility.yul\":2280:2563   */\n      pop\n        /* \"#utility.yul\":2190:2563   */\n      swap3\n      swap2\n      pop\n      pop\n      jump\t// out\n        /* \"#utility.yul\":2569:2976   */\n    tag_18:\n        /* \"#utility.yul\":2702:2706   */\n      0x00\n        /* \"#utility.yul\":2740:2742   */\n      0x40\n        /* \"#utility.yul\":2729:2738   */\n      dup3\n        /* \"#utility.yul\":2725:2743   */\n      add\n        /* \"#utility.yul\":2717:2743   */\n      swap1\n      pop\n        /* \"#utility.yul\":2753:2818   */\n      tag_88\n        /* \"#utility.yul\":2815:2816   */\n      0x00\n        /* \"#utility.yul\":2804:2813   */\n      dup4\n        /* \"#utility.yul\":2800:2817   */\n      add\n        /* \"#utility.yul\":2791:2797   */\n      dup6\n        /* \"#utility.yul\":2753:2818   */\n      tag_45\n      jump\t// in\n    tag_88:\n        /* \"#utility.yul\":2865:2874   */\n      dup2\n        /* \"#utility.yul\":2859:2863   */\n      dup2\n        /* \"#utility.yul\":2855:2875   */\n      sub\n        /* \"#utility.yul\":2850:2852   */\n      0x20\n        /* \"#utility.yul\":2839:2848   */\n      dup4\n        /* \"#utility.yul\":2835:2853   */\n      add\n        /* \"#utility.yul\":2828:2876   */\n      mstore\n        /* \"#utility.yul\":2893:2969   */\n      tag_89\n        /* \"#utility.yul\":2964:2968   */\n      dup2\n        /* \"#utility.yul\":2955:2961   */\n      dup5\n        /* \"#utility.yul\":2893:2969   */\n      tag_50\n      jump\t// in\n    tag_89:\n        /* \"#utility.yul\":2885:2969   */\n      swap1\n      pop\n        /* \"#utility.yul\":2569:2976   */\n      swap4\n      swap3\n      pop\n      pop\n      pop\n      jump\t// out\n        /* \"#utility.yul\":2982:3151   */\n    tag_51:\n        /* \"#utility.yul\":3066:3077   */\n      0x00\n        /* \"#utility.yul\":3100:3106   */\n      dup3\n        /* \"#utility.yul\":3095:3098   */\n      dup3\n        /* \"#utility.yul\":3088:3107   */\n      mstore\n        /* \"#utility.yul\":3140:3144   */\n      0x20\n        /* \"#utility.yul\":3135:3138   */\n      dup3\n        /* \"#utility.yul\":3131:3145   */\n      add\n        /* \"#utility.yul\":3116:3145   */\n      swap1\n      pop\n        /* \"#utility.yul\":2982:3151   */\n      swap3\n      swap2\n      pop\n      pop\n      jump\t// out\n        /* \"#utility.yul\":3157:3336   */\n    tag_52:\n        /* \"#utility.yul\":3297:3328   */\n      0x496e73756666696369656e7420636f6e74726163742062616c616e6365000000\n        /* \"#utility.yul\":3293:3294   */\n      0x00\n        /* \"#utility.yul\":3285:3291   */\n      dup3\n        /* \"#utility.yul\":3281:3295   */\n      add\n        /* \"#utility.yul\":3274:3329   */\n      mstore\n        /* \"#utility.yul\":3157:3336   */\n      pop\n      jump\t// out\n        /* \"#utility.yul\":3342:3708   */\n    tag_53:\n        /* \"#utility.yul\":3484:3487   */\n      0x00\n        /* \"#utility.yul\":3505:3572   */\n      tag_93\n        /* \"#utility.yul\":3569:3571   */\n      0x1d\n        /* \"#utility.yul\":3564:3567   */\n      dup4\n        /* \"#utility.yul\":3505:3572   */\n      tag_51\n      jump\t// in\n    tag_93:\n        /* \"#utility.yul\":3498:3572   */\n      swap2\n      pop\n        /* \"#utility.yul\":3581:3674   */\n      tag_94\n        /* \"#utility.yul\":3670:3673   */\n      dup3\n        /* \"#utility.yul\":3581:3674   */\n      tag_52\n      jump\t// in\n    tag_94:\n        /* \"#utility.yul\":3699:3701   */\n      0x20\n        /* \"#utility.yul\":3694:3697   */\n      dup3\n        /* \"#utility.yul\":3690:3702   */\n      add\n        /* \"#utility.yul\":3683:3702   */\n      swap1\n      pop\n        /* \"#utility.yul\":3342:3708   */\n      swap2\n      swap1\n      pop\n      jump\t// out\n        /* \"#utility.yul\":3714:4133   */\n    tag_22:\n        /* \"#utility.yul\":3880:3884   */\n      0x00\n        /* \"#utility.yul\":3918:3920   */\n      0x20\n        /* \"#utility.yul\":3907:3916   */\n      dup3\n        /* \"#utility.yul\":3903:3921   */\n      add\n        /* \"#utility.yul\":3895:3921   */\n      swap1\n      pop\n        /* \"#utility.yul\":3967:3976   */\n      dup2\n        /* \"#utility.yul\":3961:3965   */\n      dup2\n        /* \"#utility.yul\":3957:3977   */\n      sub\n        /* \"#utility.yul\":3953:3954   */\n      0x00\n        /* \"#utility.yul\":3942:3951   */\n      dup4\n        /* \"#utility.yul\":3938:3955   */\n      add\n        /* \"#utility.yul\":3931:3978   */\n      mstore\n        /* \"#utility.yul\":3995:4126   */\n      tag_96\n        /* \"#utility.yul\":4121:4125   */\n      dup2\n        /* \"#utility.yul\":3995:4126   */\n      tag_53\n      jump\t// in\n    tag_96:\n        /* \"#utility.yul\":3987:4126   */\n      swap1\n      pop\n        /* \"#utility.yul\":3714:4133   */\n      swap2\n      swap1\n      pop\n      jump\t// out\n        /* \"#utility.yul\":4139:4286   */\n    tag_54:\n        /* \"#utility.yul\":4240:4251   */\n      0x00\n        /* \"#utility.yul\":4277:4280   */\n      dup2\n        /* \"#utility.yul\":4262:4280   */\n      swap1\n      pop\n        /* \"#utility.yul\":4139:4286   */\n      swap3\n      swap2\n      pop\n      pop\n      jump\t// out\n        /* \"#utility.yul\":4292:4406   */\n    tag_55:\n      pop\n      jump\t// out\n        /* \"#utility.yul\":4412:4810   */\n    tag_56:\n        /* \"#utility.yul\":4571:4574   */\n      0x00\n        /* \"#utility.yul\":4592:4675   */\n      tag_100\n        /* \"#utility.yul\":4673:4674   */\n      0x00\n        /* \"#utility.yul\":4668:4671   */\n      dup4\n        /* \"#utility.yul\":4592:4675   */\n      tag_54\n      jump\t// in\n    tag_100:\n        /* \"#utility.yul\":4585:4675   */\n      swap2\n      pop\n        /* \"#utility.yul\":4684:4777   */\n      tag_101\n        /* \"#utility.yul\":4773:4776   */\n      dup3\n        /* \"#utility.yul\":4684:4777   */\n      tag_55\n      jump\t// in\n    tag_101:\n        /* \"#utility.yul\":4802:4803   */\n      0x00\n        /* \"#utility.yul\":4797:4800   */\n      dup3\n        /* \"#utility.yul\":4793:4804   */\n      add\n        /* \"#utility.yul\":4786:4804   */\n      swap1\n      pop\n        /* \"#utility.yul\":4412:4810   */\n      swap2\n      swap1\n      pop\n      jump\t// out\n        /* \"#utility.yul\":4816:5195   */\n    tag_33:\n        /* \"#utility.yul\":5000:5003   */\n      0x00\n        /* \"#utility.yul\":5022:5169   */\n      tag_103\n        /* \"#utility.yul\":5165:5168   */\n      dup3\n        /* \"#utility.yul\":5022:5169   */\n      tag_56\n      jump\t// in\n    tag_103:\n        /* \"#utility.yul\":5015:5169   */\n      swap2\n      pop\n        /* \"#utility.yul\":5186:5189   */\n      dup2\n        /* \"#utility.yul\":5179:5189   */\n      swap1\n      pop\n        /* \"#utility.yul\":4816:5195   */\n      swap2\n      swap1\n      pop\n      jump\t// out\n\n    auxdata: 0xa2646970667358221220c49c02146ff9f406dfa2342150d6c026d5420b2bb82be1c4304ea06c0a3fcaf864736f6c634300081e0033\n}\n",
				"bytecode": {
					"linkReferences": {},
					"object": "6080604052348015600e575f5ffd5b506104f88061001c5f395ff3fe608060405260043610610033575f3560e01c806348c981e2146100375780636b55e991146100675780636d6e241114610083575b5f5ffd5b610051600480360381019061004c919061030d565b6100b4565b60405161005e9190610352565b60405180910390f35b610081600480360381019061007c919061030d565b610148565b005b61009d6004803603810190610098919061030d565b6101e2565b6040516100ab9291906103db565b60405180910390f35b5f670de0b6b3a7640000471015610100576040517f08c379a00000000000000000000000000000000000000000000000000000000081526004016100f790610463565b60405180910390fd5b5f8273ffffffffffffffffffffffffffffffffffffffff166108fc670de0b6b3a764000090811502906040515f60405180830381858888f19350505050905080915050919050565b670de0b6b3a7640000471015610193576040517f08c379a000000000000000000000000000000000000000000000000000000000815260040161018a90610463565b60405180910390fd5b8073ffffffffffffffffffffffffffffffffffffffff166108fc670de0b6b3a764000090811502906040515f60405180830381858888f193505050501580156101de573d5f5f3e3d5ffd5b5050565b5f6060670de0b6b3a7640000471015610230576040517f08c379a000000000000000000000000000000000000000000000000000000000815260040161022790610463565b60405180910390fd5b5f5f8473ffffffffffffffffffffffffffffffffffffffff16670de0b6b3a764000060405161025e906104ae565b5f6040518083038185875af1925050503d805f8114610298576040519150601f19603f3d011682016040523d82523d5f602084013e61029d565b606091505b50915091508181935093505050915091565b5f5ffd5b5f73ffffffffffffffffffffffffffffffffffffffff82169050919050565b5f6102dc826102b3565b9050919050565b6102ec816102d2565b81146102f6575f5ffd5b50565b5f81359050610307816102e3565b92915050565b5f60208284031215610322576103216102af565b5b5f61032f848285016102f9565b91505092915050565b5f8115159050919050565b61034c81610338565b82525050565b5f6020820190506103655f830184610343565b92915050565b5f81519050919050565b5f82825260208201905092915050565b8281835e5f83830152505050565b5f601f19601f8301169050919050565b5f6103ad8261036b565b6103b78185610375565b93506103c7818560208601610385565b6103d081610393565b840191505092915050565b5f6040820190506103ee5f830185610343565b818103602083015261040081846103a3565b90509392505050565b5f82825260208201905092915050565b7f496e73756666696369656e7420636f6e74726163742062616c616e63650000005f82015250565b5f61044d601d83610409565b915061045882610419565b602082019050919050565b5f6020820190508181035f83015261047a81610441565b9050919050565b5f81905092915050565b50565b5f6104995f83610481565b91506104a48261048b565b5f82019050919050565b5f6104b88261048e565b915081905091905056fea2646970667358221220c49c02146ff9f406dfa2342150d6c026d5420b2bb82be1c4304ea06c0a3fcaf864736f6c634300081e0033",
					"opcodes": "PUSH1 0x80 PUSH1 0x40 MSTORE CALLVALUE DUP1 ISZERO PUSH1 0xE JUMPI PUSH0 PUSH0 REVERT JUMPDEST POP PUSH2 0x4F8 DUP1 PUSH2 0x1C PUSH0 CODECOPY PUSH0 RETURN INVALID PUSH1 0x80 PUSH1 0x40 MSTORE PUSH1 0x4 CALLDATASIZE LT PUSH2 0x33 JUMPI PUSH0 CALLDATALOAD PUSH1 0xE0 SHR DUP1 PUSH4 0x48C981E2 EQ PUSH2 0x37 JUMPI DUP1 PUSH4 0x6B55E991 EQ PUSH2 0x67 JUMPI DUP1 PUSH4 0x6D6E2411 EQ PUSH2 0x83 JUMPI JUMPDEST PUSH0 PUSH0 REVERT JUMPDEST PUSH2 0x51 PUSH1 0x4 DUP1 CALLDATASIZE SUB DUP2 ADD SWAP1 PUSH2 0x4C SWAP2 SWAP1 PUSH2 0x30D JUMP JUMPDEST PUSH2 0xB4 JUMP JUMPDEST PUSH1 0x40 MLOAD PUSH2 0x5E SWAP2 SWAP1 PUSH2 0x352 JUMP JUMPDEST PUSH1 0x40 MLOAD DUP1 SWAP2 SUB SWAP1 RETURN JUMPDEST PUSH2 0x81 PUSH1 0x4 DUP1 CALLDATASIZE SUB DUP2 ADD SWAP1 PUSH2 0x7C SWAP2 SWAP1 PUSH2 0x30D JUMP JUMPDEST PUSH2 0x148 JUMP JUMPDEST STOP JUMPDEST PUSH2 0x9D PUSH1 0x4 DUP1 CALLDATASIZE SUB DUP2 ADD SWAP1 PUSH2 0x98 SWAP2 SWAP1 PUSH2 0x30D JUMP JUMPDEST PUSH2 0x1E2 JUMP JUMPDEST PUSH1 0x40 MLOAD PUSH2 0xAB SWAP3 SWAP2 SWAP1 PUSH2 0x3DB JUMP JUMPDEST PUSH1 0x40 MLOAD DUP1 SWAP2 SUB SWAP1 RETURN JUMPDEST PUSH0 PUSH8 0xDE0B6B3A7640000 SELFBALANCE LT ISZERO PUSH2 0x100 JUMPI PUSH1 0x40 MLOAD PUSH32 0x8C379A000000000000000000000000000000000000000000000000000000000 DUP2 MSTORE PUSH1 0x4 ADD PUSH2 0xF7 SWAP1 PUSH2 0x463 JUMP JUMPDEST PUSH1 0x40 MLOAD DUP1 SWAP2 SUB SWAP1 REVERT JUMPDEST PUSH0 DUP3 PUSH20 0xFFFFFFFFFFFFFFFFFFFFFFFFFFFFFFFFFFFFFFFF AND PUSH2 0x8FC PUSH8 0xDE0B6B3A7640000 SWAP1 DUP2 ISZERO MUL SWAP1 PUSH1 0x40 MLOAD PUSH0 PUSH1 0x40 MLOAD DUP1 DUP4 SUB DUP2 DUP6 DUP9 DUP9 CALL SWAP4 POP POP POP POP SWAP1 POP DUP1 SWAP2 POP POP SWAP2 SWAP1 POP JUMP JUMPDEST PUSH8 0xDE0B6B3A7640000 SELFBALANCE LT ISZERO PUSH2 0x193 JUMPI PUSH1 0x40 MLOAD PUSH32 0x8C379A000000000000000000000000000000000000000000000000000000000 DUP2 MSTORE PUSH1 0x4 ADD PUSH2 0x18A SWAP1 PUSH2 0x463 JUMP JUMPDEST PUSH1 0x40 MLOAD DUP1 SWAP2 SUB SWAP1 REVERT JUMPDEST DUP1 PUSH20 0xFFFFFFFFFFFFFFFFFFFFFFFFFFFFFFFFFFFFFFFF AND PUSH2 0x8FC PUSH8 0xDE0B6B3A7640000 SWAP1 DUP2 ISZERO MUL SWAP1 PUSH1 0x40 MLOAD PUSH0 PUSH1 0x40 MLOAD DUP1 DUP4 SUB DUP2 DUP6 DUP9 DUP9 CALL SWAP4 POP POP POP POP ISZERO DUP1 ISZERO PUSH2 0x1DE JUMPI RETURNDATASIZE PUSH0 PUSH0 RETURNDATACOPY RETURNDATASIZE PUSH0 REVERT JUMPDEST POP POP JUMP JUMPDEST PUSH0 PUSH1 0x60 PUSH8 0xDE0B6B3A7640000 SELFBALANCE LT ISZERO PUSH2 0x230 JUMPI PUSH1 0x40 MLOAD PUSH32 0x8C379A000000000000000000000000000000000000000000000000000000000 DUP2 MSTORE PUSH1 0x4 ADD PUSH2 0x227 SWAP1 PUSH2 0x463 JUMP JUMPDEST PUSH1 0x40 MLOAD DUP1 SWAP2 SUB SWAP1 REVERT JUMPDEST PUSH0 PUSH0 DUP5 PUSH20 0xFFFFFFFFFFFFFFFFFFFFFFFFFFFFFFFFFFFFFFFF AND PUSH8 0xDE0B6B3A7640000 PUSH1 0x40 MLOAD PUSH2 0x25E SWAP1 PUSH2 0x4AE JUMP JUMPDEST PUSH0 PUSH1 0x40 MLOAD DUP1 DUP4 SUB DUP2 DUP6 DUP8 GAS CALL SWAP3 POP POP POP RETURNDATASIZE DUP1 PUSH0 DUP2 EQ PUSH2 0x298 JUMPI PUSH1 0x40 MLOAD SWAP2 POP PUSH1 0x1F NOT PUSH1 0x3F RETURNDATASIZE ADD AND DUP3 ADD PUSH1 0x40 MSTORE RETURNDATASIZE DUP3 MSTORE RETURNDATASIZE PUSH0 PUSH1 0x20 DUP5 ADD RETURNDATACOPY PUSH2 0x29D JUMP JUMPDEST PUSH1 0x60 SWAP2 POP JUMPDEST POP SWAP2 POP SWAP2 POP DUP2 DUP2 SWAP4 POP SWAP4 POP POP POP SWAP2 POP SWAP2 JUMP JUMPDEST PUSH0 PUSH0 REVERT JUMPDEST PUSH0 PUSH20 0xFFFFFFFFFFFFFFFFFFFFFFFFFFFFFFFFFFFFFFFF DUP3 AND SWAP1 POP SWAP2 SWAP1 POP JUMP JUMPDEST PUSH0 PUSH2 0x2DC DUP3 PUSH2 0x2B3 JUMP JUMPDEST SWAP1 POP SWAP2 SWAP1 POP JUMP JUMPDEST PUSH2 0x2EC DUP2 PUSH2 0x2D2 JUMP JUMPDEST DUP2 EQ PUSH2 0x2F6 JUMPI PUSH0 PUSH0 REVERT JUMPDEST POP JUMP JUMPDEST PUSH0 DUP2 CALLDATALOAD SWAP1 POP PUSH2 0x307 DUP2 PUSH2 0x2E3 JUMP JUMPDEST SWAP3 SWAP2 POP POP JUMP JUMPDEST PUSH0 PUSH1 0x20 DUP3 DUP5 SUB SLT ISZERO PUSH2 0x322 JUMPI PUSH2 0x321 PUSH2 0x2AF JUMP JUMPDEST JUMPDEST PUSH0 PUSH2 0x32F DUP5 DUP3 DUP6 ADD PUSH2 0x2F9 JUMP JUMPDEST SWAP2 POP POP SWAP3 SWAP2 POP POP JUMP JUMPDEST PUSH0 DUP2 ISZERO ISZERO SWAP1 POP SWAP2 SWAP1 POP JUMP JUMPDEST PUSH2 0x34C DUP2 PUSH2 0x338 JUMP JUMPDEST DUP3 MSTORE POP POP JUMP JUMPDEST PUSH0 PUSH1 0x20 DUP3 ADD SWAP1 POP PUSH2 0x365 PUSH0 DUP4 ADD DUP5 PUSH2 0x343 JUMP JUMPDEST SWAP3 SWAP2 POP POP JUMP JUMPDEST PUSH0 DUP2 MLOAD SWAP1 POP SWAP2 SWAP1 POP JUMP JUMPDEST PUSH0 DUP3 DUP3 MSTORE PUSH1 0x20 DUP3 ADD SWAP1 POP SWAP3 SWAP2 POP POP JUMP JUMPDEST DUP3 DUP2 DUP4 MCOPY PUSH0 DUP4 DUP4 ADD MSTORE POP POP POP JUMP JUMPDEST PUSH0 PUSH1 0x1F NOT PUSH1 0x1F DUP4 ADD AND SWAP1 POP SWAP2 SWAP1 POP JUMP JUMPDEST PUSH0 PUSH2 0x3AD DUP3 PUSH2 0x36B JUMP JUMPDEST PUSH2 0x3B7 DUP2 DUP6 PUSH2 0x375 JUMP JUMPDEST SWAP4 POP PUSH2 0x3C7 DUP2 DUP6 PUSH1 0x20 DUP7 ADD PUSH2 0x385 JUMP JUMPDEST PUSH2 0x3D0 DUP2 PUSH2 0x393 JUMP JUMPDEST DUP5 ADD SWAP2 POP POP SWAP3 SWAP2 POP POP JUMP JUMPDEST PUSH0 PUSH1 0x40 DUP3 ADD SWAP1 POP PUSH2 0x3EE PUSH0 DUP4 ADD DUP6 PUSH2 0x343 JUMP JUMPDEST DUP2 DUP2 SUB PUSH1 0x20 DUP4 ADD MSTORE PUSH2 0x400 DUP2 DUP5 PUSH2 0x3A3 JUMP JUMPDEST SWAP1 POP SWAP4 SWAP3 POP POP POP JUMP JUMPDEST PUSH0 DUP3 DUP3 MSTORE PUSH1 0x20 DUP3 ADD SWAP1 POP SWAP3 SWAP2 POP POP JUMP JUMPDEST PUSH32 0x496E73756666696369656E7420636F6E74726163742062616C616E6365000000 PUSH0 DUP3 ADD MSTORE POP JUMP JUMPDEST PUSH0 PUSH2 0x44D PUSH1 0x1D DUP4 PUSH2 0x409 JUMP JUMPDEST SWAP2 POP PUSH2 0x458 DUP3 PUSH2 0x419 JUMP JUMPDEST PUSH1 0x20 DUP3 ADD SWAP1 POP SWAP2 SWAP1 POP JUMP JUMPDEST PUSH0 PUSH1 0x20 DUP3 ADD SWAP1 POP DUP2 DUP2 SUB PUSH0 DUP4 ADD MSTORE PUSH2 0x47A DUP2 PUSH2 0x441 JUMP JUMPDEST SWAP1 POP SWAP2 SWAP1 POP JUMP JUMPDEST PUSH0 DUP2 SWAP1 POP SWAP3 SWAP2 POP POP JUMP JUMPDEST POP JUMP JUMPDEST PUSH0 PUSH2 0x499 PUSH0 DUP4 PUSH2 0x481 JUMP JUMPDEST SWAP2 POP PUSH2 0x4A4 DUP3 PUSH2 0x48B JUMP JUMPDEST PUSH0 DUP3 ADD SWAP1 POP SWAP2 SWAP1 POP JUMP JUMPDEST PUSH0 PUSH2 0x4B8 DUP3 PUSH2 0x48E JUMP JUMPDEST SWAP2 POP DUP2 SWAP1 POP SWAP2 SWAP1 POP JUMP INVALID LOG2 PUSH5 0x6970667358 0x22 SLT KECCAK256 0xC4 SWAP13 MUL EQ PUSH16 0xF9F406DFA2342150D6C026D5420B2BB8 0x2B RJUMPI 0xC430 0x4E LOG0 PUSH13 0xA3FCAF864736F6C634300081E STOP CALLER "
				},
				"gasEstimates": {
					"creation": {
						"codeDepositCost": "254400",
						"executionCost": "292",
						"totalCost": "254692"
					},
					"external": {
						"callEther(address)": "infinite",
						"sendEther(address)": "infinite",
						"transferEther(address)": "infinite"
					}
				},
				"methodIdentifiers": {
					"callEther(address)": "6d6e2411",
					"sendEther(address)": "48c981e2",
					"transferEther(address)": "6b55e991"
				}
			},
			"storageLayout": {
				"storage": [],
				"types": null
			},
			"userdoc": {
				"kind": "user",
				"methods": {},
				"version": 1
			}
		}
	}
}