{
	"contracts/walletgraphql.sol": {
		"SimpleWallet": {
			"abi": [
				{
					"inputs": [],
					"stateMutability": "nonpayable",
					"type": "constructor"
				},
				{
					"anonymous": false,
					"inputs": [
						{
							"indexed": true,
							"internalType": "address",
							"name": "sender",
							"type": "address"
						},
						{
							"indexed": false,
							"internalType": "uint256",
							"name": "amount",
							"type": "uint256"
						},
						{
							"indexed": false,
							"internalType": "uint256",
							"name": "timestamp",
							"type": "uint256"
						}
					],
					"name": "ContractFunded",
					"type": "event"
				},
				{
					"anonymous": false,
					"inputs": [
						{
							"indexed": true,
							"internalType": "address",
							"name": "to",
							"type": "address"
						},
						{
							"indexed": false,
							"internalType": "uint256",
							"name": "amount",
							"type": "uint256"
						},
						{
							"indexed": false,
							"internalType": "uint256",
							"name": "timestamp",
							"type": "uint256"
						}
					],
					"name": "ContractToUserTransfer",
					"type": "event"
				},
				{
					"anonymous": false,
					"inputs": [
						{
							"indexed": true,
							"internalType": "address",
							"name": "from",
							"type": "address"
						},
						{
							"indexed": true,
							"internalType": "address",
							"name": "to",
							"type": "address"
						},
						{
							"indexed": false,
							"internalType": "uint256",
							"name": "amount",
							"type": "uint256"
						},
						{
							"indexed": false,
							"internalType": "uint256",
							"name": "timestamp",
							"type": "uint256"
						}
					],
					"name": "DirectUserTransfer",
					"type": "event"
				},
				{
					"anonymous": false,
					"inputs": [
						{
							"indexed": false,
							"internalType": "bool",
							"name": "stop",
							"type": "bool"
						}
					],
					"name": "EmergencyToggled",
					"type": "event"
				},
				{
					"anonymous": false,
					"inputs": [
						{
							"indexed": true,
							"internalType": "address",
							"name": "owner",
							"type": "address"
						},
						{
							"indexed": false,
							"internalType": "uint256",
							"name": "amount",
							"type": "uint256"
						}
					],
					"name": "EmergencyWithdrawal",
					"type": "event"
				},
				{
					"anonymous": false,
					"inputs": [
						{
							"indexed": true,
							"internalType": "address",
							"name": "oldOwner",
							"type": "address"
						},
						{
							"indexed": true,
							"internalType": "address",
							"name": "newOwner",
							"type": "address"
						}
					],
					"name": "OwnerChanged",
					"type": "event"
				},
				{
					"anonymous": false,
					"inputs": [
						{
							"indexed": true,
							"internalType": "address",
							"name": "owner",
							"type": "address"
						},
						{
							"indexed": false,
							"internalType": "uint256",
							"name": "amount",
							"type": "uint256"
						},
						{
							"indexed": false,
							"internalType": "uint256",
							"name": "timestamp",
							"type": "uint256"
						}
					],
					"name": "OwnerWithdraw",
					"type": "event"
				},
				{
					"anonymous": false,
					"inputs": [
						{
							"indexed": true,
							"internalType": "address",
							"name": "user",
							"type": "address"
						},
						{
							"indexed": false,
							"internalType": "uint256",
							"name": "count",
							"type": "uint256"
						}
					],
					"name": "SuspiciousActivityDetected",
					"type": "event"
				},
				{
					"anonymous": false,
					"inputs": [
						{
							"indexed": true,
							"internalType": "address",
							"name": "from",
							"type": "address"
						},
						{
							"indexed": true,
							"internalType": "address",
							"name": "owner",
							"type": "address"
						},
						{
							"indexed": false,
							"internalType": "uint256",
							"name": "amount",
							"type": "uint256"
						},
						{
							"indexed": false,
							"internalType": "uint256",
							"name": "timestamp",
							"type": "uint256"
						}
					],
					"name": "UserToOwnerTransfer",
					"type": "event"
				},
				{
					"stateMutability": "nonpayable",
					"type": "fallback"
				},
				{
					"inputs": [
						{
							"internalType": "address",
							"name": "newOwner",
							"type": "address"
						}
					],
					"name": "changOwner",
					"outputs": [],
					"stateMutability": "nonpayable",
					"type": "function"
				},
				{
					"inputs": [],
					"name": "emergencyWithdrawl",
					"outputs": [],
					"stateMutability": "nonpayable",
					"type": "function"
				},
				{
					"inputs": [],
					"name": "getContractBalanceInWei",
					"outputs": [
						{
							"internalType": "uint256",
							"name": "",
							"type": "uint256"
						}
					],
					"stateMutability": "view",
					"type": "function"
				},
				{
					"inputs": [],
					"name": "getOwnerBalanceInWei",
					"outputs": [
						{
							"internalType": "uint256",
							"name": "",
							"type": "uint256"
						}
					],
					"stateMutability": "view",
					"type": "function"
				},
				{
					"inputs": [],
					"name": "getTransactionHistory",
					"outputs": [
						{
							"components": [
								{
									"internalType": "address",
									"name": "from",
									"type": "address"
								},
								{
									"internalType": "address",
									"name": "to",
									"type": "address"
								},
								{
									"internalType": "uint256",
									"name": "timestamp",
									"type": "uint256"
								},
								{
									"internalType": "uint256",
									"name": "amount",
									"type": "uint256"
								}
							],
							"internalType": "struct SimpleWallet.Transaction[]",
							"name": "",
							"type": "tuple[]"
						}
					],
					"stateMutability": "view",
					"type": "function"
				},
				{
					"inputs": [],
					"name": "owner",
					"outputs": [
						{
							"internalType": "address",
							"name": "",
							"type": "address"
						}
					],
					"stateMutability": "view",
					"type": "function"
				},
				{
					"inputs": [],
					"name": "receiveFromUser",
					"outputs": [],
					"stateMutability": "payable",
					"type": "function"
				},
				{
					"inputs": [],
					"name": "stop",
					"outputs": [
						{
							"internalType": "bool",
							"name": "",
							"type": "bool"
						}
					],
					"stateMutability": "view",
					"type": "function"
				},
				{
					"inputs": [
						{
							"internalType": "address",
							"name": "_sender",
							"type": "address"
						}
					],
					"name": "suspiciousActivity",
					"outputs": [],
					"stateMutability": "nonpayable",
					"type": "function"
				},
				{
					"inputs": [],
					"name": "toggleStop",
					"outputs": [],
					"stateMutability": "nonpayable",
					"type": "function"
				},
				{
					"inputs": [
						{
							"internalType": "uint256",
							"name": "",
							"type": "uint256"
						}
					],
					"name": "transactionHistory",
					"outputs": [
						{
							"internalType": "address",
							"name": "from",
							"type": "address"
						},
						{
							"internalType": "address",
							"name": "to",
							"type": "address"
						},
						{
							"internalType": "uint256",
							"name": "timestamp",
							"type": "uint256"
						},
						{
							"internalType": "uint256",
							"name": "amount",
							"type": "uint256"
						}
					],
					"stateMutability": "view",
					"type": "function"
				},
				{
					"inputs": [
						{
							"internalType": "uint256",
							"name": "_startTime",
							"type": "uint256"
						}
					],
					"name": "transferToContract",
					"outputs": [],
					"stateMutability": "payable",
					"type": "function"
				},
				{
					"inputs": [
						{
							"internalType": "address payable",
							"name": "_to",
							"type": "address"
						},
						{
							"internalType": "uint256",
							"name": "_weiAmount",
							"type": "uint256"
						}
					],
					"name": "transferToUserViaContract",
					"outputs": [],
					"stateMutability": "nonpayable",
					"type": "function"
				},
				{
					"inputs": [
						{
							"internalType": "address",
							"name": "_to",
							"type": "address"
						}
					],
					"name": "transferToUserViaMsgValue",
					"outputs": [],
					"stateMutability": "payable",
					"type": "function"
				},
				{
					"inputs": [
						{
							"internalType": "uint256",
							"name": "_weiAmount",
							"type": "uint256"
						}
					],
					"name": "withdrawFromContract",
					"outputs": [],
					"stateMutability": "nonpayable",
					"type": "function"
				},
				{
					"stateMutability": "payable",
					"type": "receive"
				}
			],
			"devdoc": {
				"kind": "dev",
				"methods": {},
				"version": 1
			},
			"evm": {
				"assembly": "    /* \"contracts/walletgraphql.sol\":289:8351  contract SimpleWallet {... */\n  mstore(0x40, 0x80)\n    /* \"contracts/walletgraphql.sol\":2011:2062  constructor() {... */\n  callvalue\n  dup1\n  iszero\n  tag_1\n  jumpi\n  revert(0x00, 0x00)\ntag_1:\n  pop\n    /* \"contracts/walletgraphql.sol\":2044:2054  msg.sender */\n  caller\n    /* \"contracts/walletgraphql.sol\":2036:2041  owner */\n  0x01\n  0x00\n    /* \"contracts/walletgraphql.sol\":2036:2054  owner = msg.sender */\n  0x0100\n  exp\n  dup2\n  sload\n  dup2\n  0xffffffffffffffffffffffffffffffffffffffff\n  mul\n  not\n  and\n  swap1\n  dup4\n  0xffffffffffffffffffffffffffffffffffffffff\n  and\n  mul\n  or\n  swap1\n  sstore\n  pop\n    /* \"contracts/walletgraphql.sol\":289:8351  contract SimpleWallet {... */\n  dataSize(sub_0)\n  dup1\n  dataOffset(sub_0)\n  0x00\n  codecopy\n  0x00\n  return\nstop\n\nsub_0: assembly {\n        /* \"contracts/walletgraphql.sol\":289:8351  contract SimpleWallet {... */\n      mstore(0x40, 0x80)\n      jumpi(tag_1, lt(calldatasize, 0x04))\n      shr(0xe0, calldataload(0x00))\n      dup1\n      0x9a70eef1\n      gt\n      tag_18\n      jumpi\n      dup1\n      0xcf87f052\n      gt\n      tag_19\n      jumpi\n      dup1\n      0xcf87f052\n      eq\n      tag_14\n      jumpi\n      dup1\n      0xd2b53948\n      eq\n      tag_15\n      jumpi\n      dup1\n      0xd555d473\n      eq\n      tag_16\n      jumpi\n      dup1\n      0xeb2d9fd3\n      eq\n      tag_17\n      jumpi\n      jump(tag_2)\n    tag_19:\n      dup1\n      0x9a70eef1\n      eq\n      tag_10\n      jumpi\n      dup1\n      0xaeae547d\n      eq\n      tag_11\n      jumpi\n      dup1\n      0xb76d4fc3\n      eq\n      tag_12\n      jumpi\n      dup1\n      0xbfa698de\n      eq\n      tag_13\n      jumpi\n      jump(tag_2)\n    tag_18:\n      dup1\n      0x547fbe8e\n      gt\n      tag_20\n      jumpi\n      dup1\n      0x547fbe8e\n      eq\n      tag_6\n      jumpi\n      dup1\n      0x6f3f42ac\n      eq\n      tag_7\n      jumpi\n      dup1\n      0x7935e5a3\n      eq\n      tag_8\n      jumpi\n      dup1\n      0x8da5cb5b\n      eq\n      tag_9\n      jumpi\n      jump(tag_2)\n    tag_20:\n      dup1\n      0x07da68f5\n      eq\n      tag_3\n      jumpi\n      dup1\n      0x243e7a87\n      eq\n      tag_4\n      jumpi\n      dup1\n      0x47cdcc1f\n      eq\n      tag_5\n      jumpi\n      jump(tag_2)\n    tag_1:\n      jumpi(tag_2, calldatasize)\n        /* \"contracts/walletgraphql.sol\":6872:6890  transactionHistory */\n      0x00\n        /* \"contracts/walletgraphql.sol\":6910:7090  Transaction({... */\n      mload(0x40)\n      dup1\n      0x80\n      add\n      0x40\n      mstore\n      dup1\n        /* \"contracts/walletgraphql.sol\":6947:6957  msg.sender */\n      caller\n        /* \"contracts/walletgraphql.sol\":6910:7090  Transaction({... */\n      0xffffffffffffffffffffffffffffffffffffffff\n      and\n      dup2\n      mstore\n      0x20\n      add\n        /* \"contracts/walletgraphql.sol\":6988:6992  this */\n      address\n        /* \"contracts/walletgraphql.sol\":6910:7090  Transaction({... */\n      0xffffffffffffffffffffffffffffffffffffffff\n      and\n      dup2\n      mstore\n      0x20\n      add\n        /* \"contracts/walletgraphql.sol\":7023:7038  block.timestamp */\n      timestamp\n        /* \"contracts/walletgraphql.sol\":6910:7090  Transaction({... */\n      dup2\n      mstore\n      0x20\n      add\n        /* \"contracts/walletgraphql.sol\":7065:7074  msg.value */\n      callvalue\n        /* \"contracts/walletgraphql.sol\":6910:7090  Transaction({... */\n      dup2\n      mstore\n      pop\n        /* \"contracts/walletgraphql.sol\":6872:7101  transactionHistory.push(... */\n      swap1\n      dup1\n      0x01\n      dup2\n      sload\n      add\n      dup1\n      dup3\n      sstore\n      dup1\n      swap2\n      pop\n      pop\n      0x01\n      swap1\n      sub\n      swap1\n      0x00\n      mstore\n      keccak256(0x00, 0x20)\n      swap1\n      0x04\n      mul\n      add\n      0x00\n      swap1\n      swap2\n      swap1\n      swap2\n      swap1\n      swap2\n      pop\n      0x00\n      dup3\n      add\n      mload\n      dup2\n      0x00\n      add\n      exp(0x0100, 0x00)\n      dup2\n      sload\n      dup2\n      0xffffffffffffffffffffffffffffffffffffffff\n      mul\n      not\n      and\n      swap1\n      dup4\n      0xffffffffffffffffffffffffffffffffffffffff\n      and\n      mul\n      or\n      swap1\n      sstore\n      pop\n      0x20\n      dup3\n      add\n      mload\n      dup2\n      0x01\n      add\n      exp(0x0100, 0x00)\n      dup2\n      sload\n      dup2\n      0xffffffffffffffffffffffffffffffffffffffff\n      mul\n      not\n      and\n      swap1\n      dup4\n      0xffffffffffffffffffffffffffffffffffffffff\n      and\n      mul\n      or\n      swap1\n      sstore\n      pop\n      0x40\n      dup3\n      add\n      mload\n      dup2\n      0x02\n      add\n      sstore\n      0x60\n      dup3\n      add\n      mload\n      dup2\n      0x03\n      add\n      sstore\n      pop\n      pop\n        /* \"contracts/walletgraphql.sol\":7148:7158  msg.sender */\n      caller\n        /* \"contracts/walletgraphql.sol\":7119:7223  ContractFunded(... */\n      0xffffffffffffffffffffffffffffffffffffffff\n      and\n      0x3b31cbadfd3fd939750f09d3bdbd6c0531dde23f05d55dcc202798f39d090895\n        /* \"contracts/walletgraphql.sol\":7173:7182  msg.value */\n      callvalue\n        /* \"contracts/walletgraphql.sol\":7197:7212  block.timestamp */\n      timestamp\n        /* \"contracts/walletgraphql.sol\":7119:7223  ContractFunded(... */\n      mload(0x40)\n      tag_24\n      swap3\n      swap2\n      swap1\n      tag_25\n      jump\t// in\n    tag_24:\n      mload(0x40)\n      dup1\n      swap2\n      sub\n      swap1\n      log2\n        /* \"contracts/walletgraphql.sol\":289:8351  contract SimpleWallet {... */\n      stop\n    tag_2:\n      callvalue\n      dup1\n      iszero\n      tag_26\n      jumpi\n      revert(0x00, 0x00)\n    tag_26:\n      pop\n        /* \"contracts/walletgraphql.sol\":7518:7548  suspiciousActivity(msg.sender) */\n      tag_29\n        /* \"contracts/walletgraphql.sol\":7537:7547  msg.sender */\n      caller\n        /* \"contracts/walletgraphql.sol\":7518:7536  suspiciousActivity */\n      tag_30\n        /* \"contracts/walletgraphql.sol\":7518:7548  suspiciousActivity(msg.sender) */\n      jump\t// in\n    tag_29:\n        /* \"contracts/walletgraphql.sol\":289:8351  contract SimpleWallet {... */\n      stop\n        /* \"contracts/walletgraphql.sol\":525:541  bool public stop */\n    tag_3:\n      callvalue\n      dup1\n      iszero\n      tag_31\n      jumpi\n      revert(0x00, 0x00)\n    tag_31:\n      pop\n      tag_32\n      tag_33\n      jump\t// in\n    tag_32:\n      mload(0x40)\n      tag_34\n      swap2\n      swap1\n      tag_35\n      jump\t// in\n    tag_34:\n      mload(0x40)\n      dup1\n      swap2\n      sub\n      swap1\n      return\n        /* \"contracts/walletgraphql.sol\":450:489  Transaction[] public transactionHistory */\n    tag_4:\n      callvalue\n      dup1\n      iszero\n      tag_36\n      jumpi\n      revert(0x00, 0x00)\n    tag_36:\n      pop\n      tag_37\n      0x04\n      dup1\n      calldatasize\n      sub\n      dup2\n      add\n      swap1\n      tag_38\n      swap2\n      swap1\n      tag_39\n      jump\t// in\n    tag_38:\n      tag_40\n      jump\t// in\n    tag_37:\n      mload(0x40)\n      tag_41\n      swap5\n      swap4\n      swap3\n      swap2\n      swap1\n      tag_42\n      jump\t// in\n    tag_41:\n      mload(0x40)\n      dup1\n      swap2\n      sub\n      swap1\n      return\n        /* \"contracts/walletgraphql.sol\":3847:4528  function transferToUserViaContract(... */\n    tag_5:\n      callvalue\n      dup1\n      iszero\n      tag_43\n      jumpi\n      revert(0x00, 0x00)\n    tag_43:\n      pop\n      tag_44\n      0x04\n      dup1\n      calldatasize\n      sub\n      dup2\n      add\n      swap1\n      tag_45\n      swap2\n      swap1\n      tag_46\n      jump\t// in\n    tag_45:\n      tag_47\n      jump\t// in\n    tag_44:\n      stop\n        /* \"contracts/walletgraphql.sol\":6561:6664  function getOwnerBalanceInWei() external view returns (uint256) {... */\n    tag_6:\n      callvalue\n      dup1\n      iszero\n      tag_48\n      jumpi\n      revert(0x00, 0x00)\n    tag_48:\n      pop\n      tag_49\n      tag_50\n      jump\t// in\n    tag_49:\n      mload(0x40)\n      tag_51\n      swap2\n      swap1\n      tag_52\n      jump\t// in\n    tag_51:\n      mload(0x40)\n      dup1\n      swap2\n      sub\n      swap1\n      return\n        /* \"contracts/walletgraphql.sol\":5409:5980  function transferToUserViaMsgValue(address _to) external payable {... */\n    tag_7:\n      tag_53\n      0x04\n      dup1\n      calldatasize\n      sub\n      dup2\n      add\n      swap1\n      tag_54\n      swap2\n      swap1\n      tag_55\n      jump\t// in\n    tag_54:\n      tag_56\n      jump\t// in\n    tag_53:\n      stop\n        /* \"contracts/walletgraphql.sol\":7721:8024  function emergencyWithdrawl() external {... */\n    tag_8:\n      callvalue\n      dup1\n      iszero\n      tag_57\n      jumpi\n      revert(0x00, 0x00)\n    tag_57:\n      pop\n      tag_58\n      tag_59\n      jump\t// in\n    tag_58:\n      stop\n        /* \"contracts/walletgraphql.sol\":498:518  address public owner */\n    tag_9:\n      callvalue\n      dup1\n      iszero\n      tag_60\n      jumpi\n      revert(0x00, 0x00)\n    tag_60:\n      pop\n      tag_61\n      tag_62\n      jump\t// in\n    tag_61:\n      mload(0x40)\n      tag_63\n      swap2\n      swap1\n      tag_64\n      jump\t// in\n    tag_63:\n      mload(0x40)\n      dup1\n      swap2\n      sub\n      swap1\n      return\n        /* \"contracts/walletgraphql.sol\":2707:2830  function toggleStop() external onlyOwner {... */\n    tag_10:\n      callvalue\n      dup1\n      iszero\n      tag_65\n      jumpi\n      revert(0x00, 0x00)\n    tag_65:\n      pop\n      tag_66\n      tag_67\n      jump\t// in\n    tag_66:\n      stop\n        /* \"contracts/walletgraphql.sol\":4536:5109  function withdrawFromContract(uint256 _weiAmount) external onlyOwner {... */\n    tag_11:\n      callvalue\n      dup1\n      iszero\n      tag_68\n      jumpi\n      revert(0x00, 0x00)\n    tag_68:\n      pop\n      tag_69\n      0x04\n      dup1\n      calldatasize\n      sub\n      dup2\n      add\n      swap1\n      tag_70\n      swap2\n      swap1\n      tag_39\n      jump\t// in\n    tag_70:\n      tag_71\n      jump\t// in\n    tag_69:\n      stop\n        /* \"contracts/walletgraphql.sol\":8194:8348  function getTransactionHistory()... */\n    tag_12:\n      callvalue\n      dup1\n      iszero\n      tag_72\n      jumpi\n      revert(0x00, 0x00)\n    tag_72:\n      pop\n      tag_73\n      tag_74\n      jump\t// in\n    tag_73:\n      mload(0x40)\n      tag_75\n      swap2\n      swap1\n      tag_76\n      jump\t// in\n    tag_75:\n      mload(0x40)\n      dup1\n      swap2\n      sub\n      swap1\n      return\n        /* \"contracts/walletgraphql.sol\":5117:5231  function getContractBalanceInWei() external view returns (uint256) {... */\n    tag_13:\n      callvalue\n      dup1\n      iszero\n      tag_77\n      jumpi\n      revert(0x00, 0x00)\n    tag_77:\n      pop\n      tag_78\n      tag_79\n      jump\t// in\n    tag_78:\n      mload(0x40)\n      tag_80\n      swap2\n      swap1\n      tag_52\n      jump\t// in\n    tag_80:\n      mload(0x40)\n      dup1\n      swap2\n      sub\n      swap1\n      return\n        /* \"contracts/walletgraphql.sol\":7252:7479  function suspiciousActivity(address _sender) public {... */\n    tag_14:\n      callvalue\n      dup1\n      iszero\n      tag_81\n      jumpi\n      revert(0x00, 0x00)\n    tag_81:\n      pop\n      tag_82\n      0x04\n      dup1\n      calldatasize\n      sub\n      dup2\n      add\n      swap1\n      tag_83\n      swap2\n      swap1\n      tag_55\n      jump\t// in\n    tag_83:\n      tag_30\n      jump\t// in\n    tag_82:\n      stop\n        /* \"contracts/walletgraphql.sol\":5988:6553  function receiveFromUser() external payable {... */\n    tag_15:\n      tag_84\n      tag_85\n      jump\t// in\n    tag_84:\n      stop\n        /* \"contracts/walletgraphql.sol\":3254:3839  function transferToContract(uint256 _startTime)... */\n    tag_16:\n      tag_86\n      0x04\n      dup1\n      calldatasize\n      sub\n      dup2\n      add\n      swap1\n      tag_87\n      swap2\n      swap1\n      tag_39\n      jump\t// in\n    tag_87:\n      tag_88\n      jump\t// in\n    tag_86:\n      stop\n        /* \"contracts/walletgraphql.sol\":2838:3076  function changOwner(address newOwner)... */\n    tag_17:\n      callvalue\n      dup1\n      iszero\n      tag_89\n      jumpi\n      revert(0x00, 0x00)\n    tag_89:\n      pop\n      tag_90\n      0x04\n      dup1\n      calldatasize\n      sub\n      dup2\n      add\n      swap1\n      tag_91\n      swap2\n      swap1\n      tag_55\n      jump\t// in\n    tag_91:\n      tag_92\n      jump\t// in\n    tag_90:\n      stop\n        /* \"contracts/walletgraphql.sol\":7252:7479  function suspiciousActivity(address _sender) public {... */\n    tag_30:\n        /* \"contracts/walletgraphql.sol\":7342:7343  1 */\n      0x01\n        /* \"contracts/walletgraphql.sol\":7315:7329  suspiciousUser */\n      0x02\n        /* \"contracts/walletgraphql.sol\":7315:7338  suspiciousUser[_sender] */\n      0x00\n        /* \"contracts/walletgraphql.sol\":7330:7337  _sender */\n      dup4\n        /* \"contracts/walletgraphql.sol\":7315:7338  suspiciousUser[_sender] */\n      0xffffffffffffffffffffffffffffffffffffffff\n      and\n      0xffffffffffffffffffffffffffffffffffffffff\n      and\n      dup2\n      mstore\n      0x20\n      add\n      swap1\n      dup2\n      mstore\n      0x20\n      add\n      0x00\n      keccak256\n      0x00\n        /* \"contracts/walletgraphql.sol\":7315:7343  suspiciousUser[_sender] += 1 */\n      dup3\n      dup3\n      sload\n      tag_94\n      swap2\n      swap1\n      tag_95\n      jump\t// in\n    tag_94:\n      swap3\n      pop\n      pop\n      dup2\n      swap1\n      sstore\n      pop\n        /* \"contracts/walletgraphql.sol\":7402:7409  _sender */\n      dup1\n        /* \"contracts/walletgraphql.sol\":7361:7458  SuspiciousActivityDetected(... */\n      0xffffffffffffffffffffffffffffffffffffffff\n      and\n      0x92110b7744be9a0a0061538815f6ef4099bddca60439a8dc28ccc35fda7c47b9\n        /* \"contracts/walletgraphql.sol\":7424:7438  suspiciousUser */\n      0x02\n        /* \"contracts/walletgraphql.sol\":7424:7447  suspiciousUser[_sender] */\n      0x00\n        /* \"contracts/walletgraphql.sol\":7439:7446  _sender */\n      dup5\n        /* \"contracts/walletgraphql.sol\":7424:7447  suspiciousUser[_sender] */\n      0xffffffffffffffffffffffffffffffffffffffff\n      and\n      0xffffffffffffffffffffffffffffffffffffffff\n      and\n      dup2\n      mstore\n      0x20\n      add\n      swap1\n      dup2\n      mstore\n      0x20\n      add\n      0x00\n      keccak256\n      sload\n        /* \"contracts/walletgraphql.sol\":7361:7458  SuspiciousActivityDetected(... */\n      mload(0x40)\n      tag_96\n      swap2\n      swap1\n      tag_52\n      jump\t// in\n    tag_96:\n      mload(0x40)\n      dup1\n      swap2\n      sub\n      swap1\n      log2\n        /* \"contracts/walletgraphql.sol\":7252:7479  function suspiciousActivity(address _sender) public {... */\n      pop\n      jump\t// out\n        /* \"contracts/walletgraphql.sol\":525:541  bool public stop */\n    tag_33:\n      0x01\n      0x14\n      swap1\n      sload\n      swap1\n      0x0100\n      exp\n      swap1\n      div\n      0xff\n      and\n      dup2\n      jump\t// out\n        /* \"contracts/walletgraphql.sol\":450:489  Transaction[] public transactionHistory */\n    tag_40:\n      0x00\n      dup2\n      dup2\n      sload\n      dup2\n      lt\n      tag_97\n      jumpi\n      0x00\n      dup1\n      revert\n    tag_97:\n      swap1\n      0x00\n      mstore\n      keccak256(0x00, 0x20)\n      swap1\n      0x04\n      mul\n      add\n      0x00\n      swap2\n      pop\n      swap1\n      pop\n      dup1\n      0x00\n      add\n      0x00\n      swap1\n      sload\n      swap1\n      0x0100\n      exp\n      swap1\n      div\n      0xffffffffffffffffffffffffffffffffffffffff\n      and\n      swap1\n      dup1\n      0x01\n      add\n      0x00\n      swap1\n      sload\n      swap1\n      0x0100\n      exp\n      swap1\n      div\n      0xffffffffffffffffffffffffffffffffffffffff\n      and\n      swap1\n      dup1\n      0x02\n      add\n      sload\n      swap1\n      dup1\n      0x03\n      add\n      sload\n      swap1\n      pop\n      dup5\n      jump\t// out\n        /* \"contracts/walletgraphql.sol\":3847:4528  function transferToUserViaContract(... */\n    tag_47:\n        /* \"contracts/walletgraphql.sol\":2124:2129  owner */\n      0x01\n      0x00\n      swap1\n      sload\n      swap1\n      0x0100\n      exp\n      swap1\n      div\n      0xffffffffffffffffffffffffffffffffffffffff\n      and\n        /* \"contracts/walletgraphql.sol\":2110:2129  msg.sender == owner */\n      0xffffffffffffffffffffffffffffffffffffffff\n      and\n        /* \"contracts/walletgraphql.sol\":2110:2120  msg.sender */\n      caller\n        /* \"contracts/walletgraphql.sol\":2110:2129  msg.sender == owner */\n      0xffffffffffffffffffffffffffffffffffffffff\n      and\n      eq\n        /* \"contracts/walletgraphql.sol\":2102:2155  require(msg.sender == owner, \"You don't have access\") */\n      tag_100\n      jumpi\n      mload(0x40)\n      0x08c379a000000000000000000000000000000000000000000000000000000000\n      dup2\n      mstore\n      0x04\n      add\n      tag_101\n      swap1\n      tag_102\n      jump\t// in\n    tag_101:\n      mload(0x40)\n      dup1\n      swap2\n      sub\n      swap1\n      revert\n    tag_100:\n        /* \"contracts/walletgraphql.sol\":4011:4021  _weiAmount */\n      dup1\n        /* \"contracts/walletgraphql.sol\":3986:4007  address(this).balance */\n      selfbalance\n        /* \"contracts/walletgraphql.sol\":3986:4021  address(this).balance >= _weiAmount */\n      lt\n      iszero\n        /* \"contracts/walletgraphql.sol\":3978:4046  require(address(this).balance >= _weiAmount, \"Insufficient Balance\") */\n      tag_104\n      jumpi\n      mload(0x40)\n      0x08c379a000000000000000000000000000000000000000000000000000000000\n      dup2\n      mstore\n      0x04\n      add\n      tag_105\n      swap1\n      tag_106\n      jump\t// in\n    tag_105:\n      mload(0x40)\n      dup1\n      swap2\n      sub\n      swap1\n      revert\n    tag_104:\n        /* \"contracts/walletgraphql.sol\":4080:4081  0 */\n      0x00\n        /* \"contracts/walletgraphql.sol\":4065:4082  _to != address(0) */\n      0xffffffffffffffffffffffffffffffffffffffff\n      and\n        /* \"contracts/walletgraphql.sol\":4065:4068  _to */\n      dup3\n        /* \"contracts/walletgraphql.sol\":4065:4082  _to != address(0) */\n      0xffffffffffffffffffffffffffffffffffffffff\n      and\n      sub\n        /* \"contracts/walletgraphql.sol\":4057:4110  require(_to != address(0), \"Adress format incorrect\") */\n      tag_107\n      jumpi\n      mload(0x40)\n      0x08c379a000000000000000000000000000000000000000000000000000000000\n      dup2\n      mstore\n      0x04\n      add\n      tag_108\n      swap1\n      tag_109\n      jump\t// in\n    tag_108:\n      mload(0x40)\n      dup1\n      swap2\n      sub\n      swap1\n      revert\n    tag_107:\n        /* \"contracts/walletgraphql.sol\":4123:4126  _to */\n      dup2\n        /* \"contracts/walletgraphql.sol\":4123:4135  _to.transfer */\n      0xffffffffffffffffffffffffffffffffffffffff\n      and\n        /* \"contracts/walletgraphql.sol\":4123:4147  _to.transfer(_weiAmount) */\n      0x08fc\n        /* \"contracts/walletgraphql.sol\":4136:4146  _weiAmount */\n      dup3\n        /* \"contracts/walletgraphql.sol\":4123:4147  _to.transfer(_weiAmount) */\n      swap1\n      dup2\n      iszero\n      mul\n      swap1\n      mload(0x40)\n      0x00\n      mload(0x40)\n      dup1\n      dup4\n      sub\n      dup2\n      dup6\n      dup9\n      dup9\n      call\n      swap4\n      pop\n      pop\n      pop\n      pop\n      iszero\n      dup1\n      iszero\n      tag_111\n      jumpi\n      returndatacopy(0x00, 0x00, returndatasize)\n      revert(0x00, returndatasize)\n    tag_111:\n      pop\n        /* \"contracts/walletgraphql.sol\":4160:4178  transactionHistory */\n      0x00\n        /* \"contracts/walletgraphql.sol\":4198:4372  Transaction({... */\n      mload(0x40)\n      dup1\n      0x80\n      add\n      0x40\n      mstore\n      dup1\n        /* \"contracts/walletgraphql.sol\":4243:4247  this */\n      address\n        /* \"contracts/walletgraphql.sol\":4198:4372  Transaction({... */\n      0xffffffffffffffffffffffffffffffffffffffff\n      and\n      dup2\n      mstore\n      0x20\n      add\n        /* \"contracts/walletgraphql.sol\":4271:4274  _to */\n      dup5\n        /* \"contracts/walletgraphql.sol\":4198:4372  Transaction({... */\n      0xffffffffffffffffffffffffffffffffffffffff\n      and\n      dup2\n      mstore\n      0x20\n      add\n        /* \"contracts/walletgraphql.sol\":4304:4319  block.timestamp */\n      timestamp\n        /* \"contracts/walletgraphql.sol\":4198:4372  Transaction({... */\n      dup2\n      mstore\n      0x20\n      add\n        /* \"contracts/walletgraphql.sol\":4346:4356  _weiAmount */\n      dup4\n        /* \"contracts/walletgraphql.sol\":4198:4372  Transaction({... */\n      dup2\n      mstore\n      pop\n        /* \"contracts/walletgraphql.sol\":4160:4383  transactionHistory.push(... */\n      swap1\n      dup1\n      0x01\n      dup2\n      sload\n      add\n      dup1\n      dup3\n      sstore\n      dup1\n      swap2\n      pop\n      pop\n      0x01\n      swap1\n      sub\n      swap1\n      0x00\n      mstore\n      keccak256(0x00, 0x20)\n      swap1\n      0x04\n      mul\n      add\n      0x00\n      swap1\n      swap2\n      swap1\n      swap2\n      swap1\n      swap2\n      pop\n      0x00\n      dup3\n      add\n      mload\n      dup2\n      0x00\n      add\n      exp(0x0100, 0x00)\n      dup2\n      sload\n      dup2\n      0xffffffffffffffffffffffffffffffffffffffff\n      mul\n      not\n      and\n      swap1\n      dup4\n      0xffffffffffffffffffffffffffffffffffffffff\n      and\n      mul\n      or\n      swap1\n      sstore\n      pop\n      0x20\n      dup3\n      add\n      mload\n      dup2\n      0x01\n      add\n      exp(0x0100, 0x00)\n      dup2\n      sload\n      dup2\n      0xffffffffffffffffffffffffffffffffffffffff\n      mul\n      not\n      and\n      swap1\n      dup4\n      0xffffffffffffffffffffffffffffffffffffffff\n      and\n      mul\n      or\n      swap1\n      sstore\n      pop\n      0x40\n      dup3\n      add\n      mload\n      dup2\n      0x02\n      add\n      sstore\n      0x60\n      dup3\n      add\n      mload\n      dup2\n      0x03\n      add\n      sstore\n      pop\n      pop\n        /* \"contracts/walletgraphql.sol\":4438:4441  _to */\n      dup2\n        /* \"contracts/walletgraphql.sol\":4401:4507  ContractToUserTransfer(... */\n      0xffffffffffffffffffffffffffffffffffffffff\n      and\n      0x6b2394585a0b7a64f871cb97a8ea61761f481eb16fecc5432448e8490de3d7bf\n        /* \"contracts/walletgraphql.sol\":4456:4466  _weiAmount */\n      dup3\n        /* \"contracts/walletgraphql.sol\":4481:4496  block.timestamp */\n      timestamp\n        /* \"contracts/walletgraphql.sol\":4401:4507  ContractToUserTransfer(... */\n      mload(0x40)\n      tag_113\n      swap3\n      swap2\n      swap1\n      tag_25\n      jump\t// in\n    tag_113:\n      mload(0x40)\n      dup1\n      swap2\n      sub\n      swap1\n      log2\n        /* \"contracts/walletgraphql.sol\":3847:4528  function transferToUserViaContract(... */\n      pop\n      pop\n      jump\t// out\n        /* \"contracts/walletgraphql.sol\":6561:6664  function getOwnerBalanceInWei() external view returns (uint256) {... */\n    tag_50:\n        /* \"contracts/walletgraphql.sol\":6616:6623  uint256 */\n      0x00\n        /* \"contracts/walletgraphql.sol\":6643:6648  owner */\n      0x01\n      0x00\n      swap1\n      sload\n      swap1\n      0x0100\n      exp\n      swap1\n      div\n      0xffffffffffffffffffffffffffffffffffffffff\n      and\n        /* \"contracts/walletgraphql.sol\":6643:6656  owner.balance */\n      0xffffffffffffffffffffffffffffffffffffffff\n      and\n      balance\n        /* \"contracts/walletgraphql.sol\":6636:6656  return owner.balance */\n      swap1\n      pop\n        /* \"contracts/walletgraphql.sol\":6561:6664  function getOwnerBalanceInWei() external view returns (uint256) {... */\n      swap1\n      jump\t// out\n        /* \"contracts/walletgraphql.sol\":5409:5980  function transferToUserViaMsgValue(address _to) external payable {... */\n    tag_56:\n        /* \"contracts/walletgraphql.sol\":5508:5509  0 */\n      0x00\n        /* \"contracts/walletgraphql.sol\":5493:5510  _to != address(0) */\n      0xffffffffffffffffffffffffffffffffffffffff\n      and\n        /* \"contracts/walletgraphql.sol\":5493:5496  _to */\n      dup2\n        /* \"contracts/walletgraphql.sol\":5493:5510  _to != address(0) */\n      0xffffffffffffffffffffffffffffffffffffffff\n      and\n      sub\n        /* \"contracts/walletgraphql.sol\":5485:5538  require(_to != address(0), \"Adress format incorrect\") */\n      tag_116\n      jumpi\n      mload(0x40)\n      0x08c379a000000000000000000000000000000000000000000000000000000000\n      dup2\n      mstore\n      0x04\n      add\n      tag_117\n      swap1\n      tag_109\n      jump\t// in\n    tag_117:\n      mload(0x40)\n      dup1\n      swap2\n      sub\n      swap1\n      revert\n    tag_116:\n        /* \"contracts/walletgraphql.sol\":5559:5562  _to */\n      dup1\n        /* \"contracts/walletgraphql.sol\":5551:5572  payable(_to).transfer */\n      0xffffffffffffffffffffffffffffffffffffffff\n      and\n        /* \"contracts/walletgraphql.sol\":5551:5583  payable(_to).transfer(msg.value) */\n      0x08fc\n        /* \"contracts/walletgraphql.sol\":5573:5582  msg.value */\n      callvalue\n        /* \"contracts/walletgraphql.sol\":5551:5583  payable(_to).transfer(msg.value) */\n      swap1\n      dup2\n      iszero\n      mul\n      swap1\n      mload(0x40)\n      0x00\n      mload(0x40)\n      dup1\n      dup4\n      sub\n      dup2\n      dup6\n      dup9\n      dup9\n      call\n      swap4\n      pop\n      pop\n      pop\n      pop\n      iszero\n      dup1\n      iszero\n      tag_119\n      jumpi\n      returndatacopy(0x00, 0x00, returndatasize)\n      revert(0x00, returndatasize)\n    tag_119:\n      pop\n        /* \"contracts/walletgraphql.sol\":5596:5614  transactionHistory */\n      0x00\n        /* \"contracts/walletgraphql.sol\":5634:5804  Transaction({... */\n      mload(0x40)\n      dup1\n      0x80\n      add\n      0x40\n      mstore\n      dup1\n        /* \"contracts/walletgraphql.sol\":5671:5681  msg.sender */\n      caller\n        /* \"contracts/walletgraphql.sol\":5634:5804  Transaction({... */\n      0xffffffffffffffffffffffffffffffffffffffff\n      and\n      dup2\n      mstore\n      0x20\n      add\n        /* \"contracts/walletgraphql.sol\":5704:5707  _to */\n      dup4\n        /* \"contracts/walletgraphql.sol\":5634:5804  Transaction({... */\n      0xffffffffffffffffffffffffffffffffffffffff\n      and\n      dup2\n      mstore\n      0x20\n      add\n        /* \"contracts/walletgraphql.sol\":5737:5752  block.timestamp */\n      timestamp\n        /* \"contracts/walletgraphql.sol\":5634:5804  Transaction({... */\n      dup2\n      mstore\n      0x20\n      add\n        /* \"contracts/walletgraphql.sol\":5779:5788  msg.value */\n      callvalue\n        /* \"contracts/walletgraphql.sol\":5634:5804  Transaction({... */\n      dup2\n      mstore\n      pop\n        /* \"contracts/walletgraphql.sol\":5596:5815  transactionHistory.push(... */\n      swap1\n      dup1\n      0x01\n      dup2\n      sload\n      add\n      dup1\n      dup3\n      sstore\n      dup1\n      swap2\n      pop\n      pop\n      0x01\n      swap1\n      sub\n      swap1\n      0x00\n      mstore\n      keccak256(0x00, 0x20)\n      swap1\n      0x04\n      mul\n      add\n      0x00\n      swap1\n      swap2\n      swap1\n      swap2\n      swap1\n      swap2\n      pop\n      0x00\n      dup3\n      add\n      mload\n      dup2\n      0x00\n      add\n      exp(0x0100, 0x00)\n      dup2\n      sload\n      dup2\n      0xffffffffffffffffffffffffffffffffffffffff\n      mul\n      not\n      and\n      swap1\n      dup4\n      0xffffffffffffffffffffffffffffffffffffffff\n      and\n      mul\n      or\n      swap1\n      sstore\n      pop\n      0x20\n      dup3\n      add\n      mload\n      dup2\n      0x01\n      add\n      exp(0x0100, 0x00)\n      dup2\n      sload\n      dup2\n      0xffffffffffffffffffffffffffffffffffffffff\n      mul\n      not\n      and\n      swap1\n      dup4\n      0xffffffffffffffffffffffffffffffffffffffff\n      and\n      mul\n      or\n      swap1\n      sstore\n      pop\n      0x40\n      dup3\n      add\n      mload\n      dup2\n      0x02\n      add\n      sstore\n      0x60\n      dup3\n      add\n      mload\n      dup2\n      0x03\n      add\n      sstore\n      pop\n      pop\n        /* \"contracts/walletgraphql.sol\":5891:5894  _to */\n      dup1\n        /* \"contracts/walletgraphql.sol\":5833:5959  DirectUserTransfer(... */\n      0xffffffffffffffffffffffffffffffffffffffff\n      and\n        /* \"contracts/walletgraphql.sol\":5866:5876  msg.sender */\n      caller\n        /* \"contracts/walletgraphql.sol\":5833:5959  DirectUserTransfer(... */\n      0xffffffffffffffffffffffffffffffffffffffff\n      and\n      0x47d89154cd3241ea7b52fb4e622cb708e05bf6975732387b2d251228a2665bc5\n        /* \"contracts/walletgraphql.sol\":5909:5918  msg.value */\n      callvalue\n        /* \"contracts/walletgraphql.sol\":5933:5948  block.timestamp */\n      timestamp\n        /* \"contracts/walletgraphql.sol\":5833:5959  DirectUserTransfer(... */\n      mload(0x40)\n      tag_121\n      swap3\n      swap2\n      swap1\n      tag_25\n      jump\t// in\n    tag_121:\n      mload(0x40)\n      dup1\n      swap2\n      sub\n      swap1\n      log3\n        /* \"contracts/walletgraphql.sol\":5409:5980  function transferToUserViaMsgValue(address _to) external payable {... */\n      pop\n      jump\t// out\n        /* \"contracts/walletgraphql.sol\":7721:8024  function emergencyWithdrawl() external {... */\n    tag_59:\n        /* \"contracts/walletgraphql.sol\":7787:7791  true */\n      0x01\n        /* \"contracts/walletgraphql.sol\":7779:7791  stop == true */\n      iszero\n      iszero\n        /* \"contracts/walletgraphql.sol\":7779:7783  stop */\n      0x01\n      0x14\n      swap1\n      sload\n      swap1\n      0x0100\n      exp\n      swap1\n      div\n      0xff\n      and\n        /* \"contracts/walletgraphql.sol\":7779:7791  stop == true */\n      iszero\n      iszero\n      eq\n        /* \"contracts/walletgraphql.sol\":7771:7818  require(stop == true, \"Emergency not declared\") */\n      tag_123\n      jumpi\n      mload(0x40)\n      0x08c379a000000000000000000000000000000000000000000000000000000000\n      dup2\n      mstore\n      0x04\n      add\n      tag_124\n      swap1\n      tag_125\n      jump\t// in\n    tag_124:\n      mload(0x40)\n      dup1\n      swap2\n      sub\n      swap1\n      revert\n    tag_123:\n        /* \"contracts/walletgraphql.sol\":7831:7846  uint256 balance */\n      0x00\n        /* \"contracts/walletgraphql.sol\":7849:7870  address(this).balance */\n      selfbalance\n        /* \"contracts/walletgraphql.sol\":7831:7870  uint256 balance = address(this).balance */\n      swap1\n      pop\n        /* \"contracts/walletgraphql.sol\":7889:7894  owner */\n      0x01\n      0x00\n      swap1\n      sload\n      swap1\n      0x0100\n      exp\n      swap1\n      div\n      0xffffffffffffffffffffffffffffffffffffffff\n      and\n        /* \"contracts/walletgraphql.sol\":7881:7904  payable(owner).transfer */\n      0xffffffffffffffffffffffffffffffffffffffff\n      and\n        /* \"contracts/walletgraphql.sol\":7881:7913  payable(owner).transfer(balance) */\n      0x08fc\n        /* \"contracts/walletgraphql.sol\":7905:7912  balance */\n      dup3\n        /* \"contracts/walletgraphql.sol\":7881:7913  payable(owner).transfer(balance) */\n      swap1\n      dup2\n      iszero\n      mul\n      swap1\n      mload(0x40)\n      0x00\n      mload(0x40)\n      dup1\n      dup4\n      sub\n      dup2\n      dup6\n      dup9\n      dup9\n      call\n      swap4\n      pop\n      pop\n      pop\n      pop\n      iszero\n      dup1\n      iszero\n      tag_127\n      jumpi\n      returndatacopy(0x00, 0x00, returndatasize)\n      revert(0x00, returndatasize)\n    tag_127:\n      pop\n        /* \"contracts/walletgraphql.sol\":7965:7970  owner */\n      0x01\n      0x00\n      swap1\n      sload\n      swap1\n      0x0100\n      exp\n      swap1\n      div\n      0xffffffffffffffffffffffffffffffffffffffff\n      and\n        /* \"contracts/walletgraphql.sol\":7931:8003  EmergencyWithdrawal(... */\n      0xffffffffffffffffffffffffffffffffffffffff\n      and\n      0x23d6711a1d031134a36921253c75aa59e967d38e369ac625992824315e204f20\n        /* \"contracts/walletgraphql.sol\":7985:7992  balance */\n      dup3\n        /* \"contracts/walletgraphql.sol\":7931:8003  EmergencyWithdrawal(... */\n      mload(0x40)\n      tag_128\n      swap2\n      swap1\n      tag_52\n      jump\t// in\n    tag_128:\n      mload(0x40)\n      dup1\n      swap2\n      sub\n      swap1\n      log2\n        /* \"contracts/walletgraphql.sol\":7760:8024  {... */\n      pop\n        /* \"contracts/walletgraphql.sol\":7721:8024  function emergencyWithdrawl() external {... */\n      jump\t// out\n        /* \"contracts/walletgraphql.sol\":498:518  address public owner */\n    tag_62:\n      0x01\n      0x00\n      swap1\n      sload\n      swap1\n      0x0100\n      exp\n      swap1\n      div\n      0xffffffffffffffffffffffffffffffffffffffff\n      and\n      dup2\n      jump\t// out\n        /* \"contracts/walletgraphql.sol\":2707:2830  function toggleStop() external onlyOwner {... */\n    tag_67:\n        /* \"contracts/walletgraphql.sol\":2124:2129  owner */\n      0x01\n      0x00\n      swap1\n      sload\n      swap1\n      0x0100\n      exp\n      swap1\n      div\n      0xffffffffffffffffffffffffffffffffffffffff\n      and\n        /* \"contracts/walletgraphql.sol\":2110:2129  msg.sender == owner */\n      0xffffffffffffffffffffffffffffffffffffffff\n      and\n        /* \"contracts/walletgraphql.sol\":2110:2120  msg.sender */\n      caller\n        /* \"contracts/walletgraphql.sol\":2110:2129  msg.sender == owner */\n      0xffffffffffffffffffffffffffffffffffffffff\n      and\n      eq\n        /* \"contracts/walletgraphql.sol\":2102:2155  require(msg.sender == owner, \"You don't have access\") */\n      tag_130\n      jumpi\n      mload(0x40)\n      0x08c379a000000000000000000000000000000000000000000000000000000000\n      dup2\n      mstore\n      0x04\n      add\n      tag_131\n      swap1\n      tag_102\n      jump\t// in\n    tag_131:\n      mload(0x40)\n      dup1\n      swap2\n      sub\n      swap1\n      revert\n    tag_130:\n        /* \"contracts/walletgraphql.sol\":2767:2771  stop */\n      0x01\n      0x14\n      swap1\n      sload\n      swap1\n      0x0100\n      exp\n      swap1\n      div\n      0xff\n      and\n        /* \"contracts/walletgraphql.sol\":2766:2771  !stop */\n      iszero\n        /* \"contracts/walletgraphql.sol\":2759:2763  stop */\n      0x01\n      0x14\n        /* \"contracts/walletgraphql.sol\":2759:2771  stop = !stop */\n      0x0100\n      exp\n      dup2\n      sload\n      dup2\n      0xff\n      mul\n      not\n      and\n      swap1\n      dup4\n      iszero\n      iszero\n      mul\n      or\n      swap1\n      sstore\n      pop\n        /* \"contracts/walletgraphql.sol\":2787:2809  EmergencyToggled(stop) */\n      0xccfd5af60ab7169f854210e486dea0fc553734f44092fee4be2a5e1725c55f22\n        /* \"contracts/walletgraphql.sol\":2804:2808  stop */\n      0x01\n      0x14\n      swap1\n      sload\n      swap1\n      0x0100\n      exp\n      swap1\n      div\n      0xff\n      and\n        /* \"contracts/walletgraphql.sol\":2787:2809  EmergencyToggled(stop) */\n      mload(0x40)\n      tag_133\n      swap2\n      swap1\n      tag_35\n      jump\t// in\n    tag_133:\n      mload(0x40)\n      dup1\n      swap2\n      sub\n      swap1\n      log1\n        /* \"contracts/walletgraphql.sol\":2707:2830  function toggleStop() external onlyOwner {... */\n      jump\t// out\n        /* \"contracts/walletgraphql.sol\":4536:5109  function withdrawFromContract(uint256 _weiAmount) external onlyOwner {... */\n    tag_71:\n        /* \"contracts/walletgraphql.sol\":2124:2129  owner */\n      0x01\n      0x00\n      swap1\n      sload\n      swap1\n      0x0100\n      exp\n      swap1\n      div\n      0xffffffffffffffffffffffffffffffffffffffff\n      and\n        /* \"contracts/walletgraphql.sol\":2110:2129  msg.sender == owner */\n      0xffffffffffffffffffffffffffffffffffffffff\n      and\n        /* \"contracts/walletgraphql.sol\":2110:2120  msg.sender */\n      caller\n        /* \"contracts/walletgraphql.sol\":2110:2129  msg.sender == owner */\n      0xffffffffffffffffffffffffffffffffffffffff\n      and\n      eq\n        /* \"contracts/walletgraphql.sol\":2102:2155  require(msg.sender == owner, \"You don't have access\") */\n      tag_135\n      jumpi\n      mload(0x40)\n      0x08c379a000000000000000000000000000000000000000000000000000000000\n      dup2\n      mstore\n      0x04\n      add\n      tag_136\n      swap1\n      tag_102\n      jump\t// in\n    tag_136:\n      mload(0x40)\n      dup1\n      swap2\n      sub\n      swap1\n      revert\n    tag_135:\n        /* \"contracts/walletgraphql.sol\":4649:4659  _weiAmount */\n      dup1\n        /* \"contracts/walletgraphql.sol\":4624:4645  address(this).balance */\n      selfbalance\n        /* \"contracts/walletgraphql.sol\":4624:4659  address(this).balance >= _weiAmount */\n      lt\n      iszero\n        /* \"contracts/walletgraphql.sol\":4616:4685  require(address(this).balance >= _weiAmount, \"Insuffficient balance\") */\n      tag_138\n      jumpi\n      mload(0x40)\n      0x08c379a000000000000000000000000000000000000000000000000000000000\n      dup2\n      mstore\n      0x04\n      add\n      tag_139\n      swap1\n      tag_140\n      jump\t// in\n    tag_139:\n      mload(0x40)\n      dup1\n      swap2\n      sub\n      swap1\n      revert\n    tag_138:\n        /* \"contracts/walletgraphql.sol\":4706:4711  owner */\n      0x01\n      0x00\n      swap1\n      sload\n      swap1\n      0x0100\n      exp\n      swap1\n      div\n      0xffffffffffffffffffffffffffffffffffffffff\n      and\n        /* \"contracts/walletgraphql.sol\":4698:4721  payable(owner).transfer */\n      0xffffffffffffffffffffffffffffffffffffffff\n      and\n        /* \"contracts/walletgraphql.sol\":4698:4733  payable(owner).transfer(_weiAmount) */\n      0x08fc\n        /* \"contracts/walletgraphql.sol\":4722:4732  _weiAmount */\n      dup3\n        /* \"contracts/walletgraphql.sol\":4698:4733  payable(owner).transfer(_weiAmount) */\n      swap1\n      dup2\n      iszero\n      mul\n      swap1\n      mload(0x40)\n      0x00\n      mload(0x40)\n      dup1\n      dup4\n      sub\n      dup2\n      dup6\n      dup9\n      dup9\n      call\n      swap4\n      pop\n      pop\n      pop\n      pop\n      iszero\n      dup1\n      iszero\n      tag_142\n      jumpi\n      returndatacopy(0x00, 0x00, returndatasize)\n      revert(0x00, returndatasize)\n    tag_142:\n      pop\n        /* \"contracts/walletgraphql.sol\":4746:4764  transactionHistory */\n      0x00\n        /* \"contracts/walletgraphql.sol\":4784:4960  Transaction({... */\n      mload(0x40)\n      dup1\n      0x80\n      add\n      0x40\n      mstore\n      dup1\n        /* \"contracts/walletgraphql.sol\":4829:4833  this */\n      address\n        /* \"contracts/walletgraphql.sol\":4784:4960  Transaction({... */\n      0xffffffffffffffffffffffffffffffffffffffff\n      and\n      dup2\n      mstore\n      0x20\n      add\n        /* \"contracts/walletgraphql.sol\":4857:4862  owner */\n      0x01\n      0x00\n      swap1\n      sload\n      swap1\n      0x0100\n      exp\n      swap1\n      div\n      0xffffffffffffffffffffffffffffffffffffffff\n      and\n        /* \"contracts/walletgraphql.sol\":4784:4960  Transaction({... */\n      0xffffffffffffffffffffffffffffffffffffffff\n      and\n      dup2\n      mstore\n      0x20\n      add\n        /* \"contracts/walletgraphql.sol\":4892:4907  block.timestamp */\n      timestamp\n        /* \"contracts/walletgraphql.sol\":4784:4960  Transaction({... */\n      dup2\n      mstore\n      0x20\n      add\n        /* \"contracts/walletgraphql.sol\":4934:4944  _weiAmount */\n      dup4\n        /* \"contracts/walletgraphql.sol\":4784:4960  Transaction({... */\n      dup2\n      mstore\n      pop\n        /* \"contracts/walletgraphql.sol\":4746:4971  transactionHistory.push(... */\n      swap1\n      dup1\n      0x01\n      dup2\n      sload\n      add\n      dup1\n      dup3\n      sstore\n      dup1\n      swap2\n      pop\n      pop\n      0x01\n      swap1\n      sub\n      swap1\n      0x00\n      mstore\n      keccak256(0x00, 0x20)\n      swap1\n      0x04\n      mul\n      add\n      0x00\n      swap1\n      swap2\n      swap1\n      swap2\n      swap1\n      swap2\n      pop\n      0x00\n      dup3\n      add\n      mload\n      dup2\n      0x00\n      add\n      exp(0x0100, 0x00)\n      dup2\n      sload\n      dup2\n      0xffffffffffffffffffffffffffffffffffffffff\n      mul\n      not\n      and\n      swap1\n      dup4\n      0xffffffffffffffffffffffffffffffffffffffff\n      and\n      mul\n      or\n      swap1\n      sstore\n      pop\n      0x20\n      dup3\n      add\n      mload\n      dup2\n      0x01\n      add\n      exp(0x0100, 0x00)\n      dup2\n      sload\n      dup2\n      0xffffffffffffffffffffffffffffffffffffffff\n      mul\n      not\n      and\n      swap1\n      dup4\n      0xffffffffffffffffffffffffffffffffffffffff\n      and\n      mul\n      or\n      swap1\n      sstore\n      pop\n      0x40\n      dup3\n      add\n      mload\n      dup2\n      0x02\n      add\n      sstore\n      0x60\n      dup3\n      add\n      mload\n      dup2\n      0x03\n      add\n      sstore\n      pop\n      pop\n        /* \"contracts/walletgraphql.sol\":5017:5022  owner */\n      0x01\n      0x00\n      swap1\n      sload\n      swap1\n      0x0100\n      exp\n      swap1\n      div\n      0xffffffffffffffffffffffffffffffffffffffff\n      and\n        /* \"contracts/walletgraphql.sol\":4989:5088  OwnerWithdraw(... */\n      0xffffffffffffffffffffffffffffffffffffffff\n      and\n      0x1854f40cafc6d1d892b7723388876e2ddaa1e0509aed7e9c9d0e2a54d1a6e936\n        /* \"contracts/walletgraphql.sol\":5037:5047  _weiAmount */\n      dup3\n        /* \"contracts/walletgraphql.sol\":5062:5077  block.timestamp */\n      timestamp\n        /* \"contracts/walletgraphql.sol\":4989:5088  OwnerWithdraw(... */\n      mload(0x40)\n      tag_144\n      swap3\n      swap2\n      swap1\n      tag_25\n      jump\t// in\n    tag_144:\n      mload(0x40)\n      dup1\n      swap2\n      sub\n      swap1\n      log2\n        /* \"contracts/walletgraphql.sol\":4536:5109  function withdrawFromContract(uint256 _weiAmount) external onlyOwner {... */\n      pop\n      jump\t// out\n        /* \"contracts/walletgraphql.sol\":8194:8348  function getTransactionHistory()... */\n    tag_74:\n        /* \"contracts/walletgraphql.sol\":8277:8297  Transaction[] memory */\n      0x60\n        /* \"contracts/walletgraphql.sol\":8322:8340  transactionHistory */\n      0x00\n        /* \"contracts/walletgraphql.sol\":8315:8340  return transactionHistory */\n      dup1\n      sload\n      dup1\n      0x20\n      mul\n      0x20\n      add\n      mload(0x40)\n      swap1\n      dup2\n      add\n      0x40\n      mstore\n      dup1\n      swap3\n      swap2\n      swap1\n      dup2\n      dup2\n      mstore\n      0x20\n      add\n      0x00\n      swap1\n    tag_146:\n      dup3\n      dup3\n      lt\n      iszero\n      tag_147\n      jumpi\n      dup4\n      dup3\n      swap1\n      0x00\n      mstore\n      keccak256(0x00, 0x20)\n      swap1\n      0x04\n      mul\n      add\n      mload(0x40)\n      dup1\n      0x80\n      add\n      0x40\n      mstore\n      swap1\n      dup2\n      0x00\n      dup3\n      add\n      0x00\n      swap1\n      sload\n      swap1\n      0x0100\n      exp\n      swap1\n      div\n      0xffffffffffffffffffffffffffffffffffffffff\n      and\n      0xffffffffffffffffffffffffffffffffffffffff\n      and\n      0xffffffffffffffffffffffffffffffffffffffff\n      and\n      dup2\n      mstore\n      0x20\n      add\n      0x01\n      dup3\n      add\n      0x00\n      swap1\n      sload\n      swap1\n      0x0100\n      exp\n      swap1\n      div\n      0xffffffffffffffffffffffffffffffffffffffff\n      and\n      0xffffffffffffffffffffffffffffffffffffffff\n      and\n      0xffffffffffffffffffffffffffffffffffffffff\n      and\n      dup2\n      mstore\n      0x20\n      add\n      0x02\n      dup3\n      add\n      sload\n      dup2\n      mstore\n      0x20\n      add\n      0x03\n      dup3\n      add\n      sload\n      dup2\n      mstore\n      pop\n      pop\n      dup2\n      mstore\n      0x20\n      add\n      swap1\n      0x01\n      add\n      swap1\n      jump(tag_146)\n    tag_147:\n      pop\n      pop\n      pop\n      pop\n      swap1\n      pop\n        /* \"contracts/walletgraphql.sol\":8194:8348  function getTransactionHistory()... */\n      swap1\n      jump\t// out\n        /* \"contracts/walletgraphql.sol\":5117:5231  function getContractBalanceInWei() external view returns (uint256) {... */\n    tag_79:\n        /* \"contracts/walletgraphql.sol\":5175:5182  uint256 */\n      0x00\n        /* \"contracts/walletgraphql.sol\":5202:5223  address(this).balance */\n      selfbalance\n        /* \"contracts/walletgraphql.sol\":5195:5223  return address(this).balance */\n      swap1\n      pop\n        /* \"contracts/walletgraphql.sol\":5117:5231  function getContractBalanceInWei() external view returns (uint256) {... */\n      swap1\n      jump\t// out\n        /* \"contracts/walletgraphql.sol\":5988:6553  function receiveFromUser() external payable {... */\n    tag_85:\n        /* \"contracts/walletgraphql.sol\":6063:6064  0 */\n      0x00\n        /* \"contracts/walletgraphql.sol\":6051:6060  msg.value */\n      callvalue\n        /* \"contracts/walletgraphql.sol\":6051:6064  msg.value > 0 */\n      gt\n        /* \"contracts/walletgraphql.sol\":6043:6104  require(msg.value > 0, \"Wei Value must be greater than zero\") */\n      tag_151\n      jumpi\n      mload(0x40)\n      0x08c379a000000000000000000000000000000000000000000000000000000000\n      dup2\n      mstore\n      0x04\n      add\n      tag_152\n      swap1\n      tag_153\n      jump\t// in\n    tag_152:\n      mload(0x40)\n      dup1\n      swap2\n      sub\n      swap1\n      revert\n    tag_151:\n        /* \"contracts/walletgraphql.sol\":6125:6130  owner */\n      0x01\n      0x00\n      swap1\n      sload\n      swap1\n      0x0100\n      exp\n      swap1\n      div\n      0xffffffffffffffffffffffffffffffffffffffff\n      and\n        /* \"contracts/walletgraphql.sol\":6117:6140  payable(owner).transfer */\n      0xffffffffffffffffffffffffffffffffffffffff\n      and\n        /* \"contracts/walletgraphql.sol\":6117:6151  payable(owner).transfer(msg.value) */\n      0x08fc\n        /* \"contracts/walletgraphql.sol\":6141:6150  msg.value */\n      callvalue\n        /* \"contracts/walletgraphql.sol\":6117:6151  payable(owner).transfer(msg.value) */\n      swap1\n      dup2\n      iszero\n      mul\n      swap1\n      mload(0x40)\n      0x00\n      mload(0x40)\n      dup1\n      dup4\n      sub\n      dup2\n      dup6\n      dup9\n      dup9\n      call\n      swap4\n      pop\n      pop\n      pop\n      pop\n      iszero\n      dup1\n      iszero\n      tag_155\n      jumpi\n      returndatacopy(0x00, 0x00, returndatasize)\n      revert(0x00, returndatasize)\n    tag_155:\n      pop\n        /* \"contracts/walletgraphql.sol\":6164:6182  transactionHistory */\n      0x00\n        /* \"contracts/walletgraphql.sol\":6202:6374  Transaction({... */\n      mload(0x40)\n      dup1\n      0x80\n      add\n      0x40\n      mstore\n      dup1\n        /* \"contracts/walletgraphql.sol\":6239:6249  msg.sender */\n      caller\n        /* \"contracts/walletgraphql.sol\":6202:6374  Transaction({... */\n      0xffffffffffffffffffffffffffffffffffffffff\n      and\n      dup2\n      mstore\n      0x20\n      add\n        /* \"contracts/walletgraphql.sol\":6272:6277  owner */\n      0x01\n      0x00\n      swap1\n      sload\n      swap1\n      0x0100\n      exp\n      swap1\n      div\n      0xffffffffffffffffffffffffffffffffffffffff\n      and\n        /* \"contracts/walletgraphql.sol\":6202:6374  Transaction({... */\n      0xffffffffffffffffffffffffffffffffffffffff\n      and\n      dup2\n      mstore\n      0x20\n      add\n        /* \"contracts/walletgraphql.sol\":6307:6322  block.timestamp */\n      timestamp\n        /* \"contracts/walletgraphql.sol\":6202:6374  Transaction({... */\n      dup2\n      mstore\n      0x20\n      add\n        /* \"contracts/walletgraphql.sol\":6349:6358  msg.value */\n      callvalue\n        /* \"contracts/walletgraphql.sol\":6202:6374  Transaction({... */\n      dup2\n      mstore\n      pop\n        /* \"contracts/walletgraphql.sol\":6164:6385  transactionHistory.push(... */\n      swap1\n      dup1\n      0x01\n      dup2\n      sload\n      add\n      dup1\n      dup3\n      sstore\n      dup1\n      swap2\n      pop\n      pop\n      0x01\n      swap1\n      sub\n      swap1\n      0x00\n      mstore\n      keccak256(0x00, 0x20)\n      swap1\n      0x04\n      mul\n      add\n      0x00\n      swap1\n      swap2\n      swap1\n      swap2\n      swap1\n      swap2\n      pop\n      0x00\n      dup3\n      add\n      mload\n      dup2\n      0x00\n      add\n      exp(0x0100, 0x00)\n      dup2\n      sload\n      dup2\n      0xffffffffffffffffffffffffffffffffffffffff\n      mul\n      not\n      and\n      swap1\n      dup4\n      0xffffffffffffffffffffffffffffffffffffffff\n      and\n      mul\n      or\n      swap1\n      sstore\n      pop\n      0x20\n      dup3\n      add\n      mload\n      dup2\n      0x01\n      add\n      exp(0x0100, 0x00)\n      dup2\n      sload\n      dup2\n      0xffffffffffffffffffffffffffffffffffffffff\n      mul\n      not\n      and\n      swap1\n      dup4\n      0xffffffffffffffffffffffffffffffffffffffff\n      and\n      mul\n      or\n      swap1\n      sstore\n      pop\n      0x40\n      dup3\n      add\n      mload\n      dup2\n      0x02\n      add\n      sstore\n      0x60\n      dup3\n      add\n      mload\n      dup2\n      0x03\n      add\n      sstore\n      pop\n      pop\n        /* \"contracts/walletgraphql.sol\":6462:6467  owner */\n      0x01\n      0x00\n      swap1\n      sload\n      swap1\n      0x0100\n      exp\n      swap1\n      div\n      0xffffffffffffffffffffffffffffffffffffffff\n      and\n        /* \"contracts/walletgraphql.sol\":6403:6532  UserToOwnerTransfer(... */\n      0xffffffffffffffffffffffffffffffffffffffff\n      and\n        /* \"contracts/walletgraphql.sol\":6437:6447  msg.sender */\n      caller\n        /* \"contracts/walletgraphql.sol\":6403:6532  UserToOwnerTransfer(... */\n      0xffffffffffffffffffffffffffffffffffffffff\n      and\n      0xb8765ec7f8187a2481ebc55231ab7051403253057d7841135147e2b9cb1f4c9a\n        /* \"contracts/walletgraphql.sol\":6482:6491  msg.value */\n      callvalue\n        /* \"contracts/walletgraphql.sol\":6506:6521  block.timestamp */\n      timestamp\n        /* \"contracts/walletgraphql.sol\":6403:6532  UserToOwnerTransfer(... */\n      mload(0x40)\n      tag_157\n      swap3\n      swap2\n      swap1\n      tag_25\n      jump\t// in\n    tag_157:\n      mload(0x40)\n      dup1\n      swap2\n      sub\n      swap1\n      log3\n        /* \"contracts/walletgraphql.sol\":5988:6553  function receiveFromUser() external payable {... */\n      jump\t// out\n        /* \"contracts/walletgraphql.sol\":3254:3839  function transferToContract(uint256 _startTime)... */\n    tag_88:\n        /* \"contracts/walletgraphql.sol\":3364:3374  msg.sender */\n      caller\n        /* \"contracts/walletgraphql.sol\":2451:2452  5 */\n      0x05\n        /* \"contracts/walletgraphql.sol\":2425:2439  suspiciousUser */\n      0x02\n        /* \"contracts/walletgraphql.sol\":2425:2448  suspiciousUser[_sender] */\n      0x00\n        /* \"contracts/walletgraphql.sol\":2440:2447  _sender */\n      dup4\n        /* \"contracts/walletgraphql.sol\":2425:2448  suspiciousUser[_sender] */\n      0xffffffffffffffffffffffffffffffffffffffff\n      and\n      0xffffffffffffffffffffffffffffffffffffffff\n      and\n      dup2\n      mstore\n      0x20\n      add\n      swap1\n      dup2\n      mstore\n      0x20\n      add\n      0x00\n      keccak256\n      sload\n        /* \"contracts/walletgraphql.sol\":2425:2452  suspiciousUser[_sender] < 5 */\n      lt\n        /* \"contracts/walletgraphql.sol\":2403:2516  require(... */\n      tag_159\n      jumpi\n      mload(0x40)\n      0x08c379a000000000000000000000000000000000000000000000000000000000\n      dup2\n      mstore\n      0x04\n      add\n      tag_160\n      swap1\n      tag_161\n      jump\t// in\n    tag_160:\n      mload(0x40)\n      dup1\n      swap2\n      sub\n      swap1\n      revert\n    tag_159:\n        /* \"contracts/walletgraphql.sol\":3418:3428  _startTime */\n      dup2\n        /* \"contracts/walletgraphql.sol\":3400:3415  block.timestamp */\n      timestamp\n        /* \"contracts/walletgraphql.sol\":3400:3428  block.timestamp > _startTime */\n      gt\n        /* \"contracts/walletgraphql.sol\":3392:3454  require(block.timestamp > _startTime, \"send after start time\") */\n      tag_163\n      jumpi\n      mload(0x40)\n      0x08c379a000000000000000000000000000000000000000000000000000000000\n      dup2\n      mstore\n      0x04\n      add\n      tag_164\n      swap1\n      tag_165\n      jump\t// in\n    tag_164:\n      mload(0x40)\n      dup1\n      swap2\n      sub\n      swap1\n      revert\n    tag_163:\n        /* \"contracts/walletgraphql.sol\":3467:3485  transactionHistory */\n      0x00\n        /* \"contracts/walletgraphql.sol\":3505:3685  Transaction({... */\n      mload(0x40)\n      dup1\n      0x80\n      add\n      0x40\n      mstore\n      dup1\n        /* \"contracts/walletgraphql.sol\":3542:3552  msg.sender */\n      caller\n        /* \"contracts/walletgraphql.sol\":3505:3685  Transaction({... */\n      0xffffffffffffffffffffffffffffffffffffffff\n      and\n      dup2\n      mstore\n      0x20\n      add\n        /* \"contracts/walletgraphql.sol\":3583:3587  this */\n      address\n        /* \"contracts/walletgraphql.sol\":3505:3685  Transaction({... */\n      0xffffffffffffffffffffffffffffffffffffffff\n      and\n      dup2\n      mstore\n      0x20\n      add\n        /* \"contracts/walletgraphql.sol\":3618:3633  block.timestamp */\n      timestamp\n        /* \"contracts/walletgraphql.sol\":3505:3685  Transaction({... */\n      dup2\n      mstore\n      0x20\n      add\n        /* \"contracts/walletgraphql.sol\":3660:3669  msg.value */\n      callvalue\n        /* \"contracts/walletgraphql.sol\":3505:3685  Transaction({... */\n      dup2\n      mstore\n      pop\n        /* \"contracts/walletgraphql.sol\":3467:3696  transactionHistory.push(... */\n      swap1\n      dup1\n      0x01\n      dup2\n      sload\n      add\n      dup1\n      dup3\n      sstore\n      dup1\n      swap2\n      pop\n      pop\n      0x01\n      swap1\n      sub\n      swap1\n      0x00\n      mstore\n      keccak256(0x00, 0x20)\n      swap1\n      0x04\n      mul\n      add\n      0x00\n      swap1\n      swap2\n      swap1\n      swap2\n      swap1\n      swap2\n      pop\n      0x00\n      dup3\n      add\n      mload\n      dup2\n      0x00\n      add\n      exp(0x0100, 0x00)\n      dup2\n      sload\n      dup2\n      0xffffffffffffffffffffffffffffffffffffffff\n      mul\n      not\n      and\n      swap1\n      dup4\n      0xffffffffffffffffffffffffffffffffffffffff\n      and\n      mul\n      or\n      swap1\n      sstore\n      pop\n      0x20\n      dup3\n      add\n      mload\n      dup2\n      0x01\n      add\n      exp(0x0100, 0x00)\n      dup2\n      sload\n      dup2\n      0xffffffffffffffffffffffffffffffffffffffff\n      mul\n      not\n      and\n      swap1\n      dup4\n      0xffffffffffffffffffffffffffffffffffffffff\n      and\n      mul\n      or\n      swap1\n      sstore\n      pop\n      0x40\n      dup3\n      add\n      mload\n      dup2\n      0x02\n      add\n      sstore\n      0x60\n      dup3\n      add\n      mload\n      dup2\n      0x03\n      add\n      sstore\n      pop\n      pop\n        /* \"contracts/walletgraphql.sol\":3743:3753  msg.sender */\n      caller\n        /* \"contracts/walletgraphql.sol\":3714:3818  ContractFunded(... */\n      0xffffffffffffffffffffffffffffffffffffffff\n      and\n      0x3b31cbadfd3fd939750f09d3bdbd6c0531dde23f05d55dcc202798f39d090895\n        /* \"contracts/walletgraphql.sol\":3768:3777  msg.value */\n      callvalue\n        /* \"contracts/walletgraphql.sol\":3792:3807  block.timestamp */\n      timestamp\n        /* \"contracts/walletgraphql.sol\":3714:3818  ContractFunded(... */\n      mload(0x40)\n      tag_167\n      swap3\n      swap2\n      swap1\n      tag_25\n      jump\t// in\n    tag_167:\n      mload(0x40)\n      dup1\n      swap2\n      sub\n      swap1\n      log2\n        /* \"contracts/walletgraphql.sol\":3254:3839  function transferToContract(uint256 _startTime)... */\n      pop\n      pop\n      jump\t// out\n        /* \"contracts/walletgraphql.sol\":2838:3076  function changOwner(address newOwner)... */\n    tag_92:\n        /* \"contracts/walletgraphql.sol\":2124:2129  owner */\n      0x01\n      0x00\n      swap1\n      sload\n      swap1\n      0x0100\n      exp\n      swap1\n      div\n      0xffffffffffffffffffffffffffffffffffffffff\n      and\n        /* \"contracts/walletgraphql.sol\":2110:2129  msg.sender == owner */\n      0xffffffffffffffffffffffffffffffffffffffff\n      and\n        /* \"contracts/walletgraphql.sol\":2110:2120  msg.sender */\n      caller\n        /* \"contracts/walletgraphql.sol\":2110:2129  msg.sender == owner */\n      0xffffffffffffffffffffffffffffffffffffffff\n      and\n      eq\n        /* \"contracts/walletgraphql.sol\":2102:2155  require(msg.sender == owner, \"You don't have access\") */\n      tag_169\n      jumpi\n      mload(0x40)\n      0x08c379a000000000000000000000000000000000000000000000000000000000\n      dup2\n      mstore\n      0x04\n      add\n      tag_170\n      swap1\n      tag_102\n      jump\t// in\n    tag_170:\n      mload(0x40)\n      dup1\n      swap2\n      sub\n      swap1\n      revert\n    tag_169:\n        /* \"contracts/walletgraphql.sol\":2241:2246  false */\n      0x00\n        /* \"contracts/walletgraphql.sol\":2233:2246  stop == false */\n      iszero\n      iszero\n        /* \"contracts/walletgraphql.sol\":2233:2237  stop */\n      0x01\n      0x14\n      swap1\n      sload\n      swap1\n      0x0100\n      exp\n      swap1\n      div\n      0xff\n      and\n        /* \"contracts/walletgraphql.sol\":2233:2246  stop == false */\n      iszero\n      iszero\n      eq\n        /* \"contracts/walletgraphql.sol\":2225:2269  require(stop == false, \"Emergency declared\") */\n      tag_172\n      jumpi\n      mload(0x40)\n      0x08c379a000000000000000000000000000000000000000000000000000000000\n      dup2\n      mstore\n      0x04\n      add\n      tag_173\n      swap1\n      tag_174\n      jump\t// in\n    tag_173:\n      mload(0x40)\n      dup1\n      swap2\n      sub\n      swap1\n      revert\n    tag_172:\n        /* \"contracts/walletgraphql.sol\":2956:2972  address oldOwner */\n      0x00\n        /* \"contracts/walletgraphql.sol\":2975:2980  owner */\n      0x01\n      0x00\n      swap1\n      sload\n      swap1\n      0x0100\n      exp\n      swap1\n      div\n      0xffffffffffffffffffffffffffffffffffffffff\n      and\n        /* \"contracts/walletgraphql.sol\":2956:2980  address oldOwner = owner */\n      swap1\n      pop\n        /* \"contracts/walletgraphql.sol\":2999:3007  newOwner */\n      dup2\n        /* \"contracts/walletgraphql.sol\":2991:2996  owner */\n      0x01\n      0x00\n        /* \"contracts/walletgraphql.sol\":2991:3007  owner = newOwner */\n      0x0100\n      exp\n      dup2\n      sload\n      dup2\n      0xffffffffffffffffffffffffffffffffffffffff\n      mul\n      not\n      and\n      swap1\n      dup4\n      0xffffffffffffffffffffffffffffffffffffffff\n      and\n      mul\n      or\n      swap1\n      sstore\n      pop\n        /* \"contracts/walletgraphql.sol\":3046:3054  newOwner */\n      dup2\n        /* \"contracts/walletgraphql.sol\":3023:3055  OwnerChanged(oldOwner, newOwner) */\n      0xffffffffffffffffffffffffffffffffffffffff\n      and\n        /* \"contracts/walletgraphql.sol\":3036:3044  oldOwner */\n      dup2\n        /* \"contracts/walletgraphql.sol\":3023:3055  OwnerChanged(oldOwner, newOwner) */\n      0xffffffffffffffffffffffffffffffffffffffff\n      and\n      0xb532073b38c83145e3e5135377a08bf9aab55bc0fd7c1179cd4fb995d2a5159c\n      mload(0x40)\n      mload(0x40)\n      dup1\n      swap2\n      sub\n      swap1\n      log3\n        /* \"contracts/walletgraphql.sol\":2945:3076  {... */\n      pop\n        /* \"contracts/walletgraphql.sol\":2838:3076  function changOwner(address newOwner)... */\n      pop\n      jump\t// out\n        /* \"#utility.yul\":7:84   */\n    tag_176:\n        /* \"#utility.yul\":44:51   */\n      0x00\n        /* \"#utility.yul\":73:78   */\n      dup2\n        /* \"#utility.yul\":62:78   */\n      swap1\n      pop\n        /* \"#utility.yul\":7:84   */\n      swap2\n      swap1\n      pop\n      jump\t// out\n        /* \"#utility.yul\":90:208   */\n    tag_177:\n        /* \"#utility.yul\":177:201   */\n      tag_225\n        /* \"#utility.yul\":195:200   */\n      dup2\n        /* \"#utility.yul\":177:201   */\n      tag_176\n      jump\t// in\n    tag_225:\n        /* \"#utility.yul\":172:175   */\n      dup3\n        /* \"#utility.yul\":165:202   */\n      mstore\n        /* \"#utility.yul\":90:208   */\n      pop\n      pop\n      jump\t// out\n        /* \"#utility.yul\":214:546   */\n    tag_25:\n        /* \"#utility.yul\":335:339   */\n      0x00\n        /* \"#utility.yul\":373:375   */\n      0x40\n        /* \"#utility.yul\":362:371   */\n      dup3\n        /* \"#utility.yul\":358:376   */\n      add\n        /* \"#utility.yul\":350:376   */\n      swap1\n      pop\n        /* \"#utility.yul\":386:457   */\n      tag_227\n        /* \"#utility.yul\":454:455   */\n      0x00\n        /* \"#utility.yul\":443:452   */\n      dup4\n        /* \"#utility.yul\":439:456   */\n      add\n        /* \"#utility.yul\":430:436   */\n      dup6\n        /* \"#utility.yul\":386:457   */\n      tag_177\n      jump\t// in\n    tag_227:\n        /* \"#utility.yul\":467:539   */\n      tag_228\n        /* \"#utility.yul\":535:537   */\n      0x20\n        /* \"#utility.yul\":524:533   */\n      dup4\n        /* \"#utility.yul\":520:538   */\n      add\n        /* \"#utility.yul\":511:517   */\n      dup5\n        /* \"#utility.yul\":467:539   */\n      tag_177\n      jump\t// in\n    tag_228:\n        /* \"#utility.yul\":214:546   */\n      swap4\n      swap3\n      pop\n      pop\n      pop\n      jump\t// out\n        /* \"#utility.yul\":552:642   */\n    tag_178:\n        /* \"#utility.yul\":586:593   */\n      0x00\n        /* \"#utility.yul\":629:634   */\n      dup2\n        /* \"#utility.yul\":622:635   */\n      iszero\n        /* \"#utility.yul\":615:636   */\n      iszero\n        /* \"#utility.yul\":604:636   */\n      swap1\n      pop\n        /* \"#utility.yul\":552:642   */\n      swap2\n      swap1\n      pop\n      jump\t// out\n        /* \"#utility.yul\":648:757   */\n    tag_179:\n        /* \"#utility.yul\":729:750   */\n      tag_231\n        /* \"#utility.yul\":744:749   */\n      dup2\n        /* \"#utility.yul\":729:750   */\n      tag_178\n      jump\t// in\n    tag_231:\n        /* \"#utility.yul\":724:727   */\n      dup3\n        /* \"#utility.yul\":717:751   */\n      mstore\n        /* \"#utility.yul\":648:757   */\n      pop\n      pop\n      jump\t// out\n        /* \"#utility.yul\":763:973   */\n    tag_35:\n        /* \"#utility.yul\":850:854   */\n      0x00\n        /* \"#utility.yul\":888:890   */\n      0x20\n        /* \"#utility.yul\":877:886   */\n      dup3\n        /* \"#utility.yul\":873:891   */\n      add\n        /* \"#utility.yul\":865:891   */\n      swap1\n      pop\n        /* \"#utility.yul\":901:966   */\n      tag_233\n        /* \"#utility.yul\":963:964   */\n      0x00\n        /* \"#utility.yul\":952:961   */\n      dup4\n        /* \"#utility.yul\":948:965   */\n      add\n        /* \"#utility.yul\":939:945   */\n      dup5\n        /* \"#utility.yul\":901:966   */\n      tag_179\n      jump\t// in\n    tag_233:\n        /* \"#utility.yul\":763:973   */\n      swap3\n      swap2\n      pop\n      pop\n      jump\t// out\n        /* \"#utility.yul\":1060:1177   */\n    tag_181:\n        /* \"#utility.yul\":1169:1170   */\n      0x00\n        /* \"#utility.yul\":1166:1167   */\n      0x00\n        /* \"#utility.yul\":1159:1171   */\n      revert\n        /* \"#utility.yul\":1306:1428   */\n    tag_183:\n        /* \"#utility.yul\":1379:1403   */\n      tag_238\n        /* \"#utility.yul\":1397:1402   */\n      dup2\n        /* \"#utility.yul\":1379:1403   */\n      tag_176\n      jump\t// in\n    tag_238:\n        /* \"#utility.yul\":1372:1377   */\n      dup2\n        /* \"#utility.yul\":1369:1404   */\n      eq\n        /* \"#utility.yul\":1359:1422   */\n      tag_239\n      jumpi\n        /* \"#utility.yul\":1418:1419   */\n      0x00\n        /* \"#utility.yul\":1415:1416   */\n      0x00\n        /* \"#utility.yul\":1408:1420   */\n      revert\n        /* \"#utility.yul\":1359:1422   */\n    tag_239:\n        /* \"#utility.yul\":1306:1428   */\n      pop\n      jump\t// out\n        /* \"#utility.yul\":1434:1573   */\n    tag_184:\n        /* \"#utility.yul\":1480:1485   */\n      0x00\n        /* \"#utility.yul\":1518:1524   */\n      dup2\n        /* \"#utility.yul\":1505:1525   */\n      calldataload\n        /* \"#utility.yul\":1496:1525   */\n      swap1\n      pop\n        /* \"#utility.yul\":1534:1567   */\n      tag_241\n        /* \"#utility.yul\":1561:1566   */\n      dup2\n        /* \"#utility.yul\":1534:1567   */\n      tag_183\n      jump\t// in\n    tag_241:\n        /* \"#utility.yul\":1434:1573   */\n      swap3\n      swap2\n      pop\n      pop\n      jump\t// out\n        /* \"#utility.yul\":1579:1908   */\n    tag_39:\n        /* \"#utility.yul\":1638:1644   */\n      0x00\n        /* \"#utility.yul\":1687:1689   */\n      0x20\n        /* \"#utility.yul\":1675:1684   */\n      dup3\n        /* \"#utility.yul\":1666:1673   */\n      dup5\n        /* \"#utility.yul\":1662:1685   */\n      sub\n        /* \"#utility.yul\":1658:1690   */\n      slt\n        /* \"#utility.yul\":1655:1774   */\n      iszero\n      tag_243\n      jumpi\n        /* \"#utility.yul\":1693:1772   */\n      tag_244\n      tag_181\n      jump\t// in\n    tag_244:\n        /* \"#utility.yul\":1655:1774   */\n    tag_243:\n        /* \"#utility.yul\":1813:1814   */\n      0x00\n        /* \"#utility.yul\":1838:1891   */\n      tag_245\n        /* \"#utility.yul\":1883:1890   */\n      dup5\n        /* \"#utility.yul\":1874:1880   */\n      dup3\n        /* \"#utility.yul\":1863:1872   */\n      dup6\n        /* \"#utility.yul\":1859:1881   */\n      add\n        /* \"#utility.yul\":1838:1891   */\n      tag_184\n      jump\t// in\n    tag_245:\n        /* \"#utility.yul\":1828:1891   */\n      swap2\n      pop\n        /* \"#utility.yul\":1784:1901   */\n      pop\n        /* \"#utility.yul\":1579:1908   */\n      swap3\n      swap2\n      pop\n      pop\n      jump\t// out\n        /* \"#utility.yul\":1914:2040   */\n    tag_185:\n        /* \"#utility.yul\":1951:1958   */\n      0x00\n        /* \"#utility.yul\":1991:2033   */\n      0xffffffffffffffffffffffffffffffffffffffff\n        /* \"#utility.yul\":1984:1989   */\n      dup3\n        /* \"#utility.yul\":1980:2034   */\n      and\n        /* \"#utility.yul\":1969:2034   */\n      swap1\n      pop\n        /* \"#utility.yul\":1914:2040   */\n      swap2\n      swap1\n      pop\n      jump\t// out\n        /* \"#utility.yul\":2046:2142   */\n    tag_186:\n        /* \"#utility.yul\":2083:2090   */\n      0x00\n        /* \"#utility.yul\":2112:2136   */\n      tag_248\n        /* \"#utility.yul\":2130:2135   */\n      dup3\n        /* \"#utility.yul\":2112:2136   */\n      tag_185\n      jump\t// in\n    tag_248:\n        /* \"#utility.yul\":2101:2136   */\n      swap1\n      pop\n        /* \"#utility.yul\":2046:2142   */\n      swap2\n      swap1\n      pop\n      jump\t// out\n        /* \"#utility.yul\":2148:2266   */\n    tag_187:\n        /* \"#utility.yul\":2235:2259   */\n      tag_250\n        /* \"#utility.yul\":2253:2258   */\n      dup2\n        /* \"#utility.yul\":2235:2259   */\n      tag_186\n      jump\t// in\n    tag_250:\n        /* \"#utility.yul\":2230:2233   */\n      dup3\n        /* \"#utility.yul\":2223:2260   */\n      mstore\n        /* \"#utility.yul\":2148:2266   */\n      pop\n      pop\n      jump\t// out\n        /* \"#utility.yul\":2272:2825   */\n    tag_42:\n        /* \"#utility.yul\":2449:2453   */\n      0x00\n        /* \"#utility.yul\":2487:2490   */\n      0x80\n        /* \"#utility.yul\":2476:2485   */\n      dup3\n        /* \"#utility.yul\":2472:2491   */\n      add\n        /* \"#utility.yul\":2464:2491   */\n      swap1\n      pop\n        /* \"#utility.yul\":2501:2572   */\n      tag_252\n        /* \"#utility.yul\":2569:2570   */\n      0x00\n        /* \"#utility.yul\":2558:2567   */\n      dup4\n        /* \"#utility.yul\":2554:2571   */\n      add\n        /* \"#utility.yul\":2545:2551   */\n      dup8\n        /* \"#utility.yul\":2501:2572   */\n      tag_187\n      jump\t// in\n    tag_252:\n        /* \"#utility.yul\":2582:2654   */\n      tag_253\n        /* \"#utility.yul\":2650:2652   */\n      0x20\n        /* \"#utility.yul\":2639:2648   */\n      dup4\n        /* \"#utility.yul\":2635:2653   */\n      add\n        /* \"#utility.yul\":2626:2632   */\n      dup7\n        /* \"#utility.yul\":2582:2654   */\n      tag_187\n      jump\t// in\n    tag_253:\n        /* \"#utility.yul\":2664:2736   */\n      tag_254\n        /* \"#utility.yul\":2732:2734   */\n      0x40\n        /* \"#utility.yul\":2721:2730   */\n      dup4\n        /* \"#utility.yul\":2717:2735   */\n      add\n        /* \"#utility.yul\":2708:2714   */\n      dup6\n        /* \"#utility.yul\":2664:2736   */\n      tag_177\n      jump\t// in\n    tag_254:\n        /* \"#utility.yul\":2746:2818   */\n      tag_255\n        /* \"#utility.yul\":2814:2816   */\n      0x60\n        /* \"#utility.yul\":2803:2812   */\n      dup4\n        /* \"#utility.yul\":2799:2817   */\n      add\n        /* \"#utility.yul\":2790:2796   */\n      dup5\n        /* \"#utility.yul\":2746:2818   */\n      tag_177\n      jump\t// in\n    tag_255:\n        /* \"#utility.yul\":2272:2825   */\n      swap6\n      swap5\n      pop\n      pop\n      pop\n      pop\n      pop\n      jump\t// out\n        /* \"#utility.yul\":2831:2935   */\n    tag_188:\n        /* \"#utility.yul\":2876:2883   */\n      0x00\n        /* \"#utility.yul\":2905:2929   */\n      tag_257\n        /* \"#utility.yul\":2923:2928   */\n      dup3\n        /* \"#utility.yul\":2905:2929   */\n      tag_185\n      jump\t// in\n    tag_257:\n        /* \"#utility.yul\":2894:2929   */\n      swap1\n      pop\n        /* \"#utility.yul\":2831:2935   */\n      swap2\n      swap1\n      pop\n      jump\t// out\n        /* \"#utility.yul\":2941:3079   */\n    tag_189:\n        /* \"#utility.yul\":3022:3054   */\n      tag_259\n        /* \"#utility.yul\":3048:3053   */\n      dup2\n        /* \"#utility.yul\":3022:3054   */\n      tag_188\n      jump\t// in\n    tag_259:\n        /* \"#utility.yul\":3015:3020   */\n      dup2\n        /* \"#utility.yul\":3012:3055   */\n      eq\n        /* \"#utility.yul\":3002:3073   */\n      tag_260\n      jumpi\n        /* \"#utility.yul\":3069:3070   */\n      0x00\n        /* \"#utility.yul\":3066:3067   */\n      0x00\n        /* \"#utility.yul\":3059:3071   */\n      revert\n        /* \"#utility.yul\":3002:3073   */\n    tag_260:\n        /* \"#utility.yul\":2941:3079   */\n      pop\n      jump\t// out\n        /* \"#utility.yul\":3085:3240   */\n    tag_190:\n        /* \"#utility.yul\":3139:3144   */\n      0x00\n        /* \"#utility.yul\":3177:3183   */\n      dup2\n        /* \"#utility.yul\":3164:3184   */\n      calldataload\n        /* \"#utility.yul\":3155:3184   */\n      swap1\n      pop\n        /* \"#utility.yul\":3193:3234   */\n      tag_262\n        /* \"#utility.yul\":3228:3233   */\n      dup2\n        /* \"#utility.yul\":3193:3234   */\n      tag_189\n      jump\t// in\n    tag_262:\n        /* \"#utility.yul\":3085:3240   */\n      swap3\n      swap2\n      pop\n      pop\n      jump\t// out\n        /* \"#utility.yul\":3246:3736   */\n    tag_46:\n        /* \"#utility.yul\":3322:3328   */\n      0x00\n        /* \"#utility.yul\":3330:3336   */\n      0x00\n        /* \"#utility.yul\":3379:3381   */\n      0x40\n        /* \"#utility.yul\":3367:3376   */\n      dup4\n        /* \"#utility.yul\":3358:3365   */\n      dup6\n        /* \"#utility.yul\":3354:3377   */\n      sub\n        /* \"#utility.yul\":3350:3382   */\n      slt\n        /* \"#utility.yul\":3347:3466   */\n      iszero\n      tag_264\n      jumpi\n        /* \"#utility.yul\":3385:3464   */\n      tag_265\n      tag_181\n      jump\t// in\n    tag_265:\n        /* \"#utility.yul\":3347:3466   */\n    tag_264:\n        /* \"#utility.yul\":3505:3506   */\n      0x00\n        /* \"#utility.yul\":3530:3591   */\n      tag_266\n        /* \"#utility.yul\":3583:3590   */\n      dup6\n        /* \"#utility.yul\":3574:3580   */\n      dup3\n        /* \"#utility.yul\":3563:3572   */\n      dup7\n        /* \"#utility.yul\":3559:3581   */\n      add\n        /* \"#utility.yul\":3530:3591   */\n      tag_190\n      jump\t// in\n    tag_266:\n        /* \"#utility.yul\":3520:3591   */\n      swap3\n      pop\n        /* \"#utility.yul\":3476:3601   */\n      pop\n        /* \"#utility.yul\":3640:3642   */\n      0x20\n        /* \"#utility.yul\":3666:3719   */\n      tag_267\n        /* \"#utility.yul\":3711:3718   */\n      dup6\n        /* \"#utility.yul\":3702:3708   */\n      dup3\n        /* \"#utility.yul\":3691:3700   */\n      dup7\n        /* \"#utility.yul\":3687:3709   */\n      add\n        /* \"#utility.yul\":3666:3719   */\n      tag_184\n      jump\t// in\n    tag_267:\n        /* \"#utility.yul\":3656:3719   */\n      swap2\n      pop\n        /* \"#utility.yul\":3611:3729   */\n      pop\n        /* \"#utility.yul\":3246:3736   */\n      swap3\n      pop\n      swap3\n      swap1\n      pop\n      jump\t// out\n        /* \"#utility.yul\":3742:3964   */\n    tag_52:\n        /* \"#utility.yul\":3835:3839   */\n      0x00\n        /* \"#utility.yul\":3873:3875   */\n      0x20\n        /* \"#utility.yul\":3862:3871   */\n      dup3\n        /* \"#utility.yul\":3858:3876   */\n      add\n        /* \"#utility.yul\":3850:3876   */\n      swap1\n      pop\n        /* \"#utility.yul\":3886:3957   */\n      tag_269\n        /* \"#utility.yul\":3954:3955   */\n      0x00\n        /* \"#utility.yul\":3943:3952   */\n      dup4\n        /* \"#utility.yul\":3939:3956   */\n      add\n        /* \"#utility.yul\":3930:3936   */\n      dup5\n        /* \"#utility.yul\":3886:3957   */\n      tag_177\n      jump\t// in\n    tag_269:\n        /* \"#utility.yul\":3742:3964   */\n      swap3\n      swap2\n      pop\n      pop\n      jump\t// out\n        /* \"#utility.yul\":3970:4092   */\n    tag_191:\n        /* \"#utility.yul\":4043:4067   */\n      tag_271\n        /* \"#utility.yul\":4061:4066   */\n      dup2\n        /* \"#utility.yul\":4043:4067   */\n      tag_186\n      jump\t// in\n    tag_271:\n        /* \"#utility.yul\":4036:4041   */\n      dup2\n        /* \"#utility.yul\":4033:4068   */\n      eq\n        /* \"#utility.yul\":4023:4086   */\n      tag_272\n      jumpi\n        /* \"#utility.yul\":4082:4083   */\n      0x00\n        /* \"#utility.yul\":4079:4080   */\n      0x00\n        /* \"#utility.yul\":4072:4084   */\n      revert\n        /* \"#utility.yul\":4023:4086   */\n    tag_272:\n        /* \"#utility.yul\":3970:4092   */\n      pop\n      jump\t// out\n        /* \"#utility.yul\":4098:4237   */\n    tag_192:\n        /* \"#utility.yul\":4144:4149   */\n      0x00\n        /* \"#utility.yul\":4182:4188   */\n      dup2\n        /* \"#utility.yul\":4169:4189   */\n      calldataload\n        /* \"#utility.yul\":4160:4189   */\n      swap1\n      pop\n        /* \"#utility.yul\":4198:4231   */\n      tag_274\n        /* \"#utility.yul\":4225:4230   */\n      dup2\n        /* \"#utility.yul\":4198:4231   */\n      tag_191\n      jump\t// in\n    tag_274:\n        /* \"#utility.yul\":4098:4237   */\n      swap3\n      swap2\n      pop\n      pop\n      jump\t// out\n        /* \"#utility.yul\":4243:4572   */\n    tag_55:\n        /* \"#utility.yul\":4302:4308   */\n      0x00\n        /* \"#utility.yul\":4351:4353   */\n      0x20\n        /* \"#utility.yul\":4339:4348   */\n      dup3\n        /* \"#utility.yul\":4330:4337   */\n      dup5\n        /* \"#utility.yul\":4326:4349   */\n      sub\n        /* \"#utility.yul\":4322:4354   */\n      slt\n        /* \"#utility.yul\":4319:4438   */\n      iszero\n      tag_276\n      jumpi\n        /* \"#utility.yul\":4357:4436   */\n      tag_277\n      tag_181\n      jump\t// in\n    tag_277:\n        /* \"#utility.yul\":4319:4438   */\n    tag_276:\n        /* \"#utility.yul\":4477:4478   */\n      0x00\n        /* \"#utility.yul\":4502:4555   */\n      tag_278\n        /* \"#utility.yul\":4547:4554   */\n      dup5\n        /* \"#utility.yul\":4538:4544   */\n      dup3\n        /* \"#utility.yul\":4527:4536   */\n      dup6\n        /* \"#utility.yul\":4523:4545   */\n      add\n        /* \"#utility.yul\":4502:4555   */\n      tag_192\n      jump\t// in\n    tag_278:\n        /* \"#utility.yul\":4492:4555   */\n      swap2\n      pop\n        /* \"#utility.yul\":4448:4565   */\n      pop\n        /* \"#utility.yul\":4243:4572   */\n      swap3\n      swap2\n      pop\n      pop\n      jump\t// out\n        /* \"#utility.yul\":4578:4800   */\n    tag_64:\n        /* \"#utility.yul\":4671:4675   */\n      0x00\n        /* \"#utility.yul\":4709:4711   */\n      0x20\n        /* \"#utility.yul\":4698:4707   */\n      dup3\n        /* \"#utility.yul\":4694:4712   */\n      add\n        /* \"#utility.yul\":4686:4712   */\n      swap1\n      pop\n        /* \"#utility.yul\":4722:4793   */\n      tag_280\n        /* \"#utility.yul\":4790:4791   */\n      0x00\n        /* \"#utility.yul\":4779:4788   */\n      dup4\n        /* \"#utility.yul\":4775:4792   */\n      add\n        /* \"#utility.yul\":4766:4772   */\n      dup5\n        /* \"#utility.yul\":4722:4793   */\n      tag_187\n      jump\t// in\n    tag_280:\n        /* \"#utility.yul\":4578:4800   */\n      swap3\n      swap2\n      pop\n      pop\n      jump\t// out\n        /* \"#utility.yul\":4806:4947   */\n    tag_193:\n        /* \"#utility.yul\":4900:4906   */\n      0x00\n        /* \"#utility.yul\":4934:4939   */\n      dup2\n        /* \"#utility.yul\":4928:4940   */\n      mload\n        /* \"#utility.yul\":4918:4940   */\n      swap1\n      pop\n        /* \"#utility.yul\":4806:4947   */\n      swap2\n      swap1\n      pop\n      jump\t// out\n        /* \"#utility.yul\":4953:5164   */\n    tag_194:\n        /* \"#utility.yul\":5079:5090   */\n      0x00\n        /* \"#utility.yul\":5113:5119   */\n      dup3\n        /* \"#utility.yul\":5108:5111   */\n      dup3\n        /* \"#utility.yul\":5101:5120   */\n      mstore\n        /* \"#utility.yul\":5153:5157   */\n      0x20\n        /* \"#utility.yul\":5148:5151   */\n      dup3\n        /* \"#utility.yul\":5144:5158   */\n      add\n        /* \"#utility.yul\":5129:5158   */\n      swap1\n      pop\n        /* \"#utility.yul\":4953:5164   */\n      swap3\n      swap2\n      pop\n      pop\n      jump\t// out\n        /* \"#utility.yul\":5170:5329   */\n    tag_195:\n        /* \"#utility.yul\":5264:5268   */\n      0x00\n        /* \"#utility.yul\":5287:5290   */\n      dup2\n        /* \"#utility.yul\":5279:5290   */\n      swap1\n      pop\n        /* \"#utility.yul\":5317:5321   */\n      0x20\n        /* \"#utility.yul\":5312:5315   */\n      dup3\n        /* \"#utility.yul\":5308:5322   */\n      add\n        /* \"#utility.yul\":5300:5322   */\n      swap1\n      pop\n        /* \"#utility.yul\":5170:5329   */\n      swap2\n      swap1\n      pop\n      jump\t// out\n        /* \"#utility.yul\":5335:5443   */\n    tag_196:\n        /* \"#utility.yul\":5412:5436   */\n      tag_285\n        /* \"#utility.yul\":5430:5435   */\n      dup2\n        /* \"#utility.yul\":5412:5436   */\n      tag_186\n      jump\t// in\n    tag_285:\n        /* \"#utility.yul\":5407:5410   */\n      dup3\n        /* \"#utility.yul\":5400:5437   */\n      mstore\n        /* \"#utility.yul\":5335:5443   */\n      pop\n      pop\n      jump\t// out\n        /* \"#utility.yul\":5449:5557   */\n    tag_197:\n        /* \"#utility.yul\":5526:5550   */\n      tag_287\n        /* \"#utility.yul\":5544:5549   */\n      dup2\n        /* \"#utility.yul\":5526:5550   */\n      tag_176\n      jump\t// in\n    tag_287:\n        /* \"#utility.yul\":5521:5524   */\n      dup3\n        /* \"#utility.yul\":5514:5551   */\n      mstore\n        /* \"#utility.yul\":5449:5557   */\n      pop\n      pop\n      jump\t// out\n        /* \"#utility.yul\":5637:6491   */\n    tag_198:\n        /* \"#utility.yul\":5778:5782   */\n      0x80\n        /* \"#utility.yul\":5773:5776   */\n      dup3\n        /* \"#utility.yul\":5769:5783   */\n      add\n        /* \"#utility.yul\":5865:5869   */\n      0x00\n        /* \"#utility.yul\":5858:5863   */\n      dup3\n        /* \"#utility.yul\":5854:5870   */\n      add\n        /* \"#utility.yul\":5848:5871   */\n      mload\n        /* \"#utility.yul\":5884:5947   */\n      tag_289\n        /* \"#utility.yul\":5941:5945   */\n      0x00\n        /* \"#utility.yul\":5936:5939   */\n      dup6\n        /* \"#utility.yul\":5932:5946   */\n      add\n        /* \"#utility.yul\":5918:5930   */\n      dup3\n        /* \"#utility.yul\":5884:5947   */\n      tag_196\n      jump\t// in\n    tag_289:\n        /* \"#utility.yul\":5793:5957   */\n      pop\n        /* \"#utility.yul\":6037:6041   */\n      0x20\n        /* \"#utility.yul\":6030:6035   */\n      dup3\n        /* \"#utility.yul\":6026:6042   */\n      add\n        /* \"#utility.yul\":6020:6043   */\n      mload\n        /* \"#utility.yul\":6056:6119   */\n      tag_290\n        /* \"#utility.yul\":6113:6117   */\n      0x20\n        /* \"#utility.yul\":6108:6111   */\n      dup6\n        /* \"#utility.yul\":6104:6118   */\n      add\n        /* \"#utility.yul\":6090:6102   */\n      dup3\n        /* \"#utility.yul\":6056:6119   */\n      tag_196\n      jump\t// in\n    tag_290:\n        /* \"#utility.yul\":5967:6129   */\n      pop\n        /* \"#utility.yul\":6216:6220   */\n      0x40\n        /* \"#utility.yul\":6209:6214   */\n      dup3\n        /* \"#utility.yul\":6205:6221   */\n      add\n        /* \"#utility.yul\":6199:6222   */\n      mload\n        /* \"#utility.yul\":6235:6298   */\n      tag_291\n        /* \"#utility.yul\":6292:6296   */\n      0x40\n        /* \"#utility.yul\":6287:6290   */\n      dup6\n        /* \"#utility.yul\":6283:6297   */\n      add\n        /* \"#utility.yul\":6269:6281   */\n      dup3\n        /* \"#utility.yul\":6235:6298   */\n      tag_197\n      jump\t// in\n    tag_291:\n        /* \"#utility.yul\":6139:6308   */\n      pop\n        /* \"#utility.yul\":6392:6396   */\n      0x60\n        /* \"#utility.yul\":6385:6390   */\n      dup3\n        /* \"#utility.yul\":6381:6397   */\n      add\n        /* \"#utility.yul\":6375:6398   */\n      mload\n        /* \"#utility.yul\":6411:6474   */\n      tag_292\n        /* \"#utility.yul\":6468:6472   */\n      0x60\n        /* \"#utility.yul\":6463:6466   */\n      dup6\n        /* \"#utility.yul\":6459:6473   */\n      add\n        /* \"#utility.yul\":6445:6457   */\n      dup3\n        /* \"#utility.yul\":6411:6474   */\n      tag_197\n      jump\t// in\n    tag_292:\n        /* \"#utility.yul\":6318:6484   */\n      pop\n        /* \"#utility.yul\":5747:6491   */\n      pop\n        /* \"#utility.yul\":5637:6491   */\n      pop\n      pop\n      jump\t// out\n        /* \"#utility.yul\":6497:6784   */\n    tag_199:\n        /* \"#utility.yul\":6620:6630   */\n      0x00\n        /* \"#utility.yul\":6641:6741   */\n      tag_294\n        /* \"#utility.yul\":6737:6740   */\n      dup4\n        /* \"#utility.yul\":6729:6735   */\n      dup4\n        /* \"#utility.yul\":6641:6741   */\n      tag_198\n      jump\t// in\n    tag_294:\n        /* \"#utility.yul\":6773:6777   */\n      0x80\n        /* \"#utility.yul\":6768:6771   */\n      dup4\n        /* \"#utility.yul\":6764:6778   */\n      add\n        /* \"#utility.yul\":6750:6778   */\n      swap1\n      pop\n        /* \"#utility.yul\":6497:6784   */\n      swap3\n      swap2\n      pop\n      pop\n      jump\t// out\n        /* \"#utility.yul\":6790:6930   */\n    tag_200:\n        /* \"#utility.yul\":6887:6891   */\n      0x00\n        /* \"#utility.yul\":6919:6923   */\n      0x20\n        /* \"#utility.yul\":6914:6917   */\n      dup3\n        /* \"#utility.yul\":6910:6924   */\n      add\n        /* \"#utility.yul\":6902:6924   */\n      swap1\n      pop\n        /* \"#utility.yul\":6790:6930   */\n      swap2\n      swap1\n      pop\n      jump\t// out\n        /* \"#utility.yul\":7014:7962   */\n    tag_201:\n        /* \"#utility.yul\":7187:7190   */\n      0x00\n        /* \"#utility.yul\":7216:7297   */\n      tag_297\n        /* \"#utility.yul\":7291:7296   */\n      dup3\n        /* \"#utility.yul\":7216:7297   */\n      tag_193\n      jump\t// in\n    tag_297:\n        /* \"#utility.yul\":7313:7426   */\n      tag_298\n        /* \"#utility.yul\":7419:7425   */\n      dup2\n        /* \"#utility.yul\":7414:7417   */\n      dup6\n        /* \"#utility.yul\":7313:7426   */\n      tag_194\n      jump\t// in\n    tag_298:\n        /* \"#utility.yul\":7306:7426   */\n      swap4\n      pop\n        /* \"#utility.yul\":7450:7533   */\n      tag_299\n        /* \"#utility.yul\":7527:7532   */\n      dup4\n        /* \"#utility.yul\":7450:7533   */\n      tag_195\n      jump\t// in\n    tag_299:\n        /* \"#utility.yul\":7556:7563   */\n      dup1\n        /* \"#utility.yul\":7587:7588   */\n      0x00\n        /* \"#utility.yul\":7572:7937   */\n    tag_300:\n        /* \"#utility.yul\":7597:7603   */\n      dup4\n        /* \"#utility.yul\":7594:7595   */\n      dup2\n        /* \"#utility.yul\":7591:7604   */\n      lt\n        /* \"#utility.yul\":7572:7937   */\n      iszero\n      tag_302\n      jumpi\n        /* \"#utility.yul\":7673:7679   */\n      dup2\n        /* \"#utility.yul\":7667:7680   */\n      mload\n        /* \"#utility.yul\":7700:7817   */\n      tag_303\n        /* \"#utility.yul\":7813:7816   */\n      dup9\n        /* \"#utility.yul\":7798:7811   */\n      dup3\n        /* \"#utility.yul\":7700:7817   */\n      tag_199\n      jump\t// in\n    tag_303:\n        /* \"#utility.yul\":7693:7817   */\n      swap8\n      pop\n        /* \"#utility.yul\":7840:7927   */\n      tag_304\n        /* \"#utility.yul\":7920:7926   */\n      dup4\n        /* \"#utility.yul\":7840:7927   */\n      tag_200\n      jump\t// in\n    tag_304:\n        /* \"#utility.yul\":7830:7927   */\n      swap3\n      pop\n        /* \"#utility.yul\":7632:7937   */\n      pop\n        /* \"#utility.yul\":7619:7620   */\n      0x01\n        /* \"#utility.yul\":7616:7617   */\n      dup2\n        /* \"#utility.yul\":7612:7621   */\n      add\n        /* \"#utility.yul\":7607:7621   */\n      swap1\n      pop\n        /* \"#utility.yul\":7572:7937   */\n      jump(tag_300)\n    tag_302:\n        /* \"#utility.yul\":7576:7590   */\n      pop\n        /* \"#utility.yul\":7953:7956   */\n      dup6\n        /* \"#utility.yul\":7946:7956   */\n      swap4\n      pop\n        /* \"#utility.yul\":7192:7962   */\n      pop\n      pop\n      pop\n        /* \"#utility.yul\":7014:7962   */\n      swap3\n      swap2\n      pop\n      pop\n      jump\t// out\n        /* \"#utility.yul\":7968:8449   */\n    tag_76:\n        /* \"#utility.yul\":8165:8169   */\n      0x00\n        /* \"#utility.yul\":8203:8205   */\n      0x20\n        /* \"#utility.yul\":8192:8201   */\n      dup3\n        /* \"#utility.yul\":8188:8206   */\n      add\n        /* \"#utility.yul\":8180:8206   */\n      swap1\n      pop\n        /* \"#utility.yul\":8252:8261   */\n      dup2\n        /* \"#utility.yul\":8246:8250   */\n      dup2\n        /* \"#utility.yul\":8242:8262   */\n      sub\n        /* \"#utility.yul\":8238:8239   */\n      0x00\n        /* \"#utility.yul\":8227:8236   */\n      dup4\n        /* \"#utility.yul\":8223:8240   */\n      add\n        /* \"#utility.yul\":8216:8263   */\n      mstore\n        /* \"#utility.yul\":8280:8442   */\n      tag_306\n        /* \"#utility.yul\":8437:8441   */\n      dup2\n        /* \"#utility.yul\":8428:8434   */\n      dup5\n        /* \"#utility.yul\":8280:8442   */\n      tag_201\n      jump\t// in\n    tag_306:\n        /* \"#utility.yul\":8272:8442   */\n      swap1\n      pop\n        /* \"#utility.yul\":7968:8449   */\n      swap3\n      swap2\n      pop\n      pop\n      jump\t// out\n        /* \"#utility.yul\":8455:8635   */\n    tag_202:\n        /* \"#utility.yul\":8503:8580   */\n      0x4e487b7100000000000000000000000000000000000000000000000000000000\n        /* \"#utility.yul\":8500:8501   */\n      0x00\n        /* \"#utility.yul\":8493:8581   */\n      mstore\n        /* \"#utility.yul\":8600:8604   */\n      0x11\n        /* \"#utility.yul\":8597:8598   */\n      0x04\n        /* \"#utility.yul\":8590:8605   */\n      mstore\n        /* \"#utility.yul\":8624:8628   */\n      0x24\n        /* \"#utility.yul\":8621:8622   */\n      0x00\n        /* \"#utility.yul\":8614:8629   */\n      revert\n        /* \"#utility.yul\":8641:8832   */\n    tag_95:\n        /* \"#utility.yul\":8681:8684   */\n      0x00\n        /* \"#utility.yul\":8700:8720   */\n      tag_309\n        /* \"#utility.yul\":8718:8719   */\n      dup3\n        /* \"#utility.yul\":8700:8720   */\n      tag_176\n      jump\t// in\n    tag_309:\n        /* \"#utility.yul\":8695:8720   */\n      swap2\n      pop\n        /* \"#utility.yul\":8734:8754   */\n      tag_310\n        /* \"#utility.yul\":8752:8753   */\n      dup4\n        /* \"#utility.yul\":8734:8754   */\n      tag_176\n      jump\t// in\n    tag_310:\n        /* \"#utility.yul\":8729:8754   */\n      swap3\n      pop\n        /* \"#utility.yul\":8777:8778   */\n      dup3\n        /* \"#utility.yul\":8774:8775   */\n      dup3\n        /* \"#utility.yul\":8770:8779   */\n      add\n        /* \"#utility.yul\":8763:8779   */\n      swap1\n      pop\n        /* \"#utility.yul\":8798:8801   */\n      dup1\n        /* \"#utility.yul\":8795:8796   */\n      dup3\n        /* \"#utility.yul\":8792:8802   */\n      gt\n        /* \"#utility.yul\":8789:8825   */\n      iszero\n      tag_311\n      jumpi\n        /* \"#utility.yul\":8805:8823   */\n      tag_312\n      tag_202\n      jump\t// in\n    tag_312:\n        /* \"#utility.yul\":8789:8825   */\n    tag_311:\n        /* \"#utility.yul\":8641:8832   */\n      swap3\n      swap2\n      pop\n      pop\n      jump\t// out\n        /* \"#utility.yul\":8838:9007   */\n    tag_203:\n        /* \"#utility.yul\":8922:8933   */\n      0x00\n        /* \"#utility.yul\":8956:8962   */\n      dup3\n        /* \"#utility.yul\":8951:8954   */\n      dup3\n        /* \"#utility.yul\":8944:8963   */\n      mstore\n        /* \"#utility.yul\":8996:9000   */\n      0x20\n        /* \"#utility.yul\":8991:8994   */\n      dup3\n        /* \"#utility.yul\":8987:9001   */\n      add\n        /* \"#utility.yul\":8972:9001   */\n      swap1\n      pop\n        /* \"#utility.yul\":8838:9007   */\n      swap3\n      swap2\n      pop\n      pop\n      jump\t// out\n        /* \"#utility.yul\":9013:9184   */\n    tag_204:\n        /* \"#utility.yul\":9153:9176   */\n      0x596f7520646f6e27742068617665206163636573730000000000000000000000\n        /* \"#utility.yul\":9149:9150   */\n      0x00\n        /* \"#utility.yul\":9141:9147   */\n      dup3\n        /* \"#utility.yul\":9137:9151   */\n      add\n        /* \"#utility.yul\":9130:9177   */\n      mstore\n        /* \"#utility.yul\":9013:9184   */\n      pop\n      jump\t// out\n        /* \"#utility.yul\":9190:9556   */\n    tag_205:\n        /* \"#utility.yul\":9332:9335   */\n      0x00\n        /* \"#utility.yul\":9353:9420   */\n      tag_316\n        /* \"#utility.yul\":9417:9419   */\n      0x15\n        /* \"#utility.yul\":9412:9415   */\n      dup4\n        /* \"#utility.yul\":9353:9420   */\n      tag_203\n      jump\t// in\n    tag_316:\n        /* \"#utility.yul\":9346:9420   */\n      swap2\n      pop\n        /* \"#utility.yul\":9429:9522   */\n      tag_317\n        /* \"#utility.yul\":9518:9521   */\n      dup3\n        /* \"#utility.yul\":9429:9522   */\n      tag_204\n      jump\t// in\n    tag_317:\n        /* \"#utility.yul\":9547:9549   */\n      0x20\n        /* \"#utility.yul\":9542:9545   */\n      dup3\n        /* \"#utility.yul\":9538:9550   */\n      add\n        /* \"#utility.yul\":9531:9550   */\n      swap1\n      pop\n        /* \"#utility.yul\":9190:9556   */\n      swap2\n      swap1\n      pop\n      jump\t// out\n        /* \"#utility.yul\":9562:9981   */\n    tag_102:\n        /* \"#utility.yul\":9728:9732   */\n      0x00\n        /* \"#utility.yul\":9766:9768   */\n      0x20\n        /* \"#utility.yul\":9755:9764   */\n      dup3\n        /* \"#utility.yul\":9751:9769   */\n      add\n        /* \"#utility.yul\":9743:9769   */\n      swap1\n      pop\n        /* \"#utility.yul\":9815:9824   */\n      dup2\n        /* \"#utility.yul\":9809:9813   */\n      dup2\n        /* \"#utility.yul\":9805:9825   */\n      sub\n        /* \"#utility.yul\":9801:9802   */\n      0x00\n        /* \"#utility.yul\":9790:9799   */\n      dup4\n        /* \"#utility.yul\":9786:9803   */\n      add\n        /* \"#utility.yul\":9779:9826   */\n      mstore\n        /* \"#utility.yul\":9843:9974   */\n      tag_319\n        /* \"#utility.yul\":9969:9973   */\n      dup2\n        /* \"#utility.yul\":9843:9974   */\n      tag_205\n      jump\t// in\n    tag_319:\n        /* \"#utility.yul\":9835:9974   */\n      swap1\n      pop\n        /* \"#utility.yul\":9562:9981   */\n      swap2\n      swap1\n      pop\n      jump\t// out\n        /* \"#utility.yul\":9987:10157   */\n    tag_206:\n        /* \"#utility.yul\":10127:10149   */\n      0x496e73756666696369656e742042616c616e6365000000000000000000000000\n        /* \"#utility.yul\":10123:10124   */\n      0x00\n        /* \"#utility.yul\":10115:10121   */\n      dup3\n        /* \"#utility.yul\":10111:10125   */\n      add\n        /* \"#utility.yul\":10104:10150   */\n      mstore\n        /* \"#utility.yul\":9987:10157   */\n      pop\n      jump\t// out\n        /* \"#utility.yul\":10163:10529   */\n    tag_207:\n        /* \"#utility.yul\":10305:10308   */\n      0x00\n        /* \"#utility.yul\":10326:10393   */\n      tag_322\n        /* \"#utility.yul\":10390:10392   */\n      0x14\n        /* \"#utility.yul\":10385:10388   */\n      dup4\n        /* \"#utility.yul\":10326:10393   */\n      tag_203\n      jump\t// in\n    tag_322:\n        /* \"#utility.yul\":10319:10393   */\n      swap2\n      pop\n        /* \"#utility.yul\":10402:10495   */\n      tag_323\n        /* \"#utility.yul\":10491:10494   */\n      dup3\n        /* \"#utility.yul\":10402:10495   */\n      tag_206\n      jump\t// in\n    tag_323:\n        /* \"#utility.yul\":10520:10522   */\n      0x20\n        /* \"#utility.yul\":10515:10518   */\n      dup3\n        /* \"#utility.yul\":10511:10523   */\n      add\n        /* \"#utility.yul\":10504:10523   */\n      swap1\n      pop\n        /* \"#utility.yul\":10163:10529   */\n      swap2\n      swap1\n      pop\n      jump\t// out\n        /* \"#utility.yul\":10535:10954   */\n    tag_106:\n        /* \"#utility.yul\":10701:10705   */\n      0x00\n        /* \"#utility.yul\":10739:10741   */\n      0x20\n        /* \"#utility.yul\":10728:10737   */\n      dup3\n        /* \"#utility.yul\":10724:10742   */\n      add\n        /* \"#utility.yul\":10716:10742   */\n      swap1\n      pop\n        /* \"#utility.yul\":10788:10797   */\n      dup2\n        /* \"#utility.yul\":10782:10786   */\n      dup2\n        /* \"#utility.yul\":10778:10798   */\n      sub\n        /* \"#utility.yul\":10774:10775   */\n      0x00\n        /* \"#utility.yul\":10763:10772   */\n      dup4\n        /* \"#utility.yul\":10759:10776   */\n      add\n        /* \"#utility.yul\":10752:10799   */\n      mstore\n        /* \"#utility.yul\":10816:10947   */\n      tag_325\n        /* \"#utility.yul\":10942:10946   */\n      dup2\n        /* \"#utility.yul\":10816:10947   */\n      tag_207\n      jump\t// in\n    tag_325:\n        /* \"#utility.yul\":10808:10947   */\n      swap1\n      pop\n        /* \"#utility.yul\":10535:10954   */\n      swap2\n      swap1\n      pop\n      jump\t// out\n        /* \"#utility.yul\":10960:11133   */\n    tag_208:\n        /* \"#utility.yul\":11100:11125   */\n      0x41647265737320666f726d617420696e636f7272656374000000000000000000\n        /* \"#utility.yul\":11096:11097   */\n      0x00\n        /* \"#utility.yul\":11088:11094   */\n      dup3\n        /* \"#utility.yul\":11084:11098   */\n      add\n        /* \"#utility.yul\":11077:11126   */\n      mstore\n        /* \"#utility.yul\":10960:11133   */\n      pop\n      jump\t// out\n        /* \"#utility.yul\":11139:11505   */\n    tag_209:\n        /* \"#utility.yul\":11281:11284   */\n      0x00\n        /* \"#utility.yul\":11302:11369   */\n      tag_328\n        /* \"#utility.yul\":11366:11368   */\n      0x17\n        /* \"#utility.yul\":11361:11364   */\n      dup4\n        /* \"#utility.yul\":11302:11369   */\n      tag_203\n      jump\t// in\n    tag_328:\n        /* \"#utility.yul\":11295:11369   */\n      swap2\n      pop\n        /* \"#utility.yul\":11378:11471   */\n      tag_329\n        /* \"#utility.yul\":11467:11470   */\n      dup3\n        /* \"#utility.yul\":11378:11471   */\n      tag_208\n      jump\t// in\n    tag_329:\n        /* \"#utility.yul\":11496:11498   */\n      0x20\n        /* \"#utility.yul\":11491:11494   */\n      dup3\n        /* \"#utility.yul\":11487:11499   */\n      add\n        /* \"#utility.yul\":11480:11499   */\n      swap1\n      pop\n        /* \"#utility.yul\":11139:11505   */\n      swap2\n      swap1\n      pop\n      jump\t// out\n        /* \"#utility.yul\":11511:11930   */\n    tag_109:\n        /* \"#utility.yul\":11677:11681   */\n      0x00\n        /* \"#utility.yul\":11715:11717   */\n      0x20\n        /* \"#utility.yul\":11704:11713   */\n      dup3\n        /* \"#utility.yul\":11700:11718   */\n      add\n        /* \"#utility.yul\":11692:11718   */\n      swap1\n      pop\n        /* \"#utility.yul\":11764:11773   */\n      dup2\n        /* \"#utility.yul\":11758:11762   */\n      dup2\n        /* \"#utility.yul\":11754:11774   */\n      sub\n        /* \"#utility.yul\":11750:11751   */\n      0x00\n        /* \"#utility.yul\":11739:11748   */\n      dup4\n        /* \"#utility.yul\":11735:11752   */\n      add\n        /* \"#utility.yul\":11728:11775   */\n      mstore\n        /* \"#utility.yul\":11792:11923   */\n      tag_331\n        /* \"#utility.yul\":11918:11922   */\n      dup2\n        /* \"#utility.yul\":11792:11923   */\n      tag_209\n      jump\t// in\n    tag_331:\n        /* \"#utility.yul\":11784:11923   */\n      swap1\n      pop\n        /* \"#utility.yul\":11511:11930   */\n      swap2\n      swap1\n      pop\n      jump\t// out\n        /* \"#utility.yul\":11936:12108   */\n    tag_210:\n        /* \"#utility.yul\":12076:12100   */\n      0x456d657267656e6379206e6f74206465636c6172656400000000000000000000\n        /* \"#utility.yul\":12072:12073   */\n      0x00\n        /* \"#utility.yul\":12064:12070   */\n      dup3\n        /* \"#utility.yul\":12060:12074   */\n      add\n        /* \"#utility.yul\":12053:12101   */\n      mstore\n        /* \"#utility.yul\":11936:12108   */\n      pop\n      jump\t// out\n        /* \"#utility.yul\":12114:12480   */\n    tag_211:\n        /* \"#utility.yul\":12256:12259   */\n      0x00\n        /* \"#utility.yul\":12277:12344   */\n      tag_334\n        /* \"#utility.yul\":12341:12343   */\n      0x16\n        /* \"#utility.yul\":12336:12339   */\n      dup4\n        /* \"#utility.yul\":12277:12344   */\n      tag_203\n      jump\t// in\n    tag_334:\n        /* \"#utility.yul\":12270:12344   */\n      swap2\n      pop\n        /* \"#utility.yul\":12353:12446   */\n      tag_335\n        /* \"#utility.yul\":12442:12445   */\n      dup3\n        /* \"#utility.yul\":12353:12446   */\n      tag_210\n      jump\t// in\n    tag_335:\n        /* \"#utility.yul\":12471:12473   */\n      0x20\n        /* \"#utility.yul\":12466:12469   */\n      dup3\n        /* \"#utility.yul\":12462:12474   */\n      add\n        /* \"#utility.yul\":12455:12474   */\n      swap1\n      pop\n        /* \"#utility.yul\":12114:12480   */\n      swap2\n      swap1\n      pop\n      jump\t// out\n        /* \"#utility.yul\":12486:12905   */\n    tag_125:\n        /* \"#utility.yul\":12652:12656   */\n      0x00\n        /* \"#utility.yul\":12690:12692   */\n      0x20\n        /* \"#utility.yul\":12679:12688   */\n      dup3\n        /* \"#utility.yul\":12675:12693   */\n      add\n        /* \"#utility.yul\":12667:12693   */\n      swap1\n      pop\n        /* \"#utility.yul\":12739:12748   */\n      dup2\n        /* \"#utility.yul\":12733:12737   */\n      dup2\n        /* \"#utility.yul\":12729:12749   */\n      sub\n        /* \"#utility.yul\":12725:12726   */\n      0x00\n        /* \"#utility.yul\":12714:12723   */\n      dup4\n        /* \"#utility.yul\":12710:12727   */\n      add\n        /* \"#utility.yul\":12703:12750   */\n      mstore\n        /* \"#utility.yul\":12767:12898   */\n      tag_337\n        /* \"#utility.yul\":12893:12897   */\n      dup2\n        /* \"#utility.yul\":12767:12898   */\n      tag_211\n      jump\t// in\n    tag_337:\n        /* \"#utility.yul\":12759:12898   */\n      swap1\n      pop\n        /* \"#utility.yul\":12486:12905   */\n      swap2\n      swap1\n      pop\n      jump\t// out\n        /* \"#utility.yul\":12911:13082   */\n    tag_212:\n        /* \"#utility.yul\":13051:13074   */\n      0x496e7375666666696369656e742062616c616e63650000000000000000000000\n        /* \"#utility.yul\":13047:13048   */\n      0x00\n        /* \"#utility.yul\":13039:13045   */\n      dup3\n        /* \"#utility.yul\":13035:13049   */\n      add\n        /* \"#utility.yul\":13028:13075   */\n      mstore\n        /* \"#utility.yul\":12911:13082   */\n      pop\n      jump\t// out\n        /* \"#utility.yul\":13088:13454   */\n    tag_213:\n        /* \"#utility.yul\":13230:13233   */\n      0x00\n        /* \"#utility.yul\":13251:13318   */\n      tag_340\n        /* \"#utility.yul\":13315:13317   */\n      0x15\n        /* \"#utility.yul\":13310:13313   */\n      dup4\n        /* \"#utility.yul\":13251:13318   */\n      tag_203\n      jump\t// in\n    tag_340:\n        /* \"#utility.yul\":13244:13318   */\n      swap2\n      pop\n        /* \"#utility.yul\":13327:13420   */\n      tag_341\n        /* \"#utility.yul\":13416:13419   */\n      dup3\n        /* \"#utility.yul\":13327:13420   */\n      tag_212\n      jump\t// in\n    tag_341:\n        /* \"#utility.yul\":13445:13447   */\n      0x20\n        /* \"#utility.yul\":13440:13443   */\n      dup3\n        /* \"#utility.yul\":13436:13448   */\n      add\n        /* \"#utility.yul\":13429:13448   */\n      swap1\n      pop\n        /* \"#utility.yul\":13088:13454   */\n      swap2\n      swap1\n      pop\n      jump\t// out\n        /* \"#utility.yul\":13460:13879   */\n    tag_140:\n        /* \"#utility.yul\":13626:13630   */\n      0x00\n        /* \"#utility.yul\":13664:13666   */\n      0x20\n        /* \"#utility.yul\":13653:13662   */\n      dup3\n        /* \"#utility.yul\":13649:13667   */\n      add\n        /* \"#utility.yul\":13641:13667   */\n      swap1\n      pop\n        /* \"#utility.yul\":13713:13722   */\n      dup2\n        /* \"#utility.yul\":13707:13711   */\n      dup2\n        /* \"#utility.yul\":13703:13723   */\n      sub\n        /* \"#utility.yul\":13699:13700   */\n      0x00\n        /* \"#utility.yul\":13688:13697   */\n      dup4\n        /* \"#utility.yul\":13684:13701   */\n      add\n        /* \"#utility.yul\":13677:13724   */\n      mstore\n        /* \"#utility.yul\":13741:13872   */\n      tag_343\n        /* \"#utility.yul\":13867:13871   */\n      dup2\n        /* \"#utility.yul\":13741:13872   */\n      tag_213\n      jump\t// in\n    tag_343:\n        /* \"#utility.yul\":13733:13872   */\n      swap1\n      pop\n        /* \"#utility.yul\":13460:13879   */\n      swap2\n      swap1\n      pop\n      jump\t// out\n        /* \"#utility.yul\":13885:14107   */\n    tag_214:\n        /* \"#utility.yul\":14025:14059   */\n      0x5765692056616c7565206d7573742062652067726561746572207468616e207a\n        /* \"#utility.yul\":14021:14022   */\n      0x00\n        /* \"#utility.yul\":14013:14019   */\n      dup3\n        /* \"#utility.yul\":14009:14023   */\n      add\n        /* \"#utility.yul\":14002:14060   */\n      mstore\n        /* \"#utility.yul\":14094:14099   */\n      0x65726f0000000000000000000000000000000000000000000000000000000000\n        /* \"#utility.yul\":14089:14091   */\n      0x20\n        /* \"#utility.yul\":14081:14087   */\n      dup3\n        /* \"#utility.yul\":14077:14092   */\n      add\n        /* \"#utility.yul\":14070:14100   */\n      mstore\n        /* \"#utility.yul\":13885:14107   */\n      pop\n      jump\t// out\n        /* \"#utility.yul\":14113:14479   */\n    tag_215:\n        /* \"#utility.yul\":14255:14258   */\n      0x00\n        /* \"#utility.yul\":14276:14343   */\n      tag_346\n        /* \"#utility.yul\":14340:14342   */\n      0x23\n        /* \"#utility.yul\":14335:14338   */\n      dup4\n        /* \"#utility.yul\":14276:14343   */\n      tag_203\n      jump\t// in\n    tag_346:\n        /* \"#utility.yul\":14269:14343   */\n      swap2\n      pop\n        /* \"#utility.yul\":14352:14445   */\n      tag_347\n        /* \"#utility.yul\":14441:14444   */\n      dup3\n        /* \"#utility.yul\":14352:14445   */\n      tag_214\n      jump\t// in\n    tag_347:\n        /* \"#utility.yul\":14470:14472   */\n      0x40\n        /* \"#utility.yul\":14465:14468   */\n      dup3\n        /* \"#utility.yul\":14461:14473   */\n      add\n        /* \"#utility.yul\":14454:14473   */\n      swap1\n      pop\n        /* \"#utility.yul\":14113:14479   */\n      swap2\n      swap1\n      pop\n      jump\t// out\n        /* \"#utility.yul\":14485:14904   */\n    tag_153:\n        /* \"#utility.yul\":14651:14655   */\n      0x00\n        /* \"#utility.yul\":14689:14691   */\n      0x20\n        /* \"#utility.yul\":14678:14687   */\n      dup3\n        /* \"#utility.yul\":14674:14692   */\n      add\n        /* \"#utility.yul\":14666:14692   */\n      swap1\n      pop\n        /* \"#utility.yul\":14738:14747   */\n      dup2\n        /* \"#utility.yul\":14732:14736   */\n      dup2\n        /* \"#utility.yul\":14728:14748   */\n      sub\n        /* \"#utility.yul\":14724:14725   */\n      0x00\n        /* \"#utility.yul\":14713:14722   */\n      dup4\n        /* \"#utility.yul\":14709:14726   */\n      add\n        /* \"#utility.yul\":14702:14749   */\n      mstore\n        /* \"#utility.yul\":14766:14897   */\n      tag_349\n        /* \"#utility.yul\":14892:14896   */\n      dup2\n        /* \"#utility.yul\":14766:14897   */\n      tag_215\n      jump\t// in\n    tag_349:\n        /* \"#utility.yul\":14758:14897   */\n      swap1\n      pop\n        /* \"#utility.yul\":14485:14904   */\n      swap2\n      swap1\n      pop\n      jump\t// out\n        /* \"#utility.yul\":14910:15133   */\n    tag_216:\n        /* \"#utility.yul\":15050:15084   */\n      0x416374697669747920666f756e6420737573706963696f75732c20547279206c\n        /* \"#utility.yul\":15046:15047   */\n      0x00\n        /* \"#utility.yul\":15038:15044   */\n      dup3\n        /* \"#utility.yul\":15034:15048   */\n      add\n        /* \"#utility.yul\":15027:15085   */\n      mstore\n        /* \"#utility.yul\":15119:15125   */\n      0x6174657200000000000000000000000000000000000000000000000000000000\n        /* \"#utility.yul\":15114:15116   */\n      0x20\n        /* \"#utility.yul\":15106:15112   */\n      dup3\n        /* \"#utility.yul\":15102:15117   */\n      add\n        /* \"#utility.yul\":15095:15126   */\n      mstore\n        /* \"#utility.yul\":14910:15133   */\n      pop\n      jump\t// out\n        /* \"#utility.yul\":15139:15505   */\n    tag_217:\n        /* \"#utility.yul\":15281:15284   */\n      0x00\n        /* \"#utility.yul\":15302:15369   */\n      tag_352\n        /* \"#utility.yul\":15366:15368   */\n      0x24\n        /* \"#utility.yul\":15361:15364   */\n      dup4\n        /* \"#utility.yul\":15302:15369   */\n      tag_203\n      jump\t// in\n    tag_352:\n        /* \"#utility.yul\":15295:15369   */\n      swap2\n      pop\n        /* \"#utility.yul\":15378:15471   */\n      tag_353\n        /* \"#utility.yul\":15467:15470   */\n      dup3\n        /* \"#utility.yul\":15378:15471   */\n      tag_216\n      jump\t// in\n    tag_353:\n        /* \"#utility.yul\":15496:15498   */\n      0x40\n        /* \"#utility.yul\":15491:15494   */\n      dup3\n        /* \"#utility.yul\":15487:15499   */\n      add\n        /* \"#utility.yul\":15480:15499   */\n      swap1\n      pop\n        /* \"#utility.yul\":15139:15505   */\n      swap2\n      swap1\n      pop\n      jump\t// out\n        /* \"#utility.yul\":15511:15930   */\n    tag_161:\n        /* \"#utility.yul\":15677:15681   */\n      0x00\n        /* \"#utility.yul\":15715:15717   */\n      0x20\n        /* \"#utility.yul\":15704:15713   */\n      dup3\n        /* \"#utility.yul\":15700:15718   */\n      add\n        /* \"#utility.yul\":15692:15718   */\n      swap1\n      pop\n        /* \"#utility.yul\":15764:15773   */\n      dup2\n        /* \"#utility.yul\":15758:15762   */\n      dup2\n        /* \"#utility.yul\":15754:15774   */\n      sub\n        /* \"#utility.yul\":15750:15751   */\n      0x00\n        /* \"#utility.yul\":15739:15748   */\n      dup4\n        /* \"#utility.yul\":15735:15752   */\n      add\n        /* \"#utility.yul\":15728:15775   */\n      mstore\n        /* \"#utility.yul\":15792:15923   */\n      tag_355\n        /* \"#utility.yul\":15918:15922   */\n      dup2\n        /* \"#utility.yul\":15792:15923   */\n      tag_217\n      jump\t// in\n    tag_355:\n        /* \"#utility.yul\":15784:15923   */\n      swap1\n      pop\n        /* \"#utility.yul\":15511:15930   */\n      swap2\n      swap1\n      pop\n      jump\t// out\n        /* \"#utility.yul\":15936:16107   */\n    tag_218:\n        /* \"#utility.yul\":16076:16099   */\n      0x73656e642061667465722073746172742074696d650000000000000000000000\n        /* \"#utility.yul\":16072:16073   */\n      0x00\n        /* \"#utility.yul\":16064:16070   */\n      dup3\n        /* \"#utility.yul\":16060:16074   */\n      add\n        /* \"#utility.yul\":16053:16100   */\n      mstore\n        /* \"#utility.yul\":15936:16107   */\n      pop\n      jump\t// out\n        /* \"#utility.yul\":16113:16479   */\n    tag_219:\n        /* \"#utility.yul\":16255:16258   */\n      0x00\n        /* \"#utility.yul\":16276:16343   */\n      tag_358\n        /* \"#utility.yul\":16340:16342   */\n      0x15\n        /* \"#utility.yul\":16335:16338   */\n      dup4\n        /* \"#utility.yul\":16276:16343   */\n      tag_203\n      jump\t// in\n    tag_358:\n        /* \"#utility.yul\":16269:16343   */\n      swap2\n      pop\n        /* \"#utility.yul\":16352:16445   */\n      tag_359\n        /* \"#utility.yul\":16441:16444   */\n      dup3\n        /* \"#utility.yul\":16352:16445   */\n      tag_218\n      jump\t// in\n    tag_359:\n        /* \"#utility.yul\":16470:16472   */\n      0x20\n        /* \"#utility.yul\":16465:16468   */\n      dup3\n        /* \"#utility.yul\":16461:16473   */\n      add\n        /* \"#utility.yul\":16454:16473   */\n      swap1\n      pop\n        /* \"#utility.yul\":16113:16479   */\n      swap2\n      swap1\n      pop\n      jump\t// out\n        /* \"#utility.yul\":16485:16904   */\n    tag_165:\n        /* \"#utility.yul\":16651:16655   */\n      0x00\n        /* \"#utility.yul\":16689:16691   */\n      0x20\n        /* \"#utility.yul\":16678:16687   */\n      dup3\n        /* \"#utility.yul\":16674:16692   */\n      add\n        /* \"#utility.yul\":16666:16692   */\n      swap1\n      pop\n        /* \"#utility.yul\":16738:16747   */\n      dup2\n        /* \"#utility.yul\":16732:16736   */\n      dup2\n        /* \"#utility.yul\":16728:16748   */\n      sub\n        /* \"#utility.yul\":16724:16725   */\n      0x00\n        /* \"#utility.yul\":16713:16722   */\n      dup4\n        /* \"#utility.yul\":16709:16726   */\n      add\n        /* \"#utility.yul\":16702:16749   */\n      mstore\n        /* \"#utility.yul\":16766:16897   */\n      tag_361\n        /* \"#utility.yul\":16892:16896   */\n      dup2\n        /* \"#utility.yul\":16766:16897   */\n      tag_219\n      jump\t// in\n    tag_361:\n        /* \"#utility.yul\":16758:16897   */\n      swap1\n      pop\n        /* \"#utility.yul\":16485:16904   */\n      swap2\n      swap1\n      pop\n      jump\t// out\n        /* \"#utility.yul\":16910:17078   */\n    tag_220:\n        /* \"#utility.yul\":17050:17070   */\n      0x456d657267656e6379206465636c617265640000000000000000000000000000\n        /* \"#utility.yul\":17046:17047   */\n      0x00\n        /* \"#utility.yul\":17038:17044   */\n      dup3\n        /* \"#utility.yul\":17034:17048   */\n      add\n        /* \"#utility.yul\":17027:17071   */\n      mstore\n        /* \"#utility.yul\":16910:17078   */\n      pop\n      jump\t// out\n        /* \"#utility.yul\":17084:17450   */\n    tag_221:\n        /* \"#utility.yul\":17226:17229   */\n      0x00\n        /* \"#utility.yul\":17247:17314   */\n      tag_364\n        /* \"#utility.yul\":17311:17313   */\n      0x12\n        /* \"#utility.yul\":17306:17309   */\n      dup4\n        /* \"#utility.yul\":17247:17314   */\n      tag_203\n      jump\t// in\n    tag_364:\n        /* \"#utility.yul\":17240:17314   */\n      swap2\n      pop\n        /* \"#utility.yul\":17323:17416   */\n      tag_365\n        /* \"#utility.yul\":17412:17415   */\n      dup3\n        /* \"#utility.yul\":17323:17416   */\n      tag_220\n      jump\t// in\n    tag_365:\n        /* \"#utility.yul\":17441:17443   */\n      0x20\n        /* \"#utility.yul\":17436:17439   */\n      dup3\n        /* \"#utility.yul\":17432:17444   */\n      add\n        /* \"#utility.yul\":17425:17444   */\n      swap1\n      pop\n        /* \"#utility.yul\":17084:17450   */\n      swap2\n      swap1\n      pop\n      jump\t// out\n        /* \"#utility.yul\":17456:17875   */\n    tag_174:\n        /* \"#utility.yul\":17622:17626   */\n      0x00\n        /* \"#utility.yul\":17660:17662   */\n      0x20\n        /* \"#utility.yul\":17649:17658   */\n      dup3\n        /* \"#utility.yul\":17645:17663   */\n      add\n        /* \"#utility.yul\":17637:17663   */\n      swap1\n      pop\n        /* \"#utility.yul\":17709:17718   */\n      dup2\n        /* \"#utility.yul\":17703:17707   */\n      dup2\n        /* \"#utility.yul\":17699:17719   */\n      sub\n        /* \"#utility.yul\":17695:17696   */\n      0x00\n        /* \"#utility.yul\":17684:17693   */\n      dup4\n        /* \"#utility.yul\":17680:17697   */\n      add\n        /* \"#utility.yul\":17673:17720   */\n      mstore\n        /* \"#utility.yul\":17737:17868   */\n      tag_367\n        /* \"#utility.yul\":17863:17867   */\n      dup2\n        /* \"#utility.yul\":17737:17868   */\n      tag_221\n      jump\t// in\n    tag_367:\n        /* \"#utility.yul\":17729:17868   */\n      swap1\n      pop\n        /* \"#utility.yul\":17456:17875   */\n      swap2\n      swap1\n      pop\n      jump\t// out\n\n    auxdata: 0xa2646970667358221220a624baa85f54fa024193a97e3431f2c738be6f3a8f393a16c83faafdd94b3d5064736f6c634300081f0033\n}\n",
				"bytecode": {
					"linkReferences": {},
					"object": "6080604052348015600e575f5ffd5b503360015f6101000a81548173ffffffffffffffffffffffffffffffffffffffff021916908373ffffffffffffffffffffffffffffffffffffffff1602179055506120028061005c5f395ff3fe6080604052600436106100eb575f3560e01c80639a70eef111610089578063cf87f05211610058578063cf87f05214610416578063d2b539481461043e578063d555d47314610448578063eb2d9fd31461046457610256565b80639a70eef114610384578063aeae547d1461039a578063b76d4fc3146103c2578063bfa698de146103ec57610256565b8063547fbe8e116100c5578063547fbe8e146102fe5780636f3f42ac146103285780637935e5a3146103445780638da5cb5b1461035a57610256565b806307da68f51461026d578063243e7a871461029757806347cdcc1f146102d657610256565b36610256575f60405180608001604052803373ffffffffffffffffffffffffffffffffffffffff1681526020013073ffffffffffffffffffffffffffffffffffffffff16815260200142815260200134815250908060018154018082558091505060019003905f5260205f2090600402015f909190919091505f820151815f015f6101000a81548173ffffffffffffffffffffffffffffffffffffffff021916908373ffffffffffffffffffffffffffffffffffffffff1602179055506020820151816001015f6101000a81548173ffffffffffffffffffffffffffffffffffffffff021916908373ffffffffffffffffffffffffffffffffffffffff160217905550604082015181600201556060820151816003015550503373ffffffffffffffffffffffffffffffffffffffff167f3b31cbadfd3fd939750f09d3bdbd6c0531dde23f05d55dcc202798f39d090895344260405161024c9291906117fa565b60405180910390a2005b348015610261575f5ffd5b5061026b3361048c565b005b348015610278575f5ffd5b5061028161056e565b60405161028e919061183b565b60405180910390f35b3480156102a2575f5ffd5b506102bd60048036038101906102b89190611882565b610581565b6040516102cd94939291906118ec565b60405180910390f35b3480156102e1575f5ffd5b506102fc60048036038101906102f7919061196a565b6105f9565b005b348015610309575f5ffd5b506103126108e5565b60405161031f91906119a8565b60405180910390f35b610342600480360381019061033d91906119eb565b610924565b005b34801561034f575f5ffd5b50610358610b54565b005b348015610365575f5ffd5b5061036e610c85565b60405161037b9190611a16565b60405180910390f35b34801561038f575f5ffd5b50610398610caa565b005b3480156103a5575f5ffd5b506103c060048036038101906103bb9190611882565b610dab565b005b3480156103cd575f5ffd5b506103d661108b565b6040516103e39190611b48565b60405180910390f35b3480156103f7575f5ffd5b506104006111a3565b60405161040d91906119a8565b60405180910390f35b348015610421575f5ffd5b5061043c600480360381019061043791906119eb565b61048c565b005b6104466111aa565b005b610462600480360381019061045d9190611882565b611410565b005b34801561046f575f5ffd5b5061048a600480360381019061048591906119eb565b61163b565b005b600160025f8373ffffffffffffffffffffffffffffffffffffffff1673ffffffffffffffffffffffffffffffffffffffff1681526020019081526020015f205f8282546104d99190611b95565b925050819055508073ffffffffffffffffffffffffffffffffffffffff167f92110b7744be9a0a0061538815f6ef4099bddca60439a8dc28ccc35fda7c47b960025f8473ffffffffffffffffffffffffffffffffffffffff1673ffffffffffffffffffffffffffffffffffffffff1681526020019081526020015f205460405161056391906119a8565b60405180910390a250565b600160149054906101000a900460ff1681565b5f818154811061058f575f80fd5b905f5260205f2090600402015f91509050805f015f9054906101000a900473ffffffffffffffffffffffffffffffffffffffff1690806001015f9054906101000a900473ffffffffffffffffffffffffffffffffffffffff16908060020154908060030154905084565b60015f9054906101000a900473ffffffffffffffffffffffffffffffffffffffff1673ffffffffffffffffffffffffffffffffffffffff163373ffffffffffffffffffffffffffffffffffffffff1614610688576040517f08c379a000000000000000000000000000000000000000000000000000000000815260040161067f90611c22565b60405180910390fd5b804710156106cb576040517f08c379a00000000000000000000000000000000000000000000000000000000081526004016106c290611c8a565b60405180910390fd5b5f73ffffffffffffffffffffffffffffffffffffffff168273ffffffffffffffffffffffffffffffffffffffff1603610739576040517f08c379a000000000000000000000000000000000000000000000000000000000815260040161073090611cf2565b60405180910390fd5b8173ffffffffffffffffffffffffffffffffffffffff166108fc8290811502906040515f60405180830381858888f1935050505015801561077c573d5f5f3e3d5ffd5b505f60405180608001604052803073ffffffffffffffffffffffffffffffffffffffff1681526020018473ffffffffffffffffffffffffffffffffffffffff16815260200142815260200183815250908060018154018082558091505060019003905f5260205f2090600402015f909190919091505f820151815f015f6101000a81548173ffffffffffffffffffffffffffffffffffffffff021916908373ffffffffffffffffffffffffffffffffffffffff1602179055506020820151816001015f6101000a81548173ffffffffffffffffffffffffffffffffffffffff021916908373ffffffffffffffffffffffffffffffffffffffff160217905550604082015181600201556060820151816003015550508173ffffffffffffffffffffffffffffffffffffffff167f6b2394585a0b7a64f871cb97a8ea61761f481eb16fecc5432448e8490de3d7bf82426040516108d99291906117fa565b60405180910390a25050565b5f60015f9054906101000a900473ffffffffffffffffffffffffffffffffffffffff1673ffffffffffffffffffffffffffffffffffffffff1631905090565b5f73ffffffffffffffffffffffffffffffffffffffff168173ffffffffffffffffffffffffffffffffffffffff1603610992576040517f08c379a000000000000000000000000000000000000000000000000000000000815260040161098990611cf2565b60405180910390fd5b8073ffffffffffffffffffffffffffffffffffffffff166108fc3490811502906040515f60405180830381858888f193505050501580156109d5573d5f5f3e3d5ffd5b505f60405180608001604052803373ffffffffffffffffffffffffffffffffffffffff1681526020018373ffffffffffffffffffffffffffffffffffffffff16815260200142815260200134815250908060018154018082558091505060019003905f5260205f2090600402015f909190919091505f820151815f015f6101000a81548173ffffffffffffffffffffffffffffffffffffffff021916908373ffffffffffffffffffffffffffffffffffffffff1602179055506020820151816001015f6101000a81548173ffffffffffffffffffffffffffffffffffffffff021916908373ffffffffffffffffffffffffffffffffffffffff160217905550604082015181600201556060820151816003015550508073ffffffffffffffffffffffffffffffffffffffff163373ffffffffffffffffffffffffffffffffffffffff167f47d89154cd3241ea7b52fb4e622cb708e05bf6975732387b2d251228a2665bc53442604051610b499291906117fa565b60405180910390a350565b60011515600160149054906101000a900460ff16151514610baa576040517f08c379a0000000000000000000000000000000000000000000000000000000008152600401610ba190611d5a565b60405180910390fd5b5f47905060015f9054906101000a900473ffffffffffffffffffffffffffffffffffffffff1673ffffffffffffffffffffffffffffffffffffffff166108fc8290811502906040515f60405180830381858888f19350505050158015610c12573d5f5f3e3d5ffd5b5060015f9054906101000a900473ffffffffffffffffffffffffffffffffffffffff1673ffffffffffffffffffffffffffffffffffffffff167f23d6711a1d031134a36921253c75aa59e967d38e369ac625992824315e204f2082604051610c7a91906119a8565b60405180910390a250565b60015f9054906101000a900473ffffffffffffffffffffffffffffffffffffffff1681565b60015f9054906101000a900473ffffffffffffffffffffffffffffffffffffffff1673ffffffffffffffffffffffffffffffffffffffff163373ffffffffffffffffffffffffffffffffffffffff1614610d39576040517f08c379a0000000000000000000000000000000000000000000000000000000008152600401610d3090611c22565b60405180910390fd5b600160149054906101000a900460ff1615600160146101000a81548160ff0219169083151502179055507fccfd5af60ab7169f854210e486dea0fc553734f44092fee4be2a5e1725c55f22600160149054906101000a900460ff16604051610da1919061183b565b60405180910390a1565b60015f9054906101000a900473ffffffffffffffffffffffffffffffffffffffff1673ffffffffffffffffffffffffffffffffffffffff163373ffffffffffffffffffffffffffffffffffffffff1614610e3a576040517f08c379a0000000000000000000000000000000000000000000000000000000008152600401610e3190611c22565b60405180910390fd5b80471015610e7d576040517f08c379a0000000000000000000000000000000000000000000000000000000008152600401610e7490611dc2565b60405180910390fd5b60015f9054906101000a900473ffffffffffffffffffffffffffffffffffffffff1673ffffffffffffffffffffffffffffffffffffffff166108fc8290811502906040515f60405180830381858888f19350505050158015610ee1573d5f5f3e3d5ffd5b505f60405180608001604052803073ffffffffffffffffffffffffffffffffffffffff16815260200160015f9054906101000a900473ffffffffffffffffffffffffffffffffffffffff1673ffffffffffffffffffffffffffffffffffffffff16815260200142815260200183815250908060018154018082558091505060019003905f5260205f2090600402015f909190919091505f820151815f015f6101000a81548173ffffffffffffffffffffffffffffffffffffffff021916908373ffffffffffffffffffffffffffffffffffffffff1602179055506020820151816001015f6101000a81548173ffffffffffffffffffffffffffffffffffffffff021916908373ffffffffffffffffffffffffffffffffffffffff1602179055506040820151816002015560608201518160030155505060015f9054906101000a900473ffffffffffffffffffffffffffffffffffffffff1673ffffffffffffffffffffffffffffffffffffffff167f1854f40cafc6d1d892b7723388876e2ddaa1e0509aed7e9c9d0e2a54d1a6e93682426040516110809291906117fa565b60405180910390a250565b60605f805480602002602001604051908101604052809291908181526020015f905b8282101561119a578382905f5260205f2090600402016040518060800160405290815f82015f9054906101000a900473ffffffffffffffffffffffffffffffffffffffff1673ffffffffffffffffffffffffffffffffffffffff1673ffffffffffffffffffffffffffffffffffffffff168152602001600182015f9054906101000a900473ffffffffffffffffffffffffffffffffffffffff1673ffffffffffffffffffffffffffffffffffffffff1673ffffffffffffffffffffffffffffffffffffffff16815260200160028201548152602001600382015481525050815260200190600101906110ad565b50505050905090565b5f47905090565b5f34116111ec576040517f08c379a00000000000000000000000000000000000000000000000000000000081526004016111e390611e50565b60405180910390fd5b60015f9054906101000a900473ffffffffffffffffffffffffffffffffffffffff1673ffffffffffffffffffffffffffffffffffffffff166108fc3490811502906040515f60405180830381858888f19350505050158015611250573d5f5f3e3d5ffd5b505f60405180608001604052803373ffffffffffffffffffffffffffffffffffffffff16815260200160015f9054906101000a900473ffffffffffffffffffffffffffffffffffffffff1673ffffffffffffffffffffffffffffffffffffffff16815260200142815260200134815250908060018154018082558091505060019003905f5260205f2090600402015f909190919091505f820151815f015f6101000a81548173ffffffffffffffffffffffffffffffffffffffff021916908373ffffffffffffffffffffffffffffffffffffffff1602179055506020820151816001015f6101000a81548173ffffffffffffffffffffffffffffffffffffffff021916908373ffffffffffffffffffffffffffffffffffffffff1602179055506040820151816002015560608201518160030155505060015f9054906101000a900473ffffffffffffffffffffffffffffffffffffffff1673ffffffffffffffffffffffffffffffffffffffff163373ffffffffffffffffffffffffffffffffffffffff167fb8765ec7f8187a2481ebc55231ab7051403253057d7841135147e2b9cb1f4c9a34426040516114069291906117fa565b60405180910390a3565b33600560025f8373ffffffffffffffffffffffffffffffffffffffff1673ffffffffffffffffffffffffffffffffffffffff1681526020019081526020015f205410611491576040517f08c379a000000000000000000000000000000000000000000000000000000000815260040161148890611ede565b60405180910390fd5b8142116114d3576040517f08c379a00000000000000000000000000000000000000000000000000000000081526004016114ca90611f46565b60405180910390fd5b5f60405180608001604052803373ffffffffffffffffffffffffffffffffffffffff1681526020013073ffffffffffffffffffffffffffffffffffffffff16815260200142815260200134815250908060018154018082558091505060019003905f5260205f2090600402015f909190919091505f820151815f015f6101000a81548173ffffffffffffffffffffffffffffffffffffffff021916908373ffffffffffffffffffffffffffffffffffffffff1602179055506020820151816001015f6101000a81548173ffffffffffffffffffffffffffffffffffffffff021916908373ffffffffffffffffffffffffffffffffffffffff160217905550604082015181600201556060820151816003015550503373ffffffffffffffffffffffffffffffffffffffff167f3b31cbadfd3fd939750f09d3bdbd6c0531dde23f05d55dcc202798f39d090895344260405161162f9291906117fa565b60405180910390a25050565b60015f9054906101000a900473ffffffffffffffffffffffffffffffffffffffff1673ffffffffffffffffffffffffffffffffffffffff163373ffffffffffffffffffffffffffffffffffffffff16146116ca576040517f08c379a00000000000000000000000000000000000000000000000000000000081526004016116c190611c22565b60405180910390fd5b5f1515600160149054906101000a900460ff1615151461171f576040517f08c379a000000000000000000000000000000000000000000000000000000000815260040161171690611fae565b60405180910390fd5b5f60015f9054906101000a900473ffffffffffffffffffffffffffffffffffffffff1690508160015f6101000a81548173ffffffffffffffffffffffffffffffffffffffff021916908373ffffffffffffffffffffffffffffffffffffffff1602179055508173ffffffffffffffffffffffffffffffffffffffff168173ffffffffffffffffffffffffffffffffffffffff167fb532073b38c83145e3e5135377a08bf9aab55bc0fd7c1179cd4fb995d2a5159c60405160405180910390a35050565b5f819050919050565b6117f4816117e2565b82525050565b5f60408201905061180d5f8301856117eb565b61181a60208301846117eb565b9392505050565b5f8115159050919050565b61183581611821565b82525050565b5f60208201905061184e5f83018461182c565b92915050565b5f5ffd5b611861816117e2565b811461186b575f5ffd5b50565b5f8135905061187c81611858565b92915050565b5f6020828403121561189757611896611854565b5b5f6118a48482850161186e565b91505092915050565b5f73ffffffffffffffffffffffffffffffffffffffff82169050919050565b5f6118d6826118ad565b9050919050565b6118e6816118cc565b82525050565b5f6080820190506118ff5f8301876118dd565b61190c60208301866118dd565b61191960408301856117eb565b61192660608301846117eb565b95945050505050565b5f611939826118ad565b9050919050565b6119498161192f565b8114611953575f5ffd5b50565b5f8135905061196481611940565b92915050565b5f5f604083850312156119805761197f611854565b5b5f61198d85828601611956565b925050602061199e8582860161186e565b9150509250929050565b5f6020820190506119bb5f8301846117eb565b92915050565b6119ca816118cc565b81146119d4575f5ffd5b50565b5f813590506119e5816119c1565b92915050565b5f60208284031215611a00576119ff611854565b5b5f611a0d848285016119d7565b91505092915050565b5f602082019050611a295f8301846118dd565b92915050565b5f81519050919050565b5f82825260208201905092915050565b5f819050602082019050919050565b611a61816118cc565b82525050565b611a70816117e2565b82525050565b608082015f820151611a8a5f850182611a58565b506020820151611a9d6020850182611a58565b506040820151611ab06040850182611a67565b506060820151611ac36060850182611a67565b50505050565b5f611ad48383611a76565b60808301905092915050565b5f602082019050919050565b5f611af682611a2f565b611b008185611a39565b9350611b0b83611a49565b805f5b83811015611b3b578151611b228882611ac9565b9750611b2d83611ae0565b925050600181019050611b0e565b5085935050505092915050565b5f6020820190508181035f830152611b608184611aec565b905092915050565b7f4e487b71000000000000000000000000000000000000000000000000000000005f52601160045260245ffd5b5f611b9f826117e2565b9150611baa836117e2565b9250828201905080821115611bc257611bc1611b68565b5b92915050565b5f82825260208201905092915050565b7f596f7520646f6e277420686176652061636365737300000000000000000000005f82015250565b5f611c0c601583611bc8565b9150611c1782611bd8565b602082019050919050565b5f6020820190508181035f830152611c3981611c00565b9050919050565b7f496e73756666696369656e742042616c616e63650000000000000000000000005f82015250565b5f611c74601483611bc8565b9150611c7f82611c40565b602082019050919050565b5f6020820190508181035f830152611ca181611c68565b9050919050565b7f41647265737320666f726d617420696e636f72726563740000000000000000005f82015250565b5f611cdc601783611bc8565b9150611ce782611ca8565b602082019050919050565b5f6020820190508181035f830152611d0981611cd0565b9050919050565b7f456d657267656e6379206e6f74206465636c61726564000000000000000000005f82015250565b5f611d44601683611bc8565b9150611d4f82611d10565b602082019050919050565b5f6020820190508181035f830152611d7181611d38565b9050919050565b7f496e7375666666696369656e742062616c616e636500000000000000000000005f82015250565b5f611dac601583611bc8565b9150611db782611d78565b602082019050919050565b5f6020820190508181035f830152611dd981611da0565b9050919050565b7f5765692056616c7565206d7573742062652067726561746572207468616e207a5f8201527f65726f0000000000000000000000000000000000000000000000000000000000602082015250565b5f611e3a602383611bc8565b9150611e4582611de0565b604082019050919050565b5f6020820190508181035f830152611e6781611e2e565b9050919050565b7f416374697669747920666f756e6420737573706963696f75732c20547279206c5f8201527f6174657200000000000000000000000000000000000000000000000000000000602082015250565b5f611ec8602483611bc8565b9150611ed382611e6e565b604082019050919050565b5f6020820190508181035f830152611ef581611ebc565b9050919050565b7f73656e642061667465722073746172742074696d6500000000000000000000005f82015250565b5f611f30601583611bc8565b9150611f3b82611efc565b602082019050919050565b5f6020820190508181035f830152611f5d81611f24565b9050919050565b7f456d657267656e6379206465636c6172656400000000000000000000000000005f82015250565b5f611f98601283611bc8565b9150611fa382611f64565b602082019050919050565b5f6020820190508181035f830152611fc581611f8c565b905091905056fea2646970667358221220a624baa85f54fa024193a97e3431f2c738be6f3a8f393a16c83faafdd94b3d5064736f6c634300081f0033",
					"opcodes": "PUSH1 0x80 PUSH1 0x40 MSTORE CALLVALUE DUP1 ISZERO PUSH1 0xE JUMPI PUSH0 PUSH0 REVERT JUMPDEST POP CALLER PUSH1 0x1 PUSH0 PUSH2 0x100 EXP DUP2 SLOAD DUP2 PUSH20 0xFFFFFFFFFFFFFFFFFFFFFFFFFFFFFFFFFFFFFFFF MUL NOT AND SWAP1 DUP4 PUSH20 0xFFFFFFFFFFFFFFFFFFFFFFFFFFFFFFFFFFFFFFFF AND MUL OR SWAP1 SSTORE POP PUSH2 0x2002 DUP1 PUSH2 0x5C PUSH0 CODECOPY PUSH0 RETURN INVALID PUSH1 0x80 PUSH1 0x40 MSTORE PUSH1 0x4 CALLDATASIZE LT PUSH2 0xEB JUMPI PUSH0 CALLDATALOAD PUSH1 0xE0 SHR DUP1 PUSH4 0x9A70EEF1 GT PUSH2 0x89 JUMPI DUP1 PUSH4 0xCF87F052 GT PUSH2 0x58 JUMPI DUP1 PUSH4 0xCF87F052 EQ PUSH2 0x416 JUMPI DUP1 PUSH4 0xD2B53948 EQ PUSH2 0x43E JUMPI DUP1 PUSH4 0xD555D473 EQ PUSH2 0x448 JUMPI DUP1 PUSH4 0xEB2D9FD3 EQ PUSH2 0x464 JUMPI PUSH2 0x256 JUMP JUMPDEST DUP1 PUSH4 0x9A70EEF1 EQ PUSH2 0x384 JUMPI DUP1 PUSH4 0xAEAE547D EQ PUSH2 0x39A JUMPI DUP1 PUSH4 0xB76D4FC3 EQ PUSH2 0x3C2 JUMPI DUP1 PUSH4 0xBFA698DE EQ PUSH2 0x3EC JUMPI PUSH2 0x256 JUMP JUMPDEST DUP1 PUSH4 0x547FBE8E GT PUSH2 0xC5 JUMPI DUP1 PUSH4 0x547FBE8E EQ PUSH2 0x2FE JUMPI DUP1 PUSH4 0x6F3F42AC EQ PUSH2 0x328 JUMPI DUP1 PUSH4 0x7935E5A3 EQ PUSH2 0x344 JUMPI DUP1 PUSH4 0x8DA5CB5B EQ PUSH2 0x35A JUMPI PUSH2 0x256 JUMP JUMPDEST DUP1 PUSH4 0x7DA68F5 EQ PUSH2 0x26D JUMPI DUP1 PUSH4 0x243E7A87 EQ PUSH2 0x297 JUMPI DUP1 PUSH4 0x47CDCC1F EQ PUSH2 0x2D6 JUMPI PUSH2 0x256 JUMP JUMPDEST CALLDATASIZE PUSH2 0x256 JUMPI PUSH0 PUSH1 0x40 MLOAD DUP1 PUSH1 0x80 ADD PUSH1 0x40 MSTORE DUP1 CALLER PUSH20 0xFFFFFFFFFFFFFFFFFFFFFFFFFFFFFFFFFFFFFFFF AND DUP2 MSTORE PUSH1 0x20 ADD ADDRESS PUSH20 0xFFFFFFFFFFFFFFFFFFFFFFFFFFFFFFFFFFFFFFFF AND DUP2 MSTORE PUSH1 0x20 ADD TIMESTAMP DUP2 MSTORE PUSH1 0x20 ADD CALLVALUE DUP2 MSTORE POP SWAP1 DUP1 PUSH1 0x1 DUP2 SLOAD ADD DUP1 DUP3 SSTORE DUP1 SWAP2 POP POP PUSH1 0x1 SWAP1 SUB SWAP1 PUSH0 MSTORE PUSH1 0x20 PUSH0 KECCAK256 SWAP1 PUSH1 0x4 MUL ADD PUSH0 SWAP1 SWAP2 SWAP1 SWAP2 SWAP1 SWAP2 POP PUSH0 DUP3 ADD MLOAD DUP2 PUSH0 ADD PUSH0 PUSH2 0x100 EXP DUP2 SLOAD DUP2 PUSH20 0xFFFFFFFFFFFFFFFFFFFFFFFFFFFFFFFFFFFFFFFF MUL NOT AND SWAP1 DUP4 PUSH20 0xFFFFFFFFFFFFFFFFFFFFFFFFFFFFFFFFFFFFFFFF AND MUL OR SWAP1 SSTORE POP PUSH1 0x20 DUP3 ADD MLOAD DUP2 PUSH1 0x1 ADD PUSH0 PUSH2 0x100 EXP DUP2 SLOAD DUP2 PUSH20 0xFFFFFFFFFFFFFFFFFFFFFFFFFFFFFFFFFFFFFFFF MUL NOT AND SWAP1 DUP4 PUSH20 0xFFFFFFFFFFFFFFFFFFFFFFFFFFFFFFFFFFFFFFFF AND MUL OR SWAP1 SSTORE POP PUSH1 0x40 DUP3 ADD MLOAD DUP2 PUSH1 0x2 ADD SSTORE PUSH1 0x60 DUP3 ADD MLOAD DUP2 PUSH1 0x3 ADD SSTORE POP POP CALLER PUSH20 0xFFFFFFFFFFFFFFFFFFFFFFFFFFFFFFFFFFFFFFFF AND PUSH32 0x3B31CBADFD3FD939750F09D3BDBD6C0531DDE23F05D55DCC202798F39D090895 CALLVALUE TIMESTAMP PUSH1 0x40 MLOAD PUSH2 0x24C SWAP3 SWAP2 SWAP1 PUSH2 0x17FA JUMP JUMPDEST PUSH1 0x40 MLOAD DUP1 SWAP2 SUB SWAP1 LOG2 STOP JUMPDEST CALLVALUE DUP1 ISZERO PUSH2 0x261 JUMPI PUSH0 PUSH0 REVERT JUMPDEST POP PUSH2 0x26B CALLER PUSH2 0x48C JUMP JUMPDEST STOP JUMPDEST CALLVALUE DUP1 ISZERO PUSH2 0x278 JUMPI PUSH0 PUSH0 REVERT JUMPDEST POP PUSH2 0x281 PUSH2 0x56E JUMP JUMPDEST PUSH1 0x40 MLOAD PUSH2 0x28E SWAP2 SWAP1 PUSH2 0x183B JUMP JUMPDEST PUSH1 0x40 MLOAD DUP1 SWAP2 SUB SWAP1 RETURN JUMPDEST CALLVALUE DUP1 ISZERO PUSH2 0x2A2 JUMPI PUSH0 PUSH0 REVERT JUMPDEST POP PUSH2 0x2BD PUSH1 0x4 DUP1 CALLDATASIZE SUB DUP2 ADD SWAP1 PUSH2 0x2B8 SWAP2 SWAP1 PUSH2 0x1882 JUMP JUMPDEST PUSH2 0x581 JUMP JUMPDEST PUSH1 0x40 MLOAD PUSH2 0x2CD SWAP5 SWAP4 SWAP3 SWAP2 SWAP1 PUSH2 0x18EC JUMP JUMPDEST PUSH1 0x40 MLOAD DUP1 SWAP2 SUB SWAP1 RETURN JUMPDEST CALLVALUE DUP1 ISZERO PUSH2 0x2E1 JUMPI PUSH0 PUSH0 REVERT JUMPDEST POP PUSH2 0x2FC PUSH1 0x4 DUP1 CALLDATASIZE SUB DUP2 ADD SWAP1 PUSH2 0x2F7 SWAP2 SWAP1 PUSH2 0x196A JUMP JUMPDEST PUSH2 0x5F9 JUMP JUMPDEST STOP JUMPDEST CALLVALUE DUP1 ISZERO PUSH2 0x309 JUMPI PUSH0 PUSH0 REVERT JUMPDEST POP PUSH2 0x312 PUSH2 0x8E5 JUMP JUMPDEST PUSH1 0x40 MLOAD PUSH2 0x31F SWAP2 SWAP1 PUSH2 0x19A8 JUMP JUMPDEST PUSH1 0x40 MLOAD DUP1 SWAP2 SUB SWAP1 RETURN JUMPDEST PUSH2 0x342 PUSH1 0x4 DUP1 CALLDATASIZE SUB DUP2 ADD SWAP1 PUSH2 0x33D SWAP2 SWAP1 PUSH2 0x19EB JUMP JUMPDEST PUSH2 0x924 JUMP JUMPDEST STOP JUMPDEST CALLVALUE DUP1 ISZERO PUSH2 0x34F JUMPI PUSH0 PUSH0 REVERT JUMPDEST POP PUSH2 0x358 PUSH2 0xB54 JUMP JUMPDEST STOP JUMPDEST CALLVALUE DUP1 ISZERO PUSH2 0x365 JUMPI PUSH0 PUSH0 REVERT JUMPDEST POP PUSH2 0x36E PUSH2 0xC85 JUMP JUMPDEST PUSH1 0x40 MLOAD PUSH2 0x37B SWAP2 SWAP1 PUSH2 0x1A16 JUMP JUMPDEST PUSH1 0x40 MLOAD DUP1 SWAP2 SUB SWAP1 RETURN JUMPDEST CALLVALUE DUP1 ISZERO PUSH2 0x38F JUMPI PUSH0 PUSH0 REVERT JUMPDEST POP PUSH2 0x398 PUSH2 0xCAA JUMP JUMPDEST STOP JUMPDEST CALLVALUE DUP1 ISZERO PUSH2 0x3A5 JUMPI PUSH0 PUSH0 REVERT JUMPDEST POP PUSH2 0x3C0 PUSH1 0x4 DUP1 CALLDATASIZE SUB DUP2 ADD SWAP1 PUSH2 0x3BB SWAP2 SWAP1 PUSH2 0x1882 JUMP JUMPDEST PUSH2 0xDAB JUMP JUMPDEST STOP JUMPDEST CALLVALUE DUP1 ISZERO PUSH2 0x3CD JUMPI PUSH0 PUSH0 REVERT JUMPDEST POP PUSH2 0x3D6 PUSH2 0x108B JUMP JUMPDEST PUSH1 0x40 MLOAD PUSH2 0x3E3 SWAP2 SWAP1 PUSH2 0x1B48 JUMP JUMPDEST PUSH1 0x40 MLOAD DUP1 SWAP2 SUB SWAP1 RETURN JUMPDEST CALLVALUE DUP1 ISZERO PUSH2 0x3F7 JUMPI PUSH0 PUSH0 REVERT JUMPDEST POP PUSH2 0x400 PUSH2 0x11A3 JUMP JUMPDEST PUSH1 0x40 MLOAD PUSH2 0x40D SWAP2 SWAP1 PUSH2 0x19A8 JUMP JUMPDEST PUSH1 0x40 MLOAD DUP1 SWAP2 SUB SWAP1 RETURN JUMPDEST CALLVALUE DUP1 ISZERO PUSH2 0x421 JUMPI PUSH0 PUSH0 REVERT JUMPDEST POP PUSH2 0x43C PUSH1 0x4 DUP1 CALLDATASIZE SUB DUP2 ADD SWAP1 PUSH2 0x437 SWAP2 SWAP1 PUSH2 0x19EB JUMP JUMPDEST PUSH2 0x48C JUMP JUMPDEST STOP JUMPDEST PUSH2 0x446 PUSH2 0x11AA JUMP JUMPDEST STOP JUMPDEST PUSH2 0x462 PUSH1 0x4 DUP1 CALLDATASIZE SUB DUP2 ADD SWAP1 PUSH2 0x45D SWAP2 SWAP1 PUSH2 0x1882 JUMP JUMPDEST PUSH2 0x1410 JUMP JUMPDEST STOP JUMPDEST CALLVALUE DUP1 ISZERO PUSH2 0x46F JUMPI PUSH0 PUSH0 REVERT JUMPDEST POP PUSH2 0x48A PUSH1 0x4 DUP1 CALLDATASIZE SUB DUP2 ADD SWAP1 PUSH2 0x485 SWAP2 SWAP1 PUSH2 0x19EB JUMP JUMPDEST PUSH2 0x163B JUMP JUMPDEST STOP JUMPDEST PUSH1 0x1 PUSH1 0x2 PUSH0 DUP4 PUSH20 0xFFFFFFFFFFFFFFFFFFFFFFFFFFFFFFFFFFFFFFFF AND PUSH20 0xFFFFFFFFFFFFFFFFFFFFFFFFFFFFFFFFFFFFFFFF AND DUP2 MSTORE PUSH1 0x20 ADD SWAP1 DUP2 MSTORE PUSH1 0x20 ADD PUSH0 KECCAK256 PUSH0 DUP3 DUP3 SLOAD PUSH2 0x4D9 SWAP2 SWAP1 PUSH2 0x1B95 JUMP JUMPDEST SWAP3 POP POP DUP2 SWAP1 SSTORE POP DUP1 PUSH20 0xFFFFFFFFFFFFFFFFFFFFFFFFFFFFFFFFFFFFFFFF AND PUSH32 0x92110B7744BE9A0A0061538815F6EF4099BDDCA60439A8DC28CCC35FDA7C47B9 PUSH1 0x2 PUSH0 DUP5 PUSH20 0xFFFFFFFFFFFFFFFFFFFFFFFFFFFFFFFFFFFFFFFF AND PUSH20 0xFFFFFFFFFFFFFFFFFFFFFFFFFFFFFFFFFFFFFFFF AND DUP2 MSTORE PUSH1 0x20 ADD SWAP1 DUP2 MSTORE PUSH1 0x20 ADD PUSH0 KECCAK256 SLOAD PUSH1 0x40 MLOAD PUSH2 0x563 SWAP2 SWAP1 PUSH2 0x19A8 JUMP JUMPDEST PUSH1 0x40 MLOAD DUP1 SWAP2 SUB SWAP1 LOG2 POP JUMP JUMPDEST PUSH1 0x1 PUSH1 0x14 SWAP1 SLOAD SWAP1 PUSH2 0x100 EXP SWAP1 DIV PUSH1 0xFF AND DUP2 JUMP JUMPDEST PUSH0 DUP2 DUP2 SLOAD DUP2 LT PUSH2 0x58F JUMPI PUSH0 DUP1 REVERT JUMPDEST SWAP1 PUSH0 MSTORE PUSH1 0x20 PUSH0 KECCAK256 SWAP1 PUSH1 0x4 MUL ADD PUSH0 SWAP2 POP SWAP1 POP DUP1 PUSH0 ADD PUSH0 SWAP1 SLOAD SWAP1 PUSH2 0x100 EXP SWAP1 DIV PUSH20 0xFFFFFFFFFFFFFFFFFFFFFFFFFFFFFFFFFFFFFFFF AND SWAP1 DUP1 PUSH1 0x1 ADD PUSH0 SWAP1 SLOAD SWAP1 PUSH2 0x100 EXP SWAP1 DIV PUSH20 0xFFFFFFFFFFFFFFFFFFFFFFFFFFFFFFFFFFFFFFFF AND SWAP1 DUP1 PUSH1 0x2 ADD SLOAD SWAP1 DUP1 PUSH1 0x3 ADD SLOAD SWAP1 POP DUP5 JUMP JUMPDEST PUSH1 0x1 PUSH0 SWAP1 SLOAD SWAP1 PUSH2 0x100 EXP SWAP1 DIV PUSH20 0xFFFFFFFFFFFFFFFFFFFFFFFFFFFFFFFFFFFFFFFF AND PUSH20 0xFFFFFFFFFFFFFFFFFFFFFFFFFFFFFFFFFFFFFFFF AND CALLER PUSH20 0xFFFFFFFFFFFFFFFFFFFFFFFFFFFFFFFFFFFFFFFF AND EQ PUSH2 0x688 JUMPI PUSH1 0x40 MLOAD PUSH32 0x8C379A000000000000000000000000000000000000000000000000000000000 DUP2 MSTORE PUSH1 0x4 ADD PUSH2 0x67F SWAP1 PUSH2 0x1C22 JUMP JUMPDEST PUSH1 0x40 MLOAD DUP1 SWAP2 SUB SWAP1 REVERT JUMPDEST DUP1 SELFBALANCE LT ISZERO PUSH2 0x6CB JUMPI PUSH1 0x40 MLOAD PUSH32 0x8C379A000000000000000000000000000000000000000000000000000000000 DUP2 MSTORE PUSH1 0x4 ADD PUSH2 0x6C2 SWAP1 PUSH2 0x1C8A JUMP JUMPDEST PUSH1 0x40 MLOAD DUP1 SWAP2 SUB SWAP1 REVERT JUMPDEST PUSH0 PUSH20 0xFFFFFFFFFFFFFFFFFFFFFFFFFFFFFFFFFFFFFFFF AND DUP3 PUSH20 0xFFFFFFFFFFFFFFFFFFFFFFFFFFFFFFFFFFFFFFFF AND SUB PUSH2 0x739 JUMPI PUSH1 0x40 MLOAD PUSH32 0x8C379A000000000000000000000000000000000000000000000000000000000 DUP2 MSTORE PUSH1 0x4 ADD PUSH2 0x730 SWAP1 PUSH2 0x1CF2 JUMP JUMPDEST PUSH1 0x40 MLOAD DUP1 SWAP2 SUB SWAP1 REVERT JUMPDEST DUP2 PUSH20 0xFFFFFFFFFFFFFFFFFFFFFFFFFFFFFFFFFFFFFFFF AND PUSH2 0x8FC DUP3 SWAP1 DUP2 ISZERO MUL SWAP1 PUSH1 0x40 MLOAD PUSH0 PUSH1 0x40 MLOAD DUP1 DUP4 SUB DUP2 DUP6 DUP9 DUP9 CALL SWAP4 POP POP POP POP ISZERO DUP1 ISZERO PUSH2 0x77C JUMPI RETURNDATASIZE PUSH0 PUSH0 RETURNDATACOPY RETURNDATASIZE PUSH0 REVERT JUMPDEST POP PUSH0 PUSH1 0x40 MLOAD DUP1 PUSH1 0x80 ADD PUSH1 0x40 MSTORE DUP1 ADDRESS PUSH20 0xFFFFFFFFFFFFFFFFFFFFFFFFFFFFFFFFFFFFFFFF AND DUP2 MSTORE PUSH1 0x20 ADD DUP5 PUSH20 0xFFFFFFFFFFFFFFFFFFFFFFFFFFFFFFFFFFFFFFFF AND DUP2 MSTORE PUSH1 0x20 ADD TIMESTAMP DUP2 MSTORE PUSH1 0x20 ADD DUP4 DUP2 MSTORE POP SWAP1 DUP1 PUSH1 0x1 DUP2 SLOAD ADD DUP1 DUP3 SSTORE DUP1 SWAP2 POP POP PUSH1 0x1 SWAP1 SUB SWAP1 PUSH0 MSTORE PUSH1 0x20 PUSH0 KECCAK256 SWAP1 PUSH1 0x4 MUL ADD PUSH0 SWAP1 SWAP2 SWAP1 SWAP2 SWAP1 SWAP2 POP PUSH0 DUP3 ADD MLOAD DUP2 PUSH0 ADD PUSH0 PUSH2 0x100 EXP DUP2 SLOAD DUP2 PUSH20 0xFFFFFFFFFFFFFFFFFFFFFFFFFFFFFFFFFFFFFFFF MUL NOT AND SWAP1 DUP4 PUSH20 0xFFFFFFFFFFFFFFFFFFFFFFFFFFFFFFFFFFFFFFFF AND MUL OR SWAP1 SSTORE POP PUSH1 0x20 DUP3 ADD MLOAD DUP2 PUSH1 0x1 ADD PUSH0 PUSH2 0x100 EXP DUP2 SLOAD DUP2 PUSH20 0xFFFFFFFFFFFFFFFFFFFFFFFFFFFFFFFFFFFFFFFF MUL NOT AND SWAP1 DUP4 PUSH20 0xFFFFFFFFFFFFFFFFFFFFFFFFFFFFFFFFFFFFFFFF AND MUL OR SWAP1 SSTORE POP PUSH1 0x40 DUP3 ADD MLOAD DUP2 PUSH1 0x2 ADD SSTORE PUSH1 0x60 DUP3 ADD MLOAD DUP2 PUSH1 0x3 ADD SSTORE POP POP DUP2 PUSH20 0xFFFFFFFFFFFFFFFFFFFFFFFFFFFFFFFFFFFFFFFF AND PUSH32 0x6B2394585A0B7A64F871CB97A8EA61761F481EB16FECC5432448E8490DE3D7BF DUP3 TIMESTAMP PUSH1 0x40 MLOAD PUSH2 0x8D9 SWAP3 SWAP2 SWAP1 PUSH2 0x17FA JUMP JUMPDEST PUSH1 0x40 MLOAD DUP1 SWAP2 SUB SWAP1 LOG2 POP POP JUMP JUMPDEST PUSH0 PUSH1 0x1 PUSH0 SWAP1 SLOAD SWAP1 PUSH2 0x100 EXP SWAP1 DIV PUSH20 0xFFFFFFFFFFFFFFFFFFFFFFFFFFFFFFFFFFFFFFFF AND PUSH20 0xFFFFFFFFFFFFFFFFFFFFFFFFFFFFFFFFFFFFFFFF AND BALANCE SWAP1 POP SWAP1 JUMP JUMPDEST PUSH0 PUSH20 0xFFFFFFFFFFFFFFFFFFFFFFFFFFFFFFFFFFFFFFFF AND DUP2 PUSH20 0xFFFFFFFFFFFFFFFFFFFFFFFFFFFFFFFFFFFFFFFF AND SUB PUSH2 0x992 JUMPI PUSH1 0x40 MLOAD PUSH32 0x8C379A000000000000000000000000000000000000000000000000000000000 DUP2 MSTORE PUSH1 0x4 ADD PUSH2 0x989 SWAP1 PUSH2 0x1CF2 JUMP JUMPDEST PUSH1 0x40 MLOAD DUP1 SWAP2 SUB SWAP1 REVERT JUMPDEST DUP1 PUSH20 0xFFFFFFFFFFFFFFFFFFFFFFFFFFFFFFFFFFFFFFFF AND PUSH2 0x8FC CALLVALUE SWAP1 DUP2 ISZERO MUL SWAP1 PUSH1 0x40 MLOAD PUSH0 PUSH1 0x40 MLOAD DUP1 DUP4 SUB DUP2 DUP6 DUP9 DUP9 CALL SWAP4 POP POP POP POP ISZERO DUP1 ISZERO PUSH2 0x9D5 JUMPI RETURNDATASIZE PUSH0 PUSH0 RETURNDATACOPY RETURNDATASIZE PUSH0 REVERT JUMPDEST POP PUSH0 PUSH1 0x40 MLOAD DUP1 PUSH1 0x80 ADD PUSH1 0x40 MSTORE DUP1 CALLER PUSH20 0xFFFFFFFFFFFFFFFFFFFFFFFFFFFFFFFFFFFFFFFF AND DUP2 MSTORE PUSH1 0x20 ADD DUP4 PUSH20 0xFFFFFFFFFFFFFFFFFFFFFFFFFFFFFFFFFFFFFFFF AND DUP2 MSTORE PUSH1 0x20 ADD TIMESTAMP DUP2 MSTORE PUSH1 0x20 ADD CALLVALUE DUP2 MSTORE POP SWAP1 DUP1 PUSH1 0x1 DUP2 SLOAD ADD DUP1 DUP3 SSTORE DUP1 SWAP2 POP POP PUSH1 0x1 SWAP1 SUB SWAP1 PUSH0 MSTORE PUSH1 0x20 PUSH0 KECCAK256 SWAP1 PUSH1 0x4 MUL ADD PUSH0 SWAP1 SWAP2 SWAP1 SWAP2 SWAP1 SWAP2 POP PUSH0 DUP3 ADD MLOAD DUP2 PUSH0 ADD PUSH0 PUSH2 0x100 EXP DUP2 SLOAD DUP2 PUSH20 0xFFFFFFFFFFFFFFFFFFFFFFFFFFFFFFFFFFFFFFFF MUL NOT AND SWAP1 DUP4 PUSH20 0xFFFFFFFFFFFFFFFFFFFFFFFFFFFFFFFFFFFFFFFF AND MUL OR SWAP1 SSTORE POP PUSH1 0x20 DUP3 ADD MLOAD DUP2 PUSH1 0x1 ADD PUSH0 PUSH2 0x100 EXP DUP2 SLOAD DUP2 PUSH20 0xFFFFFFFFFFFFFFFFFFFFFFFFFFFFFFFFFFFFFFFF MUL NOT AND SWAP1 DUP4 PUSH20 0xFFFFFFFFFFFFFFFFFFFFFFFFFFFFFFFFFFFFFFFF AND MUL OR SWAP1 SSTORE POP PUSH1 0x40 DUP3 ADD MLOAD DUP2 PUSH1 0x2 ADD SSTORE PUSH1 0x60 DUP3 ADD MLOAD DUP2 PUSH1 0x3 ADD SSTORE POP POP DUP1 PUSH20 0xFFFFFFFFFFFFFFFFFFFFFFFFFFFFFFFFFFFFFFFF AND CALLER PUSH20 0xFFFFFFFFFFFFFFFFFFFFFFFFFFFFFFFFFFFFFFFF AND PUSH32 0x47D89154CD3241EA7B52FB4E622CB708E05BF6975732387B2D251228A2665BC5 CALLVALUE TIMESTAMP PUSH1 0x40 MLOAD PUSH2 0xB49 SWAP3 SWAP2 SWAP1 PUSH2 0x17FA JUMP JUMPDEST PUSH1 0x40 MLOAD DUP1 SWAP2 SUB SWAP1 LOG3 POP JUMP JUMPDEST PUSH1 0x1 ISZERO ISZERO PUSH1 0x1 PUSH1 0x14 SWAP1 SLOAD SWAP1 PUSH2 0x100 EXP SWAP1 DIV PUSH1 0xFF AND ISZERO ISZERO EQ PUSH2 0xBAA JUMPI PUSH1 0x40 MLOAD PUSH32 0x8C379A000000000000000000000000000000000000000000000000000000000 DUP2 MSTORE PUSH1 0x4 ADD PUSH2 0xBA1 SWAP1 PUSH2 0x1D5A JUMP JUMPDEST PUSH1 0x40 MLOAD DUP1 SWAP2 SUB SWAP1 REVERT JUMPDEST PUSH0 SELFBALANCE SWAP1 POP PUSH1 0x1 PUSH0 SWAP1 SLOAD SWAP1 PUSH2 0x100 EXP SWAP1 DIV PUSH20 0xFFFFFFFFFFFFFFFFFFFFFFFFFFFFFFFFFFFFFFFF AND PUSH20 0xFFFFFFFFFFFFFFFFFFFFFFFFFFFFFFFFFFFFFFFF AND PUSH2 0x8FC DUP3 SWAP1 DUP2 ISZERO MUL SWAP1 PUSH1 0x40 MLOAD PUSH0 PUSH1 0x40 MLOAD DUP1 DUP4 SUB DUP2 DUP6 DUP9 DUP9 CALL SWAP4 POP POP POP POP ISZERO DUP1 ISZERO PUSH2 0xC12 JUMPI RETURNDATASIZE PUSH0 PUSH0 RETURNDATACOPY RETURNDATASIZE PUSH0 REVERT JUMPDEST POP PUSH1 0x1 PUSH0 SWAP1 SLOAD SWAP1 PUSH2 0x100 EXP SWAP1 DIV PUSH20 0xFFFFFFFFFFFFFFFFFFFFFFFFFFFFFFFFFFFFFFFF AND PUSH20 0xFFFFFFFFFFFFFFFFFFFFFFFFFFFFFFFFFFFFFFFF AND PUSH32 0x23D6711A1D031134A36921253C75AA59E967D38E369AC625992824315E204F20 DUP3 PUSH1 0x40 MLOAD PUSH2 0xC7A SWAP2 SWAP1 PUSH2 0x19A8 JUMP JUMPDEST PUSH1 0x40 MLOAD DUP1 SWAP2 SUB SWAP1 LOG2 POP JUMP JUMPDEST PUSH1 0x1 PUSH0 SWAP1 SLOAD SWAP1 PUSH2 0x100 EXP SWAP1 DIV PUSH20 0xFFFFFFFFFFFFFFFFFFFFFFFFFFFFFFFFFFFFFFFF AND DUP2 JUMP JUMPDEST PUSH1 0x1 PUSH0 SWAP1 SLOAD SWAP1 PUSH2 0x100 EXP SWAP1 DIV PUSH20 0xFFFFFFFFFFFFFFFFFFFFFFFFFFFFFFFFFFFFFFFF AND PUSH20 0xFFFFFFFFFFFFFFFFFFFFFFFFFFFFFFFFFFFFFFFF AND CALLER PUSH20 0xFFFFFFFFFFFFFFFFFFFFFFFFFFFFFFFFFFFFFFFF AND EQ PUSH2 0xD39 JUMPI PUSH1 0x40 MLOAD PUSH32 0x8C379A000000000000000000000000000000000000000000000000000000000 DUP2 MSTORE PUSH1 0x4 ADD PUSH2 0xD30 SWAP1 PUSH2 0x1C22 JUMP JUMPDEST PUSH1 0x40 MLOAD DUP1 SWAP2 SUB SWAP1 REVERT JUMPDEST PUSH1 0x1 PUSH1 0x14 SWAP1 SLOAD SWAP1 PUSH2 0x100 EXP SWAP1 DIV PUSH1 0xFF AND ISZERO PUSH1 0x1 PUSH1 0x14 PUSH2 0x100 EXP DUP2 SLOAD DUP2 PUSH1 0xFF MUL NOT AND SWAP1 DUP4 ISZERO ISZERO MUL OR SWAP1 SSTORE POP PUSH32 0xCCFD5AF60AB7169F854210E486DEA0FC553734F44092FEE4BE2A5E1725C55F22 PUSH1 0x1 PUSH1 0x14 SWAP1 SLOAD SWAP1 PUSH2 0x100 EXP SWAP1 DIV PUSH1 0xFF AND PUSH1 0x40 MLOAD PUSH2 0xDA1 SWAP2 SWAP1 PUSH2 0x183B JUMP JUMPDEST PUSH1 0x40 MLOAD DUP1 SWAP2 SUB SWAP1 LOG1 JUMP JUMPDEST PUSH1 0x1 PUSH0 SWAP1 SLOAD SWAP1 PUSH2 0x100 EXP SWAP1 DIV PUSH20 0xFFFFFFFFFFFFFFFFFFFFFFFFFFFFFFFFFFFFFFFF AND PUSH20 0xFFFFFFFFFFFFFFFFFFFFFFFFFFFFFFFFFFFFFFFF AND CALLER PUSH20 0xFFFFFFFFFFFFFFFFFFFFFFFFFFFFFFFFFFFFFFFF AND EQ PUSH2 0xE3A JUMPI PUSH1 0x40 MLOAD PUSH32 0x8C379A000000000000000000000000000000000000000000000000000000000 DUP2 MSTORE PUSH1 0x4 ADD PUSH2 0xE31 SWAP1 PUSH2 0x1C22 JUMP JUMPDEST PUSH1 0x40 MLOAD DUP1 SWAP2 SUB SWAP1 REVERT JUMPDEST DUP1 SELFBALANCE LT ISZERO PUSH2 0xE7D JUMPI PUSH1 0x40 MLOAD PUSH32 0x8C379A000000000000000000000000000000000000000000000000000000000 DUP2 MSTORE PUSH1 0x4 ADD PUSH2 0xE74 SWAP1 PUSH2 0x1DC2 JUMP JUMPDEST PUSH1 0x40 MLOAD DUP1 SWAP2 SUB SWAP1 REVERT JUMPDEST PUSH1 0x1 PUSH0 SWAP1 SLOAD SWAP1 PUSH2 0x100 EXP SWAP1 DIV PUSH20 0xFFFFFFFFFFFFFFFFFFFFFFFFFFFFFFFFFFFFFFFF AND PUSH20 0xFFFFFFFFFFFFFFFFFFFFFFFFFFFFFFFFFFFFFFFF AND PUSH2 0x8FC DUP3 SWAP1 DUP2 ISZERO MUL SWAP1 PUSH1 0x40 MLOAD PUSH0 PUSH1 0x40 MLOAD DUP1 DUP4 SUB DUP2 DUP6 DUP9 DUP9 CALL SWAP4 POP POP POP POP ISZERO DUP1 ISZERO PUSH2 0xEE1 JUMPI RETURNDATASIZE PUSH0 PUSH0 RETURNDATACOPY RETURNDATASIZE PUSH0 REVERT JUMPDEST POP PUSH0 PUSH1 0x40 MLOAD DUP1 PUSH1 0x80 ADD PUSH1 0x40 MSTORE DUP1 ADDRESS PUSH20 0xFFFFFFFFFFFFFFFFFFFFFFFFFFFFFFFFFFFFFFFF AND DUP2 MSTORE PUSH1 0x20 ADD PUSH1 0x1 PUSH0 SWAP1 SLOAD SWAP1 PUSH2 0x100 EXP SWAP1 DIV PUSH20 0xFFFFFFFFFFFFFFFFFFFFFFFFFFFFFFFFFFFFFFFF AND PUSH20 0xFFFFFFFFFFFFFFFFFFFFFFFFFFFFFFFFFFFFFFFF AND DUP2 MSTORE PUSH1 0x20 ADD TIMESTAMP DUP2 MSTORE PUSH1 0x20 ADD DUP4 DUP2 MSTORE POP SWAP1 DUP1 PUSH1 0x1 DUP2 SLOAD ADD DUP1 DUP3 SSTORE DUP1 SWAP2 POP POP PUSH1 0x1 SWAP1 SUB SWAP1 PUSH0 MSTORE PUSH1 0x20 PUSH0 KECCAK256 SWAP1 PUSH1 0x4 MUL ADD PUSH0 SWAP1 SWAP2 SWAP1 SWAP2 SWAP1 SWAP2 POP PUSH0 DUP3 ADD MLOAD DUP2 PUSH0 ADD PUSH0 PUSH2 0x100 EXP DUP2 SLOAD DUP2 PUSH20 0xFFFFFFFFFFFFFFFFFFFFFFFFFFFFFFFFFFFFFFFF MUL NOT AND SWAP1 DUP4 PUSH20 0xFFFFFFFFFFFFFFFFFFFFFFFFFFFFFFFFFFFFFFFF AND MUL OR SWAP1 SSTORE POP PUSH1 0x20 DUP3 ADD MLOAD DUP2 PUSH1 0x1 ADD PUSH0 PUSH2 0x100 EXP DUP2 SLOAD DUP2 PUSH20 0xFFFFFFFFFFFFFFFFFFFFFFFFFFFFFFFFFFFFFFFF MUL NOT AND SWAP1 DUP4 PUSH20 0xFFFFFFFFFFFFFFFFFFFFFFFFFFFFFFFFFFFFFFFF AND MUL OR SWAP1 SSTORE POP PUSH1 0x40 DUP3 ADD MLOAD DUP2 PUSH1 0x2 ADD SSTORE PUSH1 0x60 DUP3 ADD MLOAD DUP2 PUSH1 0x3 ADD SSTORE POP POP PUSH1 0x1 PUSH0 SWAP1 SLOAD SWAP1 PUSH2 0x100 EXP SWAP1 DIV PUSH20 0xFFFFFFFFFFFFFFFFFFFFFFFFFFFFFFFFFFFFFFFF AND PUSH20 0xFFFFFFFFFFFFFFFFFFFFFFFFFFFFFFFFFFFFFFFF AND PUSH32 0x1854F40CAFC6D1D892B7723388876E2DDAA1E0509AED7E9C9D0E2A54D1A6E936 DUP3 TIMESTAMP PUSH1 0x40 MLOAD PUSH2 0x1080 SWAP3 SWAP2 SWAP1 PUSH2 0x17FA JUMP JUMPDEST PUSH1 0x40 MLOAD DUP1 SWAP2 SUB SWAP1 LOG2 POP JUMP JUMPDEST PUSH1 0x60 PUSH0 DUP1 SLOAD DUP1 PUSH1 0x20 MUL PUSH1 0x20 ADD PUSH1 0x40 MLOAD SWAP1 DUP2 ADD PUSH1 0x40 MSTORE DUP1 SWAP3 SWAP2 SWAP1 DUP2 DUP2 MSTORE PUSH1 0x20 ADD PUSH0 SWAP1 JUMPDEST DUP3 DUP3 LT ISZERO PUSH2 0x119A JUMPI DUP4 DUP3 SWAP1 PUSH0 MSTORE PUSH1 0x20 PUSH0 KECCAK256 SWAP1 PUSH1 0x4 MUL ADD PUSH1 0x40 MLOAD DUP1 PUSH1 0x80 ADD PUSH1 0x40 MSTORE SWAP1 DUP2 PUSH0 DUP3 ADD PUSH0 SWAP1 SLOAD SWAP1 PUSH2 0x100 EXP SWAP1 DIV PUSH20 0xFFFFFFFFFFFFFFFFFFFFFFFFFFFFFFFFFFFFFFFF AND PUSH20 0xFFFFFFFFFFFFFFFFFFFFFFFFFFFFFFFFFFFFFFFF AND PUSH20 0xFFFFFFFFFFFFFFFFFFFFFFFFFFFFFFFFFFFFFFFF AND DUP2 MSTORE PUSH1 0x20 ADD PUSH1 0x1 DUP3 ADD PUSH0 SWAP1 SLOAD SWAP1 PUSH2 0x100 EXP SWAP1 DIV PUSH20 0xFFFFFFFFFFFFFFFFFFFFFFFFFFFFFFFFFFFFFFFF AND PUSH20 0xFFFFFFFFFFFFFFFFFFFFFFFFFFFFFFFFFFFFFFFF AND PUSH20 0xFFFFFFFFFFFFFFFFFFFFFFFFFFFFFFFFFFFFFFFF AND DUP2 MSTORE PUSH1 0x20 ADD PUSH1 0x2 DUP3 ADD SLOAD DUP2 MSTORE PUSH1 0x20 ADD PUSH1 0x3 DUP3 ADD SLOAD DUP2 MSTORE POP POP DUP2 MSTORE PUSH1 0x20 ADD SWAP1 PUSH1 0x1 ADD SWAP1 PUSH2 0x10AD JUMP JUMPDEST POP POP POP POP SWAP1 POP SWAP1 JUMP JUMPDEST PUSH0 SELFBALANCE SWAP1 POP SWAP1 JUMP JUMPDEST PUSH0 CALLVALUE GT PUSH2 0x11EC JUMPI PUSH1 0x40 MLOAD PUSH32 0x8C379A000000000000000000000000000000000000000000000000000000000 DUP2 MSTORE PUSH1 0x4 ADD PUSH2 0x11E3 SWAP1 PUSH2 0x1E50 JUMP JUMPDEST PUSH1 0x40 MLOAD DUP1 SWAP2 SUB SWAP1 REVERT JUMPDEST PUSH1 0x1 PUSH0 SWAP1 SLOAD SWAP1 PUSH2 0x100 EXP SWAP1 DIV PUSH20 0xFFFFFFFFFFFFFFFFFFFFFFFFFFFFFFFFFFFFFFFF AND PUSH20 0xFFFFFFFFFFFFFFFFFFFFFFFFFFFFFFFFFFFFFFFF AND PUSH2 0x8FC CALLVALUE SWAP1 DUP2 ISZERO MUL SWAP1 PUSH1 0x40 MLOAD PUSH0 PUSH1 0x40 MLOAD DUP1 DUP4 SUB DUP2 DUP6 DUP9 DUP9 CALL SWAP4 POP POP POP POP ISZERO DUP1 ISZERO PUSH2 0x1250 JUMPI RETURNDATASIZE PUSH0 PUSH0 RETURNDATACOPY RETURNDATASIZE PUSH0 REVERT JUMPDEST POP PUSH0 PUSH1 0x40 MLOAD DUP1 PUSH1 0x80 ADD PUSH1 0x40 MSTORE DUP1 CALLER PUSH20 0xFFFFFFFFFFFFFFFFFFFFFFFFFFFFFFFFFFFFFFFF AND DUP2 MSTORE PUSH1 0x20 ADD PUSH1 0x1 PUSH0 SWAP1 SLOAD SWAP1 PUSH2 0x100 EXP SWAP1 DIV PUSH20 0xFFFFFFFFFFFFFFFFFFFFFFFFFFFFFFFFFFFFFFFF AND PUSH20 0xFFFFFFFFFFFFFFFFFFFFFFFFFFFFFFFFFFFFFFFF AND DUP2 MSTORE PUSH1 0x20 ADD TIMESTAMP DUP2 MSTORE PUSH1 0x20 ADD CALLVALUE DUP2 MSTORE POP SWAP1 DUP1 PUSH1 0x1 DUP2 SLOAD ADD DUP1 DUP3 SSTORE DUP1 SWAP2 POP POP PUSH1 0x1 SWAP1 SUB SWAP1 PUSH0 MSTORE PUSH1 0x20 PUSH0 KECCAK256 SWAP1 PUSH1 0x4 MUL ADD PUSH0 SWAP1 SWAP2 SWAP1 SWAP2 SWAP1 SWAP2 POP PUSH0 DUP3 ADD MLOAD DUP2 PUSH0 ADD PUSH0 PUSH2 0x100 EXP DUP2 SLOAD DUP2 PUSH20 0xFFFFFFFFFFFFFFFFFFFFFFFFFFFFFFFFFFFFFFFF MUL NOT AND SWAP1 DUP4 PUSH20 0xFFFFFFFFFFFFFFFFFFFFFFFFFFFFFFFFFFFFFFFF AND MUL OR SWAP1 SSTORE POP PUSH1 0x20 DUP3 ADD MLOAD DUP2 PUSH1 0x1 ADD PUSH0 PUSH2 0x100 EXP DUP2 SLOAD DUP2 PUSH20 0xFFFFFFFFFFFFFFFFFFFFFFFFFFFFFFFFFFFFFFFF MUL NOT AND SWAP1 DUP4 PUSH20 0xFFFFFFFFFFFFFFFFFFFFFFFFFFFFFFFFFFFFFFFF AND MUL OR SWAP1 SSTORE POP PUSH1 0x40 DUP3 ADD MLOAD DUP2 PUSH1 0x2 ADD SSTORE PUSH1 0x60 DUP3 ADD MLOAD DUP2 PUSH1 0x3 ADD SSTORE POP POP PUSH1 0x1 PUSH0 SWAP1 SLOAD SWAP1 PUSH2 0x100 EXP SWAP1 DIV PUSH20 0xFFFFFFFFFFFFFFFFFFFFFFFFFFFFFFFFFFFFFFFF AND PUSH20 0xFFFFFFFFFFFFFFFFFFFFFFFFFFFFFFFFFFFFFFFF AND CALLER PUSH20 0xFFFFFFFFFFFFFFFFFFFFFFFFFFFFFFFFFFFFFFFF AND PUSH32 0xB8765EC7F8187A2481EBC55231AB7051403253057D7841135147E2B9CB1F4C9A CALLVALUE TIMESTAMP PUSH1 0x40 MLOAD PUSH2 0x1406 SWAP3 SWAP2 SWAP1 PUSH2 0x17FA JUMP JUMPDEST PUSH1 0x40 MLOAD DUP1 SWAP2 SUB SWAP1 LOG3 JUMP JUMPDEST CALLER PUSH1 0x5 PUSH1 0x2 PUSH0 DUP4 PUSH20 0xFFFFFFFFFFFFFFFFFFFFFFFFFFFFFFFFFFFFFFFF AND PUSH20 0xFFFFFFFFFFFFFFFFFFFFFFFFFFFFFFFFFFFFFFFF AND DUP2 MSTORE PUSH1 0x20 ADD SWAP1 DUP2 MSTORE PUSH1 0x20 ADD PUSH0 KECCAK256 SLOAD LT PUSH2 0x1491 JUMPI PUSH1 0x40 MLOAD PUSH32 0x8C379A000000000000000000000000000000000000000000000000000000000 DUP2 MSTORE PUSH1 0x4 ADD PUSH2 0x1488 SWAP1 PUSH2 0x1EDE JUMP JUMPDEST PUSH1 0x40 MLOAD DUP1 SWAP2 SUB SWAP1 REVERT JUMPDEST DUP2 TIMESTAMP GT PUSH2 0x14D3 JUMPI PUSH1 0x40 MLOAD PUSH32 0x8C379A000000000000000000000000000000000000000000000000000000000 DUP2 MSTORE PUSH1 0x4 ADD PUSH2 0x14CA SWAP1 PUSH2 0x1F46 JUMP JUMPDEST PUSH1 0x40 MLOAD DUP1 SWAP2 SUB SWAP1 REVERT JUMPDEST PUSH0 PUSH1 0x40 MLOAD DUP1 PUSH1 0x80 ADD PUSH1 0x40 MSTORE DUP1 CALLER PUSH20 0xFFFFFFFFFFFFFFFFFFFFFFFFFFFFFFFFFFFFFFFF AND DUP2 MSTORE PUSH1 0x20 ADD ADDRESS PUSH20 0xFFFFFFFFFFFFFFFFFFFFFFFFFFFFFFFFFFFFFFFF AND DUP2 MSTORE PUSH1 0x20 ADD TIMESTAMP DUP2 MSTORE PUSH1 0x20 ADD CALLVALUE DUP2 MSTORE POP SWAP1 DUP1 PUSH1 0x1 DUP2 SLOAD ADD DUP1 DUP3 SSTORE DUP1 SWAP2 POP POP PUSH1 0x1 SWAP1 SUB SWAP1 PUSH0 MSTORE PUSH1 0x20 PUSH0 KECCAK256 SWAP1 PUSH1 0x4 MUL ADD PUSH0 SWAP1 SWAP2 SWAP1 SWAP2 SWAP1 SWAP2 POP PUSH0 DUP3 ADD MLOAD DUP2 PUSH0 ADD PUSH0 PUSH2 0x100 EXP DUP2 SLOAD DUP2 PUSH20 0xFFFFFFFFFFFFFFFFFFFFFFFFFFFFFFFFFFFFFFFF MUL NOT AND SWAP1 DUP4 PUSH20 0xFFFFFFFFFFFFFFFFFFFFFFFFFFFFFFFFFFFFFFFF AND MUL OR SWAP1 SSTORE POP PUSH1 0x20 DUP3 ADD MLOAD DUP2 PUSH1 0x1 ADD PUSH0 PUSH2 0x100 EXP DUP2 SLOAD DUP2 PUSH20 0xFFFFFFFFFFFFFFFFFFFFFFFFFFFFFFFFFFFFFFFF MUL NOT AND SWAP1 DUP4 PUSH20 0xFFFFFFFFFFFFFFFFFFFFFFFFFFFFFFFFFFFFFFFF AND MUL OR SWAP1 SSTORE POP PUSH1 0x40 DUP3 ADD MLOAD DUP2 PUSH1 0x2 ADD SSTORE PUSH1 0x60 DUP3 ADD MLOAD DUP2 PUSH1 0x3 ADD SSTORE POP POP CALLER PUSH20 0xFFFFFFFFFFFFFFFFFFFFFFFFFFFFFFFFFFFFFFFF AND PUSH32 0x3B31CBADFD3FD939750F09D3BDBD6C0531DDE23F05D55DCC202798F39D090895 CALLVALUE TIMESTAMP PUSH1 0x40 MLOAD PUSH2 0x162F SWAP3 SWAP2 SWAP1 PUSH2 0x17FA JUMP JUMPDEST PUSH1 0x40 MLOAD DUP1 SWAP2 SUB SWAP1 LOG2 POP POP JUMP JUMPDEST PUSH1 0x1 PUSH0 SWAP1 SLOAD SWAP1 PUSH2 0x100 EXP SWAP1 DIV PUSH20 0xFFFFFFFFFFFFFFFFFFFFFFFFFFFFFFFFFFFFFFFF AND PUSH20 0xFFFFFFFFFFFFFFFFFFFFFFFFFFFFFFFFFFFFFFFF AND CALLER PUSH20 0xFFFFFFFFFFFFFFFFFFFFFFFFFFFFFFFFFFFFFFFF AND EQ PUSH2 0x16CA JUMPI PUSH1 0x40 MLOAD PUSH32 0x8C379A000000000000000000000000000000000000000000000000000000000 DUP2 MSTORE PUSH1 0x4 ADD PUSH2 0x16C1 SWAP1 PUSH2 0x1C22 JUMP JUMPDEST PUSH1 0x40 MLOAD DUP1 SWAP2 SUB SWAP1 REVERT JUMPDEST PUSH0 ISZERO ISZERO PUSH1 0x1 PUSH1 0x14 SWAP1 SLOAD SWAP1 PUSH2 0x100 EXP SWAP1 DIV PUSH1 0xFF AND ISZERO ISZERO EQ PUSH2 0x171F JUMPI PUSH1 0x40 MLOAD PUSH32 0x8C379A000000000000000000000000000000000000000000000000000000000 DUP2 MSTORE PUSH1 0x4 ADD PUSH2 0x1716 SWAP1 PUSH2 0x1FAE JUMP JUMPDEST PUSH1 0x40 MLOAD DUP1 SWAP2 SUB SWAP1 REVERT JUMPDEST PUSH0 PUSH1 0x1 PUSH0 SWAP1 SLOAD SWAP1 PUSH2 0x100 EXP SWAP1 DIV PUSH20 0xFFFFFFFFFFFFFFFFFFFFFFFFFFFFFFFFFFFFFFFF AND SWAP1 POP DUP2 PUSH1 0x1 PUSH0 PUSH2 0x100 EXP DUP2 SLOAD DUP2 PUSH20 0xFFFFFFFFFFFFFFFFFFFFFFFFFFFFFFFFFFFFFFFF MUL NOT AND SWAP1 DUP4 PUSH20 0xFFFFFFFFFFFFFFFFFFFFFFFFFFFFFFFFFFFFFFFF AND MUL OR SWAP1 SSTORE POP DUP2 PUSH20 0xFFFFFFFFFFFFFFFFFFFFFFFFFFFFFFFFFFFFFFFF AND DUP2 PUSH20 0xFFFFFFFFFFFFFFFFFFFFFFFFFFFFFFFFFFFFFFFF AND PUSH32 0xB532073B38C83145E3E5135377A08BF9AAB55BC0FD7C1179CD4FB995D2A5159C PUSH1 0x40 MLOAD PUSH1 0x40 MLOAD DUP1 SWAP2 SUB SWAP1 LOG3 POP POP JUMP JUMPDEST PUSH0 DUP2 SWAP1 POP SWAP2 SWAP1 POP JUMP JUMPDEST PUSH2 0x17F4 DUP2 PUSH2 0x17E2 JUMP JUMPDEST DUP3 MSTORE POP POP JUMP JUMPDEST PUSH0 PUSH1 0x40 DUP3 ADD SWAP1 POP PUSH2 0x180D PUSH0 DUP4 ADD DUP6 PUSH2 0x17EB JUMP JUMPDEST PUSH2 0x181A PUSH1 0x20 DUP4 ADD DUP5 PUSH2 0x17EB JUMP JUMPDEST SWAP4 SWAP3 POP POP POP JUMP JUMPDEST PUSH0 DUP2 ISZERO ISZERO SWAP1 POP SWAP2 SWAP1 POP JUMP JUMPDEST PUSH2 0x1835 DUP2 PUSH2 0x1821 JUMP JUMPDEST DUP3 MSTORE POP POP JUMP JUMPDEST PUSH0 PUSH1 0x20 DUP3 ADD SWAP1 POP PUSH2 0x184E PUSH0 DUP4 ADD DUP5 PUSH2 0x182C JUMP JUMPDEST SWAP3 SWAP2 POP POP JUMP JUMPDEST PUSH0 PUSH0 REVERT JUMPDEST PUSH2 0x1861 DUP2 PUSH2 0x17E2 JUMP JUMPDEST DUP2 EQ PUSH2 0x186B JUMPI PUSH0 PUSH0 REVERT JUMPDEST POP JUMP JUMPDEST PUSH0 DUP2 CALLDATALOAD SWAP1 POP PUSH2 0x187C DUP2 PUSH2 0x1858 JUMP JUMPDEST SWAP3 SWAP2 POP POP JUMP JUMPDEST PUSH0 PUSH1 0x20 DUP3 DUP5 SUB SLT ISZERO PUSH2 0x1897 JUMPI PUSH2 0x1896 PUSH2 0x1854 JUMP JUMPDEST JUMPDEST PUSH0 PUSH2 0x18A4 DUP5 DUP3 DUP6 ADD PUSH2 0x186E JUMP JUMPDEST SWAP2 POP POP SWAP3 SWAP2 POP POP JUMP JUMPDEST PUSH0 PUSH20 0xFFFFFFFFFFFFFFFFFFFFFFFFFFFFFFFFFFFFFFFF DUP3 AND SWAP1 POP SWAP2 SWAP1 POP JUMP JUMPDEST PUSH0 PUSH2 0x18D6 DUP3 PUSH2 0x18AD JUMP JUMPDEST SWAP1 POP SWAP2 SWAP1 POP JUMP JUMPDEST PUSH2 0x18E6 DUP2 PUSH2 0x18CC JUMP JUMPDEST DUP3 MSTORE POP POP JUMP JUMPDEST PUSH0 PUSH1 0x80 DUP3 ADD SWAP1 POP PUSH2 0x18FF PUSH0 DUP4 ADD DUP8 PUSH2 0x18DD JUMP JUMPDEST PUSH2 0x190C PUSH1 0x20 DUP4 ADD DUP7 PUSH2 0x18DD JUMP JUMPDEST PUSH2 0x1919 PUSH1 0x40 DUP4 ADD DUP6 PUSH2 0x17EB JUMP JUMPDEST PUSH2 0x1926 PUSH1 0x60 DUP4 ADD DUP5 PUSH2 0x17EB JUMP JUMPDEST SWAP6 SWAP5 POP POP POP POP POP JUMP JUMPDEST PUSH0 PUSH2 0x1939 DUP3 PUSH2 0x18AD JUMP JUMPDEST SWAP1 POP SWAP2 SWAP1 POP JUMP JUMPDEST PUSH2 0x1949 DUP2 PUSH2 0x192F JUMP JUMPDEST DUP2 EQ PUSH2 0x1953 JUMPI PUSH0 PUSH0 REVERT JUMPDEST POP JUMP JUMPDEST PUSH0 DUP2 CALLDATALOAD SWAP1 POP PUSH2 0x1964 DUP2 PUSH2 0x1940 JUMP JUMPDEST SWAP3 SWAP2 POP POP JUMP JUMPDEST PUSH0 PUSH0 PUSH1 0x40 DUP4 DUP6 SUB SLT ISZERO PUSH2 0x1980 JUMPI PUSH2 0x197F PUSH2 0x1854 JUMP JUMPDEST JUMPDEST PUSH0 PUSH2 0x198D DUP6 DUP3 DUP7 ADD PUSH2 0x1956 JUMP JUMPDEST SWAP3 POP POP PUSH1 0x20 PUSH2 0x199E DUP6 DUP3 DUP7 ADD PUSH2 0x186E JUMP JUMPDEST SWAP2 POP POP SWAP3 POP SWAP3 SWAP1 POP JUMP JUMPDEST PUSH0 PUSH1 0x20 DUP3 ADD SWAP1 POP PUSH2 0x19BB PUSH0 DUP4 ADD DUP5 PUSH2 0x17EB JUMP JUMPDEST SWAP3 SWAP2 POP POP JUMP JUMPDEST PUSH2 0x19CA DUP2 PUSH2 0x18CC JUMP JUMPDEST DUP2 EQ PUSH2 0x19D4 JUMPI PUSH0 PUSH0 REVERT JUMPDEST POP JUMP JUMPDEST PUSH0 DUP2 CALLDATALOAD SWAP1 POP PUSH2 0x19E5 DUP2 PUSH2 0x19C1 JUMP JUMPDEST SWAP3 SWAP2 POP POP JUMP JUMPDEST PUSH0 PUSH1 0x20 DUP3 DUP5 SUB SLT ISZERO PUSH2 0x1A00 JUMPI PUSH2 0x19FF PUSH2 0x1854 JUMP JUMPDEST JUMPDEST PUSH0 PUSH2 0x1A0D DUP5 DUP3 DUP6 ADD PUSH2 0x19D7 JUMP JUMPDEST SWAP2 POP POP SWAP3 SWAP2 POP POP JUMP JUMPDEST PUSH0 PUSH1 0x20 DUP3 ADD SWAP1 POP PUSH2 0x1A29 PUSH0 DUP4 ADD DUP5 PUSH2 0x18DD JUMP JUMPDEST SWAP3 SWAP2 POP POP JUMP JUMPDEST PUSH0 DUP2 MLOAD SWAP1 POP SWAP2 SWAP1 POP JUMP JUMPDEST PUSH0 DUP3 DUP3 MSTORE PUSH1 0x20 DUP3 ADD SWAP1 POP SWAP3 SWAP2 POP POP JUMP JUMPDEST PUSH0 DUP2 SWAP1 POP PUSH1 0x20 DUP3 ADD SWAP1 POP SWAP2 SWAP1 POP JUMP JUMPDEST PUSH2 0x1A61 DUP2 PUSH2 0x18CC JUMP JUMPDEST DUP3 MSTORE POP POP JUMP JUMPDEST PUSH2 0x1A70 DUP2 PUSH2 0x17E2 JUMP JUMPDEST DUP3 MSTORE POP POP JUMP JUMPDEST PUSH1 0x80 DUP3 ADD PUSH0 DUP3 ADD MLOAD PUSH2 0x1A8A PUSH0 DUP6 ADD DUP3 PUSH2 0x1A58 JUMP JUMPDEST POP PUSH1 0x20 DUP3 ADD MLOAD PUSH2 0x1A9D PUSH1 0x20 DUP6 ADD DUP3 PUSH2 0x1A58 JUMP JUMPDEST POP PUSH1 0x40 DUP3 ADD MLOAD PUSH2 0x1AB0 PUSH1 0x40 DUP6 ADD DUP3 PUSH2 0x1A67 JUMP JUMPDEST POP PUSH1 0x60 DUP3 ADD MLOAD PUSH2 0x1AC3 PUSH1 0x60 DUP6 ADD DUP3 PUSH2 0x1A67 JUMP JUMPDEST POP POP POP POP JUMP JUMPDEST PUSH0 PUSH2 0x1AD4 DUP4 DUP4 PUSH2 0x1A76 JUMP JUMPDEST PUSH1 0x80 DUP4 ADD SWAP1 POP SWAP3 SWAP2 POP POP JUMP JUMPDEST PUSH0 PUSH1 0x20 DUP3 ADD SWAP1 POP SWAP2 SWAP1 POP JUMP JUMPDEST PUSH0 PUSH2 0x1AF6 DUP3 PUSH2 0x1A2F JUMP JUMPDEST PUSH2 0x1B00 DUP2 DUP6 PUSH2 0x1A39 JUMP JUMPDEST SWAP4 POP PUSH2 0x1B0B DUP4 PUSH2 0x1A49 JUMP JUMPDEST DUP1 PUSH0 JUMPDEST DUP4 DUP2 LT ISZERO PUSH2 0x1B3B JUMPI DUP2 MLOAD PUSH2 0x1B22 DUP9 DUP3 PUSH2 0x1AC9 JUMP JUMPDEST SWAP8 POP PUSH2 0x1B2D DUP4 PUSH2 0x1AE0 JUMP JUMPDEST SWAP3 POP POP PUSH1 0x1 DUP2 ADD SWAP1 POP PUSH2 0x1B0E JUMP JUMPDEST POP DUP6 SWAP4 POP POP POP POP SWAP3 SWAP2 POP POP JUMP JUMPDEST PUSH0 PUSH1 0x20 DUP3 ADD SWAP1 POP DUP2 DUP2 SUB PUSH0 DUP4 ADD MSTORE PUSH2 0x1B60 DUP2 DUP5 PUSH2 0x1AEC JUMP JUMPDEST SWAP1 POP SWAP3 SWAP2 POP POP JUMP JUMPDEST PUSH32 0x4E487B7100000000000000000000000000000000000000000000000000000000 PUSH0 MSTORE PUSH1 0x11 PUSH1 0x4 MSTORE PUSH1 0x24 PUSH0 REVERT JUMPDEST PUSH0 PUSH2 0x1B9F DUP3 PUSH2 0x17E2 JUMP JUMPDEST SWAP2 POP PUSH2 0x1BAA DUP4 PUSH2 0x17E2 JUMP JUMPDEST SWAP3 POP DUP3 DUP3 ADD SWAP1 POP DUP1 DUP3 GT ISZERO PUSH2 0x1BC2 JUMPI PUSH2 0x1BC1 PUSH2 0x1B68 JUMP JUMPDEST JUMPDEST SWAP3 SWAP2 POP POP JUMP JUMPDEST PUSH0 DUP3 DUP3 MSTORE PUSH1 0x20 DUP3 ADD SWAP1 POP SWAP3 SWAP2 POP POP JUMP JUMPDEST PUSH32 0x596F7520646F6E27742068617665206163636573730000000000000000000000 PUSH0 DUP3 ADD MSTORE POP JUMP JUMPDEST PUSH0 PUSH2 0x1C0C PUSH1 0x15 DUP4 PUSH2 0x1BC8 JUMP JUMPDEST SWAP2 POP PUSH2 0x1C17 DUP3 PUSH2 0x1BD8 JUMP JUMPDEST PUSH1 0x20 DUP3 ADD SWAP1 POP SWAP2 SWAP1 POP JUMP JUMPDEST PUSH0 PUSH1 0x20 DUP3 ADD SWAP1 POP DUP2 DUP2 SUB PUSH0 DUP4 ADD MSTORE PUSH2 0x1C39 DUP2 PUSH2 0x1C00 JUMP JUMPDEST SWAP1 POP SWAP2 SWAP1 POP JUMP JUMPDEST PUSH32 0x496E73756666696369656E742042616C616E6365000000000000000000000000 PUSH0 DUP3 ADD MSTORE POP JUMP JUMPDEST PUSH0 PUSH2 0x1C74 PUSH1 0x14 DUP4 PUSH2 0x1BC8 JUMP JUMPDEST SWAP2 POP PUSH2 0x1C7F DUP3 PUSH2 0x1C40 JUMP JUMPDEST PUSH1 0x20 DUP3 ADD SWAP1 POP SWAP2 SWAP1 POP JUMP JUMPDEST PUSH0 PUSH1 0x20 DUP3 ADD SWAP1 POP DUP2 DUP2 SUB PUSH0 DUP4 ADD MSTORE PUSH2 0x1CA1 DUP2 PUSH2 0x1C68 JUMP JUMPDEST SWAP1 POP SWAP2 SWAP1 POP JUMP JUMPDEST PUSH32 0x41647265737320666F726D617420696E636F7272656374000000000000000000 PUSH0 DUP3 ADD MSTORE POP JUMP JUMPDEST PUSH0 PUSH2 0x1CDC PUSH1 0x17 DUP4 PUSH2 0x1BC8 JUMP JUMPDEST SWAP2 POP PUSH2 0x1CE7 DUP3 PUSH2 0x1CA8 JUMP JUMPDEST PUSH1 0x20 DUP3 ADD SWAP1 POP SWAP2 SWAP1 POP JUMP JUMPDEST PUSH0 PUSH1 0x20 DUP3 ADD SWAP1 POP DUP2 DUP2 SUB PUSH0 DUP4 ADD MSTORE PUSH2 0x1D09 DUP2 PUSH2 0x1CD0 JUMP JUMPDEST SWAP1 POP SWAP2 SWAP1 POP JUMP JUMPDEST PUSH32 0x456D657267656E6379206E6F74206465636C6172656400000000000000000000 PUSH0 DUP3 ADD MSTORE POP JUMP JUMPDEST PUSH0 PUSH2 0x1D44 PUSH1 0x16 DUP4 PUSH2 0x1BC8 JUMP JUMPDEST SWAP2 POP PUSH2 0x1D4F DUP3 PUSH2 0x1D10 JUMP JUMPDEST PUSH1 0x20 DUP3 ADD SWAP1 POP SWAP2 SWAP1 POP JUMP JUMPDEST PUSH0 PUSH1 0x20 DUP3 ADD SWAP1 POP DUP2 DUP2 SUB PUSH0 DUP4 ADD MSTORE PUSH2 0x1D71 DUP2 PUSH2 0x1D38 JUMP JUMPDEST SWAP1 POP SWAP2 SWAP1 POP JUMP JUMPDEST PUSH32 0x496E7375666666696369656E742062616C616E63650000000000000000000000 PUSH0 DUP3 ADD MSTORE POP JUMP JUMPDEST PUSH0 PUSH2 0x1DAC PUSH1 0x15 DUP4 PUSH2 0x1BC8 JUMP JUMPDEST SWAP2 POP PUSH2 0x1DB7 DUP3 PUSH2 0x1D78 JUMP JUMPDEST PUSH1 0x20 DUP3 ADD SWAP1 POP SWAP2 SWAP1 POP JUMP JUMPDEST PUSH0 PUSH1 0x20 DUP3 ADD SWAP1 POP DUP2 DUP2 SUB PUSH0 DUP4 ADD MSTORE PUSH2 0x1DD9 DUP2 PUSH2 0x1DA0 JUMP JUMPDEST SWAP1 POP SWAP2 SWAP1 POP JUMP JUMPDEST PUSH32 0x5765692056616C7565206D7573742062652067726561746572207468616E207A PUSH0 DUP3 ADD MSTORE PUSH32 0x65726F0000000000000000000000000000000000000000000000000000000000 PUSH1 0x20 DUP3 ADD MSTORE POP JUMP JUMPDEST PUSH0 PUSH2 0x1E3A PUSH1 0x23 DUP4 PUSH2 0x1BC8 JUMP JUMPDEST SWAP2 POP PUSH2 0x1E45 DUP3 PUSH2 0x1DE0 JUMP JUMPDEST PUSH1 0x40 DUP3 ADD SWAP1 POP SWAP2 SWAP1 POP JUMP JUMPDEST PUSH0 PUSH1 0x20 DUP3 ADD SWAP1 POP DUP2 DUP2 SUB PUSH0 DUP4 ADD MSTORE PUSH2 0x1E67 DUP2 PUSH2 0x1E2E JUMP JUMPDEST SWAP1 POP SWAP2 SWAP1 POP JUMP JUMPDEST PUSH32 0x416374697669747920666F756E6420737573706963696F75732C20547279206C PUSH0 DUP3 ADD MSTORE PUSH32 0x6174657200000000000000000000000000000000000000000000000000000000 PUSH1 0x20 DUP3 ADD MSTORE POP JUMP JUMPDEST PUSH0 PUSH2 0x1EC8 PUSH1 0x24 DUP4 PUSH2 0x1BC8 JUMP JUMPDEST SWAP2 POP PUSH2 0x1ED3 DUP3 PUSH2 0x1E6E JUMP JUMPDEST PUSH1 0x40 DUP3 ADD SWAP1 POP SWAP2 SWAP1 POP JUMP JUMPDEST PUSH0 PUSH1 0x20 DUP3 ADD SWAP1 POP DUP2 DUP2 SUB PUSH0 DUP4 ADD MSTORE PUSH2 0x1EF5 DUP2 PUSH2 0x1EBC JUMP JUMPDEST SWAP1 POP SWAP2 SWAP1 POP JUMP JUMPDEST PUSH32 0x73656E642061667465722073746172742074696D650000000000000000000000 PUSH0 DUP3 ADD MSTORE POP JUMP JUMPDEST PUSH0 PUSH2 0x1F30 PUSH1 0x15 DUP4 PUSH2 0x1BC8 JUMP JUMPDEST SWAP2 POP PUSH2 0x1F3B DUP3 PUSH2 0x1EFC JUMP JUMPDEST PUSH1 0x20 DUP3 ADD SWAP1 POP SWAP2 SWAP1 POP JUMP JUMPDEST PUSH0 PUSH1 0x20 DUP3 ADD SWAP1 POP DUP2 DUP2 SUB PUSH0 DUP4 ADD MSTORE PUSH2 0x1F5D DUP2 PUSH2 0x1F24 JUMP JUMPDEST SWAP1 POP SWAP2 SWAP1 POP JUMP JUMPDEST PUSH32 0x456D657267656E6379206465636C617265640000000000000000000000000000 PUSH0 DUP3 ADD MSTORE POP JUMP JUMPDEST PUSH0 PUSH2 0x1F98 PUSH1 0x12 DUP4 PUSH2 0x1BC8 JUMP JUMPDEST SWAP2 POP PUSH2 0x1FA3 DUP3 PUSH2 0x1F64 JUMP JUMPDEST PUSH1 0x20 DUP3 ADD SWAP1 POP SWAP2 SWAP1 POP JUMP JUMPDEST PUSH0 PUSH1 0x20 DUP3 ADD SWAP1 POP DUP2 DUP2 SUB PUSH0 DUP4 ADD MSTORE PUSH2 0x1FC5 DUP2 PUSH2 0x1F8C JUMP JUMPDEST SWAP1 POP SWAP2 SWAP1 POP JUMP INVALID LOG2 PUSH5 0x6970667358 0x22 SLT KECCAK256 0xA6 0x24 0xBA 0xA8 PUSH0 SLOAD STATICCALL MUL COINBASE SWAP4 0xA9 PUSH31 0x3431F2C738BE6F3A8F393A16C83FAAFDD94B3D5064736F6C634300081F0033 "
				},
				"gasEstimates": {
					"creation": {
						"codeDepositCost": "1638800",
						"executionCost": "25985",
						"totalCost": "1664785"
					},
					"external": {
						"": "infinite",
						"changOwner(address)": "32884",
						"emergencyWithdrawl()": "infinite",
						"getContractBalanceInWei()": "423",
						"getOwnerBalanceInWei()": "5096",
						"getTransactionHistory()": "infinite",
						"owner()": "2597",
						"receiveFromUser()": "infinite",
						"stop()": "2541",
						"suspiciousActivity(address)": "infinite",
						"toggleStop()": "32221",
						"transactionHistory(uint256)": "infinite",
						"transferToContract(uint256)": "infinite",
						"transferToUserViaContract(address,uint256)": "infinite",
						"transferToUserViaMsgValue(address)": "infinite",
						"withdrawFromContract(uint256)": "infinite"
					}
				},
				"methodIdentifiers": {
					"changOwner(address)": "eb2d9fd3",
					"emergencyWithdrawl()": "7935e5a3",
					"getContractBalanceInWei()": "bfa698de",
					"getOwnerBalanceInWei()": "547fbe8e",
					"getTransactionHistory()": "b76d4fc3",
					"owner()": "8da5cb5b",
					"receiveFromUser()": "d2b53948",
					"stop()": "07da68f5",
					"suspiciousActivity(address)": "cf87f052",
					"toggleStop()": "9a70eef1",
					"transactionHistory(uint256)": "243e7a87",
					"transferToContract(uint256)": "d555d473",
					"transferToUserViaContract(address,uint256)": "47cdcc1f",
					"transferToUserViaMsgValue(address)": "6f3f42ac",
					"withdrawFromContract(uint256)": "aeae547d"
				}
			},
			"storageLayout": {
				"storage": [
					{
						"astId": 14,
						"contract": "contracts/walletgraphql.sol:SimpleWallet",
						"label": "transactionHistory",
						"offset": 0,
						"slot": "0",
						"type": "t_array(t_struct(Transaction)10_storage)dyn_storage"
					},
					{
						"astId": 16,
						"contract": "contracts/walletgraphql.sol:SimpleWallet",
						"label": "owner",
						"offset": 0,
						"slot": "1",
						"type": "t_address"
					},
					{
						"astId": 18,
						"contract": "contracts/walletgraphql.sol:SimpleWallet",
						"label": "stop",
						"offset": 20,
						"slot": "1",
						"type": "t_bool"
					},
					{
						"astId": 120,
						"contract": "contracts/walletgraphql.sol:SimpleWallet",
						"label": "suspiciousUser",
						"offset": 0,
						"slot": "2",
						"type": "t_mapping(t_address,t_uint256)"
					}
				],
				"types": {
					"t_address": {
						"encoding": "inplace",
						"label": "address",
						"numberOfBytes": "20"
					},
					"t_array(t_struct(Transaction)10_storage)dyn_storage": {
						"base": "t_struct(Transaction)10_storage",
						"encoding": "dynamic_array",
						"label": "struct SimpleWallet.Transaction[]",
						"numberOfBytes": "32"
					},
					"t_bool": {
						"encoding": "inplace",
						"label": "bool",
						"numberOfBytes": "1"
					},
					"t_mapping(t_address,t_uint256)": {
						"encoding": "mapping",
						"key": "t_address",
						"label": "mapping(address => uint256)",
						"numberOfBytes": "32",
						"value": "t_uint256"
					},
					"t_struct(Transaction)10_storage": {
						"encoding": "inplace",
						"label": "struct SimpleWallet.Transaction",
						"members": [
							{
								"astId": 3,
								"contract": "contracts/walletgraphql.sol:SimpleWallet",
								"label": "from",
								"offset": 0,
								"slot": "0",
								"type": "t_address"
							},
							{
								"astId": 5,
								"contract": "contracts/walletgraphql.sol:SimpleWallet",
								"label": "to",
								"offset": 0,
								"slot": "1",
								"type": "t_address"
							},
							{
								"astId": 7,
								"contract": "contracts/walletgraphql.sol:SimpleWallet",
								"label": "timestamp",
								"offset": 0,
								"slot": "2",
								"type": "t_uint256"
							},
							{
								"astId": 9,
								"contract": "contracts/walletgraphql.sol:SimpleWallet",
								"label": "amount",
								"offset": 0,
								"slot": "3",
								"type": "t_uint256"
							}
						],
						"numberOfBytes": "128"
					},
					"t_uint256": {
						"encoding": "inplace",
						"label": "uint256",
						"numberOfBytes": "32"
					}
				}
			},
			"userdoc": {
				"kind": "user",
				"methods": {},
				"version": 1
			}
		}
	}
}