{
	"contracts/10.36.ERC20token.sol": {
		"ERC20": {
			"abi": [
				{
					"inputs": [],
					"stateMutability": "nonpayable",
					"type": "constructor"
				},
				{
					"anonymous": false,
					"inputs": [
						{
							"indexed": true,
							"internalType": "address",
							"name": "owner",
							"type": "address"
						},
						{
							"indexed": true,
							"internalType": "address",
							"name": "spender",
							"type": "address"
						},
						{
							"indexed": false,
							"internalType": "uint256",
							"name": "value",
							"type": "uint256"
						}
					],
					"name": "Approval",
					"type": "event"
				},
				{
					"anonymous": false,
					"inputs": [
						{
							"indexed": true,
							"internalType": "address",
							"name": "from",
							"type": "address"
						},
						{
							"indexed": true,
							"internalType": "address",
							"name": "to",
							"type": "address"
						},
						{
							"indexed": false,
							"internalType": "uint256",
							"name": "value",
							"type": "uint256"
						}
					],
					"name": "Transfer",
					"type": "event"
				},
				{
					"inputs": [
						{
							"internalType": "address",
							"name": "owner",
							"type": "address"
						},
						{
							"internalType": "address",
							"name": "spender",
							"type": "address"
						}
					],
					"name": "allowance",
					"outputs": [
						{
							"internalType": "uint256",
							"name": "",
							"type": "uint256"
						}
					],
					"stateMutability": "view",
					"type": "function"
				},
				{
					"inputs": [
						{
							"internalType": "address",
							"name": "",
							"type": "address"
						},
						{
							"internalType": "address",
							"name": "",
							"type": "address"
						}
					],
					"name": "allowances",
					"outputs": [
						{
							"internalType": "uint256",
							"name": "",
							"type": "uint256"
						}
					],
					"stateMutability": "view",
					"type": "function"
				},
				{
					"inputs": [
						{
							"internalType": "address",
							"name": "spender",
							"type": "address"
						},
						{
							"internalType": "uint256",
							"name": "value",
							"type": "uint256"
						}
					],
					"name": "approve",
					"outputs": [
						{
							"internalType": "bool",
							"name": "",
							"type": "bool"
						}
					],
					"stateMutability": "nonpayable",
					"type": "function"
				},
				{
					"inputs": [
						{
							"internalType": "address",
							"name": "",
							"type": "address"
						}
					],
					"name": "balanceOf",
					"outputs": [
						{
							"internalType": "uint256",
							"name": "",
							"type": "uint256"
						}
					],
					"stateMutability": "view",
					"type": "function"
				},
				{
					"inputs": [],
					"name": "decimals",
					"outputs": [
						{
							"internalType": "uint8",
							"name": "",
							"type": "uint8"
						}
					],
					"stateMutability": "view",
					"type": "function"
				},
				{
					"inputs": [
						{
							"internalType": "address",
							"name": "account",
							"type": "address"
						}
					],
					"name": "getBalance",
					"outputs": [
						{
							"internalType": "uint256",
							"name": "",
							"type": "uint256"
						}
					],
					"stateMutability": "view",
					"type": "function"
				},
				{
					"inputs": [],
					"name": "name",
					"outputs": [
						{
							"internalType": "string",
							"name": "",
							"type": "string"
						}
					],
					"stateMutability": "view",
					"type": "function"
				},
				{
					"inputs": [],
					"name": "symbol",
					"outputs": [
						{
							"internalType": "string",
							"name": "",
							"type": "string"
						}
					],
					"stateMutability": "view",
					"type": "function"
				},
				{
					"inputs": [],
					"name": "totalSupply",
					"outputs": [
						{
							"internalType": "uint256",
							"name": "",
							"type": "uint256"
						}
					],
					"stateMutability": "view",
					"type": "function"
				},
				{
					"inputs": [
						{
							"internalType": "address",
							"name": "to",
							"type": "address"
						},
						{
							"internalType": "uint256",
							"name": "value",
							"type": "uint256"
						}
					],
					"name": "transfer",
					"outputs": [
						{
							"internalType": "bool",
							"name": "",
							"type": "bool"
						}
					],
					"stateMutability": "nonpayable",
					"type": "function"
				},
				{
					"inputs": [
						{
							"internalType": "address",
							"name": "from",
							"type": "address"
						},
						{
							"internalType": "address",
							"name": "to",
							"type": "address"
						},
						{
							"internalType": "uint256",
							"name": "value",
							"type": "uint256"
						}
					],
					"name": "transferFrom",
					"outputs": [
						{
							"internalType": "bool",
							"name": "",
							"type": "bool"
						}
					],
					"stateMutability": "nonpayable",
					"type": "function"
				}
			],
			"devdoc": {
				"kind": "dev",
				"methods": {},
				"version": 1
			},
			"evm": {
				"assembly": "    /* \"contracts/10.36.ERC20token.sol\":885:2814  contract ERC20 is IERC20 {... */\n  mstore(0x40, 0x80)\n    /* \"contracts/10.36.ERC20token.sol\":954:958  1000 */\n  0x03e8\n    /* \"contracts/10.36.ERC20token.sol\":916:958  uint256 public override totalSupply = 1000 */\n  0x00\n  sstore\n    /* \"contracts/10.36.ERC20token.sol\":988:989  0 */\n  0x00\n    /* \"contracts/10.36.ERC20token.sol\":964:989  uint8 public decimals = 0 */\n  0x01\n  exp(0x0100, 0x00)\n  dup2\n  sload\n  dup2\n  0xff\n  mul\n  not\n  and\n  swap1\n  dup4\n  0xff\n  and\n  mul\n  or\n  swap1\n  sstore\n  pop\n    /* \"contracts/10.36.ERC20token.sol\":995:1027  string public name = \"TestToken\" */\n  mload(0x40)\n  dup1\n  0x40\n  add\n  0x40\n  mstore\n  dup1\n  0x09\n  dup2\n  mstore\n  0x20\n  add\n  0x54657374546f6b656e0000000000000000000000000000000000000000000000\n  dup2\n  mstore\n  pop\n  0x02\n  swap1\n  dup2\n  tag_1\n  swap2\n  swap1\n  tag_2\n  jump\t// in\ntag_1:\n  pop\n    /* \"contracts/10.36.ERC20token.sol\":1033:1061  string public symbol = \"TTK\" */\n  mload(0x40)\n  dup1\n  0x40\n  add\n  0x40\n  mstore\n  dup1\n  0x03\n  dup2\n  mstore\n  0x20\n  add\n  0x54544b0000000000000000000000000000000000000000000000000000000000\n  dup2\n  mstore\n  pop\n  0x03\n  swap1\n  dup2\n  tag_3\n  swap2\n  swap1\n  tag_2\n  jump\t// in\ntag_3:\n  pop\n    /* \"contracts/10.36.ERC20token.sol\":1190:1256  constructor() {... */\n  callvalue\n  dup1\n  iszero\n  tag_4\n  jumpi\n  revert(0x00, 0x00)\ntag_4:\n  pop\n    /* \"contracts/10.36.ERC20token.sol\":1238:1249  totalSupply */\n  sload(0x00)\n    /* \"contracts/10.36.ERC20token.sol\":1214:1223  balanceOf */\n  0x04\n    /* \"contracts/10.36.ERC20token.sol\":1214:1235  balanceOf[msg.sender] */\n  0x00\n    /* \"contracts/10.36.ERC20token.sol\":1224:1234  msg.sender */\n  caller\n    /* \"contracts/10.36.ERC20token.sol\":1214:1235  balanceOf[msg.sender] */\n  0xffffffffffffffffffffffffffffffffffffffff\n  and\n  0xffffffffffffffffffffffffffffffffffffffff\n  and\n  dup2\n  mstore\n  0x20\n  add\n  swap1\n  dup2\n  mstore\n  0x20\n  add\n  0x00\n  keccak256\n    /* \"contracts/10.36.ERC20token.sol\":1214:1249  balanceOf[msg.sender] = totalSupply */\n  dup2\n  swap1\n  sstore\n  pop\n    /* \"contracts/10.36.ERC20token.sol\":885:2814  contract ERC20 is IERC20 {... */\n  jump(tag_7)\n    /* \"#utility.yul\":7:106   */\ntag_8:\n    /* \"#utility.yul\":59:65   */\n  0x00\n    /* \"#utility.yul\":93:98   */\n  dup2\n    /* \"#utility.yul\":87:99   */\n  mload\n    /* \"#utility.yul\":77:99   */\n  swap1\n  pop\n    /* \"#utility.yul\":7:106   */\n  swap2\n  swap1\n  pop\n  jump\t// out\n    /* \"#utility.yul\":112:292   */\ntag_9:\n    /* \"#utility.yul\":160:237   */\n  0x4e487b7100000000000000000000000000000000000000000000000000000000\n    /* \"#utility.yul\":157:158   */\n  0x00\n    /* \"#utility.yul\":150:238   */\n  mstore\n    /* \"#utility.yul\":257:261   */\n  0x41\n    /* \"#utility.yul\":254:255   */\n  0x04\n    /* \"#utility.yul\":247:262   */\n  mstore\n    /* \"#utility.yul\":281:285   */\n  0x24\n    /* \"#utility.yul\":278:279   */\n  0x00\n    /* \"#utility.yul\":271:286   */\n  revert\n    /* \"#utility.yul\":298:478   */\ntag_10:\n    /* \"#utility.yul\":346:423   */\n  0x4e487b7100000000000000000000000000000000000000000000000000000000\n    /* \"#utility.yul\":343:344   */\n  0x00\n    /* \"#utility.yul\":336:424   */\n  mstore\n    /* \"#utility.yul\":443:447   */\n  0x22\n    /* \"#utility.yul\":440:441   */\n  0x04\n    /* \"#utility.yul\":433:448   */\n  mstore\n    /* \"#utility.yul\":467:471   */\n  0x24\n    /* \"#utility.yul\":464:465   */\n  0x00\n    /* \"#utility.yul\":457:472   */\n  revert\n    /* \"#utility.yul\":484:804   */\ntag_11:\n    /* \"#utility.yul\":528:534   */\n  0x00\n    /* \"#utility.yul\":565:566   */\n  0x02\n    /* \"#utility.yul\":559:563   */\n  dup3\n    /* \"#utility.yul\":555:567   */\n  div\n    /* \"#utility.yul\":545:567   */\n  swap1\n  pop\n    /* \"#utility.yul\":612:613   */\n  0x01\n    /* \"#utility.yul\":606:610   */\n  dup3\n    /* \"#utility.yul\":602:614   */\n  and\n    /* \"#utility.yul\":633:651   */\n  dup1\n    /* \"#utility.yul\":623:704   */\n  tag_33\n  jumpi\n    /* \"#utility.yul\":689:693   */\n  0x7f\n    /* \"#utility.yul\":681:687   */\n  dup3\n    /* \"#utility.yul\":677:694   */\n  and\n    /* \"#utility.yul\":667:694   */\n  swap2\n  pop\n    /* \"#utility.yul\":623:704   */\ntag_33:\n    /* \"#utility.yul\":751:753   */\n  0x20\n    /* \"#utility.yul\":743:749   */\n  dup3\n    /* \"#utility.yul\":740:754   */\n  lt\n    /* \"#utility.yul\":720:738   */\n  dup2\n    /* \"#utility.yul\":717:755   */\n  sub\n    /* \"#utility.yul\":714:798   */\n  tag_34\n  jumpi\n    /* \"#utility.yul\":770:788   */\n  tag_35\n  tag_10\n  jump\t// in\ntag_35:\n    /* \"#utility.yul\":714:798   */\ntag_34:\n    /* \"#utility.yul\":535:804   */\n  pop\n    /* \"#utility.yul\":484:804   */\n  swap2\n  swap1\n  pop\n  jump\t// out\n    /* \"#utility.yul\":810:951   */\ntag_12:\n    /* \"#utility.yul\":859:863   */\n  0x00\n    /* \"#utility.yul\":882:885   */\n  dup2\n    /* \"#utility.yul\":874:885   */\n  swap1\n  pop\n    /* \"#utility.yul\":905:908   */\n  dup2\n    /* \"#utility.yul\":902:903   */\n  0x00\n    /* \"#utility.yul\":895:909   */\n  mstore\n    /* \"#utility.yul\":939:943   */\n  0x20\n    /* \"#utility.yul\":936:937   */\n  0x00\n    /* \"#utility.yul\":926:944   */\n  keccak256\n    /* \"#utility.yul\":918:944   */\n  swap1\n  pop\n    /* \"#utility.yul\":810:951   */\n  swap2\n  swap1\n  pop\n  jump\t// out\n    /* \"#utility.yul\":957:1050   */\ntag_13:\n    /* \"#utility.yul\":994:1000   */\n  0x00\n    /* \"#utility.yul\":1041:1043   */\n  0x20\n    /* \"#utility.yul\":1036:1038   */\n  0x1f\n    /* \"#utility.yul\":1029:1034   */\n  dup4\n    /* \"#utility.yul\":1025:1039   */\n  add\n    /* \"#utility.yul\":1021:1044   */\n  div\n    /* \"#utility.yul\":1011:1044   */\n  swap1\n  pop\n    /* \"#utility.yul\":957:1050   */\n  swap2\n  swap1\n  pop\n  jump\t// out\n    /* \"#utility.yul\":1056:1163   */\ntag_14:\n    /* \"#utility.yul\":1100:1108   */\n  0x00\n    /* \"#utility.yul\":1150:1155   */\n  dup3\n    /* \"#utility.yul\":1144:1148   */\n  dup3\n    /* \"#utility.yul\":1140:1156   */\n  shl\n    /* \"#utility.yul\":1119:1156   */\n  swap1\n  pop\n    /* \"#utility.yul\":1056:1163   */\n  swap3\n  swap2\n  pop\n  pop\n  jump\t// out\n    /* \"#utility.yul\":1169:1562   */\ntag_15:\n    /* \"#utility.yul\":1238:1244   */\n  0x00\n    /* \"#utility.yul\":1288:1289   */\n  0x08\n    /* \"#utility.yul\":1276:1286   */\n  dup4\n    /* \"#utility.yul\":1272:1290   */\n  mul\n    /* \"#utility.yul\":1311:1408   */\n  tag_40\n    /* \"#utility.yul\":1341:1407   */\n  0xffffffffffffffffffffffffffffffffffffffffffffffffffffffffffffffff\n    /* \"#utility.yul\":1330:1339   */\n  dup3\n    /* \"#utility.yul\":1311:1408   */\n  tag_14\n  jump\t// in\ntag_40:\n    /* \"#utility.yul\":1429:1468   */\n  tag_41\n    /* \"#utility.yul\":1459:1467   */\n  dup7\n    /* \"#utility.yul\":1448:1457   */\n  dup4\n    /* \"#utility.yul\":1429:1468   */\n  tag_14\n  jump\t// in\ntag_41:\n    /* \"#utility.yul\":1417:1468   */\n  swap6\n  pop\n    /* \"#utility.yul\":1501:1505   */\n  dup1\n    /* \"#utility.yul\":1497:1506   */\n  not\n    /* \"#utility.yul\":1490:1495   */\n  dup5\n    /* \"#utility.yul\":1486:1507   */\n  and\n    /* \"#utility.yul\":1477:1507   */\n  swap4\n  pop\n    /* \"#utility.yul\":1550:1554   */\n  dup1\n    /* \"#utility.yul\":1540:1548   */\n  dup7\n    /* \"#utility.yul\":1536:1555   */\n  and\n    /* \"#utility.yul\":1529:1534   */\n  dup5\n    /* \"#utility.yul\":1526:1556   */\n  or\n    /* \"#utility.yul\":1516:1556   */\n  swap3\n  pop\n    /* \"#utility.yul\":1245:1562   */\n  pop\n  pop\n    /* \"#utility.yul\":1169:1562   */\n  swap4\n  swap3\n  pop\n  pop\n  pop\n  jump\t// out\n    /* \"#utility.yul\":1568:1645   */\ntag_16:\n    /* \"#utility.yul\":1605:1612   */\n  0x00\n    /* \"#utility.yul\":1634:1639   */\n  dup2\n    /* \"#utility.yul\":1623:1639   */\n  swap1\n  pop\n    /* \"#utility.yul\":1568:1645   */\n  swap2\n  swap1\n  pop\n  jump\t// out\n    /* \"#utility.yul\":1651:1711   */\ntag_17:\n    /* \"#utility.yul\":1679:1682   */\n  0x00\n    /* \"#utility.yul\":1700:1705   */\n  dup2\n    /* \"#utility.yul\":1693:1705   */\n  swap1\n  pop\n    /* \"#utility.yul\":1651:1711   */\n  swap2\n  swap1\n  pop\n  jump\t// out\n    /* \"#utility.yul\":1717:1859   */\ntag_18:\n    /* \"#utility.yul\":1767:1776   */\n  0x00\n    /* \"#utility.yul\":1800:1853   */\n  tag_45\n    /* \"#utility.yul\":1818:1852   */\n  tag_46\n    /* \"#utility.yul\":1827:1851   */\n  tag_47\n    /* \"#utility.yul\":1845:1850   */\n  dup5\n    /* \"#utility.yul\":1827:1851   */\n  tag_16\n  jump\t// in\ntag_47:\n    /* \"#utility.yul\":1818:1852   */\n  tag_17\n  jump\t// in\ntag_46:\n    /* \"#utility.yul\":1800:1853   */\n  tag_16\n  jump\t// in\ntag_45:\n    /* \"#utility.yul\":1787:1853   */\n  swap1\n  pop\n    /* \"#utility.yul\":1717:1859   */\n  swap2\n  swap1\n  pop\n  jump\t// out\n    /* \"#utility.yul\":1865:1940   */\ntag_19:\n    /* \"#utility.yul\":1908:1911   */\n  0x00\n    /* \"#utility.yul\":1929:1934   */\n  dup2\n    /* \"#utility.yul\":1922:1934   */\n  swap1\n  pop\n    /* \"#utility.yul\":1865:1940   */\n  swap2\n  swap1\n  pop\n  jump\t// out\n    /* \"#utility.yul\":1946:2215   */\ntag_20:\n    /* \"#utility.yul\":2056:2095   */\n  tag_50\n    /* \"#utility.yul\":2087:2094   */\n  dup4\n    /* \"#utility.yul\":2056:2095   */\n  tag_18\n  jump\t// in\ntag_50:\n    /* \"#utility.yul\":2117:2208   */\n  tag_51\n    /* \"#utility.yul\":2166:2207   */\n  tag_52\n    /* \"#utility.yul\":2190:2206   */\n  dup3\n    /* \"#utility.yul\":2166:2207   */\n  tag_19\n  jump\t// in\ntag_52:\n    /* \"#utility.yul\":2158:2164   */\n  dup5\n    /* \"#utility.yul\":2151:2155   */\n  dup5\n    /* \"#utility.yul\":2145:2156   */\n  sload\n    /* \"#utility.yul\":2117:2208   */\n  tag_15\n  jump\t// in\ntag_51:\n    /* \"#utility.yul\":2111:2115   */\n  dup3\n    /* \"#utility.yul\":2104:2209   */\n  sstore\n    /* \"#utility.yul\":2022:2215   */\n  pop\n    /* \"#utility.yul\":1946:2215   */\n  pop\n  pop\n  pop\n  jump\t// out\n    /* \"#utility.yul\":2221:2294   */\ntag_21:\n    /* \"#utility.yul\":2266:2269   */\n  0x00\n    /* \"#utility.yul\":2287:2288   */\n  0x00\n    /* \"#utility.yul\":2280:2288   */\n  swap1\n  pop\n    /* \"#utility.yul\":2221:2294   */\n  swap1\n  jump\t// out\n    /* \"#utility.yul\":2300:2489   */\ntag_22:\n    /* \"#utility.yul\":2377:2409   */\n  tag_55\n  tag_21\n  jump\t// in\ntag_55:\n    /* \"#utility.yul\":2418:2483   */\n  tag_56\n    /* \"#utility.yul\":2476:2482   */\n  dup2\n    /* \"#utility.yul\":2468:2474   */\n  dup5\n    /* \"#utility.yul\":2462:2466   */\n  dup5\n    /* \"#utility.yul\":2418:2483   */\n  tag_20\n  jump\t// in\ntag_56:\n    /* \"#utility.yul\":2353:2489   */\n  pop\n    /* \"#utility.yul\":2300:2489   */\n  pop\n  pop\n  jump\t// out\n    /* \"#utility.yul\":2495:2681   */\ntag_23:\n    /* \"#utility.yul\":2555:2675   */\ntag_58:\n    /* \"#utility.yul\":2572:2575   */\n  dup2\n    /* \"#utility.yul\":2565:2570   */\n  dup2\n    /* \"#utility.yul\":2562:2576   */\n  lt\n    /* \"#utility.yul\":2555:2675   */\n  iszero\n  tag_60\n  jumpi\n    /* \"#utility.yul\":2626:2665   */\n  tag_61\n    /* \"#utility.yul\":2663:2664   */\n  0x00\n    /* \"#utility.yul\":2656:2661   */\n  dup3\n    /* \"#utility.yul\":2626:2665   */\n  tag_22\n  jump\t// in\ntag_61:\n    /* \"#utility.yul\":2599:2600   */\n  0x01\n    /* \"#utility.yul\":2592:2597   */\n  dup2\n    /* \"#utility.yul\":2588:2601   */\n  add\n    /* \"#utility.yul\":2579:2601   */\n  swap1\n  pop\n    /* \"#utility.yul\":2555:2675   */\n  jump(tag_58)\ntag_60:\n    /* \"#utility.yul\":2495:2681   */\n  pop\n  pop\n  jump\t// out\n    /* \"#utility.yul\":2687:3230   */\ntag_24:\n    /* \"#utility.yul\":2788:2790   */\n  0x1f\n    /* \"#utility.yul\":2783:2786   */\n  dup3\n    /* \"#utility.yul\":2780:2791   */\n  gt\n    /* \"#utility.yul\":2777:3223   */\n  iszero\n  tag_63\n  jumpi\n    /* \"#utility.yul\":2822:2860   */\n  tag_64\n    /* \"#utility.yul\":2854:2859   */\n  dup2\n    /* \"#utility.yul\":2822:2860   */\n  tag_12\n  jump\t// in\ntag_64:\n    /* \"#utility.yul\":2906:2935   */\n  tag_65\n    /* \"#utility.yul\":2924:2934   */\n  dup5\n    /* \"#utility.yul\":2906:2935   */\n  tag_13\n  jump\t// in\ntag_65:\n    /* \"#utility.yul\":2896:2904   */\n  dup2\n    /* \"#utility.yul\":2892:2936   */\n  add\n    /* \"#utility.yul\":3089:3091   */\n  0x20\n    /* \"#utility.yul\":3077:3087   */\n  dup6\n    /* \"#utility.yul\":3074:3092   */\n  lt\n    /* \"#utility.yul\":3071:3120   */\n  iszero\n  tag_66\n  jumpi\n    /* \"#utility.yul\":3110:3118   */\n  dup2\n    /* \"#utility.yul\":3095:3118   */\n  swap1\n  pop\n    /* \"#utility.yul\":3071:3120   */\ntag_66:\n    /* \"#utility.yul\":3133:3213   */\n  tag_67\n    /* \"#utility.yul\":3189:3211   */\n  tag_68\n    /* \"#utility.yul\":3207:3210   */\n  dup6\n    /* \"#utility.yul\":3189:3211   */\n  tag_13\n  jump\t// in\ntag_68:\n    /* \"#utility.yul\":3179:3187   */\n  dup4\n    /* \"#utility.yul\":3175:3212   */\n  add\n    /* \"#utility.yul\":3162:3173   */\n  dup3\n    /* \"#utility.yul\":3133:3213   */\n  tag_23\n  jump\t// in\ntag_67:\n    /* \"#utility.yul\":2792:3223   */\n  pop\n  pop\n    /* \"#utility.yul\":2777:3223   */\ntag_63:\n    /* \"#utility.yul\":2687:3230   */\n  pop\n  pop\n  pop\n  jump\t// out\n    /* \"#utility.yul\":3236:3353   */\ntag_25:\n    /* \"#utility.yul\":3290:3298   */\n  0x00\n    /* \"#utility.yul\":3340:3345   */\n  dup3\n    /* \"#utility.yul\":3334:3338   */\n  dup3\n    /* \"#utility.yul\":3330:3346   */\n  shr\n    /* \"#utility.yul\":3309:3346   */\n  swap1\n  pop\n    /* \"#utility.yul\":3236:3353   */\n  swap3\n  swap2\n  pop\n  pop\n  jump\t// out\n    /* \"#utility.yul\":3359:3528   */\ntag_26:\n    /* \"#utility.yul\":3403:3409   */\n  0x00\n    /* \"#utility.yul\":3436:3487   */\n  tag_71\n    /* \"#utility.yul\":3484:3485   */\n  0x00\n    /* \"#utility.yul\":3480:3486   */\n  not\n    /* \"#utility.yul\":3472:3477   */\n  dup5\n    /* \"#utility.yul\":3469:3470   */\n  0x08\n    /* \"#utility.yul\":3465:3478   */\n  mul\n    /* \"#utility.yul\":3436:3487   */\n  tag_25\n  jump\t// in\ntag_71:\n    /* \"#utility.yul\":3432:3488   */\n  not\n    /* \"#utility.yul\":3517:3521   */\n  dup1\n    /* \"#utility.yul\":3511:3515   */\n  dup4\n    /* \"#utility.yul\":3507:3522   */\n  and\n    /* \"#utility.yul\":3497:3522   */\n  swap2\n  pop\n    /* \"#utility.yul\":3410:3528   */\n  pop\n    /* \"#utility.yul\":3359:3528   */\n  swap3\n  swap2\n  pop\n  pop\n  jump\t// out\n    /* \"#utility.yul\":3533:3828   */\ntag_27:\n    /* \"#utility.yul\":3609:3613   */\n  0x00\n    /* \"#utility.yul\":3755:3784   */\n  tag_73\n    /* \"#utility.yul\":3780:3783   */\n  dup4\n    /* \"#utility.yul\":3774:3778   */\n  dup4\n    /* \"#utility.yul\":3755:3784   */\n  tag_26\n  jump\t// in\ntag_73:\n    /* \"#utility.yul\":3747:3784   */\n  swap2\n  pop\n    /* \"#utility.yul\":3817:3820   */\n  dup3\n    /* \"#utility.yul\":3814:3815   */\n  0x02\n    /* \"#utility.yul\":3810:3821   */\n  mul\n    /* \"#utility.yul\":3804:3808   */\n  dup3\n    /* \"#utility.yul\":3801:3822   */\n  or\n    /* \"#utility.yul\":3793:3822   */\n  swap1\n  pop\n    /* \"#utility.yul\":3533:3828   */\n  swap3\n  swap2\n  pop\n  pop\n  jump\t// out\n    /* \"#utility.yul\":3833:5228   */\ntag_2:\n    /* \"#utility.yul\":3950:3987   */\n  tag_75\n    /* \"#utility.yul\":3983:3986   */\n  dup3\n    /* \"#utility.yul\":3950:3987   */\n  tag_8\n  jump\t// in\ntag_75:\n    /* \"#utility.yul\":4052:4070   */\n  0xffffffffffffffff\n    /* \"#utility.yul\":4044:4050   */\n  dup2\n    /* \"#utility.yul\":4041:4071   */\n  gt\n    /* \"#utility.yul\":4038:4094   */\n  iszero\n  tag_76\n  jumpi\n    /* \"#utility.yul\":4074:4092   */\n  tag_77\n  tag_9\n  jump\t// in\ntag_77:\n    /* \"#utility.yul\":4038:4094   */\ntag_76:\n    /* \"#utility.yul\":4118:4156   */\n  tag_78\n    /* \"#utility.yul\":4150:4154   */\n  dup3\n    /* \"#utility.yul\":4144:4155   */\n  sload\n    /* \"#utility.yul\":4118:4156   */\n  tag_11\n  jump\t// in\ntag_78:\n    /* \"#utility.yul\":4203:4270   */\n  tag_79\n    /* \"#utility.yul\":4263:4269   */\n  dup3\n    /* \"#utility.yul\":4255:4261   */\n  dup3\n    /* \"#utility.yul\":4249:4253   */\n  dup6\n    /* \"#utility.yul\":4203:4270   */\n  tag_24\n  jump\t// in\ntag_79:\n    /* \"#utility.yul\":4297:4298   */\n  0x00\n    /* \"#utility.yul\":4321:4325   */\n  0x20\n    /* \"#utility.yul\":4308:4325   */\n  swap1\n  pop\n    /* \"#utility.yul\":4353:4355   */\n  0x1f\n    /* \"#utility.yul\":4345:4351   */\n  dup4\n    /* \"#utility.yul\":4342:4356   */\n  gt\n    /* \"#utility.yul\":4370:4371   */\n  0x01\n    /* \"#utility.yul\":4365:4983   */\n  dup2\n  eq\n  tag_81\n  jumpi\n    /* \"#utility.yul\":5027:5028   */\n  0x00\n    /* \"#utility.yul\":5044:5050   */\n  dup5\n    /* \"#utility.yul\":5041:5118   */\n  iszero\n  tag_82\n  jumpi\n    /* \"#utility.yul\":5093:5102   */\n  dup3\n    /* \"#utility.yul\":5088:5091   */\n  dup8\n    /* \"#utility.yul\":5084:5103   */\n  add\n    /* \"#utility.yul\":5078:5104   */\n  mload\n    /* \"#utility.yul\":5069:5104   */\n  swap1\n  pop\n    /* \"#utility.yul\":5041:5118   */\ntag_82:\n    /* \"#utility.yul\":5144:5211   */\n  tag_83\n    /* \"#utility.yul\":5204:5210   */\n  dup6\n    /* \"#utility.yul\":5197:5202   */\n  dup3\n    /* \"#utility.yul\":5144:5211   */\n  tag_27\n  jump\t// in\ntag_83:\n    /* \"#utility.yul\":5138:5142   */\n  dup7\n    /* \"#utility.yul\":5131:5212   */\n  sstore\n    /* \"#utility.yul\":5000:5222   */\n  pop\n    /* \"#utility.yul\":4335:5222   */\n  jump(tag_80)\n    /* \"#utility.yul\":4365:4983   */\ntag_81:\n    /* \"#utility.yul\":4417:4421   */\n  0x1f\n    /* \"#utility.yul\":4413:4422   */\n  not\n    /* \"#utility.yul\":4405:4411   */\n  dup5\n    /* \"#utility.yul\":4401:4423   */\n  and\n    /* \"#utility.yul\":4451:4488   */\n  tag_84\n    /* \"#utility.yul\":4483:4487   */\n  dup7\n    /* \"#utility.yul\":4451:4488   */\n  tag_12\n  jump\t// in\ntag_84:\n    /* \"#utility.yul\":4510:4511   */\n  0x00\n    /* \"#utility.yul\":4524:4732   */\ntag_85:\n    /* \"#utility.yul\":4538:4545   */\n  dup3\n    /* \"#utility.yul\":4535:4536   */\n  dup2\n    /* \"#utility.yul\":4532:4546   */\n  lt\n    /* \"#utility.yul\":4524:4732   */\n  iszero\n  tag_87\n  jumpi\n    /* \"#utility.yul\":4617:4626   */\n  dup5\n    /* \"#utility.yul\":4612:4615   */\n  dup10\n    /* \"#utility.yul\":4608:4627   */\n  add\n    /* \"#utility.yul\":4602:4628   */\n  mload\n    /* \"#utility.yul\":4594:4600   */\n  dup3\n    /* \"#utility.yul\":4587:4629   */\n  sstore\n    /* \"#utility.yul\":4668:4669   */\n  0x01\n    /* \"#utility.yul\":4660:4666   */\n  dup3\n    /* \"#utility.yul\":4656:4670   */\n  add\n    /* \"#utility.yul\":4646:4670   */\n  swap2\n  pop\n    /* \"#utility.yul\":4715:4717   */\n  0x20\n    /* \"#utility.yul\":4704:4713   */\n  dup6\n    /* \"#utility.yul\":4700:4718   */\n  add\n    /* \"#utility.yul\":4687:4718   */\n  swap5\n  pop\n    /* \"#utility.yul\":4561:4565   */\n  0x20\n    /* \"#utility.yul\":4558:4559   */\n  dup2\n    /* \"#utility.yul\":4554:4566   */\n  add\n    /* \"#utility.yul\":4549:4566   */\n  swap1\n  pop\n    /* \"#utility.yul\":4524:4732   */\n  jump(tag_85)\ntag_87:\n    /* \"#utility.yul\":4760:4766   */\n  dup7\n    /* \"#utility.yul\":4751:4758   */\n  dup4\n    /* \"#utility.yul\":4748:4767   */\n  lt\n    /* \"#utility.yul\":4745:4924   */\n  iszero\n  tag_88\n  jumpi\n    /* \"#utility.yul\":4818:4827   */\n  dup5\n    /* \"#utility.yul\":4813:4816   */\n  dup10\n    /* \"#utility.yul\":4809:4828   */\n  add\n    /* \"#utility.yul\":4803:4829   */\n  mload\n    /* \"#utility.yul\":4861:4909   */\n  tag_89\n    /* \"#utility.yul\":4903:4907   */\n  0x1f\n    /* \"#utility.yul\":4895:4901   */\n  dup10\n    /* \"#utility.yul\":4891:4908   */\n  and\n    /* \"#utility.yul\":4880:4889   */\n  dup3\n    /* \"#utility.yul\":4861:4909   */\n  tag_26\n  jump\t// in\ntag_89:\n    /* \"#utility.yul\":4853:4859   */\n  dup4\n    /* \"#utility.yul\":4846:4910   */\n  sstore\n    /* \"#utility.yul\":4768:4924   */\n  pop\n    /* \"#utility.yul\":4745:4924   */\ntag_88:\n    /* \"#utility.yul\":4970:4971   */\n  0x01\n    /* \"#utility.yul\":4966:4967   */\n  0x02\n    /* \"#utility.yul\":4958:4964   */\n  dup9\n    /* \"#utility.yul\":4954:4968   */\n  mul\n    /* \"#utility.yul\":4950:4972   */\n  add\n    /* \"#utility.yul\":4944:4948   */\n  dup9\n    /* \"#utility.yul\":4937:4973   */\n  sstore\n    /* \"#utility.yul\":4372:4983   */\n  pop\n  pop\n  pop\n    /* \"#utility.yul\":4335:5222   */\ntag_80:\n  pop\n    /* \"#utility.yul\":3925:5228   */\n  pop\n  pop\n  pop\n    /* \"#utility.yul\":3833:5228   */\n  pop\n  pop\n  jump\t// out\n    /* \"contracts/10.36.ERC20token.sol\":885:2814  contract ERC20 is IERC20 {... */\ntag_7:\n  dataSize(sub_0)\n  dup1\n  dataOffset(sub_0)\n  0x00\n  codecopy\n  0x00\n  return\nstop\n\nsub_0: assembly {\n        /* \"contracts/10.36.ERC20token.sol\":885:2814  contract ERC20 is IERC20 {... */\n      mstore(0x40, 0x80)\n      callvalue\n      dup1\n      iszero\n      tag_1\n      jumpi\n      revert(0x00, 0x00)\n    tag_1:\n      pop\n      jumpi(tag_2, lt(calldatasize, 0x04))\n      shr(0xe0, calldataload(0x00))\n      dup1\n      0x55b6ed5c\n      gt\n      tag_14\n      jumpi\n      dup1\n      0x55b6ed5c\n      eq\n      tag_8\n      jumpi\n      dup1\n      0x70a08231\n      eq\n      tag_9\n      jumpi\n      dup1\n      0x95d89b41\n      eq\n      tag_10\n      jumpi\n      dup1\n      0xa9059cbb\n      eq\n      tag_11\n      jumpi\n      dup1\n      0xdd62ed3e\n      eq\n      tag_12\n      jumpi\n      dup1\n      0xf8b2cb4f\n      eq\n      tag_13\n      jumpi\n      jump(tag_2)\n    tag_14:\n      dup1\n      0x06fdde03\n      eq\n      tag_3\n      jumpi\n      dup1\n      0x095ea7b3\n      eq\n      tag_4\n      jumpi\n      dup1\n      0x18160ddd\n      eq\n      tag_5\n      jumpi\n      dup1\n      0x23b872dd\n      eq\n      tag_6\n      jumpi\n      dup1\n      0x313ce567\n      eq\n      tag_7\n      jumpi\n    tag_2:\n      revert(0x00, 0x00)\n        /* \"contracts/10.36.ERC20token.sol\":995:1027  string public name = \"TestToken\" */\n    tag_3:\n      tag_15\n      tag_16\n      jump\t// in\n    tag_15:\n      mload(0x40)\n      tag_17\n      swap2\n      swap1\n      tag_18\n      jump\t// in\n    tag_17:\n      mload(0x40)\n      dup1\n      swap2\n      sub\n      swap1\n      return\n        /* \"contracts/10.36.ERC20token.sol\":1789:2088  function approve(address spender, uint256 value)... */\n    tag_4:\n      tag_19\n      0x04\n      dup1\n      calldatasize\n      sub\n      dup2\n      add\n      swap1\n      tag_20\n      swap2\n      swap1\n      tag_21\n      jump\t// in\n    tag_20:\n      tag_22\n      jump\t// in\n    tag_19:\n      mload(0x40)\n      tag_23\n      swap2\n      swap1\n      tag_24\n      jump\t// in\n    tag_23:\n      mload(0x40)\n      dup1\n      swap2\n      sub\n      swap1\n      return\n        /* \"contracts/10.36.ERC20token.sol\":916:958  uint256 public override totalSupply = 1000 */\n    tag_5:\n      tag_25\n      tag_26\n      jump\t// in\n    tag_25:\n      mload(0x40)\n      tag_27\n      swap2\n      swap1\n      tag_28\n      jump\t// in\n    tag_27:\n      mload(0x40)\n      dup1\n      swap2\n      sub\n      swap1\n      return\n        /* \"contracts/10.36.ERC20token.sol\":2300:2808  function transferFrom(... */\n    tag_6:\n      tag_29\n      0x04\n      dup1\n      calldatasize\n      sub\n      dup2\n      add\n      swap1\n      tag_30\n      swap2\n      swap1\n      tag_31\n      jump\t// in\n    tag_30:\n      tag_32\n      jump\t// in\n    tag_29:\n      mload(0x40)\n      tag_33\n      swap2\n      swap1\n      tag_24\n      jump\t// in\n    tag_33:\n      mload(0x40)\n      dup1\n      swap2\n      sub\n      swap1\n      return\n        /* \"contracts/10.36.ERC20token.sol\":964:989  uint8 public decimals = 0 */\n    tag_7:\n      tag_34\n      tag_35\n      jump\t// in\n    tag_34:\n      mload(0x40)\n      tag_36\n      swap2\n      swap1\n      tag_37\n      jump\t// in\n    tag_36:\n      mload(0x40)\n      dup1\n      swap2\n      sub\n      swap1\n      return\n        /* \"contracts/10.36.ERC20token.sol\":1118:1183  mapping(address => mapping(address => uint256)) public allowances */\n    tag_8:\n      tag_38\n      0x04\n      dup1\n      calldatasize\n      sub\n      dup2\n      add\n      swap1\n      tag_39\n      swap2\n      swap1\n      tag_40\n      jump\t// in\n    tag_39:\n      tag_41\n      jump\t// in\n    tag_38:\n      mload(0x40)\n      tag_42\n      swap2\n      swap1\n      tag_28\n      jump\t// in\n    tag_42:\n      mload(0x40)\n      dup1\n      swap2\n      sub\n      swap1\n      return\n        /* \"contracts/10.36.ERC20token.sol\":1068:1112  mapping(address => uint256) public balanceOf */\n    tag_9:\n      tag_43\n      0x04\n      dup1\n      calldatasize\n      sub\n      dup2\n      add\n      swap1\n      tag_44\n      swap2\n      swap1\n      tag_45\n      jump\t// in\n    tag_44:\n      tag_46\n      jump\t// in\n    tag_43:\n      mload(0x40)\n      tag_47\n      swap2\n      swap1\n      tag_28\n      jump\t// in\n    tag_47:\n      mload(0x40)\n      dup1\n      swap2\n      sub\n      swap1\n      return\n        /* \"contracts/10.36.ERC20token.sol\":1033:1061  string public symbol = \"TTK\" */\n    tag_10:\n      tag_48\n      tag_49\n      jump\t// in\n    tag_48:\n      mload(0x40)\n      tag_50\n      swap2\n      swap1\n      tag_18\n      jump\t// in\n    tag_50:\n      mload(0x40)\n      dup1\n      swap2\n      sub\n      swap1\n      return\n        /* \"contracts/10.36.ERC20token.sol\":1379:1760  function transfer(address to, uint256 value)... */\n    tag_11:\n      tag_51\n      0x04\n      dup1\n      calldatasize\n      sub\n      dup2\n      add\n      swap1\n      tag_52\n      swap2\n      swap1\n      tag_21\n      jump\t// in\n    tag_52:\n      tag_53\n      jump\t// in\n    tag_51:\n      mload(0x40)\n      tag_54\n      swap2\n      swap1\n      tag_24\n      jump\t// in\n    tag_54:\n      mload(0x40)\n      dup1\n      swap2\n      sub\n      swap1\n      return\n        /* \"contracts/10.36.ERC20token.sol\":2116:2294  function allowance(address owner, address spender)... */\n    tag_12:\n      tag_55\n      0x04\n      dup1\n      calldatasize\n      sub\n      dup2\n      add\n      swap1\n      tag_56\n      swap2\n      swap1\n      tag_40\n      jump\t// in\n    tag_56:\n      tag_57\n      jump\t// in\n    tag_55:\n      mload(0x40)\n      tag_58\n      swap2\n      swap1\n      tag_28\n      jump\t// in\n    tag_58:\n      mload(0x40)\n      dup1\n      swap2\n      sub\n      swap1\n      return\n        /* \"contracts/10.36.ERC20token.sol\":1262:1373  function getBalance(address account) external view returns (uint256) {... */\n    tag_13:\n      tag_59\n      0x04\n      dup1\n      calldatasize\n      sub\n      dup2\n      add\n      swap1\n      tag_60\n      swap2\n      swap1\n      tag_45\n      jump\t// in\n    tag_60:\n      tag_61\n      jump\t// in\n    tag_59:\n      mload(0x40)\n      tag_62\n      swap2\n      swap1\n      tag_28\n      jump\t// in\n    tag_62:\n      mload(0x40)\n      dup1\n      swap2\n      sub\n      swap1\n      return\n        /* \"contracts/10.36.ERC20token.sol\":995:1027  string public name = \"TestToken\" */\n    tag_16:\n      0x02\n      dup1\n      sload\n      tag_63\n      swap1\n      tag_64\n      jump\t// in\n    tag_63:\n      dup1\n      0x1f\n      add\n      0x20\n      dup1\n      swap2\n      div\n      mul\n      0x20\n      add\n      mload(0x40)\n      swap1\n      dup2\n      add\n      0x40\n      mstore\n      dup1\n      swap3\n      swap2\n      swap1\n      dup2\n      dup2\n      mstore\n      0x20\n      add\n      dup3\n      dup1\n      sload\n      tag_65\n      swap1\n      tag_64\n      jump\t// in\n    tag_65:\n      dup1\n      iszero\n      tag_66\n      jumpi\n      dup1\n      0x1f\n      lt\n      tag_67\n      jumpi\n      0x0100\n      dup1\n      dup4\n      sload\n      div\n      mul\n      dup4\n      mstore\n      swap2\n      0x20\n      add\n      swap2\n      jump(tag_66)\n    tag_67:\n      dup3\n      add\n      swap2\n      swap1\n      0x00\n      mstore\n      keccak256(0x00, 0x20)\n      swap1\n    tag_68:\n      dup2\n      sload\n      dup2\n      mstore\n      swap1\n      0x01\n      add\n      swap1\n      0x20\n      add\n      dup1\n      dup4\n      gt\n      tag_68\n      jumpi\n      dup3\n      swap1\n      sub\n      0x1f\n      and\n      dup3\n      add\n      swap2\n    tag_66:\n      pop\n      pop\n      pop\n      pop\n      pop\n      dup2\n      jump\t// out\n        /* \"contracts/10.36.ERC20token.sol\":1789:2088  function approve(address spender, uint256 value)... */\n    tag_22:\n        /* \"contracts/10.36.ERC20token.sol\":1889:1893  bool */\n      0x00\n        /* \"contracts/10.36.ERC20token.sol\":1936:1937  0 */\n      0x00\n        /* \"contracts/10.36.ERC20token.sol\":1917:1938  spender != address(0) */\n      0xffffffffffffffffffffffffffffffffffffffff\n      and\n        /* \"contracts/10.36.ERC20token.sol\":1917:1924  spender */\n      dup4\n        /* \"contracts/10.36.ERC20token.sol\":1917:1938  spender != address(0) */\n      0xffffffffffffffffffffffffffffffffffffffff\n      and\n      sub\n        /* \"contracts/10.36.ERC20token.sol\":1909:1958  require(spender != address(0), \"Invalid address\") */\n      tag_70\n      jumpi\n      mload(0x40)\n      0x08c379a000000000000000000000000000000000000000000000000000000000\n      dup2\n      mstore\n      0x04\n      add\n      tag_71\n      swap1\n      tag_72\n      jump\t// in\n    tag_71:\n      mload(0x40)\n      dup1\n      swap2\n      sub\n      swap1\n      revert\n    tag_70:\n        /* \"contracts/10.36.ERC20token.sol\":2003:2008  value */\n      dup2\n        /* \"contracts/10.36.ERC20token.sol\":1969:1979  allowances */\n      0x05\n        /* \"contracts/10.36.ERC20token.sol\":1969:1991  allowances[msg.sender] */\n      0x00\n        /* \"contracts/10.36.ERC20token.sol\":1980:1990  msg.sender */\n      caller\n        /* \"contracts/10.36.ERC20token.sol\":1969:1991  allowances[msg.sender] */\n      0xffffffffffffffffffffffffffffffffffffffff\n      and\n      0xffffffffffffffffffffffffffffffffffffffff\n      and\n      dup2\n      mstore\n      0x20\n      add\n      swap1\n      dup2\n      mstore\n      0x20\n      add\n      0x00\n      keccak256\n        /* \"contracts/10.36.ERC20token.sol\":1969:2000  allowances[msg.sender][spender] */\n      0x00\n        /* \"contracts/10.36.ERC20token.sol\":1992:1999  spender */\n      dup6\n        /* \"contracts/10.36.ERC20token.sol\":1969:2000  allowances[msg.sender][spender] */\n      0xffffffffffffffffffffffffffffffffffffffff\n      and\n      0xffffffffffffffffffffffffffffffffffffffff\n      and\n      dup2\n      mstore\n      0x20\n      add\n      swap1\n      dup2\n      mstore\n      0x20\n      add\n      0x00\n      keccak256\n        /* \"contracts/10.36.ERC20token.sol\":1969:2008  allowances[msg.sender][spender] = value */\n      dup2\n      swap1\n      sstore\n      pop\n        /* \"contracts/10.36.ERC20token.sol\":2045:2052  spender */\n      dup3\n        /* \"contracts/10.36.ERC20token.sol\":2024:2060  Approval(msg.sender, spender, value) */\n      0xffffffffffffffffffffffffffffffffffffffff\n      and\n        /* \"contracts/10.36.ERC20token.sol\":2033:2043  msg.sender */\n      caller\n        /* \"contracts/10.36.ERC20token.sol\":2024:2060  Approval(msg.sender, spender, value) */\n      0xffffffffffffffffffffffffffffffffffffffff\n      and\n      0x8c5be1e5ebec7d5bd14f71427d1e84f3dd0314c0f7b2291e5b200ac8c7c3b925\n        /* \"contracts/10.36.ERC20token.sol\":2054:2059  value */\n      dup5\n        /* \"contracts/10.36.ERC20token.sol\":2024:2060  Approval(msg.sender, spender, value) */\n      mload(0x40)\n      tag_73\n      swap2\n      swap1\n      tag_28\n      jump\t// in\n    tag_73:\n      mload(0x40)\n      dup1\n      swap2\n      sub\n      swap1\n      log3\n        /* \"contracts/10.36.ERC20token.sol\":2077:2081  true */\n      0x01\n        /* \"contracts/10.36.ERC20token.sol\":2070:2081  return true */\n      swap1\n      pop\n        /* \"contracts/10.36.ERC20token.sol\":1789:2088  function approve(address spender, uint256 value)... */\n      swap3\n      swap2\n      pop\n      pop\n      jump\t// out\n        /* \"contracts/10.36.ERC20token.sol\":916:958  uint256 public override totalSupply = 1000 */\n    tag_26:\n      sload(0x00)\n      dup2\n      jump\t// out\n        /* \"contracts/10.36.ERC20token.sol\":2300:2808  function transferFrom(... */\n    tag_32:\n        /* \"contracts/10.36.ERC20token.sol\":2420:2424  bool */\n      0x00\n        /* \"contracts/10.36.ERC20token.sol\":2476:2481  value */\n      dup2\n        /* \"contracts/10.36.ERC20token.sol\":2444:2454  allowances */\n      0x05\n        /* \"contracts/10.36.ERC20token.sol\":2444:2460  allowances[from] */\n      0x00\n        /* \"contracts/10.36.ERC20token.sol\":2455:2459  from */\n      dup7\n        /* \"contracts/10.36.ERC20token.sol\":2444:2460  allowances[from] */\n      0xffffffffffffffffffffffffffffffffffffffff\n      and\n      0xffffffffffffffffffffffffffffffffffffffff\n      and\n      dup2\n      mstore\n      0x20\n      add\n      swap1\n      dup2\n      mstore\n      0x20\n      add\n      0x00\n      keccak256\n        /* \"contracts/10.36.ERC20token.sol\":2444:2472  allowances[from][msg.sender] */\n      0x00\n        /* \"contracts/10.36.ERC20token.sol\":2461:2471  msg.sender */\n      caller\n        /* \"contracts/10.36.ERC20token.sol\":2444:2472  allowances[from][msg.sender] */\n      0xffffffffffffffffffffffffffffffffffffffff\n      and\n      0xffffffffffffffffffffffffffffffffffffffff\n      and\n      dup2\n      mstore\n      0x20\n      add\n      swap1\n      dup2\n      mstore\n      0x20\n      add\n      0x00\n      keccak256\n      sload\n        /* \"contracts/10.36.ERC20token.sol\":2444:2481  allowances[from][msg.sender] >= value */\n      lt\n      iszero\n        /* \"contracts/10.36.ERC20token.sol\":2436:2504  require(allowances[from][msg.sender] >= value, \"Allowance exceeded\") */\n      tag_75\n      jumpi\n      mload(0x40)\n      0x08c379a000000000000000000000000000000000000000000000000000000000\n      dup2\n      mstore\n      0x04\n      add\n      tag_76\n      swap1\n      tag_77\n      jump\t// in\n    tag_76:\n      mload(0x40)\n      dup1\n      swap2\n      sub\n      swap1\n      revert\n    tag_75:\n        /* \"contracts/10.36.ERC20token.sol\":2541:2546  value */\n      dup2\n        /* \"contracts/10.36.ERC20token.sol\":2522:2531  balanceOf */\n      0x04\n        /* \"contracts/10.36.ERC20token.sol\":2522:2537  balanceOf[from] */\n      0x00\n        /* \"contracts/10.36.ERC20token.sol\":2532:2536  from */\n      dup7\n        /* \"contracts/10.36.ERC20token.sol\":2522:2537  balanceOf[from] */\n      0xffffffffffffffffffffffffffffffffffffffff\n      and\n      0xffffffffffffffffffffffffffffffffffffffff\n      and\n      dup2\n      mstore\n      0x20\n      add\n      swap1\n      dup2\n      mstore\n      0x20\n      add\n      0x00\n      keccak256\n      sload\n        /* \"contracts/10.36.ERC20token.sol\":2522:2546  balanceOf[from] >= value */\n      lt\n      iszero\n        /* \"contracts/10.36.ERC20token.sol\":2514:2571  require(balanceOf[from] >= value, \"Insufficient balance\") */\n      tag_78\n      jumpi\n      mload(0x40)\n      0x08c379a000000000000000000000000000000000000000000000000000000000\n      dup2\n      mstore\n      0x04\n      add\n      tag_79\n      swap1\n      tag_80\n      jump\t// in\n    tag_79:\n      mload(0x40)\n      dup1\n      swap2\n      sub\n      swap1\n      revert\n    tag_78:\n        /* \"contracts/10.36.ERC20token.sol\":2603:2604  0 */\n      0x00\n        /* \"contracts/10.36.ERC20token.sol\":2589:2605  to != address(0) */\n      0xffffffffffffffffffffffffffffffffffffffff\n      and\n        /* \"contracts/10.36.ERC20token.sol\":2589:2591  to */\n      dup4\n        /* \"contracts/10.36.ERC20token.sol\":2589:2605  to != address(0) */\n      0xffffffffffffffffffffffffffffffffffffffff\n      and\n      sub\n        /* \"contracts/10.36.ERC20token.sol\":2581:2625  require(to != address(0), \"Invalid address\") */\n      tag_81\n      jumpi\n      mload(0x40)\n      0x08c379a000000000000000000000000000000000000000000000000000000000\n      dup2\n      mstore\n      0x04\n      add\n      tag_82\n      swap1\n      tag_72\n      jump\t// in\n    tag_82:\n      mload(0x40)\n      dup1\n      swap2\n      sub\n      swap1\n      revert\n    tag_81:\n        /* \"contracts/10.36.ERC20token.sol\":2668:2673  value */\n      dup2\n        /* \"contracts/10.36.ERC20token.sol\":2636:2646  allowances */\n      0x05\n        /* \"contracts/10.36.ERC20token.sol\":2636:2652  allowances[from] */\n      0x00\n        /* \"contracts/10.36.ERC20token.sol\":2647:2651  from */\n      dup7\n        /* \"contracts/10.36.ERC20token.sol\":2636:2652  allowances[from] */\n      0xffffffffffffffffffffffffffffffffffffffff\n      and\n      0xffffffffffffffffffffffffffffffffffffffff\n      and\n      dup2\n      mstore\n      0x20\n      add\n      swap1\n      dup2\n      mstore\n      0x20\n      add\n      0x00\n      keccak256\n        /* \"contracts/10.36.ERC20token.sol\":2636:2664  allowances[from][msg.sender] */\n      0x00\n        /* \"contracts/10.36.ERC20token.sol\":2653:2663  msg.sender */\n      caller\n        /* \"contracts/10.36.ERC20token.sol\":2636:2664  allowances[from][msg.sender] */\n      0xffffffffffffffffffffffffffffffffffffffff\n      and\n      0xffffffffffffffffffffffffffffffffffffffff\n      and\n      dup2\n      mstore\n      0x20\n      add\n      swap1\n      dup2\n      mstore\n      0x20\n      add\n      0x00\n      keccak256\n      0x00\n        /* \"contracts/10.36.ERC20token.sol\":2636:2673  allowances[from][msg.sender] -= value */\n      dup3\n      dup3\n      sload\n      tag_83\n      swap2\n      swap1\n      tag_84\n      jump\t// in\n    tag_83:\n      swap3\n      pop\n      pop\n      dup2\n      swap1\n      sstore\n      pop\n        /* \"contracts/10.36.ERC20token.sol\":2702:2707  value */\n      dup2\n        /* \"contracts/10.36.ERC20token.sol\":2683:2692  balanceOf */\n      0x04\n        /* \"contracts/10.36.ERC20token.sol\":2683:2698  balanceOf[from] */\n      0x00\n        /* \"contracts/10.36.ERC20token.sol\":2693:2697  from */\n      dup7\n        /* \"contracts/10.36.ERC20token.sol\":2683:2698  balanceOf[from] */\n      0xffffffffffffffffffffffffffffffffffffffff\n      and\n      0xffffffffffffffffffffffffffffffffffffffff\n      and\n      dup2\n      mstore\n      0x20\n      add\n      swap1\n      dup2\n      mstore\n      0x20\n      add\n      0x00\n      keccak256\n      0x00\n        /* \"contracts/10.36.ERC20token.sol\":2683:2707  balanceOf[from] -= value */\n      dup3\n      dup3\n      sload\n      tag_85\n      swap2\n      swap1\n      tag_84\n      jump\t// in\n    tag_85:\n      swap3\n      pop\n      pop\n      dup2\n      swap1\n      sstore\n      pop\n        /* \"contracts/10.36.ERC20token.sol\":2734:2739  value */\n      dup2\n        /* \"contracts/10.36.ERC20token.sol\":2717:2726  balanceOf */\n      0x04\n        /* \"contracts/10.36.ERC20token.sol\":2717:2730  balanceOf[to] */\n      0x00\n        /* \"contracts/10.36.ERC20token.sol\":2727:2729  to */\n      dup6\n        /* \"contracts/10.36.ERC20token.sol\":2717:2730  balanceOf[to] */\n      0xffffffffffffffffffffffffffffffffffffffff\n      and\n      0xffffffffffffffffffffffffffffffffffffffff\n      and\n      dup2\n      mstore\n      0x20\n      add\n      swap1\n      dup2\n      mstore\n      0x20\n      add\n      0x00\n      keccak256\n      0x00\n        /* \"contracts/10.36.ERC20token.sol\":2717:2739  balanceOf[to] += value */\n      dup3\n      dup3\n      sload\n      tag_86\n      swap2\n      swap1\n      tag_87\n      jump\t// in\n    tag_86:\n      swap3\n      pop\n      pop\n      dup2\n      swap1\n      sstore\n      pop\n        /* \"contracts/10.36.ERC20token.sol\":2770:2772  to */\n      dup3\n        /* \"contracts/10.36.ERC20token.sol\":2755:2780  Transfer(from, to, value) */\n      0xffffffffffffffffffffffffffffffffffffffff\n      and\n        /* \"contracts/10.36.ERC20token.sol\":2764:2768  from */\n      dup5\n        /* \"contracts/10.36.ERC20token.sol\":2755:2780  Transfer(from, to, value) */\n      0xffffffffffffffffffffffffffffffffffffffff\n      and\n      0xddf252ad1be2c89b69c2b068fc378daa952ba7f163c4a11628f55a4df523b3ef\n        /* \"contracts/10.36.ERC20token.sol\":2774:2779  value */\n      dup5\n        /* \"contracts/10.36.ERC20token.sol\":2755:2780  Transfer(from, to, value) */\n      mload(0x40)\n      tag_88\n      swap2\n      swap1\n      tag_28\n      jump\t// in\n    tag_88:\n      mload(0x40)\n      dup1\n      swap2\n      sub\n      swap1\n      log3\n        /* \"contracts/10.36.ERC20token.sol\":2797:2801  true */\n      0x01\n        /* \"contracts/10.36.ERC20token.sol\":2790:2801  return true */\n      swap1\n      pop\n        /* \"contracts/10.36.ERC20token.sol\":2300:2808  function transferFrom(... */\n      swap4\n      swap3\n      pop\n      pop\n      pop\n      jump\t// out\n        /* \"contracts/10.36.ERC20token.sol\":964:989  uint8 public decimals = 0 */\n    tag_35:\n      0x01\n      0x00\n      swap1\n      sload\n      swap1\n      0x0100\n      exp\n      swap1\n      div\n      0xff\n      and\n      dup2\n      jump\t// out\n        /* \"contracts/10.36.ERC20token.sol\":1118:1183  mapping(address => mapping(address => uint256)) public allowances */\n    tag_41:\n      mstore(0x20, 0x05)\n      dup2\n      0x00\n      mstore\n      mstore(0x20, keccak256(0x00, 0x40))\n      dup1\n      0x00\n      mstore\n      keccak256(0x00, 0x40)\n      0x00\n      swap2\n      pop\n      swap2\n      pop\n      pop\n      sload\n      dup2\n      jump\t// out\n        /* \"contracts/10.36.ERC20token.sol\":1068:1112  mapping(address => uint256) public balanceOf */\n    tag_46:\n      mstore(0x20, 0x04)\n      dup1\n      0x00\n      mstore\n      keccak256(0x00, 0x40)\n      0x00\n      swap2\n      pop\n      swap1\n      pop\n      sload\n      dup2\n      jump\t// out\n        /* \"contracts/10.36.ERC20token.sol\":1033:1061  string public symbol = \"TTK\" */\n    tag_49:\n      0x03\n      dup1\n      sload\n      tag_89\n      swap1\n      tag_64\n      jump\t// in\n    tag_89:\n      dup1\n      0x1f\n      add\n      0x20\n      dup1\n      swap2\n      div\n      mul\n      0x20\n      add\n      mload(0x40)\n      swap1\n      dup2\n      add\n      0x40\n      mstore\n      dup1\n      swap3\n      swap2\n      swap1\n      dup2\n      dup2\n      mstore\n      0x20\n      add\n      dup3\n      dup1\n      sload\n      tag_90\n      swap1\n      tag_64\n      jump\t// in\n    tag_90:\n      dup1\n      iszero\n      tag_91\n      jumpi\n      dup1\n      0x1f\n      lt\n      tag_92\n      jumpi\n      0x0100\n      dup1\n      dup4\n      sload\n      div\n      mul\n      dup4\n      mstore\n      swap2\n      0x20\n      add\n      swap2\n      jump(tag_91)\n    tag_92:\n      dup3\n      add\n      swap2\n      swap1\n      0x00\n      mstore\n      keccak256(0x00, 0x20)\n      swap1\n    tag_93:\n      dup2\n      sload\n      dup2\n      mstore\n      swap1\n      0x01\n      add\n      swap1\n      0x20\n      add\n      dup1\n      dup4\n      gt\n      tag_93\n      jumpi\n      dup3\n      swap1\n      sub\n      0x1f\n      and\n      dup3\n      add\n      swap2\n    tag_91:\n      pop\n      pop\n      pop\n      pop\n      pop\n      dup2\n      jump\t// out\n        /* \"contracts/10.36.ERC20token.sol\":1379:1760  function transfer(address to, uint256 value)... */\n    tag_53:\n        /* \"contracts/10.36.ERC20token.sol\":1475:1479  bool */\n      0x00\n        /* \"contracts/10.36.ERC20token.sol\":1528:1533  value */\n      dup2\n        /* \"contracts/10.36.ERC20token.sol\":1503:1512  balanceOf */\n      0x04\n        /* \"contracts/10.36.ERC20token.sol\":1503:1524  balanceOf[msg.sender] */\n      0x00\n        /* \"contracts/10.36.ERC20token.sol\":1513:1523  msg.sender */\n      caller\n        /* \"contracts/10.36.ERC20token.sol\":1503:1524  balanceOf[msg.sender] */\n      0xffffffffffffffffffffffffffffffffffffffff\n      and\n      0xffffffffffffffffffffffffffffffffffffffff\n      and\n      dup2\n      mstore\n      0x20\n      add\n      swap1\n      dup2\n      mstore\n      0x20\n      add\n      0x00\n      keccak256\n      sload\n        /* \"contracts/10.36.ERC20token.sol\":1503:1533  balanceOf[msg.sender] >= value */\n      lt\n      iszero\n        /* \"contracts/10.36.ERC20token.sol\":1495:1558  require(balanceOf[msg.sender] >= value, \"Insufficient balance\") */\n      tag_95\n      jumpi\n      mload(0x40)\n      0x08c379a000000000000000000000000000000000000000000000000000000000\n      dup2\n      mstore\n      0x04\n      add\n      tag_96\n      swap1\n      tag_80\n      jump\t// in\n    tag_96:\n      mload(0x40)\n      dup1\n      swap2\n      sub\n      swap1\n      revert\n    tag_95:\n        /* \"contracts/10.36.ERC20token.sol\":1590:1591  0 */\n      0x00\n        /* \"contracts/10.36.ERC20token.sol\":1576:1592  to != address(0) */\n      0xffffffffffffffffffffffffffffffffffffffff\n      and\n        /* \"contracts/10.36.ERC20token.sol\":1576:1578  to */\n      dup4\n        /* \"contracts/10.36.ERC20token.sol\":1576:1592  to != address(0) */\n      0xffffffffffffffffffffffffffffffffffffffff\n      and\n      sub\n        /* \"contracts/10.36.ERC20token.sol\":1568:1612  require(to != address(0), \"Invalid address\") */\n      tag_97\n      jumpi\n      mload(0x40)\n      0x08c379a000000000000000000000000000000000000000000000000000000000\n      dup2\n      mstore\n      0x04\n      add\n      tag_98\n      swap1\n      tag_72\n      jump\t// in\n    tag_98:\n      mload(0x40)\n      dup1\n      swap2\n      sub\n      swap1\n      revert\n    tag_97:\n        /* \"contracts/10.36.ERC20token.sol\":1648:1653  value */\n      dup2\n        /* \"contracts/10.36.ERC20token.sol\":1623:1632  balanceOf */\n      0x04\n        /* \"contracts/10.36.ERC20token.sol\":1623:1644  balanceOf[msg.sender] */\n      0x00\n        /* \"contracts/10.36.ERC20token.sol\":1633:1643  msg.sender */\n      caller\n        /* \"contracts/10.36.ERC20token.sol\":1623:1644  balanceOf[msg.sender] */\n      0xffffffffffffffffffffffffffffffffffffffff\n      and\n      0xffffffffffffffffffffffffffffffffffffffff\n      and\n      dup2\n      mstore\n      0x20\n      add\n      swap1\n      dup2\n      mstore\n      0x20\n      add\n      0x00\n      keccak256\n      0x00\n        /* \"contracts/10.36.ERC20token.sol\":1623:1653  balanceOf[msg.sender] -= value */\n      dup3\n      dup3\n      sload\n      tag_99\n      swap2\n      swap1\n      tag_84\n      jump\t// in\n    tag_99:\n      swap3\n      pop\n      pop\n      dup2\n      swap1\n      sstore\n      pop\n        /* \"contracts/10.36.ERC20token.sol\":1680:1685  value */\n      dup2\n        /* \"contracts/10.36.ERC20token.sol\":1663:1672  balanceOf */\n      0x04\n        /* \"contracts/10.36.ERC20token.sol\":1663:1676  balanceOf[to] */\n      0x00\n        /* \"contracts/10.36.ERC20token.sol\":1673:1675  to */\n      dup6\n        /* \"contracts/10.36.ERC20token.sol\":1663:1676  balanceOf[to] */\n      0xffffffffffffffffffffffffffffffffffffffff\n      and\n      0xffffffffffffffffffffffffffffffffffffffff\n      and\n      dup2\n      mstore\n      0x20\n      add\n      swap1\n      dup2\n      mstore\n      0x20\n      add\n      0x00\n      keccak256\n      0x00\n        /* \"contracts/10.36.ERC20token.sol\":1663:1685  balanceOf[to] += value */\n      dup3\n      dup3\n      sload\n      tag_100\n      swap2\n      swap1\n      tag_87\n      jump\t// in\n    tag_100:\n      swap3\n      pop\n      pop\n      dup2\n      swap1\n      sstore\n      pop\n        /* \"contracts/10.36.ERC20token.sol\":1722:1724  to */\n      dup3\n        /* \"contracts/10.36.ERC20token.sol\":1701:1732  Transfer(msg.sender, to, value) */\n      0xffffffffffffffffffffffffffffffffffffffff\n      and\n        /* \"contracts/10.36.ERC20token.sol\":1710:1720  msg.sender */\n      caller\n        /* \"contracts/10.36.ERC20token.sol\":1701:1732  Transfer(msg.sender, to, value) */\n      0xffffffffffffffffffffffffffffffffffffffff\n      and\n      0xddf252ad1be2c89b69c2b068fc378daa952ba7f163c4a11628f55a4df523b3ef\n        /* \"contracts/10.36.ERC20token.sol\":1726:1731  value */\n      dup5\n        /* \"contracts/10.36.ERC20token.sol\":1701:1732  Transfer(msg.sender, to, value) */\n      mload(0x40)\n      tag_101\n      swap2\n      swap1\n      tag_28\n      jump\t// in\n    tag_101:\n      mload(0x40)\n      dup1\n      swap2\n      sub\n      swap1\n      log3\n        /* \"contracts/10.36.ERC20token.sol\":1749:1753  true */\n      0x01\n        /* \"contracts/10.36.ERC20token.sol\":1742:1753  return true */\n      swap1\n      pop\n        /* \"contracts/10.36.ERC20token.sol\":1379:1760  function transfer(address to, uint256 value)... */\n      swap3\n      swap2\n      pop\n      pop\n      jump\t// out\n        /* \"contracts/10.36.ERC20token.sol\":2116:2294  function allowance(address owner, address spender)... */\n    tag_57:\n        /* \"contracts/10.36.ERC20token.sol\":2231:2238  uint256 */\n      0x00\n        /* \"contracts/10.36.ERC20token.sol\":2261:2271  allowances */\n      0x05\n        /* \"contracts/10.36.ERC20token.sol\":2261:2278  allowances[owner] */\n      0x00\n        /* \"contracts/10.36.ERC20token.sol\":2272:2277  owner */\n      dup5\n        /* \"contracts/10.36.ERC20token.sol\":2261:2278  allowances[owner] */\n      0xffffffffffffffffffffffffffffffffffffffff\n      and\n      0xffffffffffffffffffffffffffffffffffffffff\n      and\n      dup2\n      mstore\n      0x20\n      add\n      swap1\n      dup2\n      mstore\n      0x20\n      add\n      0x00\n      keccak256\n        /* \"contracts/10.36.ERC20token.sol\":2261:2287  allowances[owner][spender] */\n      0x00\n        /* \"contracts/10.36.ERC20token.sol\":2279:2286  spender */\n      dup4\n        /* \"contracts/10.36.ERC20token.sol\":2261:2287  allowances[owner][spender] */\n      0xffffffffffffffffffffffffffffffffffffffff\n      and\n      0xffffffffffffffffffffffffffffffffffffffff\n      and\n      dup2\n      mstore\n      0x20\n      add\n      swap1\n      dup2\n      mstore\n      0x20\n      add\n      0x00\n      keccak256\n      sload\n        /* \"contracts/10.36.ERC20token.sol\":2254:2287  return allowances[owner][spender] */\n      swap1\n      pop\n        /* \"contracts/10.36.ERC20token.sol\":2116:2294  function allowance(address owner, address spender)... */\n      swap3\n      swap2\n      pop\n      pop\n      jump\t// out\n        /* \"contracts/10.36.ERC20token.sol\":1262:1373  function getBalance(address account) external view returns (uint256) {... */\n    tag_61:\n        /* \"contracts/10.36.ERC20token.sol\":1322:1329  uint256 */\n      0x00\n        /* \"contracts/10.36.ERC20token.sol\":1348:1357  balanceOf */\n      0x04\n        /* \"contracts/10.36.ERC20token.sol\":1348:1366  balanceOf[account] */\n      0x00\n        /* \"contracts/10.36.ERC20token.sol\":1358:1365  account */\n      dup4\n        /* \"contracts/10.36.ERC20token.sol\":1348:1366  balanceOf[account] */\n      0xffffffffffffffffffffffffffffffffffffffff\n      and\n      0xffffffffffffffffffffffffffffffffffffffff\n      and\n      dup2\n      mstore\n      0x20\n      add\n      swap1\n      dup2\n      mstore\n      0x20\n      add\n      0x00\n      keccak256\n      sload\n        /* \"contracts/10.36.ERC20token.sol\":1341:1366  return balanceOf[account] */\n      swap1\n      pop\n        /* \"contracts/10.36.ERC20token.sol\":1262:1373  function getBalance(address account) external view returns (uint256) {... */\n      swap2\n      swap1\n      pop\n      jump\t// out\n        /* \"#utility.yul\":7:106   */\n    tag_104:\n        /* \"#utility.yul\":59:65   */\n      0x00\n        /* \"#utility.yul\":93:98   */\n      dup2\n        /* \"#utility.yul\":87:99   */\n      mload\n        /* \"#utility.yul\":77:99   */\n      swap1\n      pop\n        /* \"#utility.yul\":7:106   */\n      swap2\n      swap1\n      pop\n      jump\t// out\n        /* \"#utility.yul\":112:281   */\n    tag_105:\n        /* \"#utility.yul\":196:207   */\n      0x00\n        /* \"#utility.yul\":230:236   */\n      dup3\n        /* \"#utility.yul\":225:228   */\n      dup3\n        /* \"#utility.yul\":218:237   */\n      mstore\n        /* \"#utility.yul\":270:274   */\n      0x20\n        /* \"#utility.yul\":265:268   */\n      dup3\n        /* \"#utility.yul\":261:275   */\n      add\n        /* \"#utility.yul\":246:275   */\n      swap1\n      pop\n        /* \"#utility.yul\":112:281   */\n      swap3\n      swap2\n      pop\n      pop\n      jump\t// out\n        /* \"#utility.yul\":287:426   */\n    tag_106:\n        /* \"#utility.yul\":376:382   */\n      dup3\n        /* \"#utility.yul\":371:374   */\n      dup2\n        /* \"#utility.yul\":366:369   */\n      dup4\n        /* \"#utility.yul\":360:383   */\n      mcopy\n        /* \"#utility.yul\":417:418   */\n      0x00\n        /* \"#utility.yul\":408:414   */\n      dup4\n        /* \"#utility.yul\":403:406   */\n      dup4\n        /* \"#utility.yul\":399:415   */\n      add\n        /* \"#utility.yul\":392:419   */\n      mstore\n        /* \"#utility.yul\":287:426   */\n      pop\n      pop\n      pop\n      jump\t// out\n        /* \"#utility.yul\":432:534   */\n    tag_107:\n        /* \"#utility.yul\":473:479   */\n      0x00\n        /* \"#utility.yul\":524:526   */\n      0x1f\n        /* \"#utility.yul\":520:527   */\n      not\n        /* \"#utility.yul\":515:517   */\n      0x1f\n        /* \"#utility.yul\":508:513   */\n      dup4\n        /* \"#utility.yul\":504:518   */\n      add\n        /* \"#utility.yul\":500:528   */\n      and\n        /* \"#utility.yul\":490:528   */\n      swap1\n      pop\n        /* \"#utility.yul\":432:534   */\n      swap2\n      swap1\n      pop\n      jump\t// out\n        /* \"#utility.yul\":540:917   */\n    tag_108:\n        /* \"#utility.yul\":628:631   */\n      0x00\n        /* \"#utility.yul\":656:695   */\n      tag_138\n        /* \"#utility.yul\":689:694   */\n      dup3\n        /* \"#utility.yul\":656:695   */\n      tag_104\n      jump\t// in\n    tag_138:\n        /* \"#utility.yul\":711:782   */\n      tag_139\n        /* \"#utility.yul\":775:781   */\n      dup2\n        /* \"#utility.yul\":770:773   */\n      dup6\n        /* \"#utility.yul\":711:782   */\n      tag_105\n      jump\t// in\n    tag_139:\n        /* \"#utility.yul\":704:782   */\n      swap4\n      pop\n        /* \"#utility.yul\":791:856   */\n      tag_140\n        /* \"#utility.yul\":849:855   */\n      dup2\n        /* \"#utility.yul\":844:847   */\n      dup6\n        /* \"#utility.yul\":837:841   */\n      0x20\n        /* \"#utility.yul\":830:835   */\n      dup7\n        /* \"#utility.yul\":826:842   */\n      add\n        /* \"#utility.yul\":791:856   */\n      tag_106\n      jump\t// in\n    tag_140:\n        /* \"#utility.yul\":881:910   */\n      tag_141\n        /* \"#utility.yul\":903:909   */\n      dup2\n        /* \"#utility.yul\":881:910   */\n      tag_107\n      jump\t// in\n    tag_141:\n        /* \"#utility.yul\":876:879   */\n      dup5\n        /* \"#utility.yul\":872:911   */\n      add\n        /* \"#utility.yul\":865:911   */\n      swap2\n      pop\n        /* \"#utility.yul\":632:917   */\n      pop\n        /* \"#utility.yul\":540:917   */\n      swap3\n      swap2\n      pop\n      pop\n      jump\t// out\n        /* \"#utility.yul\":923:1236   */\n    tag_18:\n        /* \"#utility.yul\":1036:1040   */\n      0x00\n        /* \"#utility.yul\":1074:1076   */\n      0x20\n        /* \"#utility.yul\":1063:1072   */\n      dup3\n        /* \"#utility.yul\":1059:1077   */\n      add\n        /* \"#utility.yul\":1051:1077   */\n      swap1\n      pop\n        /* \"#utility.yul\":1123:1132   */\n      dup2\n        /* \"#utility.yul\":1117:1121   */\n      dup2\n        /* \"#utility.yul\":1113:1133   */\n      sub\n        /* \"#utility.yul\":1109:1110   */\n      0x00\n        /* \"#utility.yul\":1098:1107   */\n      dup4\n        /* \"#utility.yul\":1094:1111   */\n      add\n        /* \"#utility.yul\":1087:1134   */\n      mstore\n        /* \"#utility.yul\":1151:1229   */\n      tag_143\n        /* \"#utility.yul\":1224:1228   */\n      dup2\n        /* \"#utility.yul\":1215:1221   */\n      dup5\n        /* \"#utility.yul\":1151:1229   */\n      tag_108\n      jump\t// in\n    tag_143:\n        /* \"#utility.yul\":1143:1229   */\n      swap1\n      pop\n        /* \"#utility.yul\":923:1236   */\n      swap3\n      swap2\n      pop\n      pop\n      jump\t// out\n        /* \"#utility.yul\":1323:1440   */\n    tag_110:\n        /* \"#utility.yul\":1432:1433   */\n      0x00\n        /* \"#utility.yul\":1429:1430   */\n      0x00\n        /* \"#utility.yul\":1422:1434   */\n      revert\n        /* \"#utility.yul\":1569:1695   */\n    tag_112:\n        /* \"#utility.yul\":1606:1613   */\n      0x00\n        /* \"#utility.yul\":1646:1688   */\n      0xffffffffffffffffffffffffffffffffffffffff\n        /* \"#utility.yul\":1639:1644   */\n      dup3\n        /* \"#utility.yul\":1635:1689   */\n      and\n        /* \"#utility.yul\":1624:1689   */\n      swap1\n      pop\n        /* \"#utility.yul\":1569:1695   */\n      swap2\n      swap1\n      pop\n      jump\t// out\n        /* \"#utility.yul\":1701:1797   */\n    tag_113:\n        /* \"#utility.yul\":1738:1745   */\n      0x00\n        /* \"#utility.yul\":1767:1791   */\n      tag_149\n        /* \"#utility.yul\":1785:1790   */\n      dup3\n        /* \"#utility.yul\":1767:1791   */\n      tag_112\n      jump\t// in\n    tag_149:\n        /* \"#utility.yul\":1756:1791   */\n      swap1\n      pop\n        /* \"#utility.yul\":1701:1797   */\n      swap2\n      swap1\n      pop\n      jump\t// out\n        /* \"#utility.yul\":1803:1925   */\n    tag_114:\n        /* \"#utility.yul\":1876:1900   */\n      tag_151\n        /* \"#utility.yul\":1894:1899   */\n      dup2\n        /* \"#utility.yul\":1876:1900   */\n      tag_113\n      jump\t// in\n    tag_151:\n        /* \"#utility.yul\":1869:1874   */\n      dup2\n        /* \"#utility.yul\":1866:1901   */\n      eq\n        /* \"#utility.yul\":1856:1919   */\n      tag_152\n      jumpi\n        /* \"#utility.yul\":1915:1916   */\n      0x00\n        /* \"#utility.yul\":1912:1913   */\n      0x00\n        /* \"#utility.yul\":1905:1917   */\n      revert\n        /* \"#utility.yul\":1856:1919   */\n    tag_152:\n        /* \"#utility.yul\":1803:1925   */\n      pop\n      jump\t// out\n        /* \"#utility.yul\":1931:2070   */\n    tag_115:\n        /* \"#utility.yul\":1977:1982   */\n      0x00\n        /* \"#utility.yul\":2015:2021   */\n      dup2\n        /* \"#utility.yul\":2002:2022   */\n      calldataload\n        /* \"#utility.yul\":1993:2022   */\n      swap1\n      pop\n        /* \"#utility.yul\":2031:2064   */\n      tag_154\n        /* \"#utility.yul\":2058:2063   */\n      dup2\n        /* \"#utility.yul\":2031:2064   */\n      tag_114\n      jump\t// in\n    tag_154:\n        /* \"#utility.yul\":1931:2070   */\n      swap3\n      swap2\n      pop\n      pop\n      jump\t// out\n        /* \"#utility.yul\":2076:2153   */\n    tag_116:\n        /* \"#utility.yul\":2113:2120   */\n      0x00\n        /* \"#utility.yul\":2142:2147   */\n      dup2\n        /* \"#utility.yul\":2131:2147   */\n      swap1\n      pop\n        /* \"#utility.yul\":2076:2153   */\n      swap2\n      swap1\n      pop\n      jump\t// out\n        /* \"#utility.yul\":2159:2281   */\n    tag_117:\n        /* \"#utility.yul\":2232:2256   */\n      tag_157\n        /* \"#utility.yul\":2250:2255   */\n      dup2\n        /* \"#utility.yul\":2232:2256   */\n      tag_116\n      jump\t// in\n    tag_157:\n        /* \"#utility.yul\":2225:2230   */\n      dup2\n        /* \"#utility.yul\":2222:2257   */\n      eq\n        /* \"#utility.yul\":2212:2275   */\n      tag_158\n      jumpi\n        /* \"#utility.yul\":2271:2272   */\n      0x00\n        /* \"#utility.yul\":2268:2269   */\n      0x00\n        /* \"#utility.yul\":2261:2273   */\n      revert\n        /* \"#utility.yul\":2212:2275   */\n    tag_158:\n        /* \"#utility.yul\":2159:2281   */\n      pop\n      jump\t// out\n        /* \"#utility.yul\":2287:2426   */\n    tag_118:\n        /* \"#utility.yul\":2333:2338   */\n      0x00\n        /* \"#utility.yul\":2371:2377   */\n      dup2\n        /* \"#utility.yul\":2358:2378   */\n      calldataload\n        /* \"#utility.yul\":2349:2378   */\n      swap1\n      pop\n        /* \"#utility.yul\":2387:2420   */\n      tag_160\n        /* \"#utility.yul\":2414:2419   */\n      dup2\n        /* \"#utility.yul\":2387:2420   */\n      tag_117\n      jump\t// in\n    tag_160:\n        /* \"#utility.yul\":2287:2426   */\n      swap3\n      swap2\n      pop\n      pop\n      jump\t// out\n        /* \"#utility.yul\":2432:2906   */\n    tag_21:\n        /* \"#utility.yul\":2500:2506   */\n      0x00\n        /* \"#utility.yul\":2508:2514   */\n      0x00\n        /* \"#utility.yul\":2557:2559   */\n      0x40\n        /* \"#utility.yul\":2545:2554   */\n      dup4\n        /* \"#utility.yul\":2536:2543   */\n      dup6\n        /* \"#utility.yul\":2532:2555   */\n      sub\n        /* \"#utility.yul\":2528:2560   */\n      slt\n        /* \"#utility.yul\":2525:2644   */\n      iszero\n      tag_162\n      jumpi\n        /* \"#utility.yul\":2563:2642   */\n      tag_163\n      tag_110\n      jump\t// in\n    tag_163:\n        /* \"#utility.yul\":2525:2644   */\n    tag_162:\n        /* \"#utility.yul\":2683:2684   */\n      0x00\n        /* \"#utility.yul\":2708:2761   */\n      tag_164\n        /* \"#utility.yul\":2753:2760   */\n      dup6\n        /* \"#utility.yul\":2744:2750   */\n      dup3\n        /* \"#utility.yul\":2733:2742   */\n      dup7\n        /* \"#utility.yul\":2729:2751   */\n      add\n        /* \"#utility.yul\":2708:2761   */\n      tag_115\n      jump\t// in\n    tag_164:\n        /* \"#utility.yul\":2698:2761   */\n      swap3\n      pop\n        /* \"#utility.yul\":2654:2771   */\n      pop\n        /* \"#utility.yul\":2810:2812   */\n      0x20\n        /* \"#utility.yul\":2836:2889   */\n      tag_165\n        /* \"#utility.yul\":2881:2888   */\n      dup6\n        /* \"#utility.yul\":2872:2878   */\n      dup3\n        /* \"#utility.yul\":2861:2870   */\n      dup7\n        /* \"#utility.yul\":2857:2879   */\n      add\n        /* \"#utility.yul\":2836:2889   */\n      tag_118\n      jump\t// in\n    tag_165:\n        /* \"#utility.yul\":2826:2889   */\n      swap2\n      pop\n        /* \"#utility.yul\":2781:2899   */\n      pop\n        /* \"#utility.yul\":2432:2906   */\n      swap3\n      pop\n      swap3\n      swap1\n      pop\n      jump\t// out\n        /* \"#utility.yul\":2912:3002   */\n    tag_119:\n        /* \"#utility.yul\":2946:2953   */\n      0x00\n        /* \"#utility.yul\":2989:2994   */\n      dup2\n        /* \"#utility.yul\":2982:2995   */\n      iszero\n        /* \"#utility.yul\":2975:2996   */\n      iszero\n        /* \"#utility.yul\":2964:2996   */\n      swap1\n      pop\n        /* \"#utility.yul\":2912:3002   */\n      swap2\n      swap1\n      pop\n      jump\t// out\n        /* \"#utility.yul\":3008:3117   */\n    tag_120:\n        /* \"#utility.yul\":3089:3110   */\n      tag_168\n        /* \"#utility.yul\":3104:3109   */\n      dup2\n        /* \"#utility.yul\":3089:3110   */\n      tag_119\n      jump\t// in\n    tag_168:\n        /* \"#utility.yul\":3084:3087   */\n      dup3\n        /* \"#utility.yul\":3077:3111   */\n      mstore\n        /* \"#utility.yul\":3008:3117   */\n      pop\n      pop\n      jump\t// out\n        /* \"#utility.yul\":3123:3333   */\n    tag_24:\n        /* \"#utility.yul\":3210:3214   */\n      0x00\n        /* \"#utility.yul\":3248:3250   */\n      0x20\n        /* \"#utility.yul\":3237:3246   */\n      dup3\n        /* \"#utility.yul\":3233:3251   */\n      add\n        /* \"#utility.yul\":3225:3251   */\n      swap1\n      pop\n        /* \"#utility.yul\":3261:3326   */\n      tag_170\n        /* \"#utility.yul\":3323:3324   */\n      0x00\n        /* \"#utility.yul\":3312:3321   */\n      dup4\n        /* \"#utility.yul\":3308:3325   */\n      add\n        /* \"#utility.yul\":3299:3305   */\n      dup5\n        /* \"#utility.yul\":3261:3326   */\n      tag_120\n      jump\t// in\n    tag_170:\n        /* \"#utility.yul\":3123:3333   */\n      swap3\n      swap2\n      pop\n      pop\n      jump\t// out\n        /* \"#utility.yul\":3339:3457   */\n    tag_121:\n        /* \"#utility.yul\":3426:3450   */\n      tag_172\n        /* \"#utility.yul\":3444:3449   */\n      dup2\n        /* \"#utility.yul\":3426:3450   */\n      tag_116\n      jump\t// in\n    tag_172:\n        /* \"#utility.yul\":3421:3424   */\n      dup3\n        /* \"#utility.yul\":3414:3451   */\n      mstore\n        /* \"#utility.yul\":3339:3457   */\n      pop\n      pop\n      jump\t// out\n        /* \"#utility.yul\":3463:3685   */\n    tag_28:\n        /* \"#utility.yul\":3556:3560   */\n      0x00\n        /* \"#utility.yul\":3594:3596   */\n      0x20\n        /* \"#utility.yul\":3583:3592   */\n      dup3\n        /* \"#utility.yul\":3579:3597   */\n      add\n        /* \"#utility.yul\":3571:3597   */\n      swap1\n      pop\n        /* \"#utility.yul\":3607:3678   */\n      tag_174\n        /* \"#utility.yul\":3675:3676   */\n      0x00\n        /* \"#utility.yul\":3664:3673   */\n      dup4\n        /* \"#utility.yul\":3660:3677   */\n      add\n        /* \"#utility.yul\":3651:3657   */\n      dup5\n        /* \"#utility.yul\":3607:3678   */\n      tag_121\n      jump\t// in\n    tag_174:\n        /* \"#utility.yul\":3463:3685   */\n      swap3\n      swap2\n      pop\n      pop\n      jump\t// out\n        /* \"#utility.yul\":3691:4310   */\n    tag_31:\n        /* \"#utility.yul\":3768:3774   */\n      0x00\n        /* \"#utility.yul\":3776:3782   */\n      0x00\n        /* \"#utility.yul\":3784:3790   */\n      0x00\n        /* \"#utility.yul\":3833:3835   */\n      0x60\n        /* \"#utility.yul\":3821:3830   */\n      dup5\n        /* \"#utility.yul\":3812:3819   */\n      dup7\n        /* \"#utility.yul\":3808:3831   */\n      sub\n        /* \"#utility.yul\":3804:3836   */\n      slt\n        /* \"#utility.yul\":3801:3920   */\n      iszero\n      tag_176\n      jumpi\n        /* \"#utility.yul\":3839:3918   */\n      tag_177\n      tag_110\n      jump\t// in\n    tag_177:\n        /* \"#utility.yul\":3801:3920   */\n    tag_176:\n        /* \"#utility.yul\":3959:3960   */\n      0x00\n        /* \"#utility.yul\":3984:4037   */\n      tag_178\n        /* \"#utility.yul\":4029:4036   */\n      dup7\n        /* \"#utility.yul\":4020:4026   */\n      dup3\n        /* \"#utility.yul\":4009:4018   */\n      dup8\n        /* \"#utility.yul\":4005:4027   */\n      add\n        /* \"#utility.yul\":3984:4037   */\n      tag_115\n      jump\t// in\n    tag_178:\n        /* \"#utility.yul\":3974:4037   */\n      swap4\n      pop\n        /* \"#utility.yul\":3930:4047   */\n      pop\n        /* \"#utility.yul\":4086:4088   */\n      0x20\n        /* \"#utility.yul\":4112:4165   */\n      tag_179\n        /* \"#utility.yul\":4157:4164   */\n      dup7\n        /* \"#utility.yul\":4148:4154   */\n      dup3\n        /* \"#utility.yul\":4137:4146   */\n      dup8\n        /* \"#utility.yul\":4133:4155   */\n      add\n        /* \"#utility.yul\":4112:4165   */\n      tag_115\n      jump\t// in\n    tag_179:\n        /* \"#utility.yul\":4102:4165   */\n      swap3\n      pop\n        /* \"#utility.yul\":4057:4175   */\n      pop\n        /* \"#utility.yul\":4214:4216   */\n      0x40\n        /* \"#utility.yul\":4240:4293   */\n      tag_180\n        /* \"#utility.yul\":4285:4292   */\n      dup7\n        /* \"#utility.yul\":4276:4282   */\n      dup3\n        /* \"#utility.yul\":4265:4274   */\n      dup8\n        /* \"#utility.yul\":4261:4283   */\n      add\n        /* \"#utility.yul\":4240:4293   */\n      tag_118\n      jump\t// in\n    tag_180:\n        /* \"#utility.yul\":4230:4293   */\n      swap2\n      pop\n        /* \"#utility.yul\":4185:4303   */\n      pop\n        /* \"#utility.yul\":3691:4310   */\n      swap3\n      pop\n      swap3\n      pop\n      swap3\n      jump\t// out\n        /* \"#utility.yul\":4316:4402   */\n    tag_122:\n        /* \"#utility.yul\":4351:4358   */\n      0x00\n        /* \"#utility.yul\":4391:4395   */\n      0xff\n        /* \"#utility.yul\":4384:4389   */\n      dup3\n        /* \"#utility.yul\":4380:4396   */\n      and\n        /* \"#utility.yul\":4369:4396   */\n      swap1\n      pop\n        /* \"#utility.yul\":4316:4402   */\n      swap2\n      swap1\n      pop\n      jump\t// out\n        /* \"#utility.yul\":4408:4520   */\n    tag_123:\n        /* \"#utility.yul\":4491:4513   */\n      tag_183\n        /* \"#utility.yul\":4507:4512   */\n      dup2\n        /* \"#utility.yul\":4491:4513   */\n      tag_122\n      jump\t// in\n    tag_183:\n        /* \"#utility.yul\":4486:4489   */\n      dup3\n        /* \"#utility.yul\":4479:4514   */\n      mstore\n        /* \"#utility.yul\":4408:4520   */\n      pop\n      pop\n      jump\t// out\n        /* \"#utility.yul\":4526:4740   */\n    tag_37:\n        /* \"#utility.yul\":4615:4619   */\n      0x00\n        /* \"#utility.yul\":4653:4655   */\n      0x20\n        /* \"#utility.yul\":4642:4651   */\n      dup3\n        /* \"#utility.yul\":4638:4656   */\n      add\n        /* \"#utility.yul\":4630:4656   */\n      swap1\n      pop\n        /* \"#utility.yul\":4666:4733   */\n      tag_185\n        /* \"#utility.yul\":4730:4731   */\n      0x00\n        /* \"#utility.yul\":4719:4728   */\n      dup4\n        /* \"#utility.yul\":4715:4732   */\n      add\n        /* \"#utility.yul\":4706:4712   */\n      dup5\n        /* \"#utility.yul\":4666:4733   */\n      tag_123\n      jump\t// in\n    tag_185:\n        /* \"#utility.yul\":4526:4740   */\n      swap3\n      swap2\n      pop\n      pop\n      jump\t// out\n        /* \"#utility.yul\":4746:5220   */\n    tag_40:\n        /* \"#utility.yul\":4814:4820   */\n      0x00\n        /* \"#utility.yul\":4822:4828   */\n      0x00\n        /* \"#utility.yul\":4871:4873   */\n      0x40\n        /* \"#utility.yul\":4859:4868   */\n      dup4\n        /* \"#utility.yul\":4850:4857   */\n      dup6\n        /* \"#utility.yul\":4846:4869   */\n      sub\n        /* \"#utility.yul\":4842:4874   */\n      slt\n        /* \"#utility.yul\":4839:4958   */\n      iszero\n      tag_187\n      jumpi\n        /* \"#utility.yul\":4877:4956   */\n      tag_188\n      tag_110\n      jump\t// in\n    tag_188:\n        /* \"#utility.yul\":4839:4958   */\n    tag_187:\n        /* \"#utility.yul\":4997:4998   */\n      0x00\n        /* \"#utility.yul\":5022:5075   */\n      tag_189\n        /* \"#utility.yul\":5067:5074   */\n      dup6\n        /* \"#utility.yul\":5058:5064   */\n      dup3\n        /* \"#utility.yul\":5047:5056   */\n      dup7\n        /* \"#utility.yul\":5043:5065   */\n      add\n        /* \"#utility.yul\":5022:5075   */\n      tag_115\n      jump\t// in\n    tag_189:\n        /* \"#utility.yul\":5012:5075   */\n      swap3\n      pop\n        /* \"#utility.yul\":4968:5085   */\n      pop\n        /* \"#utility.yul\":5124:5126   */\n      0x20\n        /* \"#utility.yul\":5150:5203   */\n      tag_190\n        /* \"#utility.yul\":5195:5202   */\n      dup6\n        /* \"#utility.yul\":5186:5192   */\n      dup3\n        /* \"#utility.yul\":5175:5184   */\n      dup7\n        /* \"#utility.yul\":5171:5193   */\n      add\n        /* \"#utility.yul\":5150:5203   */\n      tag_115\n      jump\t// in\n    tag_190:\n        /* \"#utility.yul\":5140:5203   */\n      swap2\n      pop\n        /* \"#utility.yul\":5095:5213   */\n      pop\n        /* \"#utility.yul\":4746:5220   */\n      swap3\n      pop\n      swap3\n      swap1\n      pop\n      jump\t// out\n        /* \"#utility.yul\":5226:5555   */\n    tag_45:\n        /* \"#utility.yul\":5285:5291   */\n      0x00\n        /* \"#utility.yul\":5334:5336   */\n      0x20\n        /* \"#utility.yul\":5322:5331   */\n      dup3\n        /* \"#utility.yul\":5313:5320   */\n      dup5\n        /* \"#utility.yul\":5309:5332   */\n      sub\n        /* \"#utility.yul\":5305:5337   */\n      slt\n        /* \"#utility.yul\":5302:5421   */\n      iszero\n      tag_192\n      jumpi\n        /* \"#utility.yul\":5340:5419   */\n      tag_193\n      tag_110\n      jump\t// in\n    tag_193:\n        /* \"#utility.yul\":5302:5421   */\n    tag_192:\n        /* \"#utility.yul\":5460:5461   */\n      0x00\n        /* \"#utility.yul\":5485:5538   */\n      tag_194\n        /* \"#utility.yul\":5530:5537   */\n      dup5\n        /* \"#utility.yul\":5521:5527   */\n      dup3\n        /* \"#utility.yul\":5510:5519   */\n      dup6\n        /* \"#utility.yul\":5506:5528   */\n      add\n        /* \"#utility.yul\":5485:5538   */\n      tag_115\n      jump\t// in\n    tag_194:\n        /* \"#utility.yul\":5475:5538   */\n      swap2\n      pop\n        /* \"#utility.yul\":5431:5548   */\n      pop\n        /* \"#utility.yul\":5226:5555   */\n      swap3\n      swap2\n      pop\n      pop\n      jump\t// out\n        /* \"#utility.yul\":5561:5741   */\n    tag_124:\n        /* \"#utility.yul\":5609:5686   */\n      0x4e487b7100000000000000000000000000000000000000000000000000000000\n        /* \"#utility.yul\":5606:5607   */\n      0x00\n        /* \"#utility.yul\":5599:5687   */\n      mstore\n        /* \"#utility.yul\":5706:5710   */\n      0x22\n        /* \"#utility.yul\":5703:5704   */\n      0x04\n        /* \"#utility.yul\":5696:5711   */\n      mstore\n        /* \"#utility.yul\":5730:5734   */\n      0x24\n        /* \"#utility.yul\":5727:5728   */\n      0x00\n        /* \"#utility.yul\":5720:5735   */\n      revert\n        /* \"#utility.yul\":5747:6067   */\n    tag_64:\n        /* \"#utility.yul\":5791:5797   */\n      0x00\n        /* \"#utility.yul\":5828:5829   */\n      0x02\n        /* \"#utility.yul\":5822:5826   */\n      dup3\n        /* \"#utility.yul\":5818:5830   */\n      div\n        /* \"#utility.yul\":5808:5830   */\n      swap1\n      pop\n        /* \"#utility.yul\":5875:5876   */\n      0x01\n        /* \"#utility.yul\":5869:5873   */\n      dup3\n        /* \"#utility.yul\":5865:5877   */\n      and\n        /* \"#utility.yul\":5896:5914   */\n      dup1\n        /* \"#utility.yul\":5886:5967   */\n      tag_197\n      jumpi\n        /* \"#utility.yul\":5952:5956   */\n      0x7f\n        /* \"#utility.yul\":5944:5950   */\n      dup3\n        /* \"#utility.yul\":5940:5957   */\n      and\n        /* \"#utility.yul\":5930:5957   */\n      swap2\n      pop\n        /* \"#utility.yul\":5886:5967   */\n    tag_197:\n        /* \"#utility.yul\":6014:6016   */\n      0x20\n        /* \"#utility.yul\":6006:6012   */\n      dup3\n        /* \"#utility.yul\":6003:6017   */\n      lt\n        /* \"#utility.yul\":5983:6001   */\n      dup2\n        /* \"#utility.yul\":5980:6018   */\n      sub\n        /* \"#utility.yul\":5977:6061   */\n      tag_198\n      jumpi\n        /* \"#utility.yul\":6033:6051   */\n      tag_199\n      tag_124\n      jump\t// in\n    tag_199:\n        /* \"#utility.yul\":5977:6061   */\n    tag_198:\n        /* \"#utility.yul\":5798:6067   */\n      pop\n        /* \"#utility.yul\":5747:6067   */\n      swap2\n      swap1\n      pop\n      jump\t// out\n        /* \"#utility.yul\":6073:6238   */\n    tag_125:\n        /* \"#utility.yul\":6213:6230   */\n      0x496e76616c696420616464726573730000000000000000000000000000000000\n        /* \"#utility.yul\":6209:6210   */\n      0x00\n        /* \"#utility.yul\":6201:6207   */\n      dup3\n        /* \"#utility.yul\":6197:6211   */\n      add\n        /* \"#utility.yul\":6190:6231   */\n      mstore\n        /* \"#utility.yul\":6073:6238   */\n      pop\n      jump\t// out\n        /* \"#utility.yul\":6244:6610   */\n    tag_126:\n        /* \"#utility.yul\":6386:6389   */\n      0x00\n        /* \"#utility.yul\":6407:6474   */\n      tag_202\n        /* \"#utility.yul\":6471:6473   */\n      0x0f\n        /* \"#utility.yul\":6466:6469   */\n      dup4\n        /* \"#utility.yul\":6407:6474   */\n      tag_105\n      jump\t// in\n    tag_202:\n        /* \"#utility.yul\":6400:6474   */\n      swap2\n      pop\n        /* \"#utility.yul\":6483:6576   */\n      tag_203\n        /* \"#utility.yul\":6572:6575   */\n      dup3\n        /* \"#utility.yul\":6483:6576   */\n      tag_125\n      jump\t// in\n    tag_203:\n        /* \"#utility.yul\":6601:6603   */\n      0x20\n        /* \"#utility.yul\":6596:6599   */\n      dup3\n        /* \"#utility.yul\":6592:6604   */\n      add\n        /* \"#utility.yul\":6585:6604   */\n      swap1\n      pop\n        /* \"#utility.yul\":6244:6610   */\n      swap2\n      swap1\n      pop\n      jump\t// out\n        /* \"#utility.yul\":6616:7035   */\n    tag_72:\n        /* \"#utility.yul\":6782:6786   */\n      0x00\n        /* \"#utility.yul\":6820:6822   */\n      0x20\n        /* \"#utility.yul\":6809:6818   */\n      dup3\n        /* \"#utility.yul\":6805:6823   */\n      add\n        /* \"#utility.yul\":6797:6823   */\n      swap1\n      pop\n        /* \"#utility.yul\":6869:6878   */\n      dup2\n        /* \"#utility.yul\":6863:6867   */\n      dup2\n        /* \"#utility.yul\":6859:6879   */\n      sub\n        /* \"#utility.yul\":6855:6856   */\n      0x00\n        /* \"#utility.yul\":6844:6853   */\n      dup4\n        /* \"#utility.yul\":6840:6857   */\n      add\n        /* \"#utility.yul\":6833:6880   */\n      mstore\n        /* \"#utility.yul\":6897:7028   */\n      tag_205\n        /* \"#utility.yul\":7023:7027   */\n      dup2\n        /* \"#utility.yul\":6897:7028   */\n      tag_126\n      jump\t// in\n    tag_205:\n        /* \"#utility.yul\":6889:7028   */\n      swap1\n      pop\n        /* \"#utility.yul\":6616:7035   */\n      swap2\n      swap1\n      pop\n      jump\t// out\n        /* \"#utility.yul\":7041:7209   */\n    tag_127:\n        /* \"#utility.yul\":7181:7201   */\n      0x416c6c6f77616e63652065786365656465640000000000000000000000000000\n        /* \"#utility.yul\":7177:7178   */\n      0x00\n        /* \"#utility.yul\":7169:7175   */\n      dup3\n        /* \"#utility.yul\":7165:7179   */\n      add\n        /* \"#utility.yul\":7158:7202   */\n      mstore\n        /* \"#utility.yul\":7041:7209   */\n      pop\n      jump\t// out\n        /* \"#utility.yul\":7215:7581   */\n    tag_128:\n        /* \"#utility.yul\":7357:7360   */\n      0x00\n        /* \"#utility.yul\":7378:7445   */\n      tag_208\n        /* \"#utility.yul\":7442:7444   */\n      0x12\n        /* \"#utility.yul\":7437:7440   */\n      dup4\n        /* \"#utility.yul\":7378:7445   */\n      tag_105\n      jump\t// in\n    tag_208:\n        /* \"#utility.yul\":7371:7445   */\n      swap2\n      pop\n        /* \"#utility.yul\":7454:7547   */\n      tag_209\n        /* \"#utility.yul\":7543:7546   */\n      dup3\n        /* \"#utility.yul\":7454:7547   */\n      tag_127\n      jump\t// in\n    tag_209:\n        /* \"#utility.yul\":7572:7574   */\n      0x20\n        /* \"#utility.yul\":7567:7570   */\n      dup3\n        /* \"#utility.yul\":7563:7575   */\n      add\n        /* \"#utility.yul\":7556:7575   */\n      swap1\n      pop\n        /* \"#utility.yul\":7215:7581   */\n      swap2\n      swap1\n      pop\n      jump\t// out\n        /* \"#utility.yul\":7587:8006   */\n    tag_77:\n        /* \"#utility.yul\":7753:7757   */\n      0x00\n        /* \"#utility.yul\":7791:7793   */\n      0x20\n        /* \"#utility.yul\":7780:7789   */\n      dup3\n        /* \"#utility.yul\":7776:7794   */\n      add\n        /* \"#utility.yul\":7768:7794   */\n      swap1\n      pop\n        /* \"#utility.yul\":7840:7849   */\n      dup2\n        /* \"#utility.yul\":7834:7838   */\n      dup2\n        /* \"#utility.yul\":7830:7850   */\n      sub\n        /* \"#utility.yul\":7826:7827   */\n      0x00\n        /* \"#utility.yul\":7815:7824   */\n      dup4\n        /* \"#utility.yul\":7811:7828   */\n      add\n        /* \"#utility.yul\":7804:7851   */\n      mstore\n        /* \"#utility.yul\":7868:7999   */\n      tag_211\n        /* \"#utility.yul\":7994:7998   */\n      dup2\n        /* \"#utility.yul\":7868:7999   */\n      tag_128\n      jump\t// in\n    tag_211:\n        /* \"#utility.yul\":7860:7999   */\n      swap1\n      pop\n        /* \"#utility.yul\":7587:8006   */\n      swap2\n      swap1\n      pop\n      jump\t// out\n        /* \"#utility.yul\":8012:8182   */\n    tag_129:\n        /* \"#utility.yul\":8152:8174   */\n      0x496e73756666696369656e742062616c616e6365000000000000000000000000\n        /* \"#utility.yul\":8148:8149   */\n      0x00\n        /* \"#utility.yul\":8140:8146   */\n      dup3\n        /* \"#utility.yul\":8136:8150   */\n      add\n        /* \"#utility.yul\":8129:8175   */\n      mstore\n        /* \"#utility.yul\":8012:8182   */\n      pop\n      jump\t// out\n        /* \"#utility.yul\":8188:8554   */\n    tag_130:\n        /* \"#utility.yul\":8330:8333   */\n      0x00\n        /* \"#utility.yul\":8351:8418   */\n      tag_214\n        /* \"#utility.yul\":8415:8417   */\n      0x14\n        /* \"#utility.yul\":8410:8413   */\n      dup4\n        /* \"#utility.yul\":8351:8418   */\n      tag_105\n      jump\t// in\n    tag_214:\n        /* \"#utility.yul\":8344:8418   */\n      swap2\n      pop\n        /* \"#utility.yul\":8427:8520   */\n      tag_215\n        /* \"#utility.yul\":8516:8519   */\n      dup3\n        /* \"#utility.yul\":8427:8520   */\n      tag_129\n      jump\t// in\n    tag_215:\n        /* \"#utility.yul\":8545:8547   */\n      0x20\n        /* \"#utility.yul\":8540:8543   */\n      dup3\n        /* \"#utility.yul\":8536:8548   */\n      add\n        /* \"#utility.yul\":8529:8548   */\n      swap1\n      pop\n        /* \"#utility.yul\":8188:8554   */\n      swap2\n      swap1\n      pop\n      jump\t// out\n        /* \"#utility.yul\":8560:8979   */\n    tag_80:\n        /* \"#utility.yul\":8726:8730   */\n      0x00\n        /* \"#utility.yul\":8764:8766   */\n      0x20\n        /* \"#utility.yul\":8753:8762   */\n      dup3\n        /* \"#utility.yul\":8749:8767   */\n      add\n        /* \"#utility.yul\":8741:8767   */\n      swap1\n      pop\n        /* \"#utility.yul\":8813:8822   */\n      dup2\n        /* \"#utility.yul\":8807:8811   */\n      dup2\n        /* \"#utility.yul\":8803:8823   */\n      sub\n        /* \"#utility.yul\":8799:8800   */\n      0x00\n        /* \"#utility.yul\":8788:8797   */\n      dup4\n        /* \"#utility.yul\":8784:8801   */\n      add\n        /* \"#utility.yul\":8777:8824   */\n      mstore\n        /* \"#utility.yul\":8841:8972   */\n      tag_217\n        /* \"#utility.yul\":8967:8971   */\n      dup2\n        /* \"#utility.yul\":8841:8972   */\n      tag_130\n      jump\t// in\n    tag_217:\n        /* \"#utility.yul\":8833:8972   */\n      swap1\n      pop\n        /* \"#utility.yul\":8560:8979   */\n      swap2\n      swap1\n      pop\n      jump\t// out\n        /* \"#utility.yul\":8985:9165   */\n    tag_131:\n        /* \"#utility.yul\":9033:9110   */\n      0x4e487b7100000000000000000000000000000000000000000000000000000000\n        /* \"#utility.yul\":9030:9031   */\n      0x00\n        /* \"#utility.yul\":9023:9111   */\n      mstore\n        /* \"#utility.yul\":9130:9134   */\n      0x11\n        /* \"#utility.yul\":9127:9128   */\n      0x04\n        /* \"#utility.yul\":9120:9135   */\n      mstore\n        /* \"#utility.yul\":9154:9158   */\n      0x24\n        /* \"#utility.yul\":9151:9152   */\n      0x00\n        /* \"#utility.yul\":9144:9159   */\n      revert\n        /* \"#utility.yul\":9171:9365   */\n    tag_84:\n        /* \"#utility.yul\":9211:9215   */\n      0x00\n        /* \"#utility.yul\":9231:9251   */\n      tag_220\n        /* \"#utility.yul\":9249:9250   */\n      dup3\n        /* \"#utility.yul\":9231:9251   */\n      tag_116\n      jump\t// in\n    tag_220:\n        /* \"#utility.yul\":9226:9251   */\n      swap2\n      pop\n        /* \"#utility.yul\":9265:9285   */\n      tag_221\n        /* \"#utility.yul\":9283:9284   */\n      dup4\n        /* \"#utility.yul\":9265:9285   */\n      tag_116\n      jump\t// in\n    tag_221:\n        /* \"#utility.yul\":9260:9285   */\n      swap3\n      pop\n        /* \"#utility.yul\":9309:9310   */\n      dup3\n        /* \"#utility.yul\":9306:9307   */\n      dup3\n        /* \"#utility.yul\":9302:9311   */\n      sub\n        /* \"#utility.yul\":9294:9311   */\n      swap1\n      pop\n        /* \"#utility.yul\":9333:9334   */\n      dup2\n        /* \"#utility.yul\":9327:9331   */\n      dup2\n        /* \"#utility.yul\":9324:9335   */\n      gt\n        /* \"#utility.yul\":9321:9358   */\n      iszero\n      tag_222\n      jumpi\n        /* \"#utility.yul\":9338:9356   */\n      tag_223\n      tag_131\n      jump\t// in\n    tag_223:\n        /* \"#utility.yul\":9321:9358   */\n    tag_222:\n        /* \"#utility.yul\":9171:9365   */\n      swap3\n      swap2\n      pop\n      pop\n      jump\t// out\n        /* \"#utility.yul\":9371:9562   */\n    tag_87:\n        /* \"#utility.yul\":9411:9414   */\n      0x00\n        /* \"#utility.yul\":9430:9450   */\n      tag_225\n        /* \"#utility.yul\":9448:9449   */\n      dup3\n        /* \"#utility.yul\":9430:9450   */\n      tag_116\n      jump\t// in\n    tag_225:\n        /* \"#utility.yul\":9425:9450   */\n      swap2\n      pop\n        /* \"#utility.yul\":9464:9484   */\n      tag_226\n        /* \"#utility.yul\":9482:9483   */\n      dup4\n        /* \"#utility.yul\":9464:9484   */\n      tag_116\n      jump\t// in\n    tag_226:\n        /* \"#utility.yul\":9459:9484   */\n      swap3\n      pop\n        /* \"#utility.yul\":9507:9508   */\n      dup3\n        /* \"#utility.yul\":9504:9505   */\n      dup3\n        /* \"#utility.yul\":9500:9509   */\n      add\n        /* \"#utility.yul\":9493:9509   */\n      swap1\n      pop\n        /* \"#utility.yul\":9528:9531   */\n      dup1\n        /* \"#utility.yul\":9525:9526   */\n      dup3\n        /* \"#utility.yul\":9522:9532   */\n      gt\n        /* \"#utility.yul\":9519:9555   */\n      iszero\n      tag_227\n      jumpi\n        /* \"#utility.yul\":9535:9553   */\n      tag_228\n      tag_131\n      jump\t// in\n    tag_228:\n        /* \"#utility.yul\":9519:9555   */\n    tag_227:\n        /* \"#utility.yul\":9371:9562   */\n      swap3\n      swap2\n      pop\n      pop\n      jump\t// out\n\n    auxdata: 0xa264697066735822122080e883958c0c683ff0abd785409fa80aa3dff40df36c6546760e859fb62bd5c864736f6c634300081e0033\n}\n",
				"bytecode": {
					"linkReferences": {},
					"object": "60806040526103e85f555f60015f6101000a81548160ff021916908360ff1602179055506040518060400160405280600981526020017f54657374546f6b656e000000000000000000000000000000000000000000000081525060029081610067919061033e565b506040518060400160405280600381526020017f54544b0000000000000000000000000000000000000000000000000000000000815250600390816100ac919061033e565b503480156100b8575f5ffd5b505f5460045f3373ffffffffffffffffffffffffffffffffffffffff1673ffffffffffffffffffffffffffffffffffffffff1681526020019081526020015f208190555061040d565b5f81519050919050565b7f4e487b71000000000000000000000000000000000000000000000000000000005f52604160045260245ffd5b7f4e487b71000000000000000000000000000000000000000000000000000000005f52602260045260245ffd5b5f600282049050600182168061017c57607f821691505b60208210810361018f5761018e610138565b5b50919050565b5f819050815f5260205f209050919050565b5f6020601f8301049050919050565b5f82821b905092915050565b5f600883026101f17fffffffffffffffffffffffffffffffffffffffffffffffffffffffffffffffff826101b6565b6101fb86836101b6565b95508019841693508086168417925050509392505050565b5f819050919050565b5f819050919050565b5f61023f61023a61023584610213565b61021c565b610213565b9050919050565b5f819050919050565b61025883610225565b61026c61026482610246565b8484546101c2565b825550505050565b5f5f905090565b610283610274565b61028e81848461024f565b505050565b5b818110156102b1576102a65f8261027b565b600181019050610294565b5050565b601f8211156102f6576102c781610195565b6102d0846101a7565b810160208510156102df578190505b6102f36102eb856101a7565b830182610293565b50505b505050565b5f82821c905092915050565b5f6103165f19846008026102fb565b1980831691505092915050565b5f61032e8383610307565b9150826002028217905092915050565b61034782610101565b67ffffffffffffffff8111156103605761035f61010b565b5b61036a8254610165565b6103758282856102b5565b5f60209050601f8311600181146103a6575f8415610394578287015190505b61039e8582610323565b865550610405565b601f1984166103b486610195565b5f5b828110156103db578489015182556001820191506020850194506020810190506103b6565b868310156103f857848901516103f4601f891682610307565b8355505b6001600288020188555050505b505050505050565b6110518061041a5f395ff3fe608060405234801561000f575f5ffd5b50600436106100a7575f3560e01c806355b6ed5c1161006f57806355b6ed5c1461016557806370a082311461019557806395d89b41146101c5578063a9059cbb146101e3578063dd62ed3e14610213578063f8b2cb4f14610243576100a7565b806306fdde03146100ab578063095ea7b3146100c957806318160ddd146100f957806323b872dd14610117578063313ce56714610147575b5f5ffd5b6100b3610273565b6040516100c09190610bbc565b60405180910390f35b6100e360048036038101906100de9190610c6d565b6102ff565b6040516100f09190610cc5565b60405180910390f35b61010161045a565b60405161010e9190610ced565b60405180910390f35b610131600480360381019061012c9190610d06565b61045f565b60405161013e9190610cc5565b60405180910390f35b61014f6107ad565b60405161015c9190610d71565b60405180910390f35b61017f600480360381019061017a9190610d8a565b6107bf565b60405161018c9190610ced565b60405180910390f35b6101af60048036038101906101aa9190610dc8565b6107df565b6040516101bc9190610ced565b60405180910390f35b6101cd6107f4565b6040516101da9190610bbc565b60405180910390f35b6101fd60048036038101906101f89190610c6d565b610880565b60405161020a9190610cc5565b60405180910390f35b61022d60048036038101906102289190610d8a565b610a84565b60405161023a9190610ced565b60405180910390f35b61025d60048036038101906102589190610dc8565b610b06565b60405161026a9190610ced565b60405180910390f35b6002805461028090610e20565b80601f01602080910402602001604051908101604052809291908181526020018280546102ac90610e20565b80156102f75780601f106102ce576101008083540402835291602001916102f7565b820191905f5260205f20905b8154815290600101906020018083116102da57829003601f168201915b505050505081565b5f5f73ffffffffffffffffffffffffffffffffffffffff168373ffffffffffffffffffffffffffffffffffffffff160361036e576040517f08c379a000000000000000000000000000000000000000000000000000000000815260040161036590610e9a565b60405180910390fd5b8160055f3373ffffffffffffffffffffffffffffffffffffffff1673ffffffffffffffffffffffffffffffffffffffff1681526020019081526020015f205f8573ffffffffffffffffffffffffffffffffffffffff1673ffffffffffffffffffffffffffffffffffffffff1681526020019081526020015f20819055508273ffffffffffffffffffffffffffffffffffffffff163373ffffffffffffffffffffffffffffffffffffffff167f8c5be1e5ebec7d5bd14f71427d1e84f3dd0314c0f7b2291e5b200ac8c7c3b925846040516104489190610ced565b60405180910390a36001905092915050565b5f5481565b5f8160055f8673ffffffffffffffffffffffffffffffffffffffff1673ffffffffffffffffffffffffffffffffffffffff1681526020019081526020015f205f3373ffffffffffffffffffffffffffffffffffffffff1673ffffffffffffffffffffffffffffffffffffffff1681526020019081526020015f2054101561051b576040517f08c379a000000000000000000000000000000000000000000000000000000000815260040161051290610f02565b60405180910390fd5b8160045f8673ffffffffffffffffffffffffffffffffffffffff1673ffffffffffffffffffffffffffffffffffffffff1681526020019081526020015f2054101561059b576040517f08c379a000000000000000000000000000000000000000000000000000000000815260040161059290610f6a565b60405180910390fd5b5f73ffffffffffffffffffffffffffffffffffffffff168373ffffffffffffffffffffffffffffffffffffffff1603610609576040517f08c379a000000000000000000000000000000000000000000000000000000000815260040161060090610e9a565b60405180910390fd5b8160055f8673ffffffffffffffffffffffffffffffffffffffff1673ffffffffffffffffffffffffffffffffffffffff1681526020019081526020015f205f3373ffffffffffffffffffffffffffffffffffffffff1673ffffffffffffffffffffffffffffffffffffffff1681526020019081526020015f205f8282546106909190610fb5565b925050819055508160045f8673ffffffffffffffffffffffffffffffffffffffff1673ffffffffffffffffffffffffffffffffffffffff1681526020019081526020015f205f8282546106e39190610fb5565b925050819055508160045f8573ffffffffffffffffffffffffffffffffffffffff1673ffffffffffffffffffffffffffffffffffffffff1681526020019081526020015f205f8282546107369190610fe8565b925050819055508273ffffffffffffffffffffffffffffffffffffffff168473ffffffffffffffffffffffffffffffffffffffff167fddf252ad1be2c89b69c2b068fc378daa952ba7f163c4a11628f55a4df523b3ef8460405161079a9190610ced565b60405180910390a3600190509392505050565b60015f9054906101000a900460ff1681565b6005602052815f5260405f20602052805f5260405f205f91509150505481565b6004602052805f5260405f205f915090505481565b6003805461080190610e20565b80601f016020809104026020016040519081016040528092919081815260200182805461082d90610e20565b80156108785780601f1061084f57610100808354040283529160200191610878565b820191905f5260205f20905b81548152906001019060200180831161085b57829003601f168201915b505050505081565b5f8160045f3373ffffffffffffffffffffffffffffffffffffffff1673ffffffffffffffffffffffffffffffffffffffff1681526020019081526020015f20541015610901576040517f08c379a00000000000000000000000000000000000000000000000000000000081526004016108f890610f6a565b60405180910390fd5b5f73ffffffffffffffffffffffffffffffffffffffff168373ffffffffffffffffffffffffffffffffffffffff160361096f576040517f08c379a000000000000000000000000000000000000000000000000000000000815260040161096690610e9a565b60405180910390fd5b8160045f3373ffffffffffffffffffffffffffffffffffffffff1673ffffffffffffffffffffffffffffffffffffffff1681526020019081526020015f205f8282546109bb9190610fb5565b925050819055508160045f8573ffffffffffffffffffffffffffffffffffffffff1673ffffffffffffffffffffffffffffffffffffffff1681526020019081526020015f205f828254610a0e9190610fe8565b925050819055508273ffffffffffffffffffffffffffffffffffffffff163373ffffffffffffffffffffffffffffffffffffffff167fddf252ad1be2c89b69c2b068fc378daa952ba7f163c4a11628f55a4df523b3ef84604051610a729190610ced565b60405180910390a36001905092915050565b5f60055f8473ffffffffffffffffffffffffffffffffffffffff1673ffffffffffffffffffffffffffffffffffffffff1681526020019081526020015f205f8373ffffffffffffffffffffffffffffffffffffffff1673ffffffffffffffffffffffffffffffffffffffff1681526020019081526020015f2054905092915050565b5f60045f8373ffffffffffffffffffffffffffffffffffffffff1673ffffffffffffffffffffffffffffffffffffffff1681526020019081526020015f20549050919050565b5f81519050919050565b5f82825260208201905092915050565b8281835e5f83830152505050565b5f601f19601f8301169050919050565b5f610b8e82610b4c565b610b988185610b56565b9350610ba8818560208601610b66565b610bb181610b74565b840191505092915050565b5f6020820190508181035f830152610bd48184610b84565b905092915050565b5f5ffd5b5f73ffffffffffffffffffffffffffffffffffffffff82169050919050565b5f610c0982610be0565b9050919050565b610c1981610bff565b8114610c23575f5ffd5b50565b5f81359050610c3481610c10565b92915050565b5f819050919050565b610c4c81610c3a565b8114610c56575f5ffd5b50565b5f81359050610c6781610c43565b92915050565b5f5f60408385031215610c8357610c82610bdc565b5b5f610c9085828601610c26565b9250506020610ca185828601610c59565b9150509250929050565b5f8115159050919050565b610cbf81610cab565b82525050565b5f602082019050610cd85f830184610cb6565b92915050565b610ce781610c3a565b82525050565b5f602082019050610d005f830184610cde565b92915050565b5f5f5f60608486031215610d1d57610d1c610bdc565b5b5f610d2a86828701610c26565b9350506020610d3b86828701610c26565b9250506040610d4c86828701610c59565b9150509250925092565b5f60ff82169050919050565b610d6b81610d56565b82525050565b5f602082019050610d845f830184610d62565b92915050565b5f5f60408385031215610da057610d9f610bdc565b5b5f610dad85828601610c26565b9250506020610dbe85828601610c26565b9150509250929050565b5f60208284031215610ddd57610ddc610bdc565b5b5f610dea84828501610c26565b91505092915050565b7f4e487b71000000000000000000000000000000000000000000000000000000005f52602260045260245ffd5b5f6002820490506001821680610e3757607f821691505b602082108103610e4a57610e49610df3565b5b50919050565b7f496e76616c6964206164647265737300000000000000000000000000000000005f82015250565b5f610e84600f83610b56565b9150610e8f82610e50565b602082019050919050565b5f6020820190508181035f830152610eb181610e78565b9050919050565b7f416c6c6f77616e636520657863656564656400000000000000000000000000005f82015250565b5f610eec601283610b56565b9150610ef782610eb8565b602082019050919050565b5f6020820190508181035f830152610f1981610ee0565b9050919050565b7f496e73756666696369656e742062616c616e63650000000000000000000000005f82015250565b5f610f54601483610b56565b9150610f5f82610f20565b602082019050919050565b5f6020820190508181035f830152610f8181610f48565b9050919050565b7f4e487b71000000000000000000000000000000000000000000000000000000005f52601160045260245ffd5b5f610fbf82610c3a565b9150610fca83610c3a565b9250828203905081811115610fe257610fe1610f88565b5b92915050565b5f610ff282610c3a565b9150610ffd83610c3a565b925082820190508082111561101557611014610f88565b5b9291505056fea264697066735822122080e883958c0c683ff0abd785409fa80aa3dff40df36c6546760e859fb62bd5c864736f6c634300081e0033",
					"opcodes": "PUSH1 0x80 PUSH1 0x40 MSTORE PUSH2 0x3E8 PUSH0 SSTORE PUSH0 PUSH1 0x1 PUSH0 PUSH2 0x100 EXP DUP2 SLOAD DUP2 PUSH1 0xFF MUL NOT AND SWAP1 DUP4 PUSH1 0xFF AND MUL OR SWAP1 SSTORE POP PUSH1 0x40 MLOAD DUP1 PUSH1 0x40 ADD PUSH1 0x40 MSTORE DUP1 PUSH1 0x9 DUP2 MSTORE PUSH1 0x20 ADD PUSH32 0x54657374546F6B656E0000000000000000000000000000000000000000000000 DUP2 MSTORE POP PUSH1 0x2 SWAP1 DUP2 PUSH2 0x67 SWAP2 SWAP1 PUSH2 0x33E JUMP JUMPDEST POP PUSH1 0x40 MLOAD DUP1 PUSH1 0x40 ADD PUSH1 0x40 MSTORE DUP1 PUSH1 0x3 DUP2 MSTORE PUSH1 0x20 ADD PUSH32 0x54544B0000000000000000000000000000000000000000000000000000000000 DUP2 MSTORE POP PUSH1 0x3 SWAP1 DUP2 PUSH2 0xAC SWAP2 SWAP1 PUSH2 0x33E JUMP JUMPDEST POP CALLVALUE DUP1 ISZERO PUSH2 0xB8 JUMPI PUSH0 PUSH0 REVERT JUMPDEST POP PUSH0 SLOAD PUSH1 0x4 PUSH0 CALLER PUSH20 0xFFFFFFFFFFFFFFFFFFFFFFFFFFFFFFFFFFFFFFFF AND PUSH20 0xFFFFFFFFFFFFFFFFFFFFFFFFFFFFFFFFFFFFFFFF AND DUP2 MSTORE PUSH1 0x20 ADD SWAP1 DUP2 MSTORE PUSH1 0x20 ADD PUSH0 KECCAK256 DUP2 SWAP1 SSTORE POP PUSH2 0x40D JUMP JUMPDEST PUSH0 DUP2 MLOAD SWAP1 POP SWAP2 SWAP1 POP JUMP JUMPDEST PUSH32 0x4E487B7100000000000000000000000000000000000000000000000000000000 PUSH0 MSTORE PUSH1 0x41 PUSH1 0x4 MSTORE PUSH1 0x24 PUSH0 REVERT JUMPDEST PUSH32 0x4E487B7100000000000000000000000000000000000000000000000000000000 PUSH0 MSTORE PUSH1 0x22 PUSH1 0x4 MSTORE PUSH1 0x24 PUSH0 REVERT JUMPDEST PUSH0 PUSH1 0x2 DUP3 DIV SWAP1 POP PUSH1 0x1 DUP3 AND DUP1 PUSH2 0x17C JUMPI PUSH1 0x7F DUP3 AND SWAP2 POP JUMPDEST PUSH1 0x20 DUP3 LT DUP2 SUB PUSH2 0x18F JUMPI PUSH2 0x18E PUSH2 0x138 JUMP JUMPDEST JUMPDEST POP SWAP2 SWAP1 POP JUMP JUMPDEST PUSH0 DUP2 SWAP1 POP DUP2 PUSH0 MSTORE PUSH1 0x20 PUSH0 KECCAK256 SWAP1 POP SWAP2 SWAP1 POP JUMP JUMPDEST PUSH0 PUSH1 0x20 PUSH1 0x1F DUP4 ADD DIV SWAP1 POP SWAP2 SWAP1 POP JUMP JUMPDEST PUSH0 DUP3 DUP3 SHL SWAP1 POP SWAP3 SWAP2 POP POP JUMP JUMPDEST PUSH0 PUSH1 0x8 DUP4 MUL PUSH2 0x1F1 PUSH32 0xFFFFFFFFFFFFFFFFFFFFFFFFFFFFFFFFFFFFFFFFFFFFFFFFFFFFFFFFFFFFFFFF DUP3 PUSH2 0x1B6 JUMP JUMPDEST PUSH2 0x1FB DUP7 DUP4 PUSH2 0x1B6 JUMP JUMPDEST SWAP6 POP DUP1 NOT DUP5 AND SWAP4 POP DUP1 DUP7 AND DUP5 OR SWAP3 POP POP POP SWAP4 SWAP3 POP POP POP JUMP JUMPDEST PUSH0 DUP2 SWAP1 POP SWAP2 SWAP1 POP JUMP JUMPDEST PUSH0 DUP2 SWAP1 POP SWAP2 SWAP1 POP JUMP JUMPDEST PUSH0 PUSH2 0x23F PUSH2 0x23A PUSH2 0x235 DUP5 PUSH2 0x213 JUMP JUMPDEST PUSH2 0x21C JUMP JUMPDEST PUSH2 0x213 JUMP JUMPDEST SWAP1 POP SWAP2 SWAP1 POP JUMP JUMPDEST PUSH0 DUP2 SWAP1 POP SWAP2 SWAP1 POP JUMP JUMPDEST PUSH2 0x258 DUP4 PUSH2 0x225 JUMP JUMPDEST PUSH2 0x26C PUSH2 0x264 DUP3 PUSH2 0x246 JUMP JUMPDEST DUP5 DUP5 SLOAD PUSH2 0x1C2 JUMP JUMPDEST DUP3 SSTORE POP POP POP POP JUMP JUMPDEST PUSH0 PUSH0 SWAP1 POP SWAP1 JUMP JUMPDEST PUSH2 0x283 PUSH2 0x274 JUMP JUMPDEST PUSH2 0x28E DUP2 DUP5 DUP5 PUSH2 0x24F JUMP JUMPDEST POP POP POP JUMP JUMPDEST JUMPDEST DUP2 DUP2 LT ISZERO PUSH2 0x2B1 JUMPI PUSH2 0x2A6 PUSH0 DUP3 PUSH2 0x27B JUMP JUMPDEST PUSH1 0x1 DUP2 ADD SWAP1 POP PUSH2 0x294 JUMP JUMPDEST POP POP JUMP JUMPDEST PUSH1 0x1F DUP3 GT ISZERO PUSH2 0x2F6 JUMPI PUSH2 0x2C7 DUP2 PUSH2 0x195 JUMP JUMPDEST PUSH2 0x2D0 DUP5 PUSH2 0x1A7 JUMP JUMPDEST DUP2 ADD PUSH1 0x20 DUP6 LT ISZERO PUSH2 0x2DF JUMPI DUP2 SWAP1 POP JUMPDEST PUSH2 0x2F3 PUSH2 0x2EB DUP6 PUSH2 0x1A7 JUMP JUMPDEST DUP4 ADD DUP3 PUSH2 0x293 JUMP JUMPDEST POP POP JUMPDEST POP POP POP JUMP JUMPDEST PUSH0 DUP3 DUP3 SHR SWAP1 POP SWAP3 SWAP2 POP POP JUMP JUMPDEST PUSH0 PUSH2 0x316 PUSH0 NOT DUP5 PUSH1 0x8 MUL PUSH2 0x2FB JUMP JUMPDEST NOT DUP1 DUP4 AND SWAP2 POP POP SWAP3 SWAP2 POP POP JUMP JUMPDEST PUSH0 PUSH2 0x32E DUP4 DUP4 PUSH2 0x307 JUMP JUMPDEST SWAP2 POP DUP3 PUSH1 0x2 MUL DUP3 OR SWAP1 POP SWAP3 SWAP2 POP POP JUMP JUMPDEST PUSH2 0x347 DUP3 PUSH2 0x101 JUMP JUMPDEST PUSH8 0xFFFFFFFFFFFFFFFF DUP2 GT ISZERO PUSH2 0x360 JUMPI PUSH2 0x35F PUSH2 0x10B JUMP JUMPDEST JUMPDEST PUSH2 0x36A DUP3 SLOAD PUSH2 0x165 JUMP JUMPDEST PUSH2 0x375 DUP3 DUP3 DUP6 PUSH2 0x2B5 JUMP JUMPDEST PUSH0 PUSH1 0x20 SWAP1 POP PUSH1 0x1F DUP4 GT PUSH1 0x1 DUP2 EQ PUSH2 0x3A6 JUMPI PUSH0 DUP5 ISZERO PUSH2 0x394 JUMPI DUP3 DUP8 ADD MLOAD SWAP1 POP JUMPDEST PUSH2 0x39E DUP6 DUP3 PUSH2 0x323 JUMP JUMPDEST DUP7 SSTORE POP PUSH2 0x405 JUMP JUMPDEST PUSH1 0x1F NOT DUP5 AND PUSH2 0x3B4 DUP7 PUSH2 0x195 JUMP JUMPDEST PUSH0 JUMPDEST DUP3 DUP2 LT ISZERO PUSH2 0x3DB JUMPI DUP5 DUP10 ADD MLOAD DUP3 SSTORE PUSH1 0x1 DUP3 ADD SWAP2 POP PUSH1 0x20 DUP6 ADD SWAP5 POP PUSH1 0x20 DUP2 ADD SWAP1 POP PUSH2 0x3B6 JUMP JUMPDEST DUP7 DUP4 LT ISZERO PUSH2 0x3F8 JUMPI DUP5 DUP10 ADD MLOAD PUSH2 0x3F4 PUSH1 0x1F DUP10 AND DUP3 PUSH2 0x307 JUMP JUMPDEST DUP4 SSTORE POP JUMPDEST PUSH1 0x1 PUSH1 0x2 DUP9 MUL ADD DUP9 SSTORE POP POP POP JUMPDEST POP POP POP POP POP POP JUMP JUMPDEST PUSH2 0x1051 DUP1 PUSH2 0x41A PUSH0 CODECOPY PUSH0 RETURN INVALID PUSH1 0x80 PUSH1 0x40 MSTORE CALLVALUE DUP1 ISZERO PUSH2 0xF JUMPI PUSH0 PUSH0 REVERT JUMPDEST POP PUSH1 0x4 CALLDATASIZE LT PUSH2 0xA7 JUMPI PUSH0 CALLDATALOAD PUSH1 0xE0 SHR DUP1 PUSH4 0x55B6ED5C GT PUSH2 0x6F JUMPI DUP1 PUSH4 0x55B6ED5C EQ PUSH2 0x165 JUMPI DUP1 PUSH4 0x70A08231 EQ PUSH2 0x195 JUMPI DUP1 PUSH4 0x95D89B41 EQ PUSH2 0x1C5 JUMPI DUP1 PUSH4 0xA9059CBB EQ PUSH2 0x1E3 JUMPI DUP1 PUSH4 0xDD62ED3E EQ PUSH2 0x213 JUMPI DUP1 PUSH4 0xF8B2CB4F EQ PUSH2 0x243 JUMPI PUSH2 0xA7 JUMP JUMPDEST DUP1 PUSH4 0x6FDDE03 EQ PUSH2 0xAB JUMPI DUP1 PUSH4 0x95EA7B3 EQ PUSH2 0xC9 JUMPI DUP1 PUSH4 0x18160DDD EQ PUSH2 0xF9 JUMPI DUP1 PUSH4 0x23B872DD EQ PUSH2 0x117 JUMPI DUP1 PUSH4 0x313CE567 EQ PUSH2 0x147 JUMPI JUMPDEST PUSH0 PUSH0 REVERT JUMPDEST PUSH2 0xB3 PUSH2 0x273 JUMP JUMPDEST PUSH1 0x40 MLOAD PUSH2 0xC0 SWAP2 SWAP1 PUSH2 0xBBC JUMP JUMPDEST PUSH1 0x40 MLOAD DUP1 SWAP2 SUB SWAP1 RETURN JUMPDEST PUSH2 0xE3 PUSH1 0x4 DUP1 CALLDATASIZE SUB DUP2 ADD SWAP1 PUSH2 0xDE SWAP2 SWAP1 PUSH2 0xC6D JUMP JUMPDEST PUSH2 0x2FF JUMP JUMPDEST PUSH1 0x40 MLOAD PUSH2 0xF0 SWAP2 SWAP1 PUSH2 0xCC5 JUMP JUMPDEST PUSH1 0x40 MLOAD DUP1 SWAP2 SUB SWAP1 RETURN JUMPDEST PUSH2 0x101 PUSH2 0x45A JUMP JUMPDEST PUSH1 0x40 MLOAD PUSH2 0x10E SWAP2 SWAP1 PUSH2 0xCED JUMP JUMPDEST PUSH1 0x40 MLOAD DUP1 SWAP2 SUB SWAP1 RETURN JUMPDEST PUSH2 0x131 PUSH1 0x4 DUP1 CALLDATASIZE SUB DUP2 ADD SWAP1 PUSH2 0x12C SWAP2 SWAP1 PUSH2 0xD06 JUMP JUMPDEST PUSH2 0x45F JUMP JUMPDEST PUSH1 0x40 MLOAD PUSH2 0x13E SWAP2 SWAP1 PUSH2 0xCC5 JUMP JUMPDEST PUSH1 0x40 MLOAD DUP1 SWAP2 SUB SWAP1 RETURN JUMPDEST PUSH2 0x14F PUSH2 0x7AD JUMP JUMPDEST PUSH1 0x40 MLOAD PUSH2 0x15C SWAP2 SWAP1 PUSH2 0xD71 JUMP JUMPDEST PUSH1 0x40 MLOAD DUP1 SWAP2 SUB SWAP1 RETURN JUMPDEST PUSH2 0x17F PUSH1 0x4 DUP1 CALLDATASIZE SUB DUP2 ADD SWAP1 PUSH2 0x17A SWAP2 SWAP1 PUSH2 0xD8A JUMP JUMPDEST PUSH2 0x7BF JUMP JUMPDEST PUSH1 0x40 MLOAD PUSH2 0x18C SWAP2 SWAP1 PUSH2 0xCED JUMP JUMPDEST PUSH1 0x40 MLOAD DUP1 SWAP2 SUB SWAP1 RETURN JUMPDEST PUSH2 0x1AF PUSH1 0x4 DUP1 CALLDATASIZE SUB DUP2 ADD SWAP1 PUSH2 0x1AA SWAP2 SWAP1 PUSH2 0xDC8 JUMP JUMPDEST PUSH2 0x7DF JUMP JUMPDEST PUSH1 0x40 MLOAD PUSH2 0x1BC SWAP2 SWAP1 PUSH2 0xCED JUMP JUMPDEST PUSH1 0x40 MLOAD DUP1 SWAP2 SUB SWAP1 RETURN JUMPDEST PUSH2 0x1CD PUSH2 0x7F4 JUMP JUMPDEST PUSH1 0x40 MLOAD PUSH2 0x1DA SWAP2 SWAP1 PUSH2 0xBBC JUMP JUMPDEST PUSH1 0x40 MLOAD DUP1 SWAP2 SUB SWAP1 RETURN JUMPDEST PUSH2 0x1FD PUSH1 0x4 DUP1 CALLDATASIZE SUB DUP2 ADD SWAP1 PUSH2 0x1F8 SWAP2 SWAP1 PUSH2 0xC6D JUMP JUMPDEST PUSH2 0x880 JUMP JUMPDEST PUSH1 0x40 MLOAD PUSH2 0x20A SWAP2 SWAP1 PUSH2 0xCC5 JUMP JUMPDEST PUSH1 0x40 MLOAD DUP1 SWAP2 SUB SWAP1 RETURN JUMPDEST PUSH2 0x22D PUSH1 0x4 DUP1 CALLDATASIZE SUB DUP2 ADD SWAP1 PUSH2 0x228 SWAP2 SWAP1 PUSH2 0xD8A JUMP JUMPDEST PUSH2 0xA84 JUMP JUMPDEST PUSH1 0x40 MLOAD PUSH2 0x23A SWAP2 SWAP1 PUSH2 0xCED JUMP JUMPDEST PUSH1 0x40 MLOAD DUP1 SWAP2 SUB SWAP1 RETURN JUMPDEST PUSH2 0x25D PUSH1 0x4 DUP1 CALLDATASIZE SUB DUP2 ADD SWAP1 PUSH2 0x258 SWAP2 SWAP1 PUSH2 0xDC8 JUMP JUMPDEST PUSH2 0xB06 JUMP JUMPDEST PUSH1 0x40 MLOAD PUSH2 0x26A SWAP2 SWAP1 PUSH2 0xCED JUMP JUMPDEST PUSH1 0x40 MLOAD DUP1 SWAP2 SUB SWAP1 RETURN JUMPDEST PUSH1 0x2 DUP1 SLOAD PUSH2 0x280 SWAP1 PUSH2 0xE20 JUMP JUMPDEST DUP1 PUSH1 0x1F ADD PUSH1 0x20 DUP1 SWAP2 DIV MUL PUSH1 0x20 ADD PUSH1 0x40 MLOAD SWAP1 DUP2 ADD PUSH1 0x40 MSTORE DUP1 SWAP3 SWAP2 SWAP1 DUP2 DUP2 MSTORE PUSH1 0x20 ADD DUP3 DUP1 SLOAD PUSH2 0x2AC SWAP1 PUSH2 0xE20 JUMP JUMPDEST DUP1 ISZERO PUSH2 0x2F7 JUMPI DUP1 PUSH1 0x1F LT PUSH2 0x2CE JUMPI PUSH2 0x100 DUP1 DUP4 SLOAD DIV MUL DUP4 MSTORE SWAP2 PUSH1 0x20 ADD SWAP2 PUSH2 0x2F7 JUMP JUMPDEST DUP3 ADD SWAP2 SWAP1 PUSH0 MSTORE PUSH1 0x20 PUSH0 KECCAK256 SWAP1 JUMPDEST DUP2 SLOAD DUP2 MSTORE SWAP1 PUSH1 0x1 ADD SWAP1 PUSH1 0x20 ADD DUP1 DUP4 GT PUSH2 0x2DA JUMPI DUP3 SWAP1 SUB PUSH1 0x1F AND DUP3 ADD SWAP2 JUMPDEST POP POP POP POP POP DUP2 JUMP JUMPDEST PUSH0 PUSH0 PUSH20 0xFFFFFFFFFFFFFFFFFFFFFFFFFFFFFFFFFFFFFFFF AND DUP4 PUSH20 0xFFFFFFFFFFFFFFFFFFFFFFFFFFFFFFFFFFFFFFFF AND SUB PUSH2 0x36E JUMPI PUSH1 0x40 MLOAD PUSH32 0x8C379A000000000000000000000000000000000000000000000000000000000 DUP2 MSTORE PUSH1 0x4 ADD PUSH2 0x365 SWAP1 PUSH2 0xE9A JUMP JUMPDEST PUSH1 0x40 MLOAD DUP1 SWAP2 SUB SWAP1 REVERT JUMPDEST DUP2 PUSH1 0x5 PUSH0 CALLER PUSH20 0xFFFFFFFFFFFFFFFFFFFFFFFFFFFFFFFFFFFFFFFF AND PUSH20 0xFFFFFFFFFFFFFFFFFFFFFFFFFFFFFFFFFFFFFFFF AND DUP2 MSTORE PUSH1 0x20 ADD SWAP1 DUP2 MSTORE PUSH1 0x20 ADD PUSH0 KECCAK256 PUSH0 DUP6 PUSH20 0xFFFFFFFFFFFFFFFFFFFFFFFFFFFFFFFFFFFFFFFF AND PUSH20 0xFFFFFFFFFFFFFFFFFFFFFFFFFFFFFFFFFFFFFFFF AND DUP2 MSTORE PUSH1 0x20 ADD SWAP1 DUP2 MSTORE PUSH1 0x20 ADD PUSH0 KECCAK256 DUP2 SWAP1 SSTORE POP DUP3 PUSH20 0xFFFFFFFFFFFFFFFFFFFFFFFFFFFFFFFFFFFFFFFF AND CALLER PUSH20 0xFFFFFFFFFFFFFFFFFFFFFFFFFFFFFFFFFFFFFFFF AND PUSH32 0x8C5BE1E5EBEC7D5BD14F71427D1E84F3DD0314C0F7B2291E5B200AC8C7C3B925 DUP5 PUSH1 0x40 MLOAD PUSH2 0x448 SWAP2 SWAP1 PUSH2 0xCED JUMP JUMPDEST PUSH1 0x40 MLOAD DUP1 SWAP2 SUB SWAP1 LOG3 PUSH1 0x1 SWAP1 POP SWAP3 SWAP2 POP POP JUMP JUMPDEST PUSH0 SLOAD DUP2 JUMP JUMPDEST PUSH0 DUP2 PUSH1 0x5 PUSH0 DUP7 PUSH20 0xFFFFFFFFFFFFFFFFFFFFFFFFFFFFFFFFFFFFFFFF AND PUSH20 0xFFFFFFFFFFFFFFFFFFFFFFFFFFFFFFFFFFFFFFFF AND DUP2 MSTORE PUSH1 0x20 ADD SWAP1 DUP2 MSTORE PUSH1 0x20 ADD PUSH0 KECCAK256 PUSH0 CALLER PUSH20 0xFFFFFFFFFFFFFFFFFFFFFFFFFFFFFFFFFFFFFFFF AND PUSH20 0xFFFFFFFFFFFFFFFFFFFFFFFFFFFFFFFFFFFFFFFF AND DUP2 MSTORE PUSH1 0x20 ADD SWAP1 DUP2 MSTORE PUSH1 0x20 ADD PUSH0 KECCAK256 SLOAD LT ISZERO PUSH2 0x51B JUMPI PUSH1 0x40 MLOAD PUSH32 0x8C379A000000000000000000000000000000000000000000000000000000000 DUP2 MSTORE PUSH1 0x4 ADD PUSH2 0x512 SWAP1 PUSH2 0xF02 JUMP JUMPDEST PUSH1 0x40 MLOAD DUP1 SWAP2 SUB SWAP1 REVERT JUMPDEST DUP2 PUSH1 0x4 PUSH0 DUP7 PUSH20 0xFFFFFFFFFFFFFFFFFFFFFFFFFFFFFFFFFFFFFFFF AND PUSH20 0xFFFFFFFFFFFFFFFFFFFFFFFFFFFFFFFFFFFFFFFF AND DUP2 MSTORE PUSH1 0x20 ADD SWAP1 DUP2 MSTORE PUSH1 0x20 ADD PUSH0 KECCAK256 SLOAD LT ISZERO PUSH2 0x59B JUMPI PUSH1 0x40 MLOAD PUSH32 0x8C379A000000000000000000000000000000000000000000000000000000000 DUP2 MSTORE PUSH1 0x4 ADD PUSH2 0x592 SWAP1 PUSH2 0xF6A JUMP JUMPDEST PUSH1 0x40 MLOAD DUP1 SWAP2 SUB SWAP1 REVERT JUMPDEST PUSH0 PUSH20 0xFFFFFFFFFFFFFFFFFFFFFFFFFFFFFFFFFFFFFFFF AND DUP4 PUSH20 0xFFFFFFFFFFFFFFFFFFFFFFFFFFFFFFFFFFFFFFFF AND SUB PUSH2 0x609 JUMPI PUSH1 0x40 MLOAD PUSH32 0x8C379A000000000000000000000000000000000000000000000000000000000 DUP2 MSTORE PUSH1 0x4 ADD PUSH2 0x600 SWAP1 PUSH2 0xE9A JUMP JUMPDEST PUSH1 0x40 MLOAD DUP1 SWAP2 SUB SWAP1 REVERT JUMPDEST DUP2 PUSH1 0x5 PUSH0 DUP7 PUSH20 0xFFFFFFFFFFFFFFFFFFFFFFFFFFFFFFFFFFFFFFFF AND PUSH20 0xFFFFFFFFFFFFFFFFFFFFFFFFFFFFFFFFFFFFFFFF AND DUP2 MSTORE PUSH1 0x20 ADD SWAP1 DUP2 MSTORE PUSH1 0x20 ADD PUSH0 KECCAK256 PUSH0 CALLER PUSH20 0xFFFFFFFFFFFFFFFFFFFFFFFFFFFFFFFFFFFFFFFF AND PUSH20 0xFFFFFFFFFFFFFFFFFFFFFFFFFFFFFFFFFFFFFFFF AND DUP2 MSTORE PUSH1 0x20 ADD SWAP1 DUP2 MSTORE PUSH1 0x20 ADD PUSH0 KECCAK256 PUSH0 DUP3 DUP3 SLOAD PUSH2 0x690 SWAP2 SWAP1 PUSH2 0xFB5 JUMP JUMPDEST SWAP3 POP POP DUP2 SWAP1 SSTORE POP DUP2 PUSH1 0x4 PUSH0 DUP7 PUSH20 0xFFFFFFFFFFFFFFFFFFFFFFFFFFFFFFFFFFFFFFFF AND PUSH20 0xFFFFFFFFFFFFFFFFFFFFFFFFFFFFFFFFFFFFFFFF AND DUP2 MSTORE PUSH1 0x20 ADD SWAP1 DUP2 MSTORE PUSH1 0x20 ADD PUSH0 KECCAK256 PUSH0 DUP3 DUP3 SLOAD PUSH2 0x6E3 SWAP2 SWAP1 PUSH2 0xFB5 JUMP JUMPDEST SWAP3 POP POP DUP2 SWAP1 SSTORE POP DUP2 PUSH1 0x4 PUSH0 DUP6 PUSH20 0xFFFFFFFFFFFFFFFFFFFFFFFFFFFFFFFFFFFFFFFF AND PUSH20 0xFFFFFFFFFFFFFFFFFFFFFFFFFFFFFFFFFFFFFFFF AND DUP2 MSTORE PUSH1 0x20 ADD SWAP1 DUP2 MSTORE PUSH1 0x20 ADD PUSH0 KECCAK256 PUSH0 DUP3 DUP3 SLOAD PUSH2 0x736 SWAP2 SWAP1 PUSH2 0xFE8 JUMP JUMPDEST SWAP3 POP POP DUP2 SWAP1 SSTORE POP DUP3 PUSH20 0xFFFFFFFFFFFFFFFFFFFFFFFFFFFFFFFFFFFFFFFF AND DUP5 PUSH20 0xFFFFFFFFFFFFFFFFFFFFFFFFFFFFFFFFFFFFFFFF AND PUSH32 0xDDF252AD1BE2C89B69C2B068FC378DAA952BA7F163C4A11628F55A4DF523B3EF DUP5 PUSH1 0x40 MLOAD PUSH2 0x79A SWAP2 SWAP1 PUSH2 0xCED JUMP JUMPDEST PUSH1 0x40 MLOAD DUP1 SWAP2 SUB SWAP1 LOG3 PUSH1 0x1 SWAP1 POP SWAP4 SWAP3 POP POP POP JUMP JUMPDEST PUSH1 0x1 PUSH0 SWAP1 SLOAD SWAP1 PUSH2 0x100 EXP SWAP1 DIV PUSH1 0xFF AND DUP2 JUMP JUMPDEST PUSH1 0x5 PUSH1 0x20 MSTORE DUP2 PUSH0 MSTORE PUSH1 0x40 PUSH0 KECCAK256 PUSH1 0x20 MSTORE DUP1 PUSH0 MSTORE PUSH1 0x40 PUSH0 KECCAK256 PUSH0 SWAP2 POP SWAP2 POP POP SLOAD DUP2 JUMP JUMPDEST PUSH1 0x4 PUSH1 0x20 MSTORE DUP1 PUSH0 MSTORE PUSH1 0x40 PUSH0 KECCAK256 PUSH0 SWAP2 POP SWAP1 POP SLOAD DUP2 JUMP JUMPDEST PUSH1 0x3 DUP1 SLOAD PUSH2 0x801 SWAP1 PUSH2 0xE20 JUMP JUMPDEST DUP1 PUSH1 0x1F ADD PUSH1 0x20 DUP1 SWAP2 DIV MUL PUSH1 0x20 ADD PUSH1 0x40 MLOAD SWAP1 DUP2 ADD PUSH1 0x40 MSTORE DUP1 SWAP3 SWAP2 SWAP1 DUP2 DUP2 MSTORE PUSH1 0x20 ADD DUP3 DUP1 SLOAD PUSH2 0x82D SWAP1 PUSH2 0xE20 JUMP JUMPDEST DUP1 ISZERO PUSH2 0x878 JUMPI DUP1 PUSH1 0x1F LT PUSH2 0x84F JUMPI PUSH2 0x100 DUP1 DUP4 SLOAD DIV MUL DUP4 MSTORE SWAP2 PUSH1 0x20 ADD SWAP2 PUSH2 0x878 JUMP JUMPDEST DUP3 ADD SWAP2 SWAP1 PUSH0 MSTORE PUSH1 0x20 PUSH0 KECCAK256 SWAP1 JUMPDEST DUP2 SLOAD DUP2 MSTORE SWAP1 PUSH1 0x1 ADD SWAP1 PUSH1 0x20 ADD DUP1 DUP4 GT PUSH2 0x85B JUMPI DUP3 SWAP1 SUB PUSH1 0x1F AND DUP3 ADD SWAP2 JUMPDEST POP POP POP POP POP DUP2 JUMP JUMPDEST PUSH0 DUP2 PUSH1 0x4 PUSH0 CALLER PUSH20 0xFFFFFFFFFFFFFFFFFFFFFFFFFFFFFFFFFFFFFFFF AND PUSH20 0xFFFFFFFFFFFFFFFFFFFFFFFFFFFFFFFFFFFFFFFF AND DUP2 MSTORE PUSH1 0x20 ADD SWAP1 DUP2 MSTORE PUSH1 0x20 ADD PUSH0 KECCAK256 SLOAD LT ISZERO PUSH2 0x901 JUMPI PUSH1 0x40 MLOAD PUSH32 0x8C379A000000000000000000000000000000000000000000000000000000000 DUP2 MSTORE PUSH1 0x4 ADD PUSH2 0x8F8 SWAP1 PUSH2 0xF6A JUMP JUMPDEST PUSH1 0x40 MLOAD DUP1 SWAP2 SUB SWAP1 REVERT JUMPDEST PUSH0 PUSH20 0xFFFFFFFFFFFFFFFFFFFFFFFFFFFFFFFFFFFFFFFF AND DUP4 PUSH20 0xFFFFFFFFFFFFFFFFFFFFFFFFFFFFFFFFFFFFFFFF AND SUB PUSH2 0x96F JUMPI PUSH1 0x40 MLOAD PUSH32 0x8C379A000000000000000000000000000000000000000000000000000000000 DUP2 MSTORE PUSH1 0x4 ADD PUSH2 0x966 SWAP1 PUSH2 0xE9A JUMP JUMPDEST PUSH1 0x40 MLOAD DUP1 SWAP2 SUB SWAP1 REVERT JUMPDEST DUP2 PUSH1 0x4 PUSH0 CALLER PUSH20 0xFFFFFFFFFFFFFFFFFFFFFFFFFFFFFFFFFFFFFFFF AND PUSH20 0xFFFFFFFFFFFFFFFFFFFFFFFFFFFFFFFFFFFFFFFF AND DUP2 MSTORE PUSH1 0x20 ADD SWAP1 DUP2 MSTORE PUSH1 0x20 ADD PUSH0 KECCAK256 PUSH0 DUP3 DUP3 SLOAD PUSH2 0x9BB SWAP2 SWAP1 PUSH2 0xFB5 JUMP JUMPDEST SWAP3 POP POP DUP2 SWAP1 SSTORE POP DUP2 PUSH1 0x4 PUSH0 DUP6 PUSH20 0xFFFFFFFFFFFFFFFFFFFFFFFFFFFFFFFFFFFFFFFF AND PUSH20 0xFFFFFFFFFFFFFFFFFFFFFFFFFFFFFFFFFFFFFFFF AND DUP2 MSTORE PUSH1 0x20 ADD SWAP1 DUP2 MSTORE PUSH1 0x20 ADD PUSH0 KECCAK256 PUSH0 DUP3 DUP3 SLOAD PUSH2 0xA0E SWAP2 SWAP1 PUSH2 0xFE8 JUMP JUMPDEST SWAP3 POP POP DUP2 SWAP1 SSTORE POP DUP3 PUSH20 0xFFFFFFFFFFFFFFFFFFFFFFFFFFFFFFFFFFFFFFFF AND CALLER PUSH20 0xFFFFFFFFFFFFFFFFFFFFFFFFFFFFFFFFFFFFFFFF AND PUSH32 0xDDF252AD1BE2C89B69C2B068FC378DAA952BA7F163C4A11628F55A4DF523B3EF DUP5 PUSH1 0x40 MLOAD PUSH2 0xA72 SWAP2 SWAP1 PUSH2 0xCED JUMP JUMPDEST PUSH1 0x40 MLOAD DUP1 SWAP2 SUB SWAP1 LOG3 PUSH1 0x1 SWAP1 POP SWAP3 SWAP2 POP POP JUMP JUMPDEST PUSH0 PUSH1 0x5 PUSH0 DUP5 PUSH20 0xFFFFFFFFFFFFFFFFFFFFFFFFFFFFFFFFFFFFFFFF AND PUSH20 0xFFFFFFFFFFFFFFFFFFFFFFFFFFFFFFFFFFFFFFFF AND DUP2 MSTORE PUSH1 0x20 ADD SWAP1 DUP2 MSTORE PUSH1 0x20 ADD PUSH0 KECCAK256 PUSH0 DUP4 PUSH20 0xFFFFFFFFFFFFFFFFFFFFFFFFFFFFFFFFFFFFFFFF AND PUSH20 0xFFFFFFFFFFFFFFFFFFFFFFFFFFFFFFFFFFFFFFFF AND DUP2 MSTORE PUSH1 0x20 ADD SWAP1 DUP2 MSTORE PUSH1 0x20 ADD PUSH0 KECCAK256 SLOAD SWAP1 POP SWAP3 SWAP2 POP POP JUMP JUMPDEST PUSH0 PUSH1 0x4 PUSH0 DUP4 PUSH20 0xFFFFFFFFFFFFFFFFFFFFFFFFFFFFFFFFFFFFFFFF AND PUSH20 0xFFFFFFFFFFFFFFFFFFFFFFFFFFFFFFFFFFFFFFFF AND DUP2 MSTORE PUSH1 0x20 ADD SWAP1 DUP2 MSTORE PUSH1 0x20 ADD PUSH0 KECCAK256 SLOAD SWAP1 POP SWAP2 SWAP1 POP JUMP JUMPDEST PUSH0 DUP2 MLOAD SWAP1 POP SWAP2 SWAP1 POP JUMP JUMPDEST PUSH0 DUP3 DUP3 MSTORE PUSH1 0x20 DUP3 ADD SWAP1 POP SWAP3 SWAP2 POP POP JUMP JUMPDEST DUP3 DUP2 DUP4 MCOPY PUSH0 DUP4 DUP4 ADD MSTORE POP POP POP JUMP JUMPDEST PUSH0 PUSH1 0x1F NOT PUSH1 0x1F DUP4 ADD AND SWAP1 POP SWAP2 SWAP1 POP JUMP JUMPDEST PUSH0 PUSH2 0xB8E DUP3 PUSH2 0xB4C JUMP JUMPDEST PUSH2 0xB98 DUP2 DUP6 PUSH2 0xB56 JUMP JUMPDEST SWAP4 POP PUSH2 0xBA8 DUP2 DUP6 PUSH1 0x20 DUP7 ADD PUSH2 0xB66 JUMP JUMPDEST PUSH2 0xBB1 DUP2 PUSH2 0xB74 JUMP JUMPDEST DUP5 ADD SWAP2 POP POP SWAP3 SWAP2 POP POP JUMP JUMPDEST PUSH0 PUSH1 0x20 DUP3 ADD SWAP1 POP DUP2 DUP2 SUB PUSH0 DUP4 ADD MSTORE PUSH2 0xBD4 DUP2 DUP5 PUSH2 0xB84 JUMP JUMPDEST SWAP1 POP SWAP3 SWAP2 POP POP JUMP JUMPDEST PUSH0 PUSH0 REVERT JUMPDEST PUSH0 PUSH20 0xFFFFFFFFFFFFFFFFFFFFFFFFFFFFFFFFFFFFFFFF DUP3 AND SWAP1 POP SWAP2 SWAP1 POP JUMP JUMPDEST PUSH0 PUSH2 0xC09 DUP3 PUSH2 0xBE0 JUMP JUMPDEST SWAP1 POP SWAP2 SWAP1 POP JUMP JUMPDEST PUSH2 0xC19 DUP2 PUSH2 0xBFF JUMP JUMPDEST DUP2 EQ PUSH2 0xC23 JUMPI PUSH0 PUSH0 REVERT JUMPDEST POP JUMP JUMPDEST PUSH0 DUP2 CALLDATALOAD SWAP1 POP PUSH2 0xC34 DUP2 PUSH2 0xC10 JUMP JUMPDEST SWAP3 SWAP2 POP POP JUMP JUMPDEST PUSH0 DUP2 SWAP1 POP SWAP2 SWAP1 POP JUMP JUMPDEST PUSH2 0xC4C DUP2 PUSH2 0xC3A JUMP JUMPDEST DUP2 EQ PUSH2 0xC56 JUMPI PUSH0 PUSH0 REVERT JUMPDEST POP JUMP JUMPDEST PUSH0 DUP2 CALLDATALOAD SWAP1 POP PUSH2 0xC67 DUP2 PUSH2 0xC43 JUMP JUMPDEST SWAP3 SWAP2 POP POP JUMP JUMPDEST PUSH0 PUSH0 PUSH1 0x40 DUP4 DUP6 SUB SLT ISZERO PUSH2 0xC83 JUMPI PUSH2 0xC82 PUSH2 0xBDC JUMP JUMPDEST JUMPDEST PUSH0 PUSH2 0xC90 DUP6 DUP3 DUP7 ADD PUSH2 0xC26 JUMP JUMPDEST SWAP3 POP POP PUSH1 0x20 PUSH2 0xCA1 DUP6 DUP3 DUP7 ADD PUSH2 0xC59 JUMP JUMPDEST SWAP2 POP POP SWAP3 POP SWAP3 SWAP1 POP JUMP JUMPDEST PUSH0 DUP2 ISZERO ISZERO SWAP1 POP SWAP2 SWAP1 POP JUMP JUMPDEST PUSH2 0xCBF DUP2 PUSH2 0xCAB JUMP JUMPDEST DUP3 MSTORE POP POP JUMP JUMPDEST PUSH0 PUSH1 0x20 DUP3 ADD SWAP1 POP PUSH2 0xCD8 PUSH0 DUP4 ADD DUP5 PUSH2 0xCB6 JUMP JUMPDEST SWAP3 SWAP2 POP POP JUMP JUMPDEST PUSH2 0xCE7 DUP2 PUSH2 0xC3A JUMP JUMPDEST DUP3 MSTORE POP POP JUMP JUMPDEST PUSH0 PUSH1 0x20 DUP3 ADD SWAP1 POP PUSH2 0xD00 PUSH0 DUP4 ADD DUP5 PUSH2 0xCDE JUMP JUMPDEST SWAP3 SWAP2 POP POP JUMP JUMPDEST PUSH0 PUSH0 PUSH0 PUSH1 0x60 DUP5 DUP7 SUB SLT ISZERO PUSH2 0xD1D JUMPI PUSH2 0xD1C PUSH2 0xBDC JUMP JUMPDEST JUMPDEST PUSH0 PUSH2 0xD2A DUP7 DUP3 DUP8 ADD PUSH2 0xC26 JUMP JUMPDEST SWAP4 POP POP PUSH1 0x20 PUSH2 0xD3B DUP7 DUP3 DUP8 ADD PUSH2 0xC26 JUMP JUMPDEST SWAP3 POP POP PUSH1 0x40 PUSH2 0xD4C DUP7 DUP3 DUP8 ADD PUSH2 0xC59 JUMP JUMPDEST SWAP2 POP POP SWAP3 POP SWAP3 POP SWAP3 JUMP JUMPDEST PUSH0 PUSH1 0xFF DUP3 AND SWAP1 POP SWAP2 SWAP1 POP JUMP JUMPDEST PUSH2 0xD6B DUP2 PUSH2 0xD56 JUMP JUMPDEST DUP3 MSTORE POP POP JUMP JUMPDEST PUSH0 PUSH1 0x20 DUP3 ADD SWAP1 POP PUSH2 0xD84 PUSH0 DUP4 ADD DUP5 PUSH2 0xD62 JUMP JUMPDEST SWAP3 SWAP2 POP POP JUMP JUMPDEST PUSH0 PUSH0 PUSH1 0x40 DUP4 DUP6 SUB SLT ISZERO PUSH2 0xDA0 JUMPI PUSH2 0xD9F PUSH2 0xBDC JUMP JUMPDEST JUMPDEST PUSH0 PUSH2 0xDAD DUP6 DUP3 DUP7 ADD PUSH2 0xC26 JUMP JUMPDEST SWAP3 POP POP PUSH1 0x20 PUSH2 0xDBE DUP6 DUP3 DUP7 ADD PUSH2 0xC26 JUMP JUMPDEST SWAP2 POP POP SWAP3 POP SWAP3 SWAP1 POP JUMP JUMPDEST PUSH0 PUSH1 0x20 DUP3 DUP5 SUB SLT ISZERO PUSH2 0xDDD JUMPI PUSH2 0xDDC PUSH2 0xBDC JUMP JUMPDEST JUMPDEST PUSH0 PUSH2 0xDEA DUP5 DUP3 DUP6 ADD PUSH2 0xC26 JUMP JUMPDEST SWAP2 POP POP SWAP3 SWAP2 POP POP JUMP JUMPDEST PUSH32 0x4E487B7100000000000000000000000000000000000000000000000000000000 PUSH0 MSTORE PUSH1 0x22 PUSH1 0x4 MSTORE PUSH1 0x24 PUSH0 REVERT JUMPDEST PUSH0 PUSH1 0x2 DUP3 DIV SWAP1 POP PUSH1 0x1 DUP3 AND DUP1 PUSH2 0xE37 JUMPI PUSH1 0x7F DUP3 AND SWAP2 POP JUMPDEST PUSH1 0x20 DUP3 LT DUP2 SUB PUSH2 0xE4A JUMPI PUSH2 0xE49 PUSH2 0xDF3 JUMP JUMPDEST JUMPDEST POP SWAP2 SWAP1 POP JUMP JUMPDEST PUSH32 0x496E76616C696420616464726573730000000000000000000000000000000000 PUSH0 DUP3 ADD MSTORE POP JUMP JUMPDEST PUSH0 PUSH2 0xE84 PUSH1 0xF DUP4 PUSH2 0xB56 JUMP JUMPDEST SWAP2 POP PUSH2 0xE8F DUP3 PUSH2 0xE50 JUMP JUMPDEST PUSH1 0x20 DUP3 ADD SWAP1 POP SWAP2 SWAP1 POP JUMP JUMPDEST PUSH0 PUSH1 0x20 DUP3 ADD SWAP1 POP DUP2 DUP2 SUB PUSH0 DUP4 ADD MSTORE PUSH2 0xEB1 DUP2 PUSH2 0xE78 JUMP JUMPDEST SWAP1 POP SWAP2 SWAP1 POP JUMP JUMPDEST PUSH32 0x416C6C6F77616E63652065786365656465640000000000000000000000000000 PUSH0 DUP3 ADD MSTORE POP JUMP JUMPDEST PUSH0 PUSH2 0xEEC PUSH1 0x12 DUP4 PUSH2 0xB56 JUMP JUMPDEST SWAP2 POP PUSH2 0xEF7 DUP3 PUSH2 0xEB8 JUMP JUMPDEST PUSH1 0x20 DUP3 ADD SWAP1 POP SWAP2 SWAP1 POP JUMP JUMPDEST PUSH0 PUSH1 0x20 DUP3 ADD SWAP1 POP DUP2 DUP2 SUB PUSH0 DUP4 ADD MSTORE PUSH2 0xF19 DUP2 PUSH2 0xEE0 JUMP JUMPDEST SWAP1 POP SWAP2 SWAP1 POP JUMP JUMPDEST PUSH32 0x496E73756666696369656E742062616C616E6365000000000000000000000000 PUSH0 DUP3 ADD MSTORE POP JUMP JUMPDEST PUSH0 PUSH2 0xF54 PUSH1 0x14 DUP4 PUSH2 0xB56 JUMP JUMPDEST SWAP2 POP PUSH2 0xF5F DUP3 PUSH2 0xF20 JUMP JUMPDEST PUSH1 0x20 DUP3 ADD SWAP1 POP SWAP2 SWAP1 POP JUMP JUMPDEST PUSH0 PUSH1 0x20 DUP3 ADD SWAP1 POP DUP2 DUP2 SUB PUSH0 DUP4 ADD MSTORE PUSH2 0xF81 DUP2 PUSH2 0xF48 JUMP JUMPDEST SWAP1 POP SWAP2 SWAP1 POP JUMP JUMPDEST PUSH32 0x4E487B7100000000000000000000000000000000000000000000000000000000 PUSH0 MSTORE PUSH1 0x11 PUSH1 0x4 MSTORE PUSH1 0x24 PUSH0 REVERT JUMPDEST PUSH0 PUSH2 0xFBF DUP3 PUSH2 0xC3A JUMP JUMPDEST SWAP2 POP PUSH2 0xFCA DUP4 PUSH2 0xC3A JUMP JUMPDEST SWAP3 POP DUP3 DUP3 SUB SWAP1 POP DUP2 DUP2 GT ISZERO PUSH2 0xFE2 JUMPI PUSH2 0xFE1 PUSH2 0xF88 JUMP JUMPDEST JUMPDEST SWAP3 SWAP2 POP POP JUMP JUMPDEST PUSH0 PUSH2 0xFF2 DUP3 PUSH2 0xC3A JUMP JUMPDEST SWAP2 POP PUSH2 0xFFD DUP4 PUSH2 0xC3A JUMP JUMPDEST SWAP3 POP DUP3 DUP3 ADD SWAP1 POP DUP1 DUP3 GT ISZERO PUSH2 0x1015 JUMPI PUSH2 0x1014 PUSH2 0xF88 JUMP JUMPDEST JUMPDEST SWAP3 SWAP2 POP POP JUMP INVALID LOG2 PUSH5 0x6970667358 0x22 SLT KECCAK256 DUP1 0xE8 DUP4 SWAP6 DUP13 0xC PUSH9 0x3FF0ABD785409FA80A LOG3 0xDF DELEGATECALL 0xD RETURN PUSH13 0x6546760E859FB62BD5C864736F PUSH13 0x634300081E0033000000000000 "
				},
				"gasEstimates": {
					"creation": {
						"codeDepositCost": "835400",
						"executionCost": "infinite",
						"totalCost": "infinite"
					},
					"external": {
						"allowance(address,address)": "infinite",
						"allowances(address,address)": "infinite",
						"approve(address,uint256)": "infinite",
						"balanceOf(address)": "2824",
						"decimals()": "2555",
						"getBalance(address)": "2939",
						"name()": "infinite",
						"symbol()": "infinite",
						"totalSupply()": "2469",
						"transfer(address,uint256)": "infinite",
						"transferFrom(address,address,uint256)": "infinite"
					}
				},
				"methodIdentifiers": {
					"allowance(address,address)": "dd62ed3e",
					"allowances(address,address)": "55b6ed5c",
					"approve(address,uint256)": "095ea7b3",
					"balanceOf(address)": "70a08231",
					"decimals()": "313ce567",
					"getBalance(address)": "f8b2cb4f",
					"name()": "06fdde03",
					"symbol()": "95d89b41",
					"totalSupply()": "18160ddd",
					"transfer(address,uint256)": "a9059cbb",
					"transferFrom(address,address,uint256)": "23b872dd"
				}
			},
			"storageLayout": {
				"storage": [
					{
						"astId": 74,
						"contract": "contracts/10.36.ERC20token.sol:ERC20",
						"label": "totalSupply",
						"offset": 0,
						"slot": "0",
						"type": "t_uint256"
					},
					{
						"astId": 77,
						"contract": "contracts/10.36.ERC20token.sol:ERC20",
						"label": "decimals",
						"offset": 0,
						"slot": "1",
						"type": "t_uint8"
					},
					{
						"astId": 80,
						"contract": "contracts/10.36.ERC20token.sol:ERC20",
						"label": "name",
						"offset": 0,
						"slot": "2",
						"type": "t_string_storage"
					},
					{
						"astId": 83,
						"contract": "contracts/10.36.ERC20token.sol:ERC20",
						"label": "symbol",
						"offset": 0,
						"slot": "3",
						"type": "t_string_storage"
					},
					{
						"astId": 87,
						"contract": "contracts/10.36.ERC20token.sol:ERC20",
						"label": "balanceOf",
						"offset": 0,
						"slot": "4",
						"type": "t_mapping(t_address,t_uint256)"
					},
					{
						"astId": 93,
						"contract": "contracts/10.36.ERC20token.sol:ERC20",
						"label": "allowances",
						"offset": 0,
						"slot": "5",
						"type": "t_mapping(t_address,t_mapping(t_address,t_uint256))"
					}
				],
				"types": {
					"t_address": {
						"encoding": "inplace",
						"label": "address",
						"numberOfBytes": "20"
					},
					"t_mapping(t_address,t_mapping(t_address,t_uint256))": {
						"encoding": "mapping",
						"key": "t_address",
						"label": "mapping(address => mapping(address => uint256))",
						"numberOfBytes": "32",
						"value": "t_mapping(t_address,t_uint256)"
					},
					"t_mapping(t_address,t_uint256)": {
						"encoding": "mapping",
						"key": "t_address",
						"label": "mapping(address => uint256)",
						"numberOfBytes": "32",
						"value": "t_uint256"
					},
					"t_string_storage": {
						"encoding": "bytes",
						"label": "string",
						"numberOfBytes": "32"
					},
					"t_uint256": {
						"encoding": "inplace",
						"label": "uint256",
						"numberOfBytes": "32"
					},
					"t_uint8": {
						"encoding": "inplace",
						"label": "uint8",
						"numberOfBytes": "1"
					}
				}
			},
			"userdoc": {
				"kind": "user",
				"methods": {},
				"version": 1
			}
		}
	}
}