{
	"contracts/evm/dynamicdata.sol": {
		"Demo": {
			"abi": [
				{
					"inputs": [],
					"stateMutability": "nonpayable",
					"type": "constructor"
				},
				{
					"inputs": [
						{
							"internalType": "uint256",
							"name": "index",
							"type": "uint256"
						},
						{
							"internalType": "uint256",
							"name": "storedArraySlot",
							"type": "uint256"
						}
					],
					"name": "getArrayElementSlot",
					"outputs": [
						{
							"internalType": "uint256",
							"name": "",
							"type": "uint256"
						}
					],
					"stateMutability": "pure",
					"type": "function"
				},
				{
					"inputs": [
						{
							"internalType": "uint256",
							"name": "slot",
							"type": "uint256"
						}
					],
					"name": "getSlotValue",
					"outputs": [
						{
							"internalType": "bytes32",
							"name": "",
							"type": "bytes32"
						}
					],
					"stateMutability": "view",
					"type": "function"
				}
			],
			"devdoc": {
				"kind": "dev",
				"methods": {},
				"version": 1
			},
			"evm": {
				"assembly": "    /* \"contracts/evm/dynamicdata.sol\":58:791  contract Demo {... */\n  mstore(0x40, 0x80)\n    /* \"contracts/evm/dynamicdata.sol\":90:96  0x1a01 */\n  0x1a01\n    /* \"contracts/evm/dynamicdata.sol\":78:96  uint256 a = 0x1a01 */\n  0x00\n  sstore\n    /* \"contracts/evm/dynamicdata.sol\":123:129  0x2a01 */\n  0x2a01\n    /* \"contracts/evm/dynamicdata.sol\":111:129  uint256 b = 0x2a01 */\n  0x01\n  sstore\n    /* \"contracts/evm/dynamicdata.sol\":196:202  0x5a01 */\n  0x5a01\n    /* \"contracts/evm/dynamicdata.sol\":184:202  uint256 d = 0x5a01 */\n  0x03\n  sstore\n    /* \"contracts/evm/dynamicdata.sol\":218:310  constructor() {... */\n  callvalue\n  dup1\n  iszero\n  tag_1\n  jumpi\n  revert(0x00, 0x00)\ntag_1:\n  pop\n    /* \"contracts/evm/dynamicdata.sol\":242:243  c */\n  0x02\n    /* \"contracts/evm/dynamicdata.sol\":249:252  0xb */\n  0x0b\n    /* \"contracts/evm/dynamicdata.sol\":242:253  c.push(0xb) */\n  swap1\n  dup1\n  0x01\n  dup2\n  sload\n  add\n  dup1\n  dup3\n  sstore\n  dup1\n  swap2\n  pop\n  pop\n  0x01\n  swap1\n  sub\n  swap1\n  0x00\n  mstore\n  keccak256(0x00, 0x20)\n  add\n  0x00\n  swap1\n  swap2\n  swap1\n  swap2\n  swap1\n  swap2\n  pop\n  sstore\n    /* \"contracts/evm/dynamicdata.sol\":263:264  c */\n  0x02\n    /* \"contracts/evm/dynamicdata.sol\":270:278  0xef2134 */\n  0xef2134\n    /* \"contracts/evm/dynamicdata.sol\":263:279  c.push(0xef2134) */\n  swap1\n  dup1\n  0x01\n  dup2\n  sload\n  add\n  dup1\n  dup3\n  sstore\n  dup1\n  swap2\n  pop\n  pop\n  0x01\n  swap1\n  sub\n  swap1\n  0x00\n  mstore\n  keccak256(0x00, 0x20)\n  add\n  0x00\n  swap1\n  swap2\n  swap1\n  swap2\n  swap1\n  swap2\n  pop\n  sstore\n    /* \"contracts/evm/dynamicdata.sol\":289:290  c */\n  0x02\n    /* \"contracts/evm/dynamicdata.sol\":296:302  0x2342 */\n  0x2342\n    /* \"contracts/evm/dynamicdata.sol\":289:303  c.push(0x2342) */\n  swap1\n  dup1\n  0x01\n  dup2\n  sload\n  add\n  dup1\n  dup3\n  sstore\n  dup1\n  swap2\n  pop\n  pop\n  0x01\n  swap1\n  sub\n  swap1\n  0x00\n  mstore\n  keccak256(0x00, 0x20)\n  add\n  0x00\n  swap1\n  swap2\n  swap1\n  swap2\n  swap1\n  swap2\n  pop\n  sstore\n    /* \"contracts/evm/dynamicdata.sol\":58:791  contract Demo {... */\n  dataSize(sub_0)\n  dup1\n  dataOffset(sub_0)\n  0x00\n  codecopy\n  0x00\n  return\nstop\n\nsub_0: assembly {\n        /* \"contracts/evm/dynamicdata.sol\":58:791  contract Demo {... */\n      mstore(0x40, 0x80)\n      callvalue\n      dup1\n      iszero\n      tag_1\n      jumpi\n      revert(0x00, 0x00)\n    tag_1:\n      pop\n      jumpi(tag_2, lt(calldatasize, 0x04))\n      shr(0xe0, calldataload(0x00))\n      dup1\n      0x591f5dd3\n      eq\n      tag_3\n      jumpi\n      dup1\n      0xe5745463\n      eq\n      tag_4\n      jumpi\n    tag_2:\n      revert(0x00, 0x00)\n        /* \"contracts/evm/dynamicdata.sol\":316:603  function getArrayElementSlot(uint256 index, uint256 storedArraySlot)... */\n    tag_3:\n      tag_5\n      0x04\n      dup1\n      calldatasize\n      sub\n      dup2\n      add\n      swap1\n      tag_6\n      swap2\n      swap1\n      tag_7\n      jump\t// in\n    tag_6:\n      tag_8\n      jump\t// in\n    tag_5:\n      mload(0x40)\n      tag_9\n      swap2\n      swap1\n      tag_10\n      jump\t// in\n    tag_9:\n      mload(0x40)\n      dup1\n      swap2\n      sub\n      swap1\n      return\n        /* \"contracts/evm/dynamicdata.sol\":609:789  function getSlotValue(uint256 slot) public view returns (bytes32) {... */\n    tag_4:\n      tag_11\n      0x04\n      dup1\n      calldatasize\n      sub\n      dup2\n      add\n      swap1\n      tag_12\n      swap2\n      swap1\n      tag_13\n      jump\t// in\n    tag_12:\n      tag_14\n      jump\t// in\n    tag_11:\n      mload(0x40)\n      tag_15\n      swap2\n      swap1\n      tag_16\n      jump\t// in\n    tag_15:\n      mload(0x40)\n      dup1\n      swap2\n      sub\n      swap1\n      return\n        /* \"contracts/evm/dynamicdata.sol\":316:603  function getArrayElementSlot(uint256 index, uint256 storedArraySlot)... */\n    tag_8:\n        /* \"contracts/evm/dynamicdata.sol\":430:437  uint256 */\n      0x00\n        /* \"contracts/evm/dynamicdata.sol\":453:477  uint256 arrayElementSlot */\n      0x00\n        /* \"contracts/evm/dynamicdata.sol\":558:563  index */\n      dup4\n        /* \"contracts/evm/dynamicdata.sol\":528:543  storedArraySlot */\n      dup4\n        /* \"contracts/evm/dynamicdata.sol\":511:544  abi.encodePacked(storedArraySlot) */\n      add(0x20, mload(0x40))\n      tag_18\n      swap2\n      swap1\n      tag_19\n      jump\t// in\n    tag_18:\n      mload(0x40)\n      0x20\n      dup2\n      dup4\n      sub\n      sub\n      dup2\n      mstore\n      swap1\n      0x40\n      mstore\n        /* \"contracts/evm/dynamicdata.sol\":501:545  keccak256(abi.encodePacked(storedArraySlot)) */\n      dup1\n      mload\n      swap1\n      0x20\n      add\n      keccak256\n        /* \"contracts/evm/dynamicdata.sol\":480:555  uint256(... */\n      0x00\n      shr\n        /* \"contracts/evm/dynamicdata.sol\":480:563  uint256(... */\n      tag_20\n      swap2\n      swap1\n      tag_21\n      jump\t// in\n    tag_20:\n        /* \"contracts/evm/dynamicdata.sol\":453:563  uint256 arrayElementSlot = uint256(... */\n      swap1\n      pop\n        /* \"contracts/evm/dynamicdata.sol\":580:596  arrayElementSlot */\n      dup1\n        /* \"contracts/evm/dynamicdata.sol\":573:596  return arrayElementSlot */\n      swap2\n      pop\n      pop\n        /* \"contracts/evm/dynamicdata.sol\":316:603  function getArrayElementSlot(uint256 index, uint256 storedArraySlot)... */\n      swap3\n      swap2\n      pop\n      pop\n      jump\t// out\n        /* \"contracts/evm/dynamicdata.sol\":609:789  function getSlotValue(uint256 slot) public view returns (bytes32) {... */\n    tag_14:\n        /* \"contracts/evm/dynamicdata.sol\":666:673  bytes32 */\n      0x00\n        /* \"contracts/evm/dynamicdata.sol\":685:698  bytes32 value */\n      0x00\n        /* \"contracts/evm/dynamicdata.sol\":746:750  slot */\n      dup3\n        /* \"contracts/evm/dynamicdata.sol\":740:751  sload(slot) */\n      sload\n        /* \"contracts/evm/dynamicdata.sol\":731:751  value := sload(slot) */\n      swap1\n      pop\n        /* \"contracts/evm/dynamicdata.sol\":777:782  value */\n      dup1\n        /* \"contracts/evm/dynamicdata.sol\":770:782  return value */\n      swap2\n      pop\n      pop\n        /* \"contracts/evm/dynamicdata.sol\":609:789  function getSlotValue(uint256 slot) public view returns (bytes32) {... */\n      swap2\n      swap1\n      pop\n      jump\t// out\n        /* \"#utility.yul\":88:205   */\n    tag_24:\n        /* \"#utility.yul\":197:198   */\n      0x00\n        /* \"#utility.yul\":194:195   */\n      0x00\n        /* \"#utility.yul\":187:199   */\n      revert\n        /* \"#utility.yul\":334:411   */\n    tag_26:\n        /* \"#utility.yul\":371:378   */\n      0x00\n        /* \"#utility.yul\":400:405   */\n      dup2\n        /* \"#utility.yul\":389:405   */\n      swap1\n      pop\n        /* \"#utility.yul\":334:411   */\n      swap2\n      swap1\n      pop\n      jump\t// out\n        /* \"#utility.yul\":417:539   */\n    tag_27:\n        /* \"#utility.yul\":490:514   */\n      tag_41\n        /* \"#utility.yul\":508:513   */\n      dup2\n        /* \"#utility.yul\":490:514   */\n      tag_26\n      jump\t// in\n    tag_41:\n        /* \"#utility.yul\":483:488   */\n      dup2\n        /* \"#utility.yul\":480:515   */\n      eq\n        /* \"#utility.yul\":470:533   */\n      tag_42\n      jumpi\n        /* \"#utility.yul\":529:530   */\n      0x00\n        /* \"#utility.yul\":526:527   */\n      0x00\n        /* \"#utility.yul\":519:531   */\n      revert\n        /* \"#utility.yul\":470:533   */\n    tag_42:\n        /* \"#utility.yul\":417:539   */\n      pop\n      jump\t// out\n        /* \"#utility.yul\":545:684   */\n    tag_28:\n        /* \"#utility.yul\":591:596   */\n      0x00\n        /* \"#utility.yul\":629:635   */\n      dup2\n        /* \"#utility.yul\":616:636   */\n      calldataload\n        /* \"#utility.yul\":607:636   */\n      swap1\n      pop\n        /* \"#utility.yul\":645:678   */\n      tag_44\n        /* \"#utility.yul\":672:677   */\n      dup2\n        /* \"#utility.yul\":645:678   */\n      tag_27\n      jump\t// in\n    tag_44:\n        /* \"#utility.yul\":545:684   */\n      swap3\n      swap2\n      pop\n      pop\n      jump\t// out\n        /* \"#utility.yul\":690:1164   */\n    tag_7:\n        /* \"#utility.yul\":758:764   */\n      0x00\n        /* \"#utility.yul\":766:772   */\n      0x00\n        /* \"#utility.yul\":815:817   */\n      0x40\n        /* \"#utility.yul\":803:812   */\n      dup4\n        /* \"#utility.yul\":794:801   */\n      dup6\n        /* \"#utility.yul\":790:813   */\n      sub\n        /* \"#utility.yul\":786:818   */\n      slt\n        /* \"#utility.yul\":783:902   */\n      iszero\n      tag_46\n      jumpi\n        /* \"#utility.yul\":821:900   */\n      tag_47\n      tag_24\n      jump\t// in\n    tag_47:\n        /* \"#utility.yul\":783:902   */\n    tag_46:\n        /* \"#utility.yul\":941:942   */\n      0x00\n        /* \"#utility.yul\":966:1019   */\n      tag_48\n        /* \"#utility.yul\":1011:1018   */\n      dup6\n        /* \"#utility.yul\":1002:1008   */\n      dup3\n        /* \"#utility.yul\":991:1000   */\n      dup7\n        /* \"#utility.yul\":987:1009   */\n      add\n        /* \"#utility.yul\":966:1019   */\n      tag_28\n      jump\t// in\n    tag_48:\n        /* \"#utility.yul\":956:1019   */\n      swap3\n      pop\n        /* \"#utility.yul\":912:1029   */\n      pop\n        /* \"#utility.yul\":1068:1070   */\n      0x20\n        /* \"#utility.yul\":1094:1147   */\n      tag_49\n        /* \"#utility.yul\":1139:1146   */\n      dup6\n        /* \"#utility.yul\":1130:1136   */\n      dup3\n        /* \"#utility.yul\":1119:1128   */\n      dup7\n        /* \"#utility.yul\":1115:1137   */\n      add\n        /* \"#utility.yul\":1094:1147   */\n      tag_28\n      jump\t// in\n    tag_49:\n        /* \"#utility.yul\":1084:1147   */\n      swap2\n      pop\n        /* \"#utility.yul\":1039:1157   */\n      pop\n        /* \"#utility.yul\":690:1164   */\n      swap3\n      pop\n      swap3\n      swap1\n      pop\n      jump\t// out\n        /* \"#utility.yul\":1170:1288   */\n    tag_29:\n        /* \"#utility.yul\":1257:1281   */\n      tag_51\n        /* \"#utility.yul\":1275:1280   */\n      dup2\n        /* \"#utility.yul\":1257:1281   */\n      tag_26\n      jump\t// in\n    tag_51:\n        /* \"#utility.yul\":1252:1255   */\n      dup3\n        /* \"#utility.yul\":1245:1282   */\n      mstore\n        /* \"#utility.yul\":1170:1288   */\n      pop\n      pop\n      jump\t// out\n        /* \"#utility.yul\":1294:1516   */\n    tag_10:\n        /* \"#utility.yul\":1387:1391   */\n      0x00\n        /* \"#utility.yul\":1425:1427   */\n      0x20\n        /* \"#utility.yul\":1414:1423   */\n      dup3\n        /* \"#utility.yul\":1410:1428   */\n      add\n        /* \"#utility.yul\":1402:1428   */\n      swap1\n      pop\n        /* \"#utility.yul\":1438:1509   */\n      tag_53\n        /* \"#utility.yul\":1506:1507   */\n      0x00\n        /* \"#utility.yul\":1495:1504   */\n      dup4\n        /* \"#utility.yul\":1491:1508   */\n      add\n        /* \"#utility.yul\":1482:1488   */\n      dup5\n        /* \"#utility.yul\":1438:1509   */\n      tag_29\n      jump\t// in\n    tag_53:\n        /* \"#utility.yul\":1294:1516   */\n      swap3\n      swap2\n      pop\n      pop\n      jump\t// out\n        /* \"#utility.yul\":1522:1851   */\n    tag_13:\n        /* \"#utility.yul\":1581:1587   */\n      0x00\n        /* \"#utility.yul\":1630:1632   */\n      0x20\n        /* \"#utility.yul\":1618:1627   */\n      dup3\n        /* \"#utility.yul\":1609:1616   */\n      dup5\n        /* \"#utility.yul\":1605:1628   */\n      sub\n        /* \"#utility.yul\":1601:1633   */\n      slt\n        /* \"#utility.yul\":1598:1717   */\n      iszero\n      tag_55\n      jumpi\n        /* \"#utility.yul\":1636:1715   */\n      tag_56\n      tag_24\n      jump\t// in\n    tag_56:\n        /* \"#utility.yul\":1598:1717   */\n    tag_55:\n        /* \"#utility.yul\":1756:1757   */\n      0x00\n        /* \"#utility.yul\":1781:1834   */\n      tag_57\n        /* \"#utility.yul\":1826:1833   */\n      dup5\n        /* \"#utility.yul\":1817:1823   */\n      dup3\n        /* \"#utility.yul\":1806:1815   */\n      dup6\n        /* \"#utility.yul\":1802:1824   */\n      add\n        /* \"#utility.yul\":1781:1834   */\n      tag_28\n      jump\t// in\n    tag_57:\n        /* \"#utility.yul\":1771:1834   */\n      swap2\n      pop\n        /* \"#utility.yul\":1727:1844   */\n      pop\n        /* \"#utility.yul\":1522:1851   */\n      swap3\n      swap2\n      pop\n      pop\n      jump\t// out\n        /* \"#utility.yul\":1857:1934   */\n    tag_30:\n        /* \"#utility.yul\":1894:1901   */\n      0x00\n        /* \"#utility.yul\":1923:1928   */\n      dup2\n        /* \"#utility.yul\":1912:1928   */\n      swap1\n      pop\n        /* \"#utility.yul\":1857:1934   */\n      swap2\n      swap1\n      pop\n      jump\t// out\n        /* \"#utility.yul\":1940:2058   */\n    tag_31:\n        /* \"#utility.yul\":2027:2051   */\n      tag_60\n        /* \"#utility.yul\":2045:2050   */\n      dup2\n        /* \"#utility.yul\":2027:2051   */\n      tag_30\n      jump\t// in\n    tag_60:\n        /* \"#utility.yul\":2022:2025   */\n      dup3\n        /* \"#utility.yul\":2015:2052   */\n      mstore\n        /* \"#utility.yul\":1940:2058   */\n      pop\n      pop\n      jump\t// out\n        /* \"#utility.yul\":2064:2286   */\n    tag_16:\n        /* \"#utility.yul\":2157:2161   */\n      0x00\n        /* \"#utility.yul\":2195:2197   */\n      0x20\n        /* \"#utility.yul\":2184:2193   */\n      dup3\n        /* \"#utility.yul\":2180:2198   */\n      add\n        /* \"#utility.yul\":2172:2198   */\n      swap1\n      pop\n        /* \"#utility.yul\":2208:2279   */\n      tag_62\n        /* \"#utility.yul\":2276:2277   */\n      0x00\n        /* \"#utility.yul\":2265:2274   */\n      dup4\n        /* \"#utility.yul\":2261:2278   */\n      add\n        /* \"#utility.yul\":2252:2258   */\n      dup5\n        /* \"#utility.yul\":2208:2279   */\n      tag_31\n      jump\t// in\n    tag_62:\n        /* \"#utility.yul\":2064:2286   */\n      swap3\n      swap2\n      pop\n      pop\n      jump\t// out\n        /* \"#utility.yul\":2292:2371   */\n    tag_32:\n        /* \"#utility.yul\":2331:2338   */\n      0x00\n        /* \"#utility.yul\":2360:2365   */\n      dup2\n        /* \"#utility.yul\":2349:2365   */\n      swap1\n      pop\n        /* \"#utility.yul\":2292:2371   */\n      swap2\n      swap1\n      pop\n      jump\t// out\n        /* \"#utility.yul\":2377:2534   */\n    tag_33:\n        /* \"#utility.yul\":2482:2527   */\n      tag_65\n        /* \"#utility.yul\":2502:2526   */\n      tag_66\n        /* \"#utility.yul\":2520:2525   */\n      dup3\n        /* \"#utility.yul\":2502:2526   */\n      tag_26\n      jump\t// in\n    tag_66:\n        /* \"#utility.yul\":2482:2527   */\n      tag_32\n      jump\t// in\n    tag_65:\n        /* \"#utility.yul\":2477:2480   */\n      dup3\n        /* \"#utility.yul\":2470:2528   */\n      mstore\n        /* \"#utility.yul\":2377:2534   */\n      pop\n      pop\n      jump\t// out\n        /* \"#utility.yul\":2540:2796   */\n    tag_19:\n        /* \"#utility.yul\":2652:2655   */\n      0x00\n        /* \"#utility.yul\":2667:2742   */\n      tag_68\n        /* \"#utility.yul\":2738:2741   */\n      dup3\n        /* \"#utility.yul\":2729:2735   */\n      dup5\n        /* \"#utility.yul\":2667:2742   */\n      tag_33\n      jump\t// in\n    tag_68:\n        /* \"#utility.yul\":2767:2769   */\n      0x20\n        /* \"#utility.yul\":2762:2765   */\n      dup3\n        /* \"#utility.yul\":2758:2770   */\n      add\n        /* \"#utility.yul\":2751:2770   */\n      swap2\n      pop\n        /* \"#utility.yul\":2787:2790   */\n      dup2\n        /* \"#utility.yul\":2780:2790   */\n      swap1\n      pop\n        /* \"#utility.yul\":2540:2796   */\n      swap3\n      swap2\n      pop\n      pop\n      jump\t// out\n        /* \"#utility.yul\":2802:2982   */\n    tag_34:\n        /* \"#utility.yul\":2850:2927   */\n      0x4e487b7100000000000000000000000000000000000000000000000000000000\n        /* \"#utility.yul\":2847:2848   */\n      0x00\n        /* \"#utility.yul\":2840:2928   */\n      mstore\n        /* \"#utility.yul\":2947:2951   */\n      0x11\n        /* \"#utility.yul\":2944:2945   */\n      0x04\n        /* \"#utility.yul\":2937:2952   */\n      mstore\n        /* \"#utility.yul\":2971:2975   */\n      0x24\n        /* \"#utility.yul\":2968:2969   */\n      0x00\n        /* \"#utility.yul\":2961:2976   */\n      revert\n        /* \"#utility.yul\":2988:3179   */\n    tag_21:\n        /* \"#utility.yul\":3028:3031   */\n      0x00\n        /* \"#utility.yul\":3047:3067   */\n      tag_71\n        /* \"#utility.yul\":3065:3066   */\n      dup3\n        /* \"#utility.yul\":3047:3067   */\n      tag_26\n      jump\t// in\n    tag_71:\n        /* \"#utility.yul\":3042:3067   */\n      swap2\n      pop\n        /* \"#utility.yul\":3081:3101   */\n      tag_72\n        /* \"#utility.yul\":3099:3100   */\n      dup4\n        /* \"#utility.yul\":3081:3101   */\n      tag_26\n      jump\t// in\n    tag_72:\n        /* \"#utility.yul\":3076:3101   */\n      swap3\n      pop\n        /* \"#utility.yul\":3124:3125   */\n      dup3\n        /* \"#utility.yul\":3121:3122   */\n      dup3\n        /* \"#utility.yul\":3117:3126   */\n      add\n        /* \"#utility.yul\":3110:3126   */\n      swap1\n      pop\n        /* \"#utility.yul\":3145:3148   */\n      dup1\n        /* \"#utility.yul\":3142:3143   */\n      dup3\n        /* \"#utility.yul\":3139:3149   */\n      gt\n        /* \"#utility.yul\":3136:3172   */\n      iszero\n      tag_73\n      jumpi\n        /* \"#utility.yul\":3152:3170   */\n      tag_74\n      tag_34\n      jump\t// in\n    tag_74:\n        /* \"#utility.yul\":3136:3172   */\n    tag_73:\n        /* \"#utility.yul\":2988:3179   */\n      swap3\n      swap2\n      pop\n      pop\n      jump\t// out\n\n    auxdata: 0xa26469706673582212203e3720aa55127b3e81fe9d22f2cd954849fbe989986ea226ec8ec918dbef579964736f6c634300081e0033\n}\n",
				"bytecode": {
					"linkReferences": {},
					"object": "6080604052611a015f55612a01600155615a01600355348015601f575f5ffd5b506002600b908060018154018082558091505060019003905f5260205f20015f9091909190915055600262ef2134908060018154018082558091505060019003905f5260205f20015f90919091909150556002612342908060018154018082558091505060019003905f5260205f20015f90919091909150556102b2806100a55f395ff3fe608060405234801561000f575f5ffd5b5060043610610034575f3560e01c8063591f5dd314610038578063e574546314610068575b5f5ffd5b610052600480360381019061004d9190610120565b610098565b60405161005f919061016d565b60405180910390f35b610082600480360381019061007d9190610186565b6100da565b60405161008f91906101c9565b60405180910390f35b5f5f83836040516020016100ac9190610202565b604051602081830303815290604052805190602001205f1c6100ce9190610249565b90508091505092915050565b5f5f8254905080915050919050565b5f5ffd5b5f819050919050565b6100ff816100ed565b8114610109575f5ffd5b50565b5f8135905061011a816100f6565b92915050565b5f5f60408385031215610136576101356100e9565b5b5f6101438582860161010c565b92505060206101548582860161010c565b9150509250929050565b610167816100ed565b82525050565b5f6020820190506101805f83018461015e565b92915050565b5f6020828403121561019b5761019a6100e9565b5b5f6101a88482850161010c565b91505092915050565b5f819050919050565b6101c3816101b1565b82525050565b5f6020820190506101dc5f8301846101ba565b92915050565b5f819050919050565b6101fc6101f7826100ed565b6101e2565b82525050565b5f61020d82846101eb565b60208201915081905092915050565b7f4e487b71000000000000000000000000000000000000000000000000000000005f52601160045260245ffd5b5f610253826100ed565b915061025e836100ed565b92508282019050808211156102765761027561021c565b5b9291505056fea26469706673582212203e3720aa55127b3e81fe9d22f2cd954849fbe989986ea226ec8ec918dbef579964736f6c634300081e0033",
					"opcodes": "PUSH1 0x80 PUSH1 0x40 MSTORE PUSH2 0x1A01 PUSH0 SSTORE PUSH2 0x2A01 PUSH1 0x1 SSTORE PUSH2 0x5A01 PUSH1 0x3 SSTORE CALLVALUE DUP1 ISZERO PUSH1 0x1F JUMPI PUSH0 PUSH0 REVERT JUMPDEST POP PUSH1 0x2 PUSH1 0xB SWAP1 DUP1 PUSH1 0x1 DUP2 SLOAD ADD DUP1 DUP3 SSTORE DUP1 SWAP2 POP POP PUSH1 0x1 SWAP1 SUB SWAP1 PUSH0 MSTORE PUSH1 0x20 PUSH0 KECCAK256 ADD PUSH0 SWAP1 SWAP2 SWAP1 SWAP2 SWAP1 SWAP2 POP SSTORE PUSH1 0x2 PUSH3 0xEF2134 SWAP1 DUP1 PUSH1 0x1 DUP2 SLOAD ADD DUP1 DUP3 SSTORE DUP1 SWAP2 POP POP PUSH1 0x1 SWAP1 SUB SWAP1 PUSH0 MSTORE PUSH1 0x20 PUSH0 KECCAK256 ADD PUSH0 SWAP1 SWAP2 SWAP1 SWAP2 SWAP1 SWAP2 POP SSTORE PUSH1 0x2 PUSH2 0x2342 SWAP1 DUP1 PUSH1 0x1 DUP2 SLOAD ADD DUP1 DUP3 SSTORE DUP1 SWAP2 POP POP PUSH1 0x1 SWAP1 SUB SWAP1 PUSH0 MSTORE PUSH1 0x20 PUSH0 KECCAK256 ADD PUSH0 SWAP1 SWAP2 SWAP1 SWAP2 SWAP1 SWAP2 POP SSTORE PUSH2 0x2B2 DUP1 PUSH2 0xA5 PUSH0 CODECOPY PUSH0 RETURN INVALID PUSH1 0x80 PUSH1 0x40 MSTORE CALLVALUE DUP1 ISZERO PUSH2 0xF JUMPI PUSH0 PUSH0 REVERT JUMPDEST POP PUSH1 0x4 CALLDATASIZE LT PUSH2 0x34 JUMPI PUSH0 CALLDATALOAD PUSH1 0xE0 SHR DUP1 PUSH4 0x591F5DD3 EQ PUSH2 0x38 JUMPI DUP1 PUSH4 0xE5745463 EQ PUSH2 0x68 JUMPI JUMPDEST PUSH0 PUSH0 REVERT JUMPDEST PUSH2 0x52 PUSH1 0x4 DUP1 CALLDATASIZE SUB DUP2 ADD SWAP1 PUSH2 0x4D SWAP2 SWAP1 PUSH2 0x120 JUMP JUMPDEST PUSH2 0x98 JUMP JUMPDEST PUSH1 0x40 MLOAD PUSH2 0x5F SWAP2 SWAP1 PUSH2 0x16D JUMP JUMPDEST PUSH1 0x40 MLOAD DUP1 SWAP2 SUB SWAP1 RETURN JUMPDEST PUSH2 0x82 PUSH1 0x4 DUP1 CALLDATASIZE SUB DUP2 ADD SWAP1 PUSH2 0x7D SWAP2 SWAP1 PUSH2 0x186 JUMP JUMPDEST PUSH2 0xDA JUMP JUMPDEST PUSH1 0x40 MLOAD PUSH2 0x8F SWAP2 SWAP1 PUSH2 0x1C9 JUMP JUMPDEST PUSH1 0x40 MLOAD DUP1 SWAP2 SUB SWAP1 RETURN JUMPDEST PUSH0 PUSH0 DUP4 DUP4 PUSH1 0x40 MLOAD PUSH1 0x20 ADD PUSH2 0xAC SWAP2 SWAP1 PUSH2 0x202 JUMP JUMPDEST PUSH1 0x40 MLOAD PUSH1 0x20 DUP2 DUP4 SUB SUB DUP2 MSTORE SWAP1 PUSH1 0x40 MSTORE DUP1 MLOAD SWAP1 PUSH1 0x20 ADD KECCAK256 PUSH0 SHR PUSH2 0xCE SWAP2 SWAP1 PUSH2 0x249 JUMP JUMPDEST SWAP1 POP DUP1 SWAP2 POP POP SWAP3 SWAP2 POP POP JUMP JUMPDEST PUSH0 PUSH0 DUP3 SLOAD SWAP1 POP DUP1 SWAP2 POP POP SWAP2 SWAP1 POP JUMP JUMPDEST PUSH0 PUSH0 REVERT JUMPDEST PUSH0 DUP2 SWAP1 POP SWAP2 SWAP1 POP JUMP JUMPDEST PUSH2 0xFF DUP2 PUSH2 0xED JUMP JUMPDEST DUP2 EQ PUSH2 0x109 JUMPI PUSH0 PUSH0 REVERT JUMPDEST POP JUMP JUMPDEST PUSH0 DUP2 CALLDATALOAD SWAP1 POP PUSH2 0x11A DUP2 PUSH2 0xF6 JUMP JUMPDEST SWAP3 SWAP2 POP POP JUMP JUMPDEST PUSH0 PUSH0 PUSH1 0x40 DUP4 DUP6 SUB SLT ISZERO PUSH2 0x136 JUMPI PUSH2 0x135 PUSH2 0xE9 JUMP JUMPDEST JUMPDEST PUSH0 PUSH2 0x143 DUP6 DUP3 DUP7 ADD PUSH2 0x10C JUMP JUMPDEST SWAP3 POP POP PUSH1 0x20 PUSH2 0x154 DUP6 DUP3 DUP7 ADD PUSH2 0x10C JUMP JUMPDEST SWAP2 POP POP SWAP3 POP SWAP3 SWAP1 POP JUMP JUMPDEST PUSH2 0x167 DUP2 PUSH2 0xED JUMP JUMPDEST DUP3 MSTORE POP POP JUMP JUMPDEST PUSH0 PUSH1 0x20 DUP3 ADD SWAP1 POP PUSH2 0x180 PUSH0 DUP4 ADD DUP5 PUSH2 0x15E JUMP JUMPDEST SWAP3 SWAP2 POP POP JUMP JUMPDEST PUSH0 PUSH1 0x20 DUP3 DUP5 SUB SLT ISZERO PUSH2 0x19B JUMPI PUSH2 0x19A PUSH2 0xE9 JUMP JUMPDEST JUMPDEST PUSH0 PUSH2 0x1A8 DUP5 DUP3 DUP6 ADD PUSH2 0x10C JUMP JUMPDEST SWAP2 POP POP SWAP3 SWAP2 POP POP JUMP JUMPDEST PUSH0 DUP2 SWAP1 POP SWAP2 SWAP1 POP JUMP JUMPDEST PUSH2 0x1C3 DUP2 PUSH2 0x1B1 JUMP JUMPDEST DUP3 MSTORE POP POP JUMP JUMPDEST PUSH0 PUSH1 0x20 DUP3 ADD SWAP1 POP PUSH2 0x1DC PUSH0 DUP4 ADD DUP5 PUSH2 0x1BA JUMP JUMPDEST SWAP3 SWAP2 POP POP JUMP JUMPDEST PUSH0 DUP2 SWAP1 POP SWAP2 SWAP1 POP JUMP JUMPDEST PUSH2 0x1FC PUSH2 0x1F7 DUP3 PUSH2 0xED JUMP JUMPDEST PUSH2 0x1E2 JUMP JUMPDEST DUP3 MSTORE POP POP JUMP JUMPDEST PUSH0 PUSH2 0x20D DUP3 DUP5 PUSH2 0x1EB JUMP JUMPDEST PUSH1 0x20 DUP3 ADD SWAP2 POP DUP2 SWAP1 POP SWAP3 SWAP2 POP POP JUMP JUMPDEST PUSH32 0x4E487B7100000000000000000000000000000000000000000000000000000000 PUSH0 MSTORE PUSH1 0x11 PUSH1 0x4 MSTORE PUSH1 0x24 PUSH0 REVERT JUMPDEST PUSH0 PUSH2 0x253 DUP3 PUSH2 0xED JUMP JUMPDEST SWAP2 POP PUSH2 0x25E DUP4 PUSH2 0xED JUMP JUMPDEST SWAP3 POP DUP3 DUP3 ADD SWAP1 POP DUP1 DUP3 GT ISZERO PUSH2 0x276 JUMPI PUSH2 0x275 PUSH2 0x21C JUMP JUMPDEST JUMPDEST SWAP3 SWAP2 POP POP JUMP INVALID LOG2 PUSH5 0x6970667358 0x22 SLT KECCAK256 RETURNDATACOPY CALLDATACOPY KECCAK256 0xAA SSTORE SLT PUSH28 0x3E81FE9D22F2CD954849FBE989986EA226EC8EC918DBEF579964736F PUSH13 0x634300081E0033000000000000 "
				},
				"gasEstimates": {
					"creation": {
						"codeDepositCost": "138000",
						"executionCost": "205758",
						"totalCost": "343758"
					},
					"external": {
						"getArrayElementSlot(uint256,uint256)": "infinite",
						"getSlotValue(uint256)": "2705"
					}
				},
				"methodIdentifiers": {
					"getArrayElementSlot(uint256,uint256)": "591f5dd3",
					"getSlotValue(uint256)": "e5745463"
				}
			},
			"storageLayout": {
				"storage": [
					{
						"astId": 4,
						"contract": "contracts/evm/dynamicdata.sol:Demo",
						"label": "a",
						"offset": 0,
						"slot": "0",
						"type": "t_uint256"
					},
					{
						"astId": 7,
						"contract": "contracts/evm/dynamicdata.sol:Demo",
						"label": "b",
						"offset": 0,
						"slot": "1",
						"type": "t_uint256"
					},
					{
						"astId": 10,
						"contract": "contracts/evm/dynamicdata.sol:Demo",
						"label": "c",
						"offset": 0,
						"slot": "2",
						"type": "t_array(t_uint256)dyn_storage"
					},
					{
						"astId": 13,
						"contract": "contracts/evm/dynamicdata.sol:Demo",
						"label": "d",
						"offset": 0,
						"slot": "3",
						"type": "t_uint256"
					}
				],
				"types": {
					"t_array(t_uint256)dyn_storage": {
						"base": "t_uint256",
						"encoding": "dynamic_array",
						"label": "uint256[]",
						"numberOfBytes": "32"
					},
					"t_uint256": {
						"encoding": "inplace",
						"label": "uint256",
						"numberOfBytes": "32"
					}
				}
			},
			"userdoc": {
				"kind": "user",
				"methods": {},
				"version": 1
			}
		}
	}
}