{
	"contracts/10.20.arrayofstruct.sol": {
		"Library": {
			"abi": [
				{
					"inputs": [
						{
							"internalType": "uint256",
							"name": "_id",
							"type": "uint256"
						},
						{
							"internalType": "string",
							"name": "_title",
							"type": "string"
						},
						{
							"internalType": "string",
							"name": "_author",
							"type": "string"
						}
					],
					"name": "addBook",
					"outputs": [],
					"stateMutability": "nonpayable",
					"type": "function"
				},
				{
					"inputs": [
						{
							"internalType": "uint256",
							"name": "",
							"type": "uint256"
						}
					],
					"name": "bookIdToIndex",
					"outputs": [
						{
							"internalType": "uint256",
							"name": "",
							"type": "uint256"
						}
					],
					"stateMutability": "view",
					"type": "function"
				},
				{
					"inputs": [
						{
							"internalType": "uint256",
							"name": "",
							"type": "uint256"
						}
					],
					"name": "books",
					"outputs": [
						{
							"internalType": "uint256",
							"name": "id",
							"type": "uint256"
						},
						{
							"internalType": "string",
							"name": "title",
							"type": "string"
						},
						{
							"internalType": "string",
							"name": "author",
							"type": "string"
						}
					],
					"stateMutability": "view",
					"type": "function"
				},
				{
					"inputs": [
						{
							"internalType": "uint256",
							"name": "_id",
							"type": "uint256"
						}
					],
					"name": "getBookById",
					"outputs": [
						{
							"internalType": "uint256",
							"name": "",
							"type": "uint256"
						},
						{
							"internalType": "string",
							"name": "",
							"type": "string"
						},
						{
							"internalType": "string",
							"name": "",
							"type": "string"
						}
					],
					"stateMutability": "view",
					"type": "function"
				},
				{
					"inputs": [
						{
							"internalType": "uint256",
							"name": "_index",
							"type": "uint256"
						}
					],
					"name": "getBookByIndex",
					"outputs": [
						{
							"internalType": "uint256",
							"name": "",
							"type": "uint256"
						},
						{
							"internalType": "string",
							"name": "",
							"type": "string"
						},
						{
							"internalType": "string",
							"name": "",
							"type": "string"
						}
					],
					"stateMutability": "view",
					"type": "function"
				}
			],
			"devdoc": {
				"kind": "dev",
				"methods": {},
				"version": 1
			},
			"evm": {
				"assembly": "    /* \"contracts/10.20.arrayofstruct.sol\":57:1527  contract Library {... */\n  mstore(0x40, 0x80)\n  callvalue\n  dup1\n  iszero\n  tag_1\n  jumpi\n  revert(0x00, 0x00)\ntag_1:\n  pop\n  dataSize(sub_0)\n  dup1\n  dataOffset(sub_0)\n  0x00\n  codecopy\n  0x00\n  return\nstop\n\nsub_0: assembly {\n        /* \"contracts/10.20.arrayofstruct.sol\":57:1527  contract Library {... */\n      mstore(0x40, 0x80)\n      callvalue\n      dup1\n      iszero\n      tag_1\n      jumpi\n      revert(0x00, 0x00)\n    tag_1:\n      pop\n      jumpi(tag_2, lt(calldatasize, 0x04))\n      shr(0xe0, calldataload(0x00))\n      dup1\n      0x028414f2\n      eq\n      tag_3\n      jumpi\n      dup1\n      0x2ba53db2\n      eq\n      tag_4\n      jumpi\n      dup1\n      0x418b79ab\n      eq\n      tag_5\n      jumpi\n      dup1\n      0x68744046\n      eq\n      tag_6\n      jumpi\n      dup1\n      0xa965b988\n      eq\n      tag_7\n      jumpi\n    tag_2:\n      revert(0x00, 0x00)\n        /* \"contracts/10.20.arrayofstruct.sol\":403:733  function addBook(... */\n    tag_3:\n      tag_8\n      0x04\n      dup1\n      calldatasize\n      sub\n      dup2\n      add\n      swap1\n      tag_9\n      swap2\n      swap1\n      tag_10\n      jump\t// in\n    tag_9:\n      tag_11\n      jump\t// in\n    tag_8:\n      stop\n        /* \"contracts/10.20.arrayofstruct.sol\":778:1115  function getBookByIndex(uint256 _index)... */\n    tag_4:\n      tag_12\n      0x04\n      dup1\n      calldatasize\n      sub\n      dup2\n      add\n      swap1\n      tag_13\n      swap2\n      swap1\n      tag_14\n      jump\t// in\n    tag_13:\n      tag_15\n      jump\t// in\n    tag_12:\n      mload(0x40)\n      tag_16\n      swap4\n      swap3\n      swap2\n      swap1\n      tag_17\n      jump\t// in\n    tag_16:\n      mload(0x40)\n      dup1\n      swap2\n      sub\n      swap1\n      return\n        /* \"contracts/10.20.arrayofstruct.sol\":1157:1525  function getBookById(uint256 _id)... */\n    tag_5:\n      tag_18\n      0x04\n      dup1\n      calldatasize\n      sub\n      dup2\n      add\n      swap1\n      tag_19\n      swap2\n      swap1\n      tag_14\n      jump\t// in\n    tag_19:\n      tag_20\n      jump\t// in\n    tag_18:\n      mload(0x40)\n      tag_21\n      swap4\n      swap3\n      swap2\n      swap1\n      tag_17\n      jump\t// in\n    tag_21:\n      mload(0x40)\n      dup1\n      swap2\n      sub\n      swap1\n      return\n        /* \"contracts/10.20.arrayofstruct.sol\":241:260  Book[] public books */\n    tag_6:\n      tag_22\n      0x04\n      dup1\n      calldatasize\n      sub\n      dup2\n      add\n      swap1\n      tag_23\n      swap2\n      swap1\n      tag_14\n      jump\t// in\n    tag_23:\n      tag_24\n      jump\t// in\n    tag_22:\n      mload(0x40)\n      tag_25\n      swap4\n      swap3\n      swap2\n      swap1\n      tag_17\n      jump\t// in\n    tag_25:\n      mload(0x40)\n      dup1\n      swap2\n      sub\n      swap1\n      return\n        /* \"contracts/10.20.arrayofstruct.sol\":314:362  mapping(uint256 => uint256) public bookIdToIndex */\n    tag_7:\n      tag_26\n      0x04\n      dup1\n      calldatasize\n      sub\n      dup2\n      add\n      swap1\n      tag_27\n      swap2\n      swap1\n      tag_14\n      jump\t// in\n    tag_27:\n      tag_28\n      jump\t// in\n    tag_26:\n      mload(0x40)\n      tag_29\n      swap2\n      swap1\n      tag_30\n      jump\t// in\n    tag_29:\n      mload(0x40)\n      dup1\n      swap2\n      sub\n      swap1\n      return\n        /* \"contracts/10.20.arrayofstruct.sol\":403:733  function addBook(... */\n    tag_11:\n        /* \"contracts/10.20.arrayofstruct.sol\":585:590  books */\n      0x00\n        /* \"contracts/10.20.arrayofstruct.sol\":596:622  Book(_id, _title, _author) */\n      mload(0x40)\n      dup1\n      0x60\n      add\n      0x40\n      mstore\n      dup1\n        /* \"contracts/10.20.arrayofstruct.sol\":601:604  _id */\n      dup6\n        /* \"contracts/10.20.arrayofstruct.sol\":596:622  Book(_id, _title, _author) */\n      dup2\n      mstore\n      0x20\n      add\n        /* \"contracts/10.20.arrayofstruct.sol\":606:612  _title */\n      dup5\n        /* \"contracts/10.20.arrayofstruct.sol\":596:622  Book(_id, _title, _author) */\n      dup2\n      mstore\n      0x20\n      add\n        /* \"contracts/10.20.arrayofstruct.sol\":614:621  _author */\n      dup4\n        /* \"contracts/10.20.arrayofstruct.sol\":596:622  Book(_id, _title, _author) */\n      dup2\n      mstore\n      pop\n        /* \"contracts/10.20.arrayofstruct.sol\":585:623  books.push(Book(_id, _title, _author)) */\n      swap1\n      dup1\n      0x01\n      dup2\n      sload\n      add\n      dup1\n      dup3\n      sstore\n      dup1\n      swap2\n      pop\n      pop\n      0x01\n      swap1\n      sub\n      swap1\n      0x00\n      mstore\n      keccak256(0x00, 0x20)\n      swap1\n      0x03\n      mul\n      add\n      0x00\n      swap1\n      swap2\n      swap1\n      swap2\n      swap1\n      swap2\n      pop\n      0x00\n      dup3\n      add\n      mload\n      dup2\n      0x00\n      add\n      sstore\n      0x20\n      dup3\n      add\n      mload\n      dup2\n      0x01\n      add\n      swap1\n      dup2\n      tag_33\n      swap2\n      swap1\n      tag_34\n      jump\t// in\n    tag_33:\n      pop\n      0x40\n      dup3\n      add\n      mload\n      dup2\n      0x02\n      add\n      swap1\n      dup2\n      tag_35\n      swap2\n      swap1\n      tag_34\n      jump\t// in\n    tag_35:\n      pop\n      pop\n      pop\n        /* \"contracts/10.20.arrayofstruct.sol\":725:726  1 */\n      0x01\n        /* \"contracts/10.20.arrayofstruct.sol\":710:715  books */\n      0x00\n        /* \"contracts/10.20.arrayofstruct.sol\":710:722  books.length */\n      dup1\n      sload\n      swap1\n      pop\n        /* \"contracts/10.20.arrayofstruct.sol\":710:726  books.length - 1 */\n      tag_36\n      swap2\n      swap1\n      tag_37\n      jump\t// in\n    tag_36:\n        /* \"contracts/10.20.arrayofstruct.sol\":689:702  bookIdToIndex */\n      0x01\n        /* \"contracts/10.20.arrayofstruct.sol\":689:707  bookIdToIndex[_id] */\n      0x00\n        /* \"contracts/10.20.arrayofstruct.sol\":703:706  _id */\n      dup6\n        /* \"contracts/10.20.arrayofstruct.sol\":689:707  bookIdToIndex[_id] */\n      dup2\n      mstore\n      0x20\n      add\n      swap1\n      dup2\n      mstore\n      0x20\n      add\n      0x00\n      keccak256\n        /* \"contracts/10.20.arrayofstruct.sol\":689:726  bookIdToIndex[_id] = books.length - 1 */\n      dup2\n      swap1\n      sstore\n      pop\n        /* \"contracts/10.20.arrayofstruct.sol\":403:733  function addBook(... */\n      pop\n      pop\n      pop\n      jump\t// out\n        /* \"contracts/10.20.arrayofstruct.sol\":778:1115  function getBookByIndex(uint256 _index)... */\n    tag_15:\n        /* \"contracts/10.20.arrayofstruct.sol\":876:883  uint256 */\n      0x00\n        /* \"contracts/10.20.arrayofstruct.sol\":897:910  string memory */\n      0x60\n        /* \"contracts/10.20.arrayofstruct.sol\":924:937  string memory */\n      dup1\n        /* \"contracts/10.20.arrayofstruct.sol\":979:984  books */\n      0x00\n        /* \"contracts/10.20.arrayofstruct.sol\":979:991  books.length */\n      dup1\n      sload\n      swap1\n      pop\n        /* \"contracts/10.20.arrayofstruct.sol\":970:976  _index */\n      dup5\n        /* \"contracts/10.20.arrayofstruct.sol\":970:991  _index < books.length */\n      lt\n        /* \"contracts/10.20.arrayofstruct.sol\":962:1015  require(_index < books.length, \"Index out of bounds\") */\n      tag_39\n      jumpi\n      mload(0x40)\n      0x08c379a000000000000000000000000000000000000000000000000000000000\n      dup2\n      mstore\n      0x04\n      add\n      tag_40\n      swap1\n      tag_41\n      jump\t// in\n    tag_40:\n      mload(0x40)\n      dup1\n      swap2\n      sub\n      swap1\n      revert\n    tag_39:\n        /* \"contracts/10.20.arrayofstruct.sol\":1025:1041  Book memory book */\n      0x00\n        /* \"contracts/10.20.arrayofstruct.sol\":1044:1049  books */\n      0x00\n        /* \"contracts/10.20.arrayofstruct.sol\":1050:1056  _index */\n      dup6\n        /* \"contracts/10.20.arrayofstruct.sol\":1044:1057  books[_index] */\n      dup2\n      sload\n      dup2\n      lt\n      tag_42\n      jumpi\n      tag_43\n      tag_44\n      jump\t// in\n    tag_43:\n    tag_42:\n      swap1\n      0x00\n      mstore\n      keccak256(0x00, 0x20)\n      swap1\n      0x03\n      mul\n      add\n        /* \"contracts/10.20.arrayofstruct.sol\":1025:1057  Book memory book = books[_index] */\n      mload(0x40)\n      dup1\n      0x60\n      add\n      0x40\n      mstore\n      swap1\n      dup2\n      0x00\n      dup3\n      add\n      sload\n      dup2\n      mstore\n      0x20\n      add\n      0x01\n      dup3\n      add\n      dup1\n      sload\n      tag_46\n      swap1\n      tag_47\n      jump\t// in\n    tag_46:\n      dup1\n      0x1f\n      add\n      0x20\n      dup1\n      swap2\n      div\n      mul\n      0x20\n      add\n      mload(0x40)\n      swap1\n      dup2\n      add\n      0x40\n      mstore\n      dup1\n      swap3\n      swap2\n      swap1\n      dup2\n      dup2\n      mstore\n      0x20\n      add\n      dup3\n      dup1\n      sload\n      tag_48\n      swap1\n      tag_47\n      jump\t// in\n    tag_48:\n      dup1\n      iszero\n      tag_49\n      jumpi\n      dup1\n      0x1f\n      lt\n      tag_50\n      jumpi\n      0x0100\n      dup1\n      dup4\n      sload\n      div\n      mul\n      dup4\n      mstore\n      swap2\n      0x20\n      add\n      swap2\n      jump(tag_49)\n    tag_50:\n      dup3\n      add\n      swap2\n      swap1\n      0x00\n      mstore\n      keccak256(0x00, 0x20)\n      swap1\n    tag_51:\n      dup2\n      sload\n      dup2\n      mstore\n      swap1\n      0x01\n      add\n      swap1\n      0x20\n      add\n      dup1\n      dup4\n      gt\n      tag_51\n      jumpi\n      dup3\n      swap1\n      sub\n      0x1f\n      and\n      dup3\n      add\n      swap2\n    tag_49:\n      pop\n      pop\n      pop\n      pop\n      pop\n      dup2\n      mstore\n      0x20\n      add\n      0x02\n      dup3\n      add\n      dup1\n      sload\n      tag_52\n      swap1\n      tag_47\n      jump\t// in\n    tag_52:\n      dup1\n      0x1f\n      add\n      0x20\n      dup1\n      swap2\n      div\n      mul\n      0x20\n      add\n      mload(0x40)\n      swap1\n      dup2\n      add\n      0x40\n      mstore\n      dup1\n      swap3\n      swap2\n      swap1\n      dup2\n      dup2\n      mstore\n      0x20\n      add\n      dup3\n      dup1\n      sload\n      tag_53\n      swap1\n      tag_47\n      jump\t// in\n    tag_53:\n      dup1\n      iszero\n      tag_54\n      jumpi\n      dup1\n      0x1f\n      lt\n      tag_55\n      jumpi\n      0x0100\n      dup1\n      dup4\n      sload\n      div\n      mul\n      dup4\n      mstore\n      swap2\n      0x20\n      add\n      swap2\n      jump(tag_54)\n    tag_55:\n      dup3\n      add\n      swap2\n      swap1\n      0x00\n      mstore\n      keccak256(0x00, 0x20)\n      swap1\n    tag_56:\n      dup2\n      sload\n      dup2\n      mstore\n      swap1\n      0x01\n      add\n      swap1\n      0x20\n      add\n      dup1\n      dup4\n      gt\n      tag_56\n      jumpi\n      dup3\n      swap1\n      sub\n      0x1f\n      and\n      dup3\n      add\n      swap2\n    tag_54:\n      pop\n      pop\n      pop\n      pop\n      pop\n      dup2\n      mstore\n      pop\n      pop\n      swap1\n      pop\n        /* \"contracts/10.20.arrayofstruct.sol\":1075:1079  book */\n      dup1\n        /* \"contracts/10.20.arrayofstruct.sol\":1075:1082  book.id */\n      0x00\n      add\n      mload\n        /* \"contracts/10.20.arrayofstruct.sol\":1084:1088  book */\n      dup2\n        /* \"contracts/10.20.arrayofstruct.sol\":1084:1094  book.title */\n      0x20\n      add\n      mload\n        /* \"contracts/10.20.arrayofstruct.sol\":1096:1100  book */\n      dup3\n        /* \"contracts/10.20.arrayofstruct.sol\":1096:1107  book.author */\n      0x40\n      add\n      mload\n        /* \"contracts/10.20.arrayofstruct.sol\":1067:1108  return (book.id, book.title, book.author) */\n      swap4\n      pop\n      swap4\n      pop\n      swap4\n      pop\n      pop\n        /* \"contracts/10.20.arrayofstruct.sol\":778:1115  function getBookByIndex(uint256 _index)... */\n      swap2\n      swap4\n      swap1\n      swap3\n      pop\n      jump\t// out\n        /* \"contracts/10.20.arrayofstruct.sol\":1157:1525  function getBookById(uint256 _id)... */\n    tag_20:\n        /* \"contracts/10.20.arrayofstruct.sol\":1249:1256  uint256 */\n      0x00\n        /* \"contracts/10.20.arrayofstruct.sol\":1270:1283  string memory */\n      0x60\n        /* \"contracts/10.20.arrayofstruct.sol\":1297:1310  string memory */\n      dup1\n        /* \"contracts/10.20.arrayofstruct.sol\":1335:1348  uint256 index */\n      0x00\n        /* \"contracts/10.20.arrayofstruct.sol\":1351:1364  bookIdToIndex */\n      0x01\n        /* \"contracts/10.20.arrayofstruct.sol\":1351:1369  bookIdToIndex[_id] */\n      0x00\n        /* \"contracts/10.20.arrayofstruct.sol\":1365:1368  _id */\n      dup7\n        /* \"contracts/10.20.arrayofstruct.sol\":1351:1369  bookIdToIndex[_id] */\n      dup2\n      mstore\n      0x20\n      add\n      swap1\n      dup2\n      mstore\n      0x20\n      add\n      0x00\n      keccak256\n      sload\n        /* \"contracts/10.20.arrayofstruct.sol\":1335:1369  uint256 index = bookIdToIndex[_id] */\n      swap1\n      pop\n        /* \"contracts/10.20.arrayofstruct.sol\":1395:1400  books */\n      0x00\n        /* \"contracts/10.20.arrayofstruct.sol\":1395:1407  books.length */\n      dup1\n      sload\n      swap1\n      pop\n        /* \"contracts/10.20.arrayofstruct.sol\":1387:1392  index */\n      dup2\n        /* \"contracts/10.20.arrayofstruct.sol\":1387:1407  index < books.length */\n      lt\n        /* \"contracts/10.20.arrayofstruct.sol\":1379:1426  require(index < books.length, \"Book not found\") */\n      tag_58\n      jumpi\n      mload(0x40)\n      0x08c379a000000000000000000000000000000000000000000000000000000000\n      dup2\n      mstore\n      0x04\n      add\n      tag_59\n      swap1\n      tag_60\n      jump\t// in\n    tag_59:\n      mload(0x40)\n      dup1\n      swap2\n      sub\n      swap1\n      revert\n    tag_58:\n        /* \"contracts/10.20.arrayofstruct.sol\":1436:1452  Book memory book */\n      0x00\n        /* \"contracts/10.20.arrayofstruct.sol\":1455:1460  books */\n      0x00\n        /* \"contracts/10.20.arrayofstruct.sol\":1461:1466  index */\n      dup3\n        /* \"contracts/10.20.arrayofstruct.sol\":1455:1467  books[index] */\n      dup2\n      sload\n      dup2\n      lt\n      tag_61\n      jumpi\n      tag_62\n      tag_44\n      jump\t// in\n    tag_62:\n    tag_61:\n      swap1\n      0x00\n      mstore\n      keccak256(0x00, 0x20)\n      swap1\n      0x03\n      mul\n      add\n        /* \"contracts/10.20.arrayofstruct.sol\":1436:1467  Book memory book = books[index] */\n      mload(0x40)\n      dup1\n      0x60\n      add\n      0x40\n      mstore\n      swap1\n      dup2\n      0x00\n      dup3\n      add\n      sload\n      dup2\n      mstore\n      0x20\n      add\n      0x01\n      dup3\n      add\n      dup1\n      sload\n      tag_64\n      swap1\n      tag_47\n      jump\t// in\n    tag_64:\n      dup1\n      0x1f\n      add\n      0x20\n      dup1\n      swap2\n      div\n      mul\n      0x20\n      add\n      mload(0x40)\n      swap1\n      dup2\n      add\n      0x40\n      mstore\n      dup1\n      swap3\n      swap2\n      swap1\n      dup2\n      dup2\n      mstore\n      0x20\n      add\n      dup3\n      dup1\n      sload\n      tag_65\n      swap1\n      tag_47\n      jump\t// in\n    tag_65:\n      dup1\n      iszero\n      tag_66\n      jumpi\n      dup1\n      0x1f\n      lt\n      tag_67\n      jumpi\n      0x0100\n      dup1\n      dup4\n      sload\n      div\n      mul\n      dup4\n      mstore\n      swap2\n      0x20\n      add\n      swap2\n      jump(tag_66)\n    tag_67:\n      dup3\n      add\n      swap2\n      swap1\n      0x00\n      mstore\n      keccak256(0x00, 0x20)\n      swap1\n    tag_68:\n      dup2\n      sload\n      dup2\n      mstore\n      swap1\n      0x01\n      add\n      swap1\n      0x20\n      add\n      dup1\n      dup4\n      gt\n      tag_68\n      jumpi\n      dup3\n      swap1\n      sub\n      0x1f\n      and\n      dup3\n      add\n      swap2\n    tag_66:\n      pop\n      pop\n      pop\n      pop\n      pop\n      dup2\n      mstore\n      0x20\n      add\n      0x02\n      dup3\n      add\n      dup1\n      sload\n      tag_69\n      swap1\n      tag_47\n      jump\t// in\n    tag_69:\n      dup1\n      0x1f\n      add\n      0x20\n      dup1\n      swap2\n      div\n      mul\n      0x20\n      add\n      mload(0x40)\n      swap1\n      dup2\n      add\n      0x40\n      mstore\n      dup1\n      swap3\n      swap2\n      swap1\n      dup2\n      dup2\n      mstore\n      0x20\n      add\n      dup3\n      dup1\n      sload\n      tag_70\n      swap1\n      tag_47\n      jump\t// in\n    tag_70:\n      dup1\n      iszero\n      tag_71\n      jumpi\n      dup1\n      0x1f\n      lt\n      tag_72\n      jumpi\n      0x0100\n      dup1\n      dup4\n      sload\n      div\n      mul\n      dup4\n      mstore\n      swap2\n      0x20\n      add\n      swap2\n      jump(tag_71)\n    tag_72:\n      dup3\n      add\n      swap2\n      swap1\n      0x00\n      mstore\n      keccak256(0x00, 0x20)\n      swap1\n    tag_73:\n      dup2\n      sload\n      dup2\n      mstore\n      swap1\n      0x01\n      add\n      swap1\n      0x20\n      add\n      dup1\n      dup4\n      gt\n      tag_73\n      jumpi\n      dup3\n      swap1\n      sub\n      0x1f\n      and\n      dup3\n      add\n      swap2\n    tag_71:\n      pop\n      pop\n      pop\n      pop\n      pop\n      dup2\n      mstore\n      pop\n      pop\n      swap1\n      pop\n        /* \"contracts/10.20.arrayofstruct.sol\":1485:1489  book */\n      dup1\n        /* \"contracts/10.20.arrayofstruct.sol\":1485:1492  book.id */\n      0x00\n      add\n      mload\n        /* \"contracts/10.20.arrayofstruct.sol\":1494:1498  book */\n      dup2\n        /* \"contracts/10.20.arrayofstruct.sol\":1494:1504  book.title */\n      0x20\n      add\n      mload\n        /* \"contracts/10.20.arrayofstruct.sol\":1506:1510  book */\n      dup3\n        /* \"contracts/10.20.arrayofstruct.sol\":1506:1517  book.author */\n      0x40\n      add\n      mload\n        /* \"contracts/10.20.arrayofstruct.sol\":1477:1518  return (book.id, book.title, book.author) */\n      swap5\n      pop\n      swap5\n      pop\n      swap5\n      pop\n      pop\n      pop\n        /* \"contracts/10.20.arrayofstruct.sol\":1157:1525  function getBookById(uint256 _id)... */\n      swap2\n      swap4\n      swap1\n      swap3\n      pop\n      jump\t// out\n        /* \"contracts/10.20.arrayofstruct.sol\":241:260  Book[] public books */\n    tag_24:\n      0x00\n      dup2\n      dup2\n      sload\n      dup2\n      lt\n      tag_74\n      jumpi\n      0x00\n      dup1\n      revert\n    tag_74:\n      swap1\n      0x00\n      mstore\n      keccak256(0x00, 0x20)\n      swap1\n      0x03\n      mul\n      add\n      0x00\n      swap2\n      pop\n      swap1\n      pop\n      dup1\n      0x00\n      add\n      sload\n      swap1\n      dup1\n      0x01\n      add\n      dup1\n      sload\n      tag_76\n      swap1\n      tag_47\n      jump\t// in\n    tag_76:\n      dup1\n      0x1f\n      add\n      0x20\n      dup1\n      swap2\n      div\n      mul\n      0x20\n      add\n      mload(0x40)\n      swap1\n      dup2\n      add\n      0x40\n      mstore\n      dup1\n      swap3\n      swap2\n      swap1\n      dup2\n      dup2\n      mstore\n      0x20\n      add\n      dup3\n      dup1\n      sload\n      tag_77\n      swap1\n      tag_47\n      jump\t// in\n    tag_77:\n      dup1\n      iszero\n      tag_78\n      jumpi\n      dup1\n      0x1f\n      lt\n      tag_79\n      jumpi\n      0x0100\n      dup1\n      dup4\n      sload\n      div\n      mul\n      dup4\n      mstore\n      swap2\n      0x20\n      add\n      swap2\n      jump(tag_78)\n    tag_79:\n      dup3\n      add\n      swap2\n      swap1\n      0x00\n      mstore\n      keccak256(0x00, 0x20)\n      swap1\n    tag_80:\n      dup2\n      sload\n      dup2\n      mstore\n      swap1\n      0x01\n      add\n      swap1\n      0x20\n      add\n      dup1\n      dup4\n      gt\n      tag_80\n      jumpi\n      dup3\n      swap1\n      sub\n      0x1f\n      and\n      dup3\n      add\n      swap2\n    tag_78:\n      pop\n      pop\n      pop\n      pop\n      pop\n      swap1\n      dup1\n      0x02\n      add\n      dup1\n      sload\n      tag_81\n      swap1\n      tag_47\n      jump\t// in\n    tag_81:\n      dup1\n      0x1f\n      add\n      0x20\n      dup1\n      swap2\n      div\n      mul\n      0x20\n      add\n      mload(0x40)\n      swap1\n      dup2\n      add\n      0x40\n      mstore\n      dup1\n      swap3\n      swap2\n      swap1\n      dup2\n      dup2\n      mstore\n      0x20\n      add\n      dup3\n      dup1\n      sload\n      tag_82\n      swap1\n      tag_47\n      jump\t// in\n    tag_82:\n      dup1\n      iszero\n      tag_83\n      jumpi\n      dup1\n      0x1f\n      lt\n      tag_84\n      jumpi\n      0x0100\n      dup1\n      dup4\n      sload\n      div\n      mul\n      dup4\n      mstore\n      swap2\n      0x20\n      add\n      swap2\n      jump(tag_83)\n    tag_84:\n      dup3\n      add\n      swap2\n      swap1\n      0x00\n      mstore\n      keccak256(0x00, 0x20)\n      swap1\n    tag_85:\n      dup2\n      sload\n      dup2\n      mstore\n      swap1\n      0x01\n      add\n      swap1\n      0x20\n      add\n      dup1\n      dup4\n      gt\n      tag_85\n      jumpi\n      dup3\n      swap1\n      sub\n      0x1f\n      and\n      dup3\n      add\n      swap2\n    tag_83:\n      pop\n      pop\n      pop\n      pop\n      pop\n      swap1\n      pop\n      dup4\n      jump\t// out\n        /* \"contracts/10.20.arrayofstruct.sol\":314:362  mapping(uint256 => uint256) public bookIdToIndex */\n    tag_28:\n      mstore(0x20, 0x01)\n      dup1\n      0x00\n      mstore\n      keccak256(0x00, 0x40)\n      0x00\n      swap2\n      pop\n      swap1\n      pop\n      sload\n      dup2\n      jump\t// out\n        /* \"#utility.yul\":7:82   */\n    tag_86:\n        /* \"#utility.yul\":40:46   */\n      0x00\n        /* \"#utility.yul\":73:75   */\n      0x40\n        /* \"#utility.yul\":67:76   */\n      mload\n        /* \"#utility.yul\":57:76   */\n      swap1\n      pop\n        /* \"#utility.yul\":7:82   */\n      swap1\n      jump\t// out\n        /* \"#utility.yul\":88:205   */\n    tag_87:\n        /* \"#utility.yul\":197:198   */\n      0x00\n        /* \"#utility.yul\":194:195   */\n      0x00\n        /* \"#utility.yul\":187:199   */\n      revert\n        /* \"#utility.yul\":211:328   */\n    tag_88:\n        /* \"#utility.yul\":320:321   */\n      0x00\n        /* \"#utility.yul\":317:318   */\n      0x00\n        /* \"#utility.yul\":310:322   */\n      revert\n        /* \"#utility.yul\":334:411   */\n    tag_89:\n        /* \"#utility.yul\":371:378   */\n      0x00\n        /* \"#utility.yul\":400:405   */\n      dup2\n        /* \"#utility.yul\":389:405   */\n      swap1\n      pop\n        /* \"#utility.yul\":334:411   */\n      swap2\n      swap1\n      pop\n      jump\t// out\n        /* \"#utility.yul\":417:539   */\n    tag_90:\n        /* \"#utility.yul\":490:514   */\n      tag_134\n        /* \"#utility.yul\":508:513   */\n      dup2\n        /* \"#utility.yul\":490:514   */\n      tag_89\n      jump\t// in\n    tag_134:\n        /* \"#utility.yul\":483:488   */\n      dup2\n        /* \"#utility.yul\":480:515   */\n      eq\n        /* \"#utility.yul\":470:533   */\n      tag_135\n      jumpi\n        /* \"#utility.yul\":529:530   */\n      0x00\n        /* \"#utility.yul\":526:527   */\n      0x00\n        /* \"#utility.yul\":519:531   */\n      revert\n        /* \"#utility.yul\":470:533   */\n    tag_135:\n        /* \"#utility.yul\":417:539   */\n      pop\n      jump\t// out\n        /* \"#utility.yul\":545:684   */\n    tag_91:\n        /* \"#utility.yul\":591:596   */\n      0x00\n        /* \"#utility.yul\":629:635   */\n      dup2\n        /* \"#utility.yul\":616:636   */\n      calldataload\n        /* \"#utility.yul\":607:636   */\n      swap1\n      pop\n        /* \"#utility.yul\":645:678   */\n      tag_137\n        /* \"#utility.yul\":672:677   */\n      dup2\n        /* \"#utility.yul\":645:678   */\n      tag_90\n      jump\t// in\n    tag_137:\n        /* \"#utility.yul\":545:684   */\n      swap3\n      swap2\n      pop\n      pop\n      jump\t// out\n        /* \"#utility.yul\":690:807   */\n    tag_92:\n        /* \"#utility.yul\":799:800   */\n      0x00\n        /* \"#utility.yul\":796:797   */\n      0x00\n        /* \"#utility.yul\":789:801   */\n      revert\n        /* \"#utility.yul\":813:930   */\n    tag_93:\n        /* \"#utility.yul\":922:923   */\n      0x00\n        /* \"#utility.yul\":919:920   */\n      0x00\n        /* \"#utility.yul\":912:924   */\n      revert\n        /* \"#utility.yul\":936:1038   */\n    tag_94:\n        /* \"#utility.yul\":977:983   */\n      0x00\n        /* \"#utility.yul\":1028:1030   */\n      0x1f\n        /* \"#utility.yul\":1024:1031   */\n      not\n        /* \"#utility.yul\":1019:1021   */\n      0x1f\n        /* \"#utility.yul\":1012:1017   */\n      dup4\n        /* \"#utility.yul\":1008:1022   */\n      add\n        /* \"#utility.yul\":1004:1032   */\n      and\n        /* \"#utility.yul\":994:1032   */\n      swap1\n      pop\n        /* \"#utility.yul\":936:1038   */\n      swap2\n      swap1\n      pop\n      jump\t// out\n        /* \"#utility.yul\":1044:1224   */\n    tag_95:\n        /* \"#utility.yul\":1092:1169   */\n      0x4e487b7100000000000000000000000000000000000000000000000000000000\n        /* \"#utility.yul\":1089:1090   */\n      0x00\n        /* \"#utility.yul\":1082:1170   */\n      mstore\n        /* \"#utility.yul\":1189:1193   */\n      0x41\n        /* \"#utility.yul\":1186:1187   */\n      0x04\n        /* \"#utility.yul\":1179:1194   */\n      mstore\n        /* \"#utility.yul\":1213:1217   */\n      0x24\n        /* \"#utility.yul\":1210:1211   */\n      0x00\n        /* \"#utility.yul\":1203:1218   */\n      revert\n        /* \"#utility.yul\":1230:1511   */\n    tag_96:\n        /* \"#utility.yul\":1313:1340   */\n      tag_143\n        /* \"#utility.yul\":1335:1339   */\n      dup3\n        /* \"#utility.yul\":1313:1340   */\n      tag_94\n      jump\t// in\n    tag_143:\n        /* \"#utility.yul\":1305:1311   */\n      dup2\n        /* \"#utility.yul\":1301:1341   */\n      add\n        /* \"#utility.yul\":1443:1449   */\n      dup2\n        /* \"#utility.yul\":1431:1441   */\n      dup2\n        /* \"#utility.yul\":1428:1450   */\n      lt\n        /* \"#utility.yul\":1407:1425   */\n      0xffffffffffffffff\n        /* \"#utility.yul\":1395:1405   */\n      dup3\n        /* \"#utility.yul\":1392:1426   */\n      gt\n        /* \"#utility.yul\":1389:1451   */\n      or\n        /* \"#utility.yul\":1386:1474   */\n      iszero\n      tag_144\n      jumpi\n        /* \"#utility.yul\":1454:1472   */\n      tag_145\n      tag_95\n      jump\t// in\n    tag_145:\n        /* \"#utility.yul\":1386:1474   */\n    tag_144:\n        /* \"#utility.yul\":1494:1504   */\n      dup1\n        /* \"#utility.yul\":1490:1492   */\n      0x40\n        /* \"#utility.yul\":1483:1505   */\n      mstore\n        /* \"#utility.yul\":1273:1511   */\n      pop\n        /* \"#utility.yul\":1230:1511   */\n      pop\n      pop\n      jump\t// out\n        /* \"#utility.yul\":1517:1646   */\n    tag_97:\n        /* \"#utility.yul\":1551:1557   */\n      0x00\n        /* \"#utility.yul\":1578:1598   */\n      tag_147\n      tag_86\n      jump\t// in\n    tag_147:\n        /* \"#utility.yul\":1568:1598   */\n      swap1\n      pop\n        /* \"#utility.yul\":1607:1640   */\n      tag_148\n        /* \"#utility.yul\":1635:1639   */\n      dup3\n        /* \"#utility.yul\":1627:1633   */\n      dup3\n        /* \"#utility.yul\":1607:1640   */\n      tag_96\n      jump\t// in\n    tag_148:\n        /* \"#utility.yul\":1517:1646   */\n      swap2\n      swap1\n      pop\n      jump\t// out\n        /* \"#utility.yul\":1652:1960   */\n    tag_98:\n        /* \"#utility.yul\":1714:1718   */\n      0x00\n        /* \"#utility.yul\":1804:1822   */\n      0xffffffffffffffff\n        /* \"#utility.yul\":1796:1802   */\n      dup3\n        /* \"#utility.yul\":1793:1823   */\n      gt\n        /* \"#utility.yul\":1790:1846   */\n      iszero\n      tag_150\n      jumpi\n        /* \"#utility.yul\":1826:1844   */\n      tag_151\n      tag_95\n      jump\t// in\n    tag_151:\n        /* \"#utility.yul\":1790:1846   */\n    tag_150:\n        /* \"#utility.yul\":1864:1893   */\n      tag_152\n        /* \"#utility.yul\":1886:1892   */\n      dup3\n        /* \"#utility.yul\":1864:1893   */\n      tag_94\n      jump\t// in\n    tag_152:\n        /* \"#utility.yul\":1856:1893   */\n      swap1\n      pop\n        /* \"#utility.yul\":1948:1952   */\n      0x20\n        /* \"#utility.yul\":1942:1946   */\n      dup2\n        /* \"#utility.yul\":1938:1953   */\n      add\n        /* \"#utility.yul\":1930:1953   */\n      swap1\n      pop\n        /* \"#utility.yul\":1652:1960   */\n      swap2\n      swap1\n      pop\n      jump\t// out\n        /* \"#utility.yul\":1966:2114   */\n    tag_99:\n        /* \"#utility.yul\":2064:2070   */\n      dup3\n        /* \"#utility.yul\":2059:2062   */\n      dup2\n        /* \"#utility.yul\":2054:2057   */\n      dup4\n        /* \"#utility.yul\":2041:2071   */\n      calldatacopy\n        /* \"#utility.yul\":2105:2106   */\n      0x00\n        /* \"#utility.yul\":2096:2102   */\n      dup4\n        /* \"#utility.yul\":2091:2094   */\n      dup4\n        /* \"#utility.yul\":2087:2103   */\n      add\n        /* \"#utility.yul\":2080:2107   */\n      mstore\n        /* \"#utility.yul\":1966:2114   */\n      pop\n      pop\n      pop\n      jump\t// out\n        /* \"#utility.yul\":2120:2545   */\n    tag_100:\n        /* \"#utility.yul\":2198:2203   */\n      0x00\n        /* \"#utility.yul\":2223:2289   */\n      tag_155\n        /* \"#utility.yul\":2239:2288   */\n      tag_156\n        /* \"#utility.yul\":2281:2287   */\n      dup5\n        /* \"#utility.yul\":2239:2288   */\n      tag_98\n      jump\t// in\n    tag_156:\n        /* \"#utility.yul\":2223:2289   */\n      tag_97\n      jump\t// in\n    tag_155:\n        /* \"#utility.yul\":2214:2289   */\n      swap1\n      pop\n        /* \"#utility.yul\":2312:2318   */\n      dup3\n        /* \"#utility.yul\":2305:2310   */\n      dup2\n        /* \"#utility.yul\":2298:2319   */\n      mstore\n        /* \"#utility.yul\":2350:2354   */\n      0x20\n        /* \"#utility.yul\":2343:2348   */\n      dup2\n        /* \"#utility.yul\":2339:2355   */\n      add\n        /* \"#utility.yul\":2388:2391   */\n      dup5\n        /* \"#utility.yul\":2379:2385   */\n      dup5\n        /* \"#utility.yul\":2374:2377   */\n      dup5\n        /* \"#utility.yul\":2370:2386   */\n      add\n        /* \"#utility.yul\":2367:2392   */\n      gt\n        /* \"#utility.yul\":2364:2476   */\n      iszero\n      tag_157\n      jumpi\n        /* \"#utility.yul\":2395:2474   */\n      tag_158\n      tag_93\n      jump\t// in\n    tag_158:\n        /* \"#utility.yul\":2364:2476   */\n    tag_157:\n        /* \"#utility.yul\":2485:2539   */\n      tag_159\n        /* \"#utility.yul\":2532:2538   */\n      dup5\n        /* \"#utility.yul\":2527:2530   */\n      dup3\n        /* \"#utility.yul\":2522:2525   */\n      dup6\n        /* \"#utility.yul\":2485:2539   */\n      tag_99\n      jump\t// in\n    tag_159:\n        /* \"#utility.yul\":2204:2545   */\n      pop\n        /* \"#utility.yul\":2120:2545   */\n      swap4\n      swap3\n      pop\n      pop\n      pop\n      jump\t// out\n        /* \"#utility.yul\":2565:2905   */\n    tag_101:\n        /* \"#utility.yul\":2621:2626   */\n      0x00\n        /* \"#utility.yul\":2670:2673   */\n      dup3\n        /* \"#utility.yul\":2663:2667   */\n      0x1f\n        /* \"#utility.yul\":2655:2661   */\n      dup4\n        /* \"#utility.yul\":2651:2668   */\n      add\n        /* \"#utility.yul\":2647:2674   */\n      slt\n        /* \"#utility.yul\":2637:2759   */\n      tag_161\n      jumpi\n        /* \"#utility.yul\":2678:2757   */\n      tag_162\n      tag_92\n      jump\t// in\n    tag_162:\n        /* \"#utility.yul\":2637:2759   */\n    tag_161:\n        /* \"#utility.yul\":2795:2801   */\n      dup2\n        /* \"#utility.yul\":2782:2802   */\n      calldataload\n        /* \"#utility.yul\":2820:2899   */\n      tag_163\n        /* \"#utility.yul\":2895:2898   */\n      dup5\n        /* \"#utility.yul\":2887:2893   */\n      dup3\n        /* \"#utility.yul\":2880:2884   */\n      0x20\n        /* \"#utility.yul\":2872:2878   */\n      dup7\n        /* \"#utility.yul\":2868:2885   */\n      add\n        /* \"#utility.yul\":2820:2899   */\n      tag_100\n      jump\t// in\n    tag_163:\n        /* \"#utility.yul\":2811:2899   */\n      swap2\n      pop\n        /* \"#utility.yul\":2627:2905   */\n      pop\n        /* \"#utility.yul\":2565:2905   */\n      swap3\n      swap2\n      pop\n      pop\n      jump\t// out\n        /* \"#utility.yul\":2911:3890   */\n    tag_10:\n        /* \"#utility.yul\":3008:3014   */\n      0x00\n        /* \"#utility.yul\":3016:3022   */\n      0x00\n        /* \"#utility.yul\":3024:3030   */\n      0x00\n        /* \"#utility.yul\":3073:3075   */\n      0x60\n        /* \"#utility.yul\":3061:3070   */\n      dup5\n        /* \"#utility.yul\":3052:3059   */\n      dup7\n        /* \"#utility.yul\":3048:3071   */\n      sub\n        /* \"#utility.yul\":3044:3076   */\n      slt\n        /* \"#utility.yul\":3041:3160   */\n      iszero\n      tag_165\n      jumpi\n        /* \"#utility.yul\":3079:3158   */\n      tag_166\n      tag_87\n      jump\t// in\n    tag_166:\n        /* \"#utility.yul\":3041:3160   */\n    tag_165:\n        /* \"#utility.yul\":3199:3200   */\n      0x00\n        /* \"#utility.yul\":3224:3277   */\n      tag_167\n        /* \"#utility.yul\":3269:3276   */\n      dup7\n        /* \"#utility.yul\":3260:3266   */\n      dup3\n        /* \"#utility.yul\":3249:3258   */\n      dup8\n        /* \"#utility.yul\":3245:3267   */\n      add\n        /* \"#utility.yul\":3224:3277   */\n      tag_91\n      jump\t// in\n    tag_167:\n        /* \"#utility.yul\":3214:3277   */\n      swap4\n      pop\n        /* \"#utility.yul\":3170:3287   */\n      pop\n        /* \"#utility.yul\":3354:3356   */\n      0x20\n        /* \"#utility.yul\":3343:3352   */\n      dup5\n        /* \"#utility.yul\":3339:3357   */\n      add\n        /* \"#utility.yul\":3326:3358   */\n      calldataload\n        /* \"#utility.yul\":3385:3403   */\n      0xffffffffffffffff\n        /* \"#utility.yul\":3377:3383   */\n      dup2\n        /* \"#utility.yul\":3374:3404   */\n      gt\n        /* \"#utility.yul\":3371:3488   */\n      iszero\n      tag_168\n      jumpi\n        /* \"#utility.yul\":3407:3486   */\n      tag_169\n      tag_88\n      jump\t// in\n    tag_169:\n        /* \"#utility.yul\":3371:3488   */\n    tag_168:\n        /* \"#utility.yul\":3512:3575   */\n      tag_170\n        /* \"#utility.yul\":3567:3574   */\n      dup7\n        /* \"#utility.yul\":3558:3564   */\n      dup3\n        /* \"#utility.yul\":3547:3556   */\n      dup8\n        /* \"#utility.yul\":3543:3565   */\n      add\n        /* \"#utility.yul\":3512:3575   */\n      tag_101\n      jump\t// in\n    tag_170:\n        /* \"#utility.yul\":3502:3575   */\n      swap3\n      pop\n        /* \"#utility.yul\":3297:3585   */\n      pop\n        /* \"#utility.yul\":3652:3654   */\n      0x40\n        /* \"#utility.yul\":3641:3650   */\n      dup5\n        /* \"#utility.yul\":3637:3655   */\n      add\n        /* \"#utility.yul\":3624:3656   */\n      calldataload\n        /* \"#utility.yul\":3683:3701   */\n      0xffffffffffffffff\n        /* \"#utility.yul\":3675:3681   */\n      dup2\n        /* \"#utility.yul\":3672:3702   */\n      gt\n        /* \"#utility.yul\":3669:3786   */\n      iszero\n      tag_171\n      jumpi\n        /* \"#utility.yul\":3705:3784   */\n      tag_172\n      tag_88\n      jump\t// in\n    tag_172:\n        /* \"#utility.yul\":3669:3786   */\n    tag_171:\n        /* \"#utility.yul\":3810:3873   */\n      tag_173\n        /* \"#utility.yul\":3865:3872   */\n      dup7\n        /* \"#utility.yul\":3856:3862   */\n      dup3\n        /* \"#utility.yul\":3845:3854   */\n      dup8\n        /* \"#utility.yul\":3841:3863   */\n      add\n        /* \"#utility.yul\":3810:3873   */\n      tag_101\n      jump\t// in\n    tag_173:\n        /* \"#utility.yul\":3800:3873   */\n      swap2\n      pop\n        /* \"#utility.yul\":3595:3883   */\n      pop\n        /* \"#utility.yul\":2911:3890   */\n      swap3\n      pop\n      swap3\n      pop\n      swap3\n      jump\t// out\n        /* \"#utility.yul\":3896:4225   */\n    tag_14:\n        /* \"#utility.yul\":3955:3961   */\n      0x00\n        /* \"#utility.yul\":4004:4006   */\n      0x20\n        /* \"#utility.yul\":3992:4001   */\n      dup3\n        /* \"#utility.yul\":3983:3990   */\n      dup5\n        /* \"#utility.yul\":3979:4002   */\n      sub\n        /* \"#utility.yul\":3975:4007   */\n      slt\n        /* \"#utility.yul\":3972:4091   */\n      iszero\n      tag_175\n      jumpi\n        /* \"#utility.yul\":4010:4089   */\n      tag_176\n      tag_87\n      jump\t// in\n    tag_176:\n        /* \"#utility.yul\":3972:4091   */\n    tag_175:\n        /* \"#utility.yul\":4130:4131   */\n      0x00\n        /* \"#utility.yul\":4155:4208   */\n      tag_177\n        /* \"#utility.yul\":4200:4207   */\n      dup5\n        /* \"#utility.yul\":4191:4197   */\n      dup3\n        /* \"#utility.yul\":4180:4189   */\n      dup6\n        /* \"#utility.yul\":4176:4198   */\n      add\n        /* \"#utility.yul\":4155:4208   */\n      tag_91\n      jump\t// in\n    tag_177:\n        /* \"#utility.yul\":4145:4208   */\n      swap2\n      pop\n        /* \"#utility.yul\":4101:4218   */\n      pop\n        /* \"#utility.yul\":3896:4225   */\n      swap3\n      swap2\n      pop\n      pop\n      jump\t// out\n        /* \"#utility.yul\":4231:4349   */\n    tag_102:\n        /* \"#utility.yul\":4318:4342   */\n      tag_179\n        /* \"#utility.yul\":4336:4341   */\n      dup2\n        /* \"#utility.yul\":4318:4342   */\n      tag_89\n      jump\t// in\n    tag_179:\n        /* \"#utility.yul\":4313:4316   */\n      dup3\n        /* \"#utility.yul\":4306:4343   */\n      mstore\n        /* \"#utility.yul\":4231:4349   */\n      pop\n      pop\n      jump\t// out\n        /* \"#utility.yul\":4355:4454   */\n    tag_103:\n        /* \"#utility.yul\":4407:4413   */\n      0x00\n        /* \"#utility.yul\":4441:4446   */\n      dup2\n        /* \"#utility.yul\":4435:4447   */\n      mload\n        /* \"#utility.yul\":4425:4447   */\n      swap1\n      pop\n        /* \"#utility.yul\":4355:4454   */\n      swap2\n      swap1\n      pop\n      jump\t// out\n        /* \"#utility.yul\":4460:4629   */\n    tag_104:\n        /* \"#utility.yul\":4544:4555   */\n      0x00\n        /* \"#utility.yul\":4578:4584   */\n      dup3\n        /* \"#utility.yul\":4573:4576   */\n      dup3\n        /* \"#utility.yul\":4566:4585   */\n      mstore\n        /* \"#utility.yul\":4618:4622   */\n      0x20\n        /* \"#utility.yul\":4613:4616   */\n      dup3\n        /* \"#utility.yul\":4609:4623   */\n      add\n        /* \"#utility.yul\":4594:4623   */\n      swap1\n      pop\n        /* \"#utility.yul\":4460:4629   */\n      swap3\n      swap2\n      pop\n      pop\n      jump\t// out\n        /* \"#utility.yul\":4635:4774   */\n    tag_105:\n        /* \"#utility.yul\":4724:4730   */\n      dup3\n        /* \"#utility.yul\":4719:4722   */\n      dup2\n        /* \"#utility.yul\":4714:4717   */\n      dup4\n        /* \"#utility.yul\":4708:4731   */\n      mcopy\n        /* \"#utility.yul\":4765:4766   */\n      0x00\n        /* \"#utility.yul\":4756:4762   */\n      dup4\n        /* \"#utility.yul\":4751:4754   */\n      dup4\n        /* \"#utility.yul\":4747:4763   */\n      add\n        /* \"#utility.yul\":4740:4767   */\n      mstore\n        /* \"#utility.yul\":4635:4774   */\n      pop\n      pop\n      pop\n      jump\t// out\n        /* \"#utility.yul\":4780:5157   */\n    tag_106:\n        /* \"#utility.yul\":4868:4871   */\n      0x00\n        /* \"#utility.yul\":4896:4935   */\n      tag_184\n        /* \"#utility.yul\":4929:4934   */\n      dup3\n        /* \"#utility.yul\":4896:4935   */\n      tag_103\n      jump\t// in\n    tag_184:\n        /* \"#utility.yul\":4951:5022   */\n      tag_185\n        /* \"#utility.yul\":5015:5021   */\n      dup2\n        /* \"#utility.yul\":5010:5013   */\n      dup6\n        /* \"#utility.yul\":4951:5022   */\n      tag_104\n      jump\t// in\n    tag_185:\n        /* \"#utility.yul\":4944:5022   */\n      swap4\n      pop\n        /* \"#utility.yul\":5031:5096   */\n      tag_186\n        /* \"#utility.yul\":5089:5095   */\n      dup2\n        /* \"#utility.yul\":5084:5087   */\n      dup6\n        /* \"#utility.yul\":5077:5081   */\n      0x20\n        /* \"#utility.yul\":5070:5075   */\n      dup7\n        /* \"#utility.yul\":5066:5082   */\n      add\n        /* \"#utility.yul\":5031:5096   */\n      tag_105\n      jump\t// in\n    tag_186:\n        /* \"#utility.yul\":5121:5150   */\n      tag_187\n        /* \"#utility.yul\":5143:5149   */\n      dup2\n        /* \"#utility.yul\":5121:5150   */\n      tag_94\n      jump\t// in\n    tag_187:\n        /* \"#utility.yul\":5116:5119   */\n      dup5\n        /* \"#utility.yul\":5112:5151   */\n      add\n        /* \"#utility.yul\":5105:5151   */\n      swap2\n      pop\n        /* \"#utility.yul\":4872:5157   */\n      pop\n        /* \"#utility.yul\":4780:5157   */\n      swap3\n      swap2\n      pop\n      pop\n      jump\t// out\n        /* \"#utility.yul\":5163:5787   */\n    tag_17:\n        /* \"#utility.yul\":5352:5356   */\n      0x00\n        /* \"#utility.yul\":5390:5392   */\n      0x60\n        /* \"#utility.yul\":5379:5388   */\n      dup3\n        /* \"#utility.yul\":5375:5393   */\n      add\n        /* \"#utility.yul\":5367:5393   */\n      swap1\n      pop\n        /* \"#utility.yul\":5403:5474   */\n      tag_189\n        /* \"#utility.yul\":5471:5472   */\n      0x00\n        /* \"#utility.yul\":5460:5469   */\n      dup4\n        /* \"#utility.yul\":5456:5473   */\n      add\n        /* \"#utility.yul\":5447:5453   */\n      dup7\n        /* \"#utility.yul\":5403:5474   */\n      tag_102\n      jump\t// in\n    tag_189:\n        /* \"#utility.yul\":5521:5530   */\n      dup2\n        /* \"#utility.yul\":5515:5519   */\n      dup2\n        /* \"#utility.yul\":5511:5531   */\n      sub\n        /* \"#utility.yul\":5506:5508   */\n      0x20\n        /* \"#utility.yul\":5495:5504   */\n      dup4\n        /* \"#utility.yul\":5491:5509   */\n      add\n        /* \"#utility.yul\":5484:5532   */\n      mstore\n        /* \"#utility.yul\":5549:5627   */\n      tag_190\n        /* \"#utility.yul\":5622:5626   */\n      dup2\n        /* \"#utility.yul\":5613:5619   */\n      dup6\n        /* \"#utility.yul\":5549:5627   */\n      tag_106\n      jump\t// in\n    tag_190:\n        /* \"#utility.yul\":5541:5627   */\n      swap1\n      pop\n        /* \"#utility.yul\":5674:5683   */\n      dup2\n        /* \"#utility.yul\":5668:5672   */\n      dup2\n        /* \"#utility.yul\":5664:5684   */\n      sub\n        /* \"#utility.yul\":5659:5661   */\n      0x40\n        /* \"#utility.yul\":5648:5657   */\n      dup4\n        /* \"#utility.yul\":5644:5662   */\n      add\n        /* \"#utility.yul\":5637:5685   */\n      mstore\n        /* \"#utility.yul\":5702:5780   */\n      tag_191\n        /* \"#utility.yul\":5775:5779   */\n      dup2\n        /* \"#utility.yul\":5766:5772   */\n      dup5\n        /* \"#utility.yul\":5702:5780   */\n      tag_106\n      jump\t// in\n    tag_191:\n        /* \"#utility.yul\":5694:5780   */\n      swap1\n      pop\n        /* \"#utility.yul\":5163:5787   */\n      swap5\n      swap4\n      pop\n      pop\n      pop\n      pop\n      jump\t// out\n        /* \"#utility.yul\":5793:6015   */\n    tag_30:\n        /* \"#utility.yul\":5886:5890   */\n      0x00\n        /* \"#utility.yul\":5924:5926   */\n      0x20\n        /* \"#utility.yul\":5913:5922   */\n      dup3\n        /* \"#utility.yul\":5909:5927   */\n      add\n        /* \"#utility.yul\":5901:5927   */\n      swap1\n      pop\n        /* \"#utility.yul\":5937:6008   */\n      tag_193\n        /* \"#utility.yul\":6005:6006   */\n      0x00\n        /* \"#utility.yul\":5994:6003   */\n      dup4\n        /* \"#utility.yul\":5990:6007   */\n      add\n        /* \"#utility.yul\":5981:5987   */\n      dup5\n        /* \"#utility.yul\":5937:6008   */\n      tag_102\n      jump\t// in\n    tag_193:\n        /* \"#utility.yul\":5793:6015   */\n      swap3\n      swap2\n      pop\n      pop\n      jump\t// out\n        /* \"#utility.yul\":6021:6201   */\n    tag_107:\n        /* \"#utility.yul\":6069:6146   */\n      0x4e487b7100000000000000000000000000000000000000000000000000000000\n        /* \"#utility.yul\":6066:6067   */\n      0x00\n        /* \"#utility.yul\":6059:6147   */\n      mstore\n        /* \"#utility.yul\":6166:6170   */\n      0x22\n        /* \"#utility.yul\":6163:6164   */\n      0x04\n        /* \"#utility.yul\":6156:6171   */\n      mstore\n        /* \"#utility.yul\":6190:6194   */\n      0x24\n        /* \"#utility.yul\":6187:6188   */\n      0x00\n        /* \"#utility.yul\":6180:6195   */\n      revert\n        /* \"#utility.yul\":6207:6527   */\n    tag_47:\n        /* \"#utility.yul\":6251:6257   */\n      0x00\n        /* \"#utility.yul\":6288:6289   */\n      0x02\n        /* \"#utility.yul\":6282:6286   */\n      dup3\n        /* \"#utility.yul\":6278:6290   */\n      div\n        /* \"#utility.yul\":6268:6290   */\n      swap1\n      pop\n        /* \"#utility.yul\":6335:6336   */\n      0x01\n        /* \"#utility.yul\":6329:6333   */\n      dup3\n        /* \"#utility.yul\":6325:6337   */\n      and\n        /* \"#utility.yul\":6356:6374   */\n      dup1\n        /* \"#utility.yul\":6346:6427   */\n      tag_196\n      jumpi\n        /* \"#utility.yul\":6412:6416   */\n      0x7f\n        /* \"#utility.yul\":6404:6410   */\n      dup3\n        /* \"#utility.yul\":6400:6417   */\n      and\n        /* \"#utility.yul\":6390:6417   */\n      swap2\n      pop\n        /* \"#utility.yul\":6346:6427   */\n    tag_196:\n        /* \"#utility.yul\":6474:6476   */\n      0x20\n        /* \"#utility.yul\":6466:6472   */\n      dup3\n        /* \"#utility.yul\":6463:6477   */\n      lt\n        /* \"#utility.yul\":6443:6461   */\n      dup2\n        /* \"#utility.yul\":6440:6478   */\n      sub\n        /* \"#utility.yul\":6437:6521   */\n      tag_197\n      jumpi\n        /* \"#utility.yul\":6493:6511   */\n      tag_198\n      tag_107\n      jump\t// in\n    tag_198:\n        /* \"#utility.yul\":6437:6521   */\n    tag_197:\n        /* \"#utility.yul\":6258:6527   */\n      pop\n        /* \"#utility.yul\":6207:6527   */\n      swap2\n      swap1\n      pop\n      jump\t// out\n        /* \"#utility.yul\":6533:6674   */\n    tag_108:\n        /* \"#utility.yul\":6582:6586   */\n      0x00\n        /* \"#utility.yul\":6605:6608   */\n      dup2\n        /* \"#utility.yul\":6597:6608   */\n      swap1\n      pop\n        /* \"#utility.yul\":6628:6631   */\n      dup2\n        /* \"#utility.yul\":6625:6626   */\n      0x00\n        /* \"#utility.yul\":6618:6632   */\n      mstore\n        /* \"#utility.yul\":6662:6666   */\n      0x20\n        /* \"#utility.yul\":6659:6660   */\n      0x00\n        /* \"#utility.yul\":6649:6667   */\n      keccak256\n        /* \"#utility.yul\":6641:6667   */\n      swap1\n      pop\n        /* \"#utility.yul\":6533:6674   */\n      swap2\n      swap1\n      pop\n      jump\t// out\n        /* \"#utility.yul\":6680:6773   */\n    tag_109:\n        /* \"#utility.yul\":6717:6723   */\n      0x00\n        /* \"#utility.yul\":6764:6766   */\n      0x20\n        /* \"#utility.yul\":6759:6761   */\n      0x1f\n        /* \"#utility.yul\":6752:6757   */\n      dup4\n        /* \"#utility.yul\":6748:6762   */\n      add\n        /* \"#utility.yul\":6744:6767   */\n      div\n        /* \"#utility.yul\":6734:6767   */\n      swap1\n      pop\n        /* \"#utility.yul\":6680:6773   */\n      swap2\n      swap1\n      pop\n      jump\t// out\n        /* \"#utility.yul\":6779:6886   */\n    tag_110:\n        /* \"#utility.yul\":6823:6831   */\n      0x00\n        /* \"#utility.yul\":6873:6878   */\n      dup3\n        /* \"#utility.yul\":6867:6871   */\n      dup3\n        /* \"#utility.yul\":6863:6879   */\n      shl\n        /* \"#utility.yul\":6842:6879   */\n      swap1\n      pop\n        /* \"#utility.yul\":6779:6886   */\n      swap3\n      swap2\n      pop\n      pop\n      jump\t// out\n        /* \"#utility.yul\":6892:7285   */\n    tag_111:\n        /* \"#utility.yul\":6961:6967   */\n      0x00\n        /* \"#utility.yul\":7011:7012   */\n      0x08\n        /* \"#utility.yul\":6999:7009   */\n      dup4\n        /* \"#utility.yul\":6995:7013   */\n      mul\n        /* \"#utility.yul\":7034:7131   */\n      tag_203\n        /* \"#utility.yul\":7064:7130   */\n      0xffffffffffffffffffffffffffffffffffffffffffffffffffffffffffffffff\n        /* \"#utility.yul\":7053:7062   */\n      dup3\n        /* \"#utility.yul\":7034:7131   */\n      tag_110\n      jump\t// in\n    tag_203:\n        /* \"#utility.yul\":7152:7191   */\n      tag_204\n        /* \"#utility.yul\":7182:7190   */\n      dup7\n        /* \"#utility.yul\":7171:7180   */\n      dup4\n        /* \"#utility.yul\":7152:7191   */\n      tag_110\n      jump\t// in\n    tag_204:\n        /* \"#utility.yul\":7140:7191   */\n      swap6\n      pop\n        /* \"#utility.yul\":7224:7228   */\n      dup1\n        /* \"#utility.yul\":7220:7229   */\n      not\n        /* \"#utility.yul\":7213:7218   */\n      dup5\n        /* \"#utility.yul\":7209:7230   */\n      and\n        /* \"#utility.yul\":7200:7230   */\n      swap4\n      pop\n        /* \"#utility.yul\":7273:7277   */\n      dup1\n        /* \"#utility.yul\":7263:7271   */\n      dup7\n        /* \"#utility.yul\":7259:7278   */\n      and\n        /* \"#utility.yul\":7252:7257   */\n      dup5\n        /* \"#utility.yul\":7249:7279   */\n      or\n        /* \"#utility.yul\":7239:7279   */\n      swap3\n      pop\n        /* \"#utility.yul\":6968:7285   */\n      pop\n      pop\n        /* \"#utility.yul\":6892:7285   */\n      swap4\n      swap3\n      pop\n      pop\n      pop\n      jump\t// out\n        /* \"#utility.yul\":7291:7351   */\n    tag_112:\n        /* \"#utility.yul\":7319:7322   */\n      0x00\n        /* \"#utility.yul\":7340:7345   */\n      dup2\n        /* \"#utility.yul\":7333:7345   */\n      swap1\n      pop\n        /* \"#utility.yul\":7291:7351   */\n      swap2\n      swap1\n      pop\n      jump\t// out\n        /* \"#utility.yul\":7357:7499   */\n    tag_113:\n        /* \"#utility.yul\":7407:7416   */\n      0x00\n        /* \"#utility.yul\":7440:7493   */\n      tag_207\n        /* \"#utility.yul\":7458:7492   */\n      tag_208\n        /* \"#utility.yul\":7467:7491   */\n      tag_209\n        /* \"#utility.yul\":7485:7490   */\n      dup5\n        /* \"#utility.yul\":7467:7491   */\n      tag_89\n      jump\t// in\n    tag_209:\n        /* \"#utility.yul\":7458:7492   */\n      tag_112\n      jump\t// in\n    tag_208:\n        /* \"#utility.yul\":7440:7493   */\n      tag_89\n      jump\t// in\n    tag_207:\n        /* \"#utility.yul\":7427:7493   */\n      swap1\n      pop\n        /* \"#utility.yul\":7357:7499   */\n      swap2\n      swap1\n      pop\n      jump\t// out\n        /* \"#utility.yul\":7505:7580   */\n    tag_114:\n        /* \"#utility.yul\":7548:7551   */\n      0x00\n        /* \"#utility.yul\":7569:7574   */\n      dup2\n        /* \"#utility.yul\":7562:7574   */\n      swap1\n      pop\n        /* \"#utility.yul\":7505:7580   */\n      swap2\n      swap1\n      pop\n      jump\t// out\n        /* \"#utility.yul\":7586:7855   */\n    tag_115:\n        /* \"#utility.yul\":7696:7735   */\n      tag_212\n        /* \"#utility.yul\":7727:7734   */\n      dup4\n        /* \"#utility.yul\":7696:7735   */\n      tag_113\n      jump\t// in\n    tag_212:\n        /* \"#utility.yul\":7757:7848   */\n      tag_213\n        /* \"#utility.yul\":7806:7847   */\n      tag_214\n        /* \"#utility.yul\":7830:7846   */\n      dup3\n        /* \"#utility.yul\":7806:7847   */\n      tag_114\n      jump\t// in\n    tag_214:\n        /* \"#utility.yul\":7798:7804   */\n      dup5\n        /* \"#utility.yul\":7791:7795   */\n      dup5\n        /* \"#utility.yul\":7785:7796   */\n      sload\n        /* \"#utility.yul\":7757:7848   */\n      tag_111\n      jump\t// in\n    tag_213:\n        /* \"#utility.yul\":7751:7755   */\n      dup3\n        /* \"#utility.yul\":7744:7849   */\n      sstore\n        /* \"#utility.yul\":7662:7855   */\n      pop\n        /* \"#utility.yul\":7586:7855   */\n      pop\n      pop\n      pop\n      jump\t// out\n        /* \"#utility.yul\":7861:7934   */\n    tag_116:\n        /* \"#utility.yul\":7906:7909   */\n      0x00\n        /* \"#utility.yul\":7927:7928   */\n      0x00\n        /* \"#utility.yul\":7920:7928   */\n      swap1\n      pop\n        /* \"#utility.yul\":7861:7934   */\n      swap1\n      jump\t// out\n        /* \"#utility.yul\":7940:8129   */\n    tag_117:\n        /* \"#utility.yul\":8017:8049   */\n      tag_217\n      tag_116\n      jump\t// in\n    tag_217:\n        /* \"#utility.yul\":8058:8123   */\n      tag_218\n        /* \"#utility.yul\":8116:8122   */\n      dup2\n        /* \"#utility.yul\":8108:8114   */\n      dup5\n        /* \"#utility.yul\":8102:8106   */\n      dup5\n        /* \"#utility.yul\":8058:8123   */\n      tag_115\n      jump\t// in\n    tag_218:\n        /* \"#utility.yul\":7993:8129   */\n      pop\n        /* \"#utility.yul\":7940:8129   */\n      pop\n      pop\n      jump\t// out\n        /* \"#utility.yul\":8135:8321   */\n    tag_118:\n        /* \"#utility.yul\":8195:8315   */\n    tag_220:\n        /* \"#utility.yul\":8212:8215   */\n      dup2\n        /* \"#utility.yul\":8205:8210   */\n      dup2\n        /* \"#utility.yul\":8202:8216   */\n      lt\n        /* \"#utility.yul\":8195:8315   */\n      iszero\n      tag_222\n      jumpi\n        /* \"#utility.yul\":8266:8305   */\n      tag_223\n        /* \"#utility.yul\":8303:8304   */\n      0x00\n        /* \"#utility.yul\":8296:8301   */\n      dup3\n        /* \"#utility.yul\":8266:8305   */\n      tag_117\n      jump\t// in\n    tag_223:\n        /* \"#utility.yul\":8239:8240   */\n      0x01\n        /* \"#utility.yul\":8232:8237   */\n      dup2\n        /* \"#utility.yul\":8228:8241   */\n      add\n        /* \"#utility.yul\":8219:8241   */\n      swap1\n      pop\n        /* \"#utility.yul\":8195:8315   */\n      jump(tag_220)\n    tag_222:\n        /* \"#utility.yul\":8135:8321   */\n      pop\n      pop\n      jump\t// out\n        /* \"#utility.yul\":8327:8870   */\n    tag_119:\n        /* \"#utility.yul\":8428:8430   */\n      0x1f\n        /* \"#utility.yul\":8423:8426   */\n      dup3\n        /* \"#utility.yul\":8420:8431   */\n      gt\n        /* \"#utility.yul\":8417:8863   */\n      iszero\n      tag_225\n      jumpi\n        /* \"#utility.yul\":8462:8500   */\n      tag_226\n        /* \"#utility.yul\":8494:8499   */\n      dup2\n        /* \"#utility.yul\":8462:8500   */\n      tag_108\n      jump\t// in\n    tag_226:\n        /* \"#utility.yul\":8546:8575   */\n      tag_227\n        /* \"#utility.yul\":8564:8574   */\n      dup5\n        /* \"#utility.yul\":8546:8575   */\n      tag_109\n      jump\t// in\n    tag_227:\n        /* \"#utility.yul\":8536:8544   */\n      dup2\n        /* \"#utility.yul\":8532:8576   */\n      add\n        /* \"#utility.yul\":8729:8731   */\n      0x20\n        /* \"#utility.yul\":8717:8727   */\n      dup6\n        /* \"#utility.yul\":8714:8732   */\n      lt\n        /* \"#utility.yul\":8711:8760   */\n      iszero\n      tag_228\n      jumpi\n        /* \"#utility.yul\":8750:8758   */\n      dup2\n        /* \"#utility.yul\":8735:8758   */\n      swap1\n      pop\n        /* \"#utility.yul\":8711:8760   */\n    tag_228:\n        /* \"#utility.yul\":8773:8853   */\n      tag_229\n        /* \"#utility.yul\":8829:8851   */\n      tag_230\n        /* \"#utility.yul\":8847:8850   */\n      dup6\n        /* \"#utility.yul\":8829:8851   */\n      tag_109\n      jump\t// in\n    tag_230:\n        /* \"#utility.yul\":8819:8827   */\n      dup4\n        /* \"#utility.yul\":8815:8852   */\n      add\n        /* \"#utility.yul\":8802:8813   */\n      dup3\n        /* \"#utility.yul\":8773:8853   */\n      tag_118\n      jump\t// in\n    tag_229:\n        /* \"#utility.yul\":8432:8863   */\n      pop\n      pop\n        /* \"#utility.yul\":8417:8863   */\n    tag_225:\n        /* \"#utility.yul\":8327:8870   */\n      pop\n      pop\n      pop\n      jump\t// out\n        /* \"#utility.yul\":8876:8993   */\n    tag_120:\n        /* \"#utility.yul\":8930:8938   */\n      0x00\n        /* \"#utility.yul\":8980:8985   */\n      dup3\n        /* \"#utility.yul\":8974:8978   */\n      dup3\n        /* \"#utility.yul\":8970:8986   */\n      shr\n        /* \"#utility.yul\":8949:8986   */\n      swap1\n      pop\n        /* \"#utility.yul\":8876:8993   */\n      swap3\n      swap2\n      pop\n      pop\n      jump\t// out\n        /* \"#utility.yul\":8999:9168   */\n    tag_121:\n        /* \"#utility.yul\":9043:9049   */\n      0x00\n        /* \"#utility.yul\":9076:9127   */\n      tag_233\n        /* \"#utility.yul\":9124:9125   */\n      0x00\n        /* \"#utility.yul\":9120:9126   */\n      not\n        /* \"#utility.yul\":9112:9117   */\n      dup5\n        /* \"#utility.yul\":9109:9110   */\n      0x08\n        /* \"#utility.yul\":9105:9118   */\n      mul\n        /* \"#utility.yul\":9076:9127   */\n      tag_120\n      jump\t// in\n    tag_233:\n        /* \"#utility.yul\":9072:9128   */\n      not\n        /* \"#utility.yul\":9157:9161   */\n      dup1\n        /* \"#utility.yul\":9151:9155   */\n      dup4\n        /* \"#utility.yul\":9147:9162   */\n      and\n        /* \"#utility.yul\":9137:9162   */\n      swap2\n      pop\n        /* \"#utility.yul\":9050:9168   */\n      pop\n        /* \"#utility.yul\":8999:9168   */\n      swap3\n      swap2\n      pop\n      pop\n      jump\t// out\n        /* \"#utility.yul\":9173:9468   */\n    tag_122:\n        /* \"#utility.yul\":9249:9253   */\n      0x00\n        /* \"#utility.yul\":9395:9424   */\n      tag_235\n        /* \"#utility.yul\":9420:9423   */\n      dup4\n        /* \"#utility.yul\":9414:9418   */\n      dup4\n        /* \"#utility.yul\":9395:9424   */\n      tag_121\n      jump\t// in\n    tag_235:\n        /* \"#utility.yul\":9387:9424   */\n      swap2\n      pop\n        /* \"#utility.yul\":9457:9460   */\n      dup3\n        /* \"#utility.yul\":9454:9455   */\n      0x02\n        /* \"#utility.yul\":9450:9461   */\n      mul\n        /* \"#utility.yul\":9444:9448   */\n      dup3\n        /* \"#utility.yul\":9441:9462   */\n      or\n        /* \"#utility.yul\":9433:9462   */\n      swap1\n      pop\n        /* \"#utility.yul\":9173:9468   */\n      swap3\n      swap2\n      pop\n      pop\n      jump\t// out\n        /* \"#utility.yul\":9473:10868   */\n    tag_34:\n        /* \"#utility.yul\":9590:9627   */\n      tag_237\n        /* \"#utility.yul\":9623:9626   */\n      dup3\n        /* \"#utility.yul\":9590:9627   */\n      tag_103\n      jump\t// in\n    tag_237:\n        /* \"#utility.yul\":9692:9710   */\n      0xffffffffffffffff\n        /* \"#utility.yul\":9684:9690   */\n      dup2\n        /* \"#utility.yul\":9681:9711   */\n      gt\n        /* \"#utility.yul\":9678:9734   */\n      iszero\n      tag_238\n      jumpi\n        /* \"#utility.yul\":9714:9732   */\n      tag_239\n      tag_95\n      jump\t// in\n    tag_239:\n        /* \"#utility.yul\":9678:9734   */\n    tag_238:\n        /* \"#utility.yul\":9758:9796   */\n      tag_240\n        /* \"#utility.yul\":9790:9794   */\n      dup3\n        /* \"#utility.yul\":9784:9795   */\n      sload\n        /* \"#utility.yul\":9758:9796   */\n      tag_47\n      jump\t// in\n    tag_240:\n        /* \"#utility.yul\":9843:9910   */\n      tag_241\n        /* \"#utility.yul\":9903:9909   */\n      dup3\n        /* \"#utility.yul\":9895:9901   */\n      dup3\n        /* \"#utility.yul\":9889:9893   */\n      dup6\n        /* \"#utility.yul\":9843:9910   */\n      tag_119\n      jump\t// in\n    tag_241:\n        /* \"#utility.yul\":9937:9938   */\n      0x00\n        /* \"#utility.yul\":9961:9965   */\n      0x20\n        /* \"#utility.yul\":9948:9965   */\n      swap1\n      pop\n        /* \"#utility.yul\":9993:9995   */\n      0x1f\n        /* \"#utility.yul\":9985:9991   */\n      dup4\n        /* \"#utility.yul\":9982:9996   */\n      gt\n        /* \"#utility.yul\":10010:10011   */\n      0x01\n        /* \"#utility.yul\":10005:10623   */\n      dup2\n      eq\n      tag_243\n      jumpi\n        /* \"#utility.yul\":10667:10668   */\n      0x00\n        /* \"#utility.yul\":10684:10690   */\n      dup5\n        /* \"#utility.yul\":10681:10758   */\n      iszero\n      tag_244\n      jumpi\n        /* \"#utility.yul\":10733:10742   */\n      dup3\n        /* \"#utility.yul\":10728:10731   */\n      dup8\n        /* \"#utility.yul\":10724:10743   */\n      add\n        /* \"#utility.yul\":10718:10744   */\n      mload\n        /* \"#utility.yul\":10709:10744   */\n      swap1\n      pop\n        /* \"#utility.yul\":10681:10758   */\n    tag_244:\n        /* \"#utility.yul\":10784:10851   */\n      tag_245\n        /* \"#utility.yul\":10844:10850   */\n      dup6\n        /* \"#utility.yul\":10837:10842   */\n      dup3\n        /* \"#utility.yul\":10784:10851   */\n      tag_122\n      jump\t// in\n    tag_245:\n        /* \"#utility.yul\":10778:10782   */\n      dup7\n        /* \"#utility.yul\":10771:10852   */\n      sstore\n        /* \"#utility.yul\":10640:10862   */\n      pop\n        /* \"#utility.yul\":9975:10862   */\n      jump(tag_242)\n        /* \"#utility.yul\":10005:10623   */\n    tag_243:\n        /* \"#utility.yul\":10057:10061   */\n      0x1f\n        /* \"#utility.yul\":10053:10062   */\n      not\n        /* \"#utility.yul\":10045:10051   */\n      dup5\n        /* \"#utility.yul\":10041:10063   */\n      and\n        /* \"#utility.yul\":10091:10128   */\n      tag_246\n        /* \"#utility.yul\":10123:10127   */\n      dup7\n        /* \"#utility.yul\":10091:10128   */\n      tag_108\n      jump\t// in\n    tag_246:\n        /* \"#utility.yul\":10150:10151   */\n      0x00\n        /* \"#utility.yul\":10164:10372   */\n    tag_247:\n        /* \"#utility.yul\":10178:10185   */\n      dup3\n        /* \"#utility.yul\":10175:10176   */\n      dup2\n        /* \"#utility.yul\":10172:10186   */\n      lt\n        /* \"#utility.yul\":10164:10372   */\n      iszero\n      tag_249\n      jumpi\n        /* \"#utility.yul\":10257:10266   */\n      dup5\n        /* \"#utility.yul\":10252:10255   */\n      dup10\n        /* \"#utility.yul\":10248:10267   */\n      add\n        /* \"#utility.yul\":10242:10268   */\n      mload\n        /* \"#utility.yul\":10234:10240   */\n      dup3\n        /* \"#utility.yul\":10227:10269   */\n      sstore\n        /* \"#utility.yul\":10308:10309   */\n      0x01\n        /* \"#utility.yul\":10300:10306   */\n      dup3\n        /* \"#utility.yul\":10296:10310   */\n      add\n        /* \"#utility.yul\":10286:10310   */\n      swap2\n      pop\n        /* \"#utility.yul\":10355:10357   */\n      0x20\n        /* \"#utility.yul\":10344:10353   */\n      dup6\n        /* \"#utility.yul\":10340:10358   */\n      add\n        /* \"#utility.yul\":10327:10358   */\n      swap5\n      pop\n        /* \"#utility.yul\":10201:10205   */\n      0x20\n        /* \"#utility.yul\":10198:10199   */\n      dup2\n        /* \"#utility.yul\":10194:10206   */\n      add\n        /* \"#utility.yul\":10189:10206   */\n      swap1\n      pop\n        /* \"#utility.yul\":10164:10372   */\n      jump(tag_247)\n    tag_249:\n        /* \"#utility.yul\":10400:10406   */\n      dup7\n        /* \"#utility.yul\":10391:10398   */\n      dup4\n        /* \"#utility.yul\":10388:10407   */\n      lt\n        /* \"#utility.yul\":10385:10564   */\n      iszero\n      tag_250\n      jumpi\n        /* \"#utility.yul\":10458:10467   */\n      dup5\n        /* \"#utility.yul\":10453:10456   */\n      dup10\n        /* \"#utility.yul\":10449:10468   */\n      add\n        /* \"#utility.yul\":10443:10469   */\n      mload\n        /* \"#utility.yul\":10501:10549   */\n      tag_251\n        /* \"#utility.yul\":10543:10547   */\n      0x1f\n        /* \"#utility.yul\":10535:10541   */\n      dup10\n        /* \"#utility.yul\":10531:10548   */\n      and\n        /* \"#utility.yul\":10520:10529   */\n      dup3\n        /* \"#utility.yul\":10501:10549   */\n      tag_121\n      jump\t// in\n    tag_251:\n        /* \"#utility.yul\":10493:10499   */\n      dup4\n        /* \"#utility.yul\":10486:10550   */\n      sstore\n        /* \"#utility.yul\":10408:10564   */\n      pop\n        /* \"#utility.yul\":10385:10564   */\n    tag_250:\n        /* \"#utility.yul\":10610:10611   */\n      0x01\n        /* \"#utility.yul\":10606:10607   */\n      0x02\n        /* \"#utility.yul\":10598:10604   */\n      dup9\n        /* \"#utility.yul\":10594:10608   */\n      mul\n        /* \"#utility.yul\":10590:10612   */\n      add\n        /* \"#utility.yul\":10584:10588   */\n      dup9\n        /* \"#utility.yul\":10577:10613   */\n      sstore\n        /* \"#utility.yul\":10012:10623   */\n      pop\n      pop\n      pop\n        /* \"#utility.yul\":9975:10862   */\n    tag_242:\n      pop\n        /* \"#utility.yul\":9565:10868   */\n      pop\n      pop\n      pop\n        /* \"#utility.yul\":9473:10868   */\n      pop\n      pop\n      jump\t// out\n        /* \"#utility.yul\":10874:11054   */\n    tag_123:\n        /* \"#utility.yul\":10922:10999   */\n      0x4e487b7100000000000000000000000000000000000000000000000000000000\n        /* \"#utility.yul\":10919:10920   */\n      0x00\n        /* \"#utility.yul\":10912:11000   */\n      mstore\n        /* \"#utility.yul\":11019:11023   */\n      0x11\n        /* \"#utility.yul\":11016:11017   */\n      0x04\n        /* \"#utility.yul\":11009:11024   */\n      mstore\n        /* \"#utility.yul\":11043:11047   */\n      0x24\n        /* \"#utility.yul\":11040:11041   */\n      0x00\n        /* \"#utility.yul\":11033:11048   */\n      revert\n        /* \"#utility.yul\":11060:11254   */\n    tag_37:\n        /* \"#utility.yul\":11100:11104   */\n      0x00\n        /* \"#utility.yul\":11120:11140   */\n      tag_254\n        /* \"#utility.yul\":11138:11139   */\n      dup3\n        /* \"#utility.yul\":11120:11140   */\n      tag_89\n      jump\t// in\n    tag_254:\n        /* \"#utility.yul\":11115:11140   */\n      swap2\n      pop\n        /* \"#utility.yul\":11154:11174   */\n      tag_255\n        /* \"#utility.yul\":11172:11173   */\n      dup4\n        /* \"#utility.yul\":11154:11174   */\n      tag_89\n      jump\t// in\n    tag_255:\n        /* \"#utility.yul\":11149:11174   */\n      swap3\n      pop\n        /* \"#utility.yul\":11198:11199   */\n      dup3\n        /* \"#utility.yul\":11195:11196   */\n      dup3\n        /* \"#utility.yul\":11191:11200   */\n      sub\n        /* \"#utility.yul\":11183:11200   */\n      swap1\n      pop\n        /* \"#utility.yul\":11222:11223   */\n      dup2\n        /* \"#utility.yul\":11216:11220   */\n      dup2\n        /* \"#utility.yul\":11213:11224   */\n      gt\n        /* \"#utility.yul\":11210:11247   */\n      iszero\n      tag_256\n      jumpi\n        /* \"#utility.yul\":11227:11245   */\n      tag_257\n      tag_123\n      jump\t// in\n    tag_257:\n        /* \"#utility.yul\":11210:11247   */\n    tag_256:\n        /* \"#utility.yul\":11060:11254   */\n      swap3\n      swap2\n      pop\n      pop\n      jump\t// out\n        /* \"#utility.yul\":11260:11429   */\n    tag_124:\n        /* \"#utility.yul\":11400:11421   */\n      0x496e646578206f7574206f6620626f756e647300000000000000000000000000\n        /* \"#utility.yul\":11396:11397   */\n      0x00\n        /* \"#utility.yul\":11388:11394   */\n      dup3\n        /* \"#utility.yul\":11384:11398   */\n      add\n        /* \"#utility.yul\":11377:11422   */\n      mstore\n        /* \"#utility.yul\":11260:11429   */\n      pop\n      jump\t// out\n        /* \"#utility.yul\":11435:11801   */\n    tag_125:\n        /* \"#utility.yul\":11577:11580   */\n      0x00\n        /* \"#utility.yul\":11598:11665   */\n      tag_260\n        /* \"#utility.yul\":11662:11664   */\n      0x13\n        /* \"#utility.yul\":11657:11660   */\n      dup4\n        /* \"#utility.yul\":11598:11665   */\n      tag_104\n      jump\t// in\n    tag_260:\n        /* \"#utility.yul\":11591:11665   */\n      swap2\n      pop\n        /* \"#utility.yul\":11674:11767   */\n      tag_261\n        /* \"#utility.yul\":11763:11766   */\n      dup3\n        /* \"#utility.yul\":11674:11767   */\n      tag_124\n      jump\t// in\n    tag_261:\n        /* \"#utility.yul\":11792:11794   */\n      0x20\n        /* \"#utility.yul\":11787:11790   */\n      dup3\n        /* \"#utility.yul\":11783:11795   */\n      add\n        /* \"#utility.yul\":11776:11795   */\n      swap1\n      pop\n        /* \"#utility.yul\":11435:11801   */\n      swap2\n      swap1\n      pop\n      jump\t// out\n        /* \"#utility.yul\":11807:12226   */\n    tag_41:\n        /* \"#utility.yul\":11973:11977   */\n      0x00\n        /* \"#utility.yul\":12011:12013   */\n      0x20\n        /* \"#utility.yul\":12000:12009   */\n      dup3\n        /* \"#utility.yul\":11996:12014   */\n      add\n        /* \"#utility.yul\":11988:12014   */\n      swap1\n      pop\n        /* \"#utility.yul\":12060:12069   */\n      dup2\n        /* \"#utility.yul\":12054:12058   */\n      dup2\n        /* \"#utility.yul\":12050:12070   */\n      sub\n        /* \"#utility.yul\":12046:12047   */\n      0x00\n        /* \"#utility.yul\":12035:12044   */\n      dup4\n        /* \"#utility.yul\":12031:12048   */\n      add\n        /* \"#utility.yul\":12024:12071   */\n      mstore\n        /* \"#utility.yul\":12088:12219   */\n      tag_263\n        /* \"#utility.yul\":12214:12218   */\n      dup2\n        /* \"#utility.yul\":12088:12219   */\n      tag_125\n      jump\t// in\n    tag_263:\n        /* \"#utility.yul\":12080:12219   */\n      swap1\n      pop\n        /* \"#utility.yul\":11807:12226   */\n      swap2\n      swap1\n      pop\n      jump\t// out\n        /* \"#utility.yul\":12232:12412   */\n    tag_44:\n        /* \"#utility.yul\":12280:12357   */\n      0x4e487b7100000000000000000000000000000000000000000000000000000000\n        /* \"#utility.yul\":12277:12278   */\n      0x00\n        /* \"#utility.yul\":12270:12358   */\n      mstore\n        /* \"#utility.yul\":12377:12381   */\n      0x32\n        /* \"#utility.yul\":12374:12375   */\n      0x04\n        /* \"#utility.yul\":12367:12382   */\n      mstore\n        /* \"#utility.yul\":12401:12405   */\n      0x24\n        /* \"#utility.yul\":12398:12399   */\n      0x00\n        /* \"#utility.yul\":12391:12406   */\n      revert\n        /* \"#utility.yul\":12418:12582   */\n    tag_126:\n        /* \"#utility.yul\":12558:12574   */\n      0x426f6f6b206e6f7420666f756e64000000000000000000000000000000000000\n        /* \"#utility.yul\":12554:12555   */\n      0x00\n        /* \"#utility.yul\":12546:12552   */\n      dup3\n        /* \"#utility.yul\":12542:12556   */\n      add\n        /* \"#utility.yul\":12535:12575   */\n      mstore\n        /* \"#utility.yul\":12418:12582   */\n      pop\n      jump\t// out\n        /* \"#utility.yul\":12588:12954   */\n    tag_127:\n        /* \"#utility.yul\":12730:12733   */\n      0x00\n        /* \"#utility.yul\":12751:12818   */\n      tag_267\n        /* \"#utility.yul\":12815:12817   */\n      0x0e\n        /* \"#utility.yul\":12810:12813   */\n      dup4\n        /* \"#utility.yul\":12751:12818   */\n      tag_104\n      jump\t// in\n    tag_267:\n        /* \"#utility.yul\":12744:12818   */\n      swap2\n      pop\n        /* \"#utility.yul\":12827:12920   */\n      tag_268\n        /* \"#utility.yul\":12916:12919   */\n      dup3\n        /* \"#utility.yul\":12827:12920   */\n      tag_126\n      jump\t// in\n    tag_268:\n        /* \"#utility.yul\":12945:12947   */\n      0x20\n        /* \"#utility.yul\":12940:12943   */\n      dup3\n        /* \"#utility.yul\":12936:12948   */\n      add\n        /* \"#utility.yul\":12929:12948   */\n      swap1\n      pop\n        /* \"#utility.yul\":12588:12954   */\n      swap2\n      swap1\n      pop\n      jump\t// out\n        /* \"#utility.yul\":12960:13379   */\n    tag_60:\n        /* \"#utility.yul\":13126:13130   */\n      0x00\n        /* \"#utility.yul\":13164:13166   */\n      0x20\n        /* \"#utility.yul\":13153:13162   */\n      dup3\n        /* \"#utility.yul\":13149:13167   */\n      add\n        /* \"#utility.yul\":13141:13167   */\n      swap1\n      pop\n        /* \"#utility.yul\":13213:13222   */\n      dup2\n        /* \"#utility.yul\":13207:13211   */\n      dup2\n        /* \"#utility.yul\":13203:13223   */\n      sub\n        /* \"#utility.yul\":13199:13200   */\n      0x00\n        /* \"#utility.yul\":13188:13197   */\n      dup4\n        /* \"#utility.yul\":13184:13201   */\n      add\n        /* \"#utility.yul\":13177:13224   */\n      mstore\n        /* \"#utility.yul\":13241:13372   */\n      tag_270\n        /* \"#utility.yul\":13367:13371   */\n      dup2\n        /* \"#utility.yul\":13241:13372   */\n      tag_127\n      jump\t// in\n    tag_270:\n        /* \"#utility.yul\":13233:13372   */\n      swap1\n      pop\n        /* \"#utility.yul\":12960:13379   */\n      swap2\n      swap1\n      pop\n      jump\t// out\n\n    auxdata: 0xa2646970667358221220517e78d7543dbf9442634d9418bc839c02a0eae90bf80e4ceab21d57b097e51464736f6c634300081e0033\n}\n",
				"bytecode": {
					"linkReferences": {},
					"object": "6080604052348015600e575f5ffd5b50610e1e8061001c5f395ff3fe608060405234801561000f575f5ffd5b5060043610610055575f3560e01c8063028414f2146100595780632ba53db214610075578063418b79ab146100a757806368744046146100d9578063a965b9881461010b575b5f5ffd5b610073600480360381019061006e9190610841565b61013b565b005b61008f600480360381019061008a91906108c9565b6101de565b60405161009e93929190610963565b60405180910390f35b6100c160048036038101906100bc91906108c9565b61039a565b6040516100d093929190610963565b60405180910390f35b6100f360048036038101906100ee91906108c9565b61056c565b60405161010293929190610963565b60405180910390f35b610125600480360381019061012091906108c9565b6106ac565b60405161013291906109a6565b60405180910390f35b5f604051806060016040528085815260200184815260200183815250908060018154018082558091505060019003905f5260205f2090600302015f909190919091505f820151815f0155602082015181600101908161019a9190610bbc565b5060408201518160020190816101b09190610bbc565b50505060015f805490506101c49190610cb8565b60015f8581526020019081526020015f2081905550505050565b5f6060805f805490508410610228576040517f08c379a000000000000000000000000000000000000000000000000000000000815260040161021f90610d35565b60405180910390fd5b5f5f858154811061023c5761023b610d53565b5b905f5260205f2090600302016040518060600160405290815f820154815260200160018201805461026c906109ec565b80601f0160208091040260200160405190810160405280929190818152602001828054610298906109ec565b80156102e35780601f106102ba576101008083540402835291602001916102e3565b820191905f5260205f20905b8154815290600101906020018083116102c657829003601f168201915b505050505081526020016002820180546102fc906109ec565b80601f0160208091040260200160405190810160405280929190818152602001828054610328906109ec565b80156103735780601f1061034a57610100808354040283529160200191610373565b820191905f5260205f20905b81548152906001019060200180831161035657829003601f168201915b5050505050815250509050805f015181602001518260400151935093509350509193909250565b5f6060805f60015f8681526020019081526020015f205490505f8054905081106103f9576040517f08c379a00000000000000000000000000000000000000000000000000000000081526004016103f090610dca565b60405180910390fd5b5f5f828154811061040d5761040c610d53565b5b905f5260205f2090600302016040518060600160405290815f820154815260200160018201805461043d906109ec565b80601f0160208091040260200160405190810160405280929190818152602001828054610469906109ec565b80156104b45780601f1061048b576101008083540402835291602001916104b4565b820191905f5260205f20905b81548152906001019060200180831161049757829003601f168201915b505050505081526020016002820180546104cd906109ec565b80601f01602080910402602001604051908101604052809291908181526020018280546104f9906109ec565b80156105445780601f1061051b57610100808354040283529160200191610544565b820191905f5260205f20905b81548152906001019060200180831161052757829003601f168201915b5050505050815250509050805f01518160200151826040015194509450945050509193909250565b5f818154811061057a575f80fd5b905f5260205f2090600302015f91509050805f01549080600101805461059f906109ec565b80601f01602080910402602001604051908101604052809291908181526020018280546105cb906109ec565b80156106165780601f106105ed57610100808354040283529160200191610616565b820191905f5260205f20905b8154815290600101906020018083116105f957829003601f168201915b50505050509080600201805461062b906109ec565b80601f0160208091040260200160405190810160405280929190818152602001828054610657906109ec565b80156106a25780601f10610679576101008083540402835291602001916106a2565b820191905f5260205f20905b81548152906001019060200180831161068557829003601f168201915b5050505050905083565b6001602052805f5260405f205f915090505481565b5f604051905090565b5f5ffd5b5f5ffd5b5f819050919050565b6106e4816106d2565b81146106ee575f5ffd5b50565b5f813590506106ff816106db565b92915050565b5f5ffd5b5f5ffd5b5f601f19601f8301169050919050565b7f4e487b71000000000000000000000000000000000000000000000000000000005f52604160045260245ffd5b6107538261070d565b810181811067ffffffffffffffff821117156107725761077161071d565b5b80604052505050565b5f6107846106c1565b9050610790828261074a565b919050565b5f67ffffffffffffffff8211156107af576107ae61071d565b5b6107b88261070d565b9050602081019050919050565b828183375f83830152505050565b5f6107e56107e084610795565b61077b565b90508281526020810184848401111561080157610800610709565b5b61080c8482856107c5565b509392505050565b5f82601f83011261082857610827610705565b5b81356108388482602086016107d3565b91505092915050565b5f5f5f60608486031215610858576108576106ca565b5b5f610865868287016106f1565b935050602084013567ffffffffffffffff811115610886576108856106ce565b5b61089286828701610814565b925050604084013567ffffffffffffffff8111156108b3576108b26106ce565b5b6108bf86828701610814565b9150509250925092565b5f602082840312156108de576108dd6106ca565b5b5f6108eb848285016106f1565b91505092915050565b6108fd816106d2565b82525050565b5f81519050919050565b5f82825260208201905092915050565b8281835e5f83830152505050565b5f61093582610903565b61093f818561090d565b935061094f81856020860161091d565b6109588161070d565b840191505092915050565b5f6060820190506109765f8301866108f4565b8181036020830152610988818561092b565b9050818103604083015261099c818461092b565b9050949350505050565b5f6020820190506109b95f8301846108f4565b92915050565b7f4e487b71000000000000000000000000000000000000000000000000000000005f52602260045260245ffd5b5f6002820490506001821680610a0357607f821691505b602082108103610a1657610a156109bf565b5b50919050565b5f819050815f5260205f209050919050565b5f6020601f8301049050919050565b5f82821b905092915050565b5f60088302610a787fffffffffffffffffffffffffffffffffffffffffffffffffffffffffffffffff82610a3d565b610a828683610a3d565b95508019841693508086168417925050509392505050565b5f819050919050565b5f610abd610ab8610ab3846106d2565b610a9a565b6106d2565b9050919050565b5f819050919050565b610ad683610aa3565b610aea610ae282610ac4565b848454610a49565b825550505050565b5f5f905090565b610b01610af2565b610b0c818484610acd565b505050565b5b81811015610b2f57610b245f82610af9565b600181019050610b12565b5050565b601f821115610b7457610b4581610a1c565b610b4e84610a2e565b81016020851015610b5d578190505b610b71610b6985610a2e565b830182610b11565b50505b505050565b5f82821c905092915050565b5f610b945f1984600802610b79565b1980831691505092915050565b5f610bac8383610b85565b9150826002028217905092915050565b610bc582610903565b67ffffffffffffffff811115610bde57610bdd61071d565b5b610be882546109ec565b610bf3828285610b33565b5f60209050601f831160018114610c24575f8415610c12578287015190505b610c1c8582610ba1565b865550610c83565b601f198416610c3286610a1c565b5f5b82811015610c5957848901518255600182019150602085019450602081019050610c34565b86831015610c765784890151610c72601f891682610b85565b8355505b6001600288020188555050505b505050505050565b7f4e487b71000000000000000000000000000000000000000000000000000000005f52601160045260245ffd5b5f610cc2826106d2565b9150610ccd836106d2565b9250828203905081811115610ce557610ce4610c8b565b5b92915050565b7f496e646578206f7574206f6620626f756e6473000000000000000000000000005f82015250565b5f610d1f60138361090d565b9150610d2a82610ceb565b602082019050919050565b5f6020820190508181035f830152610d4c81610d13565b9050919050565b7f4e487b71000000000000000000000000000000000000000000000000000000005f52603260045260245ffd5b7f426f6f6b206e6f7420666f756e640000000000000000000000000000000000005f82015250565b5f610db4600e8361090d565b9150610dbf82610d80565b602082019050919050565b5f6020820190508181035f830152610de181610da8565b905091905056fea2646970667358221220517e78d7543dbf9442634d9418bc839c02a0eae90bf80e4ceab21d57b097e51464736f6c634300081e0033",
					"opcodes": "PUSH1 0x80 PUSH1 0x40 MSTORE CALLVALUE DUP1 ISZERO PUSH1 0xE JUMPI PUSH0 PUSH0 REVERT JUMPDEST POP PUSH2 0xE1E DUP1 PUSH2 0x1C PUSH0 CODECOPY PUSH0 RETURN INVALID PUSH1 0x80 PUSH1 0x40 MSTORE CALLVALUE DUP1 ISZERO PUSH2 0xF JUMPI PUSH0 PUSH0 REVERT JUMPDEST POP PUSH1 0x4 CALLDATASIZE LT PUSH2 0x55 JUMPI PUSH0 CALLDATALOAD PUSH1 0xE0 SHR DUP1 PUSH4 0x28414F2 EQ PUSH2 0x59 JUMPI DUP1 PUSH4 0x2BA53DB2 EQ PUSH2 0x75 JUMPI DUP1 PUSH4 0x418B79AB EQ PUSH2 0xA7 JUMPI DUP1 PUSH4 0x68744046 EQ PUSH2 0xD9 JUMPI DUP1 PUSH4 0xA965B988 EQ PUSH2 0x10B JUMPI JUMPDEST PUSH0 PUSH0 REVERT JUMPDEST PUSH2 0x73 PUSH1 0x4 DUP1 CALLDATASIZE SUB DUP2 ADD SWAP1 PUSH2 0x6E SWAP2 SWAP1 PUSH2 0x841 JUMP JUMPDEST PUSH2 0x13B JUMP JUMPDEST STOP JUMPDEST PUSH2 0x8F PUSH1 0x4 DUP1 CALLDATASIZE SUB DUP2 ADD SWAP1 PUSH2 0x8A SWAP2 SWAP1 PUSH2 0x8C9 JUMP JUMPDEST PUSH2 0x1DE JUMP JUMPDEST PUSH1 0x40 MLOAD PUSH2 0x9E SWAP4 SWAP3 SWAP2 SWAP1 PUSH2 0x963 JUMP JUMPDEST PUSH1 0x40 MLOAD DUP1 SWAP2 SUB SWAP1 RETURN JUMPDEST PUSH2 0xC1 PUSH1 0x4 DUP1 CALLDATASIZE SUB DUP2 ADD SWAP1 PUSH2 0xBC SWAP2 SWAP1 PUSH2 0x8C9 JUMP JUMPDEST PUSH2 0x39A JUMP JUMPDEST PUSH1 0x40 MLOAD PUSH2 0xD0 SWAP4 SWAP3 SWAP2 SWAP1 PUSH2 0x963 JUMP JUMPDEST PUSH1 0x40 MLOAD DUP1 SWAP2 SUB SWAP1 RETURN JUMPDEST PUSH2 0xF3 PUSH1 0x4 DUP1 CALLDATASIZE SUB DUP2 ADD SWAP1 PUSH2 0xEE SWAP2 SWAP1 PUSH2 0x8C9 JUMP JUMPDEST PUSH2 0x56C JUMP JUMPDEST PUSH1 0x40 MLOAD PUSH2 0x102 SWAP4 SWAP3 SWAP2 SWAP1 PUSH2 0x963 JUMP JUMPDEST PUSH1 0x40 MLOAD DUP1 SWAP2 SUB SWAP1 RETURN JUMPDEST PUSH2 0x125 PUSH1 0x4 DUP1 CALLDATASIZE SUB DUP2 ADD SWAP1 PUSH2 0x120 SWAP2 SWAP1 PUSH2 0x8C9 JUMP JUMPDEST PUSH2 0x6AC JUMP JUMPDEST PUSH1 0x40 MLOAD PUSH2 0x132 SWAP2 SWAP1 PUSH2 0x9A6 JUMP JUMPDEST PUSH1 0x40 MLOAD DUP1 SWAP2 SUB SWAP1 RETURN JUMPDEST PUSH0 PUSH1 0x40 MLOAD DUP1 PUSH1 0x60 ADD PUSH1 0x40 MSTORE DUP1 DUP6 DUP2 MSTORE PUSH1 0x20 ADD DUP5 DUP2 MSTORE PUSH1 0x20 ADD DUP4 DUP2 MSTORE POP SWAP1 DUP1 PUSH1 0x1 DUP2 SLOAD ADD DUP1 DUP3 SSTORE DUP1 SWAP2 POP POP PUSH1 0x1 SWAP1 SUB SWAP1 PUSH0 MSTORE PUSH1 0x20 PUSH0 KECCAK256 SWAP1 PUSH1 0x3 MUL ADD PUSH0 SWAP1 SWAP2 SWAP1 SWAP2 SWAP1 SWAP2 POP PUSH0 DUP3 ADD MLOAD DUP2 PUSH0 ADD SSTORE PUSH1 0x20 DUP3 ADD MLOAD DUP2 PUSH1 0x1 ADD SWAP1 DUP2 PUSH2 0x19A SWAP2 SWAP1 PUSH2 0xBBC JUMP JUMPDEST POP PUSH1 0x40 DUP3 ADD MLOAD DUP2 PUSH1 0x2 ADD SWAP1 DUP2 PUSH2 0x1B0 SWAP2 SWAP1 PUSH2 0xBBC JUMP JUMPDEST POP POP POP PUSH1 0x1 PUSH0 DUP1 SLOAD SWAP1 POP PUSH2 0x1C4 SWAP2 SWAP1 PUSH2 0xCB8 JUMP JUMPDEST PUSH1 0x1 PUSH0 DUP6 DUP2 MSTORE PUSH1 0x20 ADD SWAP1 DUP2 MSTORE PUSH1 0x20 ADD PUSH0 KECCAK256 DUP2 SWAP1 SSTORE POP POP POP POP JUMP JUMPDEST PUSH0 PUSH1 0x60 DUP1 PUSH0 DUP1 SLOAD SWAP1 POP DUP5 LT PUSH2 0x228 JUMPI PUSH1 0x40 MLOAD PUSH32 0x8C379A000000000000000000000000000000000000000000000000000000000 DUP2 MSTORE PUSH1 0x4 ADD PUSH2 0x21F SWAP1 PUSH2 0xD35 JUMP JUMPDEST PUSH1 0x40 MLOAD DUP1 SWAP2 SUB SWAP1 REVERT JUMPDEST PUSH0 PUSH0 DUP6 DUP2 SLOAD DUP2 LT PUSH2 0x23C JUMPI PUSH2 0x23B PUSH2 0xD53 JUMP JUMPDEST JUMPDEST SWAP1 PUSH0 MSTORE PUSH1 0x20 PUSH0 KECCAK256 SWAP1 PUSH1 0x3 MUL ADD PUSH1 0x40 MLOAD DUP1 PUSH1 0x60 ADD PUSH1 0x40 MSTORE SWAP1 DUP2 PUSH0 DUP3 ADD SLOAD DUP2 MSTORE PUSH1 0x20 ADD PUSH1 0x1 DUP3 ADD DUP1 SLOAD PUSH2 0x26C SWAP1 PUSH2 0x9EC JUMP JUMPDEST DUP1 PUSH1 0x1F ADD PUSH1 0x20 DUP1 SWAP2 DIV MUL PUSH1 0x20 ADD PUSH1 0x40 MLOAD SWAP1 DUP2 ADD PUSH1 0x40 MSTORE DUP1 SWAP3 SWAP2 SWAP1 DUP2 DUP2 MSTORE PUSH1 0x20 ADD DUP3 DUP1 SLOAD PUSH2 0x298 SWAP1 PUSH2 0x9EC JUMP JUMPDEST DUP1 ISZERO PUSH2 0x2E3 JUMPI DUP1 PUSH1 0x1F LT PUSH2 0x2BA JUMPI PUSH2 0x100 DUP1 DUP4 SLOAD DIV MUL DUP4 MSTORE SWAP2 PUSH1 0x20 ADD SWAP2 PUSH2 0x2E3 JUMP JUMPDEST DUP3 ADD SWAP2 SWAP1 PUSH0 MSTORE PUSH1 0x20 PUSH0 KECCAK256 SWAP1 JUMPDEST DUP2 SLOAD DUP2 MSTORE SWAP1 PUSH1 0x1 ADD SWAP1 PUSH1 0x20 ADD DUP1 DUP4 GT PUSH2 0x2C6 JUMPI DUP3 SWAP1 SUB PUSH1 0x1F AND DUP3 ADD SWAP2 JUMPDEST POP POP POP POP POP DUP2 MSTORE PUSH1 0x20 ADD PUSH1 0x2 DUP3 ADD DUP1 SLOAD PUSH2 0x2FC SWAP1 PUSH2 0x9EC JUMP JUMPDEST DUP1 PUSH1 0x1F ADD PUSH1 0x20 DUP1 SWAP2 DIV MUL PUSH1 0x20 ADD PUSH1 0x40 MLOAD SWAP1 DUP2 ADD PUSH1 0x40 MSTORE DUP1 SWAP3 SWAP2 SWAP1 DUP2 DUP2 MSTORE PUSH1 0x20 ADD DUP3 DUP1 SLOAD PUSH2 0x328 SWAP1 PUSH2 0x9EC JUMP JUMPDEST DUP1 ISZERO PUSH2 0x373 JUMPI DUP1 PUSH1 0x1F LT PUSH2 0x34A JUMPI PUSH2 0x100 DUP1 DUP4 SLOAD DIV MUL DUP4 MSTORE SWAP2 PUSH1 0x20 ADD SWAP2 PUSH2 0x373 JUMP JUMPDEST DUP3 ADD SWAP2 SWAP1 PUSH0 MSTORE PUSH1 0x20 PUSH0 KECCAK256 SWAP1 JUMPDEST DUP2 SLOAD DUP2 MSTORE SWAP1 PUSH1 0x1 ADD SWAP1 PUSH1 0x20 ADD DUP1 DUP4 GT PUSH2 0x356 JUMPI DUP3 SWAP1 SUB PUSH1 0x1F AND DUP3 ADD SWAP2 JUMPDEST POP POP POP POP POP DUP2 MSTORE POP POP SWAP1 POP DUP1 PUSH0 ADD MLOAD DUP2 PUSH1 0x20 ADD MLOAD DUP3 PUSH1 0x40 ADD MLOAD SWAP4 POP SWAP4 POP SWAP4 POP POP SWAP2 SWAP4 SWAP1 SWAP3 POP JUMP JUMPDEST PUSH0 PUSH1 0x60 DUP1 PUSH0 PUSH1 0x1 PUSH0 DUP7 DUP2 MSTORE PUSH1 0x20 ADD SWAP1 DUP2 MSTORE PUSH1 0x20 ADD PUSH0 KECCAK256 SLOAD SWAP1 POP PUSH0 DUP1 SLOAD SWAP1 POP DUP2 LT PUSH2 0x3F9 JUMPI PUSH1 0x40 MLOAD PUSH32 0x8C379A000000000000000000000000000000000000000000000000000000000 DUP2 MSTORE PUSH1 0x4 ADD PUSH2 0x3F0 SWAP1 PUSH2 0xDCA JUMP JUMPDEST PUSH1 0x40 MLOAD DUP1 SWAP2 SUB SWAP1 REVERT JUMPDEST PUSH0 PUSH0 DUP3 DUP2 SLOAD DUP2 LT PUSH2 0x40D JUMPI PUSH2 0x40C PUSH2 0xD53 JUMP JUMPDEST JUMPDEST SWAP1 PUSH0 MSTORE PUSH1 0x20 PUSH0 KECCAK256 SWAP1 PUSH1 0x3 MUL ADD PUSH1 0x40 MLOAD DUP1 PUSH1 0x60 ADD PUSH1 0x40 MSTORE SWAP1 DUP2 PUSH0 DUP3 ADD SLOAD DUP2 MSTORE PUSH1 0x20 ADD PUSH1 0x1 DUP3 ADD DUP1 SLOAD PUSH2 0x43D SWAP1 PUSH2 0x9EC JUMP JUMPDEST DUP1 PUSH1 0x1F ADD PUSH1 0x20 DUP1 SWAP2 DIV MUL PUSH1 0x20 ADD PUSH1 0x40 MLOAD SWAP1 DUP2 ADD PUSH1 0x40 MSTORE DUP1 SWAP3 SWAP2 SWAP1 DUP2 DUP2 MSTORE PUSH1 0x20 ADD DUP3 DUP1 SLOAD PUSH2 0x469 SWAP1 PUSH2 0x9EC JUMP JUMPDEST DUP1 ISZERO PUSH2 0x4B4 JUMPI DUP1 PUSH1 0x1F LT PUSH2 0x48B JUMPI PUSH2 0x100 DUP1 DUP4 SLOAD DIV MUL DUP4 MSTORE SWAP2 PUSH1 0x20 ADD SWAP2 PUSH2 0x4B4 JUMP JUMPDEST DUP3 ADD SWAP2 SWAP1 PUSH0 MSTORE PUSH1 0x20 PUSH0 KECCAK256 SWAP1 JUMPDEST DUP2 SLOAD DUP2 MSTORE SWAP1 PUSH1 0x1 ADD SWAP1 PUSH1 0x20 ADD DUP1 DUP4 GT PUSH2 0x497 JUMPI DUP3 SWAP1 SUB PUSH1 0x1F AND DUP3 ADD SWAP2 JUMPDEST POP POP POP POP POP DUP2 MSTORE PUSH1 0x20 ADD PUSH1 0x2 DUP3 ADD DUP1 SLOAD PUSH2 0x4CD SWAP1 PUSH2 0x9EC JUMP JUMPDEST DUP1 PUSH1 0x1F ADD PUSH1 0x20 DUP1 SWAP2 DIV MUL PUSH1 0x20 ADD PUSH1 0x40 MLOAD SWAP1 DUP2 ADD PUSH1 0x40 MSTORE DUP1 SWAP3 SWAP2 SWAP1 DUP2 DUP2 MSTORE PUSH1 0x20 ADD DUP3 DUP1 SLOAD PUSH2 0x4F9 SWAP1 PUSH2 0x9EC JUMP JUMPDEST DUP1 ISZERO PUSH2 0x544 JUMPI DUP1 PUSH1 0x1F LT PUSH2 0x51B JUMPI PUSH2 0x100 DUP1 DUP4 SLOAD DIV MUL DUP4 MSTORE SWAP2 PUSH1 0x20 ADD SWAP2 PUSH2 0x544 JUMP JUMPDEST DUP3 ADD SWAP2 SWAP1 PUSH0 MSTORE PUSH1 0x20 PUSH0 KECCAK256 SWAP1 JUMPDEST DUP2 SLOAD DUP2 MSTORE SWAP1 PUSH1 0x1 ADD SWAP1 PUSH1 0x20 ADD DUP1 DUP4 GT PUSH2 0x527 JUMPI DUP3 SWAP1 SUB PUSH1 0x1F AND DUP3 ADD SWAP2 JUMPDEST POP POP POP POP POP DUP2 MSTORE POP POP SWAP1 POP DUP1 PUSH0 ADD MLOAD DUP2 PUSH1 0x20 ADD MLOAD DUP3 PUSH1 0x40 ADD MLOAD SWAP5 POP SWAP5 POP SWAP5 POP POP POP SWAP2 SWAP4 SWAP1 SWAP3 POP JUMP JUMPDEST PUSH0 DUP2 DUP2 SLOAD DUP2 LT PUSH2 0x57A JUMPI PUSH0 DUP1 REVERT JUMPDEST SWAP1 PUSH0 MSTORE PUSH1 0x20 PUSH0 KECCAK256 SWAP1 PUSH1 0x3 MUL ADD PUSH0 SWAP2 POP SWAP1 POP DUP1 PUSH0 ADD SLOAD SWAP1 DUP1 PUSH1 0x1 ADD DUP1 SLOAD PUSH2 0x59F SWAP1 PUSH2 0x9EC JUMP JUMPDEST DUP1 PUSH1 0x1F ADD PUSH1 0x20 DUP1 SWAP2 DIV MUL PUSH1 0x20 ADD PUSH1 0x40 MLOAD SWAP1 DUP2 ADD PUSH1 0x40 MSTORE DUP1 SWAP3 SWAP2 SWAP1 DUP2 DUP2 MSTORE PUSH1 0x20 ADD DUP3 DUP1 SLOAD PUSH2 0x5CB SWAP1 PUSH2 0x9EC JUMP JUMPDEST DUP1 ISZERO PUSH2 0x616 JUMPI DUP1 PUSH1 0x1F LT PUSH2 0x5ED JUMPI PUSH2 0x100 DUP1 DUP4 SLOAD DIV MUL DUP4 MSTORE SWAP2 PUSH1 0x20 ADD SWAP2 PUSH2 0x616 JUMP JUMPDEST DUP3 ADD SWAP2 SWAP1 PUSH0 MSTORE PUSH1 0x20 PUSH0 KECCAK256 SWAP1 JUMPDEST DUP2 SLOAD DUP2 MSTORE SWAP1 PUSH1 0x1 ADD SWAP1 PUSH1 0x20 ADD DUP1 DUP4 GT PUSH2 0x5F9 JUMPI DUP3 SWAP1 SUB PUSH1 0x1F AND DUP3 ADD SWAP2 JUMPDEST POP POP POP POP POP SWAP1 DUP1 PUSH1 0x2 ADD DUP1 SLOAD PUSH2 0x62B SWAP1 PUSH2 0x9EC JUMP JUMPDEST DUP1 PUSH1 0x1F ADD PUSH1 0x20 DUP1 SWAP2 DIV MUL PUSH1 0x20 ADD PUSH1 0x40 MLOAD SWAP1 DUP2 ADD PUSH1 0x40 MSTORE DUP1 SWAP3 SWAP2 SWAP1 DUP2 DUP2 MSTORE PUSH1 0x20 ADD DUP3 DUP1 SLOAD PUSH2 0x657 SWAP1 PUSH2 0x9EC JUMP JUMPDEST DUP1 ISZERO PUSH2 0x6A2 JUMPI DUP1 PUSH1 0x1F LT PUSH2 0x679 JUMPI PUSH2 0x100 DUP1 DUP4 SLOAD DIV MUL DUP4 MSTORE SWAP2 PUSH1 0x20 ADD SWAP2 PUSH2 0x6A2 JUMP JUMPDEST DUP3 ADD SWAP2 SWAP1 PUSH0 MSTORE PUSH1 0x20 PUSH0 KECCAK256 SWAP1 JUMPDEST DUP2 SLOAD DUP2 MSTORE SWAP1 PUSH1 0x1 ADD SWAP1 PUSH1 0x20 ADD DUP1 DUP4 GT PUSH2 0x685 JUMPI DUP3 SWAP1 SUB PUSH1 0x1F AND DUP3 ADD SWAP2 JUMPDEST POP POP POP POP POP SWAP1 POP DUP4 JUMP JUMPDEST PUSH1 0x1 PUSH1 0x20 MSTORE DUP1 PUSH0 MSTORE PUSH1 0x40 PUSH0 KECCAK256 PUSH0 SWAP2 POP SWAP1 POP SLOAD DUP2 JUMP JUMPDEST PUSH0 PUSH1 0x40 MLOAD SWAP1 POP SWAP1 JUMP JUMPDEST PUSH0 PUSH0 REVERT JUMPDEST PUSH0 PUSH0 REVERT JUMPDEST PUSH0 DUP2 SWAP1 POP SWAP2 SWAP1 POP JUMP JUMPDEST PUSH2 0x6E4 DUP2 PUSH2 0x6D2 JUMP JUMPDEST DUP2 EQ PUSH2 0x6EE JUMPI PUSH0 PUSH0 REVERT JUMPDEST POP JUMP JUMPDEST PUSH0 DUP2 CALLDATALOAD SWAP1 POP PUSH2 0x6FF DUP2 PUSH2 0x6DB JUMP JUMPDEST SWAP3 SWAP2 POP POP JUMP JUMPDEST PUSH0 PUSH0 REVERT JUMPDEST PUSH0 PUSH0 REVERT JUMPDEST PUSH0 PUSH1 0x1F NOT PUSH1 0x1F DUP4 ADD AND SWAP1 POP SWAP2 SWAP1 POP JUMP JUMPDEST PUSH32 0x4E487B7100000000000000000000000000000000000000000000000000000000 PUSH0 MSTORE PUSH1 0x41 PUSH1 0x4 MSTORE PUSH1 0x24 PUSH0 REVERT JUMPDEST PUSH2 0x753 DUP3 PUSH2 0x70D JUMP JUMPDEST DUP2 ADD DUP2 DUP2 LT PUSH8 0xFFFFFFFFFFFFFFFF DUP3 GT OR ISZERO PUSH2 0x772 JUMPI PUSH2 0x771 PUSH2 0x71D JUMP JUMPDEST JUMPDEST DUP1 PUSH1 0x40 MSTORE POP POP POP JUMP JUMPDEST PUSH0 PUSH2 0x784 PUSH2 0x6C1 JUMP JUMPDEST SWAP1 POP PUSH2 0x790 DUP3 DUP3 PUSH2 0x74A JUMP JUMPDEST SWAP2 SWAP1 POP JUMP JUMPDEST PUSH0 PUSH8 0xFFFFFFFFFFFFFFFF DUP3 GT ISZERO PUSH2 0x7AF JUMPI PUSH2 0x7AE PUSH2 0x71D JUMP JUMPDEST JUMPDEST PUSH2 0x7B8 DUP3 PUSH2 0x70D JUMP JUMPDEST SWAP1 POP PUSH1 0x20 DUP2 ADD SWAP1 POP SWAP2 SWAP1 POP JUMP JUMPDEST DUP3 DUP2 DUP4 CALLDATACOPY PUSH0 DUP4 DUP4 ADD MSTORE POP POP POP JUMP JUMPDEST PUSH0 PUSH2 0x7E5 PUSH2 0x7E0 DUP5 PUSH2 0x795 JUMP JUMPDEST PUSH2 0x77B JUMP JUMPDEST SWAP1 POP DUP3 DUP2 MSTORE PUSH1 0x20 DUP2 ADD DUP5 DUP5 DUP5 ADD GT ISZERO PUSH2 0x801 JUMPI PUSH2 0x800 PUSH2 0x709 JUMP JUMPDEST JUMPDEST PUSH2 0x80C DUP5 DUP3 DUP6 PUSH2 0x7C5 JUMP JUMPDEST POP SWAP4 SWAP3 POP POP POP JUMP JUMPDEST PUSH0 DUP3 PUSH1 0x1F DUP4 ADD SLT PUSH2 0x828 JUMPI PUSH2 0x827 PUSH2 0x705 JUMP JUMPDEST JUMPDEST DUP2 CALLDATALOAD PUSH2 0x838 DUP5 DUP3 PUSH1 0x20 DUP7 ADD PUSH2 0x7D3 JUMP JUMPDEST SWAP2 POP POP SWAP3 SWAP2 POP POP JUMP JUMPDEST PUSH0 PUSH0 PUSH0 PUSH1 0x60 DUP5 DUP7 SUB SLT ISZERO PUSH2 0x858 JUMPI PUSH2 0x857 PUSH2 0x6CA JUMP JUMPDEST JUMPDEST PUSH0 PUSH2 0x865 DUP7 DUP3 DUP8 ADD PUSH2 0x6F1 JUMP JUMPDEST SWAP4 POP POP PUSH1 0x20 DUP5 ADD CALLDATALOAD PUSH8 0xFFFFFFFFFFFFFFFF DUP2 GT ISZERO PUSH2 0x886 JUMPI PUSH2 0x885 PUSH2 0x6CE JUMP JUMPDEST JUMPDEST PUSH2 0x892 DUP7 DUP3 DUP8 ADD PUSH2 0x814 JUMP JUMPDEST SWAP3 POP POP PUSH1 0x40 DUP5 ADD CALLDATALOAD PUSH8 0xFFFFFFFFFFFFFFFF DUP2 GT ISZERO PUSH2 0x8B3 JUMPI PUSH2 0x8B2 PUSH2 0x6CE JUMP JUMPDEST JUMPDEST PUSH2 0x8BF DUP7 DUP3 DUP8 ADD PUSH2 0x814 JUMP JUMPDEST SWAP2 POP POP SWAP3 POP SWAP3 POP SWAP3 JUMP JUMPDEST PUSH0 PUSH1 0x20 DUP3 DUP5 SUB SLT ISZERO PUSH2 0x8DE JUMPI PUSH2 0x8DD PUSH2 0x6CA JUMP JUMPDEST JUMPDEST PUSH0 PUSH2 0x8EB DUP5 DUP3 DUP6 ADD PUSH2 0x6F1 JUMP JUMPDEST SWAP2 POP POP SWAP3 SWAP2 POP POP JUMP JUMPDEST PUSH2 0x8FD DUP2 PUSH2 0x6D2 JUMP JUMPDEST DUP3 MSTORE POP POP JUMP JUMPDEST PUSH0 DUP2 MLOAD SWAP1 POP SWAP2 SWAP1 POP JUMP JUMPDEST PUSH0 DUP3 DUP3 MSTORE PUSH1 0x20 DUP3 ADD SWAP1 POP SWAP3 SWAP2 POP POP JUMP JUMPDEST DUP3 DUP2 DUP4 MCOPY PUSH0 DUP4 DUP4 ADD MSTORE POP POP POP JUMP JUMPDEST PUSH0 PUSH2 0x935 DUP3 PUSH2 0x903 JUMP JUMPDEST PUSH2 0x93F DUP2 DUP6 PUSH2 0x90D JUMP JUMPDEST SWAP4 POP PUSH2 0x94F DUP2 DUP6 PUSH1 0x20 DUP7 ADD PUSH2 0x91D JUMP JUMPDEST PUSH2 0x958 DUP2 PUSH2 0x70D JUMP JUMPDEST DUP5 ADD SWAP2 POP POP SWAP3 SWAP2 POP POP JUMP JUMPDEST PUSH0 PUSH1 0x60 DUP3 ADD SWAP1 POP PUSH2 0x976 PUSH0 DUP4 ADD DUP7 PUSH2 0x8F4 JUMP JUMPDEST DUP2 DUP2 SUB PUSH1 0x20 DUP4 ADD MSTORE PUSH2 0x988 DUP2 DUP6 PUSH2 0x92B JUMP JUMPDEST SWAP1 POP DUP2 DUP2 SUB PUSH1 0x40 DUP4 ADD MSTORE PUSH2 0x99C DUP2 DUP5 PUSH2 0x92B JUMP JUMPDEST SWAP1 POP SWAP5 SWAP4 POP POP POP POP JUMP JUMPDEST PUSH0 PUSH1 0x20 DUP3 ADD SWAP1 POP PUSH2 0x9B9 PUSH0 DUP4 ADD DUP5 PUSH2 0x8F4 JUMP JUMPDEST SWAP3 SWAP2 POP POP JUMP JUMPDEST PUSH32 0x4E487B7100000000000000000000000000000000000000000000000000000000 PUSH0 MSTORE PUSH1 0x22 PUSH1 0x4 MSTORE PUSH1 0x24 PUSH0 REVERT JUMPDEST PUSH0 PUSH1 0x2 DUP3 DIV SWAP1 POP PUSH1 0x1 DUP3 AND DUP1 PUSH2 0xA03 JUMPI PUSH1 0x7F DUP3 AND SWAP2 POP JUMPDEST PUSH1 0x20 DUP3 LT DUP2 SUB PUSH2 0xA16 JUMPI PUSH2 0xA15 PUSH2 0x9BF JUMP JUMPDEST JUMPDEST POP SWAP2 SWAP1 POP JUMP JUMPDEST PUSH0 DUP2 SWAP1 POP DUP2 PUSH0 MSTORE PUSH1 0x20 PUSH0 KECCAK256 SWAP1 POP SWAP2 SWAP1 POP JUMP JUMPDEST PUSH0 PUSH1 0x20 PUSH1 0x1F DUP4 ADD DIV SWAP1 POP SWAP2 SWAP1 POP JUMP JUMPDEST PUSH0 DUP3 DUP3 SHL SWAP1 POP SWAP3 SWAP2 POP POP JUMP JUMPDEST PUSH0 PUSH1 0x8 DUP4 MUL PUSH2 0xA78 PUSH32 0xFFFFFFFFFFFFFFFFFFFFFFFFFFFFFFFFFFFFFFFFFFFFFFFFFFFFFFFFFFFFFFFF DUP3 PUSH2 0xA3D JUMP JUMPDEST PUSH2 0xA82 DUP7 DUP4 PUSH2 0xA3D JUMP JUMPDEST SWAP6 POP DUP1 NOT DUP5 AND SWAP4 POP DUP1 DUP7 AND DUP5 OR SWAP3 POP POP POP SWAP4 SWAP3 POP POP POP JUMP JUMPDEST PUSH0 DUP2 SWAP1 POP SWAP2 SWAP1 POP JUMP JUMPDEST PUSH0 PUSH2 0xABD PUSH2 0xAB8 PUSH2 0xAB3 DUP5 PUSH2 0x6D2 JUMP JUMPDEST PUSH2 0xA9A JUMP JUMPDEST PUSH2 0x6D2 JUMP JUMPDEST SWAP1 POP SWAP2 SWAP1 POP JUMP JUMPDEST PUSH0 DUP2 SWAP1 POP SWAP2 SWAP1 POP JUMP JUMPDEST PUSH2 0xAD6 DUP4 PUSH2 0xAA3 JUMP JUMPDEST PUSH2 0xAEA PUSH2 0xAE2 DUP3 PUSH2 0xAC4 JUMP JUMPDEST DUP5 DUP5 SLOAD PUSH2 0xA49 JUMP JUMPDEST DUP3 SSTORE POP POP POP POP JUMP JUMPDEST PUSH0 PUSH0 SWAP1 POP SWAP1 JUMP JUMPDEST PUSH2 0xB01 PUSH2 0xAF2 JUMP JUMPDEST PUSH2 0xB0C DUP2 DUP5 DUP5 PUSH2 0xACD JUMP JUMPDEST POP POP POP JUMP JUMPDEST JUMPDEST DUP2 DUP2 LT ISZERO PUSH2 0xB2F JUMPI PUSH2 0xB24 PUSH0 DUP3 PUSH2 0xAF9 JUMP JUMPDEST PUSH1 0x1 DUP2 ADD SWAP1 POP PUSH2 0xB12 JUMP JUMPDEST POP POP JUMP JUMPDEST PUSH1 0x1F DUP3 GT ISZERO PUSH2 0xB74 JUMPI PUSH2 0xB45 DUP2 PUSH2 0xA1C JUMP JUMPDEST PUSH2 0xB4E DUP5 PUSH2 0xA2E JUMP JUMPDEST DUP2 ADD PUSH1 0x20 DUP6 LT ISZERO PUSH2 0xB5D JUMPI DUP2 SWAP1 POP JUMPDEST PUSH2 0xB71 PUSH2 0xB69 DUP6 PUSH2 0xA2E JUMP JUMPDEST DUP4 ADD DUP3 PUSH2 0xB11 JUMP JUMPDEST POP POP JUMPDEST POP POP POP JUMP JUMPDEST PUSH0 DUP3 DUP3 SHR SWAP1 POP SWAP3 SWAP2 POP POP JUMP JUMPDEST PUSH0 PUSH2 0xB94 PUSH0 NOT DUP5 PUSH1 0x8 MUL PUSH2 0xB79 JUMP JUMPDEST NOT DUP1 DUP4 AND SWAP2 POP POP SWAP3 SWAP2 POP POP JUMP JUMPDEST PUSH0 PUSH2 0xBAC DUP4 DUP4 PUSH2 0xB85 JUMP JUMPDEST SWAP2 POP DUP3 PUSH1 0x2 MUL DUP3 OR SWAP1 POP SWAP3 SWAP2 POP POP JUMP JUMPDEST PUSH2 0xBC5 DUP3 PUSH2 0x903 JUMP JUMPDEST PUSH8 0xFFFFFFFFFFFFFFFF DUP2 GT ISZERO PUSH2 0xBDE JUMPI PUSH2 0xBDD PUSH2 0x71D JUMP JUMPDEST JUMPDEST PUSH2 0xBE8 DUP3 SLOAD PUSH2 0x9EC JUMP JUMPDEST PUSH2 0xBF3 DUP3 DUP3 DUP6 PUSH2 0xB33 JUMP JUMPDEST PUSH0 PUSH1 0x20 SWAP1 POP PUSH1 0x1F DUP4 GT PUSH1 0x1 DUP2 EQ PUSH2 0xC24 JUMPI PUSH0 DUP5 ISZERO PUSH2 0xC12 JUMPI DUP3 DUP8 ADD MLOAD SWAP1 POP JUMPDEST PUSH2 0xC1C DUP6 DUP3 PUSH2 0xBA1 JUMP JUMPDEST DUP7 SSTORE POP PUSH2 0xC83 JUMP JUMPDEST PUSH1 0x1F NOT DUP5 AND PUSH2 0xC32 DUP7 PUSH2 0xA1C JUMP JUMPDEST PUSH0 JUMPDEST DUP3 DUP2 LT ISZERO PUSH2 0xC59 JUMPI DUP5 DUP10 ADD MLOAD DUP3 SSTORE PUSH1 0x1 DUP3 ADD SWAP2 POP PUSH1 0x20 DUP6 ADD SWAP5 POP PUSH1 0x20 DUP2 ADD SWAP1 POP PUSH2 0xC34 JUMP JUMPDEST DUP7 DUP4 LT ISZERO PUSH2 0xC76 JUMPI DUP5 DUP10 ADD MLOAD PUSH2 0xC72 PUSH1 0x1F DUP10 AND DUP3 PUSH2 0xB85 JUMP JUMPDEST DUP4 SSTORE POP JUMPDEST PUSH1 0x1 PUSH1 0x2 DUP9 MUL ADD DUP9 SSTORE POP POP POP JUMPDEST POP POP POP POP POP POP JUMP JUMPDEST PUSH32 0x4E487B7100000000000000000000000000000000000000000000000000000000 PUSH0 MSTORE PUSH1 0x11 PUSH1 0x4 MSTORE PUSH1 0x24 PUSH0 REVERT JUMPDEST PUSH0 PUSH2 0xCC2 DUP3 PUSH2 0x6D2 JUMP JUMPDEST SWAP2 POP PUSH2 0xCCD DUP4 PUSH2 0x6D2 JUMP JUMPDEST SWAP3 POP DUP3 DUP3 SUB SWAP1 POP DUP2 DUP2 GT ISZERO PUSH2 0xCE5 JUMPI PUSH2 0xCE4 PUSH2 0xC8B JUMP JUMPDEST JUMPDEST SWAP3 SWAP2 POP POP JUMP JUMPDEST PUSH32 0x496E646578206F7574206F6620626F756E647300000000000000000000000000 PUSH0 DUP3 ADD MSTORE POP JUMP JUMPDEST PUSH0 PUSH2 0xD1F PUSH1 0x13 DUP4 PUSH2 0x90D JUMP JUMPDEST SWAP2 POP PUSH2 0xD2A DUP3 PUSH2 0xCEB JUMP JUMPDEST PUSH1 0x20 DUP3 ADD SWAP1 POP SWAP2 SWAP1 POP JUMP JUMPDEST PUSH0 PUSH1 0x20 DUP3 ADD SWAP1 POP DUP2 DUP2 SUB PUSH0 DUP4 ADD MSTORE PUSH2 0xD4C DUP2 PUSH2 0xD13 JUMP JUMPDEST SWAP1 POP SWAP2 SWAP1 POP JUMP JUMPDEST PUSH32 0x4E487B7100000000000000000000000000000000000000000000000000000000 PUSH0 MSTORE PUSH1 0x32 PUSH1 0x4 MSTORE PUSH1 0x24 PUSH0 REVERT JUMPDEST PUSH32 0x426F6F6B206E6F7420666F756E64000000000000000000000000000000000000 PUSH0 DUP3 ADD MSTORE POP JUMP JUMPDEST PUSH0 PUSH2 0xDB4 PUSH1 0xE DUP4 PUSH2 0x90D JUMP JUMPDEST SWAP2 POP PUSH2 0xDBF DUP3 PUSH2 0xD80 JUMP JUMPDEST PUSH1 0x20 DUP3 ADD SWAP1 POP SWAP2 SWAP1 POP JUMP JUMPDEST PUSH0 PUSH1 0x20 DUP3 ADD SWAP1 POP DUP2 DUP2 SUB PUSH0 DUP4 ADD MSTORE PUSH2 0xDE1 DUP2 PUSH2 0xDA8 JUMP JUMPDEST SWAP1 POP SWAP2 SWAP1 POP JUMP INVALID LOG2 PUSH5 0x6970667358 0x22 SLT KECCAK256 MLOAD PUSH31 0x78D7543DBF9442634D9418BC839C02A0EAE90BF80E4CEAB21D57B097E51464 PUSH20 0x6F6C634300081E00330000000000000000000000 "
				},
				"gasEstimates": {
					"creation": {
						"codeDepositCost": "722800",
						"executionCost": "751",
						"totalCost": "723551"
					},
					"external": {
						"addBook(uint256,string,string)": "infinite",
						"bookIdToIndex(uint256)": "infinite",
						"books(uint256)": "infinite",
						"getBookById(uint256)": "infinite",
						"getBookByIndex(uint256)": "infinite"
					}
				},
				"methodIdentifiers": {
					"addBook(uint256,string,string)": "028414f2",
					"bookIdToIndex(uint256)": "a965b988",
					"books(uint256)": "68744046",
					"getBookById(uint256)": "418b79ab",
					"getBookByIndex(uint256)": "2ba53db2"
				}
			},
			"storageLayout": {
				"storage": [
					{
						"astId": 12,
						"contract": "contracts/10.20.arrayofstruct.sol:Library",
						"label": "books",
						"offset": 0,
						"slot": "0",
						"type": "t_array(t_struct(Book)8_storage)dyn_storage"
					},
					{
						"astId": 16,
						"contract": "contracts/10.20.arrayofstruct.sol:Library",
						"label": "bookIdToIndex",
						"offset": 0,
						"slot": "1",
						"type": "t_mapping(t_uint256,t_uint256)"
					}
				],
				"types": {
					"t_array(t_struct(Book)8_storage)dyn_storage": {
						"base": "t_struct(Book)8_storage",
						"encoding": "dynamic_array",
						"label": "struct Library.Book[]",
						"numberOfBytes": "32"
					},
					"t_mapping(t_uint256,t_uint256)": {
						"encoding": "mapping",
						"key": "t_uint256",
						"label": "mapping(uint256 => uint256)",
						"numberOfBytes": "32",
						"value": "t_uint256"
					},
					"t_string_storage": {
						"encoding": "bytes",
						"label": "string",
						"numberOfBytes": "32"
					},
					"t_struct(Book)8_storage": {
						"encoding": "inplace",
						"label": "struct Library.Book",
						"members": [
							{
								"astId": 3,
								"contract": "contracts/10.20.arrayofstruct.sol:Library",
								"label": "id",
								"offset": 0,
								"slot": "0",
								"type": "t_uint256"
							},
							{
								"astId": 5,
								"contract": "contracts/10.20.arrayofstruct.sol:Library",
								"label": "title",
								"offset": 0,
								"slot": "1",
								"type": "t_string_storage"
							},
							{
								"astId": 7,
								"contract": "contracts/10.20.arrayofstruct.sol:Library",
								"label": "author",
								"offset": 0,
								"slot": "2",
								"type": "t_string_storage"
							}
						],
						"numberOfBytes": "96"
					},
					"t_uint256": {
						"encoding": "inplace",
						"label": "uint256",
						"numberOfBytes": "32"
					}
				}
			},
			"userdoc": {
				"kind": "user",
				"methods": {},
				"version": 1
			}
		}
	}
}