{
	"contracts/10.3.constructor.sol": {
		"Student": {
			"abi": [
				{
					"inputs": [
						{
							"internalType": "string",
							"name": "_name",
							"type": "string"
						},
						{
							"internalType": "uint256",
							"name": "_age",
							"type": "uint256"
						},
						{
							"internalType": "uint256",
							"name": "_id",
							"type": "uint256"
						}
					],
					"stateMutability": "nonpayable",
					"type": "constructor"
				},
				{
					"inputs": [],
					"name": "age",
					"outputs": [
						{
							"internalType": "uint256",
							"name": "",
							"type": "uint256"
						}
					],
					"stateMutability": "view",
					"type": "function"
				},
				{
					"inputs": [],
					"name": "getDetails",
					"outputs": [
						{
							"internalType": "string",
							"name": "",
							"type": "string"
						},
						{
							"internalType": "uint256",
							"name": "",
							"type": "uint256"
						},
						{
							"internalType": "uint256",
							"name": "",
							"type": "uint256"
						}
					],
					"stateMutability": "view",
					"type": "function"
				},
				{
					"inputs": [],
					"name": "id",
					"outputs": [
						{
							"internalType": "uint256",
							"name": "",
							"type": "uint256"
						}
					],
					"stateMutability": "view",
					"type": "function"
				},
				{
					"inputs": [],
					"name": "name",
					"outputs": [
						{
							"internalType": "string",
							"name": "",
							"type": "string"
						}
					],
					"stateMutability": "view",
					"type": "function"
				},
				{
					"inputs": [
						{
							"internalType": "string",
							"name": "_name",
							"type": "string"
						},
						{
							"internalType": "uint256",
							"name": "_age",
							"type": "uint256"
						},
						{
							"internalType": "uint256",
							"name": "_id",
							"type": "uint256"
						}
					],
					"name": "updateDetails",
					"outputs": [],
					"stateMutability": "nonpayable",
					"type": "function"
				}
			],
			"devdoc": {
				"kind": "dev",
				"methods": {},
				"version": 1
			},
			"evm": {
				"assembly": "    /* \"contracts/10.3.constructor.sol\":70:864  contract Student {... */\n  mstore(0x40, 0x80)\n    /* \"contracts/10.3.constructor.sol\":236:393  constructor(... */\n  callvalue\n  dup1\n  iszero\n  tag_1\n  jumpi\n  revert(0x00, 0x00)\ntag_1:\n  pop\n  mload(0x40)\n  sub(codesize, bytecodeSize)\n  dup1\n  bytecodeSize\n  dup4\n  codecopy\n  dup2\n  dup2\n  add\n  0x40\n  mstore\n  dup2\n  add\n  swap1\n  tag_2\n  swap2\n  swap1\n  tag_3\n  jump\t// in\ntag_2:\n    /* \"contracts/10.3.constructor.sol\":343:348  _name */\n  dup3\n    /* \"contracts/10.3.constructor.sol\":336:340  name */\n  0x00\n    /* \"contracts/10.3.constructor.sol\":336:348  name = _name */\n  swap1\n  dup2\n  tag_6\n  swap2\n  swap1\n  tag_7\n  jump\t// in\ntag_6:\n  pop\n    /* \"contracts/10.3.constructor.sol\":364:368  _age */\n  dup2\n    /* \"contracts/10.3.constructor.sol\":358:361  age */\n  0x01\n    /* \"contracts/10.3.constructor.sol\":358:368  age = _age */\n  dup2\n  swap1\n  sstore\n  pop\n    /* \"contracts/10.3.constructor.sol\":383:386  _id */\n  dup1\n    /* \"contracts/10.3.constructor.sol\":378:380  id */\n  0x02\n    /* \"contracts/10.3.constructor.sol\":378:386  id = _id */\n  dup2\n  swap1\n  sstore\n  pop\n    /* \"contracts/10.3.constructor.sol\":236:393  constructor(... */\n  pop\n  pop\n  pop\n    /* \"contracts/10.3.constructor.sol\":70:864  contract Student {... */\n  jump(tag_8)\n    /* \"#utility.yul\":7:82   */\ntag_9:\n    /* \"#utility.yul\":40:46   */\n  0x00\n    /* \"#utility.yul\":73:75   */\n  0x40\n    /* \"#utility.yul\":67:76   */\n  mload\n    /* \"#utility.yul\":57:76   */\n  swap1\n  pop\n    /* \"#utility.yul\":7:82   */\n  swap1\n  jump\t// out\n    /* \"#utility.yul\":88:205   */\ntag_10:\n    /* \"#utility.yul\":197:198   */\n  0x00\n    /* \"#utility.yul\":194:195   */\n  0x00\n    /* \"#utility.yul\":187:199   */\n  revert\n    /* \"#utility.yul\":211:328   */\ntag_11:\n    /* \"#utility.yul\":320:321   */\n  0x00\n    /* \"#utility.yul\":317:318   */\n  0x00\n    /* \"#utility.yul\":310:322   */\n  revert\n    /* \"#utility.yul\":334:451   */\ntag_12:\n    /* \"#utility.yul\":443:444   */\n  0x00\n    /* \"#utility.yul\":440:441   */\n  0x00\n    /* \"#utility.yul\":433:445   */\n  revert\n    /* \"#utility.yul\":457:574   */\ntag_13:\n    /* \"#utility.yul\":566:567   */\n  0x00\n    /* \"#utility.yul\":563:564   */\n  0x00\n    /* \"#utility.yul\":556:568   */\n  revert\n    /* \"#utility.yul\":580:682   */\ntag_14:\n    /* \"#utility.yul\":621:627   */\n  0x00\n    /* \"#utility.yul\":672:674   */\n  0x1f\n    /* \"#utility.yul\":668:675   */\n  not\n    /* \"#utility.yul\":663:665   */\n  0x1f\n    /* \"#utility.yul\":656:661   */\n  dup4\n    /* \"#utility.yul\":652:666   */\n  add\n    /* \"#utility.yul\":648:676   */\n  and\n    /* \"#utility.yul\":638:676   */\n  swap1\n  pop\n    /* \"#utility.yul\":580:682   */\n  swap2\n  swap1\n  pop\n  jump\t// out\n    /* \"#utility.yul\":688:868   */\ntag_15:\n    /* \"#utility.yul\":736:813   */\n  0x4e487b7100000000000000000000000000000000000000000000000000000000\n    /* \"#utility.yul\":733:734   */\n  0x00\n    /* \"#utility.yul\":726:814   */\n  mstore\n    /* \"#utility.yul\":833:837   */\n  0x41\n    /* \"#utility.yul\":830:831   */\n  0x04\n    /* \"#utility.yul\":823:838   */\n  mstore\n    /* \"#utility.yul\":857:861   */\n  0x24\n    /* \"#utility.yul\":854:855   */\n  0x00\n    /* \"#utility.yul\":847:862   */\n  revert\n    /* \"#utility.yul\":874:1155   */\ntag_16:\n    /* \"#utility.yul\":957:984   */\n  tag_52\n    /* \"#utility.yul\":979:983   */\n  dup3\n    /* \"#utility.yul\":957:984   */\n  tag_14\n  jump\t// in\ntag_52:\n    /* \"#utility.yul\":949:955   */\n  dup2\n    /* \"#utility.yul\":945:985   */\n  add\n    /* \"#utility.yul\":1087:1093   */\n  dup2\n    /* \"#utility.yul\":1075:1085   */\n  dup2\n    /* \"#utility.yul\":1072:1094   */\n  lt\n    /* \"#utility.yul\":1051:1069   */\n  0xffffffffffffffff\n    /* \"#utility.yul\":1039:1049   */\n  dup3\n    /* \"#utility.yul\":1036:1070   */\n  gt\n    /* \"#utility.yul\":1033:1095   */\n  or\n    /* \"#utility.yul\":1030:1118   */\n  iszero\n  tag_53\n  jumpi\n    /* \"#utility.yul\":1098:1116   */\n  tag_54\n  tag_15\n  jump\t// in\ntag_54:\n    /* \"#utility.yul\":1030:1118   */\ntag_53:\n    /* \"#utility.yul\":1138:1148   */\n  dup1\n    /* \"#utility.yul\":1134:1136   */\n  0x40\n    /* \"#utility.yul\":1127:1149   */\n  mstore\n    /* \"#utility.yul\":917:1155   */\n  pop\n    /* \"#utility.yul\":874:1155   */\n  pop\n  pop\n  jump\t// out\n    /* \"#utility.yul\":1161:1290   */\ntag_17:\n    /* \"#utility.yul\":1195:1201   */\n  0x00\n    /* \"#utility.yul\":1222:1242   */\n  tag_56\n  tag_9\n  jump\t// in\ntag_56:\n    /* \"#utility.yul\":1212:1242   */\n  swap1\n  pop\n    /* \"#utility.yul\":1251:1284   */\n  tag_57\n    /* \"#utility.yul\":1279:1283   */\n  dup3\n    /* \"#utility.yul\":1271:1277   */\n  dup3\n    /* \"#utility.yul\":1251:1284   */\n  tag_16\n  jump\t// in\ntag_57:\n    /* \"#utility.yul\":1161:1290   */\n  swap2\n  swap1\n  pop\n  jump\t// out\n    /* \"#utility.yul\":1296:1604   */\ntag_18:\n    /* \"#utility.yul\":1358:1362   */\n  0x00\n    /* \"#utility.yul\":1448:1466   */\n  0xffffffffffffffff\n    /* \"#utility.yul\":1440:1446   */\n  dup3\n    /* \"#utility.yul\":1437:1467   */\n  gt\n    /* \"#utility.yul\":1434:1490   */\n  iszero\n  tag_59\n  jumpi\n    /* \"#utility.yul\":1470:1488   */\n  tag_60\n  tag_15\n  jump\t// in\ntag_60:\n    /* \"#utility.yul\":1434:1490   */\ntag_59:\n    /* \"#utility.yul\":1508:1537   */\n  tag_61\n    /* \"#utility.yul\":1530:1536   */\n  dup3\n    /* \"#utility.yul\":1508:1537   */\n  tag_14\n  jump\t// in\ntag_61:\n    /* \"#utility.yul\":1500:1537   */\n  swap1\n  pop\n    /* \"#utility.yul\":1592:1596   */\n  0x20\n    /* \"#utility.yul\":1586:1590   */\n  dup2\n    /* \"#utility.yul\":1582:1597   */\n  add\n    /* \"#utility.yul\":1574:1597   */\n  swap1\n  pop\n    /* \"#utility.yul\":1296:1604   */\n  swap2\n  swap1\n  pop\n  jump\t// out\n    /* \"#utility.yul\":1610:1749   */\ntag_19:\n    /* \"#utility.yul\":1699:1705   */\n  dup3\n    /* \"#utility.yul\":1694:1697   */\n  dup2\n    /* \"#utility.yul\":1689:1692   */\n  dup4\n    /* \"#utility.yul\":1683:1706   */\n  mcopy\n    /* \"#utility.yul\":1740:1741   */\n  0x00\n    /* \"#utility.yul\":1731:1737   */\n  dup4\n    /* \"#utility.yul\":1726:1729   */\n  dup4\n    /* \"#utility.yul\":1722:1738   */\n  add\n    /* \"#utility.yul\":1715:1742   */\n  mstore\n    /* \"#utility.yul\":1610:1749   */\n  pop\n  pop\n  pop\n  jump\t// out\n    /* \"#utility.yul\":1755:2189   */\ntag_20:\n    /* \"#utility.yul\":1844:1849   */\n  0x00\n    /* \"#utility.yul\":1869:1935   */\n  tag_64\n    /* \"#utility.yul\":1885:1934   */\n  tag_65\n    /* \"#utility.yul\":1927:1933   */\n  dup5\n    /* \"#utility.yul\":1885:1934   */\n  tag_18\n  jump\t// in\ntag_65:\n    /* \"#utility.yul\":1869:1935   */\n  tag_17\n  jump\t// in\ntag_64:\n    /* \"#utility.yul\":1860:1935   */\n  swap1\n  pop\n    /* \"#utility.yul\":1958:1964   */\n  dup3\n    /* \"#utility.yul\":1951:1956   */\n  dup2\n    /* \"#utility.yul\":1944:1965   */\n  mstore\n    /* \"#utility.yul\":1996:2000   */\n  0x20\n    /* \"#utility.yul\":1989:1994   */\n  dup2\n    /* \"#utility.yul\":1985:2001   */\n  add\n    /* \"#utility.yul\":2034:2037   */\n  dup5\n    /* \"#utility.yul\":2025:2031   */\n  dup5\n    /* \"#utility.yul\":2020:2023   */\n  dup5\n    /* \"#utility.yul\":2016:2032   */\n  add\n    /* \"#utility.yul\":2013:2038   */\n  gt\n    /* \"#utility.yul\":2010:2122   */\n  iszero\n  tag_66\n  jumpi\n    /* \"#utility.yul\":2041:2120   */\n  tag_67\n  tag_13\n  jump\t// in\ntag_67:\n    /* \"#utility.yul\":2010:2122   */\ntag_66:\n    /* \"#utility.yul\":2131:2183   */\n  tag_68\n    /* \"#utility.yul\":2176:2182   */\n  dup5\n    /* \"#utility.yul\":2171:2174   */\n  dup3\n    /* \"#utility.yul\":2166:2169   */\n  dup6\n    /* \"#utility.yul\":2131:2183   */\n  tag_19\n  jump\t// in\ntag_68:\n    /* \"#utility.yul\":1850:2189   */\n  pop\n    /* \"#utility.yul\":1755:2189   */\n  swap4\n  swap3\n  pop\n  pop\n  pop\n  jump\t// out\n    /* \"#utility.yul\":2209:2564   */\ntag_21:\n    /* \"#utility.yul\":2276:2281   */\n  0x00\n    /* \"#utility.yul\":2325:2328   */\n  dup3\n    /* \"#utility.yul\":2318:2322   */\n  0x1f\n    /* \"#utility.yul\":2310:2316   */\n  dup4\n    /* \"#utility.yul\":2306:2323   */\n  add\n    /* \"#utility.yul\":2302:2329   */\n  slt\n    /* \"#utility.yul\":2292:2414   */\n  tag_70\n  jumpi\n    /* \"#utility.yul\":2333:2412   */\n  tag_71\n  tag_12\n  jump\t// in\ntag_71:\n    /* \"#utility.yul\":2292:2414   */\ntag_70:\n    /* \"#utility.yul\":2443:2449   */\n  dup2\n    /* \"#utility.yul\":2437:2450   */\n  mload\n    /* \"#utility.yul\":2468:2558   */\n  tag_72\n    /* \"#utility.yul\":2554:2557   */\n  dup5\n    /* \"#utility.yul\":2546:2552   */\n  dup3\n    /* \"#utility.yul\":2539:2543   */\n  0x20\n    /* \"#utility.yul\":2531:2537   */\n  dup7\n    /* \"#utility.yul\":2527:2544   */\n  add\n    /* \"#utility.yul\":2468:2558   */\n  tag_20\n  jump\t// in\ntag_72:\n    /* \"#utility.yul\":2459:2558   */\n  swap2\n  pop\n    /* \"#utility.yul\":2282:2564   */\n  pop\n    /* \"#utility.yul\":2209:2564   */\n  swap3\n  swap2\n  pop\n  pop\n  jump\t// out\n    /* \"#utility.yul\":2570:2647   */\ntag_22:\n    /* \"#utility.yul\":2607:2614   */\n  0x00\n    /* \"#utility.yul\":2636:2641   */\n  dup2\n    /* \"#utility.yul\":2625:2641   */\n  swap1\n  pop\n    /* \"#utility.yul\":2570:2647   */\n  swap2\n  swap1\n  pop\n  jump\t// out\n    /* \"#utility.yul\":2653:2775   */\ntag_23:\n    /* \"#utility.yul\":2726:2750   */\n  tag_75\n    /* \"#utility.yul\":2744:2749   */\n  dup2\n    /* \"#utility.yul\":2726:2750   */\n  tag_22\n  jump\t// in\ntag_75:\n    /* \"#utility.yul\":2719:2724   */\n  dup2\n    /* \"#utility.yul\":2716:2751   */\n  eq\n    /* \"#utility.yul\":2706:2769   */\n  tag_76\n  jumpi\n    /* \"#utility.yul\":2765:2766   */\n  0x00\n    /* \"#utility.yul\":2762:2763   */\n  0x00\n    /* \"#utility.yul\":2755:2767   */\n  revert\n    /* \"#utility.yul\":2706:2769   */\ntag_76:\n    /* \"#utility.yul\":2653:2775   */\n  pop\n  jump\t// out\n    /* \"#utility.yul\":2781:2924   */\ntag_24:\n    /* \"#utility.yul\":2838:2843   */\n  0x00\n    /* \"#utility.yul\":2869:2875   */\n  dup2\n    /* \"#utility.yul\":2863:2876   */\n  mload\n    /* \"#utility.yul\":2854:2876   */\n  swap1\n  pop\n    /* \"#utility.yul\":2885:2918   */\n  tag_78\n    /* \"#utility.yul\":2912:2917   */\n  dup2\n    /* \"#utility.yul\":2885:2918   */\n  tag_23\n  jump\t// in\ntag_78:\n    /* \"#utility.yul\":2781:2924   */\n  swap3\n  swap2\n  pop\n  pop\n  jump\t// out\n    /* \"#utility.yul\":2930:3766   */\ntag_3:\n    /* \"#utility.yul\":3028:3034   */\n  0x00\n    /* \"#utility.yul\":3036:3042   */\n  0x00\n    /* \"#utility.yul\":3044:3050   */\n  0x00\n    /* \"#utility.yul\":3093:3095   */\n  0x60\n    /* \"#utility.yul\":3081:3090   */\n  dup5\n    /* \"#utility.yul\":3072:3079   */\n  dup7\n    /* \"#utility.yul\":3068:3091   */\n  sub\n    /* \"#utility.yul\":3064:3096   */\n  slt\n    /* \"#utility.yul\":3061:3180   */\n  iszero\n  tag_80\n  jumpi\n    /* \"#utility.yul\":3099:3178   */\n  tag_81\n  tag_10\n  jump\t// in\ntag_81:\n    /* \"#utility.yul\":3061:3180   */\ntag_80:\n    /* \"#utility.yul\":3240:3241   */\n  0x00\n    /* \"#utility.yul\":3229:3238   */\n  dup5\n    /* \"#utility.yul\":3225:3242   */\n  add\n    /* \"#utility.yul\":3219:3243   */\n  mload\n    /* \"#utility.yul\":3270:3288   */\n  0xffffffffffffffff\n    /* \"#utility.yul\":3262:3268   */\n  dup2\n    /* \"#utility.yul\":3259:3289   */\n  gt\n    /* \"#utility.yul\":3256:3373   */\n  iszero\n  tag_82\n  jumpi\n    /* \"#utility.yul\":3292:3371   */\n  tag_83\n  tag_11\n  jump\t// in\ntag_83:\n    /* \"#utility.yul\":3256:3373   */\ntag_82:\n    /* \"#utility.yul\":3397:3471   */\n  tag_84\n    /* \"#utility.yul\":3463:3470   */\n  dup7\n    /* \"#utility.yul\":3454:3460   */\n  dup3\n    /* \"#utility.yul\":3443:3452   */\n  dup8\n    /* \"#utility.yul\":3439:3461   */\n  add\n    /* \"#utility.yul\":3397:3471   */\n  tag_21\n  jump\t// in\ntag_84:\n    /* \"#utility.yul\":3387:3471   */\n  swap4\n  pop\n    /* \"#utility.yul\":3190:3481   */\n  pop\n    /* \"#utility.yul\":3520:3522   */\n  0x20\n    /* \"#utility.yul\":3546:3610   */\n  tag_85\n    /* \"#utility.yul\":3602:3609   */\n  dup7\n    /* \"#utility.yul\":3593:3599   */\n  dup3\n    /* \"#utility.yul\":3582:3591   */\n  dup8\n    /* \"#utility.yul\":3578:3600   */\n  add\n    /* \"#utility.yul\":3546:3610   */\n  tag_24\n  jump\t// in\ntag_85:\n    /* \"#utility.yul\":3536:3610   */\n  swap3\n  pop\n    /* \"#utility.yul\":3491:3620   */\n  pop\n    /* \"#utility.yul\":3659:3661   */\n  0x40\n    /* \"#utility.yul\":3685:3749   */\n  tag_86\n    /* \"#utility.yul\":3741:3748   */\n  dup7\n    /* \"#utility.yul\":3732:3738   */\n  dup3\n    /* \"#utility.yul\":3721:3730   */\n  dup8\n    /* \"#utility.yul\":3717:3739   */\n  add\n    /* \"#utility.yul\":3685:3749   */\n  tag_24\n  jump\t// in\ntag_86:\n    /* \"#utility.yul\":3675:3749   */\n  swap2\n  pop\n    /* \"#utility.yul\":3630:3759   */\n  pop\n    /* \"#utility.yul\":2930:3766   */\n  swap3\n  pop\n  swap3\n  pop\n  swap3\n  jump\t// out\n    /* \"#utility.yul\":3772:3871   */\ntag_25:\n    /* \"#utility.yul\":3824:3830   */\n  0x00\n    /* \"#utility.yul\":3858:3863   */\n  dup2\n    /* \"#utility.yul\":3852:3864   */\n  mload\n    /* \"#utility.yul\":3842:3864   */\n  swap1\n  pop\n    /* \"#utility.yul\":3772:3871   */\n  swap2\n  swap1\n  pop\n  jump\t// out\n    /* \"#utility.yul\":3877:4057   */\ntag_26:\n    /* \"#utility.yul\":3925:4002   */\n  0x4e487b7100000000000000000000000000000000000000000000000000000000\n    /* \"#utility.yul\":3922:3923   */\n  0x00\n    /* \"#utility.yul\":3915:4003   */\n  mstore\n    /* \"#utility.yul\":4022:4026   */\n  0x22\n    /* \"#utility.yul\":4019:4020   */\n  0x04\n    /* \"#utility.yul\":4012:4027   */\n  mstore\n    /* \"#utility.yul\":4046:4050   */\n  0x24\n    /* \"#utility.yul\":4043:4044   */\n  0x00\n    /* \"#utility.yul\":4036:4051   */\n  revert\n    /* \"#utility.yul\":4063:4383   */\ntag_27:\n    /* \"#utility.yul\":4107:4113   */\n  0x00\n    /* \"#utility.yul\":4144:4145   */\n  0x02\n    /* \"#utility.yul\":4138:4142   */\n  dup3\n    /* \"#utility.yul\":4134:4146   */\n  div\n    /* \"#utility.yul\":4124:4146   */\n  swap1\n  pop\n    /* \"#utility.yul\":4191:4192   */\n  0x01\n    /* \"#utility.yul\":4185:4189   */\n  dup3\n    /* \"#utility.yul\":4181:4193   */\n  and\n    /* \"#utility.yul\":4212:4230   */\n  dup1\n    /* \"#utility.yul\":4202:4283   */\n  tag_90\n  jumpi\n    /* \"#utility.yul\":4268:4272   */\n  0x7f\n    /* \"#utility.yul\":4260:4266   */\n  dup3\n    /* \"#utility.yul\":4256:4273   */\n  and\n    /* \"#utility.yul\":4246:4273   */\n  swap2\n  pop\n    /* \"#utility.yul\":4202:4283   */\ntag_90:\n    /* \"#utility.yul\":4330:4332   */\n  0x20\n    /* \"#utility.yul\":4322:4328   */\n  dup3\n    /* \"#utility.yul\":4319:4333   */\n  lt\n    /* \"#utility.yul\":4299:4317   */\n  dup2\n    /* \"#utility.yul\":4296:4334   */\n  sub\n    /* \"#utility.yul\":4293:4377   */\n  tag_91\n  jumpi\n    /* \"#utility.yul\":4349:4367   */\n  tag_92\n  tag_26\n  jump\t// in\ntag_92:\n    /* \"#utility.yul\":4293:4377   */\ntag_91:\n    /* \"#utility.yul\":4114:4383   */\n  pop\n    /* \"#utility.yul\":4063:4383   */\n  swap2\n  swap1\n  pop\n  jump\t// out\n    /* \"#utility.yul\":4389:4530   */\ntag_28:\n    /* \"#utility.yul\":4438:4442   */\n  0x00\n    /* \"#utility.yul\":4461:4464   */\n  dup2\n    /* \"#utility.yul\":4453:4464   */\n  swap1\n  pop\n    /* \"#utility.yul\":4484:4487   */\n  dup2\n    /* \"#utility.yul\":4481:4482   */\n  0x00\n    /* \"#utility.yul\":4474:4488   */\n  mstore\n    /* \"#utility.yul\":4518:4522   */\n  0x20\n    /* \"#utility.yul\":4515:4516   */\n  0x00\n    /* \"#utility.yul\":4505:4523   */\n  keccak256\n    /* \"#utility.yul\":4497:4523   */\n  swap1\n  pop\n    /* \"#utility.yul\":4389:4530   */\n  swap2\n  swap1\n  pop\n  jump\t// out\n    /* \"#utility.yul\":4536:4629   */\ntag_29:\n    /* \"#utility.yul\":4573:4579   */\n  0x00\n    /* \"#utility.yul\":4620:4622   */\n  0x20\n    /* \"#utility.yul\":4615:4617   */\n  0x1f\n    /* \"#utility.yul\":4608:4613   */\n  dup4\n    /* \"#utility.yul\":4604:4618   */\n  add\n    /* \"#utility.yul\":4600:4623   */\n  div\n    /* \"#utility.yul\":4590:4623   */\n  swap1\n  pop\n    /* \"#utility.yul\":4536:4629   */\n  swap2\n  swap1\n  pop\n  jump\t// out\n    /* \"#utility.yul\":4635:4742   */\ntag_30:\n    /* \"#utility.yul\":4679:4687   */\n  0x00\n    /* \"#utility.yul\":4729:4734   */\n  dup3\n    /* \"#utility.yul\":4723:4727   */\n  dup3\n    /* \"#utility.yul\":4719:4735   */\n  shl\n    /* \"#utility.yul\":4698:4735   */\n  swap1\n  pop\n    /* \"#utility.yul\":4635:4742   */\n  swap3\n  swap2\n  pop\n  pop\n  jump\t// out\n    /* \"#utility.yul\":4748:5141   */\ntag_31:\n    /* \"#utility.yul\":4817:4823   */\n  0x00\n    /* \"#utility.yul\":4867:4868   */\n  0x08\n    /* \"#utility.yul\":4855:4865   */\n  dup4\n    /* \"#utility.yul\":4851:4869   */\n  mul\n    /* \"#utility.yul\":4890:4987   */\n  tag_97\n    /* \"#utility.yul\":4920:4986   */\n  0xffffffffffffffffffffffffffffffffffffffffffffffffffffffffffffffff\n    /* \"#utility.yul\":4909:4918   */\n  dup3\n    /* \"#utility.yul\":4890:4987   */\n  tag_30\n  jump\t// in\ntag_97:\n    /* \"#utility.yul\":5008:5047   */\n  tag_98\n    /* \"#utility.yul\":5038:5046   */\n  dup7\n    /* \"#utility.yul\":5027:5036   */\n  dup4\n    /* \"#utility.yul\":5008:5047   */\n  tag_30\n  jump\t// in\ntag_98:\n    /* \"#utility.yul\":4996:5047   */\n  swap6\n  pop\n    /* \"#utility.yul\":5080:5084   */\n  dup1\n    /* \"#utility.yul\":5076:5085   */\n  not\n    /* \"#utility.yul\":5069:5074   */\n  dup5\n    /* \"#utility.yul\":5065:5086   */\n  and\n    /* \"#utility.yul\":5056:5086   */\n  swap4\n  pop\n    /* \"#utility.yul\":5129:5133   */\n  dup1\n    /* \"#utility.yul\":5119:5127   */\n  dup7\n    /* \"#utility.yul\":5115:5134   */\n  and\n    /* \"#utility.yul\":5108:5113   */\n  dup5\n    /* \"#utility.yul\":5105:5135   */\n  or\n    /* \"#utility.yul\":5095:5135   */\n  swap3\n  pop\n    /* \"#utility.yul\":4824:5141   */\n  pop\n  pop\n    /* \"#utility.yul\":4748:5141   */\n  swap4\n  swap3\n  pop\n  pop\n  pop\n  jump\t// out\n    /* \"#utility.yul\":5147:5207   */\ntag_32:\n    /* \"#utility.yul\":5175:5178   */\n  0x00\n    /* \"#utility.yul\":5196:5201   */\n  dup2\n    /* \"#utility.yul\":5189:5201   */\n  swap1\n  pop\n    /* \"#utility.yul\":5147:5207   */\n  swap2\n  swap1\n  pop\n  jump\t// out\n    /* \"#utility.yul\":5213:5355   */\ntag_33:\n    /* \"#utility.yul\":5263:5272   */\n  0x00\n    /* \"#utility.yul\":5296:5349   */\n  tag_101\n    /* \"#utility.yul\":5314:5348   */\n  tag_102\n    /* \"#utility.yul\":5323:5347   */\n  tag_103\n    /* \"#utility.yul\":5341:5346   */\n  dup5\n    /* \"#utility.yul\":5323:5347   */\n  tag_22\n  jump\t// in\ntag_103:\n    /* \"#utility.yul\":5314:5348   */\n  tag_32\n  jump\t// in\ntag_102:\n    /* \"#utility.yul\":5296:5349   */\n  tag_22\n  jump\t// in\ntag_101:\n    /* \"#utility.yul\":5283:5349   */\n  swap1\n  pop\n    /* \"#utility.yul\":5213:5355   */\n  swap2\n  swap1\n  pop\n  jump\t// out\n    /* \"#utility.yul\":5361:5436   */\ntag_34:\n    /* \"#utility.yul\":5404:5407   */\n  0x00\n    /* \"#utility.yul\":5425:5430   */\n  dup2\n    /* \"#utility.yul\":5418:5430   */\n  swap1\n  pop\n    /* \"#utility.yul\":5361:5436   */\n  swap2\n  swap1\n  pop\n  jump\t// out\n    /* \"#utility.yul\":5442:5711   */\ntag_35:\n    /* \"#utility.yul\":5552:5591   */\n  tag_106\n    /* \"#utility.yul\":5583:5590   */\n  dup4\n    /* \"#utility.yul\":5552:5591   */\n  tag_33\n  jump\t// in\ntag_106:\n    /* \"#utility.yul\":5613:5704   */\n  tag_107\n    /* \"#utility.yul\":5662:5703   */\n  tag_108\n    /* \"#utility.yul\":5686:5702   */\n  dup3\n    /* \"#utility.yul\":5662:5703   */\n  tag_34\n  jump\t// in\ntag_108:\n    /* \"#utility.yul\":5654:5660   */\n  dup5\n    /* \"#utility.yul\":5647:5651   */\n  dup5\n    /* \"#utility.yul\":5641:5652   */\n  sload\n    /* \"#utility.yul\":5613:5704   */\n  tag_31\n  jump\t// in\ntag_107:\n    /* \"#utility.yul\":5607:5611   */\n  dup3\n    /* \"#utility.yul\":5600:5705   */\n  sstore\n    /* \"#utility.yul\":5518:5711   */\n  pop\n    /* \"#utility.yul\":5442:5711   */\n  pop\n  pop\n  pop\n  jump\t// out\n    /* \"#utility.yul\":5717:5790   */\ntag_36:\n    /* \"#utility.yul\":5762:5765   */\n  0x00\n    /* \"#utility.yul\":5783:5784   */\n  0x00\n    /* \"#utility.yul\":5776:5784   */\n  swap1\n  pop\n    /* \"#utility.yul\":5717:5790   */\n  swap1\n  jump\t// out\n    /* \"#utility.yul\":5796:5985   */\ntag_37:\n    /* \"#utility.yul\":5873:5905   */\n  tag_111\n  tag_36\n  jump\t// in\ntag_111:\n    /* \"#utility.yul\":5914:5979   */\n  tag_112\n    /* \"#utility.yul\":5972:5978   */\n  dup2\n    /* \"#utility.yul\":5964:5970   */\n  dup5\n    /* \"#utility.yul\":5958:5962   */\n  dup5\n    /* \"#utility.yul\":5914:5979   */\n  tag_35\n  jump\t// in\ntag_112:\n    /* \"#utility.yul\":5849:5985   */\n  pop\n    /* \"#utility.yul\":5796:5985   */\n  pop\n  pop\n  jump\t// out\n    /* \"#utility.yul\":5991:6177   */\ntag_38:\n    /* \"#utility.yul\":6051:6171   */\ntag_114:\n    /* \"#utility.yul\":6068:6071   */\n  dup2\n    /* \"#utility.yul\":6061:6066   */\n  dup2\n    /* \"#utility.yul\":6058:6072   */\n  lt\n    /* \"#utility.yul\":6051:6171   */\n  iszero\n  tag_116\n  jumpi\n    /* \"#utility.yul\":6122:6161   */\n  tag_117\n    /* \"#utility.yul\":6159:6160   */\n  0x00\n    /* \"#utility.yul\":6152:6157   */\n  dup3\n    /* \"#utility.yul\":6122:6161   */\n  tag_37\n  jump\t// in\ntag_117:\n    /* \"#utility.yul\":6095:6096   */\n  0x01\n    /* \"#utility.yul\":6088:6093   */\n  dup2\n    /* \"#utility.yul\":6084:6097   */\n  add\n    /* \"#utility.yul\":6075:6097   */\n  swap1\n  pop\n    /* \"#utility.yul\":6051:6171   */\n  jump(tag_114)\ntag_116:\n    /* \"#utility.yul\":5991:6177   */\n  pop\n  pop\n  jump\t// out\n    /* \"#utility.yul\":6183:6726   */\ntag_39:\n    /* \"#utility.yul\":6284:6286   */\n  0x1f\n    /* \"#utility.yul\":6279:6282   */\n  dup3\n    /* \"#utility.yul\":6276:6287   */\n  gt\n    /* \"#utility.yul\":6273:6719   */\n  iszero\n  tag_119\n  jumpi\n    /* \"#utility.yul\":6318:6356   */\n  tag_120\n    /* \"#utility.yul\":6350:6355   */\n  dup2\n    /* \"#utility.yul\":6318:6356   */\n  tag_28\n  jump\t// in\ntag_120:\n    /* \"#utility.yul\":6402:6431   */\n  tag_121\n    /* \"#utility.yul\":6420:6430   */\n  dup5\n    /* \"#utility.yul\":6402:6431   */\n  tag_29\n  jump\t// in\ntag_121:\n    /* \"#utility.yul\":6392:6400   */\n  dup2\n    /* \"#utility.yul\":6388:6432   */\n  add\n    /* \"#utility.yul\":6585:6587   */\n  0x20\n    /* \"#utility.yul\":6573:6583   */\n  dup6\n    /* \"#utility.yul\":6570:6588   */\n  lt\n    /* \"#utility.yul\":6567:6616   */\n  iszero\n  tag_122\n  jumpi\n    /* \"#utility.yul\":6606:6614   */\n  dup2\n    /* \"#utility.yul\":6591:6614   */\n  swap1\n  pop\n    /* \"#utility.yul\":6567:6616   */\ntag_122:\n    /* \"#utility.yul\":6629:6709   */\n  tag_123\n    /* \"#utility.yul\":6685:6707   */\n  tag_124\n    /* \"#utility.yul\":6703:6706   */\n  dup6\n    /* \"#utility.yul\":6685:6707   */\n  tag_29\n  jump\t// in\ntag_124:\n    /* \"#utility.yul\":6675:6683   */\n  dup4\n    /* \"#utility.yul\":6671:6708   */\n  add\n    /* \"#utility.yul\":6658:6669   */\n  dup3\n    /* \"#utility.yul\":6629:6709   */\n  tag_38\n  jump\t// in\ntag_123:\n    /* \"#utility.yul\":6288:6719   */\n  pop\n  pop\n    /* \"#utility.yul\":6273:6719   */\ntag_119:\n    /* \"#utility.yul\":6183:6726   */\n  pop\n  pop\n  pop\n  jump\t// out\n    /* \"#utility.yul\":6732:6849   */\ntag_40:\n    /* \"#utility.yul\":6786:6794   */\n  0x00\n    /* \"#utility.yul\":6836:6841   */\n  dup3\n    /* \"#utility.yul\":6830:6834   */\n  dup3\n    /* \"#utility.yul\":6826:6842   */\n  shr\n    /* \"#utility.yul\":6805:6842   */\n  swap1\n  pop\n    /* \"#utility.yul\":6732:6849   */\n  swap3\n  swap2\n  pop\n  pop\n  jump\t// out\n    /* \"#utility.yul\":6855:7024   */\ntag_41:\n    /* \"#utility.yul\":6899:6905   */\n  0x00\n    /* \"#utility.yul\":6932:6983   */\n  tag_127\n    /* \"#utility.yul\":6980:6981   */\n  0x00\n    /* \"#utility.yul\":6976:6982   */\n  not\n    /* \"#utility.yul\":6968:6973   */\n  dup5\n    /* \"#utility.yul\":6965:6966   */\n  0x08\n    /* \"#utility.yul\":6961:6974   */\n  mul\n    /* \"#utility.yul\":6932:6983   */\n  tag_40\n  jump\t// in\ntag_127:\n    /* \"#utility.yul\":6928:6984   */\n  not\n    /* \"#utility.yul\":7013:7017   */\n  dup1\n    /* \"#utility.yul\":7007:7011   */\n  dup4\n    /* \"#utility.yul\":7003:7018   */\n  and\n    /* \"#utility.yul\":6993:7018   */\n  swap2\n  pop\n    /* \"#utility.yul\":6906:7024   */\n  pop\n    /* \"#utility.yul\":6855:7024   */\n  swap3\n  swap2\n  pop\n  pop\n  jump\t// out\n    /* \"#utility.yul\":7029:7324   */\ntag_42:\n    /* \"#utility.yul\":7105:7109   */\n  0x00\n    /* \"#utility.yul\":7251:7280   */\n  tag_129\n    /* \"#utility.yul\":7276:7279   */\n  dup4\n    /* \"#utility.yul\":7270:7274   */\n  dup4\n    /* \"#utility.yul\":7251:7280   */\n  tag_41\n  jump\t// in\ntag_129:\n    /* \"#utility.yul\":7243:7280   */\n  swap2\n  pop\n    /* \"#utility.yul\":7313:7316   */\n  dup3\n    /* \"#utility.yul\":7310:7311   */\n  0x02\n    /* \"#utility.yul\":7306:7317   */\n  mul\n    /* \"#utility.yul\":7300:7304   */\n  dup3\n    /* \"#utility.yul\":7297:7318   */\n  or\n    /* \"#utility.yul\":7289:7318   */\n  swap1\n  pop\n    /* \"#utility.yul\":7029:7324   */\n  swap3\n  swap2\n  pop\n  pop\n  jump\t// out\n    /* \"#utility.yul\":7329:8724   */\ntag_7:\n    /* \"#utility.yul\":7446:7483   */\n  tag_131\n    /* \"#utility.yul\":7479:7482   */\n  dup3\n    /* \"#utility.yul\":7446:7483   */\n  tag_25\n  jump\t// in\ntag_131:\n    /* \"#utility.yul\":7548:7566   */\n  0xffffffffffffffff\n    /* \"#utility.yul\":7540:7546   */\n  dup2\n    /* \"#utility.yul\":7537:7567   */\n  gt\n    /* \"#utility.yul\":7534:7590   */\n  iszero\n  tag_132\n  jumpi\n    /* \"#utility.yul\":7570:7588   */\n  tag_133\n  tag_15\n  jump\t// in\ntag_133:\n    /* \"#utility.yul\":7534:7590   */\ntag_132:\n    /* \"#utility.yul\":7614:7652   */\n  tag_134\n    /* \"#utility.yul\":7646:7650   */\n  dup3\n    /* \"#utility.yul\":7640:7651   */\n  sload\n    /* \"#utility.yul\":7614:7652   */\n  tag_27\n  jump\t// in\ntag_134:\n    /* \"#utility.yul\":7699:7766   */\n  tag_135\n    /* \"#utility.yul\":7759:7765   */\n  dup3\n    /* \"#utility.yul\":7751:7757   */\n  dup3\n    /* \"#utility.yul\":7745:7749   */\n  dup6\n    /* \"#utility.yul\":7699:7766   */\n  tag_39\n  jump\t// in\ntag_135:\n    /* \"#utility.yul\":7793:7794   */\n  0x00\n    /* \"#utility.yul\":7817:7821   */\n  0x20\n    /* \"#utility.yul\":7804:7821   */\n  swap1\n  pop\n    /* \"#utility.yul\":7849:7851   */\n  0x1f\n    /* \"#utility.yul\":7841:7847   */\n  dup4\n    /* \"#utility.yul\":7838:7852   */\n  gt\n    /* \"#utility.yul\":7866:7867   */\n  0x01\n    /* \"#utility.yul\":7861:8479   */\n  dup2\n  eq\n  tag_137\n  jumpi\n    /* \"#utility.yul\":8523:8524   */\n  0x00\n    /* \"#utility.yul\":8540:8546   */\n  dup5\n    /* \"#utility.yul\":8537:8614   */\n  iszero\n  tag_138\n  jumpi\n    /* \"#utility.yul\":8589:8598   */\n  dup3\n    /* \"#utility.yul\":8584:8587   */\n  dup8\n    /* \"#utility.yul\":8580:8599   */\n  add\n    /* \"#utility.yul\":8574:8600   */\n  mload\n    /* \"#utility.yul\":8565:8600   */\n  swap1\n  pop\n    /* \"#utility.yul\":8537:8614   */\ntag_138:\n    /* \"#utility.yul\":8640:8707   */\n  tag_139\n    /* \"#utility.yul\":8700:8706   */\n  dup6\n    /* \"#utility.yul\":8693:8698   */\n  dup3\n    /* \"#utility.yul\":8640:8707   */\n  tag_42\n  jump\t// in\ntag_139:\n    /* \"#utility.yul\":8634:8638   */\n  dup7\n    /* \"#utility.yul\":8627:8708   */\n  sstore\n    /* \"#utility.yul\":8496:8718   */\n  pop\n    /* \"#utility.yul\":7831:8718   */\n  jump(tag_136)\n    /* \"#utility.yul\":7861:8479   */\ntag_137:\n    /* \"#utility.yul\":7913:7917   */\n  0x1f\n    /* \"#utility.yul\":7909:7918   */\n  not\n    /* \"#utility.yul\":7901:7907   */\n  dup5\n    /* \"#utility.yul\":7897:7919   */\n  and\n    /* \"#utility.yul\":7947:7984   */\n  tag_140\n    /* \"#utility.yul\":7979:7983   */\n  dup7\n    /* \"#utility.yul\":7947:7984   */\n  tag_28\n  jump\t// in\ntag_140:\n    /* \"#utility.yul\":8006:8007   */\n  0x00\n    /* \"#utility.yul\":8020:8228   */\ntag_141:\n    /* \"#utility.yul\":8034:8041   */\n  dup3\n    /* \"#utility.yul\":8031:8032   */\n  dup2\n    /* \"#utility.yul\":8028:8042   */\n  lt\n    /* \"#utility.yul\":8020:8228   */\n  iszero\n  tag_143\n  jumpi\n    /* \"#utility.yul\":8113:8122   */\n  dup5\n    /* \"#utility.yul\":8108:8111   */\n  dup10\n    /* \"#utility.yul\":8104:8123   */\n  add\n    /* \"#utility.yul\":8098:8124   */\n  mload\n    /* \"#utility.yul\":8090:8096   */\n  dup3\n    /* \"#utility.yul\":8083:8125   */\n  sstore\n    /* \"#utility.yul\":8164:8165   */\n  0x01\n    /* \"#utility.yul\":8156:8162   */\n  dup3\n    /* \"#utility.yul\":8152:8166   */\n  add\n    /* \"#utility.yul\":8142:8166   */\n  swap2\n  pop\n    /* \"#utility.yul\":8211:8213   */\n  0x20\n    /* \"#utility.yul\":8200:8209   */\n  dup6\n    /* \"#utility.yul\":8196:8214   */\n  add\n    /* \"#utility.yul\":8183:8214   */\n  swap5\n  pop\n    /* \"#utility.yul\":8057:8061   */\n  0x20\n    /* \"#utility.yul\":8054:8055   */\n  dup2\n    /* \"#utility.yul\":8050:8062   */\n  add\n    /* \"#utility.yul\":8045:8062   */\n  swap1\n  pop\n    /* \"#utility.yul\":8020:8228   */\n  jump(tag_141)\ntag_143:\n    /* \"#utility.yul\":8256:8262   */\n  dup7\n    /* \"#utility.yul\":8247:8254   */\n  dup4\n    /* \"#utility.yul\":8244:8263   */\n  lt\n    /* \"#utility.yul\":8241:8420   */\n  iszero\n  tag_144\n  jumpi\n    /* \"#utility.yul\":8314:8323   */\n  dup5\n    /* \"#utility.yul\":8309:8312   */\n  dup10\n    /* \"#utility.yul\":8305:8324   */\n  add\n    /* \"#utility.yul\":8299:8325   */\n  mload\n    /* \"#utility.yul\":8357:8405   */\n  tag_145\n    /* \"#utility.yul\":8399:8403   */\n  0x1f\n    /* \"#utility.yul\":8391:8397   */\n  dup10\n    /* \"#utility.yul\":8387:8404   */\n  and\n    /* \"#utility.yul\":8376:8385   */\n  dup3\n    /* \"#utility.yul\":8357:8405   */\n  tag_41\n  jump\t// in\ntag_145:\n    /* \"#utility.yul\":8349:8355   */\n  dup4\n    /* \"#utility.yul\":8342:8406   */\n  sstore\n    /* \"#utility.yul\":8264:8420   */\n  pop\n    /* \"#utility.yul\":8241:8420   */\ntag_144:\n    /* \"#utility.yul\":8466:8467   */\n  0x01\n    /* \"#utility.yul\":8462:8463   */\n  0x02\n    /* \"#utility.yul\":8454:8460   */\n  dup9\n    /* \"#utility.yul\":8450:8464   */\n  mul\n    /* \"#utility.yul\":8446:8468   */\n  add\n    /* \"#utility.yul\":8440:8444   */\n  dup9\n    /* \"#utility.yul\":8433:8469   */\n  sstore\n    /* \"#utility.yul\":7868:8479   */\n  pop\n  pop\n  pop\n    /* \"#utility.yul\":7831:8718   */\ntag_136:\n  pop\n    /* \"#utility.yul\":7421:8724   */\n  pop\n  pop\n  pop\n    /* \"#utility.yul\":7329:8724   */\n  pop\n  pop\n  jump\t// out\n    /* \"contracts/10.3.constructor.sol\":70:864  contract Student {... */\ntag_8:\n  dataSize(sub_0)\n  dup1\n  dataOffset(sub_0)\n  0x00\n  codecopy\n  0x00\n  return\nstop\n\nsub_0: assembly {\n        /* \"contracts/10.3.constructor.sol\":70:864  contract Student {... */\n      mstore(0x40, 0x80)\n      callvalue\n      dup1\n      iszero\n      tag_1\n      jumpi\n      revert(0x00, 0x00)\n    tag_1:\n      pop\n      jumpi(tag_2, lt(calldatasize, 0x04))\n      shr(0xe0, calldataload(0x00))\n      dup1\n      0x06fdde03\n      eq\n      tag_3\n      jumpi\n      dup1\n      0x262a9dff\n      eq\n      tag_4\n      jumpi\n      dup1\n      0xaf640d0f\n      eq\n      tag_5\n      jumpi\n      dup1\n      0xe0fb7197\n      eq\n      tag_6\n      jumpi\n      dup1\n      0xfbbf93a0\n      eq\n      tag_7\n      jumpi\n    tag_2:\n      revert(0x00, 0x00)\n        /* \"contracts/10.3.constructor.sol\":93:111  string public name */\n    tag_3:\n      tag_8\n      tag_9\n      jump\t// in\n    tag_8:\n      mload(0x40)\n      tag_10\n      swap2\n      swap1\n      tag_11\n      jump\t// in\n    tag_10:\n      mload(0x40)\n      dup1\n      swap2\n      sub\n      swap1\n      return\n        /* \"contracts/10.3.constructor.sol\":117:135  uint256 public age */\n    tag_4:\n      tag_12\n      tag_13\n      jump\t// in\n    tag_12:\n      mload(0x40)\n      tag_14\n      swap2\n      swap1\n      tag_15\n      jump\t// in\n    tag_14:\n      mload(0x40)\n      dup1\n      swap2\n      sub\n      swap1\n      return\n        /* \"contracts/10.3.constructor.sol\":141:158  uint256 public id */\n    tag_5:\n      tag_16\n      tag_17\n      jump\t// in\n    tag_16:\n      mload(0x40)\n      tag_18\n      swap2\n      swap1\n      tag_15\n      jump\t// in\n    tag_18:\n      mload(0x40)\n      dup1\n      swap2\n      sub\n      swap1\n      return\n        /* \"contracts/10.3.constructor.sol\":447:622  function updateDetails(... */\n    tag_6:\n      tag_19\n      0x04\n      dup1\n      calldatasize\n      sub\n      dup2\n      add\n      swap1\n      tag_20\n      swap2\n      swap1\n      tag_21\n      jump\t// in\n    tag_20:\n      tag_22\n      jump\t// in\n    tag_19:\n      stop\n        /* \"contracts/10.3.constructor.sol\":673:862  function getDetails()... */\n    tag_7:\n      tag_23\n      tag_24\n      jump\t// in\n    tag_23:\n      mload(0x40)\n      tag_25\n      swap4\n      swap3\n      swap2\n      swap1\n      tag_26\n      jump\t// in\n    tag_25:\n      mload(0x40)\n      dup1\n      swap2\n      sub\n      swap1\n      return\n        /* \"contracts/10.3.constructor.sol\":93:111  string public name */\n    tag_9:\n      0x00\n      dup1\n      sload\n      tag_27\n      swap1\n      tag_28\n      jump\t// in\n    tag_27:\n      dup1\n      0x1f\n      add\n      0x20\n      dup1\n      swap2\n      div\n      mul\n      0x20\n      add\n      mload(0x40)\n      swap1\n      dup2\n      add\n      0x40\n      mstore\n      dup1\n      swap3\n      swap2\n      swap1\n      dup2\n      dup2\n      mstore\n      0x20\n      add\n      dup3\n      dup1\n      sload\n      tag_29\n      swap1\n      tag_28\n      jump\t// in\n    tag_29:\n      dup1\n      iszero\n      tag_30\n      jumpi\n      dup1\n      0x1f\n      lt\n      tag_31\n      jumpi\n      0x0100\n      dup1\n      dup4\n      sload\n      div\n      mul\n      dup4\n      mstore\n      swap2\n      0x20\n      add\n      swap2\n      jump(tag_30)\n    tag_31:\n      dup3\n      add\n      swap2\n      swap1\n      0x00\n      mstore\n      keccak256(0x00, 0x20)\n      swap1\n    tag_32:\n      dup2\n      sload\n      dup2\n      mstore\n      swap1\n      0x01\n      add\n      swap1\n      0x20\n      add\n      dup1\n      dup4\n      gt\n      tag_32\n      jumpi\n      dup3\n      swap1\n      sub\n      0x1f\n      and\n      dup3\n      add\n      swap2\n    tag_30:\n      pop\n      pop\n      pop\n      pop\n      pop\n      dup2\n      jump\t// out\n        /* \"contracts/10.3.constructor.sol\":117:135  uint256 public age */\n    tag_13:\n      sload(0x01)\n      dup2\n      jump\t// out\n        /* \"contracts/10.3.constructor.sol\":141:158  uint256 public id */\n    tag_17:\n      sload(0x02)\n      dup2\n      jump\t// out\n        /* \"contracts/10.3.constructor.sol\":447:622  function updateDetails(... */\n    tag_22:\n        /* \"contracts/10.3.constructor.sol\":572:577  _name */\n      dup3\n        /* \"contracts/10.3.constructor.sol\":565:569  name */\n      0x00\n        /* \"contracts/10.3.constructor.sol\":565:577  name = _name */\n      swap1\n      dup2\n      tag_34\n      swap2\n      swap1\n      tag_35\n      jump\t// in\n    tag_34:\n      pop\n        /* \"contracts/10.3.constructor.sol\":593:597  _age */\n      dup2\n        /* \"contracts/10.3.constructor.sol\":587:590  age */\n      0x01\n        /* \"contracts/10.3.constructor.sol\":587:597  age = _age */\n      dup2\n      swap1\n      sstore\n      pop\n        /* \"contracts/10.3.constructor.sol\":612:615  _id */\n      dup1\n        /* \"contracts/10.3.constructor.sol\":607:609  id */\n      0x02\n        /* \"contracts/10.3.constructor.sol\":607:615  id = _id */\n      dup2\n      swap1\n      sstore\n      pop\n        /* \"contracts/10.3.constructor.sol\":447:622  function updateDetails(... */\n      pop\n      pop\n      pop\n      jump\t// out\n        /* \"contracts/10.3.constructor.sol\":673:862  function getDetails()... */\n    tag_24:\n        /* \"contracts/10.3.constructor.sol\":753:766  string memory */\n      0x60\n        /* \"contracts/10.3.constructor.sol\":780:787  uint256 */\n      0x00\n        /* \"contracts/10.3.constructor.sol\":801:808  uint256 */\n      0x00\n        /* \"contracts/10.3.constructor.sol\":841:845  name */\n      0x00\n        /* \"contracts/10.3.constructor.sol\":847:850  age */\n      sload(0x01)\n        /* \"contracts/10.3.constructor.sol\":852:854  id */\n      sload(0x02)\n        /* \"contracts/10.3.constructor.sol\":833:855  return (name, age, id) */\n      dup3\n      dup1\n      sload\n      tag_37\n      swap1\n      tag_28\n      jump\t// in\n    tag_37:\n      dup1\n      0x1f\n      add\n      0x20\n      dup1\n      swap2\n      div\n      mul\n      0x20\n      add\n      mload(0x40)\n      swap1\n      dup2\n      add\n      0x40\n      mstore\n      dup1\n      swap3\n      swap2\n      swap1\n      dup2\n      dup2\n      mstore\n      0x20\n      add\n      dup3\n      dup1\n      sload\n      tag_38\n      swap1\n      tag_28\n      jump\t// in\n    tag_38:\n      dup1\n      iszero\n      tag_39\n      jumpi\n      dup1\n      0x1f\n      lt\n      tag_40\n      jumpi\n      0x0100\n      dup1\n      dup4\n      sload\n      div\n      mul\n      dup4\n      mstore\n      swap2\n      0x20\n      add\n      swap2\n      jump(tag_39)\n    tag_40:\n      dup3\n      add\n      swap2\n      swap1\n      0x00\n      mstore\n      keccak256(0x00, 0x20)\n      swap1\n    tag_41:\n      dup2\n      sload\n      dup2\n      mstore\n      swap1\n      0x01\n      add\n      swap1\n      0x20\n      add\n      dup1\n      dup4\n      gt\n      tag_41\n      jumpi\n      dup3\n      swap1\n      sub\n      0x1f\n      and\n      dup3\n      add\n      swap2\n    tag_39:\n      pop\n      pop\n      pop\n      pop\n      pop\n      swap3\n      pop\n      swap3\n      pop\n      swap3\n      pop\n      swap3\n      pop\n        /* \"contracts/10.3.constructor.sol\":673:862  function getDetails()... */\n      swap1\n      swap2\n      swap3\n      jump\t// out\n        /* \"#utility.yul\":7:106   */\n    tag_42:\n        /* \"#utility.yul\":59:65   */\n      0x00\n        /* \"#utility.yul\":93:98   */\n      dup2\n        /* \"#utility.yul\":87:99   */\n      mload\n        /* \"#utility.yul\":77:99   */\n      swap1\n      pop\n        /* \"#utility.yul\":7:106   */\n      swap2\n      swap1\n      pop\n      jump\t// out\n        /* \"#utility.yul\":112:281   */\n    tag_43:\n        /* \"#utility.yul\":196:207   */\n      0x00\n        /* \"#utility.yul\":230:236   */\n      dup3\n        /* \"#utility.yul\":225:228   */\n      dup3\n        /* \"#utility.yul\":218:237   */\n      mstore\n        /* \"#utility.yul\":270:274   */\n      0x20\n        /* \"#utility.yul\":265:268   */\n      dup3\n        /* \"#utility.yul\":261:275   */\n      add\n        /* \"#utility.yul\":246:275   */\n      swap1\n      pop\n        /* \"#utility.yul\":112:281   */\n      swap3\n      swap2\n      pop\n      pop\n      jump\t// out\n        /* \"#utility.yul\":287:426   */\n    tag_44:\n        /* \"#utility.yul\":376:382   */\n      dup3\n        /* \"#utility.yul\":371:374   */\n      dup2\n        /* \"#utility.yul\":366:369   */\n      dup4\n        /* \"#utility.yul\":360:383   */\n      mcopy\n        /* \"#utility.yul\":417:418   */\n      0x00\n        /* \"#utility.yul\":408:414   */\n      dup4\n        /* \"#utility.yul\":403:406   */\n      dup4\n        /* \"#utility.yul\":399:415   */\n      add\n        /* \"#utility.yul\":392:419   */\n      mstore\n        /* \"#utility.yul\":287:426   */\n      pop\n      pop\n      pop\n      jump\t// out\n        /* \"#utility.yul\":432:534   */\n    tag_45:\n        /* \"#utility.yul\":473:479   */\n      0x00\n        /* \"#utility.yul\":524:526   */\n      0x1f\n        /* \"#utility.yul\":520:527   */\n      not\n        /* \"#utility.yul\":515:517   */\n      0x1f\n        /* \"#utility.yul\":508:513   */\n      dup4\n        /* \"#utility.yul\":504:518   */\n      add\n        /* \"#utility.yul\":500:528   */\n      and\n        /* \"#utility.yul\":490:528   */\n      swap1\n      pop\n        /* \"#utility.yul\":432:534   */\n      swap2\n      swap1\n      pop\n      jump\t// out\n        /* \"#utility.yul\":540:917   */\n    tag_46:\n        /* \"#utility.yul\":628:631   */\n      0x00\n        /* \"#utility.yul\":656:695   */\n      tag_85\n        /* \"#utility.yul\":689:694   */\n      dup3\n        /* \"#utility.yul\":656:695   */\n      tag_42\n      jump\t// in\n    tag_85:\n        /* \"#utility.yul\":711:782   */\n      tag_86\n        /* \"#utility.yul\":775:781   */\n      dup2\n        /* \"#utility.yul\":770:773   */\n      dup6\n        /* \"#utility.yul\":711:782   */\n      tag_43\n      jump\t// in\n    tag_86:\n        /* \"#utility.yul\":704:782   */\n      swap4\n      pop\n        /* \"#utility.yul\":791:856   */\n      tag_87\n        /* \"#utility.yul\":849:855   */\n      dup2\n        /* \"#utility.yul\":844:847   */\n      dup6\n        /* \"#utility.yul\":837:841   */\n      0x20\n        /* \"#utility.yul\":830:835   */\n      dup7\n        /* \"#utility.yul\":826:842   */\n      add\n        /* \"#utility.yul\":791:856   */\n      tag_44\n      jump\t// in\n    tag_87:\n        /* \"#utility.yul\":881:910   */\n      tag_88\n        /* \"#utility.yul\":903:909   */\n      dup2\n        /* \"#utility.yul\":881:910   */\n      tag_45\n      jump\t// in\n    tag_88:\n        /* \"#utility.yul\":876:879   */\n      dup5\n        /* \"#utility.yul\":872:911   */\n      add\n        /* \"#utility.yul\":865:911   */\n      swap2\n      pop\n        /* \"#utility.yul\":632:917   */\n      pop\n        /* \"#utility.yul\":540:917   */\n      swap3\n      swap2\n      pop\n      pop\n      jump\t// out\n        /* \"#utility.yul\":923:1236   */\n    tag_11:\n        /* \"#utility.yul\":1036:1040   */\n      0x00\n        /* \"#utility.yul\":1074:1076   */\n      0x20\n        /* \"#utility.yul\":1063:1072   */\n      dup3\n        /* \"#utility.yul\":1059:1077   */\n      add\n        /* \"#utility.yul\":1051:1077   */\n      swap1\n      pop\n        /* \"#utility.yul\":1123:1132   */\n      dup2\n        /* \"#utility.yul\":1117:1121   */\n      dup2\n        /* \"#utility.yul\":1113:1133   */\n      sub\n        /* \"#utility.yul\":1109:1110   */\n      0x00\n        /* \"#utility.yul\":1098:1107   */\n      dup4\n        /* \"#utility.yul\":1094:1111   */\n      add\n        /* \"#utility.yul\":1087:1134   */\n      mstore\n        /* \"#utility.yul\":1151:1229   */\n      tag_90\n        /* \"#utility.yul\":1224:1228   */\n      dup2\n        /* \"#utility.yul\":1215:1221   */\n      dup5\n        /* \"#utility.yul\":1151:1229   */\n      tag_46\n      jump\t// in\n    tag_90:\n        /* \"#utility.yul\":1143:1229   */\n      swap1\n      pop\n        /* \"#utility.yul\":923:1236   */\n      swap3\n      swap2\n      pop\n      pop\n      jump\t// out\n        /* \"#utility.yul\":1242:1319   */\n    tag_47:\n        /* \"#utility.yul\":1279:1286   */\n      0x00\n        /* \"#utility.yul\":1308:1313   */\n      dup2\n        /* \"#utility.yul\":1297:1313   */\n      swap1\n      pop\n        /* \"#utility.yul\":1242:1319   */\n      swap2\n      swap1\n      pop\n      jump\t// out\n        /* \"#utility.yul\":1325:1443   */\n    tag_48:\n        /* \"#utility.yul\":1412:1436   */\n      tag_93\n        /* \"#utility.yul\":1430:1435   */\n      dup2\n        /* \"#utility.yul\":1412:1436   */\n      tag_47\n      jump\t// in\n    tag_93:\n        /* \"#utility.yul\":1407:1410   */\n      dup3\n        /* \"#utility.yul\":1400:1437   */\n      mstore\n        /* \"#utility.yul\":1325:1443   */\n      pop\n      pop\n      jump\t// out\n        /* \"#utility.yul\":1449:1671   */\n    tag_15:\n        /* \"#utility.yul\":1542:1546   */\n      0x00\n        /* \"#utility.yul\":1580:1582   */\n      0x20\n        /* \"#utility.yul\":1569:1578   */\n      dup3\n        /* \"#utility.yul\":1565:1583   */\n      add\n        /* \"#utility.yul\":1557:1583   */\n      swap1\n      pop\n        /* \"#utility.yul\":1593:1664   */\n      tag_95\n        /* \"#utility.yul\":1661:1662   */\n      0x00\n        /* \"#utility.yul\":1650:1659   */\n      dup4\n        /* \"#utility.yul\":1646:1663   */\n      add\n        /* \"#utility.yul\":1637:1643   */\n      dup5\n        /* \"#utility.yul\":1593:1664   */\n      tag_48\n      jump\t// in\n    tag_95:\n        /* \"#utility.yul\":1449:1671   */\n      swap3\n      swap2\n      pop\n      pop\n      jump\t// out\n        /* \"#utility.yul\":1677:1752   */\n    tag_49:\n        /* \"#utility.yul\":1710:1716   */\n      0x00\n        /* \"#utility.yul\":1743:1745   */\n      0x40\n        /* \"#utility.yul\":1737:1746   */\n      mload\n        /* \"#utility.yul\":1727:1746   */\n      swap1\n      pop\n        /* \"#utility.yul\":1677:1752   */\n      swap1\n      jump\t// out\n        /* \"#utility.yul\":1758:1875   */\n    tag_50:\n        /* \"#utility.yul\":1867:1868   */\n      0x00\n        /* \"#utility.yul\":1864:1865   */\n      0x00\n        /* \"#utility.yul\":1857:1869   */\n      revert\n        /* \"#utility.yul\":1881:1998   */\n    tag_51:\n        /* \"#utility.yul\":1990:1991   */\n      0x00\n        /* \"#utility.yul\":1987:1988   */\n      0x00\n        /* \"#utility.yul\":1980:1992   */\n      revert\n        /* \"#utility.yul\":2004:2121   */\n    tag_52:\n        /* \"#utility.yul\":2113:2114   */\n      0x00\n        /* \"#utility.yul\":2110:2111   */\n      0x00\n        /* \"#utility.yul\":2103:2115   */\n      revert\n        /* \"#utility.yul\":2127:2244   */\n    tag_53:\n        /* \"#utility.yul\":2236:2237   */\n      0x00\n        /* \"#utility.yul\":2233:2234   */\n      0x00\n        /* \"#utility.yul\":2226:2238   */\n      revert\n        /* \"#utility.yul\":2250:2430   */\n    tag_54:\n        /* \"#utility.yul\":2298:2375   */\n      0x4e487b7100000000000000000000000000000000000000000000000000000000\n        /* \"#utility.yul\":2295:2296   */\n      0x00\n        /* \"#utility.yul\":2288:2376   */\n      mstore\n        /* \"#utility.yul\":2395:2399   */\n      0x41\n        /* \"#utility.yul\":2392:2393   */\n      0x04\n        /* \"#utility.yul\":2385:2400   */\n      mstore\n        /* \"#utility.yul\":2419:2423   */\n      0x24\n        /* \"#utility.yul\":2416:2417   */\n      0x00\n        /* \"#utility.yul\":2409:2424   */\n      revert\n        /* \"#utility.yul\":2436:2717   */\n    tag_55:\n        /* \"#utility.yul\":2519:2546   */\n      tag_103\n        /* \"#utility.yul\":2541:2545   */\n      dup3\n        /* \"#utility.yul\":2519:2546   */\n      tag_45\n      jump\t// in\n    tag_103:\n        /* \"#utility.yul\":2511:2517   */\n      dup2\n        /* \"#utility.yul\":2507:2547   */\n      add\n        /* \"#utility.yul\":2649:2655   */\n      dup2\n        /* \"#utility.yul\":2637:2647   */\n      dup2\n        /* \"#utility.yul\":2634:2656   */\n      lt\n        /* \"#utility.yul\":2613:2631   */\n      0xffffffffffffffff\n        /* \"#utility.yul\":2601:2611   */\n      dup3\n        /* \"#utility.yul\":2598:2632   */\n      gt\n        /* \"#utility.yul\":2595:2657   */\n      or\n        /* \"#utility.yul\":2592:2680   */\n      iszero\n      tag_104\n      jumpi\n        /* \"#utility.yul\":2660:2678   */\n      tag_105\n      tag_54\n      jump\t// in\n    tag_105:\n        /* \"#utility.yul\":2592:2680   */\n    tag_104:\n        /* \"#utility.yul\":2700:2710   */\n      dup1\n        /* \"#utility.yul\":2696:2698   */\n      0x40\n        /* \"#utility.yul\":2689:2711   */\n      mstore\n        /* \"#utility.yul\":2479:2717   */\n      pop\n        /* \"#utility.yul\":2436:2717   */\n      pop\n      pop\n      jump\t// out\n        /* \"#utility.yul\":2723:2852   */\n    tag_56:\n        /* \"#utility.yul\":2757:2763   */\n      0x00\n        /* \"#utility.yul\":2784:2804   */\n      tag_107\n      tag_49\n      jump\t// in\n    tag_107:\n        /* \"#utility.yul\":2774:2804   */\n      swap1\n      pop\n        /* \"#utility.yul\":2813:2846   */\n      tag_108\n        /* \"#utility.yul\":2841:2845   */\n      dup3\n        /* \"#utility.yul\":2833:2839   */\n      dup3\n        /* \"#utility.yul\":2813:2846   */\n      tag_55\n      jump\t// in\n    tag_108:\n        /* \"#utility.yul\":2723:2852   */\n      swap2\n      swap1\n      pop\n      jump\t// out\n        /* \"#utility.yul\":2858:3166   */\n    tag_57:\n        /* \"#utility.yul\":2920:2924   */\n      0x00\n        /* \"#utility.yul\":3010:3028   */\n      0xffffffffffffffff\n        /* \"#utility.yul\":3002:3008   */\n      dup3\n        /* \"#utility.yul\":2999:3029   */\n      gt\n        /* \"#utility.yul\":2996:3052   */\n      iszero\n      tag_110\n      jumpi\n        /* \"#utility.yul\":3032:3050   */\n      tag_111\n      tag_54\n      jump\t// in\n    tag_111:\n        /* \"#utility.yul\":2996:3052   */\n    tag_110:\n        /* \"#utility.yul\":3070:3099   */\n      tag_112\n        /* \"#utility.yul\":3092:3098   */\n      dup3\n        /* \"#utility.yul\":3070:3099   */\n      tag_45\n      jump\t// in\n    tag_112:\n        /* \"#utility.yul\":3062:3099   */\n      swap1\n      pop\n        /* \"#utility.yul\":3154:3158   */\n      0x20\n        /* \"#utility.yul\":3148:3152   */\n      dup2\n        /* \"#utility.yul\":3144:3159   */\n      add\n        /* \"#utility.yul\":3136:3159   */\n      swap1\n      pop\n        /* \"#utility.yul\":2858:3166   */\n      swap2\n      swap1\n      pop\n      jump\t// out\n        /* \"#utility.yul\":3172:3320   */\n    tag_58:\n        /* \"#utility.yul\":3270:3276   */\n      dup3\n        /* \"#utility.yul\":3265:3268   */\n      dup2\n        /* \"#utility.yul\":3260:3263   */\n      dup4\n        /* \"#utility.yul\":3247:3277   */\n      calldatacopy\n        /* \"#utility.yul\":3311:3312   */\n      0x00\n        /* \"#utility.yul\":3302:3308   */\n      dup4\n        /* \"#utility.yul\":3297:3300   */\n      dup4\n        /* \"#utility.yul\":3293:3309   */\n      add\n        /* \"#utility.yul\":3286:3313   */\n      mstore\n        /* \"#utility.yul\":3172:3320   */\n      pop\n      pop\n      pop\n      jump\t// out\n        /* \"#utility.yul\":3326:3751   */\n    tag_59:\n        /* \"#utility.yul\":3404:3409   */\n      0x00\n        /* \"#utility.yul\":3429:3495   */\n      tag_115\n        /* \"#utility.yul\":3445:3494   */\n      tag_116\n        /* \"#utility.yul\":3487:3493   */\n      dup5\n        /* \"#utility.yul\":3445:3494   */\n      tag_57\n      jump\t// in\n    tag_116:\n        /* \"#utility.yul\":3429:3495   */\n      tag_56\n      jump\t// in\n    tag_115:\n        /* \"#utility.yul\":3420:3495   */\n      swap1\n      pop\n        /* \"#utility.yul\":3518:3524   */\n      dup3\n        /* \"#utility.yul\":3511:3516   */\n      dup2\n        /* \"#utility.yul\":3504:3525   */\n      mstore\n        /* \"#utility.yul\":3556:3560   */\n      0x20\n        /* \"#utility.yul\":3549:3554   */\n      dup2\n        /* \"#utility.yul\":3545:3561   */\n      add\n        /* \"#utility.yul\":3594:3597   */\n      dup5\n        /* \"#utility.yul\":3585:3591   */\n      dup5\n        /* \"#utility.yul\":3580:3583   */\n      dup5\n        /* \"#utility.yul\":3576:3592   */\n      add\n        /* \"#utility.yul\":3573:3598   */\n      gt\n        /* \"#utility.yul\":3570:3682   */\n      iszero\n      tag_117\n      jumpi\n        /* \"#utility.yul\":3601:3680   */\n      tag_118\n      tag_53\n      jump\t// in\n    tag_118:\n        /* \"#utility.yul\":3570:3682   */\n    tag_117:\n        /* \"#utility.yul\":3691:3745   */\n      tag_119\n        /* \"#utility.yul\":3738:3744   */\n      dup5\n        /* \"#utility.yul\":3733:3736   */\n      dup3\n        /* \"#utility.yul\":3728:3731   */\n      dup6\n        /* \"#utility.yul\":3691:3745   */\n      tag_58\n      jump\t// in\n    tag_119:\n        /* \"#utility.yul\":3410:3751   */\n      pop\n        /* \"#utility.yul\":3326:3751   */\n      swap4\n      swap3\n      pop\n      pop\n      pop\n      jump\t// out\n        /* \"#utility.yul\":3771:4111   */\n    tag_60:\n        /* \"#utility.yul\":3827:3832   */\n      0x00\n        /* \"#utility.yul\":3876:3879   */\n      dup3\n        /* \"#utility.yul\":3869:3873   */\n      0x1f\n        /* \"#utility.yul\":3861:3867   */\n      dup4\n        /* \"#utility.yul\":3857:3874   */\n      add\n        /* \"#utility.yul\":3853:3880   */\n      slt\n        /* \"#utility.yul\":3843:3965   */\n      tag_121\n      jumpi\n        /* \"#utility.yul\":3884:3963   */\n      tag_122\n      tag_52\n      jump\t// in\n    tag_122:\n        /* \"#utility.yul\":3843:3965   */\n    tag_121:\n        /* \"#utility.yul\":4001:4007   */\n      dup2\n        /* \"#utility.yul\":3988:4008   */\n      calldataload\n        /* \"#utility.yul\":4026:4105   */\n      tag_123\n        /* \"#utility.yul\":4101:4104   */\n      dup5\n        /* \"#utility.yul\":4093:4099   */\n      dup3\n        /* \"#utility.yul\":4086:4090   */\n      0x20\n        /* \"#utility.yul\":4078:4084   */\n      dup7\n        /* \"#utility.yul\":4074:4091   */\n      add\n        /* \"#utility.yul\":4026:4105   */\n      tag_59\n      jump\t// in\n    tag_123:\n        /* \"#utility.yul\":4017:4105   */\n      swap2\n      pop\n        /* \"#utility.yul\":3833:4111   */\n      pop\n        /* \"#utility.yul\":3771:4111   */\n      swap3\n      swap2\n      pop\n      pop\n      jump\t// out\n        /* \"#utility.yul\":4117:4239   */\n    tag_61:\n        /* \"#utility.yul\":4190:4214   */\n      tag_125\n        /* \"#utility.yul\":4208:4213   */\n      dup2\n        /* \"#utility.yul\":4190:4214   */\n      tag_47\n      jump\t// in\n    tag_125:\n        /* \"#utility.yul\":4183:4188   */\n      dup2\n        /* \"#utility.yul\":4180:4215   */\n      eq\n        /* \"#utility.yul\":4170:4233   */\n      tag_126\n      jumpi\n        /* \"#utility.yul\":4229:4230   */\n      0x00\n        /* \"#utility.yul\":4226:4227   */\n      0x00\n        /* \"#utility.yul\":4219:4231   */\n      revert\n        /* \"#utility.yul\":4170:4233   */\n    tag_126:\n        /* \"#utility.yul\":4117:4239   */\n      pop\n      jump\t// out\n        /* \"#utility.yul\":4245:4384   */\n    tag_62:\n        /* \"#utility.yul\":4291:4296   */\n      0x00\n        /* \"#utility.yul\":4329:4335   */\n      dup2\n        /* \"#utility.yul\":4316:4336   */\n      calldataload\n        /* \"#utility.yul\":4307:4336   */\n      swap1\n      pop\n        /* \"#utility.yul\":4345:4378   */\n      tag_128\n        /* \"#utility.yul\":4372:4377   */\n      dup2\n        /* \"#utility.yul\":4345:4378   */\n      tag_61\n      jump\t// in\n    tag_128:\n        /* \"#utility.yul\":4245:4384   */\n      swap3\n      swap2\n      pop\n      pop\n      jump\t// out\n        /* \"#utility.yul\":4390:5189   */\n    tag_21:\n        /* \"#utility.yul\":4477:4483   */\n      0x00\n        /* \"#utility.yul\":4485:4491   */\n      0x00\n        /* \"#utility.yul\":4493:4499   */\n      0x00\n        /* \"#utility.yul\":4542:4544   */\n      0x60\n        /* \"#utility.yul\":4530:4539   */\n      dup5\n        /* \"#utility.yul\":4521:4528   */\n      dup7\n        /* \"#utility.yul\":4517:4540   */\n      sub\n        /* \"#utility.yul\":4513:4545   */\n      slt\n        /* \"#utility.yul\":4510:4629   */\n      iszero\n      tag_130\n      jumpi\n        /* \"#utility.yul\":4548:4627   */\n      tag_131\n      tag_50\n      jump\t// in\n    tag_131:\n        /* \"#utility.yul\":4510:4629   */\n    tag_130:\n        /* \"#utility.yul\":4696:4697   */\n      0x00\n        /* \"#utility.yul\":4685:4694   */\n      dup5\n        /* \"#utility.yul\":4681:4698   */\n      add\n        /* \"#utility.yul\":4668:4699   */\n      calldataload\n        /* \"#utility.yul\":4726:4744   */\n      0xffffffffffffffff\n        /* \"#utility.yul\":4718:4724   */\n      dup2\n        /* \"#utility.yul\":4715:4745   */\n      gt\n        /* \"#utility.yul\":4712:4829   */\n      iszero\n      tag_132\n      jumpi\n        /* \"#utility.yul\":4748:4827   */\n      tag_133\n      tag_51\n      jump\t// in\n    tag_133:\n        /* \"#utility.yul\":4712:4829   */\n    tag_132:\n        /* \"#utility.yul\":4853:4916   */\n      tag_134\n        /* \"#utility.yul\":4908:4915   */\n      dup7\n        /* \"#utility.yul\":4899:4905   */\n      dup3\n        /* \"#utility.yul\":4888:4897   */\n      dup8\n        /* \"#utility.yul\":4884:4906   */\n      add\n        /* \"#utility.yul\":4853:4916   */\n      tag_60\n      jump\t// in\n    tag_134:\n        /* \"#utility.yul\":4843:4916   */\n      swap4\n      pop\n        /* \"#utility.yul\":4639:4926   */\n      pop\n        /* \"#utility.yul\":4965:4967   */\n      0x20\n        /* \"#utility.yul\":4991:5044   */\n      tag_135\n        /* \"#utility.yul\":5036:5043   */\n      dup7\n        /* \"#utility.yul\":5027:5033   */\n      dup3\n        /* \"#utility.yul\":5016:5025   */\n      dup8\n        /* \"#utility.yul\":5012:5034   */\n      add\n        /* \"#utility.yul\":4991:5044   */\n      tag_62\n      jump\t// in\n    tag_135:\n        /* \"#utility.yul\":4981:5044   */\n      swap3\n      pop\n        /* \"#utility.yul\":4936:5054   */\n      pop\n        /* \"#utility.yul\":5093:5095   */\n      0x40\n        /* \"#utility.yul\":5119:5172   */\n      tag_136\n        /* \"#utility.yul\":5164:5171   */\n      dup7\n        /* \"#utility.yul\":5155:5161   */\n      dup3\n        /* \"#utility.yul\":5144:5153   */\n      dup8\n        /* \"#utility.yul\":5140:5162   */\n      add\n        /* \"#utility.yul\":5119:5172   */\n      tag_62\n      jump\t// in\n    tag_136:\n        /* \"#utility.yul\":5109:5172   */\n      swap2\n      pop\n        /* \"#utility.yul\":5064:5182   */\n      pop\n        /* \"#utility.yul\":4390:5189   */\n      swap3\n      pop\n      swap3\n      pop\n      swap3\n      jump\t// out\n        /* \"#utility.yul\":5195:5728   */\n    tag_26:\n        /* \"#utility.yul\":5364:5368   */\n      0x00\n        /* \"#utility.yul\":5402:5404   */\n      0x60\n        /* \"#utility.yul\":5391:5400   */\n      dup3\n        /* \"#utility.yul\":5387:5405   */\n      add\n        /* \"#utility.yul\":5379:5405   */\n      swap1\n      pop\n        /* \"#utility.yul\":5451:5460   */\n      dup2\n        /* \"#utility.yul\":5445:5449   */\n      dup2\n        /* \"#utility.yul\":5441:5461   */\n      sub\n        /* \"#utility.yul\":5437:5438   */\n      0x00\n        /* \"#utility.yul\":5426:5435   */\n      dup4\n        /* \"#utility.yul\":5422:5439   */\n      add\n        /* \"#utility.yul\":5415:5462   */\n      mstore\n        /* \"#utility.yul\":5479:5557   */\n      tag_138\n        /* \"#utility.yul\":5552:5556   */\n      dup2\n        /* \"#utility.yul\":5543:5549   */\n      dup7\n        /* \"#utility.yul\":5479:5557   */\n      tag_46\n      jump\t// in\n    tag_138:\n        /* \"#utility.yul\":5471:5557   */\n      swap1\n      pop\n        /* \"#utility.yul\":5567:5639   */\n      tag_139\n        /* \"#utility.yul\":5635:5637   */\n      0x20\n        /* \"#utility.yul\":5624:5633   */\n      dup4\n        /* \"#utility.yul\":5620:5638   */\n      add\n        /* \"#utility.yul\":5611:5617   */\n      dup6\n        /* \"#utility.yul\":5567:5639   */\n      tag_48\n      jump\t// in\n    tag_139:\n        /* \"#utility.yul\":5649:5721   */\n      tag_140\n        /* \"#utility.yul\":5717:5719   */\n      0x40\n        /* \"#utility.yul\":5706:5715   */\n      dup4\n        /* \"#utility.yul\":5702:5720   */\n      add\n        /* \"#utility.yul\":5693:5699   */\n      dup5\n        /* \"#utility.yul\":5649:5721   */\n      tag_48\n      jump\t// in\n    tag_140:\n        /* \"#utility.yul\":5195:5728   */\n      swap5\n      swap4\n      pop\n      pop\n      pop\n      pop\n      jump\t// out\n        /* \"#utility.yul\":5734:5914   */\n    tag_63:\n        /* \"#utility.yul\":5782:5859   */\n      0x4e487b7100000000000000000000000000000000000000000000000000000000\n        /* \"#utility.yul\":5779:5780   */\n      0x00\n        /* \"#utility.yul\":5772:5860   */\n      mstore\n        /* \"#utility.yul\":5879:5883   */\n      0x22\n        /* \"#utility.yul\":5876:5877   */\n      0x04\n        /* \"#utility.yul\":5869:5884   */\n      mstore\n        /* \"#utility.yul\":5903:5907   */\n      0x24\n        /* \"#utility.yul\":5900:5901   */\n      0x00\n        /* \"#utility.yul\":5893:5908   */\n      revert\n        /* \"#utility.yul\":5920:6240   */\n    tag_28:\n        /* \"#utility.yul\":5964:5970   */\n      0x00\n        /* \"#utility.yul\":6001:6002   */\n      0x02\n        /* \"#utility.yul\":5995:5999   */\n      dup3\n        /* \"#utility.yul\":5991:6003   */\n      div\n        /* \"#utility.yul\":5981:6003   */\n      swap1\n      pop\n        /* \"#utility.yul\":6048:6049   */\n      0x01\n        /* \"#utility.yul\":6042:6046   */\n      dup3\n        /* \"#utility.yul\":6038:6050   */\n      and\n        /* \"#utility.yul\":6069:6087   */\n      dup1\n        /* \"#utility.yul\":6059:6140   */\n      tag_143\n      jumpi\n        /* \"#utility.yul\":6125:6129   */\n      0x7f\n        /* \"#utility.yul\":6117:6123   */\n      dup3\n        /* \"#utility.yul\":6113:6130   */\n      and\n        /* \"#utility.yul\":6103:6130   */\n      swap2\n      pop\n        /* \"#utility.yul\":6059:6140   */\n    tag_143:\n        /* \"#utility.yul\":6187:6189   */\n      0x20\n        /* \"#utility.yul\":6179:6185   */\n      dup3\n        /* \"#utility.yul\":6176:6190   */\n      lt\n        /* \"#utility.yul\":6156:6174   */\n      dup2\n        /* \"#utility.yul\":6153:6191   */\n      sub\n        /* \"#utility.yul\":6150:6234   */\n      tag_144\n      jumpi\n        /* \"#utility.yul\":6206:6224   */\n      tag_145\n      tag_63\n      jump\t// in\n    tag_145:\n        /* \"#utility.yul\":6150:6234   */\n    tag_144:\n        /* \"#utility.yul\":5971:6240   */\n      pop\n        /* \"#utility.yul\":5920:6240   */\n      swap2\n      swap1\n      pop\n      jump\t// out\n        /* \"#utility.yul\":6246:6387   */\n    tag_64:\n        /* \"#utility.yul\":6295:6299   */\n      0x00\n        /* \"#utility.yul\":6318:6321   */\n      dup2\n        /* \"#utility.yul\":6310:6321   */\n      swap1\n      pop\n        /* \"#utility.yul\":6341:6344   */\n      dup2\n        /* \"#utility.yul\":6338:6339   */\n      0x00\n        /* \"#utility.yul\":6331:6345   */\n      mstore\n        /* \"#utility.yul\":6375:6379   */\n      0x20\n        /* \"#utility.yul\":6372:6373   */\n      0x00\n        /* \"#utility.yul\":6362:6380   */\n      keccak256\n        /* \"#utility.yul\":6354:6380   */\n      swap1\n      pop\n        /* \"#utility.yul\":6246:6387   */\n      swap2\n      swap1\n      pop\n      jump\t// out\n        /* \"#utility.yul\":6393:6486   */\n    tag_65:\n        /* \"#utility.yul\":6430:6436   */\n      0x00\n        /* \"#utility.yul\":6477:6479   */\n      0x20\n        /* \"#utility.yul\":6472:6474   */\n      0x1f\n        /* \"#utility.yul\":6465:6470   */\n      dup4\n        /* \"#utility.yul\":6461:6475   */\n      add\n        /* \"#utility.yul\":6457:6480   */\n      div\n        /* \"#utility.yul\":6447:6480   */\n      swap1\n      pop\n        /* \"#utility.yul\":6393:6486   */\n      swap2\n      swap1\n      pop\n      jump\t// out\n        /* \"#utility.yul\":6492:6599   */\n    tag_66:\n        /* \"#utility.yul\":6536:6544   */\n      0x00\n        /* \"#utility.yul\":6586:6591   */\n      dup3\n        /* \"#utility.yul\":6580:6584   */\n      dup3\n        /* \"#utility.yul\":6576:6592   */\n      shl\n        /* \"#utility.yul\":6555:6592   */\n      swap1\n      pop\n        /* \"#utility.yul\":6492:6599   */\n      swap3\n      swap2\n      pop\n      pop\n      jump\t// out\n        /* \"#utility.yul\":6605:6998   */\n    tag_67:\n        /* \"#utility.yul\":6674:6680   */\n      0x00\n        /* \"#utility.yul\":6724:6725   */\n      0x08\n        /* \"#utility.yul\":6712:6722   */\n      dup4\n        /* \"#utility.yul\":6708:6726   */\n      mul\n        /* \"#utility.yul\":6747:6844   */\n      tag_150\n        /* \"#utility.yul\":6777:6843   */\n      0xffffffffffffffffffffffffffffffffffffffffffffffffffffffffffffffff\n        /* \"#utility.yul\":6766:6775   */\n      dup3\n        /* \"#utility.yul\":6747:6844   */\n      tag_66\n      jump\t// in\n    tag_150:\n        /* \"#utility.yul\":6865:6904   */\n      tag_151\n        /* \"#utility.yul\":6895:6903   */\n      dup7\n        /* \"#utility.yul\":6884:6893   */\n      dup4\n        /* \"#utility.yul\":6865:6904   */\n      tag_66\n      jump\t// in\n    tag_151:\n        /* \"#utility.yul\":6853:6904   */\n      swap6\n      pop\n        /* \"#utility.yul\":6937:6941   */\n      dup1\n        /* \"#utility.yul\":6933:6942   */\n      not\n        /* \"#utility.yul\":6926:6931   */\n      dup5\n        /* \"#utility.yul\":6922:6943   */\n      and\n        /* \"#utility.yul\":6913:6943   */\n      swap4\n      pop\n        /* \"#utility.yul\":6986:6990   */\n      dup1\n        /* \"#utility.yul\":6976:6984   */\n      dup7\n        /* \"#utility.yul\":6972:6991   */\n      and\n        /* \"#utility.yul\":6965:6970   */\n      dup5\n        /* \"#utility.yul\":6962:6992   */\n      or\n        /* \"#utility.yul\":6952:6992   */\n      swap3\n      pop\n        /* \"#utility.yul\":6681:6998   */\n      pop\n      pop\n        /* \"#utility.yul\":6605:6998   */\n      swap4\n      swap3\n      pop\n      pop\n      pop\n      jump\t// out\n        /* \"#utility.yul\":7004:7064   */\n    tag_68:\n        /* \"#utility.yul\":7032:7035   */\n      0x00\n        /* \"#utility.yul\":7053:7058   */\n      dup2\n        /* \"#utility.yul\":7046:7058   */\n      swap1\n      pop\n        /* \"#utility.yul\":7004:7064   */\n      swap2\n      swap1\n      pop\n      jump\t// out\n        /* \"#utility.yul\":7070:7212   */\n    tag_69:\n        /* \"#utility.yul\":7120:7129   */\n      0x00\n        /* \"#utility.yul\":7153:7206   */\n      tag_154\n        /* \"#utility.yul\":7171:7205   */\n      tag_155\n        /* \"#utility.yul\":7180:7204   */\n      tag_156\n        /* \"#utility.yul\":7198:7203   */\n      dup5\n        /* \"#utility.yul\":7180:7204   */\n      tag_47\n      jump\t// in\n    tag_156:\n        /* \"#utility.yul\":7171:7205   */\n      tag_68\n      jump\t// in\n    tag_155:\n        /* \"#utility.yul\":7153:7206   */\n      tag_47\n      jump\t// in\n    tag_154:\n        /* \"#utility.yul\":7140:7206   */\n      swap1\n      pop\n        /* \"#utility.yul\":7070:7212   */\n      swap2\n      swap1\n      pop\n      jump\t// out\n        /* \"#utility.yul\":7218:7293   */\n    tag_70:\n        /* \"#utility.yul\":7261:7264   */\n      0x00\n        /* \"#utility.yul\":7282:7287   */\n      dup2\n        /* \"#utility.yul\":7275:7287   */\n      swap1\n      pop\n        /* \"#utility.yul\":7218:7293   */\n      swap2\n      swap1\n      pop\n      jump\t// out\n        /* \"#utility.yul\":7299:7568   */\n    tag_71:\n        /* \"#utility.yul\":7409:7448   */\n      tag_159\n        /* \"#utility.yul\":7440:7447   */\n      dup4\n        /* \"#utility.yul\":7409:7448   */\n      tag_69\n      jump\t// in\n    tag_159:\n        /* \"#utility.yul\":7470:7561   */\n      tag_160\n        /* \"#utility.yul\":7519:7560   */\n      tag_161\n        /* \"#utility.yul\":7543:7559   */\n      dup3\n        /* \"#utility.yul\":7519:7560   */\n      tag_70\n      jump\t// in\n    tag_161:\n        /* \"#utility.yul\":7511:7517   */\n      dup5\n        /* \"#utility.yul\":7504:7508   */\n      dup5\n        /* \"#utility.yul\":7498:7509   */\n      sload\n        /* \"#utility.yul\":7470:7561   */\n      tag_67\n      jump\t// in\n    tag_160:\n        /* \"#utility.yul\":7464:7468   */\n      dup3\n        /* \"#utility.yul\":7457:7562   */\n      sstore\n        /* \"#utility.yul\":7375:7568   */\n      pop\n        /* \"#utility.yul\":7299:7568   */\n      pop\n      pop\n      pop\n      jump\t// out\n        /* \"#utility.yul\":7574:7647   */\n    tag_72:\n        /* \"#utility.yul\":7619:7622   */\n      0x00\n        /* \"#utility.yul\":7640:7641   */\n      0x00\n        /* \"#utility.yul\":7633:7641   */\n      swap1\n      pop\n        /* \"#utility.yul\":7574:7647   */\n      swap1\n      jump\t// out\n        /* \"#utility.yul\":7653:7842   */\n    tag_73:\n        /* \"#utility.yul\":7730:7762   */\n      tag_164\n      tag_72\n      jump\t// in\n    tag_164:\n        /* \"#utility.yul\":7771:7836   */\n      tag_165\n        /* \"#utility.yul\":7829:7835   */\n      dup2\n        /* \"#utility.yul\":7821:7827   */\n      dup5\n        /* \"#utility.yul\":7815:7819   */\n      dup5\n        /* \"#utility.yul\":7771:7836   */\n      tag_71\n      jump\t// in\n    tag_165:\n        /* \"#utility.yul\":7706:7842   */\n      pop\n        /* \"#utility.yul\":7653:7842   */\n      pop\n      pop\n      jump\t// out\n        /* \"#utility.yul\":7848:8034   */\n    tag_74:\n        /* \"#utility.yul\":7908:8028   */\n    tag_167:\n        /* \"#utility.yul\":7925:7928   */\n      dup2\n        /* \"#utility.yul\":7918:7923   */\n      dup2\n        /* \"#utility.yul\":7915:7929   */\n      lt\n        /* \"#utility.yul\":7908:8028   */\n      iszero\n      tag_169\n      jumpi\n        /* \"#utility.yul\":7979:8018   */\n      tag_170\n        /* \"#utility.yul\":8016:8017   */\n      0x00\n        /* \"#utility.yul\":8009:8014   */\n      dup3\n        /* \"#utility.yul\":7979:8018   */\n      tag_73\n      jump\t// in\n    tag_170:\n        /* \"#utility.yul\":7952:7953   */\n      0x01\n        /* \"#utility.yul\":7945:7950   */\n      dup2\n        /* \"#utility.yul\":7941:7954   */\n      add\n        /* \"#utility.yul\":7932:7954   */\n      swap1\n      pop\n        /* \"#utility.yul\":7908:8028   */\n      jump(tag_167)\n    tag_169:\n        /* \"#utility.yul\":7848:8034   */\n      pop\n      pop\n      jump\t// out\n        /* \"#utility.yul\":8040:8583   */\n    tag_75:\n        /* \"#utility.yul\":8141:8143   */\n      0x1f\n        /* \"#utility.yul\":8136:8139   */\n      dup3\n        /* \"#utility.yul\":8133:8144   */\n      gt\n        /* \"#utility.yul\":8130:8576   */\n      iszero\n      tag_172\n      jumpi\n        /* \"#utility.yul\":8175:8213   */\n      tag_173\n        /* \"#utility.yul\":8207:8212   */\n      dup2\n        /* \"#utility.yul\":8175:8213   */\n      tag_64\n      jump\t// in\n    tag_173:\n        /* \"#utility.yul\":8259:8288   */\n      tag_174\n        /* \"#utility.yul\":8277:8287   */\n      dup5\n        /* \"#utility.yul\":8259:8288   */\n      tag_65\n      jump\t// in\n    tag_174:\n        /* \"#utility.yul\":8249:8257   */\n      dup2\n        /* \"#utility.yul\":8245:8289   */\n      add\n        /* \"#utility.yul\":8442:8444   */\n      0x20\n        /* \"#utility.yul\":8430:8440   */\n      dup6\n        /* \"#utility.yul\":8427:8445   */\n      lt\n        /* \"#utility.yul\":8424:8473   */\n      iszero\n      tag_175\n      jumpi\n        /* \"#utility.yul\":8463:8471   */\n      dup2\n        /* \"#utility.yul\":8448:8471   */\n      swap1\n      pop\n        /* \"#utility.yul\":8424:8473   */\n    tag_175:\n        /* \"#utility.yul\":8486:8566   */\n      tag_176\n        /* \"#utility.yul\":8542:8564   */\n      tag_177\n        /* \"#utility.yul\":8560:8563   */\n      dup6\n        /* \"#utility.yul\":8542:8564   */\n      tag_65\n      jump\t// in\n    tag_177:\n        /* \"#utility.yul\":8532:8540   */\n      dup4\n        /* \"#utility.yul\":8528:8565   */\n      add\n        /* \"#utility.yul\":8515:8526   */\n      dup3\n        /* \"#utility.yul\":8486:8566   */\n      tag_74\n      jump\t// in\n    tag_176:\n        /* \"#utility.yul\":8145:8576   */\n      pop\n      pop\n        /* \"#utility.yul\":8130:8576   */\n    tag_172:\n        /* \"#utility.yul\":8040:8583   */\n      pop\n      pop\n      pop\n      jump\t// out\n        /* \"#utility.yul\":8589:8706   */\n    tag_76:\n        /* \"#utility.yul\":8643:8651   */\n      0x00\n        /* \"#utility.yul\":8693:8698   */\n      dup3\n        /* \"#utility.yul\":8687:8691   */\n      dup3\n        /* \"#utility.yul\":8683:8699   */\n      shr\n        /* \"#utility.yul\":8662:8699   */\n      swap1\n      pop\n        /* \"#utility.yul\":8589:8706   */\n      swap3\n      swap2\n      pop\n      pop\n      jump\t// out\n        /* \"#utility.yul\":8712:8881   */\n    tag_77:\n        /* \"#utility.yul\":8756:8762   */\n      0x00\n        /* \"#utility.yul\":8789:8840   */\n      tag_180\n        /* \"#utility.yul\":8837:8838   */\n      0x00\n        /* \"#utility.yul\":8833:8839   */\n      not\n        /* \"#utility.yul\":8825:8830   */\n      dup5\n        /* \"#utility.yul\":8822:8823   */\n      0x08\n        /* \"#utility.yul\":8818:8831   */\n      mul\n        /* \"#utility.yul\":8789:8840   */\n      tag_76\n      jump\t// in\n    tag_180:\n        /* \"#utility.yul\":8785:8841   */\n      not\n        /* \"#utility.yul\":8870:8874   */\n      dup1\n        /* \"#utility.yul\":8864:8868   */\n      dup4\n        /* \"#utility.yul\":8860:8875   */\n      and\n        /* \"#utility.yul\":8850:8875   */\n      swap2\n      pop\n        /* \"#utility.yul\":8763:8881   */\n      pop\n        /* \"#utility.yul\":8712:8881   */\n      swap3\n      swap2\n      pop\n      pop\n      jump\t// out\n        /* \"#utility.yul\":8886:9181   */\n    tag_78:\n        /* \"#utility.yul\":8962:8966   */\n      0x00\n        /* \"#utility.yul\":9108:9137   */\n      tag_182\n        /* \"#utility.yul\":9133:9136   */\n      dup4\n        /* \"#utility.yul\":9127:9131   */\n      dup4\n        /* \"#utility.yul\":9108:9137   */\n      tag_77\n      jump\t// in\n    tag_182:\n        /* \"#utility.yul\":9100:9137   */\n      swap2\n      pop\n        /* \"#utility.yul\":9170:9173   */\n      dup3\n        /* \"#utility.yul\":9167:9168   */\n      0x02\n        /* \"#utility.yul\":9163:9174   */\n      mul\n        /* \"#utility.yul\":9157:9161   */\n      dup3\n        /* \"#utility.yul\":9154:9175   */\n      or\n        /* \"#utility.yul\":9146:9175   */\n      swap1\n      pop\n        /* \"#utility.yul\":8886:9181   */\n      swap3\n      swap2\n      pop\n      pop\n      jump\t// out\n        /* \"#utility.yul\":9186:10581   */\n    tag_35:\n        /* \"#utility.yul\":9303:9340   */\n      tag_184\n        /* \"#utility.yul\":9336:9339   */\n      dup3\n        /* \"#utility.yul\":9303:9340   */\n      tag_42\n      jump\t// in\n    tag_184:\n        /* \"#utility.yul\":9405:9423   */\n      0xffffffffffffffff\n        /* \"#utility.yul\":9397:9403   */\n      dup2\n        /* \"#utility.yul\":9394:9424   */\n      gt\n        /* \"#utility.yul\":9391:9447   */\n      iszero\n      tag_185\n      jumpi\n        /* \"#utility.yul\":9427:9445   */\n      tag_186\n      tag_54\n      jump\t// in\n    tag_186:\n        /* \"#utility.yul\":9391:9447   */\n    tag_185:\n        /* \"#utility.yul\":9471:9509   */\n      tag_187\n        /* \"#utility.yul\":9503:9507   */\n      dup3\n        /* \"#utility.yul\":9497:9508   */\n      sload\n        /* \"#utility.yul\":9471:9509   */\n      tag_28\n      jump\t// in\n    tag_187:\n        /* \"#utility.yul\":9556:9623   */\n      tag_188\n        /* \"#utility.yul\":9616:9622   */\n      dup3\n        /* \"#utility.yul\":9608:9614   */\n      dup3\n        /* \"#utility.yul\":9602:9606   */\n      dup6\n        /* \"#utility.yul\":9556:9623   */\n      tag_75\n      jump\t// in\n    tag_188:\n        /* \"#utility.yul\":9650:9651   */\n      0x00\n        /* \"#utility.yul\":9674:9678   */\n      0x20\n        /* \"#utility.yul\":9661:9678   */\n      swap1\n      pop\n        /* \"#utility.yul\":9706:9708   */\n      0x1f\n        /* \"#utility.yul\":9698:9704   */\n      dup4\n        /* \"#utility.yul\":9695:9709   */\n      gt\n        /* \"#utility.yul\":9723:9724   */\n      0x01\n        /* \"#utility.yul\":9718:10336   */\n      dup2\n      eq\n      tag_190\n      jumpi\n        /* \"#utility.yul\":10380:10381   */\n      0x00\n        /* \"#utility.yul\":10397:10403   */\n      dup5\n        /* \"#utility.yul\":10394:10471   */\n      iszero\n      tag_191\n      jumpi\n        /* \"#utility.yul\":10446:10455   */\n      dup3\n        /* \"#utility.yul\":10441:10444   */\n      dup8\n        /* \"#utility.yul\":10437:10456   */\n      add\n        /* \"#utility.yul\":10431:10457   */\n      mload\n        /* \"#utility.yul\":10422:10457   */\n      swap1\n      pop\n        /* \"#utility.yul\":10394:10471   */\n    tag_191:\n        /* \"#utility.yul\":10497:10564   */\n      tag_192\n        /* \"#utility.yul\":10557:10563   */\n      dup6\n        /* \"#utility.yul\":10550:10555   */\n      dup3\n        /* \"#utility.yul\":10497:10564   */\n      tag_78\n      jump\t// in\n    tag_192:\n        /* \"#utility.yul\":10491:10495   */\n      dup7\n        /* \"#utility.yul\":10484:10565   */\n      sstore\n        /* \"#utility.yul\":10353:10575   */\n      pop\n        /* \"#utility.yul\":9688:10575   */\n      jump(tag_189)\n        /* \"#utility.yul\":9718:10336   */\n    tag_190:\n        /* \"#utility.yul\":9770:9774   */\n      0x1f\n        /* \"#utility.yul\":9766:9775   */\n      not\n        /* \"#utility.yul\":9758:9764   */\n      dup5\n        /* \"#utility.yul\":9754:9776   */\n      and\n        /* \"#utility.yul\":9804:9841   */\n      tag_193\n        /* \"#utility.yul\":9836:9840   */\n      dup7\n        /* \"#utility.yul\":9804:9841   */\n      tag_64\n      jump\t// in\n    tag_193:\n        /* \"#utility.yul\":9863:9864   */\n      0x00\n        /* \"#utility.yul\":9877:10085   */\n    tag_194:\n        /* \"#utility.yul\":9891:9898   */\n      dup3\n        /* \"#utility.yul\":9888:9889   */\n      dup2\n        /* \"#utility.yul\":9885:9899   */\n      lt\n        /* \"#utility.yul\":9877:10085   */\n      iszero\n      tag_196\n      jumpi\n        /* \"#utility.yul\":9970:9979   */\n      dup5\n        /* \"#utility.yul\":9965:9968   */\n      dup10\n        /* \"#utility.yul\":9961:9980   */\n      add\n        /* \"#utility.yul\":9955:9981   */\n      mload\n        /* \"#utility.yul\":9947:9953   */\n      dup3\n        /* \"#utility.yul\":9940:9982   */\n      sstore\n        /* \"#utility.yul\":10021:10022   */\n      0x01\n        /* \"#utility.yul\":10013:10019   */\n      dup3\n        /* \"#utility.yul\":10009:10023   */\n      add\n        /* \"#utility.yul\":9999:10023   */\n      swap2\n      pop\n        /* \"#utility.yul\":10068:10070   */\n      0x20\n        /* \"#utility.yul\":10057:10066   */\n      dup6\n        /* \"#utility.yul\":10053:10071   */\n      add\n        /* \"#utility.yul\":10040:10071   */\n      swap5\n      pop\n        /* \"#utility.yul\":9914:9918   */\n      0x20\n        /* \"#utility.yul\":9911:9912   */\n      dup2\n        /* \"#utility.yul\":9907:9919   */\n      add\n        /* \"#utility.yul\":9902:9919   */\n      swap1\n      pop\n        /* \"#utility.yul\":9877:10085   */\n      jump(tag_194)\n    tag_196:\n        /* \"#utility.yul\":10113:10119   */\n      dup7\n        /* \"#utility.yul\":10104:10111   */\n      dup4\n        /* \"#utility.yul\":10101:10120   */\n      lt\n        /* \"#utility.yul\":10098:10277   */\n      iszero\n      tag_197\n      jumpi\n        /* \"#utility.yul\":10171:10180   */\n      dup5\n        /* \"#utility.yul\":10166:10169   */\n      dup10\n        /* \"#utility.yul\":10162:10181   */\n      add\n        /* \"#utility.yul\":10156:10182   */\n      mload\n        /* \"#utility.yul\":10214:10262   */\n      tag_198\n        /* \"#utility.yul\":10256:10260   */\n      0x1f\n        /* \"#utility.yul\":10248:10254   */\n      dup10\n        /* \"#utility.yul\":10244:10261   */\n      and\n        /* \"#utility.yul\":10233:10242   */\n      dup3\n        /* \"#utility.yul\":10214:10262   */\n      tag_77\n      jump\t// in\n    tag_198:\n        /* \"#utility.yul\":10206:10212   */\n      dup4\n        /* \"#utility.yul\":10199:10263   */\n      sstore\n        /* \"#utility.yul\":10121:10277   */\n      pop\n        /* \"#utility.yul\":10098:10277   */\n    tag_197:\n        /* \"#utility.yul\":10323:10324   */\n      0x01\n        /* \"#utility.yul\":10319:10320   */\n      0x02\n        /* \"#utility.yul\":10311:10317   */\n      dup9\n        /* \"#utility.yul\":10307:10321   */\n      mul\n        /* \"#utility.yul\":10303:10325   */\n      add\n        /* \"#utility.yul\":10297:10301   */\n      dup9\n        /* \"#utility.yul\":10290:10326   */\n      sstore\n        /* \"#utility.yul\":9725:10336   */\n      pop\n      pop\n      pop\n        /* \"#utility.yul\":9688:10575   */\n    tag_189:\n      pop\n        /* \"#utility.yul\":9278:10581   */\n      pop\n      pop\n      pop\n        /* \"#utility.yul\":9186:10581   */\n      pop\n      pop\n      jump\t// out\n\n    auxdata: 0xa26469706673582212208381b07fbd509d2164ca46361d50f7f6902497ea66841534f8948a838ed49d0364736f6c634300081e0033\n}\n",
				"bytecode": {
					"linkReferences": {},
					"object": "608060405234801561000f575f5ffd5b50604051610d3f380380610d3f833981810160405281019061003191906101d6565b825f908161003f9190610449565b508160018190555080600281905550505050610518565b5f604051905090565b5f5ffd5b5f5ffd5b5f5ffd5b5f5ffd5b5f601f19601f8301169050919050565b7f4e487b71000000000000000000000000000000000000000000000000000000005f52604160045260245ffd5b6100b58261006f565b810181811067ffffffffffffffff821117156100d4576100d361007f565b5b80604052505050565b5f6100e6610056565b90506100f282826100ac565b919050565b5f67ffffffffffffffff8211156101115761011061007f565b5b61011a8261006f565b9050602081019050919050565b8281835e5f83830152505050565b5f610147610142846100f7565b6100dd565b9050828152602081018484840111156101635761016261006b565b5b61016e848285610127565b509392505050565b5f82601f83011261018a57610189610067565b5b815161019a848260208601610135565b91505092915050565b5f819050919050565b6101b5816101a3565b81146101bf575f5ffd5b50565b5f815190506101d0816101ac565b92915050565b5f5f5f606084860312156101ed576101ec61005f565b5b5f84015167ffffffffffffffff81111561020a57610209610063565b5b61021686828701610176565b9350506020610227868287016101c2565b9250506040610238868287016101c2565b9150509250925092565b5f81519050919050565b7f4e487b71000000000000000000000000000000000000000000000000000000005f52602260045260245ffd5b5f600282049050600182168061029057607f821691505b6020821081036102a3576102a261024c565b5b50919050565b5f819050815f5260205f209050919050565b5f6020601f8301049050919050565b5f82821b905092915050565b5f600883026103057fffffffffffffffffffffffffffffffffffffffffffffffffffffffffffffffff826102ca565b61030f86836102ca565b95508019841693508086168417925050509392505050565b5f819050919050565b5f61034a610345610340846101a3565b610327565b6101a3565b9050919050565b5f819050919050565b61036383610330565b61037761036f82610351565b8484546102d6565b825550505050565b5f5f905090565b61038e61037f565b61039981848461035a565b505050565b5b818110156103bc576103b15f82610386565b60018101905061039f565b5050565b601f821115610401576103d2816102a9565b6103db846102bb565b810160208510156103ea578190505b6103fe6103f6856102bb565b83018261039e565b50505b505050565b5f82821c905092915050565b5f6104215f1984600802610406565b1980831691505092915050565b5f6104398383610412565b9150826002028217905092915050565b61045282610242565b67ffffffffffffffff81111561046b5761046a61007f565b5b6104758254610279565b6104808282856103c0565b5f60209050601f8311600181146104b1575f841561049f578287015190505b6104a9858261042e565b865550610510565b601f1984166104bf866102a9565b5f5b828110156104e6578489015182556001820191506020850194506020810190506104c1565b8683101561050357848901516104ff601f891682610412565b8355505b6001600288020188555050505b505050505050565b61081a806105255f395ff3fe608060405234801561000f575f5ffd5b5060043610610055575f3560e01c806306fdde0314610059578063262a9dff14610077578063af640d0f14610095578063e0fb7197146100b3578063fbbf93a0146100cf575b5f5ffd5b6100616100ef565b60405161006e91906102b8565b60405180910390f35b61007f61017a565b60405161008c91906102f0565b60405180910390f35b61009d610180565b6040516100aa91906102f0565b60405180910390f35b6100cd60048036038101906100c89190610470565b610186565b005b6100d76101a8565b6040516100e6939291906104dc565b60405180910390f35b5f80546100fb90610545565b80601f016020809104026020016040519081016040528092919081815260200182805461012790610545565b80156101725780601f1061014957610100808354040283529160200191610172565b820191905f5260205f20905b81548152906001019060200180831161015557829003601f168201915b505050505081565b60015481565b60025481565b825f90816101949190610715565b508160018190555080600281905550505050565b60605f5f5f6001546002548280546101bf90610545565b80601f01602080910402602001604051908101604052809291908181526020018280546101eb90610545565b80156102365780601f1061020d57610100808354040283529160200191610236565b820191905f5260205f20905b81548152906001019060200180831161021957829003601f168201915b50505050509250925092509250909192565b5f81519050919050565b5f82825260208201905092915050565b8281835e5f83830152505050565b5f601f19601f8301169050919050565b5f61028a82610248565b6102948185610252565b93506102a4818560208601610262565b6102ad81610270565b840191505092915050565b5f6020820190508181035f8301526102d08184610280565b905092915050565b5f819050919050565b6102ea816102d8565b82525050565b5f6020820190506103035f8301846102e1565b92915050565b5f604051905090565b5f5ffd5b5f5ffd5b5f5ffd5b5f5ffd5b7f4e487b71000000000000000000000000000000000000000000000000000000005f52604160045260245ffd5b61035882610270565b810181811067ffffffffffffffff8211171561037757610376610322565b5b80604052505050565b5f610389610309565b9050610395828261034f565b919050565b5f67ffffffffffffffff8211156103b4576103b3610322565b5b6103bd82610270565b9050602081019050919050565b828183375f83830152505050565b5f6103ea6103e58461039a565b610380565b9050828152602081018484840111156104065761040561031e565b5b6104118482856103ca565b509392505050565b5f82601f83011261042d5761042c61031a565b5b813561043d8482602086016103d8565b91505092915050565b61044f816102d8565b8114610459575f5ffd5b50565b5f8135905061046a81610446565b92915050565b5f5f5f6060848603121561048757610486610312565b5b5f84013567ffffffffffffffff8111156104a4576104a3610316565b5b6104b086828701610419565b93505060206104c18682870161045c565b92505060406104d28682870161045c565b9150509250925092565b5f6060820190508181035f8301526104f48186610280565b905061050360208301856102e1565b61051060408301846102e1565b949350505050565b7f4e487b71000000000000000000000000000000000000000000000000000000005f52602260045260245ffd5b5f600282049050600182168061055c57607f821691505b60208210810361056f5761056e610518565b5b50919050565b5f819050815f5260205f209050919050565b5f6020601f8301049050919050565b5f82821b905092915050565b5f600883026105d17fffffffffffffffffffffffffffffffffffffffffffffffffffffffffffffffff82610596565b6105db8683610596565b95508019841693508086168417925050509392505050565b5f819050919050565b5f61061661061161060c846102d8565b6105f3565b6102d8565b9050919050565b5f819050919050565b61062f836105fc565b61064361063b8261061d565b8484546105a2565b825550505050565b5f5f905090565b61065a61064b565b610665818484610626565b505050565b5b818110156106885761067d5f82610652565b60018101905061066b565b5050565b601f8211156106cd5761069e81610575565b6106a784610587565b810160208510156106b6578190505b6106ca6106c285610587565b83018261066a565b50505b505050565b5f82821c905092915050565b5f6106ed5f19846008026106d2565b1980831691505092915050565b5f61070583836106de565b9150826002028217905092915050565b61071e82610248565b67ffffffffffffffff81111561073757610736610322565b5b6107418254610545565b61074c82828561068c565b5f60209050601f83116001811461077d575f841561076b578287015190505b61077585826106fa565b8655506107dc565b601f19841661078b86610575565b5f5b828110156107b25784890151825560018201915060208501945060208101905061078d565b868310156107cf57848901516107cb601f8916826106de565b8355505b6001600288020188555050505b50505050505056fea26469706673582212208381b07fbd509d2164ca46361d50f7f6902497ea66841534f8948a838ed49d0364736f6c634300081e0033",
					"opcodes": "PUSH1 0x80 PUSH1 0x40 MSTORE CALLVALUE DUP1 ISZERO PUSH2 0xF JUMPI PUSH0 PUSH0 REVERT JUMPDEST POP PUSH1 0x40 MLOAD PUSH2 0xD3F CODESIZE SUB DUP1 PUSH2 0xD3F DUP4 CODECOPY DUP2 DUP2 ADD PUSH1 0x40 MSTORE DUP2 ADD SWAP1 PUSH2 0x31 SWAP2 SWAP1 PUSH2 0x1D6 JUMP JUMPDEST DUP3 PUSH0 SWAP1 DUP2 PUSH2 0x3F SWAP2 SWAP1 PUSH2 0x449 JUMP JUMPDEST POP DUP2 PUSH1 0x1 DUP2 SWAP1 SSTORE POP DUP1 PUSH1 0x2 DUP2 SWAP1 SSTORE POP POP POP POP PUSH2 0x518 JUMP JUMPDEST PUSH0 PUSH1 0x40 MLOAD SWAP1 POP SWAP1 JUMP JUMPDEST PUSH0 PUSH0 REVERT JUMPDEST PUSH0 PUSH0 REVERT JUMPDEST PUSH0 PUSH0 REVERT JUMPDEST PUSH0 PUSH0 REVERT JUMPDEST PUSH0 PUSH1 0x1F NOT PUSH1 0x1F DUP4 ADD AND SWAP1 POP SWAP2 SWAP1 POP JUMP JUMPDEST PUSH32 0x4E487B7100000000000000000000000000000000000000000000000000000000 PUSH0 MSTORE PUSH1 0x41 PUSH1 0x4 MSTORE PUSH1 0x24 PUSH0 REVERT JUMPDEST PUSH2 0xB5 DUP3 PUSH2 0x6F JUMP JUMPDEST DUP2 ADD DUP2 DUP2 LT PUSH8 0xFFFFFFFFFFFFFFFF DUP3 GT OR ISZERO PUSH2 0xD4 JUMPI PUSH2 0xD3 PUSH2 0x7F JUMP JUMPDEST JUMPDEST DUP1 PUSH1 0x40 MSTORE POP POP POP JUMP JUMPDEST PUSH0 PUSH2 0xE6 PUSH2 0x56 JUMP JUMPDEST SWAP1 POP PUSH2 0xF2 DUP3 DUP3 PUSH2 0xAC JUMP JUMPDEST SWAP2 SWAP1 POP JUMP JUMPDEST PUSH0 PUSH8 0xFFFFFFFFFFFFFFFF DUP3 GT ISZERO PUSH2 0x111 JUMPI PUSH2 0x110 PUSH2 0x7F JUMP JUMPDEST JUMPDEST PUSH2 0x11A DUP3 PUSH2 0x6F JUMP JUMPDEST SWAP1 POP PUSH1 0x20 DUP2 ADD SWAP1 POP SWAP2 SWAP1 POP JUMP JUMPDEST DUP3 DUP2 DUP4 MCOPY PUSH0 DUP4 DUP4 ADD MSTORE POP POP POP JUMP JUMPDEST PUSH0 PUSH2 0x147 PUSH2 0x142 DUP5 PUSH2 0xF7 JUMP JUMPDEST PUSH2 0xDD JUMP JUMPDEST SWAP1 POP DUP3 DUP2 MSTORE PUSH1 0x20 DUP2 ADD DUP5 DUP5 DUP5 ADD GT ISZERO PUSH2 0x163 JUMPI PUSH2 0x162 PUSH2 0x6B JUMP JUMPDEST JUMPDEST PUSH2 0x16E DUP5 DUP3 DUP6 PUSH2 0x127 JUMP JUMPDEST POP SWAP4 SWAP3 POP POP POP JUMP JUMPDEST PUSH0 DUP3 PUSH1 0x1F DUP4 ADD SLT PUSH2 0x18A JUMPI PUSH2 0x189 PUSH2 0x67 JUMP JUMPDEST JUMPDEST DUP2 MLOAD PUSH2 0x19A DUP5 DUP3 PUSH1 0x20 DUP7 ADD PUSH2 0x135 JUMP JUMPDEST SWAP2 POP POP SWAP3 SWAP2 POP POP JUMP JUMPDEST PUSH0 DUP2 SWAP1 POP SWAP2 SWAP1 POP JUMP JUMPDEST PUSH2 0x1B5 DUP2 PUSH2 0x1A3 JUMP JUMPDEST DUP2 EQ PUSH2 0x1BF JUMPI PUSH0 PUSH0 REVERT JUMPDEST POP JUMP JUMPDEST PUSH0 DUP2 MLOAD SWAP1 POP PUSH2 0x1D0 DUP2 PUSH2 0x1AC JUMP JUMPDEST SWAP3 SWAP2 POP POP JUMP JUMPDEST PUSH0 PUSH0 PUSH0 PUSH1 0x60 DUP5 DUP7 SUB SLT ISZERO PUSH2 0x1ED JUMPI PUSH2 0x1EC PUSH2 0x5F JUMP JUMPDEST JUMPDEST PUSH0 DUP5 ADD MLOAD PUSH8 0xFFFFFFFFFFFFFFFF DUP2 GT ISZERO PUSH2 0x20A JUMPI PUSH2 0x209 PUSH2 0x63 JUMP JUMPDEST JUMPDEST PUSH2 0x216 DUP7 DUP3 DUP8 ADD PUSH2 0x176 JUMP JUMPDEST SWAP4 POP POP PUSH1 0x20 PUSH2 0x227 DUP7 DUP3 DUP8 ADD PUSH2 0x1C2 JUMP JUMPDEST SWAP3 POP POP PUSH1 0x40 PUSH2 0x238 DUP7 DUP3 DUP8 ADD PUSH2 0x1C2 JUMP JUMPDEST SWAP2 POP POP SWAP3 POP SWAP3 POP SWAP3 JUMP JUMPDEST PUSH0 DUP2 MLOAD SWAP1 POP SWAP2 SWAP1 POP JUMP JUMPDEST PUSH32 0x4E487B7100000000000000000000000000000000000000000000000000000000 PUSH0 MSTORE PUSH1 0x22 PUSH1 0x4 MSTORE PUSH1 0x24 PUSH0 REVERT JUMPDEST PUSH0 PUSH1 0x2 DUP3 DIV SWAP1 POP PUSH1 0x1 DUP3 AND DUP1 PUSH2 0x290 JUMPI PUSH1 0x7F DUP3 AND SWAP2 POP JUMPDEST PUSH1 0x20 DUP3 LT DUP2 SUB PUSH2 0x2A3 JUMPI PUSH2 0x2A2 PUSH2 0x24C JUMP JUMPDEST JUMPDEST POP SWAP2 SWAP1 POP JUMP JUMPDEST PUSH0 DUP2 SWAP1 POP DUP2 PUSH0 MSTORE PUSH1 0x20 PUSH0 KECCAK256 SWAP1 POP SWAP2 SWAP1 POP JUMP JUMPDEST PUSH0 PUSH1 0x20 PUSH1 0x1F DUP4 ADD DIV SWAP1 POP SWAP2 SWAP1 POP JUMP JUMPDEST PUSH0 DUP3 DUP3 SHL SWAP1 POP SWAP3 SWAP2 POP POP JUMP JUMPDEST PUSH0 PUSH1 0x8 DUP4 MUL PUSH2 0x305 PUSH32 0xFFFFFFFFFFFFFFFFFFFFFFFFFFFFFFFFFFFFFFFFFFFFFFFFFFFFFFFFFFFFFFFF DUP3 PUSH2 0x2CA JUMP JUMPDEST PUSH2 0x30F DUP7 DUP4 PUSH2 0x2CA JUMP JUMPDEST SWAP6 POP DUP1 NOT DUP5 AND SWAP4 POP DUP1 DUP7 AND DUP5 OR SWAP3 POP POP POP SWAP4 SWAP3 POP POP POP JUMP JUMPDEST PUSH0 DUP2 SWAP1 POP SWAP2 SWAP1 POP JUMP JUMPDEST PUSH0 PUSH2 0x34A PUSH2 0x345 PUSH2 0x340 DUP5 PUSH2 0x1A3 JUMP JUMPDEST PUSH2 0x327 JUMP JUMPDEST PUSH2 0x1A3 JUMP JUMPDEST SWAP1 POP SWAP2 SWAP1 POP JUMP JUMPDEST PUSH0 DUP2 SWAP1 POP SWAP2 SWAP1 POP JUMP JUMPDEST PUSH2 0x363 DUP4 PUSH2 0x330 JUMP JUMPDEST PUSH2 0x377 PUSH2 0x36F DUP3 PUSH2 0x351 JUMP JUMPDEST DUP5 DUP5 SLOAD PUSH2 0x2D6 JUMP JUMPDEST DUP3 SSTORE POP POP POP POP JUMP JUMPDEST PUSH0 PUSH0 SWAP1 POP SWAP1 JUMP JUMPDEST PUSH2 0x38E PUSH2 0x37F JUMP JUMPDEST PUSH2 0x399 DUP2 DUP5 DUP5 PUSH2 0x35A JUMP JUMPDEST POP POP POP JUMP JUMPDEST JUMPDEST DUP2 DUP2 LT ISZERO PUSH2 0x3BC JUMPI PUSH2 0x3B1 PUSH0 DUP3 PUSH2 0x386 JUMP JUMPDEST PUSH1 0x1 DUP2 ADD SWAP1 POP PUSH2 0x39F JUMP JUMPDEST POP POP JUMP JUMPDEST PUSH1 0x1F DUP3 GT ISZERO PUSH2 0x401 JUMPI PUSH2 0x3D2 DUP2 PUSH2 0x2A9 JUMP JUMPDEST PUSH2 0x3DB DUP5 PUSH2 0x2BB JUMP JUMPDEST DUP2 ADD PUSH1 0x20 DUP6 LT ISZERO PUSH2 0x3EA JUMPI DUP2 SWAP1 POP JUMPDEST PUSH2 0x3FE PUSH2 0x3F6 DUP6 PUSH2 0x2BB JUMP JUMPDEST DUP4 ADD DUP3 PUSH2 0x39E JUMP JUMPDEST POP POP JUMPDEST POP POP POP JUMP JUMPDEST PUSH0 DUP3 DUP3 SHR SWAP1 POP SWAP3 SWAP2 POP POP JUMP JUMPDEST PUSH0 PUSH2 0x421 PUSH0 NOT DUP5 PUSH1 0x8 MUL PUSH2 0x406 JUMP JUMPDEST NOT DUP1 DUP4 AND SWAP2 POP POP SWAP3 SWAP2 POP POP JUMP JUMPDEST PUSH0 PUSH2 0x439 DUP4 DUP4 PUSH2 0x412 JUMP JUMPDEST SWAP2 POP DUP3 PUSH1 0x2 MUL DUP3 OR SWAP1 POP SWAP3 SWAP2 POP POP JUMP JUMPDEST PUSH2 0x452 DUP3 PUSH2 0x242 JUMP JUMPDEST PUSH8 0xFFFFFFFFFFFFFFFF DUP2 GT ISZERO PUSH2 0x46B JUMPI PUSH2 0x46A PUSH2 0x7F JUMP JUMPDEST JUMPDEST PUSH2 0x475 DUP3 SLOAD PUSH2 0x279 JUMP JUMPDEST PUSH2 0x480 DUP3 DUP3 DUP6 PUSH2 0x3C0 JUMP JUMPDEST PUSH0 PUSH1 0x20 SWAP1 POP PUSH1 0x1F DUP4 GT PUSH1 0x1 DUP2 EQ PUSH2 0x4B1 JUMPI PUSH0 DUP5 ISZERO PUSH2 0x49F JUMPI DUP3 DUP8 ADD MLOAD SWAP1 POP JUMPDEST PUSH2 0x4A9 DUP6 DUP3 PUSH2 0x42E JUMP JUMPDEST DUP7 SSTORE POP PUSH2 0x510 JUMP JUMPDEST PUSH1 0x1F NOT DUP5 AND PUSH2 0x4BF DUP7 PUSH2 0x2A9 JUMP JUMPDEST PUSH0 JUMPDEST DUP3 DUP2 LT ISZERO PUSH2 0x4E6 JUMPI DUP5 DUP10 ADD MLOAD DUP3 SSTORE PUSH1 0x1 DUP3 ADD SWAP2 POP PUSH1 0x20 DUP6 ADD SWAP5 POP PUSH1 0x20 DUP2 ADD SWAP1 POP PUSH2 0x4C1 JUMP JUMPDEST DUP7 DUP4 LT ISZERO PUSH2 0x503 JUMPI DUP5 DUP10 ADD MLOAD PUSH2 0x4FF PUSH1 0x1F DUP10 AND DUP3 PUSH2 0x412 JUMP JUMPDEST DUP4 SSTORE POP JUMPDEST PUSH1 0x1 PUSH1 0x2 DUP9 MUL ADD DUP9 SSTORE POP POP POP JUMPDEST POP POP POP POP POP POP JUMP JUMPDEST PUSH2 0x81A DUP1 PUSH2 0x525 PUSH0 CODECOPY PUSH0 RETURN INVALID PUSH1 0x80 PUSH1 0x40 MSTORE CALLVALUE DUP1 ISZERO PUSH2 0xF JUMPI PUSH0 PUSH0 REVERT JUMPDEST POP PUSH1 0x4 CALLDATASIZE LT PUSH2 0x55 JUMPI PUSH0 CALLDATALOAD PUSH1 0xE0 SHR DUP1 PUSH4 0x6FDDE03 EQ PUSH2 0x59 JUMPI DUP1 PUSH4 0x262A9DFF EQ PUSH2 0x77 JUMPI DUP1 PUSH4 0xAF640D0F EQ PUSH2 0x95 JUMPI DUP1 PUSH4 0xE0FB7197 EQ PUSH2 0xB3 JUMPI DUP1 PUSH4 0xFBBF93A0 EQ PUSH2 0xCF JUMPI JUMPDEST PUSH0 PUSH0 REVERT JUMPDEST PUSH2 0x61 PUSH2 0xEF JUMP JUMPDEST PUSH1 0x40 MLOAD PUSH2 0x6E SWAP2 SWAP1 PUSH2 0x2B8 JUMP JUMPDEST PUSH1 0x40 MLOAD DUP1 SWAP2 SUB SWAP1 RETURN JUMPDEST PUSH2 0x7F PUSH2 0x17A JUMP JUMPDEST PUSH1 0x40 MLOAD PUSH2 0x8C SWAP2 SWAP1 PUSH2 0x2F0 JUMP JUMPDEST PUSH1 0x40 MLOAD DUP1 SWAP2 SUB SWAP1 RETURN JUMPDEST PUSH2 0x9D PUSH2 0x180 JUMP JUMPDEST PUSH1 0x40 MLOAD PUSH2 0xAA SWAP2 SWAP1 PUSH2 0x2F0 JUMP JUMPDEST PUSH1 0x40 MLOAD DUP1 SWAP2 SUB SWAP1 RETURN JUMPDEST PUSH2 0xCD PUSH1 0x4 DUP1 CALLDATASIZE SUB DUP2 ADD SWAP1 PUSH2 0xC8 SWAP2 SWAP1 PUSH2 0x470 JUMP JUMPDEST PUSH2 0x186 JUMP JUMPDEST STOP JUMPDEST PUSH2 0xD7 PUSH2 0x1A8 JUMP JUMPDEST PUSH1 0x40 MLOAD PUSH2 0xE6 SWAP4 SWAP3 SWAP2 SWAP1 PUSH2 0x4DC JUMP JUMPDEST PUSH1 0x40 MLOAD DUP1 SWAP2 SUB SWAP1 RETURN JUMPDEST PUSH0 DUP1 SLOAD PUSH2 0xFB SWAP1 PUSH2 0x545 JUMP JUMPDEST DUP1 PUSH1 0x1F ADD PUSH1 0x20 DUP1 SWAP2 DIV MUL PUSH1 0x20 ADD PUSH1 0x40 MLOAD SWAP1 DUP2 ADD PUSH1 0x40 MSTORE DUP1 SWAP3 SWAP2 SWAP1 DUP2 DUP2 MSTORE PUSH1 0x20 ADD DUP3 DUP1 SLOAD PUSH2 0x127 SWAP1 PUSH2 0x545 JUMP JUMPDEST DUP1 ISZERO PUSH2 0x172 JUMPI DUP1 PUSH1 0x1F LT PUSH2 0x149 JUMPI PUSH2 0x100 DUP1 DUP4 SLOAD DIV MUL DUP4 MSTORE SWAP2 PUSH1 0x20 ADD SWAP2 PUSH2 0x172 JUMP JUMPDEST DUP3 ADD SWAP2 SWAP1 PUSH0 MSTORE PUSH1 0x20 PUSH0 KECCAK256 SWAP1 JUMPDEST DUP2 SLOAD DUP2 MSTORE SWAP1 PUSH1 0x1 ADD SWAP1 PUSH1 0x20 ADD DUP1 DUP4 GT PUSH2 0x155 JUMPI DUP3 SWAP1 SUB PUSH1 0x1F AND DUP3 ADD SWAP2 JUMPDEST POP POP POP POP POP DUP2 JUMP JUMPDEST PUSH1 0x1 SLOAD DUP2 JUMP JUMPDEST PUSH1 0x2 SLOAD DUP2 JUMP JUMPDEST DUP3 PUSH0 SWAP1 DUP2 PUSH2 0x194 SWAP2 SWAP1 PUSH2 0x715 JUMP JUMPDEST POP DUP2 PUSH1 0x1 DUP2 SWAP1 SSTORE POP DUP1 PUSH1 0x2 DUP2 SWAP1 SSTORE POP POP POP POP JUMP JUMPDEST PUSH1 0x60 PUSH0 PUSH0 PUSH0 PUSH1 0x1 SLOAD PUSH1 0x2 SLOAD DUP3 DUP1 SLOAD PUSH2 0x1BF SWAP1 PUSH2 0x545 JUMP JUMPDEST DUP1 PUSH1 0x1F ADD PUSH1 0x20 DUP1 SWAP2 DIV MUL PUSH1 0x20 ADD PUSH1 0x40 MLOAD SWAP1 DUP2 ADD PUSH1 0x40 MSTORE DUP1 SWAP3 SWAP2 SWAP1 DUP2 DUP2 MSTORE PUSH1 0x20 ADD DUP3 DUP1 SLOAD PUSH2 0x1EB SWAP1 PUSH2 0x545 JUMP JUMPDEST DUP1 ISZERO PUSH2 0x236 JUMPI DUP1 PUSH1 0x1F LT PUSH2 0x20D JUMPI PUSH2 0x100 DUP1 DUP4 SLOAD DIV MUL DUP4 MSTORE SWAP2 PUSH1 0x20 ADD SWAP2 PUSH2 0x236 JUMP JUMPDEST DUP3 ADD SWAP2 SWAP1 PUSH0 MSTORE PUSH1 0x20 PUSH0 KECCAK256 SWAP1 JUMPDEST DUP2 SLOAD DUP2 MSTORE SWAP1 PUSH1 0x1 ADD SWAP1 PUSH1 0x20 ADD DUP1 DUP4 GT PUSH2 0x219 JUMPI DUP3 SWAP1 SUB PUSH1 0x1F AND DUP3 ADD SWAP2 JUMPDEST POP POP POP POP POP SWAP3 POP SWAP3 POP SWAP3 POP SWAP3 POP SWAP1 SWAP2 SWAP3 JUMP JUMPDEST PUSH0 DUP2 MLOAD SWAP1 POP SWAP2 SWAP1 POP JUMP JUMPDEST PUSH0 DUP3 DUP3 MSTORE PUSH1 0x20 DUP3 ADD SWAP1 POP SWAP3 SWAP2 POP POP JUMP JUMPDEST DUP3 DUP2 DUP4 MCOPY PUSH0 DUP4 DUP4 ADD MSTORE POP POP POP JUMP JUMPDEST PUSH0 PUSH1 0x1F NOT PUSH1 0x1F DUP4 ADD AND SWAP1 POP SWAP2 SWAP1 POP JUMP JUMPDEST PUSH0 PUSH2 0x28A DUP3 PUSH2 0x248 JUMP JUMPDEST PUSH2 0x294 DUP2 DUP6 PUSH2 0x252 JUMP JUMPDEST SWAP4 POP PUSH2 0x2A4 DUP2 DUP6 PUSH1 0x20 DUP7 ADD PUSH2 0x262 JUMP JUMPDEST PUSH2 0x2AD DUP2 PUSH2 0x270 JUMP JUMPDEST DUP5 ADD SWAP2 POP POP SWAP3 SWAP2 POP POP JUMP JUMPDEST PUSH0 PUSH1 0x20 DUP3 ADD SWAP1 POP DUP2 DUP2 SUB PUSH0 DUP4 ADD MSTORE PUSH2 0x2D0 DUP2 DUP5 PUSH2 0x280 JUMP JUMPDEST SWAP1 POP SWAP3 SWAP2 POP POP JUMP JUMPDEST PUSH0 DUP2 SWAP1 POP SWAP2 SWAP1 POP JUMP JUMPDEST PUSH2 0x2EA DUP2 PUSH2 0x2D8 JUMP JUMPDEST DUP3 MSTORE POP POP JUMP JUMPDEST PUSH0 PUSH1 0x20 DUP3 ADD SWAP1 POP PUSH2 0x303 PUSH0 DUP4 ADD DUP5 PUSH2 0x2E1 JUMP JUMPDEST SWAP3 SWAP2 POP POP JUMP JUMPDEST PUSH0 PUSH1 0x40 MLOAD SWAP1 POP SWAP1 JUMP JUMPDEST PUSH0 PUSH0 REVERT JUMPDEST PUSH0 PUSH0 REVERT JUMPDEST PUSH0 PUSH0 REVERT JUMPDEST PUSH0 PUSH0 REVERT JUMPDEST PUSH32 0x4E487B7100000000000000000000000000000000000000000000000000000000 PUSH0 MSTORE PUSH1 0x41 PUSH1 0x4 MSTORE PUSH1 0x24 PUSH0 REVERT JUMPDEST PUSH2 0x358 DUP3 PUSH2 0x270 JUMP JUMPDEST DUP2 ADD DUP2 DUP2 LT PUSH8 0xFFFFFFFFFFFFFFFF DUP3 GT OR ISZERO PUSH2 0x377 JUMPI PUSH2 0x376 PUSH2 0x322 JUMP JUMPDEST JUMPDEST DUP1 PUSH1 0x40 MSTORE POP POP POP JUMP JUMPDEST PUSH0 PUSH2 0x389 PUSH2 0x309 JUMP JUMPDEST SWAP1 POP PUSH2 0x395 DUP3 DUP3 PUSH2 0x34F JUMP JUMPDEST SWAP2 SWAP1 POP JUMP JUMPDEST PUSH0 PUSH8 0xFFFFFFFFFFFFFFFF DUP3 GT ISZERO PUSH2 0x3B4 JUMPI PUSH2 0x3B3 PUSH2 0x322 JUMP JUMPDEST JUMPDEST PUSH2 0x3BD DUP3 PUSH2 0x270 JUMP JUMPDEST SWAP1 POP PUSH1 0x20 DUP2 ADD SWAP1 POP SWAP2 SWAP1 POP JUMP JUMPDEST DUP3 DUP2 DUP4 CALLDATACOPY PUSH0 DUP4 DUP4 ADD MSTORE POP POP POP JUMP JUMPDEST PUSH0 PUSH2 0x3EA PUSH2 0x3E5 DUP5 PUSH2 0x39A JUMP JUMPDEST PUSH2 0x380 JUMP JUMPDEST SWAP1 POP DUP3 DUP2 MSTORE PUSH1 0x20 DUP2 ADD DUP5 DUP5 DUP5 ADD GT ISZERO PUSH2 0x406 JUMPI PUSH2 0x405 PUSH2 0x31E JUMP JUMPDEST JUMPDEST PUSH2 0x411 DUP5 DUP3 DUP6 PUSH2 0x3CA JUMP JUMPDEST POP SWAP4 SWAP3 POP POP POP JUMP JUMPDEST PUSH0 DUP3 PUSH1 0x1F DUP4 ADD SLT PUSH2 0x42D JUMPI PUSH2 0x42C PUSH2 0x31A JUMP JUMPDEST JUMPDEST DUP2 CALLDATALOAD PUSH2 0x43D DUP5 DUP3 PUSH1 0x20 DUP7 ADD PUSH2 0x3D8 JUMP JUMPDEST SWAP2 POP POP SWAP3 SWAP2 POP POP JUMP JUMPDEST PUSH2 0x44F DUP2 PUSH2 0x2D8 JUMP JUMPDEST DUP2 EQ PUSH2 0x459 JUMPI PUSH0 PUSH0 REVERT JUMPDEST POP JUMP JUMPDEST PUSH0 DUP2 CALLDATALOAD SWAP1 POP PUSH2 0x46A DUP2 PUSH2 0x446 JUMP JUMPDEST SWAP3 SWAP2 POP POP JUMP JUMPDEST PUSH0 PUSH0 PUSH0 PUSH1 0x60 DUP5 DUP7 SUB SLT ISZERO PUSH2 0x487 JUMPI PUSH2 0x486 PUSH2 0x312 JUMP JUMPDEST JUMPDEST PUSH0 DUP5 ADD CALLDATALOAD PUSH8 0xFFFFFFFFFFFFFFFF DUP2 GT ISZERO PUSH2 0x4A4 JUMPI PUSH2 0x4A3 PUSH2 0x316 JUMP JUMPDEST JUMPDEST PUSH2 0x4B0 DUP7 DUP3 DUP8 ADD PUSH2 0x419 JUMP JUMPDEST SWAP4 POP POP PUSH1 0x20 PUSH2 0x4C1 DUP7 DUP3 DUP8 ADD PUSH2 0x45C JUMP JUMPDEST SWAP3 POP POP PUSH1 0x40 PUSH2 0x4D2 DUP7 DUP3 DUP8 ADD PUSH2 0x45C JUMP JUMPDEST SWAP2 POP POP SWAP3 POP SWAP3 POP SWAP3 JUMP JUMPDEST PUSH0 PUSH1 0x60 DUP3 ADD SWAP1 POP DUP2 DUP2 SUB PUSH0 DUP4 ADD MSTORE PUSH2 0x4F4 DUP2 DUP7 PUSH2 0x280 JUMP JUMPDEST SWAP1 POP PUSH2 0x503 PUSH1 0x20 DUP4 ADD DUP6 PUSH2 0x2E1 JUMP JUMPDEST PUSH2 0x510 PUSH1 0x40 DUP4 ADD DUP5 PUSH2 0x2E1 JUMP JUMPDEST SWAP5 SWAP4 POP POP POP POP JUMP JUMPDEST PUSH32 0x4E487B7100000000000000000000000000000000000000000000000000000000 PUSH0 MSTORE PUSH1 0x22 PUSH1 0x4 MSTORE PUSH1 0x24 PUSH0 REVERT JUMPDEST PUSH0 PUSH1 0x2 DUP3 DIV SWAP1 POP PUSH1 0x1 DUP3 AND DUP1 PUSH2 0x55C JUMPI PUSH1 0x7F DUP3 AND SWAP2 POP JUMPDEST PUSH1 0x20 DUP3 LT DUP2 SUB PUSH2 0x56F JUMPI PUSH2 0x56E PUSH2 0x518 JUMP JUMPDEST JUMPDEST POP SWAP2 SWAP1 POP JUMP JUMPDEST PUSH0 DUP2 SWAP1 POP DUP2 PUSH0 MSTORE PUSH1 0x20 PUSH0 KECCAK256 SWAP1 POP SWAP2 SWAP1 POP JUMP JUMPDEST PUSH0 PUSH1 0x20 PUSH1 0x1F DUP4 ADD DIV SWAP1 POP SWAP2 SWAP1 POP JUMP JUMPDEST PUSH0 DUP3 DUP3 SHL SWAP1 POP SWAP3 SWAP2 POP POP JUMP JUMPDEST PUSH0 PUSH1 0x8 DUP4 MUL PUSH2 0x5D1 PUSH32 0xFFFFFFFFFFFFFFFFFFFFFFFFFFFFFFFFFFFFFFFFFFFFFFFFFFFFFFFFFFFFFFFF DUP3 PUSH2 0x596 JUMP JUMPDEST PUSH2 0x5DB DUP7 DUP4 PUSH2 0x596 JUMP JUMPDEST SWAP6 POP DUP1 NOT DUP5 AND SWAP4 POP DUP1 DUP7 AND DUP5 OR SWAP3 POP POP POP SWAP4 SWAP3 POP POP POP JUMP JUMPDEST PUSH0 DUP2 SWAP1 POP SWAP2 SWAP1 POP JUMP JUMPDEST PUSH0 PUSH2 0x616 PUSH2 0x611 PUSH2 0x60C DUP5 PUSH2 0x2D8 JUMP JUMPDEST PUSH2 0x5F3 JUMP JUMPDEST PUSH2 0x2D8 JUMP JUMPDEST SWAP1 POP SWAP2 SWAP1 POP JUMP JUMPDEST PUSH0 DUP2 SWAP1 POP SWAP2 SWAP1 POP JUMP JUMPDEST PUSH2 0x62F DUP4 PUSH2 0x5FC JUMP JUMPDEST PUSH2 0x643 PUSH2 0x63B DUP3 PUSH2 0x61D JUMP JUMPDEST DUP5 DUP5 SLOAD PUSH2 0x5A2 JUMP JUMPDEST DUP3 SSTORE POP POP POP POP JUMP JUMPDEST PUSH0 PUSH0 SWAP1 POP SWAP1 JUMP JUMPDEST PUSH2 0x65A PUSH2 0x64B JUMP JUMPDEST PUSH2 0x665 DUP2 DUP5 DUP5 PUSH2 0x626 JUMP JUMPDEST POP POP POP JUMP JUMPDEST JUMPDEST DUP2 DUP2 LT ISZERO PUSH2 0x688 JUMPI PUSH2 0x67D PUSH0 DUP3 PUSH2 0x652 JUMP JUMPDEST PUSH1 0x1 DUP2 ADD SWAP1 POP PUSH2 0x66B JUMP JUMPDEST POP POP JUMP JUMPDEST PUSH1 0x1F DUP3 GT ISZERO PUSH2 0x6CD JUMPI PUSH2 0x69E DUP2 PUSH2 0x575 JUMP JUMPDEST PUSH2 0x6A7 DUP5 PUSH2 0x587 JUMP JUMPDEST DUP2 ADD PUSH1 0x20 DUP6 LT ISZERO PUSH2 0x6B6 JUMPI DUP2 SWAP1 POP JUMPDEST PUSH2 0x6CA PUSH2 0x6C2 DUP6 PUSH2 0x587 JUMP JUMPDEST DUP4 ADD DUP3 PUSH2 0x66A JUMP JUMPDEST POP POP JUMPDEST POP POP POP JUMP JUMPDEST PUSH0 DUP3 DUP3 SHR SWAP1 POP SWAP3 SWAP2 POP POP JUMP JUMPDEST PUSH0 PUSH2 0x6ED PUSH0 NOT DUP5 PUSH1 0x8 MUL PUSH2 0x6D2 JUMP JUMPDEST NOT DUP1 DUP4 AND SWAP2 POP POP SWAP3 SWAP2 POP POP JUMP JUMPDEST PUSH0 PUSH2 0x705 DUP4 DUP4 PUSH2 0x6DE JUMP JUMPDEST SWAP2 POP DUP3 PUSH1 0x2 MUL DUP3 OR SWAP1 POP SWAP3 SWAP2 POP POP JUMP JUMPDEST PUSH2 0x71E DUP3 PUSH2 0x248 JUMP JUMPDEST PUSH8 0xFFFFFFFFFFFFFFFF DUP2 GT ISZERO PUSH2 0x737 JUMPI PUSH2 0x736 PUSH2 0x322 JUMP JUMPDEST JUMPDEST PUSH2 0x741 DUP3 SLOAD PUSH2 0x545 JUMP JUMPDEST PUSH2 0x74C DUP3 DUP3 DUP6 PUSH2 0x68C JUMP JUMPDEST PUSH0 PUSH1 0x20 SWAP1 POP PUSH1 0x1F DUP4 GT PUSH1 0x1 DUP2 EQ PUSH2 0x77D JUMPI PUSH0 DUP5 ISZERO PUSH2 0x76B JUMPI DUP3 DUP8 ADD MLOAD SWAP1 POP JUMPDEST PUSH2 0x775 DUP6 DUP3 PUSH2 0x6FA JUMP JUMPDEST DUP7 SSTORE POP PUSH2 0x7DC JUMP JUMPDEST PUSH1 0x1F NOT DUP5 AND PUSH2 0x78B DUP7 PUSH2 0x575 JUMP JUMPDEST PUSH0 JUMPDEST DUP3 DUP2 LT ISZERO PUSH2 0x7B2 JUMPI DUP5 DUP10 ADD MLOAD DUP3 SSTORE PUSH1 0x1 DUP3 ADD SWAP2 POP PUSH1 0x20 DUP6 ADD SWAP5 POP PUSH1 0x20 DUP2 ADD SWAP1 POP PUSH2 0x78D JUMP JUMPDEST DUP7 DUP4 LT ISZERO PUSH2 0x7CF JUMPI DUP5 DUP10 ADD MLOAD PUSH2 0x7CB PUSH1 0x1F DUP10 AND DUP3 PUSH2 0x6DE JUMP JUMPDEST DUP4 SSTORE POP JUMPDEST PUSH1 0x1 PUSH1 0x2 DUP9 MUL ADD DUP9 SSTORE POP POP POP JUMPDEST POP POP POP POP POP POP JUMP INVALID LOG2 PUSH5 0x6970667358 0x22 SLT KECCAK256 DUP4 DUP2 0xB0 PUSH32 0xBD509D2164CA46361D50F7F6902497EA66841534F8948A838ED49D0364736F6C PUSH4 0x4300081E STOP CALLER "
				},
				"gasEstimates": {
					"creation": {
						"codeDepositCost": "414800",
						"executionCost": "infinite",
						"totalCost": "infinite"
					},
					"external": {
						"age()": "2425",
						"getDetails()": "infinite",
						"id()": "2447",
						"name()": "infinite",
						"updateDetails(string,uint256,uint256)": "infinite"
					}
				},
				"methodIdentifiers": {
					"age()": "262a9dff",
					"getDetails()": "fbbf93a0",
					"id()": "af640d0f",
					"name()": "06fdde03",
					"updateDetails(string,uint256,uint256)": "e0fb7197"
				}
			},
			"storageLayout": {
				"storage": [
					{
						"astId": 3,
						"contract": "contracts/10.3.constructor.sol:Student",
						"label": "name",
						"offset": 0,
						"slot": "0",
						"type": "t_string_storage"
					},
					{
						"astId": 5,
						"contract": "contracts/10.3.constructor.sol:Student",
						"label": "age",
						"offset": 0,
						"slot": "1",
						"type": "t_uint256"
					},
					{
						"astId": 7,
						"contract": "contracts/10.3.constructor.sol:Student",
						"label": "id",
						"offset": 0,
						"slot": "2",
						"type": "t_uint256"
					}
				],
				"types": {
					"t_string_storage": {
						"encoding": "bytes",
						"label": "string",
						"numberOfBytes": "32"
					},
					"t_uint256": {
						"encoding": "inplace",
						"label": "uint256",
						"numberOfBytes": "32"
					}
				}
			},
			"userdoc": {
				"kind": "user",
				"methods": {},
				"version": 1
			}
		}
	}
}