{
	"contracts/externelLibrary/libraryTypedStaticCallContract/MyContract.sol": {
		"MyContract": {
			"abi": [
				{
					"inputs": [
						{
							"internalType": "uint256",
							"name": "a",
							"type": "uint256"
						},
						{
							"internalType": "uint256",
							"name": "b",
							"type": "uint256"
						}
					],
					"name": "useAdd",
					"outputs": [
						{
							"internalType": "uint256",
							"name": "",
							"type": "uint256"
						}
					],
					"stateMutability": "view",
					"type": "function"
				},
				{
					"inputs": [
						{
							"internalType": "uint256",
							"name": "a",
							"type": "uint256"
						},
						{
							"internalType": "uint256",
							"name": "b",
							"type": "uint256"
						}
					],
					"name": "useMul",
					"outputs": [
						{
							"internalType": "uint256",
							"name": "",
							"type": "uint256"
						}
					],
					"stateMutability": "view",
					"type": "function"
				}
			],
			"devdoc": {
				"kind": "dev",
				"methods": {},
				"version": 1
			},
			"evm": {
				"assembly": "    /* \"contracts/externelLibrary/libraryTypedStaticCallContract/MyContract.sol\":60:1008  contract MyContract {... */\n  mstore(0x40, 0x80)\n  callvalue\n  dup1\n  iszero\n  tag_1\n  jumpi\n  revert(0x00, 0x00)\ntag_1:\n  pop\n  dataSize(sub_0)\n  dup1\n  dataOffset(sub_0)\n  0x00\n  codecopy\n  0x00\n  return\nstop\n\nsub_0: assembly {\n        /* \"contracts/externelLibrary/libraryTypedStaticCallContract/MyContract.sol\":60:1008  contract MyContract {... */\n      mstore(0x40, 0x80)\n      callvalue\n      dup1\n      iszero\n      tag_1\n      jumpi\n      revert(0x00, 0x00)\n    tag_1:\n      pop\n      jumpi(tag_2, lt(calldatasize, 0x04))\n      shr(0xe0, calldataload(0x00))\n      dup1\n      0x99bd125f\n      eq\n      tag_3\n      jumpi\n      dup1\n      0xb3b087ca\n      eq\n      tag_4\n      jumpi\n    tag_2:\n      revert(0x00, 0x00)\n        /* \"contracts/externelLibrary/libraryTypedStaticCallContract/MyContract.sol\":248:598  function useAdd(uint256 a, uint256 b) public view returns (uint256) {... */\n    tag_3:\n      tag_5\n      0x04\n      dup1\n      calldatasize\n      sub\n      dup2\n      add\n      swap1\n      tag_6\n      swap2\n      swap1\n      tag_7\n      jump\t// in\n    tag_6:\n      tag_8\n      jump\t// in\n    tag_5:\n      mload(0x40)\n      tag_9\n      swap2\n      swap1\n      tag_10\n      jump\t// in\n    tag_9:\n      mload(0x40)\n      dup1\n      swap2\n      sub\n      swap1\n      return\n        /* \"contracts/externelLibrary/libraryTypedStaticCallContract/MyContract.sol\":606:956  function useMul(uint256 a, uint256 b) public view returns (uint256) {... */\n    tag_4:\n      tag_11\n      0x04\n      dup1\n      calldatasize\n      sub\n      dup2\n      add\n      swap1\n      tag_12\n      swap2\n      swap1\n      tag_7\n      jump\t// in\n    tag_12:\n      tag_13\n      jump\t// in\n    tag_11:\n      mload(0x40)\n      tag_14\n      swap2\n      swap1\n      tag_10\n      jump\t// in\n    tag_14:\n      mload(0x40)\n      dup1\n      swap2\n      sub\n      swap1\n      return\n        /* \"contracts/externelLibrary/libraryTypedStaticCallContract/MyContract.sol\":248:598  function useAdd(uint256 a, uint256 b) public view returns (uint256) {... */\n    tag_8:\n        /* \"contracts/externelLibrary/libraryTypedStaticCallContract/MyContract.sol\":307:314  uint256 */\n      0x00\n        /* \"contracts/externelLibrary/libraryTypedStaticCallContract/MyContract.sol\":328:340  bool success */\n      0x00\n        /* \"contracts/externelLibrary/libraryTypedStaticCallContract/MyContract.sol\":342:365  bytes memory returnData */\n      0x00\n        /* \"contracts/externelLibrary/libraryTypedStaticCallContract/MyContract.sol\":197:239  0x08453E0787F0399eD9f1BD16CeEc37D23F230430 */\n      0x08453e0787f0399ed9f1bd16ceec37d23f230430\n        /* \"contracts/externelLibrary/libraryTypedStaticCallContract/MyContract.sol\":369:401  MATH_CONTRACT_ADDRESS.staticcall */\n      0xffffffffffffffffffffffffffffffffffffffff\n      and\n        /* \"contracts/externelLibrary/libraryTypedStaticCallContract/MyContract.sol\":464:465  a */\n      dup6\n        /* \"contracts/externelLibrary/libraryTypedStaticCallContract/MyContract.sol\":467:468  b */\n      dup6\n        /* \"contracts/externelLibrary/libraryTypedStaticCallContract/MyContract.sol\":416:469  abi.encodeWithSignature(\"add(uint256,uint256)\", a, b) */\n      add(0x24, mload(0x40))\n      tag_16\n      swap3\n      swap2\n      swap1\n      tag_17\n      jump\t// in\n    tag_16:\n      mload(0x40)\n      0x20\n      dup2\n      dup4\n      sub\n      sub\n      dup2\n      mstore\n      swap1\n      0x40\n      mstore\n      and(not(0xffffffffffffffffffffffffffffffffffffffffffffffffffffffff), 0x771602f700000000000000000000000000000000000000000000000000000000)\n      0x20\n      dup3\n      add\n      dup1\n      mload\n      0xffffffffffffffffffffffffffffffffffffffffffffffffffffffff\n      dup4\n      dup2\n      dup4\n      and\n      or\n      dup4\n      mstore\n      pop\n      pop\n      pop\n      pop\n        /* \"contracts/externelLibrary/libraryTypedStaticCallContract/MyContract.sol\":369:480  MATH_CONTRACT_ADDRESS.staticcall(... */\n      mload(0x40)\n      tag_18\n      swap2\n      swap1\n      tag_19\n      jump\t// in\n    tag_18:\n      0x00\n      mload(0x40)\n      dup1\n      dup4\n      sub\n      dup2\n      dup6\n      gas\n      staticcall\n      swap2\n      pop\n      pop\n      returndatasize\n      dup1\n      0x00\n      dup2\n      eq\n      tag_22\n      jumpi\n      mload(0x40)\n      swap2\n      pop\n      and(add(returndatasize, 0x3f), not(0x1f))\n      dup3\n      add\n      0x40\n      mstore\n      returndatasize\n      dup3\n      mstore\n      returndatasize\n      0x00\n      0x20\n      dup5\n      add\n      returndatacopy\n      jump(tag_21)\n    tag_22:\n      0x60\n      swap2\n      pop\n    tag_21:\n      pop\n        /* \"contracts/externelLibrary/libraryTypedStaticCallContract/MyContract.sol\":327:480  (bool success, bytes memory returnData) = MATH_CONTRACT_ADDRESS.staticcall(... */\n      swap2\n      pop\n      swap2\n      pop\n        /* \"contracts/externelLibrary/libraryTypedStaticCallContract/MyContract.sol\":501:508  success */\n      dup2\n        /* \"contracts/externelLibrary/libraryTypedStaticCallContract/MyContract.sol\":493:539  require(success, \"Staticcall to add() failed\") */\n      tag_23\n      jumpi\n      mload(0x40)\n      0x08c379a000000000000000000000000000000000000000000000000000000000\n      dup2\n      mstore\n      0x04\n      add\n      tag_24\n      swap1\n      tag_25\n      jump\t// in\n    tag_24:\n      mload(0x40)\n      dup1\n      swap2\n      sub\n      swap1\n      revert\n    tag_23:\n        /* \"contracts/externelLibrary/libraryTypedStaticCallContract/MyContract.sol\":568:578  returnData */\n      dup1\n        /* \"contracts/externelLibrary/libraryTypedStaticCallContract/MyContract.sol\":557:590  abi.decode(returnData, (uint256)) */\n      dup1\n      0x20\n      add\n      swap1\n      mload\n      dup2\n      add\n      swap1\n      tag_26\n      swap2\n      swap1\n      tag_27\n      jump\t// in\n    tag_26:\n        /* \"contracts/externelLibrary/libraryTypedStaticCallContract/MyContract.sol\":550:590  return abi.decode(returnData, (uint256)) */\n      swap3\n      pop\n      pop\n      pop\n        /* \"contracts/externelLibrary/libraryTypedStaticCallContract/MyContract.sol\":248:598  function useAdd(uint256 a, uint256 b) public view returns (uint256) {... */\n      swap3\n      swap2\n      pop\n      pop\n      jump\t// out\n        /* \"contracts/externelLibrary/libraryTypedStaticCallContract/MyContract.sol\":606:956  function useMul(uint256 a, uint256 b) public view returns (uint256) {... */\n    tag_13:\n        /* \"contracts/externelLibrary/libraryTypedStaticCallContract/MyContract.sol\":665:672  uint256 */\n      0x00\n        /* \"contracts/externelLibrary/libraryTypedStaticCallContract/MyContract.sol\":686:698  bool success */\n      0x00\n        /* \"contracts/externelLibrary/libraryTypedStaticCallContract/MyContract.sol\":700:723  bytes memory returnData */\n      0x00\n        /* \"contracts/externelLibrary/libraryTypedStaticCallContract/MyContract.sol\":197:239  0x08453E0787F0399eD9f1BD16CeEc37D23F230430 */\n      0x08453e0787f0399ed9f1bd16ceec37d23f230430\n        /* \"contracts/externelLibrary/libraryTypedStaticCallContract/MyContract.sol\":727:759  MATH_CONTRACT_ADDRESS.staticcall */\n      0xffffffffffffffffffffffffffffffffffffffff\n      and\n        /* \"contracts/externelLibrary/libraryTypedStaticCallContract/MyContract.sol\":822:823  a */\n      dup6\n        /* \"contracts/externelLibrary/libraryTypedStaticCallContract/MyContract.sol\":825:826  b */\n      dup6\n        /* \"contracts/externelLibrary/libraryTypedStaticCallContract/MyContract.sol\":774:827  abi.encodeWithSignature(\"mul(uint256,uint256)\", a, b) */\n      add(0x24, mload(0x40))\n      tag_29\n      swap3\n      swap2\n      swap1\n      tag_17\n      jump\t// in\n    tag_29:\n      mload(0x40)\n      0x20\n      dup2\n      dup4\n      sub\n      sub\n      dup2\n      mstore\n      swap1\n      0x40\n      mstore\n      and(not(0xffffffffffffffffffffffffffffffffffffffffffffffffffffffff), 0xc8a4ac9c00000000000000000000000000000000000000000000000000000000)\n      0x20\n      dup3\n      add\n      dup1\n      mload\n      0xffffffffffffffffffffffffffffffffffffffffffffffffffffffff\n      dup4\n      dup2\n      dup4\n      and\n      or\n      dup4\n      mstore\n      pop\n      pop\n      pop\n      pop\n        /* \"contracts/externelLibrary/libraryTypedStaticCallContract/MyContract.sol\":727:838  MATH_CONTRACT_ADDRESS.staticcall(... */\n      mload(0x40)\n      tag_30\n      swap2\n      swap1\n      tag_19\n      jump\t// in\n    tag_30:\n      0x00\n      mload(0x40)\n      dup1\n      dup4\n      sub\n      dup2\n      dup6\n      gas\n      staticcall\n      swap2\n      pop\n      pop\n      returndatasize\n      dup1\n      0x00\n      dup2\n      eq\n      tag_33\n      jumpi\n      mload(0x40)\n      swap2\n      pop\n      and(add(returndatasize, 0x3f), not(0x1f))\n      dup3\n      add\n      0x40\n      mstore\n      returndatasize\n      dup3\n      mstore\n      returndatasize\n      0x00\n      0x20\n      dup5\n      add\n      returndatacopy\n      jump(tag_32)\n    tag_33:\n      0x60\n      swap2\n      pop\n    tag_32:\n      pop\n        /* \"contracts/externelLibrary/libraryTypedStaticCallContract/MyContract.sol\":685:838  (bool success, bytes memory returnData) = MATH_CONTRACT_ADDRESS.staticcall(... */\n      swap2\n      pop\n      swap2\n      pop\n        /* \"contracts/externelLibrary/libraryTypedStaticCallContract/MyContract.sol\":859:866  success */\n      dup2\n        /* \"contracts/externelLibrary/libraryTypedStaticCallContract/MyContract.sol\":851:897  require(success, \"Staticcall to mul() failed\") */\n      tag_34\n      jumpi\n      mload(0x40)\n      0x08c379a000000000000000000000000000000000000000000000000000000000\n      dup2\n      mstore\n      0x04\n      add\n      tag_35\n      swap1\n      tag_36\n      jump\t// in\n    tag_35:\n      mload(0x40)\n      dup1\n      swap2\n      sub\n      swap1\n      revert\n    tag_34:\n        /* \"contracts/externelLibrary/libraryTypedStaticCallContract/MyContract.sol\":926:936  returnData */\n      dup1\n        /* \"contracts/externelLibrary/libraryTypedStaticCallContract/MyContract.sol\":915:948  abi.decode(returnData, (uint256)) */\n      dup1\n      0x20\n      add\n      swap1\n      mload\n      dup2\n      add\n      swap1\n      tag_37\n      swap2\n      swap1\n      tag_27\n      jump\t// in\n    tag_37:\n        /* \"contracts/externelLibrary/libraryTypedStaticCallContract/MyContract.sol\":908:948  return abi.decode(returnData, (uint256)) */\n      swap3\n      pop\n      pop\n      pop\n        /* \"contracts/externelLibrary/libraryTypedStaticCallContract/MyContract.sol\":606:956  function useMul(uint256 a, uint256 b) public view returns (uint256) {... */\n      swap3\n      swap2\n      pop\n      pop\n      jump\t// out\n        /* \"#utility.yul\":88:205   */\n    tag_39:\n        /* \"#utility.yul\":197:198   */\n      0x00\n        /* \"#utility.yul\":194:195   */\n      0x00\n        /* \"#utility.yul\":187:199   */\n      revert\n        /* \"#utility.yul\":334:411   */\n    tag_41:\n        /* \"#utility.yul\":371:378   */\n      0x00\n        /* \"#utility.yul\":400:405   */\n      dup2\n        /* \"#utility.yul\":389:405   */\n      swap1\n      pop\n        /* \"#utility.yul\":334:411   */\n      swap2\n      swap1\n      pop\n      jump\t// out\n        /* \"#utility.yul\":417:539   */\n    tag_42:\n        /* \"#utility.yul\":490:514   */\n      tag_61\n        /* \"#utility.yul\":508:513   */\n      dup2\n        /* \"#utility.yul\":490:514   */\n      tag_41\n      jump\t// in\n    tag_61:\n        /* \"#utility.yul\":483:488   */\n      dup2\n        /* \"#utility.yul\":480:515   */\n      eq\n        /* \"#utility.yul\":470:533   */\n      tag_62\n      jumpi\n        /* \"#utility.yul\":529:530   */\n      0x00\n        /* \"#utility.yul\":526:527   */\n      0x00\n        /* \"#utility.yul\":519:531   */\n      revert\n        /* \"#utility.yul\":470:533   */\n    tag_62:\n        /* \"#utility.yul\":417:539   */\n      pop\n      jump\t// out\n        /* \"#utility.yul\":545:684   */\n    tag_43:\n        /* \"#utility.yul\":591:596   */\n      0x00\n        /* \"#utility.yul\":629:635   */\n      dup2\n        /* \"#utility.yul\":616:636   */\n      calldataload\n        /* \"#utility.yul\":607:636   */\n      swap1\n      pop\n        /* \"#utility.yul\":645:678   */\n      tag_64\n        /* \"#utility.yul\":672:677   */\n      dup2\n        /* \"#utility.yul\":645:678   */\n      tag_42\n      jump\t// in\n    tag_64:\n        /* \"#utility.yul\":545:684   */\n      swap3\n      swap2\n      pop\n      pop\n      jump\t// out\n        /* \"#utility.yul\":690:1164   */\n    tag_7:\n        /* \"#utility.yul\":758:764   */\n      0x00\n        /* \"#utility.yul\":766:772   */\n      0x00\n        /* \"#utility.yul\":815:817   */\n      0x40\n        /* \"#utility.yul\":803:812   */\n      dup4\n        /* \"#utility.yul\":794:801   */\n      dup6\n        /* \"#utility.yul\":790:813   */\n      sub\n        /* \"#utility.yul\":786:818   */\n      slt\n        /* \"#utility.yul\":783:902   */\n      iszero\n      tag_66\n      jumpi\n        /* \"#utility.yul\":821:900   */\n      tag_67\n      tag_39\n      jump\t// in\n    tag_67:\n        /* \"#utility.yul\":783:902   */\n    tag_66:\n        /* \"#utility.yul\":941:942   */\n      0x00\n        /* \"#utility.yul\":966:1019   */\n      tag_68\n        /* \"#utility.yul\":1011:1018   */\n      dup6\n        /* \"#utility.yul\":1002:1008   */\n      dup3\n        /* \"#utility.yul\":991:1000   */\n      dup7\n        /* \"#utility.yul\":987:1009   */\n      add\n        /* \"#utility.yul\":966:1019   */\n      tag_43\n      jump\t// in\n    tag_68:\n        /* \"#utility.yul\":956:1019   */\n      swap3\n      pop\n        /* \"#utility.yul\":912:1029   */\n      pop\n        /* \"#utility.yul\":1068:1070   */\n      0x20\n        /* \"#utility.yul\":1094:1147   */\n      tag_69\n        /* \"#utility.yul\":1139:1146   */\n      dup6\n        /* \"#utility.yul\":1130:1136   */\n      dup3\n        /* \"#utility.yul\":1119:1128   */\n      dup7\n        /* \"#utility.yul\":1115:1137   */\n      add\n        /* \"#utility.yul\":1094:1147   */\n      tag_43\n      jump\t// in\n    tag_69:\n        /* \"#utility.yul\":1084:1147   */\n      swap2\n      pop\n        /* \"#utility.yul\":1039:1157   */\n      pop\n        /* \"#utility.yul\":690:1164   */\n      swap3\n      pop\n      swap3\n      swap1\n      pop\n      jump\t// out\n        /* \"#utility.yul\":1170:1288   */\n    tag_44:\n        /* \"#utility.yul\":1257:1281   */\n      tag_71\n        /* \"#utility.yul\":1275:1280   */\n      dup2\n        /* \"#utility.yul\":1257:1281   */\n      tag_41\n      jump\t// in\n    tag_71:\n        /* \"#utility.yul\":1252:1255   */\n      dup3\n        /* \"#utility.yul\":1245:1282   */\n      mstore\n        /* \"#utility.yul\":1170:1288   */\n      pop\n      pop\n      jump\t// out\n        /* \"#utility.yul\":1294:1516   */\n    tag_10:\n        /* \"#utility.yul\":1387:1391   */\n      0x00\n        /* \"#utility.yul\":1425:1427   */\n      0x20\n        /* \"#utility.yul\":1414:1423   */\n      dup3\n        /* \"#utility.yul\":1410:1428   */\n      add\n        /* \"#utility.yul\":1402:1428   */\n      swap1\n      pop\n        /* \"#utility.yul\":1438:1509   */\n      tag_73\n        /* \"#utility.yul\":1506:1507   */\n      0x00\n        /* \"#utility.yul\":1495:1504   */\n      dup4\n        /* \"#utility.yul\":1491:1508   */\n      add\n        /* \"#utility.yul\":1482:1488   */\n      dup5\n        /* \"#utility.yul\":1438:1509   */\n      tag_44\n      jump\t// in\n    tag_73:\n        /* \"#utility.yul\":1294:1516   */\n      swap3\n      swap2\n      pop\n      pop\n      jump\t// out\n        /* \"#utility.yul\":1522:1854   */\n    tag_17:\n        /* \"#utility.yul\":1643:1647   */\n      0x00\n        /* \"#utility.yul\":1681:1683   */\n      0x40\n        /* \"#utility.yul\":1670:1679   */\n      dup3\n        /* \"#utility.yul\":1666:1684   */\n      add\n        /* \"#utility.yul\":1658:1684   */\n      swap1\n      pop\n        /* \"#utility.yul\":1694:1765   */\n      tag_75\n        /* \"#utility.yul\":1762:1763   */\n      0x00\n        /* \"#utility.yul\":1751:1760   */\n      dup4\n        /* \"#utility.yul\":1747:1764   */\n      add\n        /* \"#utility.yul\":1738:1744   */\n      dup6\n        /* \"#utility.yul\":1694:1765   */\n      tag_44\n      jump\t// in\n    tag_75:\n        /* \"#utility.yul\":1775:1847   */\n      tag_76\n        /* \"#utility.yul\":1843:1845   */\n      0x20\n        /* \"#utility.yul\":1832:1841   */\n      dup4\n        /* \"#utility.yul\":1828:1846   */\n      add\n        /* \"#utility.yul\":1819:1825   */\n      dup5\n        /* \"#utility.yul\":1775:1847   */\n      tag_44\n      jump\t// in\n    tag_76:\n        /* \"#utility.yul\":1522:1854   */\n      swap4\n      swap3\n      pop\n      pop\n      pop\n      jump\t// out\n        /* \"#utility.yul\":1860:1958   */\n    tag_45:\n        /* \"#utility.yul\":1911:1917   */\n      0x00\n        /* \"#utility.yul\":1945:1950   */\n      dup2\n        /* \"#utility.yul\":1939:1951   */\n      mload\n        /* \"#utility.yul\":1929:1951   */\n      swap1\n      pop\n        /* \"#utility.yul\":1860:1958   */\n      swap2\n      swap1\n      pop\n      jump\t// out\n        /* \"#utility.yul\":1964:2111   */\n    tag_46:\n        /* \"#utility.yul\":2065:2076   */\n      0x00\n        /* \"#utility.yul\":2102:2105   */\n      dup2\n        /* \"#utility.yul\":2087:2105   */\n      swap1\n      pop\n        /* \"#utility.yul\":1964:2111   */\n      swap3\n      swap2\n      pop\n      pop\n      jump\t// out\n        /* \"#utility.yul\":2117:2256   */\n    tag_47:\n        /* \"#utility.yul\":2206:2212   */\n      dup3\n        /* \"#utility.yul\":2201:2204   */\n      dup2\n        /* \"#utility.yul\":2196:2199   */\n      dup4\n        /* \"#utility.yul\":2190:2213   */\n      mcopy\n        /* \"#utility.yul\":2247:2248   */\n      0x00\n        /* \"#utility.yul\":2238:2244   */\n      dup4\n        /* \"#utility.yul\":2233:2236   */\n      dup4\n        /* \"#utility.yul\":2229:2245   */\n      add\n        /* \"#utility.yul\":2222:2249   */\n      mstore\n        /* \"#utility.yul\":2117:2256   */\n      pop\n      pop\n      pop\n      jump\t// out\n        /* \"#utility.yul\":2262:2648   */\n    tag_48:\n        /* \"#utility.yul\":2366:2369   */\n      0x00\n        /* \"#utility.yul\":2394:2432   */\n      tag_81\n        /* \"#utility.yul\":2426:2431   */\n      dup3\n        /* \"#utility.yul\":2394:2432   */\n      tag_45\n      jump\t// in\n    tag_81:\n        /* \"#utility.yul\":2448:2536   */\n      tag_82\n        /* \"#utility.yul\":2529:2535   */\n      dup2\n        /* \"#utility.yul\":2524:2527   */\n      dup6\n        /* \"#utility.yul\":2448:2536   */\n      tag_46\n      jump\t// in\n    tag_82:\n        /* \"#utility.yul\":2441:2536   */\n      swap4\n      pop\n        /* \"#utility.yul\":2545:2610   */\n      tag_83\n        /* \"#utility.yul\":2603:2609   */\n      dup2\n        /* \"#utility.yul\":2598:2601   */\n      dup6\n        /* \"#utility.yul\":2591:2595   */\n      0x20\n        /* \"#utility.yul\":2584:2589   */\n      dup7\n        /* \"#utility.yul\":2580:2596   */\n      add\n        /* \"#utility.yul\":2545:2610   */\n      tag_47\n      jump\t// in\n    tag_83:\n        /* \"#utility.yul\":2635:2641   */\n      dup1\n        /* \"#utility.yul\":2630:2633   */\n      dup5\n        /* \"#utility.yul\":2626:2642   */\n      add\n        /* \"#utility.yul\":2619:2642   */\n      swap2\n      pop\n        /* \"#utility.yul\":2370:2648   */\n      pop\n        /* \"#utility.yul\":2262:2648   */\n      swap3\n      swap2\n      pop\n      pop\n      jump\t// out\n        /* \"#utility.yul\":2654:2925   */\n    tag_19:\n        /* \"#utility.yul\":2784:2787   */\n      0x00\n        /* \"#utility.yul\":2806:2899   */\n      tag_85\n        /* \"#utility.yul\":2895:2898   */\n      dup3\n        /* \"#utility.yul\":2886:2892   */\n      dup5\n        /* \"#utility.yul\":2806:2899   */\n      tag_48\n      jump\t// in\n    tag_85:\n        /* \"#utility.yul\":2799:2899   */\n      swap2\n      pop\n        /* \"#utility.yul\":2916:2919   */\n      dup2\n        /* \"#utility.yul\":2909:2919   */\n      swap1\n      pop\n        /* \"#utility.yul\":2654:2925   */\n      swap3\n      swap2\n      pop\n      pop\n      jump\t// out\n        /* \"#utility.yul\":2931:3100   */\n    tag_49:\n        /* \"#utility.yul\":3015:3026   */\n      0x00\n        /* \"#utility.yul\":3049:3055   */\n      dup3\n        /* \"#utility.yul\":3044:3047   */\n      dup3\n        /* \"#utility.yul\":3037:3056   */\n      mstore\n        /* \"#utility.yul\":3089:3093   */\n      0x20\n        /* \"#utility.yul\":3084:3087   */\n      dup3\n        /* \"#utility.yul\":3080:3094   */\n      add\n        /* \"#utility.yul\":3065:3094   */\n      swap1\n      pop\n        /* \"#utility.yul\":2931:3100   */\n      swap3\n      swap2\n      pop\n      pop\n      jump\t// out\n        /* \"#utility.yul\":3106:3282   */\n    tag_50:\n        /* \"#utility.yul\":3246:3274   */\n      0x53746174696363616c6c20746f206164642829206661696c6564000000000000\n        /* \"#utility.yul\":3242:3243   */\n      0x00\n        /* \"#utility.yul\":3234:3240   */\n      dup3\n        /* \"#utility.yul\":3230:3244   */\n      add\n        /* \"#utility.yul\":3223:3275   */\n      mstore\n        /* \"#utility.yul\":3106:3282   */\n      pop\n      jump\t// out\n        /* \"#utility.yul\":3288:3654   */\n    tag_51:\n        /* \"#utility.yul\":3430:3433   */\n      0x00\n        /* \"#utility.yul\":3451:3518   */\n      tag_89\n        /* \"#utility.yul\":3515:3517   */\n      0x1a\n        /* \"#utility.yul\":3510:3513   */\n      dup4\n        /* \"#utility.yul\":3451:3518   */\n      tag_49\n      jump\t// in\n    tag_89:\n        /* \"#utility.yul\":3444:3518   */\n      swap2\n      pop\n        /* \"#utility.yul\":3527:3620   */\n      tag_90\n        /* \"#utility.yul\":3616:3619   */\n      dup3\n        /* \"#utility.yul\":3527:3620   */\n      tag_50\n      jump\t// in\n    tag_90:\n        /* \"#utility.yul\":3645:3647   */\n      0x20\n        /* \"#utility.yul\":3640:3643   */\n      dup3\n        /* \"#utility.yul\":3636:3648   */\n      add\n        /* \"#utility.yul\":3629:3648   */\n      swap1\n      pop\n        /* \"#utility.yul\":3288:3654   */\n      swap2\n      swap1\n      pop\n      jump\t// out\n        /* \"#utility.yul\":3660:4079   */\n    tag_25:\n        /* \"#utility.yul\":3826:3830   */\n      0x00\n        /* \"#utility.yul\":3864:3866   */\n      0x20\n        /* \"#utility.yul\":3853:3862   */\n      dup3\n        /* \"#utility.yul\":3849:3867   */\n      add\n        /* \"#utility.yul\":3841:3867   */\n      swap1\n      pop\n        /* \"#utility.yul\":3913:3922   */\n      dup2\n        /* \"#utility.yul\":3907:3911   */\n      dup2\n        /* \"#utility.yul\":3903:3923   */\n      sub\n        /* \"#utility.yul\":3899:3900   */\n      0x00\n        /* \"#utility.yul\":3888:3897   */\n      dup4\n        /* \"#utility.yul\":3884:3901   */\n      add\n        /* \"#utility.yul\":3877:3924   */\n      mstore\n        /* \"#utility.yul\":3941:4072   */\n      tag_92\n        /* \"#utility.yul\":4067:4071   */\n      dup2\n        /* \"#utility.yul\":3941:4072   */\n      tag_51\n      jump\t// in\n    tag_92:\n        /* \"#utility.yul\":3933:4072   */\n      swap1\n      pop\n        /* \"#utility.yul\":3660:4079   */\n      swap2\n      swap1\n      pop\n      jump\t// out\n        /* \"#utility.yul\":4085:4228   */\n    tag_52:\n        /* \"#utility.yul\":4142:4147   */\n      0x00\n        /* \"#utility.yul\":4173:4179   */\n      dup2\n        /* \"#utility.yul\":4167:4180   */\n      mload\n        /* \"#utility.yul\":4158:4180   */\n      swap1\n      pop\n        /* \"#utility.yul\":4189:4222   */\n      tag_94\n        /* \"#utility.yul\":4216:4221   */\n      dup2\n        /* \"#utility.yul\":4189:4222   */\n      tag_42\n      jump\t// in\n    tag_94:\n        /* \"#utility.yul\":4085:4228   */\n      swap3\n      swap2\n      pop\n      pop\n      jump\t// out\n        /* \"#utility.yul\":4234:4585   */\n    tag_27:\n        /* \"#utility.yul\":4304:4310   */\n      0x00\n        /* \"#utility.yul\":4353:4355   */\n      0x20\n        /* \"#utility.yul\":4341:4350   */\n      dup3\n        /* \"#utility.yul\":4332:4339   */\n      dup5\n        /* \"#utility.yul\":4328:4351   */\n      sub\n        /* \"#utility.yul\":4324:4356   */\n      slt\n        /* \"#utility.yul\":4321:4440   */\n      iszero\n      tag_96\n      jumpi\n        /* \"#utility.yul\":4359:4438   */\n      tag_97\n      tag_39\n      jump\t// in\n    tag_97:\n        /* \"#utility.yul\":4321:4440   */\n    tag_96:\n        /* \"#utility.yul\":4479:4480   */\n      0x00\n        /* \"#utility.yul\":4504:4568   */\n      tag_98\n        /* \"#utility.yul\":4560:4567   */\n      dup5\n        /* \"#utility.yul\":4551:4557   */\n      dup3\n        /* \"#utility.yul\":4540:4549   */\n      dup6\n        /* \"#utility.yul\":4536:4558   */\n      add\n        /* \"#utility.yul\":4504:4568   */\n      tag_52\n      jump\t// in\n    tag_98:\n        /* \"#utility.yul\":4494:4568   */\n      swap2\n      pop\n        /* \"#utility.yul\":4450:4578   */\n      pop\n        /* \"#utility.yul\":4234:4585   */\n      swap3\n      swap2\n      pop\n      pop\n      jump\t// out\n        /* \"#utility.yul\":4591:4767   */\n    tag_53:\n        /* \"#utility.yul\":4731:4759   */\n      0x53746174696363616c6c20746f206d756c2829206661696c6564000000000000\n        /* \"#utility.yul\":4727:4728   */\n      0x00\n        /* \"#utility.yul\":4719:4725   */\n      dup3\n        /* \"#utility.yul\":4715:4729   */\n      add\n        /* \"#utility.yul\":4708:4760   */\n      mstore\n        /* \"#utility.yul\":4591:4767   */\n      pop\n      jump\t// out\n        /* \"#utility.yul\":4773:5139   */\n    tag_54:\n        /* \"#utility.yul\":4915:4918   */\n      0x00\n        /* \"#utility.yul\":4936:5003   */\n      tag_101\n        /* \"#utility.yul\":5000:5002   */\n      0x1a\n        /* \"#utility.yul\":4995:4998   */\n      dup4\n        /* \"#utility.yul\":4936:5003   */\n      tag_49\n      jump\t// in\n    tag_101:\n        /* \"#utility.yul\":4929:5003   */\n      swap2\n      pop\n        /* \"#utility.yul\":5012:5105   */\n      tag_102\n        /* \"#utility.yul\":5101:5104   */\n      dup3\n        /* \"#utility.yul\":5012:5105   */\n      tag_53\n      jump\t// in\n    tag_102:\n        /* \"#utility.yul\":5130:5132   */\n      0x20\n        /* \"#utility.yul\":5125:5128   */\n      dup3\n        /* \"#utility.yul\":5121:5133   */\n      add\n        /* \"#utility.yul\":5114:5133   */\n      swap1\n      pop\n        /* \"#utility.yul\":4773:5139   */\n      swap2\n      swap1\n      pop\n      jump\t// out\n        /* \"#utility.yul\":5145:5564   */\n    tag_36:\n        /* \"#utility.yul\":5311:5315   */\n      0x00\n        /* \"#utility.yul\":5349:5351   */\n      0x20\n        /* \"#utility.yul\":5338:5347   */\n      dup3\n        /* \"#utility.yul\":5334:5352   */\n      add\n        /* \"#utility.yul\":5326:5352   */\n      swap1\n      pop\n        /* \"#utility.yul\":5398:5407   */\n      dup2\n        /* \"#utility.yul\":5392:5396   */\n      dup2\n        /* \"#utility.yul\":5388:5408   */\n      sub\n        /* \"#utility.yul\":5384:5385   */\n      0x00\n        /* \"#utility.yul\":5373:5382   */\n      dup4\n        /* \"#utility.yul\":5369:5386   */\n      add\n        /* \"#utility.yul\":5362:5409   */\n      mstore\n        /* \"#utility.yul\":5426:5557   */\n      tag_104\n        /* \"#utility.yul\":5552:5556   */\n      dup2\n        /* \"#utility.yul\":5426:5557   */\n      tag_54\n      jump\t// in\n    tag_104:\n        /* \"#utility.yul\":5418:5557   */\n      swap1\n      pop\n        /* \"#utility.yul\":5145:5564   */\n      swap2\n      swap1\n      pop\n      jump\t// out\n\n    auxdata: 0xa264697066735822122006150f572302371abc611fe9127b85d19ffab358b50a364926a9870e840f5c0164736f6c634300081e0033\n}\n",
				"bytecode": {
					"linkReferences": {},
					"object": "6080604052348015600e575f5ffd5b506105ef8061001c5f395ff3fe608060405234801561000f575f5ffd5b5060043610610034575f3560e01c806399bd125f14610038578063b3b087ca14610068575b5f5ffd5b610052600480360381019061004d91906103a5565b610098565b60405161005f91906103f2565b60405180910390f35b610082600480360381019061007d91906103a5565b610203565b60405161008f91906103f2565b60405180910390f35b5f5f5f7308453e0787f0399ed9f1bd16ceec37d23f23043073ffffffffffffffffffffffffffffffffffffffff1685856040516024016100d992919061040b565b6040516020818303038152906040527f771602f7000000000000000000000000000000000000000000000000000000007bffffffffffffffffffffffffffffffffffffffffffffffffffffffff19166020820180517bffffffffffffffffffffffffffffffffffffffffffffffffffffffff83818316178352505050506040516101639190610484565b5f60405180830381855afa9150503d805f811461019b576040519150601f19603f3d011682016040523d82523d5f602084013e6101a0565b606091505b5091509150816101e5576040517f08c379a00000000000000000000000000000000000000000000000000000000081526004016101dc906104f4565b60405180910390fd5b808060200190518101906101f99190610526565b9250505092915050565b5f5f5f7308453e0787f0399ed9f1bd16ceec37d23f23043073ffffffffffffffffffffffffffffffffffffffff16858560405160240161024492919061040b565b6040516020818303038152906040527fc8a4ac9c000000000000000000000000000000000000000000000000000000007bffffffffffffffffffffffffffffffffffffffffffffffffffffffff19166020820180517bffffffffffffffffffffffffffffffffffffffffffffffffffffffff83818316178352505050506040516102ce9190610484565b5f60405180830381855afa9150503d805f8114610306576040519150601f19603f3d011682016040523d82523d5f602084013e61030b565b606091505b509150915081610350576040517f08c379a00000000000000000000000000000000000000000000000000000000081526004016103479061059b565b60405180910390fd5b808060200190518101906103649190610526565b9250505092915050565b5f5ffd5b5f819050919050565b61038481610372565b811461038e575f5ffd5b50565b5f8135905061039f8161037b565b92915050565b5f5f604083850312156103bb576103ba61036e565b5b5f6103c885828601610391565b92505060206103d985828601610391565b9150509250929050565b6103ec81610372565b82525050565b5f6020820190506104055f8301846103e3565b92915050565b5f60408201905061041e5f8301856103e3565b61042b60208301846103e3565b9392505050565b5f81519050919050565b5f81905092915050565b8281835e5f83830152505050565b5f61045e82610432565b610468818561043c565b9350610478818560208601610446565b80840191505092915050565b5f61048f8284610454565b915081905092915050565b5f82825260208201905092915050565b7f53746174696363616c6c20746f206164642829206661696c65640000000000005f82015250565b5f6104de601a8361049a565b91506104e9826104aa565b602082019050919050565b5f6020820190508181035f83015261050b816104d2565b9050919050565b5f815190506105208161037b565b92915050565b5f6020828403121561053b5761053a61036e565b5b5f61054884828501610512565b91505092915050565b7f53746174696363616c6c20746f206d756c2829206661696c65640000000000005f82015250565b5f610585601a8361049a565b915061059082610551565b602082019050919050565b5f6020820190508181035f8301526105b281610579565b905091905056fea264697066735822122006150f572302371abc611fe9127b85d19ffab358b50a364926a9870e840f5c0164736f6c634300081e0033",
					"opcodes": "PUSH1 0x80 PUSH1 0x40 MSTORE CALLVALUE DUP1 ISZERO PUSH1 0xE JUMPI PUSH0 PUSH0 REVERT JUMPDEST POP PUSH2 0x5EF DUP1 PUSH2 0x1C PUSH0 CODECOPY PUSH0 RETURN INVALID PUSH1 0x80 PUSH1 0x40 MSTORE CALLVALUE DUP1 ISZERO PUSH2 0xF JUMPI PUSH0 PUSH0 REVERT JUMPDEST POP PUSH1 0x4 CALLDATASIZE LT PUSH2 0x34 JUMPI PUSH0 CALLDATALOAD PUSH1 0xE0 SHR DUP1 PUSH4 0x99BD125F EQ PUSH2 0x38 JUMPI DUP1 PUSH4 0xB3B087CA EQ PUSH2 0x68 JUMPI JUMPDEST PUSH0 PUSH0 REVERT JUMPDEST PUSH2 0x52 PUSH1 0x4 DUP1 CALLDATASIZE SUB DUP2 ADD SWAP1 PUSH2 0x4D SWAP2 SWAP1 PUSH2 0x3A5 JUMP JUMPDEST PUSH2 0x98 JUMP JUMPDEST PUSH1 0x40 MLOAD PUSH2 0x5F SWAP2 SWAP1 PUSH2 0x3F2 JUMP JUMPDEST PUSH1 0x40 MLOAD DUP1 SWAP2 SUB SWAP1 RETURN JUMPDEST PUSH2 0x82 PUSH1 0x4 DUP1 CALLDATASIZE SUB DUP2 ADD SWAP1 PUSH2 0x7D SWAP2 SWAP1 PUSH2 0x3A5 JUMP JUMPDEST PUSH2 0x203 JUMP JUMPDEST PUSH1 0x40 MLOAD PUSH2 0x8F SWAP2 SWAP1 PUSH2 0x3F2 JUMP JUMPDEST PUSH1 0x40 MLOAD DUP1 SWAP2 SUB SWAP1 RETURN JUMPDEST PUSH0 PUSH0 PUSH0 PUSH20 0x8453E0787F0399ED9F1BD16CEEC37D23F230430 PUSH20 0xFFFFFFFFFFFFFFFFFFFFFFFFFFFFFFFFFFFFFFFF AND DUP6 DUP6 PUSH1 0x40 MLOAD PUSH1 0x24 ADD PUSH2 0xD9 SWAP3 SWAP2 SWAP1 PUSH2 0x40B JUMP JUMPDEST PUSH1 0x40 MLOAD PUSH1 0x20 DUP2 DUP4 SUB SUB DUP2 MSTORE SWAP1 PUSH1 0x40 MSTORE PUSH32 0x771602F700000000000000000000000000000000000000000000000000000000 PUSH28 0xFFFFFFFFFFFFFFFFFFFFFFFFFFFFFFFFFFFFFFFFFFFFFFFFFFFFFFFF NOT AND PUSH1 0x20 DUP3 ADD DUP1 MLOAD PUSH28 0xFFFFFFFFFFFFFFFFFFFFFFFFFFFFFFFFFFFFFFFFFFFFFFFFFFFFFFFF DUP4 DUP2 DUP4 AND OR DUP4 MSTORE POP POP POP POP PUSH1 0x40 MLOAD PUSH2 0x163 SWAP2 SWAP1 PUSH2 0x484 JUMP JUMPDEST PUSH0 PUSH1 0x40 MLOAD DUP1 DUP4 SUB DUP2 DUP6 GAS STATICCALL SWAP2 POP POP RETURNDATASIZE DUP1 PUSH0 DUP2 EQ PUSH2 0x19B JUMPI PUSH1 0x40 MLOAD SWAP2 POP PUSH1 0x1F NOT PUSH1 0x3F RETURNDATASIZE ADD AND DUP3 ADD PUSH1 0x40 MSTORE RETURNDATASIZE DUP3 MSTORE RETURNDATASIZE PUSH0 PUSH1 0x20 DUP5 ADD RETURNDATACOPY PUSH2 0x1A0 JUMP JUMPDEST PUSH1 0x60 SWAP2 POP JUMPDEST POP SWAP2 POP SWAP2 POP DUP2 PUSH2 0x1E5 JUMPI PUSH1 0x40 MLOAD PUSH32 0x8C379A000000000000000000000000000000000000000000000000000000000 DUP2 MSTORE PUSH1 0x4 ADD PUSH2 0x1DC SWAP1 PUSH2 0x4F4 JUMP JUMPDEST PUSH1 0x40 MLOAD DUP1 SWAP2 SUB SWAP1 REVERT JUMPDEST DUP1 DUP1 PUSH1 0x20 ADD SWAP1 MLOAD DUP2 ADD SWAP1 PUSH2 0x1F9 SWAP2 SWAP1 PUSH2 0x526 JUMP JUMPDEST SWAP3 POP POP POP SWAP3 SWAP2 POP POP JUMP JUMPDEST PUSH0 PUSH0 PUSH0 PUSH20 0x8453E0787F0399ED9F1BD16CEEC37D23F230430 PUSH20 0xFFFFFFFFFFFFFFFFFFFFFFFFFFFFFFFFFFFFFFFF AND DUP6 DUP6 PUSH1 0x40 MLOAD PUSH1 0x24 ADD PUSH2 0x244 SWAP3 SWAP2 SWAP1 PUSH2 0x40B JUMP JUMPDEST PUSH1 0x40 MLOAD PUSH1 0x20 DUP2 DUP4 SUB SUB DUP2 MSTORE SWAP1 PUSH1 0x40 MSTORE PUSH32 0xC8A4AC9C00000000000000000000000000000000000000000000000000000000 PUSH28 0xFFFFFFFFFFFFFFFFFFFFFFFFFFFFFFFFFFFFFFFFFFFFFFFFFFFFFFFF NOT AND PUSH1 0x20 DUP3 ADD DUP1 MLOAD PUSH28 0xFFFFFFFFFFFFFFFFFFFFFFFFFFFFFFFFFFFFFFFFFFFFFFFFFFFFFFFF DUP4 DUP2 DUP4 AND OR DUP4 MSTORE POP POP POP POP PUSH1 0x40 MLOAD PUSH2 0x2CE SWAP2 SWAP1 PUSH2 0x484 JUMP JUMPDEST PUSH0 PUSH1 0x40 MLOAD DUP1 DUP4 SUB DUP2 DUP6 GAS STATICCALL SWAP2 POP POP RETURNDATASIZE DUP1 PUSH0 DUP2 EQ PUSH2 0x306 JUMPI PUSH1 0x40 MLOAD SWAP2 POP PUSH1 0x1F NOT PUSH1 0x3F RETURNDATASIZE ADD AND DUP3 ADD PUSH1 0x40 MSTORE RETURNDATASIZE DUP3 MSTORE RETURNDATASIZE PUSH0 PUSH1 0x20 DUP5 ADD RETURNDATACOPY PUSH2 0x30B JUMP JUMPDEST PUSH1 0x60 SWAP2 POP JUMPDEST POP SWAP2 POP SWAP2 POP DUP2 PUSH2 0x350 JUMPI PUSH1 0x40 MLOAD PUSH32 0x8C379A000000000000000000000000000000000000000000000000000000000 DUP2 MSTORE PUSH1 0x4 ADD PUSH2 0x347 SWAP1 PUSH2 0x59B JUMP JUMPDEST PUSH1 0x40 MLOAD DUP1 SWAP2 SUB SWAP1 REVERT JUMPDEST DUP1 DUP1 PUSH1 0x20 ADD SWAP1 MLOAD DUP2 ADD SWAP1 PUSH2 0x364 SWAP2 SWAP1 PUSH2 0x526 JUMP JUMPDEST SWAP3 POP POP POP SWAP3 SWAP2 POP POP JUMP JUMPDEST PUSH0 PUSH0 REVERT JUMPDEST PUSH0 DUP2 SWAP1 POP SWAP2 SWAP1 POP JUMP JUMPDEST PUSH2 0x384 DUP2 PUSH2 0x372 JUMP JUMPDEST DUP2 EQ PUSH2 0x38E JUMPI PUSH0 PUSH0 REVERT JUMPDEST POP JUMP JUMPDEST PUSH0 DUP2 CALLDATALOAD SWAP1 POP PUSH2 0x39F DUP2 PUSH2 0x37B JUMP JUMPDEST SWAP3 SWAP2 POP POP JUMP JUMPDEST PUSH0 PUSH0 PUSH1 0x40 DUP4 DUP6 SUB SLT ISZERO PUSH2 0x3BB JUMPI PUSH2 0x3BA PUSH2 0x36E JUMP JUMPDEST JUMPDEST PUSH0 PUSH2 0x3C8 DUP6 DUP3 DUP7 ADD PUSH2 0x391 JUMP JUMPDEST SWAP3 POP POP PUSH1 0x20 PUSH2 0x3D9 DUP6 DUP3 DUP7 ADD PUSH2 0x391 JUMP JUMPDEST SWAP2 POP POP SWAP3 POP SWAP3 SWAP1 POP JUMP JUMPDEST PUSH2 0x3EC DUP2 PUSH2 0x372 JUMP JUMPDEST DUP3 MSTORE POP POP JUMP JUMPDEST PUSH0 PUSH1 0x20 DUP3 ADD SWAP1 POP PUSH2 0x405 PUSH0 DUP4 ADD DUP5 PUSH2 0x3E3 JUMP JUMPDEST SWAP3 SWAP2 POP POP JUMP JUMPDEST PUSH0 PUSH1 0x40 DUP3 ADD SWAP1 POP PUSH2 0x41E PUSH0 DUP4 ADD DUP6 PUSH2 0x3E3 JUMP JUMPDEST PUSH2 0x42B PUSH1 0x20 DUP4 ADD DUP5 PUSH2 0x3E3 JUMP JUMPDEST SWAP4 SWAP3 POP POP POP JUMP JUMPDEST PUSH0 DUP2 MLOAD SWAP1 POP SWAP2 SWAP1 POP JUMP JUMPDEST PUSH0 DUP2 SWAP1 POP SWAP3 SWAP2 POP POP JUMP JUMPDEST DUP3 DUP2 DUP4 MCOPY PUSH0 DUP4 DUP4 ADD MSTORE POP POP POP JUMP JUMPDEST PUSH0 PUSH2 0x45E DUP3 PUSH2 0x432 JUMP JUMPDEST PUSH2 0x468 DUP2 DUP6 PUSH2 0x43C JUMP JUMPDEST SWAP4 POP PUSH2 0x478 DUP2 DUP6 PUSH1 0x20 DUP7 ADD PUSH2 0x446 JUMP JUMPDEST DUP1 DUP5 ADD SWAP2 POP POP SWAP3 SWAP2 POP POP JUMP JUMPDEST PUSH0 PUSH2 0x48F DUP3 DUP5 PUSH2 0x454 JUMP JUMPDEST SWAP2 POP DUP2 SWAP1 POP SWAP3 SWAP2 POP POP JUMP JUMPDEST PUSH0 DUP3 DUP3 MSTORE PUSH1 0x20 DUP3 ADD SWAP1 POP SWAP3 SWAP2 POP POP JUMP JUMPDEST PUSH32 0x53746174696363616C6C20746F206164642829206661696C6564000000000000 PUSH0 DUP3 ADD MSTORE POP JUMP JUMPDEST PUSH0 PUSH2 0x4DE PUSH1 0x1A DUP4 PUSH2 0x49A JUMP JUMPDEST SWAP2 POP PUSH2 0x4E9 DUP3 PUSH2 0x4AA JUMP JUMPDEST PUSH1 0x20 DUP3 ADD SWAP1 POP SWAP2 SWAP1 POP JUMP JUMPDEST PUSH0 PUSH1 0x20 DUP3 ADD SWAP1 POP DUP2 DUP2 SUB PUSH0 DUP4 ADD MSTORE PUSH2 0x50B DUP2 PUSH2 0x4D2 JUMP JUMPDEST SWAP1 POP SWAP2 SWAP1 POP JUMP JUMPDEST PUSH0 DUP2 MLOAD SWAP1 POP PUSH2 0x520 DUP2 PUSH2 0x37B JUMP JUMPDEST SWAP3 SWAP2 POP POP JUMP JUMPDEST PUSH0 PUSH1 0x20 DUP3 DUP5 SUB SLT ISZERO PUSH2 0x53B JUMPI PUSH2 0x53A PUSH2 0x36E JUMP JUMPDEST JUMPDEST PUSH0 PUSH2 0x548 DUP5 DUP3 DUP6 ADD PUSH2 0x512 JUMP JUMPDEST SWAP2 POP POP SWAP3 SWAP2 POP POP JUMP JUMPDEST PUSH32 0x53746174696363616C6C20746F206D756C2829206661696C6564000000000000 PUSH0 DUP3 ADD MSTORE POP JUMP JUMPDEST PUSH0 PUSH2 0x585 PUSH1 0x1A DUP4 PUSH2 0x49A JUMP JUMPDEST SWAP2 POP PUSH2 0x590 DUP3 PUSH2 0x551 JUMP JUMPDEST PUSH1 0x20 DUP3 ADD SWAP1 POP SWAP2 SWAP1 POP JUMP JUMPDEST PUSH0 PUSH1 0x20 DUP3 ADD SWAP1 POP DUP2 DUP2 SUB PUSH0 DUP4 ADD MSTORE PUSH2 0x5B2 DUP2 PUSH2 0x579 JUMP JUMPDEST SWAP1 POP SWAP2 SWAP1 POP JUMP INVALID LOG2 PUSH5 0x6970667358 0x22 SLT KECCAK256 MOD ISZERO 0xF JUMPI 0x23 MUL CALLDATACOPY BYTE 0xBC PUSH2 0x1FE9 SLT PUSH28 0x85D19FFAB358B50A364926A9870E840F5C0164736F6C634300081E00 CALLER "
				},
				"gasEstimates": {
					"creation": {
						"codeDepositCost": "303800",
						"executionCost": "341",
						"totalCost": "304141"
					},
					"external": {
						"useAdd(uint256,uint256)": "infinite",
						"useMul(uint256,uint256)": "infinite"
					}
				},
				"methodIdentifiers": {
					"useAdd(uint256,uint256)": "99bd125f",
					"useMul(uint256,uint256)": "b3b087ca"
				}
			},
			"storageLayout": {
				"storage": [],
				"types": null
			},
			"userdoc": {
				"kind": "user",
				"methods": {},
				"version": 1
			}
		}
	}
}