{
	"contracts/newdelegate/main.sol": {
		"Main": {
			"abi": [
				{
					"inputs": [],
					"stateMutability": "nonpayable",
					"type": "constructor"
				},
				{
					"inputs": [],
					"name": "balance",
					"outputs": [
						{
							"internalType": "uint256",
							"name": "",
							"type": "uint256"
						}
					],
					"stateMutability": "view",
					"type": "function"
				},
				{
					"inputs": [
						{
							"internalType": "address",
							"name": "moduleC",
							"type": "address"
						},
						{
							"internalType": "address",
							"name": "_new",
							"type": "address"
						}
					],
					"name": "changeOwner",
					"outputs": [],
					"stateMutability": "nonpayable",
					"type": "function"
				},
				{
					"inputs": [
						{
							"internalType": "address",
							"name": "moduleA",
							"type": "address"
						}
					],
					"name": "deposit",
					"outputs": [],
					"stateMutability": "payable",
					"type": "function"
				},
				{
					"inputs": [
						{
							"internalType": "address",
							"name": "module",
							"type": "address"
						},
						{
							"internalType": "bytes",
							"name": "data",
							"type": "bytes"
						}
					],
					"name": "execute",
					"outputs": [],
					"stateMutability": "payable",
					"type": "function"
				},
				{
					"inputs": [],
					"name": "name",
					"outputs": [
						{
							"internalType": "string",
							"name": "",
							"type": "string"
						}
					],
					"stateMutability": "view",
					"type": "function"
				},
				{
					"inputs": [],
					"name": "owner",
					"outputs": [
						{
							"internalType": "address",
							"name": "",
							"type": "address"
						}
					],
					"stateMutability": "view",
					"type": "function"
				},
				{
					"inputs": [
						{
							"internalType": "address",
							"name": "moduleB",
							"type": "address"
						},
						{
							"internalType": "string",
							"name": "_name",
							"type": "string"
						}
					],
					"name": "setName",
					"outputs": [],
					"stateMutability": "nonpayable",
					"type": "function"
				},
				{
					"stateMutability": "payable",
					"type": "receive"
				}
			],
			"devdoc": {
				"kind": "dev",
				"methods": {},
				"version": 1
			},
			"evm": {
				"assembly": "    /* \"contracts/newdelegate/main.sol\":1707:4722  contract Main {... */\n  mstore(0x40, 0x80)\n    /* \"contracts/newdelegate/main.sol\":2139:2190  constructor() {... */\n  callvalue\n  dup1\n  iszero\n  tag_1\n  jumpi\n  revert(0x00, 0x00)\ntag_1:\n  pop\n    /* \"contracts/newdelegate/main.sol\":2172:2182  msg.sender */\n  caller\n    /* \"contracts/newdelegate/main.sol\":2164:2169  owner */\n  0x00\n  0x00\n    /* \"contracts/newdelegate/main.sol\":2164:2182  owner = msg.sender */\n  0x0100\n  exp\n  dup2\n  sload\n  dup2\n  0xffffffffffffffffffffffffffffffffffffffff\n  mul\n  not\n  and\n  swap1\n  dup4\n  0xffffffffffffffffffffffffffffffffffffffff\n  and\n  mul\n  or\n  swap1\n  sstore\n  pop\n    /* \"contracts/newdelegate/main.sol\":1707:4722  contract Main {... */\n  dataSize(sub_0)\n  dup1\n  dataOffset(sub_0)\n  0x00\n  codecopy\n  0x00\n  return\nstop\n\nsub_0: assembly {\n        /* \"contracts/newdelegate/main.sol\":1707:4722  contract Main {... */\n      mstore(0x40, 0x80)\n      jumpi(tag_1, lt(calldatasize, 0x04))\n      shr(0xe0, calldataload(0x00))\n      dup1\n      0x8da5cb5b\n      gt\n      tag_10\n      jumpi\n      dup1\n      0x8da5cb5b\n      eq\n      tag_6\n      jumpi\n      dup1\n      0xb69ef8a8\n      eq\n      tag_7\n      jumpi\n      dup1\n      0xf00d4b5d\n      eq\n      tag_8\n      jumpi\n      dup1\n      0xf340fa01\n      eq\n      tag_9\n      jumpi\n      jump(tag_2)\n    tag_10:\n      dup1\n      0x06fdde03\n      eq\n      tag_3\n      jumpi\n      dup1\n      0x1cff79cd\n      eq\n      tag_4\n      jumpi\n      dup1\n      0x3121db1c\n      eq\n      tag_5\n      jumpi\n      jump(tag_2)\n    tag_1:\n      jumpi(tag_2, calldatasize)\n      stop\n    tag_2:\n      revert(0x00, 0x00)\n        /* \"contracts/newdelegate/main.sol\":2112:2130  string public name */\n    tag_3:\n      callvalue\n      dup1\n      iszero\n      tag_13\n      jumpi\n      revert(0x00, 0x00)\n    tag_13:\n      pop\n      tag_14\n      tag_15\n      jump\t// in\n    tag_14:\n      mload(0x40)\n      tag_16\n      swap2\n      swap1\n      tag_17\n      jump\t// in\n    tag_16:\n      mload(0x40)\n      dup1\n      swap2\n      sub\n      swap1\n      return\n        /* \"contracts/newdelegate/main.sol\":2583:2767  function execute(address module, bytes calldata data) external payable {... */\n    tag_4:\n      tag_18\n      0x04\n      dup1\n      calldatasize\n      sub\n      dup2\n      add\n      swap1\n      tag_19\n      swap2\n      swap1\n      tag_20\n      jump\t// in\n    tag_19:\n      tag_21\n      jump\t// in\n    tag_18:\n      stop\n        /* \"contracts/newdelegate/main.sol\":3653:3906  function setName(address moduleB, string memory _name) external {... */\n    tag_5:\n      callvalue\n      dup1\n      iszero\n      tag_22\n      jumpi\n      revert(0x00, 0x00)\n    tag_22:\n      pop\n      tag_23\n      0x04\n      dup1\n      calldatasize\n      sub\n      dup2\n      add\n      swap1\n      tag_24\n      swap2\n      swap1\n      tag_25\n      jump\t// in\n    tag_24:\n      tag_26\n      jump\t// in\n    tag_23:\n      stop\n        /* \"contracts/newdelegate/main.sol\":2059:2079  address public owner */\n    tag_6:\n      callvalue\n      dup1\n      iszero\n      tag_27\n      jumpi\n      revert(0x00, 0x00)\n    tag_27:\n      pop\n      tag_28\n      tag_29\n      jump\t// in\n    tag_28:\n      mload(0x40)\n      tag_30\n      swap2\n      swap1\n      tag_31\n      jump\t// in\n    tag_30:\n      mload(0x40)\n      dup1\n      swap2\n      sub\n      swap1\n      return\n        /* \"contracts/newdelegate/main.sol\":2086:2105  uint public balance */\n    tag_7:\n      callvalue\n      dup1\n      iszero\n      tag_32\n      jumpi\n      revert(0x00, 0x00)\n    tag_32:\n      pop\n      tag_33\n      tag_34\n      jump\t// in\n    tag_33:\n      mload(0x40)\n      tag_35\n      swap2\n      swap1\n      tag_36\n      jump\t// in\n    tag_35:\n      mload(0x40)\n      dup1\n      swap2\n      sub\n      swap1\n      return\n        /* \"contracts/newdelegate/main.sol\":4136:4394  function changeOwner(address moduleC, address _new) external {... */\n    tag_8:\n      callvalue\n      dup1\n      iszero\n      tag_37\n      jumpi\n      revert(0x00, 0x00)\n    tag_37:\n      pop\n      tag_38\n      0x04\n      dup1\n      calldatasize\n      sub\n      dup2\n      add\n      swap1\n      tag_39\n      swap2\n      swap1\n      tag_40\n      jump\t// in\n    tag_39:\n      tag_41\n      jump\t// in\n    tag_38:\n      stop\n        /* \"contracts/newdelegate/main.sol\":3155:3382  function deposit(address moduleA) external payable {... */\n    tag_9:\n      tag_42\n      0x04\n      dup1\n      calldatasize\n      sub\n      dup2\n      add\n      swap1\n      tag_43\n      swap2\n      swap1\n      tag_44\n      jump\t// in\n    tag_43:\n      tag_45\n      jump\t// in\n    tag_42:\n      stop\n        /* \"contracts/newdelegate/main.sol\":2112:2130  string public name */\n    tag_15:\n      0x02\n      dup1\n      sload\n      tag_46\n      swap1\n      tag_47\n      jump\t// in\n    tag_46:\n      dup1\n      0x1f\n      add\n      0x20\n      dup1\n      swap2\n      div\n      mul\n      0x20\n      add\n      mload(0x40)\n      swap1\n      dup2\n      add\n      0x40\n      mstore\n      dup1\n      swap3\n      swap2\n      swap1\n      dup2\n      dup2\n      mstore\n      0x20\n      add\n      dup3\n      dup1\n      sload\n      tag_48\n      swap1\n      tag_47\n      jump\t// in\n    tag_48:\n      dup1\n      iszero\n      tag_49\n      jumpi\n      dup1\n      0x1f\n      lt\n      tag_50\n      jumpi\n      0x0100\n      dup1\n      dup4\n      sload\n      div\n      mul\n      dup4\n      mstore\n      swap2\n      0x20\n      add\n      swap2\n      jump(tag_49)\n    tag_50:\n      dup3\n      add\n      swap2\n      swap1\n      0x00\n      mstore\n      keccak256(0x00, 0x20)\n      swap1\n    tag_51:\n      dup2\n      sload\n      dup2\n      mstore\n      swap1\n      0x01\n      add\n      swap1\n      0x20\n      add\n      dup1\n      dup4\n      gt\n      tag_51\n      jumpi\n      dup3\n      swap1\n      sub\n      0x1f\n      and\n      dup3\n      add\n      swap2\n    tag_49:\n      pop\n      pop\n      pop\n      pop\n      pop\n      dup2\n      jump\t// out\n        /* \"contracts/newdelegate/main.sol\":2583:2767  function execute(address module, bytes calldata data) external payable {... */\n    tag_21:\n        /* \"contracts/newdelegate/main.sol\":2666:2678  bool success */\n      0x00\n        /* \"contracts/newdelegate/main.sol\":2684:2690  module */\n      dup4\n        /* \"contracts/newdelegate/main.sol\":2684:2703  module.delegatecall */\n      0xffffffffffffffffffffffffffffffffffffffff\n      and\n        /* \"contracts/newdelegate/main.sol\":2704:2708  data */\n      dup4\n      dup4\n        /* \"contracts/newdelegate/main.sol\":2684:2709  module.delegatecall(data) */\n      mload(0x40)\n      tag_53\n      swap3\n      swap2\n      swap1\n      tag_54\n      jump\t// in\n    tag_53:\n      0x00\n      mload(0x40)\n      dup1\n      dup4\n      sub\n      dup2\n      dup6\n      gas\n      delegatecall\n      swap2\n      pop\n      pop\n      returndatasize\n      dup1\n      0x00\n      dup2\n      eq\n      tag_57\n      jumpi\n      mload(0x40)\n      swap2\n      pop\n      and(add(returndatasize, 0x3f), not(0x1f))\n      dup3\n      add\n      0x40\n      mstore\n      returndatasize\n      dup3\n      mstore\n      returndatasize\n      0x00\n      0x20\n      dup5\n      add\n      returndatacopy\n      jump(tag_56)\n    tag_57:\n      0x60\n      swap2\n      pop\n    tag_56:\n      pop\n        /* \"contracts/newdelegate/main.sol\":2665:2709  (bool success, ) = module.delegatecall(data) */\n      pop\n      swap1\n      pop\n        /* \"contracts/newdelegate/main.sol\":2728:2735  success */\n      dup1\n        /* \"contracts/newdelegate/main.sol\":2720:2759  require(success, \"delegatecall failed\") */\n      tag_58\n      jumpi\n      mload(0x40)\n      0x08c379a000000000000000000000000000000000000000000000000000000000\n      dup2\n      mstore\n      0x04\n      add\n      tag_59\n      swap1\n      tag_60\n      jump\t// in\n    tag_59:\n      mload(0x40)\n      dup1\n      swap2\n      sub\n      swap1\n      revert\n    tag_58:\n        /* \"contracts/newdelegate/main.sol\":2654:2767  {... */\n      pop\n        /* \"contracts/newdelegate/main.sol\":2583:2767  function execute(address module, bytes calldata data) external payable {... */\n      pop\n      pop\n      pop\n      jump\t// out\n        /* \"contracts/newdelegate/main.sol\":3653:3906  function setName(address moduleB, string memory _name) external {... */\n    tag_26:\n        /* \"contracts/newdelegate/main.sol\":3728:3745  bytes memory data */\n      0x00\n        /* \"contracts/newdelegate/main.sol\":3791:3796  _name */\n      dup2\n        /* \"contracts/newdelegate/main.sol\":3748:3797  abi.encodeWithSignature(\"setName(string)\", _name) */\n      add(0x24, mload(0x40))\n      tag_62\n      swap2\n      swap1\n      tag_17\n      jump\t// in\n    tag_62:\n      mload(0x40)\n      0x20\n      dup2\n      dup4\n      sub\n      sub\n      dup2\n      mstore\n      swap1\n      0x40\n      mstore\n      and(not(0xffffffffffffffffffffffffffffffffffffffffffffffffffffffff), 0xc47f002700000000000000000000000000000000000000000000000000000000)\n      0x20\n      dup3\n      add\n      dup1\n      mload\n      0xffffffffffffffffffffffffffffffffffffffffffffffffffffffff\n      dup4\n      dup2\n      dup4\n      and\n      or\n      dup4\n      mstore\n      pop\n      pop\n      pop\n      pop\n        /* \"contracts/newdelegate/main.sol\":3728:3797  bytes memory data = abi.encodeWithSignature(\"setName(string)\", _name) */\n      swap1\n      pop\n        /* \"contracts/newdelegate/main.sol\":3809:3821  bool success */\n      0x00\n        /* \"contracts/newdelegate/main.sol\":3827:3834  moduleB */\n      dup4\n        /* \"contracts/newdelegate/main.sol\":3827:3847  moduleB.delegatecall */\n      0xffffffffffffffffffffffffffffffffffffffff\n      and\n        /* \"contracts/newdelegate/main.sol\":3848:3852  data */\n      dup3\n        /* \"contracts/newdelegate/main.sol\":3827:3853  moduleB.delegatecall(data) */\n      mload(0x40)\n      tag_63\n      swap2\n      swap1\n      tag_64\n      jump\t// in\n    tag_63:\n      0x00\n      mload(0x40)\n      dup1\n      dup4\n      sub\n      dup2\n      dup6\n      gas\n      delegatecall\n      swap2\n      pop\n      pop\n      returndatasize\n      dup1\n      0x00\n      dup2\n      eq\n      tag_67\n      jumpi\n      mload(0x40)\n      swap2\n      pop\n      and(add(returndatasize, 0x3f), not(0x1f))\n      dup3\n      add\n      0x40\n      mstore\n      returndatasize\n      dup3\n      mstore\n      returndatasize\n      0x00\n      0x20\n      dup5\n      add\n      returndatacopy\n      jump(tag_66)\n    tag_67:\n      0x60\n      swap2\n      pop\n    tag_66:\n      pop\n        /* \"contracts/newdelegate/main.sol\":3808:3853  (bool success, ) = moduleB.delegatecall(data) */\n      pop\n      swap1\n      pop\n        /* \"contracts/newdelegate/main.sol\":3872:3879  success */\n      dup1\n        /* \"contracts/newdelegate/main.sol\":3864:3898  require(success, \"setName failed\") */\n      tag_68\n      jumpi\n      mload(0x40)\n      0x08c379a000000000000000000000000000000000000000000000000000000000\n      dup2\n      mstore\n      0x04\n      add\n      tag_69\n      swap1\n      tag_70\n      jump\t// in\n    tag_69:\n      mload(0x40)\n      dup1\n      swap2\n      sub\n      swap1\n      revert\n    tag_68:\n        /* \"contracts/newdelegate/main.sol\":3717:3906  {... */\n      pop\n      pop\n        /* \"contracts/newdelegate/main.sol\":3653:3906  function setName(address moduleB, string memory _name) external {... */\n      pop\n      pop\n      jump\t// out\n        /* \"contracts/newdelegate/main.sol\":2059:2079  address public owner */\n    tag_29:\n      0x00\n      0x00\n      swap1\n      sload\n      swap1\n      0x0100\n      exp\n      swap1\n      div\n      0xffffffffffffffffffffffffffffffffffffffff\n      and\n      dup2\n      jump\t// out\n        /* \"contracts/newdelegate/main.sol\":2086:2105  uint public balance */\n    tag_34:\n      sload(0x01)\n      dup2\n      jump\t// out\n        /* \"contracts/newdelegate/main.sol\":4136:4394  function changeOwner(address moduleC, address _new) external {... */\n    tag_41:\n        /* \"contracts/newdelegate/main.sol\":4208:4225  bytes memory data */\n      0x00\n        /* \"contracts/newdelegate/main.sol\":4276:4280  _new */\n      dup2\n        /* \"contracts/newdelegate/main.sol\":4228:4281  abi.encodeWithSignature(\"changeOwner(address)\", _new) */\n      add(0x24, mload(0x40))\n      tag_72\n      swap2\n      swap1\n      tag_31\n      jump\t// in\n    tag_72:\n      mload(0x40)\n      0x20\n      dup2\n      dup4\n      sub\n      sub\n      dup2\n      mstore\n      swap1\n      0x40\n      mstore\n      and(not(0xffffffffffffffffffffffffffffffffffffffffffffffffffffffff), 0xa6f9dae100000000000000000000000000000000000000000000000000000000)\n      0x20\n      dup3\n      add\n      dup1\n      mload\n      0xffffffffffffffffffffffffffffffffffffffffffffffffffffffff\n      dup4\n      dup2\n      dup4\n      and\n      or\n      dup4\n      mstore\n      pop\n      pop\n      pop\n      pop\n        /* \"contracts/newdelegate/main.sol\":4208:4281  bytes memory data = abi.encodeWithSignature(\"changeOwner(address)\", _new) */\n      swap1\n      pop\n        /* \"contracts/newdelegate/main.sol\":4293:4305  bool success */\n      0x00\n        /* \"contracts/newdelegate/main.sol\":4311:4318  moduleC */\n      dup4\n        /* \"contracts/newdelegate/main.sol\":4311:4331  moduleC.delegatecall */\n      0xffffffffffffffffffffffffffffffffffffffff\n      and\n        /* \"contracts/newdelegate/main.sol\":4332:4336  data */\n      dup3\n        /* \"contracts/newdelegate/main.sol\":4311:4337  moduleC.delegatecall(data) */\n      mload(0x40)\n      tag_73\n      swap2\n      swap1\n      tag_64\n      jump\t// in\n    tag_73:\n      0x00\n      mload(0x40)\n      dup1\n      dup4\n      sub\n      dup2\n      dup6\n      gas\n      delegatecall\n      swap2\n      pop\n      pop\n      returndatasize\n      dup1\n      0x00\n      dup2\n      eq\n      tag_76\n      jumpi\n      mload(0x40)\n      swap2\n      pop\n      and(add(returndatasize, 0x3f), not(0x1f))\n      dup3\n      add\n      0x40\n      mstore\n      returndatasize\n      dup3\n      mstore\n      returndatasize\n      0x00\n      0x20\n      dup5\n      add\n      returndatacopy\n      jump(tag_75)\n    tag_76:\n      0x60\n      swap2\n      pop\n    tag_75:\n      pop\n        /* \"contracts/newdelegate/main.sol\":4292:4337  (bool success, ) = moduleC.delegatecall(data) */\n      pop\n      swap1\n      pop\n        /* \"contracts/newdelegate/main.sol\":4356:4363  success */\n      dup1\n        /* \"contracts/newdelegate/main.sol\":4348:4386  require(success, \"changeOwner failed\") */\n      tag_77\n      jumpi\n      mload(0x40)\n      0x08c379a000000000000000000000000000000000000000000000000000000000\n      dup2\n      mstore\n      0x04\n      add\n      tag_78\n      swap1\n      tag_79\n      jump\t// in\n    tag_78:\n      mload(0x40)\n      dup1\n      swap2\n      sub\n      swap1\n      revert\n    tag_77:\n        /* \"contracts/newdelegate/main.sol\":4197:4394  {... */\n      pop\n      pop\n        /* \"contracts/newdelegate/main.sol\":4136:4394  function changeOwner(address moduleC, address _new) external {... */\n      pop\n      pop\n      jump\t// out\n        /* \"contracts/newdelegate/main.sol\":3155:3382  function deposit(address moduleA) external payable {... */\n    tag_45:\n        /* \"contracts/newdelegate/main.sol\":3217:3234  bytes memory data */\n      0x00\n        /* \"contracts/newdelegate/main.sol\":3237:3273  abi.encodeWithSignature(\"deposit()\") */\n      add(0x24, mload(0x40))\n      mload(0x40)\n      0x20\n      dup2\n      dup4\n      sub\n      sub\n      dup2\n      mstore\n      swap1\n      0x40\n      mstore\n      and(not(0xffffffffffffffffffffffffffffffffffffffffffffffffffffffff), 0xd0e30db000000000000000000000000000000000000000000000000000000000)\n      0x20\n      dup3\n      add\n      dup1\n      mload\n      0xffffffffffffffffffffffffffffffffffffffffffffffffffffffff\n      dup4\n      dup2\n      dup4\n      and\n      or\n      dup4\n      mstore\n      pop\n      pop\n      pop\n      pop\n        /* \"contracts/newdelegate/main.sol\":3217:3273  bytes memory data = abi.encodeWithSignature(\"deposit()\") */\n      swap1\n      pop\n        /* \"contracts/newdelegate/main.sol\":3285:3297  bool success */\n      0x00\n        /* \"contracts/newdelegate/main.sol\":3303:3310  moduleA */\n      dup3\n        /* \"contracts/newdelegate/main.sol\":3303:3323  moduleA.delegatecall */\n      0xffffffffffffffffffffffffffffffffffffffff\n      and\n        /* \"contracts/newdelegate/main.sol\":3324:3328  data */\n      dup3\n        /* \"contracts/newdelegate/main.sol\":3303:3329  moduleA.delegatecall(data) */\n      mload(0x40)\n      tag_81\n      swap2\n      swap1\n      tag_64\n      jump\t// in\n    tag_81:\n      0x00\n      mload(0x40)\n      dup1\n      dup4\n      sub\n      dup2\n      dup6\n      gas\n      delegatecall\n      swap2\n      pop\n      pop\n      returndatasize\n      dup1\n      0x00\n      dup2\n      eq\n      tag_84\n      jumpi\n      mload(0x40)\n      swap2\n      pop\n      and(add(returndatasize, 0x3f), not(0x1f))\n      dup3\n      add\n      0x40\n      mstore\n      returndatasize\n      dup3\n      mstore\n      returndatasize\n      0x00\n      0x20\n      dup5\n      add\n      returndatacopy\n      jump(tag_83)\n    tag_84:\n      0x60\n      swap2\n      pop\n    tag_83:\n      pop\n        /* \"contracts/newdelegate/main.sol\":3284:3329  (bool success, ) = moduleA.delegatecall(data) */\n      pop\n      swap1\n      pop\n        /* \"contracts/newdelegate/main.sol\":3348:3355  success */\n      dup1\n        /* \"contracts/newdelegate/main.sol\":3340:3374  require(success, \"deposit failed\") */\n      tag_85\n      jumpi\n      mload(0x40)\n      0x08c379a000000000000000000000000000000000000000000000000000000000\n      dup2\n      mstore\n      0x04\n      add\n      tag_86\n      swap1\n      tag_87\n      jump\t// in\n    tag_86:\n      mload(0x40)\n      dup1\n      swap2\n      sub\n      swap1\n      revert\n    tag_85:\n        /* \"contracts/newdelegate/main.sol\":3206:3382  {... */\n      pop\n      pop\n        /* \"contracts/newdelegate/main.sol\":3155:3382  function deposit(address moduleA) external payable {... */\n      pop\n      jump\t// out\n        /* \"#utility.yul\":7:106   */\n    tag_88:\n        /* \"#utility.yul\":59:65   */\n      0x00\n        /* \"#utility.yul\":93:98   */\n      dup2\n        /* \"#utility.yul\":87:99   */\n      mload\n        /* \"#utility.yul\":77:99   */\n      swap1\n      pop\n        /* \"#utility.yul\":7:106   */\n      swap2\n      swap1\n      pop\n      jump\t// out\n        /* \"#utility.yul\":112:281   */\n    tag_89:\n        /* \"#utility.yul\":196:207   */\n      0x00\n        /* \"#utility.yul\":230:236   */\n      dup3\n        /* \"#utility.yul\":225:228   */\n      dup3\n        /* \"#utility.yul\":218:237   */\n      mstore\n        /* \"#utility.yul\":270:274   */\n      0x20\n        /* \"#utility.yul\":265:268   */\n      dup3\n        /* \"#utility.yul\":261:275   */\n      add\n        /* \"#utility.yul\":246:275   */\n      swap1\n      pop\n        /* \"#utility.yul\":112:281   */\n      swap3\n      swap2\n      pop\n      pop\n      jump\t// out\n        /* \"#utility.yul\":287:426   */\n    tag_90:\n        /* \"#utility.yul\":376:382   */\n      dup3\n        /* \"#utility.yul\":371:374   */\n      dup2\n        /* \"#utility.yul\":366:369   */\n      dup4\n        /* \"#utility.yul\":360:383   */\n      mcopy\n        /* \"#utility.yul\":417:418   */\n      0x00\n        /* \"#utility.yul\":408:414   */\n      dup4\n        /* \"#utility.yul\":403:406   */\n      dup4\n        /* \"#utility.yul\":399:415   */\n      add\n        /* \"#utility.yul\":392:419   */\n      mstore\n        /* \"#utility.yul\":287:426   */\n      pop\n      pop\n      pop\n      jump\t// out\n        /* \"#utility.yul\":432:534   */\n    tag_91:\n        /* \"#utility.yul\":473:479   */\n      0x00\n        /* \"#utility.yul\":524:526   */\n      0x1f\n        /* \"#utility.yul\":520:527   */\n      not\n        /* \"#utility.yul\":515:517   */\n      0x1f\n        /* \"#utility.yul\":508:513   */\n      dup4\n        /* \"#utility.yul\":504:518   */\n      add\n        /* \"#utility.yul\":500:528   */\n      and\n        /* \"#utility.yul\":490:528   */\n      swap1\n      pop\n        /* \"#utility.yul\":432:534   */\n      swap2\n      swap1\n      pop\n      jump\t// out\n        /* \"#utility.yul\":540:917   */\n    tag_92:\n        /* \"#utility.yul\":628:631   */\n      0x00\n        /* \"#utility.yul\":656:695   */\n      tag_134\n        /* \"#utility.yul\":689:694   */\n      dup3\n        /* \"#utility.yul\":656:695   */\n      tag_88\n      jump\t// in\n    tag_134:\n        /* \"#utility.yul\":711:782   */\n      tag_135\n        /* \"#utility.yul\":775:781   */\n      dup2\n        /* \"#utility.yul\":770:773   */\n      dup6\n        /* \"#utility.yul\":711:782   */\n      tag_89\n      jump\t// in\n    tag_135:\n        /* \"#utility.yul\":704:782   */\n      swap4\n      pop\n        /* \"#utility.yul\":791:856   */\n      tag_136\n        /* \"#utility.yul\":849:855   */\n      dup2\n        /* \"#utility.yul\":844:847   */\n      dup6\n        /* \"#utility.yul\":837:841   */\n      0x20\n        /* \"#utility.yul\":830:835   */\n      dup7\n        /* \"#utility.yul\":826:842   */\n      add\n        /* \"#utility.yul\":791:856   */\n      tag_90\n      jump\t// in\n    tag_136:\n        /* \"#utility.yul\":881:910   */\n      tag_137\n        /* \"#utility.yul\":903:909   */\n      dup2\n        /* \"#utility.yul\":881:910   */\n      tag_91\n      jump\t// in\n    tag_137:\n        /* \"#utility.yul\":876:879   */\n      dup5\n        /* \"#utility.yul\":872:911   */\n      add\n        /* \"#utility.yul\":865:911   */\n      swap2\n      pop\n        /* \"#utility.yul\":632:917   */\n      pop\n        /* \"#utility.yul\":540:917   */\n      swap3\n      swap2\n      pop\n      pop\n      jump\t// out\n        /* \"#utility.yul\":923:1236   */\n    tag_17:\n        /* \"#utility.yul\":1036:1040   */\n      0x00\n        /* \"#utility.yul\":1074:1076   */\n      0x20\n        /* \"#utility.yul\":1063:1072   */\n      dup3\n        /* \"#utility.yul\":1059:1077   */\n      add\n        /* \"#utility.yul\":1051:1077   */\n      swap1\n      pop\n        /* \"#utility.yul\":1123:1132   */\n      dup2\n        /* \"#utility.yul\":1117:1121   */\n      dup2\n        /* \"#utility.yul\":1113:1133   */\n      sub\n        /* \"#utility.yul\":1109:1110   */\n      0x00\n        /* \"#utility.yul\":1098:1107   */\n      dup4\n        /* \"#utility.yul\":1094:1111   */\n      add\n        /* \"#utility.yul\":1087:1134   */\n      mstore\n        /* \"#utility.yul\":1151:1229   */\n      tag_139\n        /* \"#utility.yul\":1224:1228   */\n      dup2\n        /* \"#utility.yul\":1215:1221   */\n      dup5\n        /* \"#utility.yul\":1151:1229   */\n      tag_92\n      jump\t// in\n    tag_139:\n        /* \"#utility.yul\":1143:1229   */\n      swap1\n      pop\n        /* \"#utility.yul\":923:1236   */\n      swap3\n      swap2\n      pop\n      pop\n      jump\t// out\n        /* \"#utility.yul\":1242:1317   */\n    tag_93:\n        /* \"#utility.yul\":1275:1281   */\n      0x00\n        /* \"#utility.yul\":1308:1310   */\n      0x40\n        /* \"#utility.yul\":1302:1311   */\n      mload\n        /* \"#utility.yul\":1292:1311   */\n      swap1\n      pop\n        /* \"#utility.yul\":1242:1317   */\n      swap1\n      jump\t// out\n        /* \"#utility.yul\":1323:1440   */\n    tag_94:\n        /* \"#utility.yul\":1432:1433   */\n      0x00\n        /* \"#utility.yul\":1429:1430   */\n      0x00\n        /* \"#utility.yul\":1422:1434   */\n      revert\n        /* \"#utility.yul\":1446:1563   */\n    tag_95:\n        /* \"#utility.yul\":1555:1556   */\n      0x00\n        /* \"#utility.yul\":1552:1553   */\n      0x00\n        /* \"#utility.yul\":1545:1557   */\n      revert\n        /* \"#utility.yul\":1569:1695   */\n    tag_96:\n        /* \"#utility.yul\":1606:1613   */\n      0x00\n        /* \"#utility.yul\":1646:1688   */\n      0xffffffffffffffffffffffffffffffffffffffff\n        /* \"#utility.yul\":1639:1644   */\n      dup3\n        /* \"#utility.yul\":1635:1689   */\n      and\n        /* \"#utility.yul\":1624:1689   */\n      swap1\n      pop\n        /* \"#utility.yul\":1569:1695   */\n      swap2\n      swap1\n      pop\n      jump\t// out\n        /* \"#utility.yul\":1701:1797   */\n    tag_97:\n        /* \"#utility.yul\":1738:1745   */\n      0x00\n        /* \"#utility.yul\":1767:1791   */\n      tag_145\n        /* \"#utility.yul\":1785:1790   */\n      dup3\n        /* \"#utility.yul\":1767:1791   */\n      tag_96\n      jump\t// in\n    tag_145:\n        /* \"#utility.yul\":1756:1791   */\n      swap1\n      pop\n        /* \"#utility.yul\":1701:1797   */\n      swap2\n      swap1\n      pop\n      jump\t// out\n        /* \"#utility.yul\":1803:1925   */\n    tag_98:\n        /* \"#utility.yul\":1876:1900   */\n      tag_147\n        /* \"#utility.yul\":1894:1899   */\n      dup2\n        /* \"#utility.yul\":1876:1900   */\n      tag_97\n      jump\t// in\n    tag_147:\n        /* \"#utility.yul\":1869:1874   */\n      dup2\n        /* \"#utility.yul\":1866:1901   */\n      eq\n        /* \"#utility.yul\":1856:1919   */\n      tag_148\n      jumpi\n        /* \"#utility.yul\":1915:1916   */\n      0x00\n        /* \"#utility.yul\":1912:1913   */\n      0x00\n        /* \"#utility.yul\":1905:1917   */\n      revert\n        /* \"#utility.yul\":1856:1919   */\n    tag_148:\n        /* \"#utility.yul\":1803:1925   */\n      pop\n      jump\t// out\n        /* \"#utility.yul\":1931:2070   */\n    tag_99:\n        /* \"#utility.yul\":1977:1982   */\n      0x00\n        /* \"#utility.yul\":2015:2021   */\n      dup2\n        /* \"#utility.yul\":2002:2022   */\n      calldataload\n        /* \"#utility.yul\":1993:2022   */\n      swap1\n      pop\n        /* \"#utility.yul\":2031:2064   */\n      tag_150\n        /* \"#utility.yul\":2058:2063   */\n      dup2\n        /* \"#utility.yul\":2031:2064   */\n      tag_98\n      jump\t// in\n    tag_150:\n        /* \"#utility.yul\":1931:2070   */\n      swap3\n      swap2\n      pop\n      pop\n      jump\t// out\n        /* \"#utility.yul\":2076:2193   */\n    tag_100:\n        /* \"#utility.yul\":2185:2186   */\n      0x00\n        /* \"#utility.yul\":2182:2183   */\n      0x00\n        /* \"#utility.yul\":2175:2187   */\n      revert\n        /* \"#utility.yul\":2199:2316   */\n    tag_101:\n        /* \"#utility.yul\":2308:2309   */\n      0x00\n        /* \"#utility.yul\":2305:2306   */\n      0x00\n        /* \"#utility.yul\":2298:2310   */\n      revert\n        /* \"#utility.yul\":2322:2439   */\n    tag_102:\n        /* \"#utility.yul\":2431:2432   */\n      0x00\n        /* \"#utility.yul\":2428:2429   */\n      0x00\n        /* \"#utility.yul\":2421:2433   */\n      revert\n        /* \"#utility.yul\":2458:3010   */\n    tag_103:\n        /* \"#utility.yul\":2515:2523   */\n      0x00\n        /* \"#utility.yul\":2525:2531   */\n      0x00\n        /* \"#utility.yul\":2575:2578   */\n      dup4\n        /* \"#utility.yul\":2568:2572   */\n      0x1f\n        /* \"#utility.yul\":2560:2566   */\n      dup5\n        /* \"#utility.yul\":2556:2573   */\n      add\n        /* \"#utility.yul\":2552:2579   */\n      slt\n        /* \"#utility.yul\":2542:2664   */\n      tag_155\n      jumpi\n        /* \"#utility.yul\":2583:2662   */\n      tag_156\n      tag_100\n      jump\t// in\n    tag_156:\n        /* \"#utility.yul\":2542:2664   */\n    tag_155:\n        /* \"#utility.yul\":2696:2702   */\n      dup3\n        /* \"#utility.yul\":2683:2703   */\n      calldataload\n        /* \"#utility.yul\":2673:2703   */\n      swap1\n      pop\n        /* \"#utility.yul\":2726:2744   */\n      0xffffffffffffffff\n        /* \"#utility.yul\":2718:2724   */\n      dup2\n        /* \"#utility.yul\":2715:2745   */\n      gt\n        /* \"#utility.yul\":2712:2829   */\n      iszero\n      tag_157\n      jumpi\n        /* \"#utility.yul\":2748:2827   */\n      tag_158\n      tag_101\n      jump\t// in\n    tag_158:\n        /* \"#utility.yul\":2712:2829   */\n    tag_157:\n        /* \"#utility.yul\":2862:2866   */\n      0x20\n        /* \"#utility.yul\":2854:2860   */\n      dup4\n        /* \"#utility.yul\":2850:2867   */\n      add\n        /* \"#utility.yul\":2838:2867   */\n      swap2\n      pop\n        /* \"#utility.yul\":2916:2919   */\n      dup4\n        /* \"#utility.yul\":2908:2912   */\n      0x01\n        /* \"#utility.yul\":2900:2906   */\n      dup3\n        /* \"#utility.yul\":2896:2913   */\n      mul\n        /* \"#utility.yul\":2886:2894   */\n      dup4\n        /* \"#utility.yul\":2882:2914   */\n      add\n        /* \"#utility.yul\":2879:2920   */\n      gt\n        /* \"#utility.yul\":2876:3004   */\n      iszero\n      tag_159\n      jumpi\n        /* \"#utility.yul\":2923:3002   */\n      tag_160\n      tag_102\n      jump\t// in\n    tag_160:\n        /* \"#utility.yul\":2876:3004   */\n    tag_159:\n        /* \"#utility.yul\":2458:3010   */\n      swap3\n      pop\n      swap3\n      swap1\n      pop\n      jump\t// out\n        /* \"#utility.yul\":3016:3688   */\n    tag_20:\n        /* \"#utility.yul\":3095:3101   */\n      0x00\n        /* \"#utility.yul\":3103:3109   */\n      0x00\n        /* \"#utility.yul\":3111:3117   */\n      0x00\n        /* \"#utility.yul\":3160:3162   */\n      0x40\n        /* \"#utility.yul\":3148:3157   */\n      dup5\n        /* \"#utility.yul\":3139:3146   */\n      dup7\n        /* \"#utility.yul\":3135:3158   */\n      sub\n        /* \"#utility.yul\":3131:3163   */\n      slt\n        /* \"#utility.yul\":3128:3247   */\n      iszero\n      tag_162\n      jumpi\n        /* \"#utility.yul\":3166:3245   */\n      tag_163\n      tag_94\n      jump\t// in\n    tag_163:\n        /* \"#utility.yul\":3128:3247   */\n    tag_162:\n        /* \"#utility.yul\":3286:3287   */\n      0x00\n        /* \"#utility.yul\":3311:3364   */\n      tag_164\n        /* \"#utility.yul\":3356:3363   */\n      dup7\n        /* \"#utility.yul\":3347:3353   */\n      dup3\n        /* \"#utility.yul\":3336:3345   */\n      dup8\n        /* \"#utility.yul\":3332:3354   */\n      add\n        /* \"#utility.yul\":3311:3364   */\n      tag_99\n      jump\t// in\n    tag_164:\n        /* \"#utility.yul\":3301:3364   */\n      swap4\n      pop\n        /* \"#utility.yul\":3257:3374   */\n      pop\n        /* \"#utility.yul\":3441:3443   */\n      0x20\n        /* \"#utility.yul\":3430:3439   */\n      dup5\n        /* \"#utility.yul\":3426:3444   */\n      add\n        /* \"#utility.yul\":3413:3445   */\n      calldataload\n        /* \"#utility.yul\":3472:3490   */\n      0xffffffffffffffff\n        /* \"#utility.yul\":3464:3470   */\n      dup2\n        /* \"#utility.yul\":3461:3491   */\n      gt\n        /* \"#utility.yul\":3458:3575   */\n      iszero\n      tag_165\n      jumpi\n        /* \"#utility.yul\":3494:3573   */\n      tag_166\n      tag_95\n      jump\t// in\n    tag_166:\n        /* \"#utility.yul\":3458:3575   */\n    tag_165:\n        /* \"#utility.yul\":3607:3671   */\n      tag_167\n        /* \"#utility.yul\":3663:3670   */\n      dup7\n        /* \"#utility.yul\":3654:3660   */\n      dup3\n        /* \"#utility.yul\":3643:3652   */\n      dup8\n        /* \"#utility.yul\":3639:3661   */\n      add\n        /* \"#utility.yul\":3607:3671   */\n      tag_103\n      jump\t// in\n    tag_167:\n        /* \"#utility.yul\":3589:3671   */\n      swap3\n      pop\n      swap3\n      pop\n        /* \"#utility.yul\":3384:3681   */\n      pop\n        /* \"#utility.yul\":3016:3688   */\n      swap3\n      pop\n      swap3\n      pop\n      swap3\n      jump\t// out\n        /* \"#utility.yul\":3694:3811   */\n    tag_104:\n        /* \"#utility.yul\":3803:3804   */\n      0x00\n        /* \"#utility.yul\":3800:3801   */\n      0x00\n        /* \"#utility.yul\":3793:3805   */\n      revert\n        /* \"#utility.yul\":3817:3997   */\n    tag_105:\n        /* \"#utility.yul\":3865:3942   */\n      0x4e487b7100000000000000000000000000000000000000000000000000000000\n        /* \"#utility.yul\":3862:3863   */\n      0x00\n        /* \"#utility.yul\":3855:3943   */\n      mstore\n        /* \"#utility.yul\":3962:3966   */\n      0x41\n        /* \"#utility.yul\":3959:3960   */\n      0x04\n        /* \"#utility.yul\":3952:3967   */\n      mstore\n        /* \"#utility.yul\":3986:3990   */\n      0x24\n        /* \"#utility.yul\":3983:3984   */\n      0x00\n        /* \"#utility.yul\":3976:3991   */\n      revert\n        /* \"#utility.yul\":4003:4284   */\n    tag_106:\n        /* \"#utility.yul\":4086:4113   */\n      tag_171\n        /* \"#utility.yul\":4108:4112   */\n      dup3\n        /* \"#utility.yul\":4086:4113   */\n      tag_91\n      jump\t// in\n    tag_171:\n        /* \"#utility.yul\":4078:4084   */\n      dup2\n        /* \"#utility.yul\":4074:4114   */\n      add\n        /* \"#utility.yul\":4216:4222   */\n      dup2\n        /* \"#utility.yul\":4204:4214   */\n      dup2\n        /* \"#utility.yul\":4201:4223   */\n      lt\n        /* \"#utility.yul\":4180:4198   */\n      0xffffffffffffffff\n        /* \"#utility.yul\":4168:4178   */\n      dup3\n        /* \"#utility.yul\":4165:4199   */\n      gt\n        /* \"#utility.yul\":4162:4224   */\n      or\n        /* \"#utility.yul\":4159:4247   */\n      iszero\n      tag_172\n      jumpi\n        /* \"#utility.yul\":4227:4245   */\n      tag_173\n      tag_105\n      jump\t// in\n    tag_173:\n        /* \"#utility.yul\":4159:4247   */\n    tag_172:\n        /* \"#utility.yul\":4267:4277   */\n      dup1\n        /* \"#utility.yul\":4263:4265   */\n      0x40\n        /* \"#utility.yul\":4256:4278   */\n      mstore\n        /* \"#utility.yul\":4046:4284   */\n      pop\n        /* \"#utility.yul\":4003:4284   */\n      pop\n      pop\n      jump\t// out\n        /* \"#utility.yul\":4290:4419   */\n    tag_107:\n        /* \"#utility.yul\":4324:4330   */\n      0x00\n        /* \"#utility.yul\":4351:4371   */\n      tag_175\n      tag_93\n      jump\t// in\n    tag_175:\n        /* \"#utility.yul\":4341:4371   */\n      swap1\n      pop\n        /* \"#utility.yul\":4380:4413   */\n      tag_176\n        /* \"#utility.yul\":4408:4412   */\n      dup3\n        /* \"#utility.yul\":4400:4406   */\n      dup3\n        /* \"#utility.yul\":4380:4413   */\n      tag_106\n      jump\t// in\n    tag_176:\n        /* \"#utility.yul\":4290:4419   */\n      swap2\n      swap1\n      pop\n      jump\t// out\n        /* \"#utility.yul\":4425:4733   */\n    tag_108:\n        /* \"#utility.yul\":4487:4491   */\n      0x00\n        /* \"#utility.yul\":4577:4595   */\n      0xffffffffffffffff\n        /* \"#utility.yul\":4569:4575   */\n      dup3\n        /* \"#utility.yul\":4566:4596   */\n      gt\n        /* \"#utility.yul\":4563:4619   */\n      iszero\n      tag_178\n      jumpi\n        /* \"#utility.yul\":4599:4617   */\n      tag_179\n      tag_105\n      jump\t// in\n    tag_179:\n        /* \"#utility.yul\":4563:4619   */\n    tag_178:\n        /* \"#utility.yul\":4637:4666   */\n      tag_180\n        /* \"#utility.yul\":4659:4665   */\n      dup3\n        /* \"#utility.yul\":4637:4666   */\n      tag_91\n      jump\t// in\n    tag_180:\n        /* \"#utility.yul\":4629:4666   */\n      swap1\n      pop\n        /* \"#utility.yul\":4721:4725   */\n      0x20\n        /* \"#utility.yul\":4715:4719   */\n      dup2\n        /* \"#utility.yul\":4711:4726   */\n      add\n        /* \"#utility.yul\":4703:4726   */\n      swap1\n      pop\n        /* \"#utility.yul\":4425:4733   */\n      swap2\n      swap1\n      pop\n      jump\t// out\n        /* \"#utility.yul\":4739:4887   */\n    tag_109:\n        /* \"#utility.yul\":4837:4843   */\n      dup3\n        /* \"#utility.yul\":4832:4835   */\n      dup2\n        /* \"#utility.yul\":4827:4830   */\n      dup4\n        /* \"#utility.yul\":4814:4844   */\n      calldatacopy\n        /* \"#utility.yul\":4878:4879   */\n      0x00\n        /* \"#utility.yul\":4869:4875   */\n      dup4\n        /* \"#utility.yul\":4864:4867   */\n      dup4\n        /* \"#utility.yul\":4860:4876   */\n      add\n        /* \"#utility.yul\":4853:4880   */\n      mstore\n        /* \"#utility.yul\":4739:4887   */\n      pop\n      pop\n      pop\n      jump\t// out\n        /* \"#utility.yul\":4893:5318   */\n    tag_110:\n        /* \"#utility.yul\":4971:4976   */\n      0x00\n        /* \"#utility.yul\":4996:5062   */\n      tag_183\n        /* \"#utility.yul\":5012:5061   */\n      tag_184\n        /* \"#utility.yul\":5054:5060   */\n      dup5\n        /* \"#utility.yul\":5012:5061   */\n      tag_108\n      jump\t// in\n    tag_184:\n        /* \"#utility.yul\":4996:5062   */\n      tag_107\n      jump\t// in\n    tag_183:\n        /* \"#utility.yul\":4987:5062   */\n      swap1\n      pop\n        /* \"#utility.yul\":5085:5091   */\n      dup3\n        /* \"#utility.yul\":5078:5083   */\n      dup2\n        /* \"#utility.yul\":5071:5092   */\n      mstore\n        /* \"#utility.yul\":5123:5127   */\n      0x20\n        /* \"#utility.yul\":5116:5121   */\n      dup2\n        /* \"#utility.yul\":5112:5128   */\n      add\n        /* \"#utility.yul\":5161:5164   */\n      dup5\n        /* \"#utility.yul\":5152:5158   */\n      dup5\n        /* \"#utility.yul\":5147:5150   */\n      dup5\n        /* \"#utility.yul\":5143:5159   */\n      add\n        /* \"#utility.yul\":5140:5165   */\n      gt\n        /* \"#utility.yul\":5137:5249   */\n      iszero\n      tag_185\n      jumpi\n        /* \"#utility.yul\":5168:5247   */\n      tag_186\n      tag_104\n      jump\t// in\n    tag_186:\n        /* \"#utility.yul\":5137:5249   */\n    tag_185:\n        /* \"#utility.yul\":5258:5312   */\n      tag_187\n        /* \"#utility.yul\":5305:5311   */\n      dup5\n        /* \"#utility.yul\":5300:5303   */\n      dup3\n        /* \"#utility.yul\":5295:5298   */\n      dup6\n        /* \"#utility.yul\":5258:5312   */\n      tag_109\n      jump\t// in\n    tag_187:\n        /* \"#utility.yul\":4977:5318   */\n      pop\n        /* \"#utility.yul\":4893:5318   */\n      swap4\n      swap3\n      pop\n      pop\n      pop\n      jump\t// out\n        /* \"#utility.yul\":5338:5678   */\n    tag_111:\n        /* \"#utility.yul\":5394:5399   */\n      0x00\n        /* \"#utility.yul\":5443:5446   */\n      dup3\n        /* \"#utility.yul\":5436:5440   */\n      0x1f\n        /* \"#utility.yul\":5428:5434   */\n      dup4\n        /* \"#utility.yul\":5424:5441   */\n      add\n        /* \"#utility.yul\":5420:5447   */\n      slt\n        /* \"#utility.yul\":5410:5532   */\n      tag_189\n      jumpi\n        /* \"#utility.yul\":5451:5530   */\n      tag_190\n      tag_100\n      jump\t// in\n    tag_190:\n        /* \"#utility.yul\":5410:5532   */\n    tag_189:\n        /* \"#utility.yul\":5568:5574   */\n      dup2\n        /* \"#utility.yul\":5555:5575   */\n      calldataload\n        /* \"#utility.yul\":5593:5672   */\n      tag_191\n        /* \"#utility.yul\":5668:5671   */\n      dup5\n        /* \"#utility.yul\":5660:5666   */\n      dup3\n        /* \"#utility.yul\":5653:5657   */\n      0x20\n        /* \"#utility.yul\":5645:5651   */\n      dup7\n        /* \"#utility.yul\":5641:5658   */\n      add\n        /* \"#utility.yul\":5593:5672   */\n      tag_110\n      jump\t// in\n    tag_191:\n        /* \"#utility.yul\":5584:5672   */\n      swap2\n      pop\n        /* \"#utility.yul\":5400:5678   */\n      pop\n        /* \"#utility.yul\":5338:5678   */\n      swap3\n      swap2\n      pop\n      pop\n      jump\t// out\n        /* \"#utility.yul\":5684:6338   */\n    tag_25:\n        /* \"#utility.yul\":5762:5768   */\n      0x00\n        /* \"#utility.yul\":5770:5776   */\n      0x00\n        /* \"#utility.yul\":5819:5821   */\n      0x40\n        /* \"#utility.yul\":5807:5816   */\n      dup4\n        /* \"#utility.yul\":5798:5805   */\n      dup6\n        /* \"#utility.yul\":5794:5817   */\n      sub\n        /* \"#utility.yul\":5790:5822   */\n      slt\n        /* \"#utility.yul\":5787:5906   */\n      iszero\n      tag_193\n      jumpi\n        /* \"#utility.yul\":5825:5904   */\n      tag_194\n      tag_94\n      jump\t// in\n    tag_194:\n        /* \"#utility.yul\":5787:5906   */\n    tag_193:\n        /* \"#utility.yul\":5945:5946   */\n      0x00\n        /* \"#utility.yul\":5970:6023   */\n      tag_195\n        /* \"#utility.yul\":6015:6022   */\n      dup6\n        /* \"#utility.yul\":6006:6012   */\n      dup3\n        /* \"#utility.yul\":5995:6004   */\n      dup7\n        /* \"#utility.yul\":5991:6013   */\n      add\n        /* \"#utility.yul\":5970:6023   */\n      tag_99\n      jump\t// in\n    tag_195:\n        /* \"#utility.yul\":5960:6023   */\n      swap3\n      pop\n        /* \"#utility.yul\":5916:6033   */\n      pop\n        /* \"#utility.yul\":6100:6102   */\n      0x20\n        /* \"#utility.yul\":6089:6098   */\n      dup4\n        /* \"#utility.yul\":6085:6103   */\n      add\n        /* \"#utility.yul\":6072:6104   */\n      calldataload\n        /* \"#utility.yul\":6131:6149   */\n      0xffffffffffffffff\n        /* \"#utility.yul\":6123:6129   */\n      dup2\n        /* \"#utility.yul\":6120:6150   */\n      gt\n        /* \"#utility.yul\":6117:6234   */\n      iszero\n      tag_196\n      jumpi\n        /* \"#utility.yul\":6153:6232   */\n      tag_197\n      tag_95\n      jump\t// in\n    tag_197:\n        /* \"#utility.yul\":6117:6234   */\n    tag_196:\n        /* \"#utility.yul\":6258:6321   */\n      tag_198\n        /* \"#utility.yul\":6313:6320   */\n      dup6\n        /* \"#utility.yul\":6304:6310   */\n      dup3\n        /* \"#utility.yul\":6293:6302   */\n      dup7\n        /* \"#utility.yul\":6289:6311   */\n      add\n        /* \"#utility.yul\":6258:6321   */\n      tag_111\n      jump\t// in\n    tag_198:\n        /* \"#utility.yul\":6248:6321   */\n      swap2\n      pop\n        /* \"#utility.yul\":6043:6331   */\n      pop\n        /* \"#utility.yul\":5684:6338   */\n      swap3\n      pop\n      swap3\n      swap1\n      pop\n      jump\t// out\n        /* \"#utility.yul\":6344:6462   */\n    tag_112:\n        /* \"#utility.yul\":6431:6455   */\n      tag_200\n        /* \"#utility.yul\":6449:6454   */\n      dup2\n        /* \"#utility.yul\":6431:6455   */\n      tag_97\n      jump\t// in\n    tag_200:\n        /* \"#utility.yul\":6426:6429   */\n      dup3\n        /* \"#utility.yul\":6419:6456   */\n      mstore\n        /* \"#utility.yul\":6344:6462   */\n      pop\n      pop\n      jump\t// out\n        /* \"#utility.yul\":6468:6690   */\n    tag_31:\n        /* \"#utility.yul\":6561:6565   */\n      0x00\n        /* \"#utility.yul\":6599:6601   */\n      0x20\n        /* \"#utility.yul\":6588:6597   */\n      dup3\n        /* \"#utility.yul\":6584:6602   */\n      add\n        /* \"#utility.yul\":6576:6602   */\n      swap1\n      pop\n        /* \"#utility.yul\":6612:6683   */\n      tag_202\n        /* \"#utility.yul\":6680:6681   */\n      0x00\n        /* \"#utility.yul\":6669:6678   */\n      dup4\n        /* \"#utility.yul\":6665:6682   */\n      add\n        /* \"#utility.yul\":6656:6662   */\n      dup5\n        /* \"#utility.yul\":6612:6683   */\n      tag_112\n      jump\t// in\n    tag_202:\n        /* \"#utility.yul\":6468:6690   */\n      swap3\n      swap2\n      pop\n      pop\n      jump\t// out\n        /* \"#utility.yul\":6696:6773   */\n    tag_113:\n        /* \"#utility.yul\":6733:6740   */\n      0x00\n        /* \"#utility.yul\":6762:6767   */\n      dup2\n        /* \"#utility.yul\":6751:6767   */\n      swap1\n      pop\n        /* \"#utility.yul\":6696:6773   */\n      swap2\n      swap1\n      pop\n      jump\t// out\n        /* \"#utility.yul\":6779:6897   */\n    tag_114:\n        /* \"#utility.yul\":6866:6890   */\n      tag_205\n        /* \"#utility.yul\":6884:6889   */\n      dup2\n        /* \"#utility.yul\":6866:6890   */\n      tag_113\n      jump\t// in\n    tag_205:\n        /* \"#utility.yul\":6861:6864   */\n      dup3\n        /* \"#utility.yul\":6854:6891   */\n      mstore\n        /* \"#utility.yul\":6779:6897   */\n      pop\n      pop\n      jump\t// out\n        /* \"#utility.yul\":6903:7125   */\n    tag_36:\n        /* \"#utility.yul\":6996:7000   */\n      0x00\n        /* \"#utility.yul\":7034:7036   */\n      0x20\n        /* \"#utility.yul\":7023:7032   */\n      dup3\n        /* \"#utility.yul\":7019:7037   */\n      add\n        /* \"#utility.yul\":7011:7037   */\n      swap1\n      pop\n        /* \"#utility.yul\":7047:7118   */\n      tag_207\n        /* \"#utility.yul\":7115:7116   */\n      0x00\n        /* \"#utility.yul\":7104:7113   */\n      dup4\n        /* \"#utility.yul\":7100:7117   */\n      add\n        /* \"#utility.yul\":7091:7097   */\n      dup5\n        /* \"#utility.yul\":7047:7118   */\n      tag_114\n      jump\t// in\n    tag_207:\n        /* \"#utility.yul\":6903:7125   */\n      swap3\n      swap2\n      pop\n      pop\n      jump\t// out\n        /* \"#utility.yul\":7131:7605   */\n    tag_40:\n        /* \"#utility.yul\":7199:7205   */\n      0x00\n        /* \"#utility.yul\":7207:7213   */\n      0x00\n        /* \"#utility.yul\":7256:7258   */\n      0x40\n        /* \"#utility.yul\":7244:7253   */\n      dup4\n        /* \"#utility.yul\":7235:7242   */\n      dup6\n        /* \"#utility.yul\":7231:7254   */\n      sub\n        /* \"#utility.yul\":7227:7259   */\n      slt\n        /* \"#utility.yul\":7224:7343   */\n      iszero\n      tag_209\n      jumpi\n        /* \"#utility.yul\":7262:7341   */\n      tag_210\n      tag_94\n      jump\t// in\n    tag_210:\n        /* \"#utility.yul\":7224:7343   */\n    tag_209:\n        /* \"#utility.yul\":7382:7383   */\n      0x00\n        /* \"#utility.yul\":7407:7460   */\n      tag_211\n        /* \"#utility.yul\":7452:7459   */\n      dup6\n        /* \"#utility.yul\":7443:7449   */\n      dup3\n        /* \"#utility.yul\":7432:7441   */\n      dup7\n        /* \"#utility.yul\":7428:7450   */\n      add\n        /* \"#utility.yul\":7407:7460   */\n      tag_99\n      jump\t// in\n    tag_211:\n        /* \"#utility.yul\":7397:7460   */\n      swap3\n      pop\n        /* \"#utility.yul\":7353:7470   */\n      pop\n        /* \"#utility.yul\":7509:7511   */\n      0x20\n        /* \"#utility.yul\":7535:7588   */\n      tag_212\n        /* \"#utility.yul\":7580:7587   */\n      dup6\n        /* \"#utility.yul\":7571:7577   */\n      dup3\n        /* \"#utility.yul\":7560:7569   */\n      dup7\n        /* \"#utility.yul\":7556:7578   */\n      add\n        /* \"#utility.yul\":7535:7588   */\n      tag_99\n      jump\t// in\n    tag_212:\n        /* \"#utility.yul\":7525:7588   */\n      swap2\n      pop\n        /* \"#utility.yul\":7480:7598   */\n      pop\n        /* \"#utility.yul\":7131:7605   */\n      swap3\n      pop\n      swap3\n      swap1\n      pop\n      jump\t// out\n        /* \"#utility.yul\":7611:7940   */\n    tag_44:\n        /* \"#utility.yul\":7670:7676   */\n      0x00\n        /* \"#utility.yul\":7719:7721   */\n      0x20\n        /* \"#utility.yul\":7707:7716   */\n      dup3\n        /* \"#utility.yul\":7698:7705   */\n      dup5\n        /* \"#utility.yul\":7694:7717   */\n      sub\n        /* \"#utility.yul\":7690:7722   */\n      slt\n        /* \"#utility.yul\":7687:7806   */\n      iszero\n      tag_214\n      jumpi\n        /* \"#utility.yul\":7725:7804   */\n      tag_215\n      tag_94\n      jump\t// in\n    tag_215:\n        /* \"#utility.yul\":7687:7806   */\n    tag_214:\n        /* \"#utility.yul\":7845:7846   */\n      0x00\n        /* \"#utility.yul\":7870:7923   */\n      tag_216\n        /* \"#utility.yul\":7915:7922   */\n      dup5\n        /* \"#utility.yul\":7906:7912   */\n      dup3\n        /* \"#utility.yul\":7895:7904   */\n      dup6\n        /* \"#utility.yul\":7891:7913   */\n      add\n        /* \"#utility.yul\":7870:7923   */\n      tag_99\n      jump\t// in\n    tag_216:\n        /* \"#utility.yul\":7860:7923   */\n      swap2\n      pop\n        /* \"#utility.yul\":7816:7933   */\n      pop\n        /* \"#utility.yul\":7611:7940   */\n      swap3\n      swap2\n      pop\n      pop\n      jump\t// out\n        /* \"#utility.yul\":7946:8126   */\n    tag_115:\n        /* \"#utility.yul\":7994:8071   */\n      0x4e487b7100000000000000000000000000000000000000000000000000000000\n        /* \"#utility.yul\":7991:7992   */\n      0x00\n        /* \"#utility.yul\":7984:8072   */\n      mstore\n        /* \"#utility.yul\":8091:8095   */\n      0x22\n        /* \"#utility.yul\":8088:8089   */\n      0x04\n        /* \"#utility.yul\":8081:8096   */\n      mstore\n        /* \"#utility.yul\":8115:8119   */\n      0x24\n        /* \"#utility.yul\":8112:8113   */\n      0x00\n        /* \"#utility.yul\":8105:8120   */\n      revert\n        /* \"#utility.yul\":8132:8452   */\n    tag_47:\n        /* \"#utility.yul\":8176:8182   */\n      0x00\n        /* \"#utility.yul\":8213:8214   */\n      0x02\n        /* \"#utility.yul\":8207:8211   */\n      dup3\n        /* \"#utility.yul\":8203:8215   */\n      div\n        /* \"#utility.yul\":8193:8215   */\n      swap1\n      pop\n        /* \"#utility.yul\":8260:8261   */\n      0x01\n        /* \"#utility.yul\":8254:8258   */\n      dup3\n        /* \"#utility.yul\":8250:8262   */\n      and\n        /* \"#utility.yul\":8281:8299   */\n      dup1\n        /* \"#utility.yul\":8271:8352   */\n      tag_219\n      jumpi\n        /* \"#utility.yul\":8337:8341   */\n      0x7f\n        /* \"#utility.yul\":8329:8335   */\n      dup3\n        /* \"#utility.yul\":8325:8342   */\n      and\n        /* \"#utility.yul\":8315:8342   */\n      swap2\n      pop\n        /* \"#utility.yul\":8271:8352   */\n    tag_219:\n        /* \"#utility.yul\":8399:8401   */\n      0x20\n        /* \"#utility.yul\":8391:8397   */\n      dup3\n        /* \"#utility.yul\":8388:8402   */\n      lt\n        /* \"#utility.yul\":8368:8386   */\n      dup2\n        /* \"#utility.yul\":8365:8403   */\n      sub\n        /* \"#utility.yul\":8362:8446   */\n      tag_220\n      jumpi\n        /* \"#utility.yul\":8418:8436   */\n      tag_221\n      tag_115\n      jump\t// in\n    tag_221:\n        /* \"#utility.yul\":8362:8446   */\n    tag_220:\n        /* \"#utility.yul\":8183:8452   */\n      pop\n        /* \"#utility.yul\":8132:8452   */\n      swap2\n      swap1\n      pop\n      jump\t// out\n        /* \"#utility.yul\":8458:8605   */\n    tag_116:\n        /* \"#utility.yul\":8559:8570   */\n      0x00\n        /* \"#utility.yul\":8596:8599   */\n      dup2\n        /* \"#utility.yul\":8581:8599   */\n      swap1\n      pop\n        /* \"#utility.yul\":8458:8605   */\n      swap3\n      swap2\n      pop\n      pop\n      jump\t// out\n        /* \"#utility.yul\":8633:8960   */\n    tag_117:\n        /* \"#utility.yul\":8747:8750   */\n      0x00\n        /* \"#utility.yul\":8768:8856   */\n      tag_224\n        /* \"#utility.yul\":8849:8855   */\n      dup4\n        /* \"#utility.yul\":8844:8847   */\n      dup6\n        /* \"#utility.yul\":8768:8856   */\n      tag_116\n      jump\t// in\n    tag_224:\n        /* \"#utility.yul\":8761:8856   */\n      swap4\n      pop\n        /* \"#utility.yul\":8866:8922   */\n      tag_225\n        /* \"#utility.yul\":8915:8921   */\n      dup4\n        /* \"#utility.yul\":8910:8913   */\n      dup6\n        /* \"#utility.yul\":8903:8908   */\n      dup5\n        /* \"#utility.yul\":8866:8922   */\n      tag_109\n      jump\t// in\n    tag_225:\n        /* \"#utility.yul\":8947:8953   */\n      dup3\n        /* \"#utility.yul\":8942:8945   */\n      dup5\n        /* \"#utility.yul\":8938:8954   */\n      add\n        /* \"#utility.yul\":8931:8954   */\n      swap1\n      pop\n        /* \"#utility.yul\":8633:8960   */\n      swap4\n      swap3\n      pop\n      pop\n      pop\n      jump\t// out\n        /* \"#utility.yul\":8966:9257   */\n    tag_54:\n        /* \"#utility.yul\":9106:9109   */\n      0x00\n        /* \"#utility.yul\":9128:9231   */\n      tag_227\n        /* \"#utility.yul\":9227:9230   */\n      dup3\n        /* \"#utility.yul\":9218:9224   */\n      dup5\n        /* \"#utility.yul\":9210:9216   */\n      dup7\n        /* \"#utility.yul\":9128:9231   */\n      tag_117\n      jump\t// in\n    tag_227:\n        /* \"#utility.yul\":9121:9231   */\n      swap2\n      pop\n        /* \"#utility.yul\":9248:9251   */\n      dup2\n        /* \"#utility.yul\":9241:9251   */\n      swap1\n      pop\n        /* \"#utility.yul\":8966:9257   */\n      swap4\n      swap3\n      pop\n      pop\n      pop\n      jump\t// out\n        /* \"#utility.yul\":9263:9432   */\n    tag_118:\n        /* \"#utility.yul\":9403:9424   */\n      0x64656c656761746563616c6c206661696c656400000000000000000000000000\n        /* \"#utility.yul\":9399:9400   */\n      0x00\n        /* \"#utility.yul\":9391:9397   */\n      dup3\n        /* \"#utility.yul\":9387:9401   */\n      add\n        /* \"#utility.yul\":9380:9425   */\n      mstore\n        /* \"#utility.yul\":9263:9432   */\n      pop\n      jump\t// out\n        /* \"#utility.yul\":9438:9804   */\n    tag_119:\n        /* \"#utility.yul\":9580:9583   */\n      0x00\n        /* \"#utility.yul\":9601:9668   */\n      tag_230\n        /* \"#utility.yul\":9665:9667   */\n      0x13\n        /* \"#utility.yul\":9660:9663   */\n      dup4\n        /* \"#utility.yul\":9601:9668   */\n      tag_89\n      jump\t// in\n    tag_230:\n        /* \"#utility.yul\":9594:9668   */\n      swap2\n      pop\n        /* \"#utility.yul\":9677:9770   */\n      tag_231\n        /* \"#utility.yul\":9766:9769   */\n      dup3\n        /* \"#utility.yul\":9677:9770   */\n      tag_118\n      jump\t// in\n    tag_231:\n        /* \"#utility.yul\":9795:9797   */\n      0x20\n        /* \"#utility.yul\":9790:9793   */\n      dup3\n        /* \"#utility.yul\":9786:9798   */\n      add\n        /* \"#utility.yul\":9779:9798   */\n      swap1\n      pop\n        /* \"#utility.yul\":9438:9804   */\n      swap2\n      swap1\n      pop\n      jump\t// out\n        /* \"#utility.yul\":9810:10229   */\n    tag_60:\n        /* \"#utility.yul\":9976:9980   */\n      0x00\n        /* \"#utility.yul\":10014:10016   */\n      0x20\n        /* \"#utility.yul\":10003:10012   */\n      dup3\n        /* \"#utility.yul\":9999:10017   */\n      add\n        /* \"#utility.yul\":9991:10017   */\n      swap1\n      pop\n        /* \"#utility.yul\":10063:10072   */\n      dup2\n        /* \"#utility.yul\":10057:10061   */\n      dup2\n        /* \"#utility.yul\":10053:10073   */\n      sub\n        /* \"#utility.yul\":10049:10050   */\n      0x00\n        /* \"#utility.yul\":10038:10047   */\n      dup4\n        /* \"#utility.yul\":10034:10051   */\n      add\n        /* \"#utility.yul\":10027:10074   */\n      mstore\n        /* \"#utility.yul\":10091:10222   */\n      tag_233\n        /* \"#utility.yul\":10217:10221   */\n      dup2\n        /* \"#utility.yul\":10091:10222   */\n      tag_119\n      jump\t// in\n    tag_233:\n        /* \"#utility.yul\":10083:10222   */\n      swap1\n      pop\n        /* \"#utility.yul\":9810:10229   */\n      swap2\n      swap1\n      pop\n      jump\t// out\n        /* \"#utility.yul\":10235:10333   */\n    tag_120:\n        /* \"#utility.yul\":10286:10292   */\n      0x00\n        /* \"#utility.yul\":10320:10325   */\n      dup2\n        /* \"#utility.yul\":10314:10326   */\n      mload\n        /* \"#utility.yul\":10304:10326   */\n      swap1\n      pop\n        /* \"#utility.yul\":10235:10333   */\n      swap2\n      swap1\n      pop\n      jump\t// out\n        /* \"#utility.yul\":10339:10725   */\n    tag_121:\n        /* \"#utility.yul\":10443:10446   */\n      0x00\n        /* \"#utility.yul\":10471:10509   */\n      tag_236\n        /* \"#utility.yul\":10503:10508   */\n      dup3\n        /* \"#utility.yul\":10471:10509   */\n      tag_120\n      jump\t// in\n    tag_236:\n        /* \"#utility.yul\":10525:10613   */\n      tag_237\n        /* \"#utility.yul\":10606:10612   */\n      dup2\n        /* \"#utility.yul\":10601:10604   */\n      dup6\n        /* \"#utility.yul\":10525:10613   */\n      tag_116\n      jump\t// in\n    tag_237:\n        /* \"#utility.yul\":10518:10613   */\n      swap4\n      pop\n        /* \"#utility.yul\":10622:10687   */\n      tag_238\n        /* \"#utility.yul\":10680:10686   */\n      dup2\n        /* \"#utility.yul\":10675:10678   */\n      dup6\n        /* \"#utility.yul\":10668:10672   */\n      0x20\n        /* \"#utility.yul\":10661:10666   */\n      dup7\n        /* \"#utility.yul\":10657:10673   */\n      add\n        /* \"#utility.yul\":10622:10687   */\n      tag_90\n      jump\t// in\n    tag_238:\n        /* \"#utility.yul\":10712:10718   */\n      dup1\n        /* \"#utility.yul\":10707:10710   */\n      dup5\n        /* \"#utility.yul\":10703:10719   */\n      add\n        /* \"#utility.yul\":10696:10719   */\n      swap2\n      pop\n        /* \"#utility.yul\":10447:10725   */\n      pop\n        /* \"#utility.yul\":10339:10725   */\n      swap3\n      swap2\n      pop\n      pop\n      jump\t// out\n        /* \"#utility.yul\":10731:11002   */\n    tag_64:\n        /* \"#utility.yul\":10861:10864   */\n      0x00\n        /* \"#utility.yul\":10883:10976   */\n      tag_240\n        /* \"#utility.yul\":10972:10975   */\n      dup3\n        /* \"#utility.yul\":10963:10969   */\n      dup5\n        /* \"#utility.yul\":10883:10976   */\n      tag_121\n      jump\t// in\n    tag_240:\n        /* \"#utility.yul\":10876:10976   */\n      swap2\n      pop\n        /* \"#utility.yul\":10993:10996   */\n      dup2\n        /* \"#utility.yul\":10986:10996   */\n      swap1\n      pop\n        /* \"#utility.yul\":10731:11002   */\n      swap3\n      swap2\n      pop\n      pop\n      jump\t// out\n        /* \"#utility.yul\":11008:11172   */\n    tag_122:\n        /* \"#utility.yul\":11148:11164   */\n      0x7365744e616d65206661696c6564000000000000000000000000000000000000\n        /* \"#utility.yul\":11144:11145   */\n      0x00\n        /* \"#utility.yul\":11136:11142   */\n      dup3\n        /* \"#utility.yul\":11132:11146   */\n      add\n        /* \"#utility.yul\":11125:11165   */\n      mstore\n        /* \"#utility.yul\":11008:11172   */\n      pop\n      jump\t// out\n        /* \"#utility.yul\":11178:11544   */\n    tag_123:\n        /* \"#utility.yul\":11320:11323   */\n      0x00\n        /* \"#utility.yul\":11341:11408   */\n      tag_243\n        /* \"#utility.yul\":11405:11407   */\n      0x0e\n        /* \"#utility.yul\":11400:11403   */\n      dup4\n        /* \"#utility.yul\":11341:11408   */\n      tag_89\n      jump\t// in\n    tag_243:\n        /* \"#utility.yul\":11334:11408   */\n      swap2\n      pop\n        /* \"#utility.yul\":11417:11510   */\n      tag_244\n        /* \"#utility.yul\":11506:11509   */\n      dup3\n        /* \"#utility.yul\":11417:11510   */\n      tag_122\n      jump\t// in\n    tag_244:\n        /* \"#utility.yul\":11535:11537   */\n      0x20\n        /* \"#utility.yul\":11530:11533   */\n      dup3\n        /* \"#utility.yul\":11526:11538   */\n      add\n        /* \"#utility.yul\":11519:11538   */\n      swap1\n      pop\n        /* \"#utility.yul\":11178:11544   */\n      swap2\n      swap1\n      pop\n      jump\t// out\n        /* \"#utility.yul\":11550:11969   */\n    tag_70:\n        /* \"#utility.yul\":11716:11720   */\n      0x00\n        /* \"#utility.yul\":11754:11756   */\n      0x20\n        /* \"#utility.yul\":11743:11752   */\n      dup3\n        /* \"#utility.yul\":11739:11757   */\n      add\n        /* \"#utility.yul\":11731:11757   */\n      swap1\n      pop\n        /* \"#utility.yul\":11803:11812   */\n      dup2\n        /* \"#utility.yul\":11797:11801   */\n      dup2\n        /* \"#utility.yul\":11793:11813   */\n      sub\n        /* \"#utility.yul\":11789:11790   */\n      0x00\n        /* \"#utility.yul\":11778:11787   */\n      dup4\n        /* \"#utility.yul\":11774:11791   */\n      add\n        /* \"#utility.yul\":11767:11814   */\n      mstore\n        /* \"#utility.yul\":11831:11962   */\n      tag_246\n        /* \"#utility.yul\":11957:11961   */\n      dup2\n        /* \"#utility.yul\":11831:11962   */\n      tag_123\n      jump\t// in\n    tag_246:\n        /* \"#utility.yul\":11823:11962   */\n      swap1\n      pop\n        /* \"#utility.yul\":11550:11969   */\n      swap2\n      swap1\n      pop\n      jump\t// out\n        /* \"#utility.yul\":11975:12143   */\n    tag_124:\n        /* \"#utility.yul\":12115:12135   */\n      0x6368616e67654f776e6572206661696c65640000000000000000000000000000\n        /* \"#utility.yul\":12111:12112   */\n      0x00\n        /* \"#utility.yul\":12103:12109   */\n      dup3\n        /* \"#utility.yul\":12099:12113   */\n      add\n        /* \"#utility.yul\":12092:12136   */\n      mstore\n        /* \"#utility.yul\":11975:12143   */\n      pop\n      jump\t// out\n        /* \"#utility.yul\":12149:12515   */\n    tag_125:\n        /* \"#utility.yul\":12291:12294   */\n      0x00\n        /* \"#utility.yul\":12312:12379   */\n      tag_249\n        /* \"#utility.yul\":12376:12378   */\n      0x12\n        /* \"#utility.yul\":12371:12374   */\n      dup4\n        /* \"#utility.yul\":12312:12379   */\n      tag_89\n      jump\t// in\n    tag_249:\n        /* \"#utility.yul\":12305:12379   */\n      swap2\n      pop\n        /* \"#utility.yul\":12388:12481   */\n      tag_250\n        /* \"#utility.yul\":12477:12480   */\n      dup3\n        /* \"#utility.yul\":12388:12481   */\n      tag_124\n      jump\t// in\n    tag_250:\n        /* \"#utility.yul\":12506:12508   */\n      0x20\n        /* \"#utility.yul\":12501:12504   */\n      dup3\n        /* \"#utility.yul\":12497:12509   */\n      add\n        /* \"#utility.yul\":12490:12509   */\n      swap1\n      pop\n        /* \"#utility.yul\":12149:12515   */\n      swap2\n      swap1\n      pop\n      jump\t// out\n        /* \"#utility.yul\":12521:12940   */\n    tag_79:\n        /* \"#utility.yul\":12687:12691   */\n      0x00\n        /* \"#utility.yul\":12725:12727   */\n      0x20\n        /* \"#utility.yul\":12714:12723   */\n      dup3\n        /* \"#utility.yul\":12710:12728   */\n      add\n        /* \"#utility.yul\":12702:12728   */\n      swap1\n      pop\n        /* \"#utility.yul\":12774:12783   */\n      dup2\n        /* \"#utility.yul\":12768:12772   */\n      dup2\n        /* \"#utility.yul\":12764:12784   */\n      sub\n        /* \"#utility.yul\":12760:12761   */\n      0x00\n        /* \"#utility.yul\":12749:12758   */\n      dup4\n        /* \"#utility.yul\":12745:12762   */\n      add\n        /* \"#utility.yul\":12738:12785   */\n      mstore\n        /* \"#utility.yul\":12802:12933   */\n      tag_252\n        /* \"#utility.yul\":12928:12932   */\n      dup2\n        /* \"#utility.yul\":12802:12933   */\n      tag_125\n      jump\t// in\n    tag_252:\n        /* \"#utility.yul\":12794:12933   */\n      swap1\n      pop\n        /* \"#utility.yul\":12521:12940   */\n      swap2\n      swap1\n      pop\n      jump\t// out\n        /* \"#utility.yul\":12946:13110   */\n    tag_126:\n        /* \"#utility.yul\":13086:13102   */\n      0x6465706f736974206661696c6564000000000000000000000000000000000000\n        /* \"#utility.yul\":13082:13083   */\n      0x00\n        /* \"#utility.yul\":13074:13080   */\n      dup3\n        /* \"#utility.yul\":13070:13084   */\n      add\n        /* \"#utility.yul\":13063:13103   */\n      mstore\n        /* \"#utility.yul\":12946:13110   */\n      pop\n      jump\t// out\n        /* \"#utility.yul\":13116:13482   */\n    tag_127:\n        /* \"#utility.yul\":13258:13261   */\n      0x00\n        /* \"#utility.yul\":13279:13346   */\n      tag_255\n        /* \"#utility.yul\":13343:13345   */\n      0x0e\n        /* \"#utility.yul\":13338:13341   */\n      dup4\n        /* \"#utility.yul\":13279:13346   */\n      tag_89\n      jump\t// in\n    tag_255:\n        /* \"#utility.yul\":13272:13346   */\n      swap2\n      pop\n        /* \"#utility.yul\":13355:13448   */\n      tag_256\n        /* \"#utility.yul\":13444:13447   */\n      dup3\n        /* \"#utility.yul\":13355:13448   */\n      tag_126\n      jump\t// in\n    tag_256:\n        /* \"#utility.yul\":13473:13475   */\n      0x20\n        /* \"#utility.yul\":13468:13471   */\n      dup3\n        /* \"#utility.yul\":13464:13476   */\n      add\n        /* \"#utility.yul\":13457:13476   */\n      swap1\n      pop\n        /* \"#utility.yul\":13116:13482   */\n      swap2\n      swap1\n      pop\n      jump\t// out\n        /* \"#utility.yul\":13488:13907   */\n    tag_87:\n        /* \"#utility.yul\":13654:13658   */\n      0x00\n        /* \"#utility.yul\":13692:13694   */\n      0x20\n        /* \"#utility.yul\":13681:13690   */\n      dup3\n        /* \"#utility.yul\":13677:13695   */\n      add\n        /* \"#utility.yul\":13669:13695   */\n      swap1\n      pop\n        /* \"#utility.yul\":13741:13750   */\n      dup2\n        /* \"#utility.yul\":13735:13739   */\n      dup2\n        /* \"#utility.yul\":13731:13751   */\n      sub\n        /* \"#utility.yul\":13727:13728   */\n      0x00\n        /* \"#utility.yul\":13716:13725   */\n      dup4\n        /* \"#utility.yul\":13712:13729   */\n      add\n        /* \"#utility.yul\":13705:13752   */\n      mstore\n        /* \"#utility.yul\":13769:13900   */\n      tag_258\n        /* \"#utility.yul\":13895:13899   */\n      dup2\n        /* \"#utility.yul\":13769:13900   */\n      tag_127\n      jump\t// in\n    tag_258:\n        /* \"#utility.yul\":13761:13900   */\n      swap1\n      pop\n        /* \"#utility.yul\":13488:13907   */\n      swap2\n      swap1\n      pop\n      jump\t// out\n\n    auxdata: 0xa26469706673582212204f4a7aeeaacba20c7a79911319203fc591e28f36a364dd3eaecb59b99674c36b64736f6c634300081e0033\n}\n",
				"bytecode": {
					"linkReferences": {},
					"object": "6080604052348015600e575f5ffd5b50335f5f6101000a81548173ffffffffffffffffffffffffffffffffffffffff021916908373ffffffffffffffffffffffffffffffffffffffff160217905550610d5d8061005b5f395ff3fe608060405260043610610073575f3560e01c80638da5cb5b1161004d5780638da5cb5b146100ec578063b69ef8a814610116578063f00d4b5d14610140578063f340fa01146101685761007a565b806306fdde031461007e5780631cff79cd146100a85780633121db1c146100c45761007a565b3661007a57005b5f5ffd5b348015610089575f5ffd5b50610092610184565b60405161009f9190610707565b60405180910390f35b6100c260048036038101906100bd91906107f3565b610210565b005b3480156100cf575f5ffd5b506100ea60048036038101906100e59190610978565b6102bf565b005b3480156100f7575f5ffd5b506101006103fd565b60405161010d91906109e1565b60405180910390f35b348015610121575f5ffd5b5061012a610421565b6040516101379190610a12565b60405180910390f35b34801561014b575f5ffd5b5061016660048036038101906101619190610a2b565b610427565b005b610182600480360381019061017d9190610a69565b610565565b005b6002805461019190610ac1565b80601f01602080910402602001604051908101604052809291908181526020018280546101bd90610ac1565b80156102085780601f106101df57610100808354040283529160200191610208565b820191905f5260205f20905b8154815290600101906020018083116101eb57829003601f168201915b505050505081565b5f8373ffffffffffffffffffffffffffffffffffffffff168383604051610238929190610b1f565b5f60405180830381855af49150503d805f8114610270576040519150601f19603f3d011682016040523d82523d5f602084013e610275565b606091505b50509050806102b9576040517f08c379a00000000000000000000000000000000000000000000000000000000081526004016102b090610b81565b60405180910390fd5b50505050565b5f816040516024016102d19190610707565b6040516020818303038152906040527fc47f0027000000000000000000000000000000000000000000000000000000007bffffffffffffffffffffffffffffffffffffffffffffffffffffffff19166020820180517bffffffffffffffffffffffffffffffffffffffffffffffffffffffff838183161783525050505090505f8373ffffffffffffffffffffffffffffffffffffffff16826040516103769190610bd9565b5f60405180830381855af49150503d805f81146103ae576040519150601f19603f3d011682016040523d82523d5f602084013e6103b3565b606091505b50509050806103f7576040517f08c379a00000000000000000000000000000000000000000000000000000000081526004016103ee90610c39565b60405180910390fd5b50505050565b5f5f9054906101000a900473ffffffffffffffffffffffffffffffffffffffff1681565b60015481565b5f8160405160240161043991906109e1565b6040516020818303038152906040527fa6f9dae1000000000000000000000000000000000000000000000000000000007bffffffffffffffffffffffffffffffffffffffffffffffffffffffff19166020820180517bffffffffffffffffffffffffffffffffffffffffffffffffffffffff838183161783525050505090505f8373ffffffffffffffffffffffffffffffffffffffff16826040516104de9190610bd9565b5f60405180830381855af49150503d805f8114610516576040519150601f19603f3d011682016040523d82523d5f602084013e61051b565b606091505b505090508061055f576040517f08c379a000000000000000000000000000000000000000000000000000000000815260040161055690610ca1565b60405180910390fd5b50505050565b5f6040516024016040516020818303038152906040527fd0e30db0000000000000000000000000000000000000000000000000000000007bffffffffffffffffffffffffffffffffffffffffffffffffffffffff19166020820180517bffffffffffffffffffffffffffffffffffffffffffffffffffffffff838183161783525050505090505f8273ffffffffffffffffffffffffffffffffffffffff16826040516106119190610bd9565b5f60405180830381855af49150503d805f8114610649576040519150601f19603f3d011682016040523d82523d5f602084013e61064e565b606091505b5050905080610692576040517f08c379a000000000000000000000000000000000000000000000000000000000815260040161068990610d09565b60405180910390fd5b505050565b5f81519050919050565b5f82825260208201905092915050565b8281835e5f83830152505050565b5f601f19601f8301169050919050565b5f6106d982610697565b6106e381856106a1565b93506106f38185602086016106b1565b6106fc816106bf565b840191505092915050565b5f6020820190508181035f83015261071f81846106cf565b905092915050565b5f604051905090565b5f5ffd5b5f5ffd5b5f73ffffffffffffffffffffffffffffffffffffffff82169050919050565b5f61076182610738565b9050919050565b61077181610757565b811461077b575f5ffd5b50565b5f8135905061078c81610768565b92915050565b5f5ffd5b5f5ffd5b5f5ffd5b5f5f83601f8401126107b3576107b2610792565b5b8235905067ffffffffffffffff8111156107d0576107cf610796565b5b6020830191508360018202830111156107ec576107eb61079a565b5b9250929050565b5f5f5f6040848603121561080a57610809610730565b5b5f6108178682870161077e565b935050602084013567ffffffffffffffff81111561083857610837610734565b5b6108448682870161079e565b92509250509250925092565b5f5ffd5b7f4e487b71000000000000000000000000000000000000000000000000000000005f52604160045260245ffd5b61088a826106bf565b810181811067ffffffffffffffff821117156108a9576108a8610854565b5b80604052505050565b5f6108bb610727565b90506108c78282610881565b919050565b5f67ffffffffffffffff8211156108e6576108e5610854565b5b6108ef826106bf565b9050602081019050919050565b828183375f83830152505050565b5f61091c610917846108cc565b6108b2565b90508281526020810184848401111561093857610937610850565b5b6109438482856108fc565b509392505050565b5f82601f83011261095f5761095e610792565b5b813561096f84826020860161090a565b91505092915050565b5f5f6040838503121561098e5761098d610730565b5b5f61099b8582860161077e565b925050602083013567ffffffffffffffff8111156109bc576109bb610734565b5b6109c88582860161094b565b9150509250929050565b6109db81610757565b82525050565b5f6020820190506109f45f8301846109d2565b92915050565b5f819050919050565b610a0c816109fa565b82525050565b5f602082019050610a255f830184610a03565b92915050565b5f5f60408385031215610a4157610a40610730565b5b5f610a4e8582860161077e565b9250506020610a5f8582860161077e565b9150509250929050565b5f60208284031215610a7e57610a7d610730565b5b5f610a8b8482850161077e565b91505092915050565b7f4e487b71000000000000000000000000000000000000000000000000000000005f52602260045260245ffd5b5f6002820490506001821680610ad857607f821691505b602082108103610aeb57610aea610a94565b5b50919050565b5f81905092915050565b5f610b068385610af1565b9350610b138385846108fc565b82840190509392505050565b5f610b2b828486610afb565b91508190509392505050565b7f64656c656761746563616c6c206661696c6564000000000000000000000000005f82015250565b5f610b6b6013836106a1565b9150610b7682610b37565b602082019050919050565b5f6020820190508181035f830152610b9881610b5f565b9050919050565b5f81519050919050565b5f610bb382610b9f565b610bbd8185610af1565b9350610bcd8185602086016106b1565b80840191505092915050565b5f610be48284610ba9565b915081905092915050565b7f7365744e616d65206661696c65640000000000000000000000000000000000005f82015250565b5f610c23600e836106a1565b9150610c2e82610bef565b602082019050919050565b5f6020820190508181035f830152610c5081610c17565b9050919050565b7f6368616e67654f776e6572206661696c656400000000000000000000000000005f82015250565b5f610c8b6012836106a1565b9150610c9682610c57565b602082019050919050565b5f6020820190508181035f830152610cb881610c7f565b9050919050565b7f6465706f736974206661696c65640000000000000000000000000000000000005f82015250565b5f610cf3600e836106a1565b9150610cfe82610cbf565b602082019050919050565b5f6020820190508181035f830152610d2081610ce7565b905091905056fea26469706673582212204f4a7aeeaacba20c7a79911319203fc591e28f36a364dd3eaecb59b99674c36b64736f6c634300081e0033",
					"opcodes": "PUSH1 0x80 PUSH1 0x40 MSTORE CALLVALUE DUP1 ISZERO PUSH1 0xE JUMPI PUSH0 PUSH0 REVERT JUMPDEST POP CALLER PUSH0 PUSH0 PUSH2 0x100 EXP DUP2 SLOAD DUP2 PUSH20 0xFFFFFFFFFFFFFFFFFFFFFFFFFFFFFFFFFFFFFFFF MUL NOT AND SWAP1 DUP4 PUSH20 0xFFFFFFFFFFFFFFFFFFFFFFFFFFFFFFFFFFFFFFFF AND MUL OR SWAP1 SSTORE POP PUSH2 0xD5D DUP1 PUSH2 0x5B PUSH0 CODECOPY PUSH0 RETURN INVALID PUSH1 0x80 PUSH1 0x40 MSTORE PUSH1 0x4 CALLDATASIZE LT PUSH2 0x73 JUMPI PUSH0 CALLDATALOAD PUSH1 0xE0 SHR DUP1 PUSH4 0x8DA5CB5B GT PUSH2 0x4D JUMPI DUP1 PUSH4 0x8DA5CB5B EQ PUSH2 0xEC JUMPI DUP1 PUSH4 0xB69EF8A8 EQ PUSH2 0x116 JUMPI DUP1 PUSH4 0xF00D4B5D EQ PUSH2 0x140 JUMPI DUP1 PUSH4 0xF340FA01 EQ PUSH2 0x168 JUMPI PUSH2 0x7A JUMP JUMPDEST DUP1 PUSH4 0x6FDDE03 EQ PUSH2 0x7E JUMPI DUP1 PUSH4 0x1CFF79CD EQ PUSH2 0xA8 JUMPI DUP1 PUSH4 0x3121DB1C EQ PUSH2 0xC4 JUMPI PUSH2 0x7A JUMP JUMPDEST CALLDATASIZE PUSH2 0x7A JUMPI STOP JUMPDEST PUSH0 PUSH0 REVERT JUMPDEST CALLVALUE DUP1 ISZERO PUSH2 0x89 JUMPI PUSH0 PUSH0 REVERT JUMPDEST POP PUSH2 0x92 PUSH2 0x184 JUMP JUMPDEST PUSH1 0x40 MLOAD PUSH2 0x9F SWAP2 SWAP1 PUSH2 0x707 JUMP JUMPDEST PUSH1 0x40 MLOAD DUP1 SWAP2 SUB SWAP1 RETURN JUMPDEST PUSH2 0xC2 PUSH1 0x4 DUP1 CALLDATASIZE SUB DUP2 ADD SWAP1 PUSH2 0xBD SWAP2 SWAP1 PUSH2 0x7F3 JUMP JUMPDEST PUSH2 0x210 JUMP JUMPDEST STOP JUMPDEST CALLVALUE DUP1 ISZERO PUSH2 0xCF JUMPI PUSH0 PUSH0 REVERT JUMPDEST POP PUSH2 0xEA PUSH1 0x4 DUP1 CALLDATASIZE SUB DUP2 ADD SWAP1 PUSH2 0xE5 SWAP2 SWAP1 PUSH2 0x978 JUMP JUMPDEST PUSH2 0x2BF JUMP JUMPDEST STOP JUMPDEST CALLVALUE DUP1 ISZERO PUSH2 0xF7 JUMPI PUSH0 PUSH0 REVERT JUMPDEST POP PUSH2 0x100 PUSH2 0x3FD JUMP JUMPDEST PUSH1 0x40 MLOAD PUSH2 0x10D SWAP2 SWAP1 PUSH2 0x9E1 JUMP JUMPDEST PUSH1 0x40 MLOAD DUP1 SWAP2 SUB SWAP1 RETURN JUMPDEST CALLVALUE DUP1 ISZERO PUSH2 0x121 JUMPI PUSH0 PUSH0 REVERT JUMPDEST POP PUSH2 0x12A PUSH2 0x421 JUMP JUMPDEST PUSH1 0x40 MLOAD PUSH2 0x137 SWAP2 SWAP1 PUSH2 0xA12 JUMP JUMPDEST PUSH1 0x40 MLOAD DUP1 SWAP2 SUB SWAP1 RETURN JUMPDEST CALLVALUE DUP1 ISZERO PUSH2 0x14B JUMPI PUSH0 PUSH0 REVERT JUMPDEST POP PUSH2 0x166 PUSH1 0x4 DUP1 CALLDATASIZE SUB DUP2 ADD SWAP1 PUSH2 0x161 SWAP2 SWAP1 PUSH2 0xA2B JUMP JUMPDEST PUSH2 0x427 JUMP JUMPDEST STOP JUMPDEST PUSH2 0x182 PUSH1 0x4 DUP1 CALLDATASIZE SUB DUP2 ADD SWAP1 PUSH2 0x17D SWAP2 SWAP1 PUSH2 0xA69 JUMP JUMPDEST PUSH2 0x565 JUMP JUMPDEST STOP JUMPDEST PUSH1 0x2 DUP1 SLOAD PUSH2 0x191 SWAP1 PUSH2 0xAC1 JUMP JUMPDEST DUP1 PUSH1 0x1F ADD PUSH1 0x20 DUP1 SWAP2 DIV MUL PUSH1 0x20 ADD PUSH1 0x40 MLOAD SWAP1 DUP2 ADD PUSH1 0x40 MSTORE DUP1 SWAP3 SWAP2 SWAP1 DUP2 DUP2 MSTORE PUSH1 0x20 ADD DUP3 DUP1 SLOAD PUSH2 0x1BD SWAP1 PUSH2 0xAC1 JUMP JUMPDEST DUP1 ISZERO PUSH2 0x208 JUMPI DUP1 PUSH1 0x1F LT PUSH2 0x1DF JUMPI PUSH2 0x100 DUP1 DUP4 SLOAD DIV MUL DUP4 MSTORE SWAP2 PUSH1 0x20 ADD SWAP2 PUSH2 0x208 JUMP JUMPDEST DUP3 ADD SWAP2 SWAP1 PUSH0 MSTORE PUSH1 0x20 PUSH0 KECCAK256 SWAP1 JUMPDEST DUP2 SLOAD DUP2 MSTORE SWAP1 PUSH1 0x1 ADD SWAP1 PUSH1 0x20 ADD DUP1 DUP4 GT PUSH2 0x1EB JUMPI DUP3 SWAP1 SUB PUSH1 0x1F AND DUP3 ADD SWAP2 JUMPDEST POP POP POP POP POP DUP2 JUMP JUMPDEST PUSH0 DUP4 PUSH20 0xFFFFFFFFFFFFFFFFFFFFFFFFFFFFFFFFFFFFFFFF AND DUP4 DUP4 PUSH1 0x40 MLOAD PUSH2 0x238 SWAP3 SWAP2 SWAP1 PUSH2 0xB1F JUMP JUMPDEST PUSH0 PUSH1 0x40 MLOAD DUP1 DUP4 SUB DUP2 DUP6 GAS DELEGATECALL SWAP2 POP POP RETURNDATASIZE DUP1 PUSH0 DUP2 EQ PUSH2 0x270 JUMPI PUSH1 0x40 MLOAD SWAP2 POP PUSH1 0x1F NOT PUSH1 0x3F RETURNDATASIZE ADD AND DUP3 ADD PUSH1 0x40 MSTORE RETURNDATASIZE DUP3 MSTORE RETURNDATASIZE PUSH0 PUSH1 0x20 DUP5 ADD RETURNDATACOPY PUSH2 0x275 JUMP JUMPDEST PUSH1 0x60 SWAP2 POP JUMPDEST POP POP SWAP1 POP DUP1 PUSH2 0x2B9 JUMPI PUSH1 0x40 MLOAD PUSH32 0x8C379A000000000000000000000000000000000000000000000000000000000 DUP2 MSTORE PUSH1 0x4 ADD PUSH2 0x2B0 SWAP1 PUSH2 0xB81 JUMP JUMPDEST PUSH1 0x40 MLOAD DUP1 SWAP2 SUB SWAP1 REVERT JUMPDEST POP POP POP POP JUMP JUMPDEST PUSH0 DUP2 PUSH1 0x40 MLOAD PUSH1 0x24 ADD PUSH2 0x2D1 SWAP2 SWAP1 PUSH2 0x707 JUMP JUMPDEST PUSH1 0x40 MLOAD PUSH1 0x20 DUP2 DUP4 SUB SUB DUP2 MSTORE SWAP1 PUSH1 0x40 MSTORE PUSH32 0xC47F002700000000000000000000000000000000000000000000000000000000 PUSH28 0xFFFFFFFFFFFFFFFFFFFFFFFFFFFFFFFFFFFFFFFFFFFFFFFFFFFFFFFF NOT AND PUSH1 0x20 DUP3 ADD DUP1 MLOAD PUSH28 0xFFFFFFFFFFFFFFFFFFFFFFFFFFFFFFFFFFFFFFFFFFFFFFFFFFFFFFFF DUP4 DUP2 DUP4 AND OR DUP4 MSTORE POP POP POP POP SWAP1 POP PUSH0 DUP4 PUSH20 0xFFFFFFFFFFFFFFFFFFFFFFFFFFFFFFFFFFFFFFFF AND DUP3 PUSH1 0x40 MLOAD PUSH2 0x376 SWAP2 SWAP1 PUSH2 0xBD9 JUMP JUMPDEST PUSH0 PUSH1 0x40 MLOAD DUP1 DUP4 SUB DUP2 DUP6 GAS DELEGATECALL SWAP2 POP POP RETURNDATASIZE DUP1 PUSH0 DUP2 EQ PUSH2 0x3AE JUMPI PUSH1 0x40 MLOAD SWAP2 POP PUSH1 0x1F NOT PUSH1 0x3F RETURNDATASIZE ADD AND DUP3 ADD PUSH1 0x40 MSTORE RETURNDATASIZE DUP3 MSTORE RETURNDATASIZE PUSH0 PUSH1 0x20 DUP5 ADD RETURNDATACOPY PUSH2 0x3B3 JUMP JUMPDEST PUSH1 0x60 SWAP2 POP JUMPDEST POP POP SWAP1 POP DUP1 PUSH2 0x3F7 JUMPI PUSH1 0x40 MLOAD PUSH32 0x8C379A000000000000000000000000000000000000000000000000000000000 DUP2 MSTORE PUSH1 0x4 ADD PUSH2 0x3EE SWAP1 PUSH2 0xC39 JUMP JUMPDEST PUSH1 0x40 MLOAD DUP1 SWAP2 SUB SWAP1 REVERT JUMPDEST POP POP POP POP JUMP JUMPDEST PUSH0 PUSH0 SWAP1 SLOAD SWAP1 PUSH2 0x100 EXP SWAP1 DIV PUSH20 0xFFFFFFFFFFFFFFFFFFFFFFFFFFFFFFFFFFFFFFFF AND DUP2 JUMP JUMPDEST PUSH1 0x1 SLOAD DUP2 JUMP JUMPDEST PUSH0 DUP2 PUSH1 0x40 MLOAD PUSH1 0x24 ADD PUSH2 0x439 SWAP2 SWAP1 PUSH2 0x9E1 JUMP JUMPDEST PUSH1 0x40 MLOAD PUSH1 0x20 DUP2 DUP4 SUB SUB DUP2 MSTORE SWAP1 PUSH1 0x40 MSTORE PUSH32 0xA6F9DAE100000000000000000000000000000000000000000000000000000000 PUSH28 0xFFFFFFFFFFFFFFFFFFFFFFFFFFFFFFFFFFFFFFFFFFFFFFFFFFFFFFFF NOT AND PUSH1 0x20 DUP3 ADD DUP1 MLOAD PUSH28 0xFFFFFFFFFFFFFFFFFFFFFFFFFFFFFFFFFFFFFFFFFFFFFFFFFFFFFFFF DUP4 DUP2 DUP4 AND OR DUP4 MSTORE POP POP POP POP SWAP1 POP PUSH0 DUP4 PUSH20 0xFFFFFFFFFFFFFFFFFFFFFFFFFFFFFFFFFFFFFFFF AND DUP3 PUSH1 0x40 MLOAD PUSH2 0x4DE SWAP2 SWAP1 PUSH2 0xBD9 JUMP JUMPDEST PUSH0 PUSH1 0x40 MLOAD DUP1 DUP4 SUB DUP2 DUP6 GAS DELEGATECALL SWAP2 POP POP RETURNDATASIZE DUP1 PUSH0 DUP2 EQ PUSH2 0x516 JUMPI PUSH1 0x40 MLOAD SWAP2 POP PUSH1 0x1F NOT PUSH1 0x3F RETURNDATASIZE ADD AND DUP3 ADD PUSH1 0x40 MSTORE RETURNDATASIZE DUP3 MSTORE RETURNDATASIZE PUSH0 PUSH1 0x20 DUP5 ADD RETURNDATACOPY PUSH2 0x51B JUMP JUMPDEST PUSH1 0x60 SWAP2 POP JUMPDEST POP POP SWAP1 POP DUP1 PUSH2 0x55F JUMPI PUSH1 0x40 MLOAD PUSH32 0x8C379A000000000000000000000000000000000000000000000000000000000 DUP2 MSTORE PUSH1 0x4 ADD PUSH2 0x556 SWAP1 PUSH2 0xCA1 JUMP JUMPDEST PUSH1 0x40 MLOAD DUP1 SWAP2 SUB SWAP1 REVERT JUMPDEST POP POP POP POP JUMP JUMPDEST PUSH0 PUSH1 0x40 MLOAD PUSH1 0x24 ADD PUSH1 0x40 MLOAD PUSH1 0x20 DUP2 DUP4 SUB SUB DUP2 MSTORE SWAP1 PUSH1 0x40 MSTORE PUSH32 0xD0E30DB000000000000000000000000000000000000000000000000000000000 PUSH28 0xFFFFFFFFFFFFFFFFFFFFFFFFFFFFFFFFFFFFFFFFFFFFFFFFFFFFFFFF NOT AND PUSH1 0x20 DUP3 ADD DUP1 MLOAD PUSH28 0xFFFFFFFFFFFFFFFFFFFFFFFFFFFFFFFFFFFFFFFFFFFFFFFFFFFFFFFF DUP4 DUP2 DUP4 AND OR DUP4 MSTORE POP POP POP POP SWAP1 POP PUSH0 DUP3 PUSH20 0xFFFFFFFFFFFFFFFFFFFFFFFFFFFFFFFFFFFFFFFF AND DUP3 PUSH1 0x40 MLOAD PUSH2 0x611 SWAP2 SWAP1 PUSH2 0xBD9 JUMP JUMPDEST PUSH0 PUSH1 0x40 MLOAD DUP1 DUP4 SUB DUP2 DUP6 GAS DELEGATECALL SWAP2 POP POP RETURNDATASIZE DUP1 PUSH0 DUP2 EQ PUSH2 0x649 JUMPI PUSH1 0x40 MLOAD SWAP2 POP PUSH1 0x1F NOT PUSH1 0x3F RETURNDATASIZE ADD AND DUP3 ADD PUSH1 0x40 MSTORE RETURNDATASIZE DUP3 MSTORE RETURNDATASIZE PUSH0 PUSH1 0x20 DUP5 ADD RETURNDATACOPY PUSH2 0x64E JUMP JUMPDEST PUSH1 0x60 SWAP2 POP JUMPDEST POP POP SWAP1 POP DUP1 PUSH2 0x692 JUMPI PUSH1 0x40 MLOAD PUSH32 0x8C379A000000000000000000000000000000000000000000000000000000000 DUP2 MSTORE PUSH1 0x4 ADD PUSH2 0x689 SWAP1 PUSH2 0xD09 JUMP JUMPDEST PUSH1 0x40 MLOAD DUP1 SWAP2 SUB SWAP1 REVERT JUMPDEST POP POP POP JUMP JUMPDEST PUSH0 DUP2 MLOAD SWAP1 POP SWAP2 SWAP1 POP JUMP JUMPDEST PUSH0 DUP3 DUP3 MSTORE PUSH1 0x20 DUP3 ADD SWAP1 POP SWAP3 SWAP2 POP POP JUMP JUMPDEST DUP3 DUP2 DUP4 MCOPY PUSH0 DUP4 DUP4 ADD MSTORE POP POP POP JUMP JUMPDEST PUSH0 PUSH1 0x1F NOT PUSH1 0x1F DUP4 ADD AND SWAP1 POP SWAP2 SWAP1 POP JUMP JUMPDEST PUSH0 PUSH2 0x6D9 DUP3 PUSH2 0x697 JUMP JUMPDEST PUSH2 0x6E3 DUP2 DUP6 PUSH2 0x6A1 JUMP JUMPDEST SWAP4 POP PUSH2 0x6F3 DUP2 DUP6 PUSH1 0x20 DUP7 ADD PUSH2 0x6B1 JUMP JUMPDEST PUSH2 0x6FC DUP2 PUSH2 0x6BF JUMP JUMPDEST DUP5 ADD SWAP2 POP POP SWAP3 SWAP2 POP POP JUMP JUMPDEST PUSH0 PUSH1 0x20 DUP3 ADD SWAP1 POP DUP2 DUP2 SUB PUSH0 DUP4 ADD MSTORE PUSH2 0x71F DUP2 DUP5 PUSH2 0x6CF JUMP JUMPDEST SWAP1 POP SWAP3 SWAP2 POP POP JUMP JUMPDEST PUSH0 PUSH1 0x40 MLOAD SWAP1 POP SWAP1 JUMP JUMPDEST PUSH0 PUSH0 REVERT JUMPDEST PUSH0 PUSH0 REVERT JUMPDEST PUSH0 PUSH20 0xFFFFFFFFFFFFFFFFFFFFFFFFFFFFFFFFFFFFFFFF DUP3 AND SWAP1 POP SWAP2 SWAP1 POP JUMP JUMPDEST PUSH0 PUSH2 0x761 DUP3 PUSH2 0x738 JUMP JUMPDEST SWAP1 POP SWAP2 SWAP1 POP JUMP JUMPDEST PUSH2 0x771 DUP2 PUSH2 0x757 JUMP JUMPDEST DUP2 EQ PUSH2 0x77B JUMPI PUSH0 PUSH0 REVERT JUMPDEST POP JUMP JUMPDEST PUSH0 DUP2 CALLDATALOAD SWAP1 POP PUSH2 0x78C DUP2 PUSH2 0x768 JUMP JUMPDEST SWAP3 SWAP2 POP POP JUMP JUMPDEST PUSH0 PUSH0 REVERT JUMPDEST PUSH0 PUSH0 REVERT JUMPDEST PUSH0 PUSH0 REVERT JUMPDEST PUSH0 PUSH0 DUP4 PUSH1 0x1F DUP5 ADD SLT PUSH2 0x7B3 JUMPI PUSH2 0x7B2 PUSH2 0x792 JUMP JUMPDEST JUMPDEST DUP3 CALLDATALOAD SWAP1 POP PUSH8 0xFFFFFFFFFFFFFFFF DUP2 GT ISZERO PUSH2 0x7D0 JUMPI PUSH2 0x7CF PUSH2 0x796 JUMP JUMPDEST JUMPDEST PUSH1 0x20 DUP4 ADD SWAP2 POP DUP4 PUSH1 0x1 DUP3 MUL DUP4 ADD GT ISZERO PUSH2 0x7EC JUMPI PUSH2 0x7EB PUSH2 0x79A JUMP JUMPDEST JUMPDEST SWAP3 POP SWAP3 SWAP1 POP JUMP JUMPDEST PUSH0 PUSH0 PUSH0 PUSH1 0x40 DUP5 DUP7 SUB SLT ISZERO PUSH2 0x80A JUMPI PUSH2 0x809 PUSH2 0x730 JUMP JUMPDEST JUMPDEST PUSH0 PUSH2 0x817 DUP7 DUP3 DUP8 ADD PUSH2 0x77E JUMP JUMPDEST SWAP4 POP POP PUSH1 0x20 DUP5 ADD CALLDATALOAD PUSH8 0xFFFFFFFFFFFFFFFF DUP2 GT ISZERO PUSH2 0x838 JUMPI PUSH2 0x837 PUSH2 0x734 JUMP JUMPDEST JUMPDEST PUSH2 0x844 DUP7 DUP3 DUP8 ADD PUSH2 0x79E JUMP JUMPDEST SWAP3 POP SWAP3 POP POP SWAP3 POP SWAP3 POP SWAP3 JUMP JUMPDEST PUSH0 PUSH0 REVERT JUMPDEST PUSH32 0x4E487B7100000000000000000000000000000000000000000000000000000000 PUSH0 MSTORE PUSH1 0x41 PUSH1 0x4 MSTORE PUSH1 0x24 PUSH0 REVERT JUMPDEST PUSH2 0x88A DUP3 PUSH2 0x6BF JUMP JUMPDEST DUP2 ADD DUP2 DUP2 LT PUSH8 0xFFFFFFFFFFFFFFFF DUP3 GT OR ISZERO PUSH2 0x8A9 JUMPI PUSH2 0x8A8 PUSH2 0x854 JUMP JUMPDEST JUMPDEST DUP1 PUSH1 0x40 MSTORE POP POP POP JUMP JUMPDEST PUSH0 PUSH2 0x8BB PUSH2 0x727 JUMP JUMPDEST SWAP1 POP PUSH2 0x8C7 DUP3 DUP3 PUSH2 0x881 JUMP JUMPDEST SWAP2 SWAP1 POP JUMP JUMPDEST PUSH0 PUSH8 0xFFFFFFFFFFFFFFFF DUP3 GT ISZERO PUSH2 0x8E6 JUMPI PUSH2 0x8E5 PUSH2 0x854 JUMP JUMPDEST JUMPDEST PUSH2 0x8EF DUP3 PUSH2 0x6BF JUMP JUMPDEST SWAP1 POP PUSH1 0x20 DUP2 ADD SWAP1 POP SWAP2 SWAP1 POP JUMP JUMPDEST DUP3 DUP2 DUP4 CALLDATACOPY PUSH0 DUP4 DUP4 ADD MSTORE POP POP POP JUMP JUMPDEST PUSH0 PUSH2 0x91C PUSH2 0x917 DUP5 PUSH2 0x8CC JUMP JUMPDEST PUSH2 0x8B2 JUMP JUMPDEST SWAP1 POP DUP3 DUP2 MSTORE PUSH1 0x20 DUP2 ADD DUP5 DUP5 DUP5 ADD GT ISZERO PUSH2 0x938 JUMPI PUSH2 0x937 PUSH2 0x850 JUMP JUMPDEST JUMPDEST PUSH2 0x943 DUP5 DUP3 DUP6 PUSH2 0x8FC JUMP JUMPDEST POP SWAP4 SWAP3 POP POP POP JUMP JUMPDEST PUSH0 DUP3 PUSH1 0x1F DUP4 ADD SLT PUSH2 0x95F JUMPI PUSH2 0x95E PUSH2 0x792 JUMP JUMPDEST JUMPDEST DUP2 CALLDATALOAD PUSH2 0x96F DUP5 DUP3 PUSH1 0x20 DUP7 ADD PUSH2 0x90A JUMP JUMPDEST SWAP2 POP POP SWAP3 SWAP2 POP POP JUMP JUMPDEST PUSH0 PUSH0 PUSH1 0x40 DUP4 DUP6 SUB SLT ISZERO PUSH2 0x98E JUMPI PUSH2 0x98D PUSH2 0x730 JUMP JUMPDEST JUMPDEST PUSH0 PUSH2 0x99B DUP6 DUP3 DUP7 ADD PUSH2 0x77E JUMP JUMPDEST SWAP3 POP POP PUSH1 0x20 DUP4 ADD CALLDATALOAD PUSH8 0xFFFFFFFFFFFFFFFF DUP2 GT ISZERO PUSH2 0x9BC JUMPI PUSH2 0x9BB PUSH2 0x734 JUMP JUMPDEST JUMPDEST PUSH2 0x9C8 DUP6 DUP3 DUP7 ADD PUSH2 0x94B JUMP JUMPDEST SWAP2 POP POP SWAP3 POP SWAP3 SWAP1 POP JUMP JUMPDEST PUSH2 0x9DB DUP2 PUSH2 0x757 JUMP JUMPDEST DUP3 MSTORE POP POP JUMP JUMPDEST PUSH0 PUSH1 0x20 DUP3 ADD SWAP1 POP PUSH2 0x9F4 PUSH0 DUP4 ADD DUP5 PUSH2 0x9D2 JUMP JUMPDEST SWAP3 SWAP2 POP POP JUMP JUMPDEST PUSH0 DUP2 SWAP1 POP SWAP2 SWAP1 POP JUMP JUMPDEST PUSH2 0xA0C DUP2 PUSH2 0x9FA JUMP JUMPDEST DUP3 MSTORE POP POP JUMP JUMPDEST PUSH0 PUSH1 0x20 DUP3 ADD SWAP1 POP PUSH2 0xA25 PUSH0 DUP4 ADD DUP5 PUSH2 0xA03 JUMP JUMPDEST SWAP3 SWAP2 POP POP JUMP JUMPDEST PUSH0 PUSH0 PUSH1 0x40 DUP4 DUP6 SUB SLT ISZERO PUSH2 0xA41 JUMPI PUSH2 0xA40 PUSH2 0x730 JUMP JUMPDEST JUMPDEST PUSH0 PUSH2 0xA4E DUP6 DUP3 DUP7 ADD PUSH2 0x77E JUMP JUMPDEST SWAP3 POP POP PUSH1 0x20 PUSH2 0xA5F DUP6 DUP3 DUP7 ADD PUSH2 0x77E JUMP JUMPDEST SWAP2 POP POP SWAP3 POP SWAP3 SWAP1 POP JUMP JUMPDEST PUSH0 PUSH1 0x20 DUP3 DUP5 SUB SLT ISZERO PUSH2 0xA7E JUMPI PUSH2 0xA7D PUSH2 0x730 JUMP JUMPDEST JUMPDEST PUSH0 PUSH2 0xA8B DUP5 DUP3 DUP6 ADD PUSH2 0x77E JUMP JUMPDEST SWAP2 POP POP SWAP3 SWAP2 POP POP JUMP JUMPDEST PUSH32 0x4E487B7100000000000000000000000000000000000000000000000000000000 PUSH0 MSTORE PUSH1 0x22 PUSH1 0x4 MSTORE PUSH1 0x24 PUSH0 REVERT JUMPDEST PUSH0 PUSH1 0x2 DUP3 DIV SWAP1 POP PUSH1 0x1 DUP3 AND DUP1 PUSH2 0xAD8 JUMPI PUSH1 0x7F DUP3 AND SWAP2 POP JUMPDEST PUSH1 0x20 DUP3 LT DUP2 SUB PUSH2 0xAEB JUMPI PUSH2 0xAEA PUSH2 0xA94 JUMP JUMPDEST JUMPDEST POP SWAP2 SWAP1 POP JUMP JUMPDEST PUSH0 DUP2 SWAP1 POP SWAP3 SWAP2 POP POP JUMP JUMPDEST PUSH0 PUSH2 0xB06 DUP4 DUP6 PUSH2 0xAF1 JUMP JUMPDEST SWAP4 POP PUSH2 0xB13 DUP4 DUP6 DUP5 PUSH2 0x8FC JUMP JUMPDEST DUP3 DUP5 ADD SWAP1 POP SWAP4 SWAP3 POP POP POP JUMP JUMPDEST PUSH0 PUSH2 0xB2B DUP3 DUP5 DUP7 PUSH2 0xAFB JUMP JUMPDEST SWAP2 POP DUP2 SWAP1 POP SWAP4 SWAP3 POP POP POP JUMP JUMPDEST PUSH32 0x64656C656761746563616C6C206661696C656400000000000000000000000000 PUSH0 DUP3 ADD MSTORE POP JUMP JUMPDEST PUSH0 PUSH2 0xB6B PUSH1 0x13 DUP4 PUSH2 0x6A1 JUMP JUMPDEST SWAP2 POP PUSH2 0xB76 DUP3 PUSH2 0xB37 JUMP JUMPDEST PUSH1 0x20 DUP3 ADD SWAP1 POP SWAP2 SWAP1 POP JUMP JUMPDEST PUSH0 PUSH1 0x20 DUP3 ADD SWAP1 POP DUP2 DUP2 SUB PUSH0 DUP4 ADD MSTORE PUSH2 0xB98 DUP2 PUSH2 0xB5F JUMP JUMPDEST SWAP1 POP SWAP2 SWAP1 POP JUMP JUMPDEST PUSH0 DUP2 MLOAD SWAP1 POP SWAP2 SWAP1 POP JUMP JUMPDEST PUSH0 PUSH2 0xBB3 DUP3 PUSH2 0xB9F JUMP JUMPDEST PUSH2 0xBBD DUP2 DUP6 PUSH2 0xAF1 JUMP JUMPDEST SWAP4 POP PUSH2 0xBCD DUP2 DUP6 PUSH1 0x20 DUP7 ADD PUSH2 0x6B1 JUMP JUMPDEST DUP1 DUP5 ADD SWAP2 POP POP SWAP3 SWAP2 POP POP JUMP JUMPDEST PUSH0 PUSH2 0xBE4 DUP3 DUP5 PUSH2 0xBA9 JUMP JUMPDEST SWAP2 POP DUP2 SWAP1 POP SWAP3 SWAP2 POP POP JUMP JUMPDEST PUSH32 0x7365744E616D65206661696C6564000000000000000000000000000000000000 PUSH0 DUP3 ADD MSTORE POP JUMP JUMPDEST PUSH0 PUSH2 0xC23 PUSH1 0xE DUP4 PUSH2 0x6A1 JUMP JUMPDEST SWAP2 POP PUSH2 0xC2E DUP3 PUSH2 0xBEF JUMP JUMPDEST PUSH1 0x20 DUP3 ADD SWAP1 POP SWAP2 SWAP1 POP JUMP JUMPDEST PUSH0 PUSH1 0x20 DUP3 ADD SWAP1 POP DUP2 DUP2 SUB PUSH0 DUP4 ADD MSTORE PUSH2 0xC50 DUP2 PUSH2 0xC17 JUMP JUMPDEST SWAP1 POP SWAP2 SWAP1 POP JUMP JUMPDEST PUSH32 0x6368616E67654F776E6572206661696C65640000000000000000000000000000 PUSH0 DUP3 ADD MSTORE POP JUMP JUMPDEST PUSH0 PUSH2 0xC8B PUSH1 0x12 DUP4 PUSH2 0x6A1 JUMP JUMPDEST SWAP2 POP PUSH2 0xC96 DUP3 PUSH2 0xC57 JUMP JUMPDEST PUSH1 0x20 DUP3 ADD SWAP1 POP SWAP2 SWAP1 POP JUMP JUMPDEST PUSH0 PUSH1 0x20 DUP3 ADD SWAP1 POP DUP2 DUP2 SUB PUSH0 DUP4 ADD MSTORE PUSH2 0xCB8 DUP2 PUSH2 0xC7F JUMP JUMPDEST SWAP1 POP SWAP2 SWAP1 POP JUMP JUMPDEST PUSH32 0x6465706F736974206661696C6564000000000000000000000000000000000000 PUSH0 DUP3 ADD MSTORE POP JUMP JUMPDEST PUSH0 PUSH2 0xCF3 PUSH1 0xE DUP4 PUSH2 0x6A1 JUMP JUMPDEST SWAP2 POP PUSH2 0xCFE DUP3 PUSH2 0xCBF JUMP JUMPDEST PUSH1 0x20 DUP3 ADD SWAP1 POP SWAP2 SWAP1 POP JUMP JUMPDEST PUSH0 PUSH1 0x20 DUP3 ADD SWAP1 POP DUP2 DUP2 SUB PUSH0 DUP4 ADD MSTORE PUSH2 0xD20 DUP2 PUSH2 0xCE7 JUMP JUMPDEST SWAP1 POP SWAP2 SWAP1 POP JUMP INVALID LOG2 PUSH5 0x6970667358 0x22 SLT KECCAK256 0x4F BLOBBASEFEE PUSH27 0xEEAACBA20C7A79911319203FC591E28F36A364DD3EAECB59B99674 0xC3 PUSH12 0x64736F6C634300081E003300 "
				},
				"gasEstimates": {
					"creation": {
						"codeDepositCost": "684200",
						"executionCost": "24977",
						"totalCost": "709177"
					},
					"external": {
						"balance()": "2447",
						"changeOwner(address,address)": "infinite",
						"deposit(address)": "infinite",
						"execute(address,bytes)": "infinite",
						"name()": "infinite",
						"owner()": "2507",
						"setName(address,string)": "infinite"
					}
				},
				"methodIdentifiers": {
					"balance()": "b69ef8a8",
					"changeOwner(address,address)": "f00d4b5d",
					"deposit(address)": "f340fa01",
					"execute(address,bytes)": "1cff79cd",
					"name()": "06fdde03",
					"owner()": "8da5cb5b",
					"setName(address,string)": "3121db1c"
				}
			},
			"storageLayout": {
				"storage": [
					{
						"astId": 3,
						"contract": "contracts/newdelegate/main.sol:Main",
						"label": "owner",
						"offset": 0,
						"slot": "0",
						"type": "t_address"
					},
					{
						"astId": 5,
						"contract": "contracts/newdelegate/main.sol:Main",
						"label": "balance",
						"offset": 0,
						"slot": "1",
						"type": "t_uint256"
					},
					{
						"astId": 7,
						"contract": "contracts/newdelegate/main.sol:Main",
						"label": "name",
						"offset": 0,
						"slot": "2",
						"type": "t_string_storage"
					}
				],
				"types": {
					"t_address": {
						"encoding": "inplace",
						"label": "address",
						"numberOfBytes": "20"
					},
					"t_string_storage": {
						"encoding": "bytes",
						"label": "string",
						"numberOfBytes": "32"
					},
					"t_uint256": {
						"encoding": "inplace",
						"label": "uint256",
						"numberOfBytes": "32"
					}
				}
			},
			"userdoc": {
				"kind": "user",
				"methods": {},
				"version": 1
			}
		}
	}
}