{
	"contracts/1.25.inheritance.sol": {
		"childcontract": {
			"abi": [
				{
					"inputs": [],
					"name": "add1",
					"outputs": [
						{
							"internalType": "address",
							"name": "",
							"type": "address"
						}
					],
					"stateMutability": "view",
					"type": "function"
				},
				{
					"inputs": [],
					"name": "funA",
					"outputs": [
						{
							"internalType": "string",
							"name": "",
							"type": "string"
						}
					],
					"stateMutability": "pure",
					"type": "function"
				},
				{
					"inputs": [],
					"name": "funB",
					"outputs": [
						{
							"internalType": "string",
							"name": "",
							"type": "string"
						}
					],
					"stateMutability": "pure",
					"type": "function"
				},
				{
					"inputs": [],
					"name": "funC",
					"outputs": [
						{
							"internalType": "string",
							"name": "",
							"type": "string"
						}
					],
					"stateMutability": "pure",
					"type": "function"
				},
				{
					"inputs": [],
					"name": "funD",
					"outputs": [
						{
							"internalType": "string",
							"name": "",
							"type": "string"
						}
					],
					"stateMutability": "pure",
					"type": "function"
				},
				{
					"inputs": [],
					"name": "num",
					"outputs": [
						{
							"internalType": "uint256",
							"name": "",
							"type": "uint256"
						}
					],
					"stateMutability": "view",
					"type": "function"
				},
				{
					"inputs": [],
					"name": "num1",
					"outputs": [
						{
							"internalType": "uint256",
							"name": "",
							"type": "uint256"
						}
					],
					"stateMutability": "view",
					"type": "function"
				}
			],
			"devdoc": {
				"kind": "dev",
				"methods": {},
				"version": 1
			},
			"evm": {
				"assembly": "    /* \"contracts/1.25.inheritance.sol\":538:1077  contract childcontract is parentcontract {... */\n  mstore(0x40, 0x80)\n    /* \"contracts/1.25.inheritance.sol\":108:111  100 */\n  0x64\n    /* \"contracts/1.25.inheritance.sol\":87:111  uint256 public num = 100 */\n  0x00\n  sstore\n    /* \"contracts/1.25.inheritance.sol\":139:149  msg.sender */\n  caller\n    /* \"contracts/1.25.inheritance.sol\":117:149  address public add1 = msg.sender */\n  0x01\n  exp(0x0100, 0x00)\n  dup2\n  sload\n  dup2\n  0xffffffffffffffffffffffffffffffffffffffff\n  mul\n  not\n  and\n  swap1\n  dup4\n  0xffffffffffffffffffffffffffffffffffffffff\n  and\n  mul\n  or\n  swap1\n  sstore\n  pop\n    /* \"contracts/1.25.inheritance.sol\":607:609  50 */\n  0x32\n    /* \"contracts/1.25.inheritance.sol\":585:609  uint256 public num1 = 50 */\n  0x02\n  sstore\n    /* \"contracts/1.25.inheritance.sol\":538:1077  contract childcontract is parentcontract {... */\n  callvalue\n  dup1\n  iszero\n  tag_1\n  jumpi\n  0x00\n  dup1\n  revert\ntag_1:\n  pop\n  dataSize(sub_0)\n  dup1\n  dataOffset(sub_0)\n  0x00\n  codecopy\n  0x00\n  return\nstop\n\nsub_0: assembly {\n        /* \"contracts/1.25.inheritance.sol\":538:1077  contract childcontract is parentcontract {... */\n      mstore(0x40, 0x80)\n      callvalue\n      dup1\n      iszero\n      tag_1\n      jumpi\n      0x00\n      dup1\n      revert\n    tag_1:\n      pop\n      jumpi(tag_2, lt(calldatasize, 0x04))\n      shr(0xe0, calldataload(0x00))\n      dup1\n      0x3b9eac4b\n      gt\n      tag_10\n      jumpi\n      dup1\n      0x3b9eac4b\n      eq\n      tag_6\n      jumpi\n      dup1\n      0x4e70b1dc\n      eq\n      tag_7\n      jumpi\n      dup1\n      0x745158b1\n      eq\n      tag_8\n      jumpi\n      dup1\n      0x8e5159b0\n      eq\n      tag_9\n      jumpi\n      jump(tag_2)\n    tag_10:\n      dup1\n      0x35921a\n      eq\n      tag_3\n      jumpi\n      dup1\n      0x09ebbbdb\n      eq\n      tag_4\n      jumpi\n      dup1\n      0x2fd8b93c\n      eq\n      tag_5\n      jumpi\n    tag_2:\n      0x00\n      dup1\n      revert\n        /* \"contracts/1.25.inheritance.sol\":117:149  address public add1 = msg.sender */\n    tag_3:\n      tag_11\n      tag_12\n      jump\t// in\n    tag_11:\n      mload(0x40)\n      tag_13\n      swap2\n      swap1\n      tag_14\n      jump\t// in\n    tag_13:\n      mload(0x40)\n      dup1\n      swap2\n      sub\n      swap1\n      return\n        /* \"contracts/1.25.inheritance.sol\":250:338  function funB() public pure returns (string memory) {... */\n    tag_4:\n      tag_15\n      tag_16\n      jump\t// in\n    tag_15:\n      mload(0x40)\n      tag_17\n      swap2\n      swap1\n      tag_18\n      jump\t// in\n    tag_17:\n      mload(0x40)\n      dup1\n      swap2\n      sub\n      swap1\n      return\n        /* \"contracts/1.25.inheritance.sol\":861:982  function funC() public pure override returns (string memory) {... */\n    tag_5:\n      tag_19\n      tag_20\n      jump\t// in\n    tag_19:\n      mload(0x40)\n      tag_21\n      swap2\n      swap1\n      tag_18\n      jump\t// in\n    tag_21:\n      mload(0x40)\n      dup1\n      swap2\n      sub\n      swap1\n      return\n        /* \"contracts/1.25.inheritance.sol\":585:609  uint256 public num1 = 50 */\n    tag_6:\n      tag_22\n      tag_23\n      jump\t// in\n    tag_22:\n      mload(0x40)\n      tag_24\n      swap2\n      swap1\n      tag_25\n      jump\t// in\n    tag_24:\n      mload(0x40)\n      dup1\n      swap2\n      sub\n      swap1\n      return\n        /* \"contracts/1.25.inheritance.sol\":87:111  uint256 public num = 100 */\n    tag_7:\n      tag_26\n      tag_27\n      jump\t// in\n    tag_26:\n      mload(0x40)\n      tag_28\n      swap2\n      swap1\n      tag_25\n      jump\t// in\n    tag_28:\n      mload(0x40)\n      dup1\n      swap2\n      sub\n      swap1\n      return\n        /* \"contracts/1.25.inheritance.sol\":446:534  function funD() public pure returns (string memory) {... */\n    tag_8:\n      tag_29\n      tag_30\n      jump\t// in\n    tag_29:\n      mload(0x40)\n      tag_31\n      swap2\n      swap1\n      tag_18\n      jump\t// in\n    tag_31:\n      mload(0x40)\n      dup1\n      swap2\n      sub\n      swap1\n      return\n        /* \"contracts/1.25.inheritance.sol\":156:244  function funA() public pure returns (string memory) {... */\n    tag_9:\n      tag_32\n      tag_33\n      jump\t// in\n    tag_32:\n      mload(0x40)\n      tag_34\n      swap2\n      swap1\n      tag_18\n      jump\t// in\n    tag_34:\n      mload(0x40)\n      dup1\n      swap2\n      sub\n      swap1\n      return\n        /* \"contracts/1.25.inheritance.sol\":117:149  address public add1 = msg.sender */\n    tag_12:\n      0x01\n      0x00\n      swap1\n      sload\n      swap1\n      0x0100\n      exp\n      swap1\n      div\n      0xffffffffffffffffffffffffffffffffffffffff\n      and\n      dup2\n      jump\t// out\n        /* \"contracts/1.25.inheritance.sol\":250:338  function funB() public pure returns (string memory) {... */\n    tag_16:\n        /* \"contracts/1.25.inheritance.sol\":287:300  string memory */\n      0x60\n        /* \"contracts/1.25.inheritance.sol\":312:331  return \"function B\" */\n      mload(0x40)\n      dup1\n      0x40\n      add\n      0x40\n      mstore\n      dup1\n      0x0a\n      dup2\n      mstore\n      0x20\n      add\n      0x66756e6374696f6e204200000000000000000000000000000000000000000000\n      dup2\n      mstore\n      pop\n      swap1\n      pop\n        /* \"contracts/1.25.inheritance.sol\":250:338  function funB() public pure returns (string memory) {... */\n      swap1\n      jump\t// out\n        /* \"contracts/1.25.inheritance.sol\":861:982  function funC() public pure override returns (string memory) {... */\n    tag_20:\n        /* \"contracts/1.25.inheritance.sol\":907:920  string memory */\n      0x60\n        /* \"contracts/1.25.inheritance.sol\":932:975  return \"function call for checking virtial\" */\n      mload(0x40)\n      dup1\n      0x60\n      add\n      0x40\n      mstore\n      dup1\n      0x22\n      dup2\n      mstore\n      0x20\n      add\n      data_c5e275f1e6b606f037cd882c4f912c657c84df082f06867bf2525d47dc65f769\n      0x22\n      swap2\n      codecopy\n      swap1\n      pop\n        /* \"contracts/1.25.inheritance.sol\":861:982  function funC() public pure override returns (string memory) {... */\n      swap1\n      jump\t// out\n        /* \"contracts/1.25.inheritance.sol\":585:609  uint256 public num1 = 50 */\n    tag_23:\n      sload(0x02)\n      dup2\n      jump\t// out\n        /* \"contracts/1.25.inheritance.sol\":87:111  uint256 public num = 100 */\n    tag_27:\n      sload(0x00)\n      dup2\n      jump\t// out\n        /* \"contracts/1.25.inheritance.sol\":446:534  function funD() public pure returns (string memory) {... */\n    tag_30:\n        /* \"contracts/1.25.inheritance.sol\":483:496  string memory */\n      0x60\n        /* \"contracts/1.25.inheritance.sol\":508:527  return \"function D\" */\n      mload(0x40)\n      dup1\n      0x40\n      add\n      0x40\n      mstore\n      dup1\n      0x0a\n      dup2\n      mstore\n      0x20\n      add\n      0x66756e6374696f6e204400000000000000000000000000000000000000000000\n      dup2\n      mstore\n      pop\n      swap1\n      pop\n        /* \"contracts/1.25.inheritance.sol\":446:534  function funD() public pure returns (string memory) {... */\n      swap1\n      jump\t// out\n        /* \"contracts/1.25.inheritance.sol\":156:244  function funA() public pure returns (string memory) {... */\n    tag_33:\n        /* \"contracts/1.25.inheritance.sol\":193:206  string memory */\n      0x60\n        /* \"contracts/1.25.inheritance.sol\":218:237  return \"function A\" */\n      mload(0x40)\n      dup1\n      0x40\n      add\n      0x40\n      mstore\n      dup1\n      0x0a\n      dup2\n      mstore\n      0x20\n      add\n      0x66756e6374696f6e204100000000000000000000000000000000000000000000\n      dup2\n      mstore\n      pop\n      swap1\n      pop\n        /* \"contracts/1.25.inheritance.sol\":156:244  function funA() public pure returns (string memory) {... */\n      swap1\n      jump\t// out\n        /* \"#utility.yul\":7:133   */\n    tag_39:\n        /* \"#utility.yul\":44:51   */\n      0x00\n        /* \"#utility.yul\":84:126   */\n      0xffffffffffffffffffffffffffffffffffffffff\n        /* \"#utility.yul\":77:82   */\n      dup3\n        /* \"#utility.yul\":73:127   */\n      and\n        /* \"#utility.yul\":62:127   */\n      swap1\n      pop\n        /* \"#utility.yul\":7:133   */\n      swap2\n      swap1\n      pop\n      jump\t// out\n        /* \"#utility.yul\":139:235   */\n    tag_40:\n        /* \"#utility.yul\":176:183   */\n      0x00\n        /* \"#utility.yul\":205:229   */\n      tag_52\n        /* \"#utility.yul\":223:228   */\n      dup3\n        /* \"#utility.yul\":205:229   */\n      tag_39\n      jump\t// in\n    tag_52:\n        /* \"#utility.yul\":194:229   */\n      swap1\n      pop\n        /* \"#utility.yul\":139:235   */\n      swap2\n      swap1\n      pop\n      jump\t// out\n        /* \"#utility.yul\":241:359   */\n    tag_41:\n        /* \"#utility.yul\":328:352   */\n      tag_54\n        /* \"#utility.yul\":346:351   */\n      dup2\n        /* \"#utility.yul\":328:352   */\n      tag_40\n      jump\t// in\n    tag_54:\n        /* \"#utility.yul\":323:326   */\n      dup3\n        /* \"#utility.yul\":316:353   */\n      mstore\n        /* \"#utility.yul\":241:359   */\n      pop\n      pop\n      jump\t// out\n        /* \"#utility.yul\":365:587   */\n    tag_14:\n        /* \"#utility.yul\":458:462   */\n      0x00\n        /* \"#utility.yul\":496:498   */\n      0x20\n        /* \"#utility.yul\":485:494   */\n      dup3\n        /* \"#utility.yul\":481:499   */\n      add\n        /* \"#utility.yul\":473:499   */\n      swap1\n      pop\n        /* \"#utility.yul\":509:580   */\n      tag_56\n        /* \"#utility.yul\":577:578   */\n      0x00\n        /* \"#utility.yul\":566:575   */\n      dup4\n        /* \"#utility.yul\":562:579   */\n      add\n        /* \"#utility.yul\":553:559   */\n      dup5\n        /* \"#utility.yul\":509:580   */\n      tag_41\n      jump\t// in\n    tag_56:\n        /* \"#utility.yul\":365:587   */\n      swap3\n      swap2\n      pop\n      pop\n      jump\t// out\n        /* \"#utility.yul\":593:692   */\n    tag_42:\n        /* \"#utility.yul\":645:651   */\n      0x00\n        /* \"#utility.yul\":679:684   */\n      dup2\n        /* \"#utility.yul\":673:685   */\n      mload\n        /* \"#utility.yul\":663:685   */\n      swap1\n      pop\n        /* \"#utility.yul\":593:692   */\n      swap2\n      swap1\n      pop\n      jump\t// out\n        /* \"#utility.yul\":698:867   */\n    tag_43:\n        /* \"#utility.yul\":782:793   */\n      0x00\n        /* \"#utility.yul\":816:822   */\n      dup3\n        /* \"#utility.yul\":811:814   */\n      dup3\n        /* \"#utility.yul\":804:823   */\n      mstore\n        /* \"#utility.yul\":856:860   */\n      0x20\n        /* \"#utility.yul\":851:854   */\n      dup3\n        /* \"#utility.yul\":847:861   */\n      add\n        /* \"#utility.yul\":832:861   */\n      swap1\n      pop\n        /* \"#utility.yul\":698:867   */\n      swap3\n      swap2\n      pop\n      pop\n      jump\t// out\n        /* \"#utility.yul\":873:1012   */\n    tag_44:\n        /* \"#utility.yul\":962:968   */\n      dup3\n        /* \"#utility.yul\":957:960   */\n      dup2\n        /* \"#utility.yul\":952:955   */\n      dup4\n        /* \"#utility.yul\":946:969   */\n      mcopy\n        /* \"#utility.yul\":1003:1004   */\n      0x00\n        /* \"#utility.yul\":994:1000   */\n      dup4\n        /* \"#utility.yul\":989:992   */\n      dup4\n        /* \"#utility.yul\":985:1001   */\n      add\n        /* \"#utility.yul\":978:1005   */\n      mstore\n        /* \"#utility.yul\":873:1012   */\n      pop\n      pop\n      pop\n      jump\t// out\n        /* \"#utility.yul\":1018:1120   */\n    tag_45:\n        /* \"#utility.yul\":1059:1065   */\n      0x00\n        /* \"#utility.yul\":1110:1112   */\n      0x1f\n        /* \"#utility.yul\":1106:1113   */\n      not\n        /* \"#utility.yul\":1101:1103   */\n      0x1f\n        /* \"#utility.yul\":1094:1099   */\n      dup4\n        /* \"#utility.yul\":1090:1104   */\n      add\n        /* \"#utility.yul\":1086:1114   */\n      and\n        /* \"#utility.yul\":1076:1114   */\n      swap1\n      pop\n        /* \"#utility.yul\":1018:1120   */\n      swap2\n      swap1\n      pop\n      jump\t// out\n        /* \"#utility.yul\":1126:1503   */\n    tag_46:\n        /* \"#utility.yul\":1214:1217   */\n      0x00\n        /* \"#utility.yul\":1242:1281   */\n      tag_62\n        /* \"#utility.yul\":1275:1280   */\n      dup3\n        /* \"#utility.yul\":1242:1281   */\n      tag_42\n      jump\t// in\n    tag_62:\n        /* \"#utility.yul\":1297:1368   */\n      tag_63\n        /* \"#utility.yul\":1361:1367   */\n      dup2\n        /* \"#utility.yul\":1356:1359   */\n      dup6\n        /* \"#utility.yul\":1297:1368   */\n      tag_43\n      jump\t// in\n    tag_63:\n        /* \"#utility.yul\":1290:1368   */\n      swap4\n      pop\n        /* \"#utility.yul\":1377:1442   */\n      tag_64\n        /* \"#utility.yul\":1435:1441   */\n      dup2\n        /* \"#utility.yul\":1430:1433   */\n      dup6\n        /* \"#utility.yul\":1423:1427   */\n      0x20\n        /* \"#utility.yul\":1416:1421   */\n      dup7\n        /* \"#utility.yul\":1412:1428   */\n      add\n        /* \"#utility.yul\":1377:1442   */\n      tag_44\n      jump\t// in\n    tag_64:\n        /* \"#utility.yul\":1467:1496   */\n      tag_65\n        /* \"#utility.yul\":1489:1495   */\n      dup2\n        /* \"#utility.yul\":1467:1496   */\n      tag_45\n      jump\t// in\n    tag_65:\n        /* \"#utility.yul\":1462:1465   */\n      dup5\n        /* \"#utility.yul\":1458:1497   */\n      add\n        /* \"#utility.yul\":1451:1497   */\n      swap2\n      pop\n        /* \"#utility.yul\":1218:1503   */\n      pop\n        /* \"#utility.yul\":1126:1503   */\n      swap3\n      swap2\n      pop\n      pop\n      jump\t// out\n        /* \"#utility.yul\":1509:1822   */\n    tag_18:\n        /* \"#utility.yul\":1622:1626   */\n      0x00\n        /* \"#utility.yul\":1660:1662   */\n      0x20\n        /* \"#utility.yul\":1649:1658   */\n      dup3\n        /* \"#utility.yul\":1645:1663   */\n      add\n        /* \"#utility.yul\":1637:1663   */\n      swap1\n      pop\n        /* \"#utility.yul\":1709:1718   */\n      dup2\n        /* \"#utility.yul\":1703:1707   */\n      dup2\n        /* \"#utility.yul\":1699:1719   */\n      sub\n        /* \"#utility.yul\":1695:1696   */\n      0x00\n        /* \"#utility.yul\":1684:1693   */\n      dup4\n        /* \"#utility.yul\":1680:1697   */\n      add\n        /* \"#utility.yul\":1673:1720   */\n      mstore\n        /* \"#utility.yul\":1737:1815   */\n      tag_67\n        /* \"#utility.yul\":1810:1814   */\n      dup2\n        /* \"#utility.yul\":1801:1807   */\n      dup5\n        /* \"#utility.yul\":1737:1815   */\n      tag_46\n      jump\t// in\n    tag_67:\n        /* \"#utility.yul\":1729:1815   */\n      swap1\n      pop\n        /* \"#utility.yul\":1509:1822   */\n      swap3\n      swap2\n      pop\n      pop\n      jump\t// out\n        /* \"#utility.yul\":1828:1905   */\n    tag_47:\n        /* \"#utility.yul\":1865:1872   */\n      0x00\n        /* \"#utility.yul\":1894:1899   */\n      dup2\n        /* \"#utility.yul\":1883:1899   */\n      swap1\n      pop\n        /* \"#utility.yul\":1828:1905   */\n      swap2\n      swap1\n      pop\n      jump\t// out\n        /* \"#utility.yul\":1911:2029   */\n    tag_48:\n        /* \"#utility.yul\":1998:2022   */\n      tag_70\n        /* \"#utility.yul\":2016:2021   */\n      dup2\n        /* \"#utility.yul\":1998:2022   */\n      tag_47\n      jump\t// in\n    tag_70:\n        /* \"#utility.yul\":1993:1996   */\n      dup3\n        /* \"#utility.yul\":1986:2023   */\n      mstore\n        /* \"#utility.yul\":1911:2029   */\n      pop\n      pop\n      jump\t// out\n        /* \"#utility.yul\":2035:2257   */\n    tag_25:\n        /* \"#utility.yul\":2128:2132   */\n      0x00\n        /* \"#utility.yul\":2166:2168   */\n      0x20\n        /* \"#utility.yul\":2155:2164   */\n      dup3\n        /* \"#utility.yul\":2151:2169   */\n      add\n        /* \"#utility.yul\":2143:2169   */\n      swap1\n      pop\n        /* \"#utility.yul\":2179:2250   */\n      tag_72\n        /* \"#utility.yul\":2247:2248   */\n      0x00\n        /* \"#utility.yul\":2236:2245   */\n      dup4\n        /* \"#utility.yul\":2232:2249   */\n      add\n        /* \"#utility.yul\":2223:2229   */\n      dup5\n        /* \"#utility.yul\":2179:2250   */\n      tag_48\n      jump\t// in\n    tag_72:\n        /* \"#utility.yul\":2035:2257   */\n      swap3\n      swap2\n      pop\n      pop\n      jump\t// out\n    stop\n    data_c5e275f1e6b606f037cd882c4f912c657c84df082f06867bf2525d47dc65f769 66756e6374696f6e2063616c6c20666f7220636865636b696e67207669727469616c\n\n    auxdata: 0xa2646970667358221220d060c37b1dd9e2022ee5a72b52c95b186e50f5b107b2d25b46a0362ec7000c9f64736f6c634300081a0033\n}\n",
				"bytecode": {
					"linkReferences": {},
					"object": "608060405260645f553360015f6101000a81548173ffffffffffffffffffffffffffffffffffffffff021916908373ffffffffffffffffffffffffffffffffffffffff16021790555060326002553480156057575f80fd5b506103c8806100655f395ff3fe608060405234801561000f575f80fd5b506004361061007a575f3560e01c80633b9eac4b116100595780633b9eac4b146100d85780634e70b1dc146100f6578063745158b1146101145780638e5159b0146101325761007a565b806235921a1461007e57806309ebbbdb1461009c5780632fd8b93c146100ba575b5f80fd5b610086610150565b6040516100939190610296565b60405180910390f35b6100a4610175565b6040516100b1919061031f565b60405180910390f35b6100c26101b2565b6040516100cf919061031f565b60405180910390f35b6100e06101d2565b6040516100ed9190610357565b60405180910390f35b6100fe6101d8565b60405161010b9190610357565b60405180910390f35b61011c6101dd565b604051610129919061031f565b60405180910390f35b61013a61021a565b604051610147919061031f565b60405180910390f35b60015f9054906101000a900473ffffffffffffffffffffffffffffffffffffffff1681565b60606040518060400160405280600a81526020017f66756e6374696f6e204200000000000000000000000000000000000000000000815250905090565b606060405180606001604052806022815260200161037160229139905090565b60025481565b5f5481565b60606040518060400160405280600a81526020017f66756e6374696f6e204400000000000000000000000000000000000000000000815250905090565b60606040518060400160405280600a81526020017f66756e6374696f6e204100000000000000000000000000000000000000000000815250905090565b5f73ffffffffffffffffffffffffffffffffffffffff82169050919050565b5f61028082610257565b9050919050565b61029081610276565b82525050565b5f6020820190506102a95f830184610287565b92915050565b5f81519050919050565b5f82825260208201905092915050565b8281835e5f83830152505050565b5f601f19601f8301169050919050565b5f6102f1826102af565b6102fb81856102b9565b935061030b8185602086016102c9565b610314816102d7565b840191505092915050565b5f6020820190508181035f83015261033781846102e7565b905092915050565b5f819050919050565b6103518161033f565b82525050565b5f60208201905061036a5f830184610348565b9291505056fe66756e6374696f6e2063616c6c20666f7220636865636b696e67207669727469616ca2646970667358221220d060c37b1dd9e2022ee5a72b52c95b186e50f5b107b2d25b46a0362ec7000c9f64736f6c634300081a0033",
					"opcodes": "PUSH1 0x80 PUSH1 0x40 MSTORE PUSH1 0x64 PUSH0 SSTORE CALLER PUSH1 0x1 PUSH0 PUSH2 0x100 EXP DUP2 SLOAD DUP2 PUSH20 0xFFFFFFFFFFFFFFFFFFFFFFFFFFFFFFFFFFFFFFFF MUL NOT AND SWAP1 DUP4 PUSH20 0xFFFFFFFFFFFFFFFFFFFFFFFFFFFFFFFFFFFFFFFF AND MUL OR SWAP1 SSTORE POP PUSH1 0x32 PUSH1 0x2 SSTORE CALLVALUE DUP1 ISZERO PUSH1 0x57 JUMPI PUSH0 DUP1 REVERT JUMPDEST POP PUSH2 0x3C8 DUP1 PUSH2 0x65 PUSH0 CODECOPY PUSH0 RETURN INVALID PUSH1 0x80 PUSH1 0x40 MSTORE CALLVALUE DUP1 ISZERO PUSH2 0xF JUMPI PUSH0 DUP1 REVERT JUMPDEST POP PUSH1 0x4 CALLDATASIZE LT PUSH2 0x7A JUMPI PUSH0 CALLDATALOAD PUSH1 0xE0 SHR DUP1 PUSH4 0x3B9EAC4B GT PUSH2 0x59 JUMPI DUP1 PUSH4 0x3B9EAC4B EQ PUSH2 0xD8 JUMPI DUP1 PUSH4 0x4E70B1DC EQ PUSH2 0xF6 JUMPI DUP1 PUSH4 0x745158B1 EQ PUSH2 0x114 JUMPI DUP1 PUSH4 0x8E5159B0 EQ PUSH2 0x132 JUMPI PUSH2 0x7A JUMP JUMPDEST DUP1 PUSH3 0x35921A EQ PUSH2 0x7E JUMPI DUP1 PUSH4 0x9EBBBDB EQ PUSH2 0x9C JUMPI DUP1 PUSH4 0x2FD8B93C EQ PUSH2 0xBA JUMPI JUMPDEST PUSH0 DUP1 REVERT JUMPDEST PUSH2 0x86 PUSH2 0x150 JUMP JUMPDEST PUSH1 0x40 MLOAD PUSH2 0x93 SWAP2 SWAP1 PUSH2 0x296 JUMP JUMPDEST PUSH1 0x40 MLOAD DUP1 SWAP2 SUB SWAP1 RETURN JUMPDEST PUSH2 0xA4 PUSH2 0x175 JUMP JUMPDEST PUSH1 0x40 MLOAD PUSH2 0xB1 SWAP2 SWAP1 PUSH2 0x31F JUMP JUMPDEST PUSH1 0x40 MLOAD DUP1 SWAP2 SUB SWAP1 RETURN JUMPDEST PUSH2 0xC2 PUSH2 0x1B2 JUMP JUMPDEST PUSH1 0x40 MLOAD PUSH2 0xCF SWAP2 SWAP1 PUSH2 0x31F JUMP JUMPDEST PUSH1 0x40 MLOAD DUP1 SWAP2 SUB SWAP1 RETURN JUMPDEST PUSH2 0xE0 PUSH2 0x1D2 JUMP JUMPDEST PUSH1 0x40 MLOAD PUSH2 0xED SWAP2 SWAP1 PUSH2 0x357 JUMP JUMPDEST PUSH1 0x40 MLOAD DUP1 SWAP2 SUB SWAP1 RETURN JUMPDEST PUSH2 0xFE PUSH2 0x1D8 JUMP JUMPDEST PUSH1 0x40 MLOAD PUSH2 0x10B SWAP2 SWAP1 PUSH2 0x357 JUMP JUMPDEST PUSH1 0x40 MLOAD DUP1 SWAP2 SUB SWAP1 RETURN JUMPDEST PUSH2 0x11C PUSH2 0x1DD JUMP JUMPDEST PUSH1 0x40 MLOAD PUSH2 0x129 SWAP2 SWAP1 PUSH2 0x31F JUMP JUMPDEST PUSH1 0x40 MLOAD DUP1 SWAP2 SUB SWAP1 RETURN JUMPDEST PUSH2 0x13A PUSH2 0x21A JUMP JUMPDEST PUSH1 0x40 MLOAD PUSH2 0x147 SWAP2 SWAP1 PUSH2 0x31F JUMP JUMPDEST PUSH1 0x40 MLOAD DUP1 SWAP2 SUB SWAP1 RETURN JUMPDEST PUSH1 0x1 PUSH0 SWAP1 SLOAD SWAP1 PUSH2 0x100 EXP SWAP1 DIV PUSH20 0xFFFFFFFFFFFFFFFFFFFFFFFFFFFFFFFFFFFFFFFF AND DUP2 JUMP JUMPDEST PUSH1 0x60 PUSH1 0x40 MLOAD DUP1 PUSH1 0x40 ADD PUSH1 0x40 MSTORE DUP1 PUSH1 0xA DUP2 MSTORE PUSH1 0x20 ADD PUSH32 0x66756E6374696F6E204200000000000000000000000000000000000000000000 DUP2 MSTORE POP SWAP1 POP SWAP1 JUMP JUMPDEST PUSH1 0x60 PUSH1 0x40 MLOAD DUP1 PUSH1 0x60 ADD PUSH1 0x40 MSTORE DUP1 PUSH1 0x22 DUP2 MSTORE PUSH1 0x20 ADD PUSH2 0x371 PUSH1 0x22 SWAP2 CODECOPY SWAP1 POP SWAP1 JUMP JUMPDEST PUSH1 0x2 SLOAD DUP2 JUMP JUMPDEST PUSH0 SLOAD DUP2 JUMP JUMPDEST PUSH1 0x60 PUSH1 0x40 MLOAD DUP1 PUSH1 0x40 ADD PUSH1 0x40 MSTORE DUP1 PUSH1 0xA DUP2 MSTORE PUSH1 0x20 ADD PUSH32 0x66756E6374696F6E204400000000000000000000000000000000000000000000 DUP2 MSTORE POP SWAP1 POP SWAP1 JUMP JUMPDEST PUSH1 0x60 PUSH1 0x40 MLOAD DUP1 PUSH1 0x40 ADD PUSH1 0x40 MSTORE DUP1 PUSH1 0xA DUP2 MSTORE PUSH1 0x20 ADD PUSH32 0x66756E6374696F6E204100000000000000000000000000000000000000000000 DUP2 MSTORE POP SWAP1 POP SWAP1 JUMP JUMPDEST PUSH0 PUSH20 0xFFFFFFFFFFFFFFFFFFFFFFFFFFFFFFFFFFFFFFFF DUP3 AND SWAP1 POP SWAP2 SWAP1 POP JUMP JUMPDEST PUSH0 PUSH2 0x280 DUP3 PUSH2 0x257 JUMP JUMPDEST SWAP1 POP SWAP2 SWAP1 POP JUMP JUMPDEST PUSH2 0x290 DUP2 PUSH2 0x276 JUMP JUMPDEST DUP3 MSTORE POP POP JUMP JUMPDEST PUSH0 PUSH1 0x20 DUP3 ADD SWAP1 POP PUSH2 0x2A9 PUSH0 DUP4 ADD DUP5 PUSH2 0x287 JUMP JUMPDEST SWAP3 SWAP2 POP POP JUMP JUMPDEST PUSH0 DUP2 MLOAD SWAP1 POP SWAP2 SWAP1 POP JUMP JUMPDEST PUSH0 DUP3 DUP3 MSTORE PUSH1 0x20 DUP3 ADD SWAP1 POP SWAP3 SWAP2 POP POP JUMP JUMPDEST DUP3 DUP2 DUP4 MCOPY PUSH0 DUP4 DUP4 ADD MSTORE POP POP POP JUMP JUMPDEST PUSH0 PUSH1 0x1F NOT PUSH1 0x1F DUP4 ADD AND SWAP1 POP SWAP2 SWAP1 POP JUMP JUMPDEST PUSH0 PUSH2 0x2F1 DUP3 PUSH2 0x2AF JUMP JUMPDEST PUSH2 0x2FB DUP2 DUP6 PUSH2 0x2B9 JUMP JUMPDEST SWAP4 POP PUSH2 0x30B DUP2 DUP6 PUSH1 0x20 DUP7 ADD PUSH2 0x2C9 JUMP JUMPDEST PUSH2 0x314 DUP2 PUSH2 0x2D7 JUMP JUMPDEST DUP5 ADD SWAP2 POP POP SWAP3 SWAP2 POP POP JUMP JUMPDEST PUSH0 PUSH1 0x20 DUP3 ADD SWAP1 POP DUP2 DUP2 SUB PUSH0 DUP4 ADD MSTORE PUSH2 0x337 DUP2 DUP5 PUSH2 0x2E7 JUMP JUMPDEST SWAP1 POP SWAP3 SWAP2 POP POP JUMP JUMPDEST PUSH0 DUP2 SWAP1 POP SWAP2 SWAP1 POP JUMP JUMPDEST PUSH2 0x351 DUP2 PUSH2 0x33F JUMP JUMPDEST DUP3 MSTORE POP POP JUMP JUMPDEST PUSH0 PUSH1 0x20 DUP3 ADD SWAP1 POP PUSH2 0x36A PUSH0 DUP4 ADD DUP5 PUSH2 0x348 JUMP JUMPDEST SWAP3 SWAP2 POP POP JUMP INVALID PUSH7 0x756E6374696F6E KECCAK256 PUSH4 0x616C6C20 PUSH7 0x6F722063686563 PUSH12 0x696E67207669727469616CA2 PUSH5 0x6970667358 0x22 SLT KECCAK256 0xD0 PUSH1 0xC3 PUSH28 0x1DD9E2022EE5A72B52C95B186E50F5B107B2D25B46A0362EC7000C9F PUSH5 0x736F6C6343 STOP ADDMOD BYTE STOP CALLER "
				},
				"gasEstimates": {
					"creation": {
						"codeDepositCost": "193600",
						"executionCost": "68712",
						"totalCost": "262312"
					},
					"external": {
						"add1()": "2509",
						"funA()": "infinite",
						"funB()": "infinite",
						"funC()": "infinite",
						"funD()": "infinite",
						"num()": "2446",
						"num1()": "2425"
					}
				},
				"methodIdentifiers": {
					"add1()": "0035921a",
					"funA()": "8e5159b0",
					"funB()": "09ebbbdb",
					"funC()": "2fd8b93c",
					"funD()": "745158b1",
					"num()": "4e70b1dc",
					"num1()": "3b9eac4b"
				}
			},
			"storageLayout": {
				"storage": [
					{
						"astId": 4,
						"contract": "contracts/1.25.inheritance.sol:childcontract",
						"label": "num",
						"offset": 0,
						"slot": "0",
						"type": "t_uint256"
					},
					{
						"astId": 8,
						"contract": "contracts/1.25.inheritance.sol:childcontract",
						"label": "add1",
						"offset": 0,
						"slot": "1",
						"type": "t_address"
					},
					{
						"astId": 46,
						"contract": "contracts/1.25.inheritance.sol:childcontract",
						"label": "num1",
						"offset": 0,
						"slot": "2",
						"type": "t_uint256"
					}
				],
				"types": {
					"t_address": {
						"encoding": "inplace",
						"label": "address",
						"numberOfBytes": "20"
					},
					"t_uint256": {
						"encoding": "inplace",
						"label": "uint256",
						"numberOfBytes": "32"
					}
				}
			},
			"userdoc": {
				"kind": "user",
				"methods": {},
				"version": 1
			}
		}
	}
}