{
	"contracts/6.fixedarray.sol": {
		"FixedArrayExample": {
			"abi": [
				{
					"inputs": [
						{
							"internalType": "uint256",
							"name": "",
							"type": "uint256"
						}
					],
					"name": "fixedArray",
					"outputs": [
						{
							"internalType": "uint256",
							"name": "",
							"type": "uint256"
						}
					],
					"stateMutability": "view",
					"type": "function"
				},
				{
					"inputs": [],
					"name": "getArray",
					"outputs": [
						{
							"internalType": "uint256[5]",
							"name": "",
							"type": "uint256[5]"
						}
					],
					"stateMutability": "view",
					"type": "function"
				},
				{
					"inputs": [
						{
							"internalType": "uint256",
							"name": "index",
							"type": "uint256"
						}
					],
					"name": "getElement",
					"outputs": [
						{
							"internalType": "uint256",
							"name": "",
							"type": "uint256"
						}
					],
					"stateMutability": "view",
					"type": "function"
				},
				{
					"inputs": [
						{
							"internalType": "uint256[5]",
							"name": "_array",
							"type": "uint256[5]"
						}
					],
					"name": "setArray",
					"outputs": [],
					"stateMutability": "nonpayable",
					"type": "function"
				},
				{
					"inputs": [
						{
							"internalType": "uint256",
							"name": "index",
							"type": "uint256"
						},
						{
							"internalType": "uint256",
							"name": "value",
							"type": "uint256"
						}
					],
					"name": "updateElement",
					"outputs": [],
					"stateMutability": "nonpayable",
					"type": "function"
				}
			],
			"devdoc": {
				"kind": "dev",
				"methods": {},
				"version": 1
			},
			"evm": {
				"assembly": "    /* \"contracts/6.fixedarray.sol\":70:988  contract FixedArrayExample {... */\n  mstore(0x40, 0x80)\n  callvalue\n  dup1\n  iszero\n  tag_1\n  jumpi\n  0x00\n  dup1\n  revert\ntag_1:\n  pop\n  dataSize(sub_0)\n  dup1\n  dataOffset(sub_0)\n  0x00\n  codecopy\n  0x00\n  return\nstop\n\nsub_0: assembly {\n        /* \"contracts/6.fixedarray.sol\":70:988  contract FixedArrayExample {... */\n      mstore(0x40, 0x80)\n      callvalue\n      dup1\n      iszero\n      tag_1\n      jumpi\n      0x00\n      dup1\n      revert\n    tag_1:\n      pop\n      jumpi(tag_2, lt(calldatasize, 0x04))\n      shr(0xe0, calldataload(0x00))\n      dup1\n      0x3a7d22bc\n      eq\n      tag_3\n      jumpi\n      dup1\n      0x988133fa\n      eq\n      tag_4\n      jumpi\n      dup1\n      0x9a5009ac\n      eq\n      tag_5\n      jumpi\n      dup1\n      0xa09aa87e\n      eq\n      tag_6\n      jumpi\n      dup1\n      0xd504ea1d\n      eq\n      tag_7\n      jumpi\n    tag_2:\n      0x00\n      dup1\n      revert\n        /* \"contracts/6.fixedarray.sol\":406:585  function getElement(uint256 index) public view returns (uint256) {... */\n    tag_3:\n      tag_8\n      0x04\n      dup1\n      calldatasize\n      sub\n      dup2\n      add\n      swap1\n      tag_9\n      swap2\n      swap1\n      tag_10\n      jump\t// in\n    tag_9:\n      tag_11\n      jump\t// in\n    tag_8:\n      mload(0x40)\n      tag_12\n      swap2\n      swap1\n      tag_13\n      jump\t// in\n    tag_12:\n      mload(0x40)\n      dup1\n      swap2\n      sub\n      swap1\n      return\n        /* \"contracts/6.fixedarray.sol\":811:986  function updateElement(uint256 index, uint256 value) public {... */\n    tag_4:\n      tag_14\n      0x04\n      dup1\n      calldatasize\n      sub\n      dup2\n      add\n      swap1\n      tag_15\n      swap2\n      swap1\n      tag_16\n      jump\t// in\n    tag_15:\n      tag_17\n      jump\t// in\n    tag_14:\n      stop\n        /* \"contracts/6.fixedarray.sol\":152:180  uint256[5] public fixedArray */\n    tag_5:\n      tag_18\n      0x04\n      dup1\n      calldatasize\n      sub\n      dup2\n      add\n      swap1\n      tag_19\n      swap2\n      swap1\n      tag_10\n      jump\t// in\n    tag_19:\n      tag_20\n      jump\t// in\n    tag_18:\n      mload(0x40)\n      tag_21\n      swap2\n      swap1\n      tag_13\n      jump\t// in\n    tag_21:\n      mload(0x40)\n      dup1\n      swap2\n      sub\n      swap1\n      return\n        /* \"contracts/6.fixedarray.sol\":245:332  function setArray(uint256[5] memory _array) public {... */\n    tag_6:\n      tag_22\n      0x04\n      dup1\n      calldatasize\n      sub\n      dup2\n      add\n      swap1\n      tag_23\n      swap2\n      swap1\n      tag_24\n      jump\t// in\n    tag_23:\n      tag_25\n      jump\t// in\n    tag_22:\n      stop\n        /* \"contracts/6.fixedarray.sol\":642:736  function getArray() public view returns (uint256[5] memory) {... */\n    tag_7:\n      tag_26\n      tag_27\n      jump\t// in\n    tag_26:\n      mload(0x40)\n      tag_28\n      swap2\n      swap1\n      tag_29\n      jump\t// in\n    tag_28:\n      mload(0x40)\n      dup1\n      swap2\n      sub\n      swap1\n      return\n        /* \"contracts/6.fixedarray.sol\":406:585  function getElement(uint256 index) public view returns (uint256) {... */\n    tag_11:\n        /* \"contracts/6.fixedarray.sol\":462:469  uint256 */\n      0x00\n        /* \"contracts/6.fixedarray.sol\":497:498  5 */\n      0x05\n        /* \"contracts/6.fixedarray.sol\":489:494  index */\n      dup3\n        /* \"contracts/6.fixedarray.sol\":489:498  index < 5 */\n      lt\n        /* \"contracts/6.fixedarray.sol\":481:522  require(index < 5, \"Index out of bounds\") */\n      tag_31\n      jumpi\n      mload(0x40)\n      0x08c379a000000000000000000000000000000000000000000000000000000000\n      dup2\n      mstore\n      0x04\n      add\n      tag_32\n      swap1\n      tag_33\n      jump\t// in\n    tag_32:\n      mload(0x40)\n      dup1\n      swap2\n      sub\n      swap1\n      revert\n    tag_31:\n        /* \"contracts/6.fixedarray.sol\":561:571  fixedArray */\n      0x00\n        /* \"contracts/6.fixedarray.sol\":572:577  index */\n      dup3\n        /* \"contracts/6.fixedarray.sol\":561:578  fixedArray[index] */\n      0x05\n      dup2\n      lt\n      tag_34\n      jumpi\n      tag_35\n      tag_36\n      jump\t// in\n    tag_35:\n    tag_34:\n      add\n      sload\n        /* \"contracts/6.fixedarray.sol\":554:578  return fixedArray[index] */\n      swap1\n      pop\n        /* \"contracts/6.fixedarray.sol\":406:585  function getElement(uint256 index) public view returns (uint256) {... */\n      swap2\n      swap1\n      pop\n      jump\t// out\n        /* \"contracts/6.fixedarray.sol\":811:986  function updateElement(uint256 index, uint256 value) public {... */\n    tag_17:\n        /* \"contracts/6.fixedarray.sol\":897:898  5 */\n      0x05\n        /* \"contracts/6.fixedarray.sol\":889:894  index */\n      dup3\n        /* \"contracts/6.fixedarray.sol\":889:898  index < 5 */\n      lt\n        /* \"contracts/6.fixedarray.sol\":881:922  require(index < 5, \"Index out of bounds\") */\n      tag_39\n      jumpi\n      mload(0x40)\n      0x08c379a000000000000000000000000000000000000000000000000000000000\n      dup2\n      mstore\n      0x04\n      add\n      tag_40\n      swap1\n      tag_33\n      jump\t// in\n    tag_40:\n      mload(0x40)\n      dup1\n      swap2\n      sub\n      swap1\n      revert\n    tag_39:\n        /* \"contracts/6.fixedarray.sol\":974:979  value */\n      dup1\n        /* \"contracts/6.fixedarray.sol\":954:964  fixedArray */\n      0x00\n        /* \"contracts/6.fixedarray.sol\":965:970  index */\n      dup4\n        /* \"contracts/6.fixedarray.sol\":954:971  fixedArray[index] */\n      0x05\n      dup2\n      lt\n      tag_41\n      jumpi\n      tag_42\n      tag_36\n      jump\t// in\n    tag_42:\n    tag_41:\n      add\n        /* \"contracts/6.fixedarray.sol\":954:979  fixedArray[index] = value */\n      dup2\n      swap1\n      sstore\n      pop\n        /* \"contracts/6.fixedarray.sol\":811:986  function updateElement(uint256 index, uint256 value) public {... */\n      pop\n      pop\n      jump\t// out\n        /* \"contracts/6.fixedarray.sol\":152:180  uint256[5] public fixedArray */\n    tag_20:\n      0x00\n      dup2\n      0x05\n      dup2\n      lt\n      tag_44\n      jumpi\n      0x00\n      dup1\n      revert\n    tag_44:\n      add\n      0x00\n      swap2\n      pop\n      swap1\n      pop\n      sload\n      dup2\n      jump\t// out\n        /* \"contracts/6.fixedarray.sol\":245:332  function setArray(uint256[5] memory _array) public {... */\n    tag_25:\n        /* \"contracts/6.fixedarray.sol\":319:325  _array */\n      dup1\n        /* \"contracts/6.fixedarray.sol\":306:316  fixedArray */\n      0x00\n        /* \"contracts/6.fixedarray.sol\":306:325  fixedArray = _array */\n      swap1\n      0x05\n      tag_47\n      swap3\n      swap2\n      swap1\n      tag_48\n      jump\t// in\n    tag_47:\n      pop\n        /* \"contracts/6.fixedarray.sol\":245:332  function setArray(uint256[5] memory _array) public {... */\n      pop\n      jump\t// out\n        /* \"contracts/6.fixedarray.sol\":642:736  function getArray() public view returns (uint256[5] memory) {... */\n    tag_27:\n        /* \"contracts/6.fixedarray.sol\":683:700  uint256[5] memory */\n      tag_49\n      tag_50\n      jump\t// in\n    tag_49:\n        /* \"contracts/6.fixedarray.sol\":719:729  fixedArray */\n      0x00\n        /* \"contracts/6.fixedarray.sol\":712:729  return fixedArray */\n      0x05\n      dup1\n      0x20\n      mul\n      mload(0x40)\n      swap1\n      dup2\n      add\n      0x40\n      mstore\n      dup1\n      swap3\n      swap2\n      swap1\n      dup3\n      0x05\n      dup1\n      iszero\n      tag_52\n      jumpi\n      0x20\n      mul\n      dup3\n      add\n      swap2\n    tag_53:\n      dup2\n      sload\n      dup2\n      mstore\n      0x20\n      add\n      swap1\n      0x01\n      add\n      swap1\n      dup1\n      dup4\n      gt\n      tag_53\n      jumpi\n    tag_52:\n      pop\n      pop\n      pop\n      pop\n      pop\n      swap1\n      pop\n        /* \"contracts/6.fixedarray.sol\":642:736  function getArray() public view returns (uint256[5] memory) {... */\n      swap1\n      jump\t// out\n    tag_48:\n      dup3\n      0x05\n      dup2\n      add\n      swap3\n      dup3\n      iszero\n      tag_54\n      jumpi\n      swap2\n      0x20\n      mul\n      dup3\n      add\n    tag_55:\n      dup3\n      dup2\n      gt\n      iszero\n      tag_56\n      jumpi\n      dup3\n      mload\n      dup3\n      sstore\n      swap2\n      0x20\n      add\n      swap2\n      swap1\n      0x01\n      add\n      swap1\n      jump(tag_55)\n    tag_56:\n    tag_54:\n      pop\n      swap1\n      pop\n      tag_57\n      swap2\n      swap1\n      tag_58\n      jump\t// in\n    tag_57:\n      pop\n      swap1\n      jump\t// out\n    tag_50:\n      mload(0x40)\n      dup1\n      0xa0\n      add\n      0x40\n      mstore\n      dup1\n      0x05\n      swap1\n      0x20\n      dup3\n      mul\n      dup1\n      calldatasize\n      dup4\n      calldatacopy\n      dup1\n      dup3\n      add\n      swap2\n      pop\n      pop\n      swap1\n      pop\n      pop\n      swap1\n      jump\t// out\n    tag_58:\n    tag_59:\n      dup1\n      dup3\n      gt\n      iszero\n      tag_60\n      jumpi\n      0x00\n      dup2\n      0x00\n      swap1\n      sstore\n      pop\n      0x01\n      add\n      jump(tag_59)\n    tag_60:\n      pop\n      swap1\n      jump\t// out\n        /* \"#utility.yul\":7:82   */\n    tag_61:\n        /* \"#utility.yul\":40:46   */\n      0x00\n        /* \"#utility.yul\":73:75   */\n      0x40\n        /* \"#utility.yul\":67:76   */\n      mload\n        /* \"#utility.yul\":57:76   */\n      swap1\n      pop\n        /* \"#utility.yul\":7:82   */\n      swap1\n      jump\t// out\n        /* \"#utility.yul\":88:205   */\n    tag_62:\n        /* \"#utility.yul\":197:198   */\n      0x00\n        /* \"#utility.yul\":194:195   */\n      dup1\n        /* \"#utility.yul\":187:199   */\n      revert\n        /* \"#utility.yul\":334:411   */\n    tag_64:\n        /* \"#utility.yul\":371:378   */\n      0x00\n        /* \"#utility.yul\":400:405   */\n      dup2\n        /* \"#utility.yul\":389:405   */\n      swap1\n      pop\n        /* \"#utility.yul\":334:411   */\n      swap2\n      swap1\n      pop\n      jump\t// out\n        /* \"#utility.yul\":417:539   */\n    tag_65:\n        /* \"#utility.yul\":490:514   */\n      tag_93\n        /* \"#utility.yul\":508:513   */\n      dup2\n        /* \"#utility.yul\":490:514   */\n      tag_64\n      jump\t// in\n    tag_93:\n        /* \"#utility.yul\":483:488   */\n      dup2\n        /* \"#utility.yul\":480:515   */\n      eq\n        /* \"#utility.yul\":470:533   */\n      tag_94\n      jumpi\n        /* \"#utility.yul\":529:530   */\n      0x00\n        /* \"#utility.yul\":526:527   */\n      dup1\n        /* \"#utility.yul\":519:531   */\n      revert\n        /* \"#utility.yul\":470:533   */\n    tag_94:\n        /* \"#utility.yul\":417:539   */\n      pop\n      jump\t// out\n        /* \"#utility.yul\":545:684   */\n    tag_66:\n        /* \"#utility.yul\":591:596   */\n      0x00\n        /* \"#utility.yul\":629:635   */\n      dup2\n        /* \"#utility.yul\":616:636   */\n      calldataload\n        /* \"#utility.yul\":607:636   */\n      swap1\n      pop\n        /* \"#utility.yul\":645:678   */\n      tag_96\n        /* \"#utility.yul\":672:677   */\n      dup2\n        /* \"#utility.yul\":645:678   */\n      tag_65\n      jump\t// in\n    tag_96:\n        /* \"#utility.yul\":545:684   */\n      swap3\n      swap2\n      pop\n      pop\n      jump\t// out\n        /* \"#utility.yul\":690:1019   */\n    tag_10:\n        /* \"#utility.yul\":749:755   */\n      0x00\n        /* \"#utility.yul\":798:800   */\n      0x20\n        /* \"#utility.yul\":786:795   */\n      dup3\n        /* \"#utility.yul\":777:784   */\n      dup5\n        /* \"#utility.yul\":773:796   */\n      sub\n        /* \"#utility.yul\":769:801   */\n      slt\n        /* \"#utility.yul\":766:885   */\n      iszero\n      tag_98\n      jumpi\n        /* \"#utility.yul\":804:883   */\n      tag_99\n      tag_62\n      jump\t// in\n    tag_99:\n        /* \"#utility.yul\":766:885   */\n    tag_98:\n        /* \"#utility.yul\":924:925   */\n      0x00\n        /* \"#utility.yul\":949:1002   */\n      tag_100\n        /* \"#utility.yul\":994:1001   */\n      dup5\n        /* \"#utility.yul\":985:991   */\n      dup3\n        /* \"#utility.yul\":974:983   */\n      dup6\n        /* \"#utility.yul\":970:992   */\n      add\n        /* \"#utility.yul\":949:1002   */\n      tag_66\n      jump\t// in\n    tag_100:\n        /* \"#utility.yul\":939:1002   */\n      swap2\n      pop\n        /* \"#utility.yul\":895:1012   */\n      pop\n        /* \"#utility.yul\":690:1019   */\n      swap3\n      swap2\n      pop\n      pop\n      jump\t// out\n        /* \"#utility.yul\":1025:1143   */\n    tag_67:\n        /* \"#utility.yul\":1112:1136   */\n      tag_102\n        /* \"#utility.yul\":1130:1135   */\n      dup2\n        /* \"#utility.yul\":1112:1136   */\n      tag_64\n      jump\t// in\n    tag_102:\n        /* \"#utility.yul\":1107:1110   */\n      dup3\n        /* \"#utility.yul\":1100:1137   */\n      mstore\n        /* \"#utility.yul\":1025:1143   */\n      pop\n      pop\n      jump\t// out\n        /* \"#utility.yul\":1149:1371   */\n    tag_13:\n        /* \"#utility.yul\":1242:1246   */\n      0x00\n        /* \"#utility.yul\":1280:1282   */\n      0x20\n        /* \"#utility.yul\":1269:1278   */\n      dup3\n        /* \"#utility.yul\":1265:1283   */\n      add\n        /* \"#utility.yul\":1257:1283   */\n      swap1\n      pop\n        /* \"#utility.yul\":1293:1364   */\n      tag_104\n        /* \"#utility.yul\":1361:1362   */\n      0x00\n        /* \"#utility.yul\":1350:1359   */\n      dup4\n        /* \"#utility.yul\":1346:1363   */\n      add\n        /* \"#utility.yul\":1337:1343   */\n      dup5\n        /* \"#utility.yul\":1293:1364   */\n      tag_67\n      jump\t// in\n    tag_104:\n        /* \"#utility.yul\":1149:1371   */\n      swap3\n      swap2\n      pop\n      pop\n      jump\t// out\n        /* \"#utility.yul\":1377:1851   */\n    tag_16:\n        /* \"#utility.yul\":1445:1451   */\n      0x00\n        /* \"#utility.yul\":1453:1459   */\n      dup1\n        /* \"#utility.yul\":1502:1504   */\n      0x40\n        /* \"#utility.yul\":1490:1499   */\n      dup4\n        /* \"#utility.yul\":1481:1488   */\n      dup6\n        /* \"#utility.yul\":1477:1500   */\n      sub\n        /* \"#utility.yul\":1473:1505   */\n      slt\n        /* \"#utility.yul\":1470:1589   */\n      iszero\n      tag_106\n      jumpi\n        /* \"#utility.yul\":1508:1587   */\n      tag_107\n      tag_62\n      jump\t// in\n    tag_107:\n        /* \"#utility.yul\":1470:1589   */\n    tag_106:\n        /* \"#utility.yul\":1628:1629   */\n      0x00\n        /* \"#utility.yul\":1653:1706   */\n      tag_108\n        /* \"#utility.yul\":1698:1705   */\n      dup6\n        /* \"#utility.yul\":1689:1695   */\n      dup3\n        /* \"#utility.yul\":1678:1687   */\n      dup7\n        /* \"#utility.yul\":1674:1696   */\n      add\n        /* \"#utility.yul\":1653:1706   */\n      tag_66\n      jump\t// in\n    tag_108:\n        /* \"#utility.yul\":1643:1706   */\n      swap3\n      pop\n        /* \"#utility.yul\":1599:1716   */\n      pop\n        /* \"#utility.yul\":1755:1757   */\n      0x20\n        /* \"#utility.yul\":1781:1834   */\n      tag_109\n        /* \"#utility.yul\":1826:1833   */\n      dup6\n        /* \"#utility.yul\":1817:1823   */\n      dup3\n        /* \"#utility.yul\":1806:1815   */\n      dup7\n        /* \"#utility.yul\":1802:1824   */\n      add\n        /* \"#utility.yul\":1781:1834   */\n      tag_66\n      jump\t// in\n    tag_109:\n        /* \"#utility.yul\":1771:1834   */\n      swap2\n      pop\n        /* \"#utility.yul\":1726:1844   */\n      pop\n        /* \"#utility.yul\":1377:1851   */\n      swap3\n      pop\n      swap3\n      swap1\n      pop\n      jump\t// out\n        /* \"#utility.yul\":1857:1974   */\n    tag_68:\n        /* \"#utility.yul\":1966:1967   */\n      0x00\n        /* \"#utility.yul\":1963:1964   */\n      dup1\n        /* \"#utility.yul\":1956:1968   */\n      revert\n        /* \"#utility.yul\":1980:2082   */\n    tag_69:\n        /* \"#utility.yul\":2021:2027   */\n      0x00\n        /* \"#utility.yul\":2072:2074   */\n      0x1f\n        /* \"#utility.yul\":2068:2075   */\n      not\n        /* \"#utility.yul\":2063:2065   */\n      0x1f\n        /* \"#utility.yul\":2056:2061   */\n      dup4\n        /* \"#utility.yul\":2052:2066   */\n      add\n        /* \"#utility.yul\":2048:2076   */\n      and\n        /* \"#utility.yul\":2038:2076   */\n      swap1\n      pop\n        /* \"#utility.yul\":1980:2082   */\n      swap2\n      swap1\n      pop\n      jump\t// out\n        /* \"#utility.yul\":2088:2268   */\n    tag_70:\n        /* \"#utility.yul\":2136:2213   */\n      0x4e487b7100000000000000000000000000000000000000000000000000000000\n        /* \"#utility.yul\":2133:2134   */\n      0x00\n        /* \"#utility.yul\":2126:2214   */\n      mstore\n        /* \"#utility.yul\":2233:2237   */\n      0x41\n        /* \"#utility.yul\":2230:2231   */\n      0x04\n        /* \"#utility.yul\":2223:2238   */\n      mstore\n        /* \"#utility.yul\":2257:2261   */\n      0x24\n        /* \"#utility.yul\":2254:2255   */\n      0x00\n        /* \"#utility.yul\":2247:2262   */\n      revert\n        /* \"#utility.yul\":2274:2555   */\n    tag_71:\n        /* \"#utility.yul\":2357:2384   */\n      tag_114\n        /* \"#utility.yul\":2379:2383   */\n      dup3\n        /* \"#utility.yul\":2357:2384   */\n      tag_69\n      jump\t// in\n    tag_114:\n        /* \"#utility.yul\":2349:2355   */\n      dup2\n        /* \"#utility.yul\":2345:2385   */\n      add\n        /* \"#utility.yul\":2487:2493   */\n      dup2\n        /* \"#utility.yul\":2475:2485   */\n      dup2\n        /* \"#utility.yul\":2472:2494   */\n      lt\n        /* \"#utility.yul\":2451:2469   */\n      0xffffffffffffffff\n        /* \"#utility.yul\":2439:2449   */\n      dup3\n        /* \"#utility.yul\":2436:2470   */\n      gt\n        /* \"#utility.yul\":2433:2495   */\n      or\n        /* \"#utility.yul\":2430:2518   */\n      iszero\n      tag_115\n      jumpi\n        /* \"#utility.yul\":2498:2516   */\n      tag_116\n      tag_70\n      jump\t// in\n    tag_116:\n        /* \"#utility.yul\":2430:2518   */\n    tag_115:\n        /* \"#utility.yul\":2538:2548   */\n      dup1\n        /* \"#utility.yul\":2534:2536   */\n      0x40\n        /* \"#utility.yul\":2527:2549   */\n      mstore\n        /* \"#utility.yul\":2317:2555   */\n      pop\n        /* \"#utility.yul\":2274:2555   */\n      pop\n      pop\n      jump\t// out\n        /* \"#utility.yul\":2561:2690   */\n    tag_72:\n        /* \"#utility.yul\":2595:2601   */\n      0x00\n        /* \"#utility.yul\":2622:2642   */\n      tag_118\n      tag_61\n      jump\t// in\n    tag_118:\n        /* \"#utility.yul\":2612:2642   */\n      swap1\n      pop\n        /* \"#utility.yul\":2651:2684   */\n      tag_119\n        /* \"#utility.yul\":2679:2683   */\n      dup3\n        /* \"#utility.yul\":2671:2677   */\n      dup3\n        /* \"#utility.yul\":2651:2684   */\n      tag_71\n      jump\t// in\n    tag_119:\n        /* \"#utility.yul\":2561:2690   */\n      swap2\n      swap1\n      pop\n      jump\t// out\n        /* \"#utility.yul\":2696:2945   */\n    tag_73:\n        /* \"#utility.yul\":2771:2775   */\n      0x00\n        /* \"#utility.yul\":2861:2879   */\n      0xffffffffffffffff\n        /* \"#utility.yul\":2853:2859   */\n      dup3\n        /* \"#utility.yul\":2850:2880   */\n      gt\n        /* \"#utility.yul\":2847:2903   */\n      iszero\n      tag_121\n      jumpi\n        /* \"#utility.yul\":2883:2901   */\n      tag_122\n      tag_70\n      jump\t// in\n    tag_122:\n        /* \"#utility.yul\":2847:2903   */\n    tag_121:\n        /* \"#utility.yul\":2933:2937   */\n      0x20\n        /* \"#utility.yul\":2925:2931   */\n      dup3\n        /* \"#utility.yul\":2921:2938   */\n      mul\n        /* \"#utility.yul\":2913:2938   */\n      swap1\n      pop\n        /* \"#utility.yul\":2696:2945   */\n      swap2\n      swap1\n      pop\n      jump\t// out\n        /* \"#utility.yul\":2951:3068   */\n    tag_74:\n        /* \"#utility.yul\":3060:3061   */\n      0x00\n        /* \"#utility.yul\":3057:3058   */\n      dup1\n        /* \"#utility.yul\":3050:3062   */\n      revert\n        /* \"#utility.yul\":3092:3735   */\n    tag_75:\n        /* \"#utility.yul\":3186:3191   */\n      0x00\n        /* \"#utility.yul\":3211:3290   */\n      tag_125\n        /* \"#utility.yul\":3227:3289   */\n      tag_126\n        /* \"#utility.yul\":3282:3288   */\n      dup5\n        /* \"#utility.yul\":3227:3289   */\n      tag_73\n      jump\t// in\n    tag_126:\n        /* \"#utility.yul\":3211:3290   */\n      tag_72\n      jump\t// in\n    tag_125:\n        /* \"#utility.yul\":3202:3290   */\n      swap1\n      pop\n        /* \"#utility.yul\":3310:3315   */\n      dup1\n        /* \"#utility.yul\":3363:3367   */\n      0x20\n        /* \"#utility.yul\":3355:3361   */\n      dup5\n        /* \"#utility.yul\":3351:3368   */\n      mul\n        /* \"#utility.yul\":3343:3349   */\n      dup4\n        /* \"#utility.yul\":3339:3369   */\n      add\n        /* \"#utility.yul\":3392:3395   */\n      dup6\n        /* \"#utility.yul\":3384:3390   */\n      dup2\n        /* \"#utility.yul\":3381:3396   */\n      gt\n        /* \"#utility.yul\":3378:3500   */\n      iszero\n      tag_127\n      jumpi\n        /* \"#utility.yul\":3411:3490   */\n      tag_128\n      tag_74\n      jump\t// in\n    tag_128:\n        /* \"#utility.yul\":3378:3500   */\n    tag_127:\n        /* \"#utility.yul\":3526:3532   */\n      dup4\n        /* \"#utility.yul\":3509:3729   */\n    tag_129:\n        /* \"#utility.yul\":3543:3549   */\n      dup2\n        /* \"#utility.yul\":3538:3541   */\n      dup2\n        /* \"#utility.yul\":3535:3550   */\n      lt\n        /* \"#utility.yul\":3509:3729   */\n      iszero\n      tag_131\n      jumpi\n        /* \"#utility.yul\":3618:3621   */\n      dup1\n        /* \"#utility.yul\":3647:3684   */\n      tag_132\n        /* \"#utility.yul\":3680:3683   */\n      dup9\n        /* \"#utility.yul\":3668:3678   */\n      dup3\n        /* \"#utility.yul\":3647:3684   */\n      tag_66\n      jump\t// in\n    tag_132:\n        /* \"#utility.yul\":3642:3645   */\n      dup5\n        /* \"#utility.yul\":3635:3685   */\n      mstore\n        /* \"#utility.yul\":3714:3718   */\n      0x20\n        /* \"#utility.yul\":3709:3712   */\n      dup5\n        /* \"#utility.yul\":3705:3719   */\n      add\n        /* \"#utility.yul\":3698:3719   */\n      swap4\n      pop\n        /* \"#utility.yul\":3585:3729   */\n      pop\n        /* \"#utility.yul\":3569:3573   */\n      0x20\n        /* \"#utility.yul\":3564:3567   */\n      dup2\n        /* \"#utility.yul\":3560:3574   */\n      add\n        /* \"#utility.yul\":3553:3574   */\n      swap1\n      pop\n        /* \"#utility.yul\":3509:3729   */\n      jump(tag_129)\n    tag_131:\n        /* \"#utility.yul\":3513:3534   */\n      pop\n        /* \"#utility.yul\":3192:3735   */\n      pop\n      pop\n        /* \"#utility.yul\":3092:3735   */\n      swap4\n      swap3\n      pop\n      pop\n      pop\n      jump\t// out\n        /* \"#utility.yul\":3759:4098   */\n    tag_76:\n        /* \"#utility.yul\":3828:3833   */\n      0x00\n        /* \"#utility.yul\":3877:3880   */\n      dup3\n        /* \"#utility.yul\":3870:3874   */\n      0x1f\n        /* \"#utility.yul\":3862:3868   */\n      dup4\n        /* \"#utility.yul\":3858:3875   */\n      add\n        /* \"#utility.yul\":3854:3881   */\n      slt\n        /* \"#utility.yul\":3844:3966   */\n      tag_134\n      jumpi\n        /* \"#utility.yul\":3885:3964   */\n      tag_135\n      tag_68\n      jump\t// in\n    tag_135:\n        /* \"#utility.yul\":3844:3966   */\n    tag_134:\n        /* \"#utility.yul\":3989:3993   */\n      0x05\n        /* \"#utility.yul\":4011:4092   */\n      tag_136\n        /* \"#utility.yul\":4088:4091   */\n      dup5\n        /* \"#utility.yul\":4080:4086   */\n      dup3\n        /* \"#utility.yul\":4072:4078   */\n      dup6\n        /* \"#utility.yul\":4011:4092   */\n      tag_75\n      jump\t// in\n    tag_136:\n        /* \"#utility.yul\":4002:4092   */\n      swap2\n      pop\n        /* \"#utility.yul\":3834:4098   */\n      pop\n        /* \"#utility.yul\":3759:4098   */\n      swap3\n      swap2\n      pop\n      pop\n      jump\t// out\n        /* \"#utility.yul\":4104:4480   */\n    tag_24:\n        /* \"#utility.yul\":4186:4192   */\n      0x00\n        /* \"#utility.yul\":4235:4238   */\n      0xa0\n        /* \"#utility.yul\":4223:4232   */\n      dup3\n        /* \"#utility.yul\":4214:4221   */\n      dup5\n        /* \"#utility.yul\":4210:4233   */\n      sub\n        /* \"#utility.yul\":4206:4239   */\n      slt\n        /* \"#utility.yul\":4203:4323   */\n      iszero\n      tag_138\n      jumpi\n        /* \"#utility.yul\":4242:4321   */\n      tag_139\n      tag_62\n      jump\t// in\n    tag_139:\n        /* \"#utility.yul\":4203:4323   */\n    tag_138:\n        /* \"#utility.yul\":4362:4363   */\n      0x00\n        /* \"#utility.yul\":4387:4463   */\n      tag_140\n        /* \"#utility.yul\":4455:4462   */\n      dup5\n        /* \"#utility.yul\":4446:4452   */\n      dup3\n        /* \"#utility.yul\":4435:4444   */\n      dup6\n        /* \"#utility.yul\":4431:4453   */\n      add\n        /* \"#utility.yul\":4387:4463   */\n      tag_76\n      jump\t// in\n    tag_140:\n        /* \"#utility.yul\":4377:4463   */\n      swap2\n      pop\n        /* \"#utility.yul\":4333:4473   */\n      pop\n        /* \"#utility.yul\":4104:4480   */\n      swap3\n      swap2\n      pop\n      pop\n      jump\t// out\n        /* \"#utility.yul\":4486:4590   */\n    tag_77:\n        /* \"#utility.yul\":4551:4557   */\n      0x00\n        /* \"#utility.yul\":4579:4583   */\n      0x05\n        /* \"#utility.yul\":4569:4583   */\n      swap1\n      pop\n        /* \"#utility.yul\":4486:4590   */\n      swap2\n      swap1\n      pop\n      jump\t// out\n        /* \"#utility.yul\":4596:4739   */\n    tag_78:\n        /* \"#utility.yul\":4693:4704   */\n      0x00\n        /* \"#utility.yul\":4730:4733   */\n      dup2\n        /* \"#utility.yul\":4715:4733   */\n      swap1\n      pop\n        /* \"#utility.yul\":4596:4739   */\n      swap3\n      swap2\n      pop\n      pop\n      jump\t// out\n        /* \"#utility.yul\":4745:4843   */\n    tag_79:\n        /* \"#utility.yul\":4810:4814   */\n      0x00\n        /* \"#utility.yul\":4833:4836   */\n      dup2\n        /* \"#utility.yul\":4825:4836   */\n      swap1\n      pop\n        /* \"#utility.yul\":4745:4843   */\n      swap2\n      swap1\n      pop\n      jump\t// out\n        /* \"#utility.yul\":4849:4957   */\n    tag_80:\n        /* \"#utility.yul\":4926:4950   */\n      tag_145\n        /* \"#utility.yul\":4944:4949   */\n      dup2\n        /* \"#utility.yul\":4926:4950   */\n      tag_64\n      jump\t// in\n    tag_145:\n        /* \"#utility.yul\":4921:4924   */\n      dup3\n        /* \"#utility.yul\":4914:4951   */\n      mstore\n        /* \"#utility.yul\":4849:4957   */\n      pop\n      pop\n      jump\t// out\n        /* \"#utility.yul\":4963:5142   */\n    tag_81:\n        /* \"#utility.yul\":5032:5042   */\n      0x00\n        /* \"#utility.yul\":5053:5099   */\n      tag_147\n        /* \"#utility.yul\":5095:5098   */\n      dup4\n        /* \"#utility.yul\":5087:5093   */\n      dup4\n        /* \"#utility.yul\":5053:5099   */\n      tag_80\n      jump\t// in\n    tag_147:\n        /* \"#utility.yul\":5131:5135   */\n      0x20\n        /* \"#utility.yul\":5126:5129   */\n      dup4\n        /* \"#utility.yul\":5122:5136   */\n      add\n        /* \"#utility.yul\":5108:5136   */\n      swap1\n      pop\n        /* \"#utility.yul\":4963:5142   */\n      swap3\n      swap2\n      pop\n      pop\n      jump\t// out\n        /* \"#utility.yul\":5148:5259   */\n    tag_82:\n        /* \"#utility.yul\":5216:5220   */\n      0x00\n        /* \"#utility.yul\":5248:5252   */\n      0x20\n        /* \"#utility.yul\":5243:5246   */\n      dup3\n        /* \"#utility.yul\":5239:5253   */\n      add\n        /* \"#utility.yul\":5231:5253   */\n      swap1\n      pop\n        /* \"#utility.yul\":5148:5259   */\n      swap2\n      swap1\n      pop\n      jump\t// out\n        /* \"#utility.yul\":5297:5991   */\n    tag_83:\n        /* \"#utility.yul\":5433:5485   */\n      tag_150\n        /* \"#utility.yul\":5479:5484   */\n      dup2\n        /* \"#utility.yul\":5433:5485   */\n      tag_77\n      jump\t// in\n    tag_150:\n        /* \"#utility.yul\":5501:5585   */\n      tag_151\n        /* \"#utility.yul\":5578:5584   */\n      dup2\n        /* \"#utility.yul\":5573:5576   */\n      dup5\n        /* \"#utility.yul\":5501:5585   */\n      tag_78\n      jump\t// in\n    tag_151:\n        /* \"#utility.yul\":5494:5585   */\n      swap3\n      pop\n        /* \"#utility.yul\":5609:5663   */\n      tag_152\n        /* \"#utility.yul\":5657:5662   */\n      dup3\n        /* \"#utility.yul\":5609:5663   */\n      tag_79\n      jump\t// in\n    tag_152:\n        /* \"#utility.yul\":5686:5693   */\n      dup1\n        /* \"#utility.yul\":5717:5718   */\n      0x00\n        /* \"#utility.yul\":5702:5984   */\n    tag_153:\n        /* \"#utility.yul\":5727:5733   */\n      dup4\n        /* \"#utility.yul\":5724:5725   */\n      dup2\n        /* \"#utility.yul\":5721:5734   */\n      lt\n        /* \"#utility.yul\":5702:5984   */\n      iszero\n      tag_155\n      jumpi\n        /* \"#utility.yul\":5803:5809   */\n      dup2\n        /* \"#utility.yul\":5797:5810   */\n      mload\n        /* \"#utility.yul\":5830:5893   */\n      tag_156\n        /* \"#utility.yul\":5889:5892   */\n      dup8\n        /* \"#utility.yul\":5874:5887   */\n      dup3\n        /* \"#utility.yul\":5830:5893   */\n      tag_81\n      jump\t// in\n    tag_156:\n        /* \"#utility.yul\":5823:5893   */\n      swap7\n      pop\n        /* \"#utility.yul\":5916:5974   */\n      tag_157\n        /* \"#utility.yul\":5967:5973   */\n      dup4\n        /* \"#utility.yul\":5916:5974   */\n      tag_82\n      jump\t// in\n    tag_157:\n        /* \"#utility.yul\":5906:5974   */\n      swap3\n      pop\n        /* \"#utility.yul\":5762:5984   */\n      pop\n        /* \"#utility.yul\":5749:5750   */\n      0x01\n        /* \"#utility.yul\":5746:5747   */\n      dup2\n        /* \"#utility.yul\":5742:5751   */\n      add\n        /* \"#utility.yul\":5737:5751   */\n      swap1\n      pop\n        /* \"#utility.yul\":5702:5984   */\n      jump(tag_153)\n    tag_155:\n        /* \"#utility.yul\":5706:5720   */\n      pop\n        /* \"#utility.yul\":5409:5991   */\n      pop\n      pop\n      pop\n        /* \"#utility.yul\":5297:5991   */\n      pop\n      pop\n      jump\t// out\n        /* \"#utility.yul\":5997:6312   */\n    tag_29:\n        /* \"#utility.yul\":6136:6140   */\n      0x00\n        /* \"#utility.yul\":6174:6177   */\n      0xa0\n        /* \"#utility.yul\":6163:6172   */\n      dup3\n        /* \"#utility.yul\":6159:6178   */\n      add\n        /* \"#utility.yul\":6151:6178   */\n      swap1\n      pop\n        /* \"#utility.yul\":6188:6305   */\n      tag_159\n        /* \"#utility.yul\":6302:6303   */\n      0x00\n        /* \"#utility.yul\":6291:6300   */\n      dup4\n        /* \"#utility.yul\":6287:6304   */\n      add\n        /* \"#utility.yul\":6278:6284   */\n      dup5\n        /* \"#utility.yul\":6188:6305   */\n      tag_83\n      jump\t// in\n    tag_159:\n        /* \"#utility.yul\":5997:6312   */\n      swap3\n      swap2\n      pop\n      pop\n      jump\t// out\n        /* \"#utility.yul\":6318:6487   */\n    tag_84:\n        /* \"#utility.yul\":6402:6413   */\n      0x00\n        /* \"#utility.yul\":6436:6442   */\n      dup3\n        /* \"#utility.yul\":6431:6434   */\n      dup3\n        /* \"#utility.yul\":6424:6443   */\n      mstore\n        /* \"#utility.yul\":6476:6480   */\n      0x20\n        /* \"#utility.yul\":6471:6474   */\n      dup3\n        /* \"#utility.yul\":6467:6481   */\n      add\n        /* \"#utility.yul\":6452:6481   */\n      swap1\n      pop\n        /* \"#utility.yul\":6318:6487   */\n      swap3\n      swap2\n      pop\n      pop\n      jump\t// out\n        /* \"#utility.yul\":6493:6662   */\n    tag_85:\n        /* \"#utility.yul\":6633:6654   */\n      0x496e646578206f7574206f6620626f756e647300000000000000000000000000\n        /* \"#utility.yul\":6629:6630   */\n      0x00\n        /* \"#utility.yul\":6621:6627   */\n      dup3\n        /* \"#utility.yul\":6617:6631   */\n      add\n        /* \"#utility.yul\":6610:6655   */\n      mstore\n        /* \"#utility.yul\":6493:6662   */\n      pop\n      jump\t// out\n        /* \"#utility.yul\":6668:7034   */\n    tag_86:\n        /* \"#utility.yul\":6810:6813   */\n      0x00\n        /* \"#utility.yul\":6831:6898   */\n      tag_163\n        /* \"#utility.yul\":6895:6897   */\n      0x13\n        /* \"#utility.yul\":6890:6893   */\n      dup4\n        /* \"#utility.yul\":6831:6898   */\n      tag_84\n      jump\t// in\n    tag_163:\n        /* \"#utility.yul\":6824:6898   */\n      swap2\n      pop\n        /* \"#utility.yul\":6907:7000   */\n      tag_164\n        /* \"#utility.yul\":6996:6999   */\n      dup3\n        /* \"#utility.yul\":6907:7000   */\n      tag_85\n      jump\t// in\n    tag_164:\n        /* \"#utility.yul\":7025:7027   */\n      0x20\n        /* \"#utility.yul\":7020:7023   */\n      dup3\n        /* \"#utility.yul\":7016:7028   */\n      add\n        /* \"#utility.yul\":7009:7028   */\n      swap1\n      pop\n        /* \"#utility.yul\":6668:7034   */\n      swap2\n      swap1\n      pop\n      jump\t// out\n        /* \"#utility.yul\":7040:7459   */\n    tag_33:\n        /* \"#utility.yul\":7206:7210   */\n      0x00\n        /* \"#utility.yul\":7244:7246   */\n      0x20\n        /* \"#utility.yul\":7233:7242   */\n      dup3\n        /* \"#utility.yul\":7229:7247   */\n      add\n        /* \"#utility.yul\":7221:7247   */\n      swap1\n      pop\n        /* \"#utility.yul\":7293:7302   */\n      dup2\n        /* \"#utility.yul\":7287:7291   */\n      dup2\n        /* \"#utility.yul\":7283:7303   */\n      sub\n        /* \"#utility.yul\":7279:7280   */\n      0x00\n        /* \"#utility.yul\":7268:7277   */\n      dup4\n        /* \"#utility.yul\":7264:7281   */\n      add\n        /* \"#utility.yul\":7257:7304   */\n      mstore\n        /* \"#utility.yul\":7321:7452   */\n      tag_166\n        /* \"#utility.yul\":7447:7451   */\n      dup2\n        /* \"#utility.yul\":7321:7452   */\n      tag_86\n      jump\t// in\n    tag_166:\n        /* \"#utility.yul\":7313:7452   */\n      swap1\n      pop\n        /* \"#utility.yul\":7040:7459   */\n      swap2\n      swap1\n      pop\n      jump\t// out\n        /* \"#utility.yul\":7465:7645   */\n    tag_36:\n        /* \"#utility.yul\":7513:7590   */\n      0x4e487b7100000000000000000000000000000000000000000000000000000000\n        /* \"#utility.yul\":7510:7511   */\n      0x00\n        /* \"#utility.yul\":7503:7591   */\n      mstore\n        /* \"#utility.yul\":7610:7614   */\n      0x32\n        /* \"#utility.yul\":7607:7608   */\n      0x04\n        /* \"#utility.yul\":7600:7615   */\n      mstore\n        /* \"#utility.yul\":7634:7638   */\n      0x24\n        /* \"#utility.yul\":7631:7632   */\n      0x00\n        /* \"#utility.yul\":7624:7639   */\n      revert\n\n    auxdata: 0xa264697066735822122050c1c0814c10e58df3b02a416ee5e71c3089917bf4f930eafab69c55c586c36764736f6c634300081a0033\n}\n",
				"bytecode": {
					"linkReferences": {},
					"object": "6080604052348015600e575f80fd5b506106958061001c5f395ff3fe608060405234801561000f575f80fd5b5060043610610055575f3560e01c80633a7d22bc14610059578063988133fa146100895780639a5009ac146100a5578063a09aa87e146100d5578063d504ea1d146100f1575b5f80fd5b610073600480360381019061006e9190610302565b61010f565b604051610080919061033c565b60405180910390f35b6100a3600480360381019061009e9190610355565b61016f565b005b6100bf60048036038101906100ba9190610302565b6101cf565b6040516100cc919061033c565b60405180910390f35b6100ef60048036038101906100ea91906104d1565b6101e7565b005b6100f96101fb565b60405161010691906105a1565b60405180910390f35b5f60058210610153576040517f08c379a000000000000000000000000000000000000000000000000000000000815260040161014a90610614565b60405180910390fd5b5f826005811061016657610165610632565b5b01549050919050565b600582106101b2576040517f08c379a00000000000000000000000000000000000000000000000000000000081526004016101a990610614565b60405180910390fd5b805f83600581106101c6576101c5610632565b5b01819055505050565b5f81600581106101dd575f80fd5b015f915090505481565b805f9060056101f7929190610245565b5050565b610203610285565b5f60058060200260405190810160405280929190826005801561023b576020028201915b815481526020019060010190808311610227575b5050505050905090565b8260058101928215610274579160200282015b82811115610273578251825591602001919060010190610258565b5b50905061028191906102a7565b5090565b6040518060a00160405280600590602082028036833780820191505090505090565b5b808211156102be575f815f9055506001016102a8565b5090565b5f604051905090565b5f80fd5b5f819050919050565b6102e1816102cf565b81146102eb575f80fd5b50565b5f813590506102fc816102d8565b92915050565b5f60208284031215610317576103166102cb565b5b5f610324848285016102ee565b91505092915050565b610336816102cf565b82525050565b5f60208201905061034f5f83018461032d565b92915050565b5f806040838503121561036b5761036a6102cb565b5b5f610378858286016102ee565b9250506020610389858286016102ee565b9150509250929050565b5f80fd5b5f601f19601f8301169050919050565b7f4e487b71000000000000000000000000000000000000000000000000000000005f52604160045260245ffd5b6103dd82610397565b810181811067ffffffffffffffff821117156103fc576103fb6103a7565b5b80604052505050565b5f61040e6102c2565b905061041a82826103d4565b919050565b5f67ffffffffffffffff821115610439576104386103a7565b5b602082029050919050565b5f80fd5b5f61045a6104558461041f565b610405565b9050806020840283018581111561047457610473610444565b5b835b8181101561049d578061048988826102ee565b845260208401935050602081019050610476565b5050509392505050565b5f82601f8301126104bb576104ba610393565b5b60056104c8848285610448565b91505092915050565b5f60a082840312156104e6576104e56102cb565b5b5f6104f3848285016104a7565b91505092915050565b5f60059050919050565b5f81905092915050565b5f819050919050565b610522816102cf565b82525050565b5f6105338383610519565b60208301905092915050565b5f602082019050919050565b610554816104fc565b61055e8184610506565b925061056982610510565b805f5b838110156105995781516105808782610528565b965061058b8361053f565b92505060018101905061056c565b505050505050565b5f60a0820190506105b45f83018461054b565b92915050565b5f82825260208201905092915050565b7f496e646578206f7574206f6620626f756e6473000000000000000000000000005f82015250565b5f6105fe6013836105ba565b9150610609826105ca565b602082019050919050565b5f6020820190508181035f83015261062b816105f2565b9050919050565b7f4e487b71000000000000000000000000000000000000000000000000000000005f52603260045260245ffdfea264697066735822122050c1c0814c10e58df3b02a416ee5e71c3089917bf4f930eafab69c55c586c36764736f6c634300081a0033",
					"opcodes": "PUSH1 0x80 PUSH1 0x40 MSTORE CALLVALUE DUP1 ISZERO PUSH1 0xE JUMPI PUSH0 DUP1 REVERT JUMPDEST POP PUSH2 0x695 DUP1 PUSH2 0x1C PUSH0 CODECOPY PUSH0 RETURN INVALID PUSH1 0x80 PUSH1 0x40 MSTORE CALLVALUE DUP1 ISZERO PUSH2 0xF JUMPI PUSH0 DUP1 REVERT JUMPDEST POP PUSH1 0x4 CALLDATASIZE LT PUSH2 0x55 JUMPI PUSH0 CALLDATALOAD PUSH1 0xE0 SHR DUP1 PUSH4 0x3A7D22BC EQ PUSH2 0x59 JUMPI DUP1 PUSH4 0x988133FA EQ PUSH2 0x89 JUMPI DUP1 PUSH4 0x9A5009AC EQ PUSH2 0xA5 JUMPI DUP1 PUSH4 0xA09AA87E EQ PUSH2 0xD5 JUMPI DUP1 PUSH4 0xD504EA1D EQ PUSH2 0xF1 JUMPI JUMPDEST PUSH0 DUP1 REVERT JUMPDEST PUSH2 0x73 PUSH1 0x4 DUP1 CALLDATASIZE SUB DUP2 ADD SWAP1 PUSH2 0x6E SWAP2 SWAP1 PUSH2 0x302 JUMP JUMPDEST PUSH2 0x10F JUMP JUMPDEST PUSH1 0x40 MLOAD PUSH2 0x80 SWAP2 SWAP1 PUSH2 0x33C JUMP JUMPDEST PUSH1 0x40 MLOAD DUP1 SWAP2 SUB SWAP1 RETURN JUMPDEST PUSH2 0xA3 PUSH1 0x4 DUP1 CALLDATASIZE SUB DUP2 ADD SWAP1 PUSH2 0x9E SWAP2 SWAP1 PUSH2 0x355 JUMP JUMPDEST PUSH2 0x16F JUMP JUMPDEST STOP JUMPDEST PUSH2 0xBF PUSH1 0x4 DUP1 CALLDATASIZE SUB DUP2 ADD SWAP1 PUSH2 0xBA SWAP2 SWAP1 PUSH2 0x302 JUMP JUMPDEST PUSH2 0x1CF JUMP JUMPDEST PUSH1 0x40 MLOAD PUSH2 0xCC SWAP2 SWAP1 PUSH2 0x33C JUMP JUMPDEST PUSH1 0x40 MLOAD DUP1 SWAP2 SUB SWAP1 RETURN JUMPDEST PUSH2 0xEF PUSH1 0x4 DUP1 CALLDATASIZE SUB DUP2 ADD SWAP1 PUSH2 0xEA SWAP2 SWAP1 PUSH2 0x4D1 JUMP JUMPDEST PUSH2 0x1E7 JUMP JUMPDEST STOP JUMPDEST PUSH2 0xF9 PUSH2 0x1FB JUMP JUMPDEST PUSH1 0x40 MLOAD PUSH2 0x106 SWAP2 SWAP1 PUSH2 0x5A1 JUMP JUMPDEST PUSH1 0x40 MLOAD DUP1 SWAP2 SUB SWAP1 RETURN JUMPDEST PUSH0 PUSH1 0x5 DUP3 LT PUSH2 0x153 JUMPI PUSH1 0x40 MLOAD PUSH32 0x8C379A000000000000000000000000000000000000000000000000000000000 DUP2 MSTORE PUSH1 0x4 ADD PUSH2 0x14A SWAP1 PUSH2 0x614 JUMP JUMPDEST PUSH1 0x40 MLOAD DUP1 SWAP2 SUB SWAP1 REVERT JUMPDEST PUSH0 DUP3 PUSH1 0x5 DUP2 LT PUSH2 0x166 JUMPI PUSH2 0x165 PUSH2 0x632 JUMP JUMPDEST JUMPDEST ADD SLOAD SWAP1 POP SWAP2 SWAP1 POP JUMP JUMPDEST PUSH1 0x5 DUP3 LT PUSH2 0x1B2 JUMPI PUSH1 0x40 MLOAD PUSH32 0x8C379A000000000000000000000000000000000000000000000000000000000 DUP2 MSTORE PUSH1 0x4 ADD PUSH2 0x1A9 SWAP1 PUSH2 0x614 JUMP JUMPDEST PUSH1 0x40 MLOAD DUP1 SWAP2 SUB SWAP1 REVERT JUMPDEST DUP1 PUSH0 DUP4 PUSH1 0x5 DUP2 LT PUSH2 0x1C6 JUMPI PUSH2 0x1C5 PUSH2 0x632 JUMP JUMPDEST JUMPDEST ADD DUP2 SWAP1 SSTORE POP POP POP JUMP JUMPDEST PUSH0 DUP2 PUSH1 0x5 DUP2 LT PUSH2 0x1DD JUMPI PUSH0 DUP1 REVERT JUMPDEST ADD PUSH0 SWAP2 POP SWAP1 POP SLOAD DUP2 JUMP JUMPDEST DUP1 PUSH0 SWAP1 PUSH1 0x5 PUSH2 0x1F7 SWAP3 SWAP2 SWAP1 PUSH2 0x245 JUMP JUMPDEST POP POP JUMP JUMPDEST PUSH2 0x203 PUSH2 0x285 JUMP JUMPDEST PUSH0 PUSH1 0x5 DUP1 PUSH1 0x20 MUL PUSH1 0x40 MLOAD SWAP1 DUP2 ADD PUSH1 0x40 MSTORE DUP1 SWAP3 SWAP2 SWAP1 DUP3 PUSH1 0x5 DUP1 ISZERO PUSH2 0x23B JUMPI PUSH1 0x20 MUL DUP3 ADD SWAP2 JUMPDEST DUP2 SLOAD DUP2 MSTORE PUSH1 0x20 ADD SWAP1 PUSH1 0x1 ADD SWAP1 DUP1 DUP4 GT PUSH2 0x227 JUMPI JUMPDEST POP POP POP POP POP SWAP1 POP SWAP1 JUMP JUMPDEST DUP3 PUSH1 0x5 DUP2 ADD SWAP3 DUP3 ISZERO PUSH2 0x274 JUMPI SWAP2 PUSH1 0x20 MUL DUP3 ADD JUMPDEST DUP3 DUP2 GT ISZERO PUSH2 0x273 JUMPI DUP3 MLOAD DUP3 SSTORE SWAP2 PUSH1 0x20 ADD SWAP2 SWAP1 PUSH1 0x1 ADD SWAP1 PUSH2 0x258 JUMP JUMPDEST JUMPDEST POP SWAP1 POP PUSH2 0x281 SWAP2 SWAP1 PUSH2 0x2A7 JUMP JUMPDEST POP SWAP1 JUMP JUMPDEST PUSH1 0x40 MLOAD DUP1 PUSH1 0xA0 ADD PUSH1 0x40 MSTORE DUP1 PUSH1 0x5 SWAP1 PUSH1 0x20 DUP3 MUL DUP1 CALLDATASIZE DUP4 CALLDATACOPY DUP1 DUP3 ADD SWAP2 POP POP SWAP1 POP POP SWAP1 JUMP JUMPDEST JUMPDEST DUP1 DUP3 GT ISZERO PUSH2 0x2BE JUMPI PUSH0 DUP2 PUSH0 SWAP1 SSTORE POP PUSH1 0x1 ADD PUSH2 0x2A8 JUMP JUMPDEST POP SWAP1 JUMP JUMPDEST PUSH0 PUSH1 0x40 MLOAD SWAP1 POP SWAP1 JUMP JUMPDEST PUSH0 DUP1 REVERT JUMPDEST PUSH0 DUP2 SWAP1 POP SWAP2 SWAP1 POP JUMP JUMPDEST PUSH2 0x2E1 DUP2 PUSH2 0x2CF JUMP JUMPDEST DUP2 EQ PUSH2 0x2EB JUMPI PUSH0 DUP1 REVERT JUMPDEST POP JUMP JUMPDEST PUSH0 DUP2 CALLDATALOAD SWAP1 POP PUSH2 0x2FC DUP2 PUSH2 0x2D8 JUMP JUMPDEST SWAP3 SWAP2 POP POP JUMP JUMPDEST PUSH0 PUSH1 0x20 DUP3 DUP5 SUB SLT ISZERO PUSH2 0x317 JUMPI PUSH2 0x316 PUSH2 0x2CB JUMP JUMPDEST JUMPDEST PUSH0 PUSH2 0x324 DUP5 DUP3 DUP6 ADD PUSH2 0x2EE JUMP JUMPDEST SWAP2 POP POP SWAP3 SWAP2 POP POP JUMP JUMPDEST PUSH2 0x336 DUP2 PUSH2 0x2CF JUMP JUMPDEST DUP3 MSTORE POP POP JUMP JUMPDEST PUSH0 PUSH1 0x20 DUP3 ADD SWAP1 POP PUSH2 0x34F PUSH0 DUP4 ADD DUP5 PUSH2 0x32D JUMP JUMPDEST SWAP3 SWAP2 POP POP JUMP JUMPDEST PUSH0 DUP1 PUSH1 0x40 DUP4 DUP6 SUB SLT ISZERO PUSH2 0x36B JUMPI PUSH2 0x36A PUSH2 0x2CB JUMP JUMPDEST JUMPDEST PUSH0 PUSH2 0x378 DUP6 DUP3 DUP7 ADD PUSH2 0x2EE JUMP JUMPDEST SWAP3 POP POP PUSH1 0x20 PUSH2 0x389 DUP6 DUP3 DUP7 ADD PUSH2 0x2EE JUMP JUMPDEST SWAP2 POP POP SWAP3 POP SWAP3 SWAP1 POP JUMP JUMPDEST PUSH0 DUP1 REVERT JUMPDEST PUSH0 PUSH1 0x1F NOT PUSH1 0x1F DUP4 ADD AND SWAP1 POP SWAP2 SWAP1 POP JUMP JUMPDEST PUSH32 0x4E487B7100000000000000000000000000000000000000000000000000000000 PUSH0 MSTORE PUSH1 0x41 PUSH1 0x4 MSTORE PUSH1 0x24 PUSH0 REVERT JUMPDEST PUSH2 0x3DD DUP3 PUSH2 0x397 JUMP JUMPDEST DUP2 ADD DUP2 DUP2 LT PUSH8 0xFFFFFFFFFFFFFFFF DUP3 GT OR ISZERO PUSH2 0x3FC JUMPI PUSH2 0x3FB PUSH2 0x3A7 JUMP JUMPDEST JUMPDEST DUP1 PUSH1 0x40 MSTORE POP POP POP JUMP JUMPDEST PUSH0 PUSH2 0x40E PUSH2 0x2C2 JUMP JUMPDEST SWAP1 POP PUSH2 0x41A DUP3 DUP3 PUSH2 0x3D4 JUMP JUMPDEST SWAP2 SWAP1 POP JUMP JUMPDEST PUSH0 PUSH8 0xFFFFFFFFFFFFFFFF DUP3 GT ISZERO PUSH2 0x439 JUMPI PUSH2 0x438 PUSH2 0x3A7 JUMP JUMPDEST JUMPDEST PUSH1 0x20 DUP3 MUL SWAP1 POP SWAP2 SWAP1 POP JUMP JUMPDEST PUSH0 DUP1 REVERT JUMPDEST PUSH0 PUSH2 0x45A PUSH2 0x455 DUP5 PUSH2 0x41F JUMP JUMPDEST PUSH2 0x405 JUMP JUMPDEST SWAP1 POP DUP1 PUSH1 0x20 DUP5 MUL DUP4 ADD DUP6 DUP2 GT ISZERO PUSH2 0x474 JUMPI PUSH2 0x473 PUSH2 0x444 JUMP JUMPDEST JUMPDEST DUP4 JUMPDEST DUP2 DUP2 LT ISZERO PUSH2 0x49D JUMPI DUP1 PUSH2 0x489 DUP9 DUP3 PUSH2 0x2EE JUMP JUMPDEST DUP5 MSTORE PUSH1 0x20 DUP5 ADD SWAP4 POP POP PUSH1 0x20 DUP2 ADD SWAP1 POP PUSH2 0x476 JUMP JUMPDEST POP POP POP SWAP4 SWAP3 POP POP POP JUMP JUMPDEST PUSH0 DUP3 PUSH1 0x1F DUP4 ADD SLT PUSH2 0x4BB JUMPI PUSH2 0x4BA PUSH2 0x393 JUMP JUMPDEST JUMPDEST PUSH1 0x5 PUSH2 0x4C8 DUP5 DUP3 DUP6 PUSH2 0x448 JUMP JUMPDEST SWAP2 POP POP SWAP3 SWAP2 POP POP JUMP JUMPDEST PUSH0 PUSH1 0xA0 DUP3 DUP5 SUB SLT ISZERO PUSH2 0x4E6 JUMPI PUSH2 0x4E5 PUSH2 0x2CB JUMP JUMPDEST JUMPDEST PUSH0 PUSH2 0x4F3 DUP5 DUP3 DUP6 ADD PUSH2 0x4A7 JUMP JUMPDEST SWAP2 POP POP SWAP3 SWAP2 POP POP JUMP JUMPDEST PUSH0 PUSH1 0x5 SWAP1 POP SWAP2 SWAP1 POP JUMP JUMPDEST PUSH0 DUP2 SWAP1 POP SWAP3 SWAP2 POP POP JUMP JUMPDEST PUSH0 DUP2 SWAP1 POP SWAP2 SWAP1 POP JUMP JUMPDEST PUSH2 0x522 DUP2 PUSH2 0x2CF JUMP JUMPDEST DUP3 MSTORE POP POP JUMP JUMPDEST PUSH0 PUSH2 0x533 DUP4 DUP4 PUSH2 0x519 JUMP JUMPDEST PUSH1 0x20 DUP4 ADD SWAP1 POP SWAP3 SWAP2 POP POP JUMP JUMPDEST PUSH0 PUSH1 0x20 DUP3 ADD SWAP1 POP SWAP2 SWAP1 POP JUMP JUMPDEST PUSH2 0x554 DUP2 PUSH2 0x4FC JUMP JUMPDEST PUSH2 0x55E DUP2 DUP5 PUSH2 0x506 JUMP JUMPDEST SWAP3 POP PUSH2 0x569 DUP3 PUSH2 0x510 JUMP JUMPDEST DUP1 PUSH0 JUMPDEST DUP4 DUP2 LT ISZERO PUSH2 0x599 JUMPI DUP2 MLOAD PUSH2 0x580 DUP8 DUP3 PUSH2 0x528 JUMP JUMPDEST SWAP7 POP PUSH2 0x58B DUP4 PUSH2 0x53F JUMP JUMPDEST SWAP3 POP POP PUSH1 0x1 DUP2 ADD SWAP1 POP PUSH2 0x56C JUMP JUMPDEST POP POP POP POP POP POP JUMP JUMPDEST PUSH0 PUSH1 0xA0 DUP3 ADD SWAP1 POP PUSH2 0x5B4 PUSH0 DUP4 ADD DUP5 PUSH2 0x54B JUMP JUMPDEST SWAP3 SWAP2 POP POP JUMP JUMPDEST PUSH0 DUP3 DUP3 MSTORE PUSH1 0x20 DUP3 ADD SWAP1 POP SWAP3 SWAP2 POP POP JUMP JUMPDEST PUSH32 0x496E646578206F7574206F6620626F756E647300000000000000000000000000 PUSH0 DUP3 ADD MSTORE POP JUMP JUMPDEST PUSH0 PUSH2 0x5FE PUSH1 0x13 DUP4 PUSH2 0x5BA JUMP JUMPDEST SWAP2 POP PUSH2 0x609 DUP3 PUSH2 0x5CA JUMP JUMPDEST PUSH1 0x20 DUP3 ADD SWAP1 POP SWAP2 SWAP1 POP JUMP JUMPDEST PUSH0 PUSH1 0x20 DUP3 ADD SWAP1 POP DUP2 DUP2 SUB PUSH0 DUP4 ADD MSTORE PUSH2 0x62B DUP2 PUSH2 0x5F2 JUMP JUMPDEST SWAP1 POP SWAP2 SWAP1 POP JUMP JUMPDEST PUSH32 0x4E487B7100000000000000000000000000000000000000000000000000000000 PUSH0 MSTORE PUSH1 0x32 PUSH1 0x4 MSTORE PUSH1 0x24 PUSH0 REVERT INVALID LOG2 PUSH5 0x6970667358 0x22 SLT KECCAK256 POP 0xC1 0xC0 DUP2 0x4C LT 0xE5 DUP14 RETURN 0xB0 0x2A COINBASE PUSH15 0xE5E71C3089917BF4F930EAFAB69C55 0xC5 DUP7 0xC3 PUSH8 0x64736F6C63430008 BYTE STOP CALLER "
				},
				"gasEstimates": {
					"creation": {
						"codeDepositCost": "337000",
						"executionCost": "372",
						"totalCost": "337372"
					},
					"external": {
						"fixedArray(uint256)": "infinite",
						"getArray()": "infinite",
						"getElement(uint256)": "infinite",
						"setArray(uint256[5])": "infinite",
						"updateElement(uint256,uint256)": "infinite"
					}
				},
				"methodIdentifiers": {
					"fixedArray(uint256)": "9a5009ac",
					"getArray()": "d504ea1d",
					"getElement(uint256)": "3a7d22bc",
					"setArray(uint256[5])": "a09aa87e",
					"updateElement(uint256,uint256)": "988133fa"
				}
			},
			"storageLayout": {
				"storage": [
					{
						"astId": 5,
						"contract": "contracts/6.fixedarray.sol:FixedArrayExample",
						"label": "fixedArray",
						"offset": 0,
						"slot": "0",
						"type": "t_array(t_uint256)5_storage"
					}
				],
				"types": {
					"t_array(t_uint256)5_storage": {
						"base": "t_uint256",
						"encoding": "inplace",
						"label": "uint256[5]",
						"numberOfBytes": "160"
					},
					"t_uint256": {
						"encoding": "inplace",
						"label": "uint256",
						"numberOfBytes": "32"
					}
				}
			},
			"userdoc": {
				"kind": "user",
				"methods": {},
				"version": 1
			}
		}
	}
}