{
	"contracts/bytesdatatype.sol": {
		"BytesExample": {
			"abi": [
				{
					"inputs": [
						{
							"internalType": "bytes",
							"name": "_data",
							"type": "bytes"
						}
					],
					"name": "convertBytesToBytes32",
					"outputs": [
						{
							"internalType": "bytes32",
							"name": "",
							"type": "bytes32"
						}
					],
					"stateMutability": "pure",
					"type": "function"
				},
				{
					"inputs": [],
					"name": "dynamicBytes",
					"outputs": [
						{
							"internalType": "bytes",
							"name": "",
							"type": "bytes"
						}
					],
					"stateMutability": "view",
					"type": "function"
				},
				{
					"inputs": [],
					"name": "fixedBytes",
					"outputs": [
						{
							"internalType": "bytes32",
							"name": "",
							"type": "bytes32"
						}
					],
					"stateMutability": "view",
					"type": "function"
				},
				{
					"inputs": [],
					"name": "getDynamicBytes",
					"outputs": [
						{
							"internalType": "bytes",
							"name": "",
							"type": "bytes"
						}
					],
					"stateMutability": "view",
					"type": "function"
				},
				{
					"inputs": [],
					"name": "getFixedBytes",
					"outputs": [
						{
							"internalType": "bytes32",
							"name": "",
							"type": "bytes32"
						}
					],
					"stateMutability": "view",
					"type": "function"
				},
				{
					"inputs": [
						{
							"internalType": "bytes",
							"name": "_data",
							"type": "bytes"
						}
					],
					"name": "setDynamicBytes",
					"outputs": [],
					"stateMutability": "nonpayable",
					"type": "function"
				},
				{
					"inputs": [
						{
							"internalType": "bytes32",
							"name": "_data",
							"type": "bytes32"
						}
					],
					"name": "setFixedBytes",
					"outputs": [],
					"stateMutability": "nonpayable",
					"type": "function"
				}
			],
			"devdoc": {
				"kind": "dev",
				"methods": {},
				"version": 1
			},
			"evm": {
				"assembly": "    /* \"contracts/bytesdatatype.sol\":70:1158  contract BytesExample {... */\n  mstore(0x40, 0x80)\n  callvalue\n  dup1\n  iszero\n  tag_1\n  jumpi\n  0x00\n  dup1\n  revert\ntag_1:\n  pop\n  dataSize(sub_0)\n  dup1\n  dataOffset(sub_0)\n  0x00\n  codecopy\n  0x00\n  return\nstop\n\nsub_0: assembly {\n        /* \"contracts/bytesdatatype.sol\":70:1158  contract BytesExample {... */\n      mstore(0x40, 0x80)\n      callvalue\n      dup1\n      iszero\n      tag_1\n      jumpi\n      0x00\n      dup1\n      revert\n    tag_1:\n      pop\n      jumpi(tag_2, lt(calldatasize, 0x04))\n      shr(0xe0, calldataload(0x00))\n      dup1\n      0xcef7e0de\n      gt\n      tag_10\n      jumpi\n      dup1\n      0xcef7e0de\n      eq\n      tag_6\n      jumpi\n      dup1\n      0xd1f300ed\n      eq\n      tag_7\n      jumpi\n      dup1\n      0xd6461723\n      eq\n      tag_8\n      jumpi\n      dup1\n      0xf5babff2\n      eq\n      tag_9\n      jumpi\n      jump(tag_2)\n    tag_10:\n      dup1\n      0x33ae8158\n      eq\n      tag_3\n      jumpi\n      dup1\n      0x3d1e1307\n      eq\n      tag_4\n      jumpi\n      dup1\n      0x464e28f8\n      eq\n      tag_5\n      jumpi\n    tag_2:\n      0x00\n      dup1\n      revert\n        /* \"contracts/bytesdatatype.sol\":98:123  bytes public dynamicBytes */\n    tag_3:\n      tag_11\n      tag_12\n      jump\t// in\n    tag_11:\n      mload(0x40)\n      tag_13\n      swap2\n      swap1\n      tag_14\n      jump\t// in\n    tag_13:\n      mload(0x40)\n      dup1\n      swap2\n      sub\n      swap1\n      return\n        /* \"contracts/bytesdatatype.sol\":417:497  function setFixedBytes(bytes32 _data) public {... */\n    tag_4:\n      tag_15\n      0x04\n      dup1\n      calldatasize\n      sub\n      dup2\n      add\n      swap1\n      tag_16\n      swap2\n      swap1\n      tag_17\n      jump\t// in\n    tag_16:\n      tag_18\n      jump\t// in\n    tag_15:\n      stop\n        /* \"contracts/bytesdatatype.sol\":277:366  function setDynamicBytes(bytes memory _data) public {... */\n    tag_5:\n      tag_19\n      0x04\n      dup1\n      calldatasize\n      sub\n      dup2\n      add\n      swap1\n      tag_20\n      swap2\n      swap1\n      tag_21\n      jump\t// in\n    tag_20:\n      tag_22\n      jump\t// in\n    tag_19:\n      stop\n        /* \"contracts/bytesdatatype.sol\":161:186  bytes32 public fixedBytes */\n    tag_6:\n      tag_23\n      tag_24\n      jump\t// in\n    tag_23:\n      mload(0x40)\n      tag_25\n      swap2\n      swap1\n      tag_26\n      jump\t// in\n    tag_25:\n      mload(0x40)\n      dup1\n      swap2\n      sub\n      swap1\n      return\n        /* \"contracts/bytesdatatype.sol\":550:648  function getDynamicBytes() public view returns (bytes memory) {... */\n    tag_7:\n      tag_27\n      tag_28\n      jump\t// in\n    tag_27:\n      mload(0x40)\n      tag_29\n      swap2\n      swap1\n      tag_14\n      jump\t// in\n    tag_29:\n      mload(0x40)\n      dup1\n      swap2\n      sub\n      swap1\n      return\n        /* \"contracts/bytesdatatype.sol\":699:788  function getFixedBytes() public view returns (bytes32) {... */\n    tag_8:\n      tag_30\n      tag_31\n      jump\t// in\n    tag_30:\n      mload(0x40)\n      tag_32\n      swap2\n      swap1\n      tag_26\n      jump\t// in\n    tag_32:\n      mload(0x40)\n      dup1\n      swap2\n      sub\n      swap1\n      return\n        /* \"contracts/bytesdatatype.sol\":856:1156  function convertBytesToBytes32(bytes memory _data)... */\n    tag_9:\n      tag_33\n      0x04\n      dup1\n      calldatasize\n      sub\n      dup2\n      add\n      swap1\n      tag_34\n      swap2\n      swap1\n      tag_21\n      jump\t// in\n    tag_34:\n      tag_35\n      jump\t// in\n    tag_33:\n      mload(0x40)\n      tag_36\n      swap2\n      swap1\n      tag_26\n      jump\t// in\n    tag_36:\n      mload(0x40)\n      dup1\n      swap2\n      sub\n      swap1\n      return\n        /* \"contracts/bytesdatatype.sol\":98:123  bytes public dynamicBytes */\n    tag_12:\n      0x00\n      dup1\n      sload\n      tag_37\n      swap1\n      tag_38\n      jump\t// in\n    tag_37:\n      dup1\n      0x1f\n      add\n      0x20\n      dup1\n      swap2\n      div\n      mul\n      0x20\n      add\n      mload(0x40)\n      swap1\n      dup2\n      add\n      0x40\n      mstore\n      dup1\n      swap3\n      swap2\n      swap1\n      dup2\n      dup2\n      mstore\n      0x20\n      add\n      dup3\n      dup1\n      sload\n      tag_39\n      swap1\n      tag_38\n      jump\t// in\n    tag_39:\n      dup1\n      iszero\n      tag_40\n      jumpi\n      dup1\n      0x1f\n      lt\n      tag_41\n      jumpi\n      0x0100\n      dup1\n      dup4\n      sload\n      div\n      mul\n      dup4\n      mstore\n      swap2\n      0x20\n      add\n      swap2\n      jump(tag_40)\n    tag_41:\n      dup3\n      add\n      swap2\n      swap1\n      0x00\n      mstore\n      keccak256(0x00, 0x20)\n      swap1\n    tag_42:\n      dup2\n      sload\n      dup2\n      mstore\n      swap1\n      0x01\n      add\n      swap1\n      0x20\n      add\n      dup1\n      dup4\n      gt\n      tag_42\n      jumpi\n      dup3\n      swap1\n      sub\n      0x1f\n      and\n      dup3\n      add\n      swap2\n    tag_40:\n      pop\n      pop\n      pop\n      pop\n      pop\n      dup2\n      jump\t// out\n        /* \"contracts/bytesdatatype.sol\":417:497  function setFixedBytes(bytes32 _data) public {... */\n    tag_18:\n        /* \"contracts/bytesdatatype.sol\":485:490  _data */\n      dup1\n        /* \"contracts/bytesdatatype.sol\":472:482  fixedBytes */\n      0x01\n        /* \"contracts/bytesdatatype.sol\":472:490  fixedBytes = _data */\n      dup2\n      swap1\n      sstore\n      pop\n        /* \"contracts/bytesdatatype.sol\":417:497  function setFixedBytes(bytes32 _data) public {... */\n      pop\n      jump\t// out\n        /* \"contracts/bytesdatatype.sol\":277:366  function setDynamicBytes(bytes memory _data) public {... */\n    tag_22:\n        /* \"contracts/bytesdatatype.sol\":354:359  _data */\n      dup1\n        /* \"contracts/bytesdatatype.sol\":339:351  dynamicBytes */\n      0x00\n        /* \"contracts/bytesdatatype.sol\":339:359  dynamicBytes = _data */\n      swap1\n      dup2\n      tag_45\n      swap2\n      swap1\n      tag_46\n      jump\t// in\n    tag_45:\n      pop\n        /* \"contracts/bytesdatatype.sol\":277:366  function setDynamicBytes(bytes memory _data) public {... */\n      pop\n      jump\t// out\n        /* \"contracts/bytesdatatype.sol\":161:186  bytes32 public fixedBytes */\n    tag_24:\n      sload(0x01)\n      dup2\n      jump\t// out\n        /* \"contracts/bytesdatatype.sol\":550:648  function getDynamicBytes() public view returns (bytes memory) {... */\n    tag_28:\n        /* \"contracts/bytesdatatype.sol\":598:610  bytes memory */\n      0x60\n        /* \"contracts/bytesdatatype.sol\":629:641  dynamicBytes */\n      0x00\n        /* \"contracts/bytesdatatype.sol\":622:641  return dynamicBytes */\n      dup1\n      sload\n      tag_48\n      swap1\n      tag_38\n      jump\t// in\n    tag_48:\n      dup1\n      0x1f\n      add\n      0x20\n      dup1\n      swap2\n      div\n      mul\n      0x20\n      add\n      mload(0x40)\n      swap1\n      dup2\n      add\n      0x40\n      mstore\n      dup1\n      swap3\n      swap2\n      swap1\n      dup2\n      dup2\n      mstore\n      0x20\n      add\n      dup3\n      dup1\n      sload\n      tag_49\n      swap1\n      tag_38\n      jump\t// in\n    tag_49:\n      dup1\n      iszero\n      tag_50\n      jumpi\n      dup1\n      0x1f\n      lt\n      tag_51\n      jumpi\n      0x0100\n      dup1\n      dup4\n      sload\n      div\n      mul\n      dup4\n      mstore\n      swap2\n      0x20\n      add\n      swap2\n      jump(tag_50)\n    tag_51:\n      dup3\n      add\n      swap2\n      swap1\n      0x00\n      mstore\n      keccak256(0x00, 0x20)\n      swap1\n    tag_52:\n      dup2\n      sload\n      dup2\n      mstore\n      swap1\n      0x01\n      add\n      swap1\n      0x20\n      add\n      dup1\n      dup4\n      gt\n      tag_52\n      jumpi\n      dup3\n      swap1\n      sub\n      0x1f\n      and\n      dup3\n      add\n      swap2\n    tag_50:\n      pop\n      pop\n      pop\n      pop\n      pop\n      swap1\n      pop\n        /* \"contracts/bytesdatatype.sol\":550:648  function getDynamicBytes() public view returns (bytes memory) {... */\n      swap1\n      jump\t// out\n        /* \"contracts/bytesdatatype.sol\":699:788  function getFixedBytes() public view returns (bytes32) {... */\n    tag_31:\n        /* \"contracts/bytesdatatype.sol\":745:752  bytes32 */\n      0x00\n        /* \"contracts/bytesdatatype.sol\":771:781  fixedBytes */\n      sload(0x01)\n        /* \"contracts/bytesdatatype.sol\":764:781  return fixedBytes */\n      swap1\n      pop\n        /* \"contracts/bytesdatatype.sol\":699:788  function getFixedBytes() public view returns (bytes32) {... */\n      swap1\n      jump\t// out\n        /* \"contracts/bytesdatatype.sol\":856:1156  function convertBytesToBytes32(bytes memory _data)... */\n    tag_35:\n        /* \"contracts/bytesdatatype.sol\":952:959  bytes32 */\n      0x00\n        /* \"contracts/bytesdatatype.sol\":999:1001  32 */\n      0x20\n        /* \"contracts/bytesdatatype.sol\":983:988  _data */\n      dup3\n        /* \"contracts/bytesdatatype.sol\":983:995  _data.length */\n      mload\n        /* \"contracts/bytesdatatype.sol\":983:1001  _data.length <= 32 */\n      gt\n      iszero\n        /* \"contracts/bytesdatatype.sol\":975:1020  require(_data.length <= 32, \"Input too long\") */\n      tag_55\n      jumpi\n      mload(0x40)\n      0x08c379a000000000000000000000000000000000000000000000000000000000\n      dup2\n      mstore\n      0x04\n      add\n      tag_56\n      swap1\n      tag_57\n      jump\t// in\n    tag_56:\n      mload(0x40)\n      dup1\n      swap2\n      sub\n      swap1\n      revert\n    tag_55:\n        /* \"contracts/bytesdatatype.sol\":1030:1047  bytes32 converted */\n      0x00\n        /* \"contracts/bytesdatatype.sol\":1110:1112  32 */\n      0x20\n        /* \"contracts/bytesdatatype.sol\":1103:1108  _data */\n      dup4\n        /* \"contracts/bytesdatatype.sol\":1099:1113  add(_data, 32) */\n      add\n        /* \"contracts/bytesdatatype.sol\":1093:1114  mload(add(_data, 32)) */\n      mload\n        /* \"contracts/bytesdatatype.sol\":1080:1114  converted := mload(add(_data, 32)) */\n      swap1\n      pop\n        /* \"contracts/bytesdatatype.sol\":1140:1149  converted */\n      dup1\n        /* \"contracts/bytesdatatype.sol\":1133:1149  return converted */\n      swap2\n      pop\n      pop\n        /* \"contracts/bytesdatatype.sol\":856:1156  function convertBytesToBytes32(bytes memory _data)... */\n      swap2\n      swap1\n      pop\n      jump\t// out\n        /* \"#utility.yul\":7:105   */\n    tag_58:\n        /* \"#utility.yul\":58:64   */\n      0x00\n        /* \"#utility.yul\":92:97   */\n      dup2\n        /* \"#utility.yul\":86:98   */\n      mload\n        /* \"#utility.yul\":76:98   */\n      swap1\n      pop\n        /* \"#utility.yul\":7:105   */\n      swap2\n      swap1\n      pop\n      jump\t// out\n        /* \"#utility.yul\":111:279   */\n    tag_59:\n        /* \"#utility.yul\":194:205   */\n      0x00\n        /* \"#utility.yul\":228:234   */\n      dup3\n        /* \"#utility.yul\":223:226   */\n      dup3\n        /* \"#utility.yul\":216:235   */\n      mstore\n        /* \"#utility.yul\":268:272   */\n      0x20\n        /* \"#utility.yul\":263:266   */\n      dup3\n        /* \"#utility.yul\":259:273   */\n      add\n        /* \"#utility.yul\":244:273   */\n      swap1\n      pop\n        /* \"#utility.yul\":111:279   */\n      swap3\n      swap2\n      pop\n      pop\n      jump\t// out\n        /* \"#utility.yul\":285:424   */\n    tag_60:\n        /* \"#utility.yul\":374:380   */\n      dup3\n        /* \"#utility.yul\":369:372   */\n      dup2\n        /* \"#utility.yul\":364:367   */\n      dup4\n        /* \"#utility.yul\":358:381   */\n      mcopy\n        /* \"#utility.yul\":415:416   */\n      0x00\n        /* \"#utility.yul\":406:412   */\n      dup4\n        /* \"#utility.yul\":401:404   */\n      dup4\n        /* \"#utility.yul\":397:413   */\n      add\n        /* \"#utility.yul\":390:417   */\n      mstore\n        /* \"#utility.yul\":285:424   */\n      pop\n      pop\n      pop\n      jump\t// out\n        /* \"#utility.yul\":430:532   */\n    tag_61:\n        /* \"#utility.yul\":471:477   */\n      0x00\n        /* \"#utility.yul\":522:524   */\n      0x1f\n        /* \"#utility.yul\":518:525   */\n      not\n        /* \"#utility.yul\":513:515   */\n      0x1f\n        /* \"#utility.yul\":506:511   */\n      dup4\n        /* \"#utility.yul\":502:516   */\n      add\n        /* \"#utility.yul\":498:526   */\n      and\n        /* \"#utility.yul\":488:526   */\n      swap1\n      pop\n        /* \"#utility.yul\":430:532   */\n      swap2\n      swap1\n      pop\n      jump\t// out\n        /* \"#utility.yul\":538:911   */\n    tag_62:\n        /* \"#utility.yul\":624:627   */\n      0x00\n        /* \"#utility.yul\":652:690   */\n      tag_105\n        /* \"#utility.yul\":684:689   */\n      dup3\n        /* \"#utility.yul\":652:690   */\n      tag_58\n      jump\t// in\n    tag_105:\n        /* \"#utility.yul\":706:776   */\n      tag_106\n        /* \"#utility.yul\":769:775   */\n      dup2\n        /* \"#utility.yul\":764:767   */\n      dup6\n        /* \"#utility.yul\":706:776   */\n      tag_59\n      jump\t// in\n    tag_106:\n        /* \"#utility.yul\":699:776   */\n      swap4\n      pop\n        /* \"#utility.yul\":785:850   */\n      tag_107\n        /* \"#utility.yul\":843:849   */\n      dup2\n        /* \"#utility.yul\":838:841   */\n      dup6\n        /* \"#utility.yul\":831:835   */\n      0x20\n        /* \"#utility.yul\":824:829   */\n      dup7\n        /* \"#utility.yul\":820:836   */\n      add\n        /* \"#utility.yul\":785:850   */\n      tag_60\n      jump\t// in\n    tag_107:\n        /* \"#utility.yul\":875:904   */\n      tag_108\n        /* \"#utility.yul\":897:903   */\n      dup2\n        /* \"#utility.yul\":875:904   */\n      tag_61\n      jump\t// in\n    tag_108:\n        /* \"#utility.yul\":870:873   */\n      dup5\n        /* \"#utility.yul\":866:905   */\n      add\n        /* \"#utility.yul\":859:905   */\n      swap2\n      pop\n        /* \"#utility.yul\":628:911   */\n      pop\n        /* \"#utility.yul\":538:911   */\n      swap3\n      swap2\n      pop\n      pop\n      jump\t// out\n        /* \"#utility.yul\":917:1226   */\n    tag_14:\n        /* \"#utility.yul\":1028:1032   */\n      0x00\n        /* \"#utility.yul\":1066:1068   */\n      0x20\n        /* \"#utility.yul\":1055:1064   */\n      dup3\n        /* \"#utility.yul\":1051:1069   */\n      add\n        /* \"#utility.yul\":1043:1069   */\n      swap1\n      pop\n        /* \"#utility.yul\":1115:1124   */\n      dup2\n        /* \"#utility.yul\":1109:1113   */\n      dup2\n        /* \"#utility.yul\":1105:1125   */\n      sub\n        /* \"#utility.yul\":1101:1102   */\n      0x00\n        /* \"#utility.yul\":1090:1099   */\n      dup4\n        /* \"#utility.yul\":1086:1103   */\n      add\n        /* \"#utility.yul\":1079:1126   */\n      mstore\n        /* \"#utility.yul\":1143:1219   */\n      tag_110\n        /* \"#utility.yul\":1214:1218   */\n      dup2\n        /* \"#utility.yul\":1205:1211   */\n      dup5\n        /* \"#utility.yul\":1143:1219   */\n      tag_62\n      jump\t// in\n    tag_110:\n        /* \"#utility.yul\":1135:1219   */\n      swap1\n      pop\n        /* \"#utility.yul\":917:1226   */\n      swap3\n      swap2\n      pop\n      pop\n      jump\t// out\n        /* \"#utility.yul\":1232:1307   */\n    tag_63:\n        /* \"#utility.yul\":1265:1271   */\n      0x00\n        /* \"#utility.yul\":1298:1300   */\n      0x40\n        /* \"#utility.yul\":1292:1301   */\n      mload\n        /* \"#utility.yul\":1282:1301   */\n      swap1\n      pop\n        /* \"#utility.yul\":1232:1307   */\n      swap1\n      jump\t// out\n        /* \"#utility.yul\":1313:1430   */\n    tag_64:\n        /* \"#utility.yul\":1422:1423   */\n      0x00\n        /* \"#utility.yul\":1419:1420   */\n      dup1\n        /* \"#utility.yul\":1412:1424   */\n      revert\n        /* \"#utility.yul\":1436:1553   */\n    tag_65:\n        /* \"#utility.yul\":1545:1546   */\n      0x00\n        /* \"#utility.yul\":1542:1543   */\n      dup1\n        /* \"#utility.yul\":1535:1547   */\n      revert\n        /* \"#utility.yul\":1559:1636   */\n    tag_66:\n        /* \"#utility.yul\":1596:1603   */\n      0x00\n        /* \"#utility.yul\":1625:1630   */\n      dup2\n        /* \"#utility.yul\":1614:1630   */\n      swap1\n      pop\n        /* \"#utility.yul\":1559:1636   */\n      swap2\n      swap1\n      pop\n      jump\t// out\n        /* \"#utility.yul\":1642:1764   */\n    tag_67:\n        /* \"#utility.yul\":1715:1739   */\n      tag_116\n        /* \"#utility.yul\":1733:1738   */\n      dup2\n        /* \"#utility.yul\":1715:1739   */\n      tag_66\n      jump\t// in\n    tag_116:\n        /* \"#utility.yul\":1708:1713   */\n      dup2\n        /* \"#utility.yul\":1705:1740   */\n      eq\n        /* \"#utility.yul\":1695:1758   */\n      tag_117\n      jumpi\n        /* \"#utility.yul\":1754:1755   */\n      0x00\n        /* \"#utility.yul\":1751:1752   */\n      dup1\n        /* \"#utility.yul\":1744:1756   */\n      revert\n        /* \"#utility.yul\":1695:1758   */\n    tag_117:\n        /* \"#utility.yul\":1642:1764   */\n      pop\n      jump\t// out\n        /* \"#utility.yul\":1770:1909   */\n    tag_68:\n        /* \"#utility.yul\":1816:1821   */\n      0x00\n        /* \"#utility.yul\":1854:1860   */\n      dup2\n        /* \"#utility.yul\":1841:1861   */\n      calldataload\n        /* \"#utility.yul\":1832:1861   */\n      swap1\n      pop\n        /* \"#utility.yul\":1870:1903   */\n      tag_119\n        /* \"#utility.yul\":1897:1902   */\n      dup2\n        /* \"#utility.yul\":1870:1903   */\n      tag_67\n      jump\t// in\n    tag_119:\n        /* \"#utility.yul\":1770:1909   */\n      swap3\n      swap2\n      pop\n      pop\n      jump\t// out\n        /* \"#utility.yul\":1915:2244   */\n    tag_17:\n        /* \"#utility.yul\":1974:1980   */\n      0x00\n        /* \"#utility.yul\":2023:2025   */\n      0x20\n        /* \"#utility.yul\":2011:2020   */\n      dup3\n        /* \"#utility.yul\":2002:2009   */\n      dup5\n        /* \"#utility.yul\":1998:2021   */\n      sub\n        /* \"#utility.yul\":1994:2026   */\n      slt\n        /* \"#utility.yul\":1991:2110   */\n      iszero\n      tag_121\n      jumpi\n        /* \"#utility.yul\":2029:2108   */\n      tag_122\n      tag_64\n      jump\t// in\n    tag_122:\n        /* \"#utility.yul\":1991:2110   */\n    tag_121:\n        /* \"#utility.yul\":2149:2150   */\n      0x00\n        /* \"#utility.yul\":2174:2227   */\n      tag_123\n        /* \"#utility.yul\":2219:2226   */\n      dup5\n        /* \"#utility.yul\":2210:2216   */\n      dup3\n        /* \"#utility.yul\":2199:2208   */\n      dup6\n        /* \"#utility.yul\":2195:2217   */\n      add\n        /* \"#utility.yul\":2174:2227   */\n      tag_68\n      jump\t// in\n    tag_123:\n        /* \"#utility.yul\":2164:2227   */\n      swap2\n      pop\n        /* \"#utility.yul\":2120:2237   */\n      pop\n        /* \"#utility.yul\":1915:2244   */\n      swap3\n      swap2\n      pop\n      pop\n      jump\t// out\n        /* \"#utility.yul\":2250:2367   */\n    tag_69:\n        /* \"#utility.yul\":2359:2360   */\n      0x00\n        /* \"#utility.yul\":2356:2357   */\n      dup1\n        /* \"#utility.yul\":2349:2361   */\n      revert\n        /* \"#utility.yul\":2373:2490   */\n    tag_70:\n        /* \"#utility.yul\":2482:2483   */\n      0x00\n        /* \"#utility.yul\":2479:2480   */\n      dup1\n        /* \"#utility.yul\":2472:2484   */\n      revert\n        /* \"#utility.yul\":2496:2676   */\n    tag_71:\n        /* \"#utility.yul\":2544:2621   */\n      0x4e487b7100000000000000000000000000000000000000000000000000000000\n        /* \"#utility.yul\":2541:2542   */\n      0x00\n        /* \"#utility.yul\":2534:2622   */\n      mstore\n        /* \"#utility.yul\":2641:2645   */\n      0x41\n        /* \"#utility.yul\":2638:2639   */\n      0x04\n        /* \"#utility.yul\":2631:2646   */\n      mstore\n        /* \"#utility.yul\":2665:2669   */\n      0x24\n        /* \"#utility.yul\":2662:2663   */\n      0x00\n        /* \"#utility.yul\":2655:2670   */\n      revert\n        /* \"#utility.yul\":2682:2963   */\n    tag_72:\n        /* \"#utility.yul\":2765:2792   */\n      tag_128\n        /* \"#utility.yul\":2787:2791   */\n      dup3\n        /* \"#utility.yul\":2765:2792   */\n      tag_61\n      jump\t// in\n    tag_128:\n        /* \"#utility.yul\":2757:2763   */\n      dup2\n        /* \"#utility.yul\":2753:2793   */\n      add\n        /* \"#utility.yul\":2895:2901   */\n      dup2\n        /* \"#utility.yul\":2883:2893   */\n      dup2\n        /* \"#utility.yul\":2880:2902   */\n      lt\n        /* \"#utility.yul\":2859:2877   */\n      0xffffffffffffffff\n        /* \"#utility.yul\":2847:2857   */\n      dup3\n        /* \"#utility.yul\":2844:2878   */\n      gt\n        /* \"#utility.yul\":2841:2903   */\n      or\n        /* \"#utility.yul\":2838:2926   */\n      iszero\n      tag_129\n      jumpi\n        /* \"#utility.yul\":2906:2924   */\n      tag_130\n      tag_71\n      jump\t// in\n    tag_130:\n        /* \"#utility.yul\":2838:2926   */\n    tag_129:\n        /* \"#utility.yul\":2946:2956   */\n      dup1\n        /* \"#utility.yul\":2942:2944   */\n      0x40\n        /* \"#utility.yul\":2935:2957   */\n      mstore\n        /* \"#utility.yul\":2725:2963   */\n      pop\n        /* \"#utility.yul\":2682:2963   */\n      pop\n      pop\n      jump\t// out\n        /* \"#utility.yul\":2969:3098   */\n    tag_73:\n        /* \"#utility.yul\":3003:3009   */\n      0x00\n        /* \"#utility.yul\":3030:3050   */\n      tag_132\n      tag_63\n      jump\t// in\n    tag_132:\n        /* \"#utility.yul\":3020:3050   */\n      swap1\n      pop\n        /* \"#utility.yul\":3059:3092   */\n      tag_133\n        /* \"#utility.yul\":3087:3091   */\n      dup3\n        /* \"#utility.yul\":3079:3085   */\n      dup3\n        /* \"#utility.yul\":3059:3092   */\n      tag_72\n      jump\t// in\n    tag_133:\n        /* \"#utility.yul\":2969:3098   */\n      swap2\n      swap1\n      pop\n      jump\t// out\n        /* \"#utility.yul\":3104:3411   */\n    tag_74:\n        /* \"#utility.yul\":3165:3169   */\n      0x00\n        /* \"#utility.yul\":3255:3273   */\n      0xffffffffffffffff\n        /* \"#utility.yul\":3247:3253   */\n      dup3\n        /* \"#utility.yul\":3244:3274   */\n      gt\n        /* \"#utility.yul\":3241:3297   */\n      iszero\n      tag_135\n      jumpi\n        /* \"#utility.yul\":3277:3295   */\n      tag_136\n      tag_71\n      jump\t// in\n    tag_136:\n        /* \"#utility.yul\":3241:3297   */\n    tag_135:\n        /* \"#utility.yul\":3315:3344   */\n      tag_137\n        /* \"#utility.yul\":3337:3343   */\n      dup3\n        /* \"#utility.yul\":3315:3344   */\n      tag_61\n      jump\t// in\n    tag_137:\n        /* \"#utility.yul\":3307:3344   */\n      swap1\n      pop\n        /* \"#utility.yul\":3399:3403   */\n      0x20\n        /* \"#utility.yul\":3393:3397   */\n      dup2\n        /* \"#utility.yul\":3389:3404   */\n      add\n        /* \"#utility.yul\":3381:3404   */\n      swap1\n      pop\n        /* \"#utility.yul\":3104:3411   */\n      swap2\n      swap1\n      pop\n      jump\t// out\n        /* \"#utility.yul\":3417:3565   */\n    tag_75:\n        /* \"#utility.yul\":3515:3521   */\n      dup3\n        /* \"#utility.yul\":3510:3513   */\n      dup2\n        /* \"#utility.yul\":3505:3508   */\n      dup4\n        /* \"#utility.yul\":3492:3522   */\n      calldatacopy\n        /* \"#utility.yul\":3556:3557   */\n      0x00\n        /* \"#utility.yul\":3547:3553   */\n      dup4\n        /* \"#utility.yul\":3542:3545   */\n      dup4\n        /* \"#utility.yul\":3538:3554   */\n      add\n        /* \"#utility.yul\":3531:3558   */\n      mstore\n        /* \"#utility.yul\":3417:3565   */\n      pop\n      pop\n      pop\n      jump\t// out\n        /* \"#utility.yul\":3571:3994   */\n    tag_76:\n        /* \"#utility.yul\":3648:3653   */\n      0x00\n        /* \"#utility.yul\":3673:3738   */\n      tag_140\n        /* \"#utility.yul\":3689:3737   */\n      tag_141\n        /* \"#utility.yul\":3730:3736   */\n      dup5\n        /* \"#utility.yul\":3689:3737   */\n      tag_74\n      jump\t// in\n    tag_141:\n        /* \"#utility.yul\":3673:3738   */\n      tag_73\n      jump\t// in\n    tag_140:\n        /* \"#utility.yul\":3664:3738   */\n      swap1\n      pop\n        /* \"#utility.yul\":3761:3767   */\n      dup3\n        /* \"#utility.yul\":3754:3759   */\n      dup2\n        /* \"#utility.yul\":3747:3768   */\n      mstore\n        /* \"#utility.yul\":3799:3803   */\n      0x20\n        /* \"#utility.yul\":3792:3797   */\n      dup2\n        /* \"#utility.yul\":3788:3804   */\n      add\n        /* \"#utility.yul\":3837:3840   */\n      dup5\n        /* \"#utility.yul\":3828:3834   */\n      dup5\n        /* \"#utility.yul\":3823:3826   */\n      dup5\n        /* \"#utility.yul\":3819:3835   */\n      add\n        /* \"#utility.yul\":3816:3841   */\n      gt\n        /* \"#utility.yul\":3813:3925   */\n      iszero\n      tag_142\n      jumpi\n        /* \"#utility.yul\":3844:3923   */\n      tag_143\n      tag_70\n      jump\t// in\n    tag_143:\n        /* \"#utility.yul\":3813:3925   */\n    tag_142:\n        /* \"#utility.yul\":3934:3988   */\n      tag_144\n        /* \"#utility.yul\":3981:3987   */\n      dup5\n        /* \"#utility.yul\":3976:3979   */\n      dup3\n        /* \"#utility.yul\":3971:3974   */\n      dup6\n        /* \"#utility.yul\":3934:3988   */\n      tag_75\n      jump\t// in\n    tag_144:\n        /* \"#utility.yul\":3654:3994   */\n      pop\n        /* \"#utility.yul\":3571:3994   */\n      swap4\n      swap3\n      pop\n      pop\n      pop\n      jump\t// out\n        /* \"#utility.yul\":4013:4351   */\n    tag_77:\n        /* \"#utility.yul\":4068:4073   */\n      0x00\n        /* \"#utility.yul\":4117:4120   */\n      dup3\n        /* \"#utility.yul\":4110:4114   */\n      0x1f\n        /* \"#utility.yul\":4102:4108   */\n      dup4\n        /* \"#utility.yul\":4098:4115   */\n      add\n        /* \"#utility.yul\":4094:4121   */\n      slt\n        /* \"#utility.yul\":4084:4206   */\n      tag_146\n      jumpi\n        /* \"#utility.yul\":4125:4204   */\n      tag_147\n      tag_69\n      jump\t// in\n    tag_147:\n        /* \"#utility.yul\":4084:4206   */\n    tag_146:\n        /* \"#utility.yul\":4242:4248   */\n      dup2\n        /* \"#utility.yul\":4229:4249   */\n      calldataload\n        /* \"#utility.yul\":4267:4345   */\n      tag_148\n        /* \"#utility.yul\":4341:4344   */\n      dup5\n        /* \"#utility.yul\":4333:4339   */\n      dup3\n        /* \"#utility.yul\":4326:4330   */\n      0x20\n        /* \"#utility.yul\":4318:4324   */\n      dup7\n        /* \"#utility.yul\":4314:4331   */\n      add\n        /* \"#utility.yul\":4267:4345   */\n      tag_76\n      jump\t// in\n    tag_148:\n        /* \"#utility.yul\":4258:4345   */\n      swap2\n      pop\n        /* \"#utility.yul\":4074:4351   */\n      pop\n        /* \"#utility.yul\":4013:4351   */\n      swap3\n      swap2\n      pop\n      pop\n      jump\t// out\n        /* \"#utility.yul\":4357:4864   */\n    tag_21:\n        /* \"#utility.yul\":4425:4431   */\n      0x00\n        /* \"#utility.yul\":4474:4476   */\n      0x20\n        /* \"#utility.yul\":4462:4471   */\n      dup3\n        /* \"#utility.yul\":4453:4460   */\n      dup5\n        /* \"#utility.yul\":4449:4472   */\n      sub\n        /* \"#utility.yul\":4445:4477   */\n      slt\n        /* \"#utility.yul\":4442:4561   */\n      iszero\n      tag_150\n      jumpi\n        /* \"#utility.yul\":4480:4559   */\n      tag_151\n      tag_64\n      jump\t// in\n    tag_151:\n        /* \"#utility.yul\":4442:4561   */\n    tag_150:\n        /* \"#utility.yul\":4628:4629   */\n      0x00\n        /* \"#utility.yul\":4617:4626   */\n      dup3\n        /* \"#utility.yul\":4613:4630   */\n      add\n        /* \"#utility.yul\":4600:4631   */\n      calldataload\n        /* \"#utility.yul\":4658:4676   */\n      0xffffffffffffffff\n        /* \"#utility.yul\":4650:4656   */\n      dup2\n        /* \"#utility.yul\":4647:4677   */\n      gt\n        /* \"#utility.yul\":4644:4761   */\n      iszero\n      tag_152\n      jumpi\n        /* \"#utility.yul\":4680:4759   */\n      tag_153\n      tag_65\n      jump\t// in\n    tag_153:\n        /* \"#utility.yul\":4644:4761   */\n    tag_152:\n        /* \"#utility.yul\":4785:4847   */\n      tag_154\n        /* \"#utility.yul\":4839:4846   */\n      dup5\n        /* \"#utility.yul\":4830:4836   */\n      dup3\n        /* \"#utility.yul\":4819:4828   */\n      dup6\n        /* \"#utility.yul\":4815:4837   */\n      add\n        /* \"#utility.yul\":4785:4847   */\n      tag_77\n      jump\t// in\n    tag_154:\n        /* \"#utility.yul\":4775:4847   */\n      swap2\n      pop\n        /* \"#utility.yul\":4571:4857   */\n      pop\n        /* \"#utility.yul\":4357:4864   */\n      swap3\n      swap2\n      pop\n      pop\n      jump\t// out\n        /* \"#utility.yul\":4870:4988   */\n    tag_78:\n        /* \"#utility.yul\":4957:4981   */\n      tag_156\n        /* \"#utility.yul\":4975:4980   */\n      dup2\n        /* \"#utility.yul\":4957:4981   */\n      tag_66\n      jump\t// in\n    tag_156:\n        /* \"#utility.yul\":4952:4955   */\n      dup3\n        /* \"#utility.yul\":4945:4982   */\n      mstore\n        /* \"#utility.yul\":4870:4988   */\n      pop\n      pop\n      jump\t// out\n        /* \"#utility.yul\":4994:5216   */\n    tag_26:\n        /* \"#utility.yul\":5087:5091   */\n      0x00\n        /* \"#utility.yul\":5125:5127   */\n      0x20\n        /* \"#utility.yul\":5114:5123   */\n      dup3\n        /* \"#utility.yul\":5110:5128   */\n      add\n        /* \"#utility.yul\":5102:5128   */\n      swap1\n      pop\n        /* \"#utility.yul\":5138:5209   */\n      tag_158\n        /* \"#utility.yul\":5206:5207   */\n      0x00\n        /* \"#utility.yul\":5195:5204   */\n      dup4\n        /* \"#utility.yul\":5191:5208   */\n      add\n        /* \"#utility.yul\":5182:5188   */\n      dup5\n        /* \"#utility.yul\":5138:5209   */\n      tag_78\n      jump\t// in\n    tag_158:\n        /* \"#utility.yul\":4994:5216   */\n      swap3\n      swap2\n      pop\n      pop\n      jump\t// out\n        /* \"#utility.yul\":5222:5402   */\n    tag_79:\n        /* \"#utility.yul\":5270:5347   */\n      0x4e487b7100000000000000000000000000000000000000000000000000000000\n        /* \"#utility.yul\":5267:5268   */\n      0x00\n        /* \"#utility.yul\":5260:5348   */\n      mstore\n        /* \"#utility.yul\":5367:5371   */\n      0x22\n        /* \"#utility.yul\":5364:5365   */\n      0x04\n        /* \"#utility.yul\":5357:5372   */\n      mstore\n        /* \"#utility.yul\":5391:5395   */\n      0x24\n        /* \"#utility.yul\":5388:5389   */\n      0x00\n        /* \"#utility.yul\":5381:5396   */\n      revert\n        /* \"#utility.yul\":5408:5728   */\n    tag_38:\n        /* \"#utility.yul\":5452:5458   */\n      0x00\n        /* \"#utility.yul\":5489:5490   */\n      0x02\n        /* \"#utility.yul\":5483:5487   */\n      dup3\n        /* \"#utility.yul\":5479:5491   */\n      div\n        /* \"#utility.yul\":5469:5491   */\n      swap1\n      pop\n        /* \"#utility.yul\":5536:5537   */\n      0x01\n        /* \"#utility.yul\":5530:5534   */\n      dup3\n        /* \"#utility.yul\":5526:5538   */\n      and\n        /* \"#utility.yul\":5557:5575   */\n      dup1\n        /* \"#utility.yul\":5547:5628   */\n      tag_161\n      jumpi\n        /* \"#utility.yul\":5613:5617   */\n      0x7f\n        /* \"#utility.yul\":5605:5611   */\n      dup3\n        /* \"#utility.yul\":5601:5618   */\n      and\n        /* \"#utility.yul\":5591:5618   */\n      swap2\n      pop\n        /* \"#utility.yul\":5547:5628   */\n    tag_161:\n        /* \"#utility.yul\":5675:5677   */\n      0x20\n        /* \"#utility.yul\":5667:5673   */\n      dup3\n        /* \"#utility.yul\":5664:5678   */\n      lt\n        /* \"#utility.yul\":5644:5662   */\n      dup2\n        /* \"#utility.yul\":5641:5679   */\n      sub\n        /* \"#utility.yul\":5638:5722   */\n      tag_162\n      jumpi\n        /* \"#utility.yul\":5694:5712   */\n      tag_163\n      tag_79\n      jump\t// in\n    tag_163:\n        /* \"#utility.yul\":5638:5722   */\n    tag_162:\n        /* \"#utility.yul\":5459:5728   */\n      pop\n        /* \"#utility.yul\":5408:5728   */\n      swap2\n      swap1\n      pop\n      jump\t// out\n        /* \"#utility.yul\":5734:5874   */\n    tag_80:\n        /* \"#utility.yul\":5782:5786   */\n      0x00\n        /* \"#utility.yul\":5805:5808   */\n      dup2\n        /* \"#utility.yul\":5797:5808   */\n      swap1\n      pop\n        /* \"#utility.yul\":5828:5831   */\n      dup2\n        /* \"#utility.yul\":5825:5826   */\n      0x00\n        /* \"#utility.yul\":5818:5832   */\n      mstore\n        /* \"#utility.yul\":5862:5866   */\n      0x20\n        /* \"#utility.yul\":5859:5860   */\n      0x00\n        /* \"#utility.yul\":5849:5867   */\n      keccak256\n        /* \"#utility.yul\":5841:5867   */\n      swap1\n      pop\n        /* \"#utility.yul\":5734:5874   */\n      swap2\n      swap1\n      pop\n      jump\t// out\n        /* \"#utility.yul\":5880:5973   */\n    tag_81:\n        /* \"#utility.yul\":5917:5923   */\n      0x00\n        /* \"#utility.yul\":5964:5966   */\n      0x20\n        /* \"#utility.yul\":5959:5961   */\n      0x1f\n        /* \"#utility.yul\":5952:5957   */\n      dup4\n        /* \"#utility.yul\":5948:5962   */\n      add\n        /* \"#utility.yul\":5944:5967   */\n      div\n        /* \"#utility.yul\":5934:5967   */\n      swap1\n      pop\n        /* \"#utility.yul\":5880:5973   */\n      swap2\n      swap1\n      pop\n      jump\t// out\n        /* \"#utility.yul\":5979:6086   */\n    tag_82:\n        /* \"#utility.yul\":6023:6031   */\n      0x00\n        /* \"#utility.yul\":6073:6078   */\n      dup3\n        /* \"#utility.yul\":6067:6071   */\n      dup3\n        /* \"#utility.yul\":6063:6079   */\n      shl\n        /* \"#utility.yul\":6042:6079   */\n      swap1\n      pop\n        /* \"#utility.yul\":5979:6086   */\n      swap3\n      swap2\n      pop\n      pop\n      jump\t// out\n        /* \"#utility.yul\":6092:6485   */\n    tag_83:\n        /* \"#utility.yul\":6161:6167   */\n      0x00\n        /* \"#utility.yul\":6211:6212   */\n      0x08\n        /* \"#utility.yul\":6199:6209   */\n      dup4\n        /* \"#utility.yul\":6195:6213   */\n      mul\n        /* \"#utility.yul\":6234:6331   */\n      tag_168\n        /* \"#utility.yul\":6264:6330   */\n      0xffffffffffffffffffffffffffffffffffffffffffffffffffffffffffffffff\n        /* \"#utility.yul\":6253:6262   */\n      dup3\n        /* \"#utility.yul\":6234:6331   */\n      tag_82\n      jump\t// in\n    tag_168:\n        /* \"#utility.yul\":6352:6391   */\n      tag_169\n        /* \"#utility.yul\":6382:6390   */\n      dup7\n        /* \"#utility.yul\":6371:6380   */\n      dup4\n        /* \"#utility.yul\":6352:6391   */\n      tag_82\n      jump\t// in\n    tag_169:\n        /* \"#utility.yul\":6340:6391   */\n      swap6\n      pop\n        /* \"#utility.yul\":6424:6428   */\n      dup1\n        /* \"#utility.yul\":6420:6429   */\n      not\n        /* \"#utility.yul\":6413:6418   */\n      dup5\n        /* \"#utility.yul\":6409:6430   */\n      and\n        /* \"#utility.yul\":6400:6430   */\n      swap4\n      pop\n        /* \"#utility.yul\":6473:6477   */\n      dup1\n        /* \"#utility.yul\":6463:6471   */\n      dup7\n        /* \"#utility.yul\":6459:6478   */\n      and\n        /* \"#utility.yul\":6452:6457   */\n      dup5\n        /* \"#utility.yul\":6449:6479   */\n      or\n        /* \"#utility.yul\":6439:6479   */\n      swap3\n      pop\n        /* \"#utility.yul\":6168:6485   */\n      pop\n      pop\n        /* \"#utility.yul\":6092:6485   */\n      swap4\n      swap3\n      pop\n      pop\n      pop\n      jump\t// out\n        /* \"#utility.yul\":6491:6568   */\n    tag_84:\n        /* \"#utility.yul\":6528:6535   */\n      0x00\n        /* \"#utility.yul\":6557:6562   */\n      dup2\n        /* \"#utility.yul\":6546:6562   */\n      swap1\n      pop\n        /* \"#utility.yul\":6491:6568   */\n      swap2\n      swap1\n      pop\n      jump\t// out\n        /* \"#utility.yul\":6574:6634   */\n    tag_85:\n        /* \"#utility.yul\":6602:6605   */\n      0x00\n        /* \"#utility.yul\":6623:6628   */\n      dup2\n        /* \"#utility.yul\":6616:6628   */\n      swap1\n      pop\n        /* \"#utility.yul\":6574:6634   */\n      swap2\n      swap1\n      pop\n      jump\t// out\n        /* \"#utility.yul\":6640:6782   */\n    tag_86:\n        /* \"#utility.yul\":6690:6699   */\n      0x00\n        /* \"#utility.yul\":6723:6776   */\n      tag_173\n        /* \"#utility.yul\":6741:6775   */\n      tag_174\n        /* \"#utility.yul\":6750:6774   */\n      tag_175\n        /* \"#utility.yul\":6768:6773   */\n      dup5\n        /* \"#utility.yul\":6750:6774   */\n      tag_84\n      jump\t// in\n    tag_175:\n        /* \"#utility.yul\":6741:6775   */\n      tag_85\n      jump\t// in\n    tag_174:\n        /* \"#utility.yul\":6723:6776   */\n      tag_84\n      jump\t// in\n    tag_173:\n        /* \"#utility.yul\":6710:6776   */\n      swap1\n      pop\n        /* \"#utility.yul\":6640:6782   */\n      swap2\n      swap1\n      pop\n      jump\t// out\n        /* \"#utility.yul\":6788:6863   */\n    tag_87:\n        /* \"#utility.yul\":6831:6834   */\n      0x00\n        /* \"#utility.yul\":6852:6857   */\n      dup2\n        /* \"#utility.yul\":6845:6857   */\n      swap1\n      pop\n        /* \"#utility.yul\":6788:6863   */\n      swap2\n      swap1\n      pop\n      jump\t// out\n        /* \"#utility.yul\":6869:7138   */\n    tag_88:\n        /* \"#utility.yul\":6979:7018   */\n      tag_178\n        /* \"#utility.yul\":7010:7017   */\n      dup4\n        /* \"#utility.yul\":6979:7018   */\n      tag_86\n      jump\t// in\n    tag_178:\n        /* \"#utility.yul\":7040:7131   */\n      tag_179\n        /* \"#utility.yul\":7089:7130   */\n      tag_180\n        /* \"#utility.yul\":7113:7129   */\n      dup3\n        /* \"#utility.yul\":7089:7130   */\n      tag_87\n      jump\t// in\n    tag_180:\n        /* \"#utility.yul\":7081:7087   */\n      dup5\n        /* \"#utility.yul\":7074:7078   */\n      dup5\n        /* \"#utility.yul\":7068:7079   */\n      sload\n        /* \"#utility.yul\":7040:7131   */\n      tag_83\n      jump\t// in\n    tag_179:\n        /* \"#utility.yul\":7034:7038   */\n      dup3\n        /* \"#utility.yul\":7027:7132   */\n      sstore\n        /* \"#utility.yul\":6945:7138   */\n      pop\n        /* \"#utility.yul\":6869:7138   */\n      pop\n      pop\n      pop\n      jump\t// out\n        /* \"#utility.yul\":7144:7217   */\n    tag_89:\n        /* \"#utility.yul\":7189:7192   */\n      0x00\n        /* \"#utility.yul\":7144:7217   */\n      swap1\n      jump\t// out\n        /* \"#utility.yul\":7223:7412   */\n    tag_90:\n        /* \"#utility.yul\":7300:7332   */\n      tag_183\n      tag_89\n      jump\t// in\n    tag_183:\n        /* \"#utility.yul\":7341:7406   */\n      tag_184\n        /* \"#utility.yul\":7399:7405   */\n      dup2\n        /* \"#utility.yul\":7391:7397   */\n      dup5\n        /* \"#utility.yul\":7385:7389   */\n      dup5\n        /* \"#utility.yul\":7341:7406   */\n      tag_88\n      jump\t// in\n    tag_184:\n        /* \"#utility.yul\":7276:7412   */\n      pop\n        /* \"#utility.yul\":7223:7412   */\n      pop\n      pop\n      jump\t// out\n        /* \"#utility.yul\":7418:7604   */\n    tag_91:\n        /* \"#utility.yul\":7478:7598   */\n    tag_186:\n        /* \"#utility.yul\":7495:7498   */\n      dup2\n        /* \"#utility.yul\":7488:7493   */\n      dup2\n        /* \"#utility.yul\":7485:7499   */\n      lt\n        /* \"#utility.yul\":7478:7598   */\n      iszero\n      tag_188\n      jumpi\n        /* \"#utility.yul\":7549:7588   */\n      tag_189\n        /* \"#utility.yul\":7586:7587   */\n      0x00\n        /* \"#utility.yul\":7579:7584   */\n      dup3\n        /* \"#utility.yul\":7549:7588   */\n      tag_90\n      jump\t// in\n    tag_189:\n        /* \"#utility.yul\":7522:7523   */\n      0x01\n        /* \"#utility.yul\":7515:7520   */\n      dup2\n        /* \"#utility.yul\":7511:7524   */\n      add\n        /* \"#utility.yul\":7502:7524   */\n      swap1\n      pop\n        /* \"#utility.yul\":7478:7598   */\n      jump(tag_186)\n    tag_188:\n        /* \"#utility.yul\":7418:7604   */\n      pop\n      pop\n      jump\t// out\n        /* \"#utility.yul\":7610:8151   */\n    tag_92:\n        /* \"#utility.yul\":7710:7712   */\n      0x1f\n        /* \"#utility.yul\":7705:7708   */\n      dup3\n        /* \"#utility.yul\":7702:7713   */\n      gt\n        /* \"#utility.yul\":7699:8144   */\n      iszero\n      tag_191\n      jumpi\n        /* \"#utility.yul\":7744:7781   */\n      tag_192\n        /* \"#utility.yul\":7775:7780   */\n      dup2\n        /* \"#utility.yul\":7744:7781   */\n      tag_80\n      jump\t// in\n    tag_192:\n        /* \"#utility.yul\":7827:7856   */\n      tag_193\n        /* \"#utility.yul\":7845:7855   */\n      dup5\n        /* \"#utility.yul\":7827:7856   */\n      tag_81\n      jump\t// in\n    tag_193:\n        /* \"#utility.yul\":7817:7825   */\n      dup2\n        /* \"#utility.yul\":7813:7857   */\n      add\n        /* \"#utility.yul\":8010:8012   */\n      0x20\n        /* \"#utility.yul\":7998:8008   */\n      dup6\n        /* \"#utility.yul\":7995:8013   */\n      lt\n        /* \"#utility.yul\":7992:8041   */\n      iszero\n      tag_194\n      jumpi\n        /* \"#utility.yul\":8031:8039   */\n      dup2\n        /* \"#utility.yul\":8016:8039   */\n      swap1\n      pop\n        /* \"#utility.yul\":7992:8041   */\n    tag_194:\n        /* \"#utility.yul\":8054:8134   */\n      tag_195\n        /* \"#utility.yul\":8110:8132   */\n      tag_196\n        /* \"#utility.yul\":8128:8131   */\n      dup6\n        /* \"#utility.yul\":8110:8132   */\n      tag_81\n      jump\t// in\n    tag_196:\n        /* \"#utility.yul\":8100:8108   */\n      dup4\n        /* \"#utility.yul\":8096:8133   */\n      add\n        /* \"#utility.yul\":8083:8094   */\n      dup3\n        /* \"#utility.yul\":8054:8134   */\n      tag_91\n      jump\t// in\n    tag_195:\n        /* \"#utility.yul\":7714:8144   */\n      pop\n      pop\n        /* \"#utility.yul\":7699:8144   */\n    tag_191:\n        /* \"#utility.yul\":7610:8151   */\n      pop\n      pop\n      pop\n      jump\t// out\n        /* \"#utility.yul\":8157:8274   */\n    tag_93:\n        /* \"#utility.yul\":8211:8219   */\n      0x00\n        /* \"#utility.yul\":8261:8266   */\n      dup3\n        /* \"#utility.yul\":8255:8259   */\n      dup3\n        /* \"#utility.yul\":8251:8267   */\n      shr\n        /* \"#utility.yul\":8230:8267   */\n      swap1\n      pop\n        /* \"#utility.yul\":8157:8274   */\n      swap3\n      swap2\n      pop\n      pop\n      jump\t// out\n        /* \"#utility.yul\":8280:8449   */\n    tag_94:\n        /* \"#utility.yul\":8324:8330   */\n      0x00\n        /* \"#utility.yul\":8357:8408   */\n      tag_199\n        /* \"#utility.yul\":8405:8406   */\n      0x00\n        /* \"#utility.yul\":8401:8407   */\n      not\n        /* \"#utility.yul\":8393:8398   */\n      dup5\n        /* \"#utility.yul\":8390:8391   */\n      0x08\n        /* \"#utility.yul\":8386:8399   */\n      mul\n        /* \"#utility.yul\":8357:8408   */\n      tag_93\n      jump\t// in\n    tag_199:\n        /* \"#utility.yul\":8353:8409   */\n      not\n        /* \"#utility.yul\":8438:8442   */\n      dup1\n        /* \"#utility.yul\":8432:8436   */\n      dup4\n        /* \"#utility.yul\":8428:8443   */\n      and\n        /* \"#utility.yul\":8418:8443   */\n      swap2\n      pop\n        /* \"#utility.yul\":8331:8449   */\n      pop\n        /* \"#utility.yul\":8280:8449   */\n      swap3\n      swap2\n      pop\n      pop\n      jump\t// out\n        /* \"#utility.yul\":8454:8749   */\n    tag_95:\n        /* \"#utility.yul\":8530:8534   */\n      0x00\n        /* \"#utility.yul\":8676:8705   */\n      tag_201\n        /* \"#utility.yul\":8701:8704   */\n      dup4\n        /* \"#utility.yul\":8695:8699   */\n      dup4\n        /* \"#utility.yul\":8676:8705   */\n      tag_94\n      jump\t// in\n    tag_201:\n        /* \"#utility.yul\":8668:8705   */\n      swap2\n      pop\n        /* \"#utility.yul\":8738:8741   */\n      dup3\n        /* \"#utility.yul\":8735:8736   */\n      0x02\n        /* \"#utility.yul\":8731:8742   */\n      mul\n        /* \"#utility.yul\":8725:8729   */\n      dup3\n        /* \"#utility.yul\":8722:8743   */\n      or\n        /* \"#utility.yul\":8714:8743   */\n      swap1\n      pop\n        /* \"#utility.yul\":8454:8749   */\n      swap3\n      swap2\n      pop\n      pop\n      jump\t// out\n        /* \"#utility.yul\":8754:10144   */\n    tag_46:\n        /* \"#utility.yul\":8869:8905   */\n      tag_203\n        /* \"#utility.yul\":8901:8904   */\n      dup3\n        /* \"#utility.yul\":8869:8905   */\n      tag_58\n      jump\t// in\n    tag_203:\n        /* \"#utility.yul\":8970:8988   */\n      0xffffffffffffffff\n        /* \"#utility.yul\":8962:8968   */\n      dup2\n        /* \"#utility.yul\":8959:8989   */\n      gt\n        /* \"#utility.yul\":8956:9012   */\n      iszero\n      tag_204\n      jumpi\n        /* \"#utility.yul\":8992:9010   */\n      tag_205\n      tag_71\n      jump\t// in\n    tag_205:\n        /* \"#utility.yul\":8956:9012   */\n    tag_204:\n        /* \"#utility.yul\":9036:9074   */\n      tag_206\n        /* \"#utility.yul\":9068:9072   */\n      dup3\n        /* \"#utility.yul\":9062:9073   */\n      sload\n        /* \"#utility.yul\":9036:9074   */\n      tag_38\n      jump\t// in\n    tag_206:\n        /* \"#utility.yul\":9121:9187   */\n      tag_207\n        /* \"#utility.yul\":9180:9186   */\n      dup3\n        /* \"#utility.yul\":9172:9178   */\n      dup3\n        /* \"#utility.yul\":9166:9170   */\n      dup6\n        /* \"#utility.yul\":9121:9187   */\n      tag_92\n      jump\t// in\n    tag_207:\n        /* \"#utility.yul\":9214:9215   */\n      0x00\n        /* \"#utility.yul\":9238:9242   */\n      0x20\n        /* \"#utility.yul\":9225:9242   */\n      swap1\n      pop\n        /* \"#utility.yul\":9270:9272   */\n      0x1f\n        /* \"#utility.yul\":9262:9268   */\n      dup4\n        /* \"#utility.yul\":9259:9273   */\n      gt\n        /* \"#utility.yul\":9287:9288   */\n      0x01\n        /* \"#utility.yul\":9282:9899   */\n      dup2\n      eq\n      tag_209\n      jumpi\n        /* \"#utility.yul\":9943:9944   */\n      0x00\n        /* \"#utility.yul\":9960:9966   */\n      dup5\n        /* \"#utility.yul\":9957:10034   */\n      iszero\n      tag_210\n      jumpi\n        /* \"#utility.yul\":10009:10018   */\n      dup3\n        /* \"#utility.yul\":10004:10007   */\n      dup8\n        /* \"#utility.yul\":10000:10019   */\n      add\n        /* \"#utility.yul\":9994:10020   */\n      mload\n        /* \"#utility.yul\":9985:10020   */\n      swap1\n      pop\n        /* \"#utility.yul\":9957:10034   */\n    tag_210:\n        /* \"#utility.yul\":10060:10127   */\n      tag_211\n        /* \"#utility.yul\":10120:10126   */\n      dup6\n        /* \"#utility.yul\":10113:10118   */\n      dup3\n        /* \"#utility.yul\":10060:10127   */\n      tag_95\n      jump\t// in\n    tag_211:\n        /* \"#utility.yul\":10054:10058   */\n      dup7\n        /* \"#utility.yul\":10047:10128   */\n      sstore\n        /* \"#utility.yul\":9916:10138   */\n      pop\n        /* \"#utility.yul\":9252:10138   */\n      jump(tag_208)\n        /* \"#utility.yul\":9282:9899   */\n    tag_209:\n        /* \"#utility.yul\":9334:9338   */\n      0x1f\n        /* \"#utility.yul\":9330:9339   */\n      not\n        /* \"#utility.yul\":9322:9328   */\n      dup5\n        /* \"#utility.yul\":9318:9340   */\n      and\n        /* \"#utility.yul\":9368:9404   */\n      tag_212\n        /* \"#utility.yul\":9399:9403   */\n      dup7\n        /* \"#utility.yul\":9368:9404   */\n      tag_80\n      jump\t// in\n    tag_212:\n        /* \"#utility.yul\":9426:9427   */\n      0x00\n        /* \"#utility.yul\":9440:9648   */\n    tag_213:\n        /* \"#utility.yul\":9454:9461   */\n      dup3\n        /* \"#utility.yul\":9451:9452   */\n      dup2\n        /* \"#utility.yul\":9448:9462   */\n      lt\n        /* \"#utility.yul\":9440:9648   */\n      iszero\n      tag_215\n      jumpi\n        /* \"#utility.yul\":9533:9542   */\n      dup5\n        /* \"#utility.yul\":9528:9531   */\n      dup10\n        /* \"#utility.yul\":9524:9543   */\n      add\n        /* \"#utility.yul\":9518:9544   */\n      mload\n        /* \"#utility.yul\":9510:9516   */\n      dup3\n        /* \"#utility.yul\":9503:9545   */\n      sstore\n        /* \"#utility.yul\":9584:9585   */\n      0x01\n        /* \"#utility.yul\":9576:9582   */\n      dup3\n        /* \"#utility.yul\":9572:9586   */\n      add\n        /* \"#utility.yul\":9562:9586   */\n      swap2\n      pop\n        /* \"#utility.yul\":9631:9633   */\n      0x20\n        /* \"#utility.yul\":9620:9629   */\n      dup6\n        /* \"#utility.yul\":9616:9634   */\n      add\n        /* \"#utility.yul\":9603:9634   */\n      swap5\n      pop\n        /* \"#utility.yul\":9477:9481   */\n      0x20\n        /* \"#utility.yul\":9474:9475   */\n      dup2\n        /* \"#utility.yul\":9470:9482   */\n      add\n        /* \"#utility.yul\":9465:9482   */\n      swap1\n      pop\n        /* \"#utility.yul\":9440:9648   */\n      jump(tag_213)\n    tag_215:\n        /* \"#utility.yul\":9676:9682   */\n      dup7\n        /* \"#utility.yul\":9667:9674   */\n      dup4\n        /* \"#utility.yul\":9664:9683   */\n      lt\n        /* \"#utility.yul\":9661:9840   */\n      iszero\n      tag_216\n      jumpi\n        /* \"#utility.yul\":9734:9743   */\n      dup5\n        /* \"#utility.yul\":9729:9732   */\n      dup10\n        /* \"#utility.yul\":9725:9744   */\n      add\n        /* \"#utility.yul\":9719:9745   */\n      mload\n        /* \"#utility.yul\":9777:9825   */\n      tag_217\n        /* \"#utility.yul\":9819:9823   */\n      0x1f\n        /* \"#utility.yul\":9811:9817   */\n      dup10\n        /* \"#utility.yul\":9807:9824   */\n      and\n        /* \"#utility.yul\":9796:9805   */\n      dup3\n        /* \"#utility.yul\":9777:9825   */\n      tag_94\n      jump\t// in\n    tag_217:\n        /* \"#utility.yul\":9769:9775   */\n      dup4\n        /* \"#utility.yul\":9762:9826   */\n      sstore\n        /* \"#utility.yul\":9684:9840   */\n      pop\n        /* \"#utility.yul\":9661:9840   */\n    tag_216:\n        /* \"#utility.yul\":9886:9887   */\n      0x01\n        /* \"#utility.yul\":9882:9883   */\n      0x02\n        /* \"#utility.yul\":9874:9880   */\n      dup9\n        /* \"#utility.yul\":9870:9884   */\n      mul\n        /* \"#utility.yul\":9866:9888   */\n      add\n        /* \"#utility.yul\":9860:9864   */\n      dup9\n        /* \"#utility.yul\":9853:9889   */\n      sstore\n        /* \"#utility.yul\":9289:9899   */\n      pop\n      pop\n      pop\n        /* \"#utility.yul\":9252:10138   */\n    tag_208:\n      pop\n        /* \"#utility.yul\":8844:10144   */\n      pop\n      pop\n      pop\n        /* \"#utility.yul\":8754:10144   */\n      pop\n      pop\n      jump\t// out\n        /* \"#utility.yul\":10150:10319   */\n    tag_96:\n        /* \"#utility.yul\":10234:10245   */\n      0x00\n        /* \"#utility.yul\":10268:10274   */\n      dup3\n        /* \"#utility.yul\":10263:10266   */\n      dup3\n        /* \"#utility.yul\":10256:10275   */\n      mstore\n        /* \"#utility.yul\":10308:10312   */\n      0x20\n        /* \"#utility.yul\":10303:10306   */\n      dup3\n        /* \"#utility.yul\":10299:10313   */\n      add\n        /* \"#utility.yul\":10284:10313   */\n      swap1\n      pop\n        /* \"#utility.yul\":10150:10319   */\n      swap3\n      swap2\n      pop\n      pop\n      jump\t// out\n        /* \"#utility.yul\":10325:10489   */\n    tag_97:\n        /* \"#utility.yul\":10465:10481   */\n      0x496e70757420746f6f206c6f6e67000000000000000000000000000000000000\n        /* \"#utility.yul\":10461:10462   */\n      0x00\n        /* \"#utility.yul\":10453:10459   */\n      dup3\n        /* \"#utility.yul\":10449:10463   */\n      add\n        /* \"#utility.yul\":10442:10482   */\n      mstore\n        /* \"#utility.yul\":10325:10489   */\n      pop\n      jump\t// out\n        /* \"#utility.yul\":10495:10861   */\n    tag_98:\n        /* \"#utility.yul\":10637:10640   */\n      0x00\n        /* \"#utility.yul\":10658:10725   */\n      tag_221\n        /* \"#utility.yul\":10722:10724   */\n      0x0e\n        /* \"#utility.yul\":10717:10720   */\n      dup4\n        /* \"#utility.yul\":10658:10725   */\n      tag_96\n      jump\t// in\n    tag_221:\n        /* \"#utility.yul\":10651:10725   */\n      swap2\n      pop\n        /* \"#utility.yul\":10734:10827   */\n      tag_222\n        /* \"#utility.yul\":10823:10826   */\n      dup3\n        /* \"#utility.yul\":10734:10827   */\n      tag_97\n      jump\t// in\n    tag_222:\n        /* \"#utility.yul\":10852:10854   */\n      0x20\n        /* \"#utility.yul\":10847:10850   */\n      dup3\n        /* \"#utility.yul\":10843:10855   */\n      add\n        /* \"#utility.yul\":10836:10855   */\n      swap1\n      pop\n        /* \"#utility.yul\":10495:10861   */\n      swap2\n      swap1\n      pop\n      jump\t// out\n        /* \"#utility.yul\":10867:11286   */\n    tag_57:\n        /* \"#utility.yul\":11033:11037   */\n      0x00\n        /* \"#utility.yul\":11071:11073   */\n      0x20\n        /* \"#utility.yul\":11060:11069   */\n      dup3\n        /* \"#utility.yul\":11056:11074   */\n      add\n        /* \"#utility.yul\":11048:11074   */\n      swap1\n      pop\n        /* \"#utility.yul\":11120:11129   */\n      dup2\n        /* \"#utility.yul\":11114:11118   */\n      dup2\n        /* \"#utility.yul\":11110:11130   */\n      sub\n        /* \"#utility.yul\":11106:11107   */\n      0x00\n        /* \"#utility.yul\":11095:11104   */\n      dup4\n        /* \"#utility.yul\":11091:11108   */\n      add\n        /* \"#utility.yul\":11084:11131   */\n      mstore\n        /* \"#utility.yul\":11148:11279   */\n      tag_224\n        /* \"#utility.yul\":11274:11278   */\n      dup2\n        /* \"#utility.yul\":11148:11279   */\n      tag_98\n      jump\t// in\n    tag_224:\n        /* \"#utility.yul\":11140:11279   */\n      swap1\n      pop\n        /* \"#utility.yul\":10867:11286   */\n      swap2\n      swap1\n      pop\n      jump\t// out\n\n    auxdata: 0xa2646970667358221220063784dca7264a607b6a812d2bcbb56659734f6b6b27604e9fbe023e421597ee64736f6c634300081a0033\n}\n",
				"bytecode": {
					"linkReferences": {},
					"object": "6080604052348015600e575f80fd5b506109158061001c5f395ff3fe608060405234801561000f575f80fd5b506004361061007b575f3560e01c8063cef7e0de11610059578063cef7e0de146100d5578063d1f300ed146100f3578063d646172314610111578063f5babff21461012f5761007b565b806333ae81581461007f5780633d1e13071461009d578063464e28f8146100b9575b5f80fd5b61008761015f565b604051610094919061036b565b60405180910390f35b6100b760048036038101906100b291906103cf565b6101ea565b005b6100d360048036038101906100ce9190610526565b6101f4565b005b6100dd610206565b6040516100ea919061057c565b60405180910390f35b6100fb61020c565b604051610108919061036b565b60405180910390f35b61011961029b565b604051610126919061057c565b60405180910390f35b61014960048036038101906101449190610526565b6102a4565b604051610156919061057c565b60405180910390f35b5f805461016b906105c2565b80601f0160208091040260200160405190810160405280929190818152602001828054610197906105c2565b80156101e25780601f106101b9576101008083540402835291602001916101e2565b820191905f5260205f20905b8154815290600101906020018083116101c557829003601f168201915b505050505081565b8060018190555050565b805f90816102029190610798565b5050565b60015481565b60605f805461021a906105c2565b80601f0160208091040260200160405190810160405280929190818152602001828054610246906105c2565b80156102915780601f1061026857610100808354040283529160200191610291565b820191905f5260205f20905b81548152906001019060200180831161027457829003601f168201915b5050505050905090565b5f600154905090565b5f6020825111156102ea576040517f08c379a00000000000000000000000000000000000000000000000000000000081526004016102e1906108c1565b60405180910390fd5b5f6020830151905080915050919050565b5f81519050919050565b5f82825260208201905092915050565b8281835e5f83830152505050565b5f601f19601f8301169050919050565b5f61033d826102fb565b6103478185610305565b9350610357818560208601610315565b61036081610323565b840191505092915050565b5f6020820190508181035f8301526103838184610333565b905092915050565b5f604051905090565b5f80fd5b5f80fd5b5f819050919050565b6103ae8161039c565b81146103b8575f80fd5b50565b5f813590506103c9816103a5565b92915050565b5f602082840312156103e4576103e3610394565b5b5f6103f1848285016103bb565b91505092915050565b5f80fd5b5f80fd5b7f4e487b71000000000000000000000000000000000000000000000000000000005f52604160045260245ffd5b61043882610323565b810181811067ffffffffffffffff8211171561045757610456610402565b5b80604052505050565b5f61046961038b565b9050610475828261042f565b919050565b5f67ffffffffffffffff82111561049457610493610402565b5b61049d82610323565b9050602081019050919050565b828183375f83830152505050565b5f6104ca6104c58461047a565b610460565b9050828152602081018484840111156104e6576104e56103fe565b5b6104f18482856104aa565b509392505050565b5f82601f83011261050d5761050c6103fa565b5b813561051d8482602086016104b8565b91505092915050565b5f6020828403121561053b5761053a610394565b5b5f82013567ffffffffffffffff81111561055857610557610398565b5b610564848285016104f9565b91505092915050565b6105768161039c565b82525050565b5f60208201905061058f5f83018461056d565b92915050565b7f4e487b71000000000000000000000000000000000000000000000000000000005f52602260045260245ffd5b5f60028204905060018216806105d957607f821691505b6020821081036105ec576105eb610595565b5b50919050565b5f819050815f5260205f209050919050565b5f6020601f8301049050919050565b5f82821b905092915050565b5f6008830261064e7fffffffffffffffffffffffffffffffffffffffffffffffffffffffffffffffff82610613565b6106588683610613565b95508019841693508086168417925050509392505050565b5f819050919050565b5f819050919050565b5f61069c61069761069284610670565b610679565b610670565b9050919050565b5f819050919050565b6106b583610682565b6106c96106c1826106a3565b84845461061f565b825550505050565b5f90565b6106dd6106d1565b6106e88184846106ac565b505050565b5b8181101561070b576107005f826106d5565b6001810190506106ee565b5050565b601f82111561075057610721816105f2565b61072a84610604565b81016020851015610739578190505b61074d61074585610604565b8301826106ed565b50505b505050565b5f82821c905092915050565b5f6107705f1984600802610755565b1980831691505092915050565b5f6107888383610761565b9150826002028217905092915050565b6107a1826102fb565b67ffffffffffffffff8111156107ba576107b9610402565b5b6107c482546105c2565b6107cf82828561070f565b5f60209050601f831160018114610800575f84156107ee578287015190505b6107f8858261077d565b86555061085f565b601f19841661080e866105f2565b5f5b8281101561083557848901518255600182019150602085019450602081019050610810565b86831015610852578489015161084e601f891682610761565b8355505b6001600288020188555050505b505050505050565b5f82825260208201905092915050565b7f496e70757420746f6f206c6f6e670000000000000000000000000000000000005f82015250565b5f6108ab600e83610867565b91506108b682610877565b602082019050919050565b5f6020820190508181035f8301526108d88161089f565b905091905056fea2646970667358221220063784dca7264a607b6a812d2bcbb56659734f6b6b27604e9fbe023e421597ee64736f6c634300081a0033",
					"opcodes": "PUSH1 0x80 PUSH1 0x40 MSTORE CALLVALUE DUP1 ISZERO PUSH1 0xE JUMPI PUSH0 DUP1 REVERT JUMPDEST POP PUSH2 0x915 DUP1 PUSH2 0x1C PUSH0 CODECOPY PUSH0 RETURN INVALID PUSH1 0x80 PUSH1 0x40 MSTORE CALLVALUE DUP1 ISZERO PUSH2 0xF JUMPI PUSH0 DUP1 REVERT JUMPDEST POP PUSH1 0x4 CALLDATASIZE LT PUSH2 0x7B JUMPI PUSH0 CALLDATALOAD PUSH1 0xE0 SHR DUP1 PUSH4 0xCEF7E0DE GT PUSH2 0x59 JUMPI DUP1 PUSH4 0xCEF7E0DE EQ PUSH2 0xD5 JUMPI DUP1 PUSH4 0xD1F300ED EQ PUSH2 0xF3 JUMPI DUP1 PUSH4 0xD6461723 EQ PUSH2 0x111 JUMPI DUP1 PUSH4 0xF5BABFF2 EQ PUSH2 0x12F JUMPI PUSH2 0x7B JUMP JUMPDEST DUP1 PUSH4 0x33AE8158 EQ PUSH2 0x7F JUMPI DUP1 PUSH4 0x3D1E1307 EQ PUSH2 0x9D JUMPI DUP1 PUSH4 0x464E28F8 EQ PUSH2 0xB9 JUMPI JUMPDEST PUSH0 DUP1 REVERT JUMPDEST PUSH2 0x87 PUSH2 0x15F JUMP JUMPDEST PUSH1 0x40 MLOAD PUSH2 0x94 SWAP2 SWAP1 PUSH2 0x36B JUMP JUMPDEST PUSH1 0x40 MLOAD DUP1 SWAP2 SUB SWAP1 RETURN JUMPDEST PUSH2 0xB7 PUSH1 0x4 DUP1 CALLDATASIZE SUB DUP2 ADD SWAP1 PUSH2 0xB2 SWAP2 SWAP1 PUSH2 0x3CF JUMP JUMPDEST PUSH2 0x1EA JUMP JUMPDEST STOP JUMPDEST PUSH2 0xD3 PUSH1 0x4 DUP1 CALLDATASIZE SUB DUP2 ADD SWAP1 PUSH2 0xCE SWAP2 SWAP1 PUSH2 0x526 JUMP JUMPDEST PUSH2 0x1F4 JUMP JUMPDEST STOP JUMPDEST PUSH2 0xDD PUSH2 0x206 JUMP JUMPDEST PUSH1 0x40 MLOAD PUSH2 0xEA SWAP2 SWAP1 PUSH2 0x57C JUMP JUMPDEST PUSH1 0x40 MLOAD DUP1 SWAP2 SUB SWAP1 RETURN JUMPDEST PUSH2 0xFB PUSH2 0x20C JUMP JUMPDEST PUSH1 0x40 MLOAD PUSH2 0x108 SWAP2 SWAP1 PUSH2 0x36B JUMP JUMPDEST PUSH1 0x40 MLOAD DUP1 SWAP2 SUB SWAP1 RETURN JUMPDEST PUSH2 0x119 PUSH2 0x29B JUMP JUMPDEST PUSH1 0x40 MLOAD PUSH2 0x126 SWAP2 SWAP1 PUSH2 0x57C JUMP JUMPDEST PUSH1 0x40 MLOAD DUP1 SWAP2 SUB SWAP1 RETURN JUMPDEST PUSH2 0x149 PUSH1 0x4 DUP1 CALLDATASIZE SUB DUP2 ADD SWAP1 PUSH2 0x144 SWAP2 SWAP1 PUSH2 0x526 JUMP JUMPDEST PUSH2 0x2A4 JUMP JUMPDEST PUSH1 0x40 MLOAD PUSH2 0x156 SWAP2 SWAP1 PUSH2 0x57C JUMP JUMPDEST PUSH1 0x40 MLOAD DUP1 SWAP2 SUB SWAP1 RETURN JUMPDEST PUSH0 DUP1 SLOAD PUSH2 0x16B SWAP1 PUSH2 0x5C2 JUMP JUMPDEST DUP1 PUSH1 0x1F ADD PUSH1 0x20 DUP1 SWAP2 DIV MUL PUSH1 0x20 ADD PUSH1 0x40 MLOAD SWAP1 DUP2 ADD PUSH1 0x40 MSTORE DUP1 SWAP3 SWAP2 SWAP1 DUP2 DUP2 MSTORE PUSH1 0x20 ADD DUP3 DUP1 SLOAD PUSH2 0x197 SWAP1 PUSH2 0x5C2 JUMP JUMPDEST DUP1 ISZERO PUSH2 0x1E2 JUMPI DUP1 PUSH1 0x1F LT PUSH2 0x1B9 JUMPI PUSH2 0x100 DUP1 DUP4 SLOAD DIV MUL DUP4 MSTORE SWAP2 PUSH1 0x20 ADD SWAP2 PUSH2 0x1E2 JUMP JUMPDEST DUP3 ADD SWAP2 SWAP1 PUSH0 MSTORE PUSH1 0x20 PUSH0 KECCAK256 SWAP1 JUMPDEST DUP2 SLOAD DUP2 MSTORE SWAP1 PUSH1 0x1 ADD SWAP1 PUSH1 0x20 ADD DUP1 DUP4 GT PUSH2 0x1C5 JUMPI DUP3 SWAP1 SUB PUSH1 0x1F AND DUP3 ADD SWAP2 JUMPDEST POP POP POP POP POP DUP2 JUMP JUMPDEST DUP1 PUSH1 0x1 DUP2 SWAP1 SSTORE POP POP JUMP JUMPDEST DUP1 PUSH0 SWAP1 DUP2 PUSH2 0x202 SWAP2 SWAP1 PUSH2 0x798 JUMP JUMPDEST POP POP JUMP JUMPDEST PUSH1 0x1 SLOAD DUP2 JUMP JUMPDEST PUSH1 0x60 PUSH0 DUP1 SLOAD PUSH2 0x21A SWAP1 PUSH2 0x5C2 JUMP JUMPDEST DUP1 PUSH1 0x1F ADD PUSH1 0x20 DUP1 SWAP2 DIV MUL PUSH1 0x20 ADD PUSH1 0x40 MLOAD SWAP1 DUP2 ADD PUSH1 0x40 MSTORE DUP1 SWAP3 SWAP2 SWAP1 DUP2 DUP2 MSTORE PUSH1 0x20 ADD DUP3 DUP1 SLOAD PUSH2 0x246 SWAP1 PUSH2 0x5C2 JUMP JUMPDEST DUP1 ISZERO PUSH2 0x291 JUMPI DUP1 PUSH1 0x1F LT PUSH2 0x268 JUMPI PUSH2 0x100 DUP1 DUP4 SLOAD DIV MUL DUP4 MSTORE SWAP2 PUSH1 0x20 ADD SWAP2 PUSH2 0x291 JUMP JUMPDEST DUP3 ADD SWAP2 SWAP1 PUSH0 MSTORE PUSH1 0x20 PUSH0 KECCAK256 SWAP1 JUMPDEST DUP2 SLOAD DUP2 MSTORE SWAP1 PUSH1 0x1 ADD SWAP1 PUSH1 0x20 ADD DUP1 DUP4 GT PUSH2 0x274 JUMPI DUP3 SWAP1 SUB PUSH1 0x1F AND DUP3 ADD SWAP2 JUMPDEST POP POP POP POP POP SWAP1 POP SWAP1 JUMP JUMPDEST PUSH0 PUSH1 0x1 SLOAD SWAP1 POP SWAP1 JUMP JUMPDEST PUSH0 PUSH1 0x20 DUP3 MLOAD GT ISZERO PUSH2 0x2EA JUMPI PUSH1 0x40 MLOAD PUSH32 0x8C379A000000000000000000000000000000000000000000000000000000000 DUP2 MSTORE PUSH1 0x4 ADD PUSH2 0x2E1 SWAP1 PUSH2 0x8C1 JUMP JUMPDEST PUSH1 0x40 MLOAD DUP1 SWAP2 SUB SWAP1 REVERT JUMPDEST PUSH0 PUSH1 0x20 DUP4 ADD MLOAD SWAP1 POP DUP1 SWAP2 POP POP SWAP2 SWAP1 POP JUMP JUMPDEST PUSH0 DUP2 MLOAD SWAP1 POP SWAP2 SWAP1 POP JUMP JUMPDEST PUSH0 DUP3 DUP3 MSTORE PUSH1 0x20 DUP3 ADD SWAP1 POP SWAP3 SWAP2 POP POP JUMP JUMPDEST DUP3 DUP2 DUP4 MCOPY PUSH0 DUP4 DUP4 ADD MSTORE POP POP POP JUMP JUMPDEST PUSH0 PUSH1 0x1F NOT PUSH1 0x1F DUP4 ADD AND SWAP1 POP SWAP2 SWAP1 POP JUMP JUMPDEST PUSH0 PUSH2 0x33D DUP3 PUSH2 0x2FB JUMP JUMPDEST PUSH2 0x347 DUP2 DUP6 PUSH2 0x305 JUMP JUMPDEST SWAP4 POP PUSH2 0x357 DUP2 DUP6 PUSH1 0x20 DUP7 ADD PUSH2 0x315 JUMP JUMPDEST PUSH2 0x360 DUP2 PUSH2 0x323 JUMP JUMPDEST DUP5 ADD SWAP2 POP POP SWAP3 SWAP2 POP POP JUMP JUMPDEST PUSH0 PUSH1 0x20 DUP3 ADD SWAP1 POP DUP2 DUP2 SUB PUSH0 DUP4 ADD MSTORE PUSH2 0x383 DUP2 DUP5 PUSH2 0x333 JUMP JUMPDEST SWAP1 POP SWAP3 SWAP2 POP POP JUMP JUMPDEST PUSH0 PUSH1 0x40 MLOAD SWAP1 POP SWAP1 JUMP JUMPDEST PUSH0 DUP1 REVERT JUMPDEST PUSH0 DUP1 REVERT JUMPDEST PUSH0 DUP2 SWAP1 POP SWAP2 SWAP1 POP JUMP JUMPDEST PUSH2 0x3AE DUP2 PUSH2 0x39C JUMP JUMPDEST DUP2 EQ PUSH2 0x3B8 JUMPI PUSH0 DUP1 REVERT JUMPDEST POP JUMP JUMPDEST PUSH0 DUP2 CALLDATALOAD SWAP1 POP PUSH2 0x3C9 DUP2 PUSH2 0x3A5 JUMP JUMPDEST SWAP3 SWAP2 POP POP JUMP JUMPDEST PUSH0 PUSH1 0x20 DUP3 DUP5 SUB SLT ISZERO PUSH2 0x3E4 JUMPI PUSH2 0x3E3 PUSH2 0x394 JUMP JUMPDEST JUMPDEST PUSH0 PUSH2 0x3F1 DUP5 DUP3 DUP6 ADD PUSH2 0x3BB JUMP JUMPDEST SWAP2 POP POP SWAP3 SWAP2 POP POP JUMP JUMPDEST PUSH0 DUP1 REVERT JUMPDEST PUSH0 DUP1 REVERT JUMPDEST PUSH32 0x4E487B7100000000000000000000000000000000000000000000000000000000 PUSH0 MSTORE PUSH1 0x41 PUSH1 0x4 MSTORE PUSH1 0x24 PUSH0 REVERT JUMPDEST PUSH2 0x438 DUP3 PUSH2 0x323 JUMP JUMPDEST DUP2 ADD DUP2 DUP2 LT PUSH8 0xFFFFFFFFFFFFFFFF DUP3 GT OR ISZERO PUSH2 0x457 JUMPI PUSH2 0x456 PUSH2 0x402 JUMP JUMPDEST JUMPDEST DUP1 PUSH1 0x40 MSTORE POP POP POP JUMP JUMPDEST PUSH0 PUSH2 0x469 PUSH2 0x38B JUMP JUMPDEST SWAP1 POP PUSH2 0x475 DUP3 DUP3 PUSH2 0x42F JUMP JUMPDEST SWAP2 SWAP1 POP JUMP JUMPDEST PUSH0 PUSH8 0xFFFFFFFFFFFFFFFF DUP3 GT ISZERO PUSH2 0x494 JUMPI PUSH2 0x493 PUSH2 0x402 JUMP JUMPDEST JUMPDEST PUSH2 0x49D DUP3 PUSH2 0x323 JUMP JUMPDEST SWAP1 POP PUSH1 0x20 DUP2 ADD SWAP1 POP SWAP2 SWAP1 POP JUMP JUMPDEST DUP3 DUP2 DUP4 CALLDATACOPY PUSH0 DUP4 DUP4 ADD MSTORE POP POP POP JUMP JUMPDEST PUSH0 PUSH2 0x4CA PUSH2 0x4C5 DUP5 PUSH2 0x47A JUMP JUMPDEST PUSH2 0x460 JUMP JUMPDEST SWAP1 POP DUP3 DUP2 MSTORE PUSH1 0x20 DUP2 ADD DUP5 DUP5 DUP5 ADD GT ISZERO PUSH2 0x4E6 JUMPI PUSH2 0x4E5 PUSH2 0x3FE JUMP JUMPDEST JUMPDEST PUSH2 0x4F1 DUP5 DUP3 DUP6 PUSH2 0x4AA JUMP JUMPDEST POP SWAP4 SWAP3 POP POP POP JUMP JUMPDEST PUSH0 DUP3 PUSH1 0x1F DUP4 ADD SLT PUSH2 0x50D JUMPI PUSH2 0x50C PUSH2 0x3FA JUMP JUMPDEST JUMPDEST DUP2 CALLDATALOAD PUSH2 0x51D DUP5 DUP3 PUSH1 0x20 DUP7 ADD PUSH2 0x4B8 JUMP JUMPDEST SWAP2 POP POP SWAP3 SWAP2 POP POP JUMP JUMPDEST PUSH0 PUSH1 0x20 DUP3 DUP5 SUB SLT ISZERO PUSH2 0x53B JUMPI PUSH2 0x53A PUSH2 0x394 JUMP JUMPDEST JUMPDEST PUSH0 DUP3 ADD CALLDATALOAD PUSH8 0xFFFFFFFFFFFFFFFF DUP2 GT ISZERO PUSH2 0x558 JUMPI PUSH2 0x557 PUSH2 0x398 JUMP JUMPDEST JUMPDEST PUSH2 0x564 DUP5 DUP3 DUP6 ADD PUSH2 0x4F9 JUMP JUMPDEST SWAP2 POP POP SWAP3 SWAP2 POP POP JUMP JUMPDEST PUSH2 0x576 DUP2 PUSH2 0x39C JUMP JUMPDEST DUP3 MSTORE POP POP JUMP JUMPDEST PUSH0 PUSH1 0x20 DUP3 ADD SWAP1 POP PUSH2 0x58F PUSH0 DUP4 ADD DUP5 PUSH2 0x56D JUMP JUMPDEST SWAP3 SWAP2 POP POP JUMP JUMPDEST PUSH32 0x4E487B7100000000000000000000000000000000000000000000000000000000 PUSH0 MSTORE PUSH1 0x22 PUSH1 0x4 MSTORE PUSH1 0x24 PUSH0 REVERT JUMPDEST PUSH0 PUSH1 0x2 DUP3 DIV SWAP1 POP PUSH1 0x1 DUP3 AND DUP1 PUSH2 0x5D9 JUMPI PUSH1 0x7F DUP3 AND SWAP2 POP JUMPDEST PUSH1 0x20 DUP3 LT DUP2 SUB PUSH2 0x5EC JUMPI PUSH2 0x5EB PUSH2 0x595 JUMP JUMPDEST JUMPDEST POP SWAP2 SWAP1 POP JUMP JUMPDEST PUSH0 DUP2 SWAP1 POP DUP2 PUSH0 MSTORE PUSH1 0x20 PUSH0 KECCAK256 SWAP1 POP SWAP2 SWAP1 POP JUMP JUMPDEST PUSH0 PUSH1 0x20 PUSH1 0x1F DUP4 ADD DIV SWAP1 POP SWAP2 SWAP1 POP JUMP JUMPDEST PUSH0 DUP3 DUP3 SHL SWAP1 POP SWAP3 SWAP2 POP POP JUMP JUMPDEST PUSH0 PUSH1 0x8 DUP4 MUL PUSH2 0x64E PUSH32 0xFFFFFFFFFFFFFFFFFFFFFFFFFFFFFFFFFFFFFFFFFFFFFFFFFFFFFFFFFFFFFFFF DUP3 PUSH2 0x613 JUMP JUMPDEST PUSH2 0x658 DUP7 DUP4 PUSH2 0x613 JUMP JUMPDEST SWAP6 POP DUP1 NOT DUP5 AND SWAP4 POP DUP1 DUP7 AND DUP5 OR SWAP3 POP POP POP SWAP4 SWAP3 POP POP POP JUMP JUMPDEST PUSH0 DUP2 SWAP1 POP SWAP2 SWAP1 POP JUMP JUMPDEST PUSH0 DUP2 SWAP1 POP SWAP2 SWAP1 POP JUMP JUMPDEST PUSH0 PUSH2 0x69C PUSH2 0x697 PUSH2 0x692 DUP5 PUSH2 0x670 JUMP JUMPDEST PUSH2 0x679 JUMP JUMPDEST PUSH2 0x670 JUMP JUMPDEST SWAP1 POP SWAP2 SWAP1 POP JUMP JUMPDEST PUSH0 DUP2 SWAP1 POP SWAP2 SWAP1 POP JUMP JUMPDEST PUSH2 0x6B5 DUP4 PUSH2 0x682 JUMP JUMPDEST PUSH2 0x6C9 PUSH2 0x6C1 DUP3 PUSH2 0x6A3 JUMP JUMPDEST DUP5 DUP5 SLOAD PUSH2 0x61F JUMP JUMPDEST DUP3 SSTORE POP POP POP POP JUMP JUMPDEST PUSH0 SWAP1 JUMP JUMPDEST PUSH2 0x6DD PUSH2 0x6D1 JUMP JUMPDEST PUSH2 0x6E8 DUP2 DUP5 DUP5 PUSH2 0x6AC JUMP JUMPDEST POP POP POP JUMP JUMPDEST JUMPDEST DUP2 DUP2 LT ISZERO PUSH2 0x70B JUMPI PUSH2 0x700 PUSH0 DUP3 PUSH2 0x6D5 JUMP JUMPDEST PUSH1 0x1 DUP2 ADD SWAP1 POP PUSH2 0x6EE JUMP JUMPDEST POP POP JUMP JUMPDEST PUSH1 0x1F DUP3 GT ISZERO PUSH2 0x750 JUMPI PUSH2 0x721 DUP2 PUSH2 0x5F2 JUMP JUMPDEST PUSH2 0x72A DUP5 PUSH2 0x604 JUMP JUMPDEST DUP2 ADD PUSH1 0x20 DUP6 LT ISZERO PUSH2 0x739 JUMPI DUP2 SWAP1 POP JUMPDEST PUSH2 0x74D PUSH2 0x745 DUP6 PUSH2 0x604 JUMP JUMPDEST DUP4 ADD DUP3 PUSH2 0x6ED JUMP JUMPDEST POP POP JUMPDEST POP POP POP JUMP JUMPDEST PUSH0 DUP3 DUP3 SHR SWAP1 POP SWAP3 SWAP2 POP POP JUMP JUMPDEST PUSH0 PUSH2 0x770 PUSH0 NOT DUP5 PUSH1 0x8 MUL PUSH2 0x755 JUMP JUMPDEST NOT DUP1 DUP4 AND SWAP2 POP POP SWAP3 SWAP2 POP POP JUMP JUMPDEST PUSH0 PUSH2 0x788 DUP4 DUP4 PUSH2 0x761 JUMP JUMPDEST SWAP2 POP DUP3 PUSH1 0x2 MUL DUP3 OR SWAP1 POP SWAP3 SWAP2 POP POP JUMP JUMPDEST PUSH2 0x7A1 DUP3 PUSH2 0x2FB JUMP JUMPDEST PUSH8 0xFFFFFFFFFFFFFFFF DUP2 GT ISZERO PUSH2 0x7BA JUMPI PUSH2 0x7B9 PUSH2 0x402 JUMP JUMPDEST JUMPDEST PUSH2 0x7C4 DUP3 SLOAD PUSH2 0x5C2 JUMP JUMPDEST PUSH2 0x7CF DUP3 DUP3 DUP6 PUSH2 0x70F JUMP JUMPDEST PUSH0 PUSH1 0x20 SWAP1 POP PUSH1 0x1F DUP4 GT PUSH1 0x1 DUP2 EQ PUSH2 0x800 JUMPI PUSH0 DUP5 ISZERO PUSH2 0x7EE JUMPI DUP3 DUP8 ADD MLOAD SWAP1 POP JUMPDEST PUSH2 0x7F8 DUP6 DUP3 PUSH2 0x77D JUMP JUMPDEST DUP7 SSTORE POP PUSH2 0x85F JUMP JUMPDEST PUSH1 0x1F NOT DUP5 AND PUSH2 0x80E DUP7 PUSH2 0x5F2 JUMP JUMPDEST PUSH0 JUMPDEST DUP3 DUP2 LT ISZERO PUSH2 0x835 JUMPI DUP5 DUP10 ADD MLOAD DUP3 SSTORE PUSH1 0x1 DUP3 ADD SWAP2 POP PUSH1 0x20 DUP6 ADD SWAP5 POP PUSH1 0x20 DUP2 ADD SWAP1 POP PUSH2 0x810 JUMP JUMPDEST DUP7 DUP4 LT ISZERO PUSH2 0x852 JUMPI DUP5 DUP10 ADD MLOAD PUSH2 0x84E PUSH1 0x1F DUP10 AND DUP3 PUSH2 0x761 JUMP JUMPDEST DUP4 SSTORE POP JUMPDEST PUSH1 0x1 PUSH1 0x2 DUP9 MUL ADD DUP9 SSTORE POP POP POP JUMPDEST POP POP POP POP POP POP JUMP JUMPDEST PUSH0 DUP3 DUP3 MSTORE PUSH1 0x20 DUP3 ADD SWAP1 POP SWAP3 SWAP2 POP POP JUMP JUMPDEST PUSH32 0x496E70757420746F6F206C6F6E67000000000000000000000000000000000000 PUSH0 DUP3 ADD MSTORE POP JUMP JUMPDEST PUSH0 PUSH2 0x8AB PUSH1 0xE DUP4 PUSH2 0x867 JUMP JUMPDEST SWAP2 POP PUSH2 0x8B6 DUP3 PUSH2 0x877 JUMP JUMPDEST PUSH1 0x20 DUP3 ADD SWAP1 POP SWAP2 SWAP1 POP JUMP JUMPDEST PUSH0 PUSH1 0x20 DUP3 ADD SWAP1 POP DUP2 DUP2 SUB PUSH0 DUP4 ADD MSTORE PUSH2 0x8D8 DUP2 PUSH2 0x89F JUMP JUMPDEST SWAP1 POP SWAP2 SWAP1 POP JUMP INVALID LOG2 PUSH5 0x6970667358 0x22 SLT KECCAK256 MOD CALLDATACOPY DUP5 0xDC 0xA7 0x26 BLOBBASEFEE PUSH1 0x7B PUSH11 0x812D2BCBB56659734F6B6B 0x27 PUSH1 0x4E SWAP16 0xBE MUL RETURNDATACOPY TIMESTAMP ISZERO SWAP8 0xEE PUSH5 0x736F6C6343 STOP ADDMOD BYTE STOP CALLER "
				},
				"gasEstimates": {
					"creation": {
						"codeDepositCost": "465000",
						"executionCost": "497",
						"totalCost": "465497"
					},
					"external": {
						"convertBytesToBytes32(bytes)": "infinite",
						"dynamicBytes()": "infinite",
						"fixedBytes()": "2425",
						"getDynamicBytes()": "infinite",
						"getFixedBytes()": "2476",
						"setDynamicBytes(bytes)": "infinite",
						"setFixedBytes(bytes32)": "22538"
					}
				},
				"methodIdentifiers": {
					"convertBytesToBytes32(bytes)": "f5babff2",
					"dynamicBytes()": "33ae8158",
					"fixedBytes()": "cef7e0de",
					"getDynamicBytes()": "d1f300ed",
					"getFixedBytes()": "d6461723",
					"setDynamicBytes(bytes)": "464e28f8",
					"setFixedBytes(bytes32)": "3d1e1307"
				}
			},
			"storageLayout": {
				"storage": [
					{
						"astId": 3,
						"contract": "contracts/bytesdatatype.sol:BytesExample",
						"label": "dynamicBytes",
						"offset": 0,
						"slot": "0",
						"type": "t_bytes_storage"
					},
					{
						"astId": 5,
						"contract": "contracts/bytesdatatype.sol:BytesExample",
						"label": "fixedBytes",
						"offset": 0,
						"slot": "1",
						"type": "t_bytes32"
					}
				],
				"types": {
					"t_bytes32": {
						"encoding": "inplace",
						"label": "bytes32",
						"numberOfBytes": "32"
					},
					"t_bytes_storage": {
						"encoding": "bytes",
						"label": "bytes",
						"numberOfBytes": "32"
					}
				}
			},
			"userdoc": {
				"kind": "user",
				"methods": {},
				"version": 1
			}
		}
	}
}