{
	"contracts/1.14.fixedarray.sol": {
		"FixedArrayExample": {
			"abi": [
				{
					"inputs": [
						{
							"internalType": "uint256",
							"name": "",
							"type": "uint256"
						}
					],
					"name": "fixedArray",
					"outputs": [
						{
							"internalType": "uint256",
							"name": "",
							"type": "uint256"
						}
					],
					"stateMutability": "view",
					"type": "function"
				},
				{
					"inputs": [],
					"name": "getArray",
					"outputs": [
						{
							"internalType": "uint256[5]",
							"name": "",
							"type": "uint256[5]"
						}
					],
					"stateMutability": "view",
					"type": "function"
				},
				{
					"inputs": [
						{
							"internalType": "uint256",
							"name": "index",
							"type": "uint256"
						}
					],
					"name": "getElement",
					"outputs": [
						{
							"internalType": "uint256",
							"name": "",
							"type": "uint256"
						}
					],
					"stateMutability": "view",
					"type": "function"
				},
				{
					"inputs": [
						{
							"internalType": "uint256",
							"name": "_array1",
							"type": "uint256"
						},
						{
							"internalType": "uint256",
							"name": "_array2",
							"type": "uint256"
						},
						{
							"internalType": "uint256",
							"name": "_array3",
							"type": "uint256"
						},
						{
							"internalType": "uint256",
							"name": "_array4",
							"type": "uint256"
						},
						{
							"internalType": "uint256",
							"name": "_array5",
							"type": "uint256"
						}
					],
					"name": "setArray",
					"outputs": [],
					"stateMutability": "nonpayable",
					"type": "function"
				},
				{
					"inputs": [
						{
							"internalType": "uint256",
							"name": "index",
							"type": "uint256"
						},
						{
							"internalType": "uint256",
							"name": "value",
							"type": "uint256"
						}
					],
					"name": "updateElement",
					"outputs": [],
					"stateMutability": "nonpayable",
					"type": "function"
				}
			],
			"devdoc": {
				"kind": "dev",
				"methods": {},
				"version": 1
			},
			"evm": {
				"assembly": "    /* \"contracts/1.14.fixedarray.sol\":70:1231  contract FixedArrayExample {... */\n  mstore(0x40, 0x80)\n  callvalue\n  dup1\n  iszero\n  tag_1\n  jumpi\n  0x00\n  dup1\n  revert\ntag_1:\n  pop\n  dataSize(sub_0)\n  dup1\n  dataOffset(sub_0)\n  0x00\n  codecopy\n  0x00\n  return\nstop\n\nsub_0: assembly {\n        /* \"contracts/1.14.fixedarray.sol\":70:1231  contract FixedArrayExample {... */\n      mstore(0x40, 0x80)\n      callvalue\n      dup1\n      iszero\n      tag_1\n      jumpi\n      0x00\n      dup1\n      revert\n    tag_1:\n      pop\n      jumpi(tag_2, lt(calldatasize, 0x04))\n      shr(0xe0, calldataload(0x00))\n      dup1\n      0x3a7d22bc\n      eq\n      tag_3\n      jumpi\n      dup1\n      0x988133fa\n      eq\n      tag_4\n      jumpi\n      dup1\n      0x9a5009ac\n      eq\n      tag_5\n      jumpi\n      dup1\n      0xd504ea1d\n      eq\n      tag_6\n      jumpi\n      dup1\n      0xdcabbd00\n      eq\n      tag_7\n      jumpi\n    tag_2:\n      0x00\n      dup1\n      revert\n        /* \"contracts/1.14.fixedarray.sol\":649:828  function getElement(uint256 index) public view returns (uint256) {... */\n    tag_3:\n      tag_8\n      0x04\n      dup1\n      calldatasize\n      sub\n      dup2\n      add\n      swap1\n      tag_9\n      swap2\n      swap1\n      tag_10\n      jump\t// in\n    tag_9:\n      tag_11\n      jump\t// in\n    tag_8:\n      mload(0x40)\n      tag_12\n      swap2\n      swap1\n      tag_13\n      jump\t// in\n    tag_12:\n      mload(0x40)\n      dup1\n      swap2\n      sub\n      swap1\n      return\n        /* \"contracts/1.14.fixedarray.sol\":1054:1229  function updateElement(uint256 index, uint256 value) public {... */\n    tag_4:\n      tag_14\n      0x04\n      dup1\n      calldatasize\n      sub\n      dup2\n      add\n      swap1\n      tag_15\n      swap2\n      swap1\n      tag_16\n      jump\t// in\n    tag_15:\n      tag_17\n      jump\t// in\n    tag_14:\n      stop\n        /* \"contracts/1.14.fixedarray.sol\":152:180  uint256[5] public fixedArray */\n    tag_5:\n      tag_18\n      0x04\n      dup1\n      calldatasize\n      sub\n      dup2\n      add\n      swap1\n      tag_19\n      swap2\n      swap1\n      tag_10\n      jump\t// in\n    tag_19:\n      tag_20\n      jump\t// in\n    tag_18:\n      mload(0x40)\n      tag_21\n      swap2\n      swap1\n      tag_13\n      jump\t// in\n    tag_21:\n      mload(0x40)\n      dup1\n      swap2\n      sub\n      swap1\n      return\n        /* \"contracts/1.14.fixedarray.sol\":885:979  function getArray() public view returns (uint256[5] memory) {... */\n    tag_6:\n      tag_22\n      tag_23\n      jump\t// in\n    tag_22:\n      mload(0x40)\n      tag_24\n      swap2\n      swap1\n      tag_25\n      jump\t// in\n    tag_24:\n      mload(0x40)\n      dup1\n      swap2\n      sub\n      swap1\n      return\n        /* \"contracts/1.14.fixedarray.sol\":245:575  function setArray(... */\n    tag_7:\n      tag_26\n      0x04\n      dup1\n      calldatasize\n      sub\n      dup2\n      add\n      swap1\n      tag_27\n      swap2\n      swap1\n      tag_28\n      jump\t// in\n    tag_27:\n      tag_29\n      jump\t// in\n    tag_26:\n      stop\n        /* \"contracts/1.14.fixedarray.sol\":649:828  function getElement(uint256 index) public view returns (uint256) {... */\n    tag_11:\n        /* \"contracts/1.14.fixedarray.sol\":705:712  uint256 */\n      0x00\n        /* \"contracts/1.14.fixedarray.sol\":740:741  5 */\n      0x05\n        /* \"contracts/1.14.fixedarray.sol\":732:737  index */\n      dup3\n        /* \"contracts/1.14.fixedarray.sol\":732:741  index < 5 */\n      lt\n        /* \"contracts/1.14.fixedarray.sol\":724:765  require(index < 5, \"Index out of bounds\") */\n      tag_31\n      jumpi\n      mload(0x40)\n      0x08c379a000000000000000000000000000000000000000000000000000000000\n      dup2\n      mstore\n      0x04\n      add\n      tag_32\n      swap1\n      tag_33\n      jump\t// in\n    tag_32:\n      mload(0x40)\n      dup1\n      swap2\n      sub\n      swap1\n      revert\n    tag_31:\n        /* \"contracts/1.14.fixedarray.sol\":804:814  fixedArray */\n      0x00\n        /* \"contracts/1.14.fixedarray.sol\":815:820  index */\n      dup3\n        /* \"contracts/1.14.fixedarray.sol\":804:821  fixedArray[index] */\n      0x05\n      dup2\n      lt\n      tag_34\n      jumpi\n      tag_35\n      tag_36\n      jump\t// in\n    tag_35:\n    tag_34:\n      add\n      sload\n        /* \"contracts/1.14.fixedarray.sol\":797:821  return fixedArray[index] */\n      swap1\n      pop\n        /* \"contracts/1.14.fixedarray.sol\":649:828  function getElement(uint256 index) public view returns (uint256) {... */\n      swap2\n      swap1\n      pop\n      jump\t// out\n        /* \"contracts/1.14.fixedarray.sol\":1054:1229  function updateElement(uint256 index, uint256 value) public {... */\n    tag_17:\n        /* \"contracts/1.14.fixedarray.sol\":1140:1141  5 */\n      0x05\n        /* \"contracts/1.14.fixedarray.sol\":1132:1137  index */\n      dup3\n        /* \"contracts/1.14.fixedarray.sol\":1132:1141  index < 5 */\n      lt\n        /* \"contracts/1.14.fixedarray.sol\":1124:1165  require(index < 5, \"Index out of bounds\") */\n      tag_39\n      jumpi\n      mload(0x40)\n      0x08c379a000000000000000000000000000000000000000000000000000000000\n      dup2\n      mstore\n      0x04\n      add\n      tag_40\n      swap1\n      tag_33\n      jump\t// in\n    tag_40:\n      mload(0x40)\n      dup1\n      swap2\n      sub\n      swap1\n      revert\n    tag_39:\n        /* \"contracts/1.14.fixedarray.sol\":1217:1222  value */\n      dup1\n        /* \"contracts/1.14.fixedarray.sol\":1197:1207  fixedArray */\n      0x00\n        /* \"contracts/1.14.fixedarray.sol\":1208:1213  index */\n      dup4\n        /* \"contracts/1.14.fixedarray.sol\":1197:1214  fixedArray[index] */\n      0x05\n      dup2\n      lt\n      tag_41\n      jumpi\n      tag_42\n      tag_36\n      jump\t// in\n    tag_42:\n    tag_41:\n      add\n        /* \"contracts/1.14.fixedarray.sol\":1197:1222  fixedArray[index] = value */\n      dup2\n      swap1\n      sstore\n      pop\n        /* \"contracts/1.14.fixedarray.sol\":1054:1229  function updateElement(uint256 index, uint256 value) public {... */\n      pop\n      pop\n      jump\t// out\n        /* \"contracts/1.14.fixedarray.sol\":152:180  uint256[5] public fixedArray */\n    tag_20:\n      0x00\n      dup2\n      0x05\n      dup2\n      lt\n      tag_44\n      jumpi\n      0x00\n      dup1\n      revert\n    tag_44:\n      add\n      0x00\n      swap2\n      pop\n      swap1\n      pop\n      sload\n      dup2\n      jump\t// out\n        /* \"contracts/1.14.fixedarray.sol\":885:979  function getArray() public view returns (uint256[5] memory) {... */\n    tag_23:\n        /* \"contracts/1.14.fixedarray.sol\":926:943  uint256[5] memory */\n      tag_46\n      tag_47\n      jump\t// in\n    tag_46:\n        /* \"contracts/1.14.fixedarray.sol\":962:972  fixedArray */\n      0x00\n        /* \"contracts/1.14.fixedarray.sol\":955:972  return fixedArray */\n      0x05\n      dup1\n      0x20\n      mul\n      mload(0x40)\n      swap1\n      dup2\n      add\n      0x40\n      mstore\n      dup1\n      swap3\n      swap2\n      swap1\n      dup3\n      0x05\n      dup1\n      iszero\n      tag_49\n      jumpi\n      0x20\n      mul\n      dup3\n      add\n      swap2\n    tag_50:\n      dup2\n      sload\n      dup2\n      mstore\n      0x20\n      add\n      swap1\n      0x01\n      add\n      swap1\n      dup1\n      dup4\n      gt\n      tag_50\n      jumpi\n    tag_49:\n      pop\n      pop\n      pop\n      pop\n      pop\n      swap1\n      pop\n        /* \"contracts/1.14.fixedarray.sol\":885:979  function getArray() public view returns (uint256[5] memory) {... */\n      swap1\n      jump\t// out\n        /* \"contracts/1.14.fixedarray.sol\":245:575  function setArray(... */\n    tag_29:\n        /* \"contracts/1.14.fixedarray.sol\":427:434  _array1 */\n      dup5\n        /* \"contracts/1.14.fixedarray.sol\":411:421  fixedArray */\n      0x00\n        /* \"contracts/1.14.fixedarray.sol\":422:423  0 */\n      dup1\n        /* \"contracts/1.14.fixedarray.sol\":411:424  fixedArray[0] */\n      0x05\n      dup2\n      lt\n      tag_52\n      jumpi\n      tag_53\n      tag_36\n      jump\t// in\n    tag_53:\n    tag_52:\n      add\n        /* \"contracts/1.14.fixedarray.sol\":411:434  fixedArray[0] = _array1 */\n      dup2\n      swap1\n      sstore\n      pop\n        /* \"contracts/1.14.fixedarray.sol\":460:467  _array2 */\n      dup4\n        /* \"contracts/1.14.fixedarray.sol\":444:454  fixedArray */\n      0x00\n        /* \"contracts/1.14.fixedarray.sol\":455:456  1 */\n      0x01\n        /* \"contracts/1.14.fixedarray.sol\":444:457  fixedArray[1] */\n      0x05\n      dup2\n      lt\n      tag_55\n      jumpi\n      tag_56\n      tag_36\n      jump\t// in\n    tag_56:\n    tag_55:\n      add\n        /* \"contracts/1.14.fixedarray.sol\":444:467  fixedArray[1] = _array2 */\n      dup2\n      swap1\n      sstore\n      pop\n        /* \"contracts/1.14.fixedarray.sol\":494:501  _array3 */\n      dup3\n        /* \"contracts/1.14.fixedarray.sol\":478:488  fixedArray */\n      0x00\n        /* \"contracts/1.14.fixedarray.sol\":489:490  2 */\n      0x02\n        /* \"contracts/1.14.fixedarray.sol\":478:491  fixedArray[2] */\n      0x05\n      dup2\n      lt\n      tag_58\n      jumpi\n      tag_59\n      tag_36\n      jump\t// in\n    tag_59:\n    tag_58:\n      add\n        /* \"contracts/1.14.fixedarray.sol\":478:501  fixedArray[2] = _array3 */\n      dup2\n      swap1\n      sstore\n      pop\n        /* \"contracts/1.14.fixedarray.sol\":527:534  _array4 */\n      dup2\n        /* \"contracts/1.14.fixedarray.sol\":511:521  fixedArray */\n      0x00\n        /* \"contracts/1.14.fixedarray.sol\":522:523  3 */\n      0x03\n        /* \"contracts/1.14.fixedarray.sol\":511:524  fixedArray[3] */\n      0x05\n      dup2\n      lt\n      tag_61\n      jumpi\n      tag_62\n      tag_36\n      jump\t// in\n    tag_62:\n    tag_61:\n      add\n        /* \"contracts/1.14.fixedarray.sol\":511:534  fixedArray[3] = _array4 */\n      dup2\n      swap1\n      sstore\n      pop\n        /* \"contracts/1.14.fixedarray.sol\":561:568  _array5 */\n      dup1\n        /* \"contracts/1.14.fixedarray.sol\":545:555  fixedArray */\n      0x00\n        /* \"contracts/1.14.fixedarray.sol\":556:557  4 */\n      0x04\n        /* \"contracts/1.14.fixedarray.sol\":545:558  fixedArray[4] */\n      0x05\n      dup2\n      lt\n      tag_64\n      jumpi\n      tag_65\n      tag_36\n      jump\t// in\n    tag_65:\n    tag_64:\n      add\n        /* \"contracts/1.14.fixedarray.sol\":545:568  fixedArray[4] = _array5 */\n      dup2\n      swap1\n      sstore\n      pop\n        /* \"contracts/1.14.fixedarray.sol\":245:575  function setArray(... */\n      pop\n      pop\n      pop\n      pop\n      pop\n      jump\t// out\n    tag_47:\n      mload(0x40)\n      dup1\n      0xa0\n      add\n      0x40\n      mstore\n      dup1\n      0x05\n      swap1\n      0x20\n      dup3\n      mul\n      dup1\n      calldatasize\n      dup4\n      calldatacopy\n      dup1\n      dup3\n      add\n      swap2\n      pop\n      pop\n      swap1\n      pop\n      pop\n      swap1\n      jump\t// out\n        /* \"#utility.yul\":88:205   */\n    tag_68:\n        /* \"#utility.yul\":197:198   */\n      0x00\n        /* \"#utility.yul\":194:195   */\n      dup1\n        /* \"#utility.yul\":187:199   */\n      revert\n        /* \"#utility.yul\":334:411   */\n    tag_70:\n        /* \"#utility.yul\":371:378   */\n      0x00\n        /* \"#utility.yul\":400:405   */\n      dup2\n        /* \"#utility.yul\":389:405   */\n      swap1\n      pop\n        /* \"#utility.yul\":334:411   */\n      swap2\n      swap1\n      pop\n      jump\t// out\n        /* \"#utility.yul\":417:539   */\n    tag_71:\n        /* \"#utility.yul\":490:514   */\n      tag_90\n        /* \"#utility.yul\":508:513   */\n      dup2\n        /* \"#utility.yul\":490:514   */\n      tag_70\n      jump\t// in\n    tag_90:\n        /* \"#utility.yul\":483:488   */\n      dup2\n        /* \"#utility.yul\":480:515   */\n      eq\n        /* \"#utility.yul\":470:533   */\n      tag_91\n      jumpi\n        /* \"#utility.yul\":529:530   */\n      0x00\n        /* \"#utility.yul\":526:527   */\n      dup1\n        /* \"#utility.yul\":519:531   */\n      revert\n        /* \"#utility.yul\":470:533   */\n    tag_91:\n        /* \"#utility.yul\":417:539   */\n      pop\n      jump\t// out\n        /* \"#utility.yul\":545:684   */\n    tag_72:\n        /* \"#utility.yul\":591:596   */\n      0x00\n        /* \"#utility.yul\":629:635   */\n      dup2\n        /* \"#utility.yul\":616:636   */\n      calldataload\n        /* \"#utility.yul\":607:636   */\n      swap1\n      pop\n        /* \"#utility.yul\":645:678   */\n      tag_93\n        /* \"#utility.yul\":672:677   */\n      dup2\n        /* \"#utility.yul\":645:678   */\n      tag_71\n      jump\t// in\n    tag_93:\n        /* \"#utility.yul\":545:684   */\n      swap3\n      swap2\n      pop\n      pop\n      jump\t// out\n        /* \"#utility.yul\":690:1019   */\n    tag_10:\n        /* \"#utility.yul\":749:755   */\n      0x00\n        /* \"#utility.yul\":798:800   */\n      0x20\n        /* \"#utility.yul\":786:795   */\n      dup3\n        /* \"#utility.yul\":777:784   */\n      dup5\n        /* \"#utility.yul\":773:796   */\n      sub\n        /* \"#utility.yul\":769:801   */\n      slt\n        /* \"#utility.yul\":766:885   */\n      iszero\n      tag_95\n      jumpi\n        /* \"#utility.yul\":804:883   */\n      tag_96\n      tag_68\n      jump\t// in\n    tag_96:\n        /* \"#utility.yul\":766:885   */\n    tag_95:\n        /* \"#utility.yul\":924:925   */\n      0x00\n        /* \"#utility.yul\":949:1002   */\n      tag_97\n        /* \"#utility.yul\":994:1001   */\n      dup5\n        /* \"#utility.yul\":985:991   */\n      dup3\n        /* \"#utility.yul\":974:983   */\n      dup6\n        /* \"#utility.yul\":970:992   */\n      add\n        /* \"#utility.yul\":949:1002   */\n      tag_72\n      jump\t// in\n    tag_97:\n        /* \"#utility.yul\":939:1002   */\n      swap2\n      pop\n        /* \"#utility.yul\":895:1012   */\n      pop\n        /* \"#utility.yul\":690:1019   */\n      swap3\n      swap2\n      pop\n      pop\n      jump\t// out\n        /* \"#utility.yul\":1025:1143   */\n    tag_73:\n        /* \"#utility.yul\":1112:1136   */\n      tag_99\n        /* \"#utility.yul\":1130:1135   */\n      dup2\n        /* \"#utility.yul\":1112:1136   */\n      tag_70\n      jump\t// in\n    tag_99:\n        /* \"#utility.yul\":1107:1110   */\n      dup3\n        /* \"#utility.yul\":1100:1137   */\n      mstore\n        /* \"#utility.yul\":1025:1143   */\n      pop\n      pop\n      jump\t// out\n        /* \"#utility.yul\":1149:1371   */\n    tag_13:\n        /* \"#utility.yul\":1242:1246   */\n      0x00\n        /* \"#utility.yul\":1280:1282   */\n      0x20\n        /* \"#utility.yul\":1269:1278   */\n      dup3\n        /* \"#utility.yul\":1265:1283   */\n      add\n        /* \"#utility.yul\":1257:1283   */\n      swap1\n      pop\n        /* \"#utility.yul\":1293:1364   */\n      tag_101\n        /* \"#utility.yul\":1361:1362   */\n      0x00\n        /* \"#utility.yul\":1350:1359   */\n      dup4\n        /* \"#utility.yul\":1346:1363   */\n      add\n        /* \"#utility.yul\":1337:1343   */\n      dup5\n        /* \"#utility.yul\":1293:1364   */\n      tag_73\n      jump\t// in\n    tag_101:\n        /* \"#utility.yul\":1149:1371   */\n      swap3\n      swap2\n      pop\n      pop\n      jump\t// out\n        /* \"#utility.yul\":1377:1851   */\n    tag_16:\n        /* \"#utility.yul\":1445:1451   */\n      0x00\n        /* \"#utility.yul\":1453:1459   */\n      dup1\n        /* \"#utility.yul\":1502:1504   */\n      0x40\n        /* \"#utility.yul\":1490:1499   */\n      dup4\n        /* \"#utility.yul\":1481:1488   */\n      dup6\n        /* \"#utility.yul\":1477:1500   */\n      sub\n        /* \"#utility.yul\":1473:1505   */\n      slt\n        /* \"#utility.yul\":1470:1589   */\n      iszero\n      tag_103\n      jumpi\n        /* \"#utility.yul\":1508:1587   */\n      tag_104\n      tag_68\n      jump\t// in\n    tag_104:\n        /* \"#utility.yul\":1470:1589   */\n    tag_103:\n        /* \"#utility.yul\":1628:1629   */\n      0x00\n        /* \"#utility.yul\":1653:1706   */\n      tag_105\n        /* \"#utility.yul\":1698:1705   */\n      dup6\n        /* \"#utility.yul\":1689:1695   */\n      dup3\n        /* \"#utility.yul\":1678:1687   */\n      dup7\n        /* \"#utility.yul\":1674:1696   */\n      add\n        /* \"#utility.yul\":1653:1706   */\n      tag_72\n      jump\t// in\n    tag_105:\n        /* \"#utility.yul\":1643:1706   */\n      swap3\n      pop\n        /* \"#utility.yul\":1599:1716   */\n      pop\n        /* \"#utility.yul\":1755:1757   */\n      0x20\n        /* \"#utility.yul\":1781:1834   */\n      tag_106\n        /* \"#utility.yul\":1826:1833   */\n      dup6\n        /* \"#utility.yul\":1817:1823   */\n      dup3\n        /* \"#utility.yul\":1806:1815   */\n      dup7\n        /* \"#utility.yul\":1802:1824   */\n      add\n        /* \"#utility.yul\":1781:1834   */\n      tag_72\n      jump\t// in\n    tag_106:\n        /* \"#utility.yul\":1771:1834   */\n      swap2\n      pop\n        /* \"#utility.yul\":1726:1844   */\n      pop\n        /* \"#utility.yul\":1377:1851   */\n      swap3\n      pop\n      swap3\n      swap1\n      pop\n      jump\t// out\n        /* \"#utility.yul\":1857:1961   */\n    tag_74:\n        /* \"#utility.yul\":1922:1928   */\n      0x00\n        /* \"#utility.yul\":1950:1954   */\n      0x05\n        /* \"#utility.yul\":1940:1954   */\n      swap1\n      pop\n        /* \"#utility.yul\":1857:1961   */\n      swap2\n      swap1\n      pop\n      jump\t// out\n        /* \"#utility.yul\":1967:2110   */\n    tag_75:\n        /* \"#utility.yul\":2064:2075   */\n      0x00\n        /* \"#utility.yul\":2101:2104   */\n      dup2\n        /* \"#utility.yul\":2086:2104   */\n      swap1\n      pop\n        /* \"#utility.yul\":1967:2110   */\n      swap3\n      swap2\n      pop\n      pop\n      jump\t// out\n        /* \"#utility.yul\":2116:2214   */\n    tag_76:\n        /* \"#utility.yul\":2181:2185   */\n      0x00\n        /* \"#utility.yul\":2204:2207   */\n      dup2\n        /* \"#utility.yul\":2196:2207   */\n      swap1\n      pop\n        /* \"#utility.yul\":2116:2214   */\n      swap2\n      swap1\n      pop\n      jump\t// out\n        /* \"#utility.yul\":2220:2328   */\n    tag_77:\n        /* \"#utility.yul\":2297:2321   */\n      tag_111\n        /* \"#utility.yul\":2315:2320   */\n      dup2\n        /* \"#utility.yul\":2297:2321   */\n      tag_70\n      jump\t// in\n    tag_111:\n        /* \"#utility.yul\":2292:2295   */\n      dup3\n        /* \"#utility.yul\":2285:2322   */\n      mstore\n        /* \"#utility.yul\":2220:2328   */\n      pop\n      pop\n      jump\t// out\n        /* \"#utility.yul\":2334:2513   */\n    tag_78:\n        /* \"#utility.yul\":2403:2413   */\n      0x00\n        /* \"#utility.yul\":2424:2470   */\n      tag_113\n        /* \"#utility.yul\":2466:2469   */\n      dup4\n        /* \"#utility.yul\":2458:2464   */\n      dup4\n        /* \"#utility.yul\":2424:2470   */\n      tag_77\n      jump\t// in\n    tag_113:\n        /* \"#utility.yul\":2502:2506   */\n      0x20\n        /* \"#utility.yul\":2497:2500   */\n      dup4\n        /* \"#utility.yul\":2493:2507   */\n      add\n        /* \"#utility.yul\":2479:2507   */\n      swap1\n      pop\n        /* \"#utility.yul\":2334:2513   */\n      swap3\n      swap2\n      pop\n      pop\n      jump\t// out\n        /* \"#utility.yul\":2519:2630   */\n    tag_79:\n        /* \"#utility.yul\":2587:2591   */\n      0x00\n        /* \"#utility.yul\":2619:2623   */\n      0x20\n        /* \"#utility.yul\":2614:2617   */\n      dup3\n        /* \"#utility.yul\":2610:2624   */\n      add\n        /* \"#utility.yul\":2602:2624   */\n      swap1\n      pop\n        /* \"#utility.yul\":2519:2630   */\n      swap2\n      swap1\n      pop\n      jump\t// out\n        /* \"#utility.yul\":2668:3362   */\n    tag_80:\n        /* \"#utility.yul\":2804:2856   */\n      tag_116\n        /* \"#utility.yul\":2850:2855   */\n      dup2\n        /* \"#utility.yul\":2804:2856   */\n      tag_74\n      jump\t// in\n    tag_116:\n        /* \"#utility.yul\":2872:2956   */\n      tag_117\n        /* \"#utility.yul\":2949:2955   */\n      dup2\n        /* \"#utility.yul\":2944:2947   */\n      dup5\n        /* \"#utility.yul\":2872:2956   */\n      tag_75\n      jump\t// in\n    tag_117:\n        /* \"#utility.yul\":2865:2956   */\n      swap3\n      pop\n        /* \"#utility.yul\":2980:3034   */\n      tag_118\n        /* \"#utility.yul\":3028:3033   */\n      dup3\n        /* \"#utility.yul\":2980:3034   */\n      tag_76\n      jump\t// in\n    tag_118:\n        /* \"#utility.yul\":3057:3064   */\n      dup1\n        /* \"#utility.yul\":3088:3089   */\n      0x00\n        /* \"#utility.yul\":3073:3355   */\n    tag_119:\n        /* \"#utility.yul\":3098:3104   */\n      dup4\n        /* \"#utility.yul\":3095:3096   */\n      dup2\n        /* \"#utility.yul\":3092:3105   */\n      lt\n        /* \"#utility.yul\":3073:3355   */\n      iszero\n      tag_121\n      jumpi\n        /* \"#utility.yul\":3174:3180   */\n      dup2\n        /* \"#utility.yul\":3168:3181   */\n      mload\n        /* \"#utility.yul\":3201:3264   */\n      tag_122\n        /* \"#utility.yul\":3260:3263   */\n      dup8\n        /* \"#utility.yul\":3245:3258   */\n      dup3\n        /* \"#utility.yul\":3201:3264   */\n      tag_78\n      jump\t// in\n    tag_122:\n        /* \"#utility.yul\":3194:3264   */\n      swap7\n      pop\n        /* \"#utility.yul\":3287:3345   */\n      tag_123\n        /* \"#utility.yul\":3338:3344   */\n      dup4\n        /* \"#utility.yul\":3287:3345   */\n      tag_79\n      jump\t// in\n    tag_123:\n        /* \"#utility.yul\":3277:3345   */\n      swap3\n      pop\n        /* \"#utility.yul\":3133:3355   */\n      pop\n        /* \"#utility.yul\":3120:3121   */\n      0x01\n        /* \"#utility.yul\":3117:3118   */\n      dup2\n        /* \"#utility.yul\":3113:3122   */\n      add\n        /* \"#utility.yul\":3108:3122   */\n      swap1\n      pop\n        /* \"#utility.yul\":3073:3355   */\n      jump(tag_119)\n    tag_121:\n        /* \"#utility.yul\":3077:3091   */\n      pop\n        /* \"#utility.yul\":2780:3362   */\n      pop\n      pop\n      pop\n        /* \"#utility.yul\":2668:3362   */\n      pop\n      pop\n      jump\t// out\n        /* \"#utility.yul\":3368:3683   */\n    tag_25:\n        /* \"#utility.yul\":3507:3511   */\n      0x00\n        /* \"#utility.yul\":3545:3548   */\n      0xa0\n        /* \"#utility.yul\":3534:3543   */\n      dup3\n        /* \"#utility.yul\":3530:3549   */\n      add\n        /* \"#utility.yul\":3522:3549   */\n      swap1\n      pop\n        /* \"#utility.yul\":3559:3676   */\n      tag_125\n        /* \"#utility.yul\":3673:3674   */\n      0x00\n        /* \"#utility.yul\":3662:3671   */\n      dup4\n        /* \"#utility.yul\":3658:3675   */\n      add\n        /* \"#utility.yul\":3649:3655   */\n      dup5\n        /* \"#utility.yul\":3559:3676   */\n      tag_80\n      jump\t// in\n    tag_125:\n        /* \"#utility.yul\":3368:3683   */\n      swap3\n      swap2\n      pop\n      pop\n      jump\t// out\n        /* \"#utility.yul\":3689:4600   */\n    tag_28:\n        /* \"#utility.yul\":3784:3790   */\n      0x00\n        /* \"#utility.yul\":3792:3798   */\n      dup1\n        /* \"#utility.yul\":3800:3806   */\n      0x00\n        /* \"#utility.yul\":3808:3814   */\n      dup1\n        /* \"#utility.yul\":3816:3822   */\n      0x00\n        /* \"#utility.yul\":3865:3868   */\n      0xa0\n        /* \"#utility.yul\":3853:3862   */\n      dup7\n        /* \"#utility.yul\":3844:3851   */\n      dup9\n        /* \"#utility.yul\":3840:3863   */\n      sub\n        /* \"#utility.yul\":3836:3869   */\n      slt\n        /* \"#utility.yul\":3833:3953   */\n      iszero\n      tag_127\n      jumpi\n        /* \"#utility.yul\":3872:3951   */\n      tag_128\n      tag_68\n      jump\t// in\n    tag_128:\n        /* \"#utility.yul\":3833:3953   */\n    tag_127:\n        /* \"#utility.yul\":3992:3993   */\n      0x00\n        /* \"#utility.yul\":4017:4070   */\n      tag_129\n        /* \"#utility.yul\":4062:4069   */\n      dup9\n        /* \"#utility.yul\":4053:4059   */\n      dup3\n        /* \"#utility.yul\":4042:4051   */\n      dup10\n        /* \"#utility.yul\":4038:4060   */\n      add\n        /* \"#utility.yul\":4017:4070   */\n      tag_72\n      jump\t// in\n    tag_129:\n        /* \"#utility.yul\":4007:4070   */\n      swap6\n      pop\n        /* \"#utility.yul\":3963:4080   */\n      pop\n        /* \"#utility.yul\":4119:4121   */\n      0x20\n        /* \"#utility.yul\":4145:4198   */\n      tag_130\n        /* \"#utility.yul\":4190:4197   */\n      dup9\n        /* \"#utility.yul\":4181:4187   */\n      dup3\n        /* \"#utility.yul\":4170:4179   */\n      dup10\n        /* \"#utility.yul\":4166:4188   */\n      add\n        /* \"#utility.yul\":4145:4198   */\n      tag_72\n      jump\t// in\n    tag_130:\n        /* \"#utility.yul\":4135:4198   */\n      swap5\n      pop\n        /* \"#utility.yul\":4090:4208   */\n      pop\n        /* \"#utility.yul\":4247:4249   */\n      0x40\n        /* \"#utility.yul\":4273:4326   */\n      tag_131\n        /* \"#utility.yul\":4318:4325   */\n      dup9\n        /* \"#utility.yul\":4309:4315   */\n      dup3\n        /* \"#utility.yul\":4298:4307   */\n      dup10\n        /* \"#utility.yul\":4294:4316   */\n      add\n        /* \"#utility.yul\":4273:4326   */\n      tag_72\n      jump\t// in\n    tag_131:\n        /* \"#utility.yul\":4263:4326   */\n      swap4\n      pop\n        /* \"#utility.yul\":4218:4336   */\n      pop\n        /* \"#utility.yul\":4375:4377   */\n      0x60\n        /* \"#utility.yul\":4401:4454   */\n      tag_132\n        /* \"#utility.yul\":4446:4453   */\n      dup9\n        /* \"#utility.yul\":4437:4443   */\n      dup3\n        /* \"#utility.yul\":4426:4435   */\n      dup10\n        /* \"#utility.yul\":4422:4444   */\n      add\n        /* \"#utility.yul\":4401:4454   */\n      tag_72\n      jump\t// in\n    tag_132:\n        /* \"#utility.yul\":4391:4454   */\n      swap3\n      pop\n        /* \"#utility.yul\":4346:4464   */\n      pop\n        /* \"#utility.yul\":4503:4506   */\n      0x80\n        /* \"#utility.yul\":4530:4583   */\n      tag_133\n        /* \"#utility.yul\":4575:4582   */\n      dup9\n        /* \"#utility.yul\":4566:4572   */\n      dup3\n        /* \"#utility.yul\":4555:4564   */\n      dup10\n        /* \"#utility.yul\":4551:4573   */\n      add\n        /* \"#utility.yul\":4530:4583   */\n      tag_72\n      jump\t// in\n    tag_133:\n        /* \"#utility.yul\":4520:4583   */\n      swap2\n      pop\n        /* \"#utility.yul\":4474:4593   */\n      pop\n        /* \"#utility.yul\":3689:4600   */\n      swap3\n      swap6\n      pop\n      swap3\n      swap6\n      swap1\n      swap4\n      pop\n      jump\t// out\n        /* \"#utility.yul\":4606:4775   */\n    tag_81:\n        /* \"#utility.yul\":4690:4701   */\n      0x00\n        /* \"#utility.yul\":4724:4730   */\n      dup3\n        /* \"#utility.yul\":4719:4722   */\n      dup3\n        /* \"#utility.yul\":4712:4731   */\n      mstore\n        /* \"#utility.yul\":4764:4768   */\n      0x20\n        /* \"#utility.yul\":4759:4762   */\n      dup3\n        /* \"#utility.yul\":4755:4769   */\n      add\n        /* \"#utility.yul\":4740:4769   */\n      swap1\n      pop\n        /* \"#utility.yul\":4606:4775   */\n      swap3\n      swap2\n      pop\n      pop\n      jump\t// out\n        /* \"#utility.yul\":4781:4950   */\n    tag_82:\n        /* \"#utility.yul\":4921:4942   */\n      0x496e646578206f7574206f6620626f756e647300000000000000000000000000\n        /* \"#utility.yul\":4917:4918   */\n      0x00\n        /* \"#utility.yul\":4909:4915   */\n      dup3\n        /* \"#utility.yul\":4905:4919   */\n      add\n        /* \"#utility.yul\":4898:4943   */\n      mstore\n        /* \"#utility.yul\":4781:4950   */\n      pop\n      jump\t// out\n        /* \"#utility.yul\":4956:5322   */\n    tag_83:\n        /* \"#utility.yul\":5098:5101   */\n      0x00\n        /* \"#utility.yul\":5119:5186   */\n      tag_137\n        /* \"#utility.yul\":5183:5185   */\n      0x13\n        /* \"#utility.yul\":5178:5181   */\n      dup4\n        /* \"#utility.yul\":5119:5186   */\n      tag_81\n      jump\t// in\n    tag_137:\n        /* \"#utility.yul\":5112:5186   */\n      swap2\n      pop\n        /* \"#utility.yul\":5195:5288   */\n      tag_138\n        /* \"#utility.yul\":5284:5287   */\n      dup3\n        /* \"#utility.yul\":5195:5288   */\n      tag_82\n      jump\t// in\n    tag_138:\n        /* \"#utility.yul\":5313:5315   */\n      0x20\n        /* \"#utility.yul\":5308:5311   */\n      dup3\n        /* \"#utility.yul\":5304:5316   */\n      add\n        /* \"#utility.yul\":5297:5316   */\n      swap1\n      pop\n        /* \"#utility.yul\":4956:5322   */\n      swap2\n      swap1\n      pop\n      jump\t// out\n        /* \"#utility.yul\":5328:5747   */\n    tag_33:\n        /* \"#utility.yul\":5494:5498   */\n      0x00\n        /* \"#utility.yul\":5532:5534   */\n      0x20\n        /* \"#utility.yul\":5521:5530   */\n      dup3\n        /* \"#utility.yul\":5517:5535   */\n      add\n        /* \"#utility.yul\":5509:5535   */\n      swap1\n      pop\n        /* \"#utility.yul\":5581:5590   */\n      dup2\n        /* \"#utility.yul\":5575:5579   */\n      dup2\n        /* \"#utility.yul\":5571:5591   */\n      sub\n        /* \"#utility.yul\":5567:5568   */\n      0x00\n        /* \"#utility.yul\":5556:5565   */\n      dup4\n        /* \"#utility.yul\":5552:5569   */\n      add\n        /* \"#utility.yul\":5545:5592   */\n      mstore\n        /* \"#utility.yul\":5609:5740   */\n      tag_140\n        /* \"#utility.yul\":5735:5739   */\n      dup2\n        /* \"#utility.yul\":5609:5740   */\n      tag_83\n      jump\t// in\n    tag_140:\n        /* \"#utility.yul\":5601:5740   */\n      swap1\n      pop\n        /* \"#utility.yul\":5328:5747   */\n      swap2\n      swap1\n      pop\n      jump\t// out\n        /* \"#utility.yul\":5753:5933   */\n    tag_36:\n        /* \"#utility.yul\":5801:5878   */\n      0x4e487b7100000000000000000000000000000000000000000000000000000000\n        /* \"#utility.yul\":5798:5799   */\n      0x00\n        /* \"#utility.yul\":5791:5879   */\n      mstore\n        /* \"#utility.yul\":5898:5902   */\n      0x32\n        /* \"#utility.yul\":5895:5896   */\n      0x04\n        /* \"#utility.yul\":5888:5903   */\n      mstore\n        /* \"#utility.yul\":5922:5926   */\n      0x24\n        /* \"#utility.yul\":5919:5920   */\n      0x00\n        /* \"#utility.yul\":5912:5927   */\n      revert\n\n    auxdata: 0xa26469706673582212205ce13abee32807204371ec322ccfca6027b1d6b2024daf4721477102dc374ec264736f6c634300081a0033\n}\n",
				"bytecode": {
					"linkReferences": {},
					"object": "6080604052348015600e575f80fd5b506105b38061001c5f395ff3fe608060405234801561000f575f80fd5b5060043610610055575f3560e01c80633a7d22bc14610059578063988133fa146100895780639a5009ac146100a5578063d504ea1d146100d5578063dcabbd00146100f3575b5f80fd5b610073600480360381019061006e9190610312565b61010f565b604051610080919061034c565b60405180910390f35b6100a3600480360381019061009e9190610365565b61016f565b005b6100bf60048036038101906100ba9190610312565b6101cf565b6040516100cc919061034c565b60405180910390f35b6100dd6101e7565b6040516100ea9190610448565b60405180910390f35b61010d60048036038101906101089190610461565b610231565b005b5f60058210610153576040517f08c379a000000000000000000000000000000000000000000000000000000000815260040161014a90610532565b60405180910390fd5b5f826005811061016657610165610550565b5b01549050919050565b600582106101b2576040517f08c379a00000000000000000000000000000000000000000000000000000000081526004016101a990610532565b60405180910390fd5b805f83600581106101c6576101c5610550565b5b01819055505050565b5f81600581106101dd575f80fd5b015f915090505481565b6101ef6102b9565b5f600580602002604051908101604052809291908260058015610227576020028201915b815481526020019060010190808311610213575b5050505050905090565b845f806005811061024557610244610550565b5b0181905550835f60016005811061025f5761025e610550565b5b0181905550825f60026005811061027957610278610550565b5b0181905550815f60036005811061029357610292610550565b5b0181905550805f6004600581106102ad576102ac610550565b5b01819055505050505050565b6040518060a00160405280600590602082028036833780820191505090505090565b5f80fd5b5f819050919050565b6102f1816102df565b81146102fb575f80fd5b50565b5f8135905061030c816102e8565b92915050565b5f60208284031215610327576103266102db565b5b5f610334848285016102fe565b91505092915050565b610346816102df565b82525050565b5f60208201905061035f5f83018461033d565b92915050565b5f806040838503121561037b5761037a6102db565b5b5f610388858286016102fe565b9250506020610399858286016102fe565b9150509250929050565b5f60059050919050565b5f81905092915050565b5f819050919050565b6103c9816102df565b82525050565b5f6103da83836103c0565b60208301905092915050565b5f602082019050919050565b6103fb816103a3565b61040581846103ad565b9250610410826103b7565b805f5b8381101561044057815161042787826103cf565b9650610432836103e6565b925050600181019050610413565b505050505050565b5f60a08201905061045b5f8301846103f2565b92915050565b5f805f805f60a0868803121561047a576104796102db565b5b5f610487888289016102fe565b9550506020610498888289016102fe565b94505060406104a9888289016102fe565b93505060606104ba888289016102fe565b92505060806104cb888289016102fe565b9150509295509295909350565b5f82825260208201905092915050565b7f496e646578206f7574206f6620626f756e6473000000000000000000000000005f82015250565b5f61051c6013836104d8565b9150610527826104e8565b602082019050919050565b5f6020820190508181035f83015261054981610510565b9050919050565b7f4e487b71000000000000000000000000000000000000000000000000000000005f52603260045260245ffdfea26469706673582212205ce13abee32807204371ec322ccfca6027b1d6b2024daf4721477102dc374ec264736f6c634300081a0033",
					"opcodes": "PUSH1 0x80 PUSH1 0x40 MSTORE CALLVALUE DUP1 ISZERO PUSH1 0xE JUMPI PUSH0 DUP1 REVERT JUMPDEST POP PUSH2 0x5B3 DUP1 PUSH2 0x1C PUSH0 CODECOPY PUSH0 RETURN INVALID PUSH1 0x80 PUSH1 0x40 MSTORE CALLVALUE DUP1 ISZERO PUSH2 0xF JUMPI PUSH0 DUP1 REVERT JUMPDEST POP PUSH1 0x4 CALLDATASIZE LT PUSH2 0x55 JUMPI PUSH0 CALLDATALOAD PUSH1 0xE0 SHR DUP1 PUSH4 0x3A7D22BC EQ PUSH2 0x59 JUMPI DUP1 PUSH4 0x988133FA EQ PUSH2 0x89 JUMPI DUP1 PUSH4 0x9A5009AC EQ PUSH2 0xA5 JUMPI DUP1 PUSH4 0xD504EA1D EQ PUSH2 0xD5 JUMPI DUP1 PUSH4 0xDCABBD00 EQ PUSH2 0xF3 JUMPI JUMPDEST PUSH0 DUP1 REVERT JUMPDEST PUSH2 0x73 PUSH1 0x4 DUP1 CALLDATASIZE SUB DUP2 ADD SWAP1 PUSH2 0x6E SWAP2 SWAP1 PUSH2 0x312 JUMP JUMPDEST PUSH2 0x10F JUMP JUMPDEST PUSH1 0x40 MLOAD PUSH2 0x80 SWAP2 SWAP1 PUSH2 0x34C JUMP JUMPDEST PUSH1 0x40 MLOAD DUP1 SWAP2 SUB SWAP1 RETURN JUMPDEST PUSH2 0xA3 PUSH1 0x4 DUP1 CALLDATASIZE SUB DUP2 ADD SWAP1 PUSH2 0x9E SWAP2 SWAP1 PUSH2 0x365 JUMP JUMPDEST PUSH2 0x16F JUMP JUMPDEST STOP JUMPDEST PUSH2 0xBF PUSH1 0x4 DUP1 CALLDATASIZE SUB DUP2 ADD SWAP1 PUSH2 0xBA SWAP2 SWAP1 PUSH2 0x312 JUMP JUMPDEST PUSH2 0x1CF JUMP JUMPDEST PUSH1 0x40 MLOAD PUSH2 0xCC SWAP2 SWAP1 PUSH2 0x34C JUMP JUMPDEST PUSH1 0x40 MLOAD DUP1 SWAP2 SUB SWAP1 RETURN JUMPDEST PUSH2 0xDD PUSH2 0x1E7 JUMP JUMPDEST PUSH1 0x40 MLOAD PUSH2 0xEA SWAP2 SWAP1 PUSH2 0x448 JUMP JUMPDEST PUSH1 0x40 MLOAD DUP1 SWAP2 SUB SWAP1 RETURN JUMPDEST PUSH2 0x10D PUSH1 0x4 DUP1 CALLDATASIZE SUB DUP2 ADD SWAP1 PUSH2 0x108 SWAP2 SWAP1 PUSH2 0x461 JUMP JUMPDEST PUSH2 0x231 JUMP JUMPDEST STOP JUMPDEST PUSH0 PUSH1 0x5 DUP3 LT PUSH2 0x153 JUMPI PUSH1 0x40 MLOAD PUSH32 0x8C379A000000000000000000000000000000000000000000000000000000000 DUP2 MSTORE PUSH1 0x4 ADD PUSH2 0x14A SWAP1 PUSH2 0x532 JUMP JUMPDEST PUSH1 0x40 MLOAD DUP1 SWAP2 SUB SWAP1 REVERT JUMPDEST PUSH0 DUP3 PUSH1 0x5 DUP2 LT PUSH2 0x166 JUMPI PUSH2 0x165 PUSH2 0x550 JUMP JUMPDEST JUMPDEST ADD SLOAD SWAP1 POP SWAP2 SWAP1 POP JUMP JUMPDEST PUSH1 0x5 DUP3 LT PUSH2 0x1B2 JUMPI PUSH1 0x40 MLOAD PUSH32 0x8C379A000000000000000000000000000000000000000000000000000000000 DUP2 MSTORE PUSH1 0x4 ADD PUSH2 0x1A9 SWAP1 PUSH2 0x532 JUMP JUMPDEST PUSH1 0x40 MLOAD DUP1 SWAP2 SUB SWAP1 REVERT JUMPDEST DUP1 PUSH0 DUP4 PUSH1 0x5 DUP2 LT PUSH2 0x1C6 JUMPI PUSH2 0x1C5 PUSH2 0x550 JUMP JUMPDEST JUMPDEST ADD DUP2 SWAP1 SSTORE POP POP POP JUMP JUMPDEST PUSH0 DUP2 PUSH1 0x5 DUP2 LT PUSH2 0x1DD JUMPI PUSH0 DUP1 REVERT JUMPDEST ADD PUSH0 SWAP2 POP SWAP1 POP SLOAD DUP2 JUMP JUMPDEST PUSH2 0x1EF PUSH2 0x2B9 JUMP JUMPDEST PUSH0 PUSH1 0x5 DUP1 PUSH1 0x20 MUL PUSH1 0x40 MLOAD SWAP1 DUP2 ADD PUSH1 0x40 MSTORE DUP1 SWAP3 SWAP2 SWAP1 DUP3 PUSH1 0x5 DUP1 ISZERO PUSH2 0x227 JUMPI PUSH1 0x20 MUL DUP3 ADD SWAP2 JUMPDEST DUP2 SLOAD DUP2 MSTORE PUSH1 0x20 ADD SWAP1 PUSH1 0x1 ADD SWAP1 DUP1 DUP4 GT PUSH2 0x213 JUMPI JUMPDEST POP POP POP POP POP SWAP1 POP SWAP1 JUMP JUMPDEST DUP5 PUSH0 DUP1 PUSH1 0x5 DUP2 LT PUSH2 0x245 JUMPI PUSH2 0x244 PUSH2 0x550 JUMP JUMPDEST JUMPDEST ADD DUP2 SWAP1 SSTORE POP DUP4 PUSH0 PUSH1 0x1 PUSH1 0x5 DUP2 LT PUSH2 0x25F JUMPI PUSH2 0x25E PUSH2 0x550 JUMP JUMPDEST JUMPDEST ADD DUP2 SWAP1 SSTORE POP DUP3 PUSH0 PUSH1 0x2 PUSH1 0x5 DUP2 LT PUSH2 0x279 JUMPI PUSH2 0x278 PUSH2 0x550 JUMP JUMPDEST JUMPDEST ADD DUP2 SWAP1 SSTORE POP DUP2 PUSH0 PUSH1 0x3 PUSH1 0x5 DUP2 LT PUSH2 0x293 JUMPI PUSH2 0x292 PUSH2 0x550 JUMP JUMPDEST JUMPDEST ADD DUP2 SWAP1 SSTORE POP DUP1 PUSH0 PUSH1 0x4 PUSH1 0x5 DUP2 LT PUSH2 0x2AD JUMPI PUSH2 0x2AC PUSH2 0x550 JUMP JUMPDEST JUMPDEST ADD DUP2 SWAP1 SSTORE POP POP POP POP POP POP JUMP JUMPDEST PUSH1 0x40 MLOAD DUP1 PUSH1 0xA0 ADD PUSH1 0x40 MSTORE DUP1 PUSH1 0x5 SWAP1 PUSH1 0x20 DUP3 MUL DUP1 CALLDATASIZE DUP4 CALLDATACOPY DUP1 DUP3 ADD SWAP2 POP POP SWAP1 POP POP SWAP1 JUMP JUMPDEST PUSH0 DUP1 REVERT JUMPDEST PUSH0 DUP2 SWAP1 POP SWAP2 SWAP1 POP JUMP JUMPDEST PUSH2 0x2F1 DUP2 PUSH2 0x2DF JUMP JUMPDEST DUP2 EQ PUSH2 0x2FB JUMPI PUSH0 DUP1 REVERT JUMPDEST POP JUMP JUMPDEST PUSH0 DUP2 CALLDATALOAD SWAP1 POP PUSH2 0x30C DUP2 PUSH2 0x2E8 JUMP JUMPDEST SWAP3 SWAP2 POP POP JUMP JUMPDEST PUSH0 PUSH1 0x20 DUP3 DUP5 SUB SLT ISZERO PUSH2 0x327 JUMPI PUSH2 0x326 PUSH2 0x2DB JUMP JUMPDEST JUMPDEST PUSH0 PUSH2 0x334 DUP5 DUP3 DUP6 ADD PUSH2 0x2FE JUMP JUMPDEST SWAP2 POP POP SWAP3 SWAP2 POP POP JUMP JUMPDEST PUSH2 0x346 DUP2 PUSH2 0x2DF JUMP JUMPDEST DUP3 MSTORE POP POP JUMP JUMPDEST PUSH0 PUSH1 0x20 DUP3 ADD SWAP1 POP PUSH2 0x35F PUSH0 DUP4 ADD DUP5 PUSH2 0x33D JUMP JUMPDEST SWAP3 SWAP2 POP POP JUMP JUMPDEST PUSH0 DUP1 PUSH1 0x40 DUP4 DUP6 SUB SLT ISZERO PUSH2 0x37B JUMPI PUSH2 0x37A PUSH2 0x2DB JUMP JUMPDEST JUMPDEST PUSH0 PUSH2 0x388 DUP6 DUP3 DUP7 ADD PUSH2 0x2FE JUMP JUMPDEST SWAP3 POP POP PUSH1 0x20 PUSH2 0x399 DUP6 DUP3 DUP7 ADD PUSH2 0x2FE JUMP JUMPDEST SWAP2 POP POP SWAP3 POP SWAP3 SWAP1 POP JUMP JUMPDEST PUSH0 PUSH1 0x5 SWAP1 POP SWAP2 SWAP1 POP JUMP JUMPDEST PUSH0 DUP2 SWAP1 POP SWAP3 SWAP2 POP POP JUMP JUMPDEST PUSH0 DUP2 SWAP1 POP SWAP2 SWAP1 POP JUMP JUMPDEST PUSH2 0x3C9 DUP2 PUSH2 0x2DF JUMP JUMPDEST DUP3 MSTORE POP POP JUMP JUMPDEST PUSH0 PUSH2 0x3DA DUP4 DUP4 PUSH2 0x3C0 JUMP JUMPDEST PUSH1 0x20 DUP4 ADD SWAP1 POP SWAP3 SWAP2 POP POP JUMP JUMPDEST PUSH0 PUSH1 0x20 DUP3 ADD SWAP1 POP SWAP2 SWAP1 POP JUMP JUMPDEST PUSH2 0x3FB DUP2 PUSH2 0x3A3 JUMP JUMPDEST PUSH2 0x405 DUP2 DUP5 PUSH2 0x3AD JUMP JUMPDEST SWAP3 POP PUSH2 0x410 DUP3 PUSH2 0x3B7 JUMP JUMPDEST DUP1 PUSH0 JUMPDEST DUP4 DUP2 LT ISZERO PUSH2 0x440 JUMPI DUP2 MLOAD PUSH2 0x427 DUP8 DUP3 PUSH2 0x3CF JUMP JUMPDEST SWAP7 POP PUSH2 0x432 DUP4 PUSH2 0x3E6 JUMP JUMPDEST SWAP3 POP POP PUSH1 0x1 DUP2 ADD SWAP1 POP PUSH2 0x413 JUMP JUMPDEST POP POP POP POP POP POP JUMP JUMPDEST PUSH0 PUSH1 0xA0 DUP3 ADD SWAP1 POP PUSH2 0x45B PUSH0 DUP4 ADD DUP5 PUSH2 0x3F2 JUMP JUMPDEST SWAP3 SWAP2 POP POP JUMP JUMPDEST PUSH0 DUP1 PUSH0 DUP1 PUSH0 PUSH1 0xA0 DUP7 DUP9 SUB SLT ISZERO PUSH2 0x47A JUMPI PUSH2 0x479 PUSH2 0x2DB JUMP JUMPDEST JUMPDEST PUSH0 PUSH2 0x487 DUP9 DUP3 DUP10 ADD PUSH2 0x2FE JUMP JUMPDEST SWAP6 POP POP PUSH1 0x20 PUSH2 0x498 DUP9 DUP3 DUP10 ADD PUSH2 0x2FE JUMP JUMPDEST SWAP5 POP POP PUSH1 0x40 PUSH2 0x4A9 DUP9 DUP3 DUP10 ADD PUSH2 0x2FE JUMP JUMPDEST SWAP4 POP POP PUSH1 0x60 PUSH2 0x4BA DUP9 DUP3 DUP10 ADD PUSH2 0x2FE JUMP JUMPDEST SWAP3 POP POP PUSH1 0x80 PUSH2 0x4CB DUP9 DUP3 DUP10 ADD PUSH2 0x2FE JUMP JUMPDEST SWAP2 POP POP SWAP3 SWAP6 POP SWAP3 SWAP6 SWAP1 SWAP4 POP JUMP JUMPDEST PUSH0 DUP3 DUP3 MSTORE PUSH1 0x20 DUP3 ADD SWAP1 POP SWAP3 SWAP2 POP POP JUMP JUMPDEST PUSH32 0x496E646578206F7574206F6620626F756E647300000000000000000000000000 PUSH0 DUP3 ADD MSTORE POP JUMP JUMPDEST PUSH0 PUSH2 0x51C PUSH1 0x13 DUP4 PUSH2 0x4D8 JUMP JUMPDEST SWAP2 POP PUSH2 0x527 DUP3 PUSH2 0x4E8 JUMP JUMPDEST PUSH1 0x20 DUP3 ADD SWAP1 POP SWAP2 SWAP1 POP JUMP JUMPDEST PUSH0 PUSH1 0x20 DUP3 ADD SWAP1 POP DUP2 DUP2 SUB PUSH0 DUP4 ADD MSTORE PUSH2 0x549 DUP2 PUSH2 0x510 JUMP JUMPDEST SWAP1 POP SWAP2 SWAP1 POP JUMP JUMPDEST PUSH32 0x4E487B7100000000000000000000000000000000000000000000000000000000 PUSH0 MSTORE PUSH1 0x32 PUSH1 0x4 MSTORE PUSH1 0x24 PUSH0 REVERT INVALID LOG2 PUSH5 0x6970667358 0x22 SLT KECCAK256 TLOAD 0xE1 GASPRICE 0xBE 0xE3 0x28 SMOD KECCAK256 NUMBER PUSH18 0xEC322CCFCA6027B1D6B2024DAF4721477102 0xDC CALLDATACOPY 0x4E 0xC2 PUSH5 0x736F6C6343 STOP ADDMOD BYTE STOP CALLER "
				},
				"gasEstimates": {
					"creation": {
						"codeDepositCost": "291800",
						"executionCost": "329",
						"totalCost": "292129"
					},
					"external": {
						"fixedArray(uint256)": "infinite",
						"getArray()": "infinite",
						"getElement(uint256)": "infinite",
						"setArray(uint256,uint256,uint256,uint256,uint256)": "infinite",
						"updateElement(uint256,uint256)": "infinite"
					}
				},
				"methodIdentifiers": {
					"fixedArray(uint256)": "9a5009ac",
					"getArray()": "d504ea1d",
					"getElement(uint256)": "3a7d22bc",
					"setArray(uint256,uint256,uint256,uint256,uint256)": "dcabbd00",
					"updateElement(uint256,uint256)": "988133fa"
				}
			},
			"storageLayout": {
				"storage": [
					{
						"astId": 5,
						"contract": "contracts/1.14.fixedarray.sol:FixedArrayExample",
						"label": "fixedArray",
						"offset": 0,
						"slot": "0",
						"type": "t_array(t_uint256)5_storage"
					}
				],
				"types": {
					"t_array(t_uint256)5_storage": {
						"base": "t_uint256",
						"encoding": "inplace",
						"label": "uint256[5]",
						"numberOfBytes": "160"
					},
					"t_uint256": {
						"encoding": "inplace",
						"label": "uint256",
						"numberOfBytes": "32"
					}
				}
			},
			"userdoc": {
				"kind": "user",
				"methods": {},
				"version": 1
			}
		}
	}
}