{
	"contracts/10.4.integerdatatypes.sol": {
		"IntegerExample": {
			"abi": [
				{
					"inputs": [
						{
							"internalType": "int256",
							"name": "_smallNumber",
							"type": "int256"
						},
						{
							"internalType": "int8",
							"name": "_tinyNumber",
							"type": "int8"
						}
					],
					"stateMutability": "nonpayable",
					"type": "constructor"
				},
				{
					"inputs": [
						{
							"internalType": "int256",
							"name": "a",
							"type": "int256"
						},
						{
							"internalType": "int256",
							"name": "b",
							"type": "int256"
						}
					],
					"name": "addNumbers",
					"outputs": [
						{
							"internalType": "int256",
							"name": "",
							"type": "int256"
						}
					],
					"stateMutability": "pure",
					"type": "function"
				},
				{
					"inputs": [
						{
							"internalType": "int256",
							"name": "a",
							"type": "int256"
						},
						{
							"internalType": "int256",
							"name": "b",
							"type": "int256"
						}
					],
					"name": "divideNumbers",
					"outputs": [
						{
							"internalType": "int256",
							"name": "",
							"type": "int256"
						}
					],
					"stateMutability": "pure",
					"type": "function"
				},
				{
					"inputs": [],
					"name": "getNumbers",
					"outputs": [
						{
							"internalType": "int256",
							"name": "",
							"type": "int256"
						},
						{
							"internalType": "int8",
							"name": "",
							"type": "int8"
						}
					],
					"stateMutability": "view",
					"type": "function"
				},
				{
					"inputs": [
						{
							"internalType": "int256",
							"name": "a",
							"type": "int256"
						},
						{
							"internalType": "int256",
							"name": "b",
							"type": "int256"
						}
					],
					"name": "multiplyNumbers",
					"outputs": [
						{
							"internalType": "int256",
							"name": "",
							"type": "int256"
						}
					],
					"stateMutability": "pure",
					"type": "function"
				},
				{
					"inputs": [
						{
							"internalType": "int256",
							"name": "_smallNumber",
							"type": "int256"
						},
						{
							"internalType": "int8",
							"name": "_tinyNumber",
							"type": "int8"
						}
					],
					"name": "setNumbers",
					"outputs": [],
					"stateMutability": "nonpayable",
					"type": "function"
				},
				{
					"inputs": [],
					"name": "smallNumber",
					"outputs": [
						{
							"internalType": "int256",
							"name": "",
							"type": "int256"
						}
					],
					"stateMutability": "view",
					"type": "function"
				},
				{
					"inputs": [
						{
							"internalType": "int256",
							"name": "a",
							"type": "int256"
						},
						{
							"internalType": "int256",
							"name": "b",
							"type": "int256"
						}
					],
					"name": "subtractNumbers",
					"outputs": [
						{
							"internalType": "int256",
							"name": "",
							"type": "int256"
						}
					],
					"stateMutability": "pure",
					"type": "function"
				},
				{
					"inputs": [],
					"name": "tinyNumber",
					"outputs": [
						{
							"internalType": "int8",
							"name": "",
							"type": "int8"
						}
					],
					"stateMutability": "view",
					"type": "function"
				}
			],
			"devdoc": {
				"kind": "dev",
				"methods": {},
				"version": 1
			},
			"evm": {
				"assembly": "    /* \"contracts/10.4.integerdatatypes.sol\":70:1373  contract IntegerExample {... */\n  mstore(0x40, 0x80)\n    /* \"contracts/10.4.integerdatatypes.sol\":311:439  constructor(int256 _smallNumber, int8 _tinyNumber) {... */\n  callvalue\n  dup1\n  iszero\n  tag_1\n  jumpi\n  0x00\n  dup1\n  revert\ntag_1:\n  pop\n  mload(0x40)\n  sub(codesize, bytecodeSize)\n  dup1\n  bytecodeSize\n  dup4\n  codecopy\n  dup2\n  dup2\n  add\n  0x40\n  mstore\n  dup2\n  add\n  swap1\n  tag_2\n  swap2\n  swap1\n  tag_3\n  jump\t// in\ntag_2:\n    /* \"contracts/10.4.integerdatatypes.sol\":386:398  _smallNumber */\n  dup2\n    /* \"contracts/10.4.integerdatatypes.sol\":372:383  smallNumber */\n  0x00\n    /* \"contracts/10.4.integerdatatypes.sol\":372:398  smallNumber = _smallNumber */\n  dup2\n  swap1\n  sstore\n  pop\n    /* \"contracts/10.4.integerdatatypes.sol\":421:432  _tinyNumber */\n  dup1\n    /* \"contracts/10.4.integerdatatypes.sol\":408:418  tinyNumber */\n  0x01\n  0x00\n    /* \"contracts/10.4.integerdatatypes.sol\":408:432  tinyNumber = _tinyNumber */\n  0x0100\n  exp\n  dup2\n  sload\n  dup2\n  0xff\n  mul\n  not\n  and\n  swap1\n  dup4\n  0x00\n  signextend\n  0xff\n  and\n  mul\n  or\n  swap1\n  sstore\n  pop\n    /* \"contracts/10.4.integerdatatypes.sol\":311:439  constructor(int256 _smallNumber, int8 _tinyNumber) {... */\n  pop\n  pop\n    /* \"contracts/10.4.integerdatatypes.sol\":70:1373  contract IntegerExample {... */\n  jump(tag_6)\n    /* \"#utility.yul\":88:205   */\ntag_8:\n    /* \"#utility.yul\":197:198   */\n  0x00\n    /* \"#utility.yul\":194:195   */\n  dup1\n    /* \"#utility.yul\":187:199   */\n  revert\n    /* \"#utility.yul\":334:410   */\ntag_10:\n    /* \"#utility.yul\":370:377   */\n  0x00\n    /* \"#utility.yul\":399:404   */\n  dup2\n    /* \"#utility.yul\":388:404   */\n  swap1\n  pop\n    /* \"#utility.yul\":334:410   */\n  swap2\n  swap1\n  pop\n  jump\t// out\n    /* \"#utility.yul\":416:536   */\ntag_11:\n    /* \"#utility.yul\":488:511   */\n  tag_22\n    /* \"#utility.yul\":505:510   */\n  dup2\n    /* \"#utility.yul\":488:511   */\n  tag_10\n  jump\t// in\ntag_22:\n    /* \"#utility.yul\":481:486   */\n  dup2\n    /* \"#utility.yul\":478:512   */\n  eq\n    /* \"#utility.yul\":468:530   */\n  tag_23\n  jumpi\n    /* \"#utility.yul\":526:527   */\n  0x00\n    /* \"#utility.yul\":523:524   */\n  dup1\n    /* \"#utility.yul\":516:528   */\n  revert\n    /* \"#utility.yul\":468:530   */\ntag_23:\n    /* \"#utility.yul\":416:536   */\n  pop\n  jump\t// out\n    /* \"#utility.yul\":542:683   */\ntag_12:\n    /* \"#utility.yul\":598:603   */\n  0x00\n    /* \"#utility.yul\":629:635   */\n  dup2\n    /* \"#utility.yul\":623:636   */\n  mload\n    /* \"#utility.yul\":614:636   */\n  swap1\n  pop\n    /* \"#utility.yul\":645:677   */\n  tag_25\n    /* \"#utility.yul\":671:676   */\n  dup2\n    /* \"#utility.yul\":645:677   */\n  tag_11\n  jump\t// in\ntag_25:\n    /* \"#utility.yul\":542:683   */\n  swap3\n  swap2\n  pop\n  pop\n  jump\t// out\n    /* \"#utility.yul\":689:778   */\ntag_13:\n    /* \"#utility.yul\":723:730   */\n  0x00\n    /* \"#utility.yul\":766:771   */\n  dup2\n    /* \"#utility.yul\":763:764   */\n  0x00\n    /* \"#utility.yul\":752:772   */\n  signextend\n    /* \"#utility.yul\":741:772   */\n  swap1\n  pop\n    /* \"#utility.yul\":689:778   */\n  swap2\n  swap1\n  pop\n  jump\t// out\n    /* \"#utility.yul\":784:900   */\ntag_14:\n    /* \"#utility.yul\":854:875   */\n  tag_28\n    /* \"#utility.yul\":869:874   */\n  dup2\n    /* \"#utility.yul\":854:875   */\n  tag_13\n  jump\t// in\ntag_28:\n    /* \"#utility.yul\":847:852   */\n  dup2\n    /* \"#utility.yul\":844:876   */\n  eq\n    /* \"#utility.yul\":834:894   */\n  tag_29\n  jumpi\n    /* \"#utility.yul\":890:891   */\n  0x00\n    /* \"#utility.yul\":887:888   */\n  dup1\n    /* \"#utility.yul\":880:892   */\n  revert\n    /* \"#utility.yul\":834:894   */\ntag_29:\n    /* \"#utility.yul\":784:900   */\n  pop\n  jump\t// out\n    /* \"#utility.yul\":906:1043   */\ntag_15:\n    /* \"#utility.yul\":960:965   */\n  0x00\n    /* \"#utility.yul\":991:997   */\n  dup2\n    /* \"#utility.yul\":985:998   */\n  mload\n    /* \"#utility.yul\":976:998   */\n  swap1\n  pop\n    /* \"#utility.yul\":1007:1037   */\n  tag_31\n    /* \"#utility.yul\":1031:1036   */\n  dup2\n    /* \"#utility.yul\":1007:1037   */\n  tag_14\n  jump\t// in\ntag_31:\n    /* \"#utility.yul\":906:1043   */\n  swap3\n  swap2\n  pop\n  pop\n  jump\t// out\n    /* \"#utility.yul\":1049:1548   */\ntag_3:\n    /* \"#utility.yul\":1124:1130   */\n  0x00\n    /* \"#utility.yul\":1132:1138   */\n  dup1\n    /* \"#utility.yul\":1181:1183   */\n  0x40\n    /* \"#utility.yul\":1169:1178   */\n  dup4\n    /* \"#utility.yul\":1160:1167   */\n  dup6\n    /* \"#utility.yul\":1156:1179   */\n  sub\n    /* \"#utility.yul\":1152:1184   */\n  slt\n    /* \"#utility.yul\":1149:1268   */\n  iszero\n  tag_33\n  jumpi\n    /* \"#utility.yul\":1187:1266   */\n  tag_34\n  tag_8\n  jump\t// in\ntag_34:\n    /* \"#utility.yul\":1149:1268   */\ntag_33:\n    /* \"#utility.yul\":1307:1308   */\n  0x00\n    /* \"#utility.yul\":1332:1395   */\n  tag_35\n    /* \"#utility.yul\":1387:1394   */\n  dup6\n    /* \"#utility.yul\":1378:1384   */\n  dup3\n    /* \"#utility.yul\":1367:1376   */\n  dup7\n    /* \"#utility.yul\":1363:1385   */\n  add\n    /* \"#utility.yul\":1332:1395   */\n  tag_12\n  jump\t// in\ntag_35:\n    /* \"#utility.yul\":1322:1395   */\n  swap3\n  pop\n    /* \"#utility.yul\":1278:1405   */\n  pop\n    /* \"#utility.yul\":1444:1446   */\n  0x20\n    /* \"#utility.yul\":1470:1531   */\n  tag_36\n    /* \"#utility.yul\":1523:1530   */\n  dup6\n    /* \"#utility.yul\":1514:1520   */\n  dup3\n    /* \"#utility.yul\":1503:1512   */\n  dup7\n    /* \"#utility.yul\":1499:1521   */\n  add\n    /* \"#utility.yul\":1470:1531   */\n  tag_15\n  jump\t// in\ntag_36:\n    /* \"#utility.yul\":1460:1531   */\n  swap2\n  pop\n    /* \"#utility.yul\":1415:1541   */\n  pop\n    /* \"#utility.yul\":1049:1548   */\n  swap3\n  pop\n  swap3\n  swap1\n  pop\n  jump\t// out\n    /* \"contracts/10.4.integerdatatypes.sol\":70:1373  contract IntegerExample {... */\ntag_6:\n  dataSize(sub_0)\n  dup1\n  dataOffset(sub_0)\n  0x00\n  codecopy\n  0x00\n  return\nstop\n\nsub_0: assembly {\n        /* \"contracts/10.4.integerdatatypes.sol\":70:1373  contract IntegerExample {... */\n      mstore(0x40, 0x80)\n      callvalue\n      dup1\n      iszero\n      tag_1\n      jumpi\n      0x00\n      dup1\n      revert\n    tag_1:\n      pop\n      jumpi(tag_2, lt(calldatasize, 0x04))\n      shr(0xe0, calldataload(0x00))\n      dup1\n      0x89f915f6\n      gt\n      tag_11\n      jumpi\n      dup1\n      0x89f915f6\n      eq\n      tag_7\n      jumpi\n      dup1\n      0x9400c2e0\n      eq\n      tag_8\n      jumpi\n      dup1\n      0x94d60d55\n      eq\n      tag_9\n      jumpi\n      dup1\n      0xd6d06460\n      eq\n      tag_10\n      jumpi\n      jump(tag_2)\n    tag_11:\n      dup1\n      0x08d1e6fb\n      eq\n      tag_3\n      jumpi\n      dup1\n      0x6670cde0\n      eq\n      tag_4\n      jumpi\n      dup1\n      0x687cb7d2\n      eq\n      tag_5\n      jumpi\n      dup1\n      0x7038447a\n      eq\n      tag_6\n      jumpi\n    tag_2:\n      0x00\n      dup1\n      revert\n        /* \"contracts/10.4.integerdatatypes.sol\":1101:1204  function multiplyNumbers(int256 a, int256 b) public pure returns (int256) {... */\n    tag_3:\n      tag_12\n      0x04\n      dup1\n      calldatasize\n      sub\n      dup2\n      add\n      swap1\n      tag_13\n      swap2\n      swap1\n      tag_14\n      jump\t// in\n    tag_13:\n      tag_15\n      jump\t// in\n    tag_12:\n      mload(0x40)\n      tag_16\n      swap2\n      swap1\n      tag_17\n      jump\t// in\n    tag_16:\n      mload(0x40)\n      dup1\n      swap2\n      sub\n      swap1\n      return\n        /* \"contracts/10.4.integerdatatypes.sol\":148:173  int256 public smallNumber */\n    tag_4:\n      tag_18\n      tag_19\n      jump\t// in\n    tag_18:\n      mload(0x40)\n      tag_20\n      swap2\n      swap1\n      tag_17\n      jump\t// in\n    tag_20:\n      mload(0x40)\n      dup1\n      swap2\n      sub\n      swap1\n      return\n        /* \"contracts/10.4.integerdatatypes.sol\":205:227  int8 public tinyNumber */\n    tag_5:\n      tag_21\n      tag_22\n      jump\t// in\n    tag_21:\n      mload(0x40)\n      tag_23\n      swap2\n      swap1\n      tag_24\n      jump\t// in\n    tag_23:\n      mload(0x40)\n      dup1\n      swap2\n      sub\n      swap1\n      return\n        /* \"contracts/10.4.integerdatatypes.sol\":992:1095  function subtractNumbers(int256 a, int256 b) public pure returns (int256) {... */\n    tag_6:\n      tag_25\n      0x04\n      dup1\n      calldatasize\n      sub\n      dup2\n      add\n      swap1\n      tag_26\n      swap2\n      swap1\n      tag_14\n      jump\t// in\n    tag_26:\n      tag_27\n      jump\t// in\n    tag_25:\n      mload(0x40)\n      tag_28\n      swap2\n      swap1\n      tag_17\n      jump\t// in\n    tag_28:\n      mload(0x40)\n      dup1\n      swap2\n      sub\n      swap1\n      return\n        /* \"contracts/10.4.integerdatatypes.sol\":709:815  function getNumbers() public view returns (int256, int8) {... */\n    tag_7:\n      tag_29\n      tag_30\n      jump\t// in\n    tag_29:\n      mload(0x40)\n      tag_31\n      swap3\n      swap2\n      swap1\n      tag_32\n      jump\t// in\n    tag_31:\n      mload(0x40)\n      dup1\n      swap2\n      sub\n      swap1\n      return\n        /* \"contracts/10.4.integerdatatypes.sol\":888:986  function addNumbers(int256 a, int256 b) public pure returns (int256) {... */\n    tag_8:\n      tag_33\n      0x04\n      dup1\n      calldatasize\n      sub\n      dup2\n      add\n      swap1\n      tag_34\n      swap2\n      swap1\n      tag_14\n      jump\t// in\n    tag_34:\n      tag_35\n      jump\t// in\n    tag_33:\n      mload(0x40)\n      tag_36\n      swap2\n      swap1\n      tag_17\n      jump\t// in\n    tag_36:\n      mload(0x40)\n      dup1\n      swap2\n      sub\n      swap1\n      return\n        /* \"contracts/10.4.integerdatatypes.sol\":503:646  function setNumbers(int256 _smallNumber, int8 _tinyNumber) public {... */\n    tag_9:\n      tag_37\n      0x04\n      dup1\n      calldatasize\n      sub\n      dup2\n      add\n      swap1\n      tag_38\n      swap2\n      swap1\n      tag_39\n      jump\t// in\n    tag_38:\n      tag_40\n      jump\t// in\n    tag_37:\n      stop\n        /* \"contracts/10.4.integerdatatypes.sol\":1210:1371  function divideNumbers(int256 a, int256 b) public pure returns (int256) {... */\n    tag_10:\n      tag_41\n      0x04\n      dup1\n      calldatasize\n      sub\n      dup2\n      add\n      swap1\n      tag_42\n      swap2\n      swap1\n      tag_14\n      jump\t// in\n    tag_42:\n      tag_43\n      jump\t// in\n    tag_41:\n      mload(0x40)\n      tag_44\n      swap2\n      swap1\n      tag_17\n      jump\t// in\n    tag_44:\n      mload(0x40)\n      dup1\n      swap2\n      sub\n      swap1\n      return\n        /* \"contracts/10.4.integerdatatypes.sol\":1101:1204  function multiplyNumbers(int256 a, int256 b) public pure returns (int256) {... */\n    tag_15:\n        /* \"contracts/10.4.integerdatatypes.sol\":1167:1173  int256 */\n      0x00\n        /* \"contracts/10.4.integerdatatypes.sol\":1196:1197  b */\n      dup2\n        /* \"contracts/10.4.integerdatatypes.sol\":1192:1193  a */\n      dup4\n        /* \"contracts/10.4.integerdatatypes.sol\":1192:1197  a * b */\n      tag_46\n      swap2\n      swap1\n      tag_47\n      jump\t// in\n    tag_46:\n        /* \"contracts/10.4.integerdatatypes.sol\":1185:1197  return a * b */\n      swap1\n      pop\n        /* \"contracts/10.4.integerdatatypes.sol\":1101:1204  function multiplyNumbers(int256 a, int256 b) public pure returns (int256) {... */\n      swap3\n      swap2\n      pop\n      pop\n      jump\t// out\n        /* \"contracts/10.4.integerdatatypes.sol\":148:173  int256 public smallNumber */\n    tag_19:\n      sload(0x00)\n      dup2\n      jump\t// out\n        /* \"contracts/10.4.integerdatatypes.sol\":205:227  int8 public tinyNumber */\n    tag_22:\n      0x01\n      0x00\n      swap1\n      sload\n      swap1\n      0x0100\n      exp\n      swap1\n      div\n      0x00\n      signextend\n      dup2\n      jump\t// out\n        /* \"contracts/10.4.integerdatatypes.sol\":992:1095  function subtractNumbers(int256 a, int256 b) public pure returns (int256) {... */\n    tag_27:\n        /* \"contracts/10.4.integerdatatypes.sol\":1058:1064  int256 */\n      0x00\n        /* \"contracts/10.4.integerdatatypes.sol\":1087:1088  b */\n      dup2\n        /* \"contracts/10.4.integerdatatypes.sol\":1083:1084  a */\n      dup4\n        /* \"contracts/10.4.integerdatatypes.sol\":1083:1088  a - b */\n      tag_49\n      swap2\n      swap1\n      tag_50\n      jump\t// in\n    tag_49:\n        /* \"contracts/10.4.integerdatatypes.sol\":1076:1088  return a - b */\n      swap1\n      pop\n        /* \"contracts/10.4.integerdatatypes.sol\":992:1095  function subtractNumbers(int256 a, int256 b) public pure returns (int256) {... */\n      swap3\n      swap2\n      pop\n      pop\n      jump\t// out\n        /* \"contracts/10.4.integerdatatypes.sol\":709:815  function getNumbers() public view returns (int256, int8) {... */\n    tag_30:\n        /* \"contracts/10.4.integerdatatypes.sol\":752:758  int256 */\n      0x00\n        /* \"contracts/10.4.integerdatatypes.sol\":760:764  int8 */\n      dup1\n        /* \"contracts/10.4.integerdatatypes.sol\":784:795  smallNumber */\n      sload(0x00)\n        /* \"contracts/10.4.integerdatatypes.sol\":797:807  tinyNumber */\n      0x01\n      0x00\n      swap1\n      sload\n      swap1\n      0x0100\n      exp\n      swap1\n      div\n      0x00\n      signextend\n        /* \"contracts/10.4.integerdatatypes.sol\":776:808  return (smallNumber, tinyNumber) */\n      swap2\n      pop\n      swap2\n      pop\n        /* \"contracts/10.4.integerdatatypes.sol\":709:815  function getNumbers() public view returns (int256, int8) {... */\n      swap1\n      swap2\n      jump\t// out\n        /* \"contracts/10.4.integerdatatypes.sol\":888:986  function addNumbers(int256 a, int256 b) public pure returns (int256) {... */\n    tag_35:\n        /* \"contracts/10.4.integerdatatypes.sol\":949:955  int256 */\n      0x00\n        /* \"contracts/10.4.integerdatatypes.sol\":978:979  b */\n      dup2\n        /* \"contracts/10.4.integerdatatypes.sol\":974:975  a */\n      dup4\n        /* \"contracts/10.4.integerdatatypes.sol\":974:979  a + b */\n      tag_53\n      swap2\n      swap1\n      tag_54\n      jump\t// in\n    tag_53:\n        /* \"contracts/10.4.integerdatatypes.sol\":967:979  return a + b */\n      swap1\n      pop\n        /* \"contracts/10.4.integerdatatypes.sol\":888:986  function addNumbers(int256 a, int256 b) public pure returns (int256) {... */\n      swap3\n      swap2\n      pop\n      pop\n      jump\t// out\n        /* \"contracts/10.4.integerdatatypes.sol\":503:646  function setNumbers(int256 _smallNumber, int8 _tinyNumber) public {... */\n    tag_40:\n        /* \"contracts/10.4.integerdatatypes.sol\":593:605  _smallNumber */\n      dup2\n        /* \"contracts/10.4.integerdatatypes.sol\":579:590  smallNumber */\n      0x00\n        /* \"contracts/10.4.integerdatatypes.sol\":579:605  smallNumber = _smallNumber */\n      dup2\n      swap1\n      sstore\n      pop\n        /* \"contracts/10.4.integerdatatypes.sol\":628:639  _tinyNumber */\n      dup1\n        /* \"contracts/10.4.integerdatatypes.sol\":615:625  tinyNumber */\n      0x01\n      0x00\n        /* \"contracts/10.4.integerdatatypes.sol\":615:639  tinyNumber = _tinyNumber */\n      0x0100\n      exp\n      dup2\n      sload\n      dup2\n      0xff\n      mul\n      not\n      and\n      swap1\n      dup4\n      0x00\n      signextend\n      0xff\n      and\n      mul\n      or\n      swap1\n      sstore\n      pop\n        /* \"contracts/10.4.integerdatatypes.sol\":503:646  function setNumbers(int256 _smallNumber, int8 _tinyNumber) public {... */\n      pop\n      pop\n      jump\t// out\n        /* \"contracts/10.4.integerdatatypes.sol\":1210:1371  function divideNumbers(int256 a, int256 b) public pure returns (int256) {... */\n    tag_43:\n        /* \"contracts/10.4.integerdatatypes.sol\":1274:1280  int256 */\n      0x00\n        /* \"contracts/10.4.integerdatatypes.sol\":1305:1306  0 */\n      dup1\n        /* \"contracts/10.4.integerdatatypes.sol\":1300:1301  b */\n      dup3\n        /* \"contracts/10.4.integerdatatypes.sol\":1300:1306  b != 0 */\n      sub\n        /* \"contracts/10.4.integerdatatypes.sol\":1292:1342  require(b != 0, \"Division by zero is not allowed\") */\n      tag_57\n      jumpi\n      mload(0x40)\n      0x08c379a000000000000000000000000000000000000000000000000000000000\n      dup2\n      mstore\n      0x04\n      add\n      tag_58\n      swap1\n      tag_59\n      jump\t// in\n    tag_58:\n      mload(0x40)\n      dup1\n      swap2\n      sub\n      swap1\n      revert\n    tag_57:\n        /* \"contracts/10.4.integerdatatypes.sol\":1363:1364  b */\n      dup2\n        /* \"contracts/10.4.integerdatatypes.sol\":1359:1360  a */\n      dup4\n        /* \"contracts/10.4.integerdatatypes.sol\":1359:1364  a / b */\n      tag_60\n      swap2\n      swap1\n      tag_61\n      jump\t// in\n    tag_60:\n        /* \"contracts/10.4.integerdatatypes.sol\":1352:1364  return a / b */\n      swap1\n      pop\n        /* \"contracts/10.4.integerdatatypes.sol\":1210:1371  function divideNumbers(int256 a, int256 b) public pure returns (int256) {... */\n      swap3\n      swap2\n      pop\n      pop\n      jump\t// out\n        /* \"#utility.yul\":88:205   */\n    tag_63:\n        /* \"#utility.yul\":197:198   */\n      0x00\n        /* \"#utility.yul\":194:195   */\n      dup1\n        /* \"#utility.yul\":187:199   */\n      revert\n        /* \"#utility.yul\":334:410   */\n    tag_65:\n        /* \"#utility.yul\":370:377   */\n      0x00\n        /* \"#utility.yul\":399:404   */\n      dup2\n        /* \"#utility.yul\":388:404   */\n      swap1\n      pop\n        /* \"#utility.yul\":334:410   */\n      swap2\n      swap1\n      pop\n      jump\t// out\n        /* \"#utility.yul\":416:536   */\n    tag_66:\n        /* \"#utility.yul\":488:511   */\n      tag_84\n        /* \"#utility.yul\":505:510   */\n      dup2\n        /* \"#utility.yul\":488:511   */\n      tag_65\n      jump\t// in\n    tag_84:\n        /* \"#utility.yul\":481:486   */\n      dup2\n        /* \"#utility.yul\":478:512   */\n      eq\n        /* \"#utility.yul\":468:530   */\n      tag_85\n      jumpi\n        /* \"#utility.yul\":526:527   */\n      0x00\n        /* \"#utility.yul\":523:524   */\n      dup1\n        /* \"#utility.yul\":516:528   */\n      revert\n        /* \"#utility.yul\":468:530   */\n    tag_85:\n        /* \"#utility.yul\":416:536   */\n      pop\n      jump\t// out\n        /* \"#utility.yul\":542:679   */\n    tag_67:\n        /* \"#utility.yul\":587:592   */\n      0x00\n        /* \"#utility.yul\":625:631   */\n      dup2\n        /* \"#utility.yul\":612:632   */\n      calldataload\n        /* \"#utility.yul\":603:632   */\n      swap1\n      pop\n        /* \"#utility.yul\":641:673   */\n      tag_87\n        /* \"#utility.yul\":667:672   */\n      dup2\n        /* \"#utility.yul\":641:673   */\n      tag_66\n      jump\t// in\n    tag_87:\n        /* \"#utility.yul\":542:679   */\n      swap3\n      swap2\n      pop\n      pop\n      jump\t// out\n        /* \"#utility.yul\":685:1155   */\n    tag_14:\n        /* \"#utility.yul\":751:757   */\n      0x00\n        /* \"#utility.yul\":759:765   */\n      dup1\n        /* \"#utility.yul\":808:810   */\n      0x40\n        /* \"#utility.yul\":796:805   */\n      dup4\n        /* \"#utility.yul\":787:794   */\n      dup6\n        /* \"#utility.yul\":783:806   */\n      sub\n        /* \"#utility.yul\":779:811   */\n      slt\n        /* \"#utility.yul\":776:895   */\n      iszero\n      tag_89\n      jumpi\n        /* \"#utility.yul\":814:893   */\n      tag_90\n      tag_63\n      jump\t// in\n    tag_90:\n        /* \"#utility.yul\":776:895   */\n    tag_89:\n        /* \"#utility.yul\":934:935   */\n      0x00\n        /* \"#utility.yul\":959:1011   */\n      tag_91\n        /* \"#utility.yul\":1003:1010   */\n      dup6\n        /* \"#utility.yul\":994:1000   */\n      dup3\n        /* \"#utility.yul\":983:992   */\n      dup7\n        /* \"#utility.yul\":979:1001   */\n      add\n        /* \"#utility.yul\":959:1011   */\n      tag_67\n      jump\t// in\n    tag_91:\n        /* \"#utility.yul\":949:1011   */\n      swap3\n      pop\n        /* \"#utility.yul\":905:1021   */\n      pop\n        /* \"#utility.yul\":1060:1062   */\n      0x20\n        /* \"#utility.yul\":1086:1138   */\n      tag_92\n        /* \"#utility.yul\":1130:1137   */\n      dup6\n        /* \"#utility.yul\":1121:1127   */\n      dup3\n        /* \"#utility.yul\":1110:1119   */\n      dup7\n        /* \"#utility.yul\":1106:1128   */\n      add\n        /* \"#utility.yul\":1086:1138   */\n      tag_67\n      jump\t// in\n    tag_92:\n        /* \"#utility.yul\":1076:1138   */\n      swap2\n      pop\n        /* \"#utility.yul\":1031:1148   */\n      pop\n        /* \"#utility.yul\":685:1155   */\n      swap3\n      pop\n      swap3\n      swap1\n      pop\n      jump\t// out\n        /* \"#utility.yul\":1161:1276   */\n    tag_68:\n        /* \"#utility.yul\":1246:1269   */\n      tag_94\n        /* \"#utility.yul\":1263:1268   */\n      dup2\n        /* \"#utility.yul\":1246:1269   */\n      tag_65\n      jump\t// in\n    tag_94:\n        /* \"#utility.yul\":1241:1244   */\n      dup3\n        /* \"#utility.yul\":1234:1270   */\n      mstore\n        /* \"#utility.yul\":1161:1276   */\n      pop\n      pop\n      jump\t// out\n        /* \"#utility.yul\":1282:1500   */\n    tag_17:\n        /* \"#utility.yul\":1373:1377   */\n      0x00\n        /* \"#utility.yul\":1411:1413   */\n      0x20\n        /* \"#utility.yul\":1400:1409   */\n      dup3\n        /* \"#utility.yul\":1396:1414   */\n      add\n        /* \"#utility.yul\":1388:1414   */\n      swap1\n      pop\n        /* \"#utility.yul\":1424:1493   */\n      tag_96\n        /* \"#utility.yul\":1490:1491   */\n      0x00\n        /* \"#utility.yul\":1479:1488   */\n      dup4\n        /* \"#utility.yul\":1475:1492   */\n      add\n        /* \"#utility.yul\":1466:1472   */\n      dup5\n        /* \"#utility.yul\":1424:1493   */\n      tag_68\n      jump\t// in\n    tag_96:\n        /* \"#utility.yul\":1282:1500   */\n      swap3\n      swap2\n      pop\n      pop\n      jump\t// out\n        /* \"#utility.yul\":1506:1595   */\n    tag_69:\n        /* \"#utility.yul\":1540:1547   */\n      0x00\n        /* \"#utility.yul\":1583:1588   */\n      dup2\n        /* \"#utility.yul\":1580:1581   */\n      0x00\n        /* \"#utility.yul\":1569:1589   */\n      signextend\n        /* \"#utility.yul\":1558:1589   */\n      swap1\n      pop\n        /* \"#utility.yul\":1506:1595   */\n      swap2\n      swap1\n      pop\n      jump\t// out\n        /* \"#utility.yul\":1601:1710   */\n    tag_70:\n        /* \"#utility.yul\":1682:1703   */\n      tag_99\n        /* \"#utility.yul\":1697:1702   */\n      dup2\n        /* \"#utility.yul\":1682:1703   */\n      tag_69\n      jump\t// in\n    tag_99:\n        /* \"#utility.yul\":1677:1680   */\n      dup3\n        /* \"#utility.yul\":1670:1704   */\n      mstore\n        /* \"#utility.yul\":1601:1710   */\n      pop\n      pop\n      jump\t// out\n        /* \"#utility.yul\":1716:1926   */\n    tag_24:\n        /* \"#utility.yul\":1803:1807   */\n      0x00\n        /* \"#utility.yul\":1841:1843   */\n      0x20\n        /* \"#utility.yul\":1830:1839   */\n      dup3\n        /* \"#utility.yul\":1826:1844   */\n      add\n        /* \"#utility.yul\":1818:1844   */\n      swap1\n      pop\n        /* \"#utility.yul\":1854:1919   */\n      tag_101\n        /* \"#utility.yul\":1916:1917   */\n      0x00\n        /* \"#utility.yul\":1905:1914   */\n      dup4\n        /* \"#utility.yul\":1901:1918   */\n      add\n        /* \"#utility.yul\":1892:1898   */\n      dup5\n        /* \"#utility.yul\":1854:1919   */\n      tag_70\n      jump\t// in\n    tag_101:\n        /* \"#utility.yul\":1716:1926   */\n      swap3\n      swap2\n      pop\n      pop\n      jump\t// out\n        /* \"#utility.yul\":1932:2248   */\n    tag_32:\n        /* \"#utility.yul\":2045:2049   */\n      0x00\n        /* \"#utility.yul\":2083:2085   */\n      0x40\n        /* \"#utility.yul\":2072:2081   */\n      dup3\n        /* \"#utility.yul\":2068:2086   */\n      add\n        /* \"#utility.yul\":2060:2086   */\n      swap1\n      pop\n        /* \"#utility.yul\":2096:2165   */\n      tag_103\n        /* \"#utility.yul\":2162:2163   */\n      0x00\n        /* \"#utility.yul\":2151:2160   */\n      dup4\n        /* \"#utility.yul\":2147:2164   */\n      add\n        /* \"#utility.yul\":2138:2144   */\n      dup6\n        /* \"#utility.yul\":2096:2165   */\n      tag_68\n      jump\t// in\n    tag_103:\n        /* \"#utility.yul\":2175:2241   */\n      tag_104\n        /* \"#utility.yul\":2237:2239   */\n      0x20\n        /* \"#utility.yul\":2226:2235   */\n      dup4\n        /* \"#utility.yul\":2222:2240   */\n      add\n        /* \"#utility.yul\":2213:2219   */\n      dup5\n        /* \"#utility.yul\":2175:2241   */\n      tag_70\n      jump\t// in\n    tag_104:\n        /* \"#utility.yul\":1932:2248   */\n      swap4\n      swap3\n      pop\n      pop\n      pop\n      jump\t// out\n        /* \"#utility.yul\":2254:2370   */\n    tag_71:\n        /* \"#utility.yul\":2324:2345   */\n      tag_106\n        /* \"#utility.yul\":2339:2344   */\n      dup2\n        /* \"#utility.yul\":2324:2345   */\n      tag_69\n      jump\t// in\n    tag_106:\n        /* \"#utility.yul\":2317:2322   */\n      dup2\n        /* \"#utility.yul\":2314:2346   */\n      eq\n        /* \"#utility.yul\":2304:2364   */\n      tag_107\n      jumpi\n        /* \"#utility.yul\":2360:2361   */\n      0x00\n        /* \"#utility.yul\":2357:2358   */\n      dup1\n        /* \"#utility.yul\":2350:2362   */\n      revert\n        /* \"#utility.yul\":2304:2364   */\n    tag_107:\n        /* \"#utility.yul\":2254:2370   */\n      pop\n      jump\t// out\n        /* \"#utility.yul\":2376:2509   */\n    tag_72:\n        /* \"#utility.yul\":2419:2424   */\n      0x00\n        /* \"#utility.yul\":2457:2463   */\n      dup2\n        /* \"#utility.yul\":2444:2464   */\n      calldataload\n        /* \"#utility.yul\":2435:2464   */\n      swap1\n      pop\n        /* \"#utility.yul\":2473:2503   */\n      tag_109\n        /* \"#utility.yul\":2497:2502   */\n      dup2\n        /* \"#utility.yul\":2473:2503   */\n      tag_71\n      jump\t// in\n    tag_109:\n        /* \"#utility.yul\":2376:2509   */\n      swap3\n      swap2\n      pop\n      pop\n      jump\t// out\n        /* \"#utility.yul\":2515:2981   */\n    tag_39:\n        /* \"#utility.yul\":2579:2585   */\n      0x00\n        /* \"#utility.yul\":2587:2593   */\n      dup1\n        /* \"#utility.yul\":2636:2638   */\n      0x40\n        /* \"#utility.yul\":2624:2633   */\n      dup4\n        /* \"#utility.yul\":2615:2622   */\n      dup6\n        /* \"#utility.yul\":2611:2634   */\n      sub\n        /* \"#utility.yul\":2607:2639   */\n      slt\n        /* \"#utility.yul\":2604:2723   */\n      iszero\n      tag_111\n      jumpi\n        /* \"#utility.yul\":2642:2721   */\n      tag_112\n      tag_63\n      jump\t// in\n    tag_112:\n        /* \"#utility.yul\":2604:2723   */\n    tag_111:\n        /* \"#utility.yul\":2762:2763   */\n      0x00\n        /* \"#utility.yul\":2787:2839   */\n      tag_113\n        /* \"#utility.yul\":2831:2838   */\n      dup6\n        /* \"#utility.yul\":2822:2828   */\n      dup3\n        /* \"#utility.yul\":2811:2820   */\n      dup7\n        /* \"#utility.yul\":2807:2829   */\n      add\n        /* \"#utility.yul\":2787:2839   */\n      tag_67\n      jump\t// in\n    tag_113:\n        /* \"#utility.yul\":2777:2839   */\n      swap3\n      pop\n        /* \"#utility.yul\":2733:2849   */\n      pop\n        /* \"#utility.yul\":2888:2890   */\n      0x20\n        /* \"#utility.yul\":2914:2964   */\n      tag_114\n        /* \"#utility.yul\":2956:2963   */\n      dup6\n        /* \"#utility.yul\":2947:2953   */\n      dup3\n        /* \"#utility.yul\":2936:2945   */\n      dup7\n        /* \"#utility.yul\":2932:2954   */\n      add\n        /* \"#utility.yul\":2914:2964   */\n      tag_72\n      jump\t// in\n    tag_114:\n        /* \"#utility.yul\":2904:2964   */\n      swap2\n      pop\n        /* \"#utility.yul\":2859:2974   */\n      pop\n        /* \"#utility.yul\":2515:2981   */\n      swap3\n      pop\n      swap3\n      swap1\n      pop\n      jump\t// out\n        /* \"#utility.yul\":2987:3167   */\n    tag_73:\n        /* \"#utility.yul\":3035:3112   */\n      0x4e487b7100000000000000000000000000000000000000000000000000000000\n        /* \"#utility.yul\":3032:3033   */\n      0x00\n        /* \"#utility.yul\":3025:3113   */\n      mstore\n        /* \"#utility.yul\":3132:3136   */\n      0x11\n        /* \"#utility.yul\":3129:3130   */\n      0x04\n        /* \"#utility.yul\":3122:3137   */\n      mstore\n        /* \"#utility.yul\":3156:3160   */\n      0x24\n        /* \"#utility.yul\":3153:3154   */\n      0x00\n        /* \"#utility.yul\":3146:3161   */\n      revert\n        /* \"#utility.yul\":3173:3729   */\n    tag_47:\n        /* \"#utility.yul\":3212:3219   */\n      0x00\n        /* \"#utility.yul\":3235:3254   */\n      tag_117\n        /* \"#utility.yul\":3252:3253   */\n      dup3\n        /* \"#utility.yul\":3235:3254   */\n      tag_65\n      jump\t// in\n    tag_117:\n        /* \"#utility.yul\":3230:3254   */\n      swap2\n      pop\n        /* \"#utility.yul\":3268:3287   */\n      tag_118\n        /* \"#utility.yul\":3285:3286   */\n      dup4\n        /* \"#utility.yul\":3268:3287   */\n      tag_65\n      jump\t// in\n    tag_118:\n        /* \"#utility.yul\":3263:3287   */\n      swap3\n      pop\n        /* \"#utility.yul\":3322:3323   */\n      dup3\n        /* \"#utility.yul\":3319:3320   */\n      dup3\n        /* \"#utility.yul\":3315:3324   */\n      mul\n        /* \"#utility.yul\":3344:3373   */\n      tag_119\n        /* \"#utility.yul\":3361:3372   */\n      dup2\n        /* \"#utility.yul\":3344:3373   */\n      tag_65\n      jump\t// in\n    tag_119:\n        /* \"#utility.yul\":3333:3373   */\n      swap2\n      pop\n        /* \"#utility.yul\":3431:3497   */\n      0x8000000000000000000000000000000000000000000000000000000000000000\n        /* \"#utility.yul\":3428:3429   */\n      dup5\n        /* \"#utility.yul\":3425:3498   */\n      eq\n        /* \"#utility.yul\":3421:3422   */\n      0x00\n        /* \"#utility.yul\":3418:3419   */\n      dup5\n        /* \"#utility.yul\":3414:3423   */\n      slt\n        /* \"#utility.yul\":3410:3499   */\n      and\n        /* \"#utility.yul\":3407:3522   */\n      iszero\n      tag_120\n      jumpi\n        /* \"#utility.yul\":3502:3520   */\n      tag_121\n      tag_73\n      jump\t// in\n    tag_121:\n        /* \"#utility.yul\":3407:3522   */\n    tag_120:\n        /* \"#utility.yul\":3672:3673   */\n      dup3\n        /* \"#utility.yul\":3663:3670   */\n      dup3\n        /* \"#utility.yul\":3658:3674   */\n      sdiv\n        /* \"#utility.yul\":3655:3656   */\n      dup5\n        /* \"#utility.yul\":3652:3675   */\n      eq\n        /* \"#utility.yul\":3632:3633   */\n      dup4\n        /* \"#utility.yul\":3625:3634   */\n      iszero\n        /* \"#utility.yul\":3605:3689   */\n      or\n        /* \"#utility.yul\":3582:3722   */\n      tag_122\n      jumpi\n        /* \"#utility.yul\":3702:3720   */\n      tag_123\n      tag_73\n      jump\t// in\n    tag_123:\n        /* \"#utility.yul\":3582:3722   */\n    tag_122:\n        /* \"#utility.yul\":3220:3729   */\n      pop\n        /* \"#utility.yul\":3173:3729   */\n      swap3\n      swap2\n      pop\n      pop\n      jump\t// out\n        /* \"#utility.yul\":3735:4107   */\n    tag_50:\n        /* \"#utility.yul\":3774:3778   */\n      0x00\n        /* \"#utility.yul\":3794:3813   */\n      tag_125\n        /* \"#utility.yul\":3811:3812   */\n      dup3\n        /* \"#utility.yul\":3794:3813   */\n      tag_65\n      jump\t// in\n    tag_125:\n        /* \"#utility.yul\":3789:3813   */\n      swap2\n      pop\n        /* \"#utility.yul\":3827:3846   */\n      tag_126\n        /* \"#utility.yul\":3844:3845   */\n      dup4\n        /* \"#utility.yul\":3827:3846   */\n      tag_65\n      jump\t// in\n    tag_126:\n        /* \"#utility.yul\":3822:3846   */\n      swap3\n      pop\n        /* \"#utility.yul\":3870:3871   */\n      dup3\n        /* \"#utility.yul\":3867:3868   */\n      dup3\n        /* \"#utility.yul\":3863:3872   */\n      sub\n        /* \"#utility.yul\":3855:3872   */\n      swap1\n      pop\n        /* \"#utility.yul\":4064:4065   */\n      dup2\n        /* \"#utility.yul\":4058:4062   */\n      dup2\n        /* \"#utility.yul\":4054:4066   */\n      slt\n        /* \"#utility.yul\":4050:4051   */\n      0x00\n        /* \"#utility.yul\":4047:4048   */\n      dup5\n        /* \"#utility.yul\":4043:4052   */\n      slt\n        /* \"#utility.yul\":4039:4067   */\n      and\n        /* \"#utility.yul\":4022:4023   */\n      dup3\n        /* \"#utility.yul\":4016:4020   */\n      dup3\n        /* \"#utility.yul\":4012:4024   */\n      sgt\n        /* \"#utility.yul\":4007:4008   */\n      0x00\n        /* \"#utility.yul\":4004:4005   */\n      dup6\n        /* \"#utility.yul\":4000:4009   */\n      slt\n        /* \"#utility.yul\":3993:4010   */\n      iszero\n        /* \"#utility.yul\":3989:4025   */\n      and\n        /* \"#utility.yul\":3973:4077   */\n      or\n        /* \"#utility.yul\":3970:4100   */\n      iszero\n      tag_127\n      jumpi\n        /* \"#utility.yul\":4080:4098   */\n      tag_128\n      tag_73\n      jump\t// in\n    tag_128:\n        /* \"#utility.yul\":3970:4100   */\n    tag_127:\n        /* \"#utility.yul\":3735:4107   */\n      swap3\n      swap2\n      pop\n      pop\n      jump\t// out\n        /* \"#utility.yul\":4113:4488   */\n    tag_54:\n        /* \"#utility.yul\":4152:4155   */\n      0x00\n        /* \"#utility.yul\":4171:4190   */\n      tag_130\n        /* \"#utility.yul\":4188:4189   */\n      dup3\n        /* \"#utility.yul\":4171:4190   */\n      tag_65\n      jump\t// in\n    tag_130:\n        /* \"#utility.yul\":4166:4190   */\n      swap2\n      pop\n        /* \"#utility.yul\":4204:4223   */\n      tag_131\n        /* \"#utility.yul\":4221:4222   */\n      dup4\n        /* \"#utility.yul\":4204:4223   */\n      tag_65\n      jump\t// in\n    tag_131:\n        /* \"#utility.yul\":4199:4223   */\n      swap3\n      pop\n        /* \"#utility.yul\":4246:4247   */\n      dup3\n        /* \"#utility.yul\":4243:4244   */\n      dup3\n        /* \"#utility.yul\":4239:4248   */\n      add\n        /* \"#utility.yul\":4232:4248   */\n      swap1\n      pop\n        /* \"#utility.yul\":4444:4445   */\n      dup3\n        /* \"#utility.yul\":4439:4442   */\n      dup2\n        /* \"#utility.yul\":4435:4446   */\n      slt\n        /* \"#utility.yul\":4428:4447   */\n      iszero\n        /* \"#utility.yul\":4424:4425   */\n      0x00\n        /* \"#utility.yul\":4421:4422   */\n      dup4\n        /* \"#utility.yul\":4417:4426   */\n      slt\n        /* \"#utility.yul\":4413:4448   */\n      and\n        /* \"#utility.yul\":4396:4397   */\n      dup4\n        /* \"#utility.yul\":4391:4394   */\n      dup3\n        /* \"#utility.yul\":4387:4398   */\n      slt\n        /* \"#utility.yul\":4382:4383   */\n      0x00\n        /* \"#utility.yul\":4379:4380   */\n      dup5\n        /* \"#utility.yul\":4375:4384   */\n      slt\n        /* \"#utility.yul\":4368:4385   */\n      iszero\n        /* \"#utility.yul\":4364:4399   */\n      and\n        /* \"#utility.yul\":4348:4458   */\n      or\n        /* \"#utility.yul\":4345:4481   */\n      iszero\n      tag_132\n      jumpi\n        /* \"#utility.yul\":4461:4479   */\n      tag_133\n      tag_73\n      jump\t// in\n    tag_133:\n        /* \"#utility.yul\":4345:4481   */\n    tag_132:\n        /* \"#utility.yul\":4113:4488   */\n      swap3\n      swap2\n      pop\n      pop\n      jump\t// out\n        /* \"#utility.yul\":4494:4663   */\n    tag_74:\n        /* \"#utility.yul\":4578:4589   */\n      0x00\n        /* \"#utility.yul\":4612:4618   */\n      dup3\n        /* \"#utility.yul\":4607:4610   */\n      dup3\n        /* \"#utility.yul\":4600:4619   */\n      mstore\n        /* \"#utility.yul\":4652:4656   */\n      0x20\n        /* \"#utility.yul\":4647:4650   */\n      dup3\n        /* \"#utility.yul\":4643:4657   */\n      add\n        /* \"#utility.yul\":4628:4657   */\n      swap1\n      pop\n        /* \"#utility.yul\":4494:4663   */\n      swap3\n      swap2\n      pop\n      pop\n      jump\t// out\n        /* \"#utility.yul\":4669:4850   */\n    tag_75:\n        /* \"#utility.yul\":4809:4842   */\n      0x4469766973696f6e206279207a65726f206973206e6f7420616c6c6f77656400\n        /* \"#utility.yul\":4805:4806   */\n      0x00\n        /* \"#utility.yul\":4797:4803   */\n      dup3\n        /* \"#utility.yul\":4793:4807   */\n      add\n        /* \"#utility.yul\":4786:4843   */\n      mstore\n        /* \"#utility.yul\":4669:4850   */\n      pop\n      jump\t// out\n        /* \"#utility.yul\":4856:5222   */\n    tag_76:\n        /* \"#utility.yul\":4998:5001   */\n      0x00\n        /* \"#utility.yul\":5019:5086   */\n      tag_137\n        /* \"#utility.yul\":5083:5085   */\n      0x1f\n        /* \"#utility.yul\":5078:5081   */\n      dup4\n        /* \"#utility.yul\":5019:5086   */\n      tag_74\n      jump\t// in\n    tag_137:\n        /* \"#utility.yul\":5012:5086   */\n      swap2\n      pop\n        /* \"#utility.yul\":5095:5188   */\n      tag_138\n        /* \"#utility.yul\":5184:5187   */\n      dup3\n        /* \"#utility.yul\":5095:5188   */\n      tag_75\n      jump\t// in\n    tag_138:\n        /* \"#utility.yul\":5213:5215   */\n      0x20\n        /* \"#utility.yul\":5208:5211   */\n      dup3\n        /* \"#utility.yul\":5204:5216   */\n      add\n        /* \"#utility.yul\":5197:5216   */\n      swap1\n      pop\n        /* \"#utility.yul\":4856:5222   */\n      swap2\n      swap1\n      pop\n      jump\t// out\n        /* \"#utility.yul\":5228:5647   */\n    tag_59:\n        /* \"#utility.yul\":5394:5398   */\n      0x00\n        /* \"#utility.yul\":5432:5434   */\n      0x20\n        /* \"#utility.yul\":5421:5430   */\n      dup3\n        /* \"#utility.yul\":5417:5435   */\n      add\n        /* \"#utility.yul\":5409:5435   */\n      swap1\n      pop\n        /* \"#utility.yul\":5481:5490   */\n      dup2\n        /* \"#utility.yul\":5475:5479   */\n      dup2\n        /* \"#utility.yul\":5471:5491   */\n      sub\n        /* \"#utility.yul\":5467:5468   */\n      0x00\n        /* \"#utility.yul\":5456:5465   */\n      dup4\n        /* \"#utility.yul\":5452:5469   */\n      add\n        /* \"#utility.yul\":5445:5492   */\n      mstore\n        /* \"#utility.yul\":5509:5640   */\n      tag_140\n        /* \"#utility.yul\":5635:5639   */\n      dup2\n        /* \"#utility.yul\":5509:5640   */\n      tag_76\n      jump\t// in\n    tag_140:\n        /* \"#utility.yul\":5501:5640   */\n      swap1\n      pop\n        /* \"#utility.yul\":5228:5647   */\n      swap2\n      swap1\n      pop\n      jump\t// out\n        /* \"#utility.yul\":5653:5833   */\n    tag_77:\n        /* \"#utility.yul\":5701:5778   */\n      0x4e487b7100000000000000000000000000000000000000000000000000000000\n        /* \"#utility.yul\":5698:5699   */\n      0x00\n        /* \"#utility.yul\":5691:5779   */\n      mstore\n        /* \"#utility.yul\":5798:5802   */\n      0x12\n        /* \"#utility.yul\":5795:5796   */\n      0x04\n        /* \"#utility.yul\":5788:5803   */\n      mstore\n        /* \"#utility.yul\":5822:5826   */\n      0x24\n        /* \"#utility.yul\":5819:5820   */\n      0x00\n        /* \"#utility.yul\":5812:5827   */\n      revert\n        /* \"#utility.yul\":5839:6224   */\n    tag_61:\n        /* \"#utility.yul\":5878:5879   */\n      0x00\n        /* \"#utility.yul\":5895:5914   */\n      tag_143\n        /* \"#utility.yul\":5912:5913   */\n      dup3\n        /* \"#utility.yul\":5895:5914   */\n      tag_65\n      jump\t// in\n    tag_143:\n        /* \"#utility.yul\":5890:5914   */\n      swap2\n      pop\n        /* \"#utility.yul\":5928:5947   */\n      tag_144\n        /* \"#utility.yul\":5945:5946   */\n      dup4\n        /* \"#utility.yul\":5928:5947   */\n      tag_65\n      jump\t// in\n    tag_144:\n        /* \"#utility.yul\":5923:5947   */\n      swap3\n      pop\n        /* \"#utility.yul\":5966:5967   */\n      dup3\n        /* \"#utility.yul\":5956:5991   */\n      tag_145\n      jumpi\n        /* \"#utility.yul\":5971:5989   */\n      tag_146\n      tag_77\n      jump\t// in\n    tag_146:\n        /* \"#utility.yul\":5956:5991   */\n    tag_145:\n        /* \"#utility.yul\":6157:6158   */\n      0x01\n        /* \"#utility.yul\":6154:6155   */\n      0x00\n        /* \"#utility.yul\":6150:6159   */\n      sub\n        /* \"#utility.yul\":6147:6148   */\n      dup4\n        /* \"#utility.yul\":6144:6160   */\n      eq\n        /* \"#utility.yul\":6063:6129   */\n      0x8000000000000000000000000000000000000000000000000000000000000000\n        /* \"#utility.yul\":6060:6061   */\n      dup4\n        /* \"#utility.yul\":6057:6130   */\n      eq\n        /* \"#utility.yul\":6040:6170   */\n      and\n        /* \"#utility.yul\":6037:6193   */\n      iszero\n      tag_147\n      jumpi\n        /* \"#utility.yul\":6173:6191   */\n      tag_148\n      tag_73\n      jump\t// in\n    tag_148:\n        /* \"#utility.yul\":6037:6193   */\n    tag_147:\n        /* \"#utility.yul\":6216:6217   */\n      dup3\n        /* \"#utility.yul\":6213:6214   */\n      dup3\n        /* \"#utility.yul\":6208:6218   */\n      sdiv\n        /* \"#utility.yul\":6203:6218   */\n      swap1\n      pop\n        /* \"#utility.yul\":5839:6224   */\n      swap3\n      swap2\n      pop\n      pop\n      jump\t// out\n\n    auxdata: 0xa26469706673582212203034a431526d4e5591a9dd8c529d3d40ab44ddbc53c8662d7648bce462eda3b864736f6c634300081a0033\n}\n",
				"bytecode": {
					"linkReferences": {},
					"object": "608060405234801561000f575f80fd5b50604051610784380380610784833981810160405281019061003191906100c6565b815f819055508060015f6101000a81548160ff02191690835f0b60ff1602179055505050610104565b5f80fd5b5f819050919050565b6100708161005e565b811461007a575f80fd5b50565b5f8151905061008b81610067565b92915050565b5f815f0b9050919050565b6100a581610091565b81146100af575f80fd5b50565b5f815190506100c08161009c565b92915050565b5f80604083850312156100dc576100db61005a565b5b5f6100e98582860161007d565b92505060206100fa858286016100b2565b9150509250929050565b610673806101115f395ff3fe608060405234801561000f575f80fd5b5060043610610086575f3560e01c806389f915f61161005957806389f915f6146101265780639400c2e01461014557806394d60d5514610175578063d6d064601461019157610086565b806308d1e6fb1461008a5780636670cde0146100ba578063687cb7d2146100d85780637038447a146100f6575b5f80fd5b6100a4600480360381019061009f91906102e4565b6101c1565b6040516100b19190610331565b60405180910390f35b6100c26101d6565b6040516100cf9190610331565b60405180910390f35b6100e06101db565b6040516100ed9190610364565b60405180910390f35b610110600480360381019061010b91906102e4565b6101ec565b60405161011d9190610331565b60405180910390f35b61012e610201565b60405161013c92919061037d565b60405180910390f35b61015f600480360381019061015a91906102e4565b61021b565b60405161016c9190610331565b60405180910390f35b61018f600480360381019061018a91906103ce565b610230565b005b6101ab60048036038101906101a691906102e4565b610256565b6040516101b89190610331565b60405180910390f35b5f81836101ce9190610439565b905092915050565b5f5481565b60015f9054906101000a90045f0b81565b5f81836101f991906104af565b905092915050565b5f805f5460015f9054906101000a90045f0b915091509091565b5f818361022891906104ef565b905092915050565b815f819055508060015f6101000a81548160ff02191690835f0b60ff1602179055505050565b5f808203610299576040517f08c379a00000000000000000000000000000000000000000000000000000000081526004016102909061058a565b60405180910390fd5b81836102a591906105d5565b905092915050565b5f80fd5b5f819050919050565b6102c3816102b1565b81146102cd575f80fd5b50565b5f813590506102de816102ba565b92915050565b5f80604083850312156102fa576102f96102ad565b5b5f610307858286016102d0565b9250506020610318858286016102d0565b9150509250929050565b61032b816102b1565b82525050565b5f6020820190506103445f830184610322565b92915050565b5f815f0b9050919050565b61035e8161034a565b82525050565b5f6020820190506103775f830184610355565b92915050565b5f6040820190506103905f830185610322565b61039d6020830184610355565b9392505050565b6103ad8161034a565b81146103b7575f80fd5b50565b5f813590506103c8816103a4565b92915050565b5f80604083850312156103e4576103e36102ad565b5b5f6103f1858286016102d0565b9250506020610402858286016103ba565b9150509250929050565b7f4e487b71000000000000000000000000000000000000000000000000000000005f52601160045260245ffd5b5f610443826102b1565b915061044e836102b1565b925082820261045c816102b1565b91507f800000000000000000000000000000000000000000000000000000000000000084145f841216156104935761049261040c565b5b82820584148315176104a8576104a761040c565b5b5092915050565b5f6104b9826102b1565b91506104c4836102b1565b925082820390508181125f8412168282135f8512151617156104e9576104e861040c565b5b92915050565b5f6104f9826102b1565b9150610504836102b1565b92508282019050828112155f8312168382125f84121516171561052a5761052961040c565b5b92915050565b5f82825260208201905092915050565b7f4469766973696f6e206279207a65726f206973206e6f7420616c6c6f776564005f82015250565b5f610574601f83610530565b915061057f82610540565b602082019050919050565b5f6020820190508181035f8301526105a181610568565b9050919050565b7f4e487b71000000000000000000000000000000000000000000000000000000005f52601260045260245ffd5b5f6105df826102b1565b91506105ea836102b1565b9250826105fa576105f96105a8565b5b60015f0383147f8000000000000000000000000000000000000000000000000000000000000000831416156106325761063161040c565b5b82820590509291505056fea26469706673582212203034a431526d4e5591a9dd8c529d3d40ab44ddbc53c8662d7648bce462eda3b864736f6c634300081a0033",
					"opcodes": "PUSH1 0x80 PUSH1 0x40 MSTORE CALLVALUE DUP1 ISZERO PUSH2 0xF JUMPI PUSH0 DUP1 REVERT JUMPDEST POP PUSH1 0x40 MLOAD PUSH2 0x784 CODESIZE SUB DUP1 PUSH2 0x784 DUP4 CODECOPY DUP2 DUP2 ADD PUSH1 0x40 MSTORE DUP2 ADD SWAP1 PUSH2 0x31 SWAP2 SWAP1 PUSH2 0xC6 JUMP JUMPDEST DUP2 PUSH0 DUP2 SWAP1 SSTORE POP DUP1 PUSH1 0x1 PUSH0 PUSH2 0x100 EXP DUP2 SLOAD DUP2 PUSH1 0xFF MUL NOT AND SWAP1 DUP4 PUSH0 SIGNEXTEND PUSH1 0xFF AND MUL OR SWAP1 SSTORE POP POP POP PUSH2 0x104 JUMP JUMPDEST PUSH0 DUP1 REVERT JUMPDEST PUSH0 DUP2 SWAP1 POP SWAP2 SWAP1 POP JUMP JUMPDEST PUSH2 0x70 DUP2 PUSH2 0x5E JUMP JUMPDEST DUP2 EQ PUSH2 0x7A JUMPI PUSH0 DUP1 REVERT JUMPDEST POP JUMP JUMPDEST PUSH0 DUP2 MLOAD SWAP1 POP PUSH2 0x8B DUP2 PUSH2 0x67 JUMP JUMPDEST SWAP3 SWAP2 POP POP JUMP JUMPDEST PUSH0 DUP2 PUSH0 SIGNEXTEND SWAP1 POP SWAP2 SWAP1 POP JUMP JUMPDEST PUSH2 0xA5 DUP2 PUSH2 0x91 JUMP JUMPDEST DUP2 EQ PUSH2 0xAF JUMPI PUSH0 DUP1 REVERT JUMPDEST POP JUMP JUMPDEST PUSH0 DUP2 MLOAD SWAP1 POP PUSH2 0xC0 DUP2 PUSH2 0x9C JUMP JUMPDEST SWAP3 SWAP2 POP POP JUMP JUMPDEST PUSH0 DUP1 PUSH1 0x40 DUP4 DUP6 SUB SLT ISZERO PUSH2 0xDC JUMPI PUSH2 0xDB PUSH2 0x5A JUMP JUMPDEST JUMPDEST PUSH0 PUSH2 0xE9 DUP6 DUP3 DUP7 ADD PUSH2 0x7D JUMP JUMPDEST SWAP3 POP POP PUSH1 0x20 PUSH2 0xFA DUP6 DUP3 DUP7 ADD PUSH2 0xB2 JUMP JUMPDEST SWAP2 POP POP SWAP3 POP SWAP3 SWAP1 POP JUMP JUMPDEST PUSH2 0x673 DUP1 PUSH2 0x111 PUSH0 CODECOPY PUSH0 RETURN INVALID PUSH1 0x80 PUSH1 0x40 MSTORE CALLVALUE DUP1 ISZERO PUSH2 0xF JUMPI PUSH0 DUP1 REVERT JUMPDEST POP PUSH1 0x4 CALLDATASIZE LT PUSH2 0x86 JUMPI PUSH0 CALLDATALOAD PUSH1 0xE0 SHR DUP1 PUSH4 0x89F915F6 GT PUSH2 0x59 JUMPI DUP1 PUSH4 0x89F915F6 EQ PUSH2 0x126 JUMPI DUP1 PUSH4 0x9400C2E0 EQ PUSH2 0x145 JUMPI DUP1 PUSH4 0x94D60D55 EQ PUSH2 0x175 JUMPI DUP1 PUSH4 0xD6D06460 EQ PUSH2 0x191 JUMPI PUSH2 0x86 JUMP JUMPDEST DUP1 PUSH4 0x8D1E6FB EQ PUSH2 0x8A JUMPI DUP1 PUSH4 0x6670CDE0 EQ PUSH2 0xBA JUMPI DUP1 PUSH4 0x687CB7D2 EQ PUSH2 0xD8 JUMPI DUP1 PUSH4 0x7038447A EQ PUSH2 0xF6 JUMPI JUMPDEST PUSH0 DUP1 REVERT JUMPDEST PUSH2 0xA4 PUSH1 0x4 DUP1 CALLDATASIZE SUB DUP2 ADD SWAP1 PUSH2 0x9F SWAP2 SWAP1 PUSH2 0x2E4 JUMP JUMPDEST PUSH2 0x1C1 JUMP JUMPDEST PUSH1 0x40 MLOAD PUSH2 0xB1 SWAP2 SWAP1 PUSH2 0x331 JUMP JUMPDEST PUSH1 0x40 MLOAD DUP1 SWAP2 SUB SWAP1 RETURN JUMPDEST PUSH2 0xC2 PUSH2 0x1D6 JUMP JUMPDEST PUSH1 0x40 MLOAD PUSH2 0xCF SWAP2 SWAP1 PUSH2 0x331 JUMP JUMPDEST PUSH1 0x40 MLOAD DUP1 SWAP2 SUB SWAP1 RETURN JUMPDEST PUSH2 0xE0 PUSH2 0x1DB JUMP JUMPDEST PUSH1 0x40 MLOAD PUSH2 0xED SWAP2 SWAP1 PUSH2 0x364 JUMP JUMPDEST PUSH1 0x40 MLOAD DUP1 SWAP2 SUB SWAP1 RETURN JUMPDEST PUSH2 0x110 PUSH1 0x4 DUP1 CALLDATASIZE SUB DUP2 ADD SWAP1 PUSH2 0x10B SWAP2 SWAP1 PUSH2 0x2E4 JUMP JUMPDEST PUSH2 0x1EC JUMP JUMPDEST PUSH1 0x40 MLOAD PUSH2 0x11D SWAP2 SWAP1 PUSH2 0x331 JUMP JUMPDEST PUSH1 0x40 MLOAD DUP1 SWAP2 SUB SWAP1 RETURN JUMPDEST PUSH2 0x12E PUSH2 0x201 JUMP JUMPDEST PUSH1 0x40 MLOAD PUSH2 0x13C SWAP3 SWAP2 SWAP1 PUSH2 0x37D JUMP JUMPDEST PUSH1 0x40 MLOAD DUP1 SWAP2 SUB SWAP1 RETURN JUMPDEST PUSH2 0x15F PUSH1 0x4 DUP1 CALLDATASIZE SUB DUP2 ADD SWAP1 PUSH2 0x15A SWAP2 SWAP1 PUSH2 0x2E4 JUMP JUMPDEST PUSH2 0x21B JUMP JUMPDEST PUSH1 0x40 MLOAD PUSH2 0x16C SWAP2 SWAP1 PUSH2 0x331 JUMP JUMPDEST PUSH1 0x40 MLOAD DUP1 SWAP2 SUB SWAP1 RETURN JUMPDEST PUSH2 0x18F PUSH1 0x4 DUP1 CALLDATASIZE SUB DUP2 ADD SWAP1 PUSH2 0x18A SWAP2 SWAP1 PUSH2 0x3CE JUMP JUMPDEST PUSH2 0x230 JUMP JUMPDEST STOP JUMPDEST PUSH2 0x1AB PUSH1 0x4 DUP1 CALLDATASIZE SUB DUP2 ADD SWAP1 PUSH2 0x1A6 SWAP2 SWAP1 PUSH2 0x2E4 JUMP JUMPDEST PUSH2 0x256 JUMP JUMPDEST PUSH1 0x40 MLOAD PUSH2 0x1B8 SWAP2 SWAP1 PUSH2 0x331 JUMP JUMPDEST PUSH1 0x40 MLOAD DUP1 SWAP2 SUB SWAP1 RETURN JUMPDEST PUSH0 DUP2 DUP4 PUSH2 0x1CE SWAP2 SWAP1 PUSH2 0x439 JUMP JUMPDEST SWAP1 POP SWAP3 SWAP2 POP POP JUMP JUMPDEST PUSH0 SLOAD DUP2 JUMP JUMPDEST PUSH1 0x1 PUSH0 SWAP1 SLOAD SWAP1 PUSH2 0x100 EXP SWAP1 DIV PUSH0 SIGNEXTEND DUP2 JUMP JUMPDEST PUSH0 DUP2 DUP4 PUSH2 0x1F9 SWAP2 SWAP1 PUSH2 0x4AF JUMP JUMPDEST SWAP1 POP SWAP3 SWAP2 POP POP JUMP JUMPDEST PUSH0 DUP1 PUSH0 SLOAD PUSH1 0x1 PUSH0 SWAP1 SLOAD SWAP1 PUSH2 0x100 EXP SWAP1 DIV PUSH0 SIGNEXTEND SWAP2 POP SWAP2 POP SWAP1 SWAP2 JUMP JUMPDEST PUSH0 DUP2 DUP4 PUSH2 0x228 SWAP2 SWAP1 PUSH2 0x4EF JUMP JUMPDEST SWAP1 POP SWAP3 SWAP2 POP POP JUMP JUMPDEST DUP2 PUSH0 DUP2 SWAP1 SSTORE POP DUP1 PUSH1 0x1 PUSH0 PUSH2 0x100 EXP DUP2 SLOAD DUP2 PUSH1 0xFF MUL NOT AND SWAP1 DUP4 PUSH0 SIGNEXTEND PUSH1 0xFF AND MUL OR SWAP1 SSTORE POP POP POP JUMP JUMPDEST PUSH0 DUP1 DUP3 SUB PUSH2 0x299 JUMPI PUSH1 0x40 MLOAD PUSH32 0x8C379A000000000000000000000000000000000000000000000000000000000 DUP2 MSTORE PUSH1 0x4 ADD PUSH2 0x290 SWAP1 PUSH2 0x58A JUMP JUMPDEST PUSH1 0x40 MLOAD DUP1 SWAP2 SUB SWAP1 REVERT JUMPDEST DUP2 DUP4 PUSH2 0x2A5 SWAP2 SWAP1 PUSH2 0x5D5 JUMP JUMPDEST SWAP1 POP SWAP3 SWAP2 POP POP JUMP JUMPDEST PUSH0 DUP1 REVERT JUMPDEST PUSH0 DUP2 SWAP1 POP SWAP2 SWAP1 POP JUMP JUMPDEST PUSH2 0x2C3 DUP2 PUSH2 0x2B1 JUMP JUMPDEST DUP2 EQ PUSH2 0x2CD JUMPI PUSH0 DUP1 REVERT JUMPDEST POP JUMP JUMPDEST PUSH0 DUP2 CALLDATALOAD SWAP1 POP PUSH2 0x2DE DUP2 PUSH2 0x2BA JUMP JUMPDEST SWAP3 SWAP2 POP POP JUMP JUMPDEST PUSH0 DUP1 PUSH1 0x40 DUP4 DUP6 SUB SLT ISZERO PUSH2 0x2FA JUMPI PUSH2 0x2F9 PUSH2 0x2AD JUMP JUMPDEST JUMPDEST PUSH0 PUSH2 0x307 DUP6 DUP3 DUP7 ADD PUSH2 0x2D0 JUMP JUMPDEST SWAP3 POP POP PUSH1 0x20 PUSH2 0x318 DUP6 DUP3 DUP7 ADD PUSH2 0x2D0 JUMP JUMPDEST SWAP2 POP POP SWAP3 POP SWAP3 SWAP1 POP JUMP JUMPDEST PUSH2 0x32B DUP2 PUSH2 0x2B1 JUMP JUMPDEST DUP3 MSTORE POP POP JUMP JUMPDEST PUSH0 PUSH1 0x20 DUP3 ADD SWAP1 POP PUSH2 0x344 PUSH0 DUP4 ADD DUP5 PUSH2 0x322 JUMP JUMPDEST SWAP3 SWAP2 POP POP JUMP JUMPDEST PUSH0 DUP2 PUSH0 SIGNEXTEND SWAP1 POP SWAP2 SWAP1 POP JUMP JUMPDEST PUSH2 0x35E DUP2 PUSH2 0x34A JUMP JUMPDEST DUP3 MSTORE POP POP JUMP JUMPDEST PUSH0 PUSH1 0x20 DUP3 ADD SWAP1 POP PUSH2 0x377 PUSH0 DUP4 ADD DUP5 PUSH2 0x355 JUMP JUMPDEST SWAP3 SWAP2 POP POP JUMP JUMPDEST PUSH0 PUSH1 0x40 DUP3 ADD SWAP1 POP PUSH2 0x390 PUSH0 DUP4 ADD DUP6 PUSH2 0x322 JUMP JUMPDEST PUSH2 0x39D PUSH1 0x20 DUP4 ADD DUP5 PUSH2 0x355 JUMP JUMPDEST SWAP4 SWAP3 POP POP POP JUMP JUMPDEST PUSH2 0x3AD DUP2 PUSH2 0x34A JUMP JUMPDEST DUP2 EQ PUSH2 0x3B7 JUMPI PUSH0 DUP1 REVERT JUMPDEST POP JUMP JUMPDEST PUSH0 DUP2 CALLDATALOAD SWAP1 POP PUSH2 0x3C8 DUP2 PUSH2 0x3A4 JUMP JUMPDEST SWAP3 SWAP2 POP POP JUMP JUMPDEST PUSH0 DUP1 PUSH1 0x40 DUP4 DUP6 SUB SLT ISZERO PUSH2 0x3E4 JUMPI PUSH2 0x3E3 PUSH2 0x2AD JUMP JUMPDEST JUMPDEST PUSH0 PUSH2 0x3F1 DUP6 DUP3 DUP7 ADD PUSH2 0x2D0 JUMP JUMPDEST SWAP3 POP POP PUSH1 0x20 PUSH2 0x402 DUP6 DUP3 DUP7 ADD PUSH2 0x3BA JUMP JUMPDEST SWAP2 POP POP SWAP3 POP SWAP3 SWAP1 POP JUMP JUMPDEST PUSH32 0x4E487B7100000000000000000000000000000000000000000000000000000000 PUSH0 MSTORE PUSH1 0x11 PUSH1 0x4 MSTORE PUSH1 0x24 PUSH0 REVERT JUMPDEST PUSH0 PUSH2 0x443 DUP3 PUSH2 0x2B1 JUMP JUMPDEST SWAP2 POP PUSH2 0x44E DUP4 PUSH2 0x2B1 JUMP JUMPDEST SWAP3 POP DUP3 DUP3 MUL PUSH2 0x45C DUP2 PUSH2 0x2B1 JUMP JUMPDEST SWAP2 POP PUSH32 0x8000000000000000000000000000000000000000000000000000000000000000 DUP5 EQ PUSH0 DUP5 SLT AND ISZERO PUSH2 0x493 JUMPI PUSH2 0x492 PUSH2 0x40C JUMP JUMPDEST JUMPDEST DUP3 DUP3 SDIV DUP5 EQ DUP4 ISZERO OR PUSH2 0x4A8 JUMPI PUSH2 0x4A7 PUSH2 0x40C JUMP JUMPDEST JUMPDEST POP SWAP3 SWAP2 POP POP JUMP JUMPDEST PUSH0 PUSH2 0x4B9 DUP3 PUSH2 0x2B1 JUMP JUMPDEST SWAP2 POP PUSH2 0x4C4 DUP4 PUSH2 0x2B1 JUMP JUMPDEST SWAP3 POP DUP3 DUP3 SUB SWAP1 POP DUP2 DUP2 SLT PUSH0 DUP5 SLT AND DUP3 DUP3 SGT PUSH0 DUP6 SLT ISZERO AND OR ISZERO PUSH2 0x4E9 JUMPI PUSH2 0x4E8 PUSH2 0x40C JUMP JUMPDEST JUMPDEST SWAP3 SWAP2 POP POP JUMP JUMPDEST PUSH0 PUSH2 0x4F9 DUP3 PUSH2 0x2B1 JUMP JUMPDEST SWAP2 POP PUSH2 0x504 DUP4 PUSH2 0x2B1 JUMP JUMPDEST SWAP3 POP DUP3 DUP3 ADD SWAP1 POP DUP3 DUP2 SLT ISZERO PUSH0 DUP4 SLT AND DUP4 DUP3 SLT PUSH0 DUP5 SLT ISZERO AND OR ISZERO PUSH2 0x52A JUMPI PUSH2 0x529 PUSH2 0x40C JUMP JUMPDEST JUMPDEST SWAP3 SWAP2 POP POP JUMP JUMPDEST PUSH0 DUP3 DUP3 MSTORE PUSH1 0x20 DUP3 ADD SWAP1 POP SWAP3 SWAP2 POP POP JUMP JUMPDEST PUSH32 0x4469766973696F6E206279207A65726F206973206E6F7420616C6C6F77656400 PUSH0 DUP3 ADD MSTORE POP JUMP JUMPDEST PUSH0 PUSH2 0x574 PUSH1 0x1F DUP4 PUSH2 0x530 JUMP JUMPDEST SWAP2 POP PUSH2 0x57F DUP3 PUSH2 0x540 JUMP JUMPDEST PUSH1 0x20 DUP3 ADD SWAP1 POP SWAP2 SWAP1 POP JUMP JUMPDEST PUSH0 PUSH1 0x20 DUP3 ADD SWAP1 POP DUP2 DUP2 SUB PUSH0 DUP4 ADD MSTORE PUSH2 0x5A1 DUP2 PUSH2 0x568 JUMP JUMPDEST SWAP1 POP SWAP2 SWAP1 POP JUMP JUMPDEST PUSH32 0x4E487B7100000000000000000000000000000000000000000000000000000000 PUSH0 MSTORE PUSH1 0x12 PUSH1 0x4 MSTORE PUSH1 0x24 PUSH0 REVERT JUMPDEST PUSH0 PUSH2 0x5DF DUP3 PUSH2 0x2B1 JUMP JUMPDEST SWAP2 POP PUSH2 0x5EA DUP4 PUSH2 0x2B1 JUMP JUMPDEST SWAP3 POP DUP3 PUSH2 0x5FA JUMPI PUSH2 0x5F9 PUSH2 0x5A8 JUMP JUMPDEST JUMPDEST PUSH1 0x1 PUSH0 SUB DUP4 EQ PUSH32 0x8000000000000000000000000000000000000000000000000000000000000000 DUP4 EQ AND ISZERO PUSH2 0x632 JUMPI PUSH2 0x631 PUSH2 0x40C JUMP JUMPDEST JUMPDEST DUP3 DUP3 SDIV SWAP1 POP SWAP3 SWAP2 POP POP JUMP INVALID LOG2 PUSH5 0x6970667358 0x22 SLT KECCAK256 ADDRESS CALLVALUE LOG4 BALANCE MSTORE PUSH14 0x4E5591A9DD8C529D3D40AB44DDBC MSTORE8 0xC8 PUSH7 0x2D7648BCE462ED LOG3 0xB8 PUSH5 0x736F6C6343 STOP ADDMOD BYTE STOP CALLER "
				},
				"gasEstimates": {
					"creation": {
						"codeDepositCost": "330200",
						"executionCost": "infinite",
						"totalCost": "infinite"
					},
					"external": {
						"addNumbers(int256,int256)": "infinite",
						"divideNumbers(int256,int256)": "infinite",
						"getNumbers()": "4687",
						"multiplyNumbers(int256,int256)": "infinite",
						"setNumbers(int256,int8)": "47009",
						"smallNumber()": "2447",
						"subtractNumbers(int256,int256)": "infinite",
						"tinyNumber()": "2513"
					}
				},
				"methodIdentifiers": {
					"addNumbers(int256,int256)": "9400c2e0",
					"divideNumbers(int256,int256)": "d6d06460",
					"getNumbers()": "89f915f6",
					"multiplyNumbers(int256,int256)": "08d1e6fb",
					"setNumbers(int256,int8)": "94d60d55",
					"smallNumber()": "6670cde0",
					"subtractNumbers(int256,int256)": "7038447a",
					"tinyNumber()": "687cb7d2"
				}
			},
			"storageLayout": {
				"storage": [
					{
						"astId": 3,
						"contract": "contracts/10.4.integerdatatypes.sol:IntegerExample",
						"label": "smallNumber",
						"offset": 0,
						"slot": "0",
						"type": "t_int256"
					},
					{
						"astId": 5,
						"contract": "contracts/10.4.integerdatatypes.sol:IntegerExample",
						"label": "tinyNumber",
						"offset": 0,
						"slot": "1",
						"type": "t_int8"
					}
				],
				"types": {
					"t_int256": {
						"encoding": "inplace",
						"label": "int256",
						"numberOfBytes": "32"
					},
					"t_int8": {
						"encoding": "inplace",
						"label": "int8",
						"numberOfBytes": "1"
					}
				}
			},
			"userdoc": {
				"kind": "user",
				"methods": {},
				"version": 1
			}
		}
	}
}