{
	"contracts/1.9.modifiers.sol": {
		"demo": {
			"abi": [
				{
					"inputs": [],
					"name": "check1",
					"outputs": [
						{
							"internalType": "uint256",
							"name": "",
							"type": "uint256"
						}
					],
					"stateMutability": "pure",
					"type": "function"
				},
				{
					"inputs": [],
					"name": "check2",
					"outputs": [
						{
							"internalType": "uint256",
							"name": "",
							"type": "uint256"
						}
					],
					"stateMutability": "pure",
					"type": "function"
				},
				{
					"inputs": [],
					"name": "check3",
					"outputs": [
						{
							"internalType": "uint256",
							"name": "",
							"type": "uint256"
						}
					],
					"stateMutability": "pure",
					"type": "function"
				}
			],
			"devdoc": {
				"kind": "dev",
				"methods": {},
				"version": 1
			},
			"evm": {
				"assembly": "    /* \"contracts/1.9.modifiers.sol\":70:453  contract demo {... */\n  mstore(0x40, 0x80)\n  callvalue\n  dup1\n  iszero\n  tag_1\n  jumpi\n  0x00\n  dup1\n  revert\ntag_1:\n  pop\n  dataSize(sub_0)\n  dup1\n  dataOffset(sub_0)\n  0x00\n  codecopy\n  0x00\n  return\nstop\n\nsub_0: assembly {\n        /* \"contracts/1.9.modifiers.sol\":70:453  contract demo {... */\n      mstore(0x40, 0x80)\n      callvalue\n      dup1\n      iszero\n      tag_1\n      jumpi\n      0x00\n      dup1\n      revert\n    tag_1:\n      pop\n      jumpi(tag_2, lt(calldatasize, 0x04))\n      shr(0xe0, calldataload(0x00))\n      dup1\n      0x1b5e8b93\n      eq\n      tag_3\n      jumpi\n      dup1\n      0x89ac3851\n      eq\n      tag_4\n      jumpi\n      dup1\n      0xa548daf6\n      eq\n      tag_5\n      jumpi\n    tag_2:\n      0x00\n      dup1\n      revert\n        /* \"contracts/1.9.modifiers.sol\":193:275  function check1() public pure onlytrue returns (uint256) {... */\n    tag_3:\n      tag_6\n      tag_7\n      jump\t// in\n    tag_6:\n      mload(0x40)\n      tag_8\n      swap2\n      swap1\n      tag_9\n      jump\t// in\n    tag_8:\n      mload(0x40)\n      dup1\n      swap2\n      sub\n      swap1\n      return\n        /* \"contracts/1.9.modifiers.sol\":369:451  function check3() public pure onlytrue returns (uint256) {... */\n    tag_4:\n      tag_10\n      tag_11\n      jump\t// in\n    tag_10:\n      mload(0x40)\n      tag_12\n      swap2\n      swap1\n      tag_9\n      jump\t// in\n    tag_12:\n      mload(0x40)\n      dup1\n      swap2\n      sub\n      swap1\n      return\n        /* \"contracts/1.9.modifiers.sol\":281:363  function check2() public pure onlytrue returns (uint256) {... */\n    tag_5:\n      tag_13\n      tag_14\n      jump\t// in\n    tag_13:\n      mload(0x40)\n      tag_15\n      swap2\n      swap1\n      tag_9\n      jump\t// in\n    tag_15:\n      mload(0x40)\n      dup1\n      swap2\n      sub\n      swap1\n      return\n        /* \"contracts/1.9.modifiers.sol\":193:275  function check1() public pure onlytrue returns (uint256) {... */\n    tag_7:\n        /* \"contracts/1.9.modifiers.sol\":241:248  uint256 */\n      0x00\n        /* \"contracts/1.9.modifiers.sol\":137:141  true */\n      0x01\n        /* \"contracts/1.9.modifiers.sol\":128:141  false == true */\n      iszero\n      iszero\n        /* \"contracts/1.9.modifiers.sol\":128:133  false */\n      0x00\n        /* \"contracts/1.9.modifiers.sol\":128:141  false == true */\n      iszero\n      iszero\n      eq\n        /* \"contracts/1.9.modifiers.sol\":120:169  require(false == true, \"_a is not equal to true\") */\n      tag_17\n      jumpi\n      mload(0x40)\n      0x08c379a000000000000000000000000000000000000000000000000000000000\n      dup2\n      mstore\n      0x04\n      add\n      tag_18\n      swap1\n      tag_19\n      jump\t// in\n    tag_18:\n      mload(0x40)\n      dup1\n      swap2\n      sub\n      swap1\n      revert\n    tag_17:\n        /* \"contracts/1.9.modifiers.sol\":267:268  1 */\n      0x01\n        /* \"contracts/1.9.modifiers.sol\":260:268  return 1 */\n      swap1\n      pop\n        /* \"contracts/1.9.modifiers.sol\":193:275  function check1() public pure onlytrue returns (uint256) {... */\n      swap1\n      jump\t// out\n        /* \"contracts/1.9.modifiers.sol\":369:451  function check3() public pure onlytrue returns (uint256) {... */\n    tag_11:\n        /* \"contracts/1.9.modifiers.sol\":417:424  uint256 */\n      0x00\n        /* \"contracts/1.9.modifiers.sol\":137:141  true */\n      0x01\n        /* \"contracts/1.9.modifiers.sol\":128:141  false == true */\n      iszero\n      iszero\n        /* \"contracts/1.9.modifiers.sol\":128:133  false */\n      0x00\n        /* \"contracts/1.9.modifiers.sol\":128:141  false == true */\n      iszero\n      iszero\n      eq\n        /* \"contracts/1.9.modifiers.sol\":120:169  require(false == true, \"_a is not equal to true\") */\n      tag_22\n      jumpi\n      mload(0x40)\n      0x08c379a000000000000000000000000000000000000000000000000000000000\n      dup2\n      mstore\n      0x04\n      add\n      tag_23\n      swap1\n      tag_19\n      jump\t// in\n    tag_23:\n      mload(0x40)\n      dup1\n      swap2\n      sub\n      swap1\n      revert\n    tag_22:\n        /* \"contracts/1.9.modifiers.sol\":443:444  1 */\n      0x01\n        /* \"contracts/1.9.modifiers.sol\":436:444  return 1 */\n      swap1\n      pop\n        /* \"contracts/1.9.modifiers.sol\":369:451  function check3() public pure onlytrue returns (uint256) {... */\n      swap1\n      jump\t// out\n        /* \"contracts/1.9.modifiers.sol\":281:363  function check2() public pure onlytrue returns (uint256) {... */\n    tag_14:\n        /* \"contracts/1.9.modifiers.sol\":329:336  uint256 */\n      0x00\n        /* \"contracts/1.9.modifiers.sol\":137:141  true */\n      0x01\n        /* \"contracts/1.9.modifiers.sol\":128:141  false == true */\n      iszero\n      iszero\n        /* \"contracts/1.9.modifiers.sol\":128:133  false */\n      0x00\n        /* \"contracts/1.9.modifiers.sol\":128:141  false == true */\n      iszero\n      iszero\n      eq\n        /* \"contracts/1.9.modifiers.sol\":120:169  require(false == true, \"_a is not equal to true\") */\n      tag_26\n      jumpi\n      mload(0x40)\n      0x08c379a000000000000000000000000000000000000000000000000000000000\n      dup2\n      mstore\n      0x04\n      add\n      tag_27\n      swap1\n      tag_19\n      jump\t// in\n    tag_27:\n      mload(0x40)\n      dup1\n      swap2\n      sub\n      swap1\n      revert\n    tag_26:\n        /* \"contracts/1.9.modifiers.sol\":355:356  1 */\n      0x01\n        /* \"contracts/1.9.modifiers.sol\":348:356  return 1 */\n      swap1\n      pop\n        /* \"contracts/1.9.modifiers.sol\":281:363  function check2() public pure onlytrue returns (uint256) {... */\n      swap1\n      jump\t// out\n        /* \"#utility.yul\":7:84   */\n    tag_29:\n        /* \"#utility.yul\":44:51   */\n      0x00\n        /* \"#utility.yul\":73:78   */\n      dup2\n        /* \"#utility.yul\":62:78   */\n      swap1\n      pop\n        /* \"#utility.yul\":7:84   */\n      swap2\n      swap1\n      pop\n      jump\t// out\n        /* \"#utility.yul\":90:208   */\n    tag_30:\n        /* \"#utility.yul\":177:201   */\n      tag_37\n        /* \"#utility.yul\":195:200   */\n      dup2\n        /* \"#utility.yul\":177:201   */\n      tag_29\n      jump\t// in\n    tag_37:\n        /* \"#utility.yul\":172:175   */\n      dup3\n        /* \"#utility.yul\":165:202   */\n      mstore\n        /* \"#utility.yul\":90:208   */\n      pop\n      pop\n      jump\t// out\n        /* \"#utility.yul\":214:436   */\n    tag_9:\n        /* \"#utility.yul\":307:311   */\n      0x00\n        /* \"#utility.yul\":345:347   */\n      0x20\n        /* \"#utility.yul\":334:343   */\n      dup3\n        /* \"#utility.yul\":330:348   */\n      add\n        /* \"#utility.yul\":322:348   */\n      swap1\n      pop\n        /* \"#utility.yul\":358:429   */\n      tag_39\n        /* \"#utility.yul\":426:427   */\n      0x00\n        /* \"#utility.yul\":415:424   */\n      dup4\n        /* \"#utility.yul\":411:428   */\n      add\n        /* \"#utility.yul\":402:408   */\n      dup5\n        /* \"#utility.yul\":358:429   */\n      tag_30\n      jump\t// in\n    tag_39:\n        /* \"#utility.yul\":214:436   */\n      swap3\n      swap2\n      pop\n      pop\n      jump\t// out\n        /* \"#utility.yul\":442:611   */\n    tag_31:\n        /* \"#utility.yul\":526:537   */\n      0x00\n        /* \"#utility.yul\":560:566   */\n      dup3\n        /* \"#utility.yul\":555:558   */\n      dup3\n        /* \"#utility.yul\":548:567   */\n      mstore\n        /* \"#utility.yul\":600:604   */\n      0x20\n        /* \"#utility.yul\":595:598   */\n      dup3\n        /* \"#utility.yul\":591:605   */\n      add\n        /* \"#utility.yul\":576:605   */\n      swap1\n      pop\n        /* \"#utility.yul\":442:611   */\n      swap3\n      swap2\n      pop\n      pop\n      jump\t// out\n        /* \"#utility.yul\":617:790   */\n    tag_32:\n        /* \"#utility.yul\":757:782   */\n      0x5f61206973206e6f7420657175616c20746f2074727565000000000000000000\n        /* \"#utility.yul\":753:754   */\n      0x00\n        /* \"#utility.yul\":745:751   */\n      dup3\n        /* \"#utility.yul\":741:755   */\n      add\n        /* \"#utility.yul\":734:783   */\n      mstore\n        /* \"#utility.yul\":617:790   */\n      pop\n      jump\t// out\n        /* \"#utility.yul\":796:1162   */\n    tag_33:\n        /* \"#utility.yul\":938:941   */\n      0x00\n        /* \"#utility.yul\":959:1026   */\n      tag_43\n        /* \"#utility.yul\":1023:1025   */\n      0x17\n        /* \"#utility.yul\":1018:1021   */\n      dup4\n        /* \"#utility.yul\":959:1026   */\n      tag_31\n      jump\t// in\n    tag_43:\n        /* \"#utility.yul\":952:1026   */\n      swap2\n      pop\n        /* \"#utility.yul\":1035:1128   */\n      tag_44\n        /* \"#utility.yul\":1124:1127   */\n      dup3\n        /* \"#utility.yul\":1035:1128   */\n      tag_32\n      jump\t// in\n    tag_44:\n        /* \"#utility.yul\":1153:1155   */\n      0x20\n        /* \"#utility.yul\":1148:1151   */\n      dup3\n        /* \"#utility.yul\":1144:1156   */\n      add\n        /* \"#utility.yul\":1137:1156   */\n      swap1\n      pop\n        /* \"#utility.yul\":796:1162   */\n      swap2\n      swap1\n      pop\n      jump\t// out\n        /* \"#utility.yul\":1168:1587   */\n    tag_19:\n        /* \"#utility.yul\":1334:1338   */\n      0x00\n        /* \"#utility.yul\":1372:1374   */\n      0x20\n        /* \"#utility.yul\":1361:1370   */\n      dup3\n        /* \"#utility.yul\":1357:1375   */\n      add\n        /* \"#utility.yul\":1349:1375   */\n      swap1\n      pop\n        /* \"#utility.yul\":1421:1430   */\n      dup2\n        /* \"#utility.yul\":1415:1419   */\n      dup2\n        /* \"#utility.yul\":1411:1431   */\n      sub\n        /* \"#utility.yul\":1407:1408   */\n      0x00\n        /* \"#utility.yul\":1396:1405   */\n      dup4\n        /* \"#utility.yul\":1392:1409   */\n      add\n        /* \"#utility.yul\":1385:1432   */\n      mstore\n        /* \"#utility.yul\":1449:1580   */\n      tag_46\n        /* \"#utility.yul\":1575:1579   */\n      dup2\n        /* \"#utility.yul\":1449:1580   */\n      tag_33\n      jump\t// in\n    tag_46:\n        /* \"#utility.yul\":1441:1580   */\n      swap1\n      pop\n        /* \"#utility.yul\":1168:1587   */\n      swap2\n      swap1\n      pop\n      jump\t// out\n\n    auxdata: 0xa2646970667358221220a6da2255f55d29a130b0c9c6cf903adeea7098d213b80c709fa819ce87b8d24364736f6c634300081a0033\n}\n",
				"bytecode": {
					"linkReferences": {},
					"object": "6080604052348015600e575f80fd5b506102698061001c5f395ff3fe608060405234801561000f575f80fd5b506004361061003f575f3560e01c80631b5e8b931461004357806389ac385114610061578063a548daf61461007f575b5f80fd5b61004b61009d565b60405161005891906101a2565b60405180910390f35b6100696100ec565b60405161007691906101a2565b60405180910390f35b61008761013b565b60405161009491906101a2565b60405180910390f35b5f600115155f1515146100e5576040517f08c379a00000000000000000000000000000000000000000000000000000000081526004016100dc90610215565b60405180910390fd5b6001905090565b5f600115155f151514610134576040517f08c379a000000000000000000000000000000000000000000000000000000000815260040161012b90610215565b60405180910390fd5b6001905090565b5f600115155f151514610183576040517f08c379a000000000000000000000000000000000000000000000000000000000815260040161017a90610215565b60405180910390fd5b6001905090565b5f819050919050565b61019c8161018a565b82525050565b5f6020820190506101b55f830184610193565b92915050565b5f82825260208201905092915050565b7f5f61206973206e6f7420657175616c20746f20747275650000000000000000005f82015250565b5f6101ff6017836101bb565b915061020a826101cb565b602082019050919050565b5f6020820190508181035f83015261022c816101f3565b905091905056fea2646970667358221220a6da2255f55d29a130b0c9c6cf903adeea7098d213b80c709fa819ce87b8d24364736f6c634300081a0033",
					"opcodes": "PUSH1 0x80 PUSH1 0x40 MSTORE CALLVALUE DUP1 ISZERO PUSH1 0xE JUMPI PUSH0 DUP1 REVERT JUMPDEST POP PUSH2 0x269 DUP1 PUSH2 0x1C PUSH0 CODECOPY PUSH0 RETURN INVALID PUSH1 0x80 PUSH1 0x40 MSTORE CALLVALUE DUP1 ISZERO PUSH2 0xF JUMPI PUSH0 DUP1 REVERT JUMPDEST POP PUSH1 0x4 CALLDATASIZE LT PUSH2 0x3F JUMPI PUSH0 CALLDATALOAD PUSH1 0xE0 SHR DUP1 PUSH4 0x1B5E8B93 EQ PUSH2 0x43 JUMPI DUP1 PUSH4 0x89AC3851 EQ PUSH2 0x61 JUMPI DUP1 PUSH4 0xA548DAF6 EQ PUSH2 0x7F JUMPI JUMPDEST PUSH0 DUP1 REVERT JUMPDEST PUSH2 0x4B PUSH2 0x9D JUMP JUMPDEST PUSH1 0x40 MLOAD PUSH2 0x58 SWAP2 SWAP1 PUSH2 0x1A2 JUMP JUMPDEST PUSH1 0x40 MLOAD DUP1 SWAP2 SUB SWAP1 RETURN JUMPDEST PUSH2 0x69 PUSH2 0xEC JUMP JUMPDEST PUSH1 0x40 MLOAD PUSH2 0x76 SWAP2 SWAP1 PUSH2 0x1A2 JUMP JUMPDEST PUSH1 0x40 MLOAD DUP1 SWAP2 SUB SWAP1 RETURN JUMPDEST PUSH2 0x87 PUSH2 0x13B JUMP JUMPDEST PUSH1 0x40 MLOAD PUSH2 0x94 SWAP2 SWAP1 PUSH2 0x1A2 JUMP JUMPDEST PUSH1 0x40 MLOAD DUP1 SWAP2 SUB SWAP1 RETURN JUMPDEST PUSH0 PUSH1 0x1 ISZERO ISZERO PUSH0 ISZERO ISZERO EQ PUSH2 0xE5 JUMPI PUSH1 0x40 MLOAD PUSH32 0x8C379A000000000000000000000000000000000000000000000000000000000 DUP2 MSTORE PUSH1 0x4 ADD PUSH2 0xDC SWAP1 PUSH2 0x215 JUMP JUMPDEST PUSH1 0x40 MLOAD DUP1 SWAP2 SUB SWAP1 REVERT JUMPDEST PUSH1 0x1 SWAP1 POP SWAP1 JUMP JUMPDEST PUSH0 PUSH1 0x1 ISZERO ISZERO PUSH0 ISZERO ISZERO EQ PUSH2 0x134 JUMPI PUSH1 0x40 MLOAD PUSH32 0x8C379A000000000000000000000000000000000000000000000000000000000 DUP2 MSTORE PUSH1 0x4 ADD PUSH2 0x12B SWAP1 PUSH2 0x215 JUMP JUMPDEST PUSH1 0x40 MLOAD DUP1 SWAP2 SUB SWAP1 REVERT JUMPDEST PUSH1 0x1 SWAP1 POP SWAP1 JUMP JUMPDEST PUSH0 PUSH1 0x1 ISZERO ISZERO PUSH0 ISZERO ISZERO EQ PUSH2 0x183 JUMPI PUSH1 0x40 MLOAD PUSH32 0x8C379A000000000000000000000000000000000000000000000000000000000 DUP2 MSTORE PUSH1 0x4 ADD PUSH2 0x17A SWAP1 PUSH2 0x215 JUMP JUMPDEST PUSH1 0x40 MLOAD DUP1 SWAP2 SUB SWAP1 REVERT JUMPDEST PUSH1 0x1 SWAP1 POP SWAP1 JUMP JUMPDEST PUSH0 DUP2 SWAP1 POP SWAP2 SWAP1 POP JUMP JUMPDEST PUSH2 0x19C DUP2 PUSH2 0x18A JUMP JUMPDEST DUP3 MSTORE POP POP JUMP JUMPDEST PUSH0 PUSH1 0x20 DUP3 ADD SWAP1 POP PUSH2 0x1B5 PUSH0 DUP4 ADD DUP5 PUSH2 0x193 JUMP JUMPDEST SWAP3 SWAP2 POP POP JUMP JUMPDEST PUSH0 DUP3 DUP3 MSTORE PUSH1 0x20 DUP3 ADD SWAP1 POP SWAP3 SWAP2 POP POP JUMP JUMPDEST PUSH32 0x5F61206973206E6F7420657175616C20746F2074727565000000000000000000 PUSH0 DUP3 ADD MSTORE POP JUMP JUMPDEST PUSH0 PUSH2 0x1FF PUSH1 0x17 DUP4 PUSH2 0x1BB JUMP JUMPDEST SWAP2 POP PUSH2 0x20A DUP3 PUSH2 0x1CB JUMP JUMPDEST PUSH1 0x20 DUP3 ADD SWAP1 POP SWAP2 SWAP1 POP JUMP JUMPDEST PUSH0 PUSH1 0x20 DUP3 ADD SWAP1 POP DUP2 DUP2 SUB PUSH0 DUP4 ADD MSTORE PUSH2 0x22C DUP2 PUSH2 0x1F3 JUMP JUMPDEST SWAP1 POP SWAP2 SWAP1 POP JUMP INVALID LOG2 PUSH5 0x6970667358 0x22 SLT KECCAK256 0xA6 0xDA 0x22 SSTORE CREATE2 TSTORE 0x29 LOG1 ADDRESS 0xB0 0xC9 0xC6 0xCF SWAP1 GASPRICE 0xDE 0xEA PUSH17 0x98D213B80C709FA819CE87B8D24364736F PUSH13 0x634300081A0033000000000000 "
				},
				"gasEstimates": {
					"creation": {
						"codeDepositCost": "123400",
						"executionCost": "169",
						"totalCost": "123569"
					},
					"external": {
						"check1()": "441",
						"check2()": "485",
						"check3()": "463"
					}
				},
				"methodIdentifiers": {
					"check1()": "1b5e8b93",
					"check2()": "a548daf6",
					"check3()": "89ac3851"
				}
			},
			"storageLayout": {
				"storage": [],
				"types": null
			},
			"userdoc": {
				"kind": "user",
				"methods": {},
				"version": 1
			}
		}
	}
}