{
	"contracts/global-local-state1.sol": {
		"Demo": {
			"abi": [
				{
					"inputs": [],
					"name": "counter",
					"outputs": [
						{
							"internalType": "int256",
							"name": "",
							"type": "int256"
						}
					],
					"stateMutability": "view",
					"type": "function"
				},
				{
					"inputs": [],
					"name": "readAndWriteStateVariable",
					"outputs": [
						{
							"internalType": "int256",
							"name": "",
							"type": "int256"
						}
					],
					"stateMutability": "nonpayable",
					"type": "function"
				},
				{
					"inputs": [],
					"name": "readStateVariable",
					"outputs": [
						{
							"internalType": "int256",
							"name": "",
							"type": "int256"
						}
					],
					"stateMutability": "nonpayable",
					"type": "function"
				},
				{
					"inputs": [],
					"name": "readStateVariableLocalVariable",
					"outputs": [
						{
							"internalType": "bool",
							"name": "",
							"type": "bool"
						}
					],
					"stateMutability": "view",
					"type": "function"
				},
				{
					"inputs": [],
					"name": "returnLocalVariable",
					"outputs": [
						{
							"internalType": "bool",
							"name": "",
							"type": "bool"
						}
					],
					"stateMutability": "pure",
					"type": "function"
				},
				{
					"inputs": [],
					"name": "writeStateVariable",
					"outputs": [],
					"stateMutability": "nonpayable",
					"type": "function"
				},
				{
					"inputs": [],
					"name": "writeStateVariableLocalVariable",
					"outputs": [
						{
							"internalType": "bool",
							"name": "",
							"type": "bool"
						}
					],
					"stateMutability": "nonpayable",
					"type": "function"
				}
			],
			"devdoc": {
				"kind": "dev",
				"methods": {},
				"version": 1
			},
			"evm": {
				"assembly": "    /* \"contracts/global-local-state1.sol\":70:1060  contract Demo {... */\n  mstore(0x40, 0x80)\n    /* \"contracts/global-local-state1.sol\":152:154  10 */\n  0x0a\n    /* \"contracts/global-local-state1.sol\":128:154  int256 public counter = 10 */\n  0x00\n  sstore\n    /* \"contracts/global-local-state1.sol\":70:1060  contract Demo {... */\n  callvalue\n  dup1\n  iszero\n  tag_1\n  jumpi\n  0x00\n  dup1\n  revert\ntag_1:\n  pop\n  dataSize(sub_0)\n  dup1\n  dataOffset(sub_0)\n  0x00\n  codecopy\n  0x00\n  return\nstop\n\nsub_0: assembly {\n        /* \"contracts/global-local-state1.sol\":70:1060  contract Demo {... */\n      mstore(0x40, 0x80)\n      callvalue\n      dup1\n      iszero\n      tag_1\n      jumpi\n      0x00\n      dup1\n      revert\n    tag_1:\n      pop\n      jumpi(tag_2, lt(calldatasize, 0x04))\n      shr(0xe0, calldataload(0x00))\n      dup1\n      0x8cedeee0\n      gt\n      tag_10\n      jumpi\n      dup1\n      0x8cedeee0\n      eq\n      tag_6\n      jumpi\n      dup1\n      0xcd3c1ed4\n      eq\n      tag_7\n      jumpi\n      dup1\n      0xd4e74ec6\n      eq\n      tag_8\n      jumpi\n      dup1\n      0xed9a469f\n      eq\n      tag_9\n      jumpi\n      jump(tag_2)\n    tag_10:\n      dup1\n      0x10d2e18d\n      eq\n      tag_3\n      jumpi\n      dup1\n      0x1e836361\n      eq\n      tag_4\n      jumpi\n      dup1\n      0x61bc221a\n      eq\n      tag_5\n      jumpi\n    tag_2:\n      0x00\n      dup1\n      revert\n        /* \"contracts/global-local-state1.sol\":749:909  function readStateVariableLocalVariable() public view returns (bool) {... */\n    tag_3:\n      tag_11\n      tag_12\n      jump\t// in\n    tag_11:\n      mload(0x40)\n      tag_13\n      swap2\n      swap1\n      tag_14\n      jump\t// in\n    tag_13:\n      mload(0x40)\n      dup1\n      swap2\n      sub\n      swap1\n      return\n        /* \"contracts/global-local-state1.sol\":178:273  function writeStateVariable() public {... */\n    tag_4:\n      tag_15\n      tag_16\n      jump\t// in\n    tag_15:\n      stop\n        /* \"contracts/global-local-state1.sol\":128:154  int256 public counter = 10 */\n    tag_5:\n      tag_17\n      tag_18\n      jump\t// in\n    tag_17:\n      mload(0x40)\n      tag_19\n      swap2\n      swap1\n      tag_20\n      jump\t// in\n    tag_19:\n      mload(0x40)\n      dup1\n      swap2\n      sub\n      swap1\n      return\n        /* \"contracts/global-local-state1.sol\":458:623  function readStateVariable() public returns (int256) {... */\n    tag_6:\n      tag_21\n      tag_22\n      jump\t// in\n    tag_21:\n      mload(0x40)\n      tag_23\n      swap2\n      swap1\n      tag_20\n      jump\t// in\n    tag_23:\n      mload(0x40)\n      dup1\n      swap2\n      sub\n      swap1\n      return\n        /* \"contracts/global-local-state1.sol\":629:743  function returnLocalVariable() public pure returns (bool) {... */\n    tag_7:\n      tag_24\n      tag_25\n      jump\t// in\n    tag_24:\n      mload(0x40)\n      tag_26\n      swap2\n      swap1\n      tag_14\n      jump\t// in\n    tag_26:\n      mload(0x40)\n      dup1\n      swap2\n      sub\n      swap1\n      return\n        /* \"contracts/global-local-state1.sol\":279:452  function readAndWriteStateVariable() public returns (int256) {... */\n    tag_8:\n      tag_27\n      tag_28\n      jump\t// in\n    tag_27:\n      mload(0x40)\n      tag_29\n      swap2\n      swap1\n      tag_20\n      jump\t// in\n    tag_29:\n      mload(0x40)\n      dup1\n      swap2\n      sub\n      swap1\n      return\n        /* \"contracts/global-local-state1.sol\":915:1058  function writeStateVariableLocalVariable() public returns (bool) {... */\n    tag_9:\n      tag_30\n      tag_31\n      jump\t// in\n    tag_30:\n      mload(0x40)\n      tag_32\n      swap2\n      swap1\n      tag_14\n      jump\t// in\n    tag_32:\n      mload(0x40)\n      dup1\n      swap2\n      sub\n      swap1\n      return\n        /* \"contracts/global-local-state1.sol\":749:909  function readStateVariableLocalVariable() public view returns (bool) {... */\n    tag_12:\n        /* \"contracts/global-local-state1.sol\":812:816  bool */\n      0x00\n        /* \"contracts/global-local-state1.sol\":828:843  int256 localVar */\n      dup1\n        /* \"contracts/global-local-state1.sol\":846:853  counter */\n      sload(0x00)\n        /* \"contracts/global-local-state1.sol\":828:853  int256 localVar = counter */\n      swap1\n      pop\n        /* \"contracts/global-local-state1.sol\":863:873  bool value */\n      0x00\n        /* \"contracts/global-local-state1.sol\":876:880  true */\n      0x01\n        /* \"contracts/global-local-state1.sol\":863:880  bool value = true */\n      swap1\n      pop\n        /* \"contracts/global-local-state1.sol\":897:902  value */\n      dup1\n        /* \"contracts/global-local-state1.sol\":890:902  return value */\n      swap3\n      pop\n      pop\n      pop\n        /* \"contracts/global-local-state1.sol\":749:909  function readStateVariableLocalVariable() public view returns (bool) {... */\n      swap1\n      jump\t// out\n        /* \"contracts/global-local-state1.sol\":178:273  function writeStateVariable() public {... */\n    tag_16:\n        /* \"contracts/global-local-state1.sol\":235:237  20 */\n      0x14\n        /* \"contracts/global-local-state1.sol\":225:232  counter */\n      0x00\n        /* \"contracts/global-local-state1.sol\":225:237  counter = 20 */\n      dup2\n      swap1\n      sstore\n      pop\n        /* \"contracts/global-local-state1.sol\":178:273  function writeStateVariable() public {... */\n      jump\t// out\n        /* \"contracts/global-local-state1.sol\":128:154  int256 public counter = 10 */\n    tag_18:\n      sload(0x00)\n      dup2\n      jump\t// out\n        /* \"contracts/global-local-state1.sol\":458:623  function readStateVariable() public returns (int256) {... */\n    tag_22:\n        /* \"contracts/global-local-state1.sol\":503:509  int256 */\n      0x00\n        /* \"contracts/global-local-state1.sol\":531:534  100 */\n      0x64\n        /* \"contracts/global-local-state1.sol\":521:528  counter */\n      0x00\n        /* \"contracts/global-local-state1.sol\":521:534  counter = 100 */\n      dup2\n      swap1\n      sstore\n      pop\n        /* \"contracts/global-local-state1.sol\":580:587  counter */\n      sload(0x00)\n        /* \"contracts/global-local-state1.sol\":573:587  return counter */\n      swap1\n      pop\n        /* \"contracts/global-local-state1.sol\":458:623  function readStateVariable() public returns (int256) {... */\n      swap1\n      jump\t// out\n        /* \"contracts/global-local-state1.sol\":629:743  function returnLocalVariable() public pure returns (bool) {... */\n    tag_25:\n        /* \"contracts/global-local-state1.sol\":681:685  bool */\n      0x00\n        /* \"contracts/global-local-state1.sol\":697:707  bool value */\n      dup1\n        /* \"contracts/global-local-state1.sol\":710:714  true */\n      0x01\n        /* \"contracts/global-local-state1.sol\":697:714  bool value = true */\n      swap1\n      pop\n        /* \"contracts/global-local-state1.sol\":731:736  value */\n      dup1\n        /* \"contracts/global-local-state1.sol\":724:736  return value */\n      swap2\n      pop\n      pop\n        /* \"contracts/global-local-state1.sol\":629:743  function returnLocalVariable() public pure returns (bool) {... */\n      swap1\n      jump\t// out\n        /* \"contracts/global-local-state1.sol\":279:452  function readAndWriteStateVariable() public returns (int256) {... */\n    tag_28:\n        /* \"contracts/global-local-state1.sol\":332:338  int256 */\n      0x00\n        /* \"contracts/global-local-state1.sol\":360:363  100 */\n      0x64\n        /* \"contracts/global-local-state1.sol\":350:357  counter */\n      0x00\n        /* \"contracts/global-local-state1.sol\":350:363  counter = 100 */\n      dup2\n      swap1\n      sstore\n      pop\n        /* \"contracts/global-local-state1.sol\":409:416  counter */\n      sload(0x00)\n        /* \"contracts/global-local-state1.sol\":402:416  return counter */\n      swap1\n      pop\n        /* \"contracts/global-local-state1.sol\":279:452  function readAndWriteStateVariable() public returns (int256) {... */\n      swap1\n      jump\t// out\n        /* \"contracts/global-local-state1.sol\":915:1058  function writeStateVariableLocalVariable() public returns (bool) {... */\n    tag_31:\n        /* \"contracts/global-local-state1.sol\":974:978  bool */\n      0x00\n        /* \"contracts/global-local-state1.sol\":1000:1002  20 */\n      0x14\n        /* \"contracts/global-local-state1.sol\":990:997  counter */\n      0x00\n        /* \"contracts/global-local-state1.sol\":990:1002  counter = 20 */\n      dup2\n      swap1\n      sstore\n      pop\n        /* \"contracts/global-local-state1.sol\":1012:1022  bool value */\n      0x00\n        /* \"contracts/global-local-state1.sol\":1025:1029  true */\n      0x01\n        /* \"contracts/global-local-state1.sol\":1012:1029  bool value = true */\n      swap1\n      pop\n        /* \"contracts/global-local-state1.sol\":1046:1051  value */\n      dup1\n        /* \"contracts/global-local-state1.sol\":1039:1051  return value */\n      swap2\n      pop\n      pop\n        /* \"contracts/global-local-state1.sol\":915:1058  function writeStateVariableLocalVariable() public returns (bool) {... */\n      swap1\n      jump\t// out\n        /* \"#utility.yul\":7:97   */\n    tag_39:\n        /* \"#utility.yul\":41:48   */\n      0x00\n        /* \"#utility.yul\":84:89   */\n      dup2\n        /* \"#utility.yul\":77:90   */\n      iszero\n        /* \"#utility.yul\":70:91   */\n      iszero\n        /* \"#utility.yul\":59:91   */\n      swap1\n      pop\n        /* \"#utility.yul\":7:97   */\n      swap2\n      swap1\n      pop\n      jump\t// out\n        /* \"#utility.yul\":103:212   */\n    tag_40:\n        /* \"#utility.yul\":184:205   */\n      tag_46\n        /* \"#utility.yul\":199:204   */\n      dup2\n        /* \"#utility.yul\":184:205   */\n      tag_39\n      jump\t// in\n    tag_46:\n        /* \"#utility.yul\":179:182   */\n      dup3\n        /* \"#utility.yul\":172:206   */\n      mstore\n        /* \"#utility.yul\":103:212   */\n      pop\n      pop\n      jump\t// out\n        /* \"#utility.yul\":218:428   */\n    tag_14:\n        /* \"#utility.yul\":305:309   */\n      0x00\n        /* \"#utility.yul\":343:345   */\n      0x20\n        /* \"#utility.yul\":332:341   */\n      dup3\n        /* \"#utility.yul\":328:346   */\n      add\n        /* \"#utility.yul\":320:346   */\n      swap1\n      pop\n        /* \"#utility.yul\":356:421   */\n      tag_48\n        /* \"#utility.yul\":418:419   */\n      0x00\n        /* \"#utility.yul\":407:416   */\n      dup4\n        /* \"#utility.yul\":403:420   */\n      add\n        /* \"#utility.yul\":394:400   */\n      dup5\n        /* \"#utility.yul\":356:421   */\n      tag_40\n      jump\t// in\n    tag_48:\n        /* \"#utility.yul\":218:428   */\n      swap3\n      swap2\n      pop\n      pop\n      jump\t// out\n        /* \"#utility.yul\":434:510   */\n    tag_41:\n        /* \"#utility.yul\":470:477   */\n      0x00\n        /* \"#utility.yul\":499:504   */\n      dup2\n        /* \"#utility.yul\":488:504   */\n      swap1\n      pop\n        /* \"#utility.yul\":434:510   */\n      swap2\n      swap1\n      pop\n      jump\t// out\n        /* \"#utility.yul\":516:631   */\n    tag_42:\n        /* \"#utility.yul\":601:624   */\n      tag_51\n        /* \"#utility.yul\":618:623   */\n      dup2\n        /* \"#utility.yul\":601:624   */\n      tag_41\n      jump\t// in\n    tag_51:\n        /* \"#utility.yul\":596:599   */\n      dup3\n        /* \"#utility.yul\":589:625   */\n      mstore\n        /* \"#utility.yul\":516:631   */\n      pop\n      pop\n      jump\t// out\n        /* \"#utility.yul\":637:855   */\n    tag_20:\n        /* \"#utility.yul\":728:732   */\n      0x00\n        /* \"#utility.yul\":766:768   */\n      0x20\n        /* \"#utility.yul\":755:764   */\n      dup3\n        /* \"#utility.yul\":751:769   */\n      add\n        /* \"#utility.yul\":743:769   */\n      swap1\n      pop\n        /* \"#utility.yul\":779:848   */\n      tag_53\n        /* \"#utility.yul\":845:846   */\n      0x00\n        /* \"#utility.yul\":834:843   */\n      dup4\n        /* \"#utility.yul\":830:847   */\n      add\n        /* \"#utility.yul\":821:827   */\n      dup5\n        /* \"#utility.yul\":779:848   */\n      tag_42\n      jump\t// in\n    tag_53:\n        /* \"#utility.yul\":637:855   */\n      swap3\n      swap2\n      pop\n      pop\n      jump\t// out\n\n    auxdata: 0xa2646970667358221220956c83ba52c7fe46666b348b9972ee4cebad91bc9e065d39e446ba0d6edc1efb64736f6c634300081a0033\n}\n",
				"bytecode": {
					"linkReferences": {},
					"object": "6080604052600a5f553480156012575f80fd5b50610237806100205f395ff3fe608060405234801561000f575f80fd5b506004361061007b575f3560e01c80638cedeee0116100595780638cedeee0146100c5578063cd3c1ed4146100e3578063d4e74ec614610101578063ed9a469f1461011f5761007b565b806310d2e18d1461007f5780631e8363611461009d57806361bc221a146100a7575b5f80fd5b61008761013d565b60405161009491906101b7565b60405180910390f35b6100a5610150565b005b6100af610159565b6040516100bc91906101e8565b60405180910390f35b6100cd61015e565b6040516100da91906101e8565b60405180910390f35b6100eb61016d565b6040516100f891906101b7565b60405180910390f35b61010961017a565b60405161011691906101e8565b60405180910390f35b610127610189565b60405161013491906101b7565b60405180910390f35b5f805f5490505f60019050809250505090565b60145f81905550565b5f5481565b5f60645f819055505f54905090565b5f80600190508091505090565b5f60645f819055505f54905090565b5f60145f819055505f600190508091505090565b5f8115159050919050565b6101b18161019d565b82525050565b5f6020820190506101ca5f8301846101a8565b92915050565b5f819050919050565b6101e2816101d0565b82525050565b5f6020820190506101fb5f8301846101d9565b9291505056fea2646970667358221220956c83ba52c7fe46666b348b9972ee4cebad91bc9e065d39e446ba0d6edc1efb64736f6c634300081a0033",
					"opcodes": "PUSH1 0x80 PUSH1 0x40 MSTORE PUSH1 0xA PUSH0 SSTORE CALLVALUE DUP1 ISZERO PUSH1 0x12 JUMPI PUSH0 DUP1 REVERT JUMPDEST POP PUSH2 0x237 DUP1 PUSH2 0x20 PUSH0 CODECOPY PUSH0 RETURN INVALID PUSH1 0x80 PUSH1 0x40 MSTORE CALLVALUE DUP1 ISZERO PUSH2 0xF JUMPI PUSH0 DUP1 REVERT JUMPDEST POP PUSH1 0x4 CALLDATASIZE LT PUSH2 0x7B JUMPI PUSH0 CALLDATALOAD PUSH1 0xE0 SHR DUP1 PUSH4 0x8CEDEEE0 GT PUSH2 0x59 JUMPI DUP1 PUSH4 0x8CEDEEE0 EQ PUSH2 0xC5 JUMPI DUP1 PUSH4 0xCD3C1ED4 EQ PUSH2 0xE3 JUMPI DUP1 PUSH4 0xD4E74EC6 EQ PUSH2 0x101 JUMPI DUP1 PUSH4 0xED9A469F EQ PUSH2 0x11F JUMPI PUSH2 0x7B JUMP JUMPDEST DUP1 PUSH4 0x10D2E18D EQ PUSH2 0x7F JUMPI DUP1 PUSH4 0x1E836361 EQ PUSH2 0x9D JUMPI DUP1 PUSH4 0x61BC221A EQ PUSH2 0xA7 JUMPI JUMPDEST PUSH0 DUP1 REVERT JUMPDEST PUSH2 0x87 PUSH2 0x13D JUMP JUMPDEST PUSH1 0x40 MLOAD PUSH2 0x94 SWAP2 SWAP1 PUSH2 0x1B7 JUMP JUMPDEST PUSH1 0x40 MLOAD DUP1 SWAP2 SUB SWAP1 RETURN JUMPDEST PUSH2 0xA5 PUSH2 0x150 JUMP JUMPDEST STOP JUMPDEST PUSH2 0xAF PUSH2 0x159 JUMP JUMPDEST PUSH1 0x40 MLOAD PUSH2 0xBC SWAP2 SWAP1 PUSH2 0x1E8 JUMP JUMPDEST PUSH1 0x40 MLOAD DUP1 SWAP2 SUB SWAP1 RETURN JUMPDEST PUSH2 0xCD PUSH2 0x15E JUMP JUMPDEST PUSH1 0x40 MLOAD PUSH2 0xDA SWAP2 SWAP1 PUSH2 0x1E8 JUMP JUMPDEST PUSH1 0x40 MLOAD DUP1 SWAP2 SUB SWAP1 RETURN JUMPDEST PUSH2 0xEB PUSH2 0x16D JUMP JUMPDEST PUSH1 0x40 MLOAD PUSH2 0xF8 SWAP2 SWAP1 PUSH2 0x1B7 JUMP JUMPDEST PUSH1 0x40 MLOAD DUP1 SWAP2 SUB SWAP1 RETURN JUMPDEST PUSH2 0x109 PUSH2 0x17A JUMP JUMPDEST PUSH1 0x40 MLOAD PUSH2 0x116 SWAP2 SWAP1 PUSH2 0x1E8 JUMP JUMPDEST PUSH1 0x40 MLOAD DUP1 SWAP2 SUB SWAP1 RETURN JUMPDEST PUSH2 0x127 PUSH2 0x189 JUMP JUMPDEST PUSH1 0x40 MLOAD PUSH2 0x134 SWAP2 SWAP1 PUSH2 0x1B7 JUMP JUMPDEST PUSH1 0x40 MLOAD DUP1 SWAP2 SUB SWAP1 RETURN JUMPDEST PUSH0 DUP1 PUSH0 SLOAD SWAP1 POP PUSH0 PUSH1 0x1 SWAP1 POP DUP1 SWAP3 POP POP POP SWAP1 JUMP JUMPDEST PUSH1 0x14 PUSH0 DUP2 SWAP1 SSTORE POP JUMP JUMPDEST PUSH0 SLOAD DUP2 JUMP JUMPDEST PUSH0 PUSH1 0x64 PUSH0 DUP2 SWAP1 SSTORE POP PUSH0 SLOAD SWAP1 POP SWAP1 JUMP JUMPDEST PUSH0 DUP1 PUSH1 0x1 SWAP1 POP DUP1 SWAP2 POP POP SWAP1 JUMP JUMPDEST PUSH0 PUSH1 0x64 PUSH0 DUP2 SWAP1 SSTORE POP PUSH0 SLOAD SWAP1 POP SWAP1 JUMP JUMPDEST PUSH0 PUSH1 0x14 PUSH0 DUP2 SWAP1 SSTORE POP PUSH0 PUSH1 0x1 SWAP1 POP DUP1 SWAP2 POP POP SWAP1 JUMP JUMPDEST PUSH0 DUP2 ISZERO ISZERO SWAP1 POP SWAP2 SWAP1 POP JUMP JUMPDEST PUSH2 0x1B1 DUP2 PUSH2 0x19D JUMP JUMPDEST DUP3 MSTORE POP POP JUMP JUMPDEST PUSH0 PUSH1 0x20 DUP3 ADD SWAP1 POP PUSH2 0x1CA PUSH0 DUP4 ADD DUP5 PUSH2 0x1A8 JUMP JUMPDEST SWAP3 SWAP2 POP POP JUMP JUMPDEST PUSH0 DUP2 SWAP1 POP SWAP2 SWAP1 POP JUMP JUMPDEST PUSH2 0x1E2 DUP2 PUSH2 0x1D0 JUMP JUMPDEST DUP3 MSTORE POP POP JUMP JUMPDEST PUSH0 PUSH1 0x20 DUP3 ADD SWAP1 POP PUSH2 0x1FB PUSH0 DUP4 ADD DUP5 PUSH2 0x1D9 JUMP JUMPDEST SWAP3 SWAP2 POP POP JUMP INVALID LOG2 PUSH5 0x6970667358 0x22 SLT KECCAK256 SWAP6 PUSH13 0x83BA52C7FE46666B348B9972EE 0x4C 0xEB 0xAD SWAP2 0xBC SWAP15 MOD TSTORE CODECOPY 0xE4 CHAINID 0xBA 0xD PUSH15 0xDC1EFB64736F6C634300081A003300 "
				},
				"gasEstimates": {
					"creation": {
						"codeDepositCost": "113400",
						"executionCost": "22262",
						"totalCost": "135662"
					},
					"external": {
						"counter()": "2469",
						"readAndWriteStateVariable()": "24588",
						"readStateVariable()": "24544",
						"readStateVariableLocalVariable()": "2463",
						"returnLocalVariable()": "373",
						"writeStateVariable()": "22279",
						"writeStateVariableLocalVariable()": "22529"
					}
				},
				"methodIdentifiers": {
					"counter()": "61bc221a",
					"readAndWriteStateVariable()": "d4e74ec6",
					"readStateVariable()": "8cedeee0",
					"readStateVariableLocalVariable()": "10d2e18d",
					"returnLocalVariable()": "cd3c1ed4",
					"writeStateVariable()": "1e836361",
					"writeStateVariableLocalVariable()": "ed9a469f"
				}
			},
			"storageLayout": {
				"storage": [
					{
						"astId": 4,
						"contract": "contracts/global-local-state1.sol:Demo",
						"label": "counter",
						"offset": 0,
						"slot": "0",
						"type": "t_int256"
					}
				],
				"types": {
					"t_int256": {
						"encoding": "inplace",
						"label": "int256",
						"numberOfBytes": "32"
					}
				}
			},
			"userdoc": {
				"kind": "user",
				"methods": {},
				"version": 1
			}
		}
	}
}