{
	"contracts/10.1.local&state-variable.sol": {
		"demo": {
			"abi": [
				{
					"inputs": [],
					"name": "getter",
					"outputs": [
						{
							"internalType": "uint256",
							"name": "",
							"type": "uint256"
						}
					],
					"stateMutability": "view",
					"type": "function"
				},
				{
					"inputs": [],
					"name": "pureFunction",
					"outputs": [
						{
							"internalType": "uint256",
							"name": "",
							"type": "uint256"
						}
					],
					"stateMutability": "pure",
					"type": "function"
				},
				{
					"inputs": [],
					"name": "setter",
					"outputs": [],
					"stateMutability": "nonpayable",
					"type": "function"
				},
				{
					"inputs": [],
					"name": "state_var",
					"outputs": [
						{
							"internalType": "uint256",
							"name": "",
							"type": "uint256"
						}
					],
					"stateMutability": "view",
					"type": "function"
				}
			],
			"devdoc": {
				"kind": "dev",
				"methods": {},
				"version": 1
			},
			"evm": {
				"assembly": "    /* \"contracts/10.1.local&state-variable.sol\":70:594  contract demo {... */\n  mstore(0x40, 0x80)\n  callvalue\n  dup1\n  iszero\n  tag_1\n  jumpi\n  0x00\n  dup1\n  revert\ntag_1:\n  pop\n  dataSize(sub_0)\n  dup1\n  dataOffset(sub_0)\n  0x00\n  codecopy\n  0x00\n  return\nstop\n\nsub_0: assembly {\n        /* \"contracts/10.1.local&state-variable.sol\":70:594  contract demo {... */\n      mstore(0x40, 0x80)\n      callvalue\n      dup1\n      iszero\n      tag_1\n      jumpi\n      0x00\n      dup1\n      revert\n    tag_1:\n      pop\n      jumpi(tag_2, lt(calldatasize, 0x04))\n      shr(0xe0, calldataload(0x00))\n      dup1\n      0x3f3108f7\n      eq\n      tag_3\n      jumpi\n      dup1\n      0x993a04b7\n      eq\n      tag_4\n      jumpi\n      dup1\n      0xdc80e1fb\n      eq\n      tag_5\n      jumpi\n      dup1\n      0xf2c0a786\n      eq\n      tag_6\n      jumpi\n    tag_2:\n      0x00\n      dup1\n      revert\n        /* \"contracts/10.1.local&state-variable.sol\":138:241  function setter() public {... */\n    tag_3:\n      tag_7\n      tag_8\n      jump\t// in\n    tag_7:\n      stop\n        /* \"contracts/10.1.local&state-variable.sol\":247:371  function getter() public view returns (uint256) {... */\n    tag_4:\n      tag_9\n      tag_10\n      jump\t// in\n    tag_9:\n      mload(0x40)\n      tag_11\n      swap2\n      swap1\n      tag_12\n      jump\t// in\n    tag_11:\n      mload(0x40)\n      dup1\n      swap2\n      sub\n      swap1\n      return\n        /* \"contracts/10.1.local&state-variable.sol\":90:114  uint256 public state_var */\n    tag_5:\n      tag_13\n      tag_14\n      jump\t// in\n    tag_13:\n      mload(0x40)\n      tag_15\n      swap2\n      swap1\n      tag_12\n      jump\t// in\n    tag_15:\n      mload(0x40)\n      dup1\n      swap2\n      sub\n      swap1\n      return\n        /* \"contracts/10.1.local&state-variable.sol\":377:592  function pureFunction() public pure returns (uint256) {... */\n    tag_6:\n      tag_16\n      tag_17\n      jump\t// in\n    tag_16:\n      mload(0x40)\n      tag_18\n      swap2\n      swap1\n      tag_12\n      jump\t// in\n    tag_18:\n      mload(0x40)\n      dup1\n      swap2\n      sub\n      swap1\n      return\n        /* \"contracts/10.1.local&state-variable.sol\":138:241  function setter() public {... */\n    tag_8:\n        /* \"contracts/10.1.local&state-variable.sol\":233:234  2 */\n      0x02\n        /* \"contracts/10.1.local&state-variable.sol\":221:230  state_var */\n      0x00\n        /* \"contracts/10.1.local&state-variable.sol\":221:234  state_var = 2 */\n      dup2\n      swap1\n      sstore\n      pop\n        /* \"contracts/10.1.local&state-variable.sol\":138:241  function setter() public {... */\n      jump\t// out\n        /* \"contracts/10.1.local&state-variable.sol\":247:371  function getter() public view returns (uint256) {... */\n    tag_10:\n        /* \"contracts/10.1.local&state-variable.sol\":286:293  uint256 */\n      0x00\n        /* \"contracts/10.1.local&state-variable.sol\":355:364  state_var */\n      dup1\n      sload\n        /* \"contracts/10.1.local&state-variable.sol\":348:364  return state_var */\n      swap1\n      pop\n        /* \"contracts/10.1.local&state-variable.sol\":247:371  function getter() public view returns (uint256) {... */\n      swap1\n      jump\t// out\n        /* \"contracts/10.1.local&state-variable.sol\":90:114  uint256 public state_var */\n    tag_14:\n      sload(0x00)\n      dup2\n      jump\t// out\n        /* \"contracts/10.1.local&state-variable.sol\":377:592  function pureFunction() public pure returns (uint256) {... */\n    tag_17:\n        /* \"contracts/10.1.local&state-variable.sol\":422:429  uint256 */\n      0x00\n        /* \"contracts/10.1.local&state-variable.sol\":502:519  uint256 local_var */\n      dup1\n        /* \"contracts/10.1.local&state-variable.sol\":558:559  1 */\n      0x01\n        /* \"contracts/10.1.local&state-variable.sol\":546:559  local_var = 1 */\n      swap1\n      pop\n        /* \"contracts/10.1.local&state-variable.sol\":576:585  local_var */\n      dup1\n        /* \"contracts/10.1.local&state-variable.sol\":569:585  return local_var */\n      swap2\n      pop\n      pop\n        /* \"contracts/10.1.local&state-variable.sol\":377:592  function pureFunction() public pure returns (uint256) {... */\n      swap1\n      jump\t// out\n        /* \"#utility.yul\":7:84   */\n    tag_22:\n        /* \"#utility.yul\":44:51   */\n      0x00\n        /* \"#utility.yul\":73:78   */\n      dup2\n        /* \"#utility.yul\":62:78   */\n      swap1\n      pop\n        /* \"#utility.yul\":7:84   */\n      swap2\n      swap1\n      pop\n      jump\t// out\n        /* \"#utility.yul\":90:208   */\n    tag_23:\n        /* \"#utility.yul\":177:201   */\n      tag_27\n        /* \"#utility.yul\":195:200   */\n      dup2\n        /* \"#utility.yul\":177:201   */\n      tag_22\n      jump\t// in\n    tag_27:\n        /* \"#utility.yul\":172:175   */\n      dup3\n        /* \"#utility.yul\":165:202   */\n      mstore\n        /* \"#utility.yul\":90:208   */\n      pop\n      pop\n      jump\t// out\n        /* \"#utility.yul\":214:436   */\n    tag_12:\n        /* \"#utility.yul\":307:311   */\n      0x00\n        /* \"#utility.yul\":345:347   */\n      0x20\n        /* \"#utility.yul\":334:343   */\n      dup3\n        /* \"#utility.yul\":330:348   */\n      add\n        /* \"#utility.yul\":322:348   */\n      swap1\n      pop\n        /* \"#utility.yul\":358:429   */\n      tag_29\n        /* \"#utility.yul\":426:427   */\n      0x00\n        /* \"#utility.yul\":415:424   */\n      dup4\n        /* \"#utility.yul\":411:428   */\n      add\n        /* \"#utility.yul\":402:408   */\n      dup5\n        /* \"#utility.yul\":358:429   */\n      tag_23\n      jump\t// in\n    tag_29:\n        /* \"#utility.yul\":214:436   */\n      swap3\n      swap2\n      pop\n      pop\n      jump\t// out\n\n    auxdata: 0xa2646970667358221220e50387dbe6d3dd17db2d74fc817b79e874dae6ce8128d5dc8bc16469dfb3712b64736f6c634300081a0033\n}\n",
				"bytecode": {
					"linkReferences": {},
					"object": "6080604052348015600e575f80fd5b506101248061001c5f395ff3fe6080604052348015600e575f80fd5b50600436106044575f3560e01c80633f3108f7146048578063993a04b7146050578063dc80e1fb14606a578063f2c0a786146084575b5f80fd5b604e609e565b005b605660a7565b6040516061919060d7565b60405180910390f35b607060af565b604051607b919060d7565b60405180910390f35b608a60b4565b6040516095919060d7565b60405180910390f35b60025f81905550565b5f8054905090565b5f5481565b5f80600190508091505090565b5f819050919050565b60d18160c1565b82525050565b5f60208201905060e85f83018460ca565b9291505056fea2646970667358221220e50387dbe6d3dd17db2d74fc817b79e874dae6ce8128d5dc8bc16469dfb3712b64736f6c634300081a0033",
					"opcodes": "PUSH1 0x80 PUSH1 0x40 MSTORE CALLVALUE DUP1 ISZERO PUSH1 0xE JUMPI PUSH0 DUP1 REVERT JUMPDEST POP PUSH2 0x124 DUP1 PUSH2 0x1C PUSH0 CODECOPY PUSH0 RETURN INVALID PUSH1 0x80 PUSH1 0x40 MSTORE CALLVALUE DUP1 ISZERO PUSH1 0xE JUMPI PUSH0 DUP1 REVERT JUMPDEST POP PUSH1 0x4 CALLDATASIZE LT PUSH1 0x44 JUMPI PUSH0 CALLDATALOAD PUSH1 0xE0 SHR DUP1 PUSH4 0x3F3108F7 EQ PUSH1 0x48 JUMPI DUP1 PUSH4 0x993A04B7 EQ PUSH1 0x50 JUMPI DUP1 PUSH4 0xDC80E1FB EQ PUSH1 0x6A JUMPI DUP1 PUSH4 0xF2C0A786 EQ PUSH1 0x84 JUMPI JUMPDEST PUSH0 DUP1 REVERT JUMPDEST PUSH1 0x4E PUSH1 0x9E JUMP JUMPDEST STOP JUMPDEST PUSH1 0x56 PUSH1 0xA7 JUMP JUMPDEST PUSH1 0x40 MLOAD PUSH1 0x61 SWAP2 SWAP1 PUSH1 0xD7 JUMP JUMPDEST PUSH1 0x40 MLOAD DUP1 SWAP2 SUB SWAP1 RETURN JUMPDEST PUSH1 0x70 PUSH1 0xAF JUMP JUMPDEST PUSH1 0x40 MLOAD PUSH1 0x7B SWAP2 SWAP1 PUSH1 0xD7 JUMP JUMPDEST PUSH1 0x40 MLOAD DUP1 SWAP2 SUB SWAP1 RETURN JUMPDEST PUSH1 0x8A PUSH1 0xB4 JUMP JUMPDEST PUSH1 0x40 MLOAD PUSH1 0x95 SWAP2 SWAP1 PUSH1 0xD7 JUMP JUMPDEST PUSH1 0x40 MLOAD DUP1 SWAP2 SUB SWAP1 RETURN JUMPDEST PUSH1 0x2 PUSH0 DUP2 SWAP1 SSTORE POP JUMP JUMPDEST PUSH0 DUP1 SLOAD SWAP1 POP SWAP1 JUMP JUMPDEST PUSH0 SLOAD DUP2 JUMP JUMPDEST PUSH0 DUP1 PUSH1 0x1 SWAP1 POP DUP1 SWAP2 POP POP SWAP1 JUMP JUMPDEST PUSH0 DUP2 SWAP1 POP SWAP2 SWAP1 POP JUMP JUMPDEST PUSH1 0xD1 DUP2 PUSH1 0xC1 JUMP JUMPDEST DUP3 MSTORE POP POP JUMP JUMPDEST PUSH0 PUSH1 0x20 DUP3 ADD SWAP1 POP PUSH1 0xE8 PUSH0 DUP4 ADD DUP5 PUSH1 0xCA JUMP JUMPDEST SWAP3 SWAP2 POP POP JUMP INVALID LOG2 PUSH5 0x6970667358 0x22 SLT KECCAK256 0xE5 SUB DUP8 0xDB 0xE6 0xD3 0xDD OR 0xDB 0x2D PUSH21 0xFC817B79E874DAE6CE8128D5DC8BC16469DFB3712B PUSH5 0x736F6C6343 STOP ADDMOD BYTE STOP CALLER "
				},
				"gasEstimates": {
					"creation": {
						"codeDepositCost": "58400",
						"executionCost": "109",
						"totalCost": "58509"
					},
					"external": {
						"getter()": "2432",
						"pureFunction()": "389",
						"setter()": "22234",
						"state_var()": "2446"
					}
				},
				"methodIdentifiers": {
					"getter()": "993a04b7",
					"pureFunction()": "f2c0a786",
					"setter()": "3f3108f7",
					"state_var()": "dc80e1fb"
				}
			},
			"storageLayout": {
				"storage": [
					{
						"astId": 3,
						"contract": "contracts/10.1.local&state-variable.sol:demo",
						"label": "state_var",
						"offset": 0,
						"slot": "0",
						"type": "t_uint256"
					}
				],
				"types": {
					"t_uint256": {
						"encoding": "inplace",
						"label": "uint256",
						"numberOfBytes": "32"
					}
				}
			},
			"userdoc": {
				"kind": "user",
				"methods": {},
				"version": 1
			}
		}
	}
}