{
	"contracts/10.34.solidity_oops_abstract.sol": {
		"Child": {
			"abi": [
				{
					"inputs": [],
					"name": "manager",
					"outputs": [
						{
							"internalType": "address",
							"name": "",
							"type": "address"
						}
					],
					"stateMutability": "view",
					"type": "function"
				},
				{
					"inputs": [
						{
							"internalType": "string",
							"name": "_str",
							"type": "string"
						}
					],
					"name": "setter",
					"outputs": [],
					"stateMutability": "nonpayable",
					"type": "function"
				},
				{
					"inputs": [],
					"name": "str",
					"outputs": [
						{
							"internalType": "string",
							"name": "",
							"type": "string"
						}
					],
					"stateMutability": "view",
					"type": "function"
				},
				{
					"inputs": [],
					"name": "x",
					"outputs": [
						{
							"internalType": "uint256",
							"name": "",
							"type": "uint256"
						}
					],
					"stateMutability": "view",
					"type": "function"
				}
			],
			"devdoc": {
				"kind": "dev",
				"methods": {},
				"version": 1
			},
			"evm": {
				"assembly": "    /* \"contracts/10.34.solidity_oops_abstract.sol\":294:429  contract Child is Parent {... */\n  mstore(0x40, 0x80)\n  callvalue\n  dup1\n  iszero\n  tag_1\n  jumpi\n  0x00\n  dup1\n  revert\ntag_1:\n  pop\n    /* \"contracts/10.34.solidity_oops_abstract.sol\":177:196  str = \"Hello World\" */\n  mload(0x40)\n  dup1\n  0x40\n  add\n  0x40\n  mstore\n  dup1\n  0x0b\n  dup2\n  mstore\n  0x20\n  add\n  0x48656c6c6f20576f726c64000000000000000000000000000000000000000000\n  dup2\n  mstore\n  pop\n    /* \"contracts/10.34.solidity_oops_abstract.sol\":177:180  str */\n  0x00\n    /* \"contracts/10.34.solidity_oops_abstract.sol\":177:196  str = \"Hello World\" */\n  swap1\n  dup2\n  tag_4\n  swap2\n  swap1\n  tag_5\n  jump\t// in\ntag_4:\n  pop\n    /* \"contracts/10.34.solidity_oops_abstract.sol\":216:226  msg.sender */\n  caller\n    /* \"contracts/10.34.solidity_oops_abstract.sol\":206:213  manager */\n  0x01\n  0x00\n    /* \"contracts/10.34.solidity_oops_abstract.sol\":206:226  manager = msg.sender */\n  0x0100\n  exp\n  dup2\n  sload\n  dup2\n  0xffffffffffffffffffffffffffffffffffffffff\n  mul\n  not\n  and\n  swap1\n  dup4\n  0xffffffffffffffffffffffffffffffffffffffff\n  and\n  mul\n  or\n  swap1\n  sstore\n  pop\n    /* \"contracts/10.34.solidity_oops_abstract.sol\":294:429  contract Child is Parent {... */\n  jump(tag_6)\n    /* \"#utility.yul\":7:106   */\ntag_7:\n    /* \"#utility.yul\":59:65   */\n  0x00\n    /* \"#utility.yul\":93:98   */\n  dup2\n    /* \"#utility.yul\":87:99   */\n  mload\n    /* \"#utility.yul\":77:99   */\n  swap1\n  pop\n    /* \"#utility.yul\":7:106   */\n  swap2\n  swap1\n  pop\n  jump\t// out\n    /* \"#utility.yul\":112:292   */\ntag_8:\n    /* \"#utility.yul\":160:237   */\n  0x4e487b7100000000000000000000000000000000000000000000000000000000\n    /* \"#utility.yul\":157:158   */\n  0x00\n    /* \"#utility.yul\":150:238   */\n  mstore\n    /* \"#utility.yul\":257:261   */\n  0x41\n    /* \"#utility.yul\":254:255   */\n  0x04\n    /* \"#utility.yul\":247:262   */\n  mstore\n    /* \"#utility.yul\":281:285   */\n  0x24\n    /* \"#utility.yul\":278:279   */\n  0x00\n    /* \"#utility.yul\":271:286   */\n  revert\n    /* \"#utility.yul\":298:478   */\ntag_9:\n    /* \"#utility.yul\":346:423   */\n  0x4e487b7100000000000000000000000000000000000000000000000000000000\n    /* \"#utility.yul\":343:344   */\n  0x00\n    /* \"#utility.yul\":336:424   */\n  mstore\n    /* \"#utility.yul\":443:447   */\n  0x22\n    /* \"#utility.yul\":440:441   */\n  0x04\n    /* \"#utility.yul\":433:448   */\n  mstore\n    /* \"#utility.yul\":467:471   */\n  0x24\n    /* \"#utility.yul\":464:465   */\n  0x00\n    /* \"#utility.yul\":457:472   */\n  revert\n    /* \"#utility.yul\":484:804   */\ntag_10:\n    /* \"#utility.yul\":528:534   */\n  0x00\n    /* \"#utility.yul\":565:566   */\n  0x02\n    /* \"#utility.yul\":559:563   */\n  dup3\n    /* \"#utility.yul\":555:567   */\n  div\n    /* \"#utility.yul\":545:567   */\n  swap1\n  pop\n    /* \"#utility.yul\":612:613   */\n  0x01\n    /* \"#utility.yul\":606:610   */\n  dup3\n    /* \"#utility.yul\":602:614   */\n  and\n    /* \"#utility.yul\":633:651   */\n  dup1\n    /* \"#utility.yul\":623:704   */\n  tag_32\n  jumpi\n    /* \"#utility.yul\":689:693   */\n  0x7f\n    /* \"#utility.yul\":681:687   */\n  dup3\n    /* \"#utility.yul\":677:694   */\n  and\n    /* \"#utility.yul\":667:694   */\n  swap2\n  pop\n    /* \"#utility.yul\":623:704   */\ntag_32:\n    /* \"#utility.yul\":751:753   */\n  0x20\n    /* \"#utility.yul\":743:749   */\n  dup3\n    /* \"#utility.yul\":740:754   */\n  lt\n    /* \"#utility.yul\":720:738   */\n  dup2\n    /* \"#utility.yul\":717:755   */\n  sub\n    /* \"#utility.yul\":714:798   */\n  tag_33\n  jumpi\n    /* \"#utility.yul\":770:788   */\n  tag_34\n  tag_9\n  jump\t// in\ntag_34:\n    /* \"#utility.yul\":714:798   */\ntag_33:\n    /* \"#utility.yul\":535:804   */\n  pop\n    /* \"#utility.yul\":484:804   */\n  swap2\n  swap1\n  pop\n  jump\t// out\n    /* \"#utility.yul\":810:951   */\ntag_11:\n    /* \"#utility.yul\":859:863   */\n  0x00\n    /* \"#utility.yul\":882:885   */\n  dup2\n    /* \"#utility.yul\":874:885   */\n  swap1\n  pop\n    /* \"#utility.yul\":905:908   */\n  dup2\n    /* \"#utility.yul\":902:903   */\n  0x00\n    /* \"#utility.yul\":895:909   */\n  mstore\n    /* \"#utility.yul\":939:943   */\n  0x20\n    /* \"#utility.yul\":936:937   */\n  0x00\n    /* \"#utility.yul\":926:944   */\n  keccak256\n    /* \"#utility.yul\":918:944   */\n  swap1\n  pop\n    /* \"#utility.yul\":810:951   */\n  swap2\n  swap1\n  pop\n  jump\t// out\n    /* \"#utility.yul\":957:1050   */\ntag_12:\n    /* \"#utility.yul\":994:1000   */\n  0x00\n    /* \"#utility.yul\":1041:1043   */\n  0x20\n    /* \"#utility.yul\":1036:1038   */\n  0x1f\n    /* \"#utility.yul\":1029:1034   */\n  dup4\n    /* \"#utility.yul\":1025:1039   */\n  add\n    /* \"#utility.yul\":1021:1044   */\n  div\n    /* \"#utility.yul\":1011:1044   */\n  swap1\n  pop\n    /* \"#utility.yul\":957:1050   */\n  swap2\n  swap1\n  pop\n  jump\t// out\n    /* \"#utility.yul\":1056:1163   */\ntag_13:\n    /* \"#utility.yul\":1100:1108   */\n  0x00\n    /* \"#utility.yul\":1150:1155   */\n  dup3\n    /* \"#utility.yul\":1144:1148   */\n  dup3\n    /* \"#utility.yul\":1140:1156   */\n  shl\n    /* \"#utility.yul\":1119:1156   */\n  swap1\n  pop\n    /* \"#utility.yul\":1056:1163   */\n  swap3\n  swap2\n  pop\n  pop\n  jump\t// out\n    /* \"#utility.yul\":1169:1562   */\ntag_14:\n    /* \"#utility.yul\":1238:1244   */\n  0x00\n    /* \"#utility.yul\":1288:1289   */\n  0x08\n    /* \"#utility.yul\":1276:1286   */\n  dup4\n    /* \"#utility.yul\":1272:1290   */\n  mul\n    /* \"#utility.yul\":1311:1408   */\n  tag_39\n    /* \"#utility.yul\":1341:1407   */\n  0xffffffffffffffffffffffffffffffffffffffffffffffffffffffffffffffff\n    /* \"#utility.yul\":1330:1339   */\n  dup3\n    /* \"#utility.yul\":1311:1408   */\n  tag_13\n  jump\t// in\ntag_39:\n    /* \"#utility.yul\":1429:1468   */\n  tag_40\n    /* \"#utility.yul\":1459:1467   */\n  dup7\n    /* \"#utility.yul\":1448:1457   */\n  dup4\n    /* \"#utility.yul\":1429:1468   */\n  tag_13\n  jump\t// in\ntag_40:\n    /* \"#utility.yul\":1417:1468   */\n  swap6\n  pop\n    /* \"#utility.yul\":1501:1505   */\n  dup1\n    /* \"#utility.yul\":1497:1506   */\n  not\n    /* \"#utility.yul\":1490:1495   */\n  dup5\n    /* \"#utility.yul\":1486:1507   */\n  and\n    /* \"#utility.yul\":1477:1507   */\n  swap4\n  pop\n    /* \"#utility.yul\":1550:1554   */\n  dup1\n    /* \"#utility.yul\":1540:1548   */\n  dup7\n    /* \"#utility.yul\":1536:1555   */\n  and\n    /* \"#utility.yul\":1529:1534   */\n  dup5\n    /* \"#utility.yul\":1526:1556   */\n  or\n    /* \"#utility.yul\":1516:1556   */\n  swap3\n  pop\n    /* \"#utility.yul\":1245:1562   */\n  pop\n  pop\n    /* \"#utility.yul\":1169:1562   */\n  swap4\n  swap3\n  pop\n  pop\n  pop\n  jump\t// out\n    /* \"#utility.yul\":1568:1645   */\ntag_15:\n    /* \"#utility.yul\":1605:1612   */\n  0x00\n    /* \"#utility.yul\":1634:1639   */\n  dup2\n    /* \"#utility.yul\":1623:1639   */\n  swap1\n  pop\n    /* \"#utility.yul\":1568:1645   */\n  swap2\n  swap1\n  pop\n  jump\t// out\n    /* \"#utility.yul\":1651:1711   */\ntag_16:\n    /* \"#utility.yul\":1679:1682   */\n  0x00\n    /* \"#utility.yul\":1700:1705   */\n  dup2\n    /* \"#utility.yul\":1693:1705   */\n  swap1\n  pop\n    /* \"#utility.yul\":1651:1711   */\n  swap2\n  swap1\n  pop\n  jump\t// out\n    /* \"#utility.yul\":1717:1859   */\ntag_17:\n    /* \"#utility.yul\":1767:1776   */\n  0x00\n    /* \"#utility.yul\":1800:1853   */\n  tag_44\n    /* \"#utility.yul\":1818:1852   */\n  tag_45\n    /* \"#utility.yul\":1827:1851   */\n  tag_46\n    /* \"#utility.yul\":1845:1850   */\n  dup5\n    /* \"#utility.yul\":1827:1851   */\n  tag_15\n  jump\t// in\ntag_46:\n    /* \"#utility.yul\":1818:1852   */\n  tag_16\n  jump\t// in\ntag_45:\n    /* \"#utility.yul\":1800:1853   */\n  tag_15\n  jump\t// in\ntag_44:\n    /* \"#utility.yul\":1787:1853   */\n  swap1\n  pop\n    /* \"#utility.yul\":1717:1859   */\n  swap2\n  swap1\n  pop\n  jump\t// out\n    /* \"#utility.yul\":1865:1940   */\ntag_18:\n    /* \"#utility.yul\":1908:1911   */\n  0x00\n    /* \"#utility.yul\":1929:1934   */\n  dup2\n    /* \"#utility.yul\":1922:1934   */\n  swap1\n  pop\n    /* \"#utility.yul\":1865:1940   */\n  swap2\n  swap1\n  pop\n  jump\t// out\n    /* \"#utility.yul\":1946:2215   */\ntag_19:\n    /* \"#utility.yul\":2056:2095   */\n  tag_49\n    /* \"#utility.yul\":2087:2094   */\n  dup4\n    /* \"#utility.yul\":2056:2095   */\n  tag_17\n  jump\t// in\ntag_49:\n    /* \"#utility.yul\":2117:2208   */\n  tag_50\n    /* \"#utility.yul\":2166:2207   */\n  tag_51\n    /* \"#utility.yul\":2190:2206   */\n  dup3\n    /* \"#utility.yul\":2166:2207   */\n  tag_18\n  jump\t// in\ntag_51:\n    /* \"#utility.yul\":2158:2164   */\n  dup5\n    /* \"#utility.yul\":2151:2155   */\n  dup5\n    /* \"#utility.yul\":2145:2156   */\n  sload\n    /* \"#utility.yul\":2117:2208   */\n  tag_14\n  jump\t// in\ntag_50:\n    /* \"#utility.yul\":2111:2115   */\n  dup3\n    /* \"#utility.yul\":2104:2209   */\n  sstore\n    /* \"#utility.yul\":2022:2215   */\n  pop\n    /* \"#utility.yul\":1946:2215   */\n  pop\n  pop\n  pop\n  jump\t// out\n    /* \"#utility.yul\":2221:2294   */\ntag_20:\n    /* \"#utility.yul\":2266:2269   */\n  0x00\n    /* \"#utility.yul\":2221:2294   */\n  swap1\n  jump\t// out\n    /* \"#utility.yul\":2300:2489   */\ntag_21:\n    /* \"#utility.yul\":2377:2409   */\n  tag_54\n  tag_20\n  jump\t// in\ntag_54:\n    /* \"#utility.yul\":2418:2483   */\n  tag_55\n    /* \"#utility.yul\":2476:2482   */\n  dup2\n    /* \"#utility.yul\":2468:2474   */\n  dup5\n    /* \"#utility.yul\":2462:2466   */\n  dup5\n    /* \"#utility.yul\":2418:2483   */\n  tag_19\n  jump\t// in\ntag_55:\n    /* \"#utility.yul\":2353:2489   */\n  pop\n    /* \"#utility.yul\":2300:2489   */\n  pop\n  pop\n  jump\t// out\n    /* \"#utility.yul\":2495:2681   */\ntag_22:\n    /* \"#utility.yul\":2555:2675   */\ntag_57:\n    /* \"#utility.yul\":2572:2575   */\n  dup2\n    /* \"#utility.yul\":2565:2570   */\n  dup2\n    /* \"#utility.yul\":2562:2576   */\n  lt\n    /* \"#utility.yul\":2555:2675   */\n  iszero\n  tag_59\n  jumpi\n    /* \"#utility.yul\":2626:2665   */\n  tag_60\n    /* \"#utility.yul\":2663:2664   */\n  0x00\n    /* \"#utility.yul\":2656:2661   */\n  dup3\n    /* \"#utility.yul\":2626:2665   */\n  tag_21\n  jump\t// in\ntag_60:\n    /* \"#utility.yul\":2599:2600   */\n  0x01\n    /* \"#utility.yul\":2592:2597   */\n  dup2\n    /* \"#utility.yul\":2588:2601   */\n  add\n    /* \"#utility.yul\":2579:2601   */\n  swap1\n  pop\n    /* \"#utility.yul\":2555:2675   */\n  jump(tag_57)\ntag_59:\n    /* \"#utility.yul\":2495:2681   */\n  pop\n  pop\n  jump\t// out\n    /* \"#utility.yul\":2687:3230   */\ntag_23:\n    /* \"#utility.yul\":2788:2790   */\n  0x1f\n    /* \"#utility.yul\":2783:2786   */\n  dup3\n    /* \"#utility.yul\":2780:2791   */\n  gt\n    /* \"#utility.yul\":2777:3223   */\n  iszero\n  tag_62\n  jumpi\n    /* \"#utility.yul\":2822:2860   */\n  tag_63\n    /* \"#utility.yul\":2854:2859   */\n  dup2\n    /* \"#utility.yul\":2822:2860   */\n  tag_11\n  jump\t// in\ntag_63:\n    /* \"#utility.yul\":2906:2935   */\n  tag_64\n    /* \"#utility.yul\":2924:2934   */\n  dup5\n    /* \"#utility.yul\":2906:2935   */\n  tag_12\n  jump\t// in\ntag_64:\n    /* \"#utility.yul\":2896:2904   */\n  dup2\n    /* \"#utility.yul\":2892:2936   */\n  add\n    /* \"#utility.yul\":3089:3091   */\n  0x20\n    /* \"#utility.yul\":3077:3087   */\n  dup6\n    /* \"#utility.yul\":3074:3092   */\n  lt\n    /* \"#utility.yul\":3071:3120   */\n  iszero\n  tag_65\n  jumpi\n    /* \"#utility.yul\":3110:3118   */\n  dup2\n    /* \"#utility.yul\":3095:3118   */\n  swap1\n  pop\n    /* \"#utility.yul\":3071:3120   */\ntag_65:\n    /* \"#utility.yul\":3133:3213   */\n  tag_66\n    /* \"#utility.yul\":3189:3211   */\n  tag_67\n    /* \"#utility.yul\":3207:3210   */\n  dup6\n    /* \"#utility.yul\":3189:3211   */\n  tag_12\n  jump\t// in\ntag_67:\n    /* \"#utility.yul\":3179:3187   */\n  dup4\n    /* \"#utility.yul\":3175:3212   */\n  add\n    /* \"#utility.yul\":3162:3173   */\n  dup3\n    /* \"#utility.yul\":3133:3213   */\n  tag_22\n  jump\t// in\ntag_66:\n    /* \"#utility.yul\":2792:3223   */\n  pop\n  pop\n    /* \"#utility.yul\":2777:3223   */\ntag_62:\n    /* \"#utility.yul\":2687:3230   */\n  pop\n  pop\n  pop\n  jump\t// out\n    /* \"#utility.yul\":3236:3353   */\ntag_24:\n    /* \"#utility.yul\":3290:3298   */\n  0x00\n    /* \"#utility.yul\":3340:3345   */\n  dup3\n    /* \"#utility.yul\":3334:3338   */\n  dup3\n    /* \"#utility.yul\":3330:3346   */\n  shr\n    /* \"#utility.yul\":3309:3346   */\n  swap1\n  pop\n    /* \"#utility.yul\":3236:3353   */\n  swap3\n  swap2\n  pop\n  pop\n  jump\t// out\n    /* \"#utility.yul\":3359:3528   */\ntag_25:\n    /* \"#utility.yul\":3403:3409   */\n  0x00\n    /* \"#utility.yul\":3436:3487   */\n  tag_70\n    /* \"#utility.yul\":3484:3485   */\n  0x00\n    /* \"#utility.yul\":3480:3486   */\n  not\n    /* \"#utility.yul\":3472:3477   */\n  dup5\n    /* \"#utility.yul\":3469:3470   */\n  0x08\n    /* \"#utility.yul\":3465:3478   */\n  mul\n    /* \"#utility.yul\":3436:3487   */\n  tag_24\n  jump\t// in\ntag_70:\n    /* \"#utility.yul\":3432:3488   */\n  not\n    /* \"#utility.yul\":3517:3521   */\n  dup1\n    /* \"#utility.yul\":3511:3515   */\n  dup4\n    /* \"#utility.yul\":3507:3522   */\n  and\n    /* \"#utility.yul\":3497:3522   */\n  swap2\n  pop\n    /* \"#utility.yul\":3410:3528   */\n  pop\n    /* \"#utility.yul\":3359:3528   */\n  swap3\n  swap2\n  pop\n  pop\n  jump\t// out\n    /* \"#utility.yul\":3533:3828   */\ntag_26:\n    /* \"#utility.yul\":3609:3613   */\n  0x00\n    /* \"#utility.yul\":3755:3784   */\n  tag_72\n    /* \"#utility.yul\":3780:3783   */\n  dup4\n    /* \"#utility.yul\":3774:3778   */\n  dup4\n    /* \"#utility.yul\":3755:3784   */\n  tag_25\n  jump\t// in\ntag_72:\n    /* \"#utility.yul\":3747:3784   */\n  swap2\n  pop\n    /* \"#utility.yul\":3817:3820   */\n  dup3\n    /* \"#utility.yul\":3814:3815   */\n  0x02\n    /* \"#utility.yul\":3810:3821   */\n  mul\n    /* \"#utility.yul\":3804:3808   */\n  dup3\n    /* \"#utility.yul\":3801:3822   */\n  or\n    /* \"#utility.yul\":3793:3822   */\n  swap1\n  pop\n    /* \"#utility.yul\":3533:3828   */\n  swap3\n  swap2\n  pop\n  pop\n  jump\t// out\n    /* \"#utility.yul\":3833:5228   */\ntag_5:\n    /* \"#utility.yul\":3950:3987   */\n  tag_74\n    /* \"#utility.yul\":3983:3986   */\n  dup3\n    /* \"#utility.yul\":3950:3987   */\n  tag_7\n  jump\t// in\ntag_74:\n    /* \"#utility.yul\":4052:4070   */\n  0xffffffffffffffff\n    /* \"#utility.yul\":4044:4050   */\n  dup2\n    /* \"#utility.yul\":4041:4071   */\n  gt\n    /* \"#utility.yul\":4038:4094   */\n  iszero\n  tag_75\n  jumpi\n    /* \"#utility.yul\":4074:4092   */\n  tag_76\n  tag_8\n  jump\t// in\ntag_76:\n    /* \"#utility.yul\":4038:4094   */\ntag_75:\n    /* \"#utility.yul\":4118:4156   */\n  tag_77\n    /* \"#utility.yul\":4150:4154   */\n  dup3\n    /* \"#utility.yul\":4144:4155   */\n  sload\n    /* \"#utility.yul\":4118:4156   */\n  tag_10\n  jump\t// in\ntag_77:\n    /* \"#utility.yul\":4203:4270   */\n  tag_78\n    /* \"#utility.yul\":4263:4269   */\n  dup3\n    /* \"#utility.yul\":4255:4261   */\n  dup3\n    /* \"#utility.yul\":4249:4253   */\n  dup6\n    /* \"#utility.yul\":4203:4270   */\n  tag_23\n  jump\t// in\ntag_78:\n    /* \"#utility.yul\":4297:4298   */\n  0x00\n    /* \"#utility.yul\":4321:4325   */\n  0x20\n    /* \"#utility.yul\":4308:4325   */\n  swap1\n  pop\n    /* \"#utility.yul\":4353:4355   */\n  0x1f\n    /* \"#utility.yul\":4345:4351   */\n  dup4\n    /* \"#utility.yul\":4342:4356   */\n  gt\n    /* \"#utility.yul\":4370:4371   */\n  0x01\n    /* \"#utility.yul\":4365:4983   */\n  dup2\n  eq\n  tag_80\n  jumpi\n    /* \"#utility.yul\":5027:5028   */\n  0x00\n    /* \"#utility.yul\":5044:5050   */\n  dup5\n    /* \"#utility.yul\":5041:5118   */\n  iszero\n  tag_81\n  jumpi\n    /* \"#utility.yul\":5093:5102   */\n  dup3\n    /* \"#utility.yul\":5088:5091   */\n  dup8\n    /* \"#utility.yul\":5084:5103   */\n  add\n    /* \"#utility.yul\":5078:5104   */\n  mload\n    /* \"#utility.yul\":5069:5104   */\n  swap1\n  pop\n    /* \"#utility.yul\":5041:5118   */\ntag_81:\n    /* \"#utility.yul\":5144:5211   */\n  tag_82\n    /* \"#utility.yul\":5204:5210   */\n  dup6\n    /* \"#utility.yul\":5197:5202   */\n  dup3\n    /* \"#utility.yul\":5144:5211   */\n  tag_26\n  jump\t// in\ntag_82:\n    /* \"#utility.yul\":5138:5142   */\n  dup7\n    /* \"#utility.yul\":5131:5212   */\n  sstore\n    /* \"#utility.yul\":5000:5222   */\n  pop\n    /* \"#utility.yul\":4335:5222   */\n  jump(tag_79)\n    /* \"#utility.yul\":4365:4983   */\ntag_80:\n    /* \"#utility.yul\":4417:4421   */\n  0x1f\n    /* \"#utility.yul\":4413:4422   */\n  not\n    /* \"#utility.yul\":4405:4411   */\n  dup5\n    /* \"#utility.yul\":4401:4423   */\n  and\n    /* \"#utility.yul\":4451:4488   */\n  tag_83\n    /* \"#utility.yul\":4483:4487   */\n  dup7\n    /* \"#utility.yul\":4451:4488   */\n  tag_11\n  jump\t// in\ntag_83:\n    /* \"#utility.yul\":4510:4511   */\n  0x00\n    /* \"#utility.yul\":4524:4732   */\ntag_84:\n    /* \"#utility.yul\":4538:4545   */\n  dup3\n    /* \"#utility.yul\":4535:4536   */\n  dup2\n    /* \"#utility.yul\":4532:4546   */\n  lt\n    /* \"#utility.yul\":4524:4732   */\n  iszero\n  tag_86\n  jumpi\n    /* \"#utility.yul\":4617:4626   */\n  dup5\n    /* \"#utility.yul\":4612:4615   */\n  dup10\n    /* \"#utility.yul\":4608:4627   */\n  add\n    /* \"#utility.yul\":4602:4628   */\n  mload\n    /* \"#utility.yul\":4594:4600   */\n  dup3\n    /* \"#utility.yul\":4587:4629   */\n  sstore\n    /* \"#utility.yul\":4668:4669   */\n  0x01\n    /* \"#utility.yul\":4660:4666   */\n  dup3\n    /* \"#utility.yul\":4656:4670   */\n  add\n    /* \"#utility.yul\":4646:4670   */\n  swap2\n  pop\n    /* \"#utility.yul\":4715:4717   */\n  0x20\n    /* \"#utility.yul\":4704:4713   */\n  dup6\n    /* \"#utility.yul\":4700:4718   */\n  add\n    /* \"#utility.yul\":4687:4718   */\n  swap5\n  pop\n    /* \"#utility.yul\":4561:4565   */\n  0x20\n    /* \"#utility.yul\":4558:4559   */\n  dup2\n    /* \"#utility.yul\":4554:4566   */\n  add\n    /* \"#utility.yul\":4549:4566   */\n  swap1\n  pop\n    /* \"#utility.yul\":4524:4732   */\n  jump(tag_84)\ntag_86:\n    /* \"#utility.yul\":4760:4766   */\n  dup7\n    /* \"#utility.yul\":4751:4758   */\n  dup4\n    /* \"#utility.yul\":4748:4767   */\n  lt\n    /* \"#utility.yul\":4745:4924   */\n  iszero\n  tag_87\n  jumpi\n    /* \"#utility.yul\":4818:4827   */\n  dup5\n    /* \"#utility.yul\":4813:4816   */\n  dup10\n    /* \"#utility.yul\":4809:4828   */\n  add\n    /* \"#utility.yul\":4803:4829   */\n  mload\n    /* \"#utility.yul\":4861:4909   */\n  tag_88\n    /* \"#utility.yul\":4903:4907   */\n  0x1f\n    /* \"#utility.yul\":4895:4901   */\n  dup10\n    /* \"#utility.yul\":4891:4908   */\n  and\n    /* \"#utility.yul\":4880:4889   */\n  dup3\n    /* \"#utility.yul\":4861:4909   */\n  tag_25\n  jump\t// in\ntag_88:\n    /* \"#utility.yul\":4853:4859   */\n  dup4\n    /* \"#utility.yul\":4846:4910   */\n  sstore\n    /* \"#utility.yul\":4768:4924   */\n  pop\n    /* \"#utility.yul\":4745:4924   */\ntag_87:\n    /* \"#utility.yul\":4970:4971   */\n  0x01\n    /* \"#utility.yul\":4966:4967   */\n  0x02\n    /* \"#utility.yul\":4958:4964   */\n  dup9\n    /* \"#utility.yul\":4954:4968   */\n  mul\n    /* \"#utility.yul\":4950:4972   */\n  add\n    /* \"#utility.yul\":4944:4948   */\n  dup9\n    /* \"#utility.yul\":4937:4973   */\n  sstore\n    /* \"#utility.yul\":4372:4983   */\n  pop\n  pop\n  pop\n    /* \"#utility.yul\":4335:5222   */\ntag_79:\n  pop\n    /* \"#utility.yul\":3925:5228   */\n  pop\n  pop\n  pop\n    /* \"#utility.yul\":3833:5228   */\n  pop\n  pop\n  jump\t// out\n    /* \"contracts/10.34.solidity_oops_abstract.sol\":294:429  contract Child is Parent {... */\ntag_6:\n  dataSize(sub_0)\n  dup1\n  dataOffset(sub_0)\n  0x00\n  codecopy\n  0x00\n  return\nstop\n\nsub_0: assembly {\n        /* \"contracts/10.34.solidity_oops_abstract.sol\":294:429  contract Child is Parent {... */\n      mstore(0x40, 0x80)\n      callvalue\n      dup1\n      iszero\n      tag_1\n      jumpi\n      0x00\n      dup1\n      revert\n    tag_1:\n      pop\n      jumpi(tag_2, lt(calldatasize, 0x04))\n      shr(0xe0, calldataload(0x00))\n      dup1\n      0x0c55699c\n      eq\n      tag_3\n      jumpi\n      dup1\n      0x481c6a75\n      eq\n      tag_4\n      jumpi\n      dup1\n      0x846228a3\n      eq\n      tag_5\n      jumpi\n      dup1\n      0xc15bae84\n      eq\n      tag_6\n      jumpi\n    tag_2:\n      0x00\n      dup1\n      revert\n        /* \"contracts/10.34.solidity_oops_abstract.sol\":325:341  uint256 public x */\n    tag_3:\n      tag_7\n      tag_8\n      jump\t// in\n    tag_7:\n      mload(0x40)\n      tag_9\n      swap2\n      swap1\n      tag_10\n      jump\t// in\n    tag_9:\n      mload(0x40)\n      dup1\n      swap2\n      sub\n      swap1\n      return\n        /* \"contracts/10.34.solidity_oops_abstract.sol\":124:146  address public manager */\n    tag_4:\n      tag_11\n      tag_12\n      jump\t// in\n    tag_11:\n      mload(0x40)\n      tag_13\n      swap2\n      swap1\n      tag_14\n      jump\t// in\n    tag_13:\n      mload(0x40)\n      dup1\n      swap2\n      sub\n      swap1\n      return\n        /* \"contracts/10.34.solidity_oops_abstract.sol\":348:427  function setter(string memory _str) public override {... */\n    tag_5:\n      tag_15\n      0x04\n      dup1\n      calldatasize\n      sub\n      dup2\n      add\n      swap1\n      tag_16\n      swap2\n      swap1\n      tag_17\n      jump\t// in\n    tag_16:\n      tag_18\n      jump\t// in\n    tag_15:\n      stop\n        /* \"contracts/10.34.solidity_oops_abstract.sol\":101:118  string public str */\n    tag_6:\n      tag_19\n      tag_20\n      jump\t// in\n    tag_19:\n      mload(0x40)\n      tag_21\n      swap2\n      swap1\n      tag_22\n      jump\t// in\n    tag_21:\n      mload(0x40)\n      dup1\n      swap2\n      sub\n      swap1\n      return\n        /* \"contracts/10.34.solidity_oops_abstract.sol\":325:341  uint256 public x */\n    tag_8:\n      sload(0x02)\n      dup2\n      jump\t// out\n        /* \"contracts/10.34.solidity_oops_abstract.sol\":124:146  address public manager */\n    tag_12:\n      0x01\n      0x00\n      swap1\n      sload\n      swap1\n      0x0100\n      exp\n      swap1\n      div\n      0xffffffffffffffffffffffffffffffffffffffff\n      and\n      dup2\n      jump\t// out\n        /* \"contracts/10.34.solidity_oops_abstract.sol\":348:427  function setter(string memory _str) public override {... */\n    tag_18:\n        /* \"contracts/10.34.solidity_oops_abstract.sol\":416:420  _str */\n      dup1\n        /* \"contracts/10.34.solidity_oops_abstract.sol\":410:413  str */\n      0x00\n        /* \"contracts/10.34.solidity_oops_abstract.sol\":410:420  str = _str */\n      swap1\n      dup2\n      tag_24\n      swap2\n      swap1\n      tag_25\n      jump\t// in\n    tag_24:\n      pop\n        /* \"contracts/10.34.solidity_oops_abstract.sol\":348:427  function setter(string memory _str) public override {... */\n      pop\n      jump\t// out\n        /* \"contracts/10.34.solidity_oops_abstract.sol\":101:118  string public str */\n    tag_20:\n      0x00\n      dup1\n      sload\n      tag_26\n      swap1\n      tag_27\n      jump\t// in\n    tag_26:\n      dup1\n      0x1f\n      add\n      0x20\n      dup1\n      swap2\n      div\n      mul\n      0x20\n      add\n      mload(0x40)\n      swap1\n      dup2\n      add\n      0x40\n      mstore\n      dup1\n      swap3\n      swap2\n      swap1\n      dup2\n      dup2\n      mstore\n      0x20\n      add\n      dup3\n      dup1\n      sload\n      tag_28\n      swap1\n      tag_27\n      jump\t// in\n    tag_28:\n      dup1\n      iszero\n      tag_29\n      jumpi\n      dup1\n      0x1f\n      lt\n      tag_30\n      jumpi\n      0x0100\n      dup1\n      dup4\n      sload\n      div\n      mul\n      dup4\n      mstore\n      swap2\n      0x20\n      add\n      swap2\n      jump(tag_29)\n    tag_30:\n      dup3\n      add\n      swap2\n      swap1\n      0x00\n      mstore\n      keccak256(0x00, 0x20)\n      swap1\n    tag_31:\n      dup2\n      sload\n      dup2\n      mstore\n      swap1\n      0x01\n      add\n      swap1\n      0x20\n      add\n      dup1\n      dup4\n      gt\n      tag_31\n      jumpi\n      dup3\n      swap1\n      sub\n      0x1f\n      and\n      dup3\n      add\n      swap2\n    tag_29:\n      pop\n      pop\n      pop\n      pop\n      pop\n      dup2\n      jump\t// out\n        /* \"#utility.yul\":7:84   */\n    tag_32:\n        /* \"#utility.yul\":44:51   */\n      0x00\n        /* \"#utility.yul\":73:78   */\n      dup2\n        /* \"#utility.yul\":62:78   */\n      swap1\n      pop\n        /* \"#utility.yul\":7:84   */\n      swap2\n      swap1\n      pop\n      jump\t// out\n        /* \"#utility.yul\":90:208   */\n    tag_33:\n        /* \"#utility.yul\":177:201   */\n      tag_73\n        /* \"#utility.yul\":195:200   */\n      dup2\n        /* \"#utility.yul\":177:201   */\n      tag_32\n      jump\t// in\n    tag_73:\n        /* \"#utility.yul\":172:175   */\n      dup3\n        /* \"#utility.yul\":165:202   */\n      mstore\n        /* \"#utility.yul\":90:208   */\n      pop\n      pop\n      jump\t// out\n        /* \"#utility.yul\":214:436   */\n    tag_10:\n        /* \"#utility.yul\":307:311   */\n      0x00\n        /* \"#utility.yul\":345:347   */\n      0x20\n        /* \"#utility.yul\":334:343   */\n      dup3\n        /* \"#utility.yul\":330:348   */\n      add\n        /* \"#utility.yul\":322:348   */\n      swap1\n      pop\n        /* \"#utility.yul\":358:429   */\n      tag_75\n        /* \"#utility.yul\":426:427   */\n      0x00\n        /* \"#utility.yul\":415:424   */\n      dup4\n        /* \"#utility.yul\":411:428   */\n      add\n        /* \"#utility.yul\":402:408   */\n      dup5\n        /* \"#utility.yul\":358:429   */\n      tag_33\n      jump\t// in\n    tag_75:\n        /* \"#utility.yul\":214:436   */\n      swap3\n      swap2\n      pop\n      pop\n      jump\t// out\n        /* \"#utility.yul\":442:568   */\n    tag_34:\n        /* \"#utility.yul\":479:486   */\n      0x00\n        /* \"#utility.yul\":519:561   */\n      0xffffffffffffffffffffffffffffffffffffffff\n        /* \"#utility.yul\":512:517   */\n      dup3\n        /* \"#utility.yul\":508:562   */\n      and\n        /* \"#utility.yul\":497:562   */\n      swap1\n      pop\n        /* \"#utility.yul\":442:568   */\n      swap2\n      swap1\n      pop\n      jump\t// out\n        /* \"#utility.yul\":574:670   */\n    tag_35:\n        /* \"#utility.yul\":611:618   */\n      0x00\n        /* \"#utility.yul\":640:664   */\n      tag_78\n        /* \"#utility.yul\":658:663   */\n      dup3\n        /* \"#utility.yul\":640:664   */\n      tag_34\n      jump\t// in\n    tag_78:\n        /* \"#utility.yul\":629:664   */\n      swap1\n      pop\n        /* \"#utility.yul\":574:670   */\n      swap2\n      swap1\n      pop\n      jump\t// out\n        /* \"#utility.yul\":676:794   */\n    tag_36:\n        /* \"#utility.yul\":763:787   */\n      tag_80\n        /* \"#utility.yul\":781:786   */\n      dup2\n        /* \"#utility.yul\":763:787   */\n      tag_35\n      jump\t// in\n    tag_80:\n        /* \"#utility.yul\":758:761   */\n      dup3\n        /* \"#utility.yul\":751:788   */\n      mstore\n        /* \"#utility.yul\":676:794   */\n      pop\n      pop\n      jump\t// out\n        /* \"#utility.yul\":800:1022   */\n    tag_14:\n        /* \"#utility.yul\":893:897   */\n      0x00\n        /* \"#utility.yul\":931:933   */\n      0x20\n        /* \"#utility.yul\":920:929   */\n      dup3\n        /* \"#utility.yul\":916:934   */\n      add\n        /* \"#utility.yul\":908:934   */\n      swap1\n      pop\n        /* \"#utility.yul\":944:1015   */\n      tag_82\n        /* \"#utility.yul\":1012:1013   */\n      0x00\n        /* \"#utility.yul\":1001:1010   */\n      dup4\n        /* \"#utility.yul\":997:1014   */\n      add\n        /* \"#utility.yul\":988:994   */\n      dup5\n        /* \"#utility.yul\":944:1015   */\n      tag_36\n      jump\t// in\n    tag_82:\n        /* \"#utility.yul\":800:1022   */\n      swap3\n      swap2\n      pop\n      pop\n      jump\t// out\n        /* \"#utility.yul\":1028:1103   */\n    tag_37:\n        /* \"#utility.yul\":1061:1067   */\n      0x00\n        /* \"#utility.yul\":1094:1096   */\n      0x40\n        /* \"#utility.yul\":1088:1097   */\n      mload\n        /* \"#utility.yul\":1078:1097   */\n      swap1\n      pop\n        /* \"#utility.yul\":1028:1103   */\n      swap1\n      jump\t// out\n        /* \"#utility.yul\":1109:1226   */\n    tag_38:\n        /* \"#utility.yul\":1218:1219   */\n      0x00\n        /* \"#utility.yul\":1215:1216   */\n      dup1\n        /* \"#utility.yul\":1208:1220   */\n      revert\n        /* \"#utility.yul\":1232:1349   */\n    tag_39:\n        /* \"#utility.yul\":1341:1342   */\n      0x00\n        /* \"#utility.yul\":1338:1339   */\n      dup1\n        /* \"#utility.yul\":1331:1343   */\n      revert\n        /* \"#utility.yul\":1355:1472   */\n    tag_40:\n        /* \"#utility.yul\":1464:1465   */\n      0x00\n        /* \"#utility.yul\":1461:1462   */\n      dup1\n        /* \"#utility.yul\":1454:1466   */\n      revert\n        /* \"#utility.yul\":1478:1595   */\n    tag_41:\n        /* \"#utility.yul\":1587:1588   */\n      0x00\n        /* \"#utility.yul\":1584:1585   */\n      dup1\n        /* \"#utility.yul\":1577:1589   */\n      revert\n        /* \"#utility.yul\":1601:1703   */\n    tag_42:\n        /* \"#utility.yul\":1642:1648   */\n      0x00\n        /* \"#utility.yul\":1693:1695   */\n      0x1f\n        /* \"#utility.yul\":1689:1696   */\n      not\n        /* \"#utility.yul\":1684:1686   */\n      0x1f\n        /* \"#utility.yul\":1677:1682   */\n      dup4\n        /* \"#utility.yul\":1673:1687   */\n      add\n        /* \"#utility.yul\":1669:1697   */\n      and\n        /* \"#utility.yul\":1659:1697   */\n      swap1\n      pop\n        /* \"#utility.yul\":1601:1703   */\n      swap2\n      swap1\n      pop\n      jump\t// out\n        /* \"#utility.yul\":1709:1889   */\n    tag_43:\n        /* \"#utility.yul\":1757:1834   */\n      0x4e487b7100000000000000000000000000000000000000000000000000000000\n        /* \"#utility.yul\":1754:1755   */\n      0x00\n        /* \"#utility.yul\":1747:1835   */\n      mstore\n        /* \"#utility.yul\":1854:1858   */\n      0x41\n        /* \"#utility.yul\":1851:1852   */\n      0x04\n        /* \"#utility.yul\":1844:1859   */\n      mstore\n        /* \"#utility.yul\":1878:1882   */\n      0x24\n        /* \"#utility.yul\":1875:1876   */\n      0x00\n        /* \"#utility.yul\":1868:1883   */\n      revert\n        /* \"#utility.yul\":1895:2176   */\n    tag_44:\n        /* \"#utility.yul\":1978:2005   */\n      tag_91\n        /* \"#utility.yul\":2000:2004   */\n      dup3\n        /* \"#utility.yul\":1978:2005   */\n      tag_42\n      jump\t// in\n    tag_91:\n        /* \"#utility.yul\":1970:1976   */\n      dup2\n        /* \"#utility.yul\":1966:2006   */\n      add\n        /* \"#utility.yul\":2108:2114   */\n      dup2\n        /* \"#utility.yul\":2096:2106   */\n      dup2\n        /* \"#utility.yul\":2093:2115   */\n      lt\n        /* \"#utility.yul\":2072:2090   */\n      0xffffffffffffffff\n        /* \"#utility.yul\":2060:2070   */\n      dup3\n        /* \"#utility.yul\":2057:2091   */\n      gt\n        /* \"#utility.yul\":2054:2116   */\n      or\n        /* \"#utility.yul\":2051:2139   */\n      iszero\n      tag_92\n      jumpi\n        /* \"#utility.yul\":2119:2137   */\n      tag_93\n      tag_43\n      jump\t// in\n    tag_93:\n        /* \"#utility.yul\":2051:2139   */\n    tag_92:\n        /* \"#utility.yul\":2159:2169   */\n      dup1\n        /* \"#utility.yul\":2155:2157   */\n      0x40\n        /* \"#utility.yul\":2148:2170   */\n      mstore\n        /* \"#utility.yul\":1938:2176   */\n      pop\n        /* \"#utility.yul\":1895:2176   */\n      pop\n      pop\n      jump\t// out\n        /* \"#utility.yul\":2182:2311   */\n    tag_45:\n        /* \"#utility.yul\":2216:2222   */\n      0x00\n        /* \"#utility.yul\":2243:2263   */\n      tag_95\n      tag_37\n      jump\t// in\n    tag_95:\n        /* \"#utility.yul\":2233:2263   */\n      swap1\n      pop\n        /* \"#utility.yul\":2272:2305   */\n      tag_96\n        /* \"#utility.yul\":2300:2304   */\n      dup3\n        /* \"#utility.yul\":2292:2298   */\n      dup3\n        /* \"#utility.yul\":2272:2305   */\n      tag_44\n      jump\t// in\n    tag_96:\n        /* \"#utility.yul\":2182:2311   */\n      swap2\n      swap1\n      pop\n      jump\t// out\n        /* \"#utility.yul\":2317:2625   */\n    tag_46:\n        /* \"#utility.yul\":2379:2383   */\n      0x00\n        /* \"#utility.yul\":2469:2487   */\n      0xffffffffffffffff\n        /* \"#utility.yul\":2461:2467   */\n      dup3\n        /* \"#utility.yul\":2458:2488   */\n      gt\n        /* \"#utility.yul\":2455:2511   */\n      iszero\n      tag_98\n      jumpi\n        /* \"#utility.yul\":2491:2509   */\n      tag_99\n      tag_43\n      jump\t// in\n    tag_99:\n        /* \"#utility.yul\":2455:2511   */\n    tag_98:\n        /* \"#utility.yul\":2529:2558   */\n      tag_100\n        /* \"#utility.yul\":2551:2557   */\n      dup3\n        /* \"#utility.yul\":2529:2558   */\n      tag_42\n      jump\t// in\n    tag_100:\n        /* \"#utility.yul\":2521:2558   */\n      swap1\n      pop\n        /* \"#utility.yul\":2613:2617   */\n      0x20\n        /* \"#utility.yul\":2607:2611   */\n      dup2\n        /* \"#utility.yul\":2603:2618   */\n      add\n        /* \"#utility.yul\":2595:2618   */\n      swap1\n      pop\n        /* \"#utility.yul\":2317:2625   */\n      swap2\n      swap1\n      pop\n      jump\t// out\n        /* \"#utility.yul\":2631:2779   */\n    tag_47:\n        /* \"#utility.yul\":2729:2735   */\n      dup3\n        /* \"#utility.yul\":2724:2727   */\n      dup2\n        /* \"#utility.yul\":2719:2722   */\n      dup4\n        /* \"#utility.yul\":2706:2736   */\n      calldatacopy\n        /* \"#utility.yul\":2770:2771   */\n      0x00\n        /* \"#utility.yul\":2761:2767   */\n      dup4\n        /* \"#utility.yul\":2756:2759   */\n      dup4\n        /* \"#utility.yul\":2752:2768   */\n      add\n        /* \"#utility.yul\":2745:2772   */\n      mstore\n        /* \"#utility.yul\":2631:2779   */\n      pop\n      pop\n      pop\n      jump\t// out\n        /* \"#utility.yul\":2785:3210   */\n    tag_48:\n        /* \"#utility.yul\":2863:2868   */\n      0x00\n        /* \"#utility.yul\":2888:2954   */\n      tag_103\n        /* \"#utility.yul\":2904:2953   */\n      tag_104\n        /* \"#utility.yul\":2946:2952   */\n      dup5\n        /* \"#utility.yul\":2904:2953   */\n      tag_46\n      jump\t// in\n    tag_104:\n        /* \"#utility.yul\":2888:2954   */\n      tag_45\n      jump\t// in\n    tag_103:\n        /* \"#utility.yul\":2879:2954   */\n      swap1\n      pop\n        /* \"#utility.yul\":2977:2983   */\n      dup3\n        /* \"#utility.yul\":2970:2975   */\n      dup2\n        /* \"#utility.yul\":2963:2984   */\n      mstore\n        /* \"#utility.yul\":3015:3019   */\n      0x20\n        /* \"#utility.yul\":3008:3013   */\n      dup2\n        /* \"#utility.yul\":3004:3020   */\n      add\n        /* \"#utility.yul\":3053:3056   */\n      dup5\n        /* \"#utility.yul\":3044:3050   */\n      dup5\n        /* \"#utility.yul\":3039:3042   */\n      dup5\n        /* \"#utility.yul\":3035:3051   */\n      add\n        /* \"#utility.yul\":3032:3057   */\n      gt\n        /* \"#utility.yul\":3029:3141   */\n      iszero\n      tag_105\n      jumpi\n        /* \"#utility.yul\":3060:3139   */\n      tag_106\n      tag_41\n      jump\t// in\n    tag_106:\n        /* \"#utility.yul\":3029:3141   */\n    tag_105:\n        /* \"#utility.yul\":3150:3204   */\n      tag_107\n        /* \"#utility.yul\":3197:3203   */\n      dup5\n        /* \"#utility.yul\":3192:3195   */\n      dup3\n        /* \"#utility.yul\":3187:3190   */\n      dup6\n        /* \"#utility.yul\":3150:3204   */\n      tag_47\n      jump\t// in\n    tag_107:\n        /* \"#utility.yul\":2869:3210   */\n      pop\n        /* \"#utility.yul\":2785:3210   */\n      swap4\n      swap3\n      pop\n      pop\n      pop\n      jump\t// out\n        /* \"#utility.yul\":3230:3570   */\n    tag_49:\n        /* \"#utility.yul\":3286:3291   */\n      0x00\n        /* \"#utility.yul\":3335:3338   */\n      dup3\n        /* \"#utility.yul\":3328:3332   */\n      0x1f\n        /* \"#utility.yul\":3320:3326   */\n      dup4\n        /* \"#utility.yul\":3316:3333   */\n      add\n        /* \"#utility.yul\":3312:3339   */\n      slt\n        /* \"#utility.yul\":3302:3424   */\n      tag_109\n      jumpi\n        /* \"#utility.yul\":3343:3422   */\n      tag_110\n      tag_40\n      jump\t// in\n    tag_110:\n        /* \"#utility.yul\":3302:3424   */\n    tag_109:\n        /* \"#utility.yul\":3460:3466   */\n      dup2\n        /* \"#utility.yul\":3447:3467   */\n      calldataload\n        /* \"#utility.yul\":3485:3564   */\n      tag_111\n        /* \"#utility.yul\":3560:3563   */\n      dup5\n        /* \"#utility.yul\":3552:3558   */\n      dup3\n        /* \"#utility.yul\":3545:3549   */\n      0x20\n        /* \"#utility.yul\":3537:3543   */\n      dup7\n        /* \"#utility.yul\":3533:3550   */\n      add\n        /* \"#utility.yul\":3485:3564   */\n      tag_48\n      jump\t// in\n    tag_111:\n        /* \"#utility.yul\":3476:3564   */\n      swap2\n      pop\n        /* \"#utility.yul\":3292:3570   */\n      pop\n        /* \"#utility.yul\":3230:3570   */\n      swap3\n      swap2\n      pop\n      pop\n      jump\t// out\n        /* \"#utility.yul\":3576:4085   */\n    tag_17:\n        /* \"#utility.yul\":3645:3651   */\n      0x00\n        /* \"#utility.yul\":3694:3696   */\n      0x20\n        /* \"#utility.yul\":3682:3691   */\n      dup3\n        /* \"#utility.yul\":3673:3680   */\n      dup5\n        /* \"#utility.yul\":3669:3692   */\n      sub\n        /* \"#utility.yul\":3665:3697   */\n      slt\n        /* \"#utility.yul\":3662:3781   */\n      iszero\n      tag_113\n      jumpi\n        /* \"#utility.yul\":3700:3779   */\n      tag_114\n      tag_38\n      jump\t// in\n    tag_114:\n        /* \"#utility.yul\":3662:3781   */\n    tag_113:\n        /* \"#utility.yul\":3848:3849   */\n      0x00\n        /* \"#utility.yul\":3837:3846   */\n      dup3\n        /* \"#utility.yul\":3833:3850   */\n      add\n        /* \"#utility.yul\":3820:3851   */\n      calldataload\n        /* \"#utility.yul\":3878:3896   */\n      0xffffffffffffffff\n        /* \"#utility.yul\":3870:3876   */\n      dup2\n        /* \"#utility.yul\":3867:3897   */\n      gt\n        /* \"#utility.yul\":3864:3981   */\n      iszero\n      tag_115\n      jumpi\n        /* \"#utility.yul\":3900:3979   */\n      tag_116\n      tag_39\n      jump\t// in\n    tag_116:\n        /* \"#utility.yul\":3864:3981   */\n    tag_115:\n        /* \"#utility.yul\":4005:4068   */\n      tag_117\n        /* \"#utility.yul\":4060:4067   */\n      dup5\n        /* \"#utility.yul\":4051:4057   */\n      dup3\n        /* \"#utility.yul\":4040:4049   */\n      dup6\n        /* \"#utility.yul\":4036:4058   */\n      add\n        /* \"#utility.yul\":4005:4068   */\n      tag_49\n      jump\t// in\n    tag_117:\n        /* \"#utility.yul\":3995:4068   */\n      swap2\n      pop\n        /* \"#utility.yul\":3791:4078   */\n      pop\n        /* \"#utility.yul\":3576:4085   */\n      swap3\n      swap2\n      pop\n      pop\n      jump\t// out\n        /* \"#utility.yul\":4091:4190   */\n    tag_50:\n        /* \"#utility.yul\":4143:4149   */\n      0x00\n        /* \"#utility.yul\":4177:4182   */\n      dup2\n        /* \"#utility.yul\":4171:4183   */\n      mload\n        /* \"#utility.yul\":4161:4183   */\n      swap1\n      pop\n        /* \"#utility.yul\":4091:4190   */\n      swap2\n      swap1\n      pop\n      jump\t// out\n        /* \"#utility.yul\":4196:4365   */\n    tag_51:\n        /* \"#utility.yul\":4280:4291   */\n      0x00\n        /* \"#utility.yul\":4314:4320   */\n      dup3\n        /* \"#utility.yul\":4309:4312   */\n      dup3\n        /* \"#utility.yul\":4302:4321   */\n      mstore\n        /* \"#utility.yul\":4354:4358   */\n      0x20\n        /* \"#utility.yul\":4349:4352   */\n      dup3\n        /* \"#utility.yul\":4345:4359   */\n      add\n        /* \"#utility.yul\":4330:4359   */\n      swap1\n      pop\n        /* \"#utility.yul\":4196:4365   */\n      swap3\n      swap2\n      pop\n      pop\n      jump\t// out\n        /* \"#utility.yul\":4371:4510   */\n    tag_52:\n        /* \"#utility.yul\":4460:4466   */\n      dup3\n        /* \"#utility.yul\":4455:4458   */\n      dup2\n        /* \"#utility.yul\":4450:4453   */\n      dup4\n        /* \"#utility.yul\":4444:4467   */\n      mcopy\n        /* \"#utility.yul\":4501:4502   */\n      0x00\n        /* \"#utility.yul\":4492:4498   */\n      dup4\n        /* \"#utility.yul\":4487:4490   */\n      dup4\n        /* \"#utility.yul\":4483:4499   */\n      add\n        /* \"#utility.yul\":4476:4503   */\n      mstore\n        /* \"#utility.yul\":4371:4510   */\n      pop\n      pop\n      pop\n      jump\t// out\n        /* \"#utility.yul\":4516:4893   */\n    tag_53:\n        /* \"#utility.yul\":4604:4607   */\n      0x00\n        /* \"#utility.yul\":4632:4671   */\n      tag_122\n        /* \"#utility.yul\":4665:4670   */\n      dup3\n        /* \"#utility.yul\":4632:4671   */\n      tag_50\n      jump\t// in\n    tag_122:\n        /* \"#utility.yul\":4687:4758   */\n      tag_123\n        /* \"#utility.yul\":4751:4757   */\n      dup2\n        /* \"#utility.yul\":4746:4749   */\n      dup6\n        /* \"#utility.yul\":4687:4758   */\n      tag_51\n      jump\t// in\n    tag_123:\n        /* \"#utility.yul\":4680:4758   */\n      swap4\n      pop\n        /* \"#utility.yul\":4767:4832   */\n      tag_124\n        /* \"#utility.yul\":4825:4831   */\n      dup2\n        /* \"#utility.yul\":4820:4823   */\n      dup6\n        /* \"#utility.yul\":4813:4817   */\n      0x20\n        /* \"#utility.yul\":4806:4811   */\n      dup7\n        /* \"#utility.yul\":4802:4818   */\n      add\n        /* \"#utility.yul\":4767:4832   */\n      tag_52\n      jump\t// in\n    tag_124:\n        /* \"#utility.yul\":4857:4886   */\n      tag_125\n        /* \"#utility.yul\":4879:4885   */\n      dup2\n        /* \"#utility.yul\":4857:4886   */\n      tag_42\n      jump\t// in\n    tag_125:\n        /* \"#utility.yul\":4852:4855   */\n      dup5\n        /* \"#utility.yul\":4848:4887   */\n      add\n        /* \"#utility.yul\":4841:4887   */\n      swap2\n      pop\n        /* \"#utility.yul\":4608:4893   */\n      pop\n        /* \"#utility.yul\":4516:4893   */\n      swap3\n      swap2\n      pop\n      pop\n      jump\t// out\n        /* \"#utility.yul\":4899:5212   */\n    tag_22:\n        /* \"#utility.yul\":5012:5016   */\n      0x00\n        /* \"#utility.yul\":5050:5052   */\n      0x20\n        /* \"#utility.yul\":5039:5048   */\n      dup3\n        /* \"#utility.yul\":5035:5053   */\n      add\n        /* \"#utility.yul\":5027:5053   */\n      swap1\n      pop\n        /* \"#utility.yul\":5099:5108   */\n      dup2\n        /* \"#utility.yul\":5093:5097   */\n      dup2\n        /* \"#utility.yul\":5089:5109   */\n      sub\n        /* \"#utility.yul\":5085:5086   */\n      0x00\n        /* \"#utility.yul\":5074:5083   */\n      dup4\n        /* \"#utility.yul\":5070:5087   */\n      add\n        /* \"#utility.yul\":5063:5110   */\n      mstore\n        /* \"#utility.yul\":5127:5205   */\n      tag_127\n        /* \"#utility.yul\":5200:5204   */\n      dup2\n        /* \"#utility.yul\":5191:5197   */\n      dup5\n        /* \"#utility.yul\":5127:5205   */\n      tag_53\n      jump\t// in\n    tag_127:\n        /* \"#utility.yul\":5119:5205   */\n      swap1\n      pop\n        /* \"#utility.yul\":4899:5212   */\n      swap3\n      swap2\n      pop\n      pop\n      jump\t// out\n        /* \"#utility.yul\":5218:5398   */\n    tag_54:\n        /* \"#utility.yul\":5266:5343   */\n      0x4e487b7100000000000000000000000000000000000000000000000000000000\n        /* \"#utility.yul\":5263:5264   */\n      0x00\n        /* \"#utility.yul\":5256:5344   */\n      mstore\n        /* \"#utility.yul\":5363:5367   */\n      0x22\n        /* \"#utility.yul\":5360:5361   */\n      0x04\n        /* \"#utility.yul\":5353:5368   */\n      mstore\n        /* \"#utility.yul\":5387:5391   */\n      0x24\n        /* \"#utility.yul\":5384:5385   */\n      0x00\n        /* \"#utility.yul\":5377:5392   */\n      revert\n        /* \"#utility.yul\":5404:5724   */\n    tag_27:\n        /* \"#utility.yul\":5448:5454   */\n      0x00\n        /* \"#utility.yul\":5485:5486   */\n      0x02\n        /* \"#utility.yul\":5479:5483   */\n      dup3\n        /* \"#utility.yul\":5475:5487   */\n      div\n        /* \"#utility.yul\":5465:5487   */\n      swap1\n      pop\n        /* \"#utility.yul\":5532:5533   */\n      0x01\n        /* \"#utility.yul\":5526:5530   */\n      dup3\n        /* \"#utility.yul\":5522:5534   */\n      and\n        /* \"#utility.yul\":5553:5571   */\n      dup1\n        /* \"#utility.yul\":5543:5624   */\n      tag_130\n      jumpi\n        /* \"#utility.yul\":5609:5613   */\n      0x7f\n        /* \"#utility.yul\":5601:5607   */\n      dup3\n        /* \"#utility.yul\":5597:5614   */\n      and\n        /* \"#utility.yul\":5587:5614   */\n      swap2\n      pop\n        /* \"#utility.yul\":5543:5624   */\n    tag_130:\n        /* \"#utility.yul\":5671:5673   */\n      0x20\n        /* \"#utility.yul\":5663:5669   */\n      dup3\n        /* \"#utility.yul\":5660:5674   */\n      lt\n        /* \"#utility.yul\":5640:5658   */\n      dup2\n        /* \"#utility.yul\":5637:5675   */\n      sub\n        /* \"#utility.yul\":5634:5718   */\n      tag_131\n      jumpi\n        /* \"#utility.yul\":5690:5708   */\n      tag_132\n      tag_54\n      jump\t// in\n    tag_132:\n        /* \"#utility.yul\":5634:5718   */\n    tag_131:\n        /* \"#utility.yul\":5455:5724   */\n      pop\n        /* \"#utility.yul\":5404:5724   */\n      swap2\n      swap1\n      pop\n      jump\t// out\n        /* \"#utility.yul\":5730:5871   */\n    tag_55:\n        /* \"#utility.yul\":5779:5783   */\n      0x00\n        /* \"#utility.yul\":5802:5805   */\n      dup2\n        /* \"#utility.yul\":5794:5805   */\n      swap1\n      pop\n        /* \"#utility.yul\":5825:5828   */\n      dup2\n        /* \"#utility.yul\":5822:5823   */\n      0x00\n        /* \"#utility.yul\":5815:5829   */\n      mstore\n        /* \"#utility.yul\":5859:5863   */\n      0x20\n        /* \"#utility.yul\":5856:5857   */\n      0x00\n        /* \"#utility.yul\":5846:5864   */\n      keccak256\n        /* \"#utility.yul\":5838:5864   */\n      swap1\n      pop\n        /* \"#utility.yul\":5730:5871   */\n      swap2\n      swap1\n      pop\n      jump\t// out\n        /* \"#utility.yul\":5877:5970   */\n    tag_56:\n        /* \"#utility.yul\":5914:5920   */\n      0x00\n        /* \"#utility.yul\":5961:5963   */\n      0x20\n        /* \"#utility.yul\":5956:5958   */\n      0x1f\n        /* \"#utility.yul\":5949:5954   */\n      dup4\n        /* \"#utility.yul\":5945:5959   */\n      add\n        /* \"#utility.yul\":5941:5964   */\n      div\n        /* \"#utility.yul\":5931:5964   */\n      swap1\n      pop\n        /* \"#utility.yul\":5877:5970   */\n      swap2\n      swap1\n      pop\n      jump\t// out\n        /* \"#utility.yul\":5976:6083   */\n    tag_57:\n        /* \"#utility.yul\":6020:6028   */\n      0x00\n        /* \"#utility.yul\":6070:6075   */\n      dup3\n        /* \"#utility.yul\":6064:6068   */\n      dup3\n        /* \"#utility.yul\":6060:6076   */\n      shl\n        /* \"#utility.yul\":6039:6076   */\n      swap1\n      pop\n        /* \"#utility.yul\":5976:6083   */\n      swap3\n      swap2\n      pop\n      pop\n      jump\t// out\n        /* \"#utility.yul\":6089:6482   */\n    tag_58:\n        /* \"#utility.yul\":6158:6164   */\n      0x00\n        /* \"#utility.yul\":6208:6209   */\n      0x08\n        /* \"#utility.yul\":6196:6206   */\n      dup4\n        /* \"#utility.yul\":6192:6210   */\n      mul\n        /* \"#utility.yul\":6231:6328   */\n      tag_137\n        /* \"#utility.yul\":6261:6327   */\n      0xffffffffffffffffffffffffffffffffffffffffffffffffffffffffffffffff\n        /* \"#utility.yul\":6250:6259   */\n      dup3\n        /* \"#utility.yul\":6231:6328   */\n      tag_57\n      jump\t// in\n    tag_137:\n        /* \"#utility.yul\":6349:6388   */\n      tag_138\n        /* \"#utility.yul\":6379:6387   */\n      dup7\n        /* \"#utility.yul\":6368:6377   */\n      dup4\n        /* \"#utility.yul\":6349:6388   */\n      tag_57\n      jump\t// in\n    tag_138:\n        /* \"#utility.yul\":6337:6388   */\n      swap6\n      pop\n        /* \"#utility.yul\":6421:6425   */\n      dup1\n        /* \"#utility.yul\":6417:6426   */\n      not\n        /* \"#utility.yul\":6410:6415   */\n      dup5\n        /* \"#utility.yul\":6406:6427   */\n      and\n        /* \"#utility.yul\":6397:6427   */\n      swap4\n      pop\n        /* \"#utility.yul\":6470:6474   */\n      dup1\n        /* \"#utility.yul\":6460:6468   */\n      dup7\n        /* \"#utility.yul\":6456:6475   */\n      and\n        /* \"#utility.yul\":6449:6454   */\n      dup5\n        /* \"#utility.yul\":6446:6476   */\n      or\n        /* \"#utility.yul\":6436:6476   */\n      swap3\n      pop\n        /* \"#utility.yul\":6165:6482   */\n      pop\n      pop\n        /* \"#utility.yul\":6089:6482   */\n      swap4\n      swap3\n      pop\n      pop\n      pop\n      jump\t// out\n        /* \"#utility.yul\":6488:6548   */\n    tag_59:\n        /* \"#utility.yul\":6516:6519   */\n      0x00\n        /* \"#utility.yul\":6537:6542   */\n      dup2\n        /* \"#utility.yul\":6530:6542   */\n      swap1\n      pop\n        /* \"#utility.yul\":6488:6548   */\n      swap2\n      swap1\n      pop\n      jump\t// out\n        /* \"#utility.yul\":6554:6696   */\n    tag_60:\n        /* \"#utility.yul\":6604:6613   */\n      0x00\n        /* \"#utility.yul\":6637:6690   */\n      tag_141\n        /* \"#utility.yul\":6655:6689   */\n      tag_142\n        /* \"#utility.yul\":6664:6688   */\n      tag_143\n        /* \"#utility.yul\":6682:6687   */\n      dup5\n        /* \"#utility.yul\":6664:6688   */\n      tag_32\n      jump\t// in\n    tag_143:\n        /* \"#utility.yul\":6655:6689   */\n      tag_59\n      jump\t// in\n    tag_142:\n        /* \"#utility.yul\":6637:6690   */\n      tag_32\n      jump\t// in\n    tag_141:\n        /* \"#utility.yul\":6624:6690   */\n      swap1\n      pop\n        /* \"#utility.yul\":6554:6696   */\n      swap2\n      swap1\n      pop\n      jump\t// out\n        /* \"#utility.yul\":6702:6777   */\n    tag_61:\n        /* \"#utility.yul\":6745:6748   */\n      0x00\n        /* \"#utility.yul\":6766:6771   */\n      dup2\n        /* \"#utility.yul\":6759:6771   */\n      swap1\n      pop\n        /* \"#utility.yul\":6702:6777   */\n      swap2\n      swap1\n      pop\n      jump\t// out\n        /* \"#utility.yul\":6783:7052   */\n    tag_62:\n        /* \"#utility.yul\":6893:6932   */\n      tag_146\n        /* \"#utility.yul\":6924:6931   */\n      dup4\n        /* \"#utility.yul\":6893:6932   */\n      tag_60\n      jump\t// in\n    tag_146:\n        /* \"#utility.yul\":6954:7045   */\n      tag_147\n        /* \"#utility.yul\":7003:7044   */\n      tag_148\n        /* \"#utility.yul\":7027:7043   */\n      dup3\n        /* \"#utility.yul\":7003:7044   */\n      tag_61\n      jump\t// in\n    tag_148:\n        /* \"#utility.yul\":6995:7001   */\n      dup5\n        /* \"#utility.yul\":6988:6992   */\n      dup5\n        /* \"#utility.yul\":6982:6993   */\n      sload\n        /* \"#utility.yul\":6954:7045   */\n      tag_58\n      jump\t// in\n    tag_147:\n        /* \"#utility.yul\":6948:6952   */\n      dup3\n        /* \"#utility.yul\":6941:7046   */\n      sstore\n        /* \"#utility.yul\":6859:7052   */\n      pop\n        /* \"#utility.yul\":6783:7052   */\n      pop\n      pop\n      pop\n      jump\t// out\n        /* \"#utility.yul\":7058:7131   */\n    tag_63:\n        /* \"#utility.yul\":7103:7106   */\n      0x00\n        /* \"#utility.yul\":7058:7131   */\n      swap1\n      jump\t// out\n        /* \"#utility.yul\":7137:7326   */\n    tag_64:\n        /* \"#utility.yul\":7214:7246   */\n      tag_151\n      tag_63\n      jump\t// in\n    tag_151:\n        /* \"#utility.yul\":7255:7320   */\n      tag_152\n        /* \"#utility.yul\":7313:7319   */\n      dup2\n        /* \"#utility.yul\":7305:7311   */\n      dup5\n        /* \"#utility.yul\":7299:7303   */\n      dup5\n        /* \"#utility.yul\":7255:7320   */\n      tag_62\n      jump\t// in\n    tag_152:\n        /* \"#utility.yul\":7190:7326   */\n      pop\n        /* \"#utility.yul\":7137:7326   */\n      pop\n      pop\n      jump\t// out\n        /* \"#utility.yul\":7332:7518   */\n    tag_65:\n        /* \"#utility.yul\":7392:7512   */\n    tag_154:\n        /* \"#utility.yul\":7409:7412   */\n      dup2\n        /* \"#utility.yul\":7402:7407   */\n      dup2\n        /* \"#utility.yul\":7399:7413   */\n      lt\n        /* \"#utility.yul\":7392:7512   */\n      iszero\n      tag_156\n      jumpi\n        /* \"#utility.yul\":7463:7502   */\n      tag_157\n        /* \"#utility.yul\":7500:7501   */\n      0x00\n        /* \"#utility.yul\":7493:7498   */\n      dup3\n        /* \"#utility.yul\":7463:7502   */\n      tag_64\n      jump\t// in\n    tag_157:\n        /* \"#utility.yul\":7436:7437   */\n      0x01\n        /* \"#utility.yul\":7429:7434   */\n      dup2\n        /* \"#utility.yul\":7425:7438   */\n      add\n        /* \"#utility.yul\":7416:7438   */\n      swap1\n      pop\n        /* \"#utility.yul\":7392:7512   */\n      jump(tag_154)\n    tag_156:\n        /* \"#utility.yul\":7332:7518   */\n      pop\n      pop\n      jump\t// out\n        /* \"#utility.yul\":7524:8067   */\n    tag_66:\n        /* \"#utility.yul\":7625:7627   */\n      0x1f\n        /* \"#utility.yul\":7620:7623   */\n      dup3\n        /* \"#utility.yul\":7617:7628   */\n      gt\n        /* \"#utility.yul\":7614:8060   */\n      iszero\n      tag_159\n      jumpi\n        /* \"#utility.yul\":7659:7697   */\n      tag_160\n        /* \"#utility.yul\":7691:7696   */\n      dup2\n        /* \"#utility.yul\":7659:7697   */\n      tag_55\n      jump\t// in\n    tag_160:\n        /* \"#utility.yul\":7743:7772   */\n      tag_161\n        /* \"#utility.yul\":7761:7771   */\n      dup5\n        /* \"#utility.yul\":7743:7772   */\n      tag_56\n      jump\t// in\n    tag_161:\n        /* \"#utility.yul\":7733:7741   */\n      dup2\n        /* \"#utility.yul\":7729:7773   */\n      add\n        /* \"#utility.yul\":7926:7928   */\n      0x20\n        /* \"#utility.yul\":7914:7924   */\n      dup6\n        /* \"#utility.yul\":7911:7929   */\n      lt\n        /* \"#utility.yul\":7908:7957   */\n      iszero\n      tag_162\n      jumpi\n        /* \"#utility.yul\":7947:7955   */\n      dup2\n        /* \"#utility.yul\":7932:7955   */\n      swap1\n      pop\n        /* \"#utility.yul\":7908:7957   */\n    tag_162:\n        /* \"#utility.yul\":7970:8050   */\n      tag_163\n        /* \"#utility.yul\":8026:8048   */\n      tag_164\n        /* \"#utility.yul\":8044:8047   */\n      dup6\n        /* \"#utility.yul\":8026:8048   */\n      tag_56\n      jump\t// in\n    tag_164:\n        /* \"#utility.yul\":8016:8024   */\n      dup4\n        /* \"#utility.yul\":8012:8049   */\n      add\n        /* \"#utility.yul\":7999:8010   */\n      dup3\n        /* \"#utility.yul\":7970:8050   */\n      tag_65\n      jump\t// in\n    tag_163:\n        /* \"#utility.yul\":7629:8060   */\n      pop\n      pop\n        /* \"#utility.yul\":7614:8060   */\n    tag_159:\n        /* \"#utility.yul\":7524:8067   */\n      pop\n      pop\n      pop\n      jump\t// out\n        /* \"#utility.yul\":8073:8190   */\n    tag_67:\n        /* \"#utility.yul\":8127:8135   */\n      0x00\n        /* \"#utility.yul\":8177:8182   */\n      dup3\n        /* \"#utility.yul\":8171:8175   */\n      dup3\n        /* \"#utility.yul\":8167:8183   */\n      shr\n        /* \"#utility.yul\":8146:8183   */\n      swap1\n      pop\n        /* \"#utility.yul\":8073:8190   */\n      swap3\n      swap2\n      pop\n      pop\n      jump\t// out\n        /* \"#utility.yul\":8196:8365   */\n    tag_68:\n        /* \"#utility.yul\":8240:8246   */\n      0x00\n        /* \"#utility.yul\":8273:8324   */\n      tag_167\n        /* \"#utility.yul\":8321:8322   */\n      0x00\n        /* \"#utility.yul\":8317:8323   */\n      not\n        /* \"#utility.yul\":8309:8314   */\n      dup5\n        /* \"#utility.yul\":8306:8307   */\n      0x08\n        /* \"#utility.yul\":8302:8315   */\n      mul\n        /* \"#utility.yul\":8273:8324   */\n      tag_67\n      jump\t// in\n    tag_167:\n        /* \"#utility.yul\":8269:8325   */\n      not\n        /* \"#utility.yul\":8354:8358   */\n      dup1\n        /* \"#utility.yul\":8348:8352   */\n      dup4\n        /* \"#utility.yul\":8344:8359   */\n      and\n        /* \"#utility.yul\":8334:8359   */\n      swap2\n      pop\n        /* \"#utility.yul\":8247:8365   */\n      pop\n        /* \"#utility.yul\":8196:8365   */\n      swap3\n      swap2\n      pop\n      pop\n      jump\t// out\n        /* \"#utility.yul\":8370:8665   */\n    tag_69:\n        /* \"#utility.yul\":8446:8450   */\n      0x00\n        /* \"#utility.yul\":8592:8621   */\n      tag_169\n        /* \"#utility.yul\":8617:8620   */\n      dup4\n        /* \"#utility.yul\":8611:8615   */\n      dup4\n        /* \"#utility.yul\":8592:8621   */\n      tag_68\n      jump\t// in\n    tag_169:\n        /* \"#utility.yul\":8584:8621   */\n      swap2\n      pop\n        /* \"#utility.yul\":8654:8657   */\n      dup3\n        /* \"#utility.yul\":8651:8652   */\n      0x02\n        /* \"#utility.yul\":8647:8658   */\n      mul\n        /* \"#utility.yul\":8641:8645   */\n      dup3\n        /* \"#utility.yul\":8638:8659   */\n      or\n        /* \"#utility.yul\":8630:8659   */\n      swap1\n      pop\n        /* \"#utility.yul\":8370:8665   */\n      swap3\n      swap2\n      pop\n      pop\n      jump\t// out\n        /* \"#utility.yul\":8670:10065   */\n    tag_25:\n        /* \"#utility.yul\":8787:8824   */\n      tag_171\n        /* \"#utility.yul\":8820:8823   */\n      dup3\n        /* \"#utility.yul\":8787:8824   */\n      tag_50\n      jump\t// in\n    tag_171:\n        /* \"#utility.yul\":8889:8907   */\n      0xffffffffffffffff\n        /* \"#utility.yul\":8881:8887   */\n      dup2\n        /* \"#utility.yul\":8878:8908   */\n      gt\n        /* \"#utility.yul\":8875:8931   */\n      iszero\n      tag_172\n      jumpi\n        /* \"#utility.yul\":8911:8929   */\n      tag_173\n      tag_43\n      jump\t// in\n    tag_173:\n        /* \"#utility.yul\":8875:8931   */\n    tag_172:\n        /* \"#utility.yul\":8955:8993   */\n      tag_174\n        /* \"#utility.yul\":8987:8991   */\n      dup3\n        /* \"#utility.yul\":8981:8992   */\n      sload\n        /* \"#utility.yul\":8955:8993   */\n      tag_27\n      jump\t// in\n    tag_174:\n        /* \"#utility.yul\":9040:9107   */\n      tag_175\n        /* \"#utility.yul\":9100:9106   */\n      dup3\n        /* \"#utility.yul\":9092:9098   */\n      dup3\n        /* \"#utility.yul\":9086:9090   */\n      dup6\n        /* \"#utility.yul\":9040:9107   */\n      tag_66\n      jump\t// in\n    tag_175:\n        /* \"#utility.yul\":9134:9135   */\n      0x00\n        /* \"#utility.yul\":9158:9162   */\n      0x20\n        /* \"#utility.yul\":9145:9162   */\n      swap1\n      pop\n        /* \"#utility.yul\":9190:9192   */\n      0x1f\n        /* \"#utility.yul\":9182:9188   */\n      dup4\n        /* \"#utility.yul\":9179:9193   */\n      gt\n        /* \"#utility.yul\":9207:9208   */\n      0x01\n        /* \"#utility.yul\":9202:9820   */\n      dup2\n      eq\n      tag_177\n      jumpi\n        /* \"#utility.yul\":9864:9865   */\n      0x00\n        /* \"#utility.yul\":9881:9887   */\n      dup5\n        /* \"#utility.yul\":9878:9955   */\n      iszero\n      tag_178\n      jumpi\n        /* \"#utility.yul\":9930:9939   */\n      dup3\n        /* \"#utility.yul\":9925:9928   */\n      dup8\n        /* \"#utility.yul\":9921:9940   */\n      add\n        /* \"#utility.yul\":9915:9941   */\n      mload\n        /* \"#utility.yul\":9906:9941   */\n      swap1\n      pop\n        /* \"#utility.yul\":9878:9955   */\n    tag_178:\n        /* \"#utility.yul\":9981:10048   */\n      tag_179\n        /* \"#utility.yul\":10041:10047   */\n      dup6\n        /* \"#utility.yul\":10034:10039   */\n      dup3\n        /* \"#utility.yul\":9981:10048   */\n      tag_69\n      jump\t// in\n    tag_179:\n        /* \"#utility.yul\":9975:9979   */\n      dup7\n        /* \"#utility.yul\":9968:10049   */\n      sstore\n        /* \"#utility.yul\":9837:10059   */\n      pop\n        /* \"#utility.yul\":9172:10059   */\n      jump(tag_176)\n        /* \"#utility.yul\":9202:9820   */\n    tag_177:\n        /* \"#utility.yul\":9254:9258   */\n      0x1f\n        /* \"#utility.yul\":9250:9259   */\n      not\n        /* \"#utility.yul\":9242:9248   */\n      dup5\n        /* \"#utility.yul\":9238:9260   */\n      and\n        /* \"#utility.yul\":9288:9325   */\n      tag_180\n        /* \"#utility.yul\":9320:9324   */\n      dup7\n        /* \"#utility.yul\":9288:9325   */\n      tag_55\n      jump\t// in\n    tag_180:\n        /* \"#utility.yul\":9347:9348   */\n      0x00\n        /* \"#utility.yul\":9361:9569   */\n    tag_181:\n        /* \"#utility.yul\":9375:9382   */\n      dup3\n        /* \"#utility.yul\":9372:9373   */\n      dup2\n        /* \"#utility.yul\":9369:9383   */\n      lt\n        /* \"#utility.yul\":9361:9569   */\n      iszero\n      tag_183\n      jumpi\n        /* \"#utility.yul\":9454:9463   */\n      dup5\n        /* \"#utility.yul\":9449:9452   */\n      dup10\n        /* \"#utility.yul\":9445:9464   */\n      add\n        /* \"#utility.yul\":9439:9465   */\n      mload\n        /* \"#utility.yul\":9431:9437   */\n      dup3\n        /* \"#utility.yul\":9424:9466   */\n      sstore\n        /* \"#utility.yul\":9505:9506   */\n      0x01\n        /* \"#utility.yul\":9497:9503   */\n      dup3\n        /* \"#utility.yul\":9493:9507   */\n      add\n        /* \"#utility.yul\":9483:9507   */\n      swap2\n      pop\n        /* \"#utility.yul\":9552:9554   */\n      0x20\n        /* \"#utility.yul\":9541:9550   */\n      dup6\n        /* \"#utility.yul\":9537:9555   */\n      add\n        /* \"#utility.yul\":9524:9555   */\n      swap5\n      pop\n        /* \"#utility.yul\":9398:9402   */\n      0x20\n        /* \"#utility.yul\":9395:9396   */\n      dup2\n        /* \"#utility.yul\":9391:9403   */\n      add\n        /* \"#utility.yul\":9386:9403   */\n      swap1\n      pop\n        /* \"#utility.yul\":9361:9569   */\n      jump(tag_181)\n    tag_183:\n        /* \"#utility.yul\":9597:9603   */\n      dup7\n        /* \"#utility.yul\":9588:9595   */\n      dup4\n        /* \"#utility.yul\":9585:9604   */\n      lt\n        /* \"#utility.yul\":9582:9761   */\n      iszero\n      tag_184\n      jumpi\n        /* \"#utility.yul\":9655:9664   */\n      dup5\n        /* \"#utility.yul\":9650:9653   */\n      dup10\n        /* \"#utility.yul\":9646:9665   */\n      add\n        /* \"#utility.yul\":9640:9666   */\n      mload\n        /* \"#utility.yul\":9698:9746   */\n      tag_185\n        /* \"#utility.yul\":9740:9744   */\n      0x1f\n        /* \"#utility.yul\":9732:9738   */\n      dup10\n        /* \"#utility.yul\":9728:9745   */\n      and\n        /* \"#utility.yul\":9717:9726   */\n      dup3\n        /* \"#utility.yul\":9698:9746   */\n      tag_68\n      jump\t// in\n    tag_185:\n        /* \"#utility.yul\":9690:9696   */\n      dup4\n        /* \"#utility.yul\":9683:9747   */\n      sstore\n        /* \"#utility.yul\":9605:9761   */\n      pop\n        /* \"#utility.yul\":9582:9761   */\n    tag_184:\n        /* \"#utility.yul\":9807:9808   */\n      0x01\n        /* \"#utility.yul\":9803:9804   */\n      0x02\n        /* \"#utility.yul\":9795:9801   */\n      dup9\n        /* \"#utility.yul\":9791:9805   */\n      mul\n        /* \"#utility.yul\":9787:9809   */\n      add\n        /* \"#utility.yul\":9781:9785   */\n      dup9\n        /* \"#utility.yul\":9774:9810   */\n      sstore\n        /* \"#utility.yul\":9209:9820   */\n      pop\n      pop\n      pop\n        /* \"#utility.yul\":9172:10059   */\n    tag_176:\n      pop\n        /* \"#utility.yul\":8762:10065   */\n      pop\n      pop\n      pop\n        /* \"#utility.yul\":8670:10065   */\n      pop\n      pop\n      jump\t// out\n\n    auxdata: 0xa264697066735822122031b5fd2436d4f1bcd4d6ecb6ed8fb6b14e9b7e12a9b7d93de5b6ed5cbc921e9a64736f6c634300081a0033\n}\n",
				"bytecode": {
					"linkReferences": {},
					"object": "608060405234801561000f575f80fd5b506040518060400160405280600b81526020017f48656c6c6f20576f726c640000000000000000000000000000000000000000008152505f908161005391906102d3565b503360015f6101000a81548173ffffffffffffffffffffffffffffffffffffffff021916908373ffffffffffffffffffffffffffffffffffffffff1602179055506103a2565b5f81519050919050565b7f4e487b71000000000000000000000000000000000000000000000000000000005f52604160045260245ffd5b7f4e487b71000000000000000000000000000000000000000000000000000000005f52602260045260245ffd5b5f600282049050600182168061011457607f821691505b602082108103610127576101266100d0565b5b50919050565b5f819050815f5260205f209050919050565b5f6020601f8301049050919050565b5f82821b905092915050565b5f600883026101897fffffffffffffffffffffffffffffffffffffffffffffffffffffffffffffffff8261014e565b610193868361014e565b95508019841693508086168417925050509392505050565b5f819050919050565b5f819050919050565b5f6101d76101d26101cd846101ab565b6101b4565b6101ab565b9050919050565b5f819050919050565b6101f0836101bd565b6102046101fc826101de565b84845461015a565b825550505050565b5f90565b61021861020c565b6102238184846101e7565b505050565b5b818110156102465761023b5f82610210565b600181019050610229565b5050565b601f82111561028b5761025c8161012d565b6102658461013f565b81016020851015610274578190505b6102886102808561013f565b830182610228565b50505b505050565b5f82821c905092915050565b5f6102ab5f1984600802610290565b1980831691505092915050565b5f6102c3838361029c565b9150826002028217905092915050565b6102dc82610099565b67ffffffffffffffff8111156102f5576102f46100a3565b5b6102ff82546100fd565b61030a82828561024a565b5f60209050601f83116001811461033b575f8415610329578287015190505b61033385826102b8565b86555061039a565b601f1984166103498661012d565b5f5b828110156103705784890151825560018201915060208501945060208101905061034b565b8683101561038d5784890151610389601f89168261029c565b8355505b6001600288020188555050505b505050505050565b610728806103af5f395ff3fe608060405234801561000f575f80fd5b506004361061004a575f3560e01c80630c55699c1461004e578063481c6a751461006c578063846228a31461008a578063c15bae84146100a6575b5f80fd5b6100566100c4565b60405161006391906101a4565b60405180910390f35b6100746100ca565b60405161008191906101fc565b60405180910390f35b6100a4600480360381019061009f9190610362565b6100ef565b005b6100ae610101565b6040516100bb9190610409565b60405180910390f35b60025481565b60015f9054906101000a900473ffffffffffffffffffffffffffffffffffffffff1681565b805f90816100fd9190610623565b5050565b5f805461010d90610456565b80601f016020809104026020016040519081016040528092919081815260200182805461013990610456565b80156101845780601f1061015b57610100808354040283529160200191610184565b820191905f5260205f20905b81548152906001019060200180831161016757829003601f168201915b505050505081565b5f819050919050565b61019e8161018c565b82525050565b5f6020820190506101b75f830184610195565b92915050565b5f73ffffffffffffffffffffffffffffffffffffffff82169050919050565b5f6101e6826101bd565b9050919050565b6101f6816101dc565b82525050565b5f60208201905061020f5f8301846101ed565b92915050565b5f604051905090565b5f80fd5b5f80fd5b5f80fd5b5f80fd5b5f601f19601f8301169050919050565b7f4e487b71000000000000000000000000000000000000000000000000000000005f52604160045260245ffd5b6102748261022e565b810181811067ffffffffffffffff821117156102935761029261023e565b5b80604052505050565b5f6102a5610215565b90506102b1828261026b565b919050565b5f67ffffffffffffffff8211156102d0576102cf61023e565b5b6102d98261022e565b9050602081019050919050565b828183375f83830152505050565b5f610306610301846102b6565b61029c565b9050828152602081018484840111156103225761032161022a565b5b61032d8482856102e6565b509392505050565b5f82601f83011261034957610348610226565b5b81356103598482602086016102f4565b91505092915050565b5f602082840312156103775761037661021e565b5b5f82013567ffffffffffffffff81111561039457610393610222565b5b6103a084828501610335565b91505092915050565b5f81519050919050565b5f82825260208201905092915050565b8281835e5f83830152505050565b5f6103db826103a9565b6103e581856103b3565b93506103f58185602086016103c3565b6103fe8161022e565b840191505092915050565b5f6020820190508181035f83015261042181846103d1565b905092915050565b7f4e487b71000000000000000000000000000000000000000000000000000000005f52602260045260245ffd5b5f600282049050600182168061046d57607f821691505b6020821081036104805761047f610429565b5b50919050565b5f819050815f5260205f209050919050565b5f6020601f8301049050919050565b5f82821b905092915050565b5f600883026104e27fffffffffffffffffffffffffffffffffffffffffffffffffffffffffffffffff826104a7565b6104ec86836104a7565b95508019841693508086168417925050509392505050565b5f819050919050565b5f61052761052261051d8461018c565b610504565b61018c565b9050919050565b5f819050919050565b6105408361050d565b61055461054c8261052e565b8484546104b3565b825550505050565b5f90565b61056861055c565b610573818484610537565b505050565b5b818110156105965761058b5f82610560565b600181019050610579565b5050565b601f8211156105db576105ac81610486565b6105b584610498565b810160208510156105c4578190505b6105d86105d085610498565b830182610578565b50505b505050565b5f82821c905092915050565b5f6105fb5f19846008026105e0565b1980831691505092915050565b5f61061383836105ec565b9150826002028217905092915050565b61062c826103a9565b67ffffffffffffffff8111156106455761064461023e565b5b61064f8254610456565b61065a82828561059a565b5f60209050601f83116001811461068b575f8415610679578287015190505b6106838582610608565b8655506106ea565b601f19841661069986610486565b5f5b828110156106c05784890151825560018201915060208501945060208101905061069b565b868310156106dd57848901516106d9601f8916826105ec565b8355505b6001600288020188555050505b50505050505056fea264697066735822122031b5fd2436d4f1bcd4d6ecb6ed8fb6b14e9b7e12a9b7d93de5b6ed5cbc921e9a64736f6c634300081a0033",
					"opcodes": "PUSH1 0x80 PUSH1 0x40 MSTORE CALLVALUE DUP1 ISZERO PUSH2 0xF JUMPI PUSH0 DUP1 REVERT JUMPDEST POP PUSH1 0x40 MLOAD DUP1 PUSH1 0x40 ADD PUSH1 0x40 MSTORE DUP1 PUSH1 0xB DUP2 MSTORE PUSH1 0x20 ADD PUSH32 0x48656C6C6F20576F726C64000000000000000000000000000000000000000000 DUP2 MSTORE POP PUSH0 SWAP1 DUP2 PUSH2 0x53 SWAP2 SWAP1 PUSH2 0x2D3 JUMP JUMPDEST POP CALLER PUSH1 0x1 PUSH0 PUSH2 0x100 EXP DUP2 SLOAD DUP2 PUSH20 0xFFFFFFFFFFFFFFFFFFFFFFFFFFFFFFFFFFFFFFFF MUL NOT AND SWAP1 DUP4 PUSH20 0xFFFFFFFFFFFFFFFFFFFFFFFFFFFFFFFFFFFFFFFF AND MUL OR SWAP1 SSTORE POP PUSH2 0x3A2 JUMP JUMPDEST PUSH0 DUP2 MLOAD SWAP1 POP SWAP2 SWAP1 POP JUMP JUMPDEST PUSH32 0x4E487B7100000000000000000000000000000000000000000000000000000000 PUSH0 MSTORE PUSH1 0x41 PUSH1 0x4 MSTORE PUSH1 0x24 PUSH0 REVERT JUMPDEST PUSH32 0x4E487B7100000000000000000000000000000000000000000000000000000000 PUSH0 MSTORE PUSH1 0x22 PUSH1 0x4 MSTORE PUSH1 0x24 PUSH0 REVERT JUMPDEST PUSH0 PUSH1 0x2 DUP3 DIV SWAP1 POP PUSH1 0x1 DUP3 AND DUP1 PUSH2 0x114 JUMPI PUSH1 0x7F DUP3 AND SWAP2 POP JUMPDEST PUSH1 0x20 DUP3 LT DUP2 SUB PUSH2 0x127 JUMPI PUSH2 0x126 PUSH2 0xD0 JUMP JUMPDEST JUMPDEST POP SWAP2 SWAP1 POP JUMP JUMPDEST PUSH0 DUP2 SWAP1 POP DUP2 PUSH0 MSTORE PUSH1 0x20 PUSH0 KECCAK256 SWAP1 POP SWAP2 SWAP1 POP JUMP JUMPDEST PUSH0 PUSH1 0x20 PUSH1 0x1F DUP4 ADD DIV SWAP1 POP SWAP2 SWAP1 POP JUMP JUMPDEST PUSH0 DUP3 DUP3 SHL SWAP1 POP SWAP3 SWAP2 POP POP JUMP JUMPDEST PUSH0 PUSH1 0x8 DUP4 MUL PUSH2 0x189 PUSH32 0xFFFFFFFFFFFFFFFFFFFFFFFFFFFFFFFFFFFFFFFFFFFFFFFFFFFFFFFFFFFFFFFF DUP3 PUSH2 0x14E JUMP JUMPDEST PUSH2 0x193 DUP7 DUP4 PUSH2 0x14E JUMP JUMPDEST SWAP6 POP DUP1 NOT DUP5 AND SWAP4 POP DUP1 DUP7 AND DUP5 OR SWAP3 POP POP POP SWAP4 SWAP3 POP POP POP JUMP JUMPDEST PUSH0 DUP2 SWAP1 POP SWAP2 SWAP1 POP JUMP JUMPDEST PUSH0 DUP2 SWAP1 POP SWAP2 SWAP1 POP JUMP JUMPDEST PUSH0 PUSH2 0x1D7 PUSH2 0x1D2 PUSH2 0x1CD DUP5 PUSH2 0x1AB JUMP JUMPDEST PUSH2 0x1B4 JUMP JUMPDEST PUSH2 0x1AB JUMP JUMPDEST SWAP1 POP SWAP2 SWAP1 POP JUMP JUMPDEST PUSH0 DUP2 SWAP1 POP SWAP2 SWAP1 POP JUMP JUMPDEST PUSH2 0x1F0 DUP4 PUSH2 0x1BD JUMP JUMPDEST PUSH2 0x204 PUSH2 0x1FC DUP3 PUSH2 0x1DE JUMP JUMPDEST DUP5 DUP5 SLOAD PUSH2 0x15A JUMP JUMPDEST DUP3 SSTORE POP POP POP POP JUMP JUMPDEST PUSH0 SWAP1 JUMP JUMPDEST PUSH2 0x218 PUSH2 0x20C JUMP JUMPDEST PUSH2 0x223 DUP2 DUP5 DUP5 PUSH2 0x1E7 JUMP JUMPDEST POP POP POP JUMP JUMPDEST JUMPDEST DUP2 DUP2 LT ISZERO PUSH2 0x246 JUMPI PUSH2 0x23B PUSH0 DUP3 PUSH2 0x210 JUMP JUMPDEST PUSH1 0x1 DUP2 ADD SWAP1 POP PUSH2 0x229 JUMP JUMPDEST POP POP JUMP JUMPDEST PUSH1 0x1F DUP3 GT ISZERO PUSH2 0x28B JUMPI PUSH2 0x25C DUP2 PUSH2 0x12D JUMP JUMPDEST PUSH2 0x265 DUP5 PUSH2 0x13F JUMP JUMPDEST DUP2 ADD PUSH1 0x20 DUP6 LT ISZERO PUSH2 0x274 JUMPI DUP2 SWAP1 POP JUMPDEST PUSH2 0x288 PUSH2 0x280 DUP6 PUSH2 0x13F JUMP JUMPDEST DUP4 ADD DUP3 PUSH2 0x228 JUMP JUMPDEST POP POP JUMPDEST POP POP POP JUMP JUMPDEST PUSH0 DUP3 DUP3 SHR SWAP1 POP SWAP3 SWAP2 POP POP JUMP JUMPDEST PUSH0 PUSH2 0x2AB PUSH0 NOT DUP5 PUSH1 0x8 MUL PUSH2 0x290 JUMP JUMPDEST NOT DUP1 DUP4 AND SWAP2 POP POP SWAP3 SWAP2 POP POP JUMP JUMPDEST PUSH0 PUSH2 0x2C3 DUP4 DUP4 PUSH2 0x29C JUMP JUMPDEST SWAP2 POP DUP3 PUSH1 0x2 MUL DUP3 OR SWAP1 POP SWAP3 SWAP2 POP POP JUMP JUMPDEST PUSH2 0x2DC DUP3 PUSH2 0x99 JUMP JUMPDEST PUSH8 0xFFFFFFFFFFFFFFFF DUP2 GT ISZERO PUSH2 0x2F5 JUMPI PUSH2 0x2F4 PUSH2 0xA3 JUMP JUMPDEST JUMPDEST PUSH2 0x2FF DUP3 SLOAD PUSH2 0xFD JUMP JUMPDEST PUSH2 0x30A DUP3 DUP3 DUP6 PUSH2 0x24A JUMP JUMPDEST PUSH0 PUSH1 0x20 SWAP1 POP PUSH1 0x1F DUP4 GT PUSH1 0x1 DUP2 EQ PUSH2 0x33B JUMPI PUSH0 DUP5 ISZERO PUSH2 0x329 JUMPI DUP3 DUP8 ADD MLOAD SWAP1 POP JUMPDEST PUSH2 0x333 DUP6 DUP3 PUSH2 0x2B8 JUMP JUMPDEST DUP7 SSTORE POP PUSH2 0x39A JUMP JUMPDEST PUSH1 0x1F NOT DUP5 AND PUSH2 0x349 DUP7 PUSH2 0x12D JUMP JUMPDEST PUSH0 JUMPDEST DUP3 DUP2 LT ISZERO PUSH2 0x370 JUMPI DUP5 DUP10 ADD MLOAD DUP3 SSTORE PUSH1 0x1 DUP3 ADD SWAP2 POP PUSH1 0x20 DUP6 ADD SWAP5 POP PUSH1 0x20 DUP2 ADD SWAP1 POP PUSH2 0x34B JUMP JUMPDEST DUP7 DUP4 LT ISZERO PUSH2 0x38D JUMPI DUP5 DUP10 ADD MLOAD PUSH2 0x389 PUSH1 0x1F DUP10 AND DUP3 PUSH2 0x29C JUMP JUMPDEST DUP4 SSTORE POP JUMPDEST PUSH1 0x1 PUSH1 0x2 DUP9 MUL ADD DUP9 SSTORE POP POP POP JUMPDEST POP POP POP POP POP POP JUMP JUMPDEST PUSH2 0x728 DUP1 PUSH2 0x3AF PUSH0 CODECOPY PUSH0 RETURN INVALID PUSH1 0x80 PUSH1 0x40 MSTORE CALLVALUE DUP1 ISZERO PUSH2 0xF JUMPI PUSH0 DUP1 REVERT JUMPDEST POP PUSH1 0x4 CALLDATASIZE LT PUSH2 0x4A JUMPI PUSH0 CALLDATALOAD PUSH1 0xE0 SHR DUP1 PUSH4 0xC55699C EQ PUSH2 0x4E JUMPI DUP1 PUSH4 0x481C6A75 EQ PUSH2 0x6C JUMPI DUP1 PUSH4 0x846228A3 EQ PUSH2 0x8A JUMPI DUP1 PUSH4 0xC15BAE84 EQ PUSH2 0xA6 JUMPI JUMPDEST PUSH0 DUP1 REVERT JUMPDEST PUSH2 0x56 PUSH2 0xC4 JUMP JUMPDEST PUSH1 0x40 MLOAD PUSH2 0x63 SWAP2 SWAP1 PUSH2 0x1A4 JUMP JUMPDEST PUSH1 0x40 MLOAD DUP1 SWAP2 SUB SWAP1 RETURN JUMPDEST PUSH2 0x74 PUSH2 0xCA JUMP JUMPDEST PUSH1 0x40 MLOAD PUSH2 0x81 SWAP2 SWAP1 PUSH2 0x1FC JUMP JUMPDEST PUSH1 0x40 MLOAD DUP1 SWAP2 SUB SWAP1 RETURN JUMPDEST PUSH2 0xA4 PUSH1 0x4 DUP1 CALLDATASIZE SUB DUP2 ADD SWAP1 PUSH2 0x9F SWAP2 SWAP1 PUSH2 0x362 JUMP JUMPDEST PUSH2 0xEF JUMP JUMPDEST STOP JUMPDEST PUSH2 0xAE PUSH2 0x101 JUMP JUMPDEST PUSH1 0x40 MLOAD PUSH2 0xBB SWAP2 SWAP1 PUSH2 0x409 JUMP JUMPDEST PUSH1 0x40 MLOAD DUP1 SWAP2 SUB SWAP1 RETURN JUMPDEST PUSH1 0x2 SLOAD DUP2 JUMP JUMPDEST PUSH1 0x1 PUSH0 SWAP1 SLOAD SWAP1 PUSH2 0x100 EXP SWAP1 DIV PUSH20 0xFFFFFFFFFFFFFFFFFFFFFFFFFFFFFFFFFFFFFFFF AND DUP2 JUMP JUMPDEST DUP1 PUSH0 SWAP1 DUP2 PUSH2 0xFD SWAP2 SWAP1 PUSH2 0x623 JUMP JUMPDEST POP POP JUMP JUMPDEST PUSH0 DUP1 SLOAD PUSH2 0x10D SWAP1 PUSH2 0x456 JUMP JUMPDEST DUP1 PUSH1 0x1F ADD PUSH1 0x20 DUP1 SWAP2 DIV MUL PUSH1 0x20 ADD PUSH1 0x40 MLOAD SWAP1 DUP2 ADD PUSH1 0x40 MSTORE DUP1 SWAP3 SWAP2 SWAP1 DUP2 DUP2 MSTORE PUSH1 0x20 ADD DUP3 DUP1 SLOAD PUSH2 0x139 SWAP1 PUSH2 0x456 JUMP JUMPDEST DUP1 ISZERO PUSH2 0x184 JUMPI DUP1 PUSH1 0x1F LT PUSH2 0x15B JUMPI PUSH2 0x100 DUP1 DUP4 SLOAD DIV MUL DUP4 MSTORE SWAP2 PUSH1 0x20 ADD SWAP2 PUSH2 0x184 JUMP JUMPDEST DUP3 ADD SWAP2 SWAP1 PUSH0 MSTORE PUSH1 0x20 PUSH0 KECCAK256 SWAP1 JUMPDEST DUP2 SLOAD DUP2 MSTORE SWAP1 PUSH1 0x1 ADD SWAP1 PUSH1 0x20 ADD DUP1 DUP4 GT PUSH2 0x167 JUMPI DUP3 SWAP1 SUB PUSH1 0x1F AND DUP3 ADD SWAP2 JUMPDEST POP POP POP POP POP DUP2 JUMP JUMPDEST PUSH0 DUP2 SWAP1 POP SWAP2 SWAP1 POP JUMP JUMPDEST PUSH2 0x19E DUP2 PUSH2 0x18C JUMP JUMPDEST DUP3 MSTORE POP POP JUMP JUMPDEST PUSH0 PUSH1 0x20 DUP3 ADD SWAP1 POP PUSH2 0x1B7 PUSH0 DUP4 ADD DUP5 PUSH2 0x195 JUMP JUMPDEST SWAP3 SWAP2 POP POP JUMP JUMPDEST PUSH0 PUSH20 0xFFFFFFFFFFFFFFFFFFFFFFFFFFFFFFFFFFFFFFFF DUP3 AND SWAP1 POP SWAP2 SWAP1 POP JUMP JUMPDEST PUSH0 PUSH2 0x1E6 DUP3 PUSH2 0x1BD JUMP JUMPDEST SWAP1 POP SWAP2 SWAP1 POP JUMP JUMPDEST PUSH2 0x1F6 DUP2 PUSH2 0x1DC JUMP JUMPDEST DUP3 MSTORE POP POP JUMP JUMPDEST PUSH0 PUSH1 0x20 DUP3 ADD SWAP1 POP PUSH2 0x20F PUSH0 DUP4 ADD DUP5 PUSH2 0x1ED JUMP JUMPDEST SWAP3 SWAP2 POP POP JUMP JUMPDEST PUSH0 PUSH1 0x40 MLOAD SWAP1 POP SWAP1 JUMP JUMPDEST PUSH0 DUP1 REVERT JUMPDEST PUSH0 DUP1 REVERT JUMPDEST PUSH0 DUP1 REVERT JUMPDEST PUSH0 DUP1 REVERT JUMPDEST PUSH0 PUSH1 0x1F NOT PUSH1 0x1F DUP4 ADD AND SWAP1 POP SWAP2 SWAP1 POP JUMP JUMPDEST PUSH32 0x4E487B7100000000000000000000000000000000000000000000000000000000 PUSH0 MSTORE PUSH1 0x41 PUSH1 0x4 MSTORE PUSH1 0x24 PUSH0 REVERT JUMPDEST PUSH2 0x274 DUP3 PUSH2 0x22E JUMP JUMPDEST DUP2 ADD DUP2 DUP2 LT PUSH8 0xFFFFFFFFFFFFFFFF DUP3 GT OR ISZERO PUSH2 0x293 JUMPI PUSH2 0x292 PUSH2 0x23E JUMP JUMPDEST JUMPDEST DUP1 PUSH1 0x40 MSTORE POP POP POP JUMP JUMPDEST PUSH0 PUSH2 0x2A5 PUSH2 0x215 JUMP JUMPDEST SWAP1 POP PUSH2 0x2B1 DUP3 DUP3 PUSH2 0x26B JUMP JUMPDEST SWAP2 SWAP1 POP JUMP JUMPDEST PUSH0 PUSH8 0xFFFFFFFFFFFFFFFF DUP3 GT ISZERO PUSH2 0x2D0 JUMPI PUSH2 0x2CF PUSH2 0x23E JUMP JUMPDEST JUMPDEST PUSH2 0x2D9 DUP3 PUSH2 0x22E JUMP JUMPDEST SWAP1 POP PUSH1 0x20 DUP2 ADD SWAP1 POP SWAP2 SWAP1 POP JUMP JUMPDEST DUP3 DUP2 DUP4 CALLDATACOPY PUSH0 DUP4 DUP4 ADD MSTORE POP POP POP JUMP JUMPDEST PUSH0 PUSH2 0x306 PUSH2 0x301 DUP5 PUSH2 0x2B6 JUMP JUMPDEST PUSH2 0x29C JUMP JUMPDEST SWAP1 POP DUP3 DUP2 MSTORE PUSH1 0x20 DUP2 ADD DUP5 DUP5 DUP5 ADD GT ISZERO PUSH2 0x322 JUMPI PUSH2 0x321 PUSH2 0x22A JUMP JUMPDEST JUMPDEST PUSH2 0x32D DUP5 DUP3 DUP6 PUSH2 0x2E6 JUMP JUMPDEST POP SWAP4 SWAP3 POP POP POP JUMP JUMPDEST PUSH0 DUP3 PUSH1 0x1F DUP4 ADD SLT PUSH2 0x349 JUMPI PUSH2 0x348 PUSH2 0x226 JUMP JUMPDEST JUMPDEST DUP2 CALLDATALOAD PUSH2 0x359 DUP5 DUP3 PUSH1 0x20 DUP7 ADD PUSH2 0x2F4 JUMP JUMPDEST SWAP2 POP POP SWAP3 SWAP2 POP POP JUMP JUMPDEST PUSH0 PUSH1 0x20 DUP3 DUP5 SUB SLT ISZERO PUSH2 0x377 JUMPI PUSH2 0x376 PUSH2 0x21E JUMP JUMPDEST JUMPDEST PUSH0 DUP3 ADD CALLDATALOAD PUSH8 0xFFFFFFFFFFFFFFFF DUP2 GT ISZERO PUSH2 0x394 JUMPI PUSH2 0x393 PUSH2 0x222 JUMP JUMPDEST JUMPDEST PUSH2 0x3A0 DUP5 DUP3 DUP6 ADD PUSH2 0x335 JUMP JUMPDEST SWAP2 POP POP SWAP3 SWAP2 POP POP JUMP JUMPDEST PUSH0 DUP2 MLOAD SWAP1 POP SWAP2 SWAP1 POP JUMP JUMPDEST PUSH0 DUP3 DUP3 MSTORE PUSH1 0x20 DUP3 ADD SWAP1 POP SWAP3 SWAP2 POP POP JUMP JUMPDEST DUP3 DUP2 DUP4 MCOPY PUSH0 DUP4 DUP4 ADD MSTORE POP POP POP JUMP JUMPDEST PUSH0 PUSH2 0x3DB DUP3 PUSH2 0x3A9 JUMP JUMPDEST PUSH2 0x3E5 DUP2 DUP6 PUSH2 0x3B3 JUMP JUMPDEST SWAP4 POP PUSH2 0x3F5 DUP2 DUP6 PUSH1 0x20 DUP7 ADD PUSH2 0x3C3 JUMP JUMPDEST PUSH2 0x3FE DUP2 PUSH2 0x22E JUMP JUMPDEST DUP5 ADD SWAP2 POP POP SWAP3 SWAP2 POP POP JUMP JUMPDEST PUSH0 PUSH1 0x20 DUP3 ADD SWAP1 POP DUP2 DUP2 SUB PUSH0 DUP4 ADD MSTORE PUSH2 0x421 DUP2 DUP5 PUSH2 0x3D1 JUMP JUMPDEST SWAP1 POP SWAP3 SWAP2 POP POP JUMP JUMPDEST PUSH32 0x4E487B7100000000000000000000000000000000000000000000000000000000 PUSH0 MSTORE PUSH1 0x22 PUSH1 0x4 MSTORE PUSH1 0x24 PUSH0 REVERT JUMPDEST PUSH0 PUSH1 0x2 DUP3 DIV SWAP1 POP PUSH1 0x1 DUP3 AND DUP1 PUSH2 0x46D JUMPI PUSH1 0x7F DUP3 AND SWAP2 POP JUMPDEST PUSH1 0x20 DUP3 LT DUP2 SUB PUSH2 0x480 JUMPI PUSH2 0x47F PUSH2 0x429 JUMP JUMPDEST JUMPDEST POP SWAP2 SWAP1 POP JUMP JUMPDEST PUSH0 DUP2 SWAP1 POP DUP2 PUSH0 MSTORE PUSH1 0x20 PUSH0 KECCAK256 SWAP1 POP SWAP2 SWAP1 POP JUMP JUMPDEST PUSH0 PUSH1 0x20 PUSH1 0x1F DUP4 ADD DIV SWAP1 POP SWAP2 SWAP1 POP JUMP JUMPDEST PUSH0 DUP3 DUP3 SHL SWAP1 POP SWAP3 SWAP2 POP POP JUMP JUMPDEST PUSH0 PUSH1 0x8 DUP4 MUL PUSH2 0x4E2 PUSH32 0xFFFFFFFFFFFFFFFFFFFFFFFFFFFFFFFFFFFFFFFFFFFFFFFFFFFFFFFFFFFFFFFF DUP3 PUSH2 0x4A7 JUMP JUMPDEST PUSH2 0x4EC DUP7 DUP4 PUSH2 0x4A7 JUMP JUMPDEST SWAP6 POP DUP1 NOT DUP5 AND SWAP4 POP DUP1 DUP7 AND DUP5 OR SWAP3 POP POP POP SWAP4 SWAP3 POP POP POP JUMP JUMPDEST PUSH0 DUP2 SWAP1 POP SWAP2 SWAP1 POP JUMP JUMPDEST PUSH0 PUSH2 0x527 PUSH2 0x522 PUSH2 0x51D DUP5 PUSH2 0x18C JUMP JUMPDEST PUSH2 0x504 JUMP JUMPDEST PUSH2 0x18C JUMP JUMPDEST SWAP1 POP SWAP2 SWAP1 POP JUMP JUMPDEST PUSH0 DUP2 SWAP1 POP SWAP2 SWAP1 POP JUMP JUMPDEST PUSH2 0x540 DUP4 PUSH2 0x50D JUMP JUMPDEST PUSH2 0x554 PUSH2 0x54C DUP3 PUSH2 0x52E JUMP JUMPDEST DUP5 DUP5 SLOAD PUSH2 0x4B3 JUMP JUMPDEST DUP3 SSTORE POP POP POP POP JUMP JUMPDEST PUSH0 SWAP1 JUMP JUMPDEST PUSH2 0x568 PUSH2 0x55C JUMP JUMPDEST PUSH2 0x573 DUP2 DUP5 DUP5 PUSH2 0x537 JUMP JUMPDEST POP POP POP JUMP JUMPDEST JUMPDEST DUP2 DUP2 LT ISZERO PUSH2 0x596 JUMPI PUSH2 0x58B PUSH0 DUP3 PUSH2 0x560 JUMP JUMPDEST PUSH1 0x1 DUP2 ADD SWAP1 POP PUSH2 0x579 JUMP JUMPDEST POP POP JUMP JUMPDEST PUSH1 0x1F DUP3 GT ISZERO PUSH2 0x5DB JUMPI PUSH2 0x5AC DUP2 PUSH2 0x486 JUMP JUMPDEST PUSH2 0x5B5 DUP5 PUSH2 0x498 JUMP JUMPDEST DUP2 ADD PUSH1 0x20 DUP6 LT ISZERO PUSH2 0x5C4 JUMPI DUP2 SWAP1 POP JUMPDEST PUSH2 0x5D8 PUSH2 0x5D0 DUP6 PUSH2 0x498 JUMP JUMPDEST DUP4 ADD DUP3 PUSH2 0x578 JUMP JUMPDEST POP POP JUMPDEST POP POP POP JUMP JUMPDEST PUSH0 DUP3 DUP3 SHR SWAP1 POP SWAP3 SWAP2 POP POP JUMP JUMPDEST PUSH0 PUSH2 0x5FB PUSH0 NOT DUP5 PUSH1 0x8 MUL PUSH2 0x5E0 JUMP JUMPDEST NOT DUP1 DUP4 AND SWAP2 POP POP SWAP3 SWAP2 POP POP JUMP JUMPDEST PUSH0 PUSH2 0x613 DUP4 DUP4 PUSH2 0x5EC JUMP JUMPDEST SWAP2 POP DUP3 PUSH1 0x2 MUL DUP3 OR SWAP1 POP SWAP3 SWAP2 POP POP JUMP JUMPDEST PUSH2 0x62C DUP3 PUSH2 0x3A9 JUMP JUMPDEST PUSH8 0xFFFFFFFFFFFFFFFF DUP2 GT ISZERO PUSH2 0x645 JUMPI PUSH2 0x644 PUSH2 0x23E JUMP JUMPDEST JUMPDEST PUSH2 0x64F DUP3 SLOAD PUSH2 0x456 JUMP JUMPDEST PUSH2 0x65A DUP3 DUP3 DUP6 PUSH2 0x59A JUMP JUMPDEST PUSH0 PUSH1 0x20 SWAP1 POP PUSH1 0x1F DUP4 GT PUSH1 0x1 DUP2 EQ PUSH2 0x68B JUMPI PUSH0 DUP5 ISZERO PUSH2 0x679 JUMPI DUP3 DUP8 ADD MLOAD SWAP1 POP JUMPDEST PUSH2 0x683 DUP6 DUP3 PUSH2 0x608 JUMP JUMPDEST DUP7 SSTORE POP PUSH2 0x6EA JUMP JUMPDEST PUSH1 0x1F NOT DUP5 AND PUSH2 0x699 DUP7 PUSH2 0x486 JUMP JUMPDEST PUSH0 JUMPDEST DUP3 DUP2 LT ISZERO PUSH2 0x6C0 JUMPI DUP5 DUP10 ADD MLOAD DUP3 SSTORE PUSH1 0x1 DUP3 ADD SWAP2 POP PUSH1 0x20 DUP6 ADD SWAP5 POP PUSH1 0x20 DUP2 ADD SWAP1 POP PUSH2 0x69B JUMP JUMPDEST DUP7 DUP4 LT ISZERO PUSH2 0x6DD JUMPI DUP5 DUP10 ADD MLOAD PUSH2 0x6D9 PUSH1 0x1F DUP10 AND DUP3 PUSH2 0x5EC JUMP JUMPDEST DUP4 SSTORE POP JUMPDEST PUSH1 0x1 PUSH1 0x2 DUP9 MUL ADD DUP9 SSTORE POP POP POP JUMPDEST POP POP POP POP POP POP JUMP INVALID LOG2 PUSH5 0x6970667358 0x22 SLT KECCAK256 BALANCE 0xB5 REVERT 0x24 CALLDATASIZE 0xD4 CALL 0xBC 0xD4 0xD6 0xEC 0xB6 0xED DUP16 0xB6 0xB1 0x4E SWAP12 PUSH31 0x12A9B7D93DE5B6ED5CBC921E9A64736F6C634300081A003300000000000000 "
				},
				"gasEstimates": {
					"creation": {
						"codeDepositCost": "366400",
						"executionCost": "infinite",
						"totalCost": "infinite"
					},
					"external": {
						"manager()": "2508",
						"setter(string)": "infinite",
						"str()": "infinite",
						"x()": "2403"
					}
				},
				"methodIdentifiers": {
					"manager()": "481c6a75",
					"setter(string)": "846228a3",
					"str()": "c15bae84",
					"x()": "0c55699c"
				}
			},
			"storageLayout": {
				"storage": [
					{
						"astId": 3,
						"contract": "contracts/10.34.solidity_oops_abstract.sol:Child",
						"label": "str",
						"offset": 0,
						"slot": "0",
						"type": "t_string_storage"
					},
					{
						"astId": 5,
						"contract": "contracts/10.34.solidity_oops_abstract.sol:Child",
						"label": "manager",
						"offset": 0,
						"slot": "1",
						"type": "t_address"
					},
					{
						"astId": 28,
						"contract": "contracts/10.34.solidity_oops_abstract.sol:Child",
						"label": "x",
						"offset": 0,
						"slot": "2",
						"type": "t_uint256"
					}
				],
				"types": {
					"t_address": {
						"encoding": "inplace",
						"label": "address",
						"numberOfBytes": "20"
					},
					"t_string_storage": {
						"encoding": "bytes",
						"label": "string",
						"numberOfBytes": "32"
					},
					"t_uint256": {
						"encoding": "inplace",
						"label": "uint256",
						"numberOfBytes": "32"
					}
				}
			},
			"userdoc": {
				"kind": "user",
				"methods": {},
				"version": 1
			}
		}
	}
}