{
	"contracts/evm/mappingslots.sol": {
		"Demo": {
			"abi": [
				{
					"inputs": [],
					"stateMutability": "nonpayable",
					"type": "constructor"
				},
				{
					"inputs": [
						{
							"internalType": "uint256",
							"name": "key",
							"type": "uint256"
						},
						{
							"internalType": "uint256",
							"name": "mappingSlot",
							"type": "uint256"
						}
					],
					"name": "getMappingValue",
					"outputs": [
						{
							"internalType": "uint256",
							"name": "",
							"type": "uint256"
						}
					],
					"stateMutability": "pure",
					"type": "function"
				},
				{
					"inputs": [
						{
							"internalType": "uint256",
							"name": "slot",
							"type": "uint256"
						}
					],
					"name": "getSlotValue",
					"outputs": [
						{
							"internalType": "bytes32",
							"name": "",
							"type": "bytes32"
						}
					],
					"stateMutability": "view",
					"type": "function"
				}
			],
			"devdoc": {
				"kind": "dev",
				"methods": {},
				"version": 1
			},
			"evm": {
				"assembly": "    /* \"contracts/evm/mappingslots.sol\":58:768  contract Demo {... */\n  mstore(0x40, 0x80)\n    /* \"contracts/evm/mappingslots.sol\":90:96  0x1a01 */\n  0x1a01\n    /* \"contracts/evm/mappingslots.sol\":78:96  uint256 a = 0x1a01 */\n  0x00\n  sstore\n    /* \"contracts/evm/mappingslots.sol\":123:129  0x2a01 */\n  0x2a01\n    /* \"contracts/evm/mappingslots.sol\":111:129  uint256 b = 0x2a01 */\n  0x01\n  sstore\n    /* \"contracts/evm/mappingslots.sol\":191:197  0x5a01 */\n  0x5a01\n    /* \"contracts/evm/mappingslots.sol\":179:197  uint256 d = 0x5a01 */\n  0x03\n  sstore\n    /* \"contracts/evm/mappingslots.sol\":213:283  constructor() {... */\n  callvalue\n  dup1\n  iszero\n  tag_1\n  jumpi\n  0x00\n  dup1\n  revert\ntag_1:\n  pop\n    /* \"contracts/evm/mappingslots.sol\":245:251  0xfe3f */\n  0xfe3f\n    /* \"contracts/evm/mappingslots.sol\":237:238  c */\n  0x02\n    /* \"contracts/evm/mappingslots.sol\":237:242  c[10] */\n  0x00\n    /* \"contracts/evm/mappingslots.sol\":239:241  10 */\n  0x0a\n    /* \"contracts/evm/mappingslots.sol\":237:242  c[10] */\n  dup2\n  mstore\n  0x20\n  add\n  swap1\n  dup2\n  mstore\n  0x20\n  add\n  0x00\n  keccak256\n    /* \"contracts/evm/mappingslots.sol\":237:251  c[10] = 0xfe3f */\n  dup2\n  swap1\n  sstore\n  pop\n    /* \"contracts/evm/mappingslots.sol\":270:276  0xabcd */\n  0xabcd\n    /* \"contracts/evm/mappingslots.sol\":261:262  c */\n  0x02\n    /* \"contracts/evm/mappingslots.sol\":261:267  c[100] */\n  0x00\n    /* \"contracts/evm/mappingslots.sol\":263:266  100 */\n  0x64\n    /* \"contracts/evm/mappingslots.sol\":261:267  c[100] */\n  dup2\n  mstore\n  0x20\n  add\n  swap1\n  dup2\n  mstore\n  0x20\n  add\n  0x00\n  keccak256\n    /* \"contracts/evm/mappingslots.sol\":261:276  c[100] = 0xabcd */\n  dup2\n  swap1\n  sstore\n  pop\n    /* \"contracts/evm/mappingslots.sol\":58:768  contract Demo {... */\n  dataSize(sub_0)\n  dup1\n  dataOffset(sub_0)\n  0x00\n  codecopy\n  0x00\n  return\nstop\n\nsub_0: assembly {\n        /* \"contracts/evm/mappingslots.sol\":58:768  contract Demo {... */\n      mstore(0x40, 0x80)\n      callvalue\n      dup1\n      iszero\n      tag_1\n      jumpi\n      0x00\n      dup1\n      revert\n    tag_1:\n      pop\n      jumpi(tag_2, lt(calldatasize, 0x04))\n      shr(0xe0, calldataload(0x00))\n      dup1\n      0x10fdc236\n      eq\n      tag_3\n      jumpi\n      dup1\n      0xe5745463\n      eq\n      tag_4\n      jumpi\n    tag_2:\n      0x00\n      dup1\n      revert\n        /* \"contracts/evm/mappingslots.sol\":356:580  function getMappingValue(uint256 key, uint256 mappingSlot)... */\n    tag_3:\n      tag_5\n      0x04\n      dup1\n      calldatasize\n      sub\n      dup2\n      add\n      swap1\n      tag_6\n      swap2\n      swap1\n      tag_7\n      jump\t// in\n    tag_6:\n      tag_8\n      jump\t// in\n    tag_5:\n      mload(0x40)\n      tag_9\n      swap2\n      swap1\n      tag_10\n      jump\t// in\n    tag_9:\n      mload(0x40)\n      dup1\n      swap2\n      sub\n      swap1\n      return\n        /* \"contracts/evm/mappingslots.sol\":586:766  function getSlotValue(uint256 slot) public view returns (bytes32) {... */\n    tag_4:\n      tag_11\n      0x04\n      dup1\n      calldatasize\n      sub\n      dup2\n      add\n      swap1\n      tag_12\n      swap2\n      swap1\n      tag_13\n      jump\t// in\n    tag_12:\n      tag_14\n      jump\t// in\n    tag_11:\n      mload(0x40)\n      tag_15\n      swap2\n      swap1\n      tag_16\n      jump\t// in\n    tag_15:\n      mload(0x40)\n      dup1\n      swap2\n      sub\n      swap1\n      return\n        /* \"contracts/evm/mappingslots.sol\":356:580  function getMappingValue(uint256 key, uint256 mappingSlot)... */\n    tag_8:\n        /* \"contracts/evm/mappingslots.sol\":460:467  uint256 */\n      0x00\n        /* \"contracts/evm/mappingslots.sol\":483:495  uint256 slot */\n      dup1\n        /* \"contracts/evm/mappingslots.sol\":533:536  key */\n      dup4\n        /* \"contracts/evm/mappingslots.sol\":538:549  mappingSlot */\n      dup4\n        /* \"contracts/evm/mappingslots.sol\":516:550  abi.encodePacked(key, mappingSlot) */\n      add(0x20, mload(0x40))\n      tag_18\n      swap3\n      swap2\n      swap1\n      tag_19\n      jump\t// in\n    tag_18:\n      mload(0x40)\n      0x20\n      dup2\n      dup4\n      sub\n      sub\n      dup2\n      mstore\n      swap1\n      0x40\n      mstore\n        /* \"contracts/evm/mappingslots.sol\":506:551  keccak256(abi.encodePacked(key, mappingSlot)) */\n      dup1\n      mload\n      swap1\n      0x20\n      add\n      keccak256\n        /* \"contracts/evm/mappingslots.sol\":498:552  uint256(keccak256(abi.encodePacked(key, mappingSlot))) */\n      0x00\n      shr\n        /* \"contracts/evm/mappingslots.sol\":483:552  uint256 slot = uint256(keccak256(abi.encodePacked(key, mappingSlot))) */\n      swap1\n      pop\n        /* \"contracts/evm/mappingslots.sol\":569:573  slot */\n      dup1\n        /* \"contracts/evm/mappingslots.sol\":562:573  return slot */\n      swap2\n      pop\n      pop\n        /* \"contracts/evm/mappingslots.sol\":356:580  function getMappingValue(uint256 key, uint256 mappingSlot)... */\n      swap3\n      swap2\n      pop\n      pop\n      jump\t// out\n        /* \"contracts/evm/mappingslots.sol\":586:766  function getSlotValue(uint256 slot) public view returns (bytes32) {... */\n    tag_14:\n        /* \"contracts/evm/mappingslots.sol\":643:650  bytes32 */\n      0x00\n        /* \"contracts/evm/mappingslots.sol\":662:675  bytes32 value */\n      dup1\n        /* \"contracts/evm/mappingslots.sol\":723:727  slot */\n      dup3\n        /* \"contracts/evm/mappingslots.sol\":717:728  sload(slot) */\n      sload\n        /* \"contracts/evm/mappingslots.sol\":708:728  value := sload(slot) */\n      swap1\n      pop\n        /* \"contracts/evm/mappingslots.sol\":754:759  value */\n      dup1\n        /* \"contracts/evm/mappingslots.sol\":747:759  return value */\n      swap2\n      pop\n      pop\n        /* \"contracts/evm/mappingslots.sol\":586:766  function getSlotValue(uint256 slot) public view returns (bytes32) {... */\n      swap2\n      swap1\n      pop\n      jump\t// out\n        /* \"#utility.yul\":88:205   */\n    tag_22:\n        /* \"#utility.yul\":197:198   */\n      0x00\n        /* \"#utility.yul\":194:195   */\n      dup1\n        /* \"#utility.yul\":187:199   */\n      revert\n        /* \"#utility.yul\":334:411   */\n    tag_24:\n        /* \"#utility.yul\":371:378   */\n      0x00\n        /* \"#utility.yul\":400:405   */\n      dup2\n        /* \"#utility.yul\":389:405   */\n      swap1\n      pop\n        /* \"#utility.yul\":334:411   */\n      swap2\n      swap1\n      pop\n      jump\t// out\n        /* \"#utility.yul\":417:539   */\n    tag_25:\n        /* \"#utility.yul\":490:514   */\n      tag_38\n        /* \"#utility.yul\":508:513   */\n      dup2\n        /* \"#utility.yul\":490:514   */\n      tag_24\n      jump\t// in\n    tag_38:\n        /* \"#utility.yul\":483:488   */\n      dup2\n        /* \"#utility.yul\":480:515   */\n      eq\n        /* \"#utility.yul\":470:533   */\n      tag_39\n      jumpi\n        /* \"#utility.yul\":529:530   */\n      0x00\n        /* \"#utility.yul\":526:527   */\n      dup1\n        /* \"#utility.yul\":519:531   */\n      revert\n        /* \"#utility.yul\":470:533   */\n    tag_39:\n        /* \"#utility.yul\":417:539   */\n      pop\n      jump\t// out\n        /* \"#utility.yul\":545:684   */\n    tag_26:\n        /* \"#utility.yul\":591:596   */\n      0x00\n        /* \"#utility.yul\":629:635   */\n      dup2\n        /* \"#utility.yul\":616:636   */\n      calldataload\n        /* \"#utility.yul\":607:636   */\n      swap1\n      pop\n        /* \"#utility.yul\":645:678   */\n      tag_41\n        /* \"#utility.yul\":672:677   */\n      dup2\n        /* \"#utility.yul\":645:678   */\n      tag_25\n      jump\t// in\n    tag_41:\n        /* \"#utility.yul\":545:684   */\n      swap3\n      swap2\n      pop\n      pop\n      jump\t// out\n        /* \"#utility.yul\":690:1164   */\n    tag_7:\n        /* \"#utility.yul\":758:764   */\n      0x00\n        /* \"#utility.yul\":766:772   */\n      dup1\n        /* \"#utility.yul\":815:817   */\n      0x40\n        /* \"#utility.yul\":803:812   */\n      dup4\n        /* \"#utility.yul\":794:801   */\n      dup6\n        /* \"#utility.yul\":790:813   */\n      sub\n        /* \"#utility.yul\":786:818   */\n      slt\n        /* \"#utility.yul\":783:902   */\n      iszero\n      tag_43\n      jumpi\n        /* \"#utility.yul\":821:900   */\n      tag_44\n      tag_22\n      jump\t// in\n    tag_44:\n        /* \"#utility.yul\":783:902   */\n    tag_43:\n        /* \"#utility.yul\":941:942   */\n      0x00\n        /* \"#utility.yul\":966:1019   */\n      tag_45\n        /* \"#utility.yul\":1011:1018   */\n      dup6\n        /* \"#utility.yul\":1002:1008   */\n      dup3\n        /* \"#utility.yul\":991:1000   */\n      dup7\n        /* \"#utility.yul\":987:1009   */\n      add\n        /* \"#utility.yul\":966:1019   */\n      tag_26\n      jump\t// in\n    tag_45:\n        /* \"#utility.yul\":956:1019   */\n      swap3\n      pop\n        /* \"#utility.yul\":912:1029   */\n      pop\n        /* \"#utility.yul\":1068:1070   */\n      0x20\n        /* \"#utility.yul\":1094:1147   */\n      tag_46\n        /* \"#utility.yul\":1139:1146   */\n      dup6\n        /* \"#utility.yul\":1130:1136   */\n      dup3\n        /* \"#utility.yul\":1119:1128   */\n      dup7\n        /* \"#utility.yul\":1115:1137   */\n      add\n        /* \"#utility.yul\":1094:1147   */\n      tag_26\n      jump\t// in\n    tag_46:\n        /* \"#utility.yul\":1084:1147   */\n      swap2\n      pop\n        /* \"#utility.yul\":1039:1157   */\n      pop\n        /* \"#utility.yul\":690:1164   */\n      swap3\n      pop\n      swap3\n      swap1\n      pop\n      jump\t// out\n        /* \"#utility.yul\":1170:1288   */\n    tag_27:\n        /* \"#utility.yul\":1257:1281   */\n      tag_48\n        /* \"#utility.yul\":1275:1280   */\n      dup2\n        /* \"#utility.yul\":1257:1281   */\n      tag_24\n      jump\t// in\n    tag_48:\n        /* \"#utility.yul\":1252:1255   */\n      dup3\n        /* \"#utility.yul\":1245:1282   */\n      mstore\n        /* \"#utility.yul\":1170:1288   */\n      pop\n      pop\n      jump\t// out\n        /* \"#utility.yul\":1294:1516   */\n    tag_10:\n        /* \"#utility.yul\":1387:1391   */\n      0x00\n        /* \"#utility.yul\":1425:1427   */\n      0x20\n        /* \"#utility.yul\":1414:1423   */\n      dup3\n        /* \"#utility.yul\":1410:1428   */\n      add\n        /* \"#utility.yul\":1402:1428   */\n      swap1\n      pop\n        /* \"#utility.yul\":1438:1509   */\n      tag_50\n        /* \"#utility.yul\":1506:1507   */\n      0x00\n        /* \"#utility.yul\":1495:1504   */\n      dup4\n        /* \"#utility.yul\":1491:1508   */\n      add\n        /* \"#utility.yul\":1482:1488   */\n      dup5\n        /* \"#utility.yul\":1438:1509   */\n      tag_27\n      jump\t// in\n    tag_50:\n        /* \"#utility.yul\":1294:1516   */\n      swap3\n      swap2\n      pop\n      pop\n      jump\t// out\n        /* \"#utility.yul\":1522:1851   */\n    tag_13:\n        /* \"#utility.yul\":1581:1587   */\n      0x00\n        /* \"#utility.yul\":1630:1632   */\n      0x20\n        /* \"#utility.yul\":1618:1627   */\n      dup3\n        /* \"#utility.yul\":1609:1616   */\n      dup5\n        /* \"#utility.yul\":1605:1628   */\n      sub\n        /* \"#utility.yul\":1601:1633   */\n      slt\n        /* \"#utility.yul\":1598:1717   */\n      iszero\n      tag_52\n      jumpi\n        /* \"#utility.yul\":1636:1715   */\n      tag_53\n      tag_22\n      jump\t// in\n    tag_53:\n        /* \"#utility.yul\":1598:1717   */\n    tag_52:\n        /* \"#utility.yul\":1756:1757   */\n      0x00\n        /* \"#utility.yul\":1781:1834   */\n      tag_54\n        /* \"#utility.yul\":1826:1833   */\n      dup5\n        /* \"#utility.yul\":1817:1823   */\n      dup3\n        /* \"#utility.yul\":1806:1815   */\n      dup6\n        /* \"#utility.yul\":1802:1824   */\n      add\n        /* \"#utility.yul\":1781:1834   */\n      tag_26\n      jump\t// in\n    tag_54:\n        /* \"#utility.yul\":1771:1834   */\n      swap2\n      pop\n        /* \"#utility.yul\":1727:1844   */\n      pop\n        /* \"#utility.yul\":1522:1851   */\n      swap3\n      swap2\n      pop\n      pop\n      jump\t// out\n        /* \"#utility.yul\":1857:1934   */\n    tag_28:\n        /* \"#utility.yul\":1894:1901   */\n      0x00\n        /* \"#utility.yul\":1923:1928   */\n      dup2\n        /* \"#utility.yul\":1912:1928   */\n      swap1\n      pop\n        /* \"#utility.yul\":1857:1934   */\n      swap2\n      swap1\n      pop\n      jump\t// out\n        /* \"#utility.yul\":1940:2058   */\n    tag_29:\n        /* \"#utility.yul\":2027:2051   */\n      tag_57\n        /* \"#utility.yul\":2045:2050   */\n      dup2\n        /* \"#utility.yul\":2027:2051   */\n      tag_28\n      jump\t// in\n    tag_57:\n        /* \"#utility.yul\":2022:2025   */\n      dup3\n        /* \"#utility.yul\":2015:2052   */\n      mstore\n        /* \"#utility.yul\":1940:2058   */\n      pop\n      pop\n      jump\t// out\n        /* \"#utility.yul\":2064:2286   */\n    tag_16:\n        /* \"#utility.yul\":2157:2161   */\n      0x00\n        /* \"#utility.yul\":2195:2197   */\n      0x20\n        /* \"#utility.yul\":2184:2193   */\n      dup3\n        /* \"#utility.yul\":2180:2198   */\n      add\n        /* \"#utility.yul\":2172:2198   */\n      swap1\n      pop\n        /* \"#utility.yul\":2208:2279   */\n      tag_59\n        /* \"#utility.yul\":2276:2277   */\n      0x00\n        /* \"#utility.yul\":2265:2274   */\n      dup4\n        /* \"#utility.yul\":2261:2278   */\n      add\n        /* \"#utility.yul\":2252:2258   */\n      dup5\n        /* \"#utility.yul\":2208:2279   */\n      tag_29\n      jump\t// in\n    tag_59:\n        /* \"#utility.yul\":2064:2286   */\n      swap3\n      swap2\n      pop\n      pop\n      jump\t// out\n        /* \"#utility.yul\":2292:2371   */\n    tag_30:\n        /* \"#utility.yul\":2331:2338   */\n      0x00\n        /* \"#utility.yul\":2360:2365   */\n      dup2\n        /* \"#utility.yul\":2349:2365   */\n      swap1\n      pop\n        /* \"#utility.yul\":2292:2371   */\n      swap2\n      swap1\n      pop\n      jump\t// out\n        /* \"#utility.yul\":2377:2534   */\n    tag_31:\n        /* \"#utility.yul\":2482:2527   */\n      tag_62\n        /* \"#utility.yul\":2502:2526   */\n      tag_63\n        /* \"#utility.yul\":2520:2525   */\n      dup3\n        /* \"#utility.yul\":2502:2526   */\n      tag_24\n      jump\t// in\n    tag_63:\n        /* \"#utility.yul\":2482:2527   */\n      tag_30\n      jump\t// in\n    tag_62:\n        /* \"#utility.yul\":2477:2480   */\n      dup3\n        /* \"#utility.yul\":2470:2528   */\n      mstore\n        /* \"#utility.yul\":2377:2534   */\n      pop\n      pop\n      jump\t// out\n        /* \"#utility.yul\":2540:2937   */\n    tag_19:\n        /* \"#utility.yul\":2680:2683   */\n      0x00\n        /* \"#utility.yul\":2695:2770   */\n      tag_65\n        /* \"#utility.yul\":2766:2769   */\n      dup3\n        /* \"#utility.yul\":2757:2763   */\n      dup6\n        /* \"#utility.yul\":2695:2770   */\n      tag_31\n      jump\t// in\n    tag_65:\n        /* \"#utility.yul\":2795:2797   */\n      0x20\n        /* \"#utility.yul\":2790:2793   */\n      dup3\n        /* \"#utility.yul\":2786:2798   */\n      add\n        /* \"#utility.yul\":2779:2798   */\n      swap2\n      pop\n        /* \"#utility.yul\":2808:2883   */\n      tag_66\n        /* \"#utility.yul\":2879:2882   */\n      dup3\n        /* \"#utility.yul\":2870:2876   */\n      dup5\n        /* \"#utility.yul\":2808:2883   */\n      tag_31\n      jump\t// in\n    tag_66:\n        /* \"#utility.yul\":2908:2910   */\n      0x20\n        /* \"#utility.yul\":2903:2906   */\n      dup3\n        /* \"#utility.yul\":2899:2911   */\n      add\n        /* \"#utility.yul\":2892:2911   */\n      swap2\n      pop\n        /* \"#utility.yul\":2928:2931   */\n      dup2\n        /* \"#utility.yul\":2921:2931   */\n      swap1\n      pop\n        /* \"#utility.yul\":2540:2937   */\n      swap4\n      swap3\n      pop\n      pop\n      pop\n      jump\t// out\n\n    auxdata: 0xa2646970667358221220bc1adaa797d1450976a71963a951b5d4c2fae5923f12e4b7b2057b2b3d59b7d264736f6c634300081a0033\n}\n",
				"bytecode": {
					"linkReferences": {},
					"object": "6080604052611a015f55612a01600155615a01600355348015601f575f80fd5b5061fe3f60025f600a81526020019081526020015f208190555061abcd60025f606481526020019081526020015f208190555061025a8061005f5f395ff3fe608060405234801561000f575f80fd5b5060043610610034575f3560e01c806310fdc23614610038578063e574546314610068575b5f80fd5b610052600480360381019061004d9190610117565b610098565b60405161005f9190610164565b60405180910390f35b610082600480360381019061007d919061017d565b6100d1565b60405161008f91906101c0565b60405180910390f35b5f8083836040516020016100ad9291906101f9565b604051602081830303815290604052805190602001205f1c90508091505092915050565b5f808254905080915050919050565b5f80fd5b5f819050919050565b6100f6816100e4565b8114610100575f80fd5b50565b5f81359050610111816100ed565b92915050565b5f806040838503121561012d5761012c6100e0565b5b5f61013a85828601610103565b925050602061014b85828601610103565b9150509250929050565b61015e816100e4565b82525050565b5f6020820190506101775f830184610155565b92915050565b5f60208284031215610192576101916100e0565b5b5f61019f84828501610103565b91505092915050565b5f819050919050565b6101ba816101a8565b82525050565b5f6020820190506101d35f8301846101b1565b92915050565b5f819050919050565b6101f36101ee826100e4565b6101d9565b82525050565b5f61020482856101e2565b60208201915061021482846101e2565b602082019150819050939250505056fea2646970667358221220bc1adaa797d1450976a71963a951b5d4c2fae5923f12e4b7b2057b2b3d59b7d264736f6c634300081a0033",
					"opcodes": "PUSH1 0x80 PUSH1 0x40 MSTORE PUSH2 0x1A01 PUSH0 SSTORE PUSH2 0x2A01 PUSH1 0x1 SSTORE PUSH2 0x5A01 PUSH1 0x3 SSTORE CALLVALUE DUP1 ISZERO PUSH1 0x1F JUMPI PUSH0 DUP1 REVERT JUMPDEST POP PUSH2 0xFE3F PUSH1 0x2 PUSH0 PUSH1 0xA DUP2 MSTORE PUSH1 0x20 ADD SWAP1 DUP2 MSTORE PUSH1 0x20 ADD PUSH0 KECCAK256 DUP2 SWAP1 SSTORE POP PUSH2 0xABCD PUSH1 0x2 PUSH0 PUSH1 0x64 DUP2 MSTORE PUSH1 0x20 ADD SWAP1 DUP2 MSTORE PUSH1 0x20 ADD PUSH0 KECCAK256 DUP2 SWAP1 SSTORE POP PUSH2 0x25A DUP1 PUSH2 0x5F PUSH0 CODECOPY PUSH0 RETURN INVALID PUSH1 0x80 PUSH1 0x40 MSTORE CALLVALUE DUP1 ISZERO PUSH2 0xF JUMPI PUSH0 DUP1 REVERT JUMPDEST POP PUSH1 0x4 CALLDATASIZE LT PUSH2 0x34 JUMPI PUSH0 CALLDATALOAD PUSH1 0xE0 SHR DUP1 PUSH4 0x10FDC236 EQ PUSH2 0x38 JUMPI DUP1 PUSH4 0xE5745463 EQ PUSH2 0x68 JUMPI JUMPDEST PUSH0 DUP1 REVERT JUMPDEST PUSH2 0x52 PUSH1 0x4 DUP1 CALLDATASIZE SUB DUP2 ADD SWAP1 PUSH2 0x4D SWAP2 SWAP1 PUSH2 0x117 JUMP JUMPDEST PUSH2 0x98 JUMP JUMPDEST PUSH1 0x40 MLOAD PUSH2 0x5F SWAP2 SWAP1 PUSH2 0x164 JUMP JUMPDEST PUSH1 0x40 MLOAD DUP1 SWAP2 SUB SWAP1 RETURN JUMPDEST PUSH2 0x82 PUSH1 0x4 DUP1 CALLDATASIZE SUB DUP2 ADD SWAP1 PUSH2 0x7D SWAP2 SWAP1 PUSH2 0x17D JUMP JUMPDEST PUSH2 0xD1 JUMP JUMPDEST PUSH1 0x40 MLOAD PUSH2 0x8F SWAP2 SWAP1 PUSH2 0x1C0 JUMP JUMPDEST PUSH1 0x40 MLOAD DUP1 SWAP2 SUB SWAP1 RETURN JUMPDEST PUSH0 DUP1 DUP4 DUP4 PUSH1 0x40 MLOAD PUSH1 0x20 ADD PUSH2 0xAD SWAP3 SWAP2 SWAP1 PUSH2 0x1F9 JUMP JUMPDEST PUSH1 0x40 MLOAD PUSH1 0x20 DUP2 DUP4 SUB SUB DUP2 MSTORE SWAP1 PUSH1 0x40 MSTORE DUP1 MLOAD SWAP1 PUSH1 0x20 ADD KECCAK256 PUSH0 SHR SWAP1 POP DUP1 SWAP2 POP POP SWAP3 SWAP2 POP POP JUMP JUMPDEST PUSH0 DUP1 DUP3 SLOAD SWAP1 POP DUP1 SWAP2 POP POP SWAP2 SWAP1 POP JUMP JUMPDEST PUSH0 DUP1 REVERT JUMPDEST PUSH0 DUP2 SWAP1 POP SWAP2 SWAP1 POP JUMP JUMPDEST PUSH2 0xF6 DUP2 PUSH2 0xE4 JUMP JUMPDEST DUP2 EQ PUSH2 0x100 JUMPI PUSH0 DUP1 REVERT JUMPDEST POP JUMP JUMPDEST PUSH0 DUP2 CALLDATALOAD SWAP1 POP PUSH2 0x111 DUP2 PUSH2 0xED JUMP JUMPDEST SWAP3 SWAP2 POP POP JUMP JUMPDEST PUSH0 DUP1 PUSH1 0x40 DUP4 DUP6 SUB SLT ISZERO PUSH2 0x12D JUMPI PUSH2 0x12C PUSH2 0xE0 JUMP JUMPDEST JUMPDEST PUSH0 PUSH2 0x13A DUP6 DUP3 DUP7 ADD PUSH2 0x103 JUMP JUMPDEST SWAP3 POP POP PUSH1 0x20 PUSH2 0x14B DUP6 DUP3 DUP7 ADD PUSH2 0x103 JUMP JUMPDEST SWAP2 POP POP SWAP3 POP SWAP3 SWAP1 POP JUMP JUMPDEST PUSH2 0x15E DUP2 PUSH2 0xE4 JUMP JUMPDEST DUP3 MSTORE POP POP JUMP JUMPDEST PUSH0 PUSH1 0x20 DUP3 ADD SWAP1 POP PUSH2 0x177 PUSH0 DUP4 ADD DUP5 PUSH2 0x155 JUMP JUMPDEST SWAP3 SWAP2 POP POP JUMP JUMPDEST PUSH0 PUSH1 0x20 DUP3 DUP5 SUB SLT ISZERO PUSH2 0x192 JUMPI PUSH2 0x191 PUSH2 0xE0 JUMP JUMPDEST JUMPDEST PUSH0 PUSH2 0x19F DUP5 DUP3 DUP6 ADD PUSH2 0x103 JUMP JUMPDEST SWAP2 POP POP SWAP3 SWAP2 POP POP JUMP JUMPDEST PUSH0 DUP2 SWAP1 POP SWAP2 SWAP1 POP JUMP JUMPDEST PUSH2 0x1BA DUP2 PUSH2 0x1A8 JUMP JUMPDEST DUP3 MSTORE POP POP JUMP JUMPDEST PUSH0 PUSH1 0x20 DUP3 ADD SWAP1 POP PUSH2 0x1D3 PUSH0 DUP4 ADD DUP5 PUSH2 0x1B1 JUMP JUMPDEST SWAP3 SWAP2 POP POP JUMP JUMPDEST PUSH0 DUP2 SWAP1 POP SWAP2 SWAP1 POP JUMP JUMPDEST PUSH2 0x1F3 PUSH2 0x1EE DUP3 PUSH2 0xE4 JUMP JUMPDEST PUSH2 0x1D9 JUMP JUMPDEST DUP3 MSTORE POP POP JUMP JUMPDEST PUSH0 PUSH2 0x204 DUP3 DUP6 PUSH2 0x1E2 JUMP JUMPDEST PUSH1 0x20 DUP3 ADD SWAP2 POP PUSH2 0x214 DUP3 DUP5 PUSH2 0x1E2 JUMP JUMPDEST PUSH1 0x20 DUP3 ADD SWAP2 POP DUP2 SWAP1 POP SWAP4 SWAP3 POP POP POP JUMP INVALID LOG2 PUSH5 0x6970667358 0x22 SLT KECCAK256 0xBC BYTE 0xDA 0xA7 SWAP8 0xD1 GASLIMIT MULMOD PUSH23 0xA71963A951B5D4C2FAE5923F12E4B7B2057B2B3D59B7D2 PUSH5 0x736F6C6343 STOP ADDMOD BYTE STOP CALLER "
				},
				"gasEstimates": {
					"creation": {
						"codeDepositCost": "120400",
						"executionCost": "110860",
						"totalCost": "231260"
					},
					"external": {
						"getMappingValue(uint256,uint256)": "infinite",
						"getSlotValue(uint256)": "2706"
					}
				},
				"methodIdentifiers": {
					"getMappingValue(uint256,uint256)": "10fdc236",
					"getSlotValue(uint256)": "e5745463"
				}
			},
			"storageLayout": {
				"storage": [
					{
						"astId": 4,
						"contract": "contracts/evm/mappingslots.sol:Demo",
						"label": "a",
						"offset": 0,
						"slot": "0",
						"type": "t_uint256"
					},
					{
						"astId": 7,
						"contract": "contracts/evm/mappingslots.sol:Demo",
						"label": "b",
						"offset": 0,
						"slot": "1",
						"type": "t_uint256"
					},
					{
						"astId": 11,
						"contract": "contracts/evm/mappingslots.sol:Demo",
						"label": "c",
						"offset": 0,
						"slot": "2",
						"type": "t_mapping(t_uint256,t_uint256)"
					},
					{
						"astId": 14,
						"contract": "contracts/evm/mappingslots.sol:Demo",
						"label": "d",
						"offset": 0,
						"slot": "3",
						"type": "t_uint256"
					}
				],
				"types": {
					"t_mapping(t_uint256,t_uint256)": {
						"encoding": "mapping",
						"key": "t_uint256",
						"label": "mapping(uint256 => uint256)",
						"numberOfBytes": "32",
						"value": "t_uint256"
					},
					"t_uint256": {
						"encoding": "inplace",
						"label": "uint256",
						"numberOfBytes": "32"
					}
				}
			},
			"userdoc": {
				"kind": "user",
				"methods": {},
				"version": 1
			}
		}
	}
}