{
	"data": {
		"bytecode": {
			"linkReferences": {},
			"object": "6080604052348015600e575f80fd5b506101248061001c5f395ff3fe6080604052348015600e575f80fd5b50600436106044575f3560e01c80633f3108f7146048578063993a04b7146050578063dc80e1fb14606a578063f2c0a786146084575b5f80fd5b604e609e565b005b605660a7565b6040516061919060d7565b60405180910390f35b607060af565b604051607b919060d7565b60405180910390f35b608a60b4565b6040516095919060d7565b60405180910390f35b60025f81905550565b5f8054905090565b5f5481565b5f80600190508091505090565b5f819050919050565b60d18160c1565b82525050565b5f60208201905060e85f83018460ca565b9291505056fea264697066735822122008f10555e6b7a11bc485c9e66516a7f66f50f71339244782153e29f46ef7b77e64736f6c634300081a0033",
			"opcodes": "PUSH1 0x80 PUSH1 0x40 MSTORE CALLVALUE DUP1 ISZERO PUSH1 0xE JUMPI PUSH0 DUP1 REVERT JUMPDEST POP PUSH2 0x124 DUP1 PUSH2 0x1C PUSH0 CODECOPY PUSH0 RETURN INVALID PUSH1 0x80 PUSH1 0x40 MSTORE CALLVALUE DUP1 ISZERO PUSH1 0xE JUMPI PUSH0 DUP1 REVERT JUMPDEST POP PUSH1 0x4 CALLDATASIZE LT PUSH1 0x44 JUMPI PUSH0 CALLDATALOAD PUSH1 0xE0 SHR DUP1 PUSH4 0x3F3108F7 EQ PUSH1 0x48 JUMPI DUP1 PUSH4 0x993A04B7 EQ PUSH1 0x50 JUMPI DUP1 PUSH4 0xDC80E1FB EQ PUSH1 0x6A JUMPI DUP1 PUSH4 0xF2C0A786 EQ PUSH1 0x84 JUMPI JUMPDEST PUSH0 DUP1 REVERT JUMPDEST PUSH1 0x4E PUSH1 0x9E JUMP JUMPDEST STOP JUMPDEST PUSH1 0x56 PUSH1 0xA7 JUMP JUMPDEST PUSH1 0x40 MLOAD PUSH1 0x61 SWAP2 SWAP1 PUSH1 0xD7 JUMP JUMPDEST PUSH1 0x40 MLOAD DUP1 SWAP2 SUB SWAP1 RETURN JUMPDEST PUSH1 0x70 PUSH1 0xAF JUMP JUMPDEST PUSH1 0x40 MLOAD PUSH1 0x7B SWAP2 SWAP1 PUSH1 0xD7 JUMP JUMPDEST PUSH1 0x40 MLOAD DUP1 SWAP2 SUB SWAP1 RETURN JUMPDEST PUSH1 0x8A PUSH1 0xB4 JUMP JUMPDEST PUSH1 0x40 MLOAD PUSH1 0x95 SWAP2 SWAP1 PUSH1 0xD7 JUMP JUMPDEST PUSH1 0x40 MLOAD DUP1 SWAP2 SUB SWAP1 RETURN JUMPDEST PUSH1 0x2 PUSH0 DUP2 SWAP1 SSTORE POP JUMP JUMPDEST PUSH0 DUP1 SLOAD SWAP1 POP SWAP1 JUMP JUMPDEST PUSH0 SLOAD DUP2 JUMP JUMPDEST PUSH0 DUP1 PUSH1 0x1 SWAP1 POP DUP1 SWAP2 POP POP SWAP1 JUMP JUMPDEST PUSH0 DUP2 SWAP1 POP SWAP2 SWAP1 POP JUMP JUMPDEST PUSH1 0xD1 DUP2 PUSH1 0xC1 JUMP JUMPDEST DUP3 MSTORE POP POP JUMP JUMPDEST PUSH0 PUSH1 0x20 DUP3 ADD SWAP1 POP PUSH1 0xE8 PUSH0 DUP4 ADD DUP5 PUSH1 0xCA JUMP JUMPDEST SWAP3 SWAP2 POP POP JUMP INVALID LOG2 PUSH5 0x6970667358 0x22 SLT KECCAK256 ADDMOD CALL SDIV SSTORE 0xE6 0xB7 LOG1 SHL 0xC4 DUP6 0xC9 0xE6 PUSH6 0x16A7F66F50F7 SGT CODECOPY 0x24 SELFBALANCE DUP3 ISZERO RETURNDATACOPY 0x29 DELEGATECALL PUSH15 0xF7B77E64736F6C634300081A003300 "
		},
		"gasEstimates": {
			"creation": {
				"codeDepositCost": "58400",
				"executionCost": "109",
				"totalCost": "58509"
			},
			"external": {
				"getter()": "2432",
				"pureFunction()": "389",
				"setter()": "22234",
				"state_var()": "2446"
			}
		},
		"methodIdentifiers": {
			"getter()": "993a04b7",
			"pureFunction()": "f2c0a786",
			"setter()": "3f3108f7",
			"state_var()": "dc80e1fb"
		}
	},
	"abi": [
		{
			"inputs": [],
			"name": "getter",
			"outputs": [
				{
					"internalType": "uint256",
					"name": "",
					"type": "uint256"
				}
			],
			"stateMutability": "view",
			"type": "function"
		},
		{
			"inputs": [],
			"name": "pureFunction",
			"outputs": [
				{
					"internalType": "uint256",
					"name": "",
					"type": "uint256"
				}
			],
			"stateMutability": "pure",
			"type": "function"
		},
		{
			"inputs": [],
			"name": "setter",
			"outputs": [],
			"stateMutability": "nonpayable",
			"type": "function"
		},
		{
			"inputs": [],
			"name": "state_var",
			"outputs": [
				{
					"internalType": "uint256",
					"name": "",
					"type": "uint256"
				}
			],
			"stateMutability": "view",
			"type": "function"
		}
	]
}