{
	"data": {
		"bytecode": {
			"linkReferences": {},
			"object": "6080604052600a5f553480156012575f80fd5b50610237806100205f395ff3fe608060405234801561000f575f80fd5b506004361061007b575f3560e01c80638cedeee0116100595780638cedeee0146100c5578063cd3c1ed4146100e3578063d4e74ec614610101578063ed9a469f1461011f5761007b565b806310d2e18d1461007f5780631e8363611461009d57806361bc221a146100a7575b5f80fd5b61008761013d565b60405161009491906101b7565b60405180910390f35b6100a5610150565b005b6100af610159565b6040516100bc91906101e8565b60405180910390f35b6100cd61015e565b6040516100da91906101e8565b60405180910390f35b6100eb61016d565b6040516100f891906101b7565b60405180910390f35b61010961017a565b60405161011691906101e8565b60405180910390f35b610127610189565b60405161013491906101b7565b60405180910390f35b5f805f5490505f60019050809250505090565b60145f81905550565b5f5481565b5f60645f819055505f54905090565b5f80600190508091505090565b5f60645f819055505f54905090565b5f60145f819055505f600190508091505090565b5f8115159050919050565b6101b18161019d565b82525050565b5f6020820190506101ca5f8301846101a8565b92915050565b5f819050919050565b6101e2816101d0565b82525050565b5f6020820190506101fb5f8301846101d9565b9291505056fea26469706673582212207a2bb26dc8ff771c1b9467238a47d1e4febc49eb27535b2320697d00f2ff458464736f6c634300081a0033",
			"opcodes": "PUSH1 0x80 PUSH1 0x40 MSTORE PUSH1 0xA PUSH0 SSTORE CALLVALUE DUP1 ISZERO PUSH1 0x12 JUMPI PUSH0 DUP1 REVERT JUMPDEST POP PUSH2 0x237 DUP1 PUSH2 0x20 PUSH0 CODECOPY PUSH0 RETURN INVALID PUSH1 0x80 PUSH1 0x40 MSTORE CALLVALUE DUP1 ISZERO PUSH2 0xF JUMPI PUSH0 DUP1 REVERT JUMPDEST POP PUSH1 0x4 CALLDATASIZE LT PUSH2 0x7B JUMPI PUSH0 CALLDATALOAD PUSH1 0xE0 SHR DUP1 PUSH4 0x8CEDEEE0 GT PUSH2 0x59 JUMPI DUP1 PUSH4 0x8CEDEEE0 EQ PUSH2 0xC5 JUMPI DUP1 PUSH4 0xCD3C1ED4 EQ PUSH2 0xE3 JUMPI DUP1 PUSH4 0xD4E74EC6 EQ PUSH2 0x101 JUMPI DUP1 PUSH4 0xED9A469F EQ PUSH2 0x11F JUMPI PUSH2 0x7B JUMP JUMPDEST DUP1 PUSH4 0x10D2E18D EQ PUSH2 0x7F JUMPI DUP1 PUSH4 0x1E836361 EQ PUSH2 0x9D JUMPI DUP1 PUSH4 0x61BC221A EQ PUSH2 0xA7 JUMPI JUMPDEST PUSH0 DUP1 REVERT JUMPDEST PUSH2 0x87 PUSH2 0x13D JUMP JUMPDEST PUSH1 0x40 MLOAD PUSH2 0x94 SWAP2 SWAP1 PUSH2 0x1B7 JUMP JUMPDEST PUSH1 0x40 MLOAD DUP1 SWAP2 SUB SWAP1 RETURN JUMPDEST PUSH2 0xA5 PUSH2 0x150 JUMP JUMPDEST STOP JUMPDEST PUSH2 0xAF PUSH2 0x159 JUMP JUMPDEST PUSH1 0x40 MLOAD PUSH2 0xBC SWAP2 SWAP1 PUSH2 0x1E8 JUMP JUMPDEST PUSH1 0x40 MLOAD DUP1 SWAP2 SUB SWAP1 RETURN JUMPDEST PUSH2 0xCD PUSH2 0x15E JUMP JUMPDEST PUSH1 0x40 MLOAD PUSH2 0xDA SWAP2 SWAP1 PUSH2 0x1E8 JUMP JUMPDEST PUSH1 0x40 MLOAD DUP1 SWAP2 SUB SWAP1 RETURN JUMPDEST PUSH2 0xEB PUSH2 0x16D JUMP JUMPDEST PUSH1 0x40 MLOAD PUSH2 0xF8 SWAP2 SWAP1 PUSH2 0x1B7 JUMP JUMPDEST PUSH1 0x40 MLOAD DUP1 SWAP2 SUB SWAP1 RETURN JUMPDEST PUSH2 0x109 PUSH2 0x17A JUMP JUMPDEST PUSH1 0x40 MLOAD PUSH2 0x116 SWAP2 SWAP1 PUSH2 0x1E8 JUMP JUMPDEST PUSH1 0x40 MLOAD DUP1 SWAP2 SUB SWAP1 RETURN JUMPDEST PUSH2 0x127 PUSH2 0x189 JUMP JUMPDEST PUSH1 0x40 MLOAD PUSH2 0x134 SWAP2 SWAP1 PUSH2 0x1B7 JUMP JUMPDEST PUSH1 0x40 MLOAD DUP1 SWAP2 SUB SWAP1 RETURN JUMPDEST PUSH0 DUP1 PUSH0 SLOAD SWAP1 POP PUSH0 PUSH1 0x1 SWAP1 POP DUP1 SWAP3 POP POP POP SWAP1 JUMP JUMPDEST PUSH1 0x14 PUSH0 DUP2 SWAP1 SSTORE POP JUMP JUMPDEST PUSH0 SLOAD DUP2 JUMP JUMPDEST PUSH0 PUSH1 0x64 PUSH0 DUP2 SWAP1 SSTORE POP PUSH0 SLOAD SWAP1 POP SWAP1 JUMP JUMPDEST PUSH0 DUP1 PUSH1 0x1 SWAP1 POP DUP1 SWAP2 POP POP SWAP1 JUMP JUMPDEST PUSH0 PUSH1 0x64 PUSH0 DUP2 SWAP1 SSTORE POP PUSH0 SLOAD SWAP1 POP SWAP1 JUMP JUMPDEST PUSH0 PUSH1 0x14 PUSH0 DUP2 SWAP1 SSTORE POP PUSH0 PUSH1 0x1 SWAP1 POP DUP1 SWAP2 POP POP SWAP1 JUMP JUMPDEST PUSH0 DUP2 ISZERO ISZERO SWAP1 POP SWAP2 SWAP1 POP JUMP JUMPDEST PUSH2 0x1B1 DUP2 PUSH2 0x19D JUMP JUMPDEST DUP3 MSTORE POP POP JUMP JUMPDEST PUSH0 PUSH1 0x20 DUP3 ADD SWAP1 POP PUSH2 0x1CA PUSH0 DUP4 ADD DUP5 PUSH2 0x1A8 JUMP JUMPDEST SWAP3 SWAP2 POP POP JUMP JUMPDEST PUSH0 DUP2 SWAP1 POP SWAP2 SWAP1 POP JUMP JUMPDEST PUSH2 0x1E2 DUP2 PUSH2 0x1D0 JUMP JUMPDEST DUP3 MSTORE POP POP JUMP JUMPDEST PUSH0 PUSH1 0x20 DUP3 ADD SWAP1 POP PUSH2 0x1FB PUSH0 DUP4 ADD DUP5 PUSH2 0x1D9 JUMP JUMPDEST SWAP3 SWAP2 POP POP JUMP INVALID LOG2 PUSH5 0x6970667358 0x22 SLT KECCAK256 PUSH27 0x2BB26DC8FF771C1B9467238A47D1E4FEBC49EB27535B2320697D00 CALLCODE SELFDESTRUCT GASLIMIT DUP5 PUSH5 0x736F6C6343 STOP ADDMOD BYTE STOP CALLER "
		},
		"gasEstimates": {
			"creation": {
				"codeDepositCost": "113400",
				"executionCost": "22262",
				"totalCost": "135662"
			},
			"external": {
				"counter()": "2469",
				"readAndWriteStateVariable()": "24588",
				"readStateVariable()": "24544",
				"readStateVariableLocalVariable()": "2463",
				"returnLocalVariable()": "373",
				"writeStateVariable()": "22279",
				"writeStateVariableLocalVariable()": "22529"
			}
		},
		"methodIdentifiers": {
			"counter()": "61bc221a",
			"readAndWriteStateVariable()": "d4e74ec6",
			"readStateVariable()": "8cedeee0",
			"readStateVariableLocalVariable()": "10d2e18d",
			"returnLocalVariable()": "cd3c1ed4",
			"writeStateVariable()": "1e836361",
			"writeStateVariableLocalVariable()": "ed9a469f"
		}
	},
	"abi": [
		{
			"inputs": [],
			"name": "counter",
			"outputs": [
				{
					"internalType": "int256",
					"name": "",
					"type": "int256"
				}
			],
			"stateMutability": "view",
			"type": "function"
		},
		{
			"inputs": [],
			"name": "readAndWriteStateVariable",
			"outputs": [
				{
					"internalType": "int256",
					"name": "",
					"type": "int256"
				}
			],
			"stateMutability": "nonpayable",
			"type": "function"
		},
		{
			"inputs": [],
			"name": "readStateVariable",
			"outputs": [
				{
					"internalType": "int256",
					"name": "",
					"type": "int256"
				}
			],
			"stateMutability": "nonpayable",
			"type": "function"
		},
		{
			"inputs": [],
			"name": "readStateVariableLocalVariable",
			"outputs": [
				{
					"internalType": "bool",
					"name": "",
					"type": "bool"
				}
			],
			"stateMutability": "view",
			"type": "function"
		},
		{
			"inputs": [],
			"name": "returnLocalVariable",
			"outputs": [
				{
					"internalType": "bool",
					"name": "",
					"type": "bool"
				}
			],
			"stateMutability": "pure",
			"type": "function"
		},
		{
			"inputs": [],
			"name": "writeStateVariable",
			"outputs": [],
			"stateMutability": "nonpayable",
			"type": "function"
		},
		{
			"inputs": [],
			"name": "writeStateVariableLocalVariable",
			"outputs": [
				{
					"internalType": "bool",
					"name": "",
					"type": "bool"
				}
			],
			"stateMutability": "nonpayable",
			"type": "function"
		}
	]
}