{
	"data": {
		"bytecode": {
			"linkReferences": {},
			"object": "608060405234801561000f575f80fd5b506105b38061001d5f395ff3fe608060405234801561000f575f80fd5b5060043610610055575f3560e01c80633a7d22bc14610059578063988133fa146100895780639a5009ac146100a5578063d504ea1d146100d5578063dcabbd00146100f3575b5f80fd5b610073600480360381019061006e9190610312565b61010f565b604051610080919061034c565b60405180910390f35b6100a3600480360381019061009e9190610365565b61016f565b005b6100bf60048036038101906100ba9190610312565b6101cf565b6040516100cc919061034c565b60405180910390f35b6100dd6101e7565b6040516100ea9190610448565b60405180910390f35b61010d60048036038101906101089190610461565b610231565b005b5f60058210610153576040517f08c379a000000000000000000000000000000000000000000000000000000000815260040161014a90610532565b60405180910390fd5b5f826005811061016657610165610550565b5b01549050919050565b600582106101b2576040517f08c379a00000000000000000000000000000000000000000000000000000000081526004016101a990610532565b60405180910390fd5b805f83600581106101c6576101c5610550565b5b01819055505050565b5f81600581106101dd575f80fd5b015f915090505481565b6101ef6102b9565b5f600580602002604051908101604052809291908260058015610227576020028201915b815481526020019060010190808311610213575b5050505050905090565b845f806005811061024557610244610550565b5b0181905550835f60016005811061025f5761025e610550565b5b0181905550825f60026005811061027957610278610550565b5b0181905550815f60036005811061029357610292610550565b5b0181905550805f6004600581106102ad576102ac610550565b5b01819055505050505050565b6040518060a00160405280600590602082028036833780820191505090505090565b5f80fd5b5f819050919050565b6102f1816102df565b81146102fb575f80fd5b50565b5f8135905061030c816102e8565b92915050565b5f60208284031215610327576103266102db565b5b5f610334848285016102fe565b91505092915050565b610346816102df565b82525050565b5f60208201905061035f5f83018461033d565b92915050565b5f806040838503121561037b5761037a6102db565b5b5f610388858286016102fe565b9250506020610399858286016102fe565b9150509250929050565b5f60059050919050565b5f81905092915050565b5f819050919050565b6103c9816102df565b82525050565b5f6103da83836103c0565b60208301905092915050565b5f602082019050919050565b6103fb816103a3565b61040581846103ad565b9250610410826103b7565b805f5b8381101561044057815161042787826103cf565b9650610432836103e6565b925050600181019050610413565b505050505050565b5f60a08201905061045b5f8301846103f2565b92915050565b5f805f805f60a0868803121561047a576104796102db565b5b5f610487888289016102fe565b9550506020610498888289016102fe565b94505060406104a9888289016102fe565b93505060606104ba888289016102fe565b92505060806104cb888289016102fe565b9150509295509295909350565b5f82825260208201905092915050565b7f496e646578206f7574206f6620626f756e6473000000000000000000000000005f82015250565b5f61051c6013836104d8565b9150610527826104e8565b602082019050919050565b5f6020820190508181035f83015261054981610510565b9050919050565b7f4e487b71000000000000000000000000000000000000000000000000000000005f52603260045260245ffdfea26469706673582212209147c8c17293137dd67b7e7228737cad73c2a885bbaff41ca0ed16ec1f33beda64736f6c63430008180033",
			"opcodes": "PUSH1 0x80 PUSH1 0x40 MSTORE CALLVALUE DUP1 ISZERO PUSH2 0xF JUMPI PUSH0 DUP1 REVERT JUMPDEST POP PUSH2 0x5B3 DUP1 PUSH2 0x1D PUSH0 CODECOPY PUSH0 RETURN INVALID PUSH1 0x80 PUSH1 0x40 MSTORE CALLVALUE DUP1 ISZERO PUSH2 0xF JUMPI PUSH0 DUP1 REVERT JUMPDEST POP PUSH1 0x4 CALLDATASIZE LT PUSH2 0x55 JUMPI PUSH0 CALLDATALOAD PUSH1 0xE0 SHR DUP1 PUSH4 0x3A7D22BC EQ PUSH2 0x59 JUMPI DUP1 PUSH4 0x988133FA EQ PUSH2 0x89 JUMPI DUP1 PUSH4 0x9A5009AC EQ PUSH2 0xA5 JUMPI DUP1 PUSH4 0xD504EA1D EQ PUSH2 0xD5 JUMPI DUP1 PUSH4 0xDCABBD00 EQ PUSH2 0xF3 JUMPI JUMPDEST PUSH0 DUP1 REVERT JUMPDEST PUSH2 0x73 PUSH1 0x4 DUP1 CALLDATASIZE SUB DUP2 ADD SWAP1 PUSH2 0x6E SWAP2 SWAP1 PUSH2 0x312 JUMP JUMPDEST PUSH2 0x10F JUMP JUMPDEST PUSH1 0x40 MLOAD PUSH2 0x80 SWAP2 SWAP1 PUSH2 0x34C JUMP JUMPDEST PUSH1 0x40 MLOAD DUP1 SWAP2 SUB SWAP1 RETURN JUMPDEST PUSH2 0xA3 PUSH1 0x4 DUP1 CALLDATASIZE SUB DUP2 ADD SWAP1 PUSH2 0x9E SWAP2 SWAP1 PUSH2 0x365 JUMP JUMPDEST PUSH2 0x16F JUMP JUMPDEST STOP JUMPDEST PUSH2 0xBF PUSH1 0x4 DUP1 CALLDATASIZE SUB DUP2 ADD SWAP1 PUSH2 0xBA SWAP2 SWAP1 PUSH2 0x312 JUMP JUMPDEST PUSH2 0x1CF JUMP JUMPDEST PUSH1 0x40 MLOAD PUSH2 0xCC SWAP2 SWAP1 PUSH2 0x34C JUMP JUMPDEST PUSH1 0x40 MLOAD DUP1 SWAP2 SUB SWAP1 RETURN JUMPDEST PUSH2 0xDD PUSH2 0x1E7 JUMP JUMPDEST PUSH1 0x40 MLOAD PUSH2 0xEA SWAP2 SWAP1 PUSH2 0x448 JUMP JUMPDEST PUSH1 0x40 MLOAD DUP1 SWAP2 SUB SWAP1 RETURN JUMPDEST PUSH2 0x10D PUSH1 0x4 DUP1 CALLDATASIZE SUB DUP2 ADD SWAP1 PUSH2 0x108 SWAP2 SWAP1 PUSH2 0x461 JUMP JUMPDEST PUSH2 0x231 JUMP JUMPDEST STOP JUMPDEST PUSH0 PUSH1 0x5 DUP3 LT PUSH2 0x153 JUMPI PUSH1 0x40 MLOAD PUSH32 0x8C379A000000000000000000000000000000000000000000000000000000000 DUP2 MSTORE PUSH1 0x4 ADD PUSH2 0x14A SWAP1 PUSH2 0x532 JUMP JUMPDEST PUSH1 0x40 MLOAD DUP1 SWAP2 SUB SWAP1 REVERT JUMPDEST PUSH0 DUP3 PUSH1 0x5 DUP2 LT PUSH2 0x166 JUMPI PUSH2 0x165 PUSH2 0x550 JUMP JUMPDEST JUMPDEST ADD SLOAD SWAP1 POP SWAP2 SWAP1 POP JUMP JUMPDEST PUSH1 0x5 DUP3 LT PUSH2 0x1B2 JUMPI PUSH1 0x40 MLOAD PUSH32 0x8C379A000000000000000000000000000000000000000000000000000000000 DUP2 MSTORE PUSH1 0x4 ADD PUSH2 0x1A9 SWAP1 PUSH2 0x532 JUMP JUMPDEST PUSH1 0x40 MLOAD DUP1 SWAP2 SUB SWAP1 REVERT JUMPDEST DUP1 PUSH0 DUP4 PUSH1 0x5 DUP2 LT PUSH2 0x1C6 JUMPI PUSH2 0x1C5 PUSH2 0x550 JUMP JUMPDEST JUMPDEST ADD DUP2 SWAP1 SSTORE POP POP POP JUMP JUMPDEST PUSH0 DUP2 PUSH1 0x5 DUP2 LT PUSH2 0x1DD JUMPI PUSH0 DUP1 REVERT JUMPDEST ADD PUSH0 SWAP2 POP SWAP1 POP SLOAD DUP2 JUMP JUMPDEST PUSH2 0x1EF PUSH2 0x2B9 JUMP JUMPDEST PUSH0 PUSH1 0x5 DUP1 PUSH1 0x20 MUL PUSH1 0x40 MLOAD SWAP1 DUP2 ADD PUSH1 0x40 MSTORE DUP1 SWAP3 SWAP2 SWAP1 DUP3 PUSH1 0x5 DUP1 ISZERO PUSH2 0x227 JUMPI PUSH1 0x20 MUL DUP3 ADD SWAP2 JUMPDEST DUP2 SLOAD DUP2 MSTORE PUSH1 0x20 ADD SWAP1 PUSH1 0x1 ADD SWAP1 DUP1 DUP4 GT PUSH2 0x213 JUMPI JUMPDEST POP POP POP POP POP SWAP1 POP SWAP1 JUMP JUMPDEST DUP5 PUSH0 DUP1 PUSH1 0x5 DUP2 LT PUSH2 0x245 JUMPI PUSH2 0x244 PUSH2 0x550 JUMP JUMPDEST JUMPDEST ADD DUP2 SWAP1 SSTORE POP DUP4 PUSH0 PUSH1 0x1 PUSH1 0x5 DUP2 LT PUSH2 0x25F JUMPI PUSH2 0x25E PUSH2 0x550 JUMP JUMPDEST JUMPDEST ADD DUP2 SWAP1 SSTORE POP DUP3 PUSH0 PUSH1 0x2 PUSH1 0x5 DUP2 LT PUSH2 0x279 JUMPI PUSH2 0x278 PUSH2 0x550 JUMP JUMPDEST JUMPDEST ADD DUP2 SWAP1 SSTORE POP DUP2 PUSH0 PUSH1 0x3 PUSH1 0x5 DUP2 LT PUSH2 0x293 JUMPI PUSH2 0x292 PUSH2 0x550 JUMP JUMPDEST JUMPDEST ADD DUP2 SWAP1 SSTORE POP DUP1 PUSH0 PUSH1 0x4 PUSH1 0x5 DUP2 LT PUSH2 0x2AD JUMPI PUSH2 0x2AC PUSH2 0x550 JUMP JUMPDEST JUMPDEST ADD DUP2 SWAP1 SSTORE POP POP POP POP POP POP JUMP JUMPDEST PUSH1 0x40 MLOAD DUP1 PUSH1 0xA0 ADD PUSH1 0x40 MSTORE DUP1 PUSH1 0x5 SWAP1 PUSH1 0x20 DUP3 MUL DUP1 CALLDATASIZE DUP4 CALLDATACOPY DUP1 DUP3 ADD SWAP2 POP POP SWAP1 POP POP SWAP1 JUMP JUMPDEST PUSH0 DUP1 REVERT JUMPDEST PUSH0 DUP2 SWAP1 POP SWAP2 SWAP1 POP JUMP JUMPDEST PUSH2 0x2F1 DUP2 PUSH2 0x2DF JUMP JUMPDEST DUP2 EQ PUSH2 0x2FB JUMPI PUSH0 DUP1 REVERT JUMPDEST POP JUMP JUMPDEST PUSH0 DUP2 CALLDATALOAD SWAP1 POP PUSH2 0x30C DUP2 PUSH2 0x2E8 JUMP JUMPDEST SWAP3 SWAP2 POP POP JUMP JUMPDEST PUSH0 PUSH1 0x20 DUP3 DUP5 SUB SLT ISZERO PUSH2 0x327 JUMPI PUSH2 0x326 PUSH2 0x2DB JUMP JUMPDEST JUMPDEST PUSH0 PUSH2 0x334 DUP5 DUP3 DUP6 ADD PUSH2 0x2FE JUMP JUMPDEST SWAP2 POP POP SWAP3 SWAP2 POP POP JUMP JUMPDEST PUSH2 0x346 DUP2 PUSH2 0x2DF JUMP JUMPDEST DUP3 MSTORE POP POP JUMP JUMPDEST PUSH0 PUSH1 0x20 DUP3 ADD SWAP1 POP PUSH2 0x35F PUSH0 DUP4 ADD DUP5 PUSH2 0x33D JUMP JUMPDEST SWAP3 SWAP2 POP POP JUMP JUMPDEST PUSH0 DUP1 PUSH1 0x40 DUP4 DUP6 SUB SLT ISZERO PUSH2 0x37B JUMPI PUSH2 0x37A PUSH2 0x2DB JUMP JUMPDEST JUMPDEST PUSH0 PUSH2 0x388 DUP6 DUP3 DUP7 ADD PUSH2 0x2FE JUMP JUMPDEST SWAP3 POP POP PUSH1 0x20 PUSH2 0x399 DUP6 DUP3 DUP7 ADD PUSH2 0x2FE JUMP JUMPDEST SWAP2 POP POP SWAP3 POP SWAP3 SWAP1 POP JUMP JUMPDEST PUSH0 PUSH1 0x5 SWAP1 POP SWAP2 SWAP1 POP JUMP JUMPDEST PUSH0 DUP2 SWAP1 POP SWAP3 SWAP2 POP POP JUMP JUMPDEST PUSH0 DUP2 SWAP1 POP SWAP2 SWAP1 POP JUMP JUMPDEST PUSH2 0x3C9 DUP2 PUSH2 0x2DF JUMP JUMPDEST DUP3 MSTORE POP POP JUMP JUMPDEST PUSH0 PUSH2 0x3DA DUP4 DUP4 PUSH2 0x3C0 JUMP JUMPDEST PUSH1 0x20 DUP4 ADD SWAP1 POP SWAP3 SWAP2 POP POP JUMP JUMPDEST PUSH0 PUSH1 0x20 DUP3 ADD SWAP1 POP SWAP2 SWAP1 POP JUMP JUMPDEST PUSH2 0x3FB DUP2 PUSH2 0x3A3 JUMP JUMPDEST PUSH2 0x405 DUP2 DUP5 PUSH2 0x3AD JUMP JUMPDEST SWAP3 POP PUSH2 0x410 DUP3 PUSH2 0x3B7 JUMP JUMPDEST DUP1 PUSH0 JUMPDEST DUP4 DUP2 LT ISZERO PUSH2 0x440 JUMPI DUP2 MLOAD PUSH2 0x427 DUP8 DUP3 PUSH2 0x3CF JUMP JUMPDEST SWAP7 POP PUSH2 0x432 DUP4 PUSH2 0x3E6 JUMP JUMPDEST SWAP3 POP POP PUSH1 0x1 DUP2 ADD SWAP1 POP PUSH2 0x413 JUMP JUMPDEST POP POP POP POP POP POP JUMP JUMPDEST PUSH0 PUSH1 0xA0 DUP3 ADD SWAP1 POP PUSH2 0x45B PUSH0 DUP4 ADD DUP5 PUSH2 0x3F2 JUMP JUMPDEST SWAP3 SWAP2 POP POP JUMP JUMPDEST PUSH0 DUP1 PUSH0 DUP1 PUSH0 PUSH1 0xA0 DUP7 DUP9 SUB SLT ISZERO PUSH2 0x47A JUMPI PUSH2 0x479 PUSH2 0x2DB JUMP JUMPDEST JUMPDEST PUSH0 PUSH2 0x487 DUP9 DUP3 DUP10 ADD PUSH2 0x2FE JUMP JUMPDEST SWAP6 POP POP PUSH1 0x20 PUSH2 0x498 DUP9 DUP3 DUP10 ADD PUSH2 0x2FE JUMP JUMPDEST SWAP5 POP POP PUSH1 0x40 PUSH2 0x4A9 DUP9 DUP3 DUP10 ADD PUSH2 0x2FE JUMP JUMPDEST SWAP4 POP POP PUSH1 0x60 PUSH2 0x4BA DUP9 DUP3 DUP10 ADD PUSH2 0x2FE JUMP JUMPDEST SWAP3 POP POP PUSH1 0x80 PUSH2 0x4CB DUP9 DUP3 DUP10 ADD PUSH2 0x2FE JUMP JUMPDEST SWAP2 POP POP SWAP3 SWAP6 POP SWAP3 SWAP6 SWAP1 SWAP4 POP JUMP JUMPDEST PUSH0 DUP3 DUP3 MSTORE PUSH1 0x20 DUP3 ADD SWAP1 POP SWAP3 SWAP2 POP POP JUMP JUMPDEST PUSH32 0x496E646578206F7574206F6620626F756E647300000000000000000000000000 PUSH0 DUP3 ADD MSTORE POP JUMP JUMPDEST PUSH0 PUSH2 0x51C PUSH1 0x13 DUP4 PUSH2 0x4D8 JUMP JUMPDEST SWAP2 POP PUSH2 0x527 DUP3 PUSH2 0x4E8 JUMP JUMPDEST PUSH1 0x20 DUP3 ADD SWAP1 POP SWAP2 SWAP1 POP JUMP JUMPDEST PUSH0 PUSH1 0x20 DUP3 ADD SWAP1 POP DUP2 DUP2 SUB PUSH0 DUP4 ADD MSTORE PUSH2 0x549 DUP2 PUSH2 0x510 JUMP JUMPDEST SWAP1 POP SWAP2 SWAP1 POP JUMP JUMPDEST PUSH32 0x4E487B7100000000000000000000000000000000000000000000000000000000 PUSH0 MSTORE PUSH1 0x32 PUSH1 0x4 MSTORE PUSH1 0x24 PUSH0 REVERT INVALID LOG2 PUSH5 0x6970667358 0x22 SLT KECCAK256 SWAP2 SELFBALANCE 0xC8 0xC1 PUSH19 0x93137DD67B7E7228737CAD73C2A885BBAFF41C LOG0 0xED AND 0xEC 0x1F CALLER 0xBE 0xDA PUSH5 0x736F6C6343 STOP ADDMOD XOR STOP CALLER "
		},
		"gasEstimates": {
			"creation": {
				"codeDepositCost": "291800",
				"executionCost": "329",
				"totalCost": "292129"
			},
			"external": {
				"fixedArray(uint256)": "infinite",
				"getArray()": "infinite",
				"getElement(uint256)": "infinite",
				"setArray(uint256,uint256,uint256,uint256,uint256)": "infinite",
				"updateElement(uint256,uint256)": "infinite"
			}
		},
		"methodIdentifiers": {
			"fixedArray(uint256)": "9a5009ac",
			"getArray()": "d504ea1d",
			"getElement(uint256)": "3a7d22bc",
			"setArray(uint256,uint256,uint256,uint256,uint256)": "dcabbd00",
			"updateElement(uint256,uint256)": "988133fa"
		}
	},
	"abi": [
		{
			"inputs": [
				{
					"internalType": "uint256",
					"name": "",
					"type": "uint256"
				}
			],
			"name": "fixedArray",
			"outputs": [
				{
					"internalType": "uint256",
					"name": "",
					"type": "uint256"
				}
			],
			"stateMutability": "view",
			"type": "function"
		},
		{
			"inputs": [],
			"name": "getArray",
			"outputs": [
				{
					"internalType": "uint256[5]",
					"name": "",
					"type": "uint256[5]"
				}
			],
			"stateMutability": "view",
			"type": "function"
		},
		{
			"inputs": [
				{
					"internalType": "uint256",
					"name": "index",
					"type": "uint256"
				}
			],
			"name": "getElement",
			"outputs": [
				{
					"internalType": "uint256",
					"name": "",
					"type": "uint256"
				}
			],
			"stateMutability": "view",
			"type": "function"
		},
		{
			"inputs": [
				{
					"internalType": "uint256",
					"name": "_array1",
					"type": "uint256"
				},
				{
					"internalType": "uint256",
					"name": "_array2",
					"type": "uint256"
				},
				{
					"internalType": "uint256",
					"name": "_array3",
					"type": "uint256"
				},
				{
					"internalType": "uint256",
					"name": "_array4",
					"type": "uint256"
				},
				{
					"internalType": "uint256",
					"name": "_array5",
					"type": "uint256"
				}
			],
			"name": "setArray",
			"outputs": [],
			"stateMutability": "nonpayable",
			"type": "function"
		},
		{
			"inputs": [
				{
					"internalType": "uint256",
					"name": "index",
					"type": "uint256"
				},
				{
					"internalType": "uint256",
					"name": "value",
					"type": "uint256"
				}
			],
			"name": "updateElement",
			"outputs": [],
			"stateMutability": "nonpayable",
			"type": "function"
		}
	]
}