{
	"data": {
		"bytecode": {
			"linkReferences": {},
			"object": "6080604052348015600e575f5ffd5b50612a4d8061001c5f395ff3fe608060405234801561000f575f5ffd5b5060043610610171575f3560e01c80638270c706116100dc578063afb61cda11610095578063d99cc90b1161006f578063d99cc90b146104d4578063db88176f14610504578063dc296ae11461053a578063f396d6741461056a57610171565b8063afb61cda14610468578063c5bb344914610486578063c6e36a32146104a457610171565b80638270c706146103485780638aee5f20146103785780639285eb88146103a85780639474cf16146103d8578063a52c865814610408578063a7771ee31461043857610171565b806331b1b9781161012e57806331b1b978146102475780633781c2d81461027e5780633fe460431461029a578063406acf81146102b857806343859632146102e8578063772744b51461031857610171565b806301ddf070146101755780630300544714610191578063032e373f146101ad5780631468aa2c146101dd57806316f3d5a5146101fb57806320854a581461022b575b5f5ffd5b61018f600480360381019061018a9190611b2e565b610588565b005b6101ab60048036038101906101a69190611c00565b6107b6565b005b6101c760048036038101906101c29190611cde565b610aa5565b6040516101d49190611d36565b60405180910390f35b6101e5610b07565b6040516101f29190611d5e565b60405180910390f35b61021560048036038101906102109190611d77565b610b0c565b6040516102229190611e59565b60405180910390f35b61024560048036038101906102409190611ece565b610b9f565b005b610261600480360381019061025c9190611b2e565b611014565b604051610275989796959493929190612063565b60405180910390f35b610298600480360381019061029391906120e6565b611121565b005b6102a261153b565b6040516102af9190611d5e565b60405180910390f35b6102d260048036038101906102cd91906120e6565b611541565b6040516102df9190611d5e565b60405180910390f35b61030260048036038101906102fd9190611cde565b61156c565b60405161030f9190611d36565b60405180910390f35b610332600480360381019061032d9190611b2e565b611596565b60405161033f9190611d36565b60405180910390f35b610362600480360381019061035d9190612124565b6115b5565b60405161036f9190611d5e565b60405180910390f35b610392600480360381019061038d9190612124565b6115e0565b60405161039f9190611d5e565b60405180910390f35b6103c260048036038101906103bd9190612162565b61160b565b6040516103cf9190611e59565b60405180910390f35b6103f260048036038101906103ed9190612162565b611687565b6040516103ff9190611e59565b60405180910390f35b610422600480360381019061041d9190611cde565b611703565b60405161042f9190611d36565b60405180910390f35b610452600480360381019061044d9190611d77565b61172d565b60405161045f9190611d36565b60405180910390f35b61047061174a565b60405161047d9190611e59565b60405180910390f35b61048e6117ee565b60405161049b9190611d5e565b60405180910390f35b6104be60048036038101906104b991906120e6565b611870565b6040516104cb9190611d5e565b60405180910390f35b6104ee60048036038101906104e99190611d77565b611890565b6040516104fb9190611e59565b60405180910390f35b61051e60048036038101906105199190611b2e565b611923565b604051610531979695949392919061218d565b60405180910390f35b610554600480360381019061054f9190611cde565b611a8b565b6040516105619190611d36565b60405180910390f35b610572611aed565b60405161057f9190611d5e565b60405180910390f35b5f60035f8381526020019081526020015f209050806005015f9054906101000a900460ff166105ec576040517f08c379a00000000000000000000000000000000000000000000000000000000081526004016105e39061224b565b60405180910390fd5b60065f8381526020019081526020015f205f3373ffffffffffffffffffffffffffffffffffffffff1673ffffffffffffffffffffffffffffffffffffffff1681526020019081526020015f205f9054906101000a900460ff1615610685576040517f08c379a000000000000000000000000000000000000000000000000000000000815260040161067c906122b3565b60405180910390fd5b600160065f8481526020019081526020015f205f3373ffffffffffffffffffffffffffffffffffffffff1673ffffffffffffffffffffffffffffffffffffffff1681526020019081526020015f205f6101000a81548160ff021916908315150217905550806002015f8154809291906106fd906122fe565b919050555060095f3373ffffffffffffffffffffffffffffffffffffffff1673ffffffffffffffffffffffffffffffffffffffff1681526020019081526020015f2082908060018154018082558091505060019003905f5260205f20015f90919091909150553373ffffffffffffffffffffffffffffffffffffffff16827f7e4df0c1564681e2420161629240d0cd874949908eb21433d82a37d1484476a2426040516107aa9190611d5e565b60405180910390a35050565b4283116107f8576040517f08c379a00000000000000000000000000000000000000000000000000000000081526004016107ef9061238f565b60405180910390fd5b5f5f815480929190610809906122fe565b91905055505f5f5490506040518061010001604052803373ffffffffffffffffffffffffffffffffffffffff16815260200187600281111561084e5761084d611f3a565b5b815260200186600981111561086657610865611f3a565b5b81526020018581526020015f815260200142815260200184848080601f0160208091040260200160405190810160405280939291908181526020018383808284375f81840152601f19601f8201169050808301925050505050505081526020016001151581525060035f8381526020019081526020015f205f820151815f015f6101000a81548173ffffffffffffffffffffffffffffffffffffffff021916908373ffffffffffffffffffffffffffffffffffffffff1602179055506020820151815f0160146101000a81548160ff0219169083600281111561094c5761094b611f3a565b5b02179055506040820151815f0160156101000a81548160ff0219169083600981111561097b5761097a611f3a565b5b0217905550606082015181600101556080820151816002015560a0820151816003015560c08201518160040190816109b391906125d7565b5060e0820151816005015f6101000a81548160ff021916908315150217905550905050600a5f8660098111156109ec576109eb611f3a565b5b60ff1681526020019081526020015f2081908060018154018082558091505060019003905f5260205f20015f90919091909150553373ffffffffffffffffffffffffffffffffffffffff16817fb33e02ac6178cd2232f1858084e4966b3ab195dde836b75155523d7630225f29886002811115610a6c57610a6b611f3a565b5b886009811115610a7f57610a7e611f3a565b5b88428989604051610a95969594939291906126fb565b60405180910390a3505050505050565b5f60065f8481526020019081526020015f205f8373ffffffffffffffffffffffffffffffffffffffff1673ffffffffffffffffffffffffffffffffffffffff1681526020019081526020015f205f9054906101000a900460ff16905092915050565b5f5481565b606060085f8373ffffffffffffffffffffffffffffffffffffffff1673ffffffffffffffffffffffffffffffffffffffff1681526020019081526020015f20805480602002602001604051908101604052809291908181526020018280548015610b9357602002820191905f5260205f20905b815481526020019060010190808311610b7f575b50505050509050919050565b5f60035f8581526020019081526020015f209050806005015f9054906101000a900460ff16610c03576040517f08c379a0000000000000000000000000000000000000000000000000000000008152600401610bfa9061224b565b60405180910390fd5b80600101544210610c49576040517f08c379a0000000000000000000000000000000000000000000000000000000008152600401610c409061279f565b60405180910390fd5b60055f8581526020019081526020015f205f3373ffffffffffffffffffffffffffffffffffffffff1673ffffffffffffffffffffffffffffffffffffffff1681526020019081526020015f205f9054906101000a900460ff1615610ce2576040517f08c379a0000000000000000000000000000000000000000000000000000000008152600401610cd990612807565b60405180910390fd5b600280811115610cf557610cf4611f3a565b5b815f0160149054906101000a900460ff166002811115610d1857610d17611f3a565b5b14610d58576040517f08c379a0000000000000000000000000000000000000000000000000000000008152600401610d4f9061286f565b60405180910390fd5b5f8383905011610d9d576040517f08c379a0000000000000000000000000000000000000000000000000000000008152600401610d94906128d7565b60405180910390fd5b600160055f8681526020019081526020015f205f3373ffffffffffffffffffffffffffffffffffffffff1673ffffffffffffffffffffffffffffffffffffffff1681526020019081526020015f205f6101000a81548160ff0219169083151502179055508282905060015f828254610e1591906128f5565b9250508190555060075f3373ffffffffffffffffffffffffffffffffffffffff1673ffffffffffffffffffffffffffffffffffffffff1681526020019081526020015f205f9054906101000a900460ff16610ed757600160075f3373ffffffffffffffffffffffffffffffffffffffff1673ffffffffffffffffffffffffffffffffffffffff1681526020019081526020015f205f6101000a81548160ff02191690831515021790555060025f815480929190610ed1906122fe565b91905055505b60085f3373ffffffffffffffffffffffffffffffffffffffff1673ffffffffffffffffffffffffffffffffffffffff1681526020019081526020015f2084908060018154018082558091505060019003905f5260205f20015f90919091909150555f5f90505b8383905081101561100d5760045f8681526020019081526020015f205f858584818110610f6d57610f6c612928565b5b9050602002013581526020019081526020015f205f815480929190610f91906122fe565b91905055503373ffffffffffffffffffffffffffffffffffffffff16857f0271f53eebbe20450d9578f28ec279231556c34545b30e2278d754ffd39cd63c868685818110610fe257610fe1612928565b5b9050602002013542604051610ff8929190612955565b60405180910390a38080600101915050610f3d565b5050505050565b6003602052805f5260405f205f91509050805f015f9054906101000a900473ffffffffffffffffffffffffffffffffffffffff1690805f0160149054906101000a900460ff1690805f0160159054906101000a900460ff169080600101549080600201549080600301549080600401805461108e90612407565b80601f01602080910402602001604051908101604052809291908181526020018280546110ba90612407565b80156111055780601f106110dc57610100808354040283529160200191611105565b820191905f5260205f20905b8154815290600101906020018083116110e857829003601f168201915b505050505090806005015f9054906101000a900460ff16905088565b5f60035f8481526020019081526020015f209050806005015f9054906101000a900460ff16611185576040517f08c379a000000000000000000000000000000000000000000000000000000000815260040161117c9061224b565b60405180910390fd5b806001015442106111cb576040517f08c379a00000000000000000000000000000000000000000000000000000000081526004016111c29061279f565b60405180910390fd5b60055f8481526020019081526020015f205f3373ffffffffffffffffffffffffffffffffffffffff1673ffffffffffffffffffffffffffffffffffffffff1681526020019081526020015f205f9054906101000a900460ff1615611264576040517f08c379a000000000000000000000000000000000000000000000000000000000815260040161125b90612807565b60405180910390fd5b5f600281111561127757611276611f3a565b5b815f0160149054906101000a900460ff16600281111561129a57611299611f3a565b5b14806112da5750600160028111156112b5576112b4611f3a565b5b815f0160149054906101000a900460ff1660028111156112d8576112d7611f3a565b5b145b611319576040517f08c379a0000000000000000000000000000000000000000000000000000000008152600401611310906129c6565b60405180910390fd5b600160055f8581526020019081526020015f205f3373ffffffffffffffffffffffffffffffffffffffff1673ffffffffffffffffffffffffffffffffffffffff1681526020019081526020015f205f6101000a81548160ff02191690831515021790555060045f8481526020019081526020015f205f8381526020019081526020015f205f8154809291906113ad906122fe565b919050555060015f8154809291906113c4906122fe565b919050555060075f3373ffffffffffffffffffffffffffffffffffffffff1673ffffffffffffffffffffffffffffffffffffffff1681526020019081526020015f205f9054906101000a900460ff1661148457600160075f3373ffffffffffffffffffffffffffffffffffffffff1673ffffffffffffffffffffffffffffffffffffffff1681526020019081526020015f205f6101000a81548160ff02191690831515021790555060025f81548092919061147e906122fe565b91905055505b60085f3373ffffffffffffffffffffffffffffffffffffffff1673ffffffffffffffffffffffffffffffffffffffff1681526020019081526020015f2083908060018154018082558091505060019003905f5260205f20015f90919091909150553373ffffffffffffffffffffffffffffffffffffffff16837f0271f53eebbe20450d9578f28ec279231556c34545b30e2278d754ffd39cd63c844260405161152e929190612955565b60405180910390a3505050565b60025481565b600a602052815f5260405f20818154811061155a575f80fd5b905f5260205f20015f91509150505481565b6005602052815f5260405f20602052805f5260405f205f915091509054906101000a900460ff1681565b5f60035f8381526020019081526020015f206001015442109050919050565b6009602052815f5260405f2081815481106115ce575f80fd5b905f5260205f20015f91509150505481565b6008602052815f5260405f2081815481106115f9575f80fd5b905f5260205f20015f91509150505481565b6060600a5f83600981111561162357611622611f3a565b5b60ff1681526020019081526020015f2080548060200260200160405190810160405280929190818152602001828054801561167b57602002820191905f5260205f20905b815481526020019060010190808311611667575b50505050509050919050565b6060600a5f83600981111561169f5761169e611f3a565b5b60ff1681526020019081526020015f208054806020026020016040519081016040528092919081815260200182805480156116f757602002820191905f5260205f20905b8154815260200190600101908083116116e3575b50505050509050919050565b6006602052815f5260405f20602052805f5260405f205f915091509054906101000a900460ff1681565b6007602052805f5260405f205f915054906101000a900460ff1681565b60605f5f5467ffffffffffffffff811115611768576117676123ad565b5b6040519080825280602002602001820160405280156117965781602001602082028036833780820191505090505b5090505f600190505b5f5481116117e65780826001836117b691906129e4565b815181106117c7576117c6612928565b5b60200260200101818152505080806117de906122fe565b91505061179f565b508091505090565b5f5f5f90505f600190505b5f5481116118685760035f8281526020019081526020015f206005015f9054906101000a900460ff168015611841575060035f8281526020019081526020015f206001015442105b15611855578180611851906122fe565b9250505b8080611860906122fe565b9150506117f9565b508091505090565b6004602052815f5260405f20602052805f5260405f205f91509150505481565b606060095f8373ffffffffffffffffffffffffffffffffffffffff1673ffffffffffffffffffffffffffffffffffffffff1681526020019081526020015f2080548060200260200160405190810160405280929190818152602001828054801561191757602002820191905f5260205f20905b815481526020019060010190808311611903575b50505050509050919050565b5f5f5f5f5f5f60605f60035f8a81526020019081526020015f209050806005015f9054906101000a900460ff1661198f576040517f08c379a00000000000000000000000000000000000000000000000000000000081526004016119869061224b565b60405180910390fd5b805f015f9054906101000a900473ffffffffffffffffffffffffffffffffffffffff16815f0160149054906101000a900460ff16825f0160159054906101000a900460ff16836001015484600201548560030154866004018080546119f390612407565b80601f0160208091040260200160405190810160405280929190818152602001828054611a1f90612407565b8015611a6a5780601f10611a4157610100808354040283529160200191611a6a565b820191905f5260205f20905b815481529060010190602001808311611a4d57829003601f168201915b50505050509050975097509750975097509750975050919395979092949650565b5f60055f8481526020019081526020015f205f8373ffffffffffffffffffffffffffffffffffffffff1673ffffffffffffffffffffffffffffffffffffffff1681526020019081526020015f205f9054906101000a900460ff16905092915050565b60015481565b5f5ffd5b5f5ffd5b5f819050919050565b611b0d81611afb565b8114611b17575f5ffd5b50565b5f81359050611b2881611b04565b92915050565b5f60208284031215611b4357611b42611af3565b5b5f611b5084828501611b1a565b91505092915050565b60038110611b65575f5ffd5b50565b5f81359050611b7681611b59565b92915050565b600a8110611b88575f5ffd5b50565b5f81359050611b9981611b7c565b92915050565b5f5ffd5b5f5ffd5b5f5ffd5b5f5f83601f840112611bc057611bbf611b9f565b5b8235905067ffffffffffffffff811115611bdd57611bdc611ba3565b5b602083019150836001820283011115611bf957611bf8611ba7565b5b9250929050565b5f5f5f5f5f60808688031215611c1957611c18611af3565b5b5f611c2688828901611b68565b9550506020611c3788828901611b8b565b9450506040611c4888828901611b1a565b935050606086013567ffffffffffffffff811115611c6957611c68611af7565b5b611c7588828901611bab565b92509250509295509295909350565b5f73ffffffffffffffffffffffffffffffffffffffff82169050919050565b5f611cad82611c84565b9050919050565b611cbd81611ca3565b8114611cc7575f5ffd5b50565b5f81359050611cd881611cb4565b92915050565b5f5f60408385031215611cf457611cf3611af3565b5b5f611d0185828601611b1a565b9250506020611d1285828601611cca565b9150509250929050565b5f8115159050919050565b611d3081611d1c565b82525050565b5f602082019050611d495f830184611d27565b92915050565b611d5881611afb565b82525050565b5f602082019050611d715f830184611d4f565b92915050565b5f60208284031215611d8c57611d8b611af3565b5b5f611d9984828501611cca565b91505092915050565b5f81519050919050565b5f82825260208201905092915050565b5f819050602082019050919050565b611dd481611afb565b82525050565b5f611de58383611dcb565b60208301905092915050565b5f602082019050919050565b5f611e0782611da2565b611e118185611dac565b9350611e1c83611dbc565b805f5b83811015611e4c578151611e338882611dda565b9750611e3e83611df1565b925050600181019050611e1f565b5085935050505092915050565b5f6020820190508181035f830152611e718184611dfd565b905092915050565b5f5f83601f840112611e8e57611e8d611b9f565b5b8235905067ffffffffffffffff811115611eab57611eaa611ba3565b5b602083019150836020820283011115611ec757611ec6611ba7565b5b9250929050565b5f5f5f60408486031215611ee557611ee4611af3565b5b5f611ef286828701611b1a565b935050602084013567ffffffffffffffff811115611f1357611f12611af7565b5b611f1f86828701611e79565b92509250509250925092565b611f3481611ca3565b82525050565b7f4e487b71000000000000000000000000000000000000000000000000000000005f52602160045260245ffd5b60038110611f7857611f77611f3a565b5b50565b5f819050611f8882611f67565b919050565b5f611f9782611f7b565b9050919050565b611fa781611f8d565b82525050565b600a8110611fbe57611fbd611f3a565b5b50565b5f819050611fce82611fad565b919050565b5f611fdd82611fc1565b9050919050565b611fed81611fd3565b82525050565b5f81519050919050565b5f82825260208201905092915050565b8281835e5f83830152505050565b5f601f19601f8301169050919050565b5f61203582611ff3565b61203f8185611ffd565b935061204f81856020860161200d565b6120588161201b565b840191505092915050565b5f610100820190506120775f83018b611f2b565b612084602083018a611f9e565b6120916040830189611fe4565b61209e6060830188611d4f565b6120ab6080830187611d4f565b6120b860a0830186611d4f565b81810360c08301526120ca818561202b565b90506120d960e0830184611d27565b9998505050505050505050565b5f5f604083850312156120fc576120fb611af3565b5b5f61210985828601611b1a565b925050602061211a85828601611b1a565b9150509250929050565b5f5f6040838503121561213a57612139611af3565b5b5f61214785828601611cca565b925050602061215885828601611b1a565b9150509250929050565b5f6020828403121561217757612176611af3565b5b5f61218484828501611b8b565b91505092915050565b5f60e0820190506121a05f83018a611f2b565b6121ad6020830189611f9e565b6121ba6040830188611fe4565b6121c76060830187611d4f565b6121d46080830186611d4f565b6121e160a0830185611d4f565b81810360c08301526121f3818461202b565b905098975050505050505050565b7f5175657374696f6e206e6f7420666f756e6400000000000000000000000000005f82015250565b5f612235601283611ffd565b915061224082612201565b602082019050919050565b5f6020820190508181035f83015261226281612229565b9050919050565b7f416c7265616479207570766f74656400000000000000000000000000000000005f82015250565b5f61229d600f83611ffd565b91506122a882612269565b602082019050919050565b5f6020820190508181035f8301526122ca81612291565b9050919050565b7f4e487b71000000000000000000000000000000000000000000000000000000005f52601160045260245ffd5b5f61230882611afb565b91507fffffffffffffffffffffffffffffffffffffffffffffffffffffffffffffffff820361233a576123396122d1565b5b600182019050919050565b7f496e76616c696420646561646c696e65000000000000000000000000000000005f82015250565b5f612379601083611ffd565b915061238482612345565b602082019050919050565b5f6020820190508181035f8301526123a68161236d565b9050919050565b7f4e487b71000000000000000000000000000000000000000000000000000000005f52604160045260245ffd5b7f4e487b71000000000000000000000000000000000000000000000000000000005f52602260045260245ffd5b5f600282049050600182168061241e57607f821691505b602082108103612431576124306123da565b5b50919050565b5f819050815f5260205f209050919050565b5f6020601f8301049050919050565b5f82821b905092915050565b5f600883026124937fffffffffffffffffffffffffffffffffffffffffffffffffffffffffffffffff82612458565b61249d8683612458565b95508019841693508086168417925050509392505050565b5f819050919050565b5f6124d86124d36124ce84611afb565b6124b5565b611afb565b9050919050565b5f819050919050565b6124f1836124be565b6125056124fd826124df565b848454612464565b825550505050565b5f5f905090565b61251c61250d565b6125278184846124e8565b505050565b5b8181101561254a5761253f5f82612514565b60018101905061252d565b5050565b601f82111561258f5761256081612437565b61256984612449565b81016020851015612578578190505b61258c61258485612449565b83018261252c565b50505b505050565b5f82821c905092915050565b5f6125af5f1984600802612594565b1980831691505092915050565b5f6125c783836125a0565b9150826002028217905092915050565b6125e082611ff3565b67ffffffffffffffff8111156125f9576125f86123ad565b5b6126038254612407565b61260e82828561254e565b5f60209050601f83116001811461263f575f841561262d578287015190505b61263785826125bc565b86555061269e565b601f19841661264d86612437565b5f5b828110156126745784890151825560018201915060208501945060208101905061264f565b86831015612691578489015161268d601f8916826125a0565b8355505b6001600288020188555050505b505050505050565b5f60ff82169050919050565b6126bb816126a6565b82525050565b828183375f83830152505050565b5f6126da8385611ffd565b93506126e78385846126c1565b6126f08361201b565b840190509392505050565b5f60a08201905061270e5f8301896126b2565b61271b60208301886126b2565b6127286040830187611d4f565b6127356060830186611d4f565b81810360808301526127488184866126cf565b9050979650505050505050565b7f566f74696e6720656e64656400000000000000000000000000000000000000005f82015250565b5f612789600c83611ffd565b915061279482612755565b602082019050919050565b5f6020820190508181035f8301526127b68161277d565b9050919050565b7f416c726561647920766f746564000000000000000000000000000000000000005f82015250565b5f6127f1600d83611ffd565b91506127fc826127bd565b602082019050919050565b5f6020820190508181035f83015261281e816127e5565b9050919050565b7f4e6f74206d756c7469706c652063686f696365000000000000000000000000005f82015250565b5f612859601383611ffd565b915061286482612825565b602082019050919050565b5f6020820190508181035f8301526128868161284d565b9050919050565b7f4e6f206f7074696f6e732073656c6563746564000000000000000000000000005f82015250565b5f6128c1601383611ffd565b91506128cc8261288d565b602082019050919050565b5f6020820190508181035f8301526128ee816128b5565b9050919050565b5f6128ff82611afb565b915061290a83611afb565b9250828201905080821115612922576129216122d1565b5b92915050565b7f4e487b71000000000000000000000000000000000000000000000000000000005f52603260045260245ffd5b5f6040820190506129685f830185611d4f565b6129756020830184611d4f565b9392505050565b7f496e76616c696420766f746520747970650000000000000000000000000000005f82015250565b5f6129b0601183611ffd565b91506129bb8261297c565b602082019050919050565b5f6020820190508181035f8301526129dd816129a4565b9050919050565b5f6129ee82611afb565b91506129f983611afb565b9250828203905081811115612a1157612a106122d1565b5b9291505056fea26469706673582212205368a20f3cff21ef42e5d43e58e1e60428953a4eccb08a245bf6265e00f7f61d64736f6c634300081f0033",
			"opcodes": "PUSH1 0x80 PUSH1 0x40 MSTORE CALLVALUE DUP1 ISZERO PUSH1 0xE JUMPI PUSH0 PUSH0 REVERT JUMPDEST POP PUSH2 0x2A4D DUP1 PUSH2 0x1C PUSH0 CODECOPY PUSH0 RETURN INVALID PUSH1 0x80 PUSH1 0x40 MSTORE CALLVALUE DUP1 ISZERO PUSH2 0xF JUMPI PUSH0 PUSH0 REVERT JUMPDEST POP PUSH1 0x4 CALLDATASIZE LT PUSH2 0x171 JUMPI PUSH0 CALLDATALOAD PUSH1 0xE0 SHR DUP1 PUSH4 0x8270C706 GT PUSH2 0xDC JUMPI DUP1 PUSH4 0xAFB61CDA GT PUSH2 0x95 JUMPI DUP1 PUSH4 0xD99CC90B GT PUSH2 0x6F JUMPI DUP1 PUSH4 0xD99CC90B EQ PUSH2 0x4D4 JUMPI DUP1 PUSH4 0xDB88176F EQ PUSH2 0x504 JUMPI DUP1 PUSH4 0xDC296AE1 EQ PUSH2 0x53A JUMPI DUP1 PUSH4 0xF396D674 EQ PUSH2 0x56A JUMPI PUSH2 0x171 JUMP JUMPDEST DUP1 PUSH4 0xAFB61CDA EQ PUSH2 0x468 JUMPI DUP1 PUSH4 0xC5BB3449 EQ PUSH2 0x486 JUMPI DUP1 PUSH4 0xC6E36A32 EQ PUSH2 0x4A4 JUMPI PUSH2 0x171 JUMP JUMPDEST DUP1 PUSH4 0x8270C706 EQ PUSH2 0x348 JUMPI DUP1 PUSH4 0x8AEE5F20 EQ PUSH2 0x378 JUMPI DUP1 PUSH4 0x9285EB88 EQ PUSH2 0x3A8 JUMPI DUP1 PUSH4 0x9474CF16 EQ PUSH2 0x3D8 JUMPI DUP1 PUSH4 0xA52C8658 EQ PUSH2 0x408 JUMPI DUP1 PUSH4 0xA7771EE3 EQ PUSH2 0x438 JUMPI PUSH2 0x171 JUMP JUMPDEST DUP1 PUSH4 0x31B1B978 GT PUSH2 0x12E JUMPI DUP1 PUSH4 0x31B1B978 EQ PUSH2 0x247 JUMPI DUP1 PUSH4 0x3781C2D8 EQ PUSH2 0x27E JUMPI DUP1 PUSH4 0x3FE46043 EQ PUSH2 0x29A JUMPI DUP1 PUSH4 0x406ACF81 EQ PUSH2 0x2B8 JUMPI DUP1 PUSH4 0x43859632 EQ PUSH2 0x2E8 JUMPI DUP1 PUSH4 0x772744B5 EQ PUSH2 0x318 JUMPI PUSH2 0x171 JUMP JUMPDEST DUP1 PUSH4 0x1DDF070 EQ PUSH2 0x175 JUMPI DUP1 PUSH4 0x3005447 EQ PUSH2 0x191 JUMPI DUP1 PUSH4 0x32E373F EQ PUSH2 0x1AD JUMPI DUP1 PUSH4 0x1468AA2C EQ PUSH2 0x1DD JUMPI DUP1 PUSH4 0x16F3D5A5 EQ PUSH2 0x1FB JUMPI DUP1 PUSH4 0x20854A58 EQ PUSH2 0x22B JUMPI JUMPDEST PUSH0 PUSH0 REVERT JUMPDEST PUSH2 0x18F PUSH1 0x4 DUP1 CALLDATASIZE SUB DUP2 ADD SWAP1 PUSH2 0x18A SWAP2 SWAP1 PUSH2 0x1B2E JUMP JUMPDEST PUSH2 0x588 JUMP JUMPDEST STOP JUMPDEST PUSH2 0x1AB PUSH1 0x4 DUP1 CALLDATASIZE SUB DUP2 ADD SWAP1 PUSH2 0x1A6 SWAP2 SWAP1 PUSH2 0x1C00 JUMP JUMPDEST PUSH2 0x7B6 JUMP JUMPDEST STOP JUMPDEST PUSH2 0x1C7 PUSH1 0x4 DUP1 CALLDATASIZE SUB DUP2 ADD SWAP1 PUSH2 0x1C2 SWAP2 SWAP1 PUSH2 0x1CDE JUMP JUMPDEST PUSH2 0xAA5 JUMP JUMPDEST PUSH1 0x40 MLOAD PUSH2 0x1D4 SWAP2 SWAP1 PUSH2 0x1D36 JUMP JUMPDEST PUSH1 0x40 MLOAD DUP1 SWAP2 SUB SWAP1 RETURN JUMPDEST PUSH2 0x1E5 PUSH2 0xB07 JUMP JUMPDEST PUSH1 0x40 MLOAD PUSH2 0x1F2 SWAP2 SWAP1 PUSH2 0x1D5E JUMP JUMPDEST PUSH1 0x40 MLOAD DUP1 SWAP2 SUB SWAP1 RETURN JUMPDEST PUSH2 0x215 PUSH1 0x4 DUP1 CALLDATASIZE SUB DUP2 ADD SWAP1 PUSH2 0x210 SWAP2 SWAP1 PUSH2 0x1D77 JUMP JUMPDEST PUSH2 0xB0C JUMP JUMPDEST PUSH1 0x40 MLOAD PUSH2 0x222 SWAP2 SWAP1 PUSH2 0x1E59 JUMP JUMPDEST PUSH1 0x40 MLOAD DUP1 SWAP2 SUB SWAP1 RETURN JUMPDEST PUSH2 0x245 PUSH1 0x4 DUP1 CALLDATASIZE SUB DUP2 ADD SWAP1 PUSH2 0x240 SWAP2 SWAP1 PUSH2 0x1ECE JUMP JUMPDEST PUSH2 0xB9F JUMP JUMPDEST STOP JUMPDEST PUSH2 0x261 PUSH1 0x4 DUP1 CALLDATASIZE SUB DUP2 ADD SWAP1 PUSH2 0x25C SWAP2 SWAP1 PUSH2 0x1B2E JUMP JUMPDEST PUSH2 0x1014 JUMP JUMPDEST PUSH1 0x40 MLOAD PUSH2 0x275 SWAP9 SWAP8 SWAP7 SWAP6 SWAP5 SWAP4 SWAP3 SWAP2 SWAP1 PUSH2 0x2063 JUMP JUMPDEST PUSH1 0x40 MLOAD DUP1 SWAP2 SUB SWAP1 RETURN JUMPDEST PUSH2 0x298 PUSH1 0x4 DUP1 CALLDATASIZE SUB DUP2 ADD SWAP1 PUSH2 0x293 SWAP2 SWAP1 PUSH2 0x20E6 JUMP JUMPDEST PUSH2 0x1121 JUMP JUMPDEST STOP JUMPDEST PUSH2 0x2A2 PUSH2 0x153B JUMP JUMPDEST PUSH1 0x40 MLOAD PUSH2 0x2AF SWAP2 SWAP1 PUSH2 0x1D5E JUMP JUMPDEST PUSH1 0x40 MLOAD DUP1 SWAP2 SUB SWAP1 RETURN JUMPDEST PUSH2 0x2D2 PUSH1 0x4 DUP1 CALLDATASIZE SUB DUP2 ADD SWAP1 PUSH2 0x2CD SWAP2 SWAP1 PUSH2 0x20E6 JUMP JUMPDEST PUSH2 0x1541 JUMP JUMPDEST PUSH1 0x40 MLOAD PUSH2 0x2DF SWAP2 SWAP1 PUSH2 0x1D5E JUMP JUMPDEST PUSH1 0x40 MLOAD DUP1 SWAP2 SUB SWAP1 RETURN JUMPDEST PUSH2 0x302 PUSH1 0x4 DUP1 CALLDATASIZE SUB DUP2 ADD SWAP1 PUSH2 0x2FD SWAP2 SWAP1 PUSH2 0x1CDE JUMP JUMPDEST PUSH2 0x156C JUMP JUMPDEST PUSH1 0x40 MLOAD PUSH2 0x30F SWAP2 SWAP1 PUSH2 0x1D36 JUMP JUMPDEST PUSH1 0x40 MLOAD DUP1 SWAP2 SUB SWAP1 RETURN JUMPDEST PUSH2 0x332 PUSH1 0x4 DUP1 CALLDATASIZE SUB DUP2 ADD SWAP1 PUSH2 0x32D SWAP2 SWAP1 PUSH2 0x1B2E JUMP JUMPDEST PUSH2 0x1596 JUMP JUMPDEST PUSH1 0x40 MLOAD PUSH2 0x33F SWAP2 SWAP1 PUSH2 0x1D36 JUMP JUMPDEST PUSH1 0x40 MLOAD DUP1 SWAP2 SUB SWAP1 RETURN JUMPDEST PUSH2 0x362 PUSH1 0x4 DUP1 CALLDATASIZE SUB DUP2 ADD SWAP1 PUSH2 0x35D SWAP2 SWAP1 PUSH2 0x2124 JUMP JUMPDEST PUSH2 0x15B5 JUMP JUMPDEST PUSH1 0x40 MLOAD PUSH2 0x36F SWAP2 SWAP1 PUSH2 0x1D5E JUMP JUMPDEST PUSH1 0x40 MLOAD DUP1 SWAP2 SUB SWAP1 RETURN JUMPDEST PUSH2 0x392 PUSH1 0x4 DUP1 CALLDATASIZE SUB DUP2 ADD SWAP1 PUSH2 0x38D SWAP2 SWAP1 PUSH2 0x2124 JUMP JUMPDEST PUSH2 0x15E0 JUMP JUMPDEST PUSH1 0x40 MLOAD PUSH2 0x39F SWAP2 SWAP1 PUSH2 0x1D5E JUMP JUMPDEST PUSH1 0x40 MLOAD DUP1 SWAP2 SUB SWAP1 RETURN JUMPDEST PUSH2 0x3C2 PUSH1 0x4 DUP1 CALLDATASIZE SUB DUP2 ADD SWAP1 PUSH2 0x3BD SWAP2 SWAP1 PUSH2 0x2162 JUMP JUMPDEST PUSH2 0x160B JUMP JUMPDEST PUSH1 0x40 MLOAD PUSH2 0x3CF SWAP2 SWAP1 PUSH2 0x1E59 JUMP JUMPDEST PUSH1 0x40 MLOAD DUP1 SWAP2 SUB SWAP1 RETURN JUMPDEST PUSH2 0x3F2 PUSH1 0x4 DUP1 CALLDATASIZE SUB DUP2 ADD SWAP1 PUSH2 0x3ED SWAP2 SWAP1 PUSH2 0x2162 JUMP JUMPDEST PUSH2 0x1687 JUMP JUMPDEST PUSH1 0x40 MLOAD PUSH2 0x3FF SWAP2 SWAP1 PUSH2 0x1E59 JUMP JUMPDEST PUSH1 0x40 MLOAD DUP1 SWAP2 SUB SWAP1 RETURN JUMPDEST PUSH2 0x422 PUSH1 0x4 DUP1 CALLDATASIZE SUB DUP2 ADD SWAP1 PUSH2 0x41D SWAP2 SWAP1 PUSH2 0x1CDE JUMP JUMPDEST PUSH2 0x1703 JUMP JUMPDEST PUSH1 0x40 MLOAD PUSH2 0x42F SWAP2 SWAP1 PUSH2 0x1D36 JUMP JUMPDEST PUSH1 0x40 MLOAD DUP1 SWAP2 SUB SWAP1 RETURN JUMPDEST PUSH2 0x452 PUSH1 0x4 DUP1 CALLDATASIZE SUB DUP2 ADD SWAP1 PUSH2 0x44D SWAP2 SWAP1 PUSH2 0x1D77 JUMP JUMPDEST PUSH2 0x172D JUMP JUMPDEST PUSH1 0x40 MLOAD PUSH2 0x45F SWAP2 SWAP1 PUSH2 0x1D36 JUMP JUMPDEST PUSH1 0x40 MLOAD DUP1 SWAP2 SUB SWAP1 RETURN JUMPDEST PUSH2 0x470 PUSH2 0x174A JUMP JUMPDEST PUSH1 0x40 MLOAD PUSH2 0x47D SWAP2 SWAP1 PUSH2 0x1E59 JUMP JUMPDEST PUSH1 0x40 MLOAD DUP1 SWAP2 SUB SWAP1 RETURN JUMPDEST PUSH2 0x48E PUSH2 0x17EE JUMP JUMPDEST PUSH1 0x40 MLOAD PUSH2 0x49B SWAP2 SWAP1 PUSH2 0x1D5E JUMP JUMPDEST PUSH1 0x40 MLOAD DUP1 SWAP2 SUB SWAP1 RETURN JUMPDEST PUSH2 0x4BE PUSH1 0x4 DUP1 CALLDATASIZE SUB DUP2 ADD SWAP1 PUSH2 0x4B9 SWAP2 SWAP1 PUSH2 0x20E6 JUMP JUMPDEST PUSH2 0x1870 JUMP JUMPDEST PUSH1 0x40 MLOAD PUSH2 0x4CB SWAP2 SWAP1 PUSH2 0x1D5E JUMP JUMPDEST PUSH1 0x40 MLOAD DUP1 SWAP2 SUB SWAP1 RETURN JUMPDEST PUSH2 0x4EE PUSH1 0x4 DUP1 CALLDATASIZE SUB DUP2 ADD SWAP1 PUSH2 0x4E9 SWAP2 SWAP1 PUSH2 0x1D77 JUMP JUMPDEST PUSH2 0x1890 JUMP JUMPDEST PUSH1 0x40 MLOAD PUSH2 0x4FB SWAP2 SWAP1 PUSH2 0x1E59 JUMP JUMPDEST PUSH1 0x40 MLOAD DUP1 SWAP2 SUB SWAP1 RETURN JUMPDEST PUSH2 0x51E PUSH1 0x4 DUP1 CALLDATASIZE SUB DUP2 ADD SWAP1 PUSH2 0x519 SWAP2 SWAP1 PUSH2 0x1B2E JUMP JUMPDEST PUSH2 0x1923 JUMP JUMPDEST PUSH1 0x40 MLOAD PUSH2 0x531 SWAP8 SWAP7 SWAP6 SWAP5 SWAP4 SWAP3 SWAP2 SWAP1 PUSH2 0x218D JUMP JUMPDEST PUSH1 0x40 MLOAD DUP1 SWAP2 SUB SWAP1 RETURN JUMPDEST PUSH2 0x554 PUSH1 0x4 DUP1 CALLDATASIZE SUB DUP2 ADD SWAP1 PUSH2 0x54F SWAP2 SWAP1 PUSH2 0x1CDE JUMP JUMPDEST PUSH2 0x1A8B JUMP JUMPDEST PUSH1 0x40 MLOAD PUSH2 0x561 SWAP2 SWAP1 PUSH2 0x1D36 JUMP JUMPDEST PUSH1 0x40 MLOAD DUP1 SWAP2 SUB SWAP1 RETURN JUMPDEST PUSH2 0x572 PUSH2 0x1AED JUMP JUMPDEST PUSH1 0x40 MLOAD PUSH2 0x57F SWAP2 SWAP1 PUSH2 0x1D5E JUMP JUMPDEST PUSH1 0x40 MLOAD DUP1 SWAP2 SUB SWAP1 RETURN JUMPDEST PUSH0 PUSH1 0x3 PUSH0 DUP4 DUP2 MSTORE PUSH1 0x20 ADD SWAP1 DUP2 MSTORE PUSH1 0x20 ADD PUSH0 KECCAK256 SWAP1 POP DUP1 PUSH1 0x5 ADD PUSH0 SWAP1 SLOAD SWAP1 PUSH2 0x100 EXP SWAP1 DIV PUSH1 0xFF AND PUSH2 0x5EC JUMPI PUSH1 0x40 MLOAD PUSH32 0x8C379A000000000000000000000000000000000000000000000000000000000 DUP2 MSTORE PUSH1 0x4 ADD PUSH2 0x5E3 SWAP1 PUSH2 0x224B JUMP JUMPDEST PUSH1 0x40 MLOAD DUP1 SWAP2 SUB SWAP1 REVERT JUMPDEST PUSH1 0x6 PUSH0 DUP4 DUP2 MSTORE PUSH1 0x20 ADD SWAP1 DUP2 MSTORE PUSH1 0x20 ADD PUSH0 KECCAK256 PUSH0 CALLER PUSH20 0xFFFFFFFFFFFFFFFFFFFFFFFFFFFFFFFFFFFFFFFF AND PUSH20 0xFFFFFFFFFFFFFFFFFFFFFFFFFFFFFFFFFFFFFFFF AND DUP2 MSTORE PUSH1 0x20 ADD SWAP1 DUP2 MSTORE PUSH1 0x20 ADD PUSH0 KECCAK256 PUSH0 SWAP1 SLOAD SWAP1 PUSH2 0x100 EXP SWAP1 DIV PUSH1 0xFF AND ISZERO PUSH2 0x685 JUMPI PUSH1 0x40 MLOAD PUSH32 0x8C379A000000000000000000000000000000000000000000000000000000000 DUP2 MSTORE PUSH1 0x4 ADD PUSH2 0x67C SWAP1 PUSH2 0x22B3 JUMP JUMPDEST PUSH1 0x40 MLOAD DUP1 SWAP2 SUB SWAP1 REVERT JUMPDEST PUSH1 0x1 PUSH1 0x6 PUSH0 DUP5 DUP2 MSTORE PUSH1 0x20 ADD SWAP1 DUP2 MSTORE PUSH1 0x20 ADD PUSH0 KECCAK256 PUSH0 CALLER PUSH20 0xFFFFFFFFFFFFFFFFFFFFFFFFFFFFFFFFFFFFFFFF AND PUSH20 0xFFFFFFFFFFFFFFFFFFFFFFFFFFFFFFFFFFFFFFFF AND DUP2 MSTORE PUSH1 0x20 ADD SWAP1 DUP2 MSTORE PUSH1 0x20 ADD PUSH0 KECCAK256 PUSH0 PUSH2 0x100 EXP DUP2 SLOAD DUP2 PUSH1 0xFF MUL NOT AND SWAP1 DUP4 ISZERO ISZERO MUL OR SWAP1 SSTORE POP DUP1 PUSH1 0x2 ADD PUSH0 DUP2 SLOAD DUP1 SWAP3 SWAP2 SWAP1 PUSH2 0x6FD SWAP1 PUSH2 0x22FE JUMP JUMPDEST SWAP2 SWAP1 POP SSTORE POP PUSH1 0x9 PUSH0 CALLER PUSH20 0xFFFFFFFFFFFFFFFFFFFFFFFFFFFFFFFFFFFFFFFF AND PUSH20 0xFFFFFFFFFFFFFFFFFFFFFFFFFFFFFFFFFFFFFFFF AND DUP2 MSTORE PUSH1 0x20 ADD SWAP1 DUP2 MSTORE PUSH1 0x20 ADD PUSH0 KECCAK256 DUP3 SWAP1 DUP1 PUSH1 0x1 DUP2 SLOAD ADD DUP1 DUP3 SSTORE DUP1 SWAP2 POP POP PUSH1 0x1 SWAP1 SUB SWAP1 PUSH0 MSTORE PUSH1 0x20 PUSH0 KECCAK256 ADD PUSH0 SWAP1 SWAP2 SWAP1 SWAP2 SWAP1 SWAP2 POP SSTORE CALLER PUSH20 0xFFFFFFFFFFFFFFFFFFFFFFFFFFFFFFFFFFFFFFFF AND DUP3 PUSH32 0x7E4DF0C1564681E2420161629240D0CD874949908EB21433D82A37D1484476A2 TIMESTAMP PUSH1 0x40 MLOAD PUSH2 0x7AA SWAP2 SWAP1 PUSH2 0x1D5E JUMP JUMPDEST PUSH1 0x40 MLOAD DUP1 SWAP2 SUB SWAP1 LOG3 POP POP JUMP JUMPDEST TIMESTAMP DUP4 GT PUSH2 0x7F8 JUMPI PUSH1 0x40 MLOAD PUSH32 0x8C379A000000000000000000000000000000000000000000000000000000000 DUP2 MSTORE PUSH1 0x4 ADD PUSH2 0x7EF SWAP1 PUSH2 0x238F JUMP JUMPDEST PUSH1 0x40 MLOAD DUP1 SWAP2 SUB SWAP1 REVERT JUMPDEST PUSH0 PUSH0 DUP2 SLOAD DUP1 SWAP3 SWAP2 SWAP1 PUSH2 0x809 SWAP1 PUSH2 0x22FE JUMP JUMPDEST SWAP2 SWAP1 POP SSTORE POP PUSH0 PUSH0 SLOAD SWAP1 POP PUSH1 0x40 MLOAD DUP1 PUSH2 0x100 ADD PUSH1 0x40 MSTORE DUP1 CALLER PUSH20 0xFFFFFFFFFFFFFFFFFFFFFFFFFFFFFFFFFFFFFFFF AND DUP2 MSTORE PUSH1 0x20 ADD DUP8 PUSH1 0x2 DUP2 GT ISZERO PUSH2 0x84E JUMPI PUSH2 0x84D PUSH2 0x1F3A JUMP JUMPDEST JUMPDEST DUP2 MSTORE PUSH1 0x20 ADD DUP7 PUSH1 0x9 DUP2 GT ISZERO PUSH2 0x866 JUMPI PUSH2 0x865 PUSH2 0x1F3A JUMP JUMPDEST JUMPDEST DUP2 MSTORE PUSH1 0x20 ADD DUP6 DUP2 MSTORE PUSH1 0x20 ADD PUSH0 DUP2 MSTORE PUSH1 0x20 ADD TIMESTAMP DUP2 MSTORE PUSH1 0x20 ADD DUP5 DUP5 DUP1 DUP1 PUSH1 0x1F ADD PUSH1 0x20 DUP1 SWAP2 DIV MUL PUSH1 0x20 ADD PUSH1 0x40 MLOAD SWAP1 DUP2 ADD PUSH1 0x40 MSTORE DUP1 SWAP4 SWAP3 SWAP2 SWAP1 DUP2 DUP2 MSTORE PUSH1 0x20 ADD DUP4 DUP4 DUP1 DUP3 DUP5 CALLDATACOPY PUSH0 DUP2 DUP5 ADD MSTORE PUSH1 0x1F NOT PUSH1 0x1F DUP3 ADD AND SWAP1 POP DUP1 DUP4 ADD SWAP3 POP POP POP POP POP POP POP DUP2 MSTORE PUSH1 0x20 ADD PUSH1 0x1 ISZERO ISZERO DUP2 MSTORE POP PUSH1 0x3 PUSH0 DUP4 DUP2 MSTORE PUSH1 0x20 ADD SWAP1 DUP2 MSTORE PUSH1 0x20 ADD PUSH0 KECCAK256 PUSH0 DUP3 ADD MLOAD DUP2 PUSH0 ADD PUSH0 PUSH2 0x100 EXP DUP2 SLOAD DUP2 PUSH20 0xFFFFFFFFFFFFFFFFFFFFFFFFFFFFFFFFFFFFFFFF MUL NOT AND SWAP1 DUP4 PUSH20 0xFFFFFFFFFFFFFFFFFFFFFFFFFFFFFFFFFFFFFFFF AND MUL OR SWAP1 SSTORE POP PUSH1 0x20 DUP3 ADD MLOAD DUP2 PUSH0 ADD PUSH1 0x14 PUSH2 0x100 EXP DUP2 SLOAD DUP2 PUSH1 0xFF MUL NOT AND SWAP1 DUP4 PUSH1 0x2 DUP2 GT ISZERO PUSH2 0x94C JUMPI PUSH2 0x94B PUSH2 0x1F3A JUMP JUMPDEST JUMPDEST MUL OR SWAP1 SSTORE POP PUSH1 0x40 DUP3 ADD MLOAD DUP2 PUSH0 ADD PUSH1 0x15 PUSH2 0x100 EXP DUP2 SLOAD DUP2 PUSH1 0xFF MUL NOT AND SWAP1 DUP4 PUSH1 0x9 DUP2 GT ISZERO PUSH2 0x97B JUMPI PUSH2 0x97A PUSH2 0x1F3A JUMP JUMPDEST JUMPDEST MUL OR SWAP1 SSTORE POP PUSH1 0x60 DUP3 ADD MLOAD DUP2 PUSH1 0x1 ADD SSTORE PUSH1 0x80 DUP3 ADD MLOAD DUP2 PUSH1 0x2 ADD SSTORE PUSH1 0xA0 DUP3 ADD MLOAD DUP2 PUSH1 0x3 ADD SSTORE PUSH1 0xC0 DUP3 ADD MLOAD DUP2 PUSH1 0x4 ADD SWAP1 DUP2 PUSH2 0x9B3 SWAP2 SWAP1 PUSH2 0x25D7 JUMP JUMPDEST POP PUSH1 0xE0 DUP3 ADD MLOAD DUP2 PUSH1 0x5 ADD PUSH0 PUSH2 0x100 EXP DUP2 SLOAD DUP2 PUSH1 0xFF MUL NOT AND SWAP1 DUP4 ISZERO ISZERO MUL OR SWAP1 SSTORE POP SWAP1 POP POP PUSH1 0xA PUSH0 DUP7 PUSH1 0x9 DUP2 GT ISZERO PUSH2 0x9EC JUMPI PUSH2 0x9EB PUSH2 0x1F3A JUMP JUMPDEST JUMPDEST PUSH1 0xFF AND DUP2 MSTORE PUSH1 0x20 ADD SWAP1 DUP2 MSTORE PUSH1 0x20 ADD PUSH0 KECCAK256 DUP2 SWAP1 DUP1 PUSH1 0x1 DUP2 SLOAD ADD DUP1 DUP3 SSTORE DUP1 SWAP2 POP POP PUSH1 0x1 SWAP1 SUB SWAP1 PUSH0 MSTORE PUSH1 0x20 PUSH0 KECCAK256 ADD PUSH0 SWAP1 SWAP2 SWAP1 SWAP2 SWAP1 SWAP2 POP SSTORE CALLER PUSH20 0xFFFFFFFFFFFFFFFFFFFFFFFFFFFFFFFFFFFFFFFF AND DUP2 PUSH32 0xB33E02AC6178CD2232F1858084E4966B3AB195DDE836B75155523D7630225F29 DUP9 PUSH1 0x2 DUP2 GT ISZERO PUSH2 0xA6C JUMPI PUSH2 0xA6B PUSH2 0x1F3A JUMP JUMPDEST JUMPDEST DUP9 PUSH1 0x9 DUP2 GT ISZERO PUSH2 0xA7F JUMPI PUSH2 0xA7E PUSH2 0x1F3A JUMP JUMPDEST JUMPDEST DUP9 TIMESTAMP DUP10 DUP10 PUSH1 0x40 MLOAD PUSH2 0xA95 SWAP7 SWAP6 SWAP5 SWAP4 SWAP3 SWAP2 SWAP1 PUSH2 0x26FB JUMP JUMPDEST PUSH1 0x40 MLOAD DUP1 SWAP2 SUB SWAP1 LOG3 POP POP POP POP POP POP JUMP JUMPDEST PUSH0 PUSH1 0x6 PUSH0 DUP5 DUP2 MSTORE PUSH1 0x20 ADD SWAP1 DUP2 MSTORE PUSH1 0x20 ADD PUSH0 KECCAK256 PUSH0 DUP4 PUSH20 0xFFFFFFFFFFFFFFFFFFFFFFFFFFFFFFFFFFFFFFFF AND PUSH20 0xFFFFFFFFFFFFFFFFFFFFFFFFFFFFFFFFFFFFFFFF AND DUP2 MSTORE PUSH1 0x20 ADD SWAP1 DUP2 MSTORE PUSH1 0x20 ADD PUSH0 KECCAK256 PUSH0 SWAP1 SLOAD SWAP1 PUSH2 0x100 EXP SWAP1 DIV PUSH1 0xFF AND SWAP1 POP SWAP3 SWAP2 POP POP JUMP JUMPDEST PUSH0 SLOAD DUP2 JUMP JUMPDEST PUSH1 0x60 PUSH1 0x8 PUSH0 DUP4 PUSH20 0xFFFFFFFFFFFFFFFFFFFFFFFFFFFFFFFFFFFFFFFF AND PUSH20 0xFFFFFFFFFFFFFFFFFFFFFFFFFFFFFFFFFFFFFFFF AND DUP2 MSTORE PUSH1 0x20 ADD SWAP1 DUP2 MSTORE PUSH1 0x20 ADD PUSH0 KECCAK256 DUP1 SLOAD DUP1 PUSH1 0x20 MUL PUSH1 0x20 ADD PUSH1 0x40 MLOAD SWAP1 DUP2 ADD PUSH1 0x40 MSTORE DUP1 SWAP3 SWAP2 SWAP1 DUP2 DUP2 MSTORE PUSH1 0x20 ADD DUP3 DUP1 SLOAD DUP1 ISZERO PUSH2 0xB93 JUMPI PUSH1 0x20 MUL DUP3 ADD SWAP2 SWAP1 PUSH0 MSTORE PUSH1 0x20 PUSH0 KECCAK256 SWAP1 JUMPDEST DUP2 SLOAD DUP2 MSTORE PUSH1 0x20 ADD SWAP1 PUSH1 0x1 ADD SWAP1 DUP1 DUP4 GT PUSH2 0xB7F JUMPI JUMPDEST POP POP POP POP POP SWAP1 POP SWAP2 SWAP1 POP JUMP JUMPDEST PUSH0 PUSH1 0x3 PUSH0 DUP6 DUP2 MSTORE PUSH1 0x20 ADD SWAP1 DUP2 MSTORE PUSH1 0x20 ADD PUSH0 KECCAK256 SWAP1 POP DUP1 PUSH1 0x5 ADD PUSH0 SWAP1 SLOAD SWAP1 PUSH2 0x100 EXP SWAP1 DIV PUSH1 0xFF AND PUSH2 0xC03 JUMPI PUSH1 0x40 MLOAD PUSH32 0x8C379A000000000000000000000000000000000000000000000000000000000 DUP2 MSTORE PUSH1 0x4 ADD PUSH2 0xBFA SWAP1 PUSH2 0x224B JUMP JUMPDEST PUSH1 0x40 MLOAD DUP1 SWAP2 SUB SWAP1 REVERT JUMPDEST DUP1 PUSH1 0x1 ADD SLOAD TIMESTAMP LT PUSH2 0xC49 JUMPI PUSH1 0x40 MLOAD PUSH32 0x8C379A000000000000000000000000000000000000000000000000000000000 DUP2 MSTORE PUSH1 0x4 ADD PUSH2 0xC40 SWAP1 PUSH2 0x279F JUMP JUMPDEST PUSH1 0x40 MLOAD DUP1 SWAP2 SUB SWAP1 REVERT JUMPDEST PUSH1 0x5 PUSH0 DUP6 DUP2 MSTORE PUSH1 0x20 ADD SWAP1 DUP2 MSTORE PUSH1 0x20 ADD PUSH0 KECCAK256 PUSH0 CALLER PUSH20 0xFFFFFFFFFFFFFFFFFFFFFFFFFFFFFFFFFFFFFFFF AND PUSH20 0xFFFFFFFFFFFFFFFFFFFFFFFFFFFFFFFFFFFFFFFF AND DUP2 MSTORE PUSH1 0x20 ADD SWAP1 DUP2 MSTORE PUSH1 0x20 ADD PUSH0 KECCAK256 PUSH0 SWAP1 SLOAD SWAP1 PUSH2 0x100 EXP SWAP1 DIV PUSH1 0xFF AND ISZERO PUSH2 0xCE2 JUMPI PUSH1 0x40 MLOAD PUSH32 0x8C379A000000000000000000000000000000000000000000000000000000000 DUP2 MSTORE PUSH1 0x4 ADD PUSH2 0xCD9 SWAP1 PUSH2 0x2807 JUMP JUMPDEST PUSH1 0x40 MLOAD DUP1 SWAP2 SUB SWAP1 REVERT JUMPDEST PUSH1 0x2 DUP1 DUP2 GT ISZERO PUSH2 0xCF5 JUMPI PUSH2 0xCF4 PUSH2 0x1F3A JUMP JUMPDEST JUMPDEST DUP2 PUSH0 ADD PUSH1 0x14 SWAP1 SLOAD SWAP1 PUSH2 0x100 EXP SWAP1 DIV PUSH1 0xFF AND PUSH1 0x2 DUP2 GT ISZERO PUSH2 0xD18 JUMPI PUSH2 0xD17 PUSH2 0x1F3A JUMP JUMPDEST JUMPDEST EQ PUSH2 0xD58 JUMPI PUSH1 0x40 MLOAD PUSH32 0x8C379A000000000000000000000000000000000000000000000000000000000 DUP2 MSTORE PUSH1 0x4 ADD PUSH2 0xD4F SWAP1 PUSH2 0x286F JUMP JUMPDEST PUSH1 0x40 MLOAD DUP1 SWAP2 SUB SWAP1 REVERT JUMPDEST PUSH0 DUP4 DUP4 SWAP1 POP GT PUSH2 0xD9D JUMPI PUSH1 0x40 MLOAD PUSH32 0x8C379A000000000000000000000000000000000000000000000000000000000 DUP2 MSTORE PUSH1 0x4 ADD PUSH2 0xD94 SWAP1 PUSH2 0x28D7 JUMP JUMPDEST PUSH1 0x40 MLOAD DUP1 SWAP2 SUB SWAP1 REVERT JUMPDEST PUSH1 0x1 PUSH1 0x5 PUSH0 DUP7 DUP2 MSTORE PUSH1 0x20 ADD SWAP1 DUP2 MSTORE PUSH1 0x20 ADD PUSH0 KECCAK256 PUSH0 CALLER PUSH20 0xFFFFFFFFFFFFFFFFFFFFFFFFFFFFFFFFFFFFFFFF AND PUSH20 0xFFFFFFFFFFFFFFFFFFFFFFFFFFFFFFFFFFFFFFFF AND DUP2 MSTORE PUSH1 0x20 ADD SWAP1 DUP2 MSTORE PUSH1 0x20 ADD PUSH0 KECCAK256 PUSH0 PUSH2 0x100 EXP DUP2 SLOAD DUP2 PUSH1 0xFF MUL NOT AND SWAP1 DUP4 ISZERO ISZERO MUL OR SWAP1 SSTORE POP DUP3 DUP3 SWAP1 POP PUSH1 0x1 PUSH0 DUP3 DUP3 SLOAD PUSH2 0xE15 SWAP2 SWAP1 PUSH2 0x28F5 JUMP JUMPDEST SWAP3 POP POP DUP2 SWAP1 SSTORE POP PUSH1 0x7 PUSH0 CALLER PUSH20 0xFFFFFFFFFFFFFFFFFFFFFFFFFFFFFFFFFFFFFFFF AND PUSH20 0xFFFFFFFFFFFFFFFFFFFFFFFFFFFFFFFFFFFFFFFF AND DUP2 MSTORE PUSH1 0x20 ADD SWAP1 DUP2 MSTORE PUSH1 0x20 ADD PUSH0 KECCAK256 PUSH0 SWAP1 SLOAD SWAP1 PUSH2 0x100 EXP SWAP1 DIV PUSH1 0xFF AND PUSH2 0xED7 JUMPI PUSH1 0x1 PUSH1 0x7 PUSH0 CALLER PUSH20 0xFFFFFFFFFFFFFFFFFFFFFFFFFFFFFFFFFFFFFFFF AND PUSH20 0xFFFFFFFFFFFFFFFFFFFFFFFFFFFFFFFFFFFFFFFF AND DUP2 MSTORE PUSH1 0x20 ADD SWAP1 DUP2 MSTORE PUSH1 0x20 ADD PUSH0 KECCAK256 PUSH0 PUSH2 0x100 EXP DUP2 SLOAD DUP2 PUSH1 0xFF MUL NOT AND SWAP1 DUP4 ISZERO ISZERO MUL OR SWAP1 SSTORE POP PUSH1 0x2 PUSH0 DUP2 SLOAD DUP1 SWAP3 SWAP2 SWAP1 PUSH2 0xED1 SWAP1 PUSH2 0x22FE JUMP JUMPDEST SWAP2 SWAP1 POP SSTORE POP JUMPDEST PUSH1 0x8 PUSH0 CALLER PUSH20 0xFFFFFFFFFFFFFFFFFFFFFFFFFFFFFFFFFFFFFFFF AND PUSH20 0xFFFFFFFFFFFFFFFFFFFFFFFFFFFFFFFFFFFFFFFF AND DUP2 MSTORE PUSH1 0x20 ADD SWAP1 DUP2 MSTORE PUSH1 0x20 ADD PUSH0 KECCAK256 DUP5 SWAP1 DUP1 PUSH1 0x1 DUP2 SLOAD ADD DUP1 DUP3 SSTORE DUP1 SWAP2 POP POP PUSH1 0x1 SWAP1 SUB SWAP1 PUSH0 MSTORE PUSH1 0x20 PUSH0 KECCAK256 ADD PUSH0 SWAP1 SWAP2 SWAP1 SWAP2 SWAP1 SWAP2 POP SSTORE PUSH0 PUSH0 SWAP1 POP JUMPDEST DUP4 DUP4 SWAP1 POP DUP2 LT ISZERO PUSH2 0x100D JUMPI PUSH1 0x4 PUSH0 DUP7 DUP2 MSTORE PUSH1 0x20 ADD SWAP1 DUP2 MSTORE PUSH1 0x20 ADD PUSH0 KECCAK256 PUSH0 DUP6 DUP6 DUP5 DUP2 DUP2 LT PUSH2 0xF6D JUMPI PUSH2 0xF6C PUSH2 0x2928 JUMP JUMPDEST JUMPDEST SWAP1 POP PUSH1 0x20 MUL ADD CALLDATALOAD DUP2 MSTORE PUSH1 0x20 ADD SWAP1 DUP2 MSTORE PUSH1 0x20 ADD PUSH0 KECCAK256 PUSH0 DUP2 SLOAD DUP1 SWAP3 SWAP2 SWAP1 PUSH2 0xF91 SWAP1 PUSH2 0x22FE JUMP JUMPDEST SWAP2 SWAP1 POP SSTORE POP CALLER PUSH20 0xFFFFFFFFFFFFFFFFFFFFFFFFFFFFFFFFFFFFFFFF AND DUP6 PUSH32 0x271F53EEBBE20450D9578F28EC279231556C34545B30E2278D754FFD39CD63C DUP7 DUP7 DUP6 DUP2 DUP2 LT PUSH2 0xFE2 JUMPI PUSH2 0xFE1 PUSH2 0x2928 JUMP JUMPDEST JUMPDEST SWAP1 POP PUSH1 0x20 MUL ADD CALLDATALOAD TIMESTAMP PUSH1 0x40 MLOAD PUSH2 0xFF8 SWAP3 SWAP2 SWAP1 PUSH2 0x2955 JUMP JUMPDEST PUSH1 0x40 MLOAD DUP1 SWAP2 SUB SWAP1 LOG3 DUP1 DUP1 PUSH1 0x1 ADD SWAP2 POP POP PUSH2 0xF3D JUMP JUMPDEST POP POP POP POP POP JUMP JUMPDEST PUSH1 0x3 PUSH1 0x20 MSTORE DUP1 PUSH0 MSTORE PUSH1 0x40 PUSH0 KECCAK256 PUSH0 SWAP2 POP SWAP1 POP DUP1 PUSH0 ADD PUSH0 SWAP1 SLOAD SWAP1 PUSH2 0x100 EXP SWAP1 DIV PUSH20 0xFFFFFFFFFFFFFFFFFFFFFFFFFFFFFFFFFFFFFFFF AND SWAP1 DUP1 PUSH0 ADD PUSH1 0x14 SWAP1 SLOAD SWAP1 PUSH2 0x100 EXP SWAP1 DIV PUSH1 0xFF AND SWAP1 DUP1 PUSH0 ADD PUSH1 0x15 SWAP1 SLOAD SWAP1 PUSH2 0x100 EXP SWAP1 DIV PUSH1 0xFF AND SWAP1 DUP1 PUSH1 0x1 ADD SLOAD SWAP1 DUP1 PUSH1 0x2 ADD SLOAD SWAP1 DUP1 PUSH1 0x3 ADD SLOAD SWAP1 DUP1 PUSH1 0x4 ADD DUP1 SLOAD PUSH2 0x108E SWAP1 PUSH2 0x2407 JUMP JUMPDEST DUP1 PUSH1 0x1F ADD PUSH1 0x20 DUP1 SWAP2 DIV MUL PUSH1 0x20 ADD PUSH1 0x40 MLOAD SWAP1 DUP2 ADD PUSH1 0x40 MSTORE DUP1 SWAP3 SWAP2 SWAP1 DUP2 DUP2 MSTORE PUSH1 0x20 ADD DUP3 DUP1 SLOAD PUSH2 0x10BA SWAP1 PUSH2 0x2407 JUMP JUMPDEST DUP1 ISZERO PUSH2 0x1105 JUMPI DUP1 PUSH1 0x1F LT PUSH2 0x10DC JUMPI PUSH2 0x100 DUP1 DUP4 SLOAD DIV MUL DUP4 MSTORE SWAP2 PUSH1 0x20 ADD SWAP2 PUSH2 0x1105 JUMP JUMPDEST DUP3 ADD SWAP2 SWAP1 PUSH0 MSTORE PUSH1 0x20 PUSH0 KECCAK256 SWAP1 JUMPDEST DUP2 SLOAD DUP2 MSTORE SWAP1 PUSH1 0x1 ADD SWAP1 PUSH1 0x20 ADD DUP1 DUP4 GT PUSH2 0x10E8 JUMPI DUP3 SWAP1 SUB PUSH1 0x1F AND DUP3 ADD SWAP2 JUMPDEST POP POP POP POP POP SWAP1 DUP1 PUSH1 0x5 ADD PUSH0 SWAP1 SLOAD SWAP1 PUSH2 0x100 EXP SWAP1 DIV PUSH1 0xFF AND SWAP1 POP DUP9 JUMP JUMPDEST PUSH0 PUSH1 0x3 PUSH0 DUP5 DUP2 MSTORE PUSH1 0x20 ADD SWAP1 DUP2 MSTORE PUSH1 0x20 ADD PUSH0 KECCAK256 SWAP1 POP DUP1 PUSH1 0x5 ADD PUSH0 SWAP1 SLOAD SWAP1 PUSH2 0x100 EXP SWAP1 DIV PUSH1 0xFF AND PUSH2 0x1185 JUMPI PUSH1 0x40 MLOAD PUSH32 0x8C379A000000000000000000000000000000000000000000000000000000000 DUP2 MSTORE PUSH1 0x4 ADD PUSH2 0x117C SWAP1 PUSH2 0x224B JUMP JUMPDEST PUSH1 0x40 MLOAD DUP1 SWAP2 SUB SWAP1 REVERT JUMPDEST DUP1 PUSH1 0x1 ADD SLOAD TIMESTAMP LT PUSH2 0x11CB JUMPI PUSH1 0x40 MLOAD PUSH32 0x8C379A000000000000000000000000000000000000000000000000000000000 DUP2 MSTORE PUSH1 0x4 ADD PUSH2 0x11C2 SWAP1 PUSH2 0x279F JUMP JUMPDEST PUSH1 0x40 MLOAD DUP1 SWAP2 SUB SWAP1 REVERT JUMPDEST PUSH1 0x5 PUSH0 DUP5 DUP2 MSTORE PUSH1 0x20 ADD SWAP1 DUP2 MSTORE PUSH1 0x20 ADD PUSH0 KECCAK256 PUSH0 CALLER PUSH20 0xFFFFFFFFFFFFFFFFFFFFFFFFFFFFFFFFFFFFFFFF AND PUSH20 0xFFFFFFFFFFFFFFFFFFFFFFFFFFFFFFFFFFFFFFFF AND DUP2 MSTORE PUSH1 0x20 ADD SWAP1 DUP2 MSTORE PUSH1 0x20 ADD PUSH0 KECCAK256 PUSH0 SWAP1 SLOAD SWAP1 PUSH2 0x100 EXP SWAP1 DIV PUSH1 0xFF AND ISZERO PUSH2 0x1264 JUMPI PUSH1 0x40 MLOAD PUSH32 0x8C379A000000000000000000000000000000000000000000000000000000000 DUP2 MSTORE PUSH1 0x4 ADD PUSH2 0x125B SWAP1 PUSH2 0x2807 JUMP JUMPDEST PUSH1 0x40 MLOAD DUP1 SWAP2 SUB SWAP1 REVERT JUMPDEST PUSH0 PUSH1 0x2 DUP2 GT ISZERO PUSH2 0x1277 JUMPI PUSH2 0x1276 PUSH2 0x1F3A JUMP JUMPDEST JUMPDEST DUP2 PUSH0 ADD PUSH1 0x14 SWAP1 SLOAD SWAP1 PUSH2 0x100 EXP SWAP1 DIV PUSH1 0xFF AND PUSH1 0x2 DUP2 GT ISZERO PUSH2 0x129A JUMPI PUSH2 0x1299 PUSH2 0x1F3A JUMP JUMPDEST JUMPDEST EQ DUP1 PUSH2 0x12DA JUMPI POP PUSH1 0x1 PUSH1 0x2 DUP2 GT ISZERO PUSH2 0x12B5 JUMPI PUSH2 0x12B4 PUSH2 0x1F3A JUMP JUMPDEST JUMPDEST DUP2 PUSH0 ADD PUSH1 0x14 SWAP1 SLOAD SWAP1 PUSH2 0x100 EXP SWAP1 DIV PUSH1 0xFF AND PUSH1 0x2 DUP2 GT ISZERO PUSH2 0x12D8 JUMPI PUSH2 0x12D7 PUSH2 0x1F3A JUMP JUMPDEST JUMPDEST EQ JUMPDEST PUSH2 0x1319 JUMPI PUSH1 0x40 MLOAD PUSH32 0x8C379A000000000000000000000000000000000000000000000000000000000 DUP2 MSTORE PUSH1 0x4 ADD PUSH2 0x1310 SWAP1 PUSH2 0x29C6 JUMP JUMPDEST PUSH1 0x40 MLOAD DUP1 SWAP2 SUB SWAP1 REVERT JUMPDEST PUSH1 0x1 PUSH1 0x5 PUSH0 DUP6 DUP2 MSTORE PUSH1 0x20 ADD SWAP1 DUP2 MSTORE PUSH1 0x20 ADD PUSH0 KECCAK256 PUSH0 CALLER PUSH20 0xFFFFFFFFFFFFFFFFFFFFFFFFFFFFFFFFFFFFFFFF AND PUSH20 0xFFFFFFFFFFFFFFFFFFFFFFFFFFFFFFFFFFFFFFFF AND DUP2 MSTORE PUSH1 0x20 ADD SWAP1 DUP2 MSTORE PUSH1 0x20 ADD PUSH0 KECCAK256 PUSH0 PUSH2 0x100 EXP DUP2 SLOAD DUP2 PUSH1 0xFF MUL NOT AND SWAP1 DUP4 ISZERO ISZERO MUL OR SWAP1 SSTORE POP PUSH1 0x4 PUSH0 DUP5 DUP2 MSTORE PUSH1 0x20 ADD SWAP1 DUP2 MSTORE PUSH1 0x20 ADD PUSH0 KECCAK256 PUSH0 DUP4 DUP2 MSTORE PUSH1 0x20 ADD SWAP1 DUP2 MSTORE PUSH1 0x20 ADD PUSH0 KECCAK256 PUSH0 DUP2 SLOAD DUP1 SWAP3 SWAP2 SWAP1 PUSH2 0x13AD SWAP1 PUSH2 0x22FE JUMP JUMPDEST SWAP2 SWAP1 POP SSTORE POP PUSH1 0x1 PUSH0 DUP2 SLOAD DUP1 SWAP3 SWAP2 SWAP1 PUSH2 0x13C4 SWAP1 PUSH2 0x22FE JUMP JUMPDEST SWAP2 SWAP1 POP SSTORE POP PUSH1 0x7 PUSH0 CALLER PUSH20 0xFFFFFFFFFFFFFFFFFFFFFFFFFFFFFFFFFFFFFFFF AND PUSH20 0xFFFFFFFFFFFFFFFFFFFFFFFFFFFFFFFFFFFFFFFF AND DUP2 MSTORE PUSH1 0x20 ADD SWAP1 DUP2 MSTORE PUSH1 0x20 ADD PUSH0 KECCAK256 PUSH0 SWAP1 SLOAD SWAP1 PUSH2 0x100 EXP SWAP1 DIV PUSH1 0xFF AND PUSH2 0x1484 JUMPI PUSH1 0x1 PUSH1 0x7 PUSH0 CALLER PUSH20 0xFFFFFFFFFFFFFFFFFFFFFFFFFFFFFFFFFFFFFFFF AND PUSH20 0xFFFFFFFFFFFFFFFFFFFFFFFFFFFFFFFFFFFFFFFF AND DUP2 MSTORE PUSH1 0x20 ADD SWAP1 DUP2 MSTORE PUSH1 0x20 ADD PUSH0 KECCAK256 PUSH0 PUSH2 0x100 EXP DUP2 SLOAD DUP2 PUSH1 0xFF MUL NOT AND SWAP1 DUP4 ISZERO ISZERO MUL OR SWAP1 SSTORE POP PUSH1 0x2 PUSH0 DUP2 SLOAD DUP1 SWAP3 SWAP2 SWAP1 PUSH2 0x147E SWAP1 PUSH2 0x22FE JUMP JUMPDEST SWAP2 SWAP1 POP SSTORE POP JUMPDEST PUSH1 0x8 PUSH0 CALLER PUSH20 0xFFFFFFFFFFFFFFFFFFFFFFFFFFFFFFFFFFFFFFFF AND PUSH20 0xFFFFFFFFFFFFFFFFFFFFFFFFFFFFFFFFFFFFFFFF AND DUP2 MSTORE PUSH1 0x20 ADD SWAP1 DUP2 MSTORE PUSH1 0x20 ADD PUSH0 KECCAK256 DUP4 SWAP1 DUP1 PUSH1 0x1 DUP2 SLOAD ADD DUP1 DUP3 SSTORE DUP1 SWAP2 POP POP PUSH1 0x1 SWAP1 SUB SWAP1 PUSH0 MSTORE PUSH1 0x20 PUSH0 KECCAK256 ADD PUSH0 SWAP1 SWAP2 SWAP1 SWAP2 SWAP1 SWAP2 POP SSTORE CALLER PUSH20 0xFFFFFFFFFFFFFFFFFFFFFFFFFFFFFFFFFFFFFFFF AND DUP4 PUSH32 0x271F53EEBBE20450D9578F28EC279231556C34545B30E2278D754FFD39CD63C DUP5 TIMESTAMP PUSH1 0x40 MLOAD PUSH2 0x152E SWAP3 SWAP2 SWAP1 PUSH2 0x2955 JUMP JUMPDEST PUSH1 0x40 MLOAD DUP1 SWAP2 SUB SWAP1 LOG3 POP POP POP JUMP JUMPDEST PUSH1 0x2 SLOAD DUP2 JUMP JUMPDEST PUSH1 0xA PUSH1 0x20 MSTORE DUP2 PUSH0 MSTORE PUSH1 0x40 PUSH0 KECCAK256 DUP2 DUP2 SLOAD DUP2 LT PUSH2 0x155A JUMPI PUSH0 DUP1 REVERT JUMPDEST SWAP1 PUSH0 MSTORE PUSH1 0x20 PUSH0 KECCAK256 ADD PUSH0 SWAP2 POP SWAP2 POP POP SLOAD DUP2 JUMP JUMPDEST PUSH1 0x5 PUSH1 0x20 MSTORE DUP2 PUSH0 MSTORE PUSH1 0x40 PUSH0 KECCAK256 PUSH1 0x20 MSTORE DUP1 PUSH0 MSTORE PUSH1 0x40 PUSH0 KECCAK256 PUSH0 SWAP2 POP SWAP2 POP SWAP1 SLOAD SWAP1 PUSH2 0x100 EXP SWAP1 DIV PUSH1 0xFF AND DUP2 JUMP JUMPDEST PUSH0 PUSH1 0x3 PUSH0 DUP4 DUP2 MSTORE PUSH1 0x20 ADD SWAP1 DUP2 MSTORE PUSH1 0x20 ADD PUSH0 KECCAK256 PUSH1 0x1 ADD SLOAD TIMESTAMP LT SWAP1 POP SWAP2 SWAP1 POP JUMP JUMPDEST PUSH1 0x9 PUSH1 0x20 MSTORE DUP2 PUSH0 MSTORE PUSH1 0x40 PUSH0 KECCAK256 DUP2 DUP2 SLOAD DUP2 LT PUSH2 0x15CE JUMPI PUSH0 DUP1 REVERT JUMPDEST SWAP1 PUSH0 MSTORE PUSH1 0x20 PUSH0 KECCAK256 ADD PUSH0 SWAP2 POP SWAP2 POP POP SLOAD DUP2 JUMP JUMPDEST PUSH1 0x8 PUSH1 0x20 MSTORE DUP2 PUSH0 MSTORE PUSH1 0x40 PUSH0 KECCAK256 DUP2 DUP2 SLOAD DUP2 LT PUSH2 0x15F9 JUMPI PUSH0 DUP1 REVERT JUMPDEST SWAP1 PUSH0 MSTORE PUSH1 0x20 PUSH0 KECCAK256 ADD PUSH0 SWAP2 POP SWAP2 POP POP SLOAD DUP2 JUMP JUMPDEST PUSH1 0x60 PUSH1 0xA PUSH0 DUP4 PUSH1 0x9 DUP2 GT ISZERO PUSH2 0x1623 JUMPI PUSH2 0x1622 PUSH2 0x1F3A JUMP JUMPDEST JUMPDEST PUSH1 0xFF AND DUP2 MSTORE PUSH1 0x20 ADD SWAP1 DUP2 MSTORE PUSH1 0x20 ADD PUSH0 KECCAK256 DUP1 SLOAD DUP1 PUSH1 0x20 MUL PUSH1 0x20 ADD PUSH1 0x40 MLOAD SWAP1 DUP2 ADD PUSH1 0x40 MSTORE DUP1 SWAP3 SWAP2 SWAP1 DUP2 DUP2 MSTORE PUSH1 0x20 ADD DUP3 DUP1 SLOAD DUP1 ISZERO PUSH2 0x167B JUMPI PUSH1 0x20 MUL DUP3 ADD SWAP2 SWAP1 PUSH0 MSTORE PUSH1 0x20 PUSH0 KECCAK256 SWAP1 JUMPDEST DUP2 SLOAD DUP2 MSTORE PUSH1 0x20 ADD SWAP1 PUSH1 0x1 ADD SWAP1 DUP1 DUP4 GT PUSH2 0x1667 JUMPI JUMPDEST POP POP POP POP POP SWAP1 POP SWAP2 SWAP1 POP JUMP JUMPDEST PUSH1 0x60 PUSH1 0xA PUSH0 DUP4 PUSH1 0x9 DUP2 GT ISZERO PUSH2 0x169F JUMPI PUSH2 0x169E PUSH2 0x1F3A JUMP JUMPDEST JUMPDEST PUSH1 0xFF AND DUP2 MSTORE PUSH1 0x20 ADD SWAP1 DUP2 MSTORE PUSH1 0x20 ADD PUSH0 KECCAK256 DUP1 SLOAD DUP1 PUSH1 0x20 MUL PUSH1 0x20 ADD PUSH1 0x40 MLOAD SWAP1 DUP2 ADD PUSH1 0x40 MSTORE DUP1 SWAP3 SWAP2 SWAP1 DUP2 DUP2 MSTORE PUSH1 0x20 ADD DUP3 DUP1 SLOAD DUP1 ISZERO PUSH2 0x16F7 JUMPI PUSH1 0x20 MUL DUP3 ADD SWAP2 SWAP1 PUSH0 MSTORE PUSH1 0x20 PUSH0 KECCAK256 SWAP1 JUMPDEST DUP2 SLOAD DUP2 MSTORE PUSH1 0x20 ADD SWAP1 PUSH1 0x1 ADD SWAP1 DUP1 DUP4 GT PUSH2 0x16E3 JUMPI JUMPDEST POP POP POP POP POP SWAP1 POP SWAP2 SWAP1 POP JUMP JUMPDEST PUSH1 0x6 PUSH1 0x20 MSTORE DUP2 PUSH0 MSTORE PUSH1 0x40 PUSH0 KECCAK256 PUSH1 0x20 MSTORE DUP1 PUSH0 MSTORE PUSH1 0x40 PUSH0 KECCAK256 PUSH0 SWAP2 POP SWAP2 POP SWAP1 SLOAD SWAP1 PUSH2 0x100 EXP SWAP1 DIV PUSH1 0xFF AND DUP2 JUMP JUMPDEST PUSH1 0x7 PUSH1 0x20 MSTORE DUP1 PUSH0 MSTORE PUSH1 0x40 PUSH0 KECCAK256 PUSH0 SWAP2 POP SLOAD SWAP1 PUSH2 0x100 EXP SWAP1 DIV PUSH1 0xFF AND DUP2 JUMP JUMPDEST PUSH1 0x60 PUSH0 PUSH0 SLOAD PUSH8 0xFFFFFFFFFFFFFFFF DUP2 GT ISZERO PUSH2 0x1768 JUMPI PUSH2 0x1767 PUSH2 0x23AD JUMP JUMPDEST JUMPDEST PUSH1 0x40 MLOAD SWAP1 DUP1 DUP3 MSTORE DUP1 PUSH1 0x20 MUL PUSH1 0x20 ADD DUP3 ADD PUSH1 0x40 MSTORE DUP1 ISZERO PUSH2 0x1796 JUMPI DUP2 PUSH1 0x20 ADD PUSH1 0x20 DUP3 MUL DUP1 CALLDATASIZE DUP4 CALLDATACOPY DUP1 DUP3 ADD SWAP2 POP POP SWAP1 POP JUMPDEST POP SWAP1 POP PUSH0 PUSH1 0x1 SWAP1 POP JUMPDEST PUSH0 SLOAD DUP2 GT PUSH2 0x17E6 JUMPI DUP1 DUP3 PUSH1 0x1 DUP4 PUSH2 0x17B6 SWAP2 SWAP1 PUSH2 0x29E4 JUMP JUMPDEST DUP2 MLOAD DUP2 LT PUSH2 0x17C7 JUMPI PUSH2 0x17C6 PUSH2 0x2928 JUMP JUMPDEST JUMPDEST PUSH1 0x20 MUL PUSH1 0x20 ADD ADD DUP2 DUP2 MSTORE POP POP DUP1 DUP1 PUSH2 0x17DE SWAP1 PUSH2 0x22FE JUMP JUMPDEST SWAP2 POP POP PUSH2 0x179F JUMP JUMPDEST POP DUP1 SWAP2 POP POP SWAP1 JUMP JUMPDEST PUSH0 PUSH0 PUSH0 SWAP1 POP PUSH0 PUSH1 0x1 SWAP1 POP JUMPDEST PUSH0 SLOAD DUP2 GT PUSH2 0x1868 JUMPI PUSH1 0x3 PUSH0 DUP3 DUP2 MSTORE PUSH1 0x20 ADD SWAP1 DUP2 MSTORE PUSH1 0x20 ADD PUSH0 KECCAK256 PUSH1 0x5 ADD PUSH0 SWAP1 SLOAD SWAP1 PUSH2 0x100 EXP SWAP1 DIV PUSH1 0xFF AND DUP1 ISZERO PUSH2 0x1841 JUMPI POP PUSH1 0x3 PUSH0 DUP3 DUP2 MSTORE PUSH1 0x20 ADD SWAP1 DUP2 MSTORE PUSH1 0x20 ADD PUSH0 KECCAK256 PUSH1 0x1 ADD SLOAD TIMESTAMP LT JUMPDEST ISZERO PUSH2 0x1855 JUMPI DUP2 DUP1 PUSH2 0x1851 SWAP1 PUSH2 0x22FE JUMP JUMPDEST SWAP3 POP POP JUMPDEST DUP1 DUP1 PUSH2 0x1860 SWAP1 PUSH2 0x22FE JUMP JUMPDEST SWAP2 POP POP PUSH2 0x17F9 JUMP JUMPDEST POP DUP1 SWAP2 POP POP SWAP1 JUMP JUMPDEST PUSH1 0x4 PUSH1 0x20 MSTORE DUP2 PUSH0 MSTORE PUSH1 0x40 PUSH0 KECCAK256 PUSH1 0x20 MSTORE DUP1 PUSH0 MSTORE PUSH1 0x40 PUSH0 KECCAK256 PUSH0 SWAP2 POP SWAP2 POP POP SLOAD DUP2 JUMP JUMPDEST PUSH1 0x60 PUSH1 0x9 PUSH0 DUP4 PUSH20 0xFFFFFFFFFFFFFFFFFFFFFFFFFFFFFFFFFFFFFFFF AND PUSH20 0xFFFFFFFFFFFFFFFFFFFFFFFFFFFFFFFFFFFFFFFF AND DUP2 MSTORE PUSH1 0x20 ADD SWAP1 DUP2 MSTORE PUSH1 0x20 ADD PUSH0 KECCAK256 DUP1 SLOAD DUP1 PUSH1 0x20 MUL PUSH1 0x20 ADD PUSH1 0x40 MLOAD SWAP1 DUP2 ADD PUSH1 0x40 MSTORE DUP1 SWAP3 SWAP2 SWAP1 DUP2 DUP2 MSTORE PUSH1 0x20 ADD DUP3 DUP1 SLOAD DUP1 ISZERO PUSH2 0x1917 JUMPI PUSH1 0x20 MUL DUP3 ADD SWAP2 SWAP1 PUSH0 MSTORE PUSH1 0x20 PUSH0 KECCAK256 SWAP1 JUMPDEST DUP2 SLOAD DUP2 MSTORE PUSH1 0x20 ADD SWAP1 PUSH1 0x1 ADD SWAP1 DUP1 DUP4 GT PUSH2 0x1903 JUMPI JUMPDEST POP POP POP POP POP SWAP1 POP SWAP2 SWAP1 POP JUMP JUMPDEST PUSH0 PUSH0 PUSH0 PUSH0 PUSH0 PUSH0 PUSH1 0x60 PUSH0 PUSH1 0x3 PUSH0 DUP11 DUP2 MSTORE PUSH1 0x20 ADD SWAP1 DUP2 MSTORE PUSH1 0x20 ADD PUSH0 KECCAK256 SWAP1 POP DUP1 PUSH1 0x5 ADD PUSH0 SWAP1 SLOAD SWAP1 PUSH2 0x100 EXP SWAP1 DIV PUSH1 0xFF AND PUSH2 0x198F JUMPI PUSH1 0x40 MLOAD PUSH32 0x8C379A000000000000000000000000000000000000000000000000000000000 DUP2 MSTORE PUSH1 0x4 ADD PUSH2 0x1986 SWAP1 PUSH2 0x224B JUMP JUMPDEST PUSH1 0x40 MLOAD DUP1 SWAP2 SUB SWAP1 REVERT JUMPDEST DUP1 PUSH0 ADD PUSH0 SWAP1 SLOAD SWAP1 PUSH2 0x100 EXP SWAP1 DIV PUSH20 0xFFFFFFFFFFFFFFFFFFFFFFFFFFFFFFFFFFFFFFFF AND DUP2 PUSH0 ADD PUSH1 0x14 SWAP1 SLOAD SWAP1 PUSH2 0x100 EXP SWAP1 DIV PUSH1 0xFF AND DUP3 PUSH0 ADD PUSH1 0x15 SWAP1 SLOAD SWAP1 PUSH2 0x100 EXP SWAP1 DIV PUSH1 0xFF AND DUP4 PUSH1 0x1 ADD SLOAD DUP5 PUSH1 0x2 ADD SLOAD DUP6 PUSH1 0x3 ADD SLOAD DUP7 PUSH1 0x4 ADD DUP1 DUP1 SLOAD PUSH2 0x19F3 SWAP1 PUSH2 0x2407 JUMP JUMPDEST DUP1 PUSH1 0x1F ADD PUSH1 0x20 DUP1 SWAP2 DIV MUL PUSH1 0x20 ADD PUSH1 0x40 MLOAD SWAP1 DUP2 ADD PUSH1 0x40 MSTORE DUP1 SWAP3 SWAP2 SWAP1 DUP2 DUP2 MSTORE PUSH1 0x20 ADD DUP3 DUP1 SLOAD PUSH2 0x1A1F SWAP1 PUSH2 0x2407 JUMP JUMPDEST DUP1 ISZERO PUSH2 0x1A6A JUMPI DUP1 PUSH1 0x1F LT PUSH2 0x1A41 JUMPI PUSH2 0x100 DUP1 DUP4 SLOAD DIV MUL DUP4 MSTORE SWAP2 PUSH1 0x20 ADD SWAP2 PUSH2 0x1A6A JUMP JUMPDEST DUP3 ADD SWAP2 SWAP1 PUSH0 MSTORE PUSH1 0x20 PUSH0 KECCAK256 SWAP1 JUMPDEST DUP2 SLOAD DUP2 MSTORE SWAP1 PUSH1 0x1 ADD SWAP1 PUSH1 0x20 ADD DUP1 DUP4 GT PUSH2 0x1A4D JUMPI DUP3 SWAP1 SUB PUSH1 0x1F AND DUP3 ADD SWAP2 JUMPDEST POP POP POP POP POP SWAP1 POP SWAP8 POP SWAP8 POP SWAP8 POP SWAP8 POP SWAP8 POP SWAP8 POP SWAP8 POP POP SWAP2 SWAP4 SWAP6 SWAP8 SWAP1 SWAP3 SWAP5 SWAP7 POP JUMP JUMPDEST PUSH0 PUSH1 0x5 PUSH0 DUP5 DUP2 MSTORE PUSH1 0x20 ADD SWAP1 DUP2 MSTORE PUSH1 0x20 ADD PUSH0 KECCAK256 PUSH0 DUP4 PUSH20 0xFFFFFFFFFFFFFFFFFFFFFFFFFFFFFFFFFFFFFFFF AND PUSH20 0xFFFFFFFFFFFFFFFFFFFFFFFFFFFFFFFFFFFFFFFF AND DUP2 MSTORE PUSH1 0x20 ADD SWAP1 DUP2 MSTORE PUSH1 0x20 ADD PUSH0 KECCAK256 PUSH0 SWAP1 SLOAD SWAP1 PUSH2 0x100 EXP SWAP1 DIV PUSH1 0xFF AND SWAP1 POP SWAP3 SWAP2 POP POP JUMP JUMPDEST PUSH1 0x1 SLOAD DUP2 JUMP JUMPDEST PUSH0 PUSH0 REVERT JUMPDEST PUSH0 PUSH0 REVERT JUMPDEST PUSH0 DUP2 SWAP1 POP SWAP2 SWAP1 POP JUMP JUMPDEST PUSH2 0x1B0D DUP2 PUSH2 0x1AFB JUMP JUMPDEST DUP2 EQ PUSH2 0x1B17 JUMPI PUSH0 PUSH0 REVERT JUMPDEST POP JUMP JUMPDEST PUSH0 DUP2 CALLDATALOAD SWAP1 POP PUSH2 0x1B28 DUP2 PUSH2 0x1B04 JUMP JUMPDEST SWAP3 SWAP2 POP POP JUMP JUMPDEST PUSH0 PUSH1 0x20 DUP3 DUP5 SUB SLT ISZERO PUSH2 0x1B43 JUMPI PUSH2 0x1B42 PUSH2 0x1AF3 JUMP JUMPDEST JUMPDEST PUSH0 PUSH2 0x1B50 DUP5 DUP3 DUP6 ADD PUSH2 0x1B1A JUMP JUMPDEST SWAP2 POP POP SWAP3 SWAP2 POP POP JUMP JUMPDEST PUSH1 0x3 DUP2 LT PUSH2 0x1B65 JUMPI PUSH0 PUSH0 REVERT JUMPDEST POP JUMP JUMPDEST PUSH0 DUP2 CALLDATALOAD SWAP1 POP PUSH2 0x1B76 DUP2 PUSH2 0x1B59 JUMP JUMPDEST SWAP3 SWAP2 POP POP JUMP JUMPDEST PUSH1 0xA DUP2 LT PUSH2 0x1B88 JUMPI PUSH0 PUSH0 REVERT JUMPDEST POP JUMP JUMPDEST PUSH0 DUP2 CALLDATALOAD SWAP1 POP PUSH2 0x1B99 DUP2 PUSH2 0x1B7C JUMP JUMPDEST SWAP3 SWAP2 POP POP JUMP JUMPDEST PUSH0 PUSH0 REVERT JUMPDEST PUSH0 PUSH0 REVERT JUMPDEST PUSH0 PUSH0 REVERT JUMPDEST PUSH0 PUSH0 DUP4 PUSH1 0x1F DUP5 ADD SLT PUSH2 0x1BC0 JUMPI PUSH2 0x1BBF PUSH2 0x1B9F JUMP JUMPDEST JUMPDEST DUP3 CALLDATALOAD SWAP1 POP PUSH8 0xFFFFFFFFFFFFFFFF DUP2 GT ISZERO PUSH2 0x1BDD JUMPI PUSH2 0x1BDC PUSH2 0x1BA3 JUMP JUMPDEST JUMPDEST PUSH1 0x20 DUP4 ADD SWAP2 POP DUP4 PUSH1 0x1 DUP3 MUL DUP4 ADD GT ISZERO PUSH2 0x1BF9 JUMPI PUSH2 0x1BF8 PUSH2 0x1BA7 JUMP JUMPDEST JUMPDEST SWAP3 POP SWAP3 SWAP1 POP JUMP JUMPDEST PUSH0 PUSH0 PUSH0 PUSH0 PUSH0 PUSH1 0x80 DUP7 DUP9 SUB SLT ISZERO PUSH2 0x1C19 JUMPI PUSH2 0x1C18 PUSH2 0x1AF3 JUMP JUMPDEST JUMPDEST PUSH0 PUSH2 0x1C26 DUP9 DUP3 DUP10 ADD PUSH2 0x1B68 JUMP JUMPDEST SWAP6 POP POP PUSH1 0x20 PUSH2 0x1C37 DUP9 DUP3 DUP10 ADD PUSH2 0x1B8B JUMP JUMPDEST SWAP5 POP POP PUSH1 0x40 PUSH2 0x1C48 DUP9 DUP3 DUP10 ADD PUSH2 0x1B1A JUMP JUMPDEST SWAP4 POP POP PUSH1 0x60 DUP7 ADD CALLDATALOAD PUSH8 0xFFFFFFFFFFFFFFFF DUP2 GT ISZERO PUSH2 0x1C69 JUMPI PUSH2 0x1C68 PUSH2 0x1AF7 JUMP JUMPDEST JUMPDEST PUSH2 0x1C75 DUP9 DUP3 DUP10 ADD PUSH2 0x1BAB JUMP JUMPDEST SWAP3 POP SWAP3 POP POP SWAP3 SWAP6 POP SWAP3 SWAP6 SWAP1 SWAP4 POP JUMP JUMPDEST PUSH0 PUSH20 0xFFFFFFFFFFFFFFFFFFFFFFFFFFFFFFFFFFFFFFFF DUP3 AND SWAP1 POP SWAP2 SWAP1 POP JUMP JUMPDEST PUSH0 PUSH2 0x1CAD DUP3 PUSH2 0x1C84 JUMP JUMPDEST SWAP1 POP SWAP2 SWAP1 POP JUMP JUMPDEST PUSH2 0x1CBD DUP2 PUSH2 0x1CA3 JUMP JUMPDEST DUP2 EQ PUSH2 0x1CC7 JUMPI PUSH0 PUSH0 REVERT JUMPDEST POP JUMP JUMPDEST PUSH0 DUP2 CALLDATALOAD SWAP1 POP PUSH2 0x1CD8 DUP2 PUSH2 0x1CB4 JUMP JUMPDEST SWAP3 SWAP2 POP POP JUMP JUMPDEST PUSH0 PUSH0 PUSH1 0x40 DUP4 DUP6 SUB SLT ISZERO PUSH2 0x1CF4 JUMPI PUSH2 0x1CF3 PUSH2 0x1AF3 JUMP JUMPDEST JUMPDEST PUSH0 PUSH2 0x1D01 DUP6 DUP3 DUP7 ADD PUSH2 0x1B1A JUMP JUMPDEST SWAP3 POP POP PUSH1 0x20 PUSH2 0x1D12 DUP6 DUP3 DUP7 ADD PUSH2 0x1CCA JUMP JUMPDEST SWAP2 POP POP SWAP3 POP SWAP3 SWAP1 POP JUMP JUMPDEST PUSH0 DUP2 ISZERO ISZERO SWAP1 POP SWAP2 SWAP1 POP JUMP JUMPDEST PUSH2 0x1D30 DUP2 PUSH2 0x1D1C JUMP JUMPDEST DUP3 MSTORE POP POP JUMP JUMPDEST PUSH0 PUSH1 0x20 DUP3 ADD SWAP1 POP PUSH2 0x1D49 PUSH0 DUP4 ADD DUP5 PUSH2 0x1D27 JUMP JUMPDEST SWAP3 SWAP2 POP POP JUMP JUMPDEST PUSH2 0x1D58 DUP2 PUSH2 0x1AFB JUMP JUMPDEST DUP3 MSTORE POP POP JUMP JUMPDEST PUSH0 PUSH1 0x20 DUP3 ADD SWAP1 POP PUSH2 0x1D71 PUSH0 DUP4 ADD DUP5 PUSH2 0x1D4F JUMP JUMPDEST SWAP3 SWAP2 POP POP JUMP JUMPDEST PUSH0 PUSH1 0x20 DUP3 DUP5 SUB SLT ISZERO PUSH2 0x1D8C JUMPI PUSH2 0x1D8B PUSH2 0x1AF3 JUMP JUMPDEST JUMPDEST PUSH0 PUSH2 0x1D99 DUP5 DUP3 DUP6 ADD PUSH2 0x1CCA JUMP JUMPDEST SWAP2 POP POP SWAP3 SWAP2 POP POP JUMP JUMPDEST PUSH0 DUP2 MLOAD SWAP1 POP SWAP2 SWAP1 POP JUMP JUMPDEST PUSH0 DUP3 DUP3 MSTORE PUSH1 0x20 DUP3 ADD SWAP1 POP SWAP3 SWAP2 POP POP JUMP JUMPDEST PUSH0 DUP2 SWAP1 POP PUSH1 0x20 DUP3 ADD SWAP1 POP SWAP2 SWAP1 POP JUMP JUMPDEST PUSH2 0x1DD4 DUP2 PUSH2 0x1AFB JUMP JUMPDEST DUP3 MSTORE POP POP JUMP JUMPDEST PUSH0 PUSH2 0x1DE5 DUP4 DUP4 PUSH2 0x1DCB JUMP JUMPDEST PUSH1 0x20 DUP4 ADD SWAP1 POP SWAP3 SWAP2 POP POP JUMP JUMPDEST PUSH0 PUSH1 0x20 DUP3 ADD SWAP1 POP SWAP2 SWAP1 POP JUMP JUMPDEST PUSH0 PUSH2 0x1E07 DUP3 PUSH2 0x1DA2 JUMP JUMPDEST PUSH2 0x1E11 DUP2 DUP6 PUSH2 0x1DAC JUMP JUMPDEST SWAP4 POP PUSH2 0x1E1C DUP4 PUSH2 0x1DBC JUMP JUMPDEST DUP1 PUSH0 JUMPDEST DUP4 DUP2 LT ISZERO PUSH2 0x1E4C JUMPI DUP2 MLOAD PUSH2 0x1E33 DUP9 DUP3 PUSH2 0x1DDA JUMP JUMPDEST SWAP8 POP PUSH2 0x1E3E DUP4 PUSH2 0x1DF1 JUMP JUMPDEST SWAP3 POP POP PUSH1 0x1 DUP2 ADD SWAP1 POP PUSH2 0x1E1F JUMP JUMPDEST POP DUP6 SWAP4 POP POP POP POP SWAP3 SWAP2 POP POP JUMP JUMPDEST PUSH0 PUSH1 0x20 DUP3 ADD SWAP1 POP DUP2 DUP2 SUB PUSH0 DUP4 ADD MSTORE PUSH2 0x1E71 DUP2 DUP5 PUSH2 0x1DFD JUMP JUMPDEST SWAP1 POP SWAP3 SWAP2 POP POP JUMP JUMPDEST PUSH0 PUSH0 DUP4 PUSH1 0x1F DUP5 ADD SLT PUSH2 0x1E8E JUMPI PUSH2 0x1E8D PUSH2 0x1B9F JUMP JUMPDEST JUMPDEST DUP3 CALLDATALOAD SWAP1 POP PUSH8 0xFFFFFFFFFFFFFFFF DUP2 GT ISZERO PUSH2 0x1EAB JUMPI PUSH2 0x1EAA PUSH2 0x1BA3 JUMP JUMPDEST JUMPDEST PUSH1 0x20 DUP4 ADD SWAP2 POP DUP4 PUSH1 0x20 DUP3 MUL DUP4 ADD GT ISZERO PUSH2 0x1EC7 JUMPI PUSH2 0x1EC6 PUSH2 0x1BA7 JUMP JUMPDEST JUMPDEST SWAP3 POP SWAP3 SWAP1 POP JUMP JUMPDEST PUSH0 PUSH0 PUSH0 PUSH1 0x40 DUP5 DUP7 SUB SLT ISZERO PUSH2 0x1EE5 JUMPI PUSH2 0x1EE4 PUSH2 0x1AF3 JUMP JUMPDEST JUMPDEST PUSH0 PUSH2 0x1EF2 DUP7 DUP3 DUP8 ADD PUSH2 0x1B1A JUMP JUMPDEST SWAP4 POP POP PUSH1 0x20 DUP5 ADD CALLDATALOAD PUSH8 0xFFFFFFFFFFFFFFFF DUP2 GT ISZERO PUSH2 0x1F13 JUMPI PUSH2 0x1F12 PUSH2 0x1AF7 JUMP JUMPDEST JUMPDEST PUSH2 0x1F1F DUP7 DUP3 DUP8 ADD PUSH2 0x1E79 JUMP JUMPDEST SWAP3 POP SWAP3 POP POP SWAP3 POP SWAP3 POP SWAP3 JUMP JUMPDEST PUSH2 0x1F34 DUP2 PUSH2 0x1CA3 JUMP JUMPDEST DUP3 MSTORE POP POP JUMP JUMPDEST PUSH32 0x4E487B7100000000000000000000000000000000000000000000000000000000 PUSH0 MSTORE PUSH1 0x21 PUSH1 0x4 MSTORE PUSH1 0x24 PUSH0 REVERT JUMPDEST PUSH1 0x3 DUP2 LT PUSH2 0x1F78 JUMPI PUSH2 0x1F77 PUSH2 0x1F3A JUMP JUMPDEST JUMPDEST POP JUMP JUMPDEST PUSH0 DUP2 SWAP1 POP PUSH2 0x1F88 DUP3 PUSH2 0x1F67 JUMP JUMPDEST SWAP2 SWAP1 POP JUMP JUMPDEST PUSH0 PUSH2 0x1F97 DUP3 PUSH2 0x1F7B JUMP JUMPDEST SWAP1 POP SWAP2 SWAP1 POP JUMP JUMPDEST PUSH2 0x1FA7 DUP2 PUSH2 0x1F8D JUMP JUMPDEST DUP3 MSTORE POP POP JUMP JUMPDEST PUSH1 0xA DUP2 LT PUSH2 0x1FBE JUMPI PUSH2 0x1FBD PUSH2 0x1F3A JUMP JUMPDEST JUMPDEST POP JUMP JUMPDEST PUSH0 DUP2 SWAP1 POP PUSH2 0x1FCE DUP3 PUSH2 0x1FAD JUMP JUMPDEST SWAP2 SWAP1 POP JUMP JUMPDEST PUSH0 PUSH2 0x1FDD DUP3 PUSH2 0x1FC1 JUMP JUMPDEST SWAP1 POP SWAP2 SWAP1 POP JUMP JUMPDEST PUSH2 0x1FED DUP2 PUSH2 0x1FD3 JUMP JUMPDEST DUP3 MSTORE POP POP JUMP JUMPDEST PUSH0 DUP2 MLOAD SWAP1 POP SWAP2 SWAP1 POP JUMP JUMPDEST PUSH0 DUP3 DUP3 MSTORE PUSH1 0x20 DUP3 ADD SWAP1 POP SWAP3 SWAP2 POP POP JUMP JUMPDEST DUP3 DUP2 DUP4 MCOPY PUSH0 DUP4 DUP4 ADD MSTORE POP POP POP JUMP JUMPDEST PUSH0 PUSH1 0x1F NOT PUSH1 0x1F DUP4 ADD AND SWAP1 POP SWAP2 SWAP1 POP JUMP JUMPDEST PUSH0 PUSH2 0x2035 DUP3 PUSH2 0x1FF3 JUMP JUMPDEST PUSH2 0x203F DUP2 DUP6 PUSH2 0x1FFD JUMP JUMPDEST SWAP4 POP PUSH2 0x204F DUP2 DUP6 PUSH1 0x20 DUP7 ADD PUSH2 0x200D JUMP JUMPDEST PUSH2 0x2058 DUP2 PUSH2 0x201B JUMP JUMPDEST DUP5 ADD SWAP2 POP POP SWAP3 SWAP2 POP POP JUMP JUMPDEST PUSH0 PUSH2 0x100 DUP3 ADD SWAP1 POP PUSH2 0x2077 PUSH0 DUP4 ADD DUP12 PUSH2 0x1F2B JUMP JUMPDEST PUSH2 0x2084 PUSH1 0x20 DUP4 ADD DUP11 PUSH2 0x1F9E JUMP JUMPDEST PUSH2 0x2091 PUSH1 0x40 DUP4 ADD DUP10 PUSH2 0x1FE4 JUMP JUMPDEST PUSH2 0x209E PUSH1 0x60 DUP4 ADD DUP9 PUSH2 0x1D4F JUMP JUMPDEST PUSH2 0x20AB PUSH1 0x80 DUP4 ADD DUP8 PUSH2 0x1D4F JUMP JUMPDEST PUSH2 0x20B8 PUSH1 0xA0 DUP4 ADD DUP7 PUSH2 0x1D4F JUMP JUMPDEST DUP2 DUP2 SUB PUSH1 0xC0 DUP4 ADD MSTORE PUSH2 0x20CA DUP2 DUP6 PUSH2 0x202B JUMP JUMPDEST SWAP1 POP PUSH2 0x20D9 PUSH1 0xE0 DUP4 ADD DUP5 PUSH2 0x1D27 JUMP JUMPDEST SWAP10 SWAP9 POP POP POP POP POP POP POP POP POP JUMP JUMPDEST PUSH0 PUSH0 PUSH1 0x40 DUP4 DUP6 SUB SLT ISZERO PUSH2 0x20FC JUMPI PUSH2 0x20FB PUSH2 0x1AF3 JUMP JUMPDEST JUMPDEST PUSH0 PUSH2 0x2109 DUP6 DUP3 DUP7 ADD PUSH2 0x1B1A JUMP JUMPDEST SWAP3 POP POP PUSH1 0x20 PUSH2 0x211A DUP6 DUP3 DUP7 ADD PUSH2 0x1B1A JUMP JUMPDEST SWAP2 POP POP SWAP3 POP SWAP3 SWAP1 POP JUMP JUMPDEST PUSH0 PUSH0 PUSH1 0x40 DUP4 DUP6 SUB SLT ISZERO PUSH2 0x213A JUMPI PUSH2 0x2139 PUSH2 0x1AF3 JUMP JUMPDEST JUMPDEST PUSH0 PUSH2 0x2147 DUP6 DUP3 DUP7 ADD PUSH2 0x1CCA JUMP JUMPDEST SWAP3 POP POP PUSH1 0x20 PUSH2 0x2158 DUP6 DUP3 DUP7 ADD PUSH2 0x1B1A JUMP JUMPDEST SWAP2 POP POP SWAP3 POP SWAP3 SWAP1 POP JUMP JUMPDEST PUSH0 PUSH1 0x20 DUP3 DUP5 SUB SLT ISZERO PUSH2 0x2177 JUMPI PUSH2 0x2176 PUSH2 0x1AF3 JUMP JUMPDEST JUMPDEST PUSH0 PUSH2 0x2184 DUP5 DUP3 DUP6 ADD PUSH2 0x1B8B JUMP JUMPDEST SWAP2 POP POP SWAP3 SWAP2 POP POP JUMP JUMPDEST PUSH0 PUSH1 0xE0 DUP3 ADD SWAP1 POP PUSH2 0x21A0 PUSH0 DUP4 ADD DUP11 PUSH2 0x1F2B JUMP JUMPDEST PUSH2 0x21AD PUSH1 0x20 DUP4 ADD DUP10 PUSH2 0x1F9E JUMP JUMPDEST PUSH2 0x21BA PUSH1 0x40 DUP4 ADD DUP9 PUSH2 0x1FE4 JUMP JUMPDEST PUSH2 0x21C7 PUSH1 0x60 DUP4 ADD DUP8 PUSH2 0x1D4F JUMP JUMPDEST PUSH2 0x21D4 PUSH1 0x80 DUP4 ADD DUP7 PUSH2 0x1D4F JUMP JUMPDEST PUSH2 0x21E1 PUSH1 0xA0 DUP4 ADD DUP6 PUSH2 0x1D4F JUMP JUMPDEST DUP2 DUP2 SUB PUSH1 0xC0 DUP4 ADD MSTORE PUSH2 0x21F3 DUP2 DUP5 PUSH2 0x202B JUMP JUMPDEST SWAP1 POP SWAP9 SWAP8 POP POP POP POP POP POP POP POP JUMP JUMPDEST PUSH32 0x5175657374696F6E206E6F7420666F756E640000000000000000000000000000 PUSH0 DUP3 ADD MSTORE POP JUMP JUMPDEST PUSH0 PUSH2 0x2235 PUSH1 0x12 DUP4 PUSH2 0x1FFD JUMP JUMPDEST SWAP2 POP PUSH2 0x2240 DUP3 PUSH2 0x2201 JUMP JUMPDEST PUSH1 0x20 DUP3 ADD SWAP1 POP SWAP2 SWAP1 POP JUMP JUMPDEST PUSH0 PUSH1 0x20 DUP3 ADD SWAP1 POP DUP2 DUP2 SUB PUSH0 DUP4 ADD MSTORE PUSH2 0x2262 DUP2 PUSH2 0x2229 JUMP JUMPDEST SWAP1 POP SWAP2 SWAP1 POP JUMP JUMPDEST PUSH32 0x416C7265616479207570766F7465640000000000000000000000000000000000 PUSH0 DUP3 ADD MSTORE POP JUMP JUMPDEST PUSH0 PUSH2 0x229D PUSH1 0xF DUP4 PUSH2 0x1FFD JUMP JUMPDEST SWAP2 POP PUSH2 0x22A8 DUP3 PUSH2 0x2269 JUMP JUMPDEST PUSH1 0x20 DUP3 ADD SWAP1 POP SWAP2 SWAP1 POP JUMP JUMPDEST PUSH0 PUSH1 0x20 DUP3 ADD SWAP1 POP DUP2 DUP2 SUB PUSH0 DUP4 ADD MSTORE PUSH2 0x22CA DUP2 PUSH2 0x2291 JUMP JUMPDEST SWAP1 POP SWAP2 SWAP1 POP JUMP JUMPDEST PUSH32 0x4E487B7100000000000000000000000000000000000000000000000000000000 PUSH0 MSTORE PUSH1 0x11 PUSH1 0x4 MSTORE PUSH1 0x24 PUSH0 REVERT JUMPDEST PUSH0 PUSH2 0x2308 DUP3 PUSH2 0x1AFB JUMP JUMPDEST SWAP2 POP PUSH32 0xFFFFFFFFFFFFFFFFFFFFFFFFFFFFFFFFFFFFFFFFFFFFFFFFFFFFFFFFFFFFFFFF DUP3 SUB PUSH2 0x233A JUMPI PUSH2 0x2339 PUSH2 0x22D1 JUMP JUMPDEST JUMPDEST PUSH1 0x1 DUP3 ADD SWAP1 POP SWAP2 SWAP1 POP JUMP JUMPDEST PUSH32 0x496E76616C696420646561646C696E6500000000000000000000000000000000 PUSH0 DUP3 ADD MSTORE POP JUMP JUMPDEST PUSH0 PUSH2 0x2379 PUSH1 0x10 DUP4 PUSH2 0x1FFD JUMP JUMPDEST SWAP2 POP PUSH2 0x2384 DUP3 PUSH2 0x2345 JUMP JUMPDEST PUSH1 0x20 DUP3 ADD SWAP1 POP SWAP2 SWAP1 POP JUMP JUMPDEST PUSH0 PUSH1 0x20 DUP3 ADD SWAP1 POP DUP2 DUP2 SUB PUSH0 DUP4 ADD MSTORE PUSH2 0x23A6 DUP2 PUSH2 0x236D JUMP JUMPDEST SWAP1 POP SWAP2 SWAP1 POP JUMP JUMPDEST PUSH32 0x4E487B7100000000000000000000000000000000000000000000000000000000 PUSH0 MSTORE PUSH1 0x41 PUSH1 0x4 MSTORE PUSH1 0x24 PUSH0 REVERT JUMPDEST PUSH32 0x4E487B7100000000000000000000000000000000000000000000000000000000 PUSH0 MSTORE PUSH1 0x22 PUSH1 0x4 MSTORE PUSH1 0x24 PUSH0 REVERT JUMPDEST PUSH0 PUSH1 0x2 DUP3 DIV SWAP1 POP PUSH1 0x1 DUP3 AND DUP1 PUSH2 0x241E JUMPI PUSH1 0x7F DUP3 AND SWAP2 POP JUMPDEST PUSH1 0x20 DUP3 LT DUP2 SUB PUSH2 0x2431 JUMPI PUSH2 0x2430 PUSH2 0x23DA JUMP JUMPDEST JUMPDEST POP SWAP2 SWAP1 POP JUMP JUMPDEST PUSH0 DUP2 SWAP1 POP DUP2 PUSH0 MSTORE PUSH1 0x20 PUSH0 KECCAK256 SWAP1 POP SWAP2 SWAP1 POP JUMP JUMPDEST PUSH0 PUSH1 0x20 PUSH1 0x1F DUP4 ADD DIV SWAP1 POP SWAP2 SWAP1 POP JUMP JUMPDEST PUSH0 DUP3 DUP3 SHL SWAP1 POP SWAP3 SWAP2 POP POP JUMP JUMPDEST PUSH0 PUSH1 0x8 DUP4 MUL PUSH2 0x2493 PUSH32 0xFFFFFFFFFFFFFFFFFFFFFFFFFFFFFFFFFFFFFFFFFFFFFFFFFFFFFFFFFFFFFFFF DUP3 PUSH2 0x2458 JUMP JUMPDEST PUSH2 0x249D DUP7 DUP4 PUSH2 0x2458 JUMP JUMPDEST SWAP6 POP DUP1 NOT DUP5 AND SWAP4 POP DUP1 DUP7 AND DUP5 OR SWAP3 POP POP POP SWAP4 SWAP3 POP POP POP JUMP JUMPDEST PUSH0 DUP2 SWAP1 POP SWAP2 SWAP1 POP JUMP JUMPDEST PUSH0 PUSH2 0x24D8 PUSH2 0x24D3 PUSH2 0x24CE DUP5 PUSH2 0x1AFB JUMP JUMPDEST PUSH2 0x24B5 JUMP JUMPDEST PUSH2 0x1AFB JUMP JUMPDEST SWAP1 POP SWAP2 SWAP1 POP JUMP JUMPDEST PUSH0 DUP2 SWAP1 POP SWAP2 SWAP1 POP JUMP JUMPDEST PUSH2 0x24F1 DUP4 PUSH2 0x24BE JUMP JUMPDEST PUSH2 0x2505 PUSH2 0x24FD DUP3 PUSH2 0x24DF JUMP JUMPDEST DUP5 DUP5 SLOAD PUSH2 0x2464 JUMP JUMPDEST DUP3 SSTORE POP POP POP POP JUMP JUMPDEST PUSH0 PUSH0 SWAP1 POP SWAP1 JUMP JUMPDEST PUSH2 0x251C PUSH2 0x250D JUMP JUMPDEST PUSH2 0x2527 DUP2 DUP5 DUP5 PUSH2 0x24E8 JUMP JUMPDEST POP POP POP JUMP JUMPDEST JUMPDEST DUP2 DUP2 LT ISZERO PUSH2 0x254A JUMPI PUSH2 0x253F PUSH0 DUP3 PUSH2 0x2514 JUMP JUMPDEST PUSH1 0x1 DUP2 ADD SWAP1 POP PUSH2 0x252D JUMP JUMPDEST POP POP JUMP JUMPDEST PUSH1 0x1F DUP3 GT ISZERO PUSH2 0x258F JUMPI PUSH2 0x2560 DUP2 PUSH2 0x2437 JUMP JUMPDEST PUSH2 0x2569 DUP5 PUSH2 0x2449 JUMP JUMPDEST DUP2 ADD PUSH1 0x20 DUP6 LT ISZERO PUSH2 0x2578 JUMPI DUP2 SWAP1 POP JUMPDEST PUSH2 0x258C PUSH2 0x2584 DUP6 PUSH2 0x2449 JUMP JUMPDEST DUP4 ADD DUP3 PUSH2 0x252C JUMP JUMPDEST POP POP JUMPDEST POP POP POP JUMP JUMPDEST PUSH0 DUP3 DUP3 SHR SWAP1 POP SWAP3 SWAP2 POP POP JUMP JUMPDEST PUSH0 PUSH2 0x25AF PUSH0 NOT DUP5 PUSH1 0x8 MUL PUSH2 0x2594 JUMP JUMPDEST NOT DUP1 DUP4 AND SWAP2 POP POP SWAP3 SWAP2 POP POP JUMP JUMPDEST PUSH0 PUSH2 0x25C7 DUP4 DUP4 PUSH2 0x25A0 JUMP JUMPDEST SWAP2 POP DUP3 PUSH1 0x2 MUL DUP3 OR SWAP1 POP SWAP3 SWAP2 POP POP JUMP JUMPDEST PUSH2 0x25E0 DUP3 PUSH2 0x1FF3 JUMP JUMPDEST PUSH8 0xFFFFFFFFFFFFFFFF DUP2 GT ISZERO PUSH2 0x25F9 JUMPI PUSH2 0x25F8 PUSH2 0x23AD JUMP JUMPDEST JUMPDEST PUSH2 0x2603 DUP3 SLOAD PUSH2 0x2407 JUMP JUMPDEST PUSH2 0x260E DUP3 DUP3 DUP6 PUSH2 0x254E JUMP JUMPDEST PUSH0 PUSH1 0x20 SWAP1 POP PUSH1 0x1F DUP4 GT PUSH1 0x1 DUP2 EQ PUSH2 0x263F JUMPI PUSH0 DUP5 ISZERO PUSH2 0x262D JUMPI DUP3 DUP8 ADD MLOAD SWAP1 POP JUMPDEST PUSH2 0x2637 DUP6 DUP3 PUSH2 0x25BC JUMP JUMPDEST DUP7 SSTORE POP PUSH2 0x269E JUMP JUMPDEST PUSH1 0x1F NOT DUP5 AND PUSH2 0x264D DUP7 PUSH2 0x2437 JUMP JUMPDEST PUSH0 JUMPDEST DUP3 DUP2 LT ISZERO PUSH2 0x2674 JUMPI DUP5 DUP10 ADD MLOAD DUP3 SSTORE PUSH1 0x1 DUP3 ADD SWAP2 POP PUSH1 0x20 DUP6 ADD SWAP5 POP PUSH1 0x20 DUP2 ADD SWAP1 POP PUSH2 0x264F JUMP JUMPDEST DUP7 DUP4 LT ISZERO PUSH2 0x2691 JUMPI DUP5 DUP10 ADD MLOAD PUSH2 0x268D PUSH1 0x1F DUP10 AND DUP3 PUSH2 0x25A0 JUMP JUMPDEST DUP4 SSTORE POP JUMPDEST PUSH1 0x1 PUSH1 0x2 DUP9 MUL ADD DUP9 SSTORE POP POP POP JUMPDEST POP POP POP POP POP POP JUMP JUMPDEST PUSH0 PUSH1 0xFF DUP3 AND SWAP1 POP SWAP2 SWAP1 POP JUMP JUMPDEST PUSH2 0x26BB DUP2 PUSH2 0x26A6 JUMP JUMPDEST DUP3 MSTORE POP POP JUMP JUMPDEST DUP3 DUP2 DUP4 CALLDATACOPY PUSH0 DUP4 DUP4 ADD MSTORE POP POP POP JUMP JUMPDEST PUSH0 PUSH2 0x26DA DUP4 DUP6 PUSH2 0x1FFD JUMP JUMPDEST SWAP4 POP PUSH2 0x26E7 DUP4 DUP6 DUP5 PUSH2 0x26C1 JUMP JUMPDEST PUSH2 0x26F0 DUP4 PUSH2 0x201B JUMP JUMPDEST DUP5 ADD SWAP1 POP SWAP4 SWAP3 POP POP POP JUMP JUMPDEST PUSH0 PUSH1 0xA0 DUP3 ADD SWAP1 POP PUSH2 0x270E PUSH0 DUP4 ADD DUP10 PUSH2 0x26B2 JUMP JUMPDEST PUSH2 0x271B PUSH1 0x20 DUP4 ADD DUP9 PUSH2 0x26B2 JUMP JUMPDEST PUSH2 0x2728 PUSH1 0x40 DUP4 ADD DUP8 PUSH2 0x1D4F JUMP JUMPDEST PUSH2 0x2735 PUSH1 0x60 DUP4 ADD DUP7 PUSH2 0x1D4F JUMP JUMPDEST DUP2 DUP2 SUB PUSH1 0x80 DUP4 ADD MSTORE PUSH2 0x2748 DUP2 DUP5 DUP7 PUSH2 0x26CF JUMP JUMPDEST SWAP1 POP SWAP8 SWAP7 POP POP POP POP POP POP POP JUMP JUMPDEST PUSH32 0x566F74696E6720656E6465640000000000000000000000000000000000000000 PUSH0 DUP3 ADD MSTORE POP JUMP JUMPDEST PUSH0 PUSH2 0x2789 PUSH1 0xC DUP4 PUSH2 0x1FFD JUMP JUMPDEST SWAP2 POP PUSH2 0x2794 DUP3 PUSH2 0x2755 JUMP JUMPDEST PUSH1 0x20 DUP3 ADD SWAP1 POP SWAP2 SWAP1 POP JUMP JUMPDEST PUSH0 PUSH1 0x20 DUP3 ADD SWAP1 POP DUP2 DUP2 SUB PUSH0 DUP4 ADD MSTORE PUSH2 0x27B6 DUP2 PUSH2 0x277D JUMP JUMPDEST SWAP1 POP SWAP2 SWAP1 POP JUMP JUMPDEST PUSH32 0x416C726561647920766F74656400000000000000000000000000000000000000 PUSH0 DUP3 ADD MSTORE POP JUMP JUMPDEST PUSH0 PUSH2 0x27F1 PUSH1 0xD DUP4 PUSH2 0x1FFD JUMP JUMPDEST SWAP2 POP PUSH2 0x27FC DUP3 PUSH2 0x27BD JUMP JUMPDEST PUSH1 0x20 DUP3 ADD SWAP1 POP SWAP2 SWAP1 POP JUMP JUMPDEST PUSH0 PUSH1 0x20 DUP3 ADD SWAP1 POP DUP2 DUP2 SUB PUSH0 DUP4 ADD MSTORE PUSH2 0x281E DUP2 PUSH2 0x27E5 JUMP JUMPDEST SWAP1 POP SWAP2 SWAP1 POP JUMP JUMPDEST PUSH32 0x4E6F74206D756C7469706C652063686F69636500000000000000000000000000 PUSH0 DUP3 ADD MSTORE POP JUMP JUMPDEST PUSH0 PUSH2 0x2859 PUSH1 0x13 DUP4 PUSH2 0x1FFD JUMP JUMPDEST SWAP2 POP PUSH2 0x2864 DUP3 PUSH2 0x2825 JUMP JUMPDEST PUSH1 0x20 DUP3 ADD SWAP1 POP SWAP2 SWAP1 POP JUMP JUMPDEST PUSH0 PUSH1 0x20 DUP3 ADD SWAP1 POP DUP2 DUP2 SUB PUSH0 DUP4 ADD MSTORE PUSH2 0x2886 DUP2 PUSH2 0x284D JUMP JUMPDEST SWAP1 POP SWAP2 SWAP1 POP JUMP JUMPDEST PUSH32 0x4E6F206F7074696F6E732073656C656374656400000000000000000000000000 PUSH0 DUP3 ADD MSTORE POP JUMP JUMPDEST PUSH0 PUSH2 0x28C1 PUSH1 0x13 DUP4 PUSH2 0x1FFD JUMP JUMPDEST SWAP2 POP PUSH2 0x28CC DUP3 PUSH2 0x288D JUMP JUMPDEST PUSH1 0x20 DUP3 ADD SWAP1 POP SWAP2 SWAP1 POP JUMP JUMPDEST PUSH0 PUSH1 0x20 DUP3 ADD SWAP1 POP DUP2 DUP2 SUB PUSH0 DUP4 ADD MSTORE PUSH2 0x28EE DUP2 PUSH2 0x28B5 JUMP JUMPDEST SWAP1 POP SWAP2 SWAP1 POP JUMP JUMPDEST PUSH0 PUSH2 0x28FF DUP3 PUSH2 0x1AFB JUMP JUMPDEST SWAP2 POP PUSH2 0x290A DUP4 PUSH2 0x1AFB JUMP JUMPDEST SWAP3 POP DUP3 DUP3 ADD SWAP1 POP DUP1 DUP3 GT ISZERO PUSH2 0x2922 JUMPI PUSH2 0x2921 PUSH2 0x22D1 JUMP JUMPDEST JUMPDEST SWAP3 SWAP2 POP POP JUMP JUMPDEST PUSH32 0x4E487B7100000000000000000000000000000000000000000000000000000000 PUSH0 MSTORE PUSH1 0x32 PUSH1 0x4 MSTORE PUSH1 0x24 PUSH0 REVERT JUMPDEST PUSH0 PUSH1 0x40 DUP3 ADD SWAP1 POP PUSH2 0x2968 PUSH0 DUP4 ADD DUP6 PUSH2 0x1D4F JUMP JUMPDEST PUSH2 0x2975 PUSH1 0x20 DUP4 ADD DUP5 PUSH2 0x1D4F JUMP JUMPDEST SWAP4 SWAP3 POP POP POP JUMP JUMPDEST PUSH32 0x496E76616C696420766F74652074797065000000000000000000000000000000 PUSH0 DUP3 ADD MSTORE POP JUMP JUMPDEST PUSH0 PUSH2 0x29B0 PUSH1 0x11 DUP4 PUSH2 0x1FFD JUMP JUMPDEST SWAP2 POP PUSH2 0x29BB DUP3 PUSH2 0x297C JUMP JUMPDEST PUSH1 0x20 DUP3 ADD SWAP1 POP SWAP2 SWAP1 POP JUMP JUMPDEST PUSH0 PUSH1 0x20 DUP3 ADD SWAP1 POP DUP2 DUP2 SUB PUSH0 DUP4 ADD MSTORE PUSH2 0x29DD DUP2 PUSH2 0x29A4 JUMP JUMPDEST SWAP1 POP SWAP2 SWAP1 POP JUMP JUMPDEST PUSH0 PUSH2 0x29EE DUP3 PUSH2 0x1AFB JUMP JUMPDEST SWAP2 POP PUSH2 0x29F9 DUP4 PUSH2 0x1AFB JUMP JUMPDEST SWAP3 POP DUP3 DUP3 SUB SWAP1 POP DUP2 DUP2 GT ISZERO PUSH2 0x2A11 JUMPI PUSH2 0x2A10 PUSH2 0x22D1 JUMP JUMPDEST JUMPDEST SWAP3 SWAP2 POP POP JUMP INVALID LOG2 PUSH5 0x6970667358 0x22 SLT KECCAK256 MSTORE8 PUSH9 0xA20F3CFF21EF42E5D4 RETURNDATACOPY PC RJUMPI 0xE604 0x28 SWAP6 GASPRICE 0x4E 0xCC 0xB0 DUP11 0x24 JUMPDEST 0xF6 0x26 MCOPY STOP 0xF7 0xF6 SAR PUSH5 0x736F6C6343 STOP ADDMOD 0x1F STOP CALLER "
		},
		"gasEstimates": {
			"creation": {
				"codeDepositCost": "2165800",
				"executionCost": "2307",
				"totalCost": "2168107"
			},
			"external": {
				"createQuestion(uint8,uint8,uint256,string)": "infinite",
				"getActiveQuestionsCount()": "infinite",
				"getAllQuestionIds()": "infinite",
				"getAllQuestionIdsInCategory(uint8)": "infinite",
				"getQuestion(uint256)": "infinite",
				"getQuestionsByCategory(uint8)": "infinite",
				"getUserUpvotedQuestions(address)": "infinite",
				"getUserVotedQuestions(address)": "infinite",
				"hasUpvoted(uint256,address)": "3181",
				"hasUserUpvoted(uint256,address)": "3184",
				"hasUserVoted(uint256,address)": "3204",
				"hasVoted(uint256,address)": "3181",
				"isVoter(address)": "2966",
				"isVotingActive(uint256)": "2919",
				"questionCount()": "2514",
				"questions(uint256)": "infinite",
				"questionsByCategory(uint256,uint256)": "infinite",
				"totalVotersCount()": "2492",
				"totalVotesCount()": "2535",
				"upvote(uint256)": "infinite",
				"userUpvotedQuestions(address,uint256)": "infinite",
				"userVotedQuestions(address,uint256)": "infinite",
				"voteMultiple(uint256,uint256[])": "infinite",
				"voteSingle(uint256,uint256)": "infinite",
				"votes(uint256,uint256)": "infinite"
			}
		},
		"methodIdentifiers": {
			"createQuestion(uint8,uint8,uint256,string)": "03005447",
			"getActiveQuestionsCount()": "c5bb3449",
			"getAllQuestionIds()": "afb61cda",
			"getAllQuestionIdsInCategory(uint8)": "9474cf16",
			"getQuestion(uint256)": "db88176f",
			"getQuestionsByCategory(uint8)": "9285eb88",
			"getUserUpvotedQuestions(address)": "d99cc90b",
			"getUserVotedQuestions(address)": "16f3d5a5",
			"hasUpvoted(uint256,address)": "a52c8658",
			"hasUserUpvoted(uint256,address)": "032e373f",
			"hasUserVoted(uint256,address)": "dc296ae1",
			"hasVoted(uint256,address)": "43859632",
			"isVoter(address)": "a7771ee3",
			"isVotingActive(uint256)": "772744b5",
			"questionCount()": "1468aa2c",
			"questions(uint256)": "31b1b978",
			"questionsByCategory(uint256,uint256)": "406acf81",
			"totalVotersCount()": "3fe46043",
			"totalVotesCount()": "f396d674",
			"upvote(uint256)": "01ddf070",
			"userUpvotedQuestions(address,uint256)": "8270c706",
			"userVotedQuestions(address,uint256)": "8aee5f20",
			"voteMultiple(uint256,uint256[])": "20854a58",
			"voteSingle(uint256,uint256)": "3781c2d8",
			"votes(uint256,uint256)": "c6e36a32"
		}
	},
	"abi": [
		{
			"anonymous": false,
			"inputs": [
				{
					"indexed": true,
					"internalType": "uint256",
					"name": "questionId",
					"type": "uint256"
				},
				{
					"indexed": true,
					"internalType": "address",
					"name": "creator",
					"type": "address"
				},
				{
					"indexed": false,
					"internalType": "uint8",
					"name": "questionType",
					"type": "uint8"
				},
				{
					"indexed": false,
					"internalType": "uint8",
					"name": "category",
					"type": "uint8"
				},
				{
					"indexed": false,
					"internalType": "uint256",
					"name": "deadline",
					"type": "uint256"
				},
				{
					"indexed": false,
					"internalType": "uint256",
					"name": "createdAt",
					"type": "uint256"
				},
				{
					"indexed": false,
					"internalType": "string",
					"name": "ipfsCID",
					"type": "string"
				}
			],
			"name": "QuestionCreated",
			"type": "event"
		},
		{
			"anonymous": false,
			"inputs": [
				{
					"indexed": true,
					"internalType": "uint256",
					"name": "questionId",
					"type": "uint256"
				},
				{
					"indexed": true,
					"internalType": "address",
					"name": "user",
					"type": "address"
				},
				{
					"indexed": false,
					"internalType": "uint256",
					"name": "timestamp",
					"type": "uint256"
				}
			],
			"name": "Upvoted",
			"type": "event"
		},
		{
			"anonymous": false,
			"inputs": [
				{
					"indexed": true,
					"internalType": "uint256",
					"name": "questionId",
					"type": "uint256"
				},
				{
					"indexed": true,
					"internalType": "address",
					"name": "voter",
					"type": "address"
				},
				{
					"indexed": false,
					"internalType": "uint256",
					"name": "optionIndex",
					"type": "uint256"
				},
				{
					"indexed": false,
					"internalType": "uint256",
					"name": "timestamp",
					"type": "uint256"
				}
			],
			"name": "VoteCast",
			"type": "event"
		},
		{
			"inputs": [
				{
					"internalType": "enum Polling.QuestionType",
					"name": "_questionType",
					"type": "uint8"
				},
				{
					"internalType": "enum Polling.Category",
					"name": "_category",
					"type": "uint8"
				},
				{
					"internalType": "uint256",
					"name": "_deadline",
					"type": "uint256"
				},
				{
					"internalType": "string",
					"name": "_ipfsCID",
					"type": "string"
				}
			],
			"name": "createQuestion",
			"outputs": [],
			"stateMutability": "nonpayable",
			"type": "function"
		},
		{
			"inputs": [],
			"name": "getActiveQuestionsCount",
			"outputs": [
				{
					"internalType": "uint256",
					"name": "",
					"type": "uint256"
				}
			],
			"stateMutability": "view",
			"type": "function"
		},
		{
			"inputs": [],
			"name": "getAllQuestionIds",
			"outputs": [
				{
					"internalType": "uint256[]",
					"name": "",
					"type": "uint256[]"
				}
			],
			"stateMutability": "view",
			"type": "function"
		},
		{
			"inputs": [
				{
					"internalType": "enum Polling.Category",
					"name": "_category",
					"type": "uint8"
				}
			],
			"name": "getAllQuestionIdsInCategory",
			"outputs": [
				{
					"internalType": "uint256[]",
					"name": "",
					"type": "uint256[]"
				}
			],
			"stateMutability": "view",
			"type": "function"
		},
		{
			"inputs": [
				{
					"internalType": "uint256",
					"name": "_questionId",
					"type": "uint256"
				}
			],
			"name": "getQuestion",
			"outputs": [
				{
					"internalType": "address",
					"name": "creator",
					"type": "address"
				},
				{
					"internalType": "enum Polling.QuestionType",
					"name": "questionType",
					"type": "uint8"
				},
				{
					"internalType": "enum Polling.Category",
					"name": "category",
					"type": "uint8"
				},
				{
					"internalType": "uint256",
					"name": "deadline",
					"type": "uint256"
				},
				{
					"internalType": "uint256",
					"name": "upvotes",
					"type": "uint256"
				},
				{
					"internalType": "uint256",
					"name": "createdAt",
					"type": "uint256"
				},
				{
					"internalType": "string",
					"name": "ipfsCID",
					"type": "string"
				}
			],
			"stateMutability": "view",
			"type": "function"
		},
		{
			"inputs": [
				{
					"internalType": "enum Polling.Category",
					"name": "_category",
					"type": "uint8"
				}
			],
			"name": "getQuestionsByCategory",
			"outputs": [
				{
					"internalType": "uint256[]",
					"name": "",
					"type": "uint256[]"
				}
			],
			"stateMutability": "view",
			"type": "function"
		},
		{
			"inputs": [
				{
					"internalType": "address",
					"name": "_user",
					"type": "address"
				}
			],
			"name": "getUserUpvotedQuestions",
			"outputs": [
				{
					"internalType": "uint256[]",
					"name": "",
					"type": "uint256[]"
				}
			],
			"stateMutability": "view",
			"type": "function"
		},
		{
			"inputs": [
				{
					"internalType": "address",
					"name": "_user",
					"type": "address"
				}
			],
			"name": "getUserVotedQuestions",
			"outputs": [
				{
					"internalType": "uint256[]",
					"name": "",
					"type": "uint256[]"
				}
			],
			"stateMutability": "view",
			"type": "function"
		},
		{
			"inputs": [
				{
					"internalType": "uint256",
					"name": "",
					"type": "uint256"
				},
				{
					"internalType": "address",
					"name": "",
					"type": "address"
				}
			],
			"name": "hasUpvoted",
			"outputs": [
				{
					"internalType": "bool",
					"name": "",
					"type": "bool"
				}
			],
			"stateMutability": "view",
			"type": "function"
		},
		{
			"inputs": [
				{
					"internalType": "uint256",
					"name": "_questionId",
					"type": "uint256"
				},
				{
					"internalType": "address",
					"name": "_user",
					"type": "address"
				}
			],
			"name": "hasUserUpvoted",
			"outputs": [
				{
					"internalType": "bool",
					"name": "",
					"type": "bool"
				}
			],
			"stateMutability": "view",
			"type": "function"
		},
		{
			"inputs": [
				{
					"internalType": "uint256",
					"name": "_questionId",
					"type": "uint256"
				},
				{
					"internalType": "address",
					"name": "_user",
					"type": "address"
				}
			],
			"name": "hasUserVoted",
			"outputs": [
				{
					"internalType": "bool",
					"name": "",
					"type": "bool"
				}
			],
			"stateMutability": "view",
			"type": "function"
		},
		{
			"inputs": [
				{
					"internalType": "uint256",
					"name": "",
					"type": "uint256"
				},
				{
					"internalType": "address",
					"name": "",
					"type": "address"
				}
			],
			"name": "hasVoted",
			"outputs": [
				{
					"internalType": "bool",
					"name": "",
					"type": "bool"
				}
			],
			"stateMutability": "view",
			"type": "function"
		},
		{
			"inputs": [
				{
					"internalType": "address",
					"name": "",
					"type": "address"
				}
			],
			"name": "isVoter",
			"outputs": [
				{
					"internalType": "bool",
					"name": "",
					"type": "bool"
				}
			],
			"stateMutability": "view",
			"type": "function"
		},
		{
			"inputs": [
				{
					"internalType": "uint256",
					"name": "_questionId",
					"type": "uint256"
				}
			],
			"name": "isVotingActive",
			"outputs": [
				{
					"internalType": "bool",
					"name": "",
					"type": "bool"
				}
			],
			"stateMutability": "view",
			"type": "function"
		},
		{
			"inputs": [],
			"name": "questionCount",
			"outputs": [
				{
					"internalType": "uint256",
					"name": "",
					"type": "uint256"
				}
			],
			"stateMutability": "view",
			"type": "function"
		},
		{
			"inputs": [
				{
					"internalType": "uint256",
					"name": "",
					"type": "uint256"
				}
			],
			"name": "questions",
			"outputs": [
				{
					"internalType": "address",
					"name": "creator",
					"type": "address"
				},
				{
					"internalType": "enum Polling.QuestionType",
					"name": "questionType",
					"type": "uint8"
				},
				{
					"internalType": "enum Polling.Category",
					"name": "category",
					"type": "uint8"
				},
				{
					"internalType": "uint256",
					"name": "deadline",
					"type": "uint256"
				},
				{
					"internalType": "uint256",
					"name": "upvotes",
					"type": "uint256"
				},
				{
					"internalType": "uint256",
					"name": "createdAt",
					"type": "uint256"
				},
				{
					"internalType": "string",
					"name": "ipfsCID",
					"type": "string"
				},
				{
					"internalType": "bool",
					"name": "exists",
					"type": "bool"
				}
			],
			"stateMutability": "view",
			"type": "function"
		},
		{
			"inputs": [
				{
					"internalType": "uint256",
					"name": "",
					"type": "uint256"
				},
				{
					"internalType": "uint256",
					"name": "",
					"type": "uint256"
				}
			],
			"name": "questionsByCategory",
			"outputs": [
				{
					"internalType": "uint256",
					"name": "",
					"type": "uint256"
				}
			],
			"stateMutability": "view",
			"type": "function"
		},
		{
			"inputs": [],
			"name": "totalVotersCount",
			"outputs": [
				{
					"internalType": "uint256",
					"name": "",
					"type": "uint256"
				}
			],
			"stateMutability": "view",
			"type": "function"
		},
		{
			"inputs": [],
			"name": "totalVotesCount",
			"outputs": [
				{
					"internalType": "uint256",
					"name": "",
					"type": "uint256"
				}
			],
			"stateMutability": "view",
			"type": "function"
		},
		{
			"inputs": [
				{
					"internalType": "uint256",
					"name": "_questionId",
					"type": "uint256"
				}
			],
			"name": "upvote",
			"outputs": [],
			"stateMutability": "nonpayable",
			"type": "function"
		},
		{
			"inputs": [
				{
					"internalType": "address",
					"name": "",
					"type": "address"
				},
				{
					"internalType": "uint256",
					"name": "",
					"type": "uint256"
				}
			],
			"name": "userUpvotedQuestions",
			"outputs": [
				{
					"internalType": "uint256",
					"name": "",
					"type": "uint256"
				}
			],
			"stateMutability": "view",
			"type": "function"
		},
		{
			"inputs": [
				{
					"internalType": "address",
					"name": "",
					"type": "address"
				},
				{
					"internalType": "uint256",
					"name": "",
					"type": "uint256"
				}
			],
			"name": "userVotedQuestions",
			"outputs": [
				{
					"internalType": "uint256",
					"name": "",
					"type": "uint256"
				}
			],
			"stateMutability": "view",
			"type": "function"
		},
		{
			"inputs": [
				{
					"internalType": "uint256",
					"name": "_questionId",
					"type": "uint256"
				},
				{
					"internalType": "uint256[]",
					"name": "_optionIndexes",
					"type": "uint256[]"
				}
			],
			"name": "voteMultiple",
			"outputs": [],
			"stateMutability": "nonpayable",
			"type": "function"
		},
		{
			"inputs": [
				{
					"internalType": "uint256",
					"name": "_questionId",
					"type": "uint256"
				},
				{
					"internalType": "uint256",
					"name": "_optionIndex",
					"type": "uint256"
				}
			],
			"name": "voteSingle",
			"outputs": [],
			"stateMutability": "nonpayable",
			"type": "function"
		},
		{
			"inputs": [
				{
					"internalType": "uint256",
					"name": "",
					"type": "uint256"
				},
				{
					"internalType": "uint256",
					"name": "",
					"type": "uint256"
				}
			],
			"name": "votes",
			"outputs": [
				{
					"internalType": "uint256",
					"name": "",
					"type": "uint256"
				}
			],
			"stateMutability": "view",
			"type": "function"
		}
	]
}