{
	"data": {
		"bytecode": {
			"linkReferences": {},
			"object": "6080604052348015600e575f5ffd5b50611e7d8061001c5f395ff3fe608060405234801561000f575f5ffd5b5060043610610091575f3560e01c806331b1b9781161006457806331b1b97814610130578063438596321461016a5780637055d3681461019a578063a52c8658146101b6578063f5816e73146101e657610091565b806301ddf070146100955780631468aa2c146100b15780631acb27df146100cf57806320eb37b214610100575b5f5ffd5b6100af60048036038101906100aa9190610e7c565b610216565b005b6100b96103f5565b6040516100c69190610eb6565b60405180910390f35b6100e960048036038101906100e49190610e7c565b6103fa565b6040516100f7929190610f86565b60405180910390f35b61011a600480360381019061011591906110a1565b61053e565b6040516101279190610eb6565b60405180910390f35b61014a60048036038101906101459190610e7c565b610894565b6040516101619b9a9998979695949392919061128b565b60405180910390f35b610184600480360381019061017f9190611365565b6109a7565b60405161019191906113bd565b60405180910390f35b6101b460048036038101906101af919061142b565b6109d1565b005b6101d060048036038101906101cb9190611365565b610df7565b6040516101dd91906113bd565b60405180910390f35b61020060048036038101906101fb9190611488565b610e21565b60405161020d9190610eb6565b60405180910390f35b805f8111801561022757505f548111155b610266576040517f08c379a000000000000000000000000000000000000000000000000000000000815260040161025d90611510565b60405180910390fd5b60035f8381526020019081526020015f205f3373ffffffffffffffffffffffffffffffffffffffff1673ffffffffffffffffffffffffffffffffffffffff1681526020019081526020015f205f9054906101000a900460ff16156102ff576040517f08c379a00000000000000000000000000000000000000000000000000000000081526004016102f690611578565b60405180910390fd5b600160035f8481526020019081526020015f205f3373ffffffffffffffffffffffffffffffffffffffff1673ffffffffffffffffffffffffffffffffffffffff1681526020019081526020015f205f6101000a81548160ff02191690831515021790555060015f8381526020019081526020015f206008015f815480929190610387906115c3565b91905055503373ffffffffffffffffffffffffffffffffffffffff16827fcf584fe2665a495d9f6a5c69e3d43f7c1b38725db04086ff09b26dd1242b360b60015f8681526020019081526020015f2060080154426040516103e992919061160a565b60405180910390a35050565b5f5481565b60605f825f8111801561040e57505f548111155b61044d576040517f08c379a000000000000000000000000000000000000000000000000000000000815260040161044490611510565b60405180910390fd5b5f60015f8681526020019081526020015f20905080600a015f9054906101000a900460ff1660ff1667ffffffffffffffff81111561048e5761048d611631565b5b6040519080825280602002602001820160405280156104bc5781602001602082028036833780820191505090505b5093505f5f90505b81600a015f9054906101000a900460ff1660ff1681101561052c5760045f8781526020019081526020015f205f8281526020019081526020015f20548582815181106105135761051261165e565b5b60200260200101818152505080806001019150506104c4565b50838160090154935093505050915091565b5f428311610581576040517f08c379a0000000000000000000000000000000000000000000000000000000008152600401610578906116d5565b60405180910390fd5b5f600281111561059457610593611199565b5b8660028111156105a7576105a6611199565b5b036105f75760028260ff16146105f2576040517f08c379a00000000000000000000000000000000000000000000000000000000081526004016105e99061173d565b60405180910390fd5b61064f565b60028260ff161015801561060f5750600a8260ff1611155b61064e576040517f08c379a0000000000000000000000000000000000000000000000000000000008152600401610645906117a5565b60405180910390fd5b5b5f5f815480929190610660906115c3565b91905055506040518061016001604052805f5481526020013373ffffffffffffffffffffffffffffffffffffffff1681526020018981526020018881526020018760028111156106b3576106b2611199565b5b815260200186868080601f0160208091040260200160405190810160405280939291908181526020018383808284375f81840152601f19601f8201169050808301925050505050505081526020018481526020014281526020015f81526020015f81526020018360ff1681525060015f5f5481526020019081526020015f205f820151815f01556020820151816001015f6101000a81548173ffffffffffffffffffffffffffffffffffffffff021916908373ffffffffffffffffffffffffffffffffffffffff16021790555060408201518160020155606082015181600301556080820151816004015f6101000a81548160ff021916908360028111156107be576107bd611199565b5b021790555060a08201518160050190816107d891906119c0565b5060c0820151816006015560e082015181600701556101008201518160080155610120820151816009015561014082015181600a015f6101000a81548160ff021916908360ff1602179055509050503373ffffffffffffffffffffffffffffffffffffffff165f547fb3bda99f1e96ebbe4874e9a50f0e1e6549209ecd822bd7d00cd9ce0806b240378a8a8a8a8a8a8a4260405161087d989796959493929190611ac9565b60405180910390a35f549050979650505050505050565b6001602052805f5260405f205f91509050805f015490806001015f9054906101000a900473ffffffffffffffffffffffffffffffffffffffff1690806002015490806003015490806004015f9054906101000a900460ff16908060050180546108fc906117f0565b80601f0160208091040260200160405190810160405280929190818152602001828054610928906117f0565b80156109735780601f1061094a57610100808354040283529160200191610973565b820191905f5260205f20905b81548152906001019060200180831161095657829003601f168201915b50505050509080600601549080600701549080600801549080600901549080600a015f9054906101000a900460ff1690508b565b6002602052815f5260405f20602052805f5260405f205f915091509054906101000a900460ff1681565b825f811180156109e257505f548111155b610a21576040517f08c379a0000000000000000000000000000000000000000000000000000000008152600401610a1890611510565b60405180910390fd5b8360015f8281526020019081526020015f20600601544210610a78576040517f08c379a0000000000000000000000000000000000000000000000000000000008152600401610a6f90611b89565b60405180910390fd5b60025f8681526020019081526020015f205f3373ffffffffffffffffffffffffffffffffffffffff1673ffffffffffffffffffffffffffffffffffffffff1681526020019081526020015f205f9054906101000a900460ff1615610b11576040517f08c379a0000000000000000000000000000000000000000000000000000000008152600401610b0890611bf1565b60405180910390fd5b5f8484905011610b56576040517f08c379a0000000000000000000000000000000000000000000000000000000008152600401610b4d90611c59565b60405180910390fd5b5f60015f8781526020019081526020015f209050600280811115610b7d57610b7c611199565b5b816004015f9054906101000a900460ff166002811115610ba057610b9f611199565b5b14610bec5760018585905014610beb576040517f08c379a0000000000000000000000000000000000000000000000000000000008152600401610be290611cc1565b60405180910390fd5b5b80600a015f9054906101000a900460ff1660ff16858590501115610c45576040517f08c379a0000000000000000000000000000000000000000000000000000000008152600401610c3c90611d29565b60405180910390fd5b5f5f90505b85859050811015610d1e5781600a015f9054906101000a900460ff1660ff16868683818110610c7c57610c7b61165e565b5b9050602002013510610cc3576040517f08c379a0000000000000000000000000000000000000000000000000000000008152600401610cba90611d91565b60405180910390fd5b60045f8881526020019081526020015f205f878784818110610ce857610ce761165e565b5b9050602002013581526020019081526020015f205f815480929190610d0c906115c3565b91905055508080600101915050610c4a565b50600160025f8881526020019081526020015f205f3373ffffffffffffffffffffffffffffffffffffffff1673ffffffffffffffffffffffffffffffffffffffff1681526020019081526020015f205f6101000a81548160ff021916908315150217905550806009015f815480929190610d97906115c3565b91905055503373ffffffffffffffffffffffffffffffffffffffff16867f9c8bb00b268853720e548a9181f5f3e3a09c0f4d13c180964b91753a1edc2465878742604051610de793929190611e17565b60405180910390a3505050505050565b6003602052815f5260405f20602052805f5260405f205f915091509054906101000a900460ff1681565b6004602052815f5260405f20602052805f5260405f205f91509150505481565b5f5ffd5b5f5ffd5b5f819050919050565b610e5b81610e49565b8114610e65575f5ffd5b50565b5f81359050610e7681610e52565b92915050565b5f60208284031215610e9157610e90610e41565b5b5f610e9e84828501610e68565b91505092915050565b610eb081610e49565b82525050565b5f602082019050610ec95f830184610ea7565b92915050565b5f81519050919050565b5f82825260208201905092915050565b5f819050602082019050919050565b610f0181610e49565b82525050565b5f610f128383610ef8565b60208301905092915050565b5f602082019050919050565b5f610f3482610ecf565b610f3e8185610ed9565b9350610f4983610ee9565b805f5b83811015610f79578151610f608882610f07565b9750610f6b83610f1e565b925050600181019050610f4c565b5085935050505092915050565b5f6040820190508181035f830152610f9e8185610f2a565b9050610fad6020830184610ea7565b9392505050565b5f819050919050565b610fc681610fb4565b8114610fd0575f5ffd5b50565b5f81359050610fe181610fbd565b92915050565b60038110610ff3575f5ffd5b50565b5f8135905061100481610fe7565b92915050565b5f5ffd5b5f5ffd5b5f5ffd5b5f5f83601f84011261102b5761102a61100a565b5b8235905067ffffffffffffffff8111156110485761104761100e565b5b60208301915083600182028301111561106457611063611012565b5b9250929050565b5f60ff82169050919050565b6110808161106b565b811461108a575f5ffd5b50565b5f8135905061109b81611077565b92915050565b5f5f5f5f5f5f5f60c0888a0312156110bc576110bb610e41565b5b5f6110c98a828b01610fd3565b97505060206110da8a828b01610fd3565b96505060406110eb8a828b01610ff6565b955050606088013567ffffffffffffffff81111561110c5761110b610e45565b5b6111188a828b01611016565b9450945050608061112b8a828b01610e68565b92505060a061113c8a828b0161108d565b91505092959891949750929550565b5f73ffffffffffffffffffffffffffffffffffffffff82169050919050565b5f6111748261114b565b9050919050565b6111848161116a565b82525050565b61119381610fb4565b82525050565b7f4e487b71000000000000000000000000000000000000000000000000000000005f52602160045260245ffd5b600381106111d7576111d6611199565b5b50565b5f8190506111e7826111c6565b919050565b5f6111f6826111da565b9050919050565b611206816111ec565b82525050565b5f81519050919050565b5f82825260208201905092915050565b8281835e5f83830152505050565b5f601f19601f8301169050919050565b5f61124e8261120c565b6112588185611216565b9350611268818560208601611226565b61127181611234565b840191505092915050565b6112858161106b565b82525050565b5f6101608201905061129f5f83018e610ea7565b6112ac602083018d61117b565b6112b9604083018c61118a565b6112c6606083018b61118a565b6112d3608083018a6111fd565b81810360a08301526112e58189611244565b90506112f460c0830188610ea7565b61130160e0830187610ea7565b61130f610100830186610ea7565b61131d610120830185610ea7565b61132b61014083018461127c565b9c9b505050505050505050505050565b6113448161116a565b811461134e575f5ffd5b50565b5f8135905061135f8161133b565b92915050565b5f5f6040838503121561137b5761137a610e41565b5b5f61138885828601610e68565b925050602061139985828601611351565b9150509250929050565b5f8115159050919050565b6113b7816113a3565b82525050565b5f6020820190506113d05f8301846113ae565b92915050565b5f5f83601f8401126113eb576113ea61100a565b5b8235905067ffffffffffffffff8111156114085761140761100e565b5b60208301915083602082028301111561142457611423611012565b5b9250929050565b5f5f5f6040848603121561144257611441610e41565b5b5f61144f86828701610e68565b935050602084013567ffffffffffffffff8111156114705761146f610e45565b5b61147c868287016113d6565b92509250509250925092565b5f5f6040838503121561149e5761149d610e41565b5b5f6114ab85828601610e68565b92505060206114bc85828601610e68565b9150509250929050565b7f496e76616c6964207175657374696f6e000000000000000000000000000000005f82015250565b5f6114fa601083611216565b9150611505826114c6565b602082019050919050565b5f6020820190508181035f830152611527816114ee565b9050919050565b7f416c7265616479207570766f74656400000000000000000000000000000000005f82015250565b5f611562600f83611216565b915061156d8261152e565b602082019050919050565b5f6020820190508181035f83015261158f81611556565b9050919050565b7f4e487b71000000000000000000000000000000000000000000000000000000005f52601160045260245ffd5b5f6115cd82610e49565b91507fffffffffffffffffffffffffffffffffffffffffffffffffffffffffffffffff82036115ff576115fe611596565b5b600182019050919050565b5f60408201905061161d5f830185610ea7565b61162a6020830184610ea7565b9392505050565b7f4e487b71000000000000000000000000000000000000000000000000000000005f52604160045260245ffd5b7f4e487b71000000000000000000000000000000000000000000000000000000005f52603260045260245ffd5b7f496e76616c696420646561646c696e65000000000000000000000000000000005f82015250565b5f6116bf601083611216565b91506116ca8261168b565b602082019050919050565b5f6020820190508181035f8301526116ec816116b3565b9050919050565b7f5965732f4e6f206e656564732032206f7074696f6e73000000000000000000005f82015250565b5f611727601683611216565b9150611732826116f3565b602082019050919050565b5f6020820190508181035f8301526117548161171b565b9050919050565b7f496e76616c6964206f7074696f6e20636f756e740000000000000000000000005f82015250565b5f61178f601483611216565b915061179a8261175b565b602082019050919050565b5f6020820190508181035f8301526117bc81611783565b9050919050565b7f4e487b71000000000000000000000000000000000000000000000000000000005f52602260045260245ffd5b5f600282049050600182168061180757607f821691505b60208210810361181a576118196117c3565b5b50919050565b5f819050815f5260205f209050919050565b5f6020601f8301049050919050565b5f82821b905092915050565b5f6008830261187c7fffffffffffffffffffffffffffffffffffffffffffffffffffffffffffffffff82611841565b6118868683611841565b95508019841693508086168417925050509392505050565b5f819050919050565b5f6118c16118bc6118b784610e49565b61189e565b610e49565b9050919050565b5f819050919050565b6118da836118a7565b6118ee6118e6826118c8565b84845461184d565b825550505050565b5f5f905090565b6119056118f6565b6119108184846118d1565b505050565b5b81811015611933576119285f826118fd565b600181019050611916565b5050565b601f8211156119785761194981611820565b61195284611832565b81016020851015611961578190505b61197561196d85611832565b830182611915565b50505b505050565b5f82821c905092915050565b5f6119985f198460080261197d565b1980831691505092915050565b5f6119b08383611989565b9150826002028217905092915050565b6119c98261120c565b67ffffffffffffffff8111156119e2576119e1611631565b5b6119ec82546117f0565b6119f7828285611937565b5f60209050601f831160018114611a28575f8415611a16578287015190505b611a2085826119a5565b865550611a87565b601f198416611a3686611820565b5f5b82811015611a5d57848901518255600182019150602085019450602081019050611a38565b86831015611a7a5784890151611a76601f891682611989565b8355505b6001600288020188555050505b505050505050565b828183375f83830152505050565b5f611aa88385611216565b9350611ab5838584611a8f565b611abe83611234565b840190509392505050565b5f60e082019050611adc5f83018b61118a565b611ae9602083018a61118a565b611af660408301896111fd565b8181036060830152611b09818789611a9d565b9050611b186080830186610ea7565b611b2560a083018561127c565b611b3260c0830184610ea7565b9998505050505050505050565b7f566f74696e6720656e64656400000000000000000000000000000000000000005f82015250565b5f611b73600c83611216565b9150611b7e82611b3f565b602082019050919050565b5f6020820190508181035f830152611ba081611b67565b9050919050565b7f416c726561647920766f746564000000000000000000000000000000000000005f82015250565b5f611bdb600d83611216565b9150611be682611ba7565b602082019050919050565b5f6020820190508181035f830152611c0881611bcf565b9050919050565b7f4e6f206f7074696f6e73000000000000000000000000000000000000000000005f82015250565b5f611c43600a83611216565b9150611c4e82611c0f565b602082019050919050565b5f6020820190508181035f830152611c7081611c37565b9050919050565b7f53696e676c65206f7074696f6e207265717569726564000000000000000000005f82015250565b5f611cab601683611216565b9150611cb682611c77565b602082019050919050565b5f6020820190508181035f830152611cd881611c9f565b9050919050565b7f546f6f206d616e792073656c656374696f6e73000000000000000000000000005f82015250565b5f611d13601383611216565b9150611d1e82611cdf565b602082019050919050565b5f6020820190508181035f830152611d4081611d07565b9050919050565b7f496e76616c6964206f7074696f6e0000000000000000000000000000000000005f82015250565b5f611d7b600e83611216565b9150611d8682611d47565b602082019050919050565b5f6020820190508181035f830152611da881611d6f565b9050919050565b5f5ffd5b82818337505050565b5f611dc78385610ed9565b93507f07ffffffffffffffffffffffffffffffffffffffffffffffffffffffffffffff831115611dfa57611df9611daf565b5b602083029250611e0b838584611db3565b82840190509392505050565b5f6040820190508181035f830152611e30818587611dbc565b9050611e3f6020830184610ea7565b94935050505056fea2646970667358221220ebd4d5b696d83334357c5132b736850e638bd906ca8559895a07ee2906ec203964736f6c634300081f0033",
			"opcodes": "PUSH1 0x80 PUSH1 0x40 MSTORE CALLVALUE DUP1 ISZERO PUSH1 0xE JUMPI PUSH0 PUSH0 REVERT JUMPDEST POP PUSH2 0x1E7D DUP1 PUSH2 0x1C PUSH0 CODECOPY PUSH0 RETURN INVALID PUSH1 0x80 PUSH1 0x40 MSTORE CALLVALUE DUP1 ISZERO PUSH2 0xF JUMPI PUSH0 PUSH0 REVERT JUMPDEST POP PUSH1 0x4 CALLDATASIZE LT PUSH2 0x91 JUMPI PUSH0 CALLDATALOAD PUSH1 0xE0 SHR DUP1 PUSH4 0x31B1B978 GT PUSH2 0x64 JUMPI DUP1 PUSH4 0x31B1B978 EQ PUSH2 0x130 JUMPI DUP1 PUSH4 0x43859632 EQ PUSH2 0x16A JUMPI DUP1 PUSH4 0x7055D368 EQ PUSH2 0x19A JUMPI DUP1 PUSH4 0xA52C8658 EQ PUSH2 0x1B6 JUMPI DUP1 PUSH4 0xF5816E73 EQ PUSH2 0x1E6 JUMPI PUSH2 0x91 JUMP JUMPDEST DUP1 PUSH4 0x1DDF070 EQ PUSH2 0x95 JUMPI DUP1 PUSH4 0x1468AA2C EQ PUSH2 0xB1 JUMPI DUP1 PUSH4 0x1ACB27DF EQ PUSH2 0xCF JUMPI DUP1 PUSH4 0x20EB37B2 EQ PUSH2 0x100 JUMPI JUMPDEST PUSH0 PUSH0 REVERT JUMPDEST PUSH2 0xAF PUSH1 0x4 DUP1 CALLDATASIZE SUB DUP2 ADD SWAP1 PUSH2 0xAA SWAP2 SWAP1 PUSH2 0xE7C JUMP JUMPDEST PUSH2 0x216 JUMP JUMPDEST STOP JUMPDEST PUSH2 0xB9 PUSH2 0x3F5 JUMP JUMPDEST PUSH1 0x40 MLOAD PUSH2 0xC6 SWAP2 SWAP1 PUSH2 0xEB6 JUMP JUMPDEST PUSH1 0x40 MLOAD DUP1 SWAP2 SUB SWAP1 RETURN JUMPDEST PUSH2 0xE9 PUSH1 0x4 DUP1 CALLDATASIZE SUB DUP2 ADD SWAP1 PUSH2 0xE4 SWAP2 SWAP1 PUSH2 0xE7C JUMP JUMPDEST PUSH2 0x3FA JUMP JUMPDEST PUSH1 0x40 MLOAD PUSH2 0xF7 SWAP3 SWAP2 SWAP1 PUSH2 0xF86 JUMP JUMPDEST PUSH1 0x40 MLOAD DUP1 SWAP2 SUB SWAP1 RETURN JUMPDEST PUSH2 0x11A PUSH1 0x4 DUP1 CALLDATASIZE SUB DUP2 ADD SWAP1 PUSH2 0x115 SWAP2 SWAP1 PUSH2 0x10A1 JUMP JUMPDEST PUSH2 0x53E JUMP JUMPDEST PUSH1 0x40 MLOAD PUSH2 0x127 SWAP2 SWAP1 PUSH2 0xEB6 JUMP JUMPDEST PUSH1 0x40 MLOAD DUP1 SWAP2 SUB SWAP1 RETURN JUMPDEST PUSH2 0x14A PUSH1 0x4 DUP1 CALLDATASIZE SUB DUP2 ADD SWAP1 PUSH2 0x145 SWAP2 SWAP1 PUSH2 0xE7C JUMP JUMPDEST PUSH2 0x894 JUMP JUMPDEST PUSH1 0x40 MLOAD PUSH2 0x161 SWAP12 SWAP11 SWAP10 SWAP9 SWAP8 SWAP7 SWAP6 SWAP5 SWAP4 SWAP3 SWAP2 SWAP1 PUSH2 0x128B JUMP JUMPDEST PUSH1 0x40 MLOAD DUP1 SWAP2 SUB SWAP1 RETURN JUMPDEST PUSH2 0x184 PUSH1 0x4 DUP1 CALLDATASIZE SUB DUP2 ADD SWAP1 PUSH2 0x17F SWAP2 SWAP1 PUSH2 0x1365 JUMP JUMPDEST PUSH2 0x9A7 JUMP JUMPDEST PUSH1 0x40 MLOAD PUSH2 0x191 SWAP2 SWAP1 PUSH2 0x13BD JUMP JUMPDEST PUSH1 0x40 MLOAD DUP1 SWAP2 SUB SWAP1 RETURN JUMPDEST PUSH2 0x1B4 PUSH1 0x4 DUP1 CALLDATASIZE SUB DUP2 ADD SWAP1 PUSH2 0x1AF SWAP2 SWAP1 PUSH2 0x142B JUMP JUMPDEST PUSH2 0x9D1 JUMP JUMPDEST STOP JUMPDEST PUSH2 0x1D0 PUSH1 0x4 DUP1 CALLDATASIZE SUB DUP2 ADD SWAP1 PUSH2 0x1CB SWAP2 SWAP1 PUSH2 0x1365 JUMP JUMPDEST PUSH2 0xDF7 JUMP JUMPDEST PUSH1 0x40 MLOAD PUSH2 0x1DD SWAP2 SWAP1 PUSH2 0x13BD JUMP JUMPDEST PUSH1 0x40 MLOAD DUP1 SWAP2 SUB SWAP1 RETURN JUMPDEST PUSH2 0x200 PUSH1 0x4 DUP1 CALLDATASIZE SUB DUP2 ADD SWAP1 PUSH2 0x1FB SWAP2 SWAP1 PUSH2 0x1488 JUMP JUMPDEST PUSH2 0xE21 JUMP JUMPDEST PUSH1 0x40 MLOAD PUSH2 0x20D SWAP2 SWAP1 PUSH2 0xEB6 JUMP JUMPDEST PUSH1 0x40 MLOAD DUP1 SWAP2 SUB SWAP1 RETURN JUMPDEST DUP1 PUSH0 DUP2 GT DUP1 ISZERO PUSH2 0x227 JUMPI POP PUSH0 SLOAD DUP2 GT ISZERO JUMPDEST PUSH2 0x266 JUMPI PUSH1 0x40 MLOAD PUSH32 0x8C379A000000000000000000000000000000000000000000000000000000000 DUP2 MSTORE PUSH1 0x4 ADD PUSH2 0x25D SWAP1 PUSH2 0x1510 JUMP JUMPDEST PUSH1 0x40 MLOAD DUP1 SWAP2 SUB SWAP1 REVERT JUMPDEST PUSH1 0x3 PUSH0 DUP4 DUP2 MSTORE PUSH1 0x20 ADD SWAP1 DUP2 MSTORE PUSH1 0x20 ADD PUSH0 KECCAK256 PUSH0 CALLER PUSH20 0xFFFFFFFFFFFFFFFFFFFFFFFFFFFFFFFFFFFFFFFF AND PUSH20 0xFFFFFFFFFFFFFFFFFFFFFFFFFFFFFFFFFFFFFFFF AND DUP2 MSTORE PUSH1 0x20 ADD SWAP1 DUP2 MSTORE PUSH1 0x20 ADD PUSH0 KECCAK256 PUSH0 SWAP1 SLOAD SWAP1 PUSH2 0x100 EXP SWAP1 DIV PUSH1 0xFF AND ISZERO PUSH2 0x2FF JUMPI PUSH1 0x40 MLOAD PUSH32 0x8C379A000000000000000000000000000000000000000000000000000000000 DUP2 MSTORE PUSH1 0x4 ADD PUSH2 0x2F6 SWAP1 PUSH2 0x1578 JUMP JUMPDEST PUSH1 0x40 MLOAD DUP1 SWAP2 SUB SWAP1 REVERT JUMPDEST PUSH1 0x1 PUSH1 0x3 PUSH0 DUP5 DUP2 MSTORE PUSH1 0x20 ADD SWAP1 DUP2 MSTORE PUSH1 0x20 ADD PUSH0 KECCAK256 PUSH0 CALLER PUSH20 0xFFFFFFFFFFFFFFFFFFFFFFFFFFFFFFFFFFFFFFFF AND PUSH20 0xFFFFFFFFFFFFFFFFFFFFFFFFFFFFFFFFFFFFFFFF AND DUP2 MSTORE PUSH1 0x20 ADD SWAP1 DUP2 MSTORE PUSH1 0x20 ADD PUSH0 KECCAK256 PUSH0 PUSH2 0x100 EXP DUP2 SLOAD DUP2 PUSH1 0xFF MUL NOT AND SWAP1 DUP4 ISZERO ISZERO MUL OR SWAP1 SSTORE POP PUSH1 0x1 PUSH0 DUP4 DUP2 MSTORE PUSH1 0x20 ADD SWAP1 DUP2 MSTORE PUSH1 0x20 ADD PUSH0 KECCAK256 PUSH1 0x8 ADD PUSH0 DUP2 SLOAD DUP1 SWAP3 SWAP2 SWAP1 PUSH2 0x387 SWAP1 PUSH2 0x15C3 JUMP JUMPDEST SWAP2 SWAP1 POP SSTORE POP CALLER PUSH20 0xFFFFFFFFFFFFFFFFFFFFFFFFFFFFFFFFFFFFFFFF AND DUP3 PUSH32 0xCF584FE2665A495D9F6A5C69E3D43F7C1B38725DB04086FF09B26DD1242B360B PUSH1 0x1 PUSH0 DUP7 DUP2 MSTORE PUSH1 0x20 ADD SWAP1 DUP2 MSTORE PUSH1 0x20 ADD PUSH0 KECCAK256 PUSH1 0x8 ADD SLOAD TIMESTAMP PUSH1 0x40 MLOAD PUSH2 0x3E9 SWAP3 SWAP2 SWAP1 PUSH2 0x160A JUMP JUMPDEST PUSH1 0x40 MLOAD DUP1 SWAP2 SUB SWAP1 LOG3 POP POP JUMP JUMPDEST PUSH0 SLOAD DUP2 JUMP JUMPDEST PUSH1 0x60 PUSH0 DUP3 PUSH0 DUP2 GT DUP1 ISZERO PUSH2 0x40E JUMPI POP PUSH0 SLOAD DUP2 GT ISZERO JUMPDEST PUSH2 0x44D JUMPI PUSH1 0x40 MLOAD PUSH32 0x8C379A000000000000000000000000000000000000000000000000000000000 DUP2 MSTORE PUSH1 0x4 ADD PUSH2 0x444 SWAP1 PUSH2 0x1510 JUMP JUMPDEST PUSH1 0x40 MLOAD DUP1 SWAP2 SUB SWAP1 REVERT JUMPDEST PUSH0 PUSH1 0x1 PUSH0 DUP7 DUP2 MSTORE PUSH1 0x20 ADD SWAP1 DUP2 MSTORE PUSH1 0x20 ADD PUSH0 KECCAK256 SWAP1 POP DUP1 PUSH1 0xA ADD PUSH0 SWAP1 SLOAD SWAP1 PUSH2 0x100 EXP SWAP1 DIV PUSH1 0xFF AND PUSH1 0xFF AND PUSH8 0xFFFFFFFFFFFFFFFF DUP2 GT ISZERO PUSH2 0x48E JUMPI PUSH2 0x48D PUSH2 0x1631 JUMP JUMPDEST JUMPDEST PUSH1 0x40 MLOAD SWAP1 DUP1 DUP3 MSTORE DUP1 PUSH1 0x20 MUL PUSH1 0x20 ADD DUP3 ADD PUSH1 0x40 MSTORE DUP1 ISZERO PUSH2 0x4BC JUMPI DUP2 PUSH1 0x20 ADD PUSH1 0x20 DUP3 MUL DUP1 CALLDATASIZE DUP4 CALLDATACOPY DUP1 DUP3 ADD SWAP2 POP POP SWAP1 POP JUMPDEST POP SWAP4 POP PUSH0 PUSH0 SWAP1 POP JUMPDEST DUP2 PUSH1 0xA ADD PUSH0 SWAP1 SLOAD SWAP1 PUSH2 0x100 EXP SWAP1 DIV PUSH1 0xFF AND PUSH1 0xFF AND DUP2 LT ISZERO PUSH2 0x52C JUMPI PUSH1 0x4 PUSH0 DUP8 DUP2 MSTORE PUSH1 0x20 ADD SWAP1 DUP2 MSTORE PUSH1 0x20 ADD PUSH0 KECCAK256 PUSH0 DUP3 DUP2 MSTORE PUSH1 0x20 ADD SWAP1 DUP2 MSTORE PUSH1 0x20 ADD PUSH0 KECCAK256 SLOAD DUP6 DUP3 DUP2 MLOAD DUP2 LT PUSH2 0x513 JUMPI PUSH2 0x512 PUSH2 0x165E JUMP JUMPDEST JUMPDEST PUSH1 0x20 MUL PUSH1 0x20 ADD ADD DUP2 DUP2 MSTORE POP POP DUP1 DUP1 PUSH1 0x1 ADD SWAP2 POP POP PUSH2 0x4C4 JUMP JUMPDEST POP DUP4 DUP2 PUSH1 0x9 ADD SLOAD SWAP4 POP SWAP4 POP POP POP SWAP2 POP SWAP2 JUMP JUMPDEST PUSH0 TIMESTAMP DUP4 GT PUSH2 0x581 JUMPI PUSH1 0x40 MLOAD PUSH32 0x8C379A000000000000000000000000000000000000000000000000000000000 DUP2 MSTORE PUSH1 0x4 ADD PUSH2 0x578 SWAP1 PUSH2 0x16D5 JUMP JUMPDEST PUSH1 0x40 MLOAD DUP1 SWAP2 SUB SWAP1 REVERT JUMPDEST PUSH0 PUSH1 0x2 DUP2 GT ISZERO PUSH2 0x594 JUMPI PUSH2 0x593 PUSH2 0x1199 JUMP JUMPDEST JUMPDEST DUP7 PUSH1 0x2 DUP2 GT ISZERO PUSH2 0x5A7 JUMPI PUSH2 0x5A6 PUSH2 0x1199 JUMP JUMPDEST JUMPDEST SUB PUSH2 0x5F7 JUMPI PUSH1 0x2 DUP3 PUSH1 0xFF AND EQ PUSH2 0x5F2 JUMPI PUSH1 0x40 MLOAD PUSH32 0x8C379A000000000000000000000000000000000000000000000000000000000 DUP2 MSTORE PUSH1 0x4 ADD PUSH2 0x5E9 SWAP1 PUSH2 0x173D JUMP JUMPDEST PUSH1 0x40 MLOAD DUP1 SWAP2 SUB SWAP1 REVERT JUMPDEST PUSH2 0x64F JUMP JUMPDEST PUSH1 0x2 DUP3 PUSH1 0xFF AND LT ISZERO DUP1 ISZERO PUSH2 0x60F JUMPI POP PUSH1 0xA DUP3 PUSH1 0xFF AND GT ISZERO JUMPDEST PUSH2 0x64E JUMPI PUSH1 0x40 MLOAD PUSH32 0x8C379A000000000000000000000000000000000000000000000000000000000 DUP2 MSTORE PUSH1 0x4 ADD PUSH2 0x645 SWAP1 PUSH2 0x17A5 JUMP JUMPDEST PUSH1 0x40 MLOAD DUP1 SWAP2 SUB SWAP1 REVERT JUMPDEST JUMPDEST PUSH0 PUSH0 DUP2 SLOAD DUP1 SWAP3 SWAP2 SWAP1 PUSH2 0x660 SWAP1 PUSH2 0x15C3 JUMP JUMPDEST SWAP2 SWAP1 POP SSTORE POP PUSH1 0x40 MLOAD DUP1 PUSH2 0x160 ADD PUSH1 0x40 MSTORE DUP1 PUSH0 SLOAD DUP2 MSTORE PUSH1 0x20 ADD CALLER PUSH20 0xFFFFFFFFFFFFFFFFFFFFFFFFFFFFFFFFFFFFFFFF AND DUP2 MSTORE PUSH1 0x20 ADD DUP10 DUP2 MSTORE PUSH1 0x20 ADD DUP9 DUP2 MSTORE PUSH1 0x20 ADD DUP8 PUSH1 0x2 DUP2 GT ISZERO PUSH2 0x6B3 JUMPI PUSH2 0x6B2 PUSH2 0x1199 JUMP JUMPDEST JUMPDEST DUP2 MSTORE PUSH1 0x20 ADD DUP7 DUP7 DUP1 DUP1 PUSH1 0x1F ADD PUSH1 0x20 DUP1 SWAP2 DIV MUL PUSH1 0x20 ADD PUSH1 0x40 MLOAD SWAP1 DUP2 ADD PUSH1 0x40 MSTORE DUP1 SWAP4 SWAP3 SWAP2 SWAP1 DUP2 DUP2 MSTORE PUSH1 0x20 ADD DUP4 DUP4 DUP1 DUP3 DUP5 CALLDATACOPY PUSH0 DUP2 DUP5 ADD MSTORE PUSH1 0x1F NOT PUSH1 0x1F DUP3 ADD AND SWAP1 POP DUP1 DUP4 ADD SWAP3 POP POP POP POP POP POP POP DUP2 MSTORE PUSH1 0x20 ADD DUP5 DUP2 MSTORE PUSH1 0x20 ADD TIMESTAMP DUP2 MSTORE PUSH1 0x20 ADD PUSH0 DUP2 MSTORE PUSH1 0x20 ADD PUSH0 DUP2 MSTORE PUSH1 0x20 ADD DUP4 PUSH1 0xFF AND DUP2 MSTORE POP PUSH1 0x1 PUSH0 PUSH0 SLOAD DUP2 MSTORE PUSH1 0x20 ADD SWAP1 DUP2 MSTORE PUSH1 0x20 ADD PUSH0 KECCAK256 PUSH0 DUP3 ADD MLOAD DUP2 PUSH0 ADD SSTORE PUSH1 0x20 DUP3 ADD MLOAD DUP2 PUSH1 0x1 ADD PUSH0 PUSH2 0x100 EXP DUP2 SLOAD DUP2 PUSH20 0xFFFFFFFFFFFFFFFFFFFFFFFFFFFFFFFFFFFFFFFF MUL NOT AND SWAP1 DUP4 PUSH20 0xFFFFFFFFFFFFFFFFFFFFFFFFFFFFFFFFFFFFFFFF AND MUL OR SWAP1 SSTORE POP PUSH1 0x40 DUP3 ADD MLOAD DUP2 PUSH1 0x2 ADD SSTORE PUSH1 0x60 DUP3 ADD MLOAD DUP2 PUSH1 0x3 ADD SSTORE PUSH1 0x80 DUP3 ADD MLOAD DUP2 PUSH1 0x4 ADD PUSH0 PUSH2 0x100 EXP DUP2 SLOAD DUP2 PUSH1 0xFF MUL NOT AND SWAP1 DUP4 PUSH1 0x2 DUP2 GT ISZERO PUSH2 0x7BE JUMPI PUSH2 0x7BD PUSH2 0x1199 JUMP JUMPDEST JUMPDEST MUL OR SWAP1 SSTORE POP PUSH1 0xA0 DUP3 ADD MLOAD DUP2 PUSH1 0x5 ADD SWAP1 DUP2 PUSH2 0x7D8 SWAP2 SWAP1 PUSH2 0x19C0 JUMP JUMPDEST POP PUSH1 0xC0 DUP3 ADD MLOAD DUP2 PUSH1 0x6 ADD SSTORE PUSH1 0xE0 DUP3 ADD MLOAD DUP2 PUSH1 0x7 ADD SSTORE PUSH2 0x100 DUP3 ADD MLOAD DUP2 PUSH1 0x8 ADD SSTORE PUSH2 0x120 DUP3 ADD MLOAD DUP2 PUSH1 0x9 ADD SSTORE PUSH2 0x140 DUP3 ADD MLOAD DUP2 PUSH1 0xA ADD PUSH0 PUSH2 0x100 EXP DUP2 SLOAD DUP2 PUSH1 0xFF MUL NOT AND SWAP1 DUP4 PUSH1 0xFF AND MUL OR SWAP1 SSTORE POP SWAP1 POP POP CALLER PUSH20 0xFFFFFFFFFFFFFFFFFFFFFFFFFFFFFFFFFFFFFFFF AND PUSH0 SLOAD PUSH32 0xB3BDA99F1E96EBBE4874E9A50F0E1E6549209ECD822BD7D00CD9CE0806B24037 DUP11 DUP11 DUP11 DUP11 DUP11 DUP11 DUP11 TIMESTAMP PUSH1 0x40 MLOAD PUSH2 0x87D SWAP9 SWAP8 SWAP7 SWAP6 SWAP5 SWAP4 SWAP3 SWAP2 SWAP1 PUSH2 0x1AC9 JUMP JUMPDEST PUSH1 0x40 MLOAD DUP1 SWAP2 SUB SWAP1 LOG3 PUSH0 SLOAD SWAP1 POP SWAP8 SWAP7 POP POP POP POP POP POP POP JUMP JUMPDEST PUSH1 0x1 PUSH1 0x20 MSTORE DUP1 PUSH0 MSTORE PUSH1 0x40 PUSH0 KECCAK256 PUSH0 SWAP2 POP SWAP1 POP DUP1 PUSH0 ADD SLOAD SWAP1 DUP1 PUSH1 0x1 ADD PUSH0 SWAP1 SLOAD SWAP1 PUSH2 0x100 EXP SWAP1 DIV PUSH20 0xFFFFFFFFFFFFFFFFFFFFFFFFFFFFFFFFFFFFFFFF AND SWAP1 DUP1 PUSH1 0x2 ADD SLOAD SWAP1 DUP1 PUSH1 0x3 ADD SLOAD SWAP1 DUP1 PUSH1 0x4 ADD PUSH0 SWAP1 SLOAD SWAP1 PUSH2 0x100 EXP SWAP1 DIV PUSH1 0xFF AND SWAP1 DUP1 PUSH1 0x5 ADD DUP1 SLOAD PUSH2 0x8FC SWAP1 PUSH2 0x17F0 JUMP JUMPDEST DUP1 PUSH1 0x1F ADD PUSH1 0x20 DUP1 SWAP2 DIV MUL PUSH1 0x20 ADD PUSH1 0x40 MLOAD SWAP1 DUP2 ADD PUSH1 0x40 MSTORE DUP1 SWAP3 SWAP2 SWAP1 DUP2 DUP2 MSTORE PUSH1 0x20 ADD DUP3 DUP1 SLOAD PUSH2 0x928 SWAP1 PUSH2 0x17F0 JUMP JUMPDEST DUP1 ISZERO PUSH2 0x973 JUMPI DUP1 PUSH1 0x1F LT PUSH2 0x94A JUMPI PUSH2 0x100 DUP1 DUP4 SLOAD DIV MUL DUP4 MSTORE SWAP2 PUSH1 0x20 ADD SWAP2 PUSH2 0x973 JUMP JUMPDEST DUP3 ADD SWAP2 SWAP1 PUSH0 MSTORE PUSH1 0x20 PUSH0 KECCAK256 SWAP1 JUMPDEST DUP2 SLOAD DUP2 MSTORE SWAP1 PUSH1 0x1 ADD SWAP1 PUSH1 0x20 ADD DUP1 DUP4 GT PUSH2 0x956 JUMPI DUP3 SWAP1 SUB PUSH1 0x1F AND DUP3 ADD SWAP2 JUMPDEST POP POP POP POP POP SWAP1 DUP1 PUSH1 0x6 ADD SLOAD SWAP1 DUP1 PUSH1 0x7 ADD SLOAD SWAP1 DUP1 PUSH1 0x8 ADD SLOAD SWAP1 DUP1 PUSH1 0x9 ADD SLOAD SWAP1 DUP1 PUSH1 0xA ADD PUSH0 SWAP1 SLOAD SWAP1 PUSH2 0x100 EXP SWAP1 DIV PUSH1 0xFF AND SWAP1 POP DUP12 JUMP JUMPDEST PUSH1 0x2 PUSH1 0x20 MSTORE DUP2 PUSH0 MSTORE PUSH1 0x40 PUSH0 KECCAK256 PUSH1 0x20 MSTORE DUP1 PUSH0 MSTORE PUSH1 0x40 PUSH0 KECCAK256 PUSH0 SWAP2 POP SWAP2 POP SWAP1 SLOAD SWAP1 PUSH2 0x100 EXP SWAP1 DIV PUSH1 0xFF AND DUP2 JUMP JUMPDEST DUP3 PUSH0 DUP2 GT DUP1 ISZERO PUSH2 0x9E2 JUMPI POP PUSH0 SLOAD DUP2 GT ISZERO JUMPDEST PUSH2 0xA21 JUMPI PUSH1 0x40 MLOAD PUSH32 0x8C379A000000000000000000000000000000000000000000000000000000000 DUP2 MSTORE PUSH1 0x4 ADD PUSH2 0xA18 SWAP1 PUSH2 0x1510 JUMP JUMPDEST PUSH1 0x40 MLOAD DUP1 SWAP2 SUB SWAP1 REVERT JUMPDEST DUP4 PUSH1 0x1 PUSH0 DUP3 DUP2 MSTORE PUSH1 0x20 ADD SWAP1 DUP2 MSTORE PUSH1 0x20 ADD PUSH0 KECCAK256 PUSH1 0x6 ADD SLOAD TIMESTAMP LT PUSH2 0xA78 JUMPI PUSH1 0x40 MLOAD PUSH32 0x8C379A000000000000000000000000000000000000000000000000000000000 DUP2 MSTORE PUSH1 0x4 ADD PUSH2 0xA6F SWAP1 PUSH2 0x1B89 JUMP JUMPDEST PUSH1 0x40 MLOAD DUP1 SWAP2 SUB SWAP1 REVERT JUMPDEST PUSH1 0x2 PUSH0 DUP7 DUP2 MSTORE PUSH1 0x20 ADD SWAP1 DUP2 MSTORE PUSH1 0x20 ADD PUSH0 KECCAK256 PUSH0 CALLER PUSH20 0xFFFFFFFFFFFFFFFFFFFFFFFFFFFFFFFFFFFFFFFF AND PUSH20 0xFFFFFFFFFFFFFFFFFFFFFFFFFFFFFFFFFFFFFFFF AND DUP2 MSTORE PUSH1 0x20 ADD SWAP1 DUP2 MSTORE PUSH1 0x20 ADD PUSH0 KECCAK256 PUSH0 SWAP1 SLOAD SWAP1 PUSH2 0x100 EXP SWAP1 DIV PUSH1 0xFF AND ISZERO PUSH2 0xB11 JUMPI PUSH1 0x40 MLOAD PUSH32 0x8C379A000000000000000000000000000000000000000000000000000000000 DUP2 MSTORE PUSH1 0x4 ADD PUSH2 0xB08 SWAP1 PUSH2 0x1BF1 JUMP JUMPDEST PUSH1 0x40 MLOAD DUP1 SWAP2 SUB SWAP1 REVERT JUMPDEST PUSH0 DUP5 DUP5 SWAP1 POP GT PUSH2 0xB56 JUMPI PUSH1 0x40 MLOAD PUSH32 0x8C379A000000000000000000000000000000000000000000000000000000000 DUP2 MSTORE PUSH1 0x4 ADD PUSH2 0xB4D SWAP1 PUSH2 0x1C59 JUMP JUMPDEST PUSH1 0x40 MLOAD DUP1 SWAP2 SUB SWAP1 REVERT JUMPDEST PUSH0 PUSH1 0x1 PUSH0 DUP8 DUP2 MSTORE PUSH1 0x20 ADD SWAP1 DUP2 MSTORE PUSH1 0x20 ADD PUSH0 KECCAK256 SWAP1 POP PUSH1 0x2 DUP1 DUP2 GT ISZERO PUSH2 0xB7D JUMPI PUSH2 0xB7C PUSH2 0x1199 JUMP JUMPDEST JUMPDEST DUP2 PUSH1 0x4 ADD PUSH0 SWAP1 SLOAD SWAP1 PUSH2 0x100 EXP SWAP1 DIV PUSH1 0xFF AND PUSH1 0x2 DUP2 GT ISZERO PUSH2 0xBA0 JUMPI PUSH2 0xB9F PUSH2 0x1199 JUMP JUMPDEST JUMPDEST EQ PUSH2 0xBEC JUMPI PUSH1 0x1 DUP6 DUP6 SWAP1 POP EQ PUSH2 0xBEB JUMPI PUSH1 0x40 MLOAD PUSH32 0x8C379A000000000000000000000000000000000000000000000000000000000 DUP2 MSTORE PUSH1 0x4 ADD PUSH2 0xBE2 SWAP1 PUSH2 0x1CC1 JUMP JUMPDEST PUSH1 0x40 MLOAD DUP1 SWAP2 SUB SWAP1 REVERT JUMPDEST JUMPDEST DUP1 PUSH1 0xA ADD PUSH0 SWAP1 SLOAD SWAP1 PUSH2 0x100 EXP SWAP1 DIV PUSH1 0xFF AND PUSH1 0xFF AND DUP6 DUP6 SWAP1 POP GT ISZERO PUSH2 0xC45 JUMPI PUSH1 0x40 MLOAD PUSH32 0x8C379A000000000000000000000000000000000000000000000000000000000 DUP2 MSTORE PUSH1 0x4 ADD PUSH2 0xC3C SWAP1 PUSH2 0x1D29 JUMP JUMPDEST PUSH1 0x40 MLOAD DUP1 SWAP2 SUB SWAP1 REVERT JUMPDEST PUSH0 PUSH0 SWAP1 POP JUMPDEST DUP6 DUP6 SWAP1 POP DUP2 LT ISZERO PUSH2 0xD1E JUMPI DUP2 PUSH1 0xA ADD PUSH0 SWAP1 SLOAD SWAP1 PUSH2 0x100 EXP SWAP1 DIV PUSH1 0xFF AND PUSH1 0xFF AND DUP7 DUP7 DUP4 DUP2 DUP2 LT PUSH2 0xC7C JUMPI PUSH2 0xC7B PUSH2 0x165E JUMP JUMPDEST JUMPDEST SWAP1 POP PUSH1 0x20 MUL ADD CALLDATALOAD LT PUSH2 0xCC3 JUMPI PUSH1 0x40 MLOAD PUSH32 0x8C379A000000000000000000000000000000000000000000000000000000000 DUP2 MSTORE PUSH1 0x4 ADD PUSH2 0xCBA SWAP1 PUSH2 0x1D91 JUMP JUMPDEST PUSH1 0x40 MLOAD DUP1 SWAP2 SUB SWAP1 REVERT JUMPDEST PUSH1 0x4 PUSH0 DUP9 DUP2 MSTORE PUSH1 0x20 ADD SWAP1 DUP2 MSTORE PUSH1 0x20 ADD PUSH0 KECCAK256 PUSH0 DUP8 DUP8 DUP5 DUP2 DUP2 LT PUSH2 0xCE8 JUMPI PUSH2 0xCE7 PUSH2 0x165E JUMP JUMPDEST JUMPDEST SWAP1 POP PUSH1 0x20 MUL ADD CALLDATALOAD DUP2 MSTORE PUSH1 0x20 ADD SWAP1 DUP2 MSTORE PUSH1 0x20 ADD PUSH0 KECCAK256 PUSH0 DUP2 SLOAD DUP1 SWAP3 SWAP2 SWAP1 PUSH2 0xD0C SWAP1 PUSH2 0x15C3 JUMP JUMPDEST SWAP2 SWAP1 POP SSTORE POP DUP1 DUP1 PUSH1 0x1 ADD SWAP2 POP POP PUSH2 0xC4A JUMP JUMPDEST POP PUSH1 0x1 PUSH1 0x2 PUSH0 DUP9 DUP2 MSTORE PUSH1 0x20 ADD SWAP1 DUP2 MSTORE PUSH1 0x20 ADD PUSH0 KECCAK256 PUSH0 CALLER PUSH20 0xFFFFFFFFFFFFFFFFFFFFFFFFFFFFFFFFFFFFFFFF AND PUSH20 0xFFFFFFFFFFFFFFFFFFFFFFFFFFFFFFFFFFFFFFFF AND DUP2 MSTORE PUSH1 0x20 ADD SWAP1 DUP2 MSTORE PUSH1 0x20 ADD PUSH0 KECCAK256 PUSH0 PUSH2 0x100 EXP DUP2 SLOAD DUP2 PUSH1 0xFF MUL NOT AND SWAP1 DUP4 ISZERO ISZERO MUL OR SWAP1 SSTORE POP DUP1 PUSH1 0x9 ADD PUSH0 DUP2 SLOAD DUP1 SWAP3 SWAP2 SWAP1 PUSH2 0xD97 SWAP1 PUSH2 0x15C3 JUMP JUMPDEST SWAP2 SWAP1 POP SSTORE POP CALLER PUSH20 0xFFFFFFFFFFFFFFFFFFFFFFFFFFFFFFFFFFFFFFFF AND DUP7 PUSH32 0x9C8BB00B268853720E548A9181F5F3E3A09C0F4D13C180964B91753A1EDC2465 DUP8 DUP8 TIMESTAMP PUSH1 0x40 MLOAD PUSH2 0xDE7 SWAP4 SWAP3 SWAP2 SWAP1 PUSH2 0x1E17 JUMP JUMPDEST PUSH1 0x40 MLOAD DUP1 SWAP2 SUB SWAP1 LOG3 POP POP POP POP POP POP JUMP JUMPDEST PUSH1 0x3 PUSH1 0x20 MSTORE DUP2 PUSH0 MSTORE PUSH1 0x40 PUSH0 KECCAK256 PUSH1 0x20 MSTORE DUP1 PUSH0 MSTORE PUSH1 0x40 PUSH0 KECCAK256 PUSH0 SWAP2 POP SWAP2 POP SWAP1 SLOAD SWAP1 PUSH2 0x100 EXP SWAP1 DIV PUSH1 0xFF AND DUP2 JUMP JUMPDEST PUSH1 0x4 PUSH1 0x20 MSTORE DUP2 PUSH0 MSTORE PUSH1 0x40 PUSH0 KECCAK256 PUSH1 0x20 MSTORE DUP1 PUSH0 MSTORE PUSH1 0x40 PUSH0 KECCAK256 PUSH0 SWAP2 POP SWAP2 POP POP SLOAD DUP2 JUMP JUMPDEST PUSH0 PUSH0 REVERT JUMPDEST PUSH0 PUSH0 REVERT JUMPDEST PUSH0 DUP2 SWAP1 POP SWAP2 SWAP1 POP JUMP JUMPDEST PUSH2 0xE5B DUP2 PUSH2 0xE49 JUMP JUMPDEST DUP2 EQ PUSH2 0xE65 JUMPI PUSH0 PUSH0 REVERT JUMPDEST POP JUMP JUMPDEST PUSH0 DUP2 CALLDATALOAD SWAP1 POP PUSH2 0xE76 DUP2 PUSH2 0xE52 JUMP JUMPDEST SWAP3 SWAP2 POP POP JUMP JUMPDEST PUSH0 PUSH1 0x20 DUP3 DUP5 SUB SLT ISZERO PUSH2 0xE91 JUMPI PUSH2 0xE90 PUSH2 0xE41 JUMP JUMPDEST JUMPDEST PUSH0 PUSH2 0xE9E DUP5 DUP3 DUP6 ADD PUSH2 0xE68 JUMP JUMPDEST SWAP2 POP POP SWAP3 SWAP2 POP POP JUMP JUMPDEST PUSH2 0xEB0 DUP2 PUSH2 0xE49 JUMP JUMPDEST DUP3 MSTORE POP POP JUMP JUMPDEST PUSH0 PUSH1 0x20 DUP3 ADD SWAP1 POP PUSH2 0xEC9 PUSH0 DUP4 ADD DUP5 PUSH2 0xEA7 JUMP JUMPDEST SWAP3 SWAP2 POP POP JUMP JUMPDEST PUSH0 DUP2 MLOAD SWAP1 POP SWAP2 SWAP1 POP JUMP JUMPDEST PUSH0 DUP3 DUP3 MSTORE PUSH1 0x20 DUP3 ADD SWAP1 POP SWAP3 SWAP2 POP POP JUMP JUMPDEST PUSH0 DUP2 SWAP1 POP PUSH1 0x20 DUP3 ADD SWAP1 POP SWAP2 SWAP1 POP JUMP JUMPDEST PUSH2 0xF01 DUP2 PUSH2 0xE49 JUMP JUMPDEST DUP3 MSTORE POP POP JUMP JUMPDEST PUSH0 PUSH2 0xF12 DUP4 DUP4 PUSH2 0xEF8 JUMP JUMPDEST PUSH1 0x20 DUP4 ADD SWAP1 POP SWAP3 SWAP2 POP POP JUMP JUMPDEST PUSH0 PUSH1 0x20 DUP3 ADD SWAP1 POP SWAP2 SWAP1 POP JUMP JUMPDEST PUSH0 PUSH2 0xF34 DUP3 PUSH2 0xECF JUMP JUMPDEST PUSH2 0xF3E DUP2 DUP6 PUSH2 0xED9 JUMP JUMPDEST SWAP4 POP PUSH2 0xF49 DUP4 PUSH2 0xEE9 JUMP JUMPDEST DUP1 PUSH0 JUMPDEST DUP4 DUP2 LT ISZERO PUSH2 0xF79 JUMPI DUP2 MLOAD PUSH2 0xF60 DUP9 DUP3 PUSH2 0xF07 JUMP JUMPDEST SWAP8 POP PUSH2 0xF6B DUP4 PUSH2 0xF1E JUMP JUMPDEST SWAP3 POP POP PUSH1 0x1 DUP2 ADD SWAP1 POP PUSH2 0xF4C JUMP JUMPDEST POP DUP6 SWAP4 POP POP POP POP SWAP3 SWAP2 POP POP JUMP JUMPDEST PUSH0 PUSH1 0x40 DUP3 ADD SWAP1 POP DUP2 DUP2 SUB PUSH0 DUP4 ADD MSTORE PUSH2 0xF9E DUP2 DUP6 PUSH2 0xF2A JUMP JUMPDEST SWAP1 POP PUSH2 0xFAD PUSH1 0x20 DUP4 ADD DUP5 PUSH2 0xEA7 JUMP JUMPDEST SWAP4 SWAP3 POP POP POP JUMP JUMPDEST PUSH0 DUP2 SWAP1 POP SWAP2 SWAP1 POP JUMP JUMPDEST PUSH2 0xFC6 DUP2 PUSH2 0xFB4 JUMP JUMPDEST DUP2 EQ PUSH2 0xFD0 JUMPI PUSH0 PUSH0 REVERT JUMPDEST POP JUMP JUMPDEST PUSH0 DUP2 CALLDATALOAD SWAP1 POP PUSH2 0xFE1 DUP2 PUSH2 0xFBD JUMP JUMPDEST SWAP3 SWAP2 POP POP JUMP JUMPDEST PUSH1 0x3 DUP2 LT PUSH2 0xFF3 JUMPI PUSH0 PUSH0 REVERT JUMPDEST POP JUMP JUMPDEST PUSH0 DUP2 CALLDATALOAD SWAP1 POP PUSH2 0x1004 DUP2 PUSH2 0xFE7 JUMP JUMPDEST SWAP3 SWAP2 POP POP JUMP JUMPDEST PUSH0 PUSH0 REVERT JUMPDEST PUSH0 PUSH0 REVERT JUMPDEST PUSH0 PUSH0 REVERT JUMPDEST PUSH0 PUSH0 DUP4 PUSH1 0x1F DUP5 ADD SLT PUSH2 0x102B JUMPI PUSH2 0x102A PUSH2 0x100A JUMP JUMPDEST JUMPDEST DUP3 CALLDATALOAD SWAP1 POP PUSH8 0xFFFFFFFFFFFFFFFF DUP2 GT ISZERO PUSH2 0x1048 JUMPI PUSH2 0x1047 PUSH2 0x100E JUMP JUMPDEST JUMPDEST PUSH1 0x20 DUP4 ADD SWAP2 POP DUP4 PUSH1 0x1 DUP3 MUL DUP4 ADD GT ISZERO PUSH2 0x1064 JUMPI PUSH2 0x1063 PUSH2 0x1012 JUMP JUMPDEST JUMPDEST SWAP3 POP SWAP3 SWAP1 POP JUMP JUMPDEST PUSH0 PUSH1 0xFF DUP3 AND SWAP1 POP SWAP2 SWAP1 POP JUMP JUMPDEST PUSH2 0x1080 DUP2 PUSH2 0x106B JUMP JUMPDEST DUP2 EQ PUSH2 0x108A JUMPI PUSH0 PUSH0 REVERT JUMPDEST POP JUMP JUMPDEST PUSH0 DUP2 CALLDATALOAD SWAP1 POP PUSH2 0x109B DUP2 PUSH2 0x1077 JUMP JUMPDEST SWAP3 SWAP2 POP POP JUMP JUMPDEST PUSH0 PUSH0 PUSH0 PUSH0 PUSH0 PUSH0 PUSH0 PUSH1 0xC0 DUP9 DUP11 SUB SLT ISZERO PUSH2 0x10BC JUMPI PUSH2 0x10BB PUSH2 0xE41 JUMP JUMPDEST JUMPDEST PUSH0 PUSH2 0x10C9 DUP11 DUP3 DUP12 ADD PUSH2 0xFD3 JUMP JUMPDEST SWAP8 POP POP PUSH1 0x20 PUSH2 0x10DA DUP11 DUP3 DUP12 ADD PUSH2 0xFD3 JUMP JUMPDEST SWAP7 POP POP PUSH1 0x40 PUSH2 0x10EB DUP11 DUP3 DUP12 ADD PUSH2 0xFF6 JUMP JUMPDEST SWAP6 POP POP PUSH1 0x60 DUP9 ADD CALLDATALOAD PUSH8 0xFFFFFFFFFFFFFFFF DUP2 GT ISZERO PUSH2 0x110C JUMPI PUSH2 0x110B PUSH2 0xE45 JUMP JUMPDEST JUMPDEST PUSH2 0x1118 DUP11 DUP3 DUP12 ADD PUSH2 0x1016 JUMP JUMPDEST SWAP5 POP SWAP5 POP POP PUSH1 0x80 PUSH2 0x112B DUP11 DUP3 DUP12 ADD PUSH2 0xE68 JUMP JUMPDEST SWAP3 POP POP PUSH1 0xA0 PUSH2 0x113C DUP11 DUP3 DUP12 ADD PUSH2 0x108D JUMP JUMPDEST SWAP2 POP POP SWAP3 SWAP6 SWAP9 SWAP2 SWAP5 SWAP8 POP SWAP3 SWAP6 POP JUMP JUMPDEST PUSH0 PUSH20 0xFFFFFFFFFFFFFFFFFFFFFFFFFFFFFFFFFFFFFFFF DUP3 AND SWAP1 POP SWAP2 SWAP1 POP JUMP JUMPDEST PUSH0 PUSH2 0x1174 DUP3 PUSH2 0x114B JUMP JUMPDEST SWAP1 POP SWAP2 SWAP1 POP JUMP JUMPDEST PUSH2 0x1184 DUP2 PUSH2 0x116A JUMP JUMPDEST DUP3 MSTORE POP POP JUMP JUMPDEST PUSH2 0x1193 DUP2 PUSH2 0xFB4 JUMP JUMPDEST DUP3 MSTORE POP POP JUMP JUMPDEST PUSH32 0x4E487B7100000000000000000000000000000000000000000000000000000000 PUSH0 MSTORE PUSH1 0x21 PUSH1 0x4 MSTORE PUSH1 0x24 PUSH0 REVERT JUMPDEST PUSH1 0x3 DUP2 LT PUSH2 0x11D7 JUMPI PUSH2 0x11D6 PUSH2 0x1199 JUMP JUMPDEST JUMPDEST POP JUMP JUMPDEST PUSH0 DUP2 SWAP1 POP PUSH2 0x11E7 DUP3 PUSH2 0x11C6 JUMP JUMPDEST SWAP2 SWAP1 POP JUMP JUMPDEST PUSH0 PUSH2 0x11F6 DUP3 PUSH2 0x11DA JUMP JUMPDEST SWAP1 POP SWAP2 SWAP1 POP JUMP JUMPDEST PUSH2 0x1206 DUP2 PUSH2 0x11EC JUMP JUMPDEST DUP3 MSTORE POP POP JUMP JUMPDEST PUSH0 DUP2 MLOAD SWAP1 POP SWAP2 SWAP1 POP JUMP JUMPDEST PUSH0 DUP3 DUP3 MSTORE PUSH1 0x20 DUP3 ADD SWAP1 POP SWAP3 SWAP2 POP POP JUMP JUMPDEST DUP3 DUP2 DUP4 MCOPY PUSH0 DUP4 DUP4 ADD MSTORE POP POP POP JUMP JUMPDEST PUSH0 PUSH1 0x1F NOT PUSH1 0x1F DUP4 ADD AND SWAP1 POP SWAP2 SWAP1 POP JUMP JUMPDEST PUSH0 PUSH2 0x124E DUP3 PUSH2 0x120C JUMP JUMPDEST PUSH2 0x1258 DUP2 DUP6 PUSH2 0x1216 JUMP JUMPDEST SWAP4 POP PUSH2 0x1268 DUP2 DUP6 PUSH1 0x20 DUP7 ADD PUSH2 0x1226 JUMP JUMPDEST PUSH2 0x1271 DUP2 PUSH2 0x1234 JUMP JUMPDEST DUP5 ADD SWAP2 POP POP SWAP3 SWAP2 POP POP JUMP JUMPDEST PUSH2 0x1285 DUP2 PUSH2 0x106B JUMP JUMPDEST DUP3 MSTORE POP POP JUMP JUMPDEST PUSH0 PUSH2 0x160 DUP3 ADD SWAP1 POP PUSH2 0x129F PUSH0 DUP4 ADD DUP15 PUSH2 0xEA7 JUMP JUMPDEST PUSH2 0x12AC PUSH1 0x20 DUP4 ADD DUP14 PUSH2 0x117B JUMP JUMPDEST PUSH2 0x12B9 PUSH1 0x40 DUP4 ADD DUP13 PUSH2 0x118A JUMP JUMPDEST PUSH2 0x12C6 PUSH1 0x60 DUP4 ADD DUP12 PUSH2 0x118A JUMP JUMPDEST PUSH2 0x12D3 PUSH1 0x80 DUP4 ADD DUP11 PUSH2 0x11FD JUMP JUMPDEST DUP2 DUP2 SUB PUSH1 0xA0 DUP4 ADD MSTORE PUSH2 0x12E5 DUP2 DUP10 PUSH2 0x1244 JUMP JUMPDEST SWAP1 POP PUSH2 0x12F4 PUSH1 0xC0 DUP4 ADD DUP9 PUSH2 0xEA7 JUMP JUMPDEST PUSH2 0x1301 PUSH1 0xE0 DUP4 ADD DUP8 PUSH2 0xEA7 JUMP JUMPDEST PUSH2 0x130F PUSH2 0x100 DUP4 ADD DUP7 PUSH2 0xEA7 JUMP JUMPDEST PUSH2 0x131D PUSH2 0x120 DUP4 ADD DUP6 PUSH2 0xEA7 JUMP JUMPDEST PUSH2 0x132B PUSH2 0x140 DUP4 ADD DUP5 PUSH2 0x127C JUMP JUMPDEST SWAP13 SWAP12 POP POP POP POP POP POP POP POP POP POP POP POP JUMP JUMPDEST PUSH2 0x1344 DUP2 PUSH2 0x116A JUMP JUMPDEST DUP2 EQ PUSH2 0x134E JUMPI PUSH0 PUSH0 REVERT JUMPDEST POP JUMP JUMPDEST PUSH0 DUP2 CALLDATALOAD SWAP1 POP PUSH2 0x135F DUP2 PUSH2 0x133B JUMP JUMPDEST SWAP3 SWAP2 POP POP JUMP JUMPDEST PUSH0 PUSH0 PUSH1 0x40 DUP4 DUP6 SUB SLT ISZERO PUSH2 0x137B JUMPI PUSH2 0x137A PUSH2 0xE41 JUMP JUMPDEST JUMPDEST PUSH0 PUSH2 0x1388 DUP6 DUP3 DUP7 ADD PUSH2 0xE68 JUMP JUMPDEST SWAP3 POP POP PUSH1 0x20 PUSH2 0x1399 DUP6 DUP3 DUP7 ADD PUSH2 0x1351 JUMP JUMPDEST SWAP2 POP POP SWAP3 POP SWAP3 SWAP1 POP JUMP JUMPDEST PUSH0 DUP2 ISZERO ISZERO SWAP1 POP SWAP2 SWAP1 POP JUMP JUMPDEST PUSH2 0x13B7 DUP2 PUSH2 0x13A3 JUMP JUMPDEST DUP3 MSTORE POP POP JUMP JUMPDEST PUSH0 PUSH1 0x20 DUP3 ADD SWAP1 POP PUSH2 0x13D0 PUSH0 DUP4 ADD DUP5 PUSH2 0x13AE JUMP JUMPDEST SWAP3 SWAP2 POP POP JUMP JUMPDEST PUSH0 PUSH0 DUP4 PUSH1 0x1F DUP5 ADD SLT PUSH2 0x13EB JUMPI PUSH2 0x13EA PUSH2 0x100A JUMP JUMPDEST JUMPDEST DUP3 CALLDATALOAD SWAP1 POP PUSH8 0xFFFFFFFFFFFFFFFF DUP2 GT ISZERO PUSH2 0x1408 JUMPI PUSH2 0x1407 PUSH2 0x100E JUMP JUMPDEST JUMPDEST PUSH1 0x20 DUP4 ADD SWAP2 POP DUP4 PUSH1 0x20 DUP3 MUL DUP4 ADD GT ISZERO PUSH2 0x1424 JUMPI PUSH2 0x1423 PUSH2 0x1012 JUMP JUMPDEST JUMPDEST SWAP3 POP SWAP3 SWAP1 POP JUMP JUMPDEST PUSH0 PUSH0 PUSH0 PUSH1 0x40 DUP5 DUP7 SUB SLT ISZERO PUSH2 0x1442 JUMPI PUSH2 0x1441 PUSH2 0xE41 JUMP JUMPDEST JUMPDEST PUSH0 PUSH2 0x144F DUP7 DUP3 DUP8 ADD PUSH2 0xE68 JUMP JUMPDEST SWAP4 POP POP PUSH1 0x20 DUP5 ADD CALLDATALOAD PUSH8 0xFFFFFFFFFFFFFFFF DUP2 GT ISZERO PUSH2 0x1470 JUMPI PUSH2 0x146F PUSH2 0xE45 JUMP JUMPDEST JUMPDEST PUSH2 0x147C DUP7 DUP3 DUP8 ADD PUSH2 0x13D6 JUMP JUMPDEST SWAP3 POP SWAP3 POP POP SWAP3 POP SWAP3 POP SWAP3 JUMP JUMPDEST PUSH0 PUSH0 PUSH1 0x40 DUP4 DUP6 SUB SLT ISZERO PUSH2 0x149E JUMPI PUSH2 0x149D PUSH2 0xE41 JUMP JUMPDEST JUMPDEST PUSH0 PUSH2 0x14AB DUP6 DUP3 DUP7 ADD PUSH2 0xE68 JUMP JUMPDEST SWAP3 POP POP PUSH1 0x20 PUSH2 0x14BC DUP6 DUP3 DUP7 ADD PUSH2 0xE68 JUMP JUMPDEST SWAP2 POP POP SWAP3 POP SWAP3 SWAP1 POP JUMP JUMPDEST PUSH32 0x496E76616C6964207175657374696F6E00000000000000000000000000000000 PUSH0 DUP3 ADD MSTORE POP JUMP JUMPDEST PUSH0 PUSH2 0x14FA PUSH1 0x10 DUP4 PUSH2 0x1216 JUMP JUMPDEST SWAP2 POP PUSH2 0x1505 DUP3 PUSH2 0x14C6 JUMP JUMPDEST PUSH1 0x20 DUP3 ADD SWAP1 POP SWAP2 SWAP1 POP JUMP JUMPDEST PUSH0 PUSH1 0x20 DUP3 ADD SWAP1 POP DUP2 DUP2 SUB PUSH0 DUP4 ADD MSTORE PUSH2 0x1527 DUP2 PUSH2 0x14EE JUMP JUMPDEST SWAP1 POP SWAP2 SWAP1 POP JUMP JUMPDEST PUSH32 0x416C7265616479207570766F7465640000000000000000000000000000000000 PUSH0 DUP3 ADD MSTORE POP JUMP JUMPDEST PUSH0 PUSH2 0x1562 PUSH1 0xF DUP4 PUSH2 0x1216 JUMP JUMPDEST SWAP2 POP PUSH2 0x156D DUP3 PUSH2 0x152E JUMP JUMPDEST PUSH1 0x20 DUP3 ADD SWAP1 POP SWAP2 SWAP1 POP JUMP JUMPDEST PUSH0 PUSH1 0x20 DUP3 ADD SWAP1 POP DUP2 DUP2 SUB PUSH0 DUP4 ADD MSTORE PUSH2 0x158F DUP2 PUSH2 0x1556 JUMP JUMPDEST SWAP1 POP SWAP2 SWAP1 POP JUMP JUMPDEST PUSH32 0x4E487B7100000000000000000000000000000000000000000000000000000000 PUSH0 MSTORE PUSH1 0x11 PUSH1 0x4 MSTORE PUSH1 0x24 PUSH0 REVERT JUMPDEST PUSH0 PUSH2 0x15CD DUP3 PUSH2 0xE49 JUMP JUMPDEST SWAP2 POP PUSH32 0xFFFFFFFFFFFFFFFFFFFFFFFFFFFFFFFFFFFFFFFFFFFFFFFFFFFFFFFFFFFFFFFF DUP3 SUB PUSH2 0x15FF JUMPI PUSH2 0x15FE PUSH2 0x1596 JUMP JUMPDEST JUMPDEST PUSH1 0x1 DUP3 ADD SWAP1 POP SWAP2 SWAP1 POP JUMP JUMPDEST PUSH0 PUSH1 0x40 DUP3 ADD SWAP1 POP PUSH2 0x161D PUSH0 DUP4 ADD DUP6 PUSH2 0xEA7 JUMP JUMPDEST PUSH2 0x162A PUSH1 0x20 DUP4 ADD DUP5 PUSH2 0xEA7 JUMP JUMPDEST SWAP4 SWAP3 POP POP POP JUMP JUMPDEST PUSH32 0x4E487B7100000000000000000000000000000000000000000000000000000000 PUSH0 MSTORE PUSH1 0x41 PUSH1 0x4 MSTORE PUSH1 0x24 PUSH0 REVERT JUMPDEST PUSH32 0x4E487B7100000000000000000000000000000000000000000000000000000000 PUSH0 MSTORE PUSH1 0x32 PUSH1 0x4 MSTORE PUSH1 0x24 PUSH0 REVERT JUMPDEST PUSH32 0x496E76616C696420646561646C696E6500000000000000000000000000000000 PUSH0 DUP3 ADD MSTORE POP JUMP JUMPDEST PUSH0 PUSH2 0x16BF PUSH1 0x10 DUP4 PUSH2 0x1216 JUMP JUMPDEST SWAP2 POP PUSH2 0x16CA DUP3 PUSH2 0x168B JUMP JUMPDEST PUSH1 0x20 DUP3 ADD SWAP1 POP SWAP2 SWAP1 POP JUMP JUMPDEST PUSH0 PUSH1 0x20 DUP3 ADD SWAP1 POP DUP2 DUP2 SUB PUSH0 DUP4 ADD MSTORE PUSH2 0x16EC DUP2 PUSH2 0x16B3 JUMP JUMPDEST SWAP1 POP SWAP2 SWAP1 POP JUMP JUMPDEST PUSH32 0x5965732F4E6F206E656564732032206F7074696F6E7300000000000000000000 PUSH0 DUP3 ADD MSTORE POP JUMP JUMPDEST PUSH0 PUSH2 0x1727 PUSH1 0x16 DUP4 PUSH2 0x1216 JUMP JUMPDEST SWAP2 POP PUSH2 0x1732 DUP3 PUSH2 0x16F3 JUMP JUMPDEST PUSH1 0x20 DUP3 ADD SWAP1 POP SWAP2 SWAP1 POP JUMP JUMPDEST PUSH0 PUSH1 0x20 DUP3 ADD SWAP1 POP DUP2 DUP2 SUB PUSH0 DUP4 ADD MSTORE PUSH2 0x1754 DUP2 PUSH2 0x171B JUMP JUMPDEST SWAP1 POP SWAP2 SWAP1 POP JUMP JUMPDEST PUSH32 0x496E76616C6964206F7074696F6E20636F756E74000000000000000000000000 PUSH0 DUP3 ADD MSTORE POP JUMP JUMPDEST PUSH0 PUSH2 0x178F PUSH1 0x14 DUP4 PUSH2 0x1216 JUMP JUMPDEST SWAP2 POP PUSH2 0x179A DUP3 PUSH2 0x175B JUMP JUMPDEST PUSH1 0x20 DUP3 ADD SWAP1 POP SWAP2 SWAP1 POP JUMP JUMPDEST PUSH0 PUSH1 0x20 DUP3 ADD SWAP1 POP DUP2 DUP2 SUB PUSH0 DUP4 ADD MSTORE PUSH2 0x17BC DUP2 PUSH2 0x1783 JUMP JUMPDEST SWAP1 POP SWAP2 SWAP1 POP JUMP JUMPDEST PUSH32 0x4E487B7100000000000000000000000000000000000000000000000000000000 PUSH0 MSTORE PUSH1 0x22 PUSH1 0x4 MSTORE PUSH1 0x24 PUSH0 REVERT JUMPDEST PUSH0 PUSH1 0x2 DUP3 DIV SWAP1 POP PUSH1 0x1 DUP3 AND DUP1 PUSH2 0x1807 JUMPI PUSH1 0x7F DUP3 AND SWAP2 POP JUMPDEST PUSH1 0x20 DUP3 LT DUP2 SUB PUSH2 0x181A JUMPI PUSH2 0x1819 PUSH2 0x17C3 JUMP JUMPDEST JUMPDEST POP SWAP2 SWAP1 POP JUMP JUMPDEST PUSH0 DUP2 SWAP1 POP DUP2 PUSH0 MSTORE PUSH1 0x20 PUSH0 KECCAK256 SWAP1 POP SWAP2 SWAP1 POP JUMP JUMPDEST PUSH0 PUSH1 0x20 PUSH1 0x1F DUP4 ADD DIV SWAP1 POP SWAP2 SWAP1 POP JUMP JUMPDEST PUSH0 DUP3 DUP3 SHL SWAP1 POP SWAP3 SWAP2 POP POP JUMP JUMPDEST PUSH0 PUSH1 0x8 DUP4 MUL PUSH2 0x187C PUSH32 0xFFFFFFFFFFFFFFFFFFFFFFFFFFFFFFFFFFFFFFFFFFFFFFFFFFFFFFFFFFFFFFFF DUP3 PUSH2 0x1841 JUMP JUMPDEST PUSH2 0x1886 DUP7 DUP4 PUSH2 0x1841 JUMP JUMPDEST SWAP6 POP DUP1 NOT DUP5 AND SWAP4 POP DUP1 DUP7 AND DUP5 OR SWAP3 POP POP POP SWAP4 SWAP3 POP POP POP JUMP JUMPDEST PUSH0 DUP2 SWAP1 POP SWAP2 SWAP1 POP JUMP JUMPDEST PUSH0 PUSH2 0x18C1 PUSH2 0x18BC PUSH2 0x18B7 DUP5 PUSH2 0xE49 JUMP JUMPDEST PUSH2 0x189E JUMP JUMPDEST PUSH2 0xE49 JUMP JUMPDEST SWAP1 POP SWAP2 SWAP1 POP JUMP JUMPDEST PUSH0 DUP2 SWAP1 POP SWAP2 SWAP1 POP JUMP JUMPDEST PUSH2 0x18DA DUP4 PUSH2 0x18A7 JUMP JUMPDEST PUSH2 0x18EE PUSH2 0x18E6 DUP3 PUSH2 0x18C8 JUMP JUMPDEST DUP5 DUP5 SLOAD PUSH2 0x184D JUMP JUMPDEST DUP3 SSTORE POP POP POP POP JUMP JUMPDEST PUSH0 PUSH0 SWAP1 POP SWAP1 JUMP JUMPDEST PUSH2 0x1905 PUSH2 0x18F6 JUMP JUMPDEST PUSH2 0x1910 DUP2 DUP5 DUP5 PUSH2 0x18D1 JUMP JUMPDEST POP POP POP JUMP JUMPDEST JUMPDEST DUP2 DUP2 LT ISZERO PUSH2 0x1933 JUMPI PUSH2 0x1928 PUSH0 DUP3 PUSH2 0x18FD JUMP JUMPDEST PUSH1 0x1 DUP2 ADD SWAP1 POP PUSH2 0x1916 JUMP JUMPDEST POP POP JUMP JUMPDEST PUSH1 0x1F DUP3 GT ISZERO PUSH2 0x1978 JUMPI PUSH2 0x1949 DUP2 PUSH2 0x1820 JUMP JUMPDEST PUSH2 0x1952 DUP5 PUSH2 0x1832 JUMP JUMPDEST DUP2 ADD PUSH1 0x20 DUP6 LT ISZERO PUSH2 0x1961 JUMPI DUP2 SWAP1 POP JUMPDEST PUSH2 0x1975 PUSH2 0x196D DUP6 PUSH2 0x1832 JUMP JUMPDEST DUP4 ADD DUP3 PUSH2 0x1915 JUMP JUMPDEST POP POP JUMPDEST POP POP POP JUMP JUMPDEST PUSH0 DUP3 DUP3 SHR SWAP1 POP SWAP3 SWAP2 POP POP JUMP JUMPDEST PUSH0 PUSH2 0x1998 PUSH0 NOT DUP5 PUSH1 0x8 MUL PUSH2 0x197D JUMP JUMPDEST NOT DUP1 DUP4 AND SWAP2 POP POP SWAP3 SWAP2 POP POP JUMP JUMPDEST PUSH0 PUSH2 0x19B0 DUP4 DUP4 PUSH2 0x1989 JUMP JUMPDEST SWAP2 POP DUP3 PUSH1 0x2 MUL DUP3 OR SWAP1 POP SWAP3 SWAP2 POP POP JUMP JUMPDEST PUSH2 0x19C9 DUP3 PUSH2 0x120C JUMP JUMPDEST PUSH8 0xFFFFFFFFFFFFFFFF DUP2 GT ISZERO PUSH2 0x19E2 JUMPI PUSH2 0x19E1 PUSH2 0x1631 JUMP JUMPDEST JUMPDEST PUSH2 0x19EC DUP3 SLOAD PUSH2 0x17F0 JUMP JUMPDEST PUSH2 0x19F7 DUP3 DUP3 DUP6 PUSH2 0x1937 JUMP JUMPDEST PUSH0 PUSH1 0x20 SWAP1 POP PUSH1 0x1F DUP4 GT PUSH1 0x1 DUP2 EQ PUSH2 0x1A28 JUMPI PUSH0 DUP5 ISZERO PUSH2 0x1A16 JUMPI DUP3 DUP8 ADD MLOAD SWAP1 POP JUMPDEST PUSH2 0x1A20 DUP6 DUP3 PUSH2 0x19A5 JUMP JUMPDEST DUP7 SSTORE POP PUSH2 0x1A87 JUMP JUMPDEST PUSH1 0x1F NOT DUP5 AND PUSH2 0x1A36 DUP7 PUSH2 0x1820 JUMP JUMPDEST PUSH0 JUMPDEST DUP3 DUP2 LT ISZERO PUSH2 0x1A5D JUMPI DUP5 DUP10 ADD MLOAD DUP3 SSTORE PUSH1 0x1 DUP3 ADD SWAP2 POP PUSH1 0x20 DUP6 ADD SWAP5 POP PUSH1 0x20 DUP2 ADD SWAP1 POP PUSH2 0x1A38 JUMP JUMPDEST DUP7 DUP4 LT ISZERO PUSH2 0x1A7A JUMPI DUP5 DUP10 ADD MLOAD PUSH2 0x1A76 PUSH1 0x1F DUP10 AND DUP3 PUSH2 0x1989 JUMP JUMPDEST DUP4 SSTORE POP JUMPDEST PUSH1 0x1 PUSH1 0x2 DUP9 MUL ADD DUP9 SSTORE POP POP POP JUMPDEST POP POP POP POP POP POP JUMP JUMPDEST DUP3 DUP2 DUP4 CALLDATACOPY PUSH0 DUP4 DUP4 ADD MSTORE POP POP POP JUMP JUMPDEST PUSH0 PUSH2 0x1AA8 DUP4 DUP6 PUSH2 0x1216 JUMP JUMPDEST SWAP4 POP PUSH2 0x1AB5 DUP4 DUP6 DUP5 PUSH2 0x1A8F JUMP JUMPDEST PUSH2 0x1ABE DUP4 PUSH2 0x1234 JUMP JUMPDEST DUP5 ADD SWAP1 POP SWAP4 SWAP3 POP POP POP JUMP JUMPDEST PUSH0 PUSH1 0xE0 DUP3 ADD SWAP1 POP PUSH2 0x1ADC PUSH0 DUP4 ADD DUP12 PUSH2 0x118A JUMP JUMPDEST PUSH2 0x1AE9 PUSH1 0x20 DUP4 ADD DUP11 PUSH2 0x118A JUMP JUMPDEST PUSH2 0x1AF6 PUSH1 0x40 DUP4 ADD DUP10 PUSH2 0x11FD JUMP JUMPDEST DUP2 DUP2 SUB PUSH1 0x60 DUP4 ADD MSTORE PUSH2 0x1B09 DUP2 DUP8 DUP10 PUSH2 0x1A9D JUMP JUMPDEST SWAP1 POP PUSH2 0x1B18 PUSH1 0x80 DUP4 ADD DUP7 PUSH2 0xEA7 JUMP JUMPDEST PUSH2 0x1B25 PUSH1 0xA0 DUP4 ADD DUP6 PUSH2 0x127C JUMP JUMPDEST PUSH2 0x1B32 PUSH1 0xC0 DUP4 ADD DUP5 PUSH2 0xEA7 JUMP JUMPDEST SWAP10 SWAP9 POP POP POP POP POP POP POP POP POP JUMP JUMPDEST PUSH32 0x566F74696E6720656E6465640000000000000000000000000000000000000000 PUSH0 DUP3 ADD MSTORE POP JUMP JUMPDEST PUSH0 PUSH2 0x1B73 PUSH1 0xC DUP4 PUSH2 0x1216 JUMP JUMPDEST SWAP2 POP PUSH2 0x1B7E DUP3 PUSH2 0x1B3F JUMP JUMPDEST PUSH1 0x20 DUP3 ADD SWAP1 POP SWAP2 SWAP1 POP JUMP JUMPDEST PUSH0 PUSH1 0x20 DUP3 ADD SWAP1 POP DUP2 DUP2 SUB PUSH0 DUP4 ADD MSTORE PUSH2 0x1BA0 DUP2 PUSH2 0x1B67 JUMP JUMPDEST SWAP1 POP SWAP2 SWAP1 POP JUMP JUMPDEST PUSH32 0x416C726561647920766F74656400000000000000000000000000000000000000 PUSH0 DUP3 ADD MSTORE POP JUMP JUMPDEST PUSH0 PUSH2 0x1BDB PUSH1 0xD DUP4 PUSH2 0x1216 JUMP JUMPDEST SWAP2 POP PUSH2 0x1BE6 DUP3 PUSH2 0x1BA7 JUMP JUMPDEST PUSH1 0x20 DUP3 ADD SWAP1 POP SWAP2 SWAP1 POP JUMP JUMPDEST PUSH0 PUSH1 0x20 DUP3 ADD SWAP1 POP DUP2 DUP2 SUB PUSH0 DUP4 ADD MSTORE PUSH2 0x1C08 DUP2 PUSH2 0x1BCF JUMP JUMPDEST SWAP1 POP SWAP2 SWAP1 POP JUMP JUMPDEST PUSH32 0x4E6F206F7074696F6E7300000000000000000000000000000000000000000000 PUSH0 DUP3 ADD MSTORE POP JUMP JUMPDEST PUSH0 PUSH2 0x1C43 PUSH1 0xA DUP4 PUSH2 0x1216 JUMP JUMPDEST SWAP2 POP PUSH2 0x1C4E DUP3 PUSH2 0x1C0F JUMP JUMPDEST PUSH1 0x20 DUP3 ADD SWAP1 POP SWAP2 SWAP1 POP JUMP JUMPDEST PUSH0 PUSH1 0x20 DUP3 ADD SWAP1 POP DUP2 DUP2 SUB PUSH0 DUP4 ADD MSTORE PUSH2 0x1C70 DUP2 PUSH2 0x1C37 JUMP JUMPDEST SWAP1 POP SWAP2 SWAP1 POP JUMP JUMPDEST PUSH32 0x53696E676C65206F7074696F6E20726571756972656400000000000000000000 PUSH0 DUP3 ADD MSTORE POP JUMP JUMPDEST PUSH0 PUSH2 0x1CAB PUSH1 0x16 DUP4 PUSH2 0x1216 JUMP JUMPDEST SWAP2 POP PUSH2 0x1CB6 DUP3 PUSH2 0x1C77 JUMP JUMPDEST PUSH1 0x20 DUP3 ADD SWAP1 POP SWAP2 SWAP1 POP JUMP JUMPDEST PUSH0 PUSH1 0x20 DUP3 ADD SWAP1 POP DUP2 DUP2 SUB PUSH0 DUP4 ADD MSTORE PUSH2 0x1CD8 DUP2 PUSH2 0x1C9F JUMP JUMPDEST SWAP1 POP SWAP2 SWAP1 POP JUMP JUMPDEST PUSH32 0x546F6F206D616E792073656C656374696F6E7300000000000000000000000000 PUSH0 DUP3 ADD MSTORE POP JUMP JUMPDEST PUSH0 PUSH2 0x1D13 PUSH1 0x13 DUP4 PUSH2 0x1216 JUMP JUMPDEST SWAP2 POP PUSH2 0x1D1E DUP3 PUSH2 0x1CDF JUMP JUMPDEST PUSH1 0x20 DUP3 ADD SWAP1 POP SWAP2 SWAP1 POP JUMP JUMPDEST PUSH0 PUSH1 0x20 DUP3 ADD SWAP1 POP DUP2 DUP2 SUB PUSH0 DUP4 ADD MSTORE PUSH2 0x1D40 DUP2 PUSH2 0x1D07 JUMP JUMPDEST SWAP1 POP SWAP2 SWAP1 POP JUMP JUMPDEST PUSH32 0x496E76616C6964206F7074696F6E000000000000000000000000000000000000 PUSH0 DUP3 ADD MSTORE POP JUMP JUMPDEST PUSH0 PUSH2 0x1D7B PUSH1 0xE DUP4 PUSH2 0x1216 JUMP JUMPDEST SWAP2 POP PUSH2 0x1D86 DUP3 PUSH2 0x1D47 JUMP JUMPDEST PUSH1 0x20 DUP3 ADD SWAP1 POP SWAP2 SWAP1 POP JUMP JUMPDEST PUSH0 PUSH1 0x20 DUP3 ADD SWAP1 POP DUP2 DUP2 SUB PUSH0 DUP4 ADD MSTORE PUSH2 0x1DA8 DUP2 PUSH2 0x1D6F JUMP JUMPDEST SWAP1 POP SWAP2 SWAP1 POP JUMP JUMPDEST PUSH0 PUSH0 REVERT JUMPDEST DUP3 DUP2 DUP4 CALLDATACOPY POP POP POP JUMP JUMPDEST PUSH0 PUSH2 0x1DC7 DUP4 DUP6 PUSH2 0xED9 JUMP JUMPDEST SWAP4 POP PUSH32 0x7FFFFFFFFFFFFFFFFFFFFFFFFFFFFFFFFFFFFFFFFFFFFFFFFFFFFFFFFFFFFFF DUP4 GT ISZERO PUSH2 0x1DFA JUMPI PUSH2 0x1DF9 PUSH2 0x1DAF JUMP JUMPDEST JUMPDEST PUSH1 0x20 DUP4 MUL SWAP3 POP PUSH2 0x1E0B DUP4 DUP6 DUP5 PUSH2 0x1DB3 JUMP JUMPDEST DUP3 DUP5 ADD SWAP1 POP SWAP4 SWAP3 POP POP POP JUMP JUMPDEST PUSH0 PUSH1 0x40 DUP3 ADD SWAP1 POP DUP2 DUP2 SUB PUSH0 DUP4 ADD MSTORE PUSH2 0x1E30 DUP2 DUP6 DUP8 PUSH2 0x1DBC JUMP JUMPDEST SWAP1 POP PUSH2 0x1E3F PUSH1 0x20 DUP4 ADD DUP5 PUSH2 0xEA7 JUMP JUMPDEST SWAP5 SWAP4 POP POP POP POP JUMP INVALID LOG2 PUSH5 0x6970667358 0x22 SLT KECCAK256 0xEB 0xD4 0xD5 0xB6 SWAP7 0xD8 CALLER CALLVALUE CALLDATALOAD PUSH29 0x5132B736850E638BD906CA8559895A07EE2906EC203964736F6C634300 ADDMOD 0x1F STOP CALLER "
		},
		"gasEstimates": {
			"creation": {
				"codeDepositCost": "1561000",
				"executionCost": "1629",
				"totalCost": "1562629"
			},
			"external": {
				"createQuestion(bytes32,bytes32,uint8,string,uint256,uint8)": "infinite",
				"getQuestionResults(uint256)": "infinite",
				"hasUpvoted(uint256,address)": "3136",
				"hasVoted(uint256,address)": "3092",
				"optionVotes(uint256,uint256)": "infinite",
				"questionCount()": "2447",
				"questions(uint256)": "infinite",
				"upvote(uint256)": "infinite",
				"vote(uint256,uint256[])": "infinite"
			}
		},
		"methodIdentifiers": {
			"createQuestion(bytes32,bytes32,uint8,string,uint256,uint8)": "20eb37b2",
			"getQuestionResults(uint256)": "1acb27df",
			"hasUpvoted(uint256,address)": "a52c8658",
			"hasVoted(uint256,address)": "43859632",
			"optionVotes(uint256,uint256)": "f5816e73",
			"questionCount()": "1468aa2c",
			"questions(uint256)": "31b1b978",
			"upvote(uint256)": "01ddf070",
			"vote(uint256,uint256[])": "7055d368"
		}
	},
	"abi": [
		{
			"anonymous": false,
			"inputs": [
				{
					"indexed": true,
					"internalType": "uint256",
					"name": "id",
					"type": "uint256"
				},
				{
					"indexed": true,
					"internalType": "address",
					"name": "creator",
					"type": "address"
				},
				{
					"indexed": false,
					"internalType": "bytes32",
					"name": "contentCid",
					"type": "bytes32"
				},
				{
					"indexed": false,
					"internalType": "bytes32",
					"name": "optionsCid",
					"type": "bytes32"
				},
				{
					"indexed": false,
					"internalType": "enum VoxChainFinal.QuestionType",
					"name": "qType",
					"type": "uint8"
				},
				{
					"indexed": false,
					"internalType": "string",
					"name": "category",
					"type": "string"
				},
				{
					"indexed": false,
					"internalType": "uint256",
					"name": "deadline",
					"type": "uint256"
				},
				{
					"indexed": false,
					"internalType": "uint8",
					"name": "optionCount",
					"type": "uint8"
				},
				{
					"indexed": false,
					"internalType": "uint256",
					"name": "timestamp",
					"type": "uint256"
				}
			],
			"name": "QuestionCreated",
			"type": "event"
		},
		{
			"anonymous": false,
			"inputs": [
				{
					"indexed": true,
					"internalType": "uint256",
					"name": "questionId",
					"type": "uint256"
				},
				{
					"indexed": true,
					"internalType": "address",
					"name": "user",
					"type": "address"
				},
				{
					"indexed": false,
					"internalType": "uint256",
					"name": "newUpvoteCount",
					"type": "uint256"
				},
				{
					"indexed": false,
					"internalType": "uint256",
					"name": "timestamp",
					"type": "uint256"
				}
			],
			"name": "Upvoted",
			"type": "event"
		},
		{
			"anonymous": false,
			"inputs": [
				{
					"indexed": true,
					"internalType": "uint256",
					"name": "questionId",
					"type": "uint256"
				},
				{
					"indexed": true,
					"internalType": "address",
					"name": "voter",
					"type": "address"
				},
				{
					"indexed": false,
					"internalType": "uint256[]",
					"name": "optionIndexes",
					"type": "uint256[]"
				},
				{
					"indexed": false,
					"internalType": "uint256",
					"name": "timestamp",
					"type": "uint256"
				}
			],
			"name": "VoteCast",
			"type": "event"
		},
		{
			"inputs": [
				{
					"internalType": "bytes32",
					"name": "_contentCid",
					"type": "bytes32"
				},
				{
					"internalType": "bytes32",
					"name": "_optionsCid",
					"type": "bytes32"
				},
				{
					"internalType": "enum VoxChainFinal.QuestionType",
					"name": "_qType",
					"type": "uint8"
				},
				{
					"internalType": "string",
					"name": "_category",
					"type": "string"
				},
				{
					"internalType": "uint256",
					"name": "_deadline",
					"type": "uint256"
				},
				{
					"internalType": "uint8",
					"name": "_optionCount",
					"type": "uint8"
				}
			],
			"name": "createQuestion",
			"outputs": [
				{
					"internalType": "uint256",
					"name": "",
					"type": "uint256"
				}
			],
			"stateMutability": "nonpayable",
			"type": "function"
		},
		{
			"inputs": [
				{
					"internalType": "uint256",
					"name": "_questionId",
					"type": "uint256"
				}
			],
			"name": "getQuestionResults",
			"outputs": [
				{
					"internalType": "uint256[]",
					"name": "votes",
					"type": "uint256[]"
				},
				{
					"internalType": "uint256",
					"name": "totalVotes",
					"type": "uint256"
				}
			],
			"stateMutability": "view",
			"type": "function"
		},
		{
			"inputs": [
				{
					"internalType": "uint256",
					"name": "",
					"type": "uint256"
				},
				{
					"internalType": "address",
					"name": "",
					"type": "address"
				}
			],
			"name": "hasUpvoted",
			"outputs": [
				{
					"internalType": "bool",
					"name": "",
					"type": "bool"
				}
			],
			"stateMutability": "view",
			"type": "function"
		},
		{
			"inputs": [
				{
					"internalType": "uint256",
					"name": "",
					"type": "uint256"
				},
				{
					"internalType": "address",
					"name": "",
					"type": "address"
				}
			],
			"name": "hasVoted",
			"outputs": [
				{
					"internalType": "bool",
					"name": "",
					"type": "bool"
				}
			],
			"stateMutability": "view",
			"type": "function"
		},
		{
			"inputs": [
				{
					"internalType": "uint256",
					"name": "",
					"type": "uint256"
				},
				{
					"internalType": "uint256",
					"name": "",
					"type": "uint256"
				}
			],
			"name": "optionVotes",
			"outputs": [
				{
					"internalType": "uint256",
					"name": "",
					"type": "uint256"
				}
			],
			"stateMutability": "view",
			"type": "function"
		},
		{
			"inputs": [],
			"name": "questionCount",
			"outputs": [
				{
					"internalType": "uint256",
					"name": "",
					"type": "uint256"
				}
			],
			"stateMutability": "view",
			"type": "function"
		},
		{
			"inputs": [
				{
					"internalType": "uint256",
					"name": "",
					"type": "uint256"
				}
			],
			"name": "questions",
			"outputs": [
				{
					"internalType": "uint256",
					"name": "id",
					"type": "uint256"
				},
				{
					"internalType": "address",
					"name": "creator",
					"type": "address"
				},
				{
					"internalType": "bytes32",
					"name": "contentCid",
					"type": "bytes32"
				},
				{
					"internalType": "bytes32",
					"name": "optionsCid",
					"type": "bytes32"
				},
				{
					"internalType": "enum VoxChainFinal.QuestionType",
					"name": "qType",
					"type": "uint8"
				},
				{
					"internalType": "string",
					"name": "category",
					"type": "string"
				},
				{
					"internalType": "uint256",
					"name": "deadline",
					"type": "uint256"
				},
				{
					"internalType": "uint256",
					"name": "createdAt",
					"type": "uint256"
				},
				{
					"internalType": "uint256",
					"name": "upvoteCount",
					"type": "uint256"
				},
				{
					"internalType": "uint256",
					"name": "totalVotes",
					"type": "uint256"
				},
				{
					"internalType": "uint8",
					"name": "optionCount",
					"type": "uint8"
				}
			],
			"stateMutability": "view",
			"type": "function"
		},
		{
			"inputs": [
				{
					"internalType": "uint256",
					"name": "_questionId",
					"type": "uint256"
				}
			],
			"name": "upvote",
			"outputs": [],
			"stateMutability": "nonpayable",
			"type": "function"
		},
		{
			"inputs": [
				{
					"internalType": "uint256",
					"name": "_questionId",
					"type": "uint256"
				},
				{
					"internalType": "uint256[]",
					"name": "_optionIndexes",
					"type": "uint256[]"
				}
			],
			"name": "vote",
			"outputs": [],
			"stateMutability": "nonpayable",
			"type": "function"
		}
	]
}